{
	"input/AllowanceModule.sol": {
		"AllowanceModule": {
			"abi": [
				{
					"constant": true,
					"inputs": [],
					"name": "DOMAIN_SEPARATOR_TYPEHASH",
					"outputs": [
						{
							"name": "",
							"type": "bytes32"
						}
					],
					"payable": false,
					"stateMutability": "view",
					"type": "function"
				},
				{
					"constant": true,
					"inputs": [
						{
							"name": "",
							"type": "address"
						}
					],
					"name": "delegatesStart",
					"outputs": [
						{
							"name": "",
							"type": "uint48"
						}
					],
					"payable": false,
					"stateMutability": "view",
					"type": "function"
				},
				{
					"constant": true,
					"inputs": [],
					"name": "ALLOWANCE_TRANSFER_TYPEHASH",
					"outputs": [
						{
							"name": "",
							"type": "bytes32"
						}
					],
					"payable": false,
					"stateMutability": "view",
					"type": "function"
				},
				{
					"constant": false,
					"inputs": [
						{
							"name": "safe",
							"type": "address"
						},
						{
							"name": "token",
							"type": "address"
						},
						{
							"name": "to",
							"type": "address"
						},
						{
							"name": "amount",
							"type": "uint96"
						},
						{
							"name": "paymentToken",
							"type": "address"
						},
						{
							"name": "payment",
							"type": "uint96"
						},
						{
							"name": "delegate",
							"type": "address"
						},
						{
							"name": "signature",
							"type": "bytes"
						}
					],
					"name": "executeAllowanceTransfer",
					"outputs": [],
					"payable": false,
					"stateMutability": "nonpayable",
					"type": "function"
				},
				{
					"constant": false,
					"inputs": [
						{
							"name": "delegate",
							"type": "address"
						}
					],
					"name": "removeDelegate",
					"outputs": [],
					"payable": false,
					"stateMutability": "nonpayable",
					"type": "function"
				},
				{
					"constant": true,
					"inputs": [
						{
							"name": "safe",
							"type": "address"
						},
						{
							"name": "delegate",
							"type": "address"
						}
					],
					"name": "getTokens",
					"outputs": [
						{
							"name": "",
							"type": "address[]"
						}
					],
					"payable": false,
					"stateMutability": "view",
					"type": "function"
				},
				{
					"constant": true,
					"inputs": [
						{
							"name": "safe",
							"type": "address"
						},
						{
							"name": "delegate",
							"type": "address"
						},
						{
							"name": "token",
							"type": "address"
						}
					],
					"name": "getTokenAllowance",
					"outputs": [
						{
							"name": "",
							"type": "uint256[5]"
						}
					],
					"payable": false,
					"stateMutability": "view",
					"type": "function"
				},
				{
					"constant": true,
					"inputs": [],
					"name": "NAME",
					"outputs": [
						{
							"name": "",
							"type": "string"
						}
					],
					"payable": false,
					"stateMutability": "view",
					"type": "function"
				},
				{
					"constant": true,
					"inputs": [
						{
							"name": "",
							"type": "address"
						},
						{
							"name": "",
							"type": "address"
						},
						{
							"name": "",
							"type": "address"
						}
					],
					"name": "allowances",
					"outputs": [
						{
							"name": "amount",
							"type": "uint96"
						},
						{
							"name": "spent",
							"type": "uint96"
						},
						{
							"name": "resetTimeMin",
							"type": "uint16"
						},
						{
							"name": "lastResetMin",
							"type": "uint32"
						},
						{
							"name": "nonce",
							"type": "uint16"
						}
					],
					"payable": false,
					"stateMutability": "view",
					"type": "function"
				},
				{
					"constant": false,
					"inputs": [
						{
							"name": "delegate",
							"type": "address"
						},
						{
							"name": "token",
							"type": "address"
						},
						{
							"name": "allowanceAmount",
							"type": "uint96"
						},
						{
							"name": "resetTimeMin",
							"type": "uint16"
						},
						{
							"name": "resetBaseMin",
							"type": "uint32"
						}
					],
					"name": "setAllowance",
					"outputs": [],
					"payable": false,
					"stateMutability": "nonpayable",
					"type": "function"
				},
				{
					"constant": false,
					"inputs": [
						{
							"name": "delegate",
							"type": "address"
						},
						{
							"name": "token",
							"type": "address"
						}
					],
					"name": "resetAllowance",
					"outputs": [],
					"payable": false,
					"stateMutability": "nonpayable",
					"type": "function"
				},
				{
					"constant": true,
					"inputs": [
						{
							"name": "",
							"type": "address"
						},
						{
							"name": "",
							"type": "uint48"
						}
					],
					"name": "delegates",
					"outputs": [
						{
							"name": "delegate",
							"type": "address"
						},
						{
							"name": "prev",
							"type": "uint48"
						},
						{
							"name": "next",
							"type": "uint48"
						}
					],
					"payable": false,
					"stateMutability": "view",
					"type": "function"
				},
				{
					"constant": true,
					"inputs": [
						{
							"name": "safe",
							"type": "address"
						},
						{
							"name": "token",
							"type": "address"
						},
						{
							"name": "to",
							"type": "address"
						},
						{
							"name": "amount",
							"type": "uint96"
						},
						{
							"name": "paymentToken",
							"type": "address"
						},
						{
							"name": "payment",
							"type": "uint96"
						},
						{
							"name": "nonce",
							"type": "uint16"
						}
					],
					"name": "generateTransferHash",
					"outputs": [
						{
							"name": "",
							"type": "bytes32"
						}
					],
					"payable": false,
					"stateMutability": "view",
					"type": "function"
				},
				{
					"constant": false,
					"inputs": [
						{
							"name": "delegate",
							"type": "address"
						}
					],
					"name": "addDelegate",
					"outputs": [],
					"payable": false,
					"stateMutability": "nonpayable",
					"type": "function"
				},
				{
					"constant": true,
					"inputs": [
						{
							"name": "safe",
							"type": "address"
						},
						{
							"name": "start",
							"type": "uint48"
						},
						{
							"name": "pageSize",
							"type": "uint8"
						}
					],
					"name": "getDelegates",
					"outputs": [
						{
							"name": "results",
							"type": "address[]"
						},
						{
							"name": "next",
							"type": "uint48"
						}
					],
					"payable": false,
					"stateMutability": "view",
					"type": "function"
				},
				{
					"constant": true,
					"inputs": [
						{
							"name": "",
							"type": "address"
						},
						{
							"name": "",
							"type": "address"
						},
						{
							"name": "",
							"type": "uint256"
						}
					],
					"name": "tokens",
					"outputs": [
						{
							"name": "",
							"type": "address"
						}
					],
					"payable": false,
					"stateMutability": "view",
					"type": "function"
				},
				{
					"constant": true,
					"inputs": [],
					"name": "domainSeparator",
					"outputs": [
						{
							"name": "",
							"type": "bytes32"
						}
					],
					"payable": false,
					"stateMutability": "view",
					"type": "function"
				},
				{
					"constant": true,
					"inputs": [],
					"name": "VERSION",
					"outputs": [
						{
							"name": "",
							"type": "string"
						}
					],
					"payable": false,
					"stateMutability": "view",
					"type": "function"
				},
				{
					"inputs": [],
					"payable": false,
					"stateMutability": "nonpayable",
					"type": "constructor"
				},
				{
					"anonymous": false,
					"inputs": [
						{
							"indexed": true,
							"name": "safe",
							"type": "address"
						},
						{
							"indexed": false,
							"name": "delegate",
							"type": "address"
						}
					],
					"name": "AddDelegate",
					"type": "event"
				},
				{
					"anonymous": false,
					"inputs": [
						{
							"indexed": true,
							"name": "safe",
							"type": "address"
						},
						{
							"indexed": false,
							"name": "delegate",
							"type": "address"
						}
					],
					"name": "RemoveDelegate",
					"type": "event"
				},
				{
					"anonymous": false,
					"inputs": [
						{
							"indexed": true,
							"name": "safe",
							"type": "address"
						},
						{
							"indexed": false,
							"name": "delegate",
							"type": "address"
						},
						{
							"indexed": false,
							"name": "token",
							"type": "address"
						},
						{
							"indexed": false,
							"name": "to",
							"type": "address"
						},
						{
							"indexed": false,
							"name": "value",
							"type": "uint96"
						},
						{
							"indexed": false,
							"name": "nonce",
							"type": "uint16"
						}
					],
					"name": "ExecuteAllowanceTransfer",
					"type": "event"
				},
				{
					"anonymous": false,
					"inputs": [
						{
							"indexed": true,
							"name": "safe",
							"type": "address"
						},
						{
							"indexed": false,
							"name": "delegate",
							"type": "address"
						},
						{
							"indexed": false,
							"name": "token",
							"type": "address"
						},
						{
							"indexed": false,
							"name": "allowanceAmount",
							"type": "uint96"
						},
						{
							"indexed": false,
							"name": "resetTime",
							"type": "uint16"
						}
					],
					"name": "SetAllowance",
					"type": "event"
				}
			],
			"devdoc": {
				"methods": {
					"setAllowance(address,address,uint96,uint16,uint32)": {
						"details": "Allows to update the allowance for a specified token. This can only be done via a Safe transaction.",
						"params": {
							"allowanceAmount": "allowance in smallest token unit.",
							"delegate": "Delegate whose allowance should be updated.",
							"resetBaseMin": "Time based on which the reset time should be increased",
							"resetTimeMin": "Time after which the allowance should reset",
							"token": "Token contract address."
						}
					}
				}
			},
			"evm": {
				"assembly": "    /* \"input/AllowanceModule.sol\":3663:16817  contract AllowanceModule is SignatureDecoder, ISignatureValidatorConstants {... */\n  mstore(0x40, 0x80)\n    /* \"input/AllowanceModule.sol\":5307:5417  constructor() public {... */\n  callvalue\n    /* \"--CODEGEN--\":8:17   */\n  dup1\n    /* \"--CODEGEN--\":5:7   */\n  iszero\n  tag_1\n  jumpi\n    /* \"--CODEGEN--\":30:31   */\n  0x00\n    /* \"--CODEGEN--\":27:28   */\n  dup1\n    /* \"--CODEGEN--\":20:32   */\n  revert\n    /* \"--CODEGEN--\":5:7   */\ntag_1:\n    /* \"input/AllowanceModule.sol\":5307:5417  constructor() public {... */\n  pop\n    /* \"input/AllowanceModule.sol\":3976:4042  0x035aff83d86937d35b32e04f0ddc6ff469290eef2f1b692d8a815c89404d4749 */\n  0x035aff83d86937d35b32e04f0ddc6ff469290eef2f1b692d8a815c89404d4749\n    /* \"input/AllowanceModule.sol\":5377:5402  DOMAIN_SEPARATOR_TYPEHASH */\n  0x00\n  shl\n    /* \"input/AllowanceModule.sol\":5404:5408  this */\n  address\n    /* \"input/AllowanceModule.sol\":5366:5409  abi.encode(DOMAIN_SEPARATOR_TYPEHASH, this) */\n  add(0x20, mload(0x40))\n  dup1\n  dup4\n  dup2\n  mstore\n  0x20\n  add\n  dup3\n  0xffffffffffffffffffffffffffffffffffffffff\n  and\n  0xffffffffffffffffffffffffffffffffffffffff\n  and\n  dup2\n  mstore\n  0x20\n  add\n  swap3\n  pop\n  pop\n  pop\n  mload(0x40)\n    /* \"--CODEGEN--\":49:53   */\n  0x20\n    /* \"--CODEGEN--\":39:46   */\n  dup2\n    /* \"--CODEGEN--\":30:37   */\n  dup4\n    /* \"--CODEGEN--\":26:47   */\n  sub\n    /* \"--CODEGEN--\":22:54   */\n  sub\n    /* \"--CODEGEN--\":13:20   */\n  dup2\n    /* \"--CODEGEN--\":6:55   */\n  mstore\n    /* \"input/AllowanceModule.sol\":5366:5409  abi.encode(DOMAIN_SEPARATOR_TYPEHASH, this) */\n  swap1\n  0x40\n  mstore\n    /* \"input/AllowanceModule.sol\":5356:5410  keccak256(abi.encode(DOMAIN_SEPARATOR_TYPEHASH, this)) */\n  dup1\n  mload\n  swap1\n  0x20\n  add\n  keccak256\n    /* \"input/AllowanceModule.sol\":5338:5353  domainSeparator */\n  0x04\n    /* \"input/AllowanceModule.sol\":5338:5410  domainSeparator = keccak256(abi.encode(DOMAIN_SEPARATOR_TYPEHASH, this)) */\n  dup2\n  swap1\n  sstore\n  pop\n    /* \"input/AllowanceModule.sol\":3663:16817  contract AllowanceModule is SignatureDecoder, ISignatureValidatorConstants {... */\n  dataSize(sub_0)\n  dup1\n  dataOffset(sub_0)\n  0x00\n  codecopy\n  0x00\n  return\nstop\n\nsub_0: assembly {\n        /* \"input/AllowanceModule.sol\":3663:16817  contract AllowanceModule is SignatureDecoder, ISignatureValidatorConstants {... */\n      mstore(0x40, 0x80)\n      callvalue\n        /* \"--CODEGEN--\":8:17   */\n      dup1\n        /* \"--CODEGEN--\":5:7   */\n      iszero\n      tag_1\n      jumpi\n        /* \"--CODEGEN--\":30:31   */\n      0x00\n        /* \"--CODEGEN--\":27:28   */\n      dup1\n        /* \"--CODEGEN--\":20:32   */\n      revert\n        /* \"--CODEGEN--\":5:7   */\n    tag_1:\n        /* \"input/AllowanceModule.sol\":3663:16817  contract AllowanceModule is SignatureDecoder, ISignatureValidatorConstants {... */\n      pop\n      jumpi(tag_2, lt(calldatasize, 0x04))\n      shr(0xe0, calldataload(0x00))\n      dup1\n      0xbeaeb388\n      gt\n      tag_21\n      jumpi\n      dup1\n      0xe71bdf41\n      gt\n      tag_22\n      jumpi\n      dup1\n      0xe71bdf41\n      eq\n      tag_16\n      jumpi\n      dup1\n      0xeb37abe0\n      eq\n      tag_17\n      jumpi\n      dup1\n      0xf56e81fa\n      eq\n      tag_18\n      jumpi\n      dup1\n      0xf698da25\n      eq\n      tag_19\n      jumpi\n      dup1\n      0xffa1ad74\n      eq\n      tag_20\n      jumpi\n      jump(tag_2)\n    tag_22:\n      dup1\n      0xbeaeb388\n      eq\n      tag_12\n      jumpi\n      dup1\n      0xc19bf50e\n      eq\n      tag_13\n      jumpi\n      dup1\n      0xce60c692\n      eq\n      tag_14\n      jumpi\n      dup1\n      0xd626e043\n      eq\n      tag_15\n      jumpi\n      jump(tag_2)\n    tag_21:\n      dup1\n      0x67e7646f\n      gt\n      tag_23\n      jumpi\n      dup1\n      0x67e7646f\n      eq\n      tag_7\n      jumpi\n      dup1\n      0x8d0e8e1d\n      eq\n      tag_8\n      jumpi\n      dup1\n      0x94b31fbd\n      eq\n      tag_9\n      jumpi\n      dup1\n      0xa3f4df7e\n      eq\n      tag_10\n      jumpi\n      dup1\n      0xb713c9d4\n      eq\n      tag_11\n      jumpi\n      jump(tag_2)\n    tag_23:\n      dup1\n      0x1db61b54\n      eq\n      tag_3\n      jumpi\n      dup1\n      0x310a3bb1\n      eq\n      tag_4\n      jumpi\n      dup1\n      0x43abf5fe\n      eq\n      tag_5\n      jumpi\n      dup1\n      0x4515641a\n      eq\n      tag_6\n      jumpi\n    tag_2:\n      0x00\n      dup1\n      revert\n        /* \"input/AllowanceModule.sol\":3924:4042  bytes32 public constant DOMAIN_SEPARATOR_TYPEHASH = 0x035aff83d86937d35b32e04f0ddc6ff469290eef2f1b692d8a815c89404d4749 */\n    tag_3:\n      tag_24\n      tag_25\n      jump\t// in\n    tag_24:\n      mload(0x40)\n      dup1\n      dup3\n      dup2\n      mstore\n      0x20\n      add\n      swap2\n      pop\n      pop\n      mload(0x40)\n      dup1\n      swap2\n      sub\n      swap1\n      return\n        /* \"input/AllowanceModule.sol\":4548:4596  mapping(address => uint48) public delegatesStart */\n    tag_4:\n      tag_26\n      0x04\n      dup1\n      calldatasize\n      sub\n        /* \"--CODEGEN--\":13:15   */\n      0x20\n        /* \"--CODEGEN--\":8:11   */\n      dup2\n        /* \"--CODEGEN--\":5:16   */\n      lt\n        /* \"--CODEGEN--\":2:4   */\n      iszero\n      tag_27\n      jumpi\n        /* \"--CODEGEN--\":29:30   */\n      0x00\n        /* \"--CODEGEN--\":26:27   */\n      dup1\n        /* \"--CODEGEN--\":19:31   */\n      revert\n        /* \"--CODEGEN--\":2:4   */\n    tag_27:\n        /* \"input/AllowanceModule.sol\":4548:4596  mapping(address => uint48) public delegatesStart */\n      dup2\n      add\n      swap1\n      dup1\n      dup1\n      calldataload\n      0xffffffffffffffffffffffffffffffffffffffff\n      and\n      swap1\n      0x20\n      add\n      swap1\n      swap3\n      swap2\n      swap1\n      pop\n      pop\n      pop\n      tag_28\n      jump\t// in\n    tag_26:\n      mload(0x40)\n      dup1\n      dup3\n      0xffffffffffff\n      and\n      0xffffffffffff\n      and\n      dup2\n      mstore\n      0x20\n      add\n      swap2\n      pop\n      pop\n      mload(0x40)\n      dup1\n      swap2\n      sub\n      swap1\n      return\n        /* \"input/AllowanceModule.sol\":4080:4269  bytes32 public constant ALLOWANCE_TRANSFER_TYPEHASH = keccak256(... */\n    tag_5:\n      tag_29\n      tag_30\n      jump\t// in\n    tag_29:\n      mload(0x40)\n      dup1\n      dup3\n      dup2\n      mstore\n      0x20\n      add\n      swap2\n      pop\n      pop\n      mload(0x40)\n      dup1\n      swap2\n      sub\n      swap1\n      return\n        /* \"input/AllowanceModule.sol\":8145:10359  function executeAllowanceTransfer(... */\n    tag_6:\n      tag_31\n      0x04\n      dup1\n      calldatasize\n      sub\n        /* \"--CODEGEN--\":13:16   */\n      0x0100\n        /* \"--CODEGEN--\":8:11   */\n      dup2\n        /* \"--CODEGEN--\":5:17   */\n      lt\n        /* \"--CODEGEN--\":2:4   */\n      iszero\n      tag_32\n      jumpi\n        /* \"--CODEGEN--\":30:31   */\n      0x00\n        /* \"--CODEGEN--\":27:28   */\n      dup1\n        /* \"--CODEGEN--\":20:32   */\n      revert\n        /* \"--CODEGEN--\":2:4   */\n    tag_32:\n        /* \"input/AllowanceModule.sol\":8145:10359  function executeAllowanceTransfer(... */\n      dup2\n      add\n      swap1\n      dup1\n      dup1\n      calldataload\n      0xffffffffffffffffffffffffffffffffffffffff\n      and\n      swap1\n      0x20\n      add\n      swap1\n      swap3\n      swap2\n      swap1\n      dup1\n      calldataload\n      0xffffffffffffffffffffffffffffffffffffffff\n      and\n      swap1\n      0x20\n      add\n      swap1\n      swap3\n      swap2\n      swap1\n      dup1\n      calldataload\n      0xffffffffffffffffffffffffffffffffffffffff\n      and\n      swap1\n      0x20\n      add\n      swap1\n      swap3\n      swap2\n      swap1\n      dup1\n      calldataload\n      0xffffffffffffffffffffffff\n      and\n      swap1\n      0x20\n      add\n      swap1\n      swap3\n      swap2\n      swap1\n      dup1\n      calldataload\n      0xffffffffffffffffffffffffffffffffffffffff\n      and\n      swap1\n      0x20\n      add\n      swap1\n      swap3\n      swap2\n      swap1\n      dup1\n      calldataload\n      0xffffffffffffffffffffffff\n      and\n      swap1\n      0x20\n      add\n      swap1\n      swap3\n      swap2\n      swap1\n      dup1\n      calldataload\n      0xffffffffffffffffffffffffffffffffffffffff\n      and\n      swap1\n      0x20\n      add\n      swap1\n      swap3\n      swap2\n      swap1\n      dup1\n      calldataload\n      swap1\n      0x20\n      add\n      swap1\n        /* \"--CODEGEN--\":21:32   */\n      0x0100000000\n        /* \"--CODEGEN--\":8:19   */\n      dup2\n        /* \"--CODEGEN--\":5:33   */\n      gt\n        /* \"--CODEGEN--\":2:4   */\n      iszero\n      tag_33\n      jumpi\n        /* \"--CODEGEN--\":46:47   */\n      0x00\n        /* \"--CODEGEN--\":43:44   */\n      dup1\n        /* \"--CODEGEN--\":36:48   */\n      revert\n        /* \"--CODEGEN--\":2:4   */\n    tag_33:\n        /* \"input/AllowanceModule.sol\":8145:10359  function executeAllowanceTransfer(... */\n      dup3\n      add\n        /* \"--CODEGEN--\":35:44   */\n      dup4\n        /* \"--CODEGEN--\":28:32   */\n      0x20\n        /* \"--CODEGEN--\":12:26   */\n      dup3\n        /* \"--CODEGEN--\":8:33   */\n      add\n        /* \"--CODEGEN--\":5:45   */\n      gt\n        /* \"--CODEGEN--\":2:4   */\n      iszero\n      tag_34\n      jumpi\n        /* \"--CODEGEN--\":58:59   */\n      0x00\n        /* \"--CODEGEN--\":55:56   */\n      dup1\n        /* \"--CODEGEN--\":48:60   */\n      revert\n        /* \"--CODEGEN--\":2:4   */\n    tag_34:\n        /* \"input/AllowanceModule.sol\":8145:10359  function executeAllowanceTransfer(... */\n      dup1\n      calldataload\n      swap1\n      0x20\n      add\n      swap2\n        /* \"--CODEGEN--\":100:109   */\n      dup5\n        /* \"--CODEGEN--\":95:96   */\n      0x01\n        /* \"--CODEGEN--\":81:93   */\n      dup4\n        /* \"--CODEGEN--\":77:97   */\n      mul\n        /* \"--CODEGEN--\":67:75   */\n      dup5\n        /* \"--CODEGEN--\":63:98   */\n      add\n        /* \"--CODEGEN--\":60:110   */\n      gt\n        /* \"--CODEGEN--\":39:50   */\n      0x0100000000\n        /* \"--CODEGEN--\":25:37   */\n      dup4\n        /* \"--CODEGEN--\":22:51   */\n      gt\n        /* \"--CODEGEN--\":11:118   */\n      or\n        /* \"--CODEGEN--\":8:10   */\n      iszero\n      tag_35\n      jumpi\n        /* \"--CODEGEN--\":131:132   */\n      0x00\n        /* \"--CODEGEN--\":128:129   */\n      dup1\n        /* \"--CODEGEN--\":121:133   */\n      revert\n        /* \"--CODEGEN--\":8:10   */\n    tag_35:\n        /* \"input/AllowanceModule.sol\":8145:10359  function executeAllowanceTransfer(... */\n      swap2\n      swap1\n      dup1\n      dup1\n      0x1f\n      add\n      0x20\n      dup1\n      swap2\n      div\n      mul\n      0x20\n      add\n      mload(0x40)\n      swap1\n      dup2\n      add\n      0x40\n      mstore\n      dup1\n      swap4\n      swap3\n      swap2\n      swap1\n      dup2\n      dup2\n      mstore\n      0x20\n      add\n      dup4\n      dup4\n        /* \"--CODEGEN--\":30:33   */\n      dup1\n        /* \"--CODEGEN--\":22:28   */\n      dup3\n        /* \"--CODEGEN--\":14:20   */\n      dup5\n        /* \"--CODEGEN--\":1:34   */\n      calldatacopy\n        /* \"--CODEGEN--\":99:100   */\n      0x00\n        /* \"--CODEGEN--\":93:96   */\n      dup2\n        /* \"--CODEGEN--\":85:91   */\n      dup5\n        /* \"--CODEGEN--\":81:97   */\n      add\n        /* \"--CODEGEN--\":74:101   */\n      mstore\n        /* \"--CODEGEN--\":137:141   */\n      0x1f\n        /* \"--CODEGEN--\":133:142   */\n      not\n        /* \"--CODEGEN--\":126:130   */\n      0x1f\n        /* \"--CODEGEN--\":121:124   */\n      dup3\n        /* \"--CODEGEN--\":117:131   */\n      add\n        /* \"--CODEGEN--\":113:143   */\n      and\n        /* \"--CODEGEN--\":106:143   */\n      swap1\n      pop\n        /* \"--CODEGEN--\":169:172   */\n      dup1\n        /* \"--CODEGEN--\":161:167   */\n      dup4\n        /* \"--CODEGEN--\":157:173   */\n      add\n        /* \"--CODEGEN--\":147:173   */\n      swap3\n      pop\n        /* \"input/AllowanceModule.sol\":8145:10359  function executeAllowanceTransfer(... */\n      pop\n      pop\n      pop\n      pop\n      pop\n      pop\n      swap2\n      swap3\n      swap2\n      swap3\n      swap1\n      pop\n      pop\n      pop\n      tag_36\n      jump\t// in\n    tag_31:\n      stop\n        /* \"input/AllowanceModule.sol\":15153:16120  function removeDelegate(address delegate) public {... */\n    tag_7:\n      tag_37\n      0x04\n      dup1\n      calldatasize\n      sub\n        /* \"--CODEGEN--\":13:15   */\n      0x20\n        /* \"--CODEGEN--\":8:11   */\n      dup2\n        /* \"--CODEGEN--\":5:16   */\n      lt\n        /* \"--CODEGEN--\":2:4   */\n      iszero\n      tag_38\n      jumpi\n        /* \"--CODEGEN--\":29:30   */\n      0x00\n        /* \"--CODEGEN--\":26:27   */\n      dup1\n        /* \"--CODEGEN--\":19:31   */\n      revert\n        /* \"--CODEGEN--\":2:4   */\n    tag_38:\n        /* \"input/AllowanceModule.sol\":15153:16120  function removeDelegate(address delegate) public {... */\n      dup2\n      add\n      swap1\n      dup1\n      dup1\n      calldataload\n      0xffffffffffffffffffffffffffffffffffffffff\n      and\n      swap1\n      0x20\n      add\n      swap1\n      swap3\n      swap2\n      swap1\n      pop\n      pop\n      pop\n      tag_39\n      jump\t// in\n    tag_37:\n      stop\n        /* \"input/AllowanceModule.sol\":14009:14145  function getTokens(address safe, address delegate) public view returns (address[] memory) {... */\n    tag_8:\n      tag_40\n      0x04\n      dup1\n      calldatasize\n      sub\n        /* \"--CODEGEN--\":13:15   */\n      0x40\n        /* \"--CODEGEN--\":8:11   */\n      dup2\n        /* \"--CODEGEN--\":5:16   */\n      lt\n        /* \"--CODEGEN--\":2:4   */\n      iszero\n      tag_41\n      jumpi\n        /* \"--CODEGEN--\":29:30   */\n      0x00\n        /* \"--CODEGEN--\":26:27   */\n      dup1\n        /* \"--CODEGEN--\":19:31   */\n      revert\n        /* \"--CODEGEN--\":2:4   */\n    tag_41:\n        /* \"input/AllowanceModule.sol\":14009:14145  function getTokens(address safe, address delegate) public view returns (address[] memory) {... */\n      dup2\n      add\n      swap1\n      dup1\n      dup1\n      calldataload\n      0xffffffffffffffffffffffffffffffffffffffff\n      and\n      swap1\n      0x20\n      add\n      swap1\n      swap3\n      swap2\n      swap1\n      dup1\n      calldataload\n      0xffffffffffffffffffffffffffffffffffffffff\n      and\n      swap1\n      0x20\n      add\n      swap1\n      swap3\n      swap2\n      swap1\n      pop\n      pop\n      pop\n      tag_42\n      jump\t// in\n    tag_40:\n      mload(0x40)\n      dup1\n      dup1\n      0x20\n      add\n      dup3\n      dup2\n      sub\n      dup3\n      mstore\n      dup4\n      dup2\n      dup2\n      mload\n      dup2\n      mstore\n      0x20\n      add\n      swap2\n      pop\n      dup1\n      mload\n      swap1\n      0x20\n      add\n      swap1\n      0x20\n      mul\n      dup1\n      dup4\n      dup4\n        /* \"--CODEGEN--\":23:24   */\n      0x00\n        /* \"--CODEGEN--\":8:108   */\n    tag_43:\n        /* \"--CODEGEN--\":33:36   */\n      dup4\n        /* \"--CODEGEN--\":30:31   */\n      dup2\n        /* \"--CODEGEN--\":27:37   */\n      lt\n        /* \"--CODEGEN--\":8:108   */\n      iszero\n      tag_45\n      jumpi\n        /* \"--CODEGEN--\":99:100   */\n      dup1\n        /* \"--CODEGEN--\":94:97   */\n      dup3\n        /* \"--CODEGEN--\":90:101   */\n      add\n        /* \"--CODEGEN--\":84:102   */\n      mload\n        /* \"--CODEGEN--\":80:81   */\n      dup2\n        /* \"--CODEGEN--\":75:78   */\n      dup5\n        /* \"--CODEGEN--\":71:82   */\n      add\n        /* \"--CODEGEN--\":64:103   */\n      mstore\n        /* \"--CODEGEN--\":52:54   */\n      0x20\n        /* \"--CODEGEN--\":49:50   */\n      dup2\n        /* \"--CODEGEN--\":45:55   */\n      add\n        /* \"--CODEGEN--\":40:55   */\n      swap1\n      pop\n        /* \"--CODEGEN--\":8:108   */\n      jump(tag_43)\n    tag_45:\n        /* \"--CODEGEN--\":12:26   */\n      pop\n        /* \"input/AllowanceModule.sol\":14009:14145  function getTokens(address safe, address delegate) public view returns (address[] memory) {... */\n      pop\n      pop\n      pop\n      swap1\n      pop\n      add\n      swap3\n      pop\n      pop\n      pop\n      mload(0x40)\n      dup1\n      swap2\n      sub\n      swap1\n      return\n        /* \"input/AllowanceModule.sol\":14151:14578  function getTokenAllowance(address safe, address delegate, address token) public view returns (uint256[5] memory) {... */\n    tag_9:\n      tag_46\n      0x04\n      dup1\n      calldatasize\n      sub\n        /* \"--CODEGEN--\":13:15   */\n      0x60\n        /* \"--CODEGEN--\":8:11   */\n      dup2\n        /* \"--CODEGEN--\":5:16   */\n      lt\n        /* \"--CODEGEN--\":2:4   */\n      iszero\n      tag_47\n      jumpi\n        /* \"--CODEGEN--\":29:30   */\n      0x00\n        /* \"--CODEGEN--\":26:27   */\n      dup1\n        /* \"--CODEGEN--\":19:31   */\n      revert\n        /* \"--CODEGEN--\":2:4   */\n    tag_47:\n        /* \"input/AllowanceModule.sol\":14151:14578  function getTokenAllowance(address safe, address delegate, address token) public view returns (uint256[5] memory) {... */\n      dup2\n      add\n      swap1\n      dup1\n      dup1\n      calldataload\n      0xffffffffffffffffffffffffffffffffffffffff\n      and\n      swap1\n      0x20\n      add\n      swap1\n      swap3\n      swap2\n      swap1\n      dup1\n      calldataload\n      0xffffffffffffffffffffffffffffffffffffffff\n      and\n      swap1\n      0x20\n      add\n      swap1\n      swap3\n      swap2\n      swap1\n      dup1\n      calldataload\n      0xffffffffffffffffffffffffffffffffffffffff\n      and\n      swap1\n      0x20\n      add\n      swap1\n      swap3\n      swap2\n      swap1\n      pop\n      pop\n      pop\n      tag_48\n      jump\t// in\n    tag_46:\n      mload(0x40)\n      dup1\n      dup3\n      mul(0x20, 0x05)\n      dup1\n      dup4\n      dup4\n        /* \"--CODEGEN--\":23:24   */\n      0x00\n        /* \"--CODEGEN--\":8:108   */\n    tag_49:\n        /* \"--CODEGEN--\":33:36   */\n      dup4\n        /* \"--CODEGEN--\":30:31   */\n      dup2\n        /* \"--CODEGEN--\":27:37   */\n      lt\n        /* \"--CODEGEN--\":8:108   */\n      iszero\n      tag_51\n      jumpi\n        /* \"--CODEGEN--\":99:100   */\n      dup1\n        /* \"--CODEGEN--\":94:97   */\n      dup3\n        /* \"--CODEGEN--\":90:101   */\n      add\n        /* \"--CODEGEN--\":84:102   */\n      mload\n        /* \"--CODEGEN--\":80:81   */\n      dup2\n        /* \"--CODEGEN--\":75:78   */\n      dup5\n        /* \"--CODEGEN--\":71:82   */\n      add\n        /* \"--CODEGEN--\":64:103   */\n      mstore\n        /* \"--CODEGEN--\":52:54   */\n      0x20\n        /* \"--CODEGEN--\":49:50   */\n      dup2\n        /* \"--CODEGEN--\":45:55   */\n      add\n        /* \"--CODEGEN--\":40:55   */\n      swap1\n      pop\n        /* \"--CODEGEN--\":8:108   */\n      jump(tag_49)\n    tag_51:\n        /* \"--CODEGEN--\":12:26   */\n      pop\n        /* \"input/AllowanceModule.sol\":14151:14578  function getTokenAllowance(address safe, address delegate, address token) public view returns (uint256[5] memory) {... */\n      pop\n      pop\n      pop\n      swap1\n      pop\n      add\n      swap2\n      pop\n      pop\n      mload(0x40)\n      dup1\n      swap2\n      sub\n      swap1\n      return\n        /* \"input/AllowanceModule.sol\":3745:3793  string public constant NAME = \"Allowance Module\" */\n    tag_10:\n      tag_52\n      tag_53\n      jump\t// in\n    tag_52:\n      mload(0x40)\n      dup1\n      dup1\n      0x20\n      add\n      dup3\n      dup2\n      sub\n      dup3\n      mstore\n      dup4\n      dup2\n      dup2\n      mload\n      dup2\n      mstore\n      0x20\n      add\n      swap2\n      pop\n      dup1\n      mload\n      swap1\n      0x20\n      add\n      swap1\n      dup1\n      dup4\n      dup4\n        /* \"--CODEGEN--\":23:24   */\n      0x00\n        /* \"--CODEGEN--\":8:108   */\n    tag_54:\n        /* \"--CODEGEN--\":33:36   */\n      dup4\n        /* \"--CODEGEN--\":30:31   */\n      dup2\n        /* \"--CODEGEN--\":27:37   */\n      lt\n        /* \"--CODEGEN--\":8:108   */\n      iszero\n      tag_56\n      jumpi\n        /* \"--CODEGEN--\":99:100   */\n      dup1\n        /* \"--CODEGEN--\":94:97   */\n      dup3\n        /* \"--CODEGEN--\":90:101   */\n      add\n        /* \"--CODEGEN--\":84:102   */\n      mload\n        /* \"--CODEGEN--\":80:81   */\n      dup2\n        /* \"--CODEGEN--\":75:78   */\n      dup5\n        /* \"--CODEGEN--\":71:82   */\n      add\n        /* \"--CODEGEN--\":64:103   */\n      mstore\n        /* \"--CODEGEN--\":52:54   */\n      0x20\n        /* \"--CODEGEN--\":49:50   */\n      dup2\n        /* \"--CODEGEN--\":45:55   */\n      add\n        /* \"--CODEGEN--\":40:55   */\n      swap1\n      pop\n        /* \"--CODEGEN--\":8:108   */\n      jump(tag_54)\n    tag_56:\n        /* \"--CODEGEN--\":12:26   */\n      pop\n        /* \"input/AllowanceModule.sol\":3745:3793  string public constant NAME = \"Allowance Module\" */\n      pop\n      pop\n      pop\n      swap1\n      pop\n      swap1\n      dup2\n      add\n      swap1\n      0x1f\n      and\n      dup1\n      iszero\n      tag_57\n      jumpi\n      dup1\n      dup3\n      sub\n      dup1\n      mload\n      0x01\n      dup4\n      0x20\n      sub\n      0x0100\n      exp\n      sub\n      not\n      and\n      dup2\n      mstore\n      0x20\n      add\n      swap2\n      pop\n    tag_57:\n      pop\n      swap3\n      pop\n      pop\n      pop\n      mload(0x40)\n      dup1\n      swap2\n      sub\n      swap1\n      return\n        /* \"input/AllowanceModule.sol\":4313:4401  mapping(address => mapping (address => mapping(address => Allowance))) public allowances */\n    tag_11:\n      tag_58\n      0x04\n      dup1\n      calldatasize\n      sub\n        /* \"--CODEGEN--\":13:15   */\n      0x60\n        /* \"--CODEGEN--\":8:11   */\n      dup2\n        /* \"--CODEGEN--\":5:16   */\n      lt\n        /* \"--CODEGEN--\":2:4   */\n      iszero\n      tag_59\n      jumpi\n        /* \"--CODEGEN--\":29:30   */\n      0x00\n        /* \"--CODEGEN--\":26:27   */\n      dup1\n        /* \"--CODEGEN--\":19:31   */\n      revert\n        /* \"--CODEGEN--\":2:4   */\n    tag_59:\n        /* \"input/AllowanceModule.sol\":4313:4401  mapping(address => mapping (address => mapping(address => Allowance))) public allowances */\n      dup2\n      add\n      swap1\n      dup1\n      dup1\n      calldataload\n      0xffffffffffffffffffffffffffffffffffffffff\n      and\n      swap1\n      0x20\n      add\n      swap1\n      swap3\n      swap2\n      swap1\n      dup1\n      calldataload\n      0xffffffffffffffffffffffffffffffffffffffff\n      and\n      swap1\n      0x20\n      add\n      swap1\n      swap3\n      swap2\n      swap1\n      dup1\n      calldataload\n      0xffffffffffffffffffffffffffffffffffffffff\n      and\n      swap1\n      0x20\n      add\n      swap1\n      swap3\n      swap2\n      swap1\n      pop\n      pop\n      pop\n      tag_60\n      jump\t// in\n    tag_58:\n      mload(0x40)\n      dup1\n      dup7\n      0xffffffffffffffffffffffff\n      and\n      0xffffffffffffffffffffffff\n      and\n      dup2\n      mstore\n      0x20\n      add\n      dup6\n      0xffffffffffffffffffffffff\n      and\n      0xffffffffffffffffffffffff\n      and\n      dup2\n      mstore\n      0x20\n      add\n      dup5\n      0xffff\n      and\n      0xffff\n      and\n      dup2\n      mstore\n      0x20\n      add\n      dup4\n      0xffffffff\n      and\n      0xffffffff\n      and\n      dup2\n      mstore\n      0x20\n      add\n      dup3\n      0xffff\n      and\n      0xffff\n      and\n      dup2\n      mstore\n      0x20\n      add\n      swap6\n      pop\n      pop\n      pop\n      pop\n      pop\n      pop\n      mload(0x40)\n      dup1\n      swap2\n      sub\n      swap1\n      return\n        /* \"input/AllowanceModule.sol\":5869:7125  function setAllowance(address delegate, address token, uint96 allowanceAmount, uint16 resetTimeMin, uint32 resetBaseMin)... */\n    tag_12:\n      tag_61\n      0x04\n      dup1\n      calldatasize\n      sub\n        /* \"--CODEGEN--\":13:16   */\n      0xa0\n        /* \"--CODEGEN--\":8:11   */\n      dup2\n        /* \"--CODEGEN--\":5:17   */\n      lt\n        /* \"--CODEGEN--\":2:4   */\n      iszero\n      tag_62\n      jumpi\n        /* \"--CODEGEN--\":30:31   */\n      0x00\n        /* \"--CODEGEN--\":27:28   */\n      dup1\n        /* \"--CODEGEN--\":20:32   */\n      revert\n        /* \"--CODEGEN--\":2:4   */\n    tag_62:\n        /* \"input/AllowanceModule.sol\":5869:7125  function setAllowance(address delegate, address token, uint96 allowanceAmount, uint16 resetTimeMin, uint32 resetBaseMin)... */\n      dup2\n      add\n      swap1\n      dup1\n      dup1\n      calldataload\n      0xffffffffffffffffffffffffffffffffffffffff\n      and\n      swap1\n      0x20\n      add\n      swap1\n      swap3\n      swap2\n      swap1\n      dup1\n      calldataload\n      0xffffffffffffffffffffffffffffffffffffffff\n      and\n      swap1\n      0x20\n      add\n      swap1\n      swap3\n      swap2\n      swap1\n      dup1\n      calldataload\n      0xffffffffffffffffffffffff\n      and\n      swap1\n      0x20\n      add\n      swap1\n      swap3\n      swap2\n      swap1\n      dup1\n      calldataload\n      0xffff\n      and\n      swap1\n      0x20\n      add\n      swap1\n      swap3\n      swap2\n      swap1\n      dup1\n      calldataload\n      0xffffffff\n      and\n      swap1\n      0x20\n      add\n      swap1\n      swap3\n      swap2\n      swap1\n      pop\n      pop\n      pop\n      tag_63\n      jump\t// in\n    tag_61:\n      stop\n        /* \"input/AllowanceModule.sol\":7894:8139  function resetAllowance(address delegate, address token) public {... */\n    tag_13:\n      tag_64\n      0x04\n      dup1\n      calldatasize\n      sub\n        /* \"--CODEGEN--\":13:15   */\n      0x40\n        /* \"--CODEGEN--\":8:11   */\n      dup2\n        /* \"--CODEGEN--\":5:16   */\n      lt\n        /* \"--CODEGEN--\":2:4   */\n      iszero\n      tag_65\n      jumpi\n        /* \"--CODEGEN--\":29:30   */\n      0x00\n        /* \"--CODEGEN--\":26:27   */\n      dup1\n        /* \"--CODEGEN--\":19:31   */\n      revert\n        /* \"--CODEGEN--\":2:4   */\n    tag_65:\n        /* \"input/AllowanceModule.sol\":7894:8139  function resetAllowance(address delegate, address token) public {... */\n      dup2\n      add\n      swap1\n      dup1\n      dup1\n      calldataload\n      0xffffffffffffffffffffffffffffffffffffffff\n      and\n      swap1\n      0x20\n      add\n      swap1\n      swap3\n      swap2\n      swap1\n      dup1\n      calldataload\n      0xffffffffffffffffffffffffffffffffffffffff\n      and\n      swap1\n      0x20\n      add\n      swap1\n      swap3\n      swap2\n      swap1\n      pop\n      pop\n      pop\n      tag_66\n      jump\t// in\n    tag_64:\n      stop\n        /* \"input/AllowanceModule.sol\":4477:4542  mapping(address => mapping (uint48 => Delegate)) public delegates */\n    tag_14:\n      tag_67\n      0x04\n      dup1\n      calldatasize\n      sub\n        /* \"--CODEGEN--\":13:15   */\n      0x40\n        /* \"--CODEGEN--\":8:11   */\n      dup2\n        /* \"--CODEGEN--\":5:16   */\n      lt\n        /* \"--CODEGEN--\":2:4   */\n      iszero\n      tag_68\n      jumpi\n        /* \"--CODEGEN--\":29:30   */\n      0x00\n        /* \"--CODEGEN--\":26:27   */\n      dup1\n        /* \"--CODEGEN--\":19:31   */\n      revert\n        /* \"--CODEGEN--\":2:4   */\n    tag_68:\n        /* \"input/AllowanceModule.sol\":4477:4542  mapping(address => mapping (uint48 => Delegate)) public delegates */\n      dup2\n      add\n      swap1\n      dup1\n      dup1\n      calldataload\n      0xffffffffffffffffffffffffffffffffffffffff\n      and\n      swap1\n      0x20\n      add\n      swap1\n      swap3\n      swap2\n      swap1\n      dup1\n      calldataload\n      0xffffffffffff\n      and\n      swap1\n      0x20\n      add\n      swap1\n      swap3\n      swap2\n      swap1\n      pop\n      pop\n      pop\n      tag_69\n      jump\t// in\n    tag_67:\n      mload(0x40)\n      dup1\n      dup5\n      0xffffffffffffffffffffffffffffffffffffffff\n      and\n      0xffffffffffffffffffffffffffffffffffffffff\n      and\n      dup2\n      mstore\n      0x20\n      add\n      dup4\n      0xffffffffffff\n      and\n      0xffffffffffff\n      and\n      dup2\n      mstore\n      0x20\n      add\n      dup3\n      0xffffffffffff\n      and\n      0xffffffffffff\n      and\n      dup2\n      mstore\n      0x20\n      add\n      swap4\n      pop\n      pop\n      pop\n      pop\n      mload(0x40)\n      dup1\n      swap2\n      sub\n      swap1\n      return\n        /* \"input/AllowanceModule.sol\":10866:11232  function generateTransferHash(... */\n    tag_15:\n      tag_70\n      0x04\n      dup1\n      calldatasize\n      sub\n        /* \"--CODEGEN--\":13:16   */\n      0xe0\n        /* \"--CODEGEN--\":8:11   */\n      dup2\n        /* \"--CODEGEN--\":5:17   */\n      lt\n        /* \"--CODEGEN--\":2:4   */\n      iszero\n      tag_71\n      jumpi\n        /* \"--CODEGEN--\":30:31   */\n      0x00\n        /* \"--CODEGEN--\":27:28   */\n      dup1\n        /* \"--CODEGEN--\":20:32   */\n      revert\n        /* \"--CODEGEN--\":2:4   */\n    tag_71:\n        /* \"input/AllowanceModule.sol\":10866:11232  function generateTransferHash(... */\n      dup2\n      add\n      swap1\n      dup1\n      dup1\n      calldataload\n      0xffffffffffffffffffffffffffffffffffffffff\n      and\n      swap1\n      0x20\n      add\n      swap1\n      swap3\n      swap2\n      swap1\n      dup1\n      calldataload\n      0xffffffffffffffffffffffffffffffffffffffff\n      and\n      swap1\n      0x20\n      add\n      swap1\n      swap3\n      swap2\n      swap1\n      dup1\n      calldataload\n      0xffffffffffffffffffffffffffffffffffffffff\n      and\n      swap1\n      0x20\n      add\n      swap1\n      swap3\n      swap2\n      swap1\n      dup1\n      calldataload\n      0xffffffffffffffffffffffff\n      and\n      swap1\n      0x20\n      add\n      swap1\n      swap3\n      swap2\n      swap1\n      dup1\n      calldataload\n      0xffffffffffffffffffffffffffffffffffffffff\n      and\n      swap1\n      0x20\n      add\n      swap1\n      swap3\n      swap2\n      swap1\n      dup1\n      calldataload\n      0xffffffffffffffffffffffff\n      and\n      swap1\n      0x20\n      add\n      swap1\n      swap3\n      swap2\n      swap1\n      dup1\n      calldataload\n      0xffff\n      and\n      swap1\n      0x20\n      add\n      swap1\n      swap3\n      swap2\n      swap1\n      pop\n      pop\n      pop\n      tag_72\n      jump\t// in\n    tag_70:\n      mload(0x40)\n      dup1\n      dup3\n      dup2\n      mstore\n      0x20\n      add\n      swap2\n      pop\n      pop\n      mload(0x40)\n      dup1\n      swap2\n      sub\n      swap1\n      return\n        /* \"input/AllowanceModule.sol\":14584:15147  function addDelegate(address delegate) public {... */\n    tag_16:\n      tag_73\n      0x04\n      dup1\n      calldatasize\n      sub\n        /* \"--CODEGEN--\":13:15   */\n      0x20\n        /* \"--CODEGEN--\":8:11   */\n      dup2\n        /* \"--CODEGEN--\":5:16   */\n      lt\n        /* \"--CODEGEN--\":2:4   */\n      iszero\n      tag_74\n      jumpi\n        /* \"--CODEGEN--\":29:30   */\n      0x00\n        /* \"--CODEGEN--\":26:27   */\n      dup1\n        /* \"--CODEGEN--\":19:31   */\n      revert\n        /* \"--CODEGEN--\":2:4   */\n    tag_74:\n        /* \"input/AllowanceModule.sol\":14584:15147  function addDelegate(address delegate) public {... */\n      dup2\n      add\n      swap1\n      dup1\n      dup1\n      calldataload\n      0xffffffffffffffffffffffffffffffffffffffff\n      and\n      swap1\n      0x20\n      add\n      swap1\n      swap3\n      swap2\n      swap1\n      pop\n      pop\n      pop\n      tag_75\n      jump\t// in\n    tag_73:\n      stop\n        /* \"input/AllowanceModule.sol\":16126:16815  function getDelegates(address safe, uint48 start, uint8 pageSize) public view returns (address[] memory results, uint48 next) {... */\n    tag_17:\n      tag_76\n      0x04\n      dup1\n      calldatasize\n      sub\n        /* \"--CODEGEN--\":13:15   */\n      0x60\n        /* \"--CODEGEN--\":8:11   */\n      dup2\n        /* \"--CODEGEN--\":5:16   */\n      lt\n        /* \"--CODEGEN--\":2:4   */\n      iszero\n      tag_77\n      jumpi\n        /* \"--CODEGEN--\":29:30   */\n      0x00\n        /* \"--CODEGEN--\":26:27   */\n      dup1\n        /* \"--CODEGEN--\":19:31   */\n      revert\n        /* \"--CODEGEN--\":2:4   */\n    tag_77:\n        /* \"input/AllowanceModule.sol\":16126:16815  function getDelegates(address safe, uint48 start, uint8 pageSize) public view returns (address[] memory results, uint48 next) {... */\n      dup2\n      add\n      swap1\n      dup1\n      dup1\n      calldataload\n      0xffffffffffffffffffffffffffffffffffffffff\n      and\n      swap1\n      0x20\n      add\n      swap1\n      swap3\n      swap2\n      swap1\n      dup1\n      calldataload\n      0xffffffffffff\n      and\n      swap1\n      0x20\n      add\n      swap1\n      swap3\n      swap2\n      swap1\n      dup1\n      calldataload\n      0xff\n      and\n      swap1\n      0x20\n      add\n      swap1\n      swap3\n      swap2\n      swap1\n      pop\n      pop\n      pop\n      tag_78\n      jump\t// in\n    tag_76:\n      mload(0x40)\n      dup1\n      dup1\n      0x20\n      add\n      dup4\n      0xffffffffffff\n      and\n      0xffffffffffff\n      and\n      dup2\n      mstore\n      0x20\n      add\n      dup3\n      dup2\n      sub\n      dup3\n      mstore\n      dup5\n      dup2\n      dup2\n      mload\n      dup2\n      mstore\n      0x20\n      add\n      swap2\n      pop\n      dup1\n      mload\n      swap1\n      0x20\n      add\n      swap1\n      0x20\n      mul\n      dup1\n      dup4\n      dup4\n        /* \"--CODEGEN--\":23:24   */\n      0x00\n        /* \"--CODEGEN--\":8:108   */\n    tag_79:\n        /* \"--CODEGEN--\":33:36   */\n      dup4\n        /* \"--CODEGEN--\":30:31   */\n      dup2\n        /* \"--CODEGEN--\":27:37   */\n      lt\n        /* \"--CODEGEN--\":8:108   */\n      iszero\n      tag_81\n      jumpi\n        /* \"--CODEGEN--\":99:100   */\n      dup1\n        /* \"--CODEGEN--\":94:97   */\n      dup3\n        /* \"--CODEGEN--\":90:101   */\n      add\n        /* \"--CODEGEN--\":84:102   */\n      mload\n        /* \"--CODEGEN--\":80:81   */\n      dup2\n        /* \"--CODEGEN--\":75:78   */\n      dup5\n        /* \"--CODEGEN--\":71:82   */\n      add\n        /* \"--CODEGEN--\":64:103   */\n      mstore\n        /* \"--CODEGEN--\":52:54   */\n      0x20\n        /* \"--CODEGEN--\":49:50   */\n      dup2\n        /* \"--CODEGEN--\":45:55   */\n      add\n        /* \"--CODEGEN--\":40:55   */\n      swap1\n      pop\n        /* \"--CODEGEN--\":8:108   */\n      jump(tag_79)\n    tag_81:\n        /* \"--CODEGEN--\":12:26   */\n      pop\n        /* \"input/AllowanceModule.sol\":16126:16815  function getDelegates(address safe, uint48 start, uint8 pageSize) public view returns (address[] memory results, uint48 next) {... */\n      pop\n      pop\n      pop\n      swap1\n      pop\n      add\n      swap4\n      pop\n      pop\n      pop\n      pop\n      mload(0x40)\n      dup1\n      swap2\n      sub\n      swap1\n      return\n        /* \"input/AllowanceModule.sol\":4407:4471  mapping(address => mapping (address => address[])) public tokens */\n    tag_18:\n      tag_82\n      0x04\n      dup1\n      calldatasize\n      sub\n        /* \"--CODEGEN--\":13:15   */\n      0x60\n        /* \"--CODEGEN--\":8:11   */\n      dup2\n        /* \"--CODEGEN--\":5:16   */\n      lt\n        /* \"--CODEGEN--\":2:4   */\n      iszero\n      tag_83\n      jumpi\n        /* \"--CODEGEN--\":29:30   */\n      0x00\n        /* \"--CODEGEN--\":26:27   */\n      dup1\n        /* \"--CODEGEN--\":19:31   */\n      revert\n        /* \"--CODEGEN--\":2:4   */\n    tag_83:\n        /* \"input/AllowanceModule.sol\":4407:4471  mapping(address => mapping (address => address[])) public tokens */\n      dup2\n      add\n      swap1\n      dup1\n      dup1\n      calldataload\n      0xffffffffffffffffffffffffffffffffffffffff\n      and\n      swap1\n      0x20\n      add\n      swap1\n      swap3\n      swap2\n      swap1\n      dup1\n      calldataload\n      0xffffffffffffffffffffffffffffffffffffffff\n      and\n      swap1\n      0x20\n      add\n      swap1\n      swap3\n      swap2\n      swap1\n      dup1\n      calldataload\n      swap1\n      0x20\n      add\n      swap1\n      swap3\n      swap2\n      swap1\n      pop\n      pop\n      pop\n      tag_84\n      jump\t// in\n    tag_82:\n      mload(0x40)\n      dup1\n      dup3\n      0xffffffffffffffffffffffffffffffffffffffff\n      and\n      0xffffffffffffffffffffffffffffffffffffffff\n      and\n      dup2\n      mstore\n      0x20\n      add\n      swap2\n      pop\n      pop\n      mload(0x40)\n      dup1\n      swap2\n      sub\n      swap1\n      return\n        /* \"input/AllowanceModule.sol\":4602:4632  bytes32 public domainSeparator */\n    tag_19:\n      tag_85\n      tag_86\n      jump\t// in\n    tag_85:\n      mload(0x40)\n      dup1\n      dup3\n      dup2\n      mstore\n      0x20\n      add\n      swap2\n      pop\n      pop\n      mload(0x40)\n      dup1\n      swap2\n      sub\n      swap1\n      return\n        /* \"input/AllowanceModule.sol\":3799:3839  string public constant VERSION = \"0.1.0\" */\n    tag_20:\n      tag_87\n      tag_88\n      jump\t// in\n    tag_87:\n      mload(0x40)\n      dup1\n      dup1\n      0x20\n      add\n      dup3\n      dup2\n      sub\n      dup3\n      mstore\n      dup4\n      dup2\n      dup2\n      mload\n      dup2\n      mstore\n      0x20\n      add\n      swap2\n      pop\n      dup1\n      mload\n      swap1\n      0x20\n      add\n      swap1\n      dup1\n      dup4\n      dup4\n        /* \"--CODEGEN--\":23:24   */\n      0x00\n        /* \"--CODEGEN--\":8:108   */\n    tag_89:\n        /* \"--CODEGEN--\":33:36   */\n      dup4\n        /* \"--CODEGEN--\":30:31   */\n      dup2\n        /* \"--CODEGEN--\":27:37   */\n      lt\n        /* \"--CODEGEN--\":8:108   */\n      iszero\n      tag_91\n      jumpi\n        /* \"--CODEGEN--\":99:100   */\n      dup1\n        /* \"--CODEGEN--\":94:97   */\n      dup3\n        /* \"--CODEGEN--\":90:101   */\n      add\n        /* \"--CODEGEN--\":84:102   */\n      mload\n        /* \"--CODEGEN--\":80:81   */\n      dup2\n        /* \"--CODEGEN--\":75:78   */\n      dup5\n        /* \"--CODEGEN--\":71:82   */\n      add\n        /* \"--CODEGEN--\":64:103   */\n      mstore\n        /* \"--CODEGEN--\":52:54   */\n      0x20\n        /* \"--CODEGEN--\":49:50   */\n      dup2\n        /* \"--CODEGEN--\":45:55   */\n      add\n        /* \"--CODEGEN--\":40:55   */\n      swap1\n      pop\n        /* \"--CODEGEN--\":8:108   */\n      jump(tag_89)\n    tag_91:\n        /* \"--CODEGEN--\":12:26   */\n      pop\n        /* \"input/AllowanceModule.sol\":3799:3839  string public constant VERSION = \"0.1.0\" */\n      pop\n      pop\n      pop\n      swap1\n      pop\n      swap1\n      dup2\n      add\n      swap1\n      0x1f\n      and\n      dup1\n      iszero\n      tag_92\n      jumpi\n      dup1\n      dup3\n      sub\n      dup1\n      mload\n      0x01\n      dup4\n      0x20\n      sub\n      0x0100\n      exp\n      sub\n      not\n      and\n      dup2\n      mstore\n      0x20\n      add\n      swap2\n      pop\n    tag_92:\n      pop\n      swap3\n      pop\n      pop\n      pop\n      mload(0x40)\n      dup1\n      swap2\n      sub\n      swap1\n      return\n        /* \"input/AllowanceModule.sol\":3924:4042  bytes32 public constant DOMAIN_SEPARATOR_TYPEHASH = 0x035aff83d86937d35b32e04f0ddc6ff469290eef2f1b692d8a815c89404d4749 */\n    tag_25:\n        /* \"input/AllowanceModule.sol\":3976:4042  0x035aff83d86937d35b32e04f0ddc6ff469290eef2f1b692d8a815c89404d4749 */\n      0x035aff83d86937d35b32e04f0ddc6ff469290eef2f1b692d8a815c89404d4749\n        /* \"input/AllowanceModule.sol\":3924:4042  bytes32 public constant DOMAIN_SEPARATOR_TYPEHASH = 0x035aff83d86937d35b32e04f0ddc6ff469290eef2f1b692d8a815c89404d4749 */\n      0x00\n      shl\n      dup2\n      jump\t// out\n        /* \"input/AllowanceModule.sol\":4548:4596  mapping(address => uint48) public delegatesStart */\n    tag_28:\n      mstore(0x20, 0x03)\n      dup1\n      0x00\n      mstore\n      keccak256(0x00, 0x40)\n      0x00\n      swap2\n      pop\n      sload\n      swap1\n      0x0100\n      exp\n      swap1\n      div\n      0xffffffffffff\n      and\n      dup2\n      jump\t// out\n        /* \"input/AllowanceModule.sol\":4080:4269  bytes32 public constant ALLOWANCE_TRANSFER_TYPEHASH = keccak256(... */\n    tag_30:\n        /* \"input/AllowanceModule.sol\":4134:4269  keccak256(... */\n      mload(0x40)\n      dup1\n      dup1\n      data_80b006280932094e7cc965863eb5118dc07e5d272c6670c4a7c87299e04fceeb\n      0x6c\n      swap2\n      codecopy\n      0x6c\n      add\n      swap1\n      pop\n      mload(0x40)\n      dup1\n      swap2\n      sub\n      swap1\n      keccak256\n        /* \"input/AllowanceModule.sol\":4080:4269  bytes32 public constant ALLOWANCE_TRANSFER_TYPEHASH = keccak256(... */\n      dup2\n      jump\t// out\n        /* \"input/AllowanceModule.sol\":8145:10359  function executeAllowanceTransfer(... */\n    tag_36:\n        /* \"input/AllowanceModule.sol\":8442:8468  Allowance memory allowance */\n      tag_94\n      tag_95\n      jump\t// in\n    tag_94:\n        /* \"input/AllowanceModule.sol\":8471:8515  getAllowance(address(safe), delegate, token) */\n      tag_96\n        /* \"input/AllowanceModule.sol\":8492:8496  safe */\n      dup10\n        /* \"input/AllowanceModule.sol\":8499:8507  delegate */\n      dup5\n        /* \"input/AllowanceModule.sol\":8509:8514  token */\n      dup11\n        /* \"input/AllowanceModule.sol\":8471:8483  getAllowance */\n      tag_97\n        /* \"input/AllowanceModule.sol\":8471:8515  getAllowance(address(safe), delegate, token) */\n      jump\t// in\n    tag_96:\n        /* \"input/AllowanceModule.sol\":8442:8515  Allowance memory allowance = getAllowance(address(safe), delegate, token) */\n      swap1\n      pop\n        /* \"input/AllowanceModule.sol\":8525:8554  bytes memory transferHashData */\n      0x60\n        /* \"input/AllowanceModule.sol\":8557:8655  generateTransferHashData(address(safe), token, to, amount, paymentToken, payment, allowance.nonce) */\n      tag_98\n        /* \"input/AllowanceModule.sol\":8590:8594  safe */\n      dup11\n        /* \"input/AllowanceModule.sol\":8597:8602  token */\n      dup11\n        /* \"input/AllowanceModule.sol\":8604:8606  to */\n      dup11\n        /* \"input/AllowanceModule.sol\":8608:8614  amount */\n      dup11\n        /* \"input/AllowanceModule.sol\":8616:8628  paymentToken */\n      dup11\n        /* \"input/AllowanceModule.sol\":8630:8637  payment */\n      dup11\n        /* \"input/AllowanceModule.sol\":8639:8648  allowance */\n      dup9\n        /* \"input/AllowanceModule.sol\":8639:8654  allowance.nonce */\n      0x80\n      add\n      mload\n        /* \"input/AllowanceModule.sol\":8557:8581  generateTransferHashData */\n      tag_99\n        /* \"input/AllowanceModule.sol\":8557:8655  generateTransferHashData(address(safe), token, to, amount, paymentToken, payment, allowance.nonce) */\n      jump\t// in\n    tag_98:\n        /* \"input/AllowanceModule.sol\":8525:8655  bytes memory transferHashData = generateTransferHashData(address(safe), token, to, amount, paymentToken, payment, allowance.nonce) */\n      swap1\n      pop\n        /* \"input/AllowanceModule.sol\":8725:8726  1 */\n      0x01\n        /* \"input/AllowanceModule.sol\":8707:8716  allowance */\n      dup3\n        /* \"input/AllowanceModule.sol\":8707:8722  allowance.nonce */\n      0x80\n      add\n      mload\n        /* \"input/AllowanceModule.sol\":8707:8726  allowance.nonce + 1 */\n      add\n        /* \"input/AllowanceModule.sol\":8689:8698  allowance */\n      dup3\n        /* \"input/AllowanceModule.sol\":8689:8704  allowance.nonce */\n      0x80\n      add\n        /* \"input/AllowanceModule.sol\":8689:8726  allowance.nonce = allowance.nonce + 1 */\n      swap1\n      0xffff\n      and\n      swap1\n      dup2\n      0xffff\n      and\n      dup2\n      mstore\n      pop\n      pop\n        /* \"input/AllowanceModule.sol\":8736:8751  uint96 newSpent */\n      0x00\n        /* \"input/AllowanceModule.sol\":8772:8778  amount */\n      dup8\n        /* \"input/AllowanceModule.sol\":8754:8763  allowance */\n      dup4\n        /* \"input/AllowanceModule.sol\":8754:8769  allowance.spent */\n      0x20\n      add\n      mload\n        /* \"input/AllowanceModule.sol\":8754:8778  allowance.spent + amount */\n      add\n        /* \"input/AllowanceModule.sol\":8736:8778  uint96 newSpent = allowance.spent + amount */\n      swap1\n      pop\n        /* \"input/AllowanceModule.sol\":8854:8863  allowance */\n      dup3\n        /* \"input/AllowanceModule.sol\":8854:8869  allowance.spent */\n      0x20\n      add\n      mload\n        /* \"input/AllowanceModule.sol\":8843:8869  newSpent > allowance.spent */\n      0xffffffffffffffffffffffff\n      and\n        /* \"input/AllowanceModule.sol\":8843:8851  newSpent */\n      dup2\n        /* \"input/AllowanceModule.sol\":8843:8869  newSpent > allowance.spent */\n      0xffffffffffffffffffffffff\n      and\n      gt\n        /* \"input/AllowanceModule.sol\":8843:8901  newSpent > allowance.spent && newSpent <= allowance.amount */\n      dup1\n      iszero\n      tag_100\n      jumpi\n      pop\n        /* \"input/AllowanceModule.sol\":8885:8894  allowance */\n      dup3\n        /* \"input/AllowanceModule.sol\":8885:8901  allowance.amount */\n      0x00\n      add\n      mload\n        /* \"input/AllowanceModule.sol\":8873:8901  newSpent <= allowance.amount */\n      0xffffffffffffffffffffffff\n      and\n        /* \"input/AllowanceModule.sol\":8873:8881  newSpent */\n      dup2\n        /* \"input/AllowanceModule.sol\":8873:8901  newSpent <= allowance.amount */\n      0xffffffffffffffffffffffff\n      and\n      gt\n      iszero\n        /* \"input/AllowanceModule.sol\":8843:8901  newSpent > allowance.spent && newSpent <= allowance.amount */\n    tag_100:\n        /* \"input/AllowanceModule.sol\":8835:8964  require(newSpent > allowance.spent && newSpent <= allowance.amount, \"newSpent > allowance.spent && newSpent <= allowance.amount\") */\n      tag_101\n      jumpi\n      mload(0x40)\n      0x08c379a000000000000000000000000000000000000000000000000000000000\n      dup2\n      mstore\n      0x04\n      add\n      dup1\n      dup1\n      0x20\n      add\n      dup3\n      dup2\n      sub\n      dup3\n      mstore\n      0x3a\n      dup2\n      mstore\n      0x20\n      add\n      dup1\n      data_a7359a8519961096cf8fb65715f77dbc4de2755aabf21e3445e245a34ee622da\n      0x3a\n      swap2\n      codecopy\n      0x40\n      add\n      swap2\n      pop\n      pop\n      mload(0x40)\n      dup1\n      swap2\n      sub\n      swap1\n      revert\n    tag_101:\n        /* \"input/AllowanceModule.sol\":8992:9000  newSpent */\n      dup1\n        /* \"input/AllowanceModule.sol\":8974:8983  allowance */\n      dup4\n        /* \"input/AllowanceModule.sol\":8974:8989  allowance.spent */\n      0x20\n      add\n        /* \"input/AllowanceModule.sol\":8974:9000  allowance.spent = newSpent */\n      swap1\n      0xffffffffffffffffffffffff\n      and\n      swap1\n      dup2\n      0xffffffffffffffffffffffff\n      and\n      dup2\n      mstore\n      pop\n      pop\n        /* \"input/AllowanceModule.sol\":9024:9025  0 */\n      0x00\n        /* \"input/AllowanceModule.sol\":9014:9021  payment */\n      dup7\n        /* \"input/AllowanceModule.sol\":9014:9025  payment > 0 */\n      0xffffffffffffffffffffffff\n      and\n      gt\n        /* \"input/AllowanceModule.sol\":9010:9759  if (payment > 0) {... */\n      iszero\n      tag_102\n      jumpi\n        /* \"input/AllowanceModule.sol\":9117:9150  Allowance memory paymentAllowance */\n      tag_103\n      tag_95\n      jump\t// in\n    tag_103:\n        /* \"input/AllowanceModule.sol\":9169:9174  token */\n      dup11\n        /* \"input/AllowanceModule.sol\":9153:9174  paymentToken == token */\n      0xffffffffffffffffffffffffffffffffffffffff\n      and\n        /* \"input/AllowanceModule.sol\":9153:9165  paymentToken */\n      dup9\n        /* \"input/AllowanceModule.sol\":9153:9174  paymentToken == token */\n      0xffffffffffffffffffffffffffffffffffffffff\n      and\n      eq\n        /* \"input/AllowanceModule.sol\":9153:9240  paymentToken == token ? allowance : getAllowance(address(safe), delegate, paymentToken) */\n      tag_104\n      jumpi\n        /* \"input/AllowanceModule.sol\":9189:9240  getAllowance(address(safe), delegate, paymentToken) */\n      tag_105\n        /* \"input/AllowanceModule.sol\":9210:9214  safe */\n      dup13\n        /* \"input/AllowanceModule.sol\":9217:9225  delegate */\n      dup8\n        /* \"input/AllowanceModule.sol\":9227:9239  paymentToken */\n      dup11\n        /* \"input/AllowanceModule.sol\":9189:9201  getAllowance */\n      tag_97\n        /* \"input/AllowanceModule.sol\":9189:9240  getAllowance(address(safe), delegate, paymentToken) */\n      jump\t// in\n    tag_105:\n        /* \"input/AllowanceModule.sol\":9153:9240  paymentToken == token ? allowance : getAllowance(address(safe), delegate, paymentToken) */\n      jump(tag_106)\n    tag_104:\n        /* \"input/AllowanceModule.sol\":9177:9186  allowance */\n      dup4\n        /* \"input/AllowanceModule.sol\":9153:9240  paymentToken == token ? allowance : getAllowance(address(safe), delegate, paymentToken) */\n    tag_106:\n        /* \"input/AllowanceModule.sol\":9117:9240  Allowance memory paymentAllowance = paymentToken == token ? allowance : getAllowance(address(safe), delegate, paymentToken) */\n      swap1\n      pop\n        /* \"input/AllowanceModule.sol\":9290:9297  payment */\n      dup7\n        /* \"input/AllowanceModule.sol\":9265:9281  paymentAllowance */\n      dup2\n        /* \"input/AllowanceModule.sol\":9265:9287  paymentAllowance.spent */\n      0x20\n      add\n      mload\n        /* \"input/AllowanceModule.sol\":9265:9297  paymentAllowance.spent + payment */\n      add\n        /* \"input/AllowanceModule.sol\":9254:9297  newSpent = paymentAllowance.spent + payment */\n      swap2\n      pop\n        /* \"input/AllowanceModule.sol\":9382:9398  paymentAllowance */\n      dup1\n        /* \"input/AllowanceModule.sol\":9382:9404  paymentAllowance.spent */\n      0x20\n      add\n      mload\n        /* \"input/AllowanceModule.sol\":9371:9404  newSpent > paymentAllowance.spent */\n      0xffffffffffffffffffffffff\n      and\n        /* \"input/AllowanceModule.sol\":9371:9379  newSpent */\n      dup3\n        /* \"input/AllowanceModule.sol\":9371:9404  newSpent > paymentAllowance.spent */\n      0xffffffffffffffffffffffff\n      and\n      gt\n        /* \"input/AllowanceModule.sol\":9371:9443  newSpent > paymentAllowance.spent && newSpent <= paymentAllowance.amount */\n      dup1\n      iszero\n      tag_107\n      jumpi\n      pop\n        /* \"input/AllowanceModule.sol\":9420:9436  paymentAllowance */\n      dup1\n        /* \"input/AllowanceModule.sol\":9420:9443  paymentAllowance.amount */\n      0x00\n      add\n      mload\n        /* \"input/AllowanceModule.sol\":9408:9443  newSpent <= paymentAllowance.amount */\n      0xffffffffffffffffffffffff\n      and\n        /* \"input/AllowanceModule.sol\":9408:9416  newSpent */\n      dup3\n        /* \"input/AllowanceModule.sol\":9408:9443  newSpent <= paymentAllowance.amount */\n      0xffffffffffffffffffffffff\n      and\n      gt\n      iszero\n        /* \"input/AllowanceModule.sol\":9371:9443  newSpent > paymentAllowance.spent && newSpent <= paymentAllowance.amount */\n    tag_107:\n        /* \"input/AllowanceModule.sol\":9363:9520  require(newSpent > paymentAllowance.spent && newSpent <= paymentAllowance.amount, \"newSpent > paymentAllowance.spent && newSpent <= paymentAllowance.amount\") */\n      tag_108\n      jumpi\n      mload(0x40)\n      0x08c379a000000000000000000000000000000000000000000000000000000000\n      dup2\n      mstore\n      0x04\n      add\n      dup1\n      dup1\n      0x20\n      add\n      dup3\n      dup2\n      sub\n      dup3\n      mstore\n      0x48\n      dup2\n      mstore\n      0x20\n      add\n      dup1\n      data_b549d52c5706645679000944ae1bcaec935d0b8c387f4240a09789be7dc8c0d4\n      0x48\n      swap2\n      codecopy\n      0x60\n      add\n      swap2\n      pop\n      pop\n      mload(0x40)\n      dup1\n      swap2\n      sub\n      swap1\n      revert\n    tag_108:\n        /* \"input/AllowanceModule.sol\":9559:9567  newSpent */\n      dup2\n        /* \"input/AllowanceModule.sol\":9534:9550  paymentAllowance */\n      dup2\n        /* \"input/AllowanceModule.sol\":9534:9556  paymentAllowance.spent */\n      0x20\n      add\n        /* \"input/AllowanceModule.sol\":9534:9567  paymentAllowance.spent = newSpent */\n      swap1\n      0xffffffffffffffffffffffff\n      and\n      swap1\n      dup2\n      0xffffffffffffffffffffffff\n      and\n      dup2\n      mstore\n      pop\n      pop\n        /* \"input/AllowanceModule.sol\":9669:9674  token */\n      dup11\n        /* \"input/AllowanceModule.sol\":9653:9674  paymentToken != token */\n      0xffffffffffffffffffffffffffffffffffffffff\n      and\n        /* \"input/AllowanceModule.sol\":9653:9665  paymentToken */\n      dup9\n        /* \"input/AllowanceModule.sol\":9653:9674  paymentToken != token */\n      0xffffffffffffffffffffffffffffffffffffffff\n      and\n      eq\n        /* \"input/AllowanceModule.sol\":9649:9748  if (paymentToken != token) updateAllowance(address(safe), delegate, paymentToken, paymentAllowance) */\n      tag_109\n      jumpi\n        /* \"input/AllowanceModule.sol\":9676:9748  updateAllowance(address(safe), delegate, paymentToken, paymentAllowance) */\n      tag_110\n        /* \"input/AllowanceModule.sol\":9700:9704  safe */\n      dup13\n        /* \"input/AllowanceModule.sol\":9707:9715  delegate */\n      dup8\n        /* \"input/AllowanceModule.sol\":9717:9729  paymentToken */\n      dup11\n        /* \"input/AllowanceModule.sol\":9731:9747  paymentAllowance */\n      dup5\n        /* \"input/AllowanceModule.sol\":9676:9691  updateAllowance */\n      tag_111\n        /* \"input/AllowanceModule.sol\":9676:9748  updateAllowance(address(safe), delegate, paymentToken, paymentAllowance) */\n      jump\t// in\n    tag_110:\n        /* \"input/AllowanceModule.sol\":9649:9748  if (paymentToken != token) updateAllowance(address(safe), delegate, paymentToken, paymentAllowance) */\n    tag_109:\n        /* \"input/AllowanceModule.sol\":9010:9759  if (payment > 0) {... */\n      pop\n    tag_102:\n        /* \"input/AllowanceModule.sol\":9768:9826  updateAllowance(address(safe), delegate, token, allowance) */\n      tag_112\n        /* \"input/AllowanceModule.sol\":9792:9796  safe */\n      dup12\n        /* \"input/AllowanceModule.sol\":9799:9807  delegate */\n      dup7\n        /* \"input/AllowanceModule.sol\":9809:9814  token */\n      dup13\n        /* \"input/AllowanceModule.sol\":9816:9825  allowance */\n      dup7\n        /* \"input/AllowanceModule.sol\":9768:9783  updateAllowance */\n      tag_111\n        /* \"input/AllowanceModule.sol\":9768:9826  updateAllowance(address(safe), delegate, token, allowance) */\n      jump\t// in\n    tag_112:\n        /* \"input/AllowanceModule.sol\":9908:9967  checkSignature(delegate, signature, transferHashData, safe) */\n      tag_113\n        /* \"input/AllowanceModule.sol\":9923:9931  delegate */\n      dup6\n        /* \"input/AllowanceModule.sol\":9933:9942  signature */\n      dup6\n        /* \"input/AllowanceModule.sol\":9944:9960  transferHashData */\n      dup5\n        /* \"input/AllowanceModule.sol\":9962:9966  safe */\n      dup15\n        /* \"input/AllowanceModule.sol\":9908:9922  checkSignature */\n      tag_114\n        /* \"input/AllowanceModule.sol\":9908:9967  checkSignature(delegate, signature, transferHashData, safe) */\n      jump\t// in\n    tag_113:\n        /* \"input/AllowanceModule.sol\":10010:10011  0 */\n      0x00\n        /* \"input/AllowanceModule.sol\":10000:10007  payment */\n      dup7\n        /* \"input/AllowanceModule.sol\":10000:10011  payment > 0 */\n      0xffffffffffffffffffffffff\n      and\n      gt\n        /* \"input/AllowanceModule.sol\":9996:10180  if (payment > 0) {... */\n      iszero\n      tag_115\n      jumpi\n        /* \"input/AllowanceModule.sol\":10121:10169  transfer(safe, paymentToken, tx.origin, payment) */\n      tag_116\n        /* \"input/AllowanceModule.sol\":10130:10134  safe */\n      dup12\n        /* \"input/AllowanceModule.sol\":10136:10148  paymentToken */\n      dup9\n        /* \"input/AllowanceModule.sol\":10150:10159  tx.origin */\n      origin\n        /* \"input/AllowanceModule.sol\":10161:10168  payment */\n      dup10\n        /* \"input/AllowanceModule.sol\":10121:10129  transfer */\n      tag_117\n        /* \"input/AllowanceModule.sol\":10121:10169  transfer(safe, paymentToken, tx.origin, payment) */\n      jump\t// in\n    tag_116:\n        /* \"input/AllowanceModule.sol\":9996:10180  if (payment > 0) {... */\n    tag_115:\n        /* \"input/AllowanceModule.sol\":10215:10248  transfer(safe, token, to, amount) */\n      tag_118\n        /* \"input/AllowanceModule.sol\":10224:10228  safe */\n      dup12\n        /* \"input/AllowanceModule.sol\":10230:10235  token */\n      dup12\n        /* \"input/AllowanceModule.sol\":10237:10239  to */\n      dup12\n        /* \"input/AllowanceModule.sol\":10241:10247  amount */\n      dup12\n        /* \"input/AllowanceModule.sol\":10215:10223  transfer */\n      tag_117\n        /* \"input/AllowanceModule.sol\":10215:10248  transfer(safe, token, to, amount) */\n      jump\t// in\n    tag_118:\n        /* \"input/AllowanceModule.sol\":10296:10300  safe */\n      dup11\n        /* \"input/AllowanceModule.sol\":10263:10352  ExecuteAllowanceTransfer(address(safe), delegate, token, to, amount, allowance.nonce - 1) */\n      0xffffffffffffffffffffffffffffffffffffffff\n      and\n      0xa11cca2c2027e28ab0046aab4d4040f59d8b06e819ccd974c1e53e86aa814c19\n        /* \"input/AllowanceModule.sol\":10303:10311  delegate */\n      dup7\n        /* \"input/AllowanceModule.sol\":10313:10318  token */\n      dup13\n        /* \"input/AllowanceModule.sol\":10320:10322  to */\n      dup13\n        /* \"input/AllowanceModule.sol\":10324:10330  amount */\n      dup13\n        /* \"input/AllowanceModule.sol\":10350:10351  1 */\n      0x01\n        /* \"input/AllowanceModule.sol\":10332:10341  allowance */\n      dup10\n        /* \"input/AllowanceModule.sol\":10332:10347  allowance.nonce */\n      0x80\n      add\n      mload\n        /* \"input/AllowanceModule.sol\":10332:10351  allowance.nonce - 1 */\n      sub\n        /* \"input/AllowanceModule.sol\":10263:10352  ExecuteAllowanceTransfer(address(safe), delegate, token, to, amount, allowance.nonce - 1) */\n      mload(0x40)\n      dup1\n      dup7\n      0xffffffffffffffffffffffffffffffffffffffff\n      and\n      0xffffffffffffffffffffffffffffffffffffffff\n      and\n      dup2\n      mstore\n      0x20\n      add\n      dup6\n      0xffffffffffffffffffffffffffffffffffffffff\n      and\n      0xffffffffffffffffffffffffffffffffffffffff\n      and\n      dup2\n      mstore\n      0x20\n      add\n      dup5\n      0xffffffffffffffffffffffffffffffffffffffff\n      and\n      0xffffffffffffffffffffffffffffffffffffffff\n      and\n      dup2\n      mstore\n      0x20\n      add\n      dup4\n      0xffffffffffffffffffffffff\n      and\n      0xffffffffffffffffffffffff\n      and\n      dup2\n      mstore\n      0x20\n      add\n      dup3\n      0xffff\n      and\n      0xffff\n      and\n      dup2\n      mstore\n      0x20\n      add\n      swap6\n      pop\n      pop\n      pop\n      pop\n      pop\n      pop\n      mload(0x40)\n      dup1\n      swap2\n      sub\n      swap1\n      log2\n        /* \"input/AllowanceModule.sol\":8145:10359  function executeAllowanceTransfer(... */\n      pop\n      pop\n      pop\n      pop\n      pop\n      pop\n      pop\n      pop\n      pop\n      pop\n      pop\n      jump\t// out\n        /* \"input/AllowanceModule.sol\":15153:16120  function removeDelegate(address delegate) public {... */\n    tag_39:\n        /* \"input/AllowanceModule.sol\":15212:15235  Delegate memory current */\n      tag_120\n      tag_121\n      jump\t// in\n    tag_120:\n        /* \"input/AllowanceModule.sol\":15238:15247  delegates */\n      0x02\n        /* \"input/AllowanceModule.sol\":15238:15259  delegates[msg.sender] */\n      0x00\n        /* \"input/AllowanceModule.sol\":15248:15258  msg.sender */\n      caller\n        /* \"input/AllowanceModule.sol\":15238:15259  delegates[msg.sender] */\n      0xffffffffffffffffffffffffffffffffffffffff\n      and\n      0xffffffffffffffffffffffffffffffffffffffff\n      and\n      dup2\n      mstore\n      0x20\n      add\n      swap1\n      dup2\n      mstore\n      0x20\n      add\n      0x00\n      keccak256\n        /* \"input/AllowanceModule.sol\":15238:15277  delegates[msg.sender][uint48(delegate)] */\n      0x00\n        /* \"input/AllowanceModule.sol\":15267:15275  delegate */\n      dup4\n        /* \"input/AllowanceModule.sol\":15238:15277  delegates[msg.sender][uint48(delegate)] */\n      0xffffffffffff\n      and\n      0xffffffffffff\n      and\n      dup2\n      mstore\n      0x20\n      add\n      swap1\n      dup2\n      mstore\n      0x20\n      add\n      0x00\n      keccak256\n        /* \"input/AllowanceModule.sol\":15212:15277  Delegate memory current = delegates[msg.sender][uint48(delegate)] */\n      mload(0x40)\n      dup1\n      0x60\n      add\n      0x40\n      mstore\n      swap1\n      dup2\n      0x00\n      dup3\n      add\n      0x00\n      swap1\n      sload\n      swap1\n      0x0100\n      exp\n      swap1\n      div\n      0xffffffffffffffffffffffffffffffffffffffff\n      and\n      0xffffffffffffffffffffffffffffffffffffffff\n      and\n      0xffffffffffffffffffffffffffffffffffffffff\n      and\n      dup2\n      mstore\n      0x20\n      add\n      0x00\n      dup3\n      add\n      0x14\n      swap1\n      sload\n      swap1\n      0x0100\n      exp\n      swap1\n      div\n      0xffffffffffff\n      and\n      0xffffffffffff\n      and\n      0xffffffffffff\n      and\n      dup2\n      mstore\n      0x20\n      add\n      0x00\n      dup3\n      add\n      0x1a\n      swap1\n      sload\n      swap1\n      0x0100\n      exp\n      swap1\n      div\n      0xffffffffffff\n      and\n      0xffffffffffff\n      and\n      0xffffffffffff\n      and\n      dup2\n      mstore\n      pop\n      pop\n      swap1\n      pop\n        /* \"input/AllowanceModule.sol\":15368:15369  0 */\n      0x00\n        /* \"input/AllowanceModule.sol\":15340:15370  current.delegate == address(0) */\n      0xffffffffffffffffffffffffffffffffffffffff\n      and\n        /* \"input/AllowanceModule.sol\":15340:15347  current */\n      dup2\n        /* \"input/AllowanceModule.sol\":15340:15356  current.delegate */\n      0x00\n      add\n      mload\n        /* \"input/AllowanceModule.sol\":15340:15370  current.delegate == address(0) */\n      0xffffffffffffffffffffffffffffffffffffffff\n      and\n      eq\n        /* \"input/AllowanceModule.sol\":15337:15379  if(current.delegate == address(0)) return; */\n      iszero\n      tag_122\n      jumpi\n        /* \"input/AllowanceModule.sol\":15372:15379  return; */\n      pop\n      jump(tag_119)\n        /* \"input/AllowanceModule.sol\":15337:15379  if(current.delegate == address(0)) return; */\n    tag_122:\n        /* \"input/AllowanceModule.sol\":15388:15420  address[] storage delegateTokens */\n      0x00\n        /* \"input/AllowanceModule.sol\":15423:15429  tokens */\n      0x01\n        /* \"input/AllowanceModule.sol\":15423:15441  tokens[msg.sender] */\n      0x00\n        /* \"input/AllowanceModule.sol\":15430:15440  msg.sender */\n      caller\n        /* \"input/AllowanceModule.sol\":15423:15441  tokens[msg.sender] */\n      0xffffffffffffffffffffffffffffffffffffffff\n      and\n      0xffffffffffffffffffffffffffffffffffffffff\n      and\n      dup2\n      mstore\n      0x20\n      add\n      swap1\n      dup2\n      mstore\n      0x20\n      add\n      0x00\n      keccak256\n        /* \"input/AllowanceModule.sol\":15423:15451  tokens[msg.sender][delegate] */\n      0x00\n        /* \"input/AllowanceModule.sol\":15442:15450  delegate */\n      dup5\n        /* \"input/AllowanceModule.sol\":15423:15451  tokens[msg.sender][delegate] */\n      0xffffffffffffffffffffffffffffffffffffffff\n      and\n      0xffffffffffffffffffffffffffffffffffffffff\n      and\n      dup2\n      mstore\n      0x20\n      add\n      swap1\n      dup2\n      mstore\n      0x20\n      add\n      0x00\n      keccak256\n        /* \"input/AllowanceModule.sol\":15388:15451  address[] storage delegateTokens = tokens[msg.sender][delegate] */\n      swap1\n      pop\n        /* \"input/AllowanceModule.sol\":15466:15475  uint256 i */\n      0x00\n        /* \"input/AllowanceModule.sol\":15478:15479  0 */\n      dup1\n        /* \"input/AllowanceModule.sol\":15466:15479  uint256 i = 0 */\n      swap1\n      pop\n        /* \"input/AllowanceModule.sol\":15461:15933  for (uint256 i = 0; i < delegateTokens.length; i++) {... */\n    tag_123:\n        /* \"input/AllowanceModule.sol\":15485:15499  delegateTokens */\n      dup2\n        /* \"input/AllowanceModule.sol\":15485:15506  delegateTokens.length */\n      dup1\n      sload\n      swap1\n      pop\n        /* \"input/AllowanceModule.sol\":15481:15482  i */\n      dup2\n        /* \"input/AllowanceModule.sol\":15481:15506  i < delegateTokens.length */\n      lt\n        /* \"input/AllowanceModule.sol\":15461:15933  for (uint256 i = 0; i < delegateTokens.length; i++) {... */\n      iszero\n      tag_124\n      jumpi\n        /* \"input/AllowanceModule.sol\":15527:15540  address token */\n      0x00\n        /* \"input/AllowanceModule.sol\":15543:15557  delegateTokens */\n      dup3\n        /* \"input/AllowanceModule.sol\":15558:15559  i */\n      dup3\n        /* \"input/AllowanceModule.sol\":15543:15560  delegateTokens[i] */\n      dup2\n      sload\n      dup2\n      lt\n      tag_126\n      jumpi\n      invalid\n    tag_126:\n      swap1\n      0x00\n      mstore\n      keccak256(0x00, 0x20)\n      add\n      0x00\n      swap1\n      sload\n      swap1\n      0x0100\n      exp\n      swap1\n      div\n      0xffffffffffffffffffffffffffffffffffffffff\n      and\n        /* \"input/AllowanceModule.sol\":15527:15560  address token = delegateTokens[i] */\n      swap1\n      pop\n        /* \"input/AllowanceModule.sol\":15636:15662  Allowance memory allowance */\n      tag_128\n      tag_95\n      jump\t// in\n    tag_128:\n        /* \"input/AllowanceModule.sol\":15665:15706  getAllowance(msg.sender, delegate, token) */\n      tag_129\n        /* \"input/AllowanceModule.sol\":15678:15688  msg.sender */\n      caller\n        /* \"input/AllowanceModule.sol\":15690:15698  delegate */\n      dup8\n        /* \"input/AllowanceModule.sol\":15700:15705  token */\n      dup5\n        /* \"input/AllowanceModule.sol\":15665:15677  getAllowance */\n      tag_97\n        /* \"input/AllowanceModule.sol\":15665:15706  getAllowance(msg.sender, delegate, token) */\n      jump\t// in\n    tag_129:\n        /* \"input/AllowanceModule.sol\":15636:15706  Allowance memory allowance = getAllowance(msg.sender, delegate, token) */\n      swap1\n      pop\n        /* \"input/AllowanceModule.sol\":15739:15740  0 */\n      0x00\n        /* \"input/AllowanceModule.sol\":15720:15729  allowance */\n      dup2\n        /* \"input/AllowanceModule.sol\":15720:15736  allowance.amount */\n      0x00\n      add\n        /* \"input/AllowanceModule.sol\":15720:15740  allowance.amount = 0 */\n      swap1\n      0xffffffffffffffffffffffff\n      and\n      swap1\n      dup2\n      0xffffffffffffffffffffffff\n      and\n      dup2\n      mstore\n      pop\n      pop\n        /* \"input/AllowanceModule.sol\":15772:15773  0 */\n      0x00\n        /* \"input/AllowanceModule.sol\":15754:15763  allowance */\n      dup2\n        /* \"input/AllowanceModule.sol\":15754:15769  allowance.spent */\n      0x20\n      add\n        /* \"input/AllowanceModule.sol\":15754:15773  allowance.spent = 0 */\n      swap1\n      0xffffffffffffffffffffffff\n      and\n      swap1\n      dup2\n      0xffffffffffffffffffffffff\n      and\n      dup2\n      mstore\n      pop\n      pop\n        /* \"input/AllowanceModule.sol\":15812:15813  0 */\n      0x00\n        /* \"input/AllowanceModule.sol\":15787:15796  allowance */\n      dup2\n        /* \"input/AllowanceModule.sol\":15787:15809  allowance.resetTimeMin */\n      0x40\n      add\n        /* \"input/AllowanceModule.sol\":15787:15813  allowance.resetTimeMin = 0 */\n      swap1\n      0xffff\n      and\n      swap1\n      dup2\n      0xffff\n      and\n      dup2\n      mstore\n      pop\n      pop\n        /* \"input/AllowanceModule.sol\":15852:15853  0 */\n      0x00\n        /* \"input/AllowanceModule.sol\":15827:15836  allowance */\n      dup2\n        /* \"input/AllowanceModule.sol\":15827:15849  allowance.lastResetMin */\n      0x60\n      add\n        /* \"input/AllowanceModule.sol\":15827:15853  allowance.lastResetMin = 0 */\n      swap1\n      0xffffffff\n      and\n      swap1\n      dup2\n      0xffffffff\n      and\n      dup2\n      mstore\n      pop\n      pop\n        /* \"input/AllowanceModule.sol\":15867:15922  updateAllowance(msg.sender, delegate, token, allowance) */\n      tag_130\n        /* \"input/AllowanceModule.sol\":15883:15893  msg.sender */\n      caller\n        /* \"input/AllowanceModule.sol\":15895:15903  delegate */\n      dup8\n        /* \"input/AllowanceModule.sol\":15905:15910  token */\n      dup5\n        /* \"input/AllowanceModule.sol\":15912:15921  allowance */\n      dup5\n        /* \"input/AllowanceModule.sol\":15867:15882  updateAllowance */\n      tag_111\n        /* \"input/AllowanceModule.sol\":15867:15922  updateAllowance(msg.sender, delegate, token, allowance) */\n      jump\t// in\n    tag_130:\n        /* \"input/AllowanceModule.sol\":15461:15933  for (uint256 i = 0; i < delegateTokens.length; i++) {... */\n      pop\n      pop\n        /* \"input/AllowanceModule.sol\":15508:15511  i++ */\n      dup1\n      dup1\n      0x01\n      add\n      swap2\n      pop\n      pop\n        /* \"input/AllowanceModule.sol\":15461:15933  for (uint256 i = 0; i < delegateTokens.length; i++) {... */\n      jump(tag_123)\n    tag_124:\n      pop\n        /* \"input/AllowanceModule.sol\":15985:15992  current */\n      dup2\n        /* \"input/AllowanceModule.sol\":15985:15997  current.next */\n      0x40\n      add\n      mload\n        /* \"input/AllowanceModule.sol\":15942:15951  delegates */\n      0x02\n        /* \"input/AllowanceModule.sol\":15942:15963  delegates[msg.sender] */\n      0x00\n        /* \"input/AllowanceModule.sol\":15952:15962  msg.sender */\n      caller\n        /* \"input/AllowanceModule.sol\":15942:15963  delegates[msg.sender] */\n      0xffffffffffffffffffffffffffffffffffffffff\n      and\n      0xffffffffffffffffffffffffffffffffffffffff\n      and\n      dup2\n      mstore\n      0x20\n      add\n      swap1\n      dup2\n      mstore\n      0x20\n      add\n      0x00\n      keccak256\n        /* \"input/AllowanceModule.sol\":15942:15977  delegates[msg.sender][current.prev] */\n      0x00\n        /* \"input/AllowanceModule.sol\":15964:15971  current */\n      dup5\n        /* \"input/AllowanceModule.sol\":15964:15976  current.prev */\n      0x20\n      add\n      mload\n        /* \"input/AllowanceModule.sol\":15942:15977  delegates[msg.sender][current.prev] */\n      0xffffffffffff\n      and\n      0xffffffffffff\n      and\n      dup2\n      mstore\n      0x20\n      add\n      swap1\n      dup2\n      mstore\n      0x20\n      add\n      0x00\n      keccak256\n        /* \"input/AllowanceModule.sol\":15942:15982  delegates[msg.sender][current.prev].next */\n      0x00\n      add\n      0x1a\n        /* \"input/AllowanceModule.sol\":15942:15997  delegates[msg.sender][current.prev].next = current.next */\n      0x0100\n      exp\n      dup2\n      sload\n      dup2\n      0xffffffffffff\n      mul\n      not\n      and\n      swap1\n      dup4\n      0xffffffffffff\n      and\n      mul\n      or\n      swap1\n      sstore\n      pop\n        /* \"input/AllowanceModule.sol\":16050:16057  current */\n      dup2\n        /* \"input/AllowanceModule.sol\":16050:16062  current.prev */\n      0x20\n      add\n      mload\n        /* \"input/AllowanceModule.sol\":16007:16016  delegates */\n      0x02\n        /* \"input/AllowanceModule.sol\":16007:16028  delegates[msg.sender] */\n      0x00\n        /* \"input/AllowanceModule.sol\":16017:16027  msg.sender */\n      caller\n        /* \"input/AllowanceModule.sol\":16007:16028  delegates[msg.sender] */\n      0xffffffffffffffffffffffffffffffffffffffff\n      and\n      0xffffffffffffffffffffffffffffffffffffffff\n      and\n      dup2\n      mstore\n      0x20\n      add\n      swap1\n      dup2\n      mstore\n      0x20\n      add\n      0x00\n      keccak256\n        /* \"input/AllowanceModule.sol\":16007:16042  delegates[msg.sender][current.next] */\n      0x00\n        /* \"input/AllowanceModule.sol\":16029:16036  current */\n      dup5\n        /* \"input/AllowanceModule.sol\":16029:16041  current.next */\n      0x40\n      add\n      mload\n        /* \"input/AllowanceModule.sol\":16007:16042  delegates[msg.sender][current.next] */\n      0xffffffffffff\n      and\n      0xffffffffffff\n      and\n      dup2\n      mstore\n      0x20\n      add\n      swap1\n      dup2\n      mstore\n      0x20\n      add\n      0x00\n      keccak256\n        /* \"input/AllowanceModule.sol\":16007:16047  delegates[msg.sender][current.next].prev */\n      0x00\n      add\n      0x14\n        /* \"input/AllowanceModule.sol\":16007:16062  delegates[msg.sender][current.next].prev = current.prev */\n      0x0100\n      exp\n      dup2\n      sload\n      dup2\n      0xffffffffffff\n      mul\n      not\n      and\n      swap1\n      dup4\n      0xffffffffffff\n      and\n      mul\n      or\n      swap1\n      sstore\n      pop\n        /* \"input/AllowanceModule.sol\":16092:16102  msg.sender */\n      caller\n        /* \"input/AllowanceModule.sol\":16077:16113  RemoveDelegate(msg.sender, delegate) */\n      0xffffffffffffffffffffffffffffffffffffffff\n      and\n      0xdccc2d936ded24d2153d2760581a7f0dcb23ec71190c9726b3584cdd700214d4\n        /* \"input/AllowanceModule.sol\":16104:16112  delegate */\n      dup5\n        /* \"input/AllowanceModule.sol\":16077:16113  RemoveDelegate(msg.sender, delegate) */\n      mload(0x40)\n      dup1\n      dup3\n      0xffffffffffffffffffffffffffffffffffffffff\n      and\n      0xffffffffffffffffffffffffffffffffffffffff\n      and\n      dup2\n      mstore\n      0x20\n      add\n      swap2\n      pop\n      pop\n      mload(0x40)\n      dup1\n      swap2\n      sub\n      swap1\n      log2\n        /* \"input/AllowanceModule.sol\":15153:16120  function removeDelegate(address delegate) public {... */\n      pop\n      pop\n    tag_119:\n      pop\n      jump\t// out\n        /* \"input/AllowanceModule.sol\":14009:14145  function getTokens(address safe, address delegate) public view returns (address[] memory) {... */\n    tag_42:\n        /* \"input/AllowanceModule.sol\":14081:14097  address[] memory */\n      0x60\n        /* \"input/AllowanceModule.sol\":14116:14122  tokens */\n      0x01\n        /* \"input/AllowanceModule.sol\":14116:14128  tokens[safe] */\n      0x00\n        /* \"input/AllowanceModule.sol\":14123:14127  safe */\n      dup5\n        /* \"input/AllowanceModule.sol\":14116:14128  tokens[safe] */\n      0xffffffffffffffffffffffffffffffffffffffff\n      and\n      0xffffffffffffffffffffffffffffffffffffffff\n      and\n      dup2\n      mstore\n      0x20\n      add\n      swap1\n      dup2\n      mstore\n      0x20\n      add\n      0x00\n      keccak256\n        /* \"input/AllowanceModule.sol\":14116:14138  tokens[safe][delegate] */\n      0x00\n        /* \"input/AllowanceModule.sol\":14129:14137  delegate */\n      dup4\n        /* \"input/AllowanceModule.sol\":14116:14138  tokens[safe][delegate] */\n      0xffffffffffffffffffffffffffffffffffffffff\n      and\n      0xffffffffffffffffffffffffffffffffffffffff\n      and\n      dup2\n      mstore\n      0x20\n      add\n      swap1\n      dup2\n      mstore\n      0x20\n      add\n      0x00\n      keccak256\n        /* \"input/AllowanceModule.sol\":14109:14138  return tokens[safe][delegate] */\n      dup1\n      sload\n      dup1\n      0x20\n      mul\n      0x20\n      add\n      mload(0x40)\n      swap1\n      dup2\n      add\n      0x40\n      mstore\n      dup1\n      swap3\n      swap2\n      swap1\n      dup2\n      dup2\n      mstore\n      0x20\n      add\n      dup3\n      dup1\n      sload\n      dup1\n      iszero\n      tag_132\n      jumpi\n      0x20\n      mul\n      dup3\n      add\n      swap2\n      swap1\n      0x00\n      mstore\n      keccak256(0x00, 0x20)\n      swap1\n    tag_133:\n      dup2\n      0x00\n      swap1\n      sload\n      swap1\n      0x0100\n      exp\n      swap1\n      div\n      0xffffffffffffffffffffffffffffffffffffffff\n      and\n      0xffffffffffffffffffffffffffffffffffffffff\n      and\n      dup2\n      mstore\n      0x20\n      add\n      swap1\n      0x01\n      add\n      swap1\n      dup1\n      dup4\n      gt\n      tag_133\n      jumpi\n    tag_132:\n      pop\n      pop\n      pop\n      pop\n      pop\n      swap1\n      pop\n        /* \"input/AllowanceModule.sol\":14009:14145  function getTokens(address safe, address delegate) public view returns (address[] memory) {... */\n      swap3\n      swap2\n      pop\n      pop\n      jump\t// out\n        /* \"input/AllowanceModule.sol\":14151:14578  function getTokenAllowance(address safe, address delegate, address token) public view returns (uint256[5] memory) {... */\n    tag_48:\n        /* \"input/AllowanceModule.sol\":14246:14263  uint256[5] memory */\n      tag_134\n      tag_135\n      jump\t// in\n    tag_134:\n        /* \"input/AllowanceModule.sol\":14275:14301  Allowance memory allowance */\n      tag_137\n      tag_95\n      jump\t// in\n    tag_137:\n        /* \"input/AllowanceModule.sol\":14304:14339  getAllowance(safe, delegate, token) */\n      tag_138\n        /* \"input/AllowanceModule.sol\":14317:14321  safe */\n      dup6\n        /* \"input/AllowanceModule.sol\":14323:14331  delegate */\n      dup6\n        /* \"input/AllowanceModule.sol\":14333:14338  token */\n      dup6\n        /* \"input/AllowanceModule.sol\":14304:14316  getAllowance */\n      tag_97\n        /* \"input/AllowanceModule.sol\":14304:14339  getAllowance(safe, delegate, token) */\n      jump\t// in\n    tag_138:\n        /* \"input/AllowanceModule.sol\":14275:14339  Allowance memory allowance = getAllowance(safe, delegate, token) */\n      swap1\n      pop\n        /* \"input/AllowanceModule.sol\":14349:14571  return [... */\n      mload(0x40)\n      dup1\n      0xa0\n      add\n      0x40\n      mstore\n      dup1\n        /* \"input/AllowanceModule.sol\":14378:14387  allowance */\n      dup3\n        /* \"input/AllowanceModule.sol\":14378:14394  allowance.amount */\n      0x00\n      add\n      mload\n        /* \"input/AllowanceModule.sol\":14370:14395  uint256(allowance.amount) */\n      0xffffffffffffffffffffffff\n      and\n        /* \"input/AllowanceModule.sol\":14349:14571  return [... */\n      dup2\n      mstore\n      0x20\n      add\n        /* \"input/AllowanceModule.sol\":14417:14426  allowance */\n      dup3\n        /* \"input/AllowanceModule.sol\":14417:14432  allowance.spent */\n      0x20\n      add\n      mload\n        /* \"input/AllowanceModule.sol\":14409:14433  uint256(allowance.spent) */\n      0xffffffffffffffffffffffff\n      and\n        /* \"input/AllowanceModule.sol\":14349:14571  return [... */\n      dup2\n      mstore\n      0x20\n      add\n        /* \"input/AllowanceModule.sol\":14455:14464  allowance */\n      dup3\n        /* \"input/AllowanceModule.sol\":14455:14477  allowance.resetTimeMin */\n      0x40\n      add\n      mload\n        /* \"input/AllowanceModule.sol\":14447:14478  uint256(allowance.resetTimeMin) */\n      0xffff\n      and\n        /* \"input/AllowanceModule.sol\":14349:14571  return [... */\n      dup2\n      mstore\n      0x20\n      add\n        /* \"input/AllowanceModule.sol\":14500:14509  allowance */\n      dup3\n        /* \"input/AllowanceModule.sol\":14500:14522  allowance.lastResetMin */\n      0x60\n      add\n      mload\n        /* \"input/AllowanceModule.sol\":14492:14523  uint256(allowance.lastResetMin) */\n      0xffffffff\n      and\n        /* \"input/AllowanceModule.sol\":14349:14571  return [... */\n      dup2\n      mstore\n      0x20\n      add\n        /* \"input/AllowanceModule.sol\":14545:14554  allowance */\n      dup3\n        /* \"input/AllowanceModule.sol\":14545:14560  allowance.nonce */\n      0x80\n      add\n      mload\n        /* \"input/AllowanceModule.sol\":14537:14561  uint256(allowance.nonce) */\n      0xffff\n      and\n        /* \"input/AllowanceModule.sol\":14349:14571  return [... */\n      dup2\n      mstore\n      pop\n      swap2\n      pop\n      pop\n        /* \"input/AllowanceModule.sol\":14151:14578  function getTokenAllowance(address safe, address delegate, address token) public view returns (uint256[5] memory) {... */\n      swap4\n      swap3\n      pop\n      pop\n      pop\n      jump\t// out\n        /* \"input/AllowanceModule.sol\":3745:3793  string public constant NAME = \"Allowance Module\" */\n    tag_53:\n      mload(0x40)\n      dup1\n      0x40\n      add\n      0x40\n      mstore\n      dup1\n      0x10\n      dup2\n      mstore\n      0x20\n      add\n      0x416c6c6f77616e6365204d6f64756c6500000000000000000000000000000000\n      dup2\n      mstore\n      pop\n      dup2\n      jump\t// out\n        /* \"input/AllowanceModule.sol\":4313:4401  mapping(address => mapping (address => mapping(address => Allowance))) public allowances */\n    tag_60:\n      mstore(0x20, 0x00)\n      dup3\n      0x00\n      mstore\n      mstore(0x20, keccak256(0x00, 0x40))\n      dup2\n      0x00\n      mstore\n      mstore(0x20, keccak256(0x00, 0x40))\n      dup1\n      0x00\n      mstore\n      keccak256(0x00, 0x40)\n      0x00\n      swap3\n      pop\n      swap3\n      pop\n      pop\n      pop\n      dup1\n      0x00\n      add\n      0x00\n      swap1\n      sload\n      swap1\n      0x0100\n      exp\n      swap1\n      div\n      0xffffffffffffffffffffffff\n      and\n      swap1\n      dup1\n      0x00\n      add\n      0x0c\n      swap1\n      sload\n      swap1\n      0x0100\n      exp\n      swap1\n      div\n      0xffffffffffffffffffffffff\n      and\n      swap1\n      dup1\n      0x00\n      add\n      0x18\n      swap1\n      sload\n      swap1\n      0x0100\n      exp\n      swap1\n      div\n      0xffff\n      and\n      swap1\n      dup1\n      0x00\n      add\n      0x1a\n      swap1\n      sload\n      swap1\n      0x0100\n      exp\n      swap1\n      div\n      0xffffffff\n      and\n      swap1\n      dup1\n      0x00\n      add\n      0x1e\n      swap1\n      sload\n      swap1\n      0x0100\n      exp\n      swap1\n      div\n      0xffff\n      and\n      swap1\n      pop\n      dup6\n      jump\t// out\n        /* \"input/AllowanceModule.sol\":5869:7125  function setAllowance(address delegate, address token, uint96 allowanceAmount, uint16 resetTimeMin, uint32 resetBaseMin)... */\n    tag_63:\n        /* \"input/AllowanceModule.sol\":6079:6087  delegate */\n      dup5\n        /* \"input/AllowanceModule.sol\":6027:6087  delegates[msg.sender][uint48(delegate)].delegate == delegate */\n      0xffffffffffffffffffffffffffffffffffffffff\n      and\n        /* \"input/AllowanceModule.sol\":6027:6036  delegates */\n      0x02\n        /* \"input/AllowanceModule.sol\":6027:6048  delegates[msg.sender] */\n      0x00\n        /* \"input/AllowanceModule.sol\":6037:6047  msg.sender */\n      caller\n        /* \"input/AllowanceModule.sol\":6027:6048  delegates[msg.sender] */\n      0xffffffffffffffffffffffffffffffffffffffff\n      and\n      0xffffffffffffffffffffffffffffffffffffffff\n      and\n      dup2\n      mstore\n      0x20\n      add\n      swap1\n      dup2\n      mstore\n      0x20\n      add\n      0x00\n      keccak256\n        /* \"input/AllowanceModule.sol\":6027:6066  delegates[msg.sender][uint48(delegate)] */\n      0x00\n        /* \"input/AllowanceModule.sol\":6056:6064  delegate */\n      dup8\n        /* \"input/AllowanceModule.sol\":6027:6066  delegates[msg.sender][uint48(delegate)] */\n      0xffffffffffff\n      and\n      0xffffffffffff\n      and\n      dup2\n      mstore\n      0x20\n      add\n      swap1\n      dup2\n      mstore\n      0x20\n      add\n      0x00\n      keccak256\n        /* \"input/AllowanceModule.sol\":6027:6075  delegates[msg.sender][uint48(delegate)].delegate */\n      0x00\n      add\n      0x00\n      swap1\n      sload\n      swap1\n      0x0100\n      exp\n      swap1\n      div\n      0xffffffffffffffffffffffffffffffffffffffff\n      and\n        /* \"input/AllowanceModule.sol\":6027:6087  delegates[msg.sender][uint48(delegate)].delegate == delegate */\n      0xffffffffffffffffffffffffffffffffffffffff\n      and\n      eq\n        /* \"input/AllowanceModule.sol\":6019:6152  require(delegates[msg.sender][uint48(delegate)].delegate == delegate, \"delegates[msg.sender][uint48(delegate)].delegate == delegate\") */\n      tag_140\n      jumpi\n      mload(0x40)\n      0x08c379a000000000000000000000000000000000000000000000000000000000\n      dup2\n      mstore\n      0x04\n      add\n      dup1\n      dup1\n      0x20\n      add\n      dup3\n      dup2\n      sub\n      dup3\n      mstore\n      0x3c\n      dup2\n      mstore\n      0x20\n      add\n      dup1\n      data_58537fa1960fbebccc117b6218b0af08a9f148039299593ea287e665dd534bb1\n      0x3c\n      swap2\n      codecopy\n      0x40\n      add\n      swap2\n      pop\n      pop\n      mload(0x40)\n      dup1\n      swap2\n      sub\n      swap1\n      revert\n    tag_140:\n        /* \"input/AllowanceModule.sol\":6162:6188  Allowance memory allowance */\n      tag_141\n      tag_95\n      jump\t// in\n    tag_141:\n        /* \"input/AllowanceModule.sol\":6191:6232  getAllowance(msg.sender, delegate, token) */\n      tag_142\n        /* \"input/AllowanceModule.sol\":6204:6214  msg.sender */\n      caller\n        /* \"input/AllowanceModule.sol\":6216:6224  delegate */\n      dup8\n        /* \"input/AllowanceModule.sol\":6226:6231  token */\n      dup8\n        /* \"input/AllowanceModule.sol\":6191:6203  getAllowance */\n      tag_97\n        /* \"input/AllowanceModule.sol\":6191:6232  getAllowance(msg.sender, delegate, token) */\n      jump\t// in\n    tag_142:\n        /* \"input/AllowanceModule.sol\":6162:6232  Allowance memory allowance = getAllowance(msg.sender, delegate, token) */\n      swap1\n      pop\n        /* \"input/AllowanceModule.sol\":6265:6266  0 */\n      0x00\n        /* \"input/AllowanceModule.sol\":6246:6255  allowance */\n      dup2\n        /* \"input/AllowanceModule.sol\":6246:6261  allowance.nonce */\n      0x80\n      add\n      mload\n        /* \"input/AllowanceModule.sol\":6246:6266  allowance.nonce == 0 */\n      0xffff\n      and\n      eq\n        /* \"input/AllowanceModule.sol\":6242:6452  if (allowance.nonce == 0) { // New token... */\n      iszero\n      tag_143\n      jumpi\n        /* \"input/AllowanceModule.sol\":6386:6387  1 */\n      0x01\n        /* \"input/AllowanceModule.sol\":6368:6377  allowance */\n      dup2\n        /* \"input/AllowanceModule.sol\":6368:6383  allowance.nonce */\n      0x80\n      add\n        /* \"input/AllowanceModule.sol\":6368:6387  allowance.nonce = 1 */\n      swap1\n      0xffff\n      and\n      swap1\n      dup2\n      0xffff\n      and\n      dup2\n      mstore\n      pop\n      pop\n        /* \"input/AllowanceModule.sol\":6401:6407  tokens */\n      0x01\n        /* \"input/AllowanceModule.sol\":6401:6419  tokens[msg.sender] */\n      0x00\n        /* \"input/AllowanceModule.sol\":6408:6418  msg.sender */\n      caller\n        /* \"input/AllowanceModule.sol\":6401:6419  tokens[msg.sender] */\n      0xffffffffffffffffffffffffffffffffffffffff\n      and\n      0xffffffffffffffffffffffffffffffffffffffff\n      and\n      dup2\n      mstore\n      0x20\n      add\n      swap1\n      dup2\n      mstore\n      0x20\n      add\n      0x00\n      keccak256\n        /* \"input/AllowanceModule.sol\":6401:6429  tokens[msg.sender][delegate] */\n      0x00\n        /* \"input/AllowanceModule.sol\":6420:6428  delegate */\n      dup8\n        /* \"input/AllowanceModule.sol\":6401:6429  tokens[msg.sender][delegate] */\n      0xffffffffffffffffffffffffffffffffffffffff\n      and\n      0xffffffffffffffffffffffffffffffffffffffff\n      and\n      dup2\n      mstore\n      0x20\n      add\n      swap1\n      dup2\n      mstore\n      0x20\n      add\n      0x00\n      keccak256\n        /* \"input/AllowanceModule.sol\":6435:6440  token */\n      dup6\n        /* \"input/AllowanceModule.sol\":6401:6441  tokens[msg.sender][delegate].push(token) */\n      swap1\n      dup1\n        /* \"--CODEGEN--\":39:40   */\n      0x01\n        /* \"--CODEGEN--\":33:36   */\n      dup2\n        /* \"--CODEGEN--\":27:37   */\n      sload\n        /* \"--CODEGEN--\":23:41   */\n      add\n        /* \"--CODEGEN--\":57:67   */\n      dup1\n        /* \"--CODEGEN--\":52:55   */\n      dup3\n        /* \"--CODEGEN--\":45:68   */\n      sstore\n        /* \"--CODEGEN--\":79:89   */\n      dup1\n        /* \"--CODEGEN--\":72:89   */\n      swap2\n      pop\n        /* \"--CODEGEN--\":0:93   */\n      pop\n        /* \"input/AllowanceModule.sol\":6401:6441  tokens[msg.sender][delegate].push(token) */\n      swap1\n      0x01\n      dup3\n      sub\n      swap1\n      0x00\n      mstore\n      keccak256(0x00, 0x20)\n      add\n      0x00\n      swap1\n      swap2\n      swap3\n      swap1\n      swap2\n      swap1\n      swap2\n      0x0100\n      exp\n      dup2\n      sload\n      dup2\n      0xffffffffffffffffffffffffffffffffffffffff\n      mul\n      not\n      and\n      swap1\n      dup4\n      0xffffffffffffffffffffffffffffffffffffffff\n      and\n      mul\n      or\n      swap1\n      sstore\n      pop\n      pop\n        /* \"input/AllowanceModule.sol\":6242:6452  if (allowance.nonce == 0) { // New token... */\n    tag_143:\n        /* \"input/AllowanceModule.sol\":6523:6540  uint32 currentMin */\n      0x00\n        /* \"input/AllowanceModule.sol\":6556:6558  60 */\n      0x3c\n        /* \"input/AllowanceModule.sol\":6550:6553  now */\n      timestamp\n        /* \"input/AllowanceModule.sol\":6550:6558  now / 60 */\n      dup2\n      tag_145\n      jumpi\n      invalid\n    tag_145:\n      div\n        /* \"input/AllowanceModule.sol\":6523:6559  uint32 currentMin = uint32(now / 60) */\n      swap1\n      pop\n        /* \"input/AllowanceModule.sol\":6588:6589  0 */\n      0x00\n        /* \"input/AllowanceModule.sol\":6573:6585  resetBaseMin */\n      dup4\n        /* \"input/AllowanceModule.sol\":6573:6589  resetBaseMin > 0 */\n      0xffffffff\n      and\n      gt\n        /* \"input/AllowanceModule.sol\":6569:6876  if (resetBaseMin > 0) {... */\n      iszero\n      tag_146\n      jumpi\n        /* \"input/AllowanceModule.sol\":6629:6639  currentMin */\n      dup1\n        /* \"input/AllowanceModule.sol\":6613:6639  resetBaseMin <= currentMin */\n      0xffffffff\n      and\n        /* \"input/AllowanceModule.sol\":6613:6625  resetBaseMin */\n      dup4\n        /* \"input/AllowanceModule.sol\":6613:6639  resetBaseMin <= currentMin */\n      0xffffffff\n      and\n      gt\n      iszero\n        /* \"input/AllowanceModule.sol\":6605:6670  require(resetBaseMin <= currentMin, \"resetBaseMin <= currentMin\") */\n      tag_147\n      jumpi\n      mload(0x40)\n      0x08c379a000000000000000000000000000000000000000000000000000000000\n      dup2\n      mstore\n      0x04\n      add\n      dup1\n      dup1\n      0x20\n      add\n      dup3\n      dup2\n      sub\n      dup3\n      mstore\n      0x1a\n      dup2\n      mstore\n      0x20\n      add\n      dup1\n      0x7265736574426173654d696e203c3d2063757272656e744d696e000000000000\n      dup2\n      mstore\n      pop\n      0x20\n      add\n      swap2\n      pop\n      pop\n      mload(0x40)\n      dup1\n      swap2\n      sub\n      swap1\n      revert\n    tag_147:\n        /* \"input/AllowanceModule.sol\":6753:6765  resetTimeMin */\n      dup4\n        /* \"input/AllowanceModule.sol\":6723:6765  (currentMin - resetBaseMin) % resetTimeMin */\n      0xffff\n      and\n        /* \"input/AllowanceModule.sol\":6737:6749  resetBaseMin */\n      dup4\n        /* \"input/AllowanceModule.sol\":6724:6734  currentMin */\n      dup3\n        /* \"input/AllowanceModule.sol\":6724:6749  currentMin - resetBaseMin */\n      sub\n        /* \"input/AllowanceModule.sol\":6723:6765  (currentMin - resetBaseMin) % resetTimeMin */\n      0xffffffff\n      and\n      dup2\n      tag_148\n      jumpi\n      invalid\n    tag_148:\n      mod\n        /* \"input/AllowanceModule.sol\":6709:6719  currentMin */\n      dup2\n        /* \"input/AllowanceModule.sol\":6709:6766  currentMin - ((currentMin - resetBaseMin) % resetTimeMin) */\n      sub\n        /* \"input/AllowanceModule.sol\":6684:6693  allowance */\n      dup3\n        /* \"input/AllowanceModule.sol\":6684:6706  allowance.lastResetMin */\n      0x60\n      add\n        /* \"input/AllowanceModule.sol\":6684:6766  allowance.lastResetMin = currentMin - ((currentMin - resetBaseMin) % resetTimeMin) */\n      swap1\n      0xffffffff\n      and\n      swap1\n      dup2\n      0xffffffff\n      and\n      dup2\n      mstore\n      pop\n      pop\n        /* \"input/AllowanceModule.sol\":6569:6876  if (resetBaseMin > 0) {... */\n      jump(tag_149)\n    tag_146:\n        /* \"input/AllowanceModule.sol\":6813:6814  0 */\n      0x00\n        /* \"input/AllowanceModule.sol\":6787:6796  allowance */\n      dup3\n        /* \"input/AllowanceModule.sol\":6787:6809  allowance.lastResetMin */\n      0x60\n      add\n      mload\n        /* \"input/AllowanceModule.sol\":6787:6814  allowance.lastResetMin == 0 */\n      0xffffffff\n      and\n      eq\n        /* \"input/AllowanceModule.sol\":6783:6876  if (allowance.lastResetMin == 0) {... */\n      iszero\n      tag_150\n      jumpi\n        /* \"input/AllowanceModule.sol\":6855:6865  currentMin */\n      dup1\n        /* \"input/AllowanceModule.sol\":6830:6839  allowance */\n      dup3\n        /* \"input/AllowanceModule.sol\":6830:6852  allowance.lastResetMin */\n      0x60\n      add\n        /* \"input/AllowanceModule.sol\":6830:6865  allowance.lastResetMin = currentMin */\n      swap1\n      0xffffffff\n      and\n      swap1\n      dup2\n      0xffffffff\n      and\n      dup2\n      mstore\n      pop\n      pop\n        /* \"input/AllowanceModule.sol\":6783:6876  if (allowance.lastResetMin == 0) {... */\n    tag_150:\n        /* \"input/AllowanceModule.sol\":6569:6876  if (resetBaseMin > 0) {... */\n    tag_149:\n        /* \"input/AllowanceModule.sol\":6910:6922  resetTimeMin */\n      dup4\n        /* \"input/AllowanceModule.sol\":6885:6894  allowance */\n      dup3\n        /* \"input/AllowanceModule.sol\":6885:6907  allowance.resetTimeMin */\n      0x40\n      add\n        /* \"input/AllowanceModule.sol\":6885:6922  allowance.resetTimeMin = resetTimeMin */\n      swap1\n      0xffff\n      and\n      swap1\n      dup2\n      0xffff\n      and\n      dup2\n      mstore\n      pop\n      pop\n        /* \"input/AllowanceModule.sol\":6951:6966  allowanceAmount */\n      dup5\n        /* \"input/AllowanceModule.sol\":6932:6941  allowance */\n      dup3\n        /* \"input/AllowanceModule.sol\":6932:6948  allowance.amount */\n      0x00\n      add\n        /* \"input/AllowanceModule.sol\":6932:6966  allowance.amount = allowanceAmount */\n      swap1\n      0xffffffffffffffffffffffff\n      and\n      swap1\n      dup2\n      0xffffffffffffffffffffffff\n      and\n      dup2\n      mstore\n      pop\n      pop\n        /* \"input/AllowanceModule.sol\":6976:7031  updateAllowance(msg.sender, delegate, token, allowance) */\n      tag_151\n        /* \"input/AllowanceModule.sol\":6992:7002  msg.sender */\n      caller\n        /* \"input/AllowanceModule.sol\":7004:7012  delegate */\n      dup9\n        /* \"input/AllowanceModule.sol\":7014:7019  token */\n      dup9\n        /* \"input/AllowanceModule.sol\":7021:7030  allowance */\n      dup6\n        /* \"input/AllowanceModule.sol\":6976:6991  updateAllowance */\n      tag_111\n        /* \"input/AllowanceModule.sol\":6976:7031  updateAllowance(msg.sender, delegate, token, allowance) */\n      jump\t// in\n    tag_151:\n        /* \"input/AllowanceModule.sol\":7059:7069  msg.sender */\n      caller\n        /* \"input/AllowanceModule.sol\":7046:7118  SetAllowance(msg.sender, delegate, token, allowanceAmount, resetTimeMin) */\n      0xffffffffffffffffffffffffffffffffffffffff\n      and\n      0x49caa04c5e1e168069c09df7f88c07ca87be980b0bf4570ab77fe9aae3ca7eba\n        /* \"input/AllowanceModule.sol\":7071:7079  delegate */\n      dup9\n        /* \"input/AllowanceModule.sol\":7081:7086  token */\n      dup9\n        /* \"input/AllowanceModule.sol\":7088:7103  allowanceAmount */\n      dup9\n        /* \"input/AllowanceModule.sol\":7105:7117  resetTimeMin */\n      dup9\n        /* \"input/AllowanceModule.sol\":7046:7118  SetAllowance(msg.sender, delegate, token, allowanceAmount, resetTimeMin) */\n      mload(0x40)\n      dup1\n      dup6\n      0xffffffffffffffffffffffffffffffffffffffff\n      and\n      0xffffffffffffffffffffffffffffffffffffffff\n      and\n      dup2\n      mstore\n      0x20\n      add\n      dup5\n      0xffffffffffffffffffffffffffffffffffffffff\n      and\n      0xffffffffffffffffffffffffffffffffffffffff\n      and\n      dup2\n      mstore\n      0x20\n      add\n      dup4\n      0xffffffffffffffffffffffff\n      and\n      0xffffffffffffffffffffffff\n      and\n      dup2\n      mstore\n      0x20\n      add\n      dup3\n      0xffff\n      and\n      0xffff\n      and\n      dup2\n      mstore\n      0x20\n      add\n      swap5\n      pop\n      pop\n      pop\n      pop\n      pop\n      mload(0x40)\n      dup1\n      swap2\n      sub\n      swap1\n      log2\n        /* \"input/AllowanceModule.sol\":5869:7125  function setAllowance(address delegate, address token, uint96 allowanceAmount, uint16 resetTimeMin, uint32 resetBaseMin)... */\n      pop\n      pop\n      pop\n      pop\n      pop\n      pop\n      pop\n      jump\t// out\n        /* \"input/AllowanceModule.sol\":7894:8139  function resetAllowance(address delegate, address token) public {... */\n    tag_66:\n        /* \"input/AllowanceModule.sol\":7968:7994  Allowance memory allowance */\n      tag_153\n      tag_95\n      jump\t// in\n    tag_153:\n        /* \"input/AllowanceModule.sol\":7997:8038  getAllowance(msg.sender, delegate, token) */\n      tag_154\n        /* \"input/AllowanceModule.sol\":8010:8020  msg.sender */\n      caller\n        /* \"input/AllowanceModule.sol\":8022:8030  delegate */\n      dup5\n        /* \"input/AllowanceModule.sol\":8032:8037  token */\n      dup5\n        /* \"input/AllowanceModule.sol\":7997:8009  getAllowance */\n      tag_97\n        /* \"input/AllowanceModule.sol\":7997:8038  getAllowance(msg.sender, delegate, token) */\n      jump\t// in\n    tag_154:\n        /* \"input/AllowanceModule.sol\":7968:8038  Allowance memory allowance = getAllowance(msg.sender, delegate, token) */\n      swap1\n      pop\n        /* \"input/AllowanceModule.sol\":8066:8067  0 */\n      0x00\n        /* \"input/AllowanceModule.sol\":8048:8057  allowance */\n      dup2\n        /* \"input/AllowanceModule.sol\":8048:8063  allowance.spent */\n      0x20\n      add\n        /* \"input/AllowanceModule.sol\":8048:8067  allowance.spent = 0 */\n      swap1\n      0xffffffffffffffffffffffff\n      and\n      swap1\n      dup2\n      0xffffffffffffffffffffffff\n      and\n      dup2\n      mstore\n      pop\n      pop\n        /* \"input/AllowanceModule.sol\":8077:8132  updateAllowance(msg.sender, delegate, token, allowance) */\n      tag_155\n        /* \"input/AllowanceModule.sol\":8093:8103  msg.sender */\n      caller\n        /* \"input/AllowanceModule.sol\":8105:8113  delegate */\n      dup5\n        /* \"input/AllowanceModule.sol\":8115:8120  token */\n      dup5\n        /* \"input/AllowanceModule.sol\":8122:8131  allowance */\n      dup5\n        /* \"input/AllowanceModule.sol\":8077:8092  updateAllowance */\n      tag_111\n        /* \"input/AllowanceModule.sol\":8077:8132  updateAllowance(msg.sender, delegate, token, allowance) */\n      jump\t// in\n    tag_155:\n        /* \"input/AllowanceModule.sol\":7894:8139  function resetAllowance(address delegate, address token) public {... */\n      pop\n      pop\n      pop\n      jump\t// out\n        /* \"input/AllowanceModule.sol\":4477:4542  mapping(address => mapping (uint48 => Delegate)) public delegates */\n    tag_69:\n      mstore(0x20, 0x02)\n      dup2\n      0x00\n      mstore\n      mstore(0x20, keccak256(0x00, 0x40))\n      dup1\n      0x00\n      mstore\n      keccak256(0x00, 0x40)\n      0x00\n      swap2\n      pop\n      swap2\n      pop\n      pop\n      dup1\n      0x00\n      add\n      0x00\n      swap1\n      sload\n      swap1\n      0x0100\n      exp\n      swap1\n      div\n      0xffffffffffffffffffffffffffffffffffffffff\n      and\n      swap1\n      dup1\n      0x00\n      add\n      0x14\n      swap1\n      sload\n      swap1\n      0x0100\n      exp\n      swap1\n      div\n      0xffffffffffff\n      and\n      swap1\n      dup1\n      0x00\n      add\n      0x1a\n      swap1\n      sload\n      swap1\n      0x0100\n      exp\n      swap1\n      div\n      0xffffffffffff\n      and\n      swap1\n      pop\n      dup4\n      jump\t// out\n        /* \"input/AllowanceModule.sol\":10866:11232  function generateTransferHash(... */\n    tag_72:\n        /* \"input/AllowanceModule.sol\":11087:11094  bytes32 */\n      0x00\n        /* \"input/AllowanceModule.sol\":11123:11224  generateTransferHashData(... */\n      tag_157\n        /* \"input/AllowanceModule.sol\":11161:11165  safe */\n      dup9\n        /* \"input/AllowanceModule.sol\":11167:11172  token */\n      dup9\n        /* \"input/AllowanceModule.sol\":11174:11176  to */\n      dup9\n        /* \"input/AllowanceModule.sol\":11178:11184  amount */\n      dup9\n        /* \"input/AllowanceModule.sol\":11186:11198  paymentToken */\n      dup9\n        /* \"input/AllowanceModule.sol\":11200:11207  payment */\n      dup9\n        /* \"input/AllowanceModule.sol\":11209:11214  nonce */\n      dup9\n        /* \"input/AllowanceModule.sol\":11123:11147  generateTransferHashData */\n      tag_99\n        /* \"input/AllowanceModule.sol\":11123:11224  generateTransferHashData(... */\n      jump\t// in\n    tag_157:\n        /* \"input/AllowanceModule.sol\":11113:11225  keccak256(generateTransferHashData(... */\n      dup1\n      mload\n      swap1\n      0x20\n      add\n      keccak256\n        /* \"input/AllowanceModule.sol\":11106:11225  return keccak256(generateTransferHashData(... */\n      swap1\n      pop\n        /* \"input/AllowanceModule.sol\":10866:11232  function generateTransferHash(... */\n      swap8\n      swap7\n      pop\n      pop\n      pop\n      pop\n      pop\n      pop\n      pop\n      jump\t// out\n        /* \"input/AllowanceModule.sol\":14584:15147  function addDelegate(address delegate) public {... */\n    tag_75:\n        /* \"input/AllowanceModule.sol\":14668:14669  0 */\n      0x00\n        /* \"input/AllowanceModule.sol\":14648:14670  delegate != address(0) */\n      0xffffffffffffffffffffffffffffffffffffffff\n      and\n        /* \"input/AllowanceModule.sol\":14648:14656  delegate */\n      dup2\n        /* \"input/AllowanceModule.sol\":14648:14670  delegate != address(0) */\n      0xffffffffffffffffffffffffffffffffffffffff\n      and\n      eq\n      iszero\n        /* \"input/AllowanceModule.sol\":14640:14699  require(delegate != address(0), \"Invalid delegate address\") */\n      tag_159\n      jumpi\n      mload(0x40)\n      0x08c379a000000000000000000000000000000000000000000000000000000000\n      dup2\n      mstore\n      0x04\n      add\n      dup1\n      dup1\n      0x20\n      add\n      dup3\n      dup2\n      sub\n      dup3\n      mstore\n      0x18\n      dup2\n      mstore\n      0x20\n      add\n      dup1\n      0x496e76616c69642064656c656761746520616464726573730000000000000000\n      dup2\n      mstore\n      pop\n      0x20\n      add\n      swap2\n      pop\n      pop\n      mload(0x40)\n      dup1\n      swap2\n      sub\n      swap1\n      revert\n    tag_159:\n        /* \"input/AllowanceModule.sol\":14709:14721  uint48 index */\n      0x00\n        /* \"input/AllowanceModule.sol\":14731:14739  delegate */\n      dup2\n        /* \"input/AllowanceModule.sol\":14709:14740  uint48 index = uint48(delegate) */\n      swap1\n      pop\n        /* \"input/AllowanceModule.sol\":14852:14853  0 */\n      0x00\n        /* \"input/AllowanceModule.sol\":14803:14854  delegates[msg.sender][index].delegate != address(0) */\n      0xffffffffffffffffffffffffffffffffffffffff\n      and\n        /* \"input/AllowanceModule.sol\":14803:14812  delegates */\n      0x02\n        /* \"input/AllowanceModule.sol\":14803:14824  delegates[msg.sender] */\n      0x00\n        /* \"input/AllowanceModule.sol\":14813:14823  msg.sender */\n      caller\n        /* \"input/AllowanceModule.sol\":14803:14824  delegates[msg.sender] */\n      0xffffffffffffffffffffffffffffffffffffffff\n      and\n      0xffffffffffffffffffffffffffffffffffffffff\n      and\n      dup2\n      mstore\n      0x20\n      add\n      swap1\n      dup2\n      mstore\n      0x20\n      add\n      0x00\n      keccak256\n        /* \"input/AllowanceModule.sol\":14803:14831  delegates[msg.sender][index] */\n      0x00\n        /* \"input/AllowanceModule.sol\":14825:14830  index */\n      dup4\n        /* \"input/AllowanceModule.sol\":14803:14831  delegates[msg.sender][index] */\n      0xffffffffffff\n      and\n      0xffffffffffff\n      and\n      dup2\n      mstore\n      0x20\n      add\n      swap1\n      dup2\n      mstore\n      0x20\n      add\n      0x00\n      keccak256\n        /* \"input/AllowanceModule.sol\":14803:14840  delegates[msg.sender][index].delegate */\n      0x00\n      add\n      0x00\n      swap1\n      sload\n      swap1\n      0x0100\n      exp\n      swap1\n      div\n      0xffffffffffffffffffffffffffffffffffffffff\n      and\n        /* \"input/AllowanceModule.sol\":14803:14854  delegates[msg.sender][index].delegate != address(0) */\n      0xffffffffffffffffffffffffffffffffffffffff\n      and\n      eq\n        /* \"input/AllowanceModule.sol\":14800:14863  if(delegates[msg.sender][index].delegate != address(0)) return; */\n      tag_160\n      jumpi\n        /* \"input/AllowanceModule.sol\":14856:14863  return; */\n      pop\n      jump(tag_158)\n        /* \"input/AllowanceModule.sol\":14800:14863  if(delegates[msg.sender][index].delegate != address(0)) return; */\n    tag_160:\n        /* \"input/AllowanceModule.sol\":14872:14889  uint48 startIndex */\n      0x00\n        /* \"input/AllowanceModule.sol\":14892:14906  delegatesStart */\n      0x03\n        /* \"input/AllowanceModule.sol\":14892:14918  delegatesStart[msg.sender] */\n      0x00\n        /* \"input/AllowanceModule.sol\":14907:14917  msg.sender */\n      caller\n        /* \"input/AllowanceModule.sol\":14892:14918  delegatesStart[msg.sender] */\n      0xffffffffffffffffffffffffffffffffffffffff\n      and\n      0xffffffffffffffffffffffffffffffffffffffff\n      and\n      dup2\n      mstore\n      0x20\n      add\n      swap1\n      dup2\n      mstore\n      0x20\n      add\n      0x00\n      keccak256\n      0x00\n      swap1\n      sload\n      swap1\n      0x0100\n      exp\n      swap1\n      div\n      0xffffffffffff\n      and\n        /* \"input/AllowanceModule.sol\":14872:14918  uint48 startIndex = delegatesStart[msg.sender] */\n      swap1\n      pop\n        /* \"input/AllowanceModule.sol\":14959:14992  Delegate(delegate, 0, startIndex) */\n      mload(0x40)\n      dup1\n      0x60\n      add\n      0x40\n      mstore\n      dup1\n        /* \"input/AllowanceModule.sol\":14968:14976  delegate */\n      dup5\n        /* \"input/AllowanceModule.sol\":14959:14992  Delegate(delegate, 0, startIndex) */\n      0xffffffffffffffffffffffffffffffffffffffff\n      and\n      dup2\n      mstore\n      0x20\n      add\n        /* \"input/AllowanceModule.sol\":14978:14979  0 */\n      0x00\n        /* \"input/AllowanceModule.sol\":14959:14992  Delegate(delegate, 0, startIndex) */\n      0xffffffffffff\n      and\n      dup2\n      mstore\n      0x20\n      add\n        /* \"input/AllowanceModule.sol\":14981:14991  startIndex */\n      dup3\n        /* \"input/AllowanceModule.sol\":14959:14992  Delegate(delegate, 0, startIndex) */\n      0xffffffffffff\n      and\n      dup2\n      mstore\n      pop\n        /* \"input/AllowanceModule.sol\":14928:14937  delegates */\n      0x02\n        /* \"input/AllowanceModule.sol\":14928:14949  delegates[msg.sender] */\n      0x00\n        /* \"input/AllowanceModule.sol\":14938:14948  msg.sender */\n      caller\n        /* \"input/AllowanceModule.sol\":14928:14949  delegates[msg.sender] */\n      0xffffffffffffffffffffffffffffffffffffffff\n      and\n      0xffffffffffffffffffffffffffffffffffffffff\n      and\n      dup2\n      mstore\n      0x20\n      add\n      swap1\n      dup2\n      mstore\n      0x20\n      add\n      0x00\n      keccak256\n        /* \"input/AllowanceModule.sol\":14928:14956  delegates[msg.sender][index] */\n      0x00\n        /* \"input/AllowanceModule.sol\":14950:14955  index */\n      dup5\n        /* \"input/AllowanceModule.sol\":14928:14956  delegates[msg.sender][index] */\n      0xffffffffffff\n      and\n      0xffffffffffff\n      and\n      dup2\n      mstore\n      0x20\n      add\n      swap1\n      dup2\n      mstore\n      0x20\n      add\n      0x00\n      keccak256\n        /* \"input/AllowanceModule.sol\":14928:14992  delegates[msg.sender][index] = Delegate(delegate, 0, startIndex) */\n      0x00\n      dup3\n      add\n      mload\n      dup2\n      0x00\n      add\n      exp(0x0100, 0x00)\n      dup2\n      sload\n      dup2\n      0xffffffffffffffffffffffffffffffffffffffff\n      mul\n      not\n      and\n      swap1\n      dup4\n      0xffffffffffffffffffffffffffffffffffffffff\n      and\n      mul\n      or\n      swap1\n      sstore\n      pop\n      0x20\n      dup3\n      add\n      mload\n      dup2\n      0x00\n      add\n      exp(0x0100, 0x14)\n      dup2\n      sload\n      dup2\n      0xffffffffffff\n      mul\n      not\n      and\n      swap1\n      dup4\n      0xffffffffffff\n      and\n      mul\n      or\n      swap1\n      sstore\n      pop\n      0x40\n      dup3\n      add\n      mload\n      dup2\n      0x00\n      add\n      exp(0x0100, 0x1a)\n      dup2\n      sload\n      dup2\n      0xffffffffffff\n      mul\n      not\n      and\n      swap1\n      dup4\n      0xffffffffffff\n      and\n      mul\n      or\n      swap1\n      sstore\n      pop\n      swap1\n      pop\n      pop\n        /* \"input/AllowanceModule.sol\":15043:15048  index */\n      dup2\n        /* \"input/AllowanceModule.sol\":15002:15011  delegates */\n      0x02\n        /* \"input/AllowanceModule.sol\":15002:15023  delegates[msg.sender] */\n      0x00\n        /* \"input/AllowanceModule.sol\":15012:15022  msg.sender */\n      caller\n        /* \"input/AllowanceModule.sol\":15002:15023  delegates[msg.sender] */\n      0xffffffffffffffffffffffffffffffffffffffff\n      and\n      0xffffffffffffffffffffffffffffffffffffffff\n      and\n      dup2\n      mstore\n      0x20\n      add\n      swap1\n      dup2\n      mstore\n      0x20\n      add\n      0x00\n      keccak256\n        /* \"input/AllowanceModule.sol\":15002:15035  delegates[msg.sender][startIndex] */\n      0x00\n        /* \"input/AllowanceModule.sol\":15024:15034  startIndex */\n      dup4\n        /* \"input/AllowanceModule.sol\":15002:15035  delegates[msg.sender][startIndex] */\n      0xffffffffffff\n      and\n      0xffffffffffff\n      and\n      dup2\n      mstore\n      0x20\n      add\n      swap1\n      dup2\n      mstore\n      0x20\n      add\n      0x00\n      keccak256\n        /* \"input/AllowanceModule.sol\":15002:15040  delegates[msg.sender][startIndex].prev */\n      0x00\n      add\n      0x14\n        /* \"input/AllowanceModule.sol\":15002:15048  delegates[msg.sender][startIndex].prev = index */\n      0x0100\n      exp\n      dup2\n      sload\n      dup2\n      0xffffffffffff\n      mul\n      not\n      and\n      swap1\n      dup4\n      0xffffffffffff\n      and\n      mul\n      or\n      swap1\n      sstore\n      pop\n        /* \"input/AllowanceModule.sol\":15087:15092  index */\n      dup2\n        /* \"input/AllowanceModule.sol\":15058:15072  delegatesStart */\n      0x03\n        /* \"input/AllowanceModule.sol\":15058:15084  delegatesStart[msg.sender] */\n      0x00\n        /* \"input/AllowanceModule.sol\":15073:15083  msg.sender */\n      caller\n        /* \"input/AllowanceModule.sol\":15058:15084  delegatesStart[msg.sender] */\n      0xffffffffffffffffffffffffffffffffffffffff\n      and\n      0xffffffffffffffffffffffffffffffffffffffff\n      and\n      dup2\n      mstore\n      0x20\n      add\n      swap1\n      dup2\n      mstore\n      0x20\n      add\n      0x00\n      keccak256\n      0x00\n        /* \"input/AllowanceModule.sol\":15058:15092  delegatesStart[msg.sender] = index */\n      0x0100\n      exp\n      dup2\n      sload\n      dup2\n      0xffffffffffff\n      mul\n      not\n      and\n      swap1\n      dup4\n      0xffffffffffff\n      and\n      mul\n      or\n      swap1\n      sstore\n      pop\n        /* \"input/AllowanceModule.sol\":15119:15129  msg.sender */\n      caller\n        /* \"input/AllowanceModule.sol\":15107:15140  AddDelegate(msg.sender, delegate) */\n      0xffffffffffffffffffffffffffffffffffffffff\n      and\n      0x2fd5b26f00131bd8ca0fc556207292b85a6bec241341df82724333227458e630\n        /* \"input/AllowanceModule.sol\":15131:15139  delegate */\n      dup5\n        /* \"input/AllowanceModule.sol\":15107:15140  AddDelegate(msg.sender, delegate) */\n      mload(0x40)\n      dup1\n      dup3\n      0xffffffffffffffffffffffffffffffffffffffff\n      and\n      0xffffffffffffffffffffffffffffffffffffffff\n      and\n      dup2\n      mstore\n      0x20\n      add\n      swap2\n      pop\n      pop\n      mload(0x40)\n      dup1\n      swap2\n      sub\n      swap1\n      log2\n        /* \"input/AllowanceModule.sol\":14584:15147  function addDelegate(address delegate) public {... */\n      pop\n      pop\n    tag_158:\n      pop\n      jump\t// out\n        /* \"input/AllowanceModule.sol\":16126:16815  function getDelegates(address safe, uint48 start, uint8 pageSize) public view returns (address[] memory results, uint48 next) {... */\n    tag_78:\n        /* \"input/AllowanceModule.sol\":16213:16237  address[] memory results */\n      0x60\n        /* \"input/AllowanceModule.sol\":16239:16250  uint48 next */\n      0x00\n        /* \"input/AllowanceModule.sol\":16286:16294  pageSize */\n      dup3\n        /* \"input/AllowanceModule.sol\":16272:16295  new address[](pageSize) */\n      0xff\n      and\n      mload(0x40)\n      swap1\n      dup1\n      dup3\n      mstore\n      dup1\n      0x20\n      mul\n      0x20\n      add\n      dup3\n      add\n      0x40\n      mstore\n      dup1\n      iszero\n      tag_162\n      jumpi\n      dup2\n      0x20\n      add\n        /* \"--CODEGEN--\":29:31   */\n      0x20\n        /* \"--CODEGEN--\":21:27   */\n      dup3\n        /* \"--CODEGEN--\":17:32   */\n      mul\n        /* \"--CODEGEN--\":117:121   */\n      dup1\n        /* \"--CODEGEN--\":105:115   */\n      codesize\n        /* \"--CODEGEN--\":97:103   */\n      dup4\n        /* \"--CODEGEN--\":88:122   */\n      codecopy\n        /* \"--CODEGEN--\":148:152   */\n      dup1\n        /* \"--CODEGEN--\":140:146   */\n      dup3\n        /* \"--CODEGEN--\":136:153   */\n      add\n        /* \"--CODEGEN--\":126:153   */\n      swap2\n      pop\n        /* \"--CODEGEN--\":0:157   */\n      pop\n        /* \"input/AllowanceModule.sol\":16272:16295  new address[](pageSize) */\n      swap1\n      pop\n    tag_162:\n      pop\n        /* \"input/AllowanceModule.sol\":16262:16295  results = new address[](pageSize) */\n      swap2\n      pop\n        /* \"input/AllowanceModule.sol\":16305:16312  uint8 i */\n      0x00\n        /* \"input/AllowanceModule.sol\":16315:16316  0 */\n      dup1\n        /* \"input/AllowanceModule.sol\":16305:16316  uint8 i = 0 */\n      swap1\n      pop\n        /* \"input/AllowanceModule.sol\":16326:16345  uint48 initialIndex */\n      0x00\n        /* \"input/AllowanceModule.sol\":16358:16359  0 */\n      dup1\n        /* \"input/AllowanceModule.sol\":16349:16354  start */\n      dup7\n        /* \"input/AllowanceModule.sol\":16349:16359  start != 0 */\n      0xffffffffffff\n      and\n      eq\n      iszero\n        /* \"input/AllowanceModule.sol\":16348:16391  (start != 0) ? start : delegatesStart[safe] */\n      tag_163\n      jumpi\n        /* \"input/AllowanceModule.sol\":16371:16385  delegatesStart */\n      0x03\n        /* \"input/AllowanceModule.sol\":16371:16391  delegatesStart[safe] */\n      0x00\n        /* \"input/AllowanceModule.sol\":16386:16390  safe */\n      dup9\n        /* \"input/AllowanceModule.sol\":16371:16391  delegatesStart[safe] */\n      0xffffffffffffffffffffffffffffffffffffffff\n      and\n      0xffffffffffffffffffffffffffffffffffffffff\n      and\n      dup2\n      mstore\n      0x20\n      add\n      swap1\n      dup2\n      mstore\n      0x20\n      add\n      0x00\n      keccak256\n      0x00\n      swap1\n      sload\n      swap1\n      0x0100\n      exp\n      swap1\n      div\n      0xffffffffffff\n      and\n        /* \"input/AllowanceModule.sol\":16348:16391  (start != 0) ? start : delegatesStart[safe] */\n      jump(tag_164)\n    tag_163:\n        /* \"input/AllowanceModule.sol\":16363:16368  start */\n      dup6\n        /* \"input/AllowanceModule.sol\":16348:16391  (start != 0) ? start : delegatesStart[safe] */\n    tag_164:\n        /* \"input/AllowanceModule.sol\":16326:16391  uint48 initialIndex = (start != 0) ? start : delegatesStart[safe] */\n      swap1\n      pop\n        /* \"input/AllowanceModule.sol\":16401:16424  Delegate memory current */\n      tag_165\n      tag_121\n      jump\t// in\n    tag_165:\n        /* \"input/AllowanceModule.sol\":16427:16436  delegates */\n      0x02\n        /* \"input/AllowanceModule.sol\":16427:16442  delegates[safe] */\n      0x00\n        /* \"input/AllowanceModule.sol\":16437:16441  safe */\n      dup10\n        /* \"input/AllowanceModule.sol\":16427:16442  delegates[safe] */\n      0xffffffffffffffffffffffffffffffffffffffff\n      and\n      0xffffffffffffffffffffffffffffffffffffffff\n      and\n      dup2\n      mstore\n      0x20\n      add\n      swap1\n      dup2\n      mstore\n      0x20\n      add\n      0x00\n      keccak256\n        /* \"input/AllowanceModule.sol\":16427:16456  delegates[safe][initialIndex] */\n      0x00\n        /* \"input/AllowanceModule.sol\":16443:16455  initialIndex */\n      dup4\n        /* \"input/AllowanceModule.sol\":16427:16456  delegates[safe][initialIndex] */\n      0xffffffffffff\n      and\n      0xffffffffffff\n      and\n      dup2\n      mstore\n      0x20\n      add\n      swap1\n      dup2\n      mstore\n      0x20\n      add\n      0x00\n      keccak256\n        /* \"input/AllowanceModule.sol\":16401:16456  Delegate memory current = delegates[safe][initialIndex] */\n      mload(0x40)\n      dup1\n      0x60\n      add\n      0x40\n      mstore\n      swap1\n      dup2\n      0x00\n      dup3\n      add\n      0x00\n      swap1\n      sload\n      swap1\n      0x0100\n      exp\n      swap1\n      div\n      0xffffffffffffffffffffffffffffffffffffffff\n      and\n      0xffffffffffffffffffffffffffffffffffffffff\n      and\n      0xffffffffffffffffffffffffffffffffffffffff\n      and\n      dup2\n      mstore\n      0x20\n      add\n      0x00\n      dup3\n      add\n      0x14\n      swap1\n      sload\n      swap1\n      0x0100\n      exp\n      swap1\n      div\n      0xffffffffffff\n      and\n      0xffffffffffff\n      and\n      0xffffffffffff\n      and\n      dup2\n      mstore\n      0x20\n      add\n      0x00\n      dup3\n      add\n      0x1a\n      swap1\n      sload\n      swap1\n      0x0100\n      exp\n      swap1\n      div\n      0xffffffffffff\n      and\n      0xffffffffffff\n      and\n      0xffffffffffff\n      and\n      dup2\n      mstore\n      pop\n      pop\n      swap1\n      pop\n        /* \"input/AllowanceModule.sol\":16466:16644  while(current.delegate != address(0) && i < pageSize) {... */\n    tag_166:\n        /* \"input/AllowanceModule.sol\":16500:16501  0 */\n      0x00\n        /* \"input/AllowanceModule.sol\":16472:16502  current.delegate != address(0) */\n      0xffffffffffffffffffffffffffffffffffffffff\n      and\n        /* \"input/AllowanceModule.sol\":16472:16479  current */\n      dup2\n        /* \"input/AllowanceModule.sol\":16472:16488  current.delegate */\n      0x00\n      add\n      mload\n        /* \"input/AllowanceModule.sol\":16472:16502  current.delegate != address(0) */\n      0xffffffffffffffffffffffffffffffffffffffff\n      and\n      eq\n      iszero\n        /* \"input/AllowanceModule.sol\":16472:16518  current.delegate != address(0) && i < pageSize */\n      dup1\n      iszero\n      tag_168\n      jumpi\n      pop\n        /* \"input/AllowanceModule.sol\":16510:16518  pageSize */\n      dup6\n        /* \"input/AllowanceModule.sol\":16506:16518  i < pageSize */\n      0xff\n      and\n        /* \"input/AllowanceModule.sol\":16506:16507  i */\n      dup4\n        /* \"input/AllowanceModule.sol\":16506:16518  i < pageSize */\n      0xff\n      and\n      lt\n        /* \"input/AllowanceModule.sol\":16472:16518  current.delegate != address(0) && i < pageSize */\n    tag_168:\n        /* \"input/AllowanceModule.sol\":16466:16644  while(current.delegate != address(0) && i < pageSize) {... */\n      iszero\n      tag_167\n      jumpi\n        /* \"input/AllowanceModule.sol\":16547:16554  current */\n      dup1\n        /* \"input/AllowanceModule.sol\":16547:16563  current.delegate */\n      0x00\n      add\n      mload\n        /* \"input/AllowanceModule.sol\":16534:16541  results */\n      dup6\n        /* \"input/AllowanceModule.sol\":16542:16543  i */\n      dup5\n        /* \"input/AllowanceModule.sol\":16534:16544  results[i] */\n      0xff\n      and\n      dup2\n      mload\n      dup2\n      lt\n      tag_169\n      jumpi\n      invalid\n    tag_169:\n      0x20\n      mul\n      0x20\n      add\n      add\n        /* \"input/AllowanceModule.sol\":16534:16563  results[i] = current.delegate */\n      swap1\n      0xffffffffffffffffffffffffffffffffffffffff\n      and\n      swap1\n      dup2\n      0xffffffffffffffffffffffffffffffffffffffff\n      and\n      dup2\n      mstore\n      pop\n      pop\n        /* \"input/AllowanceModule.sol\":16577:16580  i++ */\n      dup3\n      dup1\n      0x01\n      add\n      swap4\n      pop\n      pop\n        /* \"input/AllowanceModule.sol\":16604:16613  delegates */\n      0x02\n        /* \"input/AllowanceModule.sol\":16604:16619  delegates[safe] */\n      0x00\n        /* \"input/AllowanceModule.sol\":16614:16618  safe */\n      dup10\n        /* \"input/AllowanceModule.sol\":16604:16619  delegates[safe] */\n      0xffffffffffffffffffffffffffffffffffffffff\n      and\n      0xffffffffffffffffffffffffffffffffffffffff\n      and\n      dup2\n      mstore\n      0x20\n      add\n      swap1\n      dup2\n      mstore\n      0x20\n      add\n      0x00\n      keccak256\n        /* \"input/AllowanceModule.sol\":16604:16633  delegates[safe][current.next] */\n      0x00\n        /* \"input/AllowanceModule.sol\":16620:16627  current */\n      dup3\n        /* \"input/AllowanceModule.sol\":16620:16632  current.next */\n      0x40\n      add\n      mload\n        /* \"input/AllowanceModule.sol\":16604:16633  delegates[safe][current.next] */\n      0xffffffffffff\n      and\n      0xffffffffffff\n      and\n      dup2\n      mstore\n      0x20\n      add\n      swap1\n      dup2\n      mstore\n      0x20\n      add\n      0x00\n      keccak256\n        /* \"input/AllowanceModule.sol\":16594:16633  current = delegates[safe][current.next] */\n      mload(0x40)\n      dup1\n      0x60\n      add\n      0x40\n      mstore\n      swap1\n      dup2\n      0x00\n      dup3\n      add\n      0x00\n      swap1\n      sload\n      swap1\n      0x0100\n      exp\n      swap1\n      div\n      0xffffffffffffffffffffffffffffffffffffffff\n      and\n      0xffffffffffffffffffffffffffffffffffffffff\n      and\n      0xffffffffffffffffffffffffffffffffffffffff\n      and\n      dup2\n      mstore\n      0x20\n      add\n      0x00\n      dup3\n      add\n      0x14\n      swap1\n      sload\n      swap1\n      0x0100\n      exp\n      swap1\n      div\n      0xffffffffffff\n      and\n      0xffffffffffff\n      and\n      0xffffffffffff\n      and\n      dup2\n      mstore\n      0x20\n      add\n      0x00\n      dup3\n      add\n      0x1a\n      swap1\n      sload\n      swap1\n      0x0100\n      exp\n      swap1\n      div\n      0xffffffffffff\n      and\n      0xffffffffffff\n      and\n      0xffffffffffff\n      and\n      dup2\n      mstore\n      pop\n      pop\n      swap1\n      pop\n        /* \"input/AllowanceModule.sol\":16466:16644  while(current.delegate != address(0) && i < pageSize) {... */\n      jump(tag_166)\n    tag_167:\n        /* \"input/AllowanceModule.sol\":16667:16674  current */\n      dup1\n        /* \"input/AllowanceModule.sol\":16667:16683  current.delegate */\n      0x00\n      add\n      mload\n        /* \"input/AllowanceModule.sol\":16653:16684  next = uint48(current.delegate) */\n      swap4\n      pop\n        /* \"input/AllowanceModule.sol\":16797:16798  i */\n      dup3\n        /* \"input/AllowanceModule.sol\":16788:16795  results */\n      dup6\n        /* \"input/AllowanceModule.sol\":16781:16799  mstore(results, i) */\n      mstore\n        /* \"input/AllowanceModule.sol\":16767:16809  {... */\n      pop\n      pop\n      pop\n      swap4\n      pop\n      swap4\n      swap2\n      pop\n      pop\n      jump\t// out\n        /* \"input/AllowanceModule.sol\":4407:4471  mapping(address => mapping (address => address[])) public tokens */\n    tag_84:\n      mstore(0x20, 0x01)\n      dup3\n      0x00\n      mstore\n      mstore(0x20, keccak256(0x00, 0x40))\n      dup2\n      0x00\n      mstore\n      keccak256(0x00, 0x40)\n      dup2\n      dup2\n      sload\n      dup2\n      lt\n      tag_170\n      jumpi\n      invalid\n    tag_170:\n      swap1\n      0x00\n      mstore\n      keccak256(0x00, 0x20)\n      add\n      0x00\n      swap3\n      pop\n      swap3\n      pop\n      pop\n      swap1\n      sload\n      swap1\n      0x0100\n      exp\n      swap1\n      div\n      0xffffffffffffffffffffffffffffffffffffffff\n      and\n      dup2\n      jump\t// out\n        /* \"input/AllowanceModule.sol\":4602:4632  bytes32 public domainSeparator */\n    tag_86:\n      sload(0x04)\n      dup2\n      jump\t// out\n        /* \"input/AllowanceModule.sol\":3799:3839  string public constant VERSION = \"0.1.0\" */\n    tag_88:\n      mload(0x40)\n      dup1\n      0x40\n      add\n      0x40\n      mstore\n      dup1\n      0x05\n      dup2\n      mstore\n      0x20\n      add\n      0x302e312e30000000000000000000000000000000000000000000000000000000\n      dup2\n      mstore\n      pop\n      dup2\n      jump\t// out\n        /* \"input/AllowanceModule.sol\":7131:7712  function getAllowance(address safe, address delegate, address token) private view returns (Allowance memory allowance) {... */\n    tag_97:\n        /* \"input/AllowanceModule.sol\":7222:7248  Allowance memory allowance */\n      tag_172\n      tag_95\n      jump\t// in\n    tag_172:\n        /* \"input/AllowanceModule.sol\":7272:7282  allowances */\n      0x00\n        /* \"input/AllowanceModule.sol\":7272:7288  allowances[safe] */\n      dup1\n        /* \"input/AllowanceModule.sol\":7283:7287  safe */\n      dup6\n        /* \"input/AllowanceModule.sol\":7272:7288  allowances[safe] */\n      0xffffffffffffffffffffffffffffffffffffffff\n      and\n      0xffffffffffffffffffffffffffffffffffffffff\n      and\n      dup2\n      mstore\n      0x20\n      add\n      swap1\n      dup2\n      mstore\n      0x20\n      add\n      0x00\n      keccak256\n        /* \"input/AllowanceModule.sol\":7272:7298  allowances[safe][delegate] */\n      0x00\n        /* \"input/AllowanceModule.sol\":7289:7297  delegate */\n      dup5\n        /* \"input/AllowanceModule.sol\":7272:7298  allowances[safe][delegate] */\n      0xffffffffffffffffffffffffffffffffffffffff\n      and\n      0xffffffffffffffffffffffffffffffffffffffff\n      and\n      dup2\n      mstore\n      0x20\n      add\n      swap1\n      dup2\n      mstore\n      0x20\n      add\n      0x00\n      keccak256\n        /* \"input/AllowanceModule.sol\":7272:7305  allowances[safe][delegate][token] */\n      0x00\n        /* \"input/AllowanceModule.sol\":7299:7304  token */\n      dup4\n        /* \"input/AllowanceModule.sol\":7272:7305  allowances[safe][delegate][token] */\n      0xffffffffffffffffffffffffffffffffffffffff\n      and\n      0xffffffffffffffffffffffffffffffffffffffff\n      and\n      dup2\n      mstore\n      0x20\n      add\n      swap1\n      dup2\n      mstore\n      0x20\n      add\n      0x00\n      keccak256\n        /* \"input/AllowanceModule.sol\":7260:7305  allowance = allowances[safe][delegate][token] */\n      mload(0x40)\n      dup1\n      0xa0\n      add\n      0x40\n      mstore\n      swap1\n      dup2\n      0x00\n      dup3\n      add\n      0x00\n      swap1\n      sload\n      swap1\n      0x0100\n      exp\n      swap1\n      div\n      0xffffffffffffffffffffffff\n      and\n      0xffffffffffffffffffffffff\n      and\n      0xffffffffffffffffffffffff\n      and\n      dup2\n      mstore\n      0x20\n      add\n      0x00\n      dup3\n      add\n      0x0c\n      swap1\n      sload\n      swap1\n      0x0100\n      exp\n      swap1\n      div\n      0xffffffffffffffffffffffff\n      and\n      0xffffffffffffffffffffffff\n      and\n      0xffffffffffffffffffffffff\n      and\n      dup2\n      mstore\n      0x20\n      add\n      0x00\n      dup3\n      add\n      0x18\n      swap1\n      sload\n      swap1\n      0x0100\n      exp\n      swap1\n      div\n      0xffff\n      and\n      0xffff\n      and\n      0xffff\n      and\n      dup2\n      mstore\n      0x20\n      add\n      0x00\n      dup3\n      add\n      0x1a\n      swap1\n      sload\n      swap1\n      0x0100\n      exp\n      swap1\n      div\n      0xffffffff\n      and\n      0xffffffff\n      and\n      0xffffffff\n      and\n      dup2\n      mstore\n      0x20\n      add\n      0x00\n      dup3\n      add\n      0x1e\n      swap1\n      sload\n      swap1\n      0x0100\n      exp\n      swap1\n      div\n      0xffff\n      and\n      0xffff\n      and\n      0xffff\n      and\n      dup2\n      mstore\n      pop\n      pop\n      swap1\n      pop\n        /* \"input/AllowanceModule.sol\":7377:7394  uint32 currentMin */\n      0x00\n        /* \"input/AllowanceModule.sol\":7410:7412  60 */\n      0x3c\n        /* \"input/AllowanceModule.sol\":7404:7407  now */\n      timestamp\n        /* \"input/AllowanceModule.sol\":7404:7412  now / 60 */\n      dup2\n      tag_174\n      jumpi\n      invalid\n    tag_174:\n      div\n        /* \"input/AllowanceModule.sol\":7377:7413  uint32 currentMin = uint32(now / 60) */\n      swap1\n      pop\n        /* \"input/AllowanceModule.sol\":7452:7453  0 */\n      0x00\n        /* \"input/AllowanceModule.sol\":7427:7436  allowance */\n      dup3\n        /* \"input/AllowanceModule.sol\":7427:7449  allowance.resetTimeMin */\n      0x40\n      add\n      mload\n        /* \"input/AllowanceModule.sol\":7427:7453  allowance.resetTimeMin > 0 */\n      0xffff\n      and\n      gt\n        /* \"input/AllowanceModule.sol\":7427:7518  allowance.resetTimeMin > 0 && allowance.lastResetMin <= currentMin - allowance.resetTimeMin */\n      dup1\n      iszero\n      tag_175\n      jumpi\n      pop\n        /* \"input/AllowanceModule.sol\":7496:7505  allowance */\n      dup2\n        /* \"input/AllowanceModule.sol\":7496:7518  allowance.resetTimeMin */\n      0x40\n      add\n      mload\n        /* \"input/AllowanceModule.sol\":7483:7518  currentMin - allowance.resetTimeMin */\n      0xffff\n      and\n        /* \"input/AllowanceModule.sol\":7483:7493  currentMin */\n      dup2\n        /* \"input/AllowanceModule.sol\":7483:7518  currentMin - allowance.resetTimeMin */\n      sub\n        /* \"input/AllowanceModule.sol\":7457:7518  allowance.lastResetMin <= currentMin - allowance.resetTimeMin */\n      0xffffffff\n      and\n        /* \"input/AllowanceModule.sol\":7457:7466  allowance */\n      dup3\n        /* \"input/AllowanceModule.sol\":7457:7479  allowance.lastResetMin */\n      0x60\n      add\n      mload\n        /* \"input/AllowanceModule.sol\":7457:7518  allowance.lastResetMin <= currentMin - allowance.resetTimeMin */\n      0xffffffff\n      and\n      gt\n      iszero\n        /* \"input/AllowanceModule.sol\":7427:7518  allowance.resetTimeMin > 0 && allowance.lastResetMin <= currentMin - allowance.resetTimeMin */\n    tag_175:\n        /* \"input/AllowanceModule.sol\":7423:7680  if (allowance.resetTimeMin > 0 && allowance.lastResetMin <= currentMin - allowance.resetTimeMin) {... */\n      iszero\n      tag_176\n      jumpi\n        /* \"input/AllowanceModule.sol\":7552:7553  0 */\n      0x00\n        /* \"input/AllowanceModule.sol\":7534:7543  allowance */\n      dup3\n        /* \"input/AllowanceModule.sol\":7534:7549  allowance.spent */\n      0x20\n      add\n        /* \"input/AllowanceModule.sol\":7534:7553  allowance.spent = 0 */\n      swap1\n      0xffffffffffffffffffffffff\n      and\n      swap1\n      dup2\n      0xffffffffffffffffffffffff\n      and\n      dup2\n      mstore\n      pop\n      pop\n        /* \"input/AllowanceModule.sol\":7646:7655  allowance */\n      dup2\n        /* \"input/AllowanceModule.sol\":7646:7668  allowance.resetTimeMin */\n      0x40\n      add\n      mload\n        /* \"input/AllowanceModule.sol\":7606:7668  (currentMin - allowance.lastResetMin) % allowance.resetTimeMin */\n      0xffff\n      and\n        /* \"input/AllowanceModule.sol\":7620:7629  allowance */\n      dup3\n        /* \"input/AllowanceModule.sol\":7620:7642  allowance.lastResetMin */\n      0x60\n      add\n      mload\n        /* \"input/AllowanceModule.sol\":7607:7617  currentMin */\n      dup3\n        /* \"input/AllowanceModule.sol\":7607:7642  currentMin - allowance.lastResetMin */\n      sub\n        /* \"input/AllowanceModule.sol\":7606:7668  (currentMin - allowance.lastResetMin) % allowance.resetTimeMin */\n      0xffffffff\n      and\n      dup2\n      tag_177\n      jumpi\n      invalid\n    tag_177:\n      mod\n        /* \"input/AllowanceModule.sol\":7592:7602  currentMin */\n      dup2\n        /* \"input/AllowanceModule.sol\":7592:7669  currentMin - ((currentMin - allowance.lastResetMin) % allowance.resetTimeMin) */\n      sub\n        /* \"input/AllowanceModule.sol\":7567:7576  allowance */\n      dup3\n        /* \"input/AllowanceModule.sol\":7567:7589  allowance.lastResetMin */\n      0x60\n      add\n        /* \"input/AllowanceModule.sol\":7567:7669  allowance.lastResetMin = currentMin - ((currentMin - allowance.lastResetMin) % allowance.resetTimeMin) */\n      swap1\n      0xffffffff\n      and\n      swap1\n      dup2\n      0xffffffff\n      and\n      dup2\n      mstore\n      pop\n      pop\n        /* \"input/AllowanceModule.sol\":7423:7680  if (allowance.resetTimeMin > 0 && allowance.lastResetMin <= currentMin - allowance.resetTimeMin) {... */\n    tag_176:\n        /* \"input/AllowanceModule.sol\":7696:7705  allowance */\n      dup2\n        /* \"input/AllowanceModule.sol\":7689:7705  return allowance */\n      swap2\n      pop\n      pop\n        /* \"input/AllowanceModule.sol\":7131:7712  function getAllowance(address safe, address delegate, address token) private view returns (Allowance memory allowance) {... */\n      swap4\n      swap3\n      pop\n      pop\n      pop\n      jump\t// out\n        /* \"input/AllowanceModule.sol\":10365:10860  function generateTransferHashData(... */\n    tag_99:\n        /* \"input/AllowanceModule.sol\":10591:10603  bytes memory */\n      0x60\n        /* \"input/AllowanceModule.sol\":10615:10635  bytes32 transferHash */\n      0x00\n        /* \"input/AllowanceModule.sol\":4134:4269  keccak256(... */\n      mload(0x40)\n      dup1\n      dup1\n      data_80b006280932094e7cc965863eb5118dc07e5d272c6670c4a7c87299e04fceeb\n      0x6c\n      swap2\n      codecopy\n      0x6c\n      add\n      swap1\n      pop\n      mload(0x40)\n      dup1\n      swap2\n      sub\n      swap1\n      keccak256\n        /* \"input/AllowanceModule.sol\":10701:10705  safe */\n      dup10\n        /* \"input/AllowanceModule.sol\":10707:10712  token */\n      dup10\n        /* \"input/AllowanceModule.sol\":10714:10716  to */\n      dup10\n        /* \"input/AllowanceModule.sol\":10718:10724  amount */\n      dup10\n        /* \"input/AllowanceModule.sol\":10726:10738  paymentToken */\n      dup10\n        /* \"input/AllowanceModule.sol\":10740:10747  payment */\n      dup10\n        /* \"input/AllowanceModule.sol\":10749:10754  nonce */\n      dup10\n        /* \"input/AllowanceModule.sol\":10661:10755  abi.encode(ALLOWANCE_TRANSFER_TYPEHASH, safe, token, to, amount, paymentToken, payment, nonce) */\n      add(0x20, mload(0x40))\n      dup1\n      dup10\n      dup2\n      mstore\n      0x20\n      add\n      dup9\n      0xffffffffffffffffffffffffffffffffffffffff\n      and\n      0xffffffffffffffffffffffffffffffffffffffff\n      and\n      dup2\n      mstore\n      0x20\n      add\n      dup8\n      0xffffffffffffffffffffffffffffffffffffffff\n      and\n      0xffffffffffffffffffffffffffffffffffffffff\n      and\n      dup2\n      mstore\n      0x20\n      add\n      dup7\n      0xffffffffffffffffffffffffffffffffffffffff\n      and\n      0xffffffffffffffffffffffffffffffffffffffff\n      and\n      dup2\n      mstore\n      0x20\n      add\n      dup6\n      0xffffffffffffffffffffffff\n      and\n      0xffffffffffffffffffffffff\n      and\n      dup2\n      mstore\n      0x20\n      add\n      dup5\n      0xffffffffffffffffffffffffffffffffffffffff\n      and\n      0xffffffffffffffffffffffffffffffffffffffff\n      and\n      dup2\n      mstore\n      0x20\n      add\n      dup4\n      0xffffffffffffffffffffffff\n      and\n      0xffffffffffffffffffffffff\n      and\n      dup2\n      mstore\n      0x20\n      add\n      dup3\n      0xffff\n      and\n      0xffff\n      and\n      dup2\n      mstore\n      0x20\n      add\n      swap9\n      pop\n      pop\n      pop\n      pop\n      pop\n      pop\n      pop\n      pop\n      pop\n      mload(0x40)\n        /* \"--CODEGEN--\":49:53   */\n      0x20\n        /* \"--CODEGEN--\":39:46   */\n      dup2\n        /* \"--CODEGEN--\":30:37   */\n      dup4\n        /* \"--CODEGEN--\":26:47   */\n      sub\n        /* \"--CODEGEN--\":22:54   */\n      sub\n        /* \"--CODEGEN--\":13:20   */\n      dup2\n        /* \"--CODEGEN--\":6:55   */\n      mstore\n        /* \"input/AllowanceModule.sol\":10661:10755  abi.encode(ALLOWANCE_TRANSFER_TYPEHASH, safe, token, to, amount, paymentToken, payment, nonce) */\n      swap1\n      0x40\n      mstore\n        /* \"input/AllowanceModule.sol\":10638:10765  keccak256(... */\n      dup1\n      mload\n      swap1\n      0x20\n      add\n      keccak256\n        /* \"input/AllowanceModule.sol\":10615:10765  bytes32 transferHash = keccak256(... */\n      swap1\n      pop\n        /* \"input/AllowanceModule.sol\":10804:10808  0x19 */\n      0x19\n        /* \"input/AllowanceModule.sol\":10799:10809  byte(0x19) */\n      0xf8\n      shl\n        /* \"input/AllowanceModule.sol\":10816:10820  0x01 */\n      0x01\n        /* \"input/AllowanceModule.sol\":10811:10821  byte(0x01) */\n      0xf8\n      shl\n        /* \"input/AllowanceModule.sol\":10823:10838  domainSeparator */\n      sload(0x04)\n        /* \"input/AllowanceModule.sol\":10840:10852  transferHash */\n      dup4\n        /* \"input/AllowanceModule.sol\":10782:10853  abi.encodePacked(byte(0x19), byte(0x01), domainSeparator, transferHash) */\n      add(0x20, mload(0x40))\n      dup1\n      dup6\n      not(0xffffffffffffffffffffffffffffffffffffffffffffffffffffffffffffff)\n      and\n      not(0xffffffffffffffffffffffffffffffffffffffffffffffffffffffffffffff)\n      and\n      dup2\n      mstore\n      0x01\n      add\n      dup5\n      not(0xffffffffffffffffffffffffffffffffffffffffffffffffffffffffffffff)\n      and\n      not(0xffffffffffffffffffffffffffffffffffffffffffffffffffffffffffffff)\n      and\n      dup2\n      mstore\n      0x01\n      add\n      dup4\n      dup2\n      mstore\n      0x20\n      add\n      dup3\n      dup2\n      mstore\n      0x20\n      add\n      swap5\n      pop\n      pop\n      pop\n      pop\n      pop\n      mload(0x40)\n        /* \"--CODEGEN--\":49:53   */\n      0x20\n        /* \"--CODEGEN--\":39:46   */\n      dup2\n        /* \"--CODEGEN--\":30:37   */\n      dup4\n        /* \"--CODEGEN--\":26:47   */\n      sub\n        /* \"--CODEGEN--\":22:54   */\n      sub\n        /* \"--CODEGEN--\":13:20   */\n      dup2\n        /* \"--CODEGEN--\":6:55   */\n      mstore\n        /* \"input/AllowanceModule.sol\":10782:10853  abi.encodePacked(byte(0x19), byte(0x01), domainSeparator, transferHash) */\n      swap1\n      0x40\n      mstore\n        /* \"input/AllowanceModule.sol\":10775:10853  return abi.encodePacked(byte(0x19), byte(0x01), domainSeparator, transferHash) */\n      swap2\n      pop\n      pop\n        /* \"input/AllowanceModule.sol\":10365:10860  function generateTransferHashData(... */\n      swap8\n      swap7\n      pop\n      pop\n      pop\n      pop\n      pop\n      pop\n      pop\n      jump\t// out\n        /* \"input/AllowanceModule.sol\":7718:7888  function updateAllowance(address safe, address delegate, address token, Allowance memory allowance) private {... */\n    tag_111:\n        /* \"input/AllowanceModule.sol\":7872:7881  allowance */\n      dup1\n        /* \"input/AllowanceModule.sol\":7836:7846  allowances */\n      0x00\n        /* \"input/AllowanceModule.sol\":7836:7852  allowances[safe] */\n      dup1\n        /* \"input/AllowanceModule.sol\":7847:7851  safe */\n      dup7\n        /* \"input/AllowanceModule.sol\":7836:7852  allowances[safe] */\n      0xffffffffffffffffffffffffffffffffffffffff\n      and\n      0xffffffffffffffffffffffffffffffffffffffff\n      and\n      dup2\n      mstore\n      0x20\n      add\n      swap1\n      dup2\n      mstore\n      0x20\n      add\n      0x00\n      keccak256\n        /* \"input/AllowanceModule.sol\":7836:7862  allowances[safe][delegate] */\n      0x00\n        /* \"input/AllowanceModule.sol\":7853:7861  delegate */\n      dup6\n        /* \"input/AllowanceModule.sol\":7836:7862  allowances[safe][delegate] */\n      0xffffffffffffffffffffffffffffffffffffffff\n      and\n      0xffffffffffffffffffffffffffffffffffffffff\n      and\n      dup2\n      mstore\n      0x20\n      add\n      swap1\n      dup2\n      mstore\n      0x20\n      add\n      0x00\n      keccak256\n        /* \"input/AllowanceModule.sol\":7836:7869  allowances[safe][delegate][token] */\n      0x00\n        /* \"input/AllowanceModule.sol\":7863:7868  token */\n      dup5\n        /* \"input/AllowanceModule.sol\":7836:7869  allowances[safe][delegate][token] */\n      0xffffffffffffffffffffffffffffffffffffffff\n      and\n      0xffffffffffffffffffffffffffffffffffffffff\n      and\n      dup2\n      mstore\n      0x20\n      add\n      swap1\n      dup2\n      mstore\n      0x20\n      add\n      0x00\n      keccak256\n        /* \"input/AllowanceModule.sol\":7836:7881  allowances[safe][delegate][token] = allowance */\n      0x00\n      dup3\n      add\n      mload\n      dup2\n      0x00\n      add\n      exp(0x0100, 0x00)\n      dup2\n      sload\n      dup2\n      0xffffffffffffffffffffffff\n      mul\n      not\n      and\n      swap1\n      dup4\n      0xffffffffffffffffffffffff\n      and\n      mul\n      or\n      swap1\n      sstore\n      pop\n      0x20\n      dup3\n      add\n      mload\n      dup2\n      0x00\n      add\n      exp(0x0100, 0x0c)\n      dup2\n      sload\n      dup2\n      0xffffffffffffffffffffffff\n      mul\n      not\n      and\n      swap1\n      dup4\n      0xffffffffffffffffffffffff\n      and\n      mul\n      or\n      swap1\n      sstore\n      pop\n      0x40\n      dup3\n      add\n      mload\n      dup2\n      0x00\n      add\n      exp(0x0100, 0x18)\n      dup2\n      sload\n      dup2\n      0xffff\n      mul\n      not\n      and\n      swap1\n      dup4\n      0xffff\n      and\n      mul\n      or\n      swap1\n      sstore\n      pop\n      0x60\n      dup3\n      add\n      mload\n      dup2\n      0x00\n      add\n      exp(0x0100, 0x1a)\n      dup2\n      sload\n      dup2\n      0xffffffff\n      mul\n      not\n      and\n      swap1\n      dup4\n      0xffffffff\n      and\n      mul\n      or\n      swap1\n      sstore\n      pop\n      0x80\n      dup3\n      add\n      mload\n      dup2\n      0x00\n      add\n      exp(0x0100, 0x1e)\n      dup2\n      sload\n      dup2\n      0xffff\n      mul\n      not\n      and\n      swap1\n      dup4\n      0xffff\n      and\n      mul\n      or\n      swap1\n      sstore\n      pop\n      swap1\n      pop\n      pop\n        /* \"input/AllowanceModule.sol\":7718:7888  function updateAllowance(address safe, address delegate, address token, Allowance memory allowance) private {... */\n      pop\n      pop\n      pop\n      pop\n      jump\t// out\n        /* \"input/AllowanceModule.sol\":11238:11682  function checkSignature(address expectedDelegate, bytes memory signature, bytes memory transferHashData, GnosisSafe safe) private {... */\n    tag_114:\n        /* \"input/AllowanceModule.sol\":11378:11392  address signer */\n      0x00\n        /* \"input/AllowanceModule.sol\":11395:11440  recoverSignature(signature, transferHashData) */\n      tag_181\n        /* \"input/AllowanceModule.sol\":11412:11421  signature */\n      dup5\n        /* \"input/AllowanceModule.sol\":11423:11439  transferHashData */\n      dup5\n        /* \"input/AllowanceModule.sol\":11395:11411  recoverSignature */\n      tag_182\n        /* \"input/AllowanceModule.sol\":11395:11440  recoverSignature(signature, transferHashData) */\n      jump\t// in\n    tag_181:\n        /* \"input/AllowanceModule.sol\":11378:11440  address signer = recoverSignature(signature, transferHashData) */\n      swap1\n      pop\n        /* \"input/AllowanceModule.sol\":11491:11497  signer */\n      dup1\n        /* \"input/AllowanceModule.sol\":11471:11497  expectedDelegate == signer */\n      0xffffffffffffffffffffffffffffffffffffffff\n      and\n        /* \"input/AllowanceModule.sol\":11471:11487  expectedDelegate */\n      dup6\n        /* \"input/AllowanceModule.sol\":11471:11497  expectedDelegate == signer */\n      0xffffffffffffffffffffffffffffffffffffffff\n      and\n      eq\n        /* \"input/AllowanceModule.sol\":11471:11560  expectedDelegate == signer && delegates[address(safe)][uint48(signer)].delegate == signer */\n      dup1\n      iszero\n      tag_183\n      jumpi\n      pop\n        /* \"input/AllowanceModule.sol\":11554:11560  signer */\n      dup1\n        /* \"input/AllowanceModule.sol\":11501:11560  delegates[address(safe)][uint48(signer)].delegate == signer */\n      0xffffffffffffffffffffffffffffffffffffffff\n      and\n        /* \"input/AllowanceModule.sol\":11501:11510  delegates */\n      0x02\n        /* \"input/AllowanceModule.sol\":11501:11525  delegates[address(safe)] */\n      0x00\n        /* \"input/AllowanceModule.sol\":11519:11523  safe */\n      dup5\n        /* \"input/AllowanceModule.sol\":11501:11525  delegates[address(safe)] */\n      0xffffffffffffffffffffffffffffffffffffffff\n      and\n      0xffffffffffffffffffffffffffffffffffffffff\n      and\n      dup2\n      mstore\n      0x20\n      add\n      swap1\n      dup2\n      mstore\n      0x20\n      add\n      0x00\n      keccak256\n        /* \"input/AllowanceModule.sol\":11501:11541  delegates[address(safe)][uint48(signer)] */\n      0x00\n        /* \"input/AllowanceModule.sol\":11533:11539  signer */\n      dup4\n        /* \"input/AllowanceModule.sol\":11501:11541  delegates[address(safe)][uint48(signer)] */\n      0xffffffffffff\n      and\n      0xffffffffffff\n      and\n      dup2\n      mstore\n      0x20\n      add\n      swap1\n      dup2\n      mstore\n      0x20\n      add\n      0x00\n      keccak256\n        /* \"input/AllowanceModule.sol\":11501:11550  delegates[address(safe)][uint48(signer)].delegate */\n      0x00\n      add\n      0x00\n      swap1\n      sload\n      swap1\n      0x0100\n      exp\n      swap1\n      div\n      0xffffffffffffffffffffffffffffffffffffffff\n      and\n        /* \"input/AllowanceModule.sol\":11501:11560  delegates[address(safe)][uint48(signer)].delegate == signer */\n      0xffffffffffffffffffffffffffffffffffffffff\n      and\n      eq\n        /* \"input/AllowanceModule.sol\":11471:11560  expectedDelegate == signer && delegates[address(safe)][uint48(signer)].delegate == signer */\n    tag_183:\n        /* \"input/AllowanceModule.sol\":11450:11675  require(... */\n      tag_184\n      jumpi\n      mload(0x40)\n      0x08c379a000000000000000000000000000000000000000000000000000000000\n      dup2\n      mstore\n      0x04\n      add\n      dup1\n      dup1\n      0x20\n      add\n      dup3\n      dup2\n      sub\n      dup3\n      mstore\n      0x59\n      dup2\n      mstore\n      0x20\n      add\n      dup1\n      data_967a409fd152609403ac7b3349d7ced54d05d2ee8664844edf017668d343240b\n      0x59\n      swap2\n      codecopy\n      0x60\n      add\n      swap2\n      pop\n      pop\n      mload(0x40)\n      dup1\n      swap2\n      sub\n      swap1\n      revert\n    tag_184:\n        /* \"input/AllowanceModule.sol\":11238:11682  function checkSignature(address expectedDelegate, bytes memory signature, bytes memory transferHashData, GnosisSafe safe) private {... */\n      pop\n      pop\n      pop\n      pop\n      pop\n      jump\t// out\n        /* \"input/AllowanceModule.sol\":13434:14003  function transfer(GnosisSafe safe, address token, address payable to, uint96 amount) private {... */\n    tag_117:\n        /* \"input/AllowanceModule.sol\":13558:13559  0 */\n      0x00\n        /* \"input/AllowanceModule.sol\":13541:13560  token == address(0) */\n      0xffffffffffffffffffffffffffffffffffffffff\n      and\n        /* \"input/AllowanceModule.sol\":13541:13546  token */\n      dup4\n        /* \"input/AllowanceModule.sol\":13541:13560  token == address(0) */\n      0xffffffffffffffffffffffffffffffffffffffff\n      and\n      eq\n        /* \"input/AllowanceModule.sol\":13537:13997  if (token == address(0)) {... */\n      iszero\n      tag_186\n      jumpi\n        /* \"input/AllowanceModule.sol\":13641:13645  safe */\n      dup4\n        /* \"input/AllowanceModule.sol\":13641:13671  safe.execTransactionFromModule */\n      0xffffffffffffffffffffffffffffffffffffffff\n      and\n      0x468721a7\n        /* \"input/AllowanceModule.sol\":13672:13674  to */\n      dup4\n        /* \"input/AllowanceModule.sol\":13676:13682  amount */\n      dup4\n        /* \"input/AllowanceModule.sol\":13688:13707  Enum.Operation.Call */\n      0x00\n        /* \"input/AllowanceModule.sol\":13641:13708  safe.execTransactionFromModule(to, amount, \"\", Enum.Operation.Call) */\n      mload(0x40)\n      dup5\n      0xffffffff\n      and\n      0xe0\n      shl\n      dup2\n      mstore\n      0x04\n      add\n      dup1\n      dup5\n      0xffffffffffffffffffffffffffffffffffffffff\n      and\n      0xffffffffffffffffffffffffffffffffffffffff\n      and\n      dup2\n      mstore\n      0x20\n      add\n      dup4\n      0xffffffffffffffffffffffff\n      and\n      dup2\n      mstore\n      0x20\n      add\n      dup1\n      0x20\n      add\n      dup4\n      0x01\n      dup2\n      gt\n      iszero\n      tag_187\n      jumpi\n      invalid\n    tag_187:\n      0xff\n      and\n      dup2\n      mstore\n      0x20\n      add\n      dup3\n      dup2\n      sub\n      dup3\n      mstore\n      0x00\n      dup2\n      mstore\n      0x20\n      add\n      0x20\n      add\n      swap5\n      pop\n      pop\n      pop\n      pop\n      pop\n      0x20\n      mload(0x40)\n      dup1\n      dup4\n      sub\n      dup2\n      0x00\n      dup8\n      dup1\n      extcodesize\n      iszero\n        /* \"--CODEGEN--\":8:17   */\n      dup1\n        /* \"--CODEGEN--\":5:7   */\n      iszero\n      tag_188\n      jumpi\n        /* \"--CODEGEN--\":30:31   */\n      0x00\n        /* \"--CODEGEN--\":27:28   */\n      dup1\n        /* \"--CODEGEN--\":20:32   */\n      revert\n        /* \"--CODEGEN--\":5:7   */\n    tag_188:\n        /* \"input/AllowanceModule.sol\":13641:13708  safe.execTransactionFromModule(to, amount, \"\", Enum.Operation.Call) */\n      pop\n      gas\n      call\n      iszero\n        /* \"--CODEGEN--\":8:17   */\n      dup1\n        /* \"--CODEGEN--\":5:7   */\n      iszero\n      tag_189\n      jumpi\n        /* \"--CODEGEN--\":45:61   */\n      returndatasize\n        /* \"--CODEGEN--\":42:43   */\n      0x00\n        /* \"--CODEGEN--\":39:40   */\n      dup1\n        /* \"--CODEGEN--\":24:62   */\n      returndatacopy\n        /* \"--CODEGEN--\":77:93   */\n      returndatasize\n        /* \"--CODEGEN--\":74:75   */\n      0x00\n        /* \"--CODEGEN--\":67:94   */\n      revert\n        /* \"--CODEGEN--\":5:7   */\n    tag_189:\n        /* \"input/AllowanceModule.sol\":13641:13708  safe.execTransactionFromModule(to, amount, \"\", Enum.Operation.Call) */\n      pop\n      pop\n      pop\n      pop\n      mload(0x40)\n      returndatasize\n        /* \"--CODEGEN--\":13:15   */\n      0x20\n        /* \"--CODEGEN--\":8:11   */\n      dup2\n        /* \"--CODEGEN--\":5:16   */\n      lt\n        /* \"--CODEGEN--\":2:4   */\n      iszero\n      tag_190\n      jumpi\n        /* \"--CODEGEN--\":29:30   */\n      0x00\n        /* \"--CODEGEN--\":26:27   */\n      dup1\n        /* \"--CODEGEN--\":19:31   */\n      revert\n        /* \"--CODEGEN--\":2:4   */\n    tag_190:\n        /* \"input/AllowanceModule.sol\":13641:13708  safe.execTransactionFromModule(to, amount, \"\", Enum.Operation.Call) */\n      dup2\n      add\n      swap1\n      dup1\n      dup1\n      mload\n      swap1\n      0x20\n      add\n      swap1\n      swap3\n      swap2\n      swap1\n      pop\n      pop\n      pop\n        /* \"input/AllowanceModule.sol\":13633:13745  require(safe.execTransactionFromModule(to, amount, \"\", Enum.Operation.Call), \"Could not execute ether transfer\") */\n      tag_191\n      jumpi\n      mload(0x40)\n      0x08c379a000000000000000000000000000000000000000000000000000000000\n      dup2\n      mstore\n      0x04\n      add\n      dup1\n      dup1\n      0x20\n      add\n      dup3\n      dup2\n      sub\n      dup3\n      mstore\n      0x20\n      dup2\n      mstore\n      0x20\n      add\n      dup1\n      0x436f756c64206e6f742065786563757465206574686572207472616e73666572\n      dup2\n      mstore\n      pop\n      0x20\n      add\n      swap2\n      pop\n      pop\n      mload(0x40)\n      dup1\n      swap2\n      sub\n      swap1\n      revert\n    tag_191:\n        /* \"input/AllowanceModule.sol\":13537:13997  if (token == address(0)) {... */\n      jump(tag_192)\n    tag_186:\n        /* \"input/AllowanceModule.sol\":13776:13793  bytes memory data */\n      0x60\n        /* \"input/AllowanceModule.sol\":13849:13851  to */\n      dup3\n        /* \"input/AllowanceModule.sol\":13853:13859  amount */\n      dup3\n        /* \"input/AllowanceModule.sol\":13796:13860  abi.encodeWithSignature(\"transfer(address,uint256)\", to, amount) */\n      add(0x24, mload(0x40))\n      dup1\n      dup4\n      0xffffffffffffffffffffffffffffffffffffffff\n      and\n      0xffffffffffffffffffffffffffffffffffffffff\n      and\n      dup2\n      mstore\n      0x20\n      add\n      dup3\n      0xffffffffffffffffffffffff\n      and\n      0xffffffffffffffffffffffff\n      and\n      dup2\n      mstore\n      0x20\n      add\n      swap3\n      pop\n      pop\n      pop\n      mload(0x40)\n        /* \"--CODEGEN--\":49:53   */\n      0x20\n        /* \"--CODEGEN--\":39:46   */\n      dup2\n        /* \"--CODEGEN--\":30:37   */\n      dup4\n        /* \"--CODEGEN--\":26:47   */\n      sub\n        /* \"--CODEGEN--\":22:54   */\n      sub\n        /* \"--CODEGEN--\":13:20   */\n      dup2\n        /* \"--CODEGEN--\":6:55   */\n      mstore\n        /* \"input/AllowanceModule.sol\":13796:13860  abi.encodeWithSignature(\"transfer(address,uint256)\", to, amount) */\n      swap1\n      0x40\n      mstore\n      and(not(0xffffffffffffffffffffffffffffffffffffffffffffffffffffffff), 0xa9059cbb00000000000000000000000000000000000000000000000000000000)\n        /* \"--CODEGEN--\":38:42   */\n      0x20\n        /* \"--CODEGEN--\":29:36   */\n      dup3\n        /* \"--CODEGEN--\":25:43   */\n      add\n        /* \"--CODEGEN--\":67:77   */\n      dup1\n        /* \"--CODEGEN--\":61:78   */\n      mload\n        /* \"--CODEGEN--\":96:154   */\n      0xffffffffffffffffffffffffffffffffffffffffffffffffffffffff\n        /* \"--CODEGEN--\":199:207   */\n      dup4\n        /* \"--CODEGEN--\":192:196   */\n      dup2\n        /* \"--CODEGEN--\":186:190   */\n      dup4\n        /* \"--CODEGEN--\":182:197   */\n      and\n        /* \"--CODEGEN--\":179:208   */\n      or\n        /* \"--CODEGEN--\":167:177   */\n      dup4\n        /* \"--CODEGEN--\":160:209   */\n      mstore\n        /* \"--CODEGEN--\":0:215   */\n      pop\n      pop\n      pop\n        /* \"input/AllowanceModule.sol\":13796:13860  abi.encodeWithSignature(\"transfer(address,uint256)\", to, amount) */\n      pop\n        /* \"input/AllowanceModule.sol\":13776:13860  bytes memory data = abi.encodeWithSignature(\"transfer(address,uint256)\", to, amount) */\n      swap1\n      pop\n        /* \"input/AllowanceModule.sol\":13882:13886  safe */\n      dup5\n        /* \"input/AllowanceModule.sol\":13882:13912  safe.execTransactionFromModule */\n      0xffffffffffffffffffffffffffffffffffffffff\n      and\n      0x468721a7\n        /* \"input/AllowanceModule.sol\":13913:13918  token */\n      dup6\n        /* \"input/AllowanceModule.sol\":13920:13921  0 */\n      0x00\n        /* \"input/AllowanceModule.sol\":13923:13927  data */\n      dup5\n        /* \"input/AllowanceModule.sol\":13929:13948  Enum.Operation.Call */\n      0x00\n        /* \"input/AllowanceModule.sol\":13882:13949  safe.execTransactionFromModule(token, 0, data, Enum.Operation.Call) */\n      mload(0x40)\n      dup6\n      0xffffffff\n      and\n      0xe0\n      shl\n      dup2\n      mstore\n      0x04\n      add\n      dup1\n      dup6\n      0xffffffffffffffffffffffffffffffffffffffff\n      and\n      0xffffffffffffffffffffffffffffffffffffffff\n      and\n      dup2\n      mstore\n      0x20\n      add\n      dup5\n      dup2\n      mstore\n      0x20\n      add\n      dup1\n      0x20\n      add\n      dup4\n      0x01\n      dup2\n      gt\n      iszero\n      tag_193\n      jumpi\n      invalid\n    tag_193:\n      0xff\n      and\n      dup2\n      mstore\n      0x20\n      add\n      dup3\n      dup2\n      sub\n      dup3\n      mstore\n      dup5\n      dup2\n      dup2\n      mload\n      dup2\n      mstore\n      0x20\n      add\n      swap2\n      pop\n      dup1\n      mload\n      swap1\n      0x20\n      add\n      swap1\n      dup1\n      dup4\n      dup4\n        /* \"--CODEGEN--\":23:24   */\n      0x00\n        /* \"--CODEGEN--\":8:108   */\n    tag_194:\n        /* \"--CODEGEN--\":33:36   */\n      dup4\n        /* \"--CODEGEN--\":30:31   */\n      dup2\n        /* \"--CODEGEN--\":27:37   */\n      lt\n        /* \"--CODEGEN--\":8:108   */\n      iszero\n      tag_196\n      jumpi\n        /* \"--CODEGEN--\":99:100   */\n      dup1\n        /* \"--CODEGEN--\":94:97   */\n      dup3\n        /* \"--CODEGEN--\":90:101   */\n      add\n        /* \"--CODEGEN--\":84:102   */\n      mload\n        /* \"--CODEGEN--\":80:81   */\n      dup2\n        /* \"--CODEGEN--\":75:78   */\n      dup5\n        /* \"--CODEGEN--\":71:82   */\n      add\n        /* \"--CODEGEN--\":64:103   */\n      mstore\n        /* \"--CODEGEN--\":52:54   */\n      0x20\n        /* \"--CODEGEN--\":49:50   */\n      dup2\n        /* \"--CODEGEN--\":45:55   */\n      add\n        /* \"--CODEGEN--\":40:55   */\n      swap1\n      pop\n        /* \"--CODEGEN--\":8:108   */\n      jump(tag_194)\n    tag_196:\n        /* \"--CODEGEN--\":12:26   */\n      pop\n        /* \"input/AllowanceModule.sol\":13882:13949  safe.execTransactionFromModule(token, 0, data, Enum.Operation.Call) */\n      pop\n      pop\n      pop\n      swap1\n      pop\n      swap1\n      dup2\n      add\n      swap1\n      0x1f\n      and\n      dup1\n      iszero\n      tag_197\n      jumpi\n      dup1\n      dup3\n      sub\n      dup1\n      mload\n      0x01\n      dup4\n      0x20\n      sub\n      0x0100\n      exp\n      sub\n      not\n      and\n      dup2\n      mstore\n      0x20\n      add\n      swap2\n      pop\n    tag_197:\n      pop\n      swap6\n      pop\n      pop\n      pop\n      pop\n      pop\n      pop\n      0x20\n      mload(0x40)\n      dup1\n      dup4\n      sub\n      dup2\n      0x00\n      dup8\n      dup1\n      extcodesize\n      iszero\n        /* \"--CODEGEN--\":8:17   */\n      dup1\n        /* \"--CODEGEN--\":5:7   */\n      iszero\n      tag_198\n      jumpi\n        /* \"--CODEGEN--\":30:31   */\n      0x00\n        /* \"--CODEGEN--\":27:28   */\n      dup1\n        /* \"--CODEGEN--\":20:32   */\n      revert\n        /* \"--CODEGEN--\":5:7   */\n    tag_198:\n        /* \"input/AllowanceModule.sol\":13882:13949  safe.execTransactionFromModule(token, 0, data, Enum.Operation.Call) */\n      pop\n      gas\n      call\n      iszero\n        /* \"--CODEGEN--\":8:17   */\n      dup1\n        /* \"--CODEGEN--\":5:7   */\n      iszero\n      tag_199\n      jumpi\n        /* \"--CODEGEN--\":45:61   */\n      returndatasize\n        /* \"--CODEGEN--\":42:43   */\n      0x00\n        /* \"--CODEGEN--\":39:40   */\n      dup1\n        /* \"--CODEGEN--\":24:62   */\n      returndatacopy\n        /* \"--CODEGEN--\":77:93   */\n      returndatasize\n        /* \"--CODEGEN--\":74:75   */\n      0x00\n        /* \"--CODEGEN--\":67:94   */\n      revert\n        /* \"--CODEGEN--\":5:7   */\n    tag_199:\n        /* \"input/AllowanceModule.sol\":13882:13949  safe.execTransactionFromModule(token, 0, data, Enum.Operation.Call) */\n      pop\n      pop\n      pop\n      pop\n      mload(0x40)\n      returndatasize\n        /* \"--CODEGEN--\":13:15   */\n      0x20\n        /* \"--CODEGEN--\":8:11   */\n      dup2\n        /* \"--CODEGEN--\":5:16   */\n      lt\n        /* \"--CODEGEN--\":2:4   */\n      iszero\n      tag_200\n      jumpi\n        /* \"--CODEGEN--\":29:30   */\n      0x00\n        /* \"--CODEGEN--\":26:27   */\n      dup1\n        /* \"--CODEGEN--\":19:31   */\n      revert\n        /* \"--CODEGEN--\":2:4   */\n    tag_200:\n        /* \"input/AllowanceModule.sol\":13882:13949  safe.execTransactionFromModule(token, 0, data, Enum.Operation.Call) */\n      dup2\n      add\n      swap1\n      dup1\n      dup1\n      mload\n      swap1\n      0x20\n      add\n      swap1\n      swap3\n      swap2\n      swap1\n      pop\n      pop\n      pop\n        /* \"input/AllowanceModule.sol\":13874:13986  require(safe.execTransactionFromModule(token, 0, data, Enum.Operation.Call), \"Could not execute token transfer\") */\n      tag_201\n      jumpi\n      mload(0x40)\n      0x08c379a000000000000000000000000000000000000000000000000000000000\n      dup2\n      mstore\n      0x04\n      add\n      dup1\n      dup1\n      0x20\n      add\n      dup3\n      dup2\n      sub\n      dup3\n      mstore\n      0x20\n      dup2\n      mstore\n      0x20\n      add\n      dup1\n      0x436f756c64206e6f74206578656375746520746f6b656e207472616e73666572\n      dup2\n      mstore\n      pop\n      0x20\n      add\n      swap2\n      pop\n      pop\n      mload(0x40)\n      dup1\n      swap2\n      sub\n      swap1\n      revert\n    tag_201:\n        /* \"input/AllowanceModule.sol\":13537:13997  if (token == address(0)) {... */\n      pop\n    tag_192:\n        /* \"input/AllowanceModule.sol\":13434:14003  function transfer(GnosisSafe safe, address token, address payable to, uint96 amount) private {... */\n      pop\n      pop\n      pop\n      pop\n      jump\t// out\n        /* \"input/AllowanceModule.sol\":11688:13428  function recoverSignature(bytes memory signature, bytes memory transferHashData) private view returns (address owner) {... */\n    tag_182:\n        /* \"input/AllowanceModule.sol\":11791:11804  address owner */\n      0x00\n        /* \"input/AllowanceModule.sol\":11907:11908  0 */\n      dup1\n        /* \"input/AllowanceModule.sol\":11887:11896  signature */\n      dup4\n        /* \"input/AllowanceModule.sol\":11887:11903  signature.length */\n      mload\n        /* \"input/AllowanceModule.sol\":11887:11908  signature.length == 0 */\n      eq\n        /* \"input/AllowanceModule.sol\":11883:11927  if (signature.length == 0) return msg.sender */\n      iszero\n      tag_203\n      jumpi\n        /* \"input/AllowanceModule.sol\":11917:11927  msg.sender */\n      caller\n        /* \"input/AllowanceModule.sol\":11910:11927  return msg.sender */\n      swap1\n      pop\n      jump(tag_202)\n        /* \"input/AllowanceModule.sol\":11883:11927  if (signature.length == 0) return msg.sender */\n    tag_203:\n        /* \"input/AllowanceModule.sol\":12032:12034  65 */\n      0x41\n        /* \"input/AllowanceModule.sol\":12012:12021  signature */\n      dup4\n        /* \"input/AllowanceModule.sol\":12012:12028  signature.length */\n      mload\n        /* \"input/AllowanceModule.sol\":12012:12034  signature.length >= 65 */\n      lt\n      iszero\n        /* \"input/AllowanceModule.sol\":12004:12062  require(signature.length >= 65, \"signatures.length >= 65\") */\n      tag_204\n      jumpi\n      mload(0x40)\n      0x08c379a000000000000000000000000000000000000000000000000000000000\n      dup2\n      mstore\n      0x04\n      add\n      dup1\n      dup1\n      0x20\n      add\n      dup3\n      dup2\n      sub\n      dup3\n      mstore\n      0x17\n      dup2\n      mstore\n      0x20\n      add\n      dup1\n      0x7369676e6174757265732e6c656e677468203e3d203635000000000000000000\n      dup2\n      mstore\n      pop\n      0x20\n      add\n      swap2\n      pop\n      pop\n      mload(0x40)\n      dup1\n      swap2\n      sub\n      swap1\n      revert\n    tag_204:\n        /* \"input/AllowanceModule.sol\":12072:12079  uint8 v */\n      0x00\n        /* \"input/AllowanceModule.sol\":12089:12098  bytes32 r */\n      dup1\n        /* \"input/AllowanceModule.sol\":12108:12117  bytes32 s */\n      0x00\n        /* \"input/AllowanceModule.sol\":12139:12167  signatureSplit(signature, 0) */\n      tag_205\n        /* \"input/AllowanceModule.sol\":12154:12163  signature */\n      dup7\n        /* \"input/AllowanceModule.sol\":12165:12166  0 */\n      0x00\n        /* \"input/AllowanceModule.sol\":12139:12153  signatureSplit */\n      tag_206\n        /* \"input/AllowanceModule.sol\":12139:12167  signatureSplit(signature, 0) */\n      jump\t// in\n    tag_205:\n        /* \"input/AllowanceModule.sol\":12127:12167  (v, r, s) = signatureSplit(signature, 0) */\n      dup1\n      swap4\n      pop\n      dup2\n      swap5\n      pop\n      dup3\n      swap6\n      pop\n      pop\n      pop\n      pop\n        /* \"input/AllowanceModule.sol\":12239:12240  0 */\n      0x00\n        /* \"input/AllowanceModule.sol\":12234:12235  v */\n      dup4\n        /* \"input/AllowanceModule.sol\":12234:12240  v == 0 */\n      0xff\n      and\n      eq\n        /* \"input/AllowanceModule.sol\":12230:13422  if (v == 0) {... */\n      iszero\n      tag_207\n      jumpi\n        /* \"input/AllowanceModule.sol\":12375:12376  r */\n      dup2\n        /* \"input/AllowanceModule.sol\":12367:12377  uint256(r) */\n      0x00\n      shr\n        /* \"input/AllowanceModule.sol\":12351:12378  owner = address(uint256(r)) */\n      swap4\n      pop\n        /* \"input/AllowanceModule.sol\":12392:12422  bytes memory contractSignature */\n      0x60\n        /* \"input/AllowanceModule.sol\":12710:12714  0x20 */\n      0x20\n        /* \"input/AllowanceModule.sol\":12706:12707  s */\n      dup3\n        /* \"input/AllowanceModule.sol\":12695:12704  signature */\n      dup9\n        /* \"input/AllowanceModule.sol\":12691:12708  add(signature, s) */\n      add\n        /* \"input/AllowanceModule.sol\":12687:12715  add(add(signature, s), 0x20) */\n      add\n        /* \"input/AllowanceModule.sol\":12666:12715  contractSignature := add(add(signature, s), 0x20) */\n      swap1\n      pop\n        /* \"input/AllowanceModule.sol\":2465:2475  0x20c13b0b */\n      0x20c13b0b\n        /* \"input/AllowanceModule.sol\":12851:12870  EIP1271_MAGIC_VALUE */\n      0xe0\n      shl\n        /* \"input/AllowanceModule.sol\":12767:12870  ISignatureValidator(owner).isValidSignature(transferHashData, contractSignature) == EIP1271_MAGIC_VALUE */\n      not(0xffffffffffffffffffffffffffffffffffffffffffffffffffffffff)\n      and\n        /* \"input/AllowanceModule.sol\":12787:12792  owner */\n      dup6\n        /* \"input/AllowanceModule.sol\":12767:12810  ISignatureValidator(owner).isValidSignature */\n      0xffffffffffffffffffffffffffffffffffffffff\n      and\n      0x20c13b0b\n        /* \"input/AllowanceModule.sol\":12811:12827  transferHashData */\n      dup9\n        /* \"input/AllowanceModule.sol\":12829:12846  contractSignature */\n      dup5\n        /* \"input/AllowanceModule.sol\":12767:12847  ISignatureValidator(owner).isValidSignature(transferHashData, contractSignature) */\n      mload(0x40)\n      dup4\n      0xffffffff\n      and\n      0xe0\n      shl\n      dup2\n      mstore\n      0x04\n      add\n      dup1\n      dup1\n      0x20\n      add\n      dup1\n      0x20\n      add\n      dup4\n      dup2\n      sub\n      dup4\n      mstore\n      dup6\n      dup2\n      dup2\n      mload\n      dup2\n      mstore\n      0x20\n      add\n      swap2\n      pop\n      dup1\n      mload\n      swap1\n      0x20\n      add\n      swap1\n      dup1\n      dup4\n      dup4\n        /* \"--CODEGEN--\":23:24   */\n      0x00\n        /* \"--CODEGEN--\":8:108   */\n    tag_208:\n        /* \"--CODEGEN--\":33:36   */\n      dup4\n        /* \"--CODEGEN--\":30:31   */\n      dup2\n        /* \"--CODEGEN--\":27:37   */\n      lt\n        /* \"--CODEGEN--\":8:108   */\n      iszero\n      tag_210\n      jumpi\n        /* \"--CODEGEN--\":99:100   */\n      dup1\n        /* \"--CODEGEN--\":94:97   */\n      dup3\n        /* \"--CODEGEN--\":90:101   */\n      add\n        /* \"--CODEGEN--\":84:102   */\n      mload\n        /* \"--CODEGEN--\":80:81   */\n      dup2\n        /* \"--CODEGEN--\":75:78   */\n      dup5\n        /* \"--CODEGEN--\":71:82   */\n      add\n        /* \"--CODEGEN--\":64:103   */\n      mstore\n        /* \"--CODEGEN--\":52:54   */\n      0x20\n        /* \"--CODEGEN--\":49:50   */\n      dup2\n        /* \"--CODEGEN--\":45:55   */\n      add\n        /* \"--CODEGEN--\":40:55   */\n      swap1\n      pop\n        /* \"--CODEGEN--\":8:108   */\n      jump(tag_208)\n    tag_210:\n        /* \"--CODEGEN--\":12:26   */\n      pop\n        /* \"input/AllowanceModule.sol\":12767:12847  ISignatureValidator(owner).isValidSignature(transferHashData, contractSignature) */\n      pop\n      pop\n      pop\n      swap1\n      pop\n      swap1\n      dup2\n      add\n      swap1\n      0x1f\n      and\n      dup1\n      iszero\n      tag_211\n      jumpi\n      dup1\n      dup3\n      sub\n      dup1\n      mload\n      0x01\n      dup4\n      0x20\n      sub\n      0x0100\n      exp\n      sub\n      not\n      and\n      dup2\n      mstore\n      0x20\n      add\n      swap2\n      pop\n    tag_211:\n      pop\n      dup4\n      dup2\n      sub\n      dup3\n      mstore\n      dup5\n      dup2\n      dup2\n      mload\n      dup2\n      mstore\n      0x20\n      add\n      swap2\n      pop\n      dup1\n      mload\n      swap1\n      0x20\n      add\n      swap1\n      dup1\n      dup4\n      dup4\n        /* \"--CODEGEN--\":23:24   */\n      0x00\n        /* \"--CODEGEN--\":8:108   */\n    tag_212:\n        /* \"--CODEGEN--\":33:36   */\n      dup4\n        /* \"--CODEGEN--\":30:31   */\n      dup2\n        /* \"--CODEGEN--\":27:37   */\n      lt\n        /* \"--CODEGEN--\":8:108   */\n      iszero\n      tag_214\n      jumpi\n        /* \"--CODEGEN--\":99:100   */\n      dup1\n        /* \"--CODEGEN--\":94:97   */\n      dup3\n        /* \"--CODEGEN--\":90:101   */\n      add\n        /* \"--CODEGEN--\":84:102   */\n      mload\n        /* \"--CODEGEN--\":80:81   */\n      dup2\n        /* \"--CODEGEN--\":75:78   */\n      dup5\n        /* \"--CODEGEN--\":71:82   */\n      add\n        /* \"--CODEGEN--\":64:103   */\n      mstore\n        /* \"--CODEGEN--\":52:54   */\n      0x20\n        /* \"--CODEGEN--\":49:50   */\n      dup2\n        /* \"--CODEGEN--\":45:55   */\n      add\n        /* \"--CODEGEN--\":40:55   */\n      swap1\n      pop\n        /* \"--CODEGEN--\":8:108   */\n      jump(tag_212)\n    tag_214:\n        /* \"--CODEGEN--\":12:26   */\n      pop\n        /* \"input/AllowanceModule.sol\":12767:12847  ISignatureValidator(owner).isValidSignature(transferHashData, contractSignature) */\n      pop\n      pop\n      pop\n      swap1\n      pop\n      swap1\n      dup2\n      add\n      swap1\n      0x1f\n      and\n      dup1\n      iszero\n      tag_215\n      jumpi\n      dup1\n      dup3\n      sub\n      dup1\n      mload\n      0x01\n      dup4\n      0x20\n      sub\n      0x0100\n      exp\n      sub\n      not\n      and\n      dup2\n      mstore\n      0x20\n      add\n      swap2\n      pop\n    tag_215:\n      pop\n      swap5\n      pop\n      pop\n      pop\n      pop\n      pop\n      0x20\n      mload(0x40)\n      dup1\n      dup4\n      sub\n      dup2\n      dup7\n      dup1\n      extcodesize\n      iszero\n        /* \"--CODEGEN--\":8:17   */\n      dup1\n        /* \"--CODEGEN--\":5:7   */\n      iszero\n      tag_216\n      jumpi\n        /* \"--CODEGEN--\":30:31   */\n      0x00\n        /* \"--CODEGEN--\":27:28   */\n      dup1\n        /* \"--CODEGEN--\":20:32   */\n      revert\n        /* \"--CODEGEN--\":5:7   */\n    tag_216:\n        /* \"input/AllowanceModule.sol\":12767:12847  ISignatureValidator(owner).isValidSignature(transferHashData, contractSignature) */\n      pop\n      gas\n      staticcall\n      iszero\n        /* \"--CODEGEN--\":8:17   */\n      dup1\n        /* \"--CODEGEN--\":5:7   */\n      iszero\n      tag_217\n      jumpi\n        /* \"--CODEGEN--\":45:61   */\n      returndatasize\n        /* \"--CODEGEN--\":42:43   */\n      0x00\n        /* \"--CODEGEN--\":39:40   */\n      dup1\n        /* \"--CODEGEN--\":24:62   */\n      returndatacopy\n        /* \"--CODEGEN--\":77:93   */\n      returndatasize\n        /* \"--CODEGEN--\":74:75   */\n      0x00\n        /* \"--CODEGEN--\":67:94   */\n      revert\n        /* \"--CODEGEN--\":5:7   */\n    tag_217:\n        /* \"input/AllowanceModule.sol\":12767:12847  ISignatureValidator(owner).isValidSignature(transferHashData, contractSignature) */\n      pop\n      pop\n      pop\n      pop\n      mload(0x40)\n      returndatasize\n        /* \"--CODEGEN--\":13:15   */\n      0x20\n        /* \"--CODEGEN--\":8:11   */\n      dup2\n        /* \"--CODEGEN--\":5:16   */\n      lt\n        /* \"--CODEGEN--\":2:4   */\n      iszero\n      tag_218\n      jumpi\n        /* \"--CODEGEN--\":29:30   */\n      0x00\n        /* \"--CODEGEN--\":26:27   */\n      dup1\n        /* \"--CODEGEN--\":19:31   */\n      revert\n        /* \"--CODEGEN--\":2:4   */\n    tag_218:\n        /* \"input/AllowanceModule.sol\":12767:12847  ISignatureValidator(owner).isValidSignature(transferHashData, contractSignature) */\n      dup2\n      add\n      swap1\n      dup1\n      dup1\n      mload\n      swap1\n      0x20\n      add\n      swap1\n      swap3\n      swap2\n      swap1\n      pop\n      pop\n      pop\n        /* \"input/AllowanceModule.sol\":12767:12870  ISignatureValidator(owner).isValidSignature(transferHashData, contractSignature) == EIP1271_MAGIC_VALUE */\n      not(0xffffffffffffffffffffffffffffffffffffffffffffffffffffffff)\n      and\n      eq\n        /* \"input/AllowanceModule.sol\":12742:12941  require(... */\n      tag_219\n      jumpi\n      mload(0x40)\n      0x08c379a000000000000000000000000000000000000000000000000000000000\n      dup2\n      mstore\n      0x04\n      add\n      dup1\n      dup1\n      0x20\n      add\n      dup3\n      dup2\n      sub\n      dup3\n      mstore\n      0x25\n      dup2\n      mstore\n      0x20\n      add\n      dup1\n      data_28b765f195c3cd598e06ecb11ef8b4894757ebf4babad4a035bcaf2f5d0e18e5\n      0x25\n      swap2\n      codecopy\n      0x40\n      add\n      swap2\n      pop\n      pop\n      mload(0x40)\n      dup1\n      swap2\n      sub\n      swap1\n      revert\n    tag_219:\n        /* \"input/AllowanceModule.sol\":12230:13422  if (v == 0) {... */\n      pop\n      jump(tag_220)\n    tag_207:\n        /* \"input/AllowanceModule.sol\":12966:12968  30 */\n      0x1e\n        /* \"input/AllowanceModule.sol\":12962:12963  v */\n      dup4\n        /* \"input/AllowanceModule.sol\":12962:12968  v > 30 */\n      0xff\n      and\n      gt\n        /* \"input/AllowanceModule.sol\":12958:13422  if (v > 30) {... */\n      iszero\n      tag_221\n      jumpi\n        /* \"input/AllowanceModule.sol\":13140:13256  ecrecover(keccak256(abi.encodePacked(\"\\x19Ethereum Signed Message:\\n32\", keccak256(transferHashData))), v - 4, r, s) */\n      0x01\n        /* \"input/AllowanceModule.sol\":13223:13239  transferHashData */\n      dup6\n        /* \"input/AllowanceModule.sol\":13213:13240  keccak256(transferHashData) */\n      dup1\n      mload\n      swap1\n      0x20\n      add\n      keccak256\n        /* \"input/AllowanceModule.sol\":13160:13241  abi.encodePacked(\"\\x19Ethereum Signed Message:\\n32\", keccak256(transferHashData)) */\n      add(0x20, mload(0x40))\n      dup1\n      dup1\n      0x19457468657265756d205369676e6564204d6573736167653a0a333200000000\n      dup2\n      mstore\n      pop\n      0x1c\n      add\n      dup3\n      dup2\n      mstore\n      0x20\n      add\n      swap2\n      pop\n      pop\n      mload(0x40)\n        /* \"--CODEGEN--\":49:53   */\n      0x20\n        /* \"--CODEGEN--\":39:46   */\n      dup2\n        /* \"--CODEGEN--\":30:37   */\n      dup4\n        /* \"--CODEGEN--\":26:47   */\n      sub\n        /* \"--CODEGEN--\":22:54   */\n      sub\n        /* \"--CODEGEN--\":13:20   */\n      dup2\n        /* \"--CODEGEN--\":6:55   */\n      mstore\n        /* \"input/AllowanceModule.sol\":13160:13241  abi.encodePacked(\"\\x19Ethereum Signed Message:\\n32\", keccak256(transferHashData)) */\n      swap1\n      0x40\n      mstore\n        /* \"input/AllowanceModule.sol\":13150:13242  keccak256(abi.encodePacked(\"\\x19Ethereum Signed Message:\\n32\", keccak256(transferHashData))) */\n      dup1\n      mload\n      swap1\n      0x20\n      add\n      keccak256\n        /* \"input/AllowanceModule.sol\":13248:13249  4 */\n      0x04\n        /* \"input/AllowanceModule.sol\":13244:13245  v */\n      dup6\n        /* \"input/AllowanceModule.sol\":13244:13249  v - 4 */\n      sub\n        /* \"input/AllowanceModule.sol\":13251:13252  r */\n      dup5\n        /* \"input/AllowanceModule.sol\":13254:13255  s */\n      dup5\n        /* \"input/AllowanceModule.sol\":13140:13256  ecrecover(keccak256(abi.encodePacked(\"\\x19Ethereum Signed Message:\\n32\", keccak256(transferHashData))), v - 4, r, s) */\n      mload(0x40)\n      0x00\n      dup2\n      mstore\n      0x20\n      add\n      0x40\n      mstore\n      mload(0x40)\n      dup1\n      dup6\n      dup2\n      mstore\n      0x20\n      add\n      dup5\n      0xff\n      and\n      0xff\n      and\n      dup2\n      mstore\n      0x20\n      add\n      dup4\n      dup2\n      mstore\n      0x20\n      add\n      dup3\n      dup2\n      mstore\n      0x20\n      add\n      swap5\n      pop\n      pop\n      pop\n      pop\n      pop\n      0x20\n      mload(0x40)\n      0x20\n      dup2\n      sub\n      swap1\n      dup1\n      dup5\n      sub\n      swap1\n      dup6\n      gas\n      staticcall\n      iszero\n        /* \"--CODEGEN--\":8:17   */\n      dup1\n        /* \"--CODEGEN--\":5:7   */\n      iszero\n      tag_222\n      jumpi\n        /* \"--CODEGEN--\":45:61   */\n      returndatasize\n        /* \"--CODEGEN--\":42:43   */\n      0x00\n        /* \"--CODEGEN--\":39:40   */\n      dup1\n        /* \"--CODEGEN--\":24:62   */\n      returndatacopy\n        /* \"--CODEGEN--\":77:93   */\n      returndatasize\n        /* \"--CODEGEN--\":74:75   */\n      0x00\n        /* \"--CODEGEN--\":67:94   */\n      revert\n        /* \"--CODEGEN--\":5:7   */\n    tag_222:\n        /* \"input/AllowanceModule.sol\":13140:13256  ecrecover(keccak256(abi.encodePacked(\"\\x19Ethereum Signed Message:\\n32\", keccak256(transferHashData))), v - 4, r, s) */\n      pop\n      pop\n      pop\n      mload(sub(mload(0x40), 0x20))\n        /* \"input/AllowanceModule.sol\":13132:13256  owner = ecrecover(keccak256(abi.encodePacked(\"\\x19Ethereum Signed Message:\\n32\", keccak256(transferHashData))), v - 4, r, s) */\n      swap4\n      pop\n        /* \"input/AllowanceModule.sol\":12958:13422  if (v > 30) {... */\n      jump(tag_223)\n    tag_221:\n        /* \"input/AllowanceModule.sol\":13364:13411  ecrecover(keccak256(transferHashData), v, r, s) */\n      0x01\n        /* \"input/AllowanceModule.sol\":13384:13400  transferHashData */\n      dup6\n        /* \"input/AllowanceModule.sol\":13374:13401  keccak256(transferHashData) */\n      dup1\n      mload\n      swap1\n      0x20\n      add\n      keccak256\n        /* \"input/AllowanceModule.sol\":13403:13404  v */\n      dup5\n        /* \"input/AllowanceModule.sol\":13406:13407  r */\n      dup5\n        /* \"input/AllowanceModule.sol\":13409:13410  s */\n      dup5\n        /* \"input/AllowanceModule.sol\":13364:13411  ecrecover(keccak256(transferHashData), v, r, s) */\n      mload(0x40)\n      0x00\n      dup2\n      mstore\n      0x20\n      add\n      0x40\n      mstore\n      mload(0x40)\n      dup1\n      dup6\n      dup2\n      mstore\n      0x20\n      add\n      dup5\n      0xff\n      and\n      0xff\n      and\n      dup2\n      mstore\n      0x20\n      add\n      dup4\n      dup2\n      mstore\n      0x20\n      add\n      dup3\n      dup2\n      mstore\n      0x20\n      add\n      swap5\n      pop\n      pop\n      pop\n      pop\n      pop\n      0x20\n      mload(0x40)\n      0x20\n      dup2\n      sub\n      swap1\n      dup1\n      dup5\n      sub\n      swap1\n      dup6\n      gas\n      staticcall\n      iszero\n        /* \"--CODEGEN--\":8:17   */\n      dup1\n        /* \"--CODEGEN--\":5:7   */\n      iszero\n      tag_224\n      jumpi\n        /* \"--CODEGEN--\":45:61   */\n      returndatasize\n        /* \"--CODEGEN--\":42:43   */\n      0x00\n        /* \"--CODEGEN--\":39:40   */\n      dup1\n        /* \"--CODEGEN--\":24:62   */\n      returndatacopy\n        /* \"--CODEGEN--\":77:93   */\n      returndatasize\n        /* \"--CODEGEN--\":74:75   */\n      0x00\n        /* \"--CODEGEN--\":67:94   */\n      revert\n        /* \"--CODEGEN--\":5:7   */\n    tag_224:\n        /* \"input/AllowanceModule.sol\":13364:13411  ecrecover(keccak256(transferHashData), v, r, s) */\n      pop\n      pop\n      pop\n      mload(sub(mload(0x40), 0x20))\n        /* \"input/AllowanceModule.sol\":13356:13411  owner = ecrecover(keccak256(transferHashData), v, r, s) */\n      swap4\n      pop\n        /* \"input/AllowanceModule.sol\":12958:13422  if (v > 30) {... */\n    tag_223:\n        /* \"input/AllowanceModule.sol\":12230:13422  if (v == 0) {... */\n    tag_220:\n        /* \"input/AllowanceModule.sol\":11688:13428  function recoverSignature(bytes memory signature, bytes memory transferHashData) private view returns (address owner) {... */\n      pop\n      pop\n      pop\n    tag_202:\n      swap3\n      swap2\n      pop\n      pop\n      jump\t// out\n        /* \"input/AllowanceModule.sol\":1392:2313  function signatureSplit(bytes memory signatures, uint256 pos)... */\n    tag_206:\n        /* \"input/AllowanceModule.sol\":1501:1508  uint8 v */\n      0x00\n        /* \"input/AllowanceModule.sol\":1510:1519  bytes32 r */\n      dup1\n        /* \"input/AllowanceModule.sol\":1521:1530  bytes32 s */\n      0x00\n        /* \"input/AllowanceModule.sol\":1821:1824  pos */\n      dup4\n        /* \"input/AllowanceModule.sol\":1815:1819  0x41 */\n      0x41\n        /* \"input/AllowanceModule.sol\":1811:1825  mul(0x41, pos) */\n      mul\n        /* \"input/AllowanceModule.sol\":1883:1887  0x20 */\n      0x20\n        /* \"input/AllowanceModule.sol\":1869:1881  signaturePos */\n      dup2\n        /* \"input/AllowanceModule.sol\":1865:1888  add(signaturePos, 0x20) */\n      add\n        /* \"input/AllowanceModule.sol\":1853:1863  signatures */\n      dup7\n        /* \"input/AllowanceModule.sol\":1849:1889  add(signatures, add(signaturePos, 0x20)) */\n      add\n        /* \"input/AllowanceModule.sol\":1843:1890  mload(add(signatures, add(signaturePos, 0x20))) */\n      mload\n        /* \"input/AllowanceModule.sol\":1838:1890  r := mload(add(signatures, add(signaturePos, 0x20))) */\n      swap3\n      pop\n        /* \"input/AllowanceModule.sol\":1948:1952  0x40 */\n      0x40\n        /* \"input/AllowanceModule.sol\":1934:1946  signaturePos */\n      dup2\n        /* \"input/AllowanceModule.sol\":1930:1953  add(signaturePos, 0x40) */\n      add\n        /* \"input/AllowanceModule.sol\":1918:1928  signatures */\n      dup7\n        /* \"input/AllowanceModule.sol\":1914:1954  add(signatures, add(signaturePos, 0x40)) */\n      add\n        /* \"input/AllowanceModule.sol\":1908:1955  mload(add(signatures, add(signaturePos, 0x40))) */\n      mload\n        /* \"input/AllowanceModule.sol\":1903:1955  s := mload(add(signatures, add(signaturePos, 0x40))) */\n      swap2\n      pop\n        /* \"input/AllowanceModule.sol\":2292:2296  0xff */\n      0xff\n        /* \"input/AllowanceModule.sol\":2283:2287  0x41 */\n      0x41\n        /* \"input/AllowanceModule.sol\":2269:2281  signaturePos */\n      dup3\n        /* \"input/AllowanceModule.sol\":2265:2288  add(signaturePos, 0x41) */\n      add\n        /* \"input/AllowanceModule.sol\":2253:2263  signatures */\n      dup8\n        /* \"input/AllowanceModule.sol\":2249:2289  add(signatures, add(signaturePos, 0x41)) */\n      add\n        /* \"input/AllowanceModule.sol\":2243:2290  mload(add(signatures, add(signaturePos, 0x41))) */\n      mload\n        /* \"input/AllowanceModule.sol\":2239:2297  and(mload(add(signatures, add(signaturePos, 0x41))), 0xff) */\n      and\n        /* \"input/AllowanceModule.sol\":2234:2297  v := and(mload(add(signatures, add(signaturePos, 0x41))), 0xff) */\n      swap4\n      pop\n        /* \"input/AllowanceModule.sol\":1777:2307  {... */\n      pop\n      swap3\n      pop\n      swap3\n      pop\n      swap3\n      jump\t// out\n        /* \"input/AllowanceModule.sol\":3663:16817  contract AllowanceModule is SignatureDecoder, ISignatureValidatorConstants {... */\n    tag_95:\n      mload(0x40)\n      dup1\n      0xa0\n      add\n      0x40\n      mstore\n      dup1\n      and(0xffffffffffffffffffffffff, 0x00)\n      dup2\n      mstore\n      0x20\n      add\n      and(0xffffffffffffffffffffffff, 0x00)\n      dup2\n      mstore\n      0x20\n      add\n      and(0xffff, 0x00)\n      dup2\n      mstore\n      0x20\n      add\n      and(0xffffffff, 0x00)\n      dup2\n      mstore\n      0x20\n      add\n      and(0xffff, 0x00)\n      dup2\n      mstore\n      pop\n      swap1\n      jump\t// out\n    tag_121:\n      mload(0x40)\n      dup1\n      0x60\n      add\n      0x40\n      mstore\n      dup1\n      and(0xffffffffffffffffffffffffffffffffffffffff, 0x00)\n      dup2\n      mstore\n      0x20\n      add\n      and(0xffffffffffff, 0x00)\n      dup2\n      mstore\n      0x20\n      add\n      and(0xffffffffffff, 0x00)\n      dup2\n      mstore\n      pop\n      swap1\n      jump\t// out\n    tag_135:\n      mload(0x40)\n      dup1\n      0xa0\n      add\n      0x40\n      mstore\n      dup1\n      0x05\n      swap1\n        /* \"--CODEGEN--\":29:31   */\n      0x20\n        /* \"--CODEGEN--\":21:27   */\n      dup3\n        /* \"--CODEGEN--\":17:32   */\n      mul\n        /* \"--CODEGEN--\":117:121   */\n      dup1\n        /* \"--CODEGEN--\":105:115   */\n      codesize\n        /* \"--CODEGEN--\":97:103   */\n      dup4\n        /* \"--CODEGEN--\":88:122   */\n      codecopy\n        /* \"--CODEGEN--\":148:152   */\n      dup1\n        /* \"--CODEGEN--\":140:146   */\n      dup3\n        /* \"--CODEGEN--\":136:153   */\n      add\n        /* \"--CODEGEN--\":126:153   */\n      swap2\n      pop\n        /* \"--CODEGEN--\":0:157   */\n      pop\n        /* \"input/AllowanceModule.sol\":3663:16817  contract AllowanceModule is SignatureDecoder, ISignatureValidatorConstants {... */\n      swap1\n      pop\n      pop\n      swap1\n      jump\t// out\n    stop\n    data_28b765f195c3cd598e06ecb11ef8b4894757ebf4babad4a035bcaf2f5d0e18e5 436f756c64206e6f742076616c6964617465204549502d31323731207369676e6174757265\n    data_58537fa1960fbebccc117b6218b0af08a9f148039299593ea287e665dd534bb1 64656c6567617465735b6d73672e73656e6465725d5b75696e7434382864656c6567617465295d2e64656c6567617465203d3d2064656c6567617465\n    data_80b006280932094e7cc965863eb5118dc07e5d272c6670c4a7c87299e04fceeb 416c6c6f77616e63655472616e73666572286164647265737320736166652c6164647265737320746f6b656e2c75696e74393620616d6f756e742c61646472657373207061796d656e74546f6b656e2c75696e743936207061796d656e742c75696e743136206e6f6e636529\n    data_967a409fd152609403ac7b3349d7ced54d05d2ee8664844edf017668d343240b 657870656374656444656c6567617465203d3d207369676e65722026262064656c6567617465735b616464726573732873616665295d5b75696e743438287369676e6572295d2e64656c6567617465203d3d207369676e6572\n    data_a7359a8519961096cf8fb65715f77dbc4de2755aabf21e3445e245a34ee622da 6e65775370656e74203e20616c6c6f77616e63652e7370656e74202626206e65775370656e74203c3d20616c6c6f77616e63652e616d6f756e74\n    data_b549d52c5706645679000944ae1bcaec935d0b8c387f4240a09789be7dc8c0d4 6e65775370656e74203e207061796d656e74416c6c6f77616e63652e7370656e74202626206e65775370656e74203c3d207061796d656e74416c6c6f77616e63652e616d6f756e74\n\n    auxdata: 0xa265627a7a7230582089e6c81bdfa4bb80a5f6bd6cb073fdcb4fb64d564b02765f1e5db7703dda824564736f6c634300050a0032\n}\n",
				"bytecode": {
					"linkReferences": {},
					"object": "608060405234801561001057600080fd5b507f035aff83d86937d35b32e04f0ddc6ff469290eef2f1b692d8a815c89404d474960001b30604051602001808381526020018273ffffffffffffffffffffffffffffffffffffffff1673ffffffffffffffffffffffffffffffffffffffff16815260200192505050604051602081830303815290604052805190602001206004819055506137c4806100a46000396000f3fe608060405234801561001057600080fd5b50600436106101165760003560e01c8063beaeb388116100a2578063e71bdf4111610071578063e71bdf411461094b578063eb37abe01461098f578063f56e81fa14610a5e578063f698da2514610b0c578063ffa1ad7414610b2a57610116565b8063beaeb38814610693578063c19bf50e1461072d578063ce60c69214610791578063d626e0431461085557610116565b806367e7646f116100e957806367e7646f1461034b5780638d0e8e1d1461038f57806394b31fbd14610448578063a3f4df7e14610508578063b713c9d41461058b57610116565b80631db61b541461011b578063310a3bb11461013957806343abf5fe146101a15780634515641a146101bf575b600080fd5b610123610bad565b6040518082815260200191505060405180910390f35b61017b6004803603602081101561014f57600080fd5b81019080803573ffffffffffffffffffffffffffffffffffffffff169060200190929190505050610bd4565b604051808265ffffffffffff1665ffffffffffff16815260200191505060405180910390f35b6101a9610bf9565b6040518082815260200191505060405180910390f35b61034960048036036101008110156101d657600080fd5b81019080803573ffffffffffffffffffffffffffffffffffffffff169060200190929190803573ffffffffffffffffffffffffffffffffffffffff169060200190929190803573ffffffffffffffffffffffffffffffffffffffff16906020019092919080356bffffffffffffffffffffffff169060200190929190803573ffffffffffffffffffffffffffffffffffffffff16906020019092919080356bffffffffffffffffffffffff169060200190929190803573ffffffffffffffffffffffffffffffffffffffff169060200190929190803590602001906401000000008111156102c357600080fd5b8201836020820111156102d557600080fd5b803590602001918460018302840111640100000000831117156102f757600080fd5b91908080601f016020809104026020016040519081016040528093929190818152602001838380828437600081840152601f19601f820116905080830192505050505050509192919290505050610c15565b005b61038d6004803603602081101561036157600080fd5b81019080803573ffffffffffffffffffffffffffffffffffffffff169060200190929190505050611022565b005b6103f1600480360360408110156103a557600080fd5b81019080803573ffffffffffffffffffffffffffffffffffffffff169060200190929190803573ffffffffffffffffffffffffffffffffffffffff16906020019092919050505061149e565b6040518080602001828103825283818151815260200191508051906020019060200280838360005b83811015610434578082015181840152602081019050610419565b505050509050019250505060405180910390f35b6104ca6004803603606081101561045e57600080fd5b81019080803573ffffffffffffffffffffffffffffffffffffffff169060200190929190803573ffffffffffffffffffffffffffffffffffffffff169060200190929190803573ffffffffffffffffffffffffffffffffffffffff1690602001909291905050506115a9565b6040518082600560200280838360005b838110156104f55780820151818401526020810190506104da565b5050505090500191505060405180910390f35b610510611635565b6040518080602001828103825283818151815260200191508051906020019080838360005b83811015610550578082015181840152602081019050610535565b50505050905090810190601f16801561057d5780820380516001836020036101000a031916815260200191505b509250505060405180910390f35b61060d600480360360608110156105a157600080fd5b81019080803573ffffffffffffffffffffffffffffffffffffffff169060200190929190803573ffffffffffffffffffffffffffffffffffffffff169060200190929190803573ffffffffffffffffffffffffffffffffffffffff16906020019092919050505061166e565b60405180866bffffffffffffffffffffffff166bffffffffffffffffffffffff168152602001856bffffffffffffffffffffffff166bffffffffffffffffffffffff1681526020018461ffff1661ffff1681526020018363ffffffff1663ffffffff1681526020018261ffff1661ffff1681526020019550505050505060405180910390f35b61072b600480360360a08110156106a957600080fd5b81019080803573ffffffffffffffffffffffffffffffffffffffff169060200190929190803573ffffffffffffffffffffffffffffffffffffffff16906020019092919080356bffffffffffffffffffffffff169060200190929190803561ffff169060200190929190803563ffffffff16906020019092919050505061171a565b005b61078f6004803603604081101561074357600080fd5b81019080803573ffffffffffffffffffffffffffffffffffffffff169060200190929190803573ffffffffffffffffffffffffffffffffffffffff169060200190929190505050611b71565b005b6107e5600480360360408110156107a757600080fd5b81019080803573ffffffffffffffffffffffffffffffffffffffff169060200190929190803565ffffffffffff169060200190929190505050611bc0565b604051808473ffffffffffffffffffffffffffffffffffffffff1673ffffffffffffffffffffffffffffffffffffffff1681526020018365ffffffffffff1665ffffffffffff1681526020018265ffffffffffff1665ffffffffffff168152602001935050505060405180910390f35b610935600480360360e081101561086b57600080fd5b81019080803573ffffffffffffffffffffffffffffffffffffffff169060200190929190803573ffffffffffffffffffffffffffffffffffffffff169060200190929190803573ffffffffffffffffffffffffffffffffffffffff16906020019092919080356bffffffffffffffffffffffff169060200190929190803573ffffffffffffffffffffffffffffffffffffffff16906020019092919080356bffffffffffffffffffffffff169060200190929190803561ffff169060200190929190505050611c3b565b6040518082815260200191505060405180910390f35b61098d6004803603602081101561096157600080fd5b81019080803573ffffffffffffffffffffffffffffffffffffffff169060200190929190505050611c60565b005b6109f0600480360360608110156109a557600080fd5b81019080803573ffffffffffffffffffffffffffffffffffffffff169060200190929190803565ffffffffffff169060200190929190803560ff1690602001909291905050506120c5565b60405180806020018365ffffffffffff1665ffffffffffff168152602001828103825284818151815260200191508051906020019060200280838360005b83811015610a49578082015181840152602081019050610a2e565b50505050905001935050505060405180910390f35b610aca60048036036060811015610a7457600080fd5b81019080803573ffffffffffffffffffffffffffffffffffffffff169060200190929190803573ffffffffffffffffffffffffffffffffffffffff1690602001909291908035906020019092919050505061246e565b604051808273ffffffffffffffffffffffffffffffffffffffff1673ffffffffffffffffffffffffffffffffffffffff16815260200191505060405180910390f35b610b146124c6565b6040518082815260200191505060405180910390f35b610b326124cc565b6040518080602001828103825283818151815260200191508051906020019080838360005b83811015610b72578082015181840152602081019050610b57565b50505050905090810190601f168015610b9f5780820380516001836020036101000a031916815260200191505b509250505060405180910390f35b7f035aff83d86937d35b32e04f0ddc6ff469290eef2f1b692d8a815c89404d474960001b81565b60036020528060005260406000206000915054906101000a900465ffffffffffff1681565b6040518080613649606c9139606c019050604051809103902081565b610c1d613525565b610c2889848a612505565b90506060610c3f8a8a8a8a8a8a8860800151612766565b90506001826080015101826080019061ffff16908161ffff1681525050600087836020015101905082602001516bffffffffffffffffffffffff16816bffffffffffffffffffffffff16118015610cb6575082600001516bffffffffffffffffffffffff16816bffffffffffffffffffffffff1611155b610d0b576040517f08c379a000000000000000000000000000000000000000000000000000000000815260040180806020018281038252603a81526020018061370e603a913960400191505060405180910390fd5b8083602001906bffffffffffffffffffffffff1690816bffffffffffffffffffffffff16815250506000866bffffffffffffffffffffffff161115610eb057610d52613525565b8a73ffffffffffffffffffffffffffffffffffffffff168873ffffffffffffffffffffffffffffffffffffffff1614610d9557610d908c878a612505565b610d97565b835b905086816020015101915080602001516bffffffffffffffffffffffff16826bffffffffffffffffffffffff16118015610df1575080600001516bffffffffffffffffffffffff16826bffffffffffffffffffffffff1611155b610e46576040517f08c379a00000000000000000000000000000000000000000000000000000000081526004018080602001828103825260488152602001806137486048913960600191505060405180910390fd5b8181602001906bffffffffffffffffffffffff1690816bffffffffffffffffffffffff16815250508a73ffffffffffffffffffffffffffffffffffffffff168873ffffffffffffffffffffffffffffffffffffffff1614610eae57610ead8c878a846129ab565b5b505b610ebc8b868c866129ab565b610ec88585848e612b48565b6000866bffffffffffffffffffffffff161115610eec57610eeb8b883289612c9b565b5b610ef88b8b8b8b612c9b565b8a73ffffffffffffffffffffffffffffffffffffffff167fa11cca2c2027e28ab0046aab4d4040f59d8b06e819ccd974c1e53e86aa814c19868c8c8c6001896080015103604051808673ffffffffffffffffffffffffffffffffffffffff1673ffffffffffffffffffffffffffffffffffffffff1681526020018573ffffffffffffffffffffffffffffffffffffffff1673ffffffffffffffffffffffffffffffffffffffff1681526020018473ffffffffffffffffffffffffffffffffffffffff1673ffffffffffffffffffffffffffffffffffffffff168152602001836bffffffffffffffffffffffff166bffffffffffffffffffffffff1681526020018261ffff1661ffff1681526020019550505050505060405180910390a25050505050505050505050565b61102a61357e565b600260003373ffffffffffffffffffffffffffffffffffffffff1673ffffffffffffffffffffffffffffffffffffffff16815260200190815260200160002060008365ffffffffffff1665ffffffffffff1681526020019081526020016000206040518060600160405290816000820160009054906101000a900473ffffffffffffffffffffffffffffffffffffffff1673ffffffffffffffffffffffffffffffffffffffff1673ffffffffffffffffffffffffffffffffffffffff1681526020016000820160149054906101000a900465ffffffffffff1665ffffffffffff1665ffffffffffff16815260200160008201601a9054906101000a900465ffffffffffff1665ffffffffffff1665ffffffffffff16815250509050600073ffffffffffffffffffffffffffffffffffffffff16816000015173ffffffffffffffffffffffffffffffffffffffff161415611184575061149b565b6000600160003373ffffffffffffffffffffffffffffffffffffffff1673ffffffffffffffffffffffffffffffffffffffff16815260200190815260200160002060008473ffffffffffffffffffffffffffffffffffffffff1673ffffffffffffffffffffffffffffffffffffffff168152602001908152602001600020905060008090505b818054905081101561130157600082828154811061122457fe5b9060005260206000200160009054906101000a900473ffffffffffffffffffffffffffffffffffffffff169050611259613525565b611264338784612505565b9050600081600001906bffffffffffffffffffffffff1690816bffffffffffffffffffffffff1681525050600081602001906bffffffffffffffffffffffff1690816bffffffffffffffffffffffff16815250506000816040019061ffff16908161ffff16815250506000816060019063ffffffff16908163ffffffff16815250506112f2338784846129ab565b5050808060010191505061120a565b508160400151600260003373ffffffffffffffffffffffffffffffffffffffff1673ffffffffffffffffffffffffffffffffffffffff1681526020019081526020016000206000846020015165ffffffffffff1665ffffffffffff168152602001908152602001600020600001601a6101000a81548165ffffffffffff021916908365ffffffffffff1602179055508160200151600260003373ffffffffffffffffffffffffffffffffffffffff1673ffffffffffffffffffffffffffffffffffffffff1681526020019081526020016000206000846040015165ffffffffffff1665ffffffffffff16815260200190815260200160002060000160146101000a81548165ffffffffffff021916908365ffffffffffff1602179055503373ffffffffffffffffffffffffffffffffffffffff167fdccc2d936ded24d2153d2760581a7f0dcb23ec71190c9726b3584cdd700214d484604051808273ffffffffffffffffffffffffffffffffffffffff1673ffffffffffffffffffffffffffffffffffffffff16815260200191505060405180910390a250505b50565b6060600160008473ffffffffffffffffffffffffffffffffffffffff1673ffffffffffffffffffffffffffffffffffffffff16815260200190815260200160002060008373ffffffffffffffffffffffffffffffffffffffff1673ffffffffffffffffffffffffffffffffffffffff16815260200190815260200160002080548060200260200160405190810160405280929190818152602001828054801561159c57602002820191906000526020600020905b8160009054906101000a900473ffffffffffffffffffffffffffffffffffffffff1673ffffffffffffffffffffffffffffffffffffffff1681526020019060010190808311611552575b5050505050905092915050565b6115b16135c5565b6115b9613525565b6115c4858585612505565b90506040518060a0016040528082600001516bffffffffffffffffffffffff16815260200182602001516bffffffffffffffffffffffff168152602001826040015161ffff168152602001826060015163ffffffff168152602001826080015161ffff168152509150509392505050565b6040518060400160405280601081526020017f416c6c6f77616e6365204d6f64756c650000000000000000000000000000000081525081565b600060205282600052604060002060205281600052604060002060205280600052604060002060009250925050508060000160009054906101000a90046bffffffffffffffffffffffff169080600001600c9054906101000a90046bffffffffffffffffffffffff16908060000160189054906101000a900461ffff169080600001601a9054906101000a900463ffffffff169080600001601e9054906101000a900461ffff16905085565b8473ffffffffffffffffffffffffffffffffffffffff16600260003373ffffffffffffffffffffffffffffffffffffffff1673ffffffffffffffffffffffffffffffffffffffff16815260200190815260200160002060008765ffffffffffff1665ffffffffffff16815260200190815260200160002060000160009054906101000a900473ffffffffffffffffffffffffffffffffffffffff1673ffffffffffffffffffffffffffffffffffffffff1614611821576040517f08c379a000000000000000000000000000000000000000000000000000000000815260040180806020018281038252603c81526020018061360d603c913960400191505060405180910390fd5b611829613525565b611834338787612505565b90506000816080015161ffff16141561193d576001816080019061ffff16908161ffff1681525050600160003373ffffffffffffffffffffffffffffffffffffffff1673ffffffffffffffffffffffffffffffffffffffff16815260200190815260200160002060008773ffffffffffffffffffffffffffffffffffffffff1673ffffffffffffffffffffffffffffffffffffffff1681526020019081526020016000208590806001815401808255809150509060018203906000526020600020016000909192909190916101000a81548173ffffffffffffffffffffffffffffffffffffffff021916908373ffffffffffffffffffffffffffffffffffffffff160217905550505b6000603c428161194957fe5b04905060008363ffffffff161115611a11578063ffffffff168363ffffffff1611156119dd576040517f08c379a000000000000000000000000000000000000000000000000000000000815260040180806020018281038252601a8152602001807f7265736574426173654d696e203c3d2063757272656e744d696e00000000000081525060200191505060405180910390fd5b8361ffff1683820363ffffffff16816119f257fe5b068103826060019063ffffffff16908163ffffffff1681525050611a3e565b6000826060015163ffffffff161415611a3d5780826060019063ffffffff16908163ffffffff16815250505b5b83826040019061ffff16908161ffff16815250508482600001906bffffffffffffffffffffffff1690816bffffffffffffffffffffffff1681525050611a86338888856129ab565b3373ffffffffffffffffffffffffffffffffffffffff167f49caa04c5e1e168069c09df7f88c07ca87be980b0bf4570ab77fe9aae3ca7eba88888888604051808573ffffffffffffffffffffffffffffffffffffffff1673ffffffffffffffffffffffffffffffffffffffff1681526020018473ffffffffffffffffffffffffffffffffffffffff1673ffffffffffffffffffffffffffffffffffffffff168152602001836bffffffffffffffffffffffff166bffffffffffffffffffffffff1681526020018261ffff1661ffff16815260200194505050505060405180910390a250505050505050565b611b79613525565b611b84338484612505565b9050600081602001906bffffffffffffffffffffffff1690816bffffffffffffffffffffffff1681525050611bbb338484846129ab565b505050565b6002602052816000526040600020602052806000526040600020600091509150508060000160009054906101000a900473ffffffffffffffffffffffffffffffffffffffff16908060000160149054906101000a900465ffffffffffff169080600001601a9054906101000a900465ffffffffffff16905083565b6000611c4c88888888888888612766565b805190602001209050979650505050505050565b600073ffffffffffffffffffffffffffffffffffffffff168173ffffffffffffffffffffffffffffffffffffffff161415611d03576040517f08c379a00000000000000000000000000000000000000000000000000000000081526004018080602001828103825260188152602001807f496e76616c69642064656c65676174652061646472657373000000000000000081525060200191505060405180910390fd5b6000819050600073ffffffffffffffffffffffffffffffffffffffff16600260003373ffffffffffffffffffffffffffffffffffffffff1673ffffffffffffffffffffffffffffffffffffffff16815260200190815260200160002060008365ffffffffffff1665ffffffffffff16815260200190815260200160002060000160009054906101000a900473ffffffffffffffffffffffffffffffffffffffff1673ffffffffffffffffffffffffffffffffffffffff1614611dc557506120c2565b6000600360003373ffffffffffffffffffffffffffffffffffffffff1673ffffffffffffffffffffffffffffffffffffffff16815260200190815260200160002060009054906101000a900465ffffffffffff16905060405180606001604052808473ffffffffffffffffffffffffffffffffffffffff168152602001600065ffffffffffff1681526020018265ffffffffffff16815250600260003373ffffffffffffffffffffffffffffffffffffffff1673ffffffffffffffffffffffffffffffffffffffff16815260200190815260200160002060008465ffffffffffff1665ffffffffffff16815260200190815260200160002060008201518160000160006101000a81548173ffffffffffffffffffffffffffffffffffffffff021916908373ffffffffffffffffffffffffffffffffffffffff16021790555060208201518160000160146101000a81548165ffffffffffff021916908365ffffffffffff160217905550604082015181600001601a6101000a81548165ffffffffffff021916908365ffffffffffff16021790555090505081600260003373ffffffffffffffffffffffffffffffffffffffff1673ffffffffffffffffffffffffffffffffffffffff16815260200190815260200160002060008365ffffffffffff1665ffffffffffff16815260200190815260200160002060000160146101000a81548165ffffffffffff021916908365ffffffffffff16021790555081600360003373ffffffffffffffffffffffffffffffffffffffff1673ffffffffffffffffffffffffffffffffffffffff16815260200190815260200160002060006101000a81548165ffffffffffff021916908365ffffffffffff1602179055503373ffffffffffffffffffffffffffffffffffffffff167f2fd5b26f00131bd8ca0fc556207292b85a6bec241341df82724333227458e63084604051808273ffffffffffffffffffffffffffffffffffffffff1673ffffffffffffffffffffffffffffffffffffffff16815260200191505060405180910390a250505b50565b606060008260ff166040519080825280602002602001820160405280156120fb5781602001602082028038833980820191505090505b50915060008090506000808665ffffffffffff16141561216c57600360008873ffffffffffffffffffffffffffffffffffffffff1673ffffffffffffffffffffffffffffffffffffffff16815260200190815260200160002060009054906101000a900465ffffffffffff1661216e565b855b905061217861357e565b600260008973ffffffffffffffffffffffffffffffffffffffff1673ffffffffffffffffffffffffffffffffffffffff16815260200190815260200160002060008365ffffffffffff1665ffffffffffff1681526020019081526020016000206040518060600160405290816000820160009054906101000a900473ffffffffffffffffffffffffffffffffffffffff1673ffffffffffffffffffffffffffffffffffffffff1673ffffffffffffffffffffffffffffffffffffffff1681526020016000820160149054906101000a900465ffffffffffff1665ffffffffffff1665ffffffffffff16815260200160008201601a9054906101000a900465ffffffffffff1665ffffffffffff1665ffffffffffff168152505090505b600073ffffffffffffffffffffffffffffffffffffffff16816000015173ffffffffffffffffffffffffffffffffffffffff16141580156122da57508560ff168360ff16105b15612459578060000151858460ff16815181106122f357fe5b602002602001019073ffffffffffffffffffffffffffffffffffffffff16908173ffffffffffffffffffffffffffffffffffffffff16815250508280600101935050600260008973ffffffffffffffffffffffffffffffffffffffff1673ffffffffffffffffffffffffffffffffffffffff1681526020019081526020016000206000826040015165ffffffffffff1665ffffffffffff1681526020019081526020016000206040518060600160405290816000820160009054906101000a900473ffffffffffffffffffffffffffffffffffffffff1673ffffffffffffffffffffffffffffffffffffffff1673ffffffffffffffffffffffffffffffffffffffff1681526020016000820160149054906101000a900465ffffffffffff1665ffffffffffff1665ffffffffffff16815260200160008201601a9054906101000a900465ffffffffffff1665ffffffffffff1665ffffffffffff16815250509050612294565b80600001519350828552505050935093915050565b6001602052826000526040600020602052816000526040600020818154811061249357fe5b90600052602060002001600092509250509054906101000a900473ffffffffffffffffffffffffffffffffffffffff1681565b60045481565b6040518060400160405280600581526020017f302e312e3000000000000000000000000000000000000000000000000000000081525081565b61250d613525565b6000808573ffffffffffffffffffffffffffffffffffffffff1673ffffffffffffffffffffffffffffffffffffffff16815260200190815260200160002060008473ffffffffffffffffffffffffffffffffffffffff1673ffffffffffffffffffffffffffffffffffffffff16815260200190815260200160002060008373ffffffffffffffffffffffffffffffffffffffff1673ffffffffffffffffffffffffffffffffffffffff1681526020019081526020016000206040518060a00160405290816000820160009054906101000a90046bffffffffffffffffffffffff166bffffffffffffffffffffffff166bffffffffffffffffffffffff16815260200160008201600c9054906101000a90046bffffffffffffffffffffffff166bffffffffffffffffffffffff166bffffffffffffffffffffffff1681526020016000820160189054906101000a900461ffff1661ffff1661ffff16815260200160008201601a9054906101000a900463ffffffff1663ffffffff1663ffffffff16815260200160008201601e9054906101000a900461ffff1661ffff1661ffff168152505090506000603c42816126c057fe5b0490506000826040015161ffff161180156126f55750816040015161ffff16810363ffffffff16826060015163ffffffff1611155b1561275b57600082602001906bffffffffffffffffffffffff1690816bffffffffffffffffffffffff1681525050816040015161ffff168260600151820363ffffffff168161274057fe5b068103826060019063ffffffff16908163ffffffff16815250505b819150509392505050565b606060006040518080613649606c9139606c019050604051809103902089898989898989604051602001808981526020018873ffffffffffffffffffffffffffffffffffffffff1673ffffffffffffffffffffffffffffffffffffffff1681526020018773ffffffffffffffffffffffffffffffffffffffff1673ffffffffffffffffffffffffffffffffffffffff1681526020018673ffffffffffffffffffffffffffffffffffffffff1673ffffffffffffffffffffffffffffffffffffffff168152602001856bffffffffffffffffffffffff166bffffffffffffffffffffffff1681526020018473ffffffffffffffffffffffffffffffffffffffff1673ffffffffffffffffffffffffffffffffffffffff168152602001836bffffffffffffffffffffffff166bffffffffffffffffffffffff1681526020018261ffff1661ffff16815260200198505050505050505050604051602081830303815290604052805190602001209050601960f81b600160f81b6004548360405160200180857effffffffffffffffffffffffffffffffffffffffffffffffffffffffffffff19167effffffffffffffffffffffffffffffffffffffffffffffffffffffffffffff19168152600101847effffffffffffffffffffffffffffffffffffffffffffffffffffffffffffff19167effffffffffffffffffffffffffffffffffffffffffffffffffffffffffffff19168152600101838152602001828152602001945050505050604051602081830303815290604052915050979650505050505050565b806000808673ffffffffffffffffffffffffffffffffffffffff1673ffffffffffffffffffffffffffffffffffffffff16815260200190815260200160002060008573ffffffffffffffffffffffffffffffffffffffff1673ffffffffffffffffffffffffffffffffffffffff16815260200190815260200160002060008473ffffffffffffffffffffffffffffffffffffffff1673ffffffffffffffffffffffffffffffffffffffff16815260200190815260200160002060008201518160000160006101000a8154816bffffffffffffffffffffffff02191690836bffffffffffffffffffffffff160217905550602082015181600001600c6101000a8154816bffffffffffffffffffffffff02191690836bffffffffffffffffffffffff16021790555060408201518160000160186101000a81548161ffff021916908361ffff160217905550606082015181600001601a6101000a81548163ffffffff021916908363ffffffff160217905550608082015181600001601e6101000a81548161ffff021916908361ffff16021790555090505050505050565b6000612b5484846130e5565b90508073ffffffffffffffffffffffffffffffffffffffff168573ffffffffffffffffffffffffffffffffffffffff16148015612c3f57508073ffffffffffffffffffffffffffffffffffffffff16600260008473ffffffffffffffffffffffffffffffffffffffff1673ffffffffffffffffffffffffffffffffffffffff16815260200190815260200160002060008365ffffffffffff1665ffffffffffff16815260200190815260200160002060000160009054906101000a900473ffffffffffffffffffffffffffffffffffffffff1673ffffffffffffffffffffffffffffffffffffffff16145b612c94576040517f08c379a00000000000000000000000000000000000000000000000000000000081526004018080602001828103825260598152602001806136b56059913960600191505060405180910390fd5b5050505050565b600073ffffffffffffffffffffffffffffffffffffffff168373ffffffffffffffffffffffffffffffffffffffff161415612e42578373ffffffffffffffffffffffffffffffffffffffff1663468721a7838360006040518463ffffffff1660e01b8152600401808473ffffffffffffffffffffffffffffffffffffffff1673ffffffffffffffffffffffffffffffffffffffff168152602001836bffffffffffffffffffffffff16815260200180602001836001811115612d5957fe5b60ff168152602001828103825260008152602001602001945050505050602060405180830381600087803b158015612d9057600080fd5b505af1158015612da4573d6000803e3d6000fd5b505050506040513d6020811015612dba57600080fd5b8101908080519060200190929190505050612e3d576040517f08c379a00000000000000000000000000000000000000000000000000000000081526004018080602001828103825260208152602001807f436f756c64206e6f742065786563757465206574686572207472616e7366657281525060200191505060405180910390fd5b6130df565b60608282604051602401808373ffffffffffffffffffffffffffffffffffffffff1673ffffffffffffffffffffffffffffffffffffffff168152602001826bffffffffffffffffffffffff166bffffffffffffffffffffffff168152602001925050506040516020818303038152906040527fa9059cbb000000000000000000000000000000000000000000000000000000007bffffffffffffffffffffffffffffffffffffffffffffffffffffffff19166020820180517bffffffffffffffffffffffffffffffffffffffffffffffffffffffff838183161783525050505090508473ffffffffffffffffffffffffffffffffffffffff1663468721a78560008460006040518563ffffffff1660e01b8152600401808573ffffffffffffffffffffffffffffffffffffffff1673ffffffffffffffffffffffffffffffffffffffff16815260200184815260200180602001836001811115612fa157fe5b60ff168152602001828103825284818151815260200191508051906020019080838360005b83811015612fe1578082015181840152602081019050612fc6565b50505050905090810190601f16801561300e5780820380516001836020036101000a031916815260200191505b5095505050505050602060405180830381600087803b15801561303057600080fd5b505af1158015613044573d6000803e3d6000fd5b505050506040513d602081101561305a57600080fd5b81019080805190602001909291905050506130dd576040517f08c379a00000000000000000000000000000000000000000000000000000000081526004018080602001828103825260208152602001807f436f756c64206e6f74206578656375746520746f6b656e207472616e7366657281525060200191505060405180910390fd5b505b50505050565b600080835114156130f8573390506134f0565b604183511015613170576040517f08c379a00000000000000000000000000000000000000000000000000000000081526004018080602001828103825260178152602001807f7369676e6174757265732e6c656e677468203e3d20363500000000000000000081525060200191505060405180910390fd5b60008060006131808660006134f6565b80935081945082955050505060008360ff1614156133a8578160001c9350606060208288010190506320c13b0b60e01b7bffffffffffffffffffffffffffffffffffffffffffffffffffffffff19168573ffffffffffffffffffffffffffffffffffffffff166320c13b0b88846040518363ffffffff1660e01b8152600401808060200180602001838103835285818151815260200191508051906020019080838360005b83811015613240578082015181840152602081019050613225565b50505050905090810190601f16801561326d5780820380516001836020036101000a031916815260200191505b50838103825284818151815260200191508051906020019080838360005b838110156132a657808201518184015260208101905061328b565b50505050905090810190601f1680156132d35780820380516001836020036101000a031916815260200191505b5094505050505060206040518083038186803b1580156132f257600080fd5b505afa158015613306573d6000803e3d6000fd5b505050506040513d602081101561331c57600080fd5b81019080805190602001909291905050507bffffffffffffffffffffffffffffffffffffffffffffffffffffffff1916146133a2576040517f08c379a00000000000000000000000000000000000000000000000000000000081526004018080602001828103825260258152602001806135e86025913960400191505060405180910390fd5b506134ec565b601e8360ff16111561347a576001858051906020012060405160200180807f19457468657265756d205369676e6564204d6573736167653a0a333200000000815250601c018281526020019150506040516020818303038152906040528051906020012060048503848460405160008152602001604052604051808581526020018460ff1660ff1681526020018381526020018281526020019450505050506020604051602081039080840390855afa158015613469573d6000803e3d6000fd5b5050506020604051035193506134eb565b6001858051906020012084848460405160008152602001604052604051808581526020018460ff1660ff1681526020018381526020018281526020019450505050506020604051602081039080840390855afa1580156134de573d6000803e3d6000fd5b5050506020604051035193505b5b5050505b92915050565b60008060008360410260208101860151925060408101860151915060ff60418201870151169350509250925092565b6040518060a0016040528060006bffffffffffffffffffffffff16815260200160006bffffffffffffffffffffffff168152602001600061ffff168152602001600063ffffffff168152602001600061ffff1681525090565b6040518060600160405280600073ffffffffffffffffffffffffffffffffffffffff168152602001600065ffffffffffff168152602001600065ffffffffffff1681525090565b6040518060a0016040528060059060208202803883398082019150509050509056fe436f756c64206e6f742076616c6964617465204549502d31323731207369676e617475726564656c6567617465735b6d73672e73656e6465725d5b75696e7434382864656c6567617465295d2e64656c6567617465203d3d2064656c6567617465416c6c6f77616e63655472616e73666572286164647265737320736166652c6164647265737320746f6b656e2c75696e74393620616d6f756e742c61646472657373207061796d656e74546f6b656e2c75696e743936207061796d656e742c75696e743136206e6f6e636529657870656374656444656c6567617465203d3d207369676e65722026262064656c6567617465735b616464726573732873616665295d5b75696e743438287369676e6572295d2e64656c6567617465203d3d207369676e65726e65775370656e74203e20616c6c6f77616e63652e7370656e74202626206e65775370656e74203c3d20616c6c6f77616e63652e616d6f756e746e65775370656e74203e207061796d656e74416c6c6f77616e63652e7370656e74202626206e65775370656e74203c3d207061796d656e74416c6c6f77616e63652e616d6f756e74a265627a7a7230582089e6c81bdfa4bb80a5f6bd6cb073fdcb4fb64d564b02765f1e5db7703dda824564736f6c634300050a0032",
					"opcodes": "PUSH1 0x80 PUSH1 0x40 MSTORE CALLVALUE DUP1 ISZERO PUSH2 0x10 JUMPI PUSH1 0x0 DUP1 REVERT JUMPDEST POP PUSH32 0x35AFF83D86937D35B32E04F0DDC6FF469290EEF2F1B692D8A815C89404D4749 PUSH1 0x0 SHL ADDRESS PUSH1 0x40 MLOAD PUSH1 0x20 ADD DUP1 DUP4 DUP2 MSTORE PUSH1 0x20 ADD DUP3 PUSH20 0xFFFFFFFFFFFFFFFFFFFFFFFFFFFFFFFFFFFFFFFF AND PUSH20 0xFFFFFFFFFFFFFFFFFFFFFFFFFFFFFFFFFFFFFFFF AND DUP2 MSTORE PUSH1 0x20 ADD SWAP3 POP POP POP PUSH1 0x40 MLOAD PUSH1 0x20 DUP2 DUP4 SUB SUB DUP2 MSTORE SWAP1 PUSH1 0x40 MSTORE DUP1 MLOAD SWAP1 PUSH1 0x20 ADD KECCAK256 PUSH1 0x4 DUP2 SWAP1 SSTORE POP PUSH2 0x37C4 DUP1 PUSH2 0xA4 PUSH1 0x0 CODECOPY PUSH1 0x0 RETURN INVALID PUSH1 0x80 PUSH1 0x40 MSTORE CALLVALUE DUP1 ISZERO PUSH2 0x10 JUMPI PUSH1 0x0 DUP1 REVERT JUMPDEST POP PUSH1 0x4 CALLDATASIZE LT PUSH2 0x116 JUMPI PUSH1 0x0 CALLDATALOAD PUSH1 0xE0 SHR DUP1 PUSH4 0xBEAEB388 GT PUSH2 0xA2 JUMPI DUP1 PUSH4 0xE71BDF41 GT PUSH2 0x71 JUMPI DUP1 PUSH4 0xE71BDF41 EQ PUSH2 0x94B JUMPI DUP1 PUSH4 0xEB37ABE0 EQ PUSH2 0x98F JUMPI DUP1 PUSH4 0xF56E81FA EQ PUSH2 0xA5E JUMPI DUP1 PUSH4 0xF698DA25 EQ PUSH2 0xB0C JUMPI DUP1 PUSH4 0xFFA1AD74 EQ PUSH2 0xB2A JUMPI PUSH2 0x116 JUMP JUMPDEST DUP1 PUSH4 0xBEAEB388 EQ PUSH2 0x693 JUMPI DUP1 PUSH4 0xC19BF50E EQ PUSH2 0x72D JUMPI DUP1 PUSH4 0xCE60C692 EQ PUSH2 0x791 JUMPI DUP1 PUSH4 0xD626E043 EQ PUSH2 0x855 JUMPI PUSH2 0x116 JUMP JUMPDEST DUP1 PUSH4 0x67E7646F GT PUSH2 0xE9 JUMPI DUP1 PUSH4 0x67E7646F EQ PUSH2 0x34B JUMPI DUP1 PUSH4 0x8D0E8E1D EQ PUSH2 0x38F JUMPI DUP1 PUSH4 0x94B31FBD EQ PUSH2 0x448 JUMPI DUP1 PUSH4 0xA3F4DF7E EQ PUSH2 0x508 JUMPI DUP1 PUSH4 0xB713C9D4 EQ PUSH2 0x58B JUMPI PUSH2 0x116 JUMP JUMPDEST DUP1 PUSH4 0x1DB61B54 EQ PUSH2 0x11B JUMPI DUP1 PUSH4 0x310A3BB1 EQ PUSH2 0x139 JUMPI DUP1 PUSH4 0x43ABF5FE EQ PUSH2 0x1A1 JUMPI DUP1 PUSH4 0x4515641A EQ PUSH2 0x1BF JUMPI JUMPDEST PUSH1 0x0 DUP1 REVERT JUMPDEST PUSH2 0x123 PUSH2 0xBAD JUMP JUMPDEST PUSH1 0x40 MLOAD DUP1 DUP3 DUP2 MSTORE PUSH1 0x20 ADD SWAP2 POP POP PUSH1 0x40 MLOAD DUP1 SWAP2 SUB SWAP1 RETURN JUMPDEST PUSH2 0x17B PUSH1 0x4 DUP1 CALLDATASIZE SUB PUSH1 0x20 DUP2 LT ISZERO PUSH2 0x14F JUMPI PUSH1 0x0 DUP1 REVERT JUMPDEST DUP2 ADD SWAP1 DUP1 DUP1 CALLDATALOAD PUSH20 0xFFFFFFFFFFFFFFFFFFFFFFFFFFFFFFFFFFFFFFFF AND SWAP1 PUSH1 0x20 ADD SWAP1 SWAP3 SWAP2 SWAP1 POP POP POP PUSH2 0xBD4 JUMP JUMPDEST PUSH1 0x40 MLOAD DUP1 DUP3 PUSH6 0xFFFFFFFFFFFF AND PUSH6 0xFFFFFFFFFFFF AND DUP2 MSTORE PUSH1 0x20 ADD SWAP2 POP POP PUSH1 0x40 MLOAD DUP1 SWAP2 SUB SWAP1 RETURN JUMPDEST PUSH2 0x1A9 PUSH2 0xBF9 JUMP JUMPDEST PUSH1 0x40 MLOAD DUP1 DUP3 DUP2 MSTORE PUSH1 0x20 ADD SWAP2 POP POP PUSH1 0x40 MLOAD DUP1 SWAP2 SUB SWAP1 RETURN JUMPDEST PUSH2 0x349 PUSH1 0x4 DUP1 CALLDATASIZE SUB PUSH2 0x100 DUP2 LT ISZERO PUSH2 0x1D6 JUMPI PUSH1 0x0 DUP1 REVERT JUMPDEST DUP2 ADD SWAP1 DUP1 DUP1 CALLDATALOAD PUSH20 0xFFFFFFFFFFFFFFFFFFFFFFFFFFFFFFFFFFFFFFFF AND SWAP1 PUSH1 0x20 ADD SWAP1 SWAP3 SWAP2 SWAP1 DUP1 CALLDATALOAD PUSH20 0xFFFFFFFFFFFFFFFFFFFFFFFFFFFFFFFFFFFFFFFF AND SWAP1 PUSH1 0x20 ADD SWAP1 SWAP3 SWAP2 SWAP1 DUP1 CALLDATALOAD PUSH20 0xFFFFFFFFFFFFFFFFFFFFFFFFFFFFFFFFFFFFFFFF AND SWAP1 PUSH1 0x20 ADD SWAP1 SWAP3 SWAP2 SWAP1 DUP1 CALLDATALOAD PUSH12 0xFFFFFFFFFFFFFFFFFFFFFFFF AND SWAP1 PUSH1 0x20 ADD SWAP1 SWAP3 SWAP2 SWAP1 DUP1 CALLDATALOAD PUSH20 0xFFFFFFFFFFFFFFFFFFFFFFFFFFFFFFFFFFFFFFFF AND SWAP1 PUSH1 0x20 ADD SWAP1 SWAP3 SWAP2 SWAP1 DUP1 CALLDATALOAD PUSH12 0xFFFFFFFFFFFFFFFFFFFFFFFF AND SWAP1 PUSH1 0x20 ADD SWAP1 SWAP3 SWAP2 SWAP1 DUP1 CALLDATALOAD PUSH20 0xFFFFFFFFFFFFFFFFFFFFFFFFFFFFFFFFFFFFFFFF AND SWAP1 PUSH1 0x20 ADD SWAP1 SWAP3 SWAP2 SWAP1 DUP1 CALLDATALOAD SWAP1 PUSH1 0x20 ADD SWAP1 PUSH5 0x100000000 DUP2 GT ISZERO PUSH2 0x2C3 JUMPI PUSH1 0x0 DUP1 REVERT JUMPDEST DUP3 ADD DUP4 PUSH1 0x20 DUP3 ADD GT ISZERO PUSH2 0x2D5 JUMPI PUSH1 0x0 DUP1 REVERT JUMPDEST DUP1 CALLDATALOAD SWAP1 PUSH1 0x20 ADD SWAP2 DUP5 PUSH1 0x1 DUP4 MUL DUP5 ADD GT PUSH5 0x100000000 DUP4 GT OR ISZERO PUSH2 0x2F7 JUMPI PUSH1 0x0 DUP1 REVERT JUMPDEST SWAP2 SWAP1 DUP1 DUP1 PUSH1 0x1F ADD PUSH1 0x20 DUP1 SWAP2 DIV MUL PUSH1 0x20 ADD PUSH1 0x40 MLOAD SWAP1 DUP2 ADD PUSH1 0x40 MSTORE DUP1 SWAP4 SWAP3 SWAP2 SWAP1 DUP2 DUP2 MSTORE PUSH1 0x20 ADD DUP4 DUP4 DUP1 DUP3 DUP5 CALLDATACOPY PUSH1 0x0 DUP2 DUP5 ADD MSTORE PUSH1 0x1F NOT PUSH1 0x1F DUP3 ADD AND SWAP1 POP DUP1 DUP4 ADD SWAP3 POP POP POP POP POP POP POP SWAP2 SWAP3 SWAP2 SWAP3 SWAP1 POP POP POP PUSH2 0xC15 JUMP JUMPDEST STOP JUMPDEST PUSH2 0x38D PUSH1 0x4 DUP1 CALLDATASIZE SUB PUSH1 0x20 DUP2 LT ISZERO PUSH2 0x361 JUMPI PUSH1 0x0 DUP1 REVERT JUMPDEST DUP2 ADD SWAP1 DUP1 DUP1 CALLDATALOAD PUSH20 0xFFFFFFFFFFFFFFFFFFFFFFFFFFFFFFFFFFFFFFFF AND SWAP1 PUSH1 0x20 ADD SWAP1 SWAP3 SWAP2 SWAP1 POP POP POP PUSH2 0x1022 JUMP JUMPDEST STOP JUMPDEST PUSH2 0x3F1 PUSH1 0x4 DUP1 CALLDATASIZE SUB PUSH1 0x40 DUP2 LT ISZERO PUSH2 0x3A5 JUMPI PUSH1 0x0 DUP1 REVERT JUMPDEST DUP2 ADD SWAP1 DUP1 DUP1 CALLDATALOAD PUSH20 0xFFFFFFFFFFFFFFFFFFFFFFFFFFFFFFFFFFFFFFFF AND SWAP1 PUSH1 0x20 ADD SWAP1 SWAP3 SWAP2 SWAP1 DUP1 CALLDATALOAD PUSH20 0xFFFFFFFFFFFFFFFFFFFFFFFFFFFFFFFFFFFFFFFF AND SWAP1 PUSH1 0x20 ADD SWAP1 SWAP3 SWAP2 SWAP1 POP POP POP PUSH2 0x149E JUMP JUMPDEST PUSH1 0x40 MLOAD DUP1 DUP1 PUSH1 0x20 ADD DUP3 DUP2 SUB DUP3 MSTORE DUP4 DUP2 DUP2 MLOAD DUP2 MSTORE PUSH1 0x20 ADD SWAP2 POP DUP1 MLOAD SWAP1 PUSH1 0x20 ADD SWAP1 PUSH1 0x20 MUL DUP1 DUP4 DUP4 PUSH1 0x0 JUMPDEST DUP4 DUP2 LT ISZERO PUSH2 0x434 JUMPI DUP1 DUP3 ADD MLOAD DUP2 DUP5 ADD MSTORE PUSH1 0x20 DUP2 ADD SWAP1 POP PUSH2 0x419 JUMP JUMPDEST POP POP POP POP SWAP1 POP ADD SWAP3 POP POP POP PUSH1 0x40 MLOAD DUP1 SWAP2 SUB SWAP1 RETURN JUMPDEST PUSH2 0x4CA PUSH1 0x4 DUP1 CALLDATASIZE SUB PUSH1 0x60 DUP2 LT ISZERO PUSH2 0x45E JUMPI PUSH1 0x0 DUP1 REVERT JUMPDEST DUP2 ADD SWAP1 DUP1 DUP1 CALLDATALOAD PUSH20 0xFFFFFFFFFFFFFFFFFFFFFFFFFFFFFFFFFFFFFFFF AND SWAP1 PUSH1 0x20 ADD SWAP1 SWAP3 SWAP2 SWAP1 DUP1 CALLDATALOAD PUSH20 0xFFFFFFFFFFFFFFFFFFFFFFFFFFFFFFFFFFFFFFFF AND SWAP1 PUSH1 0x20 ADD SWAP1 SWAP3 SWAP2 SWAP1 DUP1 CALLDATALOAD PUSH20 0xFFFFFFFFFFFFFFFFFFFFFFFFFFFFFFFFFFFFFFFF AND SWAP1 PUSH1 0x20 ADD SWAP1 SWAP3 SWAP2 SWAP1 POP POP POP PUSH2 0x15A9 JUMP JUMPDEST PUSH1 0x40 MLOAD DUP1 DUP3 PUSH1 0x5 PUSH1 0x20 MUL DUP1 DUP4 DUP4 PUSH1 0x0 JUMPDEST DUP4 DUP2 LT ISZERO PUSH2 0x4F5 JUMPI DUP1 DUP3 ADD MLOAD DUP2 DUP5 ADD MSTORE PUSH1 0x20 DUP2 ADD SWAP1 POP PUSH2 0x4DA JUMP JUMPDEST POP POP POP POP SWAP1 POP ADD SWAP2 POP POP PUSH1 0x40 MLOAD DUP1 SWAP2 SUB SWAP1 RETURN JUMPDEST PUSH2 0x510 PUSH2 0x1635 JUMP JUMPDEST PUSH1 0x40 MLOAD DUP1 DUP1 PUSH1 0x20 ADD DUP3 DUP2 SUB DUP3 MSTORE DUP4 DUP2 DUP2 MLOAD DUP2 MSTORE PUSH1 0x20 ADD SWAP2 POP DUP1 MLOAD SWAP1 PUSH1 0x20 ADD SWAP1 DUP1 DUP4 DUP4 PUSH1 0x0 JUMPDEST DUP4 DUP2 LT ISZERO PUSH2 0x550 JUMPI DUP1 DUP3 ADD MLOAD DUP2 DUP5 ADD MSTORE PUSH1 0x20 DUP2 ADD SWAP1 POP PUSH2 0x535 JUMP JUMPDEST POP POP POP POP SWAP1 POP SWAP1 DUP2 ADD SWAP1 PUSH1 0x1F AND DUP1 ISZERO PUSH2 0x57D JUMPI DUP1 DUP3 SUB DUP1 MLOAD PUSH1 0x1 DUP4 PUSH1 0x20 SUB PUSH2 0x100 EXP SUB NOT AND DUP2 MSTORE PUSH1 0x20 ADD SWAP2 POP JUMPDEST POP SWAP3 POP POP POP PUSH1 0x40 MLOAD DUP1 SWAP2 SUB SWAP1 RETURN JUMPDEST PUSH2 0x60D PUSH1 0x4 DUP1 CALLDATASIZE SUB PUSH1 0x60 DUP2 LT ISZERO PUSH2 0x5A1 JUMPI PUSH1 0x0 DUP1 REVERT JUMPDEST DUP2 ADD SWAP1 DUP1 DUP1 CALLDATALOAD PUSH20 0xFFFFFFFFFFFFFFFFFFFFFFFFFFFFFFFFFFFFFFFF AND SWAP1 PUSH1 0x20 ADD SWAP1 SWAP3 SWAP2 SWAP1 DUP1 CALLDATALOAD PUSH20 0xFFFFFFFFFFFFFFFFFFFFFFFFFFFFFFFFFFFFFFFF AND SWAP1 PUSH1 0x20 ADD SWAP1 SWAP3 SWAP2 SWAP1 DUP1 CALLDATALOAD PUSH20 0xFFFFFFFFFFFFFFFFFFFFFFFFFFFFFFFFFFFFFFFF AND SWAP1 PUSH1 0x20 ADD SWAP1 SWAP3 SWAP2 SWAP1 POP POP POP PUSH2 0x166E JUMP JUMPDEST PUSH1 0x40 MLOAD DUP1 DUP7 PUSH12 0xFFFFFFFFFFFFFFFFFFFFFFFF AND PUSH12 0xFFFFFFFFFFFFFFFFFFFFFFFF AND DUP2 MSTORE PUSH1 0x20 ADD DUP6 PUSH12 0xFFFFFFFFFFFFFFFFFFFFFFFF AND PUSH12 0xFFFFFFFFFFFFFFFFFFFFFFFF AND DUP2 MSTORE PUSH1 0x20 ADD DUP5 PUSH2 0xFFFF AND PUSH2 0xFFFF AND DUP2 MSTORE PUSH1 0x20 ADD DUP4 PUSH4 0xFFFFFFFF AND PUSH4 0xFFFFFFFF AND DUP2 MSTORE PUSH1 0x20 ADD DUP3 PUSH2 0xFFFF AND PUSH2 0xFFFF AND DUP2 MSTORE PUSH1 0x20 ADD SWAP6 POP POP POP POP POP POP PUSH1 0x40 MLOAD DUP1 SWAP2 SUB SWAP1 RETURN JUMPDEST PUSH2 0x72B PUSH1 0x4 DUP1 CALLDATASIZE SUB PUSH1 0xA0 DUP2 LT ISZERO PUSH2 0x6A9 JUMPI PUSH1 0x0 DUP1 REVERT JUMPDEST DUP2 ADD SWAP1 DUP1 DUP1 CALLDATALOAD PUSH20 0xFFFFFFFFFFFFFFFFFFFFFFFFFFFFFFFFFFFFFFFF AND SWAP1 PUSH1 0x20 ADD SWAP1 SWAP3 SWAP2 SWAP1 DUP1 CALLDATALOAD PUSH20 0xFFFFFFFFFFFFFFFFFFFFFFFFFFFFFFFFFFFFFFFF AND SWAP1 PUSH1 0x20 ADD SWAP1 SWAP3 SWAP2 SWAP1 DUP1 CALLDATALOAD PUSH12 0xFFFFFFFFFFFFFFFFFFFFFFFF AND SWAP1 PUSH1 0x20 ADD SWAP1 SWAP3 SWAP2 SWAP1 DUP1 CALLDATALOAD PUSH2 0xFFFF AND SWAP1 PUSH1 0x20 ADD SWAP1 SWAP3 SWAP2 SWAP1 DUP1 CALLDATALOAD PUSH4 0xFFFFFFFF AND SWAP1 PUSH1 0x20 ADD SWAP1 SWAP3 SWAP2 SWAP1 POP POP POP PUSH2 0x171A JUMP JUMPDEST STOP JUMPDEST PUSH2 0x78F PUSH1 0x4 DUP1 CALLDATASIZE SUB PUSH1 0x40 DUP2 LT ISZERO PUSH2 0x743 JUMPI PUSH1 0x0 DUP1 REVERT JUMPDEST DUP2 ADD SWAP1 DUP1 DUP1 CALLDATALOAD PUSH20 0xFFFFFFFFFFFFFFFFFFFFFFFFFFFFFFFFFFFFFFFF AND SWAP1 PUSH1 0x20 ADD SWAP1 SWAP3 SWAP2 SWAP1 DUP1 CALLDATALOAD PUSH20 0xFFFFFFFFFFFFFFFFFFFFFFFFFFFFFFFFFFFFFFFF AND SWAP1 PUSH1 0x20 ADD SWAP1 SWAP3 SWAP2 SWAP1 POP POP POP PUSH2 0x1B71 JUMP JUMPDEST STOP JUMPDEST PUSH2 0x7E5 PUSH1 0x4 DUP1 CALLDATASIZE SUB PUSH1 0x40 DUP2 LT ISZERO PUSH2 0x7A7 JUMPI PUSH1 0x0 DUP1 REVERT JUMPDEST DUP2 ADD SWAP1 DUP1 DUP1 CALLDATALOAD PUSH20 0xFFFFFFFFFFFFFFFFFFFFFFFFFFFFFFFFFFFFFFFF AND SWAP1 PUSH1 0x20 ADD SWAP1 SWAP3 SWAP2 SWAP1 DUP1 CALLDATALOAD PUSH6 0xFFFFFFFFFFFF AND SWAP1 PUSH1 0x20 ADD SWAP1 SWAP3 SWAP2 SWAP1 POP POP POP PUSH2 0x1BC0 JUMP JUMPDEST PUSH1 0x40 MLOAD DUP1 DUP5 PUSH20 0xFFFFFFFFFFFFFFFFFFFFFFFFFFFFFFFFFFFFFFFF AND PUSH20 0xFFFFFFFFFFFFFFFFFFFFFFFFFFFFFFFFFFFFFFFF AND DUP2 MSTORE PUSH1 0x20 ADD DUP4 PUSH6 0xFFFFFFFFFFFF AND PUSH6 0xFFFFFFFFFFFF AND DUP2 MSTORE PUSH1 0x20 ADD DUP3 PUSH6 0xFFFFFFFFFFFF AND PUSH6 0xFFFFFFFFFFFF AND DUP2 MSTORE PUSH1 0x20 ADD SWAP4 POP POP POP POP PUSH1 0x40 MLOAD DUP1 SWAP2 SUB SWAP1 RETURN JUMPDEST PUSH2 0x935 PUSH1 0x4 DUP1 CALLDATASIZE SUB PUSH1 0xE0 DUP2 LT ISZERO PUSH2 0x86B JUMPI PUSH1 0x0 DUP1 REVERT JUMPDEST DUP2 ADD SWAP1 DUP1 DUP1 CALLDATALOAD PUSH20 0xFFFFFFFFFFFFFFFFFFFFFFFFFFFFFFFFFFFFFFFF AND SWAP1 PUSH1 0x20 ADD SWAP1 SWAP3 SWAP2 SWAP1 DUP1 CALLDATALOAD PUSH20 0xFFFFFFFFFFFFFFFFFFFFFFFFFFFFFFFFFFFFFFFF AND SWAP1 PUSH1 0x20 ADD SWAP1 SWAP3 SWAP2 SWAP1 DUP1 CALLDATALOAD PUSH20 0xFFFFFFFFFFFFFFFFFFFFFFFFFFFFFFFFFFFFFFFF AND SWAP1 PUSH1 0x20 ADD SWAP1 SWAP3 SWAP2 SWAP1 DUP1 CALLDATALOAD PUSH12 0xFFFFFFFFFFFFFFFFFFFFFFFF AND SWAP1 PUSH1 0x20 ADD SWAP1 SWAP3 SWAP2 SWAP1 DUP1 CALLDATALOAD PUSH20 0xFFFFFFFFFFFFFFFFFFFFFFFFFFFFFFFFFFFFFFFF AND SWAP1 PUSH1 0x20 ADD SWAP1 SWAP3 SWAP2 SWAP1 DUP1 CALLDATALOAD PUSH12 0xFFFFFFFFFFFFFFFFFFFFFFFF AND SWAP1 PUSH1 0x20 ADD SWAP1 SWAP3 SWAP2 SWAP1 DUP1 CALLDATALOAD PUSH2 0xFFFF AND SWAP1 PUSH1 0x20 ADD SWAP1 SWAP3 SWAP2 SWAP1 POP POP POP PUSH2 0x1C3B JUMP JUMPDEST PUSH1 0x40 MLOAD DUP1 DUP3 DUP2 MSTORE PUSH1 0x20 ADD SWAP2 POP POP PUSH1 0x40 MLOAD DUP1 SWAP2 SUB SWAP1 RETURN JUMPDEST PUSH2 0x98D PUSH1 0x4 DUP1 CALLDATASIZE SUB PUSH1 0x20 DUP2 LT ISZERO PUSH2 0x961 JUMPI PUSH1 0x0 DUP1 REVERT JUMPDEST DUP2 ADD SWAP1 DUP1 DUP1 CALLDATALOAD PUSH20 0xFFFFFFFFFFFFFFFFFFFFFFFFFFFFFFFFFFFFFFFF AND SWAP1 PUSH1 0x20 ADD SWAP1 SWAP3 SWAP2 SWAP1 POP POP POP PUSH2 0x1C60 JUMP JUMPDEST STOP JUMPDEST PUSH2 0x9F0 PUSH1 0x4 DUP1 CALLDATASIZE SUB PUSH1 0x60 DUP2 LT ISZERO PUSH2 0x9A5 JUMPI PUSH1 0x0 DUP1 REVERT JUMPDEST DUP2 ADD SWAP1 DUP1 DUP1 CALLDATALOAD PUSH20 0xFFFFFFFFFFFFFFFFFFFFFFFFFFFFFFFFFFFFFFFF AND SWAP1 PUSH1 0x20 ADD SWAP1 SWAP3 SWAP2 SWAP1 DUP1 CALLDATALOAD PUSH6 0xFFFFFFFFFFFF AND SWAP1 PUSH1 0x20 ADD SWAP1 SWAP3 SWAP2 SWAP1 DUP1 CALLDATALOAD PUSH1 0xFF AND SWAP1 PUSH1 0x20 ADD SWAP1 SWAP3 SWAP2 SWAP1 POP POP POP PUSH2 0x20C5 JUMP JUMPDEST PUSH1 0x40 MLOAD DUP1 DUP1 PUSH1 0x20 ADD DUP4 PUSH6 0xFFFFFFFFFFFF AND PUSH6 0xFFFFFFFFFFFF AND DUP2 MSTORE PUSH1 0x20 ADD DUP3 DUP2 SUB DUP3 MSTORE DUP5 DUP2 DUP2 MLOAD DUP2 MSTORE PUSH1 0x20 ADD SWAP2 POP DUP1 MLOAD SWAP1 PUSH1 0x20 ADD SWAP1 PUSH1 0x20 MUL DUP1 DUP4 DUP4 PUSH1 0x0 JUMPDEST DUP4 DUP2 LT ISZERO PUSH2 0xA49 JUMPI DUP1 DUP3 ADD MLOAD DUP2 DUP5 ADD MSTORE PUSH1 0x20 DUP2 ADD SWAP1 POP PUSH2 0xA2E JUMP JUMPDEST POP POP POP POP SWAP1 POP ADD SWAP4 POP POP POP POP PUSH1 0x40 MLOAD DUP1 SWAP2 SUB SWAP1 RETURN JUMPDEST PUSH2 0xACA PUSH1 0x4 DUP1 CALLDATASIZE SUB PUSH1 0x60 DUP2 LT ISZERO PUSH2 0xA74 JUMPI PUSH1 0x0 DUP1 REVERT JUMPDEST DUP2 ADD SWAP1 DUP1 DUP1 CALLDATALOAD PUSH20 0xFFFFFFFFFFFFFFFFFFFFFFFFFFFFFFFFFFFFFFFF AND SWAP1 PUSH1 0x20 ADD SWAP1 SWAP3 SWAP2 SWAP1 DUP1 CALLDATALOAD PUSH20 0xFFFFFFFFFFFFFFFFFFFFFFFFFFFFFFFFFFFFFFFF AND SWAP1 PUSH1 0x20 ADD SWAP1 SWAP3 SWAP2 SWAP1 DUP1 CALLDATALOAD SWAP1 PUSH1 0x20 ADD SWAP1 SWAP3 SWAP2 SWAP1 POP POP POP PUSH2 0x246E JUMP JUMPDEST PUSH1 0x40 MLOAD DUP1 DUP3 PUSH20 0xFFFFFFFFFFFFFFFFFFFFFFFFFFFFFFFFFFFFFFFF AND PUSH20 0xFFFFFFFFFFFFFFFFFFFFFFFFFFFFFFFFFFFFFFFF AND DUP2 MSTORE PUSH1 0x20 ADD SWAP2 POP POP PUSH1 0x40 MLOAD DUP1 SWAP2 SUB SWAP1 RETURN JUMPDEST PUSH2 0xB14 PUSH2 0x24C6 JUMP JUMPDEST PUSH1 0x40 MLOAD DUP1 DUP3 DUP2 MSTORE PUSH1 0x20 ADD SWAP2 POP POP PUSH1 0x40 MLOAD DUP1 SWAP2 SUB SWAP1 RETURN JUMPDEST PUSH2 0xB32 PUSH2 0x24CC JUMP JUMPDEST PUSH1 0x40 MLOAD DUP1 DUP1 PUSH1 0x20 ADD DUP3 DUP2 SUB DUP3 MSTORE DUP4 DUP2 DUP2 MLOAD DUP2 MSTORE PUSH1 0x20 ADD SWAP2 POP DUP1 MLOAD SWAP1 PUSH1 0x20 ADD SWAP1 DUP1 DUP4 DUP4 PUSH1 0x0 JUMPDEST DUP4 DUP2 LT ISZERO PUSH2 0xB72 JUMPI DUP1 DUP3 ADD MLOAD DUP2 DUP5 ADD MSTORE PUSH1 0x20 DUP2 ADD SWAP1 POP PUSH2 0xB57 JUMP JUMPDEST POP POP POP POP SWAP1 POP SWAP1 DUP2 ADD SWAP1 PUSH1 0x1F AND DUP1 ISZERO PUSH2 0xB9F JUMPI DUP1 DUP3 SUB DUP1 MLOAD PUSH1 0x1 DUP4 PUSH1 0x20 SUB PUSH2 0x100 EXP SUB NOT AND DUP2 MSTORE PUSH1 0x20 ADD SWAP2 POP JUMPDEST POP SWAP3 POP POP POP PUSH1 0x40 MLOAD DUP1 SWAP2 SUB SWAP1 RETURN JUMPDEST PUSH32 0x35AFF83D86937D35B32E04F0DDC6FF469290EEF2F1B692D8A815C89404D4749 PUSH1 0x0 SHL DUP2 JUMP JUMPDEST PUSH1 0x3 PUSH1 0x20 MSTORE DUP1 PUSH1 0x0 MSTORE PUSH1 0x40 PUSH1 0x0 KECCAK256 PUSH1 0x0 SWAP2 POP SLOAD SWAP1 PUSH2 0x100 EXP SWAP1 DIV PUSH6 0xFFFFFFFFFFFF AND DUP2 JUMP JUMPDEST PUSH1 0x40 MLOAD DUP1 DUP1 PUSH2 0x3649 PUSH1 0x6C SWAP2 CODECOPY PUSH1 0x6C ADD SWAP1 POP PUSH1 0x40 MLOAD DUP1 SWAP2 SUB SWAP1 KECCAK256 DUP2 JUMP JUMPDEST PUSH2 0xC1D PUSH2 0x3525 JUMP JUMPDEST PUSH2 0xC28 DUP10 DUP5 DUP11 PUSH2 0x2505 JUMP JUMPDEST SWAP1 POP PUSH1 0x60 PUSH2 0xC3F DUP11 DUP11 DUP11 DUP11 DUP11 DUP11 DUP9 PUSH1 0x80 ADD MLOAD PUSH2 0x2766 JUMP JUMPDEST SWAP1 POP PUSH1 0x1 DUP3 PUSH1 0x80 ADD MLOAD ADD DUP3 PUSH1 0x80 ADD SWAP1 PUSH2 0xFFFF AND SWAP1 DUP2 PUSH2 0xFFFF AND DUP2 MSTORE POP POP PUSH1 0x0 DUP8 DUP4 PUSH1 0x20 ADD MLOAD ADD SWAP1 POP DUP3 PUSH1 0x20 ADD MLOAD PUSH12 0xFFFFFFFFFFFFFFFFFFFFFFFF AND DUP2 PUSH12 0xFFFFFFFFFFFFFFFFFFFFFFFF AND GT DUP1 ISZERO PUSH2 0xCB6 JUMPI POP DUP3 PUSH1 0x0 ADD MLOAD PUSH12 0xFFFFFFFFFFFFFFFFFFFFFFFF AND DUP2 PUSH12 0xFFFFFFFFFFFFFFFFFFFFFFFF AND GT ISZERO JUMPDEST PUSH2 0xD0B JUMPI PUSH1 0x40 MLOAD PUSH32 0x8C379A000000000000000000000000000000000000000000000000000000000 DUP2 MSTORE PUSH1 0x4 ADD DUP1 DUP1 PUSH1 0x20 ADD DUP3 DUP2 SUB DUP3 MSTORE PUSH1 0x3A DUP2 MSTORE PUSH1 0x20 ADD DUP1 PUSH2 0x370E PUSH1 0x3A SWAP2 CODECOPY PUSH1 0x40 ADD SWAP2 POP POP PUSH1 0x40 MLOAD DUP1 SWAP2 SUB SWAP1 REVERT JUMPDEST DUP1 DUP4 PUSH1 0x20 ADD SWAP1 PUSH12 0xFFFFFFFFFFFFFFFFFFFFFFFF AND SWAP1 DUP2 PUSH12 0xFFFFFFFFFFFFFFFFFFFFFFFF AND DUP2 MSTORE POP POP PUSH1 0x0 DUP7 PUSH12 0xFFFFFFFFFFFFFFFFFFFFFFFF AND GT ISZERO PUSH2 0xEB0 JUMPI PUSH2 0xD52 PUSH2 0x3525 JUMP JUMPDEST DUP11 PUSH20 0xFFFFFFFFFFFFFFFFFFFFFFFFFFFFFFFFFFFFFFFF AND DUP9 PUSH20 0xFFFFFFFFFFFFFFFFFFFFFFFFFFFFFFFFFFFFFFFF AND EQ PUSH2 0xD95 JUMPI PUSH2 0xD90 DUP13 DUP8 DUP11 PUSH2 0x2505 JUMP JUMPDEST PUSH2 0xD97 JUMP JUMPDEST DUP4 JUMPDEST SWAP1 POP DUP7 DUP2 PUSH1 0x20 ADD MLOAD ADD SWAP2 POP DUP1 PUSH1 0x20 ADD MLOAD PUSH12 0xFFFFFFFFFFFFFFFFFFFFFFFF AND DUP3 PUSH12 0xFFFFFFFFFFFFFFFFFFFFFFFF AND GT DUP1 ISZERO PUSH2 0xDF1 JUMPI POP DUP1 PUSH1 0x0 ADD MLOAD PUSH12 0xFFFFFFFFFFFFFFFFFFFFFFFF AND DUP3 PUSH12 0xFFFFFFFFFFFFFFFFFFFFFFFF AND GT ISZERO JUMPDEST PUSH2 0xE46 JUMPI PUSH1 0x40 MLOAD PUSH32 0x8C379A000000000000000000000000000000000000000000000000000000000 DUP2 MSTORE PUSH1 0x4 ADD DUP1 DUP1 PUSH1 0x20 ADD DUP3 DUP2 SUB DUP3 MSTORE PUSH1 0x48 DUP2 MSTORE PUSH1 0x20 ADD DUP1 PUSH2 0x3748 PUSH1 0x48 SWAP2 CODECOPY PUSH1 0x60 ADD SWAP2 POP POP PUSH1 0x40 MLOAD DUP1 SWAP2 SUB SWAP1 REVERT JUMPDEST DUP2 DUP2 PUSH1 0x20 ADD SWAP1 PUSH12 0xFFFFFFFFFFFFFFFFFFFFFFFF AND SWAP1 DUP2 PUSH12 0xFFFFFFFFFFFFFFFFFFFFFFFF AND DUP2 MSTORE POP POP DUP11 PUSH20 0xFFFFFFFFFFFFFFFFFFFFFFFFFFFFFFFFFFFFFFFF AND DUP9 PUSH20 0xFFFFFFFFFFFFFFFFFFFFFFFFFFFFFFFFFFFFFFFF AND EQ PUSH2 0xEAE JUMPI PUSH2 0xEAD DUP13 DUP8 DUP11 DUP5 PUSH2 0x29AB JUMP JUMPDEST JUMPDEST POP JUMPDEST PUSH2 0xEBC DUP12 DUP7 DUP13 DUP7 PUSH2 0x29AB JUMP JUMPDEST PUSH2 0xEC8 DUP6 DUP6 DUP5 DUP15 PUSH2 0x2B48 JUMP JUMPDEST PUSH1 0x0 DUP7 PUSH12 0xFFFFFFFFFFFFFFFFFFFFFFFF AND GT ISZERO PUSH2 0xEEC JUMPI PUSH2 0xEEB DUP12 DUP9 ORIGIN DUP10 PUSH2 0x2C9B JUMP JUMPDEST JUMPDEST PUSH2 0xEF8 DUP12 DUP12 DUP12 DUP12 PUSH2 0x2C9B JUMP JUMPDEST DUP11 PUSH20 0xFFFFFFFFFFFFFFFFFFFFFFFFFFFFFFFFFFFFFFFF AND PUSH32 0xA11CCA2C2027E28AB0046AAB4D4040F59D8B06E819CCD974C1E53E86AA814C19 DUP7 DUP13 DUP13 DUP13 PUSH1 0x1 DUP10 PUSH1 0x80 ADD MLOAD SUB PUSH1 0x40 MLOAD DUP1 DUP7 PUSH20 0xFFFFFFFFFFFFFFFFFFFFFFFFFFFFFFFFFFFFFFFF AND PUSH20 0xFFFFFFFFFFFFFFFFFFFFFFFFFFFFFFFFFFFFFFFF AND DUP2 MSTORE PUSH1 0x20 ADD DUP6 PUSH20 0xFFFFFFFFFFFFFFFFFFFFFFFFFFFFFFFFFFFFFFFF AND PUSH20 0xFFFFFFFFFFFFFFFFFFFFFFFFFFFFFFFFFFFFFFFF AND DUP2 MSTORE PUSH1 0x20 ADD DUP5 PUSH20 0xFFFFFFFFFFFFFFFFFFFFFFFFFFFFFFFFFFFFFFFF AND PUSH20 0xFFFFFFFFFFFFFFFFFFFFFFFFFFFFFFFFFFFFFFFF AND DUP2 MSTORE PUSH1 0x20 ADD DUP4 PUSH12 0xFFFFFFFFFFFFFFFFFFFFFFFF AND PUSH12 0xFFFFFFFFFFFFFFFFFFFFFFFF AND DUP2 MSTORE PUSH1 0x20 ADD DUP3 PUSH2 0xFFFF AND PUSH2 0xFFFF AND DUP2 MSTORE PUSH1 0x20 ADD SWAP6 POP POP POP POP POP POP PUSH1 0x40 MLOAD DUP1 SWAP2 SUB SWAP1 LOG2 POP POP POP POP POP POP POP POP POP POP POP JUMP JUMPDEST PUSH2 0x102A PUSH2 0x357E JUMP JUMPDEST PUSH1 0x2 PUSH1 0x0 CALLER PUSH20 0xFFFFFFFFFFFFFFFFFFFFFFFFFFFFFFFFFFFFFFFF AND PUSH20 0xFFFFFFFFFFFFFFFFFFFFFFFFFFFFFFFFFFFFFFFF AND DUP2 MSTORE PUSH1 0x20 ADD SWAP1 DUP2 MSTORE PUSH1 0x20 ADD PUSH1 0x0 KECCAK256 PUSH1 0x0 DUP4 PUSH6 0xFFFFFFFFFFFF AND PUSH6 0xFFFFFFFFFFFF AND DUP2 MSTORE PUSH1 0x20 ADD SWAP1 DUP2 MSTORE PUSH1 0x20 ADD PUSH1 0x0 KECCAK256 PUSH1 0x40 MLOAD DUP1 PUSH1 0x60 ADD PUSH1 0x40 MSTORE SWAP1 DUP2 PUSH1 0x0 DUP3 ADD PUSH1 0x0 SWAP1 SLOAD SWAP1 PUSH2 0x100 EXP SWAP1 DIV PUSH20 0xFFFFFFFFFFFFFFFFFFFFFFFFFFFFFFFFFFFFFFFF AND PUSH20 0xFFFFFFFFFFFFFFFFFFFFFFFFFFFFFFFFFFFFFFFF AND PUSH20 0xFFFFFFFFFFFFFFFFFFFFFFFFFFFFFFFFFFFFFFFF AND DUP2 MSTORE PUSH1 0x20 ADD PUSH1 0x0 DUP3 ADD PUSH1 0x14 SWAP1 SLOAD SWAP1 PUSH2 0x100 EXP SWAP1 DIV PUSH6 0xFFFFFFFFFFFF AND PUSH6 0xFFFFFFFFFFFF AND PUSH6 0xFFFFFFFFFFFF AND DUP2 MSTORE PUSH1 0x20 ADD PUSH1 0x0 DUP3 ADD PUSH1 0x1A SWAP1 SLOAD SWAP1 PUSH2 0x100 EXP SWAP1 DIV PUSH6 0xFFFFFFFFFFFF AND PUSH6 0xFFFFFFFFFFFF AND PUSH6 0xFFFFFFFFFFFF AND DUP2 MSTORE POP POP SWAP1 POP PUSH1 0x0 PUSH20 0xFFFFFFFFFFFFFFFFFFFFFFFFFFFFFFFFFFFFFFFF AND DUP2 PUSH1 0x0 ADD MLOAD PUSH20 0xFFFFFFFFFFFFFFFFFFFFFFFFFFFFFFFFFFFFFFFF AND EQ ISZERO PUSH2 0x1184 JUMPI POP PUSH2 0x149B JUMP JUMPDEST PUSH1 0x0 PUSH1 0x1 PUSH1 0x0 CALLER PUSH20 0xFFFFFFFFFFFFFFFFFFFFFFFFFFFFFFFFFFFFFFFF AND PUSH20 0xFFFFFFFFFFFFFFFFFFFFFFFFFFFFFFFFFFFFFFFF AND DUP2 MSTORE PUSH1 0x20 ADD SWAP1 DUP2 MSTORE PUSH1 0x20 ADD PUSH1 0x0 KECCAK256 PUSH1 0x0 DUP5 PUSH20 0xFFFFFFFFFFFFFFFFFFFFFFFFFFFFFFFFFFFFFFFF AND PUSH20 0xFFFFFFFFFFFFFFFFFFFFFFFFFFFFFFFFFFFFFFFF AND DUP2 MSTORE PUSH1 0x20 ADD SWAP1 DUP2 MSTORE PUSH1 0x20 ADD PUSH1 0x0 KECCAK256 SWAP1 POP PUSH1 0x0 DUP1 SWAP1 POP JUMPDEST DUP2 DUP1 SLOAD SWAP1 POP DUP2 LT ISZERO PUSH2 0x1301 JUMPI PUSH1 0x0 DUP3 DUP3 DUP2 SLOAD DUP2 LT PUSH2 0x1224 JUMPI INVALID JUMPDEST SWAP1 PUSH1 0x0 MSTORE PUSH1 0x20 PUSH1 0x0 KECCAK256 ADD PUSH1 0x0 SWAP1 SLOAD SWAP1 PUSH2 0x100 EXP SWAP1 DIV PUSH20 0xFFFFFFFFFFFFFFFFFFFFFFFFFFFFFFFFFFFFFFFF AND SWAP1 POP PUSH2 0x1259 PUSH2 0x3525 JUMP JUMPDEST PUSH2 0x1264 CALLER DUP8 DUP5 PUSH2 0x2505 JUMP JUMPDEST SWAP1 POP PUSH1 0x0 DUP2 PUSH1 0x0 ADD SWAP1 PUSH12 0xFFFFFFFFFFFFFFFFFFFFFFFF AND SWAP1 DUP2 PUSH12 0xFFFFFFFFFFFFFFFFFFFFFFFF AND DUP2 MSTORE POP POP PUSH1 0x0 DUP2 PUSH1 0x20 ADD SWAP1 PUSH12 0xFFFFFFFFFFFFFFFFFFFFFFFF AND SWAP1 DUP2 PUSH12 0xFFFFFFFFFFFFFFFFFFFFFFFF AND DUP2 MSTORE POP POP PUSH1 0x0 DUP2 PUSH1 0x40 ADD SWAP1 PUSH2 0xFFFF AND SWAP1 DUP2 PUSH2 0xFFFF AND DUP2 MSTORE POP POP PUSH1 0x0 DUP2 PUSH1 0x60 ADD SWAP1 PUSH4 0xFFFFFFFF AND SWAP1 DUP2 PUSH4 0xFFFFFFFF AND DUP2 MSTORE POP POP PUSH2 0x12F2 CALLER DUP8 DUP5 DUP5 PUSH2 0x29AB JUMP JUMPDEST POP POP DUP1 DUP1 PUSH1 0x1 ADD SWAP2 POP POP PUSH2 0x120A JUMP JUMPDEST POP DUP2 PUSH1 0x40 ADD MLOAD PUSH1 0x2 PUSH1 0x0 CALLER PUSH20 0xFFFFFFFFFFFFFFFFFFFFFFFFFFFFFFFFFFFFFFFF AND PUSH20 0xFFFFFFFFFFFFFFFFFFFFFFFFFFFFFFFFFFFFFFFF AND DUP2 MSTORE PUSH1 0x20 ADD SWAP1 DUP2 MSTORE PUSH1 0x20 ADD PUSH1 0x0 KECCAK256 PUSH1 0x0 DUP5 PUSH1 0x20 ADD MLOAD PUSH6 0xFFFFFFFFFFFF AND PUSH6 0xFFFFFFFFFFFF AND DUP2 MSTORE PUSH1 0x20 ADD SWAP1 DUP2 MSTORE PUSH1 0x20 ADD PUSH1 0x0 KECCAK256 PUSH1 0x0 ADD PUSH1 0x1A PUSH2 0x100 EXP DUP2 SLOAD DUP2 PUSH6 0xFFFFFFFFFFFF MUL NOT AND SWAP1 DUP4 PUSH6 0xFFFFFFFFFFFF AND MUL OR SWAP1 SSTORE POP DUP2 PUSH1 0x20 ADD MLOAD PUSH1 0x2 PUSH1 0x0 CALLER PUSH20 0xFFFFFFFFFFFFFFFFFFFFFFFFFFFFFFFFFFFFFFFF AND PUSH20 0xFFFFFFFFFFFFFFFFFFFFFFFFFFFFFFFFFFFFFFFF AND DUP2 MSTORE PUSH1 0x20 ADD SWAP1 DUP2 MSTORE PUSH1 0x20 ADD PUSH1 0x0 KECCAK256 PUSH1 0x0 DUP5 PUSH1 0x40 ADD MLOAD PUSH6 0xFFFFFFFFFFFF AND PUSH6 0xFFFFFFFFFFFF AND DUP2 MSTORE PUSH1 0x20 ADD SWAP1 DUP2 MSTORE PUSH1 0x20 ADD PUSH1 0x0 KECCAK256 PUSH1 0x0 ADD PUSH1 0x14 PUSH2 0x100 EXP DUP2 SLOAD DUP2 PUSH6 0xFFFFFFFFFFFF MUL NOT AND SWAP1 DUP4 PUSH6 0xFFFFFFFFFFFF AND MUL OR SWAP1 SSTORE POP CALLER PUSH20 0xFFFFFFFFFFFFFFFFFFFFFFFFFFFFFFFFFFFFFFFF AND PUSH32 0xDCCC2D936DED24D2153D2760581A7F0DCB23EC71190C9726B3584CDD700214D4 DUP5 PUSH1 0x40 MLOAD DUP1 DUP3 PUSH20 0xFFFFFFFFFFFFFFFFFFFFFFFFFFFFFFFFFFFFFFFF AND PUSH20 0xFFFFFFFFFFFFFFFFFFFFFFFFFFFFFFFFFFFFFFFF AND DUP2 MSTORE PUSH1 0x20 ADD SWAP2 POP POP PUSH1 0x40 MLOAD DUP1 SWAP2 SUB SWAP1 LOG2 POP POP JUMPDEST POP JUMP JUMPDEST PUSH1 0x60 PUSH1 0x1 PUSH1 0x0 DUP5 PUSH20 0xFFFFFFFFFFFFFFFFFFFFFFFFFFFFFFFFFFFFFFFF AND PUSH20 0xFFFFFFFFFFFFFFFFFFFFFFFFFFFFFFFFFFFFFFFF AND DUP2 MSTORE PUSH1 0x20 ADD SWAP1 DUP2 MSTORE PUSH1 0x20 ADD PUSH1 0x0 KECCAK256 PUSH1 0x0 DUP4 PUSH20 0xFFFFFFFFFFFFFFFFFFFFFFFFFFFFFFFFFFFFFFFF AND PUSH20 0xFFFFFFFFFFFFFFFFFFFFFFFFFFFFFFFFFFFFFFFF AND DUP2 MSTORE PUSH1 0x20 ADD SWAP1 DUP2 MSTORE PUSH1 0x20 ADD PUSH1 0x0 KECCAK256 DUP1 SLOAD DUP1 PUSH1 0x20 MUL PUSH1 0x20 ADD PUSH1 0x40 MLOAD SWAP1 DUP2 ADD PUSH1 0x40 MSTORE DUP1 SWAP3 SWAP2 SWAP1 DUP2 DUP2 MSTORE PUSH1 0x20 ADD DUP3 DUP1 SLOAD DUP1 ISZERO PUSH2 0x159C JUMPI PUSH1 0x20 MUL DUP3 ADD SWAP2 SWAP1 PUSH1 0x0 MSTORE PUSH1 0x20 PUSH1 0x0 KECCAK256 SWAP1 JUMPDEST DUP2 PUSH1 0x0 SWAP1 SLOAD SWAP1 PUSH2 0x100 EXP SWAP1 DIV PUSH20 0xFFFFFFFFFFFFFFFFFFFFFFFFFFFFFFFFFFFFFFFF AND PUSH20 0xFFFFFFFFFFFFFFFFFFFFFFFFFFFFFFFFFFFFFFFF AND DUP2 MSTORE PUSH1 0x20 ADD SWAP1 PUSH1 0x1 ADD SWAP1 DUP1 DUP4 GT PUSH2 0x1552 JUMPI JUMPDEST POP POP POP POP POP SWAP1 POP SWAP3 SWAP2 POP POP JUMP JUMPDEST PUSH2 0x15B1 PUSH2 0x35C5 JUMP JUMPDEST PUSH2 0x15B9 PUSH2 0x3525 JUMP JUMPDEST PUSH2 0x15C4 DUP6 DUP6 DUP6 PUSH2 0x2505 JUMP JUMPDEST SWAP1 POP PUSH1 0x40 MLOAD DUP1 PUSH1 0xA0 ADD PUSH1 0x40 MSTORE DUP1 DUP3 PUSH1 0x0 ADD MLOAD PUSH12 0xFFFFFFFFFFFFFFFFFFFFFFFF AND DUP2 MSTORE PUSH1 0x20 ADD DUP3 PUSH1 0x20 ADD MLOAD PUSH12 0xFFFFFFFFFFFFFFFFFFFFFFFF AND DUP2 MSTORE PUSH1 0x20 ADD DUP3 PUSH1 0x40 ADD MLOAD PUSH2 0xFFFF AND DUP2 MSTORE PUSH1 0x20 ADD DUP3 PUSH1 0x60 ADD MLOAD PUSH4 0xFFFFFFFF AND DUP2 MSTORE PUSH1 0x20 ADD DUP3 PUSH1 0x80 ADD MLOAD PUSH2 0xFFFF AND DUP2 MSTORE POP SWAP2 POP POP SWAP4 SWAP3 POP POP POP JUMP JUMPDEST PUSH1 0x40 MLOAD DUP1 PUSH1 0x40 ADD PUSH1 0x40 MSTORE DUP1 PUSH1 0x10 DUP2 MSTORE PUSH1 0x20 ADD PUSH32 0x416C6C6F77616E6365204D6F64756C6500000000000000000000000000000000 DUP2 MSTORE POP DUP2 JUMP JUMPDEST PUSH1 0x0 PUSH1 0x20 MSTORE DUP3 PUSH1 0x0 MSTORE PUSH1 0x40 PUSH1 0x0 KECCAK256 PUSH1 0x20 MSTORE DUP2 PUSH1 0x0 MSTORE PUSH1 0x40 PUSH1 0x0 KECCAK256 PUSH1 0x20 MSTORE DUP1 PUSH1 0x0 MSTORE PUSH1 0x40 PUSH1 0x0 KECCAK256 PUSH1 0x0 SWAP3 POP SWAP3 POP POP POP DUP1 PUSH1 0x0 ADD PUSH1 0x0 SWAP1 SLOAD SWAP1 PUSH2 0x100 EXP SWAP1 DIV PUSH12 0xFFFFFFFFFFFFFFFFFFFFFFFF AND SWAP1 DUP1 PUSH1 0x0 ADD PUSH1 0xC SWAP1 SLOAD SWAP1 PUSH2 0x100 EXP SWAP1 DIV PUSH12 0xFFFFFFFFFFFFFFFFFFFFFFFF AND SWAP1 DUP1 PUSH1 0x0 ADD PUSH1 0x18 SWAP1 SLOAD SWAP1 PUSH2 0x100 EXP SWAP1 DIV PUSH2 0xFFFF AND SWAP1 DUP1 PUSH1 0x0 ADD PUSH1 0x1A SWAP1 SLOAD SWAP1 PUSH2 0x100 EXP SWAP1 DIV PUSH4 0xFFFFFFFF AND SWAP1 DUP1 PUSH1 0x0 ADD PUSH1 0x1E SWAP1 SLOAD SWAP1 PUSH2 0x100 EXP SWAP1 DIV PUSH2 0xFFFF AND SWAP1 POP DUP6 JUMP JUMPDEST DUP5 PUSH20 0xFFFFFFFFFFFFFFFFFFFFFFFFFFFFFFFFFFFFFFFF AND PUSH1 0x2 PUSH1 0x0 CALLER PUSH20 0xFFFFFFFFFFFFFFFFFFFFFFFFFFFFFFFFFFFFFFFF AND PUSH20 0xFFFFFFFFFFFFFFFFFFFFFFFFFFFFFFFFFFFFFFFF AND DUP2 MSTORE PUSH1 0x20 ADD SWAP1 DUP2 MSTORE PUSH1 0x20 ADD PUSH1 0x0 KECCAK256 PUSH1 0x0 DUP8 PUSH6 0xFFFFFFFFFFFF AND PUSH6 0xFFFFFFFFFFFF AND DUP2 MSTORE PUSH1 0x20 ADD SWAP1 DUP2 MSTORE PUSH1 0x20 ADD PUSH1 0x0 KECCAK256 PUSH1 0x0 ADD PUSH1 0x0 SWAP1 SLOAD SWAP1 PUSH2 0x100 EXP SWAP1 DIV PUSH20 0xFFFFFFFFFFFFFFFFFFFFFFFFFFFFFFFFFFFFFFFF AND PUSH20 0xFFFFFFFFFFFFFFFFFFFFFFFFFFFFFFFFFFFFFFFF AND EQ PUSH2 0x1821 JUMPI PUSH1 0x40 MLOAD PUSH32 0x8C379A000000000000000000000000000000000000000000000000000000000 DUP2 MSTORE PUSH1 0x4 ADD DUP1 DUP1 PUSH1 0x20 ADD DUP3 DUP2 SUB DUP3 MSTORE PUSH1 0x3C DUP2 MSTORE PUSH1 0x20 ADD DUP1 PUSH2 0x360D PUSH1 0x3C SWAP2 CODECOPY PUSH1 0x40 ADD SWAP2 POP POP PUSH1 0x40 MLOAD DUP1 SWAP2 SUB SWAP1 REVERT JUMPDEST PUSH2 0x1829 PUSH2 0x3525 JUMP JUMPDEST PUSH2 0x1834 CALLER DUP8 DUP8 PUSH2 0x2505 JUMP JUMPDEST SWAP1 POP PUSH1 0x0 DUP2 PUSH1 0x80 ADD MLOAD PUSH2 0xFFFF AND EQ ISZERO PUSH2 0x193D JUMPI PUSH1 0x1 DUP2 PUSH1 0x80 ADD SWAP1 PUSH2 0xFFFF AND SWAP1 DUP2 PUSH2 0xFFFF AND DUP2 MSTORE POP POP PUSH1 0x1 PUSH1 0x0 CALLER PUSH20 0xFFFFFFFFFFFFFFFFFFFFFFFFFFFFFFFFFFFFFFFF AND PUSH20 0xFFFFFFFFFFFFFFFFFFFFFFFFFFFFFFFFFFFFFFFF AND DUP2 MSTORE PUSH1 0x20 ADD SWAP1 DUP2 MSTORE PUSH1 0x20 ADD PUSH1 0x0 KECCAK256 PUSH1 0x0 DUP8 PUSH20 0xFFFFFFFFFFFFFFFFFFFFFFFFFFFFFFFFFFFFFFFF AND PUSH20 0xFFFFFFFFFFFFFFFFFFFFFFFFFFFFFFFFFFFFFFFF AND DUP2 MSTORE PUSH1 0x20 ADD SWAP1 DUP2 MSTORE PUSH1 0x20 ADD PUSH1 0x0 KECCAK256 DUP6 SWAP1 DUP1 PUSH1 0x1 DUP2 SLOAD ADD DUP1 DUP3 SSTORE DUP1 SWAP2 POP POP SWAP1 PUSH1 0x1 DUP3 SUB SWAP1 PUSH1 0x0 MSTORE PUSH1 0x20 PUSH1 0x0 KECCAK256 ADD PUSH1 0x0 SWAP1 SWAP2 SWAP3 SWAP1 SWAP2 SWAP1 SWAP2 PUSH2 0x100 EXP DUP2 SLOAD DUP2 PUSH20 0xFFFFFFFFFFFFFFFFFFFFFFFFFFFFFFFFFFFFFFFF MUL NOT AND SWAP1 DUP4 PUSH20 0xFFFFFFFFFFFFFFFFFFFFFFFFFFFFFFFFFFFFFFFF AND MUL OR SWAP1 SSTORE POP POP JUMPDEST PUSH1 0x0 PUSH1 0x3C TIMESTAMP DUP2 PUSH2 0x1949 JUMPI INVALID JUMPDEST DIV SWAP1 POP PUSH1 0x0 DUP4 PUSH4 0xFFFFFFFF AND GT ISZERO PUSH2 0x1A11 JUMPI DUP1 PUSH4 0xFFFFFFFF AND DUP4 PUSH4 0xFFFFFFFF AND GT ISZERO PUSH2 0x19DD JUMPI PUSH1 0x40 MLOAD PUSH32 0x8C379A000000000000000000000000000000000000000000000000000000000 DUP2 MSTORE PUSH1 0x4 ADD DUP1 DUP1 PUSH1 0x20 ADD DUP3 DUP2 SUB DUP3 MSTORE PUSH1 0x1A DUP2 MSTORE PUSH1 0x20 ADD DUP1 PUSH32 0x7265736574426173654D696E203C3D2063757272656E744D696E000000000000 DUP2 MSTORE POP PUSH1 0x20 ADD SWAP2 POP POP PUSH1 0x40 MLOAD DUP1 SWAP2 SUB SWAP1 REVERT JUMPDEST DUP4 PUSH2 0xFFFF AND DUP4 DUP3 SUB PUSH4 0xFFFFFFFF AND DUP2 PUSH2 0x19F2 JUMPI INVALID JUMPDEST MOD DUP2 SUB DUP3 PUSH1 0x60 ADD SWAP1 PUSH4 0xFFFFFFFF AND SWAP1 DUP2 PUSH4 0xFFFFFFFF AND DUP2 MSTORE POP POP PUSH2 0x1A3E JUMP JUMPDEST PUSH1 0x0 DUP3 PUSH1 0x60 ADD MLOAD PUSH4 0xFFFFFFFF AND EQ ISZERO PUSH2 0x1A3D JUMPI DUP1 DUP3 PUSH1 0x60 ADD SWAP1 PUSH4 0xFFFFFFFF AND SWAP1 DUP2 PUSH4 0xFFFFFFFF AND DUP2 MSTORE POP POP JUMPDEST JUMPDEST DUP4 DUP3 PUSH1 0x40 ADD SWAP1 PUSH2 0xFFFF AND SWAP1 DUP2 PUSH2 0xFFFF AND DUP2 MSTORE POP POP DUP5 DUP3 PUSH1 0x0 ADD SWAP1 PUSH12 0xFFFFFFFFFFFFFFFFFFFFFFFF AND SWAP1 DUP2 PUSH12 0xFFFFFFFFFFFFFFFFFFFFFFFF AND DUP2 MSTORE POP POP PUSH2 0x1A86 CALLER DUP9 DUP9 DUP6 PUSH2 0x29AB JUMP JUMPDEST CALLER PUSH20 0xFFFFFFFFFFFFFFFFFFFFFFFFFFFFFFFFFFFFFFFF AND PUSH32 0x49CAA04C5E1E168069C09DF7F88C07CA87BE980B0BF4570AB77FE9AAE3CA7EBA DUP9 DUP9 DUP9 DUP9 PUSH1 0x40 MLOAD DUP1 DUP6 PUSH20 0xFFFFFFFFFFFFFFFFFFFFFFFFFFFFFFFFFFFFFFFF AND PUSH20 0xFFFFFFFFFFFFFFFFFFFFFFFFFFFFFFFFFFFFFFFF AND DUP2 MSTORE PUSH1 0x20 ADD DUP5 PUSH20 0xFFFFFFFFFFFFFFFFFFFFFFFFFFFFFFFFFFFFFFFF AND PUSH20 0xFFFFFFFFFFFFFFFFFFFFFFFFFFFFFFFFFFFFFFFF AND DUP2 MSTORE PUSH1 0x20 ADD DUP4 PUSH12 0xFFFFFFFFFFFFFFFFFFFFFFFF AND PUSH12 0xFFFFFFFFFFFFFFFFFFFFFFFF AND DUP2 MSTORE PUSH1 0x20 ADD DUP3 PUSH2 0xFFFF AND PUSH2 0xFFFF AND DUP2 MSTORE PUSH1 0x20 ADD SWAP5 POP POP POP POP POP PUSH1 0x40 MLOAD DUP1 SWAP2 SUB SWAP1 LOG2 POP POP POP POP POP POP POP JUMP JUMPDEST PUSH2 0x1B79 PUSH2 0x3525 JUMP JUMPDEST PUSH2 0x1B84 CALLER DUP5 DUP5 PUSH2 0x2505 JUMP JUMPDEST SWAP1 POP PUSH1 0x0 DUP2 PUSH1 0x20 ADD SWAP1 PUSH12 0xFFFFFFFFFFFFFFFFFFFFFFFF AND SWAP1 DUP2 PUSH12 0xFFFFFFFFFFFFFFFFFFFFFFFF AND DUP2 MSTORE POP POP PUSH2 0x1BBB CALLER DUP5 DUP5 DUP5 PUSH2 0x29AB JUMP JUMPDEST POP POP POP JUMP JUMPDEST PUSH1 0x2 PUSH1 0x20 MSTORE DUP2 PUSH1 0x0 MSTORE PUSH1 0x40 PUSH1 0x0 KECCAK256 PUSH1 0x20 MSTORE DUP1 PUSH1 0x0 MSTORE PUSH1 0x40 PUSH1 0x0 KECCAK256 PUSH1 0x0 SWAP2 POP SWAP2 POP POP DUP1 PUSH1 0x0 ADD PUSH1 0x0 SWAP1 SLOAD SWAP1 PUSH2 0x100 EXP SWAP1 DIV PUSH20 0xFFFFFFFFFFFFFFFFFFFFFFFFFFFFFFFFFFFFFFFF AND SWAP1 DUP1 PUSH1 0x0 ADD PUSH1 0x14 SWAP1 SLOAD SWAP1 PUSH2 0x100 EXP SWAP1 DIV PUSH6 0xFFFFFFFFFFFF AND SWAP1 DUP1 PUSH1 0x0 ADD PUSH1 0x1A SWAP1 SLOAD SWAP1 PUSH2 0x100 EXP SWAP1 DIV PUSH6 0xFFFFFFFFFFFF AND SWAP1 POP DUP4 JUMP JUMPDEST PUSH1 0x0 PUSH2 0x1C4C DUP9 DUP9 DUP9 DUP9 DUP9 DUP9 DUP9 PUSH2 0x2766 JUMP JUMPDEST DUP1 MLOAD SWAP1 PUSH1 0x20 ADD KECCAK256 SWAP1 POP SWAP8 SWAP7 POP POP POP POP POP POP POP JUMP JUMPDEST PUSH1 0x0 PUSH20 0xFFFFFFFFFFFFFFFFFFFFFFFFFFFFFFFFFFFFFFFF AND DUP2 PUSH20 0xFFFFFFFFFFFFFFFFFFFFFFFFFFFFFFFFFFFFFFFF AND EQ ISZERO PUSH2 0x1D03 JUMPI PUSH1 0x40 MLOAD PUSH32 0x8C379A000000000000000000000000000000000000000000000000000000000 DUP2 MSTORE PUSH1 0x4 ADD DUP1 DUP1 PUSH1 0x20 ADD DUP3 DUP2 SUB DUP3 MSTORE PUSH1 0x18 DUP2 MSTORE PUSH1 0x20 ADD DUP1 PUSH32 0x496E76616C69642064656C656761746520616464726573730000000000000000 DUP2 MSTORE POP PUSH1 0x20 ADD SWAP2 POP POP PUSH1 0x40 MLOAD DUP1 SWAP2 SUB SWAP1 REVERT JUMPDEST PUSH1 0x0 DUP2 SWAP1 POP PUSH1 0x0 PUSH20 0xFFFFFFFFFFFFFFFFFFFFFFFFFFFFFFFFFFFFFFFF AND PUSH1 0x2 PUSH1 0x0 CALLER PUSH20 0xFFFFFFFFFFFFFFFFFFFFFFFFFFFFFFFFFFFFFFFF AND PUSH20 0xFFFFFFFFFFFFFFFFFFFFFFFFFFFFFFFFFFFFFFFF AND DUP2 MSTORE PUSH1 0x20 ADD SWAP1 DUP2 MSTORE PUSH1 0x20 ADD PUSH1 0x0 KECCAK256 PUSH1 0x0 DUP4 PUSH6 0xFFFFFFFFFFFF AND PUSH6 0xFFFFFFFFFFFF AND DUP2 MSTORE PUSH1 0x20 ADD SWAP1 DUP2 MSTORE PUSH1 0x20 ADD PUSH1 0x0 KECCAK256 PUSH1 0x0 ADD PUSH1 0x0 SWAP1 SLOAD SWAP1 PUSH2 0x100 EXP SWAP1 DIV PUSH20 0xFFFFFFFFFFFFFFFFFFFFFFFFFFFFFFFFFFFFFFFF AND PUSH20 0xFFFFFFFFFFFFFFFFFFFFFFFFFFFFFFFFFFFFFFFF AND EQ PUSH2 0x1DC5 JUMPI POP PUSH2 0x20C2 JUMP JUMPDEST PUSH1 0x0 PUSH1 0x3 PUSH1 0x0 CALLER PUSH20 0xFFFFFFFFFFFFFFFFFFFFFFFFFFFFFFFFFFFFFFFF AND PUSH20 0xFFFFFFFFFFFFFFFFFFFFFFFFFFFFFFFFFFFFFFFF AND DUP2 MSTORE PUSH1 0x20 ADD SWAP1 DUP2 MSTORE PUSH1 0x20 ADD PUSH1 0x0 KECCAK256 PUSH1 0x0 SWAP1 SLOAD SWAP1 PUSH2 0x100 EXP SWAP1 DIV PUSH6 0xFFFFFFFFFFFF AND SWAP1 POP PUSH1 0x40 MLOAD DUP1 PUSH1 0x60 ADD PUSH1 0x40 MSTORE DUP1 DUP5 PUSH20 0xFFFFFFFFFFFFFFFFFFFFFFFFFFFFFFFFFFFFFFFF AND DUP2 MSTORE PUSH1 0x20 ADD PUSH1 0x0 PUSH6 0xFFFFFFFFFFFF AND DUP2 MSTORE PUSH1 0x20 ADD DUP3 PUSH6 0xFFFFFFFFFFFF AND DUP2 MSTORE POP PUSH1 0x2 PUSH1 0x0 CALLER PUSH20 0xFFFFFFFFFFFFFFFFFFFFFFFFFFFFFFFFFFFFFFFF AND PUSH20 0xFFFFFFFFFFFFFFFFFFFFFFFFFFFFFFFFFFFFFFFF AND DUP2 MSTORE PUSH1 0x20 ADD SWAP1 DUP2 MSTORE PUSH1 0x20 ADD PUSH1 0x0 KECCAK256 PUSH1 0x0 DUP5 PUSH6 0xFFFFFFFFFFFF AND PUSH6 0xFFFFFFFFFFFF AND DUP2 MSTORE PUSH1 0x20 ADD SWAP1 DUP2 MSTORE PUSH1 0x20 ADD PUSH1 0x0 KECCAK256 PUSH1 0x0 DUP3 ADD MLOAD DUP2 PUSH1 0x0 ADD PUSH1 0x0 PUSH2 0x100 EXP DUP2 SLOAD DUP2 PUSH20 0xFFFFFFFFFFFFFFFFFFFFFFFFFFFFFFFFFFFFFFFF MUL NOT AND SWAP1 DUP4 PUSH20 0xFFFFFFFFFFFFFFFFFFFFFFFFFFFFFFFFFFFFFFFF AND MUL OR SWAP1 SSTORE POP PUSH1 0x20 DUP3 ADD MLOAD DUP2 PUSH1 0x0 ADD PUSH1 0x14 PUSH2 0x100 EXP DUP2 SLOAD DUP2 PUSH6 0xFFFFFFFFFFFF MUL NOT AND SWAP1 DUP4 PUSH6 0xFFFFFFFFFFFF AND MUL OR SWAP1 SSTORE POP PUSH1 0x40 DUP3 ADD MLOAD DUP2 PUSH1 0x0 ADD PUSH1 0x1A PUSH2 0x100 EXP DUP2 SLOAD DUP2 PUSH6 0xFFFFFFFFFFFF MUL NOT AND SWAP1 DUP4 PUSH6 0xFFFFFFFFFFFF AND MUL OR SWAP1 SSTORE POP SWAP1 POP POP DUP2 PUSH1 0x2 PUSH1 0x0 CALLER PUSH20 0xFFFFFFFFFFFFFFFFFFFFFFFFFFFFFFFFFFFFFFFF AND PUSH20 0xFFFFFFFFFFFFFFFFFFFFFFFFFFFFFFFFFFFFFFFF AND DUP2 MSTORE PUSH1 0x20 ADD SWAP1 DUP2 MSTORE PUSH1 0x20 ADD PUSH1 0x0 KECCAK256 PUSH1 0x0 DUP4 PUSH6 0xFFFFFFFFFFFF AND PUSH6 0xFFFFFFFFFFFF AND DUP2 MSTORE PUSH1 0x20 ADD SWAP1 DUP2 MSTORE PUSH1 0x20 ADD PUSH1 0x0 KECCAK256 PUSH1 0x0 ADD PUSH1 0x14 PUSH2 0x100 EXP DUP2 SLOAD DUP2 PUSH6 0xFFFFFFFFFFFF MUL NOT AND SWAP1 DUP4 PUSH6 0xFFFFFFFFFFFF AND MUL OR SWAP1 SSTORE POP DUP2 PUSH1 0x3 PUSH1 0x0 CALLER PUSH20 0xFFFFFFFFFFFFFFFFFFFFFFFFFFFFFFFFFFFFFFFF AND PUSH20 0xFFFFFFFFFFFFFFFFFFFFFFFFFFFFFFFFFFFFFFFF AND DUP2 MSTORE PUSH1 0x20 ADD SWAP1 DUP2 MSTORE PUSH1 0x20 ADD PUSH1 0x0 KECCAK256 PUSH1 0x0 PUSH2 0x100 EXP DUP2 SLOAD DUP2 PUSH6 0xFFFFFFFFFFFF MUL NOT AND SWAP1 DUP4 PUSH6 0xFFFFFFFFFFFF AND MUL OR SWAP1 SSTORE POP CALLER PUSH20 0xFFFFFFFFFFFFFFFFFFFFFFFFFFFFFFFFFFFFFFFF AND PUSH32 0x2FD5B26F00131BD8CA0FC556207292B85A6BEC241341DF82724333227458E630 DUP5 PUSH1 0x40 MLOAD DUP1 DUP3 PUSH20 0xFFFFFFFFFFFFFFFFFFFFFFFFFFFFFFFFFFFFFFFF AND PUSH20 0xFFFFFFFFFFFFFFFFFFFFFFFFFFFFFFFFFFFFFFFF AND DUP2 MSTORE PUSH1 0x20 ADD SWAP2 POP POP PUSH1 0x40 MLOAD DUP1 SWAP2 SUB SWAP1 LOG2 POP POP JUMPDEST POP JUMP JUMPDEST PUSH1 0x60 PUSH1 0x0 DUP3 PUSH1 0xFF AND PUSH1 0x40 MLOAD SWAP1 DUP1 DUP3 MSTORE DUP1 PUSH1 0x20 MUL PUSH1 0x20 ADD DUP3 ADD PUSH1 0x40 MSTORE DUP1 ISZERO PUSH2 0x20FB JUMPI DUP2 PUSH1 0x20 ADD PUSH1 0x20 DUP3 MUL DUP1 CODESIZE DUP4 CODECOPY DUP1 DUP3 ADD SWAP2 POP POP SWAP1 POP JUMPDEST POP SWAP2 POP PUSH1 0x0 DUP1 SWAP1 POP PUSH1 0x0 DUP1 DUP7 PUSH6 0xFFFFFFFFFFFF AND EQ ISZERO PUSH2 0x216C JUMPI PUSH1 0x3 PUSH1 0x0 DUP9 PUSH20 0xFFFFFFFFFFFFFFFFFFFFFFFFFFFFFFFFFFFFFFFF AND PUSH20 0xFFFFFFFFFFFFFFFFFFFFFFFFFFFFFFFFFFFFFFFF AND DUP2 MSTORE PUSH1 0x20 ADD SWAP1 DUP2 MSTORE PUSH1 0x20 ADD PUSH1 0x0 KECCAK256 PUSH1 0x0 SWAP1 SLOAD SWAP1 PUSH2 0x100 EXP SWAP1 DIV PUSH6 0xFFFFFFFFFFFF AND PUSH2 0x216E JUMP JUMPDEST DUP6 JUMPDEST SWAP1 POP PUSH2 0x2178 PUSH2 0x357E JUMP JUMPDEST PUSH1 0x2 PUSH1 0x0 DUP10 PUSH20 0xFFFFFFFFFFFFFFFFFFFFFFFFFFFFFFFFFFFFFFFF AND PUSH20 0xFFFFFFFFFFFFFFFFFFFFFFFFFFFFFFFFFFFFFFFF AND DUP2 MSTORE PUSH1 0x20 ADD SWAP1 DUP2 MSTORE PUSH1 0x20 ADD PUSH1 0x0 KECCAK256 PUSH1 0x0 DUP4 PUSH6 0xFFFFFFFFFFFF AND PUSH6 0xFFFFFFFFFFFF AND DUP2 MSTORE PUSH1 0x20 ADD SWAP1 DUP2 MSTORE PUSH1 0x20 ADD PUSH1 0x0 KECCAK256 PUSH1 0x40 MLOAD DUP1 PUSH1 0x60 ADD PUSH1 0x40 MSTORE SWAP1 DUP2 PUSH1 0x0 DUP3 ADD PUSH1 0x0 SWAP1 SLOAD SWAP1 PUSH2 0x100 EXP SWAP1 DIV PUSH20 0xFFFFFFFFFFFFFFFFFFFFFFFFFFFFFFFFFFFFFFFF AND PUSH20 0xFFFFFFFFFFFFFFFFFFFFFFFFFFFFFFFFFFFFFFFF AND PUSH20 0xFFFFFFFFFFFFFFFFFFFFFFFFFFFFFFFFFFFFFFFF AND DUP2 MSTORE PUSH1 0x20 ADD PUSH1 0x0 DUP3 ADD PUSH1 0x14 SWAP1 SLOAD SWAP1 PUSH2 0x100 EXP SWAP1 DIV PUSH6 0xFFFFFFFFFFFF AND PUSH6 0xFFFFFFFFFFFF AND PUSH6 0xFFFFFFFFFFFF AND DUP2 MSTORE PUSH1 0x20 ADD PUSH1 0x0 DUP3 ADD PUSH1 0x1A SWAP1 SLOAD SWAP1 PUSH2 0x100 EXP SWAP1 DIV PUSH6 0xFFFFFFFFFFFF AND PUSH6 0xFFFFFFFFFFFF AND PUSH6 0xFFFFFFFFFFFF AND DUP2 MSTORE POP POP SWAP1 POP JUMPDEST PUSH1 0x0 PUSH20 0xFFFFFFFFFFFFFFFFFFFFFFFFFFFFFFFFFFFFFFFF AND DUP2 PUSH1 0x0 ADD MLOAD PUSH20 0xFFFFFFFFFFFFFFFFFFFFFFFFFFFFFFFFFFFFFFFF AND EQ ISZERO DUP1 ISZERO PUSH2 0x22DA JUMPI POP DUP6 PUSH1 0xFF AND DUP4 PUSH1 0xFF AND LT JUMPDEST ISZERO PUSH2 0x2459 JUMPI DUP1 PUSH1 0x0 ADD MLOAD DUP6 DUP5 PUSH1 0xFF AND DUP2 MLOAD DUP2 LT PUSH2 0x22F3 JUMPI INVALID JUMPDEST PUSH1 0x20 MUL PUSH1 0x20 ADD ADD SWAP1 PUSH20 0xFFFFFFFFFFFFFFFFFFFFFFFFFFFFFFFFFFFFFFFF AND SWAP1 DUP2 PUSH20 0xFFFFFFFFFFFFFFFFFFFFFFFFFFFFFFFFFFFFFFFF AND DUP2 MSTORE POP POP DUP3 DUP1 PUSH1 0x1 ADD SWAP4 POP POP PUSH1 0x2 PUSH1 0x0 DUP10 PUSH20 0xFFFFFFFFFFFFFFFFFFFFFFFFFFFFFFFFFFFFFFFF AND PUSH20 0xFFFFFFFFFFFFFFFFFFFFFFFFFFFFFFFFFFFFFFFF AND DUP2 MSTORE PUSH1 0x20 ADD SWAP1 DUP2 MSTORE PUSH1 0x20 ADD PUSH1 0x0 KECCAK256 PUSH1 0x0 DUP3 PUSH1 0x40 ADD MLOAD PUSH6 0xFFFFFFFFFFFF AND PUSH6 0xFFFFFFFFFFFF AND DUP2 MSTORE PUSH1 0x20 ADD SWAP1 DUP2 MSTORE PUSH1 0x20 ADD PUSH1 0x0 KECCAK256 PUSH1 0x40 MLOAD DUP1 PUSH1 0x60 ADD PUSH1 0x40 MSTORE SWAP1 DUP2 PUSH1 0x0 DUP3 ADD PUSH1 0x0 SWAP1 SLOAD SWAP1 PUSH2 0x100 EXP SWAP1 DIV PUSH20 0xFFFFFFFFFFFFFFFFFFFFFFFFFFFFFFFFFFFFFFFF AND PUSH20 0xFFFFFFFFFFFFFFFFFFFFFFFFFFFFFFFFFFFFFFFF AND PUSH20 0xFFFFFFFFFFFFFFFFFFFFFFFFFFFFFFFFFFFFFFFF AND DUP2 MSTORE PUSH1 0x20 ADD PUSH1 0x0 DUP3 ADD PUSH1 0x14 SWAP1 SLOAD SWAP1 PUSH2 0x100 EXP SWAP1 DIV PUSH6 0xFFFFFFFFFFFF AND PUSH6 0xFFFFFFFFFFFF AND PUSH6 0xFFFFFFFFFFFF AND DUP2 MSTORE PUSH1 0x20 ADD PUSH1 0x0 DUP3 ADD PUSH1 0x1A SWAP1 SLOAD SWAP1 PUSH2 0x100 EXP SWAP1 DIV PUSH6 0xFFFFFFFFFFFF AND PUSH6 0xFFFFFFFFFFFF AND PUSH6 0xFFFFFFFFFFFF AND DUP2 MSTORE POP POP SWAP1 POP PUSH2 0x2294 JUMP JUMPDEST DUP1 PUSH1 0x0 ADD MLOAD SWAP4 POP DUP3 DUP6 MSTORE POP POP POP SWAP4 POP SWAP4 SWAP2 POP POP JUMP JUMPDEST PUSH1 0x1 PUSH1 0x20 MSTORE DUP3 PUSH1 0x0 MSTORE PUSH1 0x40 PUSH1 0x0 KECCAK256 PUSH1 0x20 MSTORE DUP2 PUSH1 0x0 MSTORE PUSH1 0x40 PUSH1 0x0 KECCAK256 DUP2 DUP2 SLOAD DUP2 LT PUSH2 0x2493 JUMPI INVALID JUMPDEST SWAP1 PUSH1 0x0 MSTORE PUSH1 0x20 PUSH1 0x0 KECCAK256 ADD PUSH1 0x0 SWAP3 POP SWAP3 POP POP SWAP1 SLOAD SWAP1 PUSH2 0x100 EXP SWAP1 DIV PUSH20 0xFFFFFFFFFFFFFFFFFFFFFFFFFFFFFFFFFFFFFFFF AND DUP2 JUMP JUMPDEST PUSH1 0x4 SLOAD DUP2 JUMP JUMPDEST PUSH1 0x40 MLOAD DUP1 PUSH1 0x40 ADD PUSH1 0x40 MSTORE DUP1 PUSH1 0x5 DUP2 MSTORE PUSH1 0x20 ADD PUSH32 0x302E312E30000000000000000000000000000000000000000000000000000000 DUP2 MSTORE POP DUP2 JUMP JUMPDEST PUSH2 0x250D PUSH2 0x3525 JUMP JUMPDEST PUSH1 0x0 DUP1 DUP6 PUSH20 0xFFFFFFFFFFFFFFFFFFFFFFFFFFFFFFFFFFFFFFFF AND PUSH20 0xFFFFFFFFFFFFFFFFFFFFFFFFFFFFFFFFFFFFFFFF AND DUP2 MSTORE PUSH1 0x20 ADD SWAP1 DUP2 MSTORE PUSH1 0x20 ADD PUSH1 0x0 KECCAK256 PUSH1 0x0 DUP5 PUSH20 0xFFFFFFFFFFFFFFFFFFFFFFFFFFFFFFFFFFFFFFFF AND PUSH20 0xFFFFFFFFFFFFFFFFFFFFFFFFFFFFFFFFFFFFFFFF AND DUP2 MSTORE PUSH1 0x20 ADD SWAP1 DUP2 MSTORE PUSH1 0x20 ADD PUSH1 0x0 KECCAK256 PUSH1 0x0 DUP4 PUSH20 0xFFFFFFFFFFFFFFFFFFFFFFFFFFFFFFFFFFFFFFFF AND PUSH20 0xFFFFFFFFFFFFFFFFFFFFFFFFFFFFFFFFFFFFFFFF AND DUP2 MSTORE PUSH1 0x20 ADD SWAP1 DUP2 MSTORE PUSH1 0x20 ADD PUSH1 0x0 KECCAK256 PUSH1 0x40 MLOAD DUP1 PUSH1 0xA0 ADD PUSH1 0x40 MSTORE SWAP1 DUP2 PUSH1 0x0 DUP3 ADD PUSH1 0x0 SWAP1 SLOAD SWAP1 PUSH2 0x100 EXP SWAP1 DIV PUSH12 0xFFFFFFFFFFFFFFFFFFFFFFFF AND PUSH12 0xFFFFFFFFFFFFFFFFFFFFFFFF AND PUSH12 0xFFFFFFFFFFFFFFFFFFFFFFFF AND DUP2 MSTORE PUSH1 0x20 ADD PUSH1 0x0 DUP3 ADD PUSH1 0xC SWAP1 SLOAD SWAP1 PUSH2 0x100 EXP SWAP1 DIV PUSH12 0xFFFFFFFFFFFFFFFFFFFFFFFF AND PUSH12 0xFFFFFFFFFFFFFFFFFFFFFFFF AND PUSH12 0xFFFFFFFFFFFFFFFFFFFFFFFF AND DUP2 MSTORE PUSH1 0x20 ADD PUSH1 0x0 DUP3 ADD PUSH1 0x18 SWAP1 SLOAD SWAP1 PUSH2 0x100 EXP SWAP1 DIV PUSH2 0xFFFF AND PUSH2 0xFFFF AND PUSH2 0xFFFF AND DUP2 MSTORE PUSH1 0x20 ADD PUSH1 0x0 DUP3 ADD PUSH1 0x1A SWAP1 SLOAD SWAP1 PUSH2 0x100 EXP SWAP1 DIV PUSH4 0xFFFFFFFF AND PUSH4 0xFFFFFFFF AND PUSH4 0xFFFFFFFF AND DUP2 MSTORE PUSH1 0x20 ADD PUSH1 0x0 DUP3 ADD PUSH1 0x1E SWAP1 SLOAD SWAP1 PUSH2 0x100 EXP SWAP1 DIV PUSH2 0xFFFF AND PUSH2 0xFFFF AND PUSH2 0xFFFF AND DUP2 MSTORE POP POP SWAP1 POP PUSH1 0x0 PUSH1 0x3C TIMESTAMP DUP2 PUSH2 0x26C0 JUMPI INVALID JUMPDEST DIV SWAP1 POP PUSH1 0x0 DUP3 PUSH1 0x40 ADD MLOAD PUSH2 0xFFFF AND GT DUP1 ISZERO PUSH2 0x26F5 JUMPI POP DUP2 PUSH1 0x40 ADD MLOAD PUSH2 0xFFFF AND DUP2 SUB PUSH4 0xFFFFFFFF AND DUP3 PUSH1 0x60 ADD MLOAD PUSH4 0xFFFFFFFF AND GT ISZERO JUMPDEST ISZERO PUSH2 0x275B JUMPI PUSH1 0x0 DUP3 PUSH1 0x20 ADD SWAP1 PUSH12 0xFFFFFFFFFFFFFFFFFFFFFFFF AND SWAP1 DUP2 PUSH12 0xFFFFFFFFFFFFFFFFFFFFFFFF AND DUP2 MSTORE POP POP DUP2 PUSH1 0x40 ADD MLOAD PUSH2 0xFFFF AND DUP3 PUSH1 0x60 ADD MLOAD DUP3 SUB PUSH4 0xFFFFFFFF AND DUP2 PUSH2 0x2740 JUMPI INVALID JUMPDEST MOD DUP2 SUB DUP3 PUSH1 0x60 ADD SWAP1 PUSH4 0xFFFFFFFF AND SWAP1 DUP2 PUSH4 0xFFFFFFFF AND DUP2 MSTORE POP POP JUMPDEST DUP2 SWAP2 POP POP SWAP4 SWAP3 POP POP POP JUMP JUMPDEST PUSH1 0x60 PUSH1 0x0 PUSH1 0x40 MLOAD DUP1 DUP1 PUSH2 0x3649 PUSH1 0x6C SWAP2 CODECOPY PUSH1 0x6C ADD SWAP1 POP PUSH1 0x40 MLOAD DUP1 SWAP2 SUB SWAP1 KECCAK256 DUP10 DUP10 DUP10 DUP10 DUP10 DUP10 DUP10 PUSH1 0x40 MLOAD PUSH1 0x20 ADD DUP1 DUP10 DUP2 MSTORE PUSH1 0x20 ADD DUP9 PUSH20 0xFFFFFFFFFFFFFFFFFFFFFFFFFFFFFFFFFFFFFFFF AND PUSH20 0xFFFFFFFFFFFFFFFFFFFFFFFFFFFFFFFFFFFFFFFF AND DUP2 MSTORE PUSH1 0x20 ADD DUP8 PUSH20 0xFFFFFFFFFFFFFFFFFFFFFFFFFFFFFFFFFFFFFFFF AND PUSH20 0xFFFFFFFFFFFFFFFFFFFFFFFFFFFFFFFFFFFFFFFF AND DUP2 MSTORE PUSH1 0x20 ADD DUP7 PUSH20 0xFFFFFFFFFFFFFFFFFFFFFFFFFFFFFFFFFFFFFFFF AND PUSH20 0xFFFFFFFFFFFFFFFFFFFFFFFFFFFFFFFFFFFFFFFF AND DUP2 MSTORE PUSH1 0x20 ADD DUP6 PUSH12 0xFFFFFFFFFFFFFFFFFFFFFFFF AND PUSH12 0xFFFFFFFFFFFFFFFFFFFFFFFF AND DUP2 MSTORE PUSH1 0x20 ADD DUP5 PUSH20 0xFFFFFFFFFFFFFFFFFFFFFFFFFFFFFFFFFFFFFFFF AND PUSH20 0xFFFFFFFFFFFFFFFFFFFFFFFFFFFFFFFFFFFFFFFF AND DUP2 MSTORE PUSH1 0x20 ADD DUP4 PUSH12 0xFFFFFFFFFFFFFFFFFFFFFFFF AND PUSH12 0xFFFFFFFFFFFFFFFFFFFFFFFF AND DUP2 MSTORE PUSH1 0x20 ADD DUP3 PUSH2 0xFFFF AND PUSH2 0xFFFF AND DUP2 MSTORE PUSH1 0x20 ADD SWAP9 POP POP POP POP POP POP POP POP POP PUSH1 0x40 MLOAD PUSH1 0x20 DUP2 DUP4 SUB SUB DUP2 MSTORE SWAP1 PUSH1 0x40 MSTORE DUP1 MLOAD SWAP1 PUSH1 0x20 ADD KECCAK256 SWAP1 POP PUSH1 0x19 PUSH1 0xF8 SHL PUSH1 0x1 PUSH1 0xF8 SHL PUSH1 0x4 SLOAD DUP4 PUSH1 0x40 MLOAD PUSH1 0x20 ADD DUP1 DUP6 PUSH31 0xFFFFFFFFFFFFFFFFFFFFFFFFFFFFFFFFFFFFFFFFFFFFFFFFFFFFFFFFFFFFFF NOT AND PUSH31 0xFFFFFFFFFFFFFFFFFFFFFFFFFFFFFFFFFFFFFFFFFFFFFFFFFFFFFFFFFFFFFF NOT AND DUP2 MSTORE PUSH1 0x1 ADD DUP5 PUSH31 0xFFFFFFFFFFFFFFFFFFFFFFFFFFFFFFFFFFFFFFFFFFFFFFFFFFFFFFFFFFFFFF NOT AND PUSH31 0xFFFFFFFFFFFFFFFFFFFFFFFFFFFFFFFFFFFFFFFFFFFFFFFFFFFFFFFFFFFFFF NOT AND DUP2 MSTORE PUSH1 0x1 ADD DUP4 DUP2 MSTORE PUSH1 0x20 ADD DUP3 DUP2 MSTORE PUSH1 0x20 ADD SWAP5 POP POP POP POP POP PUSH1 0x40 MLOAD PUSH1 0x20 DUP2 DUP4 SUB SUB DUP2 MSTORE SWAP1 PUSH1 0x40 MSTORE SWAP2 POP POP SWAP8 SWAP7 POP POP POP POP POP POP POP JUMP JUMPDEST DUP1 PUSH1 0x0 DUP1 DUP7 PUSH20 0xFFFFFFFFFFFFFFFFFFFFFFFFFFFFFFFFFFFFFFFF AND PUSH20 0xFFFFFFFFFFFFFFFFFFFFFFFFFFFFFFFFFFFFFFFF AND DUP2 MSTORE PUSH1 0x20 ADD SWAP1 DUP2 MSTORE PUSH1 0x20 ADD PUSH1 0x0 KECCAK256 PUSH1 0x0 DUP6 PUSH20 0xFFFFFFFFFFFFFFFFFFFFFFFFFFFFFFFFFFFFFFFF AND PUSH20 0xFFFFFFFFFFFFFFFFFFFFFFFFFFFFFFFFFFFFFFFF AND DUP2 MSTORE PUSH1 0x20 ADD SWAP1 DUP2 MSTORE PUSH1 0x20 ADD PUSH1 0x0 KECCAK256 PUSH1 0x0 DUP5 PUSH20 0xFFFFFFFFFFFFFFFFFFFFFFFFFFFFFFFFFFFFFFFF AND PUSH20 0xFFFFFFFFFFFFFFFFFFFFFFFFFFFFFFFFFFFFFFFF AND DUP2 MSTORE PUSH1 0x20 ADD SWAP1 DUP2 MSTORE PUSH1 0x20 ADD PUSH1 0x0 KECCAK256 PUSH1 0x0 DUP3 ADD MLOAD DUP2 PUSH1 0x0 ADD PUSH1 0x0 PUSH2 0x100 EXP DUP2 SLOAD DUP2 PUSH12 0xFFFFFFFFFFFFFFFFFFFFFFFF MUL NOT AND SWAP1 DUP4 PUSH12 0xFFFFFFFFFFFFFFFFFFFFFFFF AND MUL OR SWAP1 SSTORE POP PUSH1 0x20 DUP3 ADD MLOAD DUP2 PUSH1 0x0 ADD PUSH1 0xC PUSH2 0x100 EXP DUP2 SLOAD DUP2 PUSH12 0xFFFFFFFFFFFFFFFFFFFFFFFF MUL NOT AND SWAP1 DUP4 PUSH12 0xFFFFFFFFFFFFFFFFFFFFFFFF AND MUL OR SWAP1 SSTORE POP PUSH1 0x40 DUP3 ADD MLOAD DUP2 PUSH1 0x0 ADD PUSH1 0x18 PUSH2 0x100 EXP DUP2 SLOAD DUP2 PUSH2 0xFFFF MUL NOT AND SWAP1 DUP4 PUSH2 0xFFFF AND MUL OR SWAP1 SSTORE POP PUSH1 0x60 DUP3 ADD MLOAD DUP2 PUSH1 0x0 ADD PUSH1 0x1A PUSH2 0x100 EXP DUP2 SLOAD DUP2 PUSH4 0xFFFFFFFF MUL NOT AND SWAP1 DUP4 PUSH4 0xFFFFFFFF AND MUL OR SWAP1 SSTORE POP PUSH1 0x80 DUP3 ADD MLOAD DUP2 PUSH1 0x0 ADD PUSH1 0x1E PUSH2 0x100 EXP DUP2 SLOAD DUP2 PUSH2 0xFFFF MUL NOT AND SWAP1 DUP4 PUSH2 0xFFFF AND MUL OR SWAP1 SSTORE POP SWAP1 POP POP POP POP POP POP JUMP JUMPDEST PUSH1 0x0 PUSH2 0x2B54 DUP5 DUP5 PUSH2 0x30E5 JUMP JUMPDEST SWAP1 POP DUP1 PUSH20 0xFFFFFFFFFFFFFFFFFFFFFFFFFFFFFFFFFFFFFFFF AND DUP6 PUSH20 0xFFFFFFFFFFFFFFFFFFFFFFFFFFFFFFFFFFFFFFFF AND EQ DUP1 ISZERO PUSH2 0x2C3F JUMPI POP DUP1 PUSH20 0xFFFFFFFFFFFFFFFFFFFFFFFFFFFFFFFFFFFFFFFF AND PUSH1 0x2 PUSH1 0x0 DUP5 PUSH20 0xFFFFFFFFFFFFFFFFFFFFFFFFFFFFFFFFFFFFFFFF AND PUSH20 0xFFFFFFFFFFFFFFFFFFFFFFFFFFFFFFFFFFFFFFFF AND DUP2 MSTORE PUSH1 0x20 ADD SWAP1 DUP2 MSTORE PUSH1 0x20 ADD PUSH1 0x0 KECCAK256 PUSH1 0x0 DUP4 PUSH6 0xFFFFFFFFFFFF AND PUSH6 0xFFFFFFFFFFFF AND DUP2 MSTORE PUSH1 0x20 ADD SWAP1 DUP2 MSTORE PUSH1 0x20 ADD PUSH1 0x0 KECCAK256 PUSH1 0x0 ADD PUSH1 0x0 SWAP1 SLOAD SWAP1 PUSH2 0x100 EXP SWAP1 DIV PUSH20 0xFFFFFFFFFFFFFFFFFFFFFFFFFFFFFFFFFFFFFFFF AND PUSH20 0xFFFFFFFFFFFFFFFFFFFFFFFFFFFFFFFFFFFFFFFF AND EQ JUMPDEST PUSH2 0x2C94 JUMPI PUSH1 0x40 MLOAD PUSH32 0x8C379A000000000000000000000000000000000000000000000000000000000 DUP2 MSTORE PUSH1 0x4 ADD DUP1 DUP1 PUSH1 0x20 ADD DUP3 DUP2 SUB DUP3 MSTORE PUSH1 0x59 DUP2 MSTORE PUSH1 0x20 ADD DUP1 PUSH2 0x36B5 PUSH1 0x59 SWAP2 CODECOPY PUSH1 0x60 ADD SWAP2 POP POP PUSH1 0x40 MLOAD DUP1 SWAP2 SUB SWAP1 REVERT JUMPDEST POP POP POP POP POP JUMP JUMPDEST PUSH1 0x0 PUSH20 0xFFFFFFFFFFFFFFFFFFFFFFFFFFFFFFFFFFFFFFFF AND DUP4 PUSH20 0xFFFFFFFFFFFFFFFFFFFFFFFFFFFFFFFFFFFFFFFF AND EQ ISZERO PUSH2 0x2E42 JUMPI DUP4 PUSH20 0xFFFFFFFFFFFFFFFFFFFFFFFFFFFFFFFFFFFFFFFF AND PUSH4 0x468721A7 DUP4 DUP4 PUSH1 0x0 PUSH1 0x40 MLOAD DUP5 PUSH4 0xFFFFFFFF AND PUSH1 0xE0 SHL DUP2 MSTORE PUSH1 0x4 ADD DUP1 DUP5 PUSH20 0xFFFFFFFFFFFFFFFFFFFFFFFFFFFFFFFFFFFFFFFF AND PUSH20 0xFFFFFFFFFFFFFFFFFFFFFFFFFFFFFFFFFFFFFFFF AND DUP2 MSTORE PUSH1 0x20 ADD DUP4 PUSH12 0xFFFFFFFFFFFFFFFFFFFFFFFF AND DUP2 MSTORE PUSH1 0x20 ADD DUP1 PUSH1 0x20 ADD DUP4 PUSH1 0x1 DUP2 GT ISZERO PUSH2 0x2D59 JUMPI INVALID JUMPDEST PUSH1 0xFF AND DUP2 MSTORE PUSH1 0x20 ADD DUP3 DUP2 SUB DUP3 MSTORE PUSH1 0x0 DUP2 MSTORE PUSH1 0x20 ADD PUSH1 0x20 ADD SWAP5 POP POP POP POP POP PUSH1 0x20 PUSH1 0x40 MLOAD DUP1 DUP4 SUB DUP2 PUSH1 0x0 DUP8 DUP1 EXTCODESIZE ISZERO DUP1 ISZERO PUSH2 0x2D90 JUMPI PUSH1 0x0 DUP1 REVERT JUMPDEST POP GAS CALL ISZERO DUP1 ISZERO PUSH2 0x2DA4 JUMPI RETURNDATASIZE PUSH1 0x0 DUP1 RETURNDATACOPY RETURNDATASIZE PUSH1 0x0 REVERT JUMPDEST POP POP POP POP PUSH1 0x40 MLOAD RETURNDATASIZE PUSH1 0x20 DUP2 LT ISZERO PUSH2 0x2DBA JUMPI PUSH1 0x0 DUP1 REVERT JUMPDEST DUP2 ADD SWAP1 DUP1 DUP1 MLOAD SWAP1 PUSH1 0x20 ADD SWAP1 SWAP3 SWAP2 SWAP1 POP POP POP PUSH2 0x2E3D JUMPI PUSH1 0x40 MLOAD PUSH32 0x8C379A000000000000000000000000000000000000000000000000000000000 DUP2 MSTORE PUSH1 0x4 ADD DUP1 DUP1 PUSH1 0x20 ADD DUP3 DUP2 SUB DUP3 MSTORE PUSH1 0x20 DUP2 MSTORE PUSH1 0x20 ADD DUP1 PUSH32 0x436F756C64206E6F742065786563757465206574686572207472616E73666572 DUP2 MSTORE POP PUSH1 0x20 ADD SWAP2 POP POP PUSH1 0x40 MLOAD DUP1 SWAP2 SUB SWAP1 REVERT JUMPDEST PUSH2 0x30DF JUMP JUMPDEST PUSH1 0x60 DUP3 DUP3 PUSH1 0x40 MLOAD PUSH1 0x24 ADD DUP1 DUP4 PUSH20 0xFFFFFFFFFFFFFFFFFFFFFFFFFFFFFFFFFFFFFFFF AND PUSH20 0xFFFFFFFFFFFFFFFFFFFFFFFFFFFFFFFFFFFFFFFF AND DUP2 MSTORE PUSH1 0x20 ADD DUP3 PUSH12 0xFFFFFFFFFFFFFFFFFFFFFFFF AND PUSH12 0xFFFFFFFFFFFFFFFFFFFFFFFF AND DUP2 MSTORE PUSH1 0x20 ADD SWAP3 POP POP POP PUSH1 0x40 MLOAD PUSH1 0x20 DUP2 DUP4 SUB SUB DUP2 MSTORE SWAP1 PUSH1 0x40 MSTORE PUSH32 0xA9059CBB00000000000000000000000000000000000000000000000000000000 PUSH28 0xFFFFFFFFFFFFFFFFFFFFFFFFFFFFFFFFFFFFFFFFFFFFFFFFFFFFFFFF NOT AND PUSH1 0x20 DUP3 ADD DUP1 MLOAD PUSH28 0xFFFFFFFFFFFFFFFFFFFFFFFFFFFFFFFFFFFFFFFFFFFFFFFFFFFFFFFF DUP4 DUP2 DUP4 AND OR DUP4 MSTORE POP POP POP POP SWAP1 POP DUP5 PUSH20 0xFFFFFFFFFFFFFFFFFFFFFFFFFFFFFFFFFFFFFFFF AND PUSH4 0x468721A7 DUP6 PUSH1 0x0 DUP5 PUSH1 0x0 PUSH1 0x40 MLOAD DUP6 PUSH4 0xFFFFFFFF AND PUSH1 0xE0 SHL DUP2 MSTORE PUSH1 0x4 ADD DUP1 DUP6 PUSH20 0xFFFFFFFFFFFFFFFFFFFFFFFFFFFFFFFFFFFFFFFF AND PUSH20 0xFFFFFFFFFFFFFFFFFFFFFFFFFFFFFFFFFFFFFFFF AND DUP2 MSTORE PUSH1 0x20 ADD DUP5 DUP2 MSTORE PUSH1 0x20 ADD DUP1 PUSH1 0x20 ADD DUP4 PUSH1 0x1 DUP2 GT ISZERO PUSH2 0x2FA1 JUMPI INVALID JUMPDEST PUSH1 0xFF AND DUP2 MSTORE PUSH1 0x20 ADD DUP3 DUP2 SUB DUP3 MSTORE DUP5 DUP2 DUP2 MLOAD DUP2 MSTORE PUSH1 0x20 ADD SWAP2 POP DUP1 MLOAD SWAP1 PUSH1 0x20 ADD SWAP1 DUP1 DUP4 DUP4 PUSH1 0x0 JUMPDEST DUP4 DUP2 LT ISZERO PUSH2 0x2FE1 JUMPI DUP1 DUP3 ADD MLOAD DUP2 DUP5 ADD MSTORE PUSH1 0x20 DUP2 ADD SWAP1 POP PUSH2 0x2FC6 JUMP JUMPDEST POP POP POP POP SWAP1 POP SWAP1 DUP2 ADD SWAP1 PUSH1 0x1F AND DUP1 ISZERO PUSH2 0x300E JUMPI DUP1 DUP3 SUB DUP1 MLOAD PUSH1 0x1 DUP4 PUSH1 0x20 SUB PUSH2 0x100 EXP SUB NOT AND DUP2 MSTORE PUSH1 0x20 ADD SWAP2 POP JUMPDEST POP SWAP6 POP POP POP POP POP POP PUSH1 0x20 PUSH1 0x40 MLOAD DUP1 DUP4 SUB DUP2 PUSH1 0x0 DUP8 DUP1 EXTCODESIZE ISZERO DUP1 ISZERO PUSH2 0x3030 JUMPI PUSH1 0x0 DUP1 REVERT JUMPDEST POP GAS CALL ISZERO DUP1 ISZERO PUSH2 0x3044 JUMPI RETURNDATASIZE PUSH1 0x0 DUP1 RETURNDATACOPY RETURNDATASIZE PUSH1 0x0 REVERT JUMPDEST POP POP POP POP PUSH1 0x40 MLOAD RETURNDATASIZE PUSH1 0x20 DUP2 LT ISZERO PUSH2 0x305A JUMPI PUSH1 0x0 DUP1 REVERT JUMPDEST DUP2 ADD SWAP1 DUP1 DUP1 MLOAD SWAP1 PUSH1 0x20 ADD SWAP1 SWAP3 SWAP2 SWAP1 POP POP POP PUSH2 0x30DD JUMPI PUSH1 0x40 MLOAD PUSH32 0x8C379A000000000000000000000000000000000000000000000000000000000 DUP2 MSTORE PUSH1 0x4 ADD DUP1 DUP1 PUSH1 0x20 ADD DUP3 DUP2 SUB DUP3 MSTORE PUSH1 0x20 DUP2 MSTORE PUSH1 0x20 ADD DUP1 PUSH32 0x436F756C64206E6F74206578656375746520746F6B656E207472616E73666572 DUP2 MSTORE POP PUSH1 0x20 ADD SWAP2 POP POP PUSH1 0x40 MLOAD DUP1 SWAP2 SUB SWAP1 REVERT JUMPDEST POP JUMPDEST POP POP POP POP JUMP JUMPDEST PUSH1 0x0 DUP1 DUP4 MLOAD EQ ISZERO PUSH2 0x30F8 JUMPI CALLER SWAP1 POP PUSH2 0x34F0 JUMP JUMPDEST PUSH1 0x41 DUP4 MLOAD LT ISZERO PUSH2 0x3170 JUMPI PUSH1 0x40 MLOAD PUSH32 0x8C379A000000000000000000000000000000000000000000000000000000000 DUP2 MSTORE PUSH1 0x4 ADD DUP1 DUP1 PUSH1 0x20 ADD DUP3 DUP2 SUB DUP3 MSTORE PUSH1 0x17 DUP2 MSTORE PUSH1 0x20 ADD DUP1 PUSH32 0x7369676E6174757265732E6C656E677468203E3D203635000000000000000000 DUP2 MSTORE POP PUSH1 0x20 ADD SWAP2 POP POP PUSH1 0x40 MLOAD DUP1 SWAP2 SUB SWAP1 REVERT JUMPDEST PUSH1 0x0 DUP1 PUSH1 0x0 PUSH2 0x3180 DUP7 PUSH1 0x0 PUSH2 0x34F6 JUMP JUMPDEST DUP1 SWAP4 POP DUP2 SWAP5 POP DUP3 SWAP6 POP POP POP POP PUSH1 0x0 DUP4 PUSH1 0xFF AND EQ ISZERO PUSH2 0x33A8 JUMPI DUP2 PUSH1 0x0 SHR SWAP4 POP PUSH1 0x60 PUSH1 0x20 DUP3 DUP9 ADD ADD SWAP1 POP PUSH4 0x20C13B0B PUSH1 0xE0 SHL PUSH28 0xFFFFFFFFFFFFFFFFFFFFFFFFFFFFFFFFFFFFFFFFFFFFFFFFFFFFFFFF NOT AND DUP6 PUSH20 0xFFFFFFFFFFFFFFFFFFFFFFFFFFFFFFFFFFFFFFFF AND PUSH4 0x20C13B0B DUP9 DUP5 PUSH1 0x40 MLOAD DUP4 PUSH4 0xFFFFFFFF AND PUSH1 0xE0 SHL DUP2 MSTORE PUSH1 0x4 ADD DUP1 DUP1 PUSH1 0x20 ADD DUP1 PUSH1 0x20 ADD DUP4 DUP2 SUB DUP4 MSTORE DUP6 DUP2 DUP2 MLOAD DUP2 MSTORE PUSH1 0x20 ADD SWAP2 POP DUP1 MLOAD SWAP1 PUSH1 0x20 ADD SWAP1 DUP1 DUP4 DUP4 PUSH1 0x0 JUMPDEST DUP4 DUP2 LT ISZERO PUSH2 0x3240 JUMPI DUP1 DUP3 ADD MLOAD DUP2 DUP5 ADD MSTORE PUSH1 0x20 DUP2 ADD SWAP1 POP PUSH2 0x3225 JUMP JUMPDEST POP POP POP POP SWAP1 POP SWAP1 DUP2 ADD SWAP1 PUSH1 0x1F AND DUP1 ISZERO PUSH2 0x326D JUMPI DUP1 DUP3 SUB DUP1 MLOAD PUSH1 0x1 DUP4 PUSH1 0x20 SUB PUSH2 0x100 EXP SUB NOT AND DUP2 MSTORE PUSH1 0x20 ADD SWAP2 POP JUMPDEST POP DUP4 DUP2 SUB DUP3 MSTORE DUP5 DUP2 DUP2 MLOAD DUP2 MSTORE PUSH1 0x20 ADD SWAP2 POP DUP1 MLOAD SWAP1 PUSH1 0x20 ADD SWAP1 DUP1 DUP4 DUP4 PUSH1 0x0 JUMPDEST DUP4 DUP2 LT ISZERO PUSH2 0x32A6 JUMPI DUP1 DUP3 ADD MLOAD DUP2 DUP5 ADD MSTORE PUSH1 0x20 DUP2 ADD SWAP1 POP PUSH2 0x328B JUMP JUMPDEST POP POP POP POP SWAP1 POP SWAP1 DUP2 ADD SWAP1 PUSH1 0x1F AND DUP1 ISZERO PUSH2 0x32D3 JUMPI DUP1 DUP3 SUB DUP1 MLOAD PUSH1 0x1 DUP4 PUSH1 0x20 SUB PUSH2 0x100 EXP SUB NOT AND DUP2 MSTORE PUSH1 0x20 ADD SWAP2 POP JUMPDEST POP SWAP5 POP POP POP POP POP PUSH1 0x20 PUSH1 0x40 MLOAD DUP1 DUP4 SUB DUP2 DUP7 DUP1 EXTCODESIZE ISZERO DUP1 ISZERO PUSH2 0x32F2 JUMPI PUSH1 0x0 DUP1 REVERT JUMPDEST POP GAS STATICCALL ISZERO DUP1 ISZERO PUSH2 0x3306 JUMPI RETURNDATASIZE PUSH1 0x0 DUP1 RETURNDATACOPY RETURNDATASIZE PUSH1 0x0 REVERT JUMPDEST POP POP POP POP PUSH1 0x40 MLOAD RETURNDATASIZE PUSH1 0x20 DUP2 LT ISZERO PUSH2 0x331C JUMPI PUSH1 0x0 DUP1 REVERT JUMPDEST DUP2 ADD SWAP1 DUP1 DUP1 MLOAD SWAP1 PUSH1 0x20 ADD SWAP1 SWAP3 SWAP2 SWAP1 POP POP POP PUSH28 0xFFFFFFFFFFFFFFFFFFFFFFFFFFFFFFFFFFFFFFFFFFFFFFFFFFFFFFFF NOT AND EQ PUSH2 0x33A2 JUMPI PUSH1 0x40 MLOAD PUSH32 0x8C379A000000000000000000000000000000000000000000000000000000000 DUP2 MSTORE PUSH1 0x4 ADD DUP1 DUP1 PUSH1 0x20 ADD DUP3 DUP2 SUB DUP3 MSTORE PUSH1 0x25 DUP2 MSTORE PUSH1 0x20 ADD DUP1 PUSH2 0x35E8 PUSH1 0x25 SWAP2 CODECOPY PUSH1 0x40 ADD SWAP2 POP POP PUSH1 0x40 MLOAD DUP1 SWAP2 SUB SWAP1 REVERT JUMPDEST POP PUSH2 0x34EC JUMP JUMPDEST PUSH1 0x1E DUP4 PUSH1 0xFF AND GT ISZERO PUSH2 0x347A JUMPI PUSH1 0x1 DUP6 DUP1 MLOAD SWAP1 PUSH1 0x20 ADD KECCAK256 PUSH1 0x40 MLOAD PUSH1 0x20 ADD DUP1 DUP1 PUSH32 0x19457468657265756D205369676E6564204D6573736167653A0A333200000000 DUP2 MSTORE POP PUSH1 0x1C ADD DUP3 DUP2 MSTORE PUSH1 0x20 ADD SWAP2 POP POP PUSH1 0x40 MLOAD PUSH1 0x20 DUP2 DUP4 SUB SUB DUP2 MSTORE SWAP1 PUSH1 0x40 MSTORE DUP1 MLOAD SWAP1 PUSH1 0x20 ADD KECCAK256 PUSH1 0x4 DUP6 SUB DUP5 DUP5 PUSH1 0x40 MLOAD PUSH1 0x0 DUP2 MSTORE PUSH1 0x20 ADD PUSH1 0x40 MSTORE PUSH1 0x40 MLOAD DUP1 DUP6 DUP2 MSTORE PUSH1 0x20 ADD DUP5 PUSH1 0xFF AND PUSH1 0xFF AND DUP2 MSTORE PUSH1 0x20 ADD DUP4 DUP2 MSTORE PUSH1 0x20 ADD DUP3 DUP2 MSTORE PUSH1 0x20 ADD SWAP5 POP POP POP POP POP PUSH1 0x20 PUSH1 0x40 MLOAD PUSH1 0x20 DUP2 SUB SWAP1 DUP1 DUP5 SUB SWAP1 DUP6 GAS STATICCALL ISZERO DUP1 ISZERO PUSH2 0x3469 JUMPI RETURNDATASIZE PUSH1 0x0 DUP1 RETURNDATACOPY RETURNDATASIZE PUSH1 0x0 REVERT JUMPDEST POP POP POP PUSH1 0x20 PUSH1 0x40 MLOAD SUB MLOAD SWAP4 POP PUSH2 0x34EB JUMP JUMPDEST PUSH1 0x1 DUP6 DUP1 MLOAD SWAP1 PUSH1 0x20 ADD KECCAK256 DUP5 DUP5 DUP5 PUSH1 0x40 MLOAD PUSH1 0x0 DUP2 MSTORE PUSH1 0x20 ADD PUSH1 0x40 MSTORE PUSH1 0x40 MLOAD DUP1 DUP6 DUP2 MSTORE PUSH1 0x20 ADD DUP5 PUSH1 0xFF AND PUSH1 0xFF AND DUP2 MSTORE PUSH1 0x20 ADD DUP4 DUP2 MSTORE PUSH1 0x20 ADD DUP3 DUP2 MSTORE PUSH1 0x20 ADD SWAP5 POP POP POP POP POP PUSH1 0x20 PUSH1 0x40 MLOAD PUSH1 0x20 DUP2 SUB SWAP1 DUP1 DUP5 SUB SWAP1 DUP6 GAS STATICCALL ISZERO DUP1 ISZERO PUSH2 0x34DE JUMPI RETURNDATASIZE PUSH1 0x0 DUP1 RETURNDATACOPY RETURNDATASIZE PUSH1 0x0 REVERT JUMPDEST POP POP POP PUSH1 0x20 PUSH1 0x40 MLOAD SUB MLOAD SWAP4 POP JUMPDEST JUMPDEST POP POP POP JUMPDEST SWAP3 SWAP2 POP POP JUMP JUMPDEST PUSH1 0x0 DUP1 PUSH1 0x0 DUP4 PUSH1 0x41 MUL PUSH1 0x20 DUP2 ADD DUP7 ADD MLOAD SWAP3 POP PUSH1 0x40 DUP2 ADD DUP7 ADD MLOAD SWAP2 POP PUSH1 0xFF PUSH1 0x41 DUP3 ADD DUP8 ADD MLOAD AND SWAP4 POP POP SWAP3 POP SWAP3 POP SWAP3 JUMP JUMPDEST PUSH1 0x40 MLOAD DUP1 PUSH1 0xA0 ADD PUSH1 0x40 MSTORE DUP1 PUSH1 0x0 PUSH12 0xFFFFFFFFFFFFFFFFFFFFFFFF AND DUP2 MSTORE PUSH1 0x20 ADD PUSH1 0x0 PUSH12 0xFFFFFFFFFFFFFFFFFFFFFFFF AND DUP2 MSTORE PUSH1 0x20 ADD PUSH1 0x0 PUSH2 0xFFFF AND DUP2 MSTORE PUSH1 0x20 ADD PUSH1 0x0 PUSH4 0xFFFFFFFF AND DUP2 MSTORE PUSH1 0x20 ADD PUSH1 0x0 PUSH2 0xFFFF AND DUP2 MSTORE POP SWAP1 JUMP JUMPDEST PUSH1 0x40 MLOAD DUP1 PUSH1 0x60 ADD PUSH1 0x40 MSTORE DUP1 PUSH1 0x0 PUSH20 0xFFFFFFFFFFFFFFFFFFFFFFFFFFFFFFFFFFFFFFFF AND DUP2 MSTORE PUSH1 0x20 ADD PUSH1 0x0 PUSH6 0xFFFFFFFFFFFF AND DUP2 MSTORE PUSH1 0x20 ADD PUSH1 0x0 PUSH6 0xFFFFFFFFFFFF AND DUP2 MSTORE POP SWAP1 JUMP JUMPDEST PUSH1 0x40 MLOAD DUP1 PUSH1 0xA0 ADD PUSH1 0x40 MSTORE DUP1 PUSH1 0x5 SWAP1 PUSH1 0x20 DUP3 MUL DUP1 CODESIZE DUP4 CODECOPY DUP1 DUP3 ADD SWAP2 POP POP SWAP1 POP POP SWAP1 JUMP INVALID NUMBER PUSH16 0x756C64206E6F742076616C6964617465 KECCAK256 GASLIMIT 0x49 POP 0x2d BALANCE ORIGIN CALLDATACOPY BALANCE KECCAK256 PUSH20 0x69676E617475726564656C6567617465735B6D73 PUSH8 0x2E73656E6465725D JUMPDEST PUSH22 0x696E7434382864656C6567617465295D2E64656C6567 PUSH2 0x7465 KECCAK256 RETURNDATASIZE RETURNDATASIZE KECCAK256 PUSH5 0x656C656761 PUSH21 0x65416C6C6F77616E63655472616E73666572286164 PUSH5 0x7265737320 PUSH20 0x6166652C6164647265737320746F6B656E2C7569 PUSH15 0x74393620616D6F756E742C61646472 PUSH6 0x737320706179 PUSH14 0x656E74546F6B656E2C75696E7439 CALLDATASIZE KECCAK256 PUSH17 0x61796D656E742C75696E743136206E6F6E PUSH4 0x65296578 PUSH17 0x656374656444656C6567617465203D3D20 PUSH20 0x69676E65722026262064656C6567617465735B61 PUSH5 0x6472657373 0x28 PUSH20 0x616665295D5B75696E743438287369676E657229 0x5d 0x2e PUSH5 0x656C656761 PUSH21 0x65203D3D207369676E65726E65775370656E74203E KECCAK256 PUSH2 0x6C6C PUSH16 0x77616E63652E7370656E74202626206E PUSH6 0x775370656E74 KECCAK256 EXTCODECOPY RETURNDATASIZE KECCAK256 PUSH2 0x6C6C PUSH16 0x77616E63652E616D6F756E746E657753 PUSH17 0x656E74203E207061796D656E74416C6C6F PUSH24 0x616E63652E7370656E74202626206E65775370656E74203C RETURNDATASIZE KECCAK256 PUSH17 0x61796D656E74416C6C6F77616E63652E61 PUSH14 0x6F756E74A265627A7A7230582089 0xe6 0xc8 SHL 0xdf LOG4 0xbb DUP1 0xa5 0xf6 0xbd PUSH13 0xB073FDCB4FB64D564B02765F1E 0x5d 0xb7 PUSH17 0x3DDA824564736F6C634300050A00320000 "
				},
				"gasEstimates": {
					"creation": {
						"codeDepositCost": "2855200",
						"executionCost": "23304",
						"totalCost": "2878504"
					},
					"external": {
						"ALLOWANCE_TRANSFER_TYPEHASH()": "infinite",
						"DOMAIN_SEPARATOR_TYPEHASH()": "235",
						"NAME()": "infinite",
						"VERSION()": "infinite",
						"addDelegate(address)": "104649",
						"allowances(address,address,address)": "2258",
						"delegates(address,uint48)": "1456",
						"delegatesStart(address)": "652",
						"domainSeparator()": "493",
						"executeAllowanceTransfer(address,address,address,uint96,address,uint96,address,bytes)": "infinite",
						"generateTransferHash(address,address,address,uint96,address,uint96,uint16)": "infinite",
						"getDelegates(address,uint48,uint8)": "infinite",
						"getTokenAllowance(address,address,address)": "infinite",
						"getTokens(address,address)": "infinite",
						"removeDelegate(address)": "infinite",
						"resetAllowance(address,address)": "infinite",
						"setAllowance(address,address,uint96,uint16,uint32)": "infinite",
						"tokens(address,address,uint256)": "1085"
					},
					"internal": {
						"checkSignature(address,bytes memory,bytes memory,contract GnosisSafe)": "infinite",
						"generateTransferHashData(address,address,address,uint96,address,uint96,uint16)": "infinite",
						"getAllowance(address,address,address)": "infinite",
						"recoverSignature(bytes memory,bytes memory)": "infinite",
						"transfer(contract GnosisSafe,address,address payable,uint96)": "infinite",
						"updateAllowance(address,address,address,struct AllowanceModule.Allowance memory)": "infinite"
					}
				},
				"methodIdentifiers": {
					"ALLOWANCE_TRANSFER_TYPEHASH()": "43abf5fe",
					"DOMAIN_SEPARATOR_TYPEHASH()": "1db61b54",
					"NAME()": "a3f4df7e",
					"VERSION()": "ffa1ad74",
					"addDelegate(address)": "e71bdf41",
					"allowances(address,address,address)": "b713c9d4",
					"delegates(address,uint48)": "ce60c692",
					"delegatesStart(address)": "310a3bb1",
					"domainSeparator()": "f698da25",
					"executeAllowanceTransfer(address,address,address,uint96,address,uint96,address,bytes)": "4515641a",
					"generateTransferHash(address,address,address,uint96,address,uint96,uint16)": "d626e043",
					"getDelegates(address,uint48,uint8)": "eb37abe0",
					"getTokenAllowance(address,address,address)": "94b31fbd",
					"getTokens(address,address)": "8d0e8e1d",
					"removeDelegate(address)": "67e7646f",
					"resetAllowance(address,address)": "c19bf50e",
					"setAllowance(address,address,uint96,uint16,uint32)": "beaeb388",
					"tokens(address,address,uint256)": "f56e81fa"
				}
			},
			"userdoc": {
				"methods": {}
			}
		}
	}
}