{
	"input/ERC20Utilities.sol": {
		"ERC20Utilities": {
			"abi": [
				{
					"constant": true,
					"inputs": [
						{
							"name": "user",
							"type": "address"
						},
						{
							"name": "token",
							"type": "address"
						}
					],
					"name": "tokenBalance",
					"outputs": [
						{
							"name": "",
							"type": "uint256"
						}
					],
					"payable": false,
					"stateMutability": "view",
					"type": "function"
				},
				{
					"constant": true,
					"inputs": [
						{
							"name": "tokens",
							"type": "address[]"
						}
					],
					"name": "batchTokenDecimals",
					"outputs": [
						{
							"name": "",
							"type": "uint256[]"
						}
					],
					"payable": false,
					"stateMutability": "view",
					"type": "function"
				},
				{
					"constant": true,
					"inputs": [
						{
							"name": "users",
							"type": "address[]"
						},
						{
							"name": "tokens",
							"type": "address[]"
						}
					],
					"name": "batchTokenBalances",
					"outputs": [
						{
							"name": "",
							"type": "uint256[]"
						}
					],
					"payable": false,
					"stateMutability": "view",
					"type": "function"
				},
				{
					"constant": true,
					"inputs": [
						{
							"name": "token",
							"type": "address"
						}
					],
					"name": "tokenDecimals",
					"outputs": [
						{
							"name": "",
							"type": "uint256"
						}
					],
					"payable": false,
					"stateMutability": "view",
					"type": "function"
				},
				{
					"payable": true,
					"stateMutability": "payable",
					"type": "fallback"
				}
			],
			"devdoc": {
				"methods": {}
			},
			"evm": {
				"assembly": "    /* \"input/ERC20Utilities.sol\":182:2269  contract ERC20Utilities {... */\n  mstore(0x40, 0x80)\n  callvalue\n    /* \"--CODEGEN--\":8:17   */\n  dup1\n    /* \"--CODEGEN--\":5:7   */\n  iszero\n  tag_1\n  jumpi\n    /* \"--CODEGEN--\":30:31   */\n  0x0\n    /* \"--CODEGEN--\":27:28   */\n  dup1\n    /* \"--CODEGEN--\":20:32   */\n  revert\n    /* \"--CODEGEN--\":5:7   */\ntag_1:\n    /* \"input/ERC20Utilities.sol\":182:2269  contract ERC20Utilities {... */\n  pop\n  dataSize(sub_0)\n  dup1\n  dataOffset(sub_0)\n  0x0\n  codecopy\n  0x0\n  return\nstop\n\nsub_0: assembly {\n        /* \"input/ERC20Utilities.sol\":182:2269  contract ERC20Utilities {... */\n      mstore(0x40, 0x80)\n      jumpi(tag_1, lt(calldatasize, 0x4))\n      calldataload(0x0)\n      0x100000000000000000000000000000000000000000000000000000000\n      swap1\n      div\n      0xffffffff\n      and\n      dup1\n      0x1049334f\n      eq\n      tag_2\n      jumpi\n      dup1\n      0x5162f6af\n      eq\n      tag_3\n      jumpi\n      dup1\n      0x87d74481\n      eq\n      tag_4\n      jumpi\n      dup1\n      0x8ee573ac\n      eq\n      tag_5\n      jumpi\n    tag_1:\n        /* \"input/ERC20Utilities.sol\":290:339  revert(\"ERC20Utilities does not accept payments\") */\n      mload(0x40)\n      0x8c379a000000000000000000000000000000000000000000000000000000000\n      dup2\n      mstore\n      0x4\n      add\n      dup1\n      dup1\n      0x20\n      add\n      dup3\n      dup2\n      sub\n      dup3\n      mstore\n      0x27\n      dup2\n      mstore\n      0x20\n      add\n      dup1\n      0x45524332305574696c697469657320646f6573206e6f74206163636570742070\n      dup2\n      mstore\n      0x20\n      add\n      0x61796d656e747300000000000000000000000000000000000000000000000000\n      dup2\n      mstore\n      pop\n      0x40\n      add\n      swap2\n      pop\n      pop\n      mload(0x40)\n      dup1\n      swap2\n      sub\n      swap1\n      revert\n        /* \"input/ERC20Utilities.sol\":1257:1684  function tokenBalance(address user, address token) public view returns (uint) {... */\n    tag_2:\n      callvalue\n        /* \"--CODEGEN--\":8:17   */\n      dup1\n        /* \"--CODEGEN--\":5:7   */\n      iszero\n      tag_8\n      jumpi\n        /* \"--CODEGEN--\":30:31   */\n      0x0\n        /* \"--CODEGEN--\":27:28   */\n      dup1\n        /* \"--CODEGEN--\":20:32   */\n      revert\n        /* \"--CODEGEN--\":5:7   */\n    tag_8:\n        /* \"input/ERC20Utilities.sol\":1257:1684  function tokenBalance(address user, address token) public view returns (uint) {... */\n      pop\n      tag_9\n      0x4\n      dup1\n      calldatasize\n      sub\n      dup2\n      add\n      swap1\n      dup1\n      dup1\n      calldataload\n      0xffffffffffffffffffffffffffffffffffffffff\n      and\n      swap1\n      0x20\n      add\n      swap1\n      swap3\n      swap2\n      swap1\n      dup1\n      calldataload\n      0xffffffffffffffffffffffffffffffffffffffff\n      and\n      swap1\n      0x20\n      add\n      swap1\n      swap3\n      swap2\n      swap1\n      pop\n      pop\n      pop\n      jump(tag_10)\n    tag_9:\n      mload(0x40)\n      dup1\n      dup3\n      dup2\n      mstore\n      0x20\n      add\n      swap2\n      pop\n      pop\n      mload(0x40)\n      dup1\n      swap2\n      sub\n      swap1\n      return\n        /* \"input/ERC20Utilities.sol\":798:1253  function batchTokenDecimals(address[] tokens) external view returns (uint[]) {... */\n    tag_3:\n      callvalue\n        /* \"--CODEGEN--\":8:17   */\n      dup1\n        /* \"--CODEGEN--\":5:7   */\n      iszero\n      tag_11\n      jumpi\n        /* \"--CODEGEN--\":30:31   */\n      0x0\n        /* \"--CODEGEN--\":27:28   */\n      dup1\n        /* \"--CODEGEN--\":20:32   */\n      revert\n        /* \"--CODEGEN--\":5:7   */\n    tag_11:\n        /* \"input/ERC20Utilities.sol\":798:1253  function batchTokenDecimals(address[] tokens) external view returns (uint[]) {... */\n      pop\n      tag_12\n      0x4\n      dup1\n      calldatasize\n      sub\n      dup2\n      add\n      swap1\n      dup1\n      dup1\n      calldataload\n      swap1\n      0x20\n      add\n      swap1\n      dup3\n      add\n      dup1\n      calldataload\n      swap1\n      0x20\n      add\n      swap2\n      swap1\n      swap2\n      swap3\n      swap4\n      swap2\n      swap3\n      swap4\n      swap1\n      pop\n      pop\n      pop\n      jump(tag_13)\n    tag_12:\n      mload(0x40)\n      dup1\n      dup1\n      0x20\n      add\n      dup3\n      dup2\n      sub\n      dup3\n      mstore\n      dup4\n      dup2\n      dup2\n      mload\n      dup2\n      mstore\n      0x20\n      add\n      swap2\n      pop\n      dup1\n      mload\n      swap1\n      0x20\n      add\n      swap1\n      0x20\n      mul\n      dup1\n      dup4\n      dup4\n        /* \"--CODEGEN--\":23:24   */\n      0x0\n        /* \"--CODEGEN--\":8:108   */\n    tag_14:\n        /* \"--CODEGEN--\":33:36   */\n      dup4\n        /* \"--CODEGEN--\":30:31   */\n      dup2\n        /* \"--CODEGEN--\":27:37   */\n      lt\n        /* \"--CODEGEN--\":8:108   */\n      iszero\n      tag_15\n      jumpi\n        /* \"--CODEGEN--\":99:100   */\n      dup1\n        /* \"--CODEGEN--\":94:97   */\n      dup3\n        /* \"--CODEGEN--\":90:101   */\n      add\n        /* \"--CODEGEN--\":84:102   */\n      mload\n        /* \"--CODEGEN--\":80:81   */\n      dup2\n        /* \"--CODEGEN--\":75:78   */\n      dup5\n        /* \"--CODEGEN--\":71:82   */\n      add\n        /* \"--CODEGEN--\":64:103   */\n      mstore\n        /* \"--CODEGEN--\":52:54   */\n      0x20\n        /* \"--CODEGEN--\":49:50   */\n      dup2\n        /* \"--CODEGEN--\":45:55   */\n      add\n        /* \"--CODEGEN--\":40:55   */\n      swap1\n      pop\n        /* \"--CODEGEN--\":8:108   */\n      jump(tag_14)\n    tag_15:\n        /* \"--CODEGEN--\":12:26   */\n      pop\n        /* \"input/ERC20Utilities.sol\":798:1253  function batchTokenDecimals(address[] tokens) external view returns (uint[]) {... */\n      pop\n      pop\n      pop\n      swap1\n      pop\n      add\n      swap3\n      pop\n      pop\n      pop\n      mload(0x40)\n      dup1\n      swap2\n      sub\n      swap1\n      return\n        /* \"input/ERC20Utilities.sol\":1690:2262  function batchTokenBalances(address[] users, address[] tokens) external view returns (uint[]) {... */\n    tag_4:\n      callvalue\n        /* \"--CODEGEN--\":8:17   */\n      dup1\n        /* \"--CODEGEN--\":5:7   */\n      iszero\n      tag_17\n      jumpi\n        /* \"--CODEGEN--\":30:31   */\n      0x0\n        /* \"--CODEGEN--\":27:28   */\n      dup1\n        /* \"--CODEGEN--\":20:32   */\n      revert\n        /* \"--CODEGEN--\":5:7   */\n    tag_17:\n        /* \"input/ERC20Utilities.sol\":1690:2262  function batchTokenBalances(address[] users, address[] tokens) external view returns (uint[]) {... */\n      pop\n      tag_18\n      0x4\n      dup1\n      calldatasize\n      sub\n      dup2\n      add\n      swap1\n      dup1\n      dup1\n      calldataload\n      swap1\n      0x20\n      add\n      swap1\n      dup3\n      add\n      dup1\n      calldataload\n      swap1\n      0x20\n      add\n      swap2\n      swap1\n      swap2\n      swap3\n      swap4\n      swap2\n      swap3\n      swap4\n      swap1\n      dup1\n      calldataload\n      swap1\n      0x20\n      add\n      swap1\n      dup3\n      add\n      dup1\n      calldataload\n      swap1\n      0x20\n      add\n      swap2\n      swap1\n      swap2\n      swap3\n      swap4\n      swap2\n      swap3\n      swap4\n      swap1\n      pop\n      pop\n      pop\n      jump(tag_19)\n    tag_18:\n      mload(0x40)\n      dup1\n      dup1\n      0x20\n      add\n      dup3\n      dup2\n      sub\n      dup3\n      mstore\n      dup4\n      dup2\n      dup2\n      mload\n      dup2\n      mstore\n      0x20\n      add\n      swap2\n      pop\n      dup1\n      mload\n      swap1\n      0x20\n      add\n      swap1\n      0x20\n      mul\n      dup1\n      dup4\n      dup4\n        /* \"--CODEGEN--\":23:24   */\n      0x0\n        /* \"--CODEGEN--\":8:108   */\n    tag_20:\n        /* \"--CODEGEN--\":33:36   */\n      dup4\n        /* \"--CODEGEN--\":30:31   */\n      dup2\n        /* \"--CODEGEN--\":27:37   */\n      lt\n        /* \"--CODEGEN--\":8:108   */\n      iszero\n      tag_21\n      jumpi\n        /* \"--CODEGEN--\":99:100   */\n      dup1\n        /* \"--CODEGEN--\":94:97   */\n      dup3\n        /* \"--CODEGEN--\":90:101   */\n      add\n        /* \"--CODEGEN--\":84:102   */\n      mload\n        /* \"--CODEGEN--\":80:81   */\n      dup2\n        /* \"--CODEGEN--\":75:78   */\n      dup5\n        /* \"--CODEGEN--\":71:82   */\n      add\n        /* \"--CODEGEN--\":64:103   */\n      mstore\n        /* \"--CODEGEN--\":52:54   */\n      0x20\n        /* \"--CODEGEN--\":49:50   */\n      dup2\n        /* \"--CODEGEN--\":45:55   */\n      add\n        /* \"--CODEGEN--\":40:55   */\n      swap1\n      pop\n        /* \"--CODEGEN--\":8:108   */\n      jump(tag_20)\n    tag_21:\n        /* \"--CODEGEN--\":12:26   */\n      pop\n        /* \"input/ERC20Utilities.sol\":1690:2262  function batchTokenBalances(address[] users, address[] tokens) external view returns (uint[]) {... */\n      pop\n      pop\n      pop\n      swap1\n      pop\n      add\n      swap3\n      pop\n      pop\n      pop\n      mload(0x40)\n      dup1\n      swap2\n      sub\n      swap1\n      return\n        /* \"input/ERC20Utilities.sol\":346:794  function tokenDecimals(address token) public view returns (uint) {... */\n    tag_5:\n      callvalue\n        /* \"--CODEGEN--\":8:17   */\n      dup1\n        /* \"--CODEGEN--\":5:7   */\n      iszero\n      tag_23\n      jumpi\n        /* \"--CODEGEN--\":30:31   */\n      0x0\n        /* \"--CODEGEN--\":27:28   */\n      dup1\n        /* \"--CODEGEN--\":20:32   */\n      revert\n        /* \"--CODEGEN--\":5:7   */\n    tag_23:\n        /* \"input/ERC20Utilities.sol\":346:794  function tokenDecimals(address token) public view returns (uint) {... */\n      pop\n      tag_24\n      0x4\n      dup1\n      calldatasize\n      sub\n      dup2\n      add\n      swap1\n      dup1\n      dup1\n      calldataload\n      0xffffffffffffffffffffffffffffffffffffffff\n      and\n      swap1\n      0x20\n      add\n      swap1\n      swap3\n      swap2\n      swap1\n      pop\n      pop\n      pop\n      jump(tag_25)\n    tag_24:\n      mload(0x40)\n      dup1\n      dup3\n      dup2\n      mstore\n      0x20\n      add\n      swap2\n      pop\n      pop\n      mload(0x40)\n      dup1\n      swap2\n      sub\n      swap1\n      return\n        /* \"input/ERC20Utilities.sol\":1257:1684  function tokenBalance(address user, address token) public view returns (uint) {... */\n    tag_10:\n        /* \"input/ERC20Utilities.sol\":1329:1333  uint */\n      0x0\n        /* \"input/ERC20Utilities.sol\":1386:1403  uint256 tokenCode */\n      dup1\n        /* \"input/ERC20Utilities.sol\":1445:1450  token */\n      dup3\n        /* \"input/ERC20Utilities.sol\":1433:1451  extcodesize(token) */\n      extcodesize\n        /* \"input/ERC20Utilities.sol\":1420:1451  tokenCode := extcodesize(token) */\n      swap1\n      pop\n        /* \"input/ERC20Utilities.sol\":1556:1557  0 */\n      0x0\n        /* \"input/ERC20Utilities.sol\":1544:1553  tokenCode */\n      dup2\n        /* \"input/ERC20Utilities.sol\":1544:1557  tokenCode > 0 */\n      gt\n        /* \"input/ERC20Utilities.sol\":1544:1597  tokenCode > 0 && token.call(bytes4(0x70a08231), user) */\n      dup1\n      iszero\n      tag_27\n      jumpi\n      pop\n        /* \"input/ERC20Utilities.sol\":1561:1566  token */\n      dup3\n        /* \"input/ERC20Utilities.sol\":1561:1571  token.call */\n      0xffffffffffffffffffffffffffffffffffffffff\n      and\n        /* \"input/ERC20Utilities.sol\":1579:1589  0x70a08231 */\n      0x70a08231\n        /* \"input/ERC20Utilities.sol\":1572:1590  bytes4(0x70a08231) */\n      0x100000000000000000000000000000000000000000000000000000000\n      mul\n        /* \"input/ERC20Utilities.sol\":1561:1597  token.call(bytes4(0x70a08231), user) */\n      0x100000000000000000000000000000000000000000000000000000000\n      swap1\n      div\n        /* \"input/ERC20Utilities.sol\":1592:1596  user */\n      dup6\n        /* \"input/ERC20Utilities.sol\":1561:1597  token.call(bytes4(0x70a08231), user) */\n      mload(0x40)\n      dup3\n      0xffffffff\n      and\n      0x100000000000000000000000000000000000000000000000000000000\n      mul\n      dup2\n      mstore\n      0x4\n      add\n      dup1\n      dup3\n      0xffffffffffffffffffffffffffffffffffffffff\n      and\n      0xffffffffffffffffffffffffffffffffffffffff\n      and\n      dup2\n      mstore\n      0x20\n      add\n      swap2\n      pop\n      pop\n      0x0\n      mload(0x40)\n      dup1\n      dup4\n      sub\n      dup2\n      0x0\n      dup8\n      gas\n      call\n      swap3\n      pop\n      pop\n      pop\n        /* \"input/ERC20Utilities.sol\":1544:1597  tokenCode > 0 && token.call(bytes4(0x70a08231), user) */\n    tag_27:\n        /* \"input/ERC20Utilities.sol\":1540:1680  if (tokenCode > 0 && token.call(bytes4(0x70a08231), user)) {  ... */\n      iszero\n      tag_28\n      jumpi\n        /* \"input/ERC20Utilities.sol\":1622:1627  token */\n      dup3\n        /* \"input/ERC20Utilities.sol\":1616:1638  Token(token).balanceOf */\n      0xffffffffffffffffffffffffffffffffffffffff\n      and\n      0x70a08231\n        /* \"input/ERC20Utilities.sol\":1639:1643  user */\n      dup6\n        /* \"input/ERC20Utilities.sol\":1616:1644  Token(token).balanceOf(user) */\n      mload(0x40)\n      dup3\n      0xffffffff\n      and\n      0x100000000000000000000000000000000000000000000000000000000\n      mul\n      dup2\n      mstore\n      0x4\n      add\n      dup1\n      dup3\n      0xffffffffffffffffffffffffffffffffffffffff\n      and\n      0xffffffffffffffffffffffffffffffffffffffff\n      and\n      dup2\n      mstore\n      0x20\n      add\n      swap2\n      pop\n      pop\n      0x20\n      mload(0x40)\n      dup1\n      dup4\n      sub\n      dup2\n      0x0\n      dup8\n      dup1\n      extcodesize\n      iszero\n        /* \"--CODEGEN--\":8:17   */\n      dup1\n        /* \"--CODEGEN--\":5:7   */\n      iszero\n      tag_29\n      jumpi\n        /* \"--CODEGEN--\":30:31   */\n      0x0\n        /* \"--CODEGEN--\":27:28   */\n      dup1\n        /* \"--CODEGEN--\":20:32   */\n      revert\n        /* \"--CODEGEN--\":5:7   */\n    tag_29:\n        /* \"input/ERC20Utilities.sol\":1616:1644  Token(token).balanceOf(user) */\n      pop\n      gas\n      call\n      iszero\n        /* \"--CODEGEN--\":8:17   */\n      dup1\n        /* \"--CODEGEN--\":5:7   */\n      iszero\n      tag_30\n      jumpi\n        /* \"--CODEGEN--\":45:61   */\n      returndatasize\n        /* \"--CODEGEN--\":42:43   */\n      0x0\n        /* \"--CODEGEN--\":39:40   */\n      dup1\n        /* \"--CODEGEN--\":24:62   */\n      returndatacopy\n        /* \"--CODEGEN--\":77:93   */\n      returndatasize\n        /* \"--CODEGEN--\":74:75   */\n      0x0\n        /* \"--CODEGEN--\":67:94   */\n      revert\n        /* \"--CODEGEN--\":5:7   */\n    tag_30:\n        /* \"input/ERC20Utilities.sol\":1616:1644  Token(token).balanceOf(user) */\n      pop\n      pop\n      pop\n      pop\n      mload(0x40)\n      returndatasize\n        /* \"--CODEGEN--\":13:15   */\n      0x20\n        /* \"--CODEGEN--\":8:11   */\n      dup2\n        /* \"--CODEGEN--\":5:16   */\n      lt\n        /* \"--CODEGEN--\":2:4   */\n      iszero\n      tag_31\n      jumpi\n        /* \"--CODEGEN--\":29:30   */\n      0x0\n        /* \"--CODEGEN--\":26:27   */\n      dup1\n        /* \"--CODEGEN--\":19:31   */\n      revert\n        /* \"--CODEGEN--\":2:4   */\n    tag_31:\n        /* \"input/ERC20Utilities.sol\":1616:1644  Token(token).balanceOf(user) */\n      dup2\n      add\n      swap1\n      dup1\n      dup1\n      mload\n      swap1\n      0x20\n      add\n      swap1\n      swap3\n      swap2\n      swap1\n      pop\n      pop\n      pop\n        /* \"input/ERC20Utilities.sol\":1609:1644  return Token(token).balanceOf(user) */\n      swap2\n      pop\n      jump(tag_26)\n        /* \"input/ERC20Utilities.sol\":1540:1680  if (tokenCode > 0 && token.call(bytes4(0x70a08231), user)) {  ... */\n    tag_28:\n        /* \"input/ERC20Utilities.sol\":1672:1673  0 */\n      0x0\n        /* \"input/ERC20Utilities.sol\":1665:1673  return 0 */\n      swap2\n      pop\n        /* \"input/ERC20Utilities.sol\":1257:1684  function tokenBalance(address user, address token) public view returns (uint) {... */\n    tag_26:\n      pop\n      swap3\n      swap2\n      pop\n      pop\n      jump\t// out\n        /* \"input/ERC20Utilities.sol\":798:1253  function batchTokenDecimals(address[] tokens) external view returns (uint[]) {... */\n    tag_13:\n        /* \"input/ERC20Utilities.sol\":867:873  uint[] */\n      0x60\n        /* \"input/ERC20Utilities.sol\":881:911  uint[] memory tokenDecimalsRes */\n      dup1\n        /* \"input/ERC20Utilities.sol\":955:961  uint j */\n      0x0\n        /* \"input/ERC20Utilities.sol\":999:1011  uint addrIdx */\n      dup1\n        /* \"input/ERC20Utilities.sol\":925:931  tokens */\n      dup6\n      dup6\n        /* \"input/ERC20Utilities.sol\":925:938  tokens.length */\n      swap1\n      pop\n        /* \"input/ERC20Utilities.sol\":914:939  new uint[](tokens.length) */\n      mload(0x40)\n      swap1\n      dup1\n      dup3\n      mstore\n      dup1\n      0x20\n      mul\n      0x20\n      add\n      dup3\n      add\n      0x40\n      mstore\n      dup1\n      iszero\n      tag_34\n      jumpi\n      dup2\n      0x20\n      add\n        /* \"--CODEGEN--\":29:31   */\n      0x20\n        /* \"--CODEGEN--\":21:27   */\n      dup3\n        /* \"--CODEGEN--\":17:32   */\n      mul\n        /* \"--CODEGEN--\":117:121   */\n      dup1\n        /* \"--CODEGEN--\":105:115   */\n      codesize\n        /* \"--CODEGEN--\":97:103   */\n      dup4\n        /* \"--CODEGEN--\":88:122   */\n      codecopy\n        /* \"--CODEGEN--\":148:152   */\n      dup1\n        /* \"--CODEGEN--\":140:146   */\n      dup3\n        /* \"--CODEGEN--\":136:153   */\n      add\n        /* \"--CODEGEN--\":126:153   */\n      swap2\n      pop\n        /* \"--CODEGEN--\":0:157   */\n      pop\n        /* \"input/ERC20Utilities.sol\":914:939  new uint[](tokens.length) */\n      swap1\n      pop\n    tag_34:\n      pop\n        /* \"input/ERC20Utilities.sol\":881:939  uint[] memory tokenDecimalsRes = new uint[](tokens.length) */\n      swap3\n      pop\n        /* \"input/ERC20Utilities.sol\":964:965  0 */\n      0x0\n        /* \"input/ERC20Utilities.sol\":955:965  uint j = 0 */\n      swap2\n      pop\n        /* \"input/ERC20Utilities.sol\":950:1217  for (uint j = 0; j < tokens.length; j++) {... */\n    tag_35:\n        /* \"input/ERC20Utilities.sol\":971:977  tokens */\n      dup6\n      dup6\n        /* \"input/ERC20Utilities.sol\":971:984  tokens.length */\n      swap1\n      pop\n        /* \"input/ERC20Utilities.sol\":967:968  j */\n      dup3\n        /* \"input/ERC20Utilities.sol\":967:984  j < tokens.length */\n      lt\n        /* \"input/ERC20Utilities.sol\":950:1217  for (uint j = 0; j < tokens.length; j++) {... */\n      iszero\n      tag_36\n      jumpi\n        /* \"input/ERC20Utilities.sol\":1014:1015  j */\n      dup2\n        /* \"input/ERC20Utilities.sol\":999:1015  uint addrIdx = j */\n      swap1\n      pop\n        /* \"input/ERC20Utilities.sol\":1048:1051  0x0 */\n      0x0\n        /* \"input/ERC20Utilities.sol\":1027:1052  tokens[j] != address(0x0) */\n      0xffffffffffffffffffffffffffffffffffffffff\n      and\n        /* \"input/ERC20Utilities.sol\":1027:1033  tokens */\n      dup7\n      dup7\n        /* \"input/ERC20Utilities.sol\":1034:1035  j */\n      dup5\n        /* \"input/ERC20Utilities.sol\":1027:1036  tokens[j] */\n      dup2\n      dup2\n      lt\n      iszero\n      iszero\n      tag_38\n      jumpi\n      invalid\n    tag_38:\n      swap1\n      pop\n      0x20\n      mul\n      add\n      calldataload\n      0xffffffffffffffffffffffffffffffffffffffff\n      and\n        /* \"input/ERC20Utilities.sol\":1027:1052  tokens[j] != address(0x0) */\n      0xffffffffffffffffffffffffffffffffffffffff\n      and\n      eq\n      iszero\n        /* \"input/ERC20Utilities.sol\":1023:1211  if (tokens[j] != address(0x0)) { ... */\n      iszero\n      tag_39\n      jumpi\n        /* \"input/ERC20Utilities.sol\":1093:1117  tokenDecimals(tokens[j]) */\n      tag_40\n        /* \"input/ERC20Utilities.sol\":1107:1113  tokens */\n      dup7\n      dup7\n        /* \"input/ERC20Utilities.sol\":1114:1115  j */\n      dup5\n        /* \"input/ERC20Utilities.sol\":1107:1116  tokens[j] */\n      dup2\n      dup2\n      lt\n      iszero\n      iszero\n      tag_41\n      jumpi\n      invalid\n    tag_41:\n      swap1\n      pop\n      0x20\n      mul\n      add\n      calldataload\n      0xffffffffffffffffffffffffffffffffffffffff\n      and\n        /* \"input/ERC20Utilities.sol\":1093:1106  tokenDecimals */\n      tag_25\n        /* \"input/ERC20Utilities.sol\":1093:1117  tokenDecimals(tokens[j]) */\n      jump\t// in\n    tag_40:\n        /* \"input/ERC20Utilities.sol\":1065:1081  tokenDecimalsRes */\n      dup4\n        /* \"input/ERC20Utilities.sol\":1082:1089  addrIdx */\n      dup3\n        /* \"input/ERC20Utilities.sol\":1065:1090  tokenDecimalsRes[addrIdx] */\n      dup2\n      mload\n      dup2\n      lt\n      iszero\n      iszero\n      tag_42\n      jumpi\n      invalid\n    tag_42:\n      swap1\n      0x20\n      add\n      swap1\n      0x20\n      mul\n      add\n        /* \"input/ERC20Utilities.sol\":1065:1117  tokenDecimalsRes[addrIdx] = tokenDecimals(tokens[j]) */\n      dup2\n      dup2\n      mstore\n      pop\n      pop\n        /* \"input/ERC20Utilities.sol\":1023:1211  if (tokens[j] != address(0x0)) { ... */\n      jump(tag_43)\n    tag_39:\n        /* \"input/ERC20Utilities.sol\":1170:1172  18 */\n      0x12\n        /* \"input/ERC20Utilities.sol\":1142:1158  tokenDecimalsRes */\n      dup4\n        /* \"input/ERC20Utilities.sol\":1159:1166  addrIdx */\n      dup3\n        /* \"input/ERC20Utilities.sol\":1142:1167  tokenDecimalsRes[addrIdx] */\n      dup2\n      mload\n      dup2\n      lt\n      iszero\n      iszero\n      tag_44\n      jumpi\n      invalid\n    tag_44:\n      swap1\n      0x20\n      add\n      swap1\n      0x20\n      mul\n      add\n        /* \"input/ERC20Utilities.sol\":1142:1172  tokenDecimalsRes[addrIdx] = 18 */\n      dup2\n      dup2\n      mstore\n      pop\n      pop\n        /* \"input/ERC20Utilities.sol\":1023:1211  if (tokens[j] != address(0x0)) { ... */\n    tag_43:\n        /* \"input/ERC20Utilities.sol\":986:989  j++ */\n      dup2\n      dup1\n      0x1\n      add\n      swap3\n      pop\n      pop\n        /* \"input/ERC20Utilities.sol\":950:1217  for (uint j = 0; j < tokens.length; j++) {... */\n      jump(tag_35)\n    tag_36:\n        /* \"input/ERC20Utilities.sol\":1232:1248  tokenDecimalsRes */\n      dup3\n        /* \"input/ERC20Utilities.sol\":1225:1248  return tokenDecimalsRes */\n      swap4\n      pop\n        /* \"input/ERC20Utilities.sol\":798:1253  function batchTokenDecimals(address[] tokens) external view returns (uint[]) {... */\n      pop\n      pop\n      pop\n      swap3\n      swap2\n      pop\n      pop\n      jump\t// out\n        /* \"input/ERC20Utilities.sol\":1690:2262  function batchTokenBalances(address[] users, address[] tokens) external view returns (uint[]) {... */\n    tag_19:\n        /* \"input/ERC20Utilities.sol\":1776:1782  uint[] */\n      0x60\n        /* \"input/ERC20Utilities.sol\":1790:1816  uint[] memory addrBalances */\n      dup1\n        /* \"input/ERC20Utilities.sol\":1874:1880  uint i */\n      0x0\n        /* \"input/ERC20Utilities.sol\":1922:1928  uint j */\n      dup1\n        /* \"input/ERC20Utilities.sol\":1968:1980  uint addrIdx */\n      0x0\n        /* \"input/ERC20Utilities.sol\":1846:1851  users */\n      dup9\n      dup9\n        /* \"input/ERC20Utilities.sol\":1846:1858  users.length */\n      swap1\n      pop\n        /* \"input/ERC20Utilities.sol\":1830:1836  tokens */\n      dup8\n      dup8\n        /* \"input/ERC20Utilities.sol\":1830:1843  tokens.length */\n      swap1\n      pop\n        /* \"input/ERC20Utilities.sol\":1830:1858  tokens.length * users.length */\n      mul\n        /* \"input/ERC20Utilities.sol\":1819:1859  new uint[](tokens.length * users.length) */\n      mload(0x40)\n      swap1\n      dup1\n      dup3\n      mstore\n      dup1\n      0x20\n      mul\n      0x20\n      add\n      dup3\n      add\n      0x40\n      mstore\n      dup1\n      iszero\n      tag_46\n      jumpi\n      dup2\n      0x20\n      add\n        /* \"--CODEGEN--\":29:31   */\n      0x20\n        /* \"--CODEGEN--\":21:27   */\n      dup3\n        /* \"--CODEGEN--\":17:32   */\n      mul\n        /* \"--CODEGEN--\":117:121   */\n      dup1\n        /* \"--CODEGEN--\":105:115   */\n      codesize\n        /* \"--CODEGEN--\":97:103   */\n      dup4\n        /* \"--CODEGEN--\":88:122   */\n      codecopy\n        /* \"--CODEGEN--\":148:152   */\n      dup1\n        /* \"--CODEGEN--\":140:146   */\n      dup3\n        /* \"--CODEGEN--\":136:153   */\n      add\n        /* \"--CODEGEN--\":126:153   */\n      swap2\n      pop\n        /* \"--CODEGEN--\":0:157   */\n      pop\n        /* \"input/ERC20Utilities.sol\":1819:1859  new uint[](tokens.length * users.length) */\n      swap1\n      pop\n    tag_46:\n      pop\n        /* \"input/ERC20Utilities.sol\":1790:1859  uint[] memory addrBalances = new uint[](tokens.length * users.length) */\n      swap4\n      pop\n        /* \"input/ERC20Utilities.sol\":1883:1884  0 */\n      0x0\n        /* \"input/ERC20Utilities.sol\":1874:1884  uint i = 0 */\n      swap3\n      pop\n        /* \"input/ERC20Utilities.sol\":1870:2230  for(uint i = 0; i < users.length; i++) {... */\n    tag_47:\n        /* \"input/ERC20Utilities.sol\":1890:1895  users */\n      dup9\n      dup9\n        /* \"input/ERC20Utilities.sol\":1890:1902  users.length */\n      swap1\n      pop\n        /* \"input/ERC20Utilities.sol\":1886:1887  i */\n      dup4\n        /* \"input/ERC20Utilities.sol\":1886:1902  i < users.length */\n      lt\n        /* \"input/ERC20Utilities.sol\":1870:2230  for(uint i = 0; i < users.length; i++) {... */\n      iszero\n      tag_48\n      jumpi\n        /* \"input/ERC20Utilities.sol\":1931:1932  0 */\n      0x0\n        /* \"input/ERC20Utilities.sol\":1922:1932  uint j = 0 */\n      swap2\n      pop\n        /* \"input/ERC20Utilities.sol\":1917:2222  for (uint j = 0; j < tokens.length; j++) {... */\n    tag_50:\n        /* \"input/ERC20Utilities.sol\":1938:1944  tokens */\n      dup7\n      dup7\n        /* \"input/ERC20Utilities.sol\":1938:1951  tokens.length */\n      swap1\n      pop\n        /* \"input/ERC20Utilities.sol\":1934:1935  j */\n      dup3\n        /* \"input/ERC20Utilities.sol\":1934:1951  j < tokens.length */\n      lt\n        /* \"input/ERC20Utilities.sol\":1917:2222  for (uint j = 0; j < tokens.length; j++) {... */\n      iszero\n      tag_51\n      jumpi\n        /* \"input/ERC20Utilities.sol\":2003:2004  i */\n      dup3\n        /* \"input/ERC20Utilities.sol\":1987:1993  tokens */\n      dup8\n      dup8\n        /* \"input/ERC20Utilities.sol\":1987:2000  tokens.length */\n      swap1\n      pop\n        /* \"input/ERC20Utilities.sol\":1987:2004  tokens.length * i */\n      mul\n        /* \"input/ERC20Utilities.sol\":1983:1984  j */\n      dup3\n        /* \"input/ERC20Utilities.sol\":1983:2004  j + tokens.length * i */\n      add\n        /* \"input/ERC20Utilities.sol\":1968:2004  uint addrIdx = j + tokens.length * i */\n      swap1\n      pop\n        /* \"input/ERC20Utilities.sol\":2039:2042  0x0 */\n      0x0\n        /* \"input/ERC20Utilities.sol\":2018:2043  tokens[j] != address(0x0) */\n      0xffffffffffffffffffffffffffffffffffffffff\n      and\n        /* \"input/ERC20Utilities.sol\":2018:2024  tokens */\n      dup8\n      dup8\n        /* \"input/ERC20Utilities.sol\":2025:2026  j */\n      dup5\n        /* \"input/ERC20Utilities.sol\":2018:2027  tokens[j] */\n      dup2\n      dup2\n      lt\n      iszero\n      iszero\n      tag_53\n      jumpi\n      invalid\n    tag_53:\n      swap1\n      pop\n      0x20\n      mul\n      add\n      calldataload\n      0xffffffffffffffffffffffffffffffffffffffff\n      and\n        /* \"input/ERC20Utilities.sol\":2018:2043  tokens[j] != address(0x0) */\n      0xffffffffffffffffffffffffffffffffffffffff\n      and\n      eq\n      iszero\n        /* \"input/ERC20Utilities.sol\":2014:2214  if (tokens[j] != address(0x0)) { ... */\n      iszero\n      tag_54\n      jumpi\n        /* \"input/ERC20Utilities.sol\":2082:2115  tokenBalance(users[i], tokens[j]) */\n      tag_55\n        /* \"input/ERC20Utilities.sol\":2095:2100  users */\n      dup10\n      dup10\n        /* \"input/ERC20Utilities.sol\":2101:2102  i */\n      dup6\n        /* \"input/ERC20Utilities.sol\":2095:2103  users[i] */\n      dup2\n      dup2\n      lt\n      iszero\n      iszero\n      tag_56\n      jumpi\n      invalid\n    tag_56:\n      swap1\n      pop\n      0x20\n      mul\n      add\n      calldataload\n      0xffffffffffffffffffffffffffffffffffffffff\n      and\n        /* \"input/ERC20Utilities.sol\":2105:2111  tokens */\n      dup9\n      dup9\n        /* \"input/ERC20Utilities.sol\":2112:2113  j */\n      dup6\n        /* \"input/ERC20Utilities.sol\":2105:2114  tokens[j] */\n      dup2\n      dup2\n      lt\n      iszero\n      iszero\n      tag_57\n      jumpi\n      invalid\n    tag_57:\n      swap1\n      pop\n      0x20\n      mul\n      add\n      calldataload\n      0xffffffffffffffffffffffffffffffffffffffff\n      and\n        /* \"input/ERC20Utilities.sol\":2082:2094  tokenBalance */\n      tag_10\n        /* \"input/ERC20Utilities.sol\":2082:2115  tokenBalance(users[i], tokens[j]) */\n      jump\t// in\n    tag_55:\n        /* \"input/ERC20Utilities.sol\":2058:2070  addrBalances */\n      dup5\n        /* \"input/ERC20Utilities.sol\":2071:2078  addrIdx */\n      dup3\n        /* \"input/ERC20Utilities.sol\":2058:2079  addrBalances[addrIdx] */\n      dup2\n      mload\n      dup2\n      lt\n      iszero\n      iszero\n      tag_58\n      jumpi\n      invalid\n    tag_58:\n      swap1\n      0x20\n      add\n      swap1\n      0x20\n      mul\n      add\n        /* \"input/ERC20Utilities.sol\":2058:2115  addrBalances[addrIdx] = tokenBalance(users[i], tokens[j]) */\n      dup2\n      dup2\n      mstore\n      pop\n      pop\n        /* \"input/ERC20Utilities.sol\":2014:2214  if (tokens[j] != address(0x0)) { ... */\n      jump(tag_59)\n    tag_54:\n        /* \"input/ERC20Utilities.sol\":2168:2173  users */\n      dup9\n      dup9\n        /* \"input/ERC20Utilities.sol\":2174:2175  i */\n      dup5\n        /* \"input/ERC20Utilities.sol\":2168:2176  users[i] */\n      dup2\n      dup2\n      lt\n      iszero\n      iszero\n      tag_60\n      jumpi\n      invalid\n    tag_60:\n      swap1\n      pop\n      0x20\n      mul\n      add\n      calldataload\n      0xffffffffffffffffffffffffffffffffffffffff\n      and\n        /* \"input/ERC20Utilities.sol\":2168:2184  users[i].balance */\n      0xffffffffffffffffffffffffffffffffffffffff\n      and\n      balance\n        /* \"input/ERC20Utilities.sol\":2144:2156  addrBalances */\n      dup5\n        /* \"input/ERC20Utilities.sol\":2157:2164  addrIdx */\n      dup3\n        /* \"input/ERC20Utilities.sol\":2144:2165  addrBalances[addrIdx] */\n      dup2\n      mload\n      dup2\n      lt\n      iszero\n      iszero\n      tag_61\n      jumpi\n      invalid\n    tag_61:\n      swap1\n      0x20\n      add\n      swap1\n      0x20\n      mul\n      add\n        /* \"input/ERC20Utilities.sol\":2144:2184  addrBalances[addrIdx] = users[i].balance */\n      dup2\n      dup2\n      mstore\n      pop\n      pop\n        /* \"input/ERC20Utilities.sol\":2014:2214  if (tokens[j] != address(0x0)) { ... */\n    tag_59:\n        /* \"input/ERC20Utilities.sol\":1953:1956  j++ */\n      dup2\n      dup1\n      0x1\n      add\n      swap3\n      pop\n      pop\n        /* \"input/ERC20Utilities.sol\":1917:2222  for (uint j = 0; j < tokens.length; j++) {... */\n      jump(tag_50)\n    tag_51:\n        /* \"input/ERC20Utilities.sol\":1904:1907  i++ */\n      dup3\n      dup1\n      0x1\n      add\n      swap4\n      pop\n      pop\n        /* \"input/ERC20Utilities.sol\":1870:2230  for(uint i = 0; i < users.length; i++) {... */\n      jump(tag_47)\n    tag_48:\n        /* \"input/ERC20Utilities.sol\":2245:2257  addrBalances */\n      dup4\n        /* \"input/ERC20Utilities.sol\":2238:2257  return addrBalances */\n      swap5\n      pop\n        /* \"input/ERC20Utilities.sol\":1690:2262  function batchTokenBalances(address[] users, address[] tokens) external view returns (uint[]) {... */\n      pop\n      pop\n      pop\n      pop\n      swap5\n      swap4\n      pop\n      pop\n      pop\n      pop\n      jump\t// out\n        /* \"input/ERC20Utilities.sol\":346:794  function tokenDecimals(address token) public view returns (uint) {... */\n    tag_25:\n        /* \"input/ERC20Utilities.sol\":405:409  uint */\n      0x0\n        /* \"input/ERC20Utilities.sol\":462:479  uint256 tokenCode */\n      dup1\n        /* \"input/ERC20Utilities.sol\":521:526  token */\n      dup3\n        /* \"input/ERC20Utilities.sol\":509:527  extcodesize(token) */\n      extcodesize\n        /* \"input/ERC20Utilities.sol\":496:527  tokenCode := extcodesize(token) */\n      swap1\n      pop\n        /* \"input/ERC20Utilities.sol\":633:634  0 */\n      0x0\n        /* \"input/ERC20Utilities.sol\":621:630  tokenCode */\n      dup2\n        /* \"input/ERC20Utilities.sol\":621:634  tokenCode > 0 */\n      gt\n        /* \"input/ERC20Utilities.sol\":621:714  tokenCode > 0 && token.call(bytes4(0x70a08231), \"0x0000000000000000000000000000000000000000\") */\n      dup1\n      iszero\n      tag_63\n      jumpi\n      pop\n        /* \"input/ERC20Utilities.sol\":638:643  token */\n      dup3\n        /* \"input/ERC20Utilities.sol\":638:648  token.call */\n      0xffffffffffffffffffffffffffffffffffffffff\n      and\n        /* \"input/ERC20Utilities.sol\":656:666  0x70a08231 */\n      0x70a08231\n        /* \"input/ERC20Utilities.sol\":649:667  bytes4(0x70a08231) */\n      0x100000000000000000000000000000000000000000000000000000000\n      mul\n        /* \"input/ERC20Utilities.sol\":638:714  token.call(bytes4(0x70a08231), \"0x0000000000000000000000000000000000000000\") */\n      0x100000000000000000000000000000000000000000000000000000000\n      swap1\n      div\n      mload(0x40)\n      dup2\n      0xffffffff\n      and\n      0x100000000000000000000000000000000000000000000000000000000\n      mul\n      dup2\n      mstore\n      0x4\n      add\n      dup1\n      dup1\n      0x3078303030303030303030303030303030303030303030303030303030303030\n      dup2\n      mstore\n      0x20\n      add\n      0x3030303030303030303000000000000000000000000000000000000000000000\n      dup2\n      mstore\n      pop\n      0x40\n      add\n      swap1\n      pop\n      0x0\n      mload(0x40)\n      dup1\n      dup4\n      sub\n      dup2\n      0x0\n      dup8\n      gas\n      call\n      swap3\n      pop\n      pop\n      pop\n        /* \"input/ERC20Utilities.sol\":621:714  tokenCode > 0 && token.call(bytes4(0x70a08231), \"0x0000000000000000000000000000000000000000\") */\n    tag_63:\n        /* \"input/ERC20Utilities.sol\":617:792  if (tokenCode > 0 && token.call(bytes4(0x70a08231), \"0x0000000000000000000000000000000000000000\")) {  ... */\n      iszero\n      tag_64\n      jumpi\n        /* \"input/ERC20Utilities.sol\":739:744  token */\n      dup3\n        /* \"input/ERC20Utilities.sol\":733:754  Token(token).decimals */\n      0xffffffffffffffffffffffffffffffffffffffff\n      and\n      0x313ce567\n        /* \"input/ERC20Utilities.sol\":733:756  Token(token).decimals() */\n      mload(0x40)\n      dup2\n      0xffffffff\n      and\n      0x100000000000000000000000000000000000000000000000000000000\n      mul\n      dup2\n      mstore\n      0x4\n      add\n      0x20\n      mload(0x40)\n      dup1\n      dup4\n      sub\n      dup2\n      0x0\n      dup8\n      dup1\n      extcodesize\n      iszero\n        /* \"--CODEGEN--\":8:17   */\n      dup1\n        /* \"--CODEGEN--\":5:7   */\n      iszero\n      tag_65\n      jumpi\n        /* \"--CODEGEN--\":30:31   */\n      0x0\n        /* \"--CODEGEN--\":27:28   */\n      dup1\n        /* \"--CODEGEN--\":20:32   */\n      revert\n        /* \"--CODEGEN--\":5:7   */\n    tag_65:\n        /* \"input/ERC20Utilities.sol\":733:756  Token(token).decimals() */\n      pop\n      gas\n      call\n      iszero\n        /* \"--CODEGEN--\":8:17   */\n      dup1\n        /* \"--CODEGEN--\":5:7   */\n      iszero\n      tag_66\n      jumpi\n        /* \"--CODEGEN--\":45:61   */\n      returndatasize\n        /* \"--CODEGEN--\":42:43   */\n      0x0\n        /* \"--CODEGEN--\":39:40   */\n      dup1\n        /* \"--CODEGEN--\":24:62   */\n      returndatacopy\n        /* \"--CODEGEN--\":77:93   */\n      returndatasize\n        /* \"--CODEGEN--\":74:75   */\n      0x0\n        /* \"--CODEGEN--\":67:94   */\n      revert\n        /* \"--CODEGEN--\":5:7   */\n    tag_66:\n        /* \"input/ERC20Utilities.sol\":733:756  Token(token).decimals() */\n      pop\n      pop\n      pop\n      pop\n      mload(0x40)\n      returndatasize\n        /* \"--CODEGEN--\":13:15   */\n      0x20\n        /* \"--CODEGEN--\":8:11   */\n      dup2\n        /* \"--CODEGEN--\":5:16   */\n      lt\n        /* \"--CODEGEN--\":2:4   */\n      iszero\n      tag_67\n      jumpi\n        /* \"--CODEGEN--\":29:30   */\n      0x0\n        /* \"--CODEGEN--\":26:27   */\n      dup1\n        /* \"--CODEGEN--\":19:31   */\n      revert\n        /* \"--CODEGEN--\":2:4   */\n    tag_67:\n        /* \"input/ERC20Utilities.sol\":733:756  Token(token).decimals() */\n      dup2\n      add\n      swap1\n      dup1\n      dup1\n      mload\n      swap1\n      0x20\n      add\n      swap1\n      swap3\n      swap2\n      swap1\n      pop\n      pop\n      pop\n        /* \"input/ERC20Utilities.sol\":726:756  return Token(token).decimals() */\n      swap2\n      pop\n      jump(tag_62)\n        /* \"input/ERC20Utilities.sol\":617:792  if (tokenCode > 0 && token.call(bytes4(0x70a08231), \"0x0000000000000000000000000000000000000000\")) {  ... */\n    tag_64:\n        /* \"input/ERC20Utilities.sol\":784:785  0 */\n      0x0\n        /* \"input/ERC20Utilities.sol\":777:785  return 0 */\n      swap2\n      pop\n        /* \"input/ERC20Utilities.sol\":346:794  function tokenDecimals(address token) public view returns (uint) {... */\n    tag_62:\n      pop\n      swap2\n      swap1\n      pop\n      jump\t// out\n\n    auxdata: 0xa165627a7a72305820317a2efd55a93a0cfa41f071e429b902ad7f7e575a979cce343a5c27c8982dd10029\n}\n",
				"bytecode": {
					"linkReferences": {},
					"object": "608060405234801561001057600080fd5b506109bd806100206000396000f300608060405260043610610062576000357c0100000000000000000000000000000000000000000000000000000000900463ffffffff1680631049334f146100f65780635162f6af1461016d57806387d74481146101fd5780638ee573ac146102a5575b6040517f08c379a00000000000000000000000000000000000000000000000000000000081526004018080602001828103825260278152602001807f45524332305574696c697469657320646f6573206e6f7420616363657074207081526020017f61796d656e74730000000000000000000000000000000000000000000000000081525060400191505060405180910390fd5b34801561010257600080fd5b50610157600480360381019080803573ffffffffffffffffffffffffffffffffffffffff169060200190929190803573ffffffffffffffffffffffffffffffffffffffff1690602001909291905050506102fc565b6040518082815260200191505060405180910390f35b34801561017957600080fd5b506101a66004803603810190808035906020019082018035906020019190919293919293905050506104cf565b6040518080602001828103825283818151815260200191508051906020019060200280838360005b838110156101e95780820151818401526020810190506101ce565b505050509050019250505060405180910390f35b34801561020957600080fd5b5061024e600480360381019080803590602001908201803590602001919091929391929390803590602001908201803590602001919091929391929390505050610609565b6040518080602001828103825283818151815260200191508051906020019060200280838360005b83811015610291578082015181840152602081019050610276565b505050509050019250505060405180910390f35b3480156102b157600080fd5b506102e6600480360381019080803573ffffffffffffffffffffffffffffffffffffffff1690602001909291905050506107dc565b6040518082815260200191505060405180910390f35b600080823b90506000811180156103e157508273ffffffffffffffffffffffffffffffffffffffff166370a082317c0100000000000000000000000000000000000000000000000000000000027c01000000000000000000000000000000000000000000000000000000009004856040518263ffffffff167c0100000000000000000000000000000000000000000000000000000000028152600401808273ffffffffffffffffffffffffffffffffffffffff1673ffffffffffffffffffffffffffffffffffffffff1681526020019150506000604051808303816000875af1925050505b156104c3578273ffffffffffffffffffffffffffffffffffffffff166370a08231856040518263ffffffff167c0100000000000000000000000000000000000000000000000000000000028152600401808273ffffffffffffffffffffffffffffffffffffffff1673ffffffffffffffffffffffffffffffffffffffff168152602001915050602060405180830381600087803b15801561048157600080fd5b505af1158015610495573d6000803e3d6000fd5b505050506040513d60208110156104ab57600080fd5b810190808051906020019092919050505091506104c8565b600091505b5092915050565b606080600080858590506040519080825280602002602001820160405280156105075781602001602082028038833980820191505090505b509250600091505b858590508210156105fd57819050600073ffffffffffffffffffffffffffffffffffffffff16868684818110151561054357fe5b9050602002013573ffffffffffffffffffffffffffffffffffffffff1673ffffffffffffffffffffffffffffffffffffffff161415156105d1576105b0868684818110151561058e57fe5b9050602002013573ffffffffffffffffffffffffffffffffffffffff166107dc565b83828151811015156105be57fe5b90602001906020020181815250506105f0565b601283828151811015156105e157fe5b90602001906020020181815250505b818060010192505061050f565b82935050505092915050565b60608060008060008888905087879050026040519080825280602002602001820160405280156106485781602001602082028038833980820191505090505b509350600092505b888890508310156107cd57600091505b868690508210156107c05782878790500282019050600073ffffffffffffffffffffffffffffffffffffffff16878784818110151561069b57fe5b9050602002013573ffffffffffffffffffffffffffffffffffffffff1673ffffffffffffffffffffffffffffffffffffffff161415156107545761073389898581811015156106e657fe5b9050602002013573ffffffffffffffffffffffffffffffffffffffff16888885818110151561071157fe5b9050602002013573ffffffffffffffffffffffffffffffffffffffff166102fc565b848281518110151561074157fe5b90602001906020020181815250506107b3565b888884818110151561076257fe5b9050602002013573ffffffffffffffffffffffffffffffffffffffff1673ffffffffffffffffffffffffffffffffffffffff163184828151811015156107a457fe5b90602001906020020181815250505b8180600101925050610660565b8280600101935050610650565b83945050505050949350505050565b600080823b90506000811180156108db57508273ffffffffffffffffffffffffffffffffffffffff166370a082317c0100000000000000000000000000000000000000000000000000000000027c010000000000000000000000000000000000000000000000000000000090046040518163ffffffff167c010000000000000000000000000000000000000000000000000000000002815260040180807f307830303030303030303030303030303030303030303030303030303030303081526020017f303030303030303030300000000000000000000000000000000000000000000081525060400190506000604051808303816000875af1925050505b15610986578273ffffffffffffffffffffffffffffffffffffffff1663313ce5676040518163ffffffff167c0100000000000000000000000000000000000000000000000000000000028152600401602060405180830381600087803b15801561094457600080fd5b505af1158015610958573d6000803e3d6000fd5b505050506040513d602081101561096e57600080fd5b8101908080519060200190929190505050915061098b565b600091505b509190505600a165627a7a72305820317a2efd55a93a0cfa41f071e429b902ad7f7e575a979cce343a5c27c8982dd10029",
					"opcodes": "PUSH1 0x80 PUSH1 0x40 MSTORE CALLVALUE DUP1 ISZERO PUSH2 0x10 JUMPI PUSH1 0x0 DUP1 REVERT JUMPDEST POP PUSH2 0x9BD DUP1 PUSH2 0x20 PUSH1 0x0 CODECOPY PUSH1 0x0 RETURN STOP PUSH1 0x80 PUSH1 0x40 MSTORE PUSH1 0x4 CALLDATASIZE LT PUSH2 0x62 JUMPI PUSH1 0x0 CALLDATALOAD PUSH29 0x100000000000000000000000000000000000000000000000000000000 SWAP1 DIV PUSH4 0xFFFFFFFF AND DUP1 PUSH4 0x1049334F EQ PUSH2 0xF6 JUMPI DUP1 PUSH4 0x5162F6AF EQ PUSH2 0x16D JUMPI DUP1 PUSH4 0x87D74481 EQ PUSH2 0x1FD JUMPI DUP1 PUSH4 0x8EE573AC EQ PUSH2 0x2A5 JUMPI JUMPDEST PUSH1 0x40 MLOAD PUSH32 0x8C379A000000000000000000000000000000000000000000000000000000000 DUP2 MSTORE PUSH1 0x4 ADD DUP1 DUP1 PUSH1 0x20 ADD DUP3 DUP2 SUB DUP3 MSTORE PUSH1 0x27 DUP2 MSTORE PUSH1 0x20 ADD DUP1 PUSH32 0x45524332305574696C697469657320646F6573206E6F74206163636570742070 DUP2 MSTORE PUSH1 0x20 ADD PUSH32 0x61796D656E747300000000000000000000000000000000000000000000000000 DUP2 MSTORE POP PUSH1 0x40 ADD SWAP2 POP POP PUSH1 0x40 MLOAD DUP1 SWAP2 SUB SWAP1 REVERT JUMPDEST CALLVALUE DUP1 ISZERO PUSH2 0x102 JUMPI PUSH1 0x0 DUP1 REVERT JUMPDEST POP PUSH2 0x157 PUSH1 0x4 DUP1 CALLDATASIZE SUB DUP2 ADD SWAP1 DUP1 DUP1 CALLDATALOAD PUSH20 0xFFFFFFFFFFFFFFFFFFFFFFFFFFFFFFFFFFFFFFFF AND SWAP1 PUSH1 0x20 ADD SWAP1 SWAP3 SWAP2 SWAP1 DUP1 CALLDATALOAD PUSH20 0xFFFFFFFFFFFFFFFFFFFFFFFFFFFFFFFFFFFFFFFF AND SWAP1 PUSH1 0x20 ADD SWAP1 SWAP3 SWAP2 SWAP1 POP POP POP PUSH2 0x2FC JUMP JUMPDEST PUSH1 0x40 MLOAD DUP1 DUP3 DUP2 MSTORE PUSH1 0x20 ADD SWAP2 POP POP PUSH1 0x40 MLOAD DUP1 SWAP2 SUB SWAP1 RETURN JUMPDEST CALLVALUE DUP1 ISZERO PUSH2 0x179 JUMPI PUSH1 0x0 DUP1 REVERT JUMPDEST POP PUSH2 0x1A6 PUSH1 0x4 DUP1 CALLDATASIZE SUB DUP2 ADD SWAP1 DUP1 DUP1 CALLDATALOAD SWAP1 PUSH1 0x20 ADD SWAP1 DUP3 ADD DUP1 CALLDATALOAD SWAP1 PUSH1 0x20 ADD SWAP2 SWAP1 SWAP2 SWAP3 SWAP4 SWAP2 SWAP3 SWAP4 SWAP1 POP POP POP PUSH2 0x4CF JUMP JUMPDEST PUSH1 0x40 MLOAD DUP1 DUP1 PUSH1 0x20 ADD DUP3 DUP2 SUB DUP3 MSTORE DUP4 DUP2 DUP2 MLOAD DUP2 MSTORE PUSH1 0x20 ADD SWAP2 POP DUP1 MLOAD SWAP1 PUSH1 0x20 ADD SWAP1 PUSH1 0x20 MUL DUP1 DUP4 DUP4 PUSH1 0x0 JUMPDEST DUP4 DUP2 LT ISZERO PUSH2 0x1E9 JUMPI DUP1 DUP3 ADD MLOAD DUP2 DUP5 ADD MSTORE PUSH1 0x20 DUP2 ADD SWAP1 POP PUSH2 0x1CE JUMP JUMPDEST POP POP POP POP SWAP1 POP ADD SWAP3 POP POP POP PUSH1 0x40 MLOAD DUP1 SWAP2 SUB SWAP1 RETURN JUMPDEST CALLVALUE DUP1 ISZERO PUSH2 0x209 JUMPI PUSH1 0x0 DUP1 REVERT JUMPDEST POP PUSH2 0x24E PUSH1 0x4 DUP1 CALLDATASIZE SUB DUP2 ADD SWAP1 DUP1 DUP1 CALLDATALOAD SWAP1 PUSH1 0x20 ADD SWAP1 DUP3 ADD DUP1 CALLDATALOAD SWAP1 PUSH1 0x20 ADD SWAP2 SWAP1 SWAP2 SWAP3 SWAP4 SWAP2 SWAP3 SWAP4 SWAP1 DUP1 CALLDATALOAD SWAP1 PUSH1 0x20 ADD SWAP1 DUP3 ADD DUP1 CALLDATALOAD SWAP1 PUSH1 0x20 ADD SWAP2 SWAP1 SWAP2 SWAP3 SWAP4 SWAP2 SWAP3 SWAP4 SWAP1 POP POP POP PUSH2 0x609 JUMP JUMPDEST PUSH1 0x40 MLOAD DUP1 DUP1 PUSH1 0x20 ADD DUP3 DUP2 SUB DUP3 MSTORE DUP4 DUP2 DUP2 MLOAD DUP2 MSTORE PUSH1 0x20 ADD SWAP2 POP DUP1 MLOAD SWAP1 PUSH1 0x20 ADD SWAP1 PUSH1 0x20 MUL DUP1 DUP4 DUP4 PUSH1 0x0 JUMPDEST DUP4 DUP2 LT ISZERO PUSH2 0x291 JUMPI DUP1 DUP3 ADD MLOAD DUP2 DUP5 ADD MSTORE PUSH1 0x20 DUP2 ADD SWAP1 POP PUSH2 0x276 JUMP JUMPDEST POP POP POP POP SWAP1 POP ADD SWAP3 POP POP POP PUSH1 0x40 MLOAD DUP1 SWAP2 SUB SWAP1 RETURN JUMPDEST CALLVALUE DUP1 ISZERO PUSH2 0x2B1 JUMPI PUSH1 0x0 DUP1 REVERT JUMPDEST POP PUSH2 0x2E6 PUSH1 0x4 DUP1 CALLDATASIZE SUB DUP2 ADD SWAP1 DUP1 DUP1 CALLDATALOAD PUSH20 0xFFFFFFFFFFFFFFFFFFFFFFFFFFFFFFFFFFFFFFFF AND SWAP1 PUSH1 0x20 ADD SWAP1 SWAP3 SWAP2 SWAP1 POP POP POP PUSH2 0x7DC JUMP JUMPDEST PUSH1 0x40 MLOAD DUP1 DUP3 DUP2 MSTORE PUSH1 0x20 ADD SWAP2 POP POP PUSH1 0x40 MLOAD DUP1 SWAP2 SUB SWAP1 RETURN JUMPDEST PUSH1 0x0 DUP1 DUP3 EXTCODESIZE SWAP1 POP PUSH1 0x0 DUP2 GT DUP1 ISZERO PUSH2 0x3E1 JUMPI POP DUP3 PUSH20 0xFFFFFFFFFFFFFFFFFFFFFFFFFFFFFFFFFFFFFFFF AND PUSH4 0x70A08231 PUSH29 0x100000000000000000000000000000000000000000000000000000000 MUL PUSH29 0x100000000000000000000000000000000000000000000000000000000 SWAP1 DIV DUP6 PUSH1 0x40 MLOAD DUP3 PUSH4 0xFFFFFFFF AND PUSH29 0x100000000000000000000000000000000000000000000000000000000 MUL DUP2 MSTORE PUSH1 0x4 ADD DUP1 DUP3 PUSH20 0xFFFFFFFFFFFFFFFFFFFFFFFFFFFFFFFFFFFFFFFF AND PUSH20 0xFFFFFFFFFFFFFFFFFFFFFFFFFFFFFFFFFFFFFFFF AND DUP2 MSTORE PUSH1 0x20 ADD SWAP2 POP POP PUSH1 0x0 PUSH1 0x40 MLOAD DUP1 DUP4 SUB DUP2 PUSH1 0x0 DUP8 GAS CALL SWAP3 POP POP POP JUMPDEST ISZERO PUSH2 0x4C3 JUMPI DUP3 PUSH20 0xFFFFFFFFFFFFFFFFFFFFFFFFFFFFFFFFFFFFFFFF AND PUSH4 0x70A08231 DUP6 PUSH1 0x40 MLOAD DUP3 PUSH4 0xFFFFFFFF AND PUSH29 0x100000000000000000000000000000000000000000000000000000000 MUL DUP2 MSTORE PUSH1 0x4 ADD DUP1 DUP3 PUSH20 0xFFFFFFFFFFFFFFFFFFFFFFFFFFFFFFFFFFFFFFFF AND PUSH20 0xFFFFFFFFFFFFFFFFFFFFFFFFFFFFFFFFFFFFFFFF AND DUP2 MSTORE PUSH1 0x20 ADD SWAP2 POP POP PUSH1 0x20 PUSH1 0x40 MLOAD DUP1 DUP4 SUB DUP2 PUSH1 0x0 DUP8 DUP1 EXTCODESIZE ISZERO DUP1 ISZERO PUSH2 0x481 JUMPI PUSH1 0x0 DUP1 REVERT JUMPDEST POP GAS CALL ISZERO DUP1 ISZERO PUSH2 0x495 JUMPI RETURNDATASIZE PUSH1 0x0 DUP1 RETURNDATACOPY RETURNDATASIZE PUSH1 0x0 REVERT JUMPDEST POP POP POP POP PUSH1 0x40 MLOAD RETURNDATASIZE PUSH1 0x20 DUP2 LT ISZERO PUSH2 0x4AB JUMPI PUSH1 0x0 DUP1 REVERT JUMPDEST DUP2 ADD SWAP1 DUP1 DUP1 MLOAD SWAP1 PUSH1 0x20 ADD SWAP1 SWAP3 SWAP2 SWAP1 POP POP POP SWAP2 POP PUSH2 0x4C8 JUMP JUMPDEST PUSH1 0x0 SWAP2 POP JUMPDEST POP SWAP3 SWAP2 POP POP JUMP JUMPDEST PUSH1 0x60 DUP1 PUSH1 0x0 DUP1 DUP6 DUP6 SWAP1 POP PUSH1 0x40 MLOAD SWAP1 DUP1 DUP3 MSTORE DUP1 PUSH1 0x20 MUL PUSH1 0x20 ADD DUP3 ADD PUSH1 0x40 MSTORE DUP1 ISZERO PUSH2 0x507 JUMPI DUP2 PUSH1 0x20 ADD PUSH1 0x20 DUP3 MUL DUP1 CODESIZE DUP4 CODECOPY DUP1 DUP3 ADD SWAP2 POP POP SWAP1 POP JUMPDEST POP SWAP3 POP PUSH1 0x0 SWAP2 POP JUMPDEST DUP6 DUP6 SWAP1 POP DUP3 LT ISZERO PUSH2 0x5FD JUMPI DUP2 SWAP1 POP PUSH1 0x0 PUSH20 0xFFFFFFFFFFFFFFFFFFFFFFFFFFFFFFFFFFFFFFFF AND DUP7 DUP7 DUP5 DUP2 DUP2 LT ISZERO ISZERO PUSH2 0x543 JUMPI INVALID JUMPDEST SWAP1 POP PUSH1 0x20 MUL ADD CALLDATALOAD PUSH20 0xFFFFFFFFFFFFFFFFFFFFFFFFFFFFFFFFFFFFFFFF AND PUSH20 0xFFFFFFFFFFFFFFFFFFFFFFFFFFFFFFFFFFFFFFFF AND EQ ISZERO ISZERO PUSH2 0x5D1 JUMPI PUSH2 0x5B0 DUP7 DUP7 DUP5 DUP2 DUP2 LT ISZERO ISZERO PUSH2 0x58E JUMPI INVALID JUMPDEST SWAP1 POP PUSH1 0x20 MUL ADD CALLDATALOAD PUSH20 0xFFFFFFFFFFFFFFFFFFFFFFFFFFFFFFFFFFFFFFFF AND PUSH2 0x7DC JUMP JUMPDEST DUP4 DUP3 DUP2 MLOAD DUP2 LT ISZERO ISZERO PUSH2 0x5BE JUMPI INVALID JUMPDEST SWAP1 PUSH1 0x20 ADD SWAP1 PUSH1 0x20 MUL ADD DUP2 DUP2 MSTORE POP POP PUSH2 0x5F0 JUMP JUMPDEST PUSH1 0x12 DUP4 DUP3 DUP2 MLOAD DUP2 LT ISZERO ISZERO PUSH2 0x5E1 JUMPI INVALID JUMPDEST SWAP1 PUSH1 0x20 ADD SWAP1 PUSH1 0x20 MUL ADD DUP2 DUP2 MSTORE POP POP JUMPDEST DUP2 DUP1 PUSH1 0x1 ADD SWAP3 POP POP PUSH2 0x50F JUMP JUMPDEST DUP3 SWAP4 POP POP POP POP SWAP3 SWAP2 POP POP JUMP JUMPDEST PUSH1 0x60 DUP1 PUSH1 0x0 DUP1 PUSH1 0x0 DUP9 DUP9 SWAP1 POP DUP8 DUP8 SWAP1 POP MUL PUSH1 0x40 MLOAD SWAP1 DUP1 DUP3 MSTORE DUP1 PUSH1 0x20 MUL PUSH1 0x20 ADD DUP3 ADD PUSH1 0x40 MSTORE DUP1 ISZERO PUSH2 0x648 JUMPI DUP2 PUSH1 0x20 ADD PUSH1 0x20 DUP3 MUL DUP1 CODESIZE DUP4 CODECOPY DUP1 DUP3 ADD SWAP2 POP POP SWAP1 POP JUMPDEST POP SWAP4 POP PUSH1 0x0 SWAP3 POP JUMPDEST DUP9 DUP9 SWAP1 POP DUP4 LT ISZERO PUSH2 0x7CD JUMPI PUSH1 0x0 SWAP2 POP JUMPDEST DUP7 DUP7 SWAP1 POP DUP3 LT ISZERO PUSH2 0x7C0 JUMPI DUP3 DUP8 DUP8 SWAP1 POP MUL DUP3 ADD SWAP1 POP PUSH1 0x0 PUSH20 0xFFFFFFFFFFFFFFFFFFFFFFFFFFFFFFFFFFFFFFFF AND DUP8 DUP8 DUP5 DUP2 DUP2 LT ISZERO ISZERO PUSH2 0x69B JUMPI INVALID JUMPDEST SWAP1 POP PUSH1 0x20 MUL ADD CALLDATALOAD PUSH20 0xFFFFFFFFFFFFFFFFFFFFFFFFFFFFFFFFFFFFFFFF AND PUSH20 0xFFFFFFFFFFFFFFFFFFFFFFFFFFFFFFFFFFFFFFFF AND EQ ISZERO ISZERO PUSH2 0x754 JUMPI PUSH2 0x733 DUP10 DUP10 DUP6 DUP2 DUP2 LT ISZERO ISZERO PUSH2 0x6E6 JUMPI INVALID JUMPDEST SWAP1 POP PUSH1 0x20 MUL ADD CALLDATALOAD PUSH20 0xFFFFFFFFFFFFFFFFFFFFFFFFFFFFFFFFFFFFFFFF AND DUP9 DUP9 DUP6 DUP2 DUP2 LT ISZERO ISZERO PUSH2 0x711 JUMPI INVALID JUMPDEST SWAP1 POP PUSH1 0x20 MUL ADD CALLDATALOAD PUSH20 0xFFFFFFFFFFFFFFFFFFFFFFFFFFFFFFFFFFFFFFFF AND PUSH2 0x2FC JUMP JUMPDEST DUP5 DUP3 DUP2 MLOAD DUP2 LT ISZERO ISZERO PUSH2 0x741 JUMPI INVALID JUMPDEST SWAP1 PUSH1 0x20 ADD SWAP1 PUSH1 0x20 MUL ADD DUP2 DUP2 MSTORE POP POP PUSH2 0x7B3 JUMP JUMPDEST DUP9 DUP9 DUP5 DUP2 DUP2 LT ISZERO ISZERO PUSH2 0x762 JUMPI INVALID JUMPDEST SWAP1 POP PUSH1 0x20 MUL ADD CALLDATALOAD PUSH20 0xFFFFFFFFFFFFFFFFFFFFFFFFFFFFFFFFFFFFFFFF AND PUSH20 0xFFFFFFFFFFFFFFFFFFFFFFFFFFFFFFFFFFFFFFFF AND BALANCE DUP5 DUP3 DUP2 MLOAD DUP2 LT ISZERO ISZERO PUSH2 0x7A4 JUMPI INVALID JUMPDEST SWAP1 PUSH1 0x20 ADD SWAP1 PUSH1 0x20 MUL ADD DUP2 DUP2 MSTORE POP POP JUMPDEST DUP2 DUP1 PUSH1 0x1 ADD SWAP3 POP POP PUSH2 0x660 JUMP JUMPDEST DUP3 DUP1 PUSH1 0x1 ADD SWAP4 POP POP PUSH2 0x650 JUMP JUMPDEST DUP4 SWAP5 POP POP POP POP POP SWAP5 SWAP4 POP POP POP POP JUMP JUMPDEST PUSH1 0x0 DUP1 DUP3 EXTCODESIZE SWAP1 POP PUSH1 0x0 DUP2 GT DUP1 ISZERO PUSH2 0x8DB JUMPI POP DUP3 PUSH20 0xFFFFFFFFFFFFFFFFFFFFFFFFFFFFFFFFFFFFFFFF AND PUSH4 0x70A08231 PUSH29 0x100000000000000000000000000000000000000000000000000000000 MUL PUSH29 0x100000000000000000000000000000000000000000000000000000000 SWAP1 DIV PUSH1 0x40 MLOAD DUP2 PUSH4 0xFFFFFFFF AND PUSH29 0x100000000000000000000000000000000000000000000000000000000 MUL DUP2 MSTORE PUSH1 0x4 ADD DUP1 DUP1 PUSH32 0x3078303030303030303030303030303030303030303030303030303030303030 DUP2 MSTORE PUSH1 0x20 ADD PUSH32 0x3030303030303030303000000000000000000000000000000000000000000000 DUP2 MSTORE POP PUSH1 0x40 ADD SWAP1 POP PUSH1 0x0 PUSH1 0x40 MLOAD DUP1 DUP4 SUB DUP2 PUSH1 0x0 DUP8 GAS CALL SWAP3 POP POP POP JUMPDEST ISZERO PUSH2 0x986 JUMPI DUP3 PUSH20 0xFFFFFFFFFFFFFFFFFFFFFFFFFFFFFFFFFFFFFFFF AND PUSH4 0x313CE567 PUSH1 0x40 MLOAD DUP2 PUSH4 0xFFFFFFFF AND PUSH29 0x100000000000000000000000000000000000000000000000000000000 MUL DUP2 MSTORE PUSH1 0x4 ADD PUSH1 0x20 PUSH1 0x40 MLOAD DUP1 DUP4 SUB DUP2 PUSH1 0x0 DUP8 DUP1 EXTCODESIZE ISZERO DUP1 ISZERO PUSH2 0x944 JUMPI PUSH1 0x0 DUP1 REVERT JUMPDEST POP GAS CALL ISZERO DUP1 ISZERO PUSH2 0x958 JUMPI RETURNDATASIZE PUSH1 0x0 DUP1 RETURNDATACOPY RETURNDATASIZE PUSH1 0x0 REVERT JUMPDEST POP POP POP POP PUSH1 0x40 MLOAD RETURNDATASIZE PUSH1 0x20 DUP2 LT ISZERO PUSH2 0x96E JUMPI PUSH1 0x0 DUP1 REVERT JUMPDEST DUP2 ADD SWAP1 DUP1 DUP1 MLOAD SWAP1 PUSH1 0x20 ADD SWAP1 SWAP3 SWAP2 SWAP1 POP POP POP SWAP2 POP PUSH2 0x98B JUMP JUMPDEST PUSH1 0x0 SWAP2 POP JUMPDEST POP SWAP2 SWAP1 POP JUMP STOP LOG1 PUSH6 0x627A7A723058 KECCAK256 BALANCE PUSH27 0x2EFD55A93A0CFA41F071E429B902AD7F7E575A979CCE343A5C27C8 SWAP9 0x2d 0xd1 STOP 0x29 "
				},
				"gasEstimates": {
					"creation": {
						"codeDepositCost": "498600",
						"executionCost": "530",
						"totalCost": "499130"
					},
					"external": {
						"": "292",
						"batchTokenBalances(address[],address[])": "infinite",
						"batchTokenDecimals(address[])": "infinite",
						"tokenBalance(address,address)": "infinite",
						"tokenDecimals(address)": "infinite"
					}
				},
				"methodIdentifiers": {
					"batchTokenBalances(address[],address[])": "87d74481",
					"batchTokenDecimals(address[])": "5162f6af",
					"tokenBalance(address,address)": "1049334f",
					"tokenDecimals(address)": "8ee573ac"
				}
			},
			"userdoc": {
				"methods": {}
			}
		}
	}
}