{
	"input/Fixed192x64Math.sol": {
		"Fixed192x64Math": {
			"abi": [
				{
					"constant": true,
					"inputs": [],
					"name": "LN2",
					"outputs": [
						{
							"name": "",
							"type": "uint256"
						}
					],
					"payable": false,
					"stateMutability": "view",
					"type": "function"
				},
				{
					"constant": true,
					"inputs": [
						{
							"name": "x",
							"type": "uint256"
						},
						{
							"name": "estimationMode",
							"type": "Fixed192x64Math.EstimationMode"
						}
					],
					"name": "binaryLog",
					"outputs": [
						{
							"name": "",
							"type": "int256"
						}
					],
					"payable": false,
					"stateMutability": "view",
					"type": "function"
				},
				{
					"constant": true,
					"inputs": [
						{
							"name": "x",
							"type": "uint256"
						}
					],
					"name": "log2Bounds",
					"outputs": [
						{
							"name": "lower",
							"type": "int256"
						},
						{
							"name": "upper",
							"type": "int256"
						}
					],
					"payable": false,
					"stateMutability": "view",
					"type": "function"
				},
				{
					"constant": true,
					"inputs": [
						{
							"name": "x",
							"type": "int256"
						},
						{
							"name": "estimationMode",
							"type": "Fixed192x64Math.EstimationMode"
						}
					],
					"name": "pow2",
					"outputs": [
						{
							"name": "",
							"type": "uint256"
						}
					],
					"payable": false,
					"stateMutability": "view",
					"type": "function"
				},
				{
					"constant": true,
					"inputs": [],
					"name": "LOG2_E",
					"outputs": [
						{
							"name": "",
							"type": "uint256"
						}
					],
					"payable": false,
					"stateMutability": "view",
					"type": "function"
				},
				{
					"constant": true,
					"inputs": [
						{
							"name": "x",
							"type": "uint256"
						}
					],
					"name": "ln",
					"outputs": [
						{
							"name": "",
							"type": "int256"
						}
					],
					"payable": false,
					"stateMutability": "view",
					"type": "function"
				},
				{
					"constant": true,
					"inputs": [
						{
							"name": "x",
							"type": "uint256"
						}
					],
					"name": "floorLog2",
					"outputs": [
						{
							"name": "lo",
							"type": "int256"
						}
					],
					"payable": false,
					"stateMutability": "view",
					"type": "function"
				},
				{
					"constant": true,
					"inputs": [
						{
							"name": "x",
							"type": "int256"
						}
					],
					"name": "pow2Bounds",
					"outputs": [
						{
							"name": "lower",
							"type": "uint256"
						},
						{
							"name": "upper",
							"type": "uint256"
						}
					],
					"payable": false,
					"stateMutability": "view",
					"type": "function"
				},
				{
					"constant": true,
					"inputs": [],
					"name": "ONE",
					"outputs": [
						{
							"name": "",
							"type": "uint256"
						}
					],
					"payable": false,
					"stateMutability": "view",
					"type": "function"
				},
				{
					"constant": true,
					"inputs": [
						{
							"name": "nums",
							"type": "int256[]"
						}
					],
					"name": "max",
					"outputs": [
						{
							"name": "maxNum",
							"type": "int256"
						}
					],
					"payable": false,
					"stateMutability": "view",
					"type": "function"
				},
				{
					"constant": true,
					"inputs": [
						{
							"name": "x",
							"type": "int256"
						}
					],
					"name": "exp",
					"outputs": [
						{
							"name": "",
							"type": "uint256"
						}
					],
					"payable": false,
					"stateMutability": "view",
					"type": "function"
				}
			],
			"devdoc": {
				"author": "Alan Lu - <alan.lu@gnosis.pm>Stefan George - <stefan@gnosis.pm>",
				"methods": {
					"binaryLog(uint256,Fixed192x64Math.EstimationMode)": {
						"details": "Returns estimate of binaryLog(x) given x",
						"params": {
							"estimationMode": "whether to return a lower bound, upper bound, or a midpoint",
							"x": "logarithm argument in fixed point"
						},
						"return": "estimate of binaryLog(x) in fixed point"
					},
					"exp(int256)": {
						"details": "Returns natural exponential function value of given x",
						"params": {
							"x": "x"
						},
						"return": "e**x"
					},
					"floorLog2(uint256)": {
						"details": "Returns base 2 logarithm value of given x",
						"params": {
							"x": "x"
						},
						"return": "logarithmic value"
					},
					"ln(uint256)": {
						"details": "Returns natural logarithm value of given x",
						"params": {
							"x": "x"
						},
						"return": "ln(x)"
					},
					"log2Bounds(uint256)": {
						"details": "Returns bounds for value of binaryLog(x) given x",
						"params": {
							"x": "logarithm argument in fixed point"
						},
						"return": "{   \"lower\": \"lower bound of binaryLog(x) in fixed point\",   \"upper\": \"upper bound of binaryLog(x) in fixed point\" }"
					},
					"max(int256[])": {
						"details": "Returns maximum of an array",
						"params": {
							"nums": "Numbers to look through"
						},
						"return": "Maximum number"
					},
					"pow2(int256,Fixed192x64Math.EstimationMode)": {
						"details": "Returns estimate of 2**x given x",
						"params": {
							"estimationMode": "whether to return a lower bound, upper bound, or a midpoint",
							"x": "exponent in fixed point"
						},
						"return": "estimate of 2**x in fixed point"
					},
					"pow2Bounds(int256)": {
						"details": "Returns bounds for value of 2**x given x",
						"params": {
							"x": "exponent in fixed point"
						},
						"return": "{   \"lower\": \"lower bound of 2**x in fixed point\",   \"upper\": \"upper bound of 2**x in fixed point\" }"
					}
				},
				"title": "Fixed192x64Math library - Allows calculation of logarithmic and exponential functions"
			},
			"evm": {
				"assembly": "    /* \"input/Fixed192x64Math.sol\":287:9091  library Fixed192x64Math {... */\n  dataSize(sub_0)\n  dataOffset(sub_0)\n    /* \"--CODEGEN--\":132:134   */\n  0x0b\n    /* \"--CODEGEN--\":166:173   */\n  dup3\n    /* \"--CODEGEN--\":155:164   */\n  dup3\n    /* \"--CODEGEN--\":146:153   */\n  dup3\n    /* \"--CODEGEN--\":137:174   */\n  codecopy\n    /* \"--CODEGEN--\":255:262   */\n  dup1\n    /* \"--CODEGEN--\":249:263   */\n  mload\n    /* \"--CODEGEN--\":246:247   */\n  0x00\n    /* \"--CODEGEN--\":241:264   */\n  byte\n    /* \"--CODEGEN--\":235:239   */\n  0x73\n    /* \"--CODEGEN--\":232:265   */\n  eq\n    /* \"--CODEGEN--\":222:224   */\n  tag_1\n  jumpi\n    /* \"--CODEGEN--\":269:278   */\n  invalid\n    /* \"--CODEGEN--\":222:224   */\ntag_1:\n    /* \"--CODEGEN--\":293:302   */\n  address\n    /* \"--CODEGEN--\":290:291   */\n  0x00\n    /* \"--CODEGEN--\":283:303   */\n  mstore\n    /* \"--CODEGEN--\":323:327   */\n  0x73\n    /* \"--CODEGEN--\":314:321   */\n  dup2\n    /* \"--CODEGEN--\":306:328   */\n  mstore8\n    /* \"--CODEGEN--\":347:354   */\n  dup3\n    /* \"--CODEGEN--\":338:345   */\n  dup2\n    /* \"--CODEGEN--\":331:355   */\n  return\nstop\n\nsub_0: assembly {\n        /* \"input/Fixed192x64Math.sol\":287:9091  library Fixed192x64Math {... */\n      eq(address, deployTimeAddress())\n      mstore(0x40, 0x80)\n      jumpi(tag_1, lt(calldatasize, 0x04))\n      shr(0xe0, calldataload(0x00))\n      dup1\n      0x24d4e90a\n      gt\n      tag_13\n      jumpi\n      dup1\n      0x24d4e90a\n      eq\n      tag_7\n      jumpi\n      dup1\n      0x45b8bafc\n      eq\n      tag_8\n      jumpi\n      dup1\n      0xc1266227\n      eq\n      tag_9\n      jumpi\n      dup1\n      0xc2ee3a08\n      eq\n      tag_10\n      jumpi\n      dup1\n      0xccc13814\n      eq\n      tag_11\n      jumpi\n      dup1\n      0xe46751e3\n      eq\n      tag_12\n      jumpi\n      jump(tag_1)\n    tag_13:\n      dup1\n      0x02780677\n      eq\n      tag_2\n      jumpi\n      dup1\n      0x137bf798\n      eq\n      tag_3\n      jumpi\n      dup1\n      0x1427f168\n      eq\n      tag_4\n      jumpi\n      dup1\n      0x1d580123\n      eq\n      tag_5\n      jumpi\n      dup1\n      0x24902e24\n      eq\n      tag_6\n      jumpi\n    tag_1:\n      0x00\n      dup1\n      revert\n        /* \"input/Fixed192x64Math.sol\":512:557  uint public constant LN2 = 0xb17217f7d1cf79ac */\n    tag_2:\n      tag_14\n      tag_15\n      jump\t// in\n    tag_14:\n      mload(0x40)\n      dup1\n      dup3\n      dup2\n      mstore\n      0x20\n      add\n      swap2\n      pop\n      pop\n      mload(0x40)\n      dup1\n      swap2\n      sub\n      swap1\n      return\n        /* \"input/Fixed192x64Math.sol\":6583:7070  function binaryLog(uint x, EstimationMode estimationMode)... */\n    tag_3:\n      tag_16\n      0x04\n      dup1\n      calldatasize\n      sub\n        /* \"--CODEGEN--\":13:15   */\n      0x40\n        /* \"--CODEGEN--\":8:11   */\n      dup2\n        /* \"--CODEGEN--\":5:16   */\n      lt\n        /* \"--CODEGEN--\":2:4   */\n      iszero\n      tag_17\n      jumpi\n        /* \"--CODEGEN--\":29:30   */\n      0x00\n        /* \"--CODEGEN--\":26:27   */\n      dup1\n        /* \"--CODEGEN--\":19:31   */\n      revert\n        /* \"--CODEGEN--\":2:4   */\n    tag_17:\n        /* \"input/Fixed192x64Math.sol\":6583:7070  function binaryLog(uint x, EstimationMode estimationMode)... */\n      dup2\n      add\n      swap1\n      dup1\n      dup1\n      calldataload\n      swap1\n      0x20\n      add\n      swap1\n      swap3\n      swap2\n      swap1\n      dup1\n      calldataload\n      0xff\n      and\n      swap1\n      0x20\n      add\n      swap1\n      swap3\n      swap2\n      swap1\n      pop\n      pop\n      pop\n      tag_18\n      jump\t// in\n    tag_16:\n      mload(0x40)\n      dup1\n      dup3\n      dup2\n      mstore\n      0x20\n      add\n      swap2\n      pop\n      pop\n      mload(0x40)\n      dup1\n      swap2\n      sub\n      swap1\n      return\n        /* \"input/Fixed192x64Math.sol\":7346:8090  function log2Bounds(uint x)... */\n    tag_4:\n      tag_19\n      0x04\n      dup1\n      calldatasize\n      sub\n        /* \"--CODEGEN--\":13:15   */\n      0x20\n        /* \"--CODEGEN--\":8:11   */\n      dup2\n        /* \"--CODEGEN--\":5:16   */\n      lt\n        /* \"--CODEGEN--\":2:4   */\n      iszero\n      tag_20\n      jumpi\n        /* \"--CODEGEN--\":29:30   */\n      0x00\n        /* \"--CODEGEN--\":26:27   */\n      dup1\n        /* \"--CODEGEN--\":19:31   */\n      revert\n        /* \"--CODEGEN--\":2:4   */\n    tag_20:\n        /* \"input/Fixed192x64Math.sol\":7346:8090  function log2Bounds(uint x)... */\n      dup2\n      add\n      swap1\n      dup1\n      dup1\n      calldataload\n      swap1\n      0x20\n      add\n      swap1\n      swap3\n      swap2\n      swap1\n      pop\n      pop\n      pop\n      tag_21\n      jump\t// in\n    tag_19:\n      mload(0x40)\n      dup1\n      dup4\n      dup2\n      mstore\n      0x20\n      add\n      dup3\n      dup2\n      mstore\n      0x20\n      add\n      swap3\n      pop\n      pop\n      pop\n      mload(0x40)\n      dup1\n      swap2\n      sub\n      swap1\n      return\n        /* \"input/Fixed192x64Math.sol\":1574:2058  function pow2(int x, EstimationMode estimationMode)... */\n    tag_5:\n      tag_22\n      0x04\n      dup1\n      calldatasize\n      sub\n        /* \"--CODEGEN--\":13:15   */\n      0x40\n        /* \"--CODEGEN--\":8:11   */\n      dup2\n        /* \"--CODEGEN--\":5:16   */\n      lt\n        /* \"--CODEGEN--\":2:4   */\n      iszero\n      tag_23\n      jumpi\n        /* \"--CODEGEN--\":29:30   */\n      0x00\n        /* \"--CODEGEN--\":26:27   */\n      dup1\n        /* \"--CODEGEN--\":19:31   */\n      revert\n        /* \"--CODEGEN--\":2:4   */\n    tag_23:\n        /* \"input/Fixed192x64Math.sol\":1574:2058  function pow2(int x, EstimationMode estimationMode)... */\n      dup2\n      add\n      swap1\n      dup1\n      dup1\n      calldataload\n      swap1\n      0x20\n      add\n      swap1\n      swap3\n      swap2\n      swap1\n      dup1\n      calldataload\n      0xff\n      and\n      swap1\n      0x20\n      add\n      swap1\n      swap3\n      swap2\n      swap1\n      pop\n      pop\n      pop\n      tag_24\n      jump\t// in\n    tag_22:\n      mload(0x40)\n      dup1\n      dup3\n      dup2\n      mstore\n      0x20\n      add\n      swap2\n      pop\n      pop\n      mload(0x40)\n      dup1\n      swap2\n      sub\n      swap1\n      return\n        /* \"input/Fixed192x64Math.sol\":563:612  uint public constant LOG2_E = 0x171547652b82fe177 */\n    tag_6:\n      tag_25\n      tag_26\n      jump\t// in\n    tag_25:\n      mload(0x40)\n      dup1\n      dup3\n      dup2\n      mstore\n      0x20\n      add\n      swap2\n      pop\n      pop\n      mload(0x40)\n      dup1\n      swap2\n      sub\n      swap1\n      return\n        /* \"input/Fixed192x64Math.sol\":6126:6326  function ln(uint x)... */\n    tag_7:\n      tag_27\n      0x04\n      dup1\n      calldatasize\n      sub\n        /* \"--CODEGEN--\":13:15   */\n      0x20\n        /* \"--CODEGEN--\":8:11   */\n      dup2\n        /* \"--CODEGEN--\":5:16   */\n      lt\n        /* \"--CODEGEN--\":2:4   */\n      iszero\n      tag_28\n      jumpi\n        /* \"--CODEGEN--\":29:30   */\n      0x00\n        /* \"--CODEGEN--\":26:27   */\n      dup1\n        /* \"--CODEGEN--\":19:31   */\n      revert\n        /* \"--CODEGEN--\":2:4   */\n    tag_28:\n        /* \"input/Fixed192x64Math.sol\":6126:6326  function ln(uint x)... */\n      dup2\n      add\n      swap1\n      dup1\n      dup1\n      calldataload\n      swap1\n      0x20\n      add\n      swap1\n      swap3\n      swap2\n      swap1\n      pop\n      pop\n      pop\n      tag_29\n      jump\t// in\n    tag_27:\n      mload(0x40)\n      dup1\n      dup3\n      dup2\n      mstore\n      0x20\n      add\n      swap2\n      pop\n      pop\n      mload(0x40)\n      dup1\n      swap2\n      sub\n      swap1\n      return\n        /* \"input/Fixed192x64Math.sol\":8204:8692  function floorLog2(uint x)... */\n    tag_8:\n      tag_30\n      0x04\n      dup1\n      calldatasize\n      sub\n        /* \"--CODEGEN--\":13:15   */\n      0x20\n        /* \"--CODEGEN--\":8:11   */\n      dup2\n        /* \"--CODEGEN--\":5:16   */\n      lt\n        /* \"--CODEGEN--\":2:4   */\n      iszero\n      tag_31\n      jumpi\n        /* \"--CODEGEN--\":29:30   */\n      0x00\n        /* \"--CODEGEN--\":26:27   */\n      dup1\n        /* \"--CODEGEN--\":19:31   */\n      revert\n        /* \"--CODEGEN--\":2:4   */\n    tag_31:\n        /* \"input/Fixed192x64Math.sol\":8204:8692  function floorLog2(uint x)... */\n      dup2\n      add\n      swap1\n      dup1\n      dup1\n      calldataload\n      swap1\n      0x20\n      add\n      swap1\n      swap3\n      swap2\n      swap1\n      pop\n      pop\n      pop\n      tag_32\n      jump\t// in\n    tag_30:\n      mload(0x40)\n      dup1\n      dup3\n      dup2\n      mstore\n      0x20\n      add\n      swap2\n      pop\n      pop\n      mload(0x40)\n      dup1\n      swap2\n      sub\n      swap1\n      return\n        /* \"input/Fixed192x64Math.sol\":2300:6023  function pow2Bounds(int x)... */\n    tag_9:\n      tag_33\n      0x04\n      dup1\n      calldatasize\n      sub\n        /* \"--CODEGEN--\":13:15   */\n      0x20\n        /* \"--CODEGEN--\":8:11   */\n      dup2\n        /* \"--CODEGEN--\":5:16   */\n      lt\n        /* \"--CODEGEN--\":2:4   */\n      iszero\n      tag_34\n      jumpi\n        /* \"--CODEGEN--\":29:30   */\n      0x00\n        /* \"--CODEGEN--\":26:27   */\n      dup1\n        /* \"--CODEGEN--\":19:31   */\n      revert\n        /* \"--CODEGEN--\":2:4   */\n    tag_34:\n        /* \"input/Fixed192x64Math.sol\":2300:6023  function pow2Bounds(int x)... */\n      dup2\n      add\n      swap1\n      dup1\n      dup1\n      calldataload\n      swap1\n      0x20\n      add\n      swap1\n      swap3\n      swap2\n      swap1\n      pop\n      pop\n      pop\n      tag_35\n      jump\t// in\n    tag_33:\n      mload(0x40)\n      dup1\n      dup4\n      dup2\n      mstore\n      0x20\n      add\n      dup3\n      dup2\n      mstore\n      0x20\n      add\n      swap3\n      pop\n      pop\n      pop\n      mload(0x40)\n      dup1\n      swap2\n      sub\n      swap1\n      return\n        /* \"input/Fixed192x64Math.sol\":459:506  uint public constant ONE =  0x10000000000000000 */\n    tag_10:\n      tag_36\n      tag_37\n      jump\t// in\n    tag_36:\n      mload(0x40)\n      dup1\n      dup3\n      dup2\n      mstore\n      0x20\n      add\n      swap2\n      pop\n      pop\n      mload(0x40)\n      dup1\n      swap2\n      sub\n      swap1\n      return\n        /* \"input/Fixed192x64Math.sol\":8814:9089  function max(int[] memory nums)... */\n    tag_11:\n      tag_38\n      0x04\n      dup1\n      calldatasize\n      sub\n        /* \"--CODEGEN--\":13:15   */\n      0x20\n        /* \"--CODEGEN--\":8:11   */\n      dup2\n        /* \"--CODEGEN--\":5:16   */\n      lt\n        /* \"--CODEGEN--\":2:4   */\n      iszero\n      tag_39\n      jumpi\n        /* \"--CODEGEN--\":29:30   */\n      0x00\n        /* \"--CODEGEN--\":26:27   */\n      dup1\n        /* \"--CODEGEN--\":19:31   */\n      revert\n        /* \"--CODEGEN--\":2:4   */\n    tag_39:\n        /* \"input/Fixed192x64Math.sol\":8814:9089  function max(int[] memory nums)... */\n      dup2\n      add\n      swap1\n      dup1\n      dup1\n      calldataload\n      swap1\n      0x20\n      add\n      swap1\n        /* \"--CODEGEN--\":21:32   */\n      0x0100000000\n        /* \"--CODEGEN--\":8:19   */\n      dup2\n        /* \"--CODEGEN--\":5:33   */\n      gt\n        /* \"--CODEGEN--\":2:4   */\n      iszero\n      tag_40\n      jumpi\n        /* \"--CODEGEN--\":46:47   */\n      0x00\n        /* \"--CODEGEN--\":43:44   */\n      dup1\n        /* \"--CODEGEN--\":36:48   */\n      revert\n        /* \"--CODEGEN--\":2:4   */\n    tag_40:\n        /* \"input/Fixed192x64Math.sol\":8814:9089  function max(int[] memory nums)... */\n      dup3\n      add\n        /* \"--CODEGEN--\":35:44   */\n      dup4\n        /* \"--CODEGEN--\":28:32   */\n      0x20\n        /* \"--CODEGEN--\":12:26   */\n      dup3\n        /* \"--CODEGEN--\":8:33   */\n      add\n        /* \"--CODEGEN--\":5:45   */\n      gt\n        /* \"--CODEGEN--\":2:4   */\n      iszero\n      tag_41\n      jumpi\n        /* \"--CODEGEN--\":58:59   */\n      0x00\n        /* \"--CODEGEN--\":55:56   */\n      dup1\n        /* \"--CODEGEN--\":48:60   */\n      revert\n        /* \"--CODEGEN--\":2:4   */\n    tag_41:\n        /* \"input/Fixed192x64Math.sol\":8814:9089  function max(int[] memory nums)... */\n      dup1\n      calldataload\n      swap1\n      0x20\n      add\n      swap2\n        /* \"--CODEGEN--\":101:110   */\n      dup5\n        /* \"--CODEGEN--\":95:97   */\n      0x20\n        /* \"--CODEGEN--\":81:93   */\n      dup4\n        /* \"--CODEGEN--\":77:98   */\n      mul\n        /* \"--CODEGEN--\":67:75   */\n      dup5\n        /* \"--CODEGEN--\":63:99   */\n      add\n        /* \"--CODEGEN--\":60:111   */\n      gt\n        /* \"--CODEGEN--\":39:50   */\n      0x0100000000\n        /* \"--CODEGEN--\":25:37   */\n      dup4\n        /* \"--CODEGEN--\":22:51   */\n      gt\n        /* \"--CODEGEN--\":11:119   */\n      or\n        /* \"--CODEGEN--\":8:10   */\n      iszero\n      tag_42\n      jumpi\n        /* \"--CODEGEN--\":132:133   */\n      0x00\n        /* \"--CODEGEN--\":129:130   */\n      dup1\n        /* \"--CODEGEN--\":122:134   */\n      revert\n        /* \"--CODEGEN--\":8:10   */\n    tag_42:\n        /* \"input/Fixed192x64Math.sol\":8814:9089  function max(int[] memory nums)... */\n      swap2\n      swap1\n      dup1\n      dup1\n      0x20\n      mul\n      0x20\n      add\n      mload(0x40)\n      swap1\n      dup2\n      add\n      0x40\n      mstore\n      dup1\n      swap4\n      swap3\n      swap2\n      swap1\n      dup2\n      dup2\n      mstore\n      0x20\n      add\n      dup4\n      dup4\n      0x20\n      mul\n        /* \"--CODEGEN--\":30:33   */\n      dup1\n        /* \"--CODEGEN--\":22:28   */\n      dup3\n        /* \"--CODEGEN--\":14:20   */\n      dup5\n        /* \"--CODEGEN--\":1:34   */\n      calldatacopy\n        /* \"--CODEGEN--\":99:100   */\n      0x00\n        /* \"--CODEGEN--\":93:96   */\n      dup2\n        /* \"--CODEGEN--\":85:91   */\n      dup5\n        /* \"--CODEGEN--\":81:97   */\n      add\n        /* \"--CODEGEN--\":74:101   */\n      mstore\n        /* \"--CODEGEN--\":137:141   */\n      0x1f\n        /* \"--CODEGEN--\":133:142   */\n      not\n        /* \"--CODEGEN--\":126:130   */\n      0x1f\n        /* \"--CODEGEN--\":121:124   */\n      dup3\n        /* \"--CODEGEN--\":117:131   */\n      add\n        /* \"--CODEGEN--\":113:143   */\n      and\n        /* \"--CODEGEN--\":106:143   */\n      swap1\n      pop\n        /* \"--CODEGEN--\":169:172   */\n      dup1\n        /* \"--CODEGEN--\":161:167   */\n      dup4\n        /* \"--CODEGEN--\":157:173   */\n      add\n        /* \"--CODEGEN--\":147:173   */\n      swap3\n      pop\n        /* \"input/Fixed192x64Math.sol\":8814:9089  function max(int[] memory nums)... */\n      pop\n      pop\n      pop\n      pop\n      pop\n      pop\n      swap2\n      swap3\n      swap2\n      swap3\n      swap1\n      pop\n      pop\n      pop\n      tag_43\n      jump\t// in\n    tag_38:\n      mload(0x40)\n      dup1\n      dup3\n      dup2\n      mstore\n      0x20\n      add\n      swap2\n      pop\n      pop\n      mload(0x40)\n      dup1\n      swap2\n      sub\n      swap1\n      return\n        /* \"input/Fixed192x64Math.sol\":766:1343  function exp(int x)... */\n    tag_12:\n      tag_44\n      0x04\n      dup1\n      calldatasize\n      sub\n        /* \"--CODEGEN--\":13:15   */\n      0x20\n        /* \"--CODEGEN--\":8:11   */\n      dup2\n        /* \"--CODEGEN--\":5:16   */\n      lt\n        /* \"--CODEGEN--\":2:4   */\n      iszero\n      tag_45\n      jumpi\n        /* \"--CODEGEN--\":29:30   */\n      0x00\n        /* \"--CODEGEN--\":26:27   */\n      dup1\n        /* \"--CODEGEN--\":19:31   */\n      revert\n        /* \"--CODEGEN--\":2:4   */\n    tag_45:\n        /* \"input/Fixed192x64Math.sol\":766:1343  function exp(int x)... */\n      dup2\n      add\n      swap1\n      dup1\n      dup1\n      calldataload\n      swap1\n      0x20\n      add\n      swap1\n      swap3\n      swap2\n      swap1\n      pop\n      pop\n      pop\n      tag_46\n      jump\t// in\n    tag_44:\n      mload(0x40)\n      dup1\n      dup3\n      dup2\n      mstore\n      0x20\n      add\n      swap2\n      pop\n      pop\n      mload(0x40)\n      dup1\n      swap2\n      sub\n      swap1\n      return\n        /* \"input/Fixed192x64Math.sol\":512:557  uint public constant LN2 = 0xb17217f7d1cf79ac */\n    tag_15:\n        /* \"input/Fixed192x64Math.sol\":539:557  0xb17217f7d1cf79ac */\n      0xb17217f7d1cf79ac\n        /* \"input/Fixed192x64Math.sol\":512:557  uint public constant LN2 = 0xb17217f7d1cf79ac */\n      dup2\n      jump\t// out\n        /* \"input/Fixed192x64Math.sol\":6583:7070  function binaryLog(uint x, EstimationMode estimationMode)... */\n    tag_18:\n        /* \"input/Fixed192x64Math.sol\":6686:6689  int */\n      0x00\n        /* \"input/Fixed192x64Math.sol\":6706:6715  int lower */\n      dup1\n        /* \"input/Fixed192x64Math.sol\":6717:6726  int upper */\n      0x00\n        /* \"input/Fixed192x64Math.sol\":6730:6743  log2Bounds(x) */\n      tag_48\n        /* \"input/Fixed192x64Math.sol\":6741:6742  x */\n      dup6\n        /* \"input/Fixed192x64Math.sol\":6730:6740  log2Bounds */\n      tag_21\n        /* \"input/Fixed192x64Math.sol\":6730:6743  log2Bounds(x) */\n      jump\t// in\n    tag_48:\n        /* \"input/Fixed192x64Math.sol\":6705:6743  (int lower, int upper) = log2Bounds(x) */\n      swap2\n      pop\n      swap2\n      pop\n        /* \"input/Fixed192x64Math.sol\":6774:6799  EstimationMode.LowerBound */\n      0x00\n        /* \"input/Fixed192x64Math.sol\":6756:6799  estimationMode == EstimationMode.LowerBound */\n      0x02\n      dup2\n      gt\n      iszero\n      tag_49\n      jumpi\n      invalid\n    tag_49:\n        /* \"input/Fixed192x64Math.sol\":6756:6770  estimationMode */\n      dup5\n        /* \"input/Fixed192x64Math.sol\":6756:6799  estimationMode == EstimationMode.LowerBound */\n      0x02\n      dup2\n      gt\n      iszero\n      tag_50\n      jumpi\n      invalid\n    tag_50:\n      eq\n        /* \"input/Fixed192x64Math.sol\":6753:6838  if(estimationMode == EstimationMode.LowerBound) {... */\n      iszero\n      tag_51\n      jumpi\n        /* \"input/Fixed192x64Math.sol\":6822:6827  lower */\n      dup2\n        /* \"input/Fixed192x64Math.sol\":6815:6827  return lower */\n      swap3\n      pop\n      pop\n      pop\n      jump(tag_47)\n        /* \"input/Fixed192x64Math.sol\":6753:6838  if(estimationMode == EstimationMode.LowerBound) {... */\n    tag_51:\n        /* \"input/Fixed192x64Math.sol\":6868:6893  EstimationMode.UpperBound */\n      0x01\n        /* \"input/Fixed192x64Math.sol\":6850:6893  estimationMode == EstimationMode.UpperBound */\n      0x02\n      dup2\n      gt\n      iszero\n      tag_52\n      jumpi\n      invalid\n    tag_52:\n        /* \"input/Fixed192x64Math.sol\":6850:6864  estimationMode */\n      dup5\n        /* \"input/Fixed192x64Math.sol\":6850:6893  estimationMode == EstimationMode.UpperBound */\n      0x02\n      dup2\n      gt\n      iszero\n      tag_53\n      jumpi\n      invalid\n    tag_53:\n      eq\n        /* \"input/Fixed192x64Math.sol\":6847:6932  if(estimationMode == EstimationMode.UpperBound) {... */\n      iszero\n      tag_54\n      jumpi\n        /* \"input/Fixed192x64Math.sol\":6916:6921  upper */\n      dup1\n        /* \"input/Fixed192x64Math.sol\":6909:6921  return upper */\n      swap3\n      pop\n      pop\n      pop\n      jump(tag_47)\n        /* \"input/Fixed192x64Math.sol\":6847:6932  if(estimationMode == EstimationMode.UpperBound) {... */\n    tag_54:\n        /* \"input/Fixed192x64Math.sol\":6962:6985  EstimationMode.Midpoint */\n      0x02\n        /* \"input/Fixed192x64Math.sol\":6944:6985  estimationMode == EstimationMode.Midpoint */\n      dup1\n      dup2\n      gt\n      iszero\n      tag_55\n      jumpi\n      invalid\n    tag_55:\n        /* \"input/Fixed192x64Math.sol\":6944:6958  estimationMode */\n      dup5\n        /* \"input/Fixed192x64Math.sol\":6944:6985  estimationMode == EstimationMode.Midpoint */\n      0x02\n      dup2\n      gt\n      iszero\n      tag_56\n      jumpi\n      invalid\n    tag_56:\n      eq\n        /* \"input/Fixed192x64Math.sol\":6941:7046  if(estimationMode == EstimationMode.Midpoint) {... */\n      iszero\n      tag_57\n      jumpi\n        /* \"input/Fixed192x64Math.sol\":7030:7035  lower */\n      dup2\n        /* \"input/Fixed192x64Math.sol\":7026:7027  2 */\n      0x02\n        /* \"input/Fixed192x64Math.sol\":7017:7022  lower */\n      dup4\n        /* \"input/Fixed192x64Math.sol\":7009:7014  upper */\n      dup4\n        /* \"input/Fixed192x64Math.sol\":7009:7022  upper - lower */\n      sub\n        /* \"input/Fixed192x64Math.sol\":7008:7027  (upper - lower) / 2 */\n      dup2\n      tag_58\n      jumpi\n      invalid\n    tag_58:\n      sdiv\n        /* \"input/Fixed192x64Math.sol\":7008:7035  (upper - lower) / 2 + lower */\n      add\n        /* \"input/Fixed192x64Math.sol\":7001:7035  return (upper - lower) / 2 + lower */\n      swap3\n      pop\n      pop\n      pop\n      jump(tag_47)\n        /* \"input/Fixed192x64Math.sol\":6941:7046  if(estimationMode == EstimationMode.Midpoint) {... */\n    tag_57:\n        /* \"input/Fixed192x64Math.sol\":7055:7063  revert() */\n      0x00\n      dup1\n      revert\n        /* \"input/Fixed192x64Math.sol\":6583:7070  function binaryLog(uint x, EstimationMode estimationMode)... */\n    tag_47:\n      swap3\n      swap2\n      pop\n      pop\n      jump\t// out\n        /* \"input/Fixed192x64Math.sol\":7346:8090  function log2Bounds(uint x)... */\n    tag_21:\n        /* \"input/Fixed192x64Math.sol\":7419:7428  int lower */\n      0x00\n        /* \"input/Fixed192x64Math.sol\":7430:7439  int upper */\n      dup1\n        /* \"input/Fixed192x64Math.sol\":7467:7468  0 */\n      0x00\n        /* \"input/Fixed192x64Math.sol\":7463:7464  x */\n      dup4\n        /* \"input/Fixed192x64Math.sol\":7463:7468  x > 0 */\n      gt\n        /* \"input/Fixed192x64Math.sol\":7455:7469  require(x > 0) */\n      tag_60\n      jumpi\n      0x00\n      dup1\n      revert\n    tag_60:\n        /* \"input/Fixed192x64Math.sol\":7520:7532  floorLog2(x) */\n      tag_61\n        /* \"input/Fixed192x64Math.sol\":7530:7531  x */\n      dup4\n        /* \"input/Fixed192x64Math.sol\":7520:7529  floorLog2 */\n      tag_32\n        /* \"input/Fixed192x64Math.sol\":7520:7532  floorLog2(x) */\n      jump\t// in\n    tag_61:\n        /* \"input/Fixed192x64Math.sol\":7512:7532  lower = floorLog2(x) */\n      swap2\n      pop\n        /* \"input/Fixed192x64Math.sol\":7543:7549  uint y */\n      0x00\n        /* \"input/Fixed192x64Math.sol\":7571:7572  0 */\n      dup1\n        /* \"input/Fixed192x64Math.sol\":7563:7568  lower */\n      dup4\n        /* \"input/Fixed192x64Math.sol\":7563:7572  lower < 0 */\n      slt\n        /* \"input/Fixed192x64Math.sol\":7559:7654  if (lower < 0)... */\n      iszero\n      tag_62\n      jumpi\n        /* \"input/Fixed192x64Math.sol\":7601:7606  lower */\n      dup3\n        /* \"input/Fixed192x64Math.sol\":7600:7606  -lower */\n      0x00\n      sub\n        /* \"input/Fixed192x64Math.sol\":7590:7591  x */\n      dup5\n        /* \"input/Fixed192x64Math.sol\":7590:7607  x << uint(-lower) */\n      swap1\n      shl\n        /* \"input/Fixed192x64Math.sol\":7586:7607  y = x << uint(-lower) */\n      swap1\n      pop\n        /* \"input/Fixed192x64Math.sol\":7559:7654  if (lower < 0)... */\n      jump(tag_63)\n    tag_62:\n        /* \"input/Fixed192x64Math.sol\":7648:7653  lower */\n      dup3\n        /* \"input/Fixed192x64Math.sol\":7638:7639  x */\n      dup5\n        /* \"input/Fixed192x64Math.sol\":7638:7654  x >> uint(lower) */\n      swap1\n      shr\n        /* \"input/Fixed192x64Math.sol\":7634:7654  y = x >> uint(lower) */\n      swap1\n      pop\n        /* \"input/Fixed192x64Math.sol\":7559:7654  if (lower < 0)... */\n    tag_63:\n        /* \"input/Fixed192x64Math.sol\":487:506  0x10000000000000000 */\n      0x010000000000000000\n        /* \"input/Fixed192x64Math.sol\":7665:7682  lower *= int(ONE) */\n      dup4\n      mul\n      swap3\n      pop\n        /* \"input/Fixed192x64Math.sol\":7810:7815  int m */\n      0x00\n        /* \"input/Fixed192x64Math.sol\":7818:7819  1 */\n      0x01\n        /* \"input/Fixed192x64Math.sol\":7810:7819  int m = 1 */\n      swap1\n      pop\n        /* \"input/Fixed192x64Math.sol\":7805:8048  for (int m = 1; m <= 64; m++) {... */\n    tag_64:\n        /* \"input/Fixed192x64Math.sol\":7826:7828  64 */\n      0x40\n        /* \"input/Fixed192x64Math.sol\":7821:7822  m */\n      dup2\n        /* \"input/Fixed192x64Math.sol\":7821:7828  m <= 64 */\n      sgt\n        /* \"input/Fixed192x64Math.sol\":7805:8048  for (int m = 1; m <= 64; m++) {... */\n      tag_65\n      jumpi\n        /* \"input/Fixed192x64Math.sol\":487:506  0x10000000000000000 */\n      0x010000000000000000\n        /* \"input/Fixed192x64Math.sol\":7852:7853  y */\n      dup3\n        /* \"input/Fixed192x64Math.sol\":7852:7860  y == ONE */\n      eq\n        /* \"input/Fixed192x64Math.sol\":7849:7900  if(y == ONE) {... */\n      iszero\n      tag_67\n      jumpi\n        /* \"input/Fixed192x64Math.sol\":7880:7885  break */\n      jump(tag_65)\n        /* \"input/Fixed192x64Math.sol\":7849:7900  if(y == ONE) {... */\n    tag_67:\n        /* \"input/Fixed192x64Math.sol\":487:506  0x10000000000000000 */\n      0x010000000000000000\n        /* \"input/Fixed192x64Math.sol\":7921:7922  y */\n      dup3\n        /* \"input/Fixed192x64Math.sol\":7917:7918  y */\n      dup4\n        /* \"input/Fixed192x64Math.sol\":7917:7922  y * y */\n      mul\n        /* \"input/Fixed192x64Math.sol\":7917:7928  y * y / ONE */\n      dup2\n      tag_68\n      jumpi\n      invalid\n    tag_68:\n      div\n        /* \"input/Fixed192x64Math.sol\":7913:7928  y = y * y / ONE */\n      swap2\n      pop\n        /* \"input/Fixed192x64Math.sol\":487:506  0x10000000000000000 */\n      0x010000000000000000\n        /* \"input/Fixed192x64Math.sol\":7950:7951  2 */\n      0x02\n        /* \"input/Fixed192x64Math.sol\":7950:7957  2 * ONE */\n      mul\n        /* \"input/Fixed192x64Math.sol\":7945:7946  y */\n      dup3\n        /* \"input/Fixed192x64Math.sol\":7945:7957  y >= 2 * ONE */\n      lt\n        /* \"input/Fixed192x64Math.sol\":7942:8038  if(y >= 2 * ONE) {... */\n      tag_69\n      jumpi\n        /* \"input/Fixed192x64Math.sol\":7997:7998  m */\n      dup1\n        /* \"input/Fixed192x64Math.sol\":487:506  0x10000000000000000 */\n      0x010000000000000000\n        /* \"input/Fixed192x64Math.sol\":7990:7998  ONE >> m */\n      0x00\n      dup3\n      slt\n      iszero\n      tag_70\n      jumpi\n      invalid\n    tag_70:\n      swap1\n      shr\n        /* \"input/Fixed192x64Math.sol\":7977:7999  lower += int(ONE >> m) */\n      dup5\n      add\n      swap4\n      pop\n        /* \"input/Fixed192x64Math.sol\":8022:8023  2 */\n      0x02\n        /* \"input/Fixed192x64Math.sol\":8017:8023  y /= 2 */\n      dup3\n      dup2\n      tag_71\n      jumpi\n      invalid\n    tag_71:\n      div\n      swap2\n      pop\n        /* \"input/Fixed192x64Math.sol\":7942:8038  if(y >= 2 * ONE) {... */\n    tag_69:\n        /* \"input/Fixed192x64Math.sol\":7830:7833  m++ */\n      dup1\n      dup1\n      0x01\n      add\n      swap2\n      pop\n      pop\n        /* \"input/Fixed192x64Math.sol\":7805:8048  for (int m = 1; m <= 64; m++) {... */\n      jump(tag_64)\n    tag_65:\n      pop\n        /* \"input/Fixed192x64Math.sol\":8066:8071  lower */\n      dup3\n        /* \"input/Fixed192x64Math.sol\":8081:8082  4 */\n      0x04\n        /* \"input/Fixed192x64Math.sol\":8073:8078  lower */\n      dup5\n        /* \"input/Fixed192x64Math.sol\":8073:8082  lower + 4 */\n      add\n        /* \"input/Fixed192x64Math.sol\":8058:8083  return (lower, lower + 4) */\n      swap3\n      pop\n      swap3\n      pop\n      pop\n        /* \"input/Fixed192x64Math.sol\":7346:8090  function log2Bounds(uint x)... */\n      swap2\n      pop\n      swap2\n      jump\t// out\n        /* \"input/Fixed192x64Math.sol\":1574:2058  function pow2(int x, EstimationMode estimationMode)... */\n    tag_24:\n        /* \"input/Fixed192x64Math.sol\":1671:1675  uint */\n      0x00\n        /* \"input/Fixed192x64Math.sol\":1692:1702  uint lower */\n      dup1\n        /* \"input/Fixed192x64Math.sol\":1704:1714  uint upper */\n      0x00\n        /* \"input/Fixed192x64Math.sol\":1718:1731  pow2Bounds(x) */\n      tag_73\n        /* \"input/Fixed192x64Math.sol\":1729:1730  x */\n      dup6\n        /* \"input/Fixed192x64Math.sol\":1718:1728  pow2Bounds */\n      tag_35\n        /* \"input/Fixed192x64Math.sol\":1718:1731  pow2Bounds(x) */\n      jump\t// in\n    tag_73:\n        /* \"input/Fixed192x64Math.sol\":1691:1731  (uint lower, uint upper) = pow2Bounds(x) */\n      swap2\n      pop\n      swap2\n      pop\n        /* \"input/Fixed192x64Math.sol\":1762:1787  EstimationMode.LowerBound */\n      0x00\n        /* \"input/Fixed192x64Math.sol\":1744:1787  estimationMode == EstimationMode.LowerBound */\n      0x02\n      dup2\n      gt\n      iszero\n      tag_74\n      jumpi\n      invalid\n    tag_74:\n        /* \"input/Fixed192x64Math.sol\":1744:1758  estimationMode */\n      dup5\n        /* \"input/Fixed192x64Math.sol\":1744:1787  estimationMode == EstimationMode.LowerBound */\n      0x02\n      dup2\n      gt\n      iszero\n      tag_75\n      jumpi\n      invalid\n    tag_75:\n      eq\n        /* \"input/Fixed192x64Math.sol\":1741:1826  if(estimationMode == EstimationMode.LowerBound) {... */\n      iszero\n      tag_76\n      jumpi\n        /* \"input/Fixed192x64Math.sol\":1810:1815  lower */\n      dup2\n        /* \"input/Fixed192x64Math.sol\":1803:1815  return lower */\n      swap3\n      pop\n      pop\n      pop\n      jump(tag_72)\n        /* \"input/Fixed192x64Math.sol\":1741:1826  if(estimationMode == EstimationMode.LowerBound) {... */\n    tag_76:\n        /* \"input/Fixed192x64Math.sol\":1856:1881  EstimationMode.UpperBound */\n      0x01\n        /* \"input/Fixed192x64Math.sol\":1838:1881  estimationMode == EstimationMode.UpperBound */\n      0x02\n      dup2\n      gt\n      iszero\n      tag_77\n      jumpi\n      invalid\n    tag_77:\n        /* \"input/Fixed192x64Math.sol\":1838:1852  estimationMode */\n      dup5\n        /* \"input/Fixed192x64Math.sol\":1838:1881  estimationMode == EstimationMode.UpperBound */\n      0x02\n      dup2\n      gt\n      iszero\n      tag_78\n      jumpi\n      invalid\n    tag_78:\n      eq\n        /* \"input/Fixed192x64Math.sol\":1835:1920  if(estimationMode == EstimationMode.UpperBound) {... */\n      iszero\n      tag_79\n      jumpi\n        /* \"input/Fixed192x64Math.sol\":1904:1909  upper */\n      dup1\n        /* \"input/Fixed192x64Math.sol\":1897:1909  return upper */\n      swap3\n      pop\n      pop\n      pop\n      jump(tag_72)\n        /* \"input/Fixed192x64Math.sol\":1835:1920  if(estimationMode == EstimationMode.UpperBound) {... */\n    tag_79:\n        /* \"input/Fixed192x64Math.sol\":1950:1973  EstimationMode.Midpoint */\n      0x02\n        /* \"input/Fixed192x64Math.sol\":1932:1973  estimationMode == EstimationMode.Midpoint */\n      dup1\n      dup2\n      gt\n      iszero\n      tag_80\n      jumpi\n      invalid\n    tag_80:\n        /* \"input/Fixed192x64Math.sol\":1932:1946  estimationMode */\n      dup5\n        /* \"input/Fixed192x64Math.sol\":1932:1973  estimationMode == EstimationMode.Midpoint */\n      0x02\n      dup2\n      gt\n      iszero\n      tag_81\n      jumpi\n      invalid\n    tag_81:\n      eq\n        /* \"input/Fixed192x64Math.sol\":1929:2034  if(estimationMode == EstimationMode.Midpoint) {... */\n      iszero\n      tag_82\n      jumpi\n        /* \"input/Fixed192x64Math.sol\":2018:2023  lower */\n      dup2\n        /* \"input/Fixed192x64Math.sol\":2014:2015  2 */\n      0x02\n        /* \"input/Fixed192x64Math.sol\":2005:2010  lower */\n      dup4\n        /* \"input/Fixed192x64Math.sol\":1997:2002  upper */\n      dup4\n        /* \"input/Fixed192x64Math.sol\":1997:2010  upper - lower */\n      sub\n        /* \"input/Fixed192x64Math.sol\":1996:2015  (upper - lower) / 2 */\n      dup2\n      tag_83\n      jumpi\n      invalid\n    tag_83:\n      div\n        /* \"input/Fixed192x64Math.sol\":1996:2023  (upper - lower) / 2 + lower */\n      add\n        /* \"input/Fixed192x64Math.sol\":1989:2023  return (upper - lower) / 2 + lower */\n      swap3\n      pop\n      pop\n      pop\n      jump(tag_72)\n        /* \"input/Fixed192x64Math.sol\":1929:2034  if(estimationMode == EstimationMode.Midpoint) {... */\n    tag_82:\n        /* \"input/Fixed192x64Math.sol\":2043:2051  revert() */\n      0x00\n      dup1\n      revert\n        /* \"input/Fixed192x64Math.sol\":1574:2058  function pow2(int x, EstimationMode estimationMode)... */\n    tag_72:\n      swap3\n      swap2\n      pop\n      pop\n      jump\t// out\n        /* \"input/Fixed192x64Math.sol\":563:612  uint public constant LOG2_E = 0x171547652b82fe177 */\n    tag_26:\n        /* \"input/Fixed192x64Math.sol\":593:612  0x171547652b82fe177 */\n      0x0171547652b82fe177\n        /* \"input/Fixed192x64Math.sol\":563:612  uint public constant LOG2_E = 0x171547652b82fe177 */\n      dup2\n      jump\t// out\n        /* \"input/Fixed192x64Math.sol\":6126:6326  function ln(uint x)... */\n    tag_29:\n        /* \"input/Fixed192x64Math.sol\":6191:6194  int */\n      0x00\n        /* \"input/Fixed192x64Math.sol\":6211:6220  int lower */\n      dup1\n        /* \"input/Fixed192x64Math.sol\":6222:6231  int upper */\n      0x00\n        /* \"input/Fixed192x64Math.sol\":6235:6248  log2Bounds(x) */\n      tag_85\n        /* \"input/Fixed192x64Math.sol\":6246:6247  x */\n      dup5\n        /* \"input/Fixed192x64Math.sol\":6235:6245  log2Bounds */\n      tag_21\n        /* \"input/Fixed192x64Math.sol\":6235:6248  log2Bounds(x) */\n      jump\t// in\n    tag_85:\n        /* \"input/Fixed192x64Math.sol\":6210:6248  (int lower, int upper) = log2Bounds(x) */\n      swap2\n      pop\n      swap2\n      pop\n        /* \"input/Fixed192x64Math.sol\":593:612  0x171547652b82fe177 */\n      0x0171547652b82fe177\n        /* \"input/Fixed192x64Math.sol\":487:506  0x10000000000000000 */\n      0x010000000000000000\n        /* \"input/Fixed192x64Math.sol\":6288:6293  lower */\n      dup4\n        /* \"input/Fixed192x64Math.sol\":6284:6285  2 */\n      0x02\n        /* \"input/Fixed192x64Math.sol\":6275:6280  lower */\n      dup6\n        /* \"input/Fixed192x64Math.sol\":6267:6272  upper */\n      dup6\n        /* \"input/Fixed192x64Math.sol\":6267:6280  upper - lower */\n      sub\n        /* \"input/Fixed192x64Math.sol\":6266:6285  (upper - lower) / 2 */\n      dup2\n      tag_86\n      jumpi\n      invalid\n    tag_86:\n      sdiv\n        /* \"input/Fixed192x64Math.sol\":6266:6293  (upper - lower) / 2 + lower */\n      add\n        /* \"input/Fixed192x64Math.sol\":6265:6305  ((upper - lower) / 2 + lower) * int(ONE) */\n      mul\n        /* \"input/Fixed192x64Math.sol\":6265:6319  ((upper - lower) / 2 + lower) * int(ONE) / int(LOG2_E) */\n      dup2\n      tag_87\n      jumpi\n      invalid\n    tag_87:\n      sdiv\n        /* \"input/Fixed192x64Math.sol\":6258:6319  return ((upper - lower) / 2 + lower) * int(ONE) / int(LOG2_E) */\n      swap3\n      pop\n      pop\n      pop\n        /* \"input/Fixed192x64Math.sol\":6126:6326  function ln(uint x)... */\n      swap2\n      swap1\n      pop\n      jump\t// out\n        /* \"input/Fixed192x64Math.sol\":8204:8692  function floorLog2(uint x)... */\n    tag_32:\n        /* \"input/Fixed192x64Math.sol\":8276:8282  int lo */\n      0x00\n        /* \"input/Fixed192x64Math.sol\":8303:8306  -64 */\n      0xffffffffffffffffffffffffffffffffffffffffffffffffffffffffffffffc0\n        /* \"input/Fixed192x64Math.sol\":8298:8306  lo = -64 */\n      swap1\n      pop\n        /* \"input/Fixed192x64Math.sol\":8316:8322  int hi */\n      0x00\n        /* \"input/Fixed192x64Math.sol\":8325:8328  193 */\n      0xc1\n        /* \"input/Fixed192x64Math.sol\":8316:8328  int hi = 193 */\n      swap1\n      pop\n        /* \"input/Fixed192x64Math.sol\":8431:8438  int mid */\n      0x00\n        /* \"input/Fixed192x64Math.sol\":8454:8455  1 */\n      0x01\n        /* \"input/Fixed192x64Math.sol\":8447:8449  lo */\n      dup4\n        /* \"input/Fixed192x64Math.sol\":8442:8444  hi */\n      dup4\n        /* \"input/Fixed192x64Math.sol\":8442:8449  hi + lo */\n      add\n        /* \"input/Fixed192x64Math.sol\":8441:8455  (hi + lo) >> 1 */\n      swap1\n      sar\n        /* \"input/Fixed192x64Math.sol\":8431:8455  int mid = (hi + lo) >> 1 */\n      swap1\n      pop\n        /* \"input/Fixed192x64Math.sol\":8465:8686  while((lo + 1) < hi) {... */\n    tag_89:\n        /* \"input/Fixed192x64Math.sol\":8482:8484  hi */\n      dup2\n        /* \"input/Fixed192x64Math.sol\":8477:8478  1 */\n      0x01\n        /* \"input/Fixed192x64Math.sol\":8472:8474  lo */\n      dup5\n        /* \"input/Fixed192x64Math.sol\":8472:8478  lo + 1 */\n      add\n        /* \"input/Fixed192x64Math.sol\":8471:8484  (lo + 1) < hi */\n      slt\n        /* \"input/Fixed192x64Math.sol\":8465:8686  while((lo + 1) < hi) {... */\n      iszero\n      tag_90\n      jumpi\n        /* \"input/Fixed192x64Math.sol\":8510:8511  0 */\n      0x00\n        /* \"input/Fixed192x64Math.sol\":8504:8507  mid */\n      dup2\n        /* \"input/Fixed192x64Math.sol\":8504:8511  mid < 0 */\n      slt\n        /* \"input/Fixed192x64Math.sol\":8504:8536  mid < 0 && x << uint(-mid) < ONE */\n      dup1\n      iszero\n      tag_91\n      jumpi\n      pop\n        /* \"input/Fixed192x64Math.sol\":487:506  0x10000000000000000 */\n      0x010000000000000000\n        /* \"input/Fixed192x64Math.sol\":8526:8529  mid */\n      dup2\n        /* \"input/Fixed192x64Math.sol\":8525:8529  -mid */\n      0x00\n      sub\n        /* \"input/Fixed192x64Math.sol\":8515:8516  x */\n      dup6\n        /* \"input/Fixed192x64Math.sol\":8515:8530  x << uint(-mid) */\n      swap1\n      shl\n        /* \"input/Fixed192x64Math.sol\":8515:8536  x << uint(-mid) < ONE */\n      lt\n        /* \"input/Fixed192x64Math.sol\":8504:8536  mid < 0 && x << uint(-mid) < ONE */\n    tag_91:\n        /* \"input/Fixed192x64Math.sol\":8504:8572  mid < 0 && x << uint(-mid) < ONE || mid >= 0 && x >> uint(mid) < ONE */\n      dup1\n      tag_92\n      jumpi\n      pop\n        /* \"input/Fixed192x64Math.sol\":8547:8548  0 */\n      0x00\n        /* \"input/Fixed192x64Math.sol\":8540:8543  mid */\n      dup2\n        /* \"input/Fixed192x64Math.sol\":8540:8548  mid >= 0 */\n      slt\n      iszero\n        /* \"input/Fixed192x64Math.sol\":8540:8572  mid >= 0 && x >> uint(mid) < ONE */\n      dup1\n      iszero\n      tag_93\n      jumpi\n      pop\n        /* \"input/Fixed192x64Math.sol\":487:506  0x10000000000000000 */\n      0x010000000000000000\n        /* \"input/Fixed192x64Math.sol\":8562:8565  mid */\n      dup2\n        /* \"input/Fixed192x64Math.sol\":8552:8553  x */\n      dup6\n        /* \"input/Fixed192x64Math.sol\":8552:8566  x >> uint(mid) */\n      swap1\n      shr\n        /* \"input/Fixed192x64Math.sol\":8552:8572  x >> uint(mid) < ONE */\n      lt\n        /* \"input/Fixed192x64Math.sol\":8540:8572  mid >= 0 && x >> uint(mid) < ONE */\n    tag_93:\n        /* \"input/Fixed192x64Math.sol\":8504:8572  mid < 0 && x << uint(-mid) < ONE || mid >= 0 && x >> uint(mid) < ONE */\n    tag_92:\n        /* \"input/Fixed192x64Math.sol\":8500:8641  if (mid < 0 && x << uint(-mid) < ONE || mid >= 0 && x >> uint(mid) < ONE)... */\n      iszero\n      tag_94\n      jumpi\n        /* \"input/Fixed192x64Math.sol\":8595:8598  mid */\n      dup1\n        /* \"input/Fixed192x64Math.sol\":8590:8598  hi = mid */\n      swap2\n      pop\n        /* \"input/Fixed192x64Math.sol\":8500:8641  if (mid < 0 && x << uint(-mid) < ONE || mid >= 0 && x >> uint(mid) < ONE)... */\n      jump(tag_95)\n    tag_94:\n        /* \"input/Fixed192x64Math.sol\":8638:8641  mid */\n      dup1\n        /* \"input/Fixed192x64Math.sol\":8633:8641  lo = mid */\n      swap3\n      pop\n        /* \"input/Fixed192x64Math.sol\":8500:8641  if (mid < 0 && x << uint(-mid) < ONE || mid >= 0 && x >> uint(mid) < ONE)... */\n    tag_95:\n        /* \"input/Fixed192x64Math.sol\":8674:8675  1 */\n      0x01\n        /* \"input/Fixed192x64Math.sol\":8667:8669  lo */\n      dup4\n        /* \"input/Fixed192x64Math.sol\":8662:8664  hi */\n      dup4\n        /* \"input/Fixed192x64Math.sol\":8662:8669  hi + lo */\n      add\n        /* \"input/Fixed192x64Math.sol\":8661:8675  (hi + lo) >> 1 */\n      swap1\n      sar\n        /* \"input/Fixed192x64Math.sol\":8655:8675  mid = (hi + lo) >> 1 */\n      swap1\n      pop\n        /* \"input/Fixed192x64Math.sol\":8465:8686  while((lo + 1) < hi) {... */\n      jump(tag_89)\n    tag_90:\n        /* \"input/Fixed192x64Math.sol\":8204:8692  function floorLog2(uint x)... */\n      pop\n      pop\n      swap2\n      swap1\n      pop\n      jump\t// out\n        /* \"input/Fixed192x64Math.sol\":2300:6023  function pow2Bounds(int x)... */\n    tag_35:\n        /* \"input/Fixed192x64Math.sol\":2372:2382  uint lower */\n      0x00\n        /* \"input/Fixed192x64Math.sol\":2384:2394  uint upper */\n      dup1\n        /* \"input/Fixed192x64Math.sol\":2545:2567  3541774862152233910271 */\n      0xbfffffffffffffffff\n        /* \"input/Fixed192x64Math.sol\":2540:2541  x */\n      dup4\n        /* \"input/Fixed192x64Math.sol\":2540:2567  x <= 3541774862152233910271 */\n      sgt\n      iszero\n        /* \"input/Fixed192x64Math.sol\":2532:2568  require(x <= 3541774862152233910271) */\n      tag_97\n      jumpi\n      0x00\n      dup1\n      revert\n    tag_97:\n        /* \"input/Fixed192x64Math.sol\":2699:2722  -1180591620717411303424 */\n      0xffffffffffffffffffffffffffffffffffffffffffffffc00000000000000000\n        /* \"input/Fixed192x64Math.sol\":2695:2696  x */\n      dup4\n        /* \"input/Fixed192x64Math.sol\":2695:2722  x < -1180591620717411303424 */\n      slt\n        /* \"input/Fixed192x64Math.sol\":2691:2749  if (x < -1180591620717411303424)... */\n      iszero\n      tag_98\n      jumpi\n        /* \"input/Fixed192x64Math.sol\":2744:2745  0 */\n      0x00\n        /* \"input/Fixed192x64Math.sol\":2747:2748  1 */\n      0x01\n        /* \"input/Fixed192x64Math.sol\":2736:2749  return (0, 1) */\n      dup2\n      swap2\n      pop\n      dup1\n      swap1\n      pop\n      swap2\n      pop\n      swap2\n      pop\n      jump(tag_96)\n        /* \"input/Fixed192x64Math.sol\":2691:2749  if (x < -1180591620717411303424)... */\n    tag_98:\n        /* \"input/Fixed192x64Math.sol\":2924:2933  int shift */\n      0x00\n        /* \"input/Fixed192x64Math.sol\":2943:2948  int z */\n      dup1\n        /* \"input/Fixed192x64Math.sol\":2967:2968  0 */\n      0x00\n        /* \"input/Fixed192x64Math.sol\":2962:2963  x */\n      dup6\n        /* \"input/Fixed192x64Math.sol\":2962:2968  x >= 0 */\n      slt\n        /* \"input/Fixed192x64Math.sol\":2958:3152  if (x >= 0) {... */\n      tag_99\n      jumpi\n        /* \"input/Fixed192x64Math.sol\":487:506  0x10000000000000000 */\n      0x010000000000000000\n        /* \"input/Fixed192x64Math.sol\":2992:2993  x */\n      dup6\n        /* \"input/Fixed192x64Math.sol\":2992:3004  x / int(ONE) */\n      dup2\n      tag_100\n      jumpi\n      invalid\n    tag_100:\n      sdiv\n        /* \"input/Fixed192x64Math.sol\":2984:3004  shift = x / int(ONE) */\n      swap2\n      pop\n        /* \"input/Fixed192x64Math.sol\":487:506  0x10000000000000000 */\n      0x010000000000000000\n        /* \"input/Fixed192x64Math.sol\":3022:3023  x */\n      dup6\n        /* \"input/Fixed192x64Math.sol\":3022:3034  x % int(ONE) */\n      dup2\n      tag_101\n      jumpi\n      invalid\n    tag_101:\n      smod\n        /* \"input/Fixed192x64Math.sol\":3018:3034  z = x % int(ONE) */\n      swap1\n      pop\n        /* \"input/Fixed192x64Math.sol\":2958:3152  if (x >= 0) {... */\n      jump(tag_102)\n    tag_99:\n        /* \"input/Fixed192x64Math.sol\":3100:3101  1 */\n      0x01\n        /* \"input/Fixed192x64Math.sol\":487:506  0x10000000000000000 */\n      0x010000000000000000\n        /* \"input/Fixed192x64Math.sol\":3084:3085  1 */\n      0x01\n        /* \"input/Fixed192x64Math.sol\":3082:3083  x */\n      dup8\n        /* \"input/Fixed192x64Math.sol\":3082:3085  x+1 */\n      add\n        /* \"input/Fixed192x64Math.sol\":3081:3097  (x+1) / int(ONE) */\n      dup2\n      tag_103\n      jumpi\n      invalid\n    tag_103:\n      sdiv\n        /* \"input/Fixed192x64Math.sol\":3081:3101  (x+1) / int(ONE) - 1 */\n      sub\n        /* \"input/Fixed192x64Math.sol\":3073:3101  shift = (x+1) / int(ONE) - 1 */\n      swap2\n      pop\n        /* \"input/Fixed192x64Math.sol\":3135:3140  shift */\n      dup2\n        /* \"input/Fixed192x64Math.sol\":487:506  0x10000000000000000 */\n      0x010000000000000000\n        /* \"input/Fixed192x64Math.sol\":3124:3140  int(ONE) * shift */\n      mul\n        /* \"input/Fixed192x64Math.sol\":3119:3120  x */\n      dup6\n        /* \"input/Fixed192x64Math.sol\":3119:3141  x - (int(ONE) * shift) */\n      sub\n        /* \"input/Fixed192x64Math.sol\":3115:3141  z = x - (int(ONE) * shift) */\n      swap1\n      pop\n        /* \"input/Fixed192x64Math.sol\":2958:3152  if (x >= 0) {... */\n    tag_102:\n        /* \"input/Fixed192x64Math.sol\":3173:3174  0 */\n      0x00\n        /* \"input/Fixed192x64Math.sol\":3168:3169  z */\n      dup2\n        /* \"input/Fixed192x64Math.sol\":3168:3174  z >= 0 */\n      slt\n      iszero\n        /* \"input/Fixed192x64Math.sol\":3161:3175  assert(z >= 0) */\n      tag_104\n      jumpi\n      invalid\n    tag_104:\n        /* \"input/Fixed192x64Math.sol\":3643:3653  int result */\n      0x00\n        /* \"input/Fixed192x64Math.sol\":3668:3670  64 */\n      0x40\n        /* \"input/Fixed192x64Math.sol\":487:506  0x10000000000000000 */\n      0x010000000000000000\n        /* \"input/Fixed192x64Math.sol\":3656:3670  int(ONE) << 64 */\n      swap1\n      shl\n        /* \"input/Fixed192x64Math.sol\":3643:3670  int result = int(ONE) << 64 */\n      swap1\n      pop\n        /* \"input/Fixed192x64Math.sol\":3680:3688  int zpow */\n      0x00\n        /* \"input/Fixed192x64Math.sol\":3691:3692  z */\n      dup3\n        /* \"input/Fixed192x64Math.sol\":3680:3692  int zpow = z */\n      swap1\n      pop\n        /* \"input/Fixed192x64Math.sol\":3733:3737  zpow */\n      dup1\n        /* \"input/Fixed192x64Math.sol\":3712:3730  0xb17217f7d1cf79ab */\n      0xb17217f7d1cf79ab\n        /* \"input/Fixed192x64Math.sol\":3712:3737  0xb17217f7d1cf79ab * zpow */\n      mul\n        /* \"input/Fixed192x64Math.sol\":3702:3737  result += 0xb17217f7d1cf79ab * zpow */\n      dup3\n      add\n      swap2\n      pop\n        /* \"input/Fixed192x64Math.sol\":487:506  0x10000000000000000 */\n      0x010000000000000000\n        /* \"input/Fixed192x64Math.sol\":3761:3762  z */\n      dup4\n        /* \"input/Fixed192x64Math.sol\":3754:3758  zpow */\n      dup3\n        /* \"input/Fixed192x64Math.sol\":3754:3762  zpow * z */\n      mul\n        /* \"input/Fixed192x64Math.sol\":3754:3773  zpow * z / int(ONE) */\n      dup2\n      tag_105\n      jumpi\n      invalid\n    tag_105:\n      sdiv\n        /* \"input/Fixed192x64Math.sol\":3747:3773  zpow = zpow * z / int(ONE) */\n      swap1\n      pop\n        /* \"input/Fixed192x64Math.sol\":3823:3830  66 - 64 */\n      0x02\n        /* \"input/Fixed192x64Math.sol\":3814:3818  zpow */\n      dup2\n        /* \"input/Fixed192x64Math.sol\":3793:3811  0xf5fdeffc162c7543 */\n      0xf5fdeffc162c7543\n        /* \"input/Fixed192x64Math.sol\":3793:3818  0xf5fdeffc162c7543 * zpow */\n      mul\n        /* \"input/Fixed192x64Math.sol\":3793:3831  0xf5fdeffc162c7543 * zpow >> (66 - 64) */\n      swap1\n      sar\n        /* \"input/Fixed192x64Math.sol\":3783:3831  result += 0xf5fdeffc162c7543 * zpow >> (66 - 64) */\n      dup3\n      add\n      swap2\n      pop\n        /* \"input/Fixed192x64Math.sol\":487:506  0x10000000000000000 */\n      0x010000000000000000\n        /* \"input/Fixed192x64Math.sol\":3855:3856  z */\n      dup4\n        /* \"input/Fixed192x64Math.sol\":3848:3852  zpow */\n      dup3\n        /* \"input/Fixed192x64Math.sol\":3848:3856  zpow * z */\n      mul\n        /* \"input/Fixed192x64Math.sol\":3848:3867  zpow * z / int(ONE) */\n      dup2\n      tag_106\n      jumpi\n      invalid\n    tag_106:\n      sdiv\n        /* \"input/Fixed192x64Math.sol\":3841:3867  zpow = zpow * z / int(ONE) */\n      swap1\n      pop\n        /* \"input/Fixed192x64Math.sol\":3917:3924  68 - 64 */\n      0x04\n        /* \"input/Fixed192x64Math.sol\":3908:3912  zpow */\n      dup2\n        /* \"input/Fixed192x64Math.sol\":3887:3905  0xe35846b82505fc59 */\n      0xe35846b82505fc59\n        /* \"input/Fixed192x64Math.sol\":3887:3912  0xe35846b82505fc59 * zpow */\n      mul\n        /* \"input/Fixed192x64Math.sol\":3887:3925  0xe35846b82505fc59 * zpow >> (68 - 64) */\n      swap1\n      sar\n        /* \"input/Fixed192x64Math.sol\":3877:3925  result += 0xe35846b82505fc59 * zpow >> (68 - 64) */\n      dup3\n      add\n      swap2\n      pop\n        /* \"input/Fixed192x64Math.sol\":487:506  0x10000000000000000 */\n      0x010000000000000000\n        /* \"input/Fixed192x64Math.sol\":3949:3950  z */\n      dup4\n        /* \"input/Fixed192x64Math.sol\":3942:3946  zpow */\n      dup3\n        /* \"input/Fixed192x64Math.sol\":3942:3950  zpow * z */\n      mul\n        /* \"input/Fixed192x64Math.sol\":3942:3961  zpow * z / int(ONE) */\n      dup2\n      tag_107\n      jumpi\n      invalid\n    tag_107:\n      sdiv\n        /* \"input/Fixed192x64Math.sol\":3935:3961  zpow = zpow * z / int(ONE) */\n      swap1\n      pop\n        /* \"input/Fixed192x64Math.sol\":4011:4018  70 - 64 */\n      0x06\n        /* \"input/Fixed192x64Math.sol\":4002:4006  zpow */\n      dup2\n        /* \"input/Fixed192x64Math.sol\":3981:3999  0x9d955b7dd273b94e */\n      0x9d955b7dd273b94e\n        /* \"input/Fixed192x64Math.sol\":3981:4006  0x9d955b7dd273b94e * zpow */\n      mul\n        /* \"input/Fixed192x64Math.sol\":3981:4019  0x9d955b7dd273b94e * zpow >> (70 - 64) */\n      swap1\n      sar\n        /* \"input/Fixed192x64Math.sol\":3971:4019  result += 0x9d955b7dd273b94e * zpow >> (70 - 64) */\n      dup3\n      add\n      swap2\n      pop\n        /* \"input/Fixed192x64Math.sol\":487:506  0x10000000000000000 */\n      0x010000000000000000\n        /* \"input/Fixed192x64Math.sol\":4043:4044  z */\n      dup4\n        /* \"input/Fixed192x64Math.sol\":4036:4040  zpow */\n      dup3\n        /* \"input/Fixed192x64Math.sol\":4036:4044  zpow * z */\n      mul\n        /* \"input/Fixed192x64Math.sol\":4036:4055  zpow * z / int(ONE) */\n      dup2\n      tag_108\n      jumpi\n      invalid\n    tag_108:\n      sdiv\n        /* \"input/Fixed192x64Math.sol\":4029:4055  zpow = zpow * z / int(ONE) */\n      swap1\n      pop\n        /* \"input/Fixed192x64Math.sol\":4105:4112  73 - 64 */\n      0x09\n        /* \"input/Fixed192x64Math.sol\":4096:4100  zpow */\n      dup2\n        /* \"input/Fixed192x64Math.sol\":4075:4093  0xaec3ff3c53398883 */\n      0xaec3ff3c53398883\n        /* \"input/Fixed192x64Math.sol\":4075:4100  0xaec3ff3c53398883 * zpow */\n      mul\n        /* \"input/Fixed192x64Math.sol\":4075:4113  0xaec3ff3c53398883 * zpow >> (73 - 64) */\n      swap1\n      sar\n        /* \"input/Fixed192x64Math.sol\":4065:4113  result += 0xaec3ff3c53398883 * zpow >> (73 - 64) */\n      dup3\n      add\n      swap2\n      pop\n        /* \"input/Fixed192x64Math.sol\":487:506  0x10000000000000000 */\n      0x010000000000000000\n        /* \"input/Fixed192x64Math.sol\":4137:4138  z */\n      dup4\n        /* \"input/Fixed192x64Math.sol\":4130:4134  zpow */\n      dup3\n        /* \"input/Fixed192x64Math.sol\":4130:4138  zpow * z */\n      mul\n        /* \"input/Fixed192x64Math.sol\":4130:4149  zpow * z / int(ONE) */\n      dup2\n      tag_109\n      jumpi\n      invalid\n    tag_109:\n      sdiv\n        /* \"input/Fixed192x64Math.sol\":4123:4149  zpow = zpow * z / int(ONE) */\n      swap1\n      pop\n        /* \"input/Fixed192x64Math.sol\":4199:4206  76 - 64 */\n      0x0c\n        /* \"input/Fixed192x64Math.sol\":4190:4194  zpow */\n      dup2\n        /* \"input/Fixed192x64Math.sol\":4169:4187  0xa184897c363c3b7a */\n      0xa184897c363c3b7a\n        /* \"input/Fixed192x64Math.sol\":4169:4194  0xa184897c363c3b7a * zpow */\n      mul\n        /* \"input/Fixed192x64Math.sol\":4169:4207  0xa184897c363c3b7a * zpow >> (76 - 64) */\n      swap1\n      sar\n        /* \"input/Fixed192x64Math.sol\":4159:4207  result += 0xa184897c363c3b7a * zpow >> (76 - 64) */\n      dup3\n      add\n      swap2\n      pop\n        /* \"input/Fixed192x64Math.sol\":487:506  0x10000000000000000 */\n      0x010000000000000000\n        /* \"input/Fixed192x64Math.sol\":4231:4232  z */\n      dup4\n        /* \"input/Fixed192x64Math.sol\":4224:4228  zpow */\n      dup3\n        /* \"input/Fixed192x64Math.sol\":4224:4232  zpow * z */\n      mul\n        /* \"input/Fixed192x64Math.sol\":4224:4243  zpow * z / int(ONE) */\n      dup2\n      tag_110\n      jumpi\n      invalid\n    tag_110:\n      sdiv\n        /* \"input/Fixed192x64Math.sol\":4217:4243  zpow = zpow * z / int(ONE) */\n      swap1\n      pop\n        /* \"input/Fixed192x64Math.sol\":4293:4300  80 - 64 */\n      0x10\n        /* \"input/Fixed192x64Math.sol\":4284:4288  zpow */\n      dup2\n        /* \"input/Fixed192x64Math.sol\":4263:4281  0xffe5fe2c45863435 */\n      0xffe5fe2c45863435\n        /* \"input/Fixed192x64Math.sol\":4263:4288  0xffe5fe2c45863435 * zpow */\n      mul\n        /* \"input/Fixed192x64Math.sol\":4263:4301  0xffe5fe2c45863435 * zpow >> (80 - 64) */\n      swap1\n      sar\n        /* \"input/Fixed192x64Math.sol\":4253:4301  result += 0xffe5fe2c45863435 * zpow >> (80 - 64) */\n      dup3\n      add\n      swap2\n      pop\n        /* \"input/Fixed192x64Math.sol\":487:506  0x10000000000000000 */\n      0x010000000000000000\n        /* \"input/Fixed192x64Math.sol\":4325:4326  z */\n      dup4\n        /* \"input/Fixed192x64Math.sol\":4318:4322  zpow */\n      dup3\n        /* \"input/Fixed192x64Math.sol\":4318:4326  zpow * z */\n      mul\n        /* \"input/Fixed192x64Math.sol\":4318:4337  zpow * z / int(ONE) */\n      dup2\n      tag_111\n      jumpi\n      invalid\n    tag_111:\n      sdiv\n        /* \"input/Fixed192x64Math.sol\":4311:4337  zpow = zpow * z / int(ONE) */\n      swap1\n      pop\n        /* \"input/Fixed192x64Math.sol\":4387:4394  83 - 64 */\n      0x13\n        /* \"input/Fixed192x64Math.sol\":4378:4382  zpow */\n      dup2\n        /* \"input/Fixed192x64Math.sol\":4357:4375  0xb160111d2e411fec */\n      0xb160111d2e411fec\n        /* \"input/Fixed192x64Math.sol\":4357:4382  0xb160111d2e411fec * zpow */\n      mul\n        /* \"input/Fixed192x64Math.sol\":4357:4395  0xb160111d2e411fec * zpow >> (83 - 64) */\n      swap1\n      sar\n        /* \"input/Fixed192x64Math.sol\":4347:4395  result += 0xb160111d2e411fec * zpow >> (83 - 64) */\n      dup3\n      add\n      swap2\n      pop\n        /* \"input/Fixed192x64Math.sol\":487:506  0x10000000000000000 */\n      0x010000000000000000\n        /* \"input/Fixed192x64Math.sol\":4419:4420  z */\n      dup4\n        /* \"input/Fixed192x64Math.sol\":4412:4416  zpow */\n      dup3\n        /* \"input/Fixed192x64Math.sol\":4412:4420  zpow * z */\n      mul\n        /* \"input/Fixed192x64Math.sol\":4412:4431  zpow * z / int(ONE) */\n      dup2\n      tag_112\n      jumpi\n      invalid\n    tag_112:\n      sdiv\n        /* \"input/Fixed192x64Math.sol\":4405:4431  zpow = zpow * z / int(ONE) */\n      swap1\n      pop\n        /* \"input/Fixed192x64Math.sol\":4481:4488  87 - 64 */\n      0x17\n        /* \"input/Fixed192x64Math.sol\":4472:4476  zpow */\n      dup2\n        /* \"input/Fixed192x64Math.sol\":4451:4469  0xda929e9caf3e1ed2 */\n      0xda929e9caf3e1ed2\n        /* \"input/Fixed192x64Math.sol\":4451:4476  0xda929e9caf3e1ed2 * zpow */\n      mul\n        /* \"input/Fixed192x64Math.sol\":4451:4489  0xda929e9caf3e1ed2 * zpow >> (87 - 64) */\n      swap1\n      sar\n        /* \"input/Fixed192x64Math.sol\":4441:4489  result += 0xda929e9caf3e1ed2 * zpow >> (87 - 64) */\n      dup3\n      add\n      swap2\n      pop\n        /* \"input/Fixed192x64Math.sol\":487:506  0x10000000000000000 */\n      0x010000000000000000\n        /* \"input/Fixed192x64Math.sol\":4513:4514  z */\n      dup4\n        /* \"input/Fixed192x64Math.sol\":4506:4510  zpow */\n      dup3\n        /* \"input/Fixed192x64Math.sol\":4506:4514  zpow * z */\n      mul\n        /* \"input/Fixed192x64Math.sol\":4506:4525  zpow * z / int(ONE) */\n      dup2\n      tag_113\n      jumpi\n      invalid\n    tag_113:\n      sdiv\n        /* \"input/Fixed192x64Math.sol\":4499:4525  zpow = zpow * z / int(ONE) */\n      swap1\n      pop\n        /* \"input/Fixed192x64Math.sol\":4575:4582  91 - 64 */\n      0x1b\n        /* \"input/Fixed192x64Math.sol\":4566:4570  zpow */\n      dup2\n        /* \"input/Fixed192x64Math.sol\":4545:4563  0xf267a8ac5c764fb7 */\n      0xf267a8ac5c764fb7\n        /* \"input/Fixed192x64Math.sol\":4545:4570  0xf267a8ac5c764fb7 * zpow */\n      mul\n        /* \"input/Fixed192x64Math.sol\":4545:4583  0xf267a8ac5c764fb7 * zpow >> (91 - 64) */\n      swap1\n      sar\n        /* \"input/Fixed192x64Math.sol\":4535:4583  result += 0xf267a8ac5c764fb7 * zpow >> (91 - 64) */\n      dup3\n      add\n      swap2\n      pop\n        /* \"input/Fixed192x64Math.sol\":487:506  0x10000000000000000 */\n      0x010000000000000000\n        /* \"input/Fixed192x64Math.sol\":4607:4608  z */\n      dup4\n        /* \"input/Fixed192x64Math.sol\":4600:4604  zpow */\n      dup3\n        /* \"input/Fixed192x64Math.sol\":4600:4608  zpow * z */\n      mul\n        /* \"input/Fixed192x64Math.sol\":4600:4619  zpow * z / int(ONE) */\n      dup2\n      tag_114\n      jumpi\n      invalid\n    tag_114:\n      sdiv\n        /* \"input/Fixed192x64Math.sol\":4593:4619  zpow = zpow * z / int(ONE) */\n      swap1\n      pop\n        /* \"input/Fixed192x64Math.sol\":4669:4676  95 - 64 */\n      0x1f\n        /* \"input/Fixed192x64Math.sol\":4660:4664  zpow */\n      dup2\n        /* \"input/Fixed192x64Math.sol\":4639:4657  0xf465639a8dd92607 */\n      0xf465639a8dd92607\n        /* \"input/Fixed192x64Math.sol\":4639:4664  0xf465639a8dd92607 * zpow */\n      mul\n        /* \"input/Fixed192x64Math.sol\":4639:4677  0xf465639a8dd92607 * zpow >> (95 - 64) */\n      swap1\n      sar\n        /* \"input/Fixed192x64Math.sol\":4629:4677  result += 0xf465639a8dd92607 * zpow >> (95 - 64) */\n      dup3\n      add\n      swap2\n      pop\n        /* \"input/Fixed192x64Math.sol\":487:506  0x10000000000000000 */\n      0x010000000000000000\n        /* \"input/Fixed192x64Math.sol\":4701:4702  z */\n      dup4\n        /* \"input/Fixed192x64Math.sol\":4694:4698  zpow */\n      dup3\n        /* \"input/Fixed192x64Math.sol\":4694:4702  zpow * z */\n      mul\n        /* \"input/Fixed192x64Math.sol\":4694:4713  zpow * z / int(ONE) */\n      dup2\n      tag_115\n      jumpi\n      invalid\n    tag_115:\n      sdiv\n        /* \"input/Fixed192x64Math.sol\":4687:4713  zpow = zpow * z / int(ONE) */\n      swap1\n      pop\n        /* \"input/Fixed192x64Math.sol\":4763:4770  99 - 64 */\n      0x23\n        /* \"input/Fixed192x64Math.sol\":4754:4758  zpow */\n      dup2\n        /* \"input/Fixed192x64Math.sol\":4733:4751  0xe1deb287e14c2f15 */\n      0xe1deb287e14c2f15\n        /* \"input/Fixed192x64Math.sol\":4733:4758  0xe1deb287e14c2f15 * zpow */\n      mul\n        /* \"input/Fixed192x64Math.sol\":4733:4771  0xe1deb287e14c2f15 * zpow >> (99 - 64) */\n      swap1\n      sar\n        /* \"input/Fixed192x64Math.sol\":4723:4771  result += 0xe1deb287e14c2f15 * zpow >> (99 - 64) */\n      dup3\n      add\n      swap2\n      pop\n        /* \"input/Fixed192x64Math.sol\":487:506  0x10000000000000000 */\n      0x010000000000000000\n        /* \"input/Fixed192x64Math.sol\":4795:4796  z */\n      dup4\n        /* \"input/Fixed192x64Math.sol\":4788:4792  zpow */\n      dup3\n        /* \"input/Fixed192x64Math.sol\":4788:4796  zpow * z */\n      mul\n        /* \"input/Fixed192x64Math.sol\":4788:4807  zpow * z / int(ONE) */\n      dup2\n      tag_116\n      jumpi\n      invalid\n    tag_116:\n      sdiv\n        /* \"input/Fixed192x64Math.sol\":4781:4807  zpow = zpow * z / int(ONE) */\n      swap1\n      pop\n        /* \"input/Fixed192x64Math.sol\":4857:4865  103 - 64 */\n      0x27\n        /* \"input/Fixed192x64Math.sol\":4848:4852  zpow */\n      dup2\n        /* \"input/Fixed192x64Math.sol\":4827:4845  0xc0b0c98b3687cb14 */\n      0xc0b0c98b3687cb14\n        /* \"input/Fixed192x64Math.sol\":4827:4852  0xc0b0c98b3687cb14 * zpow */\n      mul\n        /* \"input/Fixed192x64Math.sol\":4827:4866  0xc0b0c98b3687cb14 * zpow >> (103 - 64) */\n      swap1\n      sar\n        /* \"input/Fixed192x64Math.sol\":4817:4866  result += 0xc0b0c98b3687cb14 * zpow >> (103 - 64) */\n      dup3\n      add\n      swap2\n      pop\n        /* \"input/Fixed192x64Math.sol\":487:506  0x10000000000000000 */\n      0x010000000000000000\n        /* \"input/Fixed192x64Math.sol\":4890:4891  z */\n      dup4\n        /* \"input/Fixed192x64Math.sol\":4883:4887  zpow */\n      dup3\n        /* \"input/Fixed192x64Math.sol\":4883:4891  zpow * z */\n      mul\n        /* \"input/Fixed192x64Math.sol\":4883:4902  zpow * z / int(ONE) */\n      dup2\n      tag_117\n      jumpi\n      invalid\n    tag_117:\n      sdiv\n        /* \"input/Fixed192x64Math.sol\":4876:4902  zpow = zpow * z / int(ONE) */\n      swap1\n      pop\n        /* \"input/Fixed192x64Math.sol\":4952:4960  107 - 64 */\n      0x2b\n        /* \"input/Fixed192x64Math.sol\":4943:4947  zpow */\n      dup2\n        /* \"input/Fixed192x64Math.sol\":4922:4940  0x98a4b26ac3c54b9f */\n      0x98a4b26ac3c54b9f\n        /* \"input/Fixed192x64Math.sol\":4922:4947  0x98a4b26ac3c54b9f * zpow */\n      mul\n        /* \"input/Fixed192x64Math.sol\":4922:4961  0x98a4b26ac3c54b9f * zpow >> (107 - 64) */\n      swap1\n      sar\n        /* \"input/Fixed192x64Math.sol\":4912:4961  result += 0x98a4b26ac3c54b9f * zpow >> (107 - 64) */\n      dup3\n      add\n      swap2\n      pop\n        /* \"input/Fixed192x64Math.sol\":487:506  0x10000000000000000 */\n      0x010000000000000000\n        /* \"input/Fixed192x64Math.sol\":4985:4986  z */\n      dup4\n        /* \"input/Fixed192x64Math.sol\":4978:4982  zpow */\n      dup3\n        /* \"input/Fixed192x64Math.sol\":4978:4986  zpow * z */\n      mul\n        /* \"input/Fixed192x64Math.sol\":4978:4997  zpow * z / int(ONE) */\n      dup2\n      tag_118\n      jumpi\n      invalid\n    tag_118:\n      sdiv\n        /* \"input/Fixed192x64Math.sol\":4971:4997  zpow = zpow * z / int(ONE) */\n      swap1\n      pop\n        /* \"input/Fixed192x64Math.sol\":5047:5055  112 - 64 */\n      0x30\n        /* \"input/Fixed192x64Math.sol\":5038:5042  zpow */\n      dup2\n        /* \"input/Fixed192x64Math.sol\":5017:5035  0xe1b7421d82010f33 */\n      0xe1b7421d82010f33\n        /* \"input/Fixed192x64Math.sol\":5017:5042  0xe1b7421d82010f33 * zpow */\n      mul\n        /* \"input/Fixed192x64Math.sol\":5017:5056  0xe1b7421d82010f33 * zpow >> (112 - 64) */\n      swap1\n      sar\n        /* \"input/Fixed192x64Math.sol\":5007:5056  result += 0xe1b7421d82010f33 * zpow >> (112 - 64) */\n      dup3\n      add\n      swap2\n      pop\n        /* \"input/Fixed192x64Math.sol\":487:506  0x10000000000000000 */\n      0x010000000000000000\n        /* \"input/Fixed192x64Math.sol\":5080:5081  z */\n      dup4\n        /* \"input/Fixed192x64Math.sol\":5073:5077  zpow */\n      dup3\n        /* \"input/Fixed192x64Math.sol\":5073:5081  zpow * z */\n      mul\n        /* \"input/Fixed192x64Math.sol\":5073:5092  zpow * z / int(ONE) */\n      dup2\n      tag_119\n      jumpi\n      invalid\n    tag_119:\n      sdiv\n        /* \"input/Fixed192x64Math.sol\":5066:5092  zpow = zpow * z / int(ONE) */\n      swap1\n      pop\n        /* \"input/Fixed192x64Math.sol\":5142:5150  116 - 64 */\n      0x34\n        /* \"input/Fixed192x64Math.sol\":5133:5137  zpow */\n      dup2\n        /* \"input/Fixed192x64Math.sol\":5112:5130  0x9c744d73cfc59c91 */\n      0x9c744d73cfc59c91\n        /* \"input/Fixed192x64Math.sol\":5112:5137  0x9c744d73cfc59c91 * zpow */\n      mul\n        /* \"input/Fixed192x64Math.sol\":5112:5151  0x9c744d73cfc59c91 * zpow >> (116 - 64) */\n      swap1\n      sar\n        /* \"input/Fixed192x64Math.sol\":5102:5151  result += 0x9c744d73cfc59c91 * zpow >> (116 - 64) */\n      dup3\n      add\n      swap2\n      pop\n        /* \"input/Fixed192x64Math.sol\":487:506  0x10000000000000000 */\n      0x010000000000000000\n        /* \"input/Fixed192x64Math.sol\":5175:5176  z */\n      dup4\n        /* \"input/Fixed192x64Math.sol\":5168:5172  zpow */\n      dup3\n        /* \"input/Fixed192x64Math.sol\":5168:5176  zpow * z */\n      mul\n        /* \"input/Fixed192x64Math.sol\":5168:5187  zpow * z / int(ONE) */\n      dup2\n      tag_120\n      jumpi\n      invalid\n    tag_120:\n      sdiv\n        /* \"input/Fixed192x64Math.sol\":5161:5187  zpow = zpow * z / int(ONE) */\n      swap1\n      pop\n        /* \"input/Fixed192x64Math.sol\":5237:5245  121 - 64 */\n      0x39\n        /* \"input/Fixed192x64Math.sol\":5228:5232  zpow */\n      dup2\n        /* \"input/Fixed192x64Math.sol\":5207:5225  0xcc2225a0e12d3eab */\n      0xcc2225a0e12d3eab\n        /* \"input/Fixed192x64Math.sol\":5207:5232  0xcc2225a0e12d3eab * zpow */\n      mul\n        /* \"input/Fixed192x64Math.sol\":5207:5246  0xcc2225a0e12d3eab * zpow >> (121 - 64) */\n      swap1\n      sar\n        /* \"input/Fixed192x64Math.sol\":5197:5246  result += 0xcc2225a0e12d3eab * zpow >> (121 - 64) */\n      dup3\n      add\n      swap2\n      pop\n        /* \"input/Fixed192x64Math.sol\":487:506  0x10000000000000000 */\n      0x010000000000000000\n        /* \"input/Fixed192x64Math.sol\":5270:5271  z */\n      dup4\n        /* \"input/Fixed192x64Math.sol\":5263:5267  zpow */\n      dup3\n        /* \"input/Fixed192x64Math.sol\":5263:5271  zpow * z */\n      mul\n        /* \"input/Fixed192x64Math.sol\":5263:5282  zpow * z / int(ONE) */\n      dup2\n      tag_121\n      jumpi\n      invalid\n    tag_121:\n      sdiv\n        /* \"input/Fixed192x64Math.sol\":5256:5282  zpow = zpow * z / int(ONE) */\n      swap1\n      pop\n        /* \"input/Fixed192x64Math.sol\":5329:5337  126 - 64 */\n      0x3e\n        /* \"input/Fixed192x64Math.sol\":5320:5324  zpow */\n      dup2\n        /* \"input/Fixed192x64Math.sol\":5299:5317  0xfb8bb5eda1b4aeb9 */\n      0xfb8bb5eda1b4aeb9\n        /* \"input/Fixed192x64Math.sol\":5299:5324  0xfb8bb5eda1b4aeb9 * zpow */\n      mul\n        /* \"input/Fixed192x64Math.sol\":5299:5338  0xfb8bb5eda1b4aeb9 * zpow >> (126 - 64) */\n      swap1\n      sar\n        /* \"input/Fixed192x64Math.sol\":5292:5338  zpow = 0xfb8bb5eda1b4aeb9 * zpow >> (126 - 64) */\n      swap1\n      pop\n        /* \"input/Fixed192x64Math.sol\":5358:5362  zpow */\n      dup1\n        /* \"input/Fixed192x64Math.sol\":5348:5362  result += zpow */\n      dup3\n      add\n      swap2\n      pop\n        /* \"input/Fixed192x64Math.sol\":487:506  0x10000000000000000 */\n      0x010000000000000000\n        /* \"input/Fixed192x64Math.sol\":5383:5384  8 */\n      0x08\n        /* \"input/Fixed192x64Math.sol\":5383:5390  8 * ONE */\n      mul\n        /* \"input/Fixed192x64Math.sol\":5372:5391  zpow = int(8 * ONE) */\n      swap1\n      pop\n        /* \"input/Fixed192x64Math.sol\":5411:5413  64 */\n      0x40\n        /* \"input/Fixed192x64Math.sol\":5402:5413  shift -= 64 */\n      dup5\n      sub\n      swap4\n      pop\n        /* \"input/Fixed192x64Math.sol\":5436:5437  0 */\n      0x00\n        /* \"input/Fixed192x64Math.sol\":5427:5432  shift */\n      dup5\n        /* \"input/Fixed192x64Math.sol\":5427:5437  shift >= 0 */\n      slt\n        /* \"input/Fixed192x64Math.sol\":5423:5869  if (shift >= 0) {... */\n      tag_122\n      jumpi\n        /* \"input/Fixed192x64Math.sol\":5482:5483  0 */\n      0x00\n        /* \"input/Fixed192x64Math.sol\":5472:5477  shift */\n      dup5\n        /* \"input/Fixed192x64Math.sol\":5468:5471  256 */\n      0x0100\n        /* \"input/Fixed192x64Math.sol\":5468:5477  256-shift */\n      sub\n        /* \"input/Fixed192x64Math.sol\":5457:5463  result */\n      dup4\n        /* \"input/Fixed192x64Math.sol\":5457:5478  result >> (256-shift) */\n      0x00\n      dup3\n      slt\n      iszero\n      tag_123\n      jumpi\n      invalid\n    tag_123:\n      swap1\n      sar\n        /* \"input/Fixed192x64Math.sol\":5457:5483  result >> (256-shift) == 0 */\n      eq\n        /* \"input/Fixed192x64Math.sol\":5453:5858  if (result >> (256-shift) == 0) {... */\n      iszero\n      tag_124\n      jumpi\n        /* \"input/Fixed192x64Math.sol\":5527:5532  shift */\n      dup4\n        /* \"input/Fixed192x64Math.sol\":5516:5522  result */\n      dup3\n        /* \"input/Fixed192x64Math.sol\":5511:5532  uint(result) << shift */\n      0x00\n      dup3\n      slt\n      iszero\n      tag_125\n      jumpi\n      invalid\n    tag_125:\n      swap1\n      shl\n        /* \"input/Fixed192x64Math.sol\":5503:5532  lower = uint(result) << shift */\n      swap6\n      pop\n        /* \"input/Fixed192x64Math.sol\":5559:5564  shift */\n      dup4\n        /* \"input/Fixed192x64Math.sol\":5550:5564  zpow <<= shift */\n      dup2\n      0x00\n      dup3\n      slt\n      iszero\n      tag_126\n      jumpi\n      invalid\n    tag_126:\n      swap1\n      shl\n      swap1\n      pop\n        /* \"input/Fixed192x64Math.sol\":5631:5636  lower */\n      dup6\n        /* \"input/Fixed192x64Math.sol\":5622:5626  zpow */\n      dup2\n        /* \"input/Fixed192x64Math.sol\":5609:5614  lower */\n      dup8\n        /* \"input/Fixed192x64Math.sol\":5609:5627  lower + uint(zpow) */\n      add\n        /* \"input/Fixed192x64Math.sol\":5609:5636  lower + uint(zpow) >= lower */\n      lt\n        /* \"input/Fixed192x64Math.sol\":5605:5743  if (lower + uint(zpow) >= lower)... */\n      tag_127\n      jumpi\n        /* \"input/Fixed192x64Math.sol\":5679:5683  zpow */\n      dup1\n        /* \"input/Fixed192x64Math.sol\":5666:5671  lower */\n      dup7\n        /* \"input/Fixed192x64Math.sol\":5666:5684  lower + uint(zpow) */\n      add\n        /* \"input/Fixed192x64Math.sol\":5658:5684  upper = lower + uint(zpow) */\n      swap5\n      pop\n        /* \"input/Fixed192x64Math.sol\":5605:5743  if (lower + uint(zpow) >= lower)... */\n      jump(tag_128)\n    tag_127:\n        /* \"input/Fixed192x64Math.sol\":5735:5743  2**256-1 */\n      0xffffffffffffffffffffffffffffffffffffffffffffffffffffffffffffffff\n        /* \"input/Fixed192x64Math.sol\":5727:5743  upper = 2**256-1 */\n      swap5\n      pop\n        /* \"input/Fixed192x64Math.sol\":5605:5743  if (lower + uint(zpow) >= lower)... */\n    tag_128:\n        /* \"input/Fixed192x64Math.sol\":5769:5774  lower */\n      dup6\n        /* \"input/Fixed192x64Math.sol\":5776:5781  upper */\n      dup6\n        /* \"input/Fixed192x64Math.sol\":5761:5782  return (lower, upper) */\n      swap6\n      pop\n      swap6\n      pop\n      pop\n      pop\n      pop\n      pop\n      jump(tag_96)\n        /* \"input/Fixed192x64Math.sol\":5453:5858  if (result >> (256-shift) == 0) {... */\n    tag_124:\n        /* \"input/Fixed192x64Math.sol\":5839:5847  2**256-1 */\n      0xffffffffffffffffffffffffffffffffffffffffffffffffffffffffffffffff\n        /* \"input/Fixed192x64Math.sol\":5849:5857  2**256-1 */\n      dup1\n        /* \"input/Fixed192x64Math.sol\":5831:5858  return (2**256-1, 2**256-1) */\n      dup2\n      swap2\n      pop\n      dup1\n      swap1\n      pop\n      swap6\n      pop\n      swap6\n      pop\n      pop\n      pop\n      pop\n      pop\n      jump(tag_96)\n        /* \"input/Fixed192x64Math.sol\":5423:5869  if (shift >= 0) {... */\n    tag_122:\n        /* \"input/Fixed192x64Math.sol\":5906:5907  1 */\n      0x01\n        /* \"input/Fixed192x64Math.sol\":5896:5901  shift */\n      dup5\n        /* \"input/Fixed192x64Math.sol\":5895:5901  -shift */\n      0x00\n      sub\n        /* \"input/Fixed192x64Math.sol\":5886:5890  zpow */\n      dup3\n        /* \"input/Fixed192x64Math.sol\":5886:5902  zpow >> (-shift) */\n      0x00\n      dup3\n      slt\n      iszero\n      tag_130\n      jumpi\n      invalid\n    tag_130:\n      swap1\n      sar\n        /* \"input/Fixed192x64Math.sol\":5885:5907  (zpow >> (-shift)) + 1 */\n      add\n        /* \"input/Fixed192x64Math.sol\":5878:5907  zpow = (zpow >> (-shift)) + 1 */\n      swap1\n      pop\n        /* \"input/Fixed192x64Math.sol\":5943:5948  shift */\n      dup4\n        /* \"input/Fixed192x64Math.sol\":5942:5948  -shift */\n      0x00\n      sub\n        /* \"input/Fixed192x64Math.sol\":5930:5936  result */\n      dup3\n        /* \"input/Fixed192x64Math.sol\":5925:5949  uint(result) >> (-shift) */\n      0x00\n      dup3\n      slt\n      iszero\n      tag_131\n      jumpi\n      invalid\n    tag_131:\n      swap1\n      shr\n        /* \"input/Fixed192x64Math.sol\":5917:5949  lower = uint(result) >> (-shift) */\n      swap6\n      pop\n        /* \"input/Fixed192x64Math.sol\":5980:5984  zpow */\n      dup1\n        /* \"input/Fixed192x64Math.sol\":5967:5972  lower */\n      dup7\n        /* \"input/Fixed192x64Math.sol\":5967:5985  lower + uint(zpow) */\n      add\n        /* \"input/Fixed192x64Math.sol\":5959:5985  upper = lower + uint(zpow) */\n      swap5\n      pop\n        /* \"input/Fixed192x64Math.sol\":6003:6008  lower */\n      dup6\n        /* \"input/Fixed192x64Math.sol\":6010:6015  upper */\n      dup6\n        /* \"input/Fixed192x64Math.sol\":5995:6016  return (lower, upper) */\n      swap6\n      pop\n      swap6\n      pop\n      pop\n      pop\n      pop\n      pop\n        /* \"input/Fixed192x64Math.sol\":2300:6023  function pow2Bounds(int x)... */\n    tag_96:\n      swap2\n      pop\n      swap2\n      jump\t// out\n        /* \"input/Fixed192x64Math.sol\":459:506  uint public constant ONE =  0x10000000000000000 */\n    tag_37:\n        /* \"input/Fixed192x64Math.sol\":487:506  0x10000000000000000 */\n      0x010000000000000000\n        /* \"input/Fixed192x64Math.sol\":459:506  uint public constant ONE =  0x10000000000000000 */\n      dup2\n      jump\t// out\n        /* \"input/Fixed192x64Math.sol\":8814:9089  function max(int[] memory nums)... */\n    tag_43:\n        /* \"input/Fixed192x64Math.sol\":8891:8901  int maxNum */\n      0x00\n        /* \"input/Fixed192x64Math.sol\":8939:8940  0 */\n      dup1\n        /* \"input/Fixed192x64Math.sol\":8925:8929  nums */\n      dup3\n        /* \"input/Fixed192x64Math.sol\":8925:8936  nums.length */\n      mload\n        /* \"input/Fixed192x64Math.sol\":8925:8940  nums.length > 0 */\n      gt\n        /* \"input/Fixed192x64Math.sol\":8917:8941  require(nums.length > 0) */\n      tag_133\n      jumpi\n      0x00\n      dup1\n      revert\n    tag_133:\n        /* \"input/Fixed192x64Math.sol\":8960:8967  -2**255 */\n      0x8000000000000000000000000000000000000000000000000000000000000000\n        /* \"input/Fixed192x64Math.sol\":8951:8967  maxNum = -2**255 */\n      swap1\n      pop\n        /* \"input/Fixed192x64Math.sol\":8982:8988  uint i */\n      0x00\n        /* \"input/Fixed192x64Math.sol\":8991:8992  0 */\n      dup1\n        /* \"input/Fixed192x64Math.sol\":8982:8992  uint i = 0 */\n      swap1\n      pop\n        /* \"input/Fixed192x64Math.sol\":8977:9082  for (uint i = 0; i < nums.length; i++)... */\n    tag_134:\n        /* \"input/Fixed192x64Math.sol\":8998:9002  nums */\n      dup3\n        /* \"input/Fixed192x64Math.sol\":8998:9009  nums.length */\n      mload\n        /* \"input/Fixed192x64Math.sol\":8994:8995  i */\n      dup2\n        /* \"input/Fixed192x64Math.sol\":8994:9009  i < nums.length */\n      lt\n        /* \"input/Fixed192x64Math.sol\":8977:9082  for (uint i = 0; i < nums.length; i++)... */\n      iszero\n      tag_135\n      jumpi\n        /* \"input/Fixed192x64Math.sol\":9042:9048  maxNum */\n      dup2\n        /* \"input/Fixed192x64Math.sol\":9032:9036  nums */\n      dup4\n        /* \"input/Fixed192x64Math.sol\":9037:9038  i */\n      dup3\n        /* \"input/Fixed192x64Math.sol\":9032:9039  nums[i] */\n      dup2\n      mload\n      dup2\n      lt\n      tag_137\n      jumpi\n      invalid\n    tag_137:\n      0x20\n      mul\n      0x20\n      add\n      add\n      mload\n        /* \"input/Fixed192x64Math.sol\":9032:9048  nums[i] > maxNum */\n      sgt\n        /* \"input/Fixed192x64Math.sol\":9028:9082  if (nums[i] > maxNum)... */\n      iszero\n      tag_138\n      jumpi\n        /* \"input/Fixed192x64Math.sol\":9075:9079  nums */\n      dup3\n        /* \"input/Fixed192x64Math.sol\":9080:9081  i */\n      dup2\n        /* \"input/Fixed192x64Math.sol\":9075:9082  nums[i] */\n      dup2\n      mload\n      dup2\n      lt\n      tag_139\n      jumpi\n      invalid\n    tag_139:\n      0x20\n      mul\n      0x20\n      add\n      add\n      mload\n        /* \"input/Fixed192x64Math.sol\":9066:9082  maxNum = nums[i] */\n      swap2\n      pop\n        /* \"input/Fixed192x64Math.sol\":9028:9082  if (nums[i] > maxNum)... */\n    tag_138:\n        /* \"input/Fixed192x64Math.sol\":9011:9014  i++ */\n      dup1\n      dup1\n      0x01\n      add\n      swap2\n      pop\n      pop\n        /* \"input/Fixed192x64Math.sol\":8977:9082  for (uint i = 0; i < nums.length; i++)... */\n      jump(tag_134)\n    tag_135:\n      pop\n        /* \"input/Fixed192x64Math.sol\":8814:9089  function max(int[] memory nums)... */\n      swap2\n      swap1\n      pop\n      jump\t// out\n        /* \"input/Fixed192x64Math.sol\":766:1343  function exp(int x)... */\n    tag_46:\n        /* \"input/Fixed192x64Math.sol\":831:835  uint */\n      0x00\n        /* \"input/Fixed192x64Math.sol\":983:1005  2454971259878909886679 */\n      0x851591f9dd5b9b40d7\n        /* \"input/Fixed192x64Math.sol\":978:979  x */\n      dup3\n        /* \"input/Fixed192x64Math.sol\":978:1005  x <= 2454971259878909886679 */\n      sgt\n      iszero\n        /* \"input/Fixed192x64Math.sol\":970:1006  require(x <= 2454971259878909886679) */\n      tag_141\n      jumpi\n      0x00\n      dup1\n      revert\n    tag_141:\n        /* \"input/Fixed192x64Math.sol\":1135:1157  -818323753292969962227 */\n      0xffffffffffffffffffffffffffffffffffffffffffffffd3a37a020b8c21950d\n        /* \"input/Fixed192x64Math.sol\":1130:1131  x */\n      dup3\n        /* \"input/Fixed192x64Math.sol\":1130:1157  x <= -818323753292969962227 */\n      sgt\n        /* \"input/Fixed192x64Math.sol\":1126:1179  if (x <= -818323753292969962227)... */\n      tag_142\n      jumpi\n        /* \"input/Fixed192x64Math.sol\":1178:1179  0 */\n      0x00\n        /* \"input/Fixed192x64Math.sol\":1171:1179  return 0 */\n      swap1\n      pop\n      jump(tag_140)\n        /* \"input/Fixed192x64Math.sol\":1126:1179  if (x <= -818323753292969962227)... */\n    tag_142:\n        /* \"input/Fixed192x64Math.sol\":1231:1241  uint lower */\n      0x00\n        /* \"input/Fixed192x64Math.sol\":1243:1253  uint upper */\n      dup1\n        /* \"input/Fixed192x64Math.sol\":1257:1292  pow2Bounds(x * int(ONE) / int(LN2)) */\n      tag_143\n        /* \"input/Fixed192x64Math.sol\":539:557  0xb17217f7d1cf79ac */\n      0xb17217f7d1cf79ac\n        /* \"input/Fixed192x64Math.sol\":487:506  0x10000000000000000 */\n      0x010000000000000000\n        /* \"input/Fixed192x64Math.sol\":1268:1269  x */\n      dup7\n        /* \"input/Fixed192x64Math.sol\":1268:1280  x * int(ONE) */\n      mul\n        /* \"input/Fixed192x64Math.sol\":1268:1291  x * int(ONE) / int(LN2) */\n      dup2\n      tag_144\n      jumpi\n      invalid\n    tag_144:\n      sdiv\n        /* \"input/Fixed192x64Math.sol\":1257:1267  pow2Bounds */\n      tag_35\n        /* \"input/Fixed192x64Math.sol\":1257:1292  pow2Bounds(x * int(ONE) / int(LN2)) */\n      jump\t// in\n    tag_143:\n        /* \"input/Fixed192x64Math.sol\":1230:1292  (uint lower, uint upper) = pow2Bounds(x * int(ONE) / int(LN2)) */\n      swap2\n      pop\n      swap2\n      pop\n        /* \"input/Fixed192x64Math.sol\":1331:1336  lower */\n      dup2\n        /* \"input/Fixed192x64Math.sol\":1327:1328  2 */\n      0x02\n        /* \"input/Fixed192x64Math.sol\":1318:1323  lower */\n      dup4\n        /* \"input/Fixed192x64Math.sol\":1310:1315  upper */\n      dup4\n        /* \"input/Fixed192x64Math.sol\":1310:1323  upper - lower */\n      sub\n        /* \"input/Fixed192x64Math.sol\":1309:1328  (upper - lower) / 2 */\n      dup2\n      tag_145\n      jumpi\n      invalid\n    tag_145:\n      div\n        /* \"input/Fixed192x64Math.sol\":1309:1336  (upper - lower) / 2 + lower */\n      add\n        /* \"input/Fixed192x64Math.sol\":1302:1336  return (upper - lower) / 2 + lower */\n      swap3\n      pop\n      pop\n      pop\n        /* \"input/Fixed192x64Math.sol\":766:1343  function exp(int x)... */\n    tag_140:\n      swap2\n      swap1\n      pop\n      jump\t// out\n\n    auxdata: 0xa265627a7a72305820169bc9e3abd6e0bab573d3bb9deb31d9760871ef70461591ec2fb3392277490c64736f6c634300050a0032\n}\n",
				"bytecode": {
					"linkReferences": {},
					"object": "610d27610026600b82828239805160001a60731461001957fe5b30600052607381538281f3fe73000000000000000000000000000000000000000030146080604052600436106100b35760003560e01c806324d4e90a1161007b57806324d4e90a146101db57806345b8bafc1461021d578063c12662271461025f578063c2ee3a08146102a8578063ccc13814146102c6578063e46751e314610392576100b3565b806302780677146100b8578063137bf798146100d65780631427f168146101255780631d5801231461016e57806324902e24146101bd575b600080fd5b6100c06103d4565b6040518082815260200191505060405180910390f35b61010f600480360360408110156100ec57600080fd5b8101908080359060200190929190803560ff1690602001909291905050506103e0565b6040518082815260200191505060405180910390f35b6101516004803603602081101561013b57600080fd5b8101908080359060200190929190505050610485565b604051808381526020018281526020019250505060405180910390f35b6101a76004803603604081101561018457600080fd5b8101908080359060200190929190803560ff169060200190929190505050610563565b6040518082815260200191505060405180910390f35b6101c5610608565b6040518082815260200191505060405180910390f35b610207600480360360208110156101f157600080fd5b8101908080359060200190929190505050610615565b6040518082815260200191505060405180910390f35b6102496004803603602081101561023357600080fd5b810190808035906020019092919050505061065c565b6040518082815260200191505060405180910390f35b61028b6004803603602081101561027557600080fd5b8101908080359060200190929190505050610705565b604051808381526020018281526020019250505060405180910390f35b6102b0610bd2565b6040518082815260200191505060405180910390f35b61037c600480360360208110156102dc57600080fd5b81019080803590602001906401000000008111156102f957600080fd5b82018360208201111561030b57600080fd5b8035906020019184602083028401116401000000008311171561032d57600080fd5b919080806020026020016040519081016040528093929190818152602001838360200280828437600081840152601f19601f820116905080830192505050505050509192919290505050610bdf565b6040518082815260200191505060405180910390f35b6103be600480360360208110156103a857600080fd5b8101908080359060200190929190505050610c65565b6040518082815260200191505060405180910390f35b67b17217f7d1cf79ac81565b60008060006103ee85610485565b91509150600060028111156103ff57fe5b84600281111561040b57fe5b141561041b57819250505061047f565b6001600281111561042857fe5b84600281111561043457fe5b141561044457809250505061047f565b60028081111561045057fe5b84600281111561045c57fe5b141561047a578160028383038161046f57fe5b05019250505061047f565b600080fd5b92915050565b6000806000831161049557600080fd5b61049e8361065c565b91506000808312156104b8578260000384901b90506104bf565b8284901c90505b68010000000000000000830292506000600190505b6040811361055357680100000000000000008214156104f257610553565b680100000000000000008283028161050657fe5b049150680100000000000000006002028210610546578068010000000000000000600082121561053257fe5b901c840193506002828161054257fe5b0491505b80806001019150506104d4565b5082600484019250925050915091565b600080600061057185610705565b915091506000600281111561058257fe5b84600281111561058e57fe5b141561059e578192505050610602565b600160028111156105ab57fe5b8460028111156105b757fe5b14156105c7578092505050610602565b6002808111156105d357fe5b8460028111156105df57fe5b14156105fd57816002838303816105f257fe5b040192505050610602565b600080fd5b92915050565b680171547652b82fe17781565b600080600061062384610485565b91509150680171547652b82fe177680100000000000000008360028585038161064857fe5b0501028161065257fe5b0592505050919050565b60007fffffffffffffffffffffffffffffffffffffffffffffffffffffffffffffffc09050600060c1905060006001838301901d90505b816001840112156106fe576000811280156106bc5750680100000000000000008160000385901b105b806106df5750600081121580156106de5750680100000000000000008185901c105b5b156106ec578091506106f0565b8092505b6001838301901d9050610693565b5050919050565b60008068bfffffffffffffffff83131561071e57600080fd5b7fffffffffffffffffffffffffffffffffffffffffffffffc00000000000000000831215610759576000600181915080905091509150610bcd565b600080600085126107935768010000000000000000858161077657fe5b05915068010000000000000000858161078b57fe5b0790506107bf565b60016801000000000000000060018701816107aa57fe5b05039150816801000000000000000002850390505b60008112156107ca57fe5b6000604068010000000000000000901b905060008290508067b17217f7d1cf79ab0282019150680100000000000000008382028161080457fe5b05905060028167f5fdeffc162c754302901d82019150680100000000000000008382028161082e57fe5b05905060048167e35846b82505fc5902901d82019150680100000000000000008382028161085857fe5b059050600681679d955b7dd273b94e02901d82019150680100000000000000008382028161088257fe5b05905060098167aec3ff3c5339888302901d8201915068010000000000000000838202816108ac57fe5b059050600c8167a184897c363c3b7a02901d8201915068010000000000000000838202816108d657fe5b05905060108167ffe5fe2c4586343502901d82019150680100000000000000008382028161090057fe5b05905060138167b160111d2e411fec02901d82019150680100000000000000008382028161092a57fe5b05905060178167da929e9caf3e1ed202901d82019150680100000000000000008382028161095457fe5b059050601b8167f267a8ac5c764fb702901d82019150680100000000000000008382028161097e57fe5b059050601f8167f465639a8dd9260702901d8201915068010000000000000000838202816109a857fe5b05905060238167e1deb287e14c2f1502901d8201915068010000000000000000838202816109d257fe5b05905060278167c0b0c98b3687cb1402901d8201915068010000000000000000838202816109fc57fe5b059050602b816798a4b26ac3c54b9f02901d820191506801000000000000000083820281610a2657fe5b05905060308167e1b7421d82010f3302901d820191506801000000000000000083820281610a5057fe5b059050603481679c744d73cfc59c9102901d820191506801000000000000000083820281610a7a57fe5b05905060398167cc2225a0e12d3eab02901d820191506801000000000000000083820281610aa457fe5b059050603e8167fb8bb5eda1b4aeb902901d9050808201915068010000000000000000600802905060408403935060008412610b925760008461010003836000821215610aed57fe5b901d1415610b5d5783826000821215610b0257fe5b901b955083816000821215610b1357fe5b901b90508581870110610b2a578086019450610b4e565b7fffffffffffffffffffffffffffffffffffffffffffffffffffffffffffffffff94505b85859550955050505050610bcd565b7fffffffffffffffffffffffffffffffffffffffffffffffffffffffffffffffff808191508090509550955050505050610bcd565b600184600003826000821215610ba457fe5b901d01905083600003826000821215610bb957fe5b901c95508086019450858595509550505050505b915091565b6801000000000000000081565b600080825111610bee57600080fd5b7f8000000000000000000000000000000000000000000000000000000000000000905060008090505b8251811015610c5f5781838281518110610c2d57fe5b60200260200101511315610c5257828181518110610c4757fe5b602002602001015191505b8080600101915050610c17565b50919050565b600068851591f9dd5b9b40d7821315610c7d57600080fd5b7fffffffffffffffffffffffffffffffffffffffffffffffd3a37a020b8c21950d8213610cad5760009050610ced565b600080610cd567b17217f7d1cf79ac68010000000000000000860281610ccf57fe5b05610705565b9150915081600283830381610ce657fe5b0401925050505b91905056fea265627a7a72305820169bc9e3abd6e0bab573d3bb9deb31d9760871ef70461591ec2fb3392277490c64736f6c634300050a0032",
					"opcodes": "PUSH2 0xD27 PUSH2 0x26 PUSH1 0xB DUP3 DUP3 DUP3 CODECOPY DUP1 MLOAD PUSH1 0x0 BYTE PUSH1 0x73 EQ PUSH2 0x19 JUMPI INVALID JUMPDEST ADDRESS PUSH1 0x0 MSTORE PUSH1 0x73 DUP2 MSTORE8 DUP3 DUP2 RETURN INVALID PUSH20 0x0 ADDRESS EQ PUSH1 0x80 PUSH1 0x40 MSTORE PUSH1 0x4 CALLDATASIZE LT PUSH2 0xB3 JUMPI PUSH1 0x0 CALLDATALOAD PUSH1 0xE0 SHR DUP1 PUSH4 0x24D4E90A GT PUSH2 0x7B JUMPI DUP1 PUSH4 0x24D4E90A EQ PUSH2 0x1DB JUMPI DUP1 PUSH4 0x45B8BAFC EQ PUSH2 0x21D JUMPI DUP1 PUSH4 0xC1266227 EQ PUSH2 0x25F JUMPI DUP1 PUSH4 0xC2EE3A08 EQ PUSH2 0x2A8 JUMPI DUP1 PUSH4 0xCCC13814 EQ PUSH2 0x2C6 JUMPI DUP1 PUSH4 0xE46751E3 EQ PUSH2 0x392 JUMPI PUSH2 0xB3 JUMP JUMPDEST DUP1 PUSH4 0x2780677 EQ PUSH2 0xB8 JUMPI DUP1 PUSH4 0x137BF798 EQ PUSH2 0xD6 JUMPI DUP1 PUSH4 0x1427F168 EQ PUSH2 0x125 JUMPI DUP1 PUSH4 0x1D580123 EQ PUSH2 0x16E JUMPI DUP1 PUSH4 0x24902E24 EQ PUSH2 0x1BD JUMPI JUMPDEST PUSH1 0x0 DUP1 REVERT JUMPDEST PUSH2 0xC0 PUSH2 0x3D4 JUMP JUMPDEST PUSH1 0x40 MLOAD DUP1 DUP3 DUP2 MSTORE PUSH1 0x20 ADD SWAP2 POP POP PUSH1 0x40 MLOAD DUP1 SWAP2 SUB SWAP1 RETURN JUMPDEST PUSH2 0x10F PUSH1 0x4 DUP1 CALLDATASIZE SUB PUSH1 0x40 DUP2 LT ISZERO PUSH2 0xEC JUMPI PUSH1 0x0 DUP1 REVERT JUMPDEST DUP2 ADD SWAP1 DUP1 DUP1 CALLDATALOAD SWAP1 PUSH1 0x20 ADD SWAP1 SWAP3 SWAP2 SWAP1 DUP1 CALLDATALOAD PUSH1 0xFF AND SWAP1 PUSH1 0x20 ADD SWAP1 SWAP3 SWAP2 SWAP1 POP POP POP PUSH2 0x3E0 JUMP JUMPDEST PUSH1 0x40 MLOAD DUP1 DUP3 DUP2 MSTORE PUSH1 0x20 ADD SWAP2 POP POP PUSH1 0x40 MLOAD DUP1 SWAP2 SUB SWAP1 RETURN JUMPDEST PUSH2 0x151 PUSH1 0x4 DUP1 CALLDATASIZE SUB PUSH1 0x20 DUP2 LT ISZERO PUSH2 0x13B JUMPI PUSH1 0x0 DUP1 REVERT JUMPDEST DUP2 ADD SWAP1 DUP1 DUP1 CALLDATALOAD SWAP1 PUSH1 0x20 ADD SWAP1 SWAP3 SWAP2 SWAP1 POP POP POP PUSH2 0x485 JUMP JUMPDEST PUSH1 0x40 MLOAD DUP1 DUP4 DUP2 MSTORE PUSH1 0x20 ADD DUP3 DUP2 MSTORE PUSH1 0x20 ADD SWAP3 POP POP POP PUSH1 0x40 MLOAD DUP1 SWAP2 SUB SWAP1 RETURN JUMPDEST PUSH2 0x1A7 PUSH1 0x4 DUP1 CALLDATASIZE SUB PUSH1 0x40 DUP2 LT ISZERO PUSH2 0x184 JUMPI PUSH1 0x0 DUP1 REVERT JUMPDEST DUP2 ADD SWAP1 DUP1 DUP1 CALLDATALOAD SWAP1 PUSH1 0x20 ADD SWAP1 SWAP3 SWAP2 SWAP1 DUP1 CALLDATALOAD PUSH1 0xFF AND SWAP1 PUSH1 0x20 ADD SWAP1 SWAP3 SWAP2 SWAP1 POP POP POP PUSH2 0x563 JUMP JUMPDEST PUSH1 0x40 MLOAD DUP1 DUP3 DUP2 MSTORE PUSH1 0x20 ADD SWAP2 POP POP PUSH1 0x40 MLOAD DUP1 SWAP2 SUB SWAP1 RETURN JUMPDEST PUSH2 0x1C5 PUSH2 0x608 JUMP JUMPDEST PUSH1 0x40 MLOAD DUP1 DUP3 DUP2 MSTORE PUSH1 0x20 ADD SWAP2 POP POP PUSH1 0x40 MLOAD DUP1 SWAP2 SUB SWAP1 RETURN JUMPDEST PUSH2 0x207 PUSH1 0x4 DUP1 CALLDATASIZE SUB PUSH1 0x20 DUP2 LT ISZERO PUSH2 0x1F1 JUMPI PUSH1 0x0 DUP1 REVERT JUMPDEST DUP2 ADD SWAP1 DUP1 DUP1 CALLDATALOAD SWAP1 PUSH1 0x20 ADD SWAP1 SWAP3 SWAP2 SWAP1 POP POP POP PUSH2 0x615 JUMP JUMPDEST PUSH1 0x40 MLOAD DUP1 DUP3 DUP2 MSTORE PUSH1 0x20 ADD SWAP2 POP POP PUSH1 0x40 MLOAD DUP1 SWAP2 SUB SWAP1 RETURN JUMPDEST PUSH2 0x249 PUSH1 0x4 DUP1 CALLDATASIZE SUB PUSH1 0x20 DUP2 LT ISZERO PUSH2 0x233 JUMPI PUSH1 0x0 DUP1 REVERT JUMPDEST DUP2 ADD SWAP1 DUP1 DUP1 CALLDATALOAD SWAP1 PUSH1 0x20 ADD SWAP1 SWAP3 SWAP2 SWAP1 POP POP POP PUSH2 0x65C JUMP JUMPDEST PUSH1 0x40 MLOAD DUP1 DUP3 DUP2 MSTORE PUSH1 0x20 ADD SWAP2 POP POP PUSH1 0x40 MLOAD DUP1 SWAP2 SUB SWAP1 RETURN JUMPDEST PUSH2 0x28B PUSH1 0x4 DUP1 CALLDATASIZE SUB PUSH1 0x20 DUP2 LT ISZERO PUSH2 0x275 JUMPI PUSH1 0x0 DUP1 REVERT JUMPDEST DUP2 ADD SWAP1 DUP1 DUP1 CALLDATALOAD SWAP1 PUSH1 0x20 ADD SWAP1 SWAP3 SWAP2 SWAP1 POP POP POP PUSH2 0x705 JUMP JUMPDEST PUSH1 0x40 MLOAD DUP1 DUP4 DUP2 MSTORE PUSH1 0x20 ADD DUP3 DUP2 MSTORE PUSH1 0x20 ADD SWAP3 POP POP POP PUSH1 0x40 MLOAD DUP1 SWAP2 SUB SWAP1 RETURN JUMPDEST PUSH2 0x2B0 PUSH2 0xBD2 JUMP JUMPDEST PUSH1 0x40 MLOAD DUP1 DUP3 DUP2 MSTORE PUSH1 0x20 ADD SWAP2 POP POP PUSH1 0x40 MLOAD DUP1 SWAP2 SUB SWAP1 RETURN JUMPDEST PUSH2 0x37C PUSH1 0x4 DUP1 CALLDATASIZE SUB PUSH1 0x20 DUP2 LT ISZERO PUSH2 0x2DC JUMPI PUSH1 0x0 DUP1 REVERT JUMPDEST DUP2 ADD SWAP1 DUP1 DUP1 CALLDATALOAD SWAP1 PUSH1 0x20 ADD SWAP1 PUSH5 0x100000000 DUP2 GT ISZERO PUSH2 0x2F9 JUMPI PUSH1 0x0 DUP1 REVERT JUMPDEST DUP3 ADD DUP4 PUSH1 0x20 DUP3 ADD GT ISZERO PUSH2 0x30B JUMPI PUSH1 0x0 DUP1 REVERT JUMPDEST DUP1 CALLDATALOAD SWAP1 PUSH1 0x20 ADD SWAP2 DUP5 PUSH1 0x20 DUP4 MUL DUP5 ADD GT PUSH5 0x100000000 DUP4 GT OR ISZERO PUSH2 0x32D JUMPI PUSH1 0x0 DUP1 REVERT JUMPDEST SWAP2 SWAP1 DUP1 DUP1 PUSH1 0x20 MUL PUSH1 0x20 ADD PUSH1 0x40 MLOAD SWAP1 DUP2 ADD PUSH1 0x40 MSTORE DUP1 SWAP4 SWAP3 SWAP2 SWAP1 DUP2 DUP2 MSTORE PUSH1 0x20 ADD DUP4 DUP4 PUSH1 0x20 MUL DUP1 DUP3 DUP5 CALLDATACOPY PUSH1 0x0 DUP2 DUP5 ADD MSTORE PUSH1 0x1F NOT PUSH1 0x1F DUP3 ADD AND SWAP1 POP DUP1 DUP4 ADD SWAP3 POP POP POP POP POP POP POP SWAP2 SWAP3 SWAP2 SWAP3 SWAP1 POP POP POP PUSH2 0xBDF JUMP JUMPDEST PUSH1 0x40 MLOAD DUP1 DUP3 DUP2 MSTORE PUSH1 0x20 ADD SWAP2 POP POP PUSH1 0x40 MLOAD DUP1 SWAP2 SUB SWAP1 RETURN JUMPDEST PUSH2 0x3BE PUSH1 0x4 DUP1 CALLDATASIZE SUB PUSH1 0x20 DUP2 LT ISZERO PUSH2 0x3A8 JUMPI PUSH1 0x0 DUP1 REVERT JUMPDEST DUP2 ADD SWAP1 DUP1 DUP1 CALLDATALOAD SWAP1 PUSH1 0x20 ADD SWAP1 SWAP3 SWAP2 SWAP1 POP POP POP PUSH2 0xC65 JUMP JUMPDEST PUSH1 0x40 MLOAD DUP1 DUP3 DUP2 MSTORE PUSH1 0x20 ADD SWAP2 POP POP PUSH1 0x40 MLOAD DUP1 SWAP2 SUB SWAP1 RETURN JUMPDEST PUSH8 0xB17217F7D1CF79AC DUP2 JUMP JUMPDEST PUSH1 0x0 DUP1 PUSH1 0x0 PUSH2 0x3EE DUP6 PUSH2 0x485 JUMP JUMPDEST SWAP2 POP SWAP2 POP PUSH1 0x0 PUSH1 0x2 DUP2 GT ISZERO PUSH2 0x3FF JUMPI INVALID JUMPDEST DUP5 PUSH1 0x2 DUP2 GT ISZERO PUSH2 0x40B JUMPI INVALID JUMPDEST EQ ISZERO PUSH2 0x41B JUMPI DUP2 SWAP3 POP POP POP PUSH2 0x47F JUMP JUMPDEST PUSH1 0x1 PUSH1 0x2 DUP2 GT ISZERO PUSH2 0x428 JUMPI INVALID JUMPDEST DUP5 PUSH1 0x2 DUP2 GT ISZERO PUSH2 0x434 JUMPI INVALID JUMPDEST EQ ISZERO PUSH2 0x444 JUMPI DUP1 SWAP3 POP POP POP PUSH2 0x47F JUMP JUMPDEST PUSH1 0x2 DUP1 DUP2 GT ISZERO PUSH2 0x450 JUMPI INVALID JUMPDEST DUP5 PUSH1 0x2 DUP2 GT ISZERO PUSH2 0x45C JUMPI INVALID JUMPDEST EQ ISZERO PUSH2 0x47A JUMPI DUP2 PUSH1 0x2 DUP4 DUP4 SUB DUP2 PUSH2 0x46F JUMPI INVALID JUMPDEST SDIV ADD SWAP3 POP POP POP PUSH2 0x47F JUMP JUMPDEST PUSH1 0x0 DUP1 REVERT JUMPDEST SWAP3 SWAP2 POP POP JUMP JUMPDEST PUSH1 0x0 DUP1 PUSH1 0x0 DUP4 GT PUSH2 0x495 JUMPI PUSH1 0x0 DUP1 REVERT JUMPDEST PUSH2 0x49E DUP4 PUSH2 0x65C JUMP JUMPDEST SWAP2 POP PUSH1 0x0 DUP1 DUP4 SLT ISZERO PUSH2 0x4B8 JUMPI DUP3 PUSH1 0x0 SUB DUP5 SWAP1 SHL SWAP1 POP PUSH2 0x4BF JUMP JUMPDEST DUP3 DUP5 SWAP1 SHR SWAP1 POP JUMPDEST PUSH9 0x10000000000000000 DUP4 MUL SWAP3 POP PUSH1 0x0 PUSH1 0x1 SWAP1 POP JUMPDEST PUSH1 0x40 DUP2 SGT PUSH2 0x553 JUMPI PUSH9 0x10000000000000000 DUP3 EQ ISZERO PUSH2 0x4F2 JUMPI PUSH2 0x553 JUMP JUMPDEST PUSH9 0x10000000000000000 DUP3 DUP4 MUL DUP2 PUSH2 0x506 JUMPI INVALID JUMPDEST DIV SWAP2 POP PUSH9 0x10000000000000000 PUSH1 0x2 MUL DUP3 LT PUSH2 0x546 JUMPI DUP1 PUSH9 0x10000000000000000 PUSH1 0x0 DUP3 SLT ISZERO PUSH2 0x532 JUMPI INVALID JUMPDEST SWAP1 SHR DUP5 ADD SWAP4 POP PUSH1 0x2 DUP3 DUP2 PUSH2 0x542 JUMPI INVALID JUMPDEST DIV SWAP2 POP JUMPDEST DUP1 DUP1 PUSH1 0x1 ADD SWAP2 POP POP PUSH2 0x4D4 JUMP JUMPDEST POP DUP3 PUSH1 0x4 DUP5 ADD SWAP3 POP SWAP3 POP POP SWAP2 POP SWAP2 JUMP JUMPDEST PUSH1 0x0 DUP1 PUSH1 0x0 PUSH2 0x571 DUP6 PUSH2 0x705 JUMP JUMPDEST SWAP2 POP SWAP2 POP PUSH1 0x0 PUSH1 0x2 DUP2 GT ISZERO PUSH2 0x582 JUMPI INVALID JUMPDEST DUP5 PUSH1 0x2 DUP2 GT ISZERO PUSH2 0x58E JUMPI INVALID JUMPDEST EQ ISZERO PUSH2 0x59E JUMPI DUP2 SWAP3 POP POP POP PUSH2 0x602 JUMP JUMPDEST PUSH1 0x1 PUSH1 0x2 DUP2 GT ISZERO PUSH2 0x5AB JUMPI INVALID JUMPDEST DUP5 PUSH1 0x2 DUP2 GT ISZERO PUSH2 0x5B7 JUMPI INVALID JUMPDEST EQ ISZERO PUSH2 0x5C7 JUMPI DUP1 SWAP3 POP POP POP PUSH2 0x602 JUMP JUMPDEST PUSH1 0x2 DUP1 DUP2 GT ISZERO PUSH2 0x5D3 JUMPI INVALID JUMPDEST DUP5 PUSH1 0x2 DUP2 GT ISZERO PUSH2 0x5DF JUMPI INVALID JUMPDEST EQ ISZERO PUSH2 0x5FD JUMPI DUP2 PUSH1 0x2 DUP4 DUP4 SUB DUP2 PUSH2 0x5F2 JUMPI INVALID JUMPDEST DIV ADD SWAP3 POP POP POP PUSH2 0x602 JUMP JUMPDEST PUSH1 0x0 DUP1 REVERT JUMPDEST SWAP3 SWAP2 POP POP JUMP JUMPDEST PUSH9 0x171547652B82FE177 DUP2 JUMP JUMPDEST PUSH1 0x0 DUP1 PUSH1 0x0 PUSH2 0x623 DUP5 PUSH2 0x485 JUMP JUMPDEST SWAP2 POP SWAP2 POP PUSH9 0x171547652B82FE177 PUSH9 0x10000000000000000 DUP4 PUSH1 0x2 DUP6 DUP6 SUB DUP2 PUSH2 0x648 JUMPI INVALID JUMPDEST SDIV ADD MUL DUP2 PUSH2 0x652 JUMPI INVALID JUMPDEST SDIV SWAP3 POP POP POP SWAP2 SWAP1 POP JUMP JUMPDEST PUSH1 0x0 PUSH32 0xFFFFFFFFFFFFFFFFFFFFFFFFFFFFFFFFFFFFFFFFFFFFFFFFFFFFFFFFFFFFFFC0 SWAP1 POP PUSH1 0x0 PUSH1 0xC1 SWAP1 POP PUSH1 0x0 PUSH1 0x1 DUP4 DUP4 ADD SWAP1 SAR SWAP1 POP JUMPDEST DUP2 PUSH1 0x1 DUP5 ADD SLT ISZERO PUSH2 0x6FE JUMPI PUSH1 0x0 DUP2 SLT DUP1 ISZERO PUSH2 0x6BC JUMPI POP PUSH9 0x10000000000000000 DUP2 PUSH1 0x0 SUB DUP6 SWAP1 SHL LT JUMPDEST DUP1 PUSH2 0x6DF JUMPI POP PUSH1 0x0 DUP2 SLT ISZERO DUP1 ISZERO PUSH2 0x6DE JUMPI POP PUSH9 0x10000000000000000 DUP2 DUP6 SWAP1 SHR LT JUMPDEST JUMPDEST ISZERO PUSH2 0x6EC JUMPI DUP1 SWAP2 POP PUSH2 0x6F0 JUMP JUMPDEST DUP1 SWAP3 POP JUMPDEST PUSH1 0x1 DUP4 DUP4 ADD SWAP1 SAR SWAP1 POP PUSH2 0x693 JUMP JUMPDEST POP POP SWAP2 SWAP1 POP JUMP JUMPDEST PUSH1 0x0 DUP1 PUSH9 0xBFFFFFFFFFFFFFFFFF DUP4 SGT ISZERO PUSH2 0x71E JUMPI PUSH1 0x0 DUP1 REVERT JUMPDEST PUSH32 0xFFFFFFFFFFFFFFFFFFFFFFFFFFFFFFFFFFFFFFFFFFFFFFC00000000000000000 DUP4 SLT ISZERO PUSH2 0x759 JUMPI PUSH1 0x0 PUSH1 0x1 DUP2 SWAP2 POP DUP1 SWAP1 POP SWAP2 POP SWAP2 POP PUSH2 0xBCD JUMP JUMPDEST PUSH1 0x0 DUP1 PUSH1 0x0 DUP6 SLT PUSH2 0x793 JUMPI PUSH9 0x10000000000000000 DUP6 DUP2 PUSH2 0x776 JUMPI INVALID JUMPDEST SDIV SWAP2 POP PUSH9 0x10000000000000000 DUP6 DUP2 PUSH2 0x78B JUMPI INVALID JUMPDEST SMOD SWAP1 POP PUSH2 0x7BF JUMP JUMPDEST PUSH1 0x1 PUSH9 0x10000000000000000 PUSH1 0x1 DUP8 ADD DUP2 PUSH2 0x7AA JUMPI INVALID JUMPDEST SDIV SUB SWAP2 POP DUP2 PUSH9 0x10000000000000000 MUL DUP6 SUB SWAP1 POP JUMPDEST PUSH1 0x0 DUP2 SLT ISZERO PUSH2 0x7CA JUMPI INVALID JUMPDEST PUSH1 0x0 PUSH1 0x40 PUSH9 0x10000000000000000 SWAP1 SHL SWAP1 POP PUSH1 0x0 DUP3 SWAP1 POP DUP1 PUSH8 0xB17217F7D1CF79AB MUL DUP3 ADD SWAP2 POP PUSH9 0x10000000000000000 DUP4 DUP3 MUL DUP2 PUSH2 0x804 JUMPI INVALID JUMPDEST SDIV SWAP1 POP PUSH1 0x2 DUP2 PUSH8 0xF5FDEFFC162C7543 MUL SWAP1 SAR DUP3 ADD SWAP2 POP PUSH9 0x10000000000000000 DUP4 DUP3 MUL DUP2 PUSH2 0x82E JUMPI INVALID JUMPDEST SDIV SWAP1 POP PUSH1 0x4 DUP2 PUSH8 0xE35846B82505FC59 MUL SWAP1 SAR DUP3 ADD SWAP2 POP PUSH9 0x10000000000000000 DUP4 DUP3 MUL DUP2 PUSH2 0x858 JUMPI INVALID JUMPDEST SDIV SWAP1 POP PUSH1 0x6 DUP2 PUSH8 0x9D955B7DD273B94E MUL SWAP1 SAR DUP3 ADD SWAP2 POP PUSH9 0x10000000000000000 DUP4 DUP3 MUL DUP2 PUSH2 0x882 JUMPI INVALID JUMPDEST SDIV SWAP1 POP PUSH1 0x9 DUP2 PUSH8 0xAEC3FF3C53398883 MUL SWAP1 SAR DUP3 ADD SWAP2 POP PUSH9 0x10000000000000000 DUP4 DUP3 MUL DUP2 PUSH2 0x8AC JUMPI INVALID JUMPDEST SDIV SWAP1 POP PUSH1 0xC DUP2 PUSH8 0xA184897C363C3B7A MUL SWAP1 SAR DUP3 ADD SWAP2 POP PUSH9 0x10000000000000000 DUP4 DUP3 MUL DUP2 PUSH2 0x8D6 JUMPI INVALID JUMPDEST SDIV SWAP1 POP PUSH1 0x10 DUP2 PUSH8 0xFFE5FE2C45863435 MUL SWAP1 SAR DUP3 ADD SWAP2 POP PUSH9 0x10000000000000000 DUP4 DUP3 MUL DUP2 PUSH2 0x900 JUMPI INVALID JUMPDEST SDIV SWAP1 POP PUSH1 0x13 DUP2 PUSH8 0xB160111D2E411FEC MUL SWAP1 SAR DUP3 ADD SWAP2 POP PUSH9 0x10000000000000000 DUP4 DUP3 MUL DUP2 PUSH2 0x92A JUMPI INVALID JUMPDEST SDIV SWAP1 POP PUSH1 0x17 DUP2 PUSH8 0xDA929E9CAF3E1ED2 MUL SWAP1 SAR DUP3 ADD SWAP2 POP PUSH9 0x10000000000000000 DUP4 DUP3 MUL DUP2 PUSH2 0x954 JUMPI INVALID JUMPDEST SDIV SWAP1 POP PUSH1 0x1B DUP2 PUSH8 0xF267A8AC5C764FB7 MUL SWAP1 SAR DUP3 ADD SWAP2 POP PUSH9 0x10000000000000000 DUP4 DUP3 MUL DUP2 PUSH2 0x97E JUMPI INVALID JUMPDEST SDIV SWAP1 POP PUSH1 0x1F DUP2 PUSH8 0xF465639A8DD92607 MUL SWAP1 SAR DUP3 ADD SWAP2 POP PUSH9 0x10000000000000000 DUP4 DUP3 MUL DUP2 PUSH2 0x9A8 JUMPI INVALID JUMPDEST SDIV SWAP1 POP PUSH1 0x23 DUP2 PUSH8 0xE1DEB287E14C2F15 MUL SWAP1 SAR DUP3 ADD SWAP2 POP PUSH9 0x10000000000000000 DUP4 DUP3 MUL DUP2 PUSH2 0x9D2 JUMPI INVALID JUMPDEST SDIV SWAP1 POP PUSH1 0x27 DUP2 PUSH8 0xC0B0C98B3687CB14 MUL SWAP1 SAR DUP3 ADD SWAP2 POP PUSH9 0x10000000000000000 DUP4 DUP3 MUL DUP2 PUSH2 0x9FC JUMPI INVALID JUMPDEST SDIV SWAP1 POP PUSH1 0x2B DUP2 PUSH8 0x98A4B26AC3C54B9F MUL SWAP1 SAR DUP3 ADD SWAP2 POP PUSH9 0x10000000000000000 DUP4 DUP3 MUL DUP2 PUSH2 0xA26 JUMPI INVALID JUMPDEST SDIV SWAP1 POP PUSH1 0x30 DUP2 PUSH8 0xE1B7421D82010F33 MUL SWAP1 SAR DUP3 ADD SWAP2 POP PUSH9 0x10000000000000000 DUP4 DUP3 MUL DUP2 PUSH2 0xA50 JUMPI INVALID JUMPDEST SDIV SWAP1 POP PUSH1 0x34 DUP2 PUSH8 0x9C744D73CFC59C91 MUL SWAP1 SAR DUP3 ADD SWAP2 POP PUSH9 0x10000000000000000 DUP4 DUP3 MUL DUP2 PUSH2 0xA7A JUMPI INVALID JUMPDEST SDIV SWAP1 POP PUSH1 0x39 DUP2 PUSH8 0xCC2225A0E12D3EAB MUL SWAP1 SAR DUP3 ADD SWAP2 POP PUSH9 0x10000000000000000 DUP4 DUP3 MUL DUP2 PUSH2 0xAA4 JUMPI INVALID JUMPDEST SDIV SWAP1 POP PUSH1 0x3E DUP2 PUSH8 0xFB8BB5EDA1B4AEB9 MUL SWAP1 SAR SWAP1 POP DUP1 DUP3 ADD SWAP2 POP PUSH9 0x10000000000000000 PUSH1 0x8 MUL SWAP1 POP PUSH1 0x40 DUP5 SUB SWAP4 POP PUSH1 0x0 DUP5 SLT PUSH2 0xB92 JUMPI PUSH1 0x0 DUP5 PUSH2 0x100 SUB DUP4 PUSH1 0x0 DUP3 SLT ISZERO PUSH2 0xAED JUMPI INVALID JUMPDEST SWAP1 SAR EQ ISZERO PUSH2 0xB5D JUMPI DUP4 DUP3 PUSH1 0x0 DUP3 SLT ISZERO PUSH2 0xB02 JUMPI INVALID JUMPDEST SWAP1 SHL SWAP6 POP DUP4 DUP2 PUSH1 0x0 DUP3 SLT ISZERO PUSH2 0xB13 JUMPI INVALID JUMPDEST SWAP1 SHL SWAP1 POP DUP6 DUP2 DUP8 ADD LT PUSH2 0xB2A JUMPI DUP1 DUP7 ADD SWAP5 POP PUSH2 0xB4E JUMP JUMPDEST PUSH32 0xFFFFFFFFFFFFFFFFFFFFFFFFFFFFFFFFFFFFFFFFFFFFFFFFFFFFFFFFFFFFFFFF SWAP5 POP JUMPDEST DUP6 DUP6 SWAP6 POP SWAP6 POP POP POP POP POP PUSH2 0xBCD JUMP JUMPDEST PUSH32 0xFFFFFFFFFFFFFFFFFFFFFFFFFFFFFFFFFFFFFFFFFFFFFFFFFFFFFFFFFFFFFFFF DUP1 DUP2 SWAP2 POP DUP1 SWAP1 POP SWAP6 POP SWAP6 POP POP POP POP POP PUSH2 0xBCD JUMP JUMPDEST PUSH1 0x1 DUP5 PUSH1 0x0 SUB DUP3 PUSH1 0x0 DUP3 SLT ISZERO PUSH2 0xBA4 JUMPI INVALID JUMPDEST SWAP1 SAR ADD SWAP1 POP DUP4 PUSH1 0x0 SUB DUP3 PUSH1 0x0 DUP3 SLT ISZERO PUSH2 0xBB9 JUMPI INVALID JUMPDEST SWAP1 SHR SWAP6 POP DUP1 DUP7 ADD SWAP5 POP DUP6 DUP6 SWAP6 POP SWAP6 POP POP POP POP POP JUMPDEST SWAP2 POP SWAP2 JUMP JUMPDEST PUSH9 0x10000000000000000 DUP2 JUMP JUMPDEST PUSH1 0x0 DUP1 DUP3 MLOAD GT PUSH2 0xBEE JUMPI PUSH1 0x0 DUP1 REVERT JUMPDEST PUSH32 0x8000000000000000000000000000000000000000000000000000000000000000 SWAP1 POP PUSH1 0x0 DUP1 SWAP1 POP JUMPDEST DUP3 MLOAD DUP2 LT ISZERO PUSH2 0xC5F JUMPI DUP2 DUP4 DUP3 DUP2 MLOAD DUP2 LT PUSH2 0xC2D JUMPI INVALID JUMPDEST PUSH1 0x20 MUL PUSH1 0x20 ADD ADD MLOAD SGT ISZERO PUSH2 0xC52 JUMPI DUP3 DUP2 DUP2 MLOAD DUP2 LT PUSH2 0xC47 JUMPI INVALID JUMPDEST PUSH1 0x20 MUL PUSH1 0x20 ADD ADD MLOAD SWAP2 POP JUMPDEST DUP1 DUP1 PUSH1 0x1 ADD SWAP2 POP POP PUSH2 0xC17 JUMP JUMPDEST POP SWAP2 SWAP1 POP JUMP JUMPDEST PUSH1 0x0 PUSH9 0x851591F9DD5B9B40D7 DUP3 SGT ISZERO PUSH2 0xC7D JUMPI PUSH1 0x0 DUP1 REVERT JUMPDEST PUSH32 0xFFFFFFFFFFFFFFFFFFFFFFFFFFFFFFFFFFFFFFFFFFFFFFD3A37A020B8C21950D DUP3 SGT PUSH2 0xCAD JUMPI PUSH1 0x0 SWAP1 POP PUSH2 0xCED JUMP JUMPDEST PUSH1 0x0 DUP1 PUSH2 0xCD5 PUSH8 0xB17217F7D1CF79AC PUSH9 0x10000000000000000 DUP7 MUL DUP2 PUSH2 0xCCF JUMPI INVALID JUMPDEST SDIV PUSH2 0x705 JUMP JUMPDEST SWAP2 POP SWAP2 POP DUP2 PUSH1 0x2 DUP4 DUP4 SUB DUP2 PUSH2 0xCE6 JUMPI INVALID JUMPDEST DIV ADD SWAP3 POP POP POP JUMPDEST SWAP2 SWAP1 POP JUMP INVALID LOG2 PUSH6 0x627A7A723058 KECCAK256 AND SWAP12 0xc9 0xe3 0xab 0xd6 0xe0 0xba 0xb5 PUSH20 0xD3BB9DEB31D9760871EF70461591EC2FB3392277 0x49 0xc PUSH5 0x736F6C6343 STOP SDIV EXP STOP ORIGIN "
				},
				"gasEstimates": {
					"creation": {
						"codeDepositCost": "673400",
						"executionCost": "733",
						"totalCost": "674133"
					},
					"external": {
						"LN2()": "190",
						"LOG2_E()": "278",
						"ONE()": "255",
						"binaryLog(uint256,Fixed192x64Math.EstimationMode)": "infinite",
						"exp(int256)": "2338",
						"floorLog2(uint256)": "infinite",
						"ln(uint256)": "infinite",
						"log2Bounds(uint256)": "infinite",
						"max(int256[])": "infinite",
						"pow2(int256,Fixed192x64Math.EstimationMode)": "2492",
						"pow2Bounds(int256)": "2106"
					}
				},
				"methodIdentifiers": {
					"LN2()": "02780677",
					"LOG2_E()": "24902e24",
					"ONE()": "c2ee3a08",
					"binaryLog(uint256,Fixed192x64Math.EstimationMode)": "137bf798",
					"exp(int256)": "e46751e3",
					"floorLog2(uint256)": "45b8bafc",
					"ln(uint256)": "24d4e90a",
					"log2Bounds(uint256)": "1427f168",
					"max(int256[])": "ccc13814",
					"pow2(int256,Fixed192x64Math.EstimationMode)": "1d580123",
					"pow2Bounds(int256)": "c1266227"
				}
			},
			"userdoc": {
				"methods": {}
			}
		}
	}
}