{
	"input/NOIAVault.sol": {
		"NOIAToken": {
			"abi": [
				{
					"constant": true,
					"inputs": [],
					"name": "name",
					"outputs": [
						{
							"name": "",
							"type": "string"
						}
					],
					"payable": false,
					"stateMutability": "view",
					"type": "function"
				},
				{
					"constant": false,
					"inputs": [
						{
							"name": "spender",
							"type": "address"
						},
						{
							"name": "value",
							"type": "uint256"
						}
					],
					"name": "approve",
					"outputs": [
						{
							"name": "",
							"type": "bool"
						}
					],
					"payable": false,
					"stateMutability": "nonpayable",
					"type": "function"
				},
				{
					"constant": false,
					"inputs": [
						{
							"name": "_signature",
							"type": "bytes"
						},
						{
							"name": "_to",
							"type": "address"
						},
						{
							"name": "_value",
							"type": "uint256"
						},
						{
							"name": "_fee",
							"type": "uint256"
						},
						{
							"name": "_nonce",
							"type": "uint256"
						}
					],
					"name": "transferPreSigned",
					"outputs": [
						{
							"name": "",
							"type": "bool"
						}
					],
					"payable": false,
					"stateMutability": "nonpayable",
					"type": "function"
				},
				{
					"constant": true,
					"inputs": [],
					"name": "totalSupply",
					"outputs": [
						{
							"name": "",
							"type": "uint256"
						}
					],
					"payable": false,
					"stateMutability": "view",
					"type": "function"
				},
				{
					"constant": false,
					"inputs": [],
					"name": "register",
					"outputs": [],
					"payable": false,
					"stateMutability": "nonpayable",
					"type": "function"
				},
				{
					"constant": false,
					"inputs": [
						{
							"name": "from",
							"type": "address"
						},
						{
							"name": "to",
							"type": "address"
						},
						{
							"name": "value",
							"type": "uint256"
						}
					],
					"name": "transferFrom",
					"outputs": [
						{
							"name": "",
							"type": "bool"
						}
					],
					"payable": false,
					"stateMutability": "nonpayable",
					"type": "function"
				},
				{
					"constant": true,
					"inputs": [],
					"name": "decimals",
					"outputs": [
						{
							"name": "",
							"type": "uint8"
						}
					],
					"payable": false,
					"stateMutability": "view",
					"type": "function"
				},
				{
					"constant": false,
					"inputs": [
						{
							"name": "spender",
							"type": "address"
						},
						{
							"name": "addedValue",
							"type": "uint256"
						}
					],
					"name": "increaseAllowance",
					"outputs": [
						{
							"name": "",
							"type": "bool"
						}
					],
					"payable": false,
					"stateMutability": "nonpayable",
					"type": "function"
				},
				{
					"constant": false,
					"inputs": [
						{
							"name": "to",
							"type": "address"
						},
						{
							"name": "value",
							"type": "uint256"
						}
					],
					"name": "mint",
					"outputs": [
						{
							"name": "",
							"type": "bool"
						}
					],
					"payable": false,
					"stateMutability": "nonpayable",
					"type": "function"
				},
				{
					"constant": false,
					"inputs": [
						{
							"name": "value",
							"type": "uint256"
						}
					],
					"name": "burn",
					"outputs": [],
					"payable": false,
					"stateMutability": "nonpayable",
					"type": "function"
				},
				{
					"constant": false,
					"inputs": [
						{
							"name": "_burnAddress",
							"type": "address"
						}
					],
					"name": "setBurnAddress",
					"outputs": [],
					"payable": false,
					"stateMutability": "nonpayable",
					"type": "function"
				},
				{
					"constant": true,
					"inputs": [],
					"name": "etherlessTransferEnabled",
					"outputs": [
						{
							"name": "",
							"type": "bool"
						}
					],
					"payable": false,
					"stateMutability": "view",
					"type": "function"
				},
				{
					"constant": false,
					"inputs": [
						{
							"name": "token",
							"type": "address"
						},
						{
							"name": "to",
							"type": "address"
						},
						{
							"name": "amount",
							"type": "uint256"
						}
					],
					"name": "recoverTokens",
					"outputs": [],
					"payable": false,
					"stateMutability": "nonpayable",
					"type": "function"
				},
				{
					"constant": true,
					"inputs": [
						{
							"name": "",
							"type": "address"
						}
					],
					"name": "notify",
					"outputs": [
						{
							"name": "",
							"type": "bool"
						}
					],
					"payable": false,
					"stateMutability": "view",
					"type": "function"
				},
				{
					"constant": true,
					"inputs": [
						{
							"name": "account",
							"type": "address"
						}
					],
					"name": "balanceOf",
					"outputs": [
						{
							"name": "",
							"type": "uint256"
						}
					],
					"payable": false,
					"stateMutability": "view",
					"type": "function"
				},
				{
					"constant": true,
					"inputs": [],
					"name": "burnAddress",
					"outputs": [
						{
							"name": "",
							"type": "address"
						}
					],
					"payable": false,
					"stateMutability": "view",
					"type": "function"
				},
				{
					"constant": false,
					"inputs": [],
					"name": "renounceOwnership",
					"outputs": [],
					"payable": false,
					"stateMutability": "nonpayable",
					"type": "function"
				},
				{
					"constant": false,
					"inputs": [],
					"name": "enableEtherlessTransfer",
					"outputs": [],
					"payable": false,
					"stateMutability": "nonpayable",
					"type": "function"
				},
				{
					"constant": false,
					"inputs": [],
					"name": "disableEtherlessTransfer",
					"outputs": [],
					"payable": false,
					"stateMutability": "nonpayable",
					"type": "function"
				},
				{
					"constant": true,
					"inputs": [],
					"name": "owner",
					"outputs": [
						{
							"name": "",
							"type": "address"
						}
					],
					"payable": false,
					"stateMutability": "view",
					"type": "function"
				},
				{
					"constant": true,
					"inputs": [],
					"name": "isOwner",
					"outputs": [
						{
							"name": "",
							"type": "bool"
						}
					],
					"payable": false,
					"stateMutability": "view",
					"type": "function"
				},
				{
					"constant": true,
					"inputs": [],
					"name": "symbol",
					"outputs": [
						{
							"name": "",
							"type": "string"
						}
					],
					"payable": false,
					"stateMutability": "view",
					"type": "function"
				},
				{
					"constant": false,
					"inputs": [
						{
							"name": "spender",
							"type": "address"
						},
						{
							"name": "subtractedValue",
							"type": "uint256"
						}
					],
					"name": "decreaseAllowance",
					"outputs": [
						{
							"name": "",
							"type": "bool"
						}
					],
					"payable": false,
					"stateMutability": "nonpayable",
					"type": "function"
				},
				{
					"constant": false,
					"inputs": [
						{
							"name": "to",
							"type": "address"
						},
						{
							"name": "value",
							"type": "uint256"
						}
					],
					"name": "transfer",
					"outputs": [
						{
							"name": "",
							"type": "bool"
						}
					],
					"payable": false,
					"stateMutability": "nonpayable",
					"type": "function"
				},
				{
					"constant": true,
					"inputs": [],
					"name": "tokensToMint",
					"outputs": [
						{
							"name": "",
							"type": "uint256"
						}
					],
					"payable": false,
					"stateMutability": "view",
					"type": "function"
				},
				{
					"constant": true,
					"inputs": [
						{
							"name": "_selector",
							"type": "bytes4"
						},
						{
							"name": "_token",
							"type": "address"
						},
						{
							"name": "_to",
							"type": "address"
						},
						{
							"name": "_value",
							"type": "uint256"
						},
						{
							"name": "_fee",
							"type": "uint256"
						},
						{
							"name": "_nonce",
							"type": "uint256"
						}
					],
					"name": "hashForSign",
					"outputs": [
						{
							"name": "",
							"type": "bytes32"
						}
					],
					"payable": false,
					"stateMutability": "view",
					"type": "function"
				},
				{
					"constant": true,
					"inputs": [
						{
							"name": "owner",
							"type": "address"
						},
						{
							"name": "spender",
							"type": "address"
						}
					],
					"name": "allowance",
					"outputs": [
						{
							"name": "",
							"type": "uint256"
						}
					],
					"payable": false,
					"stateMutability": "view",
					"type": "function"
				},
				{
					"constant": false,
					"inputs": [],
					"name": "unregister",
					"outputs": [],
					"payable": false,
					"stateMutability": "nonpayable",
					"type": "function"
				},
				{
					"constant": false,
					"inputs": [
						{
							"name": "newOwner",
							"type": "address"
						}
					],
					"name": "transferOwnership",
					"outputs": [],
					"payable": false,
					"stateMutability": "nonpayable",
					"type": "function"
				},
				{
					"anonymous": false,
					"inputs": [
						{
							"indexed": true,
							"name": "from",
							"type": "address"
						},
						{
							"indexed": true,
							"name": "to",
							"type": "address"
						},
						{
							"indexed": true,
							"name": "delegate",
							"type": "address"
						},
						{
							"indexed": false,
							"name": "amount",
							"type": "uint256"
						},
						{
							"indexed": false,
							"name": "fee",
							"type": "uint256"
						}
					],
					"name": "TransferPreSigned",
					"type": "event"
				},
				{
					"anonymous": false,
					"inputs": [
						{
							"indexed": true,
							"name": "from",
							"type": "address"
						},
						{
							"indexed": true,
							"name": "to",
							"type": "address"
						},
						{
							"indexed": false,
							"name": "value",
							"type": "uint256"
						}
					],
					"name": "Transfer",
					"type": "event"
				},
				{
					"anonymous": false,
					"inputs": [
						{
							"indexed": true,
							"name": "owner",
							"type": "address"
						},
						{
							"indexed": true,
							"name": "spender",
							"type": "address"
						},
						{
							"indexed": false,
							"name": "value",
							"type": "uint256"
						}
					],
					"name": "Approval",
					"type": "event"
				},
				{
					"anonymous": false,
					"inputs": [
						{
							"indexed": true,
							"name": "previousOwner",
							"type": "address"
						},
						{
							"indexed": true,
							"name": "newOwner",
							"type": "address"
						}
					],
					"name": "OwnershipTransferred",
					"type": "event"
				}
			],
			"devdoc": {
				"methods": {
					"allowance(address,address)": {
						"details": "See `IERC20.allowance`."
					},
					"approve(address,uint256)": {
						"details": "See `IERC20.approve`.     * Requirements:     * - `spender` cannot be the zero address."
					},
					"balanceOf(address)": {
						"details": "See `IERC20.balanceOf`."
					},
					"burn(uint256)": {
						"details": "Burns a specific amount of tokens.",
						"params": {
							"value": "The amount of token to be burned."
						}
					},
					"decreaseAllowance(address,uint256)": {
						"details": "Atomically decreases the allowance granted to `spender` by the caller.     * This is an alternative to `approve` that can be used as a mitigation for problems described in `IERC20.approve`.     * Emits an `Approval` event indicating the updated allowance.     * Requirements:     * - `spender` cannot be the zero address. - `spender` must have allowance for the caller of at least `subtractedValue`."
					},
					"hashForSign(bytes4,address,address,uint256,uint256,uint256)": {
						"params": {
							"_fee": "uint256 The amount of tokens paid to msg.sender, by the owner.",
							"_nonce": "uint256 Presigned transaction number.",
							"_to": "address The address which you want to transfer to.",
							"_token": "address The address of the token.",
							"_value": "uint256 The amount of tokens to be transferred."
						}
					},
					"increaseAllowance(address,uint256)": {
						"details": "Atomically increases the allowance granted to `spender` by the caller.     * This is an alternative to `approve` that can be used as a mitigation for problems described in `IERC20.approve`.     * Emits an `Approval` event indicating the updated allowance.     * Requirements:     * - `spender` cannot be the zero address."
					},
					"isOwner()": {
						"details": "Returns true if the caller is the current owner."
					},
					"mint(address,uint256)": {
						"details": "Function to mint tokens",
						"params": {
							"to": "The address that will receive the minted tokens.",
							"value": "The amount of tokens to mint."
						},
						"return": "A boolean that indicates if the operation was successful."
					},
					"owner()": {
						"details": "Returns the address of the current owner."
					},
					"renounceOwnership()": {
						"details": "Leaves the contract without owner. It will not be possible to call `onlyOwner` functions anymore. Can only be called by the current owner.     * > Note: Renouncing ownership will leave the contract without an owner, thereby removing any functionality that is only available to the owner."
					},
					"totalSupply()": {
						"details": "See `IERC20.totalSupply`."
					},
					"transfer(address,uint256)": {
						"details": "Transfer token to a specified address",
						"params": {
							"to": "The address to transfer to.",
							"value": "The amount to be transferred."
						}
					},
					"transferFrom(address,address,uint256)": {
						"details": "Transfer tokens from one address to another. Note that while this function emits an Approval event, this is not required as per the specification, and other compliant implementations may not emit the event.",
						"params": {
							"from": "address The address which you want to send tokens from",
							"to": "address The address which you want to transfer to",
							"value": "uint256 the amount of tokens to be transferred"
						}
					},
					"transferOwnership(address)": {
						"details": "Transfers ownership of the contract to a new account (`newOwner`). Can only be called by the current owner."
					},
					"transferPreSigned(bytes,address,uint256,uint256,uint256)": {
						"params": {
							"_fee": "uint256 The amount of tokens paid to msg.sender, by the owner.",
							"_nonce": "uint256 Presigned transaction number. Should be unique, per user.",
							"_signature": "bytes The signature, issued by the owner.",
							"_to": "address The address which you want to transfer to.",
							"_value": "uint256 The amount of tokens to be transferred."
						}
					}
				}
			},
			"evm": {
				"assembly": "    /* \"input/NOIAVault.sol\":24956:31204  contract NOIAToken is TokenRecoverable, ERC20 {... */\n  mstore(0x40, 0x80)\n    /* \"input/NOIAVault.sol\":25272:25285  1000000000e18 */\n  0x033b2e3c9fd0803ce8000000\n    /* \"input/NOIAVault.sol\":25242:25285  uint256 public tokensToMint = 1000000000e18 */\n  0x04\n  sstore\n    /* \"input/NOIAVault.sol\":25478:25482  true */\n  0x01\n    /* \"input/NOIAVault.sol\":25439:25482  bool public etherlessTransferEnabled = true */\n  0x08\n  exp(0x0100, 0x00)\n  dup2\n  sload\n  dup2\n  0xff\n  mul\n  not\n  and\n  swap1\n  dup4\n  iszero\n  iszero\n  mul\n  or\n  swap1\n  sstore\n  pop\n    /* \"input/NOIAVault.sol\":22809:22819  msg.sender */\n  caller\n    /* \"input/NOIAVault.sol\":22800:22806  _owner */\n  0x00\n  dup1\n    /* \"input/NOIAVault.sol\":22800:22819  _owner = msg.sender */\n  0x0100\n  exp\n  dup2\n  sload\n  dup2\n  0xffffffffffffffffffffffffffffffffffffffff\n  mul\n  not\n  and\n  swap1\n  dup4\n  0xffffffffffffffffffffffffffffffffffffffff\n  and\n  mul\n  or\n  swap1\n  sstore\n  pop\n    /* \"input/NOIAVault.sol\":22867:22873  _owner */\n  0x00\n  dup1\n  swap1\n  sload\n  swap1\n  0x0100\n  exp\n  swap1\n  div\n  0xffffffffffffffffffffffffffffffffffffffff\n  and\n    /* \"input/NOIAVault.sol\":22834:22874  OwnershipTransferred(address(0), _owner) */\n  0xffffffffffffffffffffffffffffffffffffffff\n  and\n    /* \"input/NOIAVault.sol\":22863:22864  0 */\n  0x00\n    /* \"input/NOIAVault.sol\":22834:22874  OwnershipTransferred(address(0), _owner) */\n  0xffffffffffffffffffffffffffffffffffffffff\n  and\n  0x8be0079c531659141344cd1fd0a4f28419497f9722a3daafe3b4186f6b6457e0\n  mload(0x40)\n  mload(0x40)\n  dup1\n  swap2\n  sub\n  swap1\n  log3\n    /* \"input/NOIAVault.sol\":24956:31204  contract NOIAToken is TokenRecoverable, ERC20 {... */\n  dataSize(sub_0)\n  dup1\n  dataOffset(sub_0)\n  0x00\n  codecopy\n  0x00\n  return\nstop\n\nsub_0: assembly {\n        /* \"input/NOIAVault.sol\":24956:31204  contract NOIAToken is TokenRecoverable, ERC20 {... */\n      mstore(0x40, 0x80)\n      callvalue\n        /* \"--CODEGEN--\":8:17   */\n      dup1\n        /* \"--CODEGEN--\":5:7   */\n      iszero\n      tag_1\n      jumpi\n        /* \"--CODEGEN--\":30:31   */\n      0x00\n        /* \"--CODEGEN--\":27:28   */\n      dup1\n        /* \"--CODEGEN--\":20:32   */\n      revert\n        /* \"--CODEGEN--\":5:7   */\n    tag_1:\n        /* \"input/NOIAVault.sol\":24956:31204  contract NOIAToken is TokenRecoverable, ERC20 {... */\n      pop\n      jumpi(tag_2, lt(calldatasize, 0x04))\n      shr(0xe0, calldataload(0x00))\n      dup1\n      0x70a08231\n      gt\n      tag_32\n      jumpi\n      dup1\n      0x95d89b41\n      gt\n      tag_33\n      jumpi\n      dup1\n      0xcbb98c3f\n      gt\n      tag_34\n      jumpi\n      dup1\n      0xcbb98c3f\n      eq\n      tag_28\n      jumpi\n      dup1\n      0xdd62ed3e\n      eq\n      tag_29\n      jumpi\n      dup1\n      0xe79a198f\n      eq\n      tag_30\n      jumpi\n      dup1\n      0xf2fde38b\n      eq\n      tag_31\n      jumpi\n      jump(tag_2)\n    tag_34:\n      dup1\n      0x95d89b41\n      eq\n      tag_24\n      jumpi\n      dup1\n      0xa457c2d7\n      eq\n      tag_25\n      jumpi\n      dup1\n      0xa9059cbb\n      eq\n      tag_26\n      jumpi\n      dup1\n      0xcbafee8a\n      eq\n      tag_27\n      jumpi\n      jump(tag_2)\n    tag_33:\n      dup1\n      0x74686fd2\n      gt\n      tag_35\n      jumpi\n      dup1\n      0x74686fd2\n      eq\n      tag_20\n      jumpi\n      dup1\n      0x8c680798\n      eq\n      tag_21\n      jumpi\n      dup1\n      0x8da5cb5b\n      eq\n      tag_22\n      jumpi\n      dup1\n      0x8f32d59b\n      eq\n      tag_23\n      jumpi\n      jump(tag_2)\n    tag_35:\n      dup1\n      0x70a08231\n      eq\n      tag_17\n      jumpi\n      dup1\n      0x70d5ae05\n      eq\n      tag_18\n      jumpi\n      dup1\n      0x715018a6\n      eq\n      tag_19\n      jumpi\n      jump(tag_2)\n    tag_32:\n      dup1\n      0x39509351\n      gt\n      tag_36\n      jumpi\n      dup1\n      0x4b0e7216\n      gt\n      tag_37\n      jumpi\n      dup1\n      0x4b0e7216\n      eq\n      tag_13\n      jumpi\n      dup1\n      0x59c42cc4\n      eq\n      tag_14\n      jumpi\n      dup1\n      0x5f3e849f\n      eq\n      tag_15\n      jumpi\n      dup1\n      0x5fb9cf20\n      eq\n      tag_16\n      jumpi\n      jump(tag_2)\n    tag_37:\n      dup1\n      0x39509351\n      eq\n      tag_10\n      jumpi\n      dup1\n      0x40c10f19\n      eq\n      tag_11\n      jumpi\n      dup1\n      0x42966c68\n      eq\n      tag_12\n      jumpi\n      jump(tag_2)\n    tag_36:\n      dup1\n      0x18160ddd\n      gt\n      tag_38\n      jumpi\n      dup1\n      0x18160ddd\n      eq\n      tag_6\n      jumpi\n      dup1\n      0x1aa3a008\n      eq\n      tag_7\n      jumpi\n      dup1\n      0x23b872dd\n      eq\n      tag_8\n      jumpi\n      dup1\n      0x313ce567\n      eq\n      tag_9\n      jumpi\n      jump(tag_2)\n    tag_38:\n      dup1\n      0x06fdde03\n      eq\n      tag_3\n      jumpi\n      dup1\n      0x095ea7b3\n      eq\n      tag_4\n      jumpi\n      dup1\n      0x1296830d\n      eq\n      tag_5\n      jumpi\n    tag_2:\n      0x00\n      dup1\n      revert\n        /* \"input/NOIAVault.sol\":25101:25143  string public constant name = \"NOIA Token\" */\n    tag_3:\n      tag_39\n      tag_40\n      jump\t// in\n    tag_39:\n      mload(0x40)\n      dup1\n      dup1\n      0x20\n      add\n      dup3\n      dup2\n      sub\n      dup3\n      mstore\n      dup4\n      dup2\n      dup2\n      mload\n      dup2\n      mstore\n      0x20\n      add\n      swap2\n      pop\n      dup1\n      mload\n      swap1\n      0x20\n      add\n      swap1\n      dup1\n      dup4\n      dup4\n        /* \"--CODEGEN--\":23:24   */\n      0x00\n        /* \"--CODEGEN--\":8:108   */\n    tag_41:\n        /* \"--CODEGEN--\":33:36   */\n      dup4\n        /* \"--CODEGEN--\":30:31   */\n      dup2\n        /* \"--CODEGEN--\":27:37   */\n      lt\n        /* \"--CODEGEN--\":8:108   */\n      iszero\n      tag_43\n      jumpi\n        /* \"--CODEGEN--\":99:100   */\n      dup1\n        /* \"--CODEGEN--\":94:97   */\n      dup3\n        /* \"--CODEGEN--\":90:101   */\n      add\n        /* \"--CODEGEN--\":84:102   */\n      mload\n        /* \"--CODEGEN--\":80:81   */\n      dup2\n        /* \"--CODEGEN--\":75:78   */\n      dup5\n        /* \"--CODEGEN--\":71:82   */\n      add\n        /* \"--CODEGEN--\":64:103   */\n      mstore\n        /* \"--CODEGEN--\":52:54   */\n      0x20\n        /* \"--CODEGEN--\":49:50   */\n      dup2\n        /* \"--CODEGEN--\":45:55   */\n      add\n        /* \"--CODEGEN--\":40:55   */\n      swap1\n      pop\n        /* \"--CODEGEN--\":8:108   */\n      jump(tag_41)\n    tag_43:\n        /* \"--CODEGEN--\":12:26   */\n      pop\n        /* \"input/NOIAVault.sol\":25101:25143  string public constant name = \"NOIA Token\" */\n      pop\n      pop\n      pop\n      swap1\n      pop\n      swap1\n      dup2\n      add\n      swap1\n      0x1f\n      and\n      dup1\n      iszero\n      tag_44\n      jumpi\n      dup1\n      dup3\n      sub\n      dup1\n      mload\n      0x01\n      dup4\n      0x20\n      sub\n      0x0100\n      exp\n      sub\n      not\n      and\n      dup2\n      mstore\n      0x20\n      add\n      swap2\n      pop\n    tag_44:\n      pop\n      swap3\n      pop\n      pop\n      pop\n      mload(0x40)\n      dup1\n      swap2\n      sub\n      swap1\n      return\n        /* \"input/NOIAVault.sol\":16808:16953  function approve(address spender, uint256 value) public returns (bool) {... */\n    tag_4:\n      tag_45\n      0x04\n      dup1\n      calldatasize\n      sub\n        /* \"--CODEGEN--\":13:15   */\n      0x40\n        /* \"--CODEGEN--\":8:11   */\n      dup2\n        /* \"--CODEGEN--\":5:16   */\n      lt\n        /* \"--CODEGEN--\":2:4   */\n      iszero\n      tag_46\n      jumpi\n        /* \"--CODEGEN--\":29:30   */\n      0x00\n        /* \"--CODEGEN--\":26:27   */\n      dup1\n        /* \"--CODEGEN--\":19:31   */\n      revert\n        /* \"--CODEGEN--\":2:4   */\n    tag_46:\n        /* \"input/NOIAVault.sol\":16808:16953  function approve(address spender, uint256 value) public returns (bool) {... */\n      dup2\n      add\n      swap1\n      dup1\n      dup1\n      calldataload\n      0xffffffffffffffffffffffffffffffffffffffff\n      and\n      swap1\n      0x20\n      add\n      swap1\n      swap3\n      swap2\n      swap1\n      dup1\n      calldataload\n      swap1\n      0x20\n      add\n      swap1\n      swap3\n      swap2\n      swap1\n      pop\n      pop\n      pop\n      tag_47\n      jump\t// in\n    tag_45:\n      mload(0x40)\n      dup1\n      dup3\n      iszero\n      iszero\n      iszero\n      iszero\n      dup2\n      mstore\n      0x20\n      add\n      swap2\n      pop\n      pop\n      mload(0x40)\n      dup1\n      swap2\n      sub\n      swap1\n      return\n        /* \"input/NOIAVault.sol\":29275:30450  function transferPreSigned(... */\n    tag_5:\n      tag_48\n      0x04\n      dup1\n      calldatasize\n      sub\n        /* \"--CODEGEN--\":13:16   */\n      0xa0\n        /* \"--CODEGEN--\":8:11   */\n      dup2\n        /* \"--CODEGEN--\":5:17   */\n      lt\n        /* \"--CODEGEN--\":2:4   */\n      iszero\n      tag_49\n      jumpi\n        /* \"--CODEGEN--\":30:31   */\n      0x00\n        /* \"--CODEGEN--\":27:28   */\n      dup1\n        /* \"--CODEGEN--\":20:32   */\n      revert\n        /* \"--CODEGEN--\":2:4   */\n    tag_49:\n        /* \"input/NOIAVault.sol\":29275:30450  function transferPreSigned(... */\n      dup2\n      add\n      swap1\n      dup1\n      dup1\n      calldataload\n      swap1\n      0x20\n      add\n      swap1\n        /* \"--CODEGEN--\":21:32   */\n      0x0100000000\n        /* \"--CODEGEN--\":8:19   */\n      dup2\n        /* \"--CODEGEN--\":5:33   */\n      gt\n        /* \"--CODEGEN--\":2:4   */\n      iszero\n      tag_50\n      jumpi\n        /* \"--CODEGEN--\":46:47   */\n      0x00\n        /* \"--CODEGEN--\":43:44   */\n      dup1\n        /* \"--CODEGEN--\":36:48   */\n      revert\n        /* \"--CODEGEN--\":2:4   */\n    tag_50:\n        /* \"input/NOIAVault.sol\":29275:30450  function transferPreSigned(... */\n      dup3\n      add\n        /* \"--CODEGEN--\":35:44   */\n      dup4\n        /* \"--CODEGEN--\":28:32   */\n      0x20\n        /* \"--CODEGEN--\":12:26   */\n      dup3\n        /* \"--CODEGEN--\":8:33   */\n      add\n        /* \"--CODEGEN--\":5:45   */\n      gt\n        /* \"--CODEGEN--\":2:4   */\n      iszero\n      tag_51\n      jumpi\n        /* \"--CODEGEN--\":58:59   */\n      0x00\n        /* \"--CODEGEN--\":55:56   */\n      dup1\n        /* \"--CODEGEN--\":48:60   */\n      revert\n        /* \"--CODEGEN--\":2:4   */\n    tag_51:\n        /* \"input/NOIAVault.sol\":29275:30450  function transferPreSigned(... */\n      dup1\n      calldataload\n      swap1\n      0x20\n      add\n      swap2\n        /* \"--CODEGEN--\":100:109   */\n      dup5\n        /* \"--CODEGEN--\":95:96   */\n      0x01\n        /* \"--CODEGEN--\":81:93   */\n      dup4\n        /* \"--CODEGEN--\":77:97   */\n      mul\n        /* \"--CODEGEN--\":67:75   */\n      dup5\n        /* \"--CODEGEN--\":63:98   */\n      add\n        /* \"--CODEGEN--\":60:110   */\n      gt\n        /* \"--CODEGEN--\":39:50   */\n      0x0100000000\n        /* \"--CODEGEN--\":25:37   */\n      dup4\n        /* \"--CODEGEN--\":22:51   */\n      gt\n        /* \"--CODEGEN--\":11:118   */\n      or\n        /* \"--CODEGEN--\":8:10   */\n      iszero\n      tag_52\n      jumpi\n        /* \"--CODEGEN--\":131:132   */\n      0x00\n        /* \"--CODEGEN--\":128:129   */\n      dup1\n        /* \"--CODEGEN--\":121:133   */\n      revert\n        /* \"--CODEGEN--\":8:10   */\n    tag_52:\n        /* \"input/NOIAVault.sol\":29275:30450  function transferPreSigned(... */\n      swap2\n      swap1\n      dup1\n      dup1\n      0x1f\n      add\n      0x20\n      dup1\n      swap2\n      div\n      mul\n      0x20\n      add\n      mload(0x40)\n      swap1\n      dup2\n      add\n      0x40\n      mstore\n      dup1\n      swap4\n      swap3\n      swap2\n      swap1\n      dup2\n      dup2\n      mstore\n      0x20\n      add\n      dup4\n      dup4\n        /* \"--CODEGEN--\":30:33   */\n      dup1\n        /* \"--CODEGEN--\":22:28   */\n      dup3\n        /* \"--CODEGEN--\":14:20   */\n      dup5\n        /* \"--CODEGEN--\":1:34   */\n      calldatacopy\n        /* \"--CODEGEN--\":99:100   */\n      0x00\n        /* \"--CODEGEN--\":93:96   */\n      dup2\n        /* \"--CODEGEN--\":85:91   */\n      dup5\n        /* \"--CODEGEN--\":81:97   */\n      add\n        /* \"--CODEGEN--\":74:101   */\n      mstore\n        /* \"--CODEGEN--\":137:141   */\n      0x1f\n        /* \"--CODEGEN--\":133:142   */\n      not\n        /* \"--CODEGEN--\":126:130   */\n      0x1f\n        /* \"--CODEGEN--\":121:124   */\n      dup3\n        /* \"--CODEGEN--\":117:131   */\n      add\n        /* \"--CODEGEN--\":113:143   */\n      and\n        /* \"--CODEGEN--\":106:143   */\n      swap1\n      pop\n        /* \"--CODEGEN--\":169:172   */\n      dup1\n        /* \"--CODEGEN--\":161:167   */\n      dup4\n        /* \"--CODEGEN--\":157:173   */\n      add\n        /* \"--CODEGEN--\":147:173   */\n      swap3\n      pop\n        /* \"input/NOIAVault.sol\":29275:30450  function transferPreSigned(... */\n      pop\n      pop\n      pop\n      pop\n      pop\n      pop\n      swap2\n      swap3\n      swap2\n      swap3\n      swap1\n      dup1\n      calldataload\n      0xffffffffffffffffffffffffffffffffffffffff\n      and\n      swap1\n      0x20\n      add\n      swap1\n      swap3\n      swap2\n      swap1\n      dup1\n      calldataload\n      swap1\n      0x20\n      add\n      swap1\n      swap3\n      swap2\n      swap1\n      dup1\n      calldataload\n      swap1\n      0x20\n      add\n      swap1\n      swap3\n      swap2\n      swap1\n      dup1\n      calldataload\n      swap1\n      0x20\n      add\n      swap1\n      swap3\n      swap2\n      swap1\n      pop\n      pop\n      pop\n      tag_53\n      jump\t// in\n    tag_48:\n      mload(0x40)\n      dup1\n      dup3\n      iszero\n      iszero\n      iszero\n      iszero\n      dup2\n      mstore\n      0x20\n      add\n      swap2\n      pop\n      pop\n      mload(0x40)\n      dup1\n      swap2\n      sub\n      swap1\n      return\n        /* \"input/NOIAVault.sol\":15869:15958  function totalSupply() public view returns (uint256) {... */\n    tag_6:\n      tag_54\n      tag_55\n      jump\t// in\n    tag_54:\n      mload(0x40)\n      dup1\n      dup3\n      dup2\n      mstore\n      0x20\n      add\n      swap2\n      pop\n      pop\n      mload(0x40)\n      dup1\n      swap2\n      sub\n      swap1\n      return\n        /* \"input/NOIAVault.sol\":25774:25843  function register() public {... */\n    tag_7:\n      tag_56\n      tag_57\n      jump\t// in\n    tag_56:\n      stop\n        /* \"input/NOIAVault.sol\":26996:27249  function transferFrom(address from, address to, uint256 value) public returns (bool) {... */\n    tag_8:\n      tag_58\n      0x04\n      dup1\n      calldatasize\n      sub\n        /* \"--CODEGEN--\":13:15   */\n      0x60\n        /* \"--CODEGEN--\":8:11   */\n      dup2\n        /* \"--CODEGEN--\":5:16   */\n      lt\n        /* \"--CODEGEN--\":2:4   */\n      iszero\n      tag_59\n      jumpi\n        /* \"--CODEGEN--\":29:30   */\n      0x00\n        /* \"--CODEGEN--\":26:27   */\n      dup1\n        /* \"--CODEGEN--\":19:31   */\n      revert\n        /* \"--CODEGEN--\":2:4   */\n    tag_59:\n        /* \"input/NOIAVault.sol\":26996:27249  function transferFrom(address from, address to, uint256 value) public returns (bool) {... */\n      dup2\n      add\n      swap1\n      dup1\n      dup1\n      calldataload\n      0xffffffffffffffffffffffffffffffffffffffff\n      and\n      swap1\n      0x20\n      add\n      swap1\n      swap3\n      swap2\n      swap1\n      dup1\n      calldataload\n      0xffffffffffffffffffffffffffffffffffffffff\n      and\n      swap1\n      0x20\n      add\n      swap1\n      swap3\n      swap2\n      swap1\n      dup1\n      calldataload\n      swap1\n      0x20\n      add\n      swap1\n      swap3\n      swap2\n      swap1\n      pop\n      pop\n      pop\n      tag_60\n      jump\t// in\n    tag_58:\n      mload(0x40)\n      dup1\n      dup3\n      iszero\n      iszero\n      iszero\n      iszero\n      dup2\n      mstore\n      0x20\n      add\n      swap2\n      pop\n      pop\n      mload(0x40)\n      dup1\n      swap2\n      sub\n      swap1\n      return\n        /* \"input/NOIAVault.sol\":25193:25235  uint8 public constant decimals = uint8(18) */\n    tag_9:\n      tag_61\n      tag_62\n      jump\t// in\n    tag_61:\n      mload(0x40)\n      dup1\n      dup3\n      0xff\n      and\n      0xff\n      and\n      dup2\n      mstore\n      0x20\n      add\n      swap2\n      pop\n      pop\n      mload(0x40)\n      dup1\n      swap2\n      sub\n      swap1\n      return\n        /* \"input/NOIAVault.sol\":18057:18260  function increaseAllowance(address spender, uint256 addedValue) public returns (bool) {... */\n    tag_10:\n      tag_63\n      0x04\n      dup1\n      calldatasize\n      sub\n        /* \"--CODEGEN--\":13:15   */\n      0x40\n        /* \"--CODEGEN--\":8:11   */\n      dup2\n        /* \"--CODEGEN--\":5:16   */\n      lt\n        /* \"--CODEGEN--\":2:4   */\n      iszero\n      tag_64\n      jumpi\n        /* \"--CODEGEN--\":29:30   */\n      0x00\n        /* \"--CODEGEN--\":26:27   */\n      dup1\n        /* \"--CODEGEN--\":19:31   */\n      revert\n        /* \"--CODEGEN--\":2:4   */\n    tag_64:\n        /* \"input/NOIAVault.sol\":18057:18260  function increaseAllowance(address spender, uint256 addedValue) public returns (bool) {... */\n      dup2\n      add\n      swap1\n      dup1\n      dup1\n      calldataload\n      0xffffffffffffffffffffffffffffffffffffffff\n      and\n      swap1\n      0x20\n      add\n      swap1\n      swap3\n      swap2\n      swap1\n      dup1\n      calldataload\n      swap1\n      0x20\n      add\n      swap1\n      swap3\n      swap2\n      swap1\n      pop\n      pop\n      pop\n      tag_65\n      jump\t// in\n    tag_63:\n      mload(0x40)\n      dup1\n      dup3\n      iszero\n      iszero\n      iszero\n      iszero\n      dup2\n      mstore\n      0x20\n      add\n      swap2\n      pop\n      pop\n      mload(0x40)\n      dup1\n      swap2\n      sub\n      swap1\n      return\n        /* \"input/NOIAVault.sol\":28030:28324  function mint(address to, uint256 value) public onlyOwner returns (bool) {... */\n    tag_11:\n      tag_66\n      0x04\n      dup1\n      calldatasize\n      sub\n        /* \"--CODEGEN--\":13:15   */\n      0x40\n        /* \"--CODEGEN--\":8:11   */\n      dup2\n        /* \"--CODEGEN--\":5:16   */\n      lt\n        /* \"--CODEGEN--\":2:4   */\n      iszero\n      tag_67\n      jumpi\n        /* \"--CODEGEN--\":29:30   */\n      0x00\n        /* \"--CODEGEN--\":26:27   */\n      dup1\n        /* \"--CODEGEN--\":19:31   */\n      revert\n        /* \"--CODEGEN--\":2:4   */\n    tag_67:\n        /* \"input/NOIAVault.sol\":28030:28324  function mint(address to, uint256 value) public onlyOwner returns (bool) {... */\n      dup2\n      add\n      swap1\n      dup1\n      dup1\n      calldataload\n      0xffffffffffffffffffffffffffffffffffffffff\n      and\n      swap1\n      0x20\n      add\n      swap1\n      swap3\n      swap2\n      swap1\n      dup1\n      calldataload\n      swap1\n      0x20\n      add\n      swap1\n      swap3\n      swap2\n      swap1\n      pop\n      pop\n      pop\n      tag_68\n      jump\t// in\n    tag_66:\n      mload(0x40)\n      dup1\n      dup3\n      iszero\n      iszero\n      iszero\n      iszero\n      dup2\n      mstore\n      0x20\n      add\n      swap2\n      pop\n      pop\n      mload(0x40)\n      dup1\n      swap2\n      sub\n      swap1\n      return\n        /* \"input/NOIAVault.sol\":28447:28604  function burn(uint256 value) public {... */\n    tag_12:\n      tag_69\n      0x04\n      dup1\n      calldatasize\n      sub\n        /* \"--CODEGEN--\":13:15   */\n      0x20\n        /* \"--CODEGEN--\":8:11   */\n      dup2\n        /* \"--CODEGEN--\":5:16   */\n      lt\n        /* \"--CODEGEN--\":2:4   */\n      iszero\n      tag_70\n      jumpi\n        /* \"--CODEGEN--\":29:30   */\n      0x00\n        /* \"--CODEGEN--\":26:27   */\n      dup1\n        /* \"--CODEGEN--\":19:31   */\n      revert\n        /* \"--CODEGEN--\":2:4   */\n    tag_70:\n        /* \"input/NOIAVault.sol\":28447:28604  function burn(uint256 value) public {... */\n      dup2\n      add\n      swap1\n      dup1\n      dup1\n      calldataload\n      swap1\n      0x20\n      add\n      swap1\n      swap3\n      swap2\n      swap1\n      pop\n      pop\n      pop\n      tag_71\n      jump\t// in\n    tag_69:\n      stop\n        /* \"input/NOIAVault.sol\":28610:28806  function setBurnAddress(address _burnAddress) external onlyOwner {... */\n    tag_13:\n      tag_72\n      0x04\n      dup1\n      calldatasize\n      sub\n        /* \"--CODEGEN--\":13:15   */\n      0x20\n        /* \"--CODEGEN--\":8:11   */\n      dup2\n        /* \"--CODEGEN--\":5:16   */\n      lt\n        /* \"--CODEGEN--\":2:4   */\n      iszero\n      tag_73\n      jumpi\n        /* \"--CODEGEN--\":29:30   */\n      0x00\n        /* \"--CODEGEN--\":26:27   */\n      dup1\n        /* \"--CODEGEN--\":19:31   */\n      revert\n        /* \"--CODEGEN--\":2:4   */\n    tag_73:\n        /* \"input/NOIAVault.sol\":28610:28806  function setBurnAddress(address _burnAddress) external onlyOwner {... */\n      dup2\n      add\n      swap1\n      dup1\n      dup1\n      calldataload\n      0xffffffffffffffffffffffffffffffffffffffff\n      and\n      swap1\n      0x20\n      add\n      swap1\n      swap3\n      swap2\n      swap1\n      pop\n      pop\n      pop\n      tag_74\n      jump\t// in\n    tag_72:\n      stop\n        /* \"input/NOIAVault.sol\":25439:25482  bool public etherlessTransferEnabled = true */\n    tag_14:\n      tag_75\n      tag_76\n      jump\t// in\n    tag_75:\n      mload(0x40)\n      dup1\n      dup3\n      iszero\n      iszero\n      iszero\n      iszero\n      dup2\n      mstore\n      0x20\n      add\n      swap2\n      pop\n      pop\n      mload(0x40)\n      dup1\n      swap2\n      sub\n      swap1\n      return\n        /* \"input/NOIAVault.sol\":24682:24952  function recoverTokens(IERC20 token, address to, uint256 amount) public onlyOwner {... */\n    tag_15:\n      tag_77\n      0x04\n      dup1\n      calldatasize\n      sub\n        /* \"--CODEGEN--\":13:15   */\n      0x60\n        /* \"--CODEGEN--\":8:11   */\n      dup2\n        /* \"--CODEGEN--\":5:16   */\n      lt\n        /* \"--CODEGEN--\":2:4   */\n      iszero\n      tag_78\n      jumpi\n        /* \"--CODEGEN--\":29:30   */\n      0x00\n        /* \"--CODEGEN--\":26:27   */\n      dup1\n        /* \"--CODEGEN--\":19:31   */\n      revert\n        /* \"--CODEGEN--\":2:4   */\n    tag_78:\n        /* \"input/NOIAVault.sol\":24682:24952  function recoverTokens(IERC20 token, address to, uint256 amount) public onlyOwner {... */\n      dup2\n      add\n      swap1\n      dup1\n      dup1\n      calldataload\n      0xffffffffffffffffffffffffffffffffffffffff\n      and\n      swap1\n      0x20\n      add\n      swap1\n      swap3\n      swap2\n      swap1\n      dup1\n      calldataload\n      0xffffffffffffffffffffffffffffffffffffffff\n      and\n      swap1\n      0x20\n      add\n      swap1\n      swap3\n      swap2\n      swap1\n      dup1\n      calldataload\n      swap1\n      0x20\n      add\n      swap1\n      swap3\n      swap2\n      swap1\n      pop\n      pop\n      pop\n      tag_79\n      jump\t// in\n    tag_77:\n      stop\n        /* \"input/NOIAVault.sol\":25347:25385  mapping(address => bool) public notify */\n    tag_16:\n      tag_80\n      0x04\n      dup1\n      calldatasize\n      sub\n        /* \"--CODEGEN--\":13:15   */\n      0x20\n        /* \"--CODEGEN--\":8:11   */\n      dup2\n        /* \"--CODEGEN--\":5:16   */\n      lt\n        /* \"--CODEGEN--\":2:4   */\n      iszero\n      tag_81\n      jumpi\n        /* \"--CODEGEN--\":29:30   */\n      0x00\n        /* \"--CODEGEN--\":26:27   */\n      dup1\n        /* \"--CODEGEN--\":19:31   */\n      revert\n        /* \"--CODEGEN--\":2:4   */\n    tag_81:\n        /* \"input/NOIAVault.sol\":25347:25385  mapping(address => bool) public notify */\n      dup2\n      add\n      swap1\n      dup1\n      dup1\n      calldataload\n      0xffffffffffffffffffffffffffffffffffffffff\n      and\n      swap1\n      0x20\n      add\n      swap1\n      swap3\n      swap2\n      swap1\n      pop\n      pop\n      pop\n      tag_82\n      jump\t// in\n    tag_80:\n      mload(0x40)\n      dup1\n      dup3\n      iszero\n      iszero\n      iszero\n      iszero\n      dup2\n      mstore\n      0x20\n      add\n      swap2\n      pop\n      pop\n      mload(0x40)\n      dup1\n      swap2\n      sub\n      swap1\n      return\n        /* \"input/NOIAVault.sol\":16016:16124  function balanceOf(address account) public view returns (uint256) {... */\n    tag_17:\n      tag_83\n      0x04\n      dup1\n      calldatasize\n      sub\n        /* \"--CODEGEN--\":13:15   */\n      0x20\n        /* \"--CODEGEN--\":8:11   */\n      dup2\n        /* \"--CODEGEN--\":5:16   */\n      lt\n        /* \"--CODEGEN--\":2:4   */\n      iszero\n      tag_84\n      jumpi\n        /* \"--CODEGEN--\":29:30   */\n      0x00\n        /* \"--CODEGEN--\":26:27   */\n      dup1\n        /* \"--CODEGEN--\":19:31   */\n      revert\n        /* \"--CODEGEN--\":2:4   */\n    tag_84:\n        /* \"input/NOIAVault.sol\":16016:16124  function balanceOf(address account) public view returns (uint256) {... */\n      dup2\n      add\n      swap1\n      dup1\n      dup1\n      calldataload\n      0xffffffffffffffffffffffffffffffffffffffff\n      and\n      swap1\n      0x20\n      add\n      swap1\n      swap3\n      swap2\n      swap1\n      pop\n      pop\n      pop\n      tag_85\n      jump\t// in\n    tag_83:\n      mload(0x40)\n      dup1\n      dup3\n      dup2\n      mstore\n      0x20\n      add\n      swap2\n      pop\n      pop\n      mload(0x40)\n      dup1\n      swap2\n      sub\n      swap1\n      return\n        /* \"input/NOIAVault.sol\":25315:25341  address public burnAddress */\n    tag_18:\n      tag_86\n      tag_87\n      jump\t// in\n    tag_86:\n      mload(0x40)\n      dup1\n      dup3\n      0xffffffffffffffffffffffffffffffffffffffff\n      and\n      0xffffffffffffffffffffffffffffffffffffffff\n      and\n      dup2\n      mstore\n      0x20\n      add\n      swap2\n      pop\n      pop\n      mload(0x40)\n      dup1\n      swap2\n      sub\n      swap1\n      return\n        /* \"input/NOIAVault.sol\":23742:23879  function renounceOwnership() public onlyOwner {... */\n    tag_19:\n      tag_88\n      tag_89\n      jump\t// in\n    tag_88:\n      stop\n        /* \"input/NOIAVault.sol\":25927:26027  function enableEtherlessTransfer() public onlyOwner {... */\n    tag_20:\n      tag_90\n      tag_91\n      jump\t// in\n    tag_90:\n      stop\n        /* \"input/NOIAVault.sol\":26033:26135  function disableEtherlessTransfer() public onlyOwner {... */\n    tag_21:\n      tag_92\n      tag_93\n      jump\t// in\n    tag_92:\n      stop\n        /* \"input/NOIAVault.sol\":22957:23034  function owner() public view returns (address) {... */\n    tag_22:\n      tag_94\n      tag_95\n      jump\t// in\n    tag_94:\n      mload(0x40)\n      dup1\n      dup3\n      0xffffffffffffffffffffffffffffffffffffffff\n      and\n      0xffffffffffffffffffffffffffffffffffffffff\n      and\n      dup2\n      mstore\n      0x20\n      add\n      swap2\n      pop\n      pop\n      mload(0x40)\n      dup1\n      swap2\n      sub\n      swap1\n      return\n        /* \"input/NOIAVault.sol\":23308:23398  function isOwner() public view returns (bool) {... */\n    tag_23:\n      tag_96\n      tag_97\n      jump\t// in\n    tag_96:\n      mload(0x40)\n      dup1\n      dup3\n      iszero\n      iszero\n      iszero\n      iszero\n      dup2\n      mstore\n      0x20\n      add\n      swap2\n      pop\n      pop\n      mload(0x40)\n      dup1\n      swap2\n      sub\n      swap1\n      return\n        /* \"input/NOIAVault.sol\":25149:25187  string public constant symbol = \"NOIA\" */\n    tag_24:\n      tag_98\n      tag_99\n      jump\t// in\n    tag_98:\n      mload(0x40)\n      dup1\n      dup1\n      0x20\n      add\n      dup3\n      dup2\n      sub\n      dup3\n      mstore\n      dup4\n      dup2\n      dup2\n      mload\n      dup2\n      mstore\n      0x20\n      add\n      swap2\n      pop\n      dup1\n      mload\n      swap1\n      0x20\n      add\n      swap1\n      dup1\n      dup4\n      dup4\n        /* \"--CODEGEN--\":23:24   */\n      0x00\n        /* \"--CODEGEN--\":8:108   */\n    tag_100:\n        /* \"--CODEGEN--\":33:36   */\n      dup4\n        /* \"--CODEGEN--\":30:31   */\n      dup2\n        /* \"--CODEGEN--\":27:37   */\n      lt\n        /* \"--CODEGEN--\":8:108   */\n      iszero\n      tag_102\n      jumpi\n        /* \"--CODEGEN--\":99:100   */\n      dup1\n        /* \"--CODEGEN--\":94:97   */\n      dup3\n        /* \"--CODEGEN--\":90:101   */\n      add\n        /* \"--CODEGEN--\":84:102   */\n      mload\n        /* \"--CODEGEN--\":80:81   */\n      dup2\n        /* \"--CODEGEN--\":75:78   */\n      dup5\n        /* \"--CODEGEN--\":71:82   */\n      add\n        /* \"--CODEGEN--\":64:103   */\n      mstore\n        /* \"--CODEGEN--\":52:54   */\n      0x20\n        /* \"--CODEGEN--\":49:50   */\n      dup2\n        /* \"--CODEGEN--\":45:55   */\n      add\n        /* \"--CODEGEN--\":40:55   */\n      swap1\n      pop\n        /* \"--CODEGEN--\":8:108   */\n      jump(tag_100)\n    tag_102:\n        /* \"--CODEGEN--\":12:26   */\n      pop\n        /* \"input/NOIAVault.sol\":25149:25187  string public constant symbol = \"NOIA\" */\n      pop\n      pop\n      pop\n      swap1\n      pop\n      swap1\n      dup2\n      add\n      swap1\n      0x1f\n      and\n      dup1\n      iszero\n      tag_103\n      jumpi\n      dup1\n      dup3\n      sub\n      dup1\n      mload\n      0x01\n      dup4\n      0x20\n      sub\n      0x0100\n      exp\n      sub\n      not\n      and\n      dup2\n      mstore\n      0x20\n      add\n      swap2\n      pop\n    tag_103:\n      pop\n      swap3\n      pop\n      pop\n      pop\n      mload(0x40)\n      dup1\n      swap2\n      sub\n      swap1\n      return\n        /* \"input/NOIAVault.sol\":18747:18960  function decreaseAllowance(address spender, uint256 subtractedValue) public returns (bool) {... */\n    tag_25:\n      tag_104\n      0x04\n      dup1\n      calldatasize\n      sub\n        /* \"--CODEGEN--\":13:15   */\n      0x40\n        /* \"--CODEGEN--\":8:11   */\n      dup2\n        /* \"--CODEGEN--\":5:16   */\n      lt\n        /* \"--CODEGEN--\":2:4   */\n      iszero\n      tag_105\n      jumpi\n        /* \"--CODEGEN--\":29:30   */\n      0x00\n        /* \"--CODEGEN--\":26:27   */\n      dup1\n        /* \"--CODEGEN--\":19:31   */\n      revert\n        /* \"--CODEGEN--\":2:4   */\n    tag_105:\n        /* \"input/NOIAVault.sol\":18747:18960  function decreaseAllowance(address spender, uint256 subtractedValue) public returns (bool) {... */\n      dup2\n      add\n      swap1\n      dup1\n      dup1\n      calldataload\n      0xffffffffffffffffffffffffffffffffffffffff\n      and\n      swap1\n      0x20\n      add\n      swap1\n      swap3\n      swap2\n      swap1\n      dup1\n      calldataload\n      swap1\n      0x20\n      add\n      swap1\n      swap3\n      swap2\n      swap1\n      pop\n      pop\n      pop\n      tag_106\n      jump\t// in\n    tag_104:\n      mload(0x40)\n      dup1\n      dup3\n      iszero\n      iszero\n      iszero\n      iszero\n      dup2\n      mstore\n      0x20\n      add\n      swap2\n      pop\n      pop\n      mload(0x40)\n      dup1\n      swap2\n      sub\n      swap1\n      return\n        /* \"input/NOIAVault.sol\":26302:26533  function transfer(address to, uint256 value) public returns (bool) {... */\n    tag_26:\n      tag_107\n      0x04\n      dup1\n      calldatasize\n      sub\n        /* \"--CODEGEN--\":13:15   */\n      0x40\n        /* \"--CODEGEN--\":8:11   */\n      dup2\n        /* \"--CODEGEN--\":5:16   */\n      lt\n        /* \"--CODEGEN--\":2:4   */\n      iszero\n      tag_108\n      jumpi\n        /* \"--CODEGEN--\":29:30   */\n      0x00\n        /* \"--CODEGEN--\":26:27   */\n      dup1\n        /* \"--CODEGEN--\":19:31   */\n      revert\n        /* \"--CODEGEN--\":2:4   */\n    tag_108:\n        /* \"input/NOIAVault.sol\":26302:26533  function transfer(address to, uint256 value) public returns (bool) {... */\n      dup2\n      add\n      swap1\n      dup1\n      dup1\n      calldataload\n      0xffffffffffffffffffffffffffffffffffffffff\n      and\n      swap1\n      0x20\n      add\n      swap1\n      swap3\n      swap2\n      swap1\n      dup1\n      calldataload\n      swap1\n      0x20\n      add\n      swap1\n      swap3\n      swap2\n      swap1\n      pop\n      pop\n      pop\n      tag_109\n      jump\t// in\n    tag_107:\n      mload(0x40)\n      dup1\n      dup3\n      iszero\n      iszero\n      iszero\n      iszero\n      dup2\n      mstore\n      0x20\n      add\n      swap2\n      pop\n      pop\n      mload(0x40)\n      dup1\n      swap2\n      sub\n      swap1\n      return\n        /* \"input/NOIAVault.sol\":25242:25285  uint256 public tokensToMint = 1000000000e18 */\n    tag_27:\n      tag_110\n      tag_111\n      jump\t// in\n    tag_110:\n      mload(0x40)\n      dup1\n      dup3\n      dup2\n      mstore\n      0x20\n      add\n      swap2\n      pop\n      pop\n      mload(0x40)\n      dup1\n      swap2\n      sub\n      swap1\n      return\n        /* \"input/NOIAVault.sol\":30879:31202  function hashForSign(... */\n    tag_28:\n      tag_112\n      0x04\n      dup1\n      calldatasize\n      sub\n        /* \"--CODEGEN--\":13:16   */\n      0xc0\n        /* \"--CODEGEN--\":8:11   */\n      dup2\n        /* \"--CODEGEN--\":5:17   */\n      lt\n        /* \"--CODEGEN--\":2:4   */\n      iszero\n      tag_113\n      jumpi\n        /* \"--CODEGEN--\":30:31   */\n      0x00\n        /* \"--CODEGEN--\":27:28   */\n      dup1\n        /* \"--CODEGEN--\":20:32   */\n      revert\n        /* \"--CODEGEN--\":2:4   */\n    tag_113:\n        /* \"input/NOIAVault.sol\":30879:31202  function hashForSign(... */\n      dup2\n      add\n      swap1\n      dup1\n      dup1\n      calldataload\n      not(0xffffffffffffffffffffffffffffffffffffffffffffffffffffffff)\n      and\n      swap1\n      0x20\n      add\n      swap1\n      swap3\n      swap2\n      swap1\n      dup1\n      calldataload\n      0xffffffffffffffffffffffffffffffffffffffff\n      and\n      swap1\n      0x20\n      add\n      swap1\n      swap3\n      swap2\n      swap1\n      dup1\n      calldataload\n      0xffffffffffffffffffffffffffffffffffffffff\n      and\n      swap1\n      0x20\n      add\n      swap1\n      swap3\n      swap2\n      swap1\n      dup1\n      calldataload\n      swap1\n      0x20\n      add\n      swap1\n      swap3\n      swap2\n      swap1\n      dup1\n      calldataload\n      swap1\n      0x20\n      add\n      swap1\n      swap3\n      swap2\n      swap1\n      dup1\n      calldataload\n      swap1\n      0x20\n      add\n      swap1\n      swap3\n      swap2\n      swap1\n      pop\n      pop\n      pop\n      tag_114\n      jump\t// in\n    tag_112:\n      mload(0x40)\n      dup1\n      dup3\n      dup2\n      mstore\n      0x20\n      add\n      swap2\n      pop\n      pop\n      mload(0x40)\n      dup1\n      swap2\n      sub\n      swap1\n      return\n        /* \"input/NOIAVault.sol\":16538:16670  function allowance(address owner, address spender) public view returns (uint256) {... */\n    tag_29:\n      tag_115\n      0x04\n      dup1\n      calldatasize\n      sub\n        /* \"--CODEGEN--\":13:15   */\n      0x40\n        /* \"--CODEGEN--\":8:11   */\n      dup2\n        /* \"--CODEGEN--\":5:16   */\n      lt\n        /* \"--CODEGEN--\":2:4   */\n      iszero\n      tag_116\n      jumpi\n        /* \"--CODEGEN--\":29:30   */\n      0x00\n        /* \"--CODEGEN--\":26:27   */\n      dup1\n        /* \"--CODEGEN--\":19:31   */\n      revert\n        /* \"--CODEGEN--\":2:4   */\n    tag_116:\n        /* \"input/NOIAVault.sol\":16538:16670  function allowance(address owner, address spender) public view returns (uint256) {... */\n      dup2\n      add\n      swap1\n      dup1\n      dup1\n      calldataload\n      0xffffffffffffffffffffffffffffffffffffffff\n      and\n      swap1\n      0x20\n      add\n      swap1\n      swap3\n      swap2\n      swap1\n      dup1\n      calldataload\n      0xffffffffffffffffffffffffffffffffffffffff\n      and\n      swap1\n      0x20\n      add\n      swap1\n      swap3\n      swap2\n      swap1\n      pop\n      pop\n      pop\n      tag_117\n      jump\t// in\n    tag_115:\n      mload(0x40)\n      dup1\n      dup3\n      dup2\n      mstore\n      0x20\n      add\n      swap2\n      pop\n      pop\n      mload(0x40)\n      dup1\n      swap2\n      sub\n      swap1\n      return\n        /* \"input/NOIAVault.sol\":25849:25921  function unregister() public {... */\n    tag_30:\n      tag_118\n      tag_119\n      jump\t// in\n    tag_118:\n      stop\n        /* \"input/NOIAVault.sol\":24028:24135  function transferOwnership(address newOwner) public onlyOwner {... */\n    tag_31:\n      tag_120\n      0x04\n      dup1\n      calldatasize\n      sub\n        /* \"--CODEGEN--\":13:15   */\n      0x20\n        /* \"--CODEGEN--\":8:11   */\n      dup2\n        /* \"--CODEGEN--\":5:16   */\n      lt\n        /* \"--CODEGEN--\":2:4   */\n      iszero\n      tag_121\n      jumpi\n        /* \"--CODEGEN--\":29:30   */\n      0x00\n        /* \"--CODEGEN--\":26:27   */\n      dup1\n        /* \"--CODEGEN--\":19:31   */\n      revert\n        /* \"--CODEGEN--\":2:4   */\n    tag_121:\n        /* \"input/NOIAVault.sol\":24028:24135  function transferOwnership(address newOwner) public onlyOwner {... */\n      dup2\n      add\n      swap1\n      dup1\n      dup1\n      calldataload\n      0xffffffffffffffffffffffffffffffffffffffff\n      and\n      swap1\n      0x20\n      add\n      swap1\n      swap3\n      swap2\n      swap1\n      pop\n      pop\n      pop\n      tag_122\n      jump\t// in\n    tag_120:\n      stop\n        /* \"input/NOIAVault.sol\":25101:25143  string public constant name = \"NOIA Token\" */\n    tag_40:\n      mload(0x40)\n      dup1\n      0x40\n      add\n      0x40\n      mstore\n      dup1\n      0x0a\n      dup2\n      mstore\n      0x20\n      add\n      0x4e4f494120546f6b656e00000000000000000000000000000000000000000000\n      dup2\n      mstore\n      pop\n      dup2\n      jump\t// out\n        /* \"input/NOIAVault.sol\":16808:16953  function approve(address spender, uint256 value) public returns (bool) {... */\n    tag_47:\n        /* \"input/NOIAVault.sol\":16873:16877  bool */\n      0x00\n        /* \"input/NOIAVault.sol\":16889:16925  _approve(msg.sender, spender, value) */\n      tag_124\n        /* \"input/NOIAVault.sol\":16898:16908  msg.sender */\n      caller\n        /* \"input/NOIAVault.sol\":16910:16917  spender */\n      dup5\n        /* \"input/NOIAVault.sol\":16919:16924  value */\n      dup5\n        /* \"input/NOIAVault.sol\":16889:16897  _approve */\n      tag_125\n        /* \"input/NOIAVault.sol\":16889:16925  _approve(msg.sender, spender, value) */\n      jump\t// in\n    tag_124:\n        /* \"input/NOIAVault.sol\":16942:16946  true */\n      0x01\n        /* \"input/NOIAVault.sol\":16935:16946  return true */\n      swap1\n      pop\n        /* \"input/NOIAVault.sol\":16808:16953  function approve(address spender, uint256 value) public returns (bool) {... */\n      swap3\n      swap2\n      pop\n      pop\n      jump\t// out\n        /* \"input/NOIAVault.sol\":29275:30450  function transferPreSigned(... */\n    tag_53:\n        /* \"input/NOIAVault.sol\":29501:29505  bool */\n      0x00\n        /* \"input/NOIAVault.sol\":25700:25704  true */\n      0x01\n        /* \"input/NOIAVault.sol\":25672:25704  etherlessTransferEnabled == true */\n      iszero\n      iszero\n        /* \"input/NOIAVault.sol\":25672:25696  etherlessTransferEnabled */\n      0x08\n      0x00\n      swap1\n      sload\n      swap1\n      0x0100\n      exp\n      swap1\n      div\n      0xff\n      and\n        /* \"input/NOIAVault.sol\":25672:25704  etherlessTransferEnabled == true */\n      iszero\n      iszero\n      eq\n        /* \"input/NOIAVault.sol\":25664:25750  require(etherlessTransferEnabled == true, \"Etherless transfer functionality disabled\") */\n      tag_127\n      jumpi\n      mload(0x40)\n      0x08c379a000000000000000000000000000000000000000000000000000000000\n      dup2\n      mstore\n      0x04\n      add\n      dup1\n      dup1\n      0x20\n      add\n      dup3\n      dup2\n      sub\n      dup3\n      mstore\n      0x29\n      dup2\n      mstore\n      0x20\n      add\n      dup1\n      data_a432d77761e9f48572aa7afef8cc88428f6f968ffe5a0155b531c488448ba1ef\n      0x29\n      swap2\n      codecopy\n      0x40\n      add\n      swap2\n      pop\n      pop\n      mload(0x40)\n      dup1\n      swap2\n      sub\n      swap1\n      revert\n    tag_127:\n        /* \"input/NOIAVault.sol\":29544:29545  0 */\n      0x00\n        /* \"input/NOIAVault.sol\":29529:29546  _to != address(0) */\n      0xffffffffffffffffffffffffffffffffffffffff\n      and\n        /* \"input/NOIAVault.sol\":29529:29532  _to */\n      dup6\n        /* \"input/NOIAVault.sol\":29529:29546  _to != address(0) */\n      0xffffffffffffffffffffffffffffffffffffffff\n      and\n      eq\n      iszero\n        /* \"input/NOIAVault.sol\":29521:29579  require(_to != address(0), \"Transfer to the zero address\") */\n      tag_129\n      jumpi\n      mload(0x40)\n      0x08c379a000000000000000000000000000000000000000000000000000000000\n      dup2\n      mstore\n      0x04\n      add\n      dup1\n      dup1\n      0x20\n      add\n      dup3\n      dup2\n      sub\n      dup3\n      mstore\n      0x1c\n      dup2\n      mstore\n      0x20\n      add\n      dup1\n      0x5472616e7366657220746f20746865207a65726f206164647265737300000000\n      dup2\n      mstore\n      pop\n      0x20\n      add\n      swap2\n      pop\n      pop\n      mload(0x40)\n      dup1\n      swap2\n      sub\n      swap1\n      revert\n    tag_129:\n        /* \"input/NOIAVault.sol\":29590:29610  bytes32 hashedParams */\n      0x00\n        /* \"input/NOIAVault.sol\":29613:29675  hashForSign(msg.sig, address(this), _to, _value, _fee, _nonce) */\n      tag_130\n        /* \"input/NOIAVault.sol\":29625:29632  msg.sig */\n      and(0xffffffff00000000000000000000000000000000000000000000000000000000, calldataload(0x00))\n        /* \"input/NOIAVault.sol\":29642:29646  this */\n      address\n        /* \"input/NOIAVault.sol\":29649:29652  _to */\n      dup9\n        /* \"input/NOIAVault.sol\":29654:29660  _value */\n      dup9\n        /* \"input/NOIAVault.sol\":29662:29666  _fee */\n      dup9\n        /* \"input/NOIAVault.sol\":29668:29674  _nonce */\n      dup9\n        /* \"input/NOIAVault.sol\":29613:29624  hashForSign */\n      tag_114\n        /* \"input/NOIAVault.sol\":29613:29675  hashForSign(msg.sig, address(this), _to, _value, _fee, _nonce) */\n      jump\t// in\n    tag_130:\n        /* \"input/NOIAVault.sol\":29590:29675  bytes32 hashedParams = hashForSign(msg.sig, address(this), _to, _value, _fee, _nonce) */\n      swap1\n      pop\n        /* \"input/NOIAVault.sol\":29685:29697  address from */\n      0x00\n        /* \"input/NOIAVault.sol\":29700:29757  hashedParams.toEthSignedMessageHash().recover(_signature) */\n      tag_131\n        /* \"input/NOIAVault.sol\":29746:29756  _signature */\n      dup9\n        /* \"input/NOIAVault.sol\":29700:29737  hashedParams.toEthSignedMessageHash() */\n      tag_132\n        /* \"input/NOIAVault.sol\":29700:29712  hashedParams */\n      dup5\n        /* \"input/NOIAVault.sol\":29700:29735  hashedParams.toEthSignedMessageHash */\n      tag_133\n        /* \"input/NOIAVault.sol\":29700:29737  hashedParams.toEthSignedMessageHash() */\n      jump\t// in\n    tag_132:\n        /* \"input/NOIAVault.sol\":29700:29745  hashedParams.toEthSignedMessageHash().recover */\n      tag_134\n      swap1\n        /* \"input/NOIAVault.sol\":29700:29757  hashedParams.toEthSignedMessageHash().recover(_signature) */\n      swap2\n      swap1\n      0xffffffff\n      and\n      jump\t// in\n    tag_131:\n        /* \"input/NOIAVault.sol\":29685:29757  address from = hashedParams.toEthSignedMessageHash().recover(_signature) */\n      swap1\n      pop\n        /* \"input/NOIAVault.sol\":29791:29792  0 */\n      0x00\n        /* \"input/NOIAVault.sol\":29775:29793  from != address(0) */\n      0xffffffffffffffffffffffffffffffffffffffff\n      and\n        /* \"input/NOIAVault.sol\":29775:29779  from */\n      dup2\n        /* \"input/NOIAVault.sol\":29775:29793  from != address(0) */\n      0xffffffffffffffffffffffffffffffffffffffff\n      and\n      eq\n      iszero\n        /* \"input/NOIAVault.sol\":29767:29815  require(from != address(0), \"Invalid signature\") */\n      tag_135\n      jumpi\n      mload(0x40)\n      0x08c379a000000000000000000000000000000000000000000000000000000000\n      dup2\n      mstore\n      0x04\n      add\n      dup1\n      dup1\n      0x20\n      add\n      dup3\n      dup2\n      sub\n      dup3\n      mstore\n      0x11\n      dup2\n      mstore\n      0x20\n      add\n      dup1\n      0x496e76616c6964207369676e6174757265000000000000000000000000000000\n      dup2\n      mstore\n      pop\n      0x20\n      add\n      swap2\n      pop\n      pop\n      mload(0x40)\n      dup1\n      swap2\n      sub\n      swap1\n      revert\n    tag_135:\n        /* \"input/NOIAVault.sol\":29826:29842  bytes32 hashedTx */\n      0x00\n        /* \"input/NOIAVault.sol\":29872:29876  from */\n      dup2\n        /* \"input/NOIAVault.sol\":29878:29890  hashedParams */\n      dup4\n        /* \"input/NOIAVault.sol\":29855:29891  abi.encodePacked(from, hashedParams) */\n      add(0x20, mload(0x40))\n      dup1\n      dup4\n      0xffffffffffffffffffffffffffffffffffffffff\n      and\n      0xffffffffffffffffffffffffffffffffffffffff\n      and\n      0x60\n      shl\n      dup2\n      mstore\n      0x14\n      add\n      dup3\n      dup2\n      mstore\n      0x20\n      add\n      swap3\n      pop\n      pop\n      pop\n      mload(0x40)\n        /* \"--CODEGEN--\":49:53   */\n      0x20\n        /* \"--CODEGEN--\":39:46   */\n      dup2\n        /* \"--CODEGEN--\":30:37   */\n      dup4\n        /* \"--CODEGEN--\":26:47   */\n      sub\n        /* \"--CODEGEN--\":22:54   */\n      sub\n        /* \"--CODEGEN--\":13:20   */\n      dup2\n        /* \"--CODEGEN--\":6:55   */\n      mstore\n        /* \"input/NOIAVault.sol\":29855:29891  abi.encodePacked(from, hashedParams) */\n      swap1\n      0x40\n      mstore\n        /* \"input/NOIAVault.sol\":29845:29892  keccak256(abi.encodePacked(from, hashedParams)) */\n      dup1\n      mload\n      swap1\n      0x20\n      add\n      keccak256\n        /* \"input/NOIAVault.sol\":29826:29892  bytes32 hashedTx = keccak256(abi.encodePacked(from, hashedParams)) */\n      swap1\n      pop\n        /* \"input/NOIAVault.sol\":29933:29938  false */\n      0x00\n        /* \"input/NOIAVault.sol\":29910:29938  hashedTxs[hashedTx] == false */\n      iszero\n      iszero\n        /* \"input/NOIAVault.sol\":29910:29919  hashedTxs */\n      0x07\n        /* \"input/NOIAVault.sol\":29910:29929  hashedTxs[hashedTx] */\n      0x00\n        /* \"input/NOIAVault.sol\":29920:29928  hashedTx */\n      dup4\n        /* \"input/NOIAVault.sol\":29910:29929  hashedTxs[hashedTx] */\n      dup2\n      mstore\n      0x20\n      add\n      swap1\n      dup2\n      mstore\n      0x20\n      add\n      0x00\n      keccak256\n      0x00\n      swap1\n      sload\n      swap1\n      0x0100\n      exp\n      swap1\n      div\n      0xff\n      and\n        /* \"input/NOIAVault.sol\":29910:29938  hashedTxs[hashedTx] == false */\n      iszero\n      iszero\n      eq\n        /* \"input/NOIAVault.sol\":29902:29961  require(hashedTxs[hashedTx] == false, \"Nonce already used\") */\n      tag_136\n      jumpi\n      mload(0x40)\n      0x08c379a000000000000000000000000000000000000000000000000000000000\n      dup2\n      mstore\n      0x04\n      add\n      dup1\n      dup1\n      0x20\n      add\n      dup3\n      dup2\n      sub\n      dup3\n      mstore\n      0x12\n      dup2\n      mstore\n      0x20\n      add\n      dup1\n      0x4e6f6e636520616c726561647920757365640000000000000000000000000000\n      dup2\n      mstore\n      pop\n      0x20\n      add\n      swap2\n      pop\n      pop\n      mload(0x40)\n      dup1\n      swap2\n      sub\n      swap1\n      revert\n    tag_136:\n        /* \"input/NOIAVault.sol\":29993:29997  true */\n      0x01\n        /* \"input/NOIAVault.sol\":29971:29980  hashedTxs */\n      0x07\n        /* \"input/NOIAVault.sol\":29971:29990  hashedTxs[hashedTx] */\n      0x00\n        /* \"input/NOIAVault.sol\":29981:29989  hashedTx */\n      dup4\n        /* \"input/NOIAVault.sol\":29971:29990  hashedTxs[hashedTx] */\n      dup2\n      mstore\n      0x20\n      add\n      swap1\n      dup2\n      mstore\n      0x20\n      add\n      0x00\n      keccak256\n      0x00\n        /* \"input/NOIAVault.sol\":29971:29997  hashedTxs[hashedTx] = true */\n      0x0100\n      exp\n      dup2\n      sload\n      dup2\n      0xff\n      mul\n      not\n      and\n      swap1\n      dup4\n      iszero\n      iszero\n      mul\n      or\n      swap1\n      sstore\n      pop\n        /* \"input/NOIAVault.sol\":30026:30029  _to */\n      dup8\n        /* \"input/NOIAVault.sol\":30012:30029  msg.sender == _to */\n      0xffffffffffffffffffffffffffffffffffffffff\n      and\n        /* \"input/NOIAVault.sol\":30012:30022  msg.sender */\n      caller\n        /* \"input/NOIAVault.sol\":30012:30029  msg.sender == _to */\n      0xffffffffffffffffffffffffffffffffffffffff\n      and\n      eq\n        /* \"input/NOIAVault.sol\":30008:30353  if (msg.sender == _to) {... */\n      iszero\n      tag_137\n      jumpi\n        /* \"input/NOIAVault.sol\":30045:30083  _transfer(from, _to, _value.add(_fee)) */\n      tag_138\n        /* \"input/NOIAVault.sol\":30055:30059  from */\n      dup3\n        /* \"input/NOIAVault.sol\":30061:30064  _to */\n      dup10\n        /* \"input/NOIAVault.sol\":30066:30082  _value.add(_fee) */\n      tag_139\n        /* \"input/NOIAVault.sol\":30077:30081  _fee */\n      dup10\n        /* \"input/NOIAVault.sol\":30066:30072  _value */\n      dup12\n        /* \"input/NOIAVault.sol\":30066:30076  _value.add */\n      tag_140\n      swap1\n        /* \"input/NOIAVault.sol\":30066:30082  _value.add(_fee) */\n      swap2\n      swap1\n      0xffffffff\n      and\n      jump\t// in\n    tag_139:\n        /* \"input/NOIAVault.sol\":30045:30054  _transfer */\n      tag_141\n        /* \"input/NOIAVault.sol\":30045:30083  _transfer(from, _to, _value.add(_fee)) */\n      jump\t// in\n    tag_138:\n        /* \"input/NOIAVault.sol\":30097:30139  _postTransfer(from, _to, _value.add(_fee)) */\n      tag_142\n        /* \"input/NOIAVault.sol\":30111:30115  from */\n      dup3\n        /* \"input/NOIAVault.sol\":30117:30120  _to */\n      dup10\n        /* \"input/NOIAVault.sol\":30122:30138  _value.add(_fee) */\n      tag_143\n        /* \"input/NOIAVault.sol\":30133:30137  _fee */\n      dup10\n        /* \"input/NOIAVault.sol\":30122:30128  _value */\n      dup12\n        /* \"input/NOIAVault.sol\":30122:30132  _value.add */\n      tag_140\n      swap1\n        /* \"input/NOIAVault.sol\":30122:30138  _value.add(_fee) */\n      swap2\n      swap1\n      0xffffffff\n      and\n      jump\t// in\n    tag_143:\n        /* \"input/NOIAVault.sol\":30097:30110  _postTransfer */\n      tag_144\n        /* \"input/NOIAVault.sol\":30097:30139  _postTransfer(from, _to, _value.add(_fee)) */\n      jump\t// in\n    tag_142:\n        /* \"input/NOIAVault.sol\":30008:30353  if (msg.sender == _to) {... */\n      jump(tag_145)\n    tag_137:\n        /* \"input/NOIAVault.sol\":30170:30198  _transfer(from, _to, _value) */\n      tag_146\n        /* \"input/NOIAVault.sol\":30180:30184  from */\n      dup3\n        /* \"input/NOIAVault.sol\":30186:30189  _to */\n      dup10\n        /* \"input/NOIAVault.sol\":30191:30197  _value */\n      dup10\n        /* \"input/NOIAVault.sol\":30170:30179  _transfer */\n      tag_141\n        /* \"input/NOIAVault.sol\":30170:30198  _transfer(from, _to, _value) */\n      jump\t// in\n    tag_146:\n        /* \"input/NOIAVault.sol\":30212:30244  _postTransfer(from, _to, _value) */\n      tag_147\n        /* \"input/NOIAVault.sol\":30226:30230  from */\n      dup3\n        /* \"input/NOIAVault.sol\":30232:30235  _to */\n      dup10\n        /* \"input/NOIAVault.sol\":30237:30243  _value */\n      dup10\n        /* \"input/NOIAVault.sol\":30212:30225  _postTransfer */\n      tag_144\n        /* \"input/NOIAVault.sol\":30212:30244  _postTransfer(from, _to, _value) */\n      jump\t// in\n    tag_147:\n        /* \"input/NOIAVault.sol\":30258:30291  _transfer(from, msg.sender, _fee) */\n      tag_148\n        /* \"input/NOIAVault.sol\":30268:30272  from */\n      dup3\n        /* \"input/NOIAVault.sol\":30274:30284  msg.sender */\n      caller\n        /* \"input/NOIAVault.sol\":30286:30290  _fee */\n      dup9\n        /* \"input/NOIAVault.sol\":30258:30267  _transfer */\n      tag_141\n        /* \"input/NOIAVault.sol\":30258:30291  _transfer(from, msg.sender, _fee) */\n      jump\t// in\n    tag_148:\n        /* \"input/NOIAVault.sol\":30305:30342  _postTransfer(from, msg.sender, _fee) */\n      tag_149\n        /* \"input/NOIAVault.sol\":30319:30323  from */\n      dup3\n        /* \"input/NOIAVault.sol\":30325:30335  msg.sender */\n      caller\n        /* \"input/NOIAVault.sol\":30337:30341  _fee */\n      dup9\n        /* \"input/NOIAVault.sol\":30305:30318  _postTransfer */\n      tag_144\n        /* \"input/NOIAVault.sol\":30305:30342  _postTransfer(from, msg.sender, _fee) */\n      jump\t// in\n    tag_149:\n        /* \"input/NOIAVault.sol\":30008:30353  if (msg.sender == _to) {... */\n    tag_145:\n        /* \"input/NOIAVault.sol\":30397:30407  msg.sender */\n      caller\n        /* \"input/NOIAVault.sol\":30368:30422  TransferPreSigned(from, _to, msg.sender, _value, _fee) */\n      0xffffffffffffffffffffffffffffffffffffffff\n      and\n        /* \"input/NOIAVault.sol\":30392:30395  _to */\n      dup9\n        /* \"input/NOIAVault.sol\":30368:30422  TransferPreSigned(from, _to, msg.sender, _value, _fee) */\n      0xffffffffffffffffffffffffffffffffffffffff\n      and\n        /* \"input/NOIAVault.sol\":30386:30390  from */\n      dup4\n        /* \"input/NOIAVault.sol\":30368:30422  TransferPreSigned(from, _to, msg.sender, _value, _fee) */\n      0xffffffffffffffffffffffffffffffffffffffff\n      and\n      0xec5a73fd1f178be20c1bca1b406cbf4b5c20d833b66e582fc122fb4baa0fc2a4\n        /* \"input/NOIAVault.sol\":30409:30415  _value */\n      dup11\n        /* \"input/NOIAVault.sol\":30417:30421  _fee */\n      dup11\n        /* \"input/NOIAVault.sol\":30368:30422  TransferPreSigned(from, _to, msg.sender, _value, _fee) */\n      mload(0x40)\n      dup1\n      dup4\n      dup2\n      mstore\n      0x20\n      add\n      dup3\n      dup2\n      mstore\n      0x20\n      add\n      swap3\n      pop\n      pop\n      pop\n      mload(0x40)\n      dup1\n      swap2\n      sub\n      swap1\n      log4\n        /* \"input/NOIAVault.sol\":30439:30443  true */\n      0x01\n        /* \"input/NOIAVault.sol\":30432:30443  return true */\n      swap4\n      pop\n      pop\n      pop\n      pop\n        /* \"input/NOIAVault.sol\":29275:30450  function transferPreSigned(... */\n      swap6\n      swap5\n      pop\n      pop\n      pop\n      pop\n      pop\n      jump\t// out\n        /* \"input/NOIAVault.sol\":15869:15958  function totalSupply() public view returns (uint256) {... */\n    tag_55:\n        /* \"input/NOIAVault.sol\":15913:15920  uint256 */\n      0x00\n        /* \"input/NOIAVault.sol\":15939:15951  _totalSupply */\n      sload(0x03)\n        /* \"input/NOIAVault.sol\":15932:15951  return _totalSupply */\n      swap1\n      pop\n        /* \"input/NOIAVault.sol\":15869:15958  function totalSupply() public view returns (uint256) {... */\n      swap1\n      jump\t// out\n        /* \"input/NOIAVault.sol\":25774:25843  function register() public {... */\n    tag_57:\n        /* \"input/NOIAVault.sol\":25832:25836  true */\n      0x01\n        /* \"input/NOIAVault.sol\":25811:25817  notify */\n      0x06\n        /* \"input/NOIAVault.sol\":25811:25829  notify[msg.sender] */\n      0x00\n        /* \"input/NOIAVault.sol\":25818:25828  msg.sender */\n      caller\n        /* \"input/NOIAVault.sol\":25811:25829  notify[msg.sender] */\n      0xffffffffffffffffffffffffffffffffffffffff\n      and\n      0xffffffffffffffffffffffffffffffffffffffff\n      and\n      dup2\n      mstore\n      0x20\n      add\n      swap1\n      dup2\n      mstore\n      0x20\n      add\n      0x00\n      keccak256\n      0x00\n        /* \"input/NOIAVault.sol\":25811:25836  notify[msg.sender] = true */\n      0x0100\n      exp\n      dup2\n      sload\n      dup2\n      0xff\n      mul\n      not\n      and\n      swap1\n      dup4\n      iszero\n      iszero\n      mul\n      or\n      swap1\n      sstore\n      pop\n        /* \"input/NOIAVault.sol\":25774:25843  function register() public {... */\n      jump\t// out\n        /* \"input/NOIAVault.sol\":26996:27249  function transferFrom(address from, address to, uint256 value) public returns (bool) {... */\n    tag_60:\n        /* \"input/NOIAVault.sol\":27075:27079  bool */\n      0x00\n        /* \"input/NOIAVault.sol\":27091:27103  bool success */\n      dup1\n        /* \"input/NOIAVault.sol\":27106:27141  super.transferFrom(from, to, value) */\n      tag_153\n        /* \"input/NOIAVault.sol\":27125:27129  from */\n      dup6\n        /* \"input/NOIAVault.sol\":27131:27133  to */\n      dup6\n        /* \"input/NOIAVault.sol\":27135:27140  value */\n      dup6\n        /* \"input/NOIAVault.sol\":27106:27124  super.transferFrom */\n      tag_154\n        /* \"input/NOIAVault.sol\":27106:27141  super.transferFrom(from, to, value) */\n      jump\t// in\n    tag_153:\n        /* \"input/NOIAVault.sol\":27091:27141  bool success = super.transferFrom(from, to, value) */\n      swap1\n      pop\n        /* \"input/NOIAVault.sol\":27155:27162  success */\n      dup1\n        /* \"input/NOIAVault.sol\":27151:27219  if (success) {... */\n      iszero\n      tag_155\n      jumpi\n        /* \"input/NOIAVault.sol\":27178:27208  _postTransfer(from, to, value) */\n      tag_156\n        /* \"input/NOIAVault.sol\":27192:27196  from */\n      dup6\n        /* \"input/NOIAVault.sol\":27198:27200  to */\n      dup6\n        /* \"input/NOIAVault.sol\":27202:27207  value */\n      dup6\n        /* \"input/NOIAVault.sol\":27178:27191  _postTransfer */\n      tag_144\n        /* \"input/NOIAVault.sol\":27178:27208  _postTransfer(from, to, value) */\n      jump\t// in\n    tag_156:\n        /* \"input/NOIAVault.sol\":27151:27219  if (success) {... */\n    tag_155:\n        /* \"input/NOIAVault.sol\":27235:27242  success */\n      dup1\n        /* \"input/NOIAVault.sol\":27228:27242  return success */\n      swap2\n      pop\n      pop\n        /* \"input/NOIAVault.sol\":26996:27249  function transferFrom(address from, address to, uint256 value) public returns (bool) {... */\n      swap4\n      swap3\n      pop\n      pop\n      pop\n      jump\t// out\n        /* \"input/NOIAVault.sol\":25193:25235  uint8 public constant decimals = uint8(18) */\n    tag_62:\n        /* \"input/NOIAVault.sol\":25232:25234  18 */\n      0x12\n        /* \"input/NOIAVault.sol\":25193:25235  uint8 public constant decimals = uint8(18) */\n      dup2\n      jump\t// out\n        /* \"input/NOIAVault.sol\":18057:18260  function increaseAllowance(address spender, uint256 addedValue) public returns (bool) {... */\n    tag_65:\n        /* \"input/NOIAVault.sol\":18137:18141  bool */\n      0x00\n        /* \"input/NOIAVault.sol\":18153:18232  _approve(msg.sender, spender, _allowances[msg.sender][spender].add(addedValue)) */\n      tag_158\n        /* \"input/NOIAVault.sol\":18162:18172  msg.sender */\n      caller\n        /* \"input/NOIAVault.sol\":18174:18181  spender */\n      dup5\n        /* \"input/NOIAVault.sol\":18183:18231  _allowances[msg.sender][spender].add(addedValue) */\n      tag_159\n        /* \"input/NOIAVault.sol\":18220:18230  addedValue */\n      dup6\n        /* \"input/NOIAVault.sol\":18183:18194  _allowances */\n      0x02\n        /* \"input/NOIAVault.sol\":18183:18206  _allowances[msg.sender] */\n      0x00\n        /* \"input/NOIAVault.sol\":18195:18205  msg.sender */\n      caller\n        /* \"input/NOIAVault.sol\":18183:18206  _allowances[msg.sender] */\n      0xffffffffffffffffffffffffffffffffffffffff\n      and\n      0xffffffffffffffffffffffffffffffffffffffff\n      and\n      dup2\n      mstore\n      0x20\n      add\n      swap1\n      dup2\n      mstore\n      0x20\n      add\n      0x00\n      keccak256\n        /* \"input/NOIAVault.sol\":18183:18215  _allowances[msg.sender][spender] */\n      0x00\n        /* \"input/NOIAVault.sol\":18207:18214  spender */\n      dup10\n        /* \"input/NOIAVault.sol\":18183:18215  _allowances[msg.sender][spender] */\n      0xffffffffffffffffffffffffffffffffffffffff\n      and\n      0xffffffffffffffffffffffffffffffffffffffff\n      and\n      dup2\n      mstore\n      0x20\n      add\n      swap1\n      dup2\n      mstore\n      0x20\n      add\n      0x00\n      keccak256\n      sload\n        /* \"input/NOIAVault.sol\":18183:18219  _allowances[msg.sender][spender].add */\n      tag_140\n      swap1\n        /* \"input/NOIAVault.sol\":18183:18231  _allowances[msg.sender][spender].add(addedValue) */\n      swap2\n      swap1\n      0xffffffff\n      and\n      jump\t// in\n    tag_159:\n        /* \"input/NOIAVault.sol\":18153:18161  _approve */\n      tag_125\n        /* \"input/NOIAVault.sol\":18153:18232  _approve(msg.sender, spender, _allowances[msg.sender][spender].add(addedValue)) */\n      jump\t// in\n    tag_158:\n        /* \"input/NOIAVault.sol\":18249:18253  true */\n      0x01\n        /* \"input/NOIAVault.sol\":18242:18253  return true */\n      swap1\n      pop\n        /* \"input/NOIAVault.sol\":18057:18260  function increaseAllowance(address spender, uint256 addedValue) public returns (bool) {... */\n      swap3\n      swap2\n      pop\n      pop\n      jump\t// out\n        /* \"input/NOIAVault.sol\":28030:28324  function mint(address to, uint256 value) public onlyOwner returns (bool) {... */\n    tag_68:\n        /* \"input/NOIAVault.sol\":28097:28101  bool */\n      0x00\n        /* \"input/NOIAVault.sol\":23161:23170  isOwner() */\n      tag_161\n        /* \"input/NOIAVault.sol\":23161:23168  isOwner */\n      tag_97\n        /* \"input/NOIAVault.sol\":23161:23170  isOwner() */\n      jump\t// in\n    tag_161:\n        /* \"input/NOIAVault.sol\":23153:23207  require(isOwner(), \"Ownable: caller is not the owner\") */\n      tag_162\n      jumpi\n      mload(0x40)\n      0x08c379a000000000000000000000000000000000000000000000000000000000\n      dup2\n      mstore\n      0x04\n      add\n      dup1\n      dup1\n      0x20\n      add\n      dup3\n      dup2\n      sub\n      dup3\n      mstore\n      0x20\n      dup2\n      mstore\n      0x20\n      add\n      dup1\n      0x4f776e61626c653a2063616c6c6572206973206e6f7420746865206f776e6572\n      dup2\n      mstore\n      pop\n      0x20\n      add\n      swap2\n      pop\n      pop\n      mload(0x40)\n      dup1\n      swap2\n      sub\n      swap1\n      revert\n    tag_162:\n        /* \"input/NOIAVault.sol\":28148:28149  0 */\n      0x00\n        /* \"input/NOIAVault.sol\":28121:28144  tokensToMint.sub(value) */\n      tag_164\n        /* \"input/NOIAVault.sol\":28138:28143  value */\n      dup4\n        /* \"input/NOIAVault.sol\":28121:28133  tokensToMint */\n      sload(0x04)\n        /* \"input/NOIAVault.sol\":28121:28137  tokensToMint.sub */\n      tag_165\n      swap1\n        /* \"input/NOIAVault.sol\":28121:28144  tokensToMint.sub(value) */\n      swap2\n      swap1\n      0xffffffff\n      and\n      jump\t// in\n    tag_164:\n        /* \"input/NOIAVault.sol\":28121:28149  tokensToMint.sub(value) >= 0 */\n      lt\n      iszero\n        /* \"input/NOIAVault.sol\":28113:28176  require(tokensToMint.sub(value) >= 0, \"Not enough tokens left\") */\n      tag_166\n      jumpi\n      mload(0x40)\n      0x08c379a000000000000000000000000000000000000000000000000000000000\n      dup2\n      mstore\n      0x04\n      add\n      dup1\n      dup1\n      0x20\n      add\n      dup3\n      dup2\n      sub\n      dup3\n      mstore\n      0x16\n      dup2\n      mstore\n      0x20\n      add\n      dup1\n      0x4e6f7420656e6f75676820746f6b656e73206c65667400000000000000000000\n      dup2\n      mstore\n      pop\n      0x20\n      add\n      swap2\n      pop\n      pop\n      mload(0x40)\n      dup1\n      swap2\n      sub\n      swap1\n      revert\n    tag_166:\n        /* \"input/NOIAVault.sol\":28201:28224  tokensToMint.sub(value) */\n      tag_167\n        /* \"input/NOIAVault.sol\":28218:28223  value */\n      dup3\n        /* \"input/NOIAVault.sol\":28201:28213  tokensToMint */\n      sload(0x04)\n        /* \"input/NOIAVault.sol\":28201:28217  tokensToMint.sub */\n      tag_165\n      swap1\n        /* \"input/NOIAVault.sol\":28201:28224  tokensToMint.sub(value) */\n      swap2\n      swap1\n      0xffffffff\n      and\n      jump\t// in\n    tag_167:\n        /* \"input/NOIAVault.sol\":28186:28198  tokensToMint */\n      0x04\n        /* \"input/NOIAVault.sol\":28186:28224  tokensToMint = tokensToMint.sub(value) */\n      dup2\n      swap1\n      sstore\n      pop\n        /* \"input/NOIAVault.sol\":28234:28250  _mint(to, value) */\n      tag_168\n        /* \"input/NOIAVault.sol\":28240:28242  to */\n      dup4\n        /* \"input/NOIAVault.sol\":28244:28249  value */\n      dup4\n        /* \"input/NOIAVault.sol\":28234:28239  _mint */\n      tag_169\n        /* \"input/NOIAVault.sol\":28234:28250  _mint(to, value) */\n      jump\t// in\n    tag_168:\n        /* \"input/NOIAVault.sol\":28260:28296  _postTransfer(address(0), to, value) */\n      tag_170\n        /* \"input/NOIAVault.sol\":28282:28283  0 */\n      0x00\n        /* \"input/NOIAVault.sol\":28286:28288  to */\n      dup5\n        /* \"input/NOIAVault.sol\":28290:28295  value */\n      dup5\n        /* \"input/NOIAVault.sol\":28260:28273  _postTransfer */\n      tag_144\n        /* \"input/NOIAVault.sol\":28260:28296  _postTransfer(address(0), to, value) */\n      jump\t// in\n    tag_170:\n        /* \"input/NOIAVault.sol\":28313:28317  true */\n      0x01\n        /* \"input/NOIAVault.sol\":28306:28317  return true */\n      swap1\n      pop\n        /* \"input/NOIAVault.sol\":28030:28324  function mint(address to, uint256 value) public onlyOwner returns (bool) {... */\n      swap3\n      swap2\n      pop\n      pop\n      jump\t// out\n        /* \"input/NOIAVault.sol\":28447:28604  function burn(uint256 value) public {... */\n    tag_71:\n        /* \"input/NOIAVault.sol\":28515:28526  burnAddress */\n      0x05\n      0x00\n      swap1\n      sload\n      swap1\n      0x0100\n      exp\n      swap1\n      div\n      0xffffffffffffffffffffffffffffffffffffffff\n      and\n        /* \"input/NOIAVault.sol\":28501:28526  msg.sender == burnAddress */\n      0xffffffffffffffffffffffffffffffffffffffff\n      and\n        /* \"input/NOIAVault.sol\":28501:28511  msg.sender */\n      caller\n        /* \"input/NOIAVault.sol\":28501:28526  msg.sender == burnAddress */\n      0xffffffffffffffffffffffffffffffffffffffff\n      and\n      eq\n        /* \"input/NOIAVault.sol\":28493:28563  require(msg.sender == burnAddress, \"Only burnAddress can burn tokens\") */\n      tag_172\n      jumpi\n      mload(0x40)\n      0x08c379a000000000000000000000000000000000000000000000000000000000\n      dup2\n      mstore\n      0x04\n      add\n      dup1\n      dup1\n      0x20\n      add\n      dup3\n      dup2\n      sub\n      dup3\n      mstore\n      0x20\n      dup2\n      mstore\n      0x20\n      add\n      dup1\n      0x4f6e6c79206275726e416464726573732063616e206275726e20746f6b656e73\n      dup2\n      mstore\n      pop\n      0x20\n      add\n      swap2\n      pop\n      pop\n      mload(0x40)\n      dup1\n      swap2\n      sub\n      swap1\n      revert\n    tag_172:\n        /* \"input/NOIAVault.sol\":28573:28597  _burn(msg.sender, value) */\n      tag_173\n        /* \"input/NOIAVault.sol\":28579:28589  msg.sender */\n      caller\n        /* \"input/NOIAVault.sol\":28591:28596  value */\n      dup3\n        /* \"input/NOIAVault.sol\":28573:28578  _burn */\n      tag_174\n        /* \"input/NOIAVault.sol\":28573:28597  _burn(msg.sender, value) */\n      jump\t// in\n    tag_173:\n        /* \"input/NOIAVault.sol\":28447:28604  function burn(uint256 value) public {... */\n      pop\n      jump\t// out\n        /* \"input/NOIAVault.sol\":28610:28806  function setBurnAddress(address _burnAddress) external onlyOwner {... */\n    tag_74:\n        /* \"input/NOIAVault.sol\":23161:23170  isOwner() */\n      tag_176\n        /* \"input/NOIAVault.sol\":23161:23168  isOwner */\n      tag_97\n        /* \"input/NOIAVault.sol\":23161:23170  isOwner() */\n      jump\t// in\n    tag_176:\n        /* \"input/NOIAVault.sol\":23153:23207  require(isOwner(), \"Ownable: caller is not the owner\") */\n      tag_177\n      jumpi\n      mload(0x40)\n      0x08c379a000000000000000000000000000000000000000000000000000000000\n      dup2\n      mstore\n      0x04\n      add\n      dup1\n      dup1\n      0x20\n      add\n      dup3\n      dup2\n      sub\n      dup3\n      mstore\n      0x20\n      dup2\n      mstore\n      0x20\n      add\n      dup1\n      0x4f776e61626c653a2063616c6c6572206973206e6f7420746865206f776e6572\n      dup2\n      mstore\n      pop\n      0x20\n      add\n      swap2\n      pop\n      pop\n      mload(0x40)\n      dup1\n      swap2\n      sub\n      swap1\n      revert\n    tag_177:\n        /* \"input/NOIAVault.sol\":28720:28721  0 */\n      0x00\n        /* \"input/NOIAVault.sol\":28693:28716  balanceOf(_burnAddress) */\n      tag_179\n        /* \"input/NOIAVault.sol\":28703:28715  _burnAddress */\n      dup3\n        /* \"input/NOIAVault.sol\":28693:28702  balanceOf */\n      tag_85\n        /* \"input/NOIAVault.sol\":28693:28716  balanceOf(_burnAddress) */\n      jump\t// in\n    tag_179:\n        /* \"input/NOIAVault.sol\":28693:28721  balanceOf(_burnAddress) == 0 */\n      eq\n        /* \"input/NOIAVault.sol\":28685:28762  require(balanceOf(_burnAddress) == 0, \"Burn address must have zero balance!\") */\n      tag_180\n      jumpi\n      mload(0x40)\n      0x08c379a000000000000000000000000000000000000000000000000000000000\n      dup2\n      mstore\n      0x04\n      add\n      dup1\n      dup1\n      0x20\n      add\n      dup3\n      dup2\n      sub\n      dup3\n      mstore\n      0x24\n      dup2\n      mstore\n      0x20\n      add\n      dup1\n      data_404f292e4068cdcd4d7edf853a549d89b3798ce34c65eaf7dcf5a34f469bbef7\n      0x24\n      swap2\n      codecopy\n      0x40\n      add\n      swap2\n      pop\n      pop\n      mload(0x40)\n      dup1\n      swap2\n      sub\n      swap1\n      revert\n    tag_180:\n        /* \"input/NOIAVault.sol\":28787:28799  _burnAddress */\n      dup1\n        /* \"input/NOIAVault.sol\":28773:28784  burnAddress */\n      0x05\n      0x00\n        /* \"input/NOIAVault.sol\":28773:28799  burnAddress = _burnAddress */\n      0x0100\n      exp\n      dup2\n      sload\n      dup2\n      0xffffffffffffffffffffffffffffffffffffffff\n      mul\n      not\n      and\n      swap1\n      dup4\n      0xffffffffffffffffffffffffffffffffffffffff\n      and\n      mul\n      or\n      swap1\n      sstore\n      pop\n        /* \"input/NOIAVault.sol\":28610:28806  function setBurnAddress(address _burnAddress) external onlyOwner {... */\n      pop\n      jump\t// out\n        /* \"input/NOIAVault.sol\":25439:25482  bool public etherlessTransferEnabled = true */\n    tag_76:\n      0x08\n      0x00\n      swap1\n      sload\n      swap1\n      0x0100\n      exp\n      swap1\n      div\n      0xff\n      and\n      dup2\n      jump\t// out\n        /* \"input/NOIAVault.sol\":24682:24952  function recoverTokens(IERC20 token, address to, uint256 amount) public onlyOwner {... */\n    tag_79:\n        /* \"input/NOIAVault.sol\":23161:23170  isOwner() */\n      tag_182\n        /* \"input/NOIAVault.sol\":23161:23168  isOwner */\n      tag_97\n        /* \"input/NOIAVault.sol\":23161:23170  isOwner() */\n      jump\t// in\n    tag_182:\n        /* \"input/NOIAVault.sol\":23153:23207  require(isOwner(), \"Ownable: caller is not the owner\") */\n      tag_183\n      jumpi\n      mload(0x40)\n      0x08c379a000000000000000000000000000000000000000000000000000000000\n      dup2\n      mstore\n      0x04\n      add\n      dup1\n      dup1\n      0x20\n      add\n      dup3\n      dup2\n      sub\n      dup3\n      mstore\n      0x20\n      dup2\n      mstore\n      0x20\n      add\n      dup1\n      0x4f776e61626c653a2063616c6c6572206973206e6f7420746865206f776e6572\n      dup2\n      mstore\n      pop\n      0x20\n      add\n      swap2\n      pop\n      pop\n      mload(0x40)\n      dup1\n      swap2\n      sub\n      swap1\n      revert\n    tag_183:\n        /* \"input/NOIAVault.sol\":24774:24789  uint256 balance */\n      0x00\n        /* \"input/NOIAVault.sol\":24792:24797  token */\n      dup4\n        /* \"input/NOIAVault.sol\":24792:24807  token.balanceOf */\n      0xffffffffffffffffffffffffffffffffffffffff\n      and\n      0x70a08231\n        /* \"input/NOIAVault.sol\":24816:24820  this */\n      address\n        /* \"input/NOIAVault.sol\":24792:24822  token.balanceOf(address(this)) */\n      mload(0x40)\n      dup3\n      0xffffffff\n      and\n      0xe0\n      shl\n      dup2\n      mstore\n      0x04\n      add\n      dup1\n      dup3\n      0xffffffffffffffffffffffffffffffffffffffff\n      and\n      0xffffffffffffffffffffffffffffffffffffffff\n      and\n      dup2\n      mstore\n      0x20\n      add\n      swap2\n      pop\n      pop\n      0x20\n      mload(0x40)\n      dup1\n      dup4\n      sub\n      dup2\n      dup7\n      dup1\n      extcodesize\n      iszero\n        /* \"--CODEGEN--\":8:17   */\n      dup1\n        /* \"--CODEGEN--\":5:7   */\n      iszero\n      tag_185\n      jumpi\n        /* \"--CODEGEN--\":30:31   */\n      0x00\n        /* \"--CODEGEN--\":27:28   */\n      dup1\n        /* \"--CODEGEN--\":20:32   */\n      revert\n        /* \"--CODEGEN--\":5:7   */\n    tag_185:\n        /* \"input/NOIAVault.sol\":24792:24822  token.balanceOf(address(this)) */\n      pop\n      gas\n      staticcall\n      iszero\n        /* \"--CODEGEN--\":8:17   */\n      dup1\n        /* \"--CODEGEN--\":5:7   */\n      iszero\n      tag_186\n      jumpi\n        /* \"--CODEGEN--\":45:61   */\n      returndatasize\n        /* \"--CODEGEN--\":42:43   */\n      0x00\n        /* \"--CODEGEN--\":39:40   */\n      dup1\n        /* \"--CODEGEN--\":24:62   */\n      returndatacopy\n        /* \"--CODEGEN--\":77:93   */\n      returndatasize\n        /* \"--CODEGEN--\":74:75   */\n      0x00\n        /* \"--CODEGEN--\":67:94   */\n      revert\n        /* \"--CODEGEN--\":5:7   */\n    tag_186:\n        /* \"input/NOIAVault.sol\":24792:24822  token.balanceOf(address(this)) */\n      pop\n      pop\n      pop\n      pop\n      mload(0x40)\n      returndatasize\n        /* \"--CODEGEN--\":13:15   */\n      0x20\n        /* \"--CODEGEN--\":8:11   */\n      dup2\n        /* \"--CODEGEN--\":5:16   */\n      lt\n        /* \"--CODEGEN--\":2:4   */\n      iszero\n      tag_187\n      jumpi\n        /* \"--CODEGEN--\":29:30   */\n      0x00\n        /* \"--CODEGEN--\":26:27   */\n      dup1\n        /* \"--CODEGEN--\":19:31   */\n      revert\n        /* \"--CODEGEN--\":2:4   */\n    tag_187:\n        /* \"input/NOIAVault.sol\":24792:24822  token.balanceOf(address(this)) */\n      dup2\n      add\n      swap1\n      dup1\n      dup1\n      mload\n      swap1\n      0x20\n      add\n      swap1\n      swap3\n      swap2\n      swap1\n      pop\n      pop\n      pop\n        /* \"input/NOIAVault.sol\":24774:24822  uint256 balance = token.balanceOf(address(this)) */\n      swap1\n      pop\n        /* \"input/NOIAVault.sol\":24851:24857  amount */\n      dup2\n        /* \"input/NOIAVault.sol\":24840:24847  balance */\n      dup2\n        /* \"input/NOIAVault.sol\":24840:24857  balance >= amount */\n      lt\n      iszero\n        /* \"input/NOIAVault.sol\":24832:24905  require(balance >= amount, \"Given amount is larger than current balance\") */\n      tag_188\n      jumpi\n      mload(0x40)\n      0x08c379a000000000000000000000000000000000000000000000000000000000\n      dup2\n      mstore\n      0x04\n      add\n      dup1\n      dup1\n      0x20\n      add\n      dup3\n      dup2\n      sub\n      dup3\n      mstore\n      0x2b\n      dup2\n      mstore\n      0x20\n      add\n      dup1\n      data_f88c2b987653742ecd02849285169f1eaaadf3e37ff12e2783d5486b802d0976\n      0x2b\n      swap2\n      codecopy\n      0x40\n      add\n      swap2\n      pop\n      pop\n      mload(0x40)\n      dup1\n      swap2\n      sub\n      swap1\n      revert\n    tag_188:\n        /* \"input/NOIAVault.sol\":24915:24945  token.safeTransfer(to, amount) */\n      tag_189\n        /* \"input/NOIAVault.sol\":24934:24936  to */\n      dup4\n        /* \"input/NOIAVault.sol\":24938:24944  amount */\n      dup4\n        /* \"input/NOIAVault.sol\":24915:24920  token */\n      dup7\n        /* \"input/NOIAVault.sol\":24915:24933  token.safeTransfer */\n      0xffffffffffffffffffffffffffffffffffffffff\n      and\n      tag_190\n      swap1\n        /* \"input/NOIAVault.sol\":24915:24945  token.safeTransfer(to, amount) */\n      swap3\n      swap2\n      swap1\n      0xffffffff\n      and\n      jump\t// in\n    tag_189:\n        /* \"input/NOIAVault.sol\":23217:23218  _ */\n      pop\n        /* \"input/NOIAVault.sol\":24682:24952  function recoverTokens(IERC20 token, address to, uint256 amount) public onlyOwner {... */\n      pop\n      pop\n      pop\n      jump\t// out\n        /* \"input/NOIAVault.sol\":25347:25385  mapping(address => bool) public notify */\n    tag_82:\n      mstore(0x20, 0x06)\n      dup1\n      0x00\n      mstore\n      keccak256(0x00, 0x40)\n      0x00\n      swap2\n      pop\n      sload\n      swap1\n      0x0100\n      exp\n      swap1\n      div\n      0xff\n      and\n      dup2\n      jump\t// out\n        /* \"input/NOIAVault.sol\":16016:16124  function balanceOf(address account) public view returns (uint256) {... */\n    tag_85:\n        /* \"input/NOIAVault.sol\":16073:16080  uint256 */\n      0x00\n        /* \"input/NOIAVault.sol\":16099:16108  _balances */\n      0x01\n        /* \"input/NOIAVault.sol\":16099:16117  _balances[account] */\n      0x00\n        /* \"input/NOIAVault.sol\":16109:16116  account */\n      dup4\n        /* \"input/NOIAVault.sol\":16099:16117  _balances[account] */\n      0xffffffffffffffffffffffffffffffffffffffff\n      and\n      0xffffffffffffffffffffffffffffffffffffffff\n      and\n      dup2\n      mstore\n      0x20\n      add\n      swap1\n      dup2\n      mstore\n      0x20\n      add\n      0x00\n      keccak256\n      sload\n        /* \"input/NOIAVault.sol\":16092:16117  return _balances[account] */\n      swap1\n      pop\n        /* \"input/NOIAVault.sol\":16016:16124  function balanceOf(address account) public view returns (uint256) {... */\n      swap2\n      swap1\n      pop\n      jump\t// out\n        /* \"input/NOIAVault.sol\":25315:25341  address public burnAddress */\n    tag_87:\n      0x05\n      0x00\n      swap1\n      sload\n      swap1\n      0x0100\n      exp\n      swap1\n      div\n      0xffffffffffffffffffffffffffffffffffffffff\n      and\n      dup2\n      jump\t// out\n        /* \"input/NOIAVault.sol\":23742:23879  function renounceOwnership() public onlyOwner {... */\n    tag_89:\n        /* \"input/NOIAVault.sol\":23161:23170  isOwner() */\n      tag_193\n        /* \"input/NOIAVault.sol\":23161:23168  isOwner */\n      tag_97\n        /* \"input/NOIAVault.sol\":23161:23170  isOwner() */\n      jump\t// in\n    tag_193:\n        /* \"input/NOIAVault.sol\":23153:23207  require(isOwner(), \"Ownable: caller is not the owner\") */\n      tag_194\n      jumpi\n      mload(0x40)\n      0x08c379a000000000000000000000000000000000000000000000000000000000\n      dup2\n      mstore\n      0x04\n      add\n      dup1\n      dup1\n      0x20\n      add\n      dup3\n      dup2\n      sub\n      dup3\n      mstore\n      0x20\n      dup2\n      mstore\n      0x20\n      add\n      dup1\n      0x4f776e61626c653a2063616c6c6572206973206e6f7420746865206f776e6572\n      dup2\n      mstore\n      pop\n      0x20\n      add\n      swap2\n      pop\n      pop\n      mload(0x40)\n      dup1\n      swap2\n      sub\n      swap1\n      revert\n    tag_194:\n        /* \"input/NOIAVault.sol\":23840:23841  0 */\n      0x00\n        /* \"input/NOIAVault.sol\":23803:23843  OwnershipTransferred(_owner, address(0)) */\n      0xffffffffffffffffffffffffffffffffffffffff\n      and\n        /* \"input/NOIAVault.sol\":23824:23830  _owner */\n      0x00\n      dup1\n      swap1\n      sload\n      swap1\n      0x0100\n      exp\n      swap1\n      div\n      0xffffffffffffffffffffffffffffffffffffffff\n      and\n        /* \"input/NOIAVault.sol\":23803:23843  OwnershipTransferred(_owner, address(0)) */\n      0xffffffffffffffffffffffffffffffffffffffff\n      and\n      0x8be0079c531659141344cd1fd0a4f28419497f9722a3daafe3b4186f6b6457e0\n      mload(0x40)\n      mload(0x40)\n      dup1\n      swap2\n      sub\n      swap1\n      log3\n        /* \"input/NOIAVault.sol\":23870:23871  0 */\n      0x00\n        /* \"input/NOIAVault.sol\":23853:23859  _owner */\n      dup1\n      0x00\n        /* \"input/NOIAVault.sol\":23853:23872  _owner = address(0) */\n      0x0100\n      exp\n      dup2\n      sload\n      dup2\n      0xffffffffffffffffffffffffffffffffffffffff\n      mul\n      not\n      and\n      swap1\n      dup4\n      0xffffffffffffffffffffffffffffffffffffffff\n      and\n      mul\n      or\n      swap1\n      sstore\n      pop\n        /* \"input/NOIAVault.sol\":23742:23879  function renounceOwnership() public onlyOwner {... */\n      jump\t// out\n        /* \"input/NOIAVault.sol\":25927:26027  function enableEtherlessTransfer() public onlyOwner {... */\n    tag_91:\n        /* \"input/NOIAVault.sol\":23161:23170  isOwner() */\n      tag_197\n        /* \"input/NOIAVault.sol\":23161:23168  isOwner */\n      tag_97\n        /* \"input/NOIAVault.sol\":23161:23170  isOwner() */\n      jump\t// in\n    tag_197:\n        /* \"input/NOIAVault.sol\":23153:23207  require(isOwner(), \"Ownable: caller is not the owner\") */\n      tag_198\n      jumpi\n      mload(0x40)\n      0x08c379a000000000000000000000000000000000000000000000000000000000\n      dup2\n      mstore\n      0x04\n      add\n      dup1\n      dup1\n      0x20\n      add\n      dup3\n      dup2\n      sub\n      dup3\n      mstore\n      0x20\n      dup2\n      mstore\n      0x20\n      add\n      dup1\n      0x4f776e61626c653a2063616c6c6572206973206e6f7420746865206f776e6572\n      dup2\n      mstore\n      pop\n      0x20\n      add\n      swap2\n      pop\n      pop\n      mload(0x40)\n      dup1\n      swap2\n      sub\n      swap1\n      revert\n    tag_198:\n        /* \"input/NOIAVault.sol\":26016:26020  true */\n      0x01\n        /* \"input/NOIAVault.sol\":25989:26013  etherlessTransferEnabled */\n      0x08\n      0x00\n        /* \"input/NOIAVault.sol\":25989:26020  etherlessTransferEnabled = true */\n      0x0100\n      exp\n      dup2\n      sload\n      dup2\n      0xff\n      mul\n      not\n      and\n      swap1\n      dup4\n      iszero\n      iszero\n      mul\n      or\n      swap1\n      sstore\n      pop\n        /* \"input/NOIAVault.sol\":25927:26027  function enableEtherlessTransfer() public onlyOwner {... */\n      jump\t// out\n        /* \"input/NOIAVault.sol\":26033:26135  function disableEtherlessTransfer() public onlyOwner {... */\n    tag_93:\n        /* \"input/NOIAVault.sol\":23161:23170  isOwner() */\n      tag_201\n        /* \"input/NOIAVault.sol\":23161:23168  isOwner */\n      tag_97\n        /* \"input/NOIAVault.sol\":23161:23170  isOwner() */\n      jump\t// in\n    tag_201:\n        /* \"input/NOIAVault.sol\":23153:23207  require(isOwner(), \"Ownable: caller is not the owner\") */\n      tag_202\n      jumpi\n      mload(0x40)\n      0x08c379a000000000000000000000000000000000000000000000000000000000\n      dup2\n      mstore\n      0x04\n      add\n      dup1\n      dup1\n      0x20\n      add\n      dup3\n      dup2\n      sub\n      dup3\n      mstore\n      0x20\n      dup2\n      mstore\n      0x20\n      add\n      dup1\n      0x4f776e61626c653a2063616c6c6572206973206e6f7420746865206f776e6572\n      dup2\n      mstore\n      pop\n      0x20\n      add\n      swap2\n      pop\n      pop\n      mload(0x40)\n      dup1\n      swap2\n      sub\n      swap1\n      revert\n    tag_202:\n        /* \"input/NOIAVault.sol\":26123:26128  false */\n      0x00\n        /* \"input/NOIAVault.sol\":26096:26120  etherlessTransferEnabled */\n      0x08\n      0x00\n        /* \"input/NOIAVault.sol\":26096:26128  etherlessTransferEnabled = false */\n      0x0100\n      exp\n      dup2\n      sload\n      dup2\n      0xff\n      mul\n      not\n      and\n      swap1\n      dup4\n      iszero\n      iszero\n      mul\n      or\n      swap1\n      sstore\n      pop\n        /* \"input/NOIAVault.sol\":26033:26135  function disableEtherlessTransfer() public onlyOwner {... */\n      jump\t// out\n        /* \"input/NOIAVault.sol\":22957:23034  function owner() public view returns (address) {... */\n    tag_95:\n        /* \"input/NOIAVault.sol\":22995:23002  address */\n      0x00\n        /* \"input/NOIAVault.sol\":23021:23027  _owner */\n      dup1\n      0x00\n      swap1\n      sload\n      swap1\n      0x0100\n      exp\n      swap1\n      div\n      0xffffffffffffffffffffffffffffffffffffffff\n      and\n        /* \"input/NOIAVault.sol\":23014:23027  return _owner */\n      swap1\n      pop\n        /* \"input/NOIAVault.sol\":22957:23034  function owner() public view returns (address) {... */\n      swap1\n      jump\t// out\n        /* \"input/NOIAVault.sol\":23308:23398  function isOwner() public view returns (bool) {... */\n    tag_97:\n        /* \"input/NOIAVault.sol\":23348:23352  bool */\n      0x00\n        /* \"input/NOIAVault.sol\":23385:23391  _owner */\n      dup1\n      0x00\n      swap1\n      sload\n      swap1\n      0x0100\n      exp\n      swap1\n      div\n      0xffffffffffffffffffffffffffffffffffffffff\n      and\n        /* \"input/NOIAVault.sol\":23371:23391  msg.sender == _owner */\n      0xffffffffffffffffffffffffffffffffffffffff\n      and\n        /* \"input/NOIAVault.sol\":23371:23381  msg.sender */\n      caller\n        /* \"input/NOIAVault.sol\":23371:23391  msg.sender == _owner */\n      0xffffffffffffffffffffffffffffffffffffffff\n      and\n      eq\n        /* \"input/NOIAVault.sol\":23364:23391  return msg.sender == _owner */\n      swap1\n      pop\n        /* \"input/NOIAVault.sol\":23308:23398  function isOwner() public view returns (bool) {... */\n      swap1\n      jump\t// out\n        /* \"input/NOIAVault.sol\":25149:25187  string public constant symbol = \"NOIA\" */\n    tag_99:\n      mload(0x40)\n      dup1\n      0x40\n      add\n      0x40\n      mstore\n      dup1\n      0x04\n      dup2\n      mstore\n      0x20\n      add\n      0x4e4f494100000000000000000000000000000000000000000000000000000000\n      dup2\n      mstore\n      pop\n      dup2\n      jump\t// out\n        /* \"input/NOIAVault.sol\":18747:18960  function decreaseAllowance(address spender, uint256 subtractedValue) public returns (bool) {... */\n    tag_106:\n        /* \"input/NOIAVault.sol\":18832:18836  bool */\n      0x00\n        /* \"input/NOIAVault.sol\":18848:18932  _approve(msg.sender, spender, _allowances[msg.sender][spender].sub(subtractedValue)) */\n      tag_207\n        /* \"input/NOIAVault.sol\":18857:18867  msg.sender */\n      caller\n        /* \"input/NOIAVault.sol\":18869:18876  spender */\n      dup5\n        /* \"input/NOIAVault.sol\":18878:18931  _allowances[msg.sender][spender].sub(subtractedValue) */\n      tag_208\n        /* \"input/NOIAVault.sol\":18915:18930  subtractedValue */\n      dup6\n        /* \"input/NOIAVault.sol\":18878:18889  _allowances */\n      0x02\n        /* \"input/NOIAVault.sol\":18878:18901  _allowances[msg.sender] */\n      0x00\n        /* \"input/NOIAVault.sol\":18890:18900  msg.sender */\n      caller\n        /* \"input/NOIAVault.sol\":18878:18901  _allowances[msg.sender] */\n      0xffffffffffffffffffffffffffffffffffffffff\n      and\n      0xffffffffffffffffffffffffffffffffffffffff\n      and\n      dup2\n      mstore\n      0x20\n      add\n      swap1\n      dup2\n      mstore\n      0x20\n      add\n      0x00\n      keccak256\n        /* \"input/NOIAVault.sol\":18878:18910  _allowances[msg.sender][spender] */\n      0x00\n        /* \"input/NOIAVault.sol\":18902:18909  spender */\n      dup10\n        /* \"input/NOIAVault.sol\":18878:18910  _allowances[msg.sender][spender] */\n      0xffffffffffffffffffffffffffffffffffffffff\n      and\n      0xffffffffffffffffffffffffffffffffffffffff\n      and\n      dup2\n      mstore\n      0x20\n      add\n      swap1\n      dup2\n      mstore\n      0x20\n      add\n      0x00\n      keccak256\n      sload\n        /* \"input/NOIAVault.sol\":18878:18914  _allowances[msg.sender][spender].sub */\n      tag_165\n      swap1\n        /* \"input/NOIAVault.sol\":18878:18931  _allowances[msg.sender][spender].sub(subtractedValue) */\n      swap2\n      swap1\n      0xffffffff\n      and\n      jump\t// in\n    tag_208:\n        /* \"input/NOIAVault.sol\":18848:18856  _approve */\n      tag_125\n        /* \"input/NOIAVault.sol\":18848:18932  _approve(msg.sender, spender, _allowances[msg.sender][spender].sub(subtractedValue)) */\n      jump\t// in\n    tag_207:\n        /* \"input/NOIAVault.sol\":18949:18953  true */\n      0x01\n        /* \"input/NOIAVault.sol\":18942:18953  return true */\n      swap1\n      pop\n        /* \"input/NOIAVault.sol\":18747:18960  function decreaseAllowance(address spender, uint256 subtractedValue) public returns (bool) {... */\n      swap3\n      swap2\n      pop\n      pop\n      jump\t// out\n        /* \"input/NOIAVault.sol\":26302:26533  function transfer(address to, uint256 value) public returns (bool) {... */\n    tag_109:\n        /* \"input/NOIAVault.sol\":26363:26367  bool */\n      0x00\n        /* \"input/NOIAVault.sol\":26379:26391  bool success */\n      dup1\n        /* \"input/NOIAVault.sol\":26394:26419  super.transfer(to, value) */\n      tag_210\n        /* \"input/NOIAVault.sol\":26409:26411  to */\n      dup5\n        /* \"input/NOIAVault.sol\":26413:26418  value */\n      dup5\n        /* \"input/NOIAVault.sol\":26394:26408  super.transfer */\n      tag_211\n        /* \"input/NOIAVault.sol\":26394:26419  super.transfer(to, value) */\n      jump\t// in\n    tag_210:\n        /* \"input/NOIAVault.sol\":26379:26419  bool success = super.transfer(to, value) */\n      swap1\n      pop\n        /* \"input/NOIAVault.sol\":26433:26440  success */\n      dup1\n        /* \"input/NOIAVault.sol\":26429:26503  if (success) {... */\n      iszero\n      tag_212\n      jumpi\n        /* \"input/NOIAVault.sol\":26456:26492  _postTransfer(msg.sender, to, value) */\n      tag_213\n        /* \"input/NOIAVault.sol\":26470:26480  msg.sender */\n      caller\n        /* \"input/NOIAVault.sol\":26482:26484  to */\n      dup6\n        /* \"input/NOIAVault.sol\":26486:26491  value */\n      dup6\n        /* \"input/NOIAVault.sol\":26456:26469  _postTransfer */\n      tag_144\n        /* \"input/NOIAVault.sol\":26456:26492  _postTransfer(msg.sender, to, value) */\n      jump\t// in\n    tag_213:\n        /* \"input/NOIAVault.sol\":26429:26503  if (success) {... */\n    tag_212:\n        /* \"input/NOIAVault.sol\":26519:26526  success */\n      dup1\n        /* \"input/NOIAVault.sol\":26512:26526  return success */\n      swap2\n      pop\n      pop\n        /* \"input/NOIAVault.sol\":26302:26533  function transfer(address to, uint256 value) public returns (bool) {... */\n      swap3\n      swap2\n      pop\n      pop\n      jump\t// out\n        /* \"input/NOIAVault.sol\":25242:25285  uint256 public tokensToMint = 1000000000e18 */\n    tag_111:\n      sload(0x04)\n      dup2\n      jump\t// out\n        /* \"input/NOIAVault.sol\":30879:31202  function hashForSign(... */\n    tag_114:\n        /* \"input/NOIAVault.sol\":31092:31099  bytes32 */\n      0x00\n        /* \"input/NOIAVault.sol\":31149:31158  _selector */\n      dup7\n        /* \"input/NOIAVault.sol\":31160:31166  _token */\n      dup7\n        /* \"input/NOIAVault.sol\":31168:31171  _to */\n      dup7\n        /* \"input/NOIAVault.sol\":31173:31179  _value */\n      dup7\n        /* \"input/NOIAVault.sol\":31181:31185  _fee */\n      dup7\n        /* \"input/NOIAVault.sol\":31187:31193  _nonce */\n      dup7\n        /* \"input/NOIAVault.sol\":31132:31194  abi.encodePacked(_selector, _token, _to, _value, _fee, _nonce) */\n      add(0x20, mload(0x40))\n      dup1\n      dup8\n      not(0xffffffffffffffffffffffffffffffffffffffffffffffffffffffff)\n      and\n      not(0xffffffffffffffffffffffffffffffffffffffffffffffffffffffff)\n      and\n      dup2\n      mstore\n      0x04\n      add\n      dup7\n      0xffffffffffffffffffffffffffffffffffffffff\n      and\n      0xffffffffffffffffffffffffffffffffffffffff\n      and\n      0x60\n      shl\n      dup2\n      mstore\n      0x14\n      add\n      dup6\n      0xffffffffffffffffffffffffffffffffffffffff\n      and\n      0xffffffffffffffffffffffffffffffffffffffff\n      and\n      0x60\n      shl\n      dup2\n      mstore\n      0x14\n      add\n      dup5\n      dup2\n      mstore\n      0x20\n      add\n      dup4\n      dup2\n      mstore\n      0x20\n      add\n      dup3\n      dup2\n      mstore\n      0x20\n      add\n      swap7\n      pop\n      pop\n      pop\n      pop\n      pop\n      pop\n      pop\n      mload(0x40)\n        /* \"--CODEGEN--\":49:53   */\n      0x20\n        /* \"--CODEGEN--\":39:46   */\n      dup2\n        /* \"--CODEGEN--\":30:37   */\n      dup4\n        /* \"--CODEGEN--\":26:47   */\n      sub\n        /* \"--CODEGEN--\":22:54   */\n      sub\n        /* \"--CODEGEN--\":13:20   */\n      dup2\n        /* \"--CODEGEN--\":6:55   */\n      mstore\n        /* \"input/NOIAVault.sol\":31132:31194  abi.encodePacked(_selector, _token, _to, _value, _fee, _nonce) */\n      swap1\n      0x40\n      mstore\n        /* \"input/NOIAVault.sol\":31122:31195  keccak256(abi.encodePacked(_selector, _token, _to, _value, _fee, _nonce)) */\n      dup1\n      mload\n      swap1\n      0x20\n      add\n      keccak256\n        /* \"input/NOIAVault.sol\":31115:31195  return keccak256(abi.encodePacked(_selector, _token, _to, _value, _fee, _nonce)) */\n      swap1\n      pop\n        /* \"input/NOIAVault.sol\":30879:31202  function hashForSign(... */\n      swap7\n      swap6\n      pop\n      pop\n      pop\n      pop\n      pop\n      pop\n      jump\t// out\n        /* \"input/NOIAVault.sol\":16538:16670  function allowance(address owner, address spender) public view returns (uint256) {... */\n    tag_117:\n        /* \"input/NOIAVault.sol\":16610:16617  uint256 */\n      0x00\n        /* \"input/NOIAVault.sol\":16636:16647  _allowances */\n      0x02\n        /* \"input/NOIAVault.sol\":16636:16654  _allowances[owner] */\n      0x00\n        /* \"input/NOIAVault.sol\":16648:16653  owner */\n      dup5\n        /* \"input/NOIAVault.sol\":16636:16654  _allowances[owner] */\n      0xffffffffffffffffffffffffffffffffffffffff\n      and\n      0xffffffffffffffffffffffffffffffffffffffff\n      and\n      dup2\n      mstore\n      0x20\n      add\n      swap1\n      dup2\n      mstore\n      0x20\n      add\n      0x00\n      keccak256\n        /* \"input/NOIAVault.sol\":16636:16663  _allowances[owner][spender] */\n      0x00\n        /* \"input/NOIAVault.sol\":16655:16662  spender */\n      dup4\n        /* \"input/NOIAVault.sol\":16636:16663  _allowances[owner][spender] */\n      0xffffffffffffffffffffffffffffffffffffffff\n      and\n      0xffffffffffffffffffffffffffffffffffffffff\n      and\n      dup2\n      mstore\n      0x20\n      add\n      swap1\n      dup2\n      mstore\n      0x20\n      add\n      0x00\n      keccak256\n      sload\n        /* \"input/NOIAVault.sol\":16629:16663  return _allowances[owner][spender] */\n      swap1\n      pop\n        /* \"input/NOIAVault.sol\":16538:16670  function allowance(address owner, address spender) public view returns (uint256) {... */\n      swap3\n      swap2\n      pop\n      pop\n      jump\t// out\n        /* \"input/NOIAVault.sol\":25849:25921  function unregister() public {... */\n    tag_119:\n        /* \"input/NOIAVault.sol\":25909:25914  false */\n      0x00\n        /* \"input/NOIAVault.sol\":25888:25894  notify */\n      0x06\n        /* \"input/NOIAVault.sol\":25888:25906  notify[msg.sender] */\n      0x00\n        /* \"input/NOIAVault.sol\":25895:25905  msg.sender */\n      caller\n        /* \"input/NOIAVault.sol\":25888:25906  notify[msg.sender] */\n      0xffffffffffffffffffffffffffffffffffffffff\n      and\n      0xffffffffffffffffffffffffffffffffffffffff\n      and\n      dup2\n      mstore\n      0x20\n      add\n      swap1\n      dup2\n      mstore\n      0x20\n      add\n      0x00\n      keccak256\n      0x00\n        /* \"input/NOIAVault.sol\":25888:25914  notify[msg.sender] = false */\n      0x0100\n      exp\n      dup2\n      sload\n      dup2\n      0xff\n      mul\n      not\n      and\n      swap1\n      dup4\n      iszero\n      iszero\n      mul\n      or\n      swap1\n      sstore\n      pop\n        /* \"input/NOIAVault.sol\":25849:25921  function unregister() public {... */\n      jump\t// out\n        /* \"input/NOIAVault.sol\":24028:24135  function transferOwnership(address newOwner) public onlyOwner {... */\n    tag_122:\n        /* \"input/NOIAVault.sol\":23161:23170  isOwner() */\n      tag_218\n        /* \"input/NOIAVault.sol\":23161:23168  isOwner */\n      tag_97\n        /* \"input/NOIAVault.sol\":23161:23170  isOwner() */\n      jump\t// in\n    tag_218:\n        /* \"input/NOIAVault.sol\":23153:23207  require(isOwner(), \"Ownable: caller is not the owner\") */\n      tag_219\n      jumpi\n      mload(0x40)\n      0x08c379a000000000000000000000000000000000000000000000000000000000\n      dup2\n      mstore\n      0x04\n      add\n      dup1\n      dup1\n      0x20\n      add\n      dup3\n      dup2\n      sub\n      dup3\n      mstore\n      0x20\n      dup2\n      mstore\n      0x20\n      add\n      dup1\n      0x4f776e61626c653a2063616c6c6572206973206e6f7420746865206f776e6572\n      dup2\n      mstore\n      pop\n      0x20\n      add\n      swap2\n      pop\n      pop\n      mload(0x40)\n      dup1\n      swap2\n      sub\n      swap1\n      revert\n    tag_219:\n        /* \"input/NOIAVault.sol\":24100:24128  _transferOwnership(newOwner) */\n      tag_221\n        /* \"input/NOIAVault.sol\":24119:24127  newOwner */\n      dup2\n        /* \"input/NOIAVault.sol\":24100:24118  _transferOwnership */\n      tag_222\n        /* \"input/NOIAVault.sol\":24100:24128  _transferOwnership(newOwner) */\n      jump\t// in\n    tag_221:\n        /* \"input/NOIAVault.sol\":24028:24135  function transferOwnership(address newOwner) public onlyOwner {... */\n      pop\n      jump\t// out\n        /* \"input/NOIAVault.sol\":21472:21801  function _approve(address owner, address spender, uint256 value) internal {... */\n    tag_125:\n        /* \"input/NOIAVault.sol\":21581:21582  0 */\n      0x00\n        /* \"input/NOIAVault.sol\":21564:21583  owner != address(0) */\n      0xffffffffffffffffffffffffffffffffffffffff\n      and\n        /* \"input/NOIAVault.sol\":21564:21569  owner */\n      dup4\n        /* \"input/NOIAVault.sol\":21564:21583  owner != address(0) */\n      0xffffffffffffffffffffffffffffffffffffffff\n      and\n      eq\n      iszero\n        /* \"input/NOIAVault.sol\":21556:21624  require(owner != address(0), \"ERC20: approve from the zero address\") */\n      tag_224\n      jumpi\n      mload(0x40)\n      0x08c379a000000000000000000000000000000000000000000000000000000000\n      dup2\n      mstore\n      0x04\n      add\n      dup1\n      dup1\n      0x20\n      add\n      dup3\n      dup2\n      sub\n      dup3\n      mstore\n      0x24\n      dup2\n      mstore\n      0x20\n      add\n      dup1\n      data_c953f4879035ed60e766b34720f656aab5c697b141d924c283124ecedb91c208\n      0x24\n      swap2\n      codecopy\n      0x40\n      add\n      swap2\n      pop\n      pop\n      mload(0x40)\n      dup1\n      swap2\n      sub\n      swap1\n      revert\n    tag_224:\n        /* \"input/NOIAVault.sol\":21661:21662  0 */\n      0x00\n        /* \"input/NOIAVault.sol\":21642:21663  spender != address(0) */\n      0xffffffffffffffffffffffffffffffffffffffff\n      and\n        /* \"input/NOIAVault.sol\":21642:21649  spender */\n      dup3\n        /* \"input/NOIAVault.sol\":21642:21663  spender != address(0) */\n      0xffffffffffffffffffffffffffffffffffffffff\n      and\n      eq\n      iszero\n        /* \"input/NOIAVault.sol\":21634:21702  require(spender != address(0), \"ERC20: approve to the zero address\") */\n      tag_225\n      jumpi\n      mload(0x40)\n      0x08c379a000000000000000000000000000000000000000000000000000000000\n      dup2\n      mstore\n      0x04\n      add\n      dup1\n      dup1\n      0x20\n      add\n      dup3\n      dup2\n      sub\n      dup3\n      mstore\n      0x22\n      dup2\n      mstore\n      0x20\n      add\n      dup1\n      data_24883cc5fe64ace9d0df1893501ecb93c77180f0ff69cca79affb3c316dc8029\n      0x22\n      swap2\n      codecopy\n      0x40\n      add\n      swap2\n      pop\n      pop\n      mload(0x40)\n      dup1\n      swap2\n      sub\n      swap1\n      revert\n    tag_225:\n        /* \"input/NOIAVault.sol\":21743:21748  value */\n      dup1\n        /* \"input/NOIAVault.sol\":21713:21724  _allowances */\n      0x02\n        /* \"input/NOIAVault.sol\":21713:21731  _allowances[owner] */\n      0x00\n        /* \"input/NOIAVault.sol\":21725:21730  owner */\n      dup6\n        /* \"input/NOIAVault.sol\":21713:21731  _allowances[owner] */\n      0xffffffffffffffffffffffffffffffffffffffff\n      and\n      0xffffffffffffffffffffffffffffffffffffffff\n      and\n      dup2\n      mstore\n      0x20\n      add\n      swap1\n      dup2\n      mstore\n      0x20\n      add\n      0x00\n      keccak256\n        /* \"input/NOIAVault.sol\":21713:21740  _allowances[owner][spender] */\n      0x00\n        /* \"input/NOIAVault.sol\":21732:21739  spender */\n      dup5\n        /* \"input/NOIAVault.sol\":21713:21740  _allowances[owner][spender] */\n      0xffffffffffffffffffffffffffffffffffffffff\n      and\n      0xffffffffffffffffffffffffffffffffffffffff\n      and\n      dup2\n      mstore\n      0x20\n      add\n      swap1\n      dup2\n      mstore\n      0x20\n      add\n      0x00\n      keccak256\n        /* \"input/NOIAVault.sol\":21713:21748  _allowances[owner][spender] = value */\n      dup2\n      swap1\n      sstore\n      pop\n        /* \"input/NOIAVault.sol\":21779:21786  spender */\n      dup2\n        /* \"input/NOIAVault.sol\":21763:21794  Approval(owner, spender, value) */\n      0xffffffffffffffffffffffffffffffffffffffff\n      and\n        /* \"input/NOIAVault.sol\":21772:21777  owner */\n      dup4\n        /* \"input/NOIAVault.sol\":21763:21794  Approval(owner, spender, value) */\n      0xffffffffffffffffffffffffffffffffffffffff\n      and\n      0x8c5be1e5ebec7d5bd14f71427d1e84f3dd0314c0f7b2291e5b200ac8c7c3b925\n        /* \"input/NOIAVault.sol\":21788:21793  value */\n      dup4\n        /* \"input/NOIAVault.sol\":21763:21794  Approval(owner, spender, value) */\n      mload(0x40)\n      dup1\n      dup3\n      dup2\n      mstore\n      0x20\n      add\n      swap2\n      pop\n      pop\n      mload(0x40)\n      dup1\n      swap2\n      sub\n      swap1\n      log3\n        /* \"input/NOIAVault.sol\":21472:21801  function _approve(address owner, address spender, uint256 value) internal {... */\n      pop\n      pop\n      pop\n      jump\t// out\n        /* \"input/NOIAVault.sol\":7853:8118  function toEthSignedMessageHash(bytes32 hash) internal pure returns (bytes32) {... */\n    tag_133:\n        /* \"input/NOIAVault.sol\":7922:7929  bytes32 */\n      0x00\n        /* \"input/NOIAVault.sol\":8105:8109  hash */\n      dup2\n        /* \"input/NOIAVault.sol\":8052:8110  abi.encodePacked(\"\\x19Ethereum Signed Message:\\n32\", hash) */\n      add(0x20, mload(0x40))\n      dup1\n      dup1\n      0x19457468657265756d205369676e6564204d6573736167653a0a333200000000\n      dup2\n      mstore\n      pop\n      0x1c\n      add\n      dup3\n      dup2\n      mstore\n      0x20\n      add\n      swap2\n      pop\n      pop\n      mload(0x40)\n        /* \"--CODEGEN--\":49:53   */\n      0x20\n        /* \"--CODEGEN--\":39:46   */\n      dup2\n        /* \"--CODEGEN--\":30:37   */\n      dup4\n        /* \"--CODEGEN--\":26:47   */\n      sub\n        /* \"--CODEGEN--\":22:54   */\n      sub\n        /* \"--CODEGEN--\":13:20   */\n      dup2\n        /* \"--CODEGEN--\":6:55   */\n      mstore\n        /* \"input/NOIAVault.sol\":8052:8110  abi.encodePacked(\"\\x19Ethereum Signed Message:\\n32\", hash) */\n      swap1\n      0x40\n      mstore\n        /* \"input/NOIAVault.sol\":8042:8111  keccak256(abi.encodePacked(\"\\x19Ethereum Signed Message:\\n32\", hash)) */\n      dup1\n      mload\n      swap1\n      0x20\n      add\n      keccak256\n        /* \"input/NOIAVault.sol\":8035:8111  return keccak256(abi.encodePacked(\"\\x19Ethereum Signed Message:\\n32\", hash)) */\n      swap1\n      pop\n        /* \"input/NOIAVault.sol\":7853:8118  function toEthSignedMessageHash(bytes32 hash) internal pure returns (bytes32) {... */\n      swap2\n      swap1\n      pop\n      jump\t// out\n        /* \"input/NOIAVault.sol\":5696:7587  function recover(bytes32 hash, bytes memory signature) internal pure returns (address) {... */\n    tag_134:\n        /* \"input/NOIAVault.sol\":5774:5781  address */\n      0x00\n        /* \"input/NOIAVault.sol\":5855:5857  65 */\n      0x41\n        /* \"input/NOIAVault.sol\":5835:5844  signature */\n      dup3\n        /* \"input/NOIAVault.sol\":5835:5851  signature.length */\n      mload\n        /* \"input/NOIAVault.sol\":5835:5857  signature.length != 65 */\n      eq\n        /* \"input/NOIAVault.sol\":5831:5903  if (signature.length != 65) {... */\n      tag_228\n      jumpi\n        /* \"input/NOIAVault.sol\":5889:5890  0 */\n      0x00\n        /* \"input/NOIAVault.sol\":5873:5892  return (address(0)) */\n      swap1\n      pop\n      jump(tag_227)\n        /* \"input/NOIAVault.sol\":5831:5903  if (signature.length != 65) {... */\n    tag_228:\n        /* \"input/NOIAVault.sol\":5969:5978  bytes32 r */\n      0x00\n        /* \"input/NOIAVault.sol\":5988:5997  bytes32 s */\n      dup1\n        /* \"input/NOIAVault.sol\":6007:6014  uint8 v */\n      0x00\n        /* \"input/NOIAVault.sol\":6253:6257  0x20 */\n      0x20\n        /* \"input/NOIAVault.sol\":6242:6251  signature */\n      dup6\n        /* \"input/NOIAVault.sol\":6238:6258  add(signature, 0x20) */\n      add\n        /* \"input/NOIAVault.sol\":6232:6259  mload(add(signature, 0x20)) */\n      mload\n        /* \"input/NOIAVault.sol\":6227:6259  r := mload(add(signature, 0x20)) */\n      swap3\n      pop\n        /* \"input/NOIAVault.sol\":6298:6302  0x40 */\n      0x40\n        /* \"input/NOIAVault.sol\":6287:6296  signature */\n      dup6\n        /* \"input/NOIAVault.sol\":6283:6303  add(signature, 0x40) */\n      add\n        /* \"input/NOIAVault.sol\":6277:6304  mload(add(signature, 0x40)) */\n      mload\n        /* \"input/NOIAVault.sol\":6272:6304  s := mload(add(signature, 0x40)) */\n      swap2\n      pop\n        /* \"input/NOIAVault.sol\":6351:6355  0x60 */\n      0x60\n        /* \"input/NOIAVault.sol\":6340:6349  signature */\n      dup6\n        /* \"input/NOIAVault.sol\":6336:6356  add(signature, 0x60) */\n      add\n        /* \"input/NOIAVault.sol\":6330:6357  mload(add(signature, 0x60)) */\n      mload\n        /* \"input/NOIAVault.sol\":6327:6328  0 */\n      0x00\n        /* \"input/NOIAVault.sol\":6322:6358  byte(0, mload(add(signature, 0x60))) */\n      byte\n        /* \"input/NOIAVault.sol\":6317:6358  v := byte(0, mload(add(signature, 0x60))) */\n      swap1\n      pop\n        /* \"input/NOIAVault.sol\":7269:7335  0x7FFFFFFFFFFFFFFFFFFFFFFFFFFFFFFF5D576E7357A4501DDFE92F46681B20A0 */\n      0x7fffffffffffffffffffffffffffffff5d576e7357a4501ddfe92f46681b20a0\n        /* \"input/NOIAVault.sol\":7264:7265  s */\n      dup3\n        /* \"input/NOIAVault.sol\":7256:7266  uint256(s) */\n      0x00\n      shr\n        /* \"input/NOIAVault.sol\":7256:7335  uint256(s) > 0x7FFFFFFFFFFFFFFFFFFFFFFFFFFFFFFF5D576E7357A4501DDFE92F46681B20A0 */\n      gt\n        /* \"input/NOIAVault.sol\":7252:7379  if (uint256(s) > 0x7FFFFFFFFFFFFFFFFFFFFFFFFFFFFFFF5D576E7357A4501DDFE92F46681B20A0) {... */\n      iszero\n      tag_229\n      jumpi\n        /* \"input/NOIAVault.sol\":7366:7367  0 */\n      0x00\n        /* \"input/NOIAVault.sol\":7351:7368  return address(0) */\n      swap4\n      pop\n      pop\n      pop\n      pop\n      jump(tag_227)\n        /* \"input/NOIAVault.sol\":7252:7379  if (uint256(s) > 0x7FFFFFFFFFFFFFFFFFFFFFFFFFFFFFFF5D576E7357A4501DDFE92F46681B20A0) {... */\n    tag_229:\n        /* \"input/NOIAVault.sol\":7398:7400  27 */\n      0x1b\n        /* \"input/NOIAVault.sol\":7393:7394  v */\n      dup2\n        /* \"input/NOIAVault.sol\":7393:7400  v != 27 */\n      0xff\n      and\n      eq\n      iszero\n        /* \"input/NOIAVault.sol\":7393:7411  v != 27 && v != 28 */\n      dup1\n      iszero\n      tag_230\n      jumpi\n      pop\n        /* \"input/NOIAVault.sol\":7409:7411  28 */\n      0x1c\n        /* \"input/NOIAVault.sol\":7404:7405  v */\n      dup2\n        /* \"input/NOIAVault.sol\":7404:7411  v != 28 */\n      0xff\n      and\n      eq\n      iszero\n        /* \"input/NOIAVault.sol\":7393:7411  v != 27 && v != 28 */\n    tag_230:\n        /* \"input/NOIAVault.sol\":7389:7455  if (v != 27 && v != 28) {... */\n      iszero\n      tag_231\n      jumpi\n        /* \"input/NOIAVault.sol\":7442:7443  0 */\n      0x00\n        /* \"input/NOIAVault.sol\":7427:7444  return address(0) */\n      swap4\n      pop\n      pop\n      pop\n      pop\n      jump(tag_227)\n        /* \"input/NOIAVault.sol\":7389:7455  if (v != 27 && v != 28) {... */\n    tag_231:\n        /* \"input/NOIAVault.sol\":7556:7580  ecrecover(hash, v, r, s) */\n      0x01\n        /* \"input/NOIAVault.sol\":7566:7570  hash */\n      dup7\n        /* \"input/NOIAVault.sol\":7572:7573  v */\n      dup3\n        /* \"input/NOIAVault.sol\":7575:7576  r */\n      dup6\n        /* \"input/NOIAVault.sol\":7578:7579  s */\n      dup6\n        /* \"input/NOIAVault.sol\":7556:7580  ecrecover(hash, v, r, s) */\n      mload(0x40)\n      0x00\n      dup2\n      mstore\n      0x20\n      add\n      0x40\n      mstore\n      mload(0x40)\n      dup1\n      dup6\n      dup2\n      mstore\n      0x20\n      add\n      dup5\n      0xff\n      and\n      0xff\n      and\n      dup2\n      mstore\n      0x20\n      add\n      dup4\n      dup2\n      mstore\n      0x20\n      add\n      dup3\n      dup2\n      mstore\n      0x20\n      add\n      swap5\n      pop\n      pop\n      pop\n      pop\n      pop\n      0x20\n      mload(0x40)\n      0x20\n      dup2\n      sub\n      swap1\n      dup1\n      dup5\n      sub\n      swap1\n      dup6\n      gas\n      staticcall\n      iszero\n        /* \"--CODEGEN--\":8:17   */\n      dup1\n        /* \"--CODEGEN--\":5:7   */\n      iszero\n      tag_232\n      jumpi\n        /* \"--CODEGEN--\":45:61   */\n      returndatasize\n        /* \"--CODEGEN--\":42:43   */\n      0x00\n        /* \"--CODEGEN--\":39:40   */\n      dup1\n        /* \"--CODEGEN--\":24:62   */\n      returndatacopy\n        /* \"--CODEGEN--\":77:93   */\n      returndatasize\n        /* \"--CODEGEN--\":74:75   */\n      0x00\n        /* \"--CODEGEN--\":67:94   */\n      revert\n        /* \"--CODEGEN--\":5:7   */\n    tag_232:\n        /* \"input/NOIAVault.sol\":7556:7580  ecrecover(hash, v, r, s) */\n      pop\n      pop\n      pop\n      mload(sub(mload(0x40), 0x20))\n        /* \"input/NOIAVault.sol\":7549:7580  return ecrecover(hash, v, r, s) */\n      swap4\n      pop\n      pop\n      pop\n      pop\n        /* \"input/NOIAVault.sol\":5696:7587  function recover(bytes32 hash, bytes memory signature) internal pure returns (address) {... */\n    tag_227:\n      swap3\n      swap2\n      pop\n      pop\n      jump\t// out\n        /* \"input/NOIAVault.sol\":862:1038  function add(uint256 a, uint256 b) internal pure returns (uint256) {... */\n    tag_140:\n        /* \"input/NOIAVault.sol\":920:927  uint256 */\n      0x00\n        /* \"input/NOIAVault.sol\":939:948  uint256 c */\n      dup1\n        /* \"input/NOIAVault.sol\":955:956  b */\n      dup3\n        /* \"input/NOIAVault.sol\":951:952  a */\n      dup5\n        /* \"input/NOIAVault.sol\":951:956  a + b */\n      add\n        /* \"input/NOIAVault.sol\":939:956  uint256 c = a + b */\n      swap1\n      pop\n        /* \"input/NOIAVault.sol\":979:980  a */\n      dup4\n        /* \"input/NOIAVault.sol\":974:975  c */\n      dup2\n        /* \"input/NOIAVault.sol\":974:980  c >= a */\n      lt\n      iszero\n        /* \"input/NOIAVault.sol\":966:1012  require(c >= a, \"SafeMath: addition overflow\") */\n      tag_234\n      jumpi\n      mload(0x40)\n      0x08c379a000000000000000000000000000000000000000000000000000000000\n      dup2\n      mstore\n      0x04\n      add\n      dup1\n      dup1\n      0x20\n      add\n      dup3\n      dup2\n      sub\n      dup3\n      mstore\n      0x1b\n      dup2\n      mstore\n      0x20\n      add\n      dup1\n      0x536166654d6174683a206164646974696f6e206f766572666c6f770000000000\n      dup2\n      mstore\n      pop\n      0x20\n      add\n      swap2\n      pop\n      pop\n      mload(0x40)\n      dup1\n      swap2\n      sub\n      swap1\n      revert\n    tag_234:\n        /* \"input/NOIAVault.sol\":1030:1031  c */\n      dup1\n        /* \"input/NOIAVault.sol\":1023:1031  return c */\n      swap2\n      pop\n      pop\n        /* \"input/NOIAVault.sol\":862:1038  function add(uint256 a, uint256 b) internal pure returns (uint256) {... */\n      swap3\n      swap2\n      pop\n      pop\n      jump\t// out\n        /* \"input/NOIAVault.sol\":19434:19856  function _transfer(address sender, address recipient, uint256 amount) internal {... */\n    tag_141:\n        /* \"input/NOIAVault.sol\":19549:19550  0 */\n      0x00\n        /* \"input/NOIAVault.sol\":19531:19551  sender != address(0) */\n      0xffffffffffffffffffffffffffffffffffffffff\n      and\n        /* \"input/NOIAVault.sol\":19531:19537  sender */\n      dup4\n        /* \"input/NOIAVault.sol\":19531:19551  sender != address(0) */\n      0xffffffffffffffffffffffffffffffffffffffff\n      and\n      eq\n      iszero\n        /* \"input/NOIAVault.sol\":19523:19593  require(sender != address(0), \"ERC20: transfer from the zero address\") */\n      tag_236\n      jumpi\n      mload(0x40)\n      0x08c379a000000000000000000000000000000000000000000000000000000000\n      dup2\n      mstore\n      0x04\n      add\n      dup1\n      dup1\n      0x20\n      add\n      dup3\n      dup2\n      sub\n      dup3\n      mstore\n      0x25\n      dup2\n      mstore\n      0x20\n      add\n      dup1\n      data_baecc556b46f4ed0f2b4cb599d60785ac8563dd2dc0a5bf12edea1c39e5e1fea\n      0x25\n      swap2\n      codecopy\n      0x40\n      add\n      swap2\n      pop\n      pop\n      mload(0x40)\n      dup1\n      swap2\n      sub\n      swap1\n      revert\n    tag_236:\n        /* \"input/NOIAVault.sol\":19632:19633  0 */\n      0x00\n        /* \"input/NOIAVault.sol\":19611:19634  recipient != address(0) */\n      0xffffffffffffffffffffffffffffffffffffffff\n      and\n        /* \"input/NOIAVault.sol\":19611:19620  recipient */\n      dup3\n        /* \"input/NOIAVault.sol\":19611:19634  recipient != address(0) */\n      0xffffffffffffffffffffffffffffffffffffffff\n      and\n      eq\n      iszero\n        /* \"input/NOIAVault.sol\":19603:19674  require(recipient != address(0), \"ERC20: transfer to the zero address\") */\n      tag_237\n      jumpi\n      mload(0x40)\n      0x08c379a000000000000000000000000000000000000000000000000000000000\n      dup2\n      mstore\n      0x04\n      add\n      dup1\n      dup1\n      0x20\n      add\n      dup3\n      dup2\n      sub\n      dup3\n      mstore\n      0x23\n      dup2\n      mstore\n      0x20\n      add\n      dup1\n      data_0557e210f7a69a685100a7e4e3d0a7024c546085cee28910fd17d0b081d9516f\n      0x23\n      swap2\n      codecopy\n      0x40\n      add\n      swap2\n      pop\n      pop\n      mload(0x40)\n      dup1\n      swap2\n      sub\n      swap1\n      revert\n    tag_237:\n        /* \"input/NOIAVault.sol\":19705:19734  _balances[sender].sub(amount) */\n      tag_238\n        /* \"input/NOIAVault.sol\":19727:19733  amount */\n      dup2\n        /* \"input/NOIAVault.sol\":19705:19714  _balances */\n      0x01\n        /* \"input/NOIAVault.sol\":19705:19722  _balances[sender] */\n      0x00\n        /* \"input/NOIAVault.sol\":19715:19721  sender */\n      dup7\n        /* \"input/NOIAVault.sol\":19705:19722  _balances[sender] */\n      0xffffffffffffffffffffffffffffffffffffffff\n      and\n      0xffffffffffffffffffffffffffffffffffffffff\n      and\n      dup2\n      mstore\n      0x20\n      add\n      swap1\n      dup2\n      mstore\n      0x20\n      add\n      0x00\n      keccak256\n      sload\n        /* \"input/NOIAVault.sol\":19705:19726  _balances[sender].sub */\n      tag_165\n      swap1\n        /* \"input/NOIAVault.sol\":19705:19734  _balances[sender].sub(amount) */\n      swap2\n      swap1\n      0xffffffff\n      and\n      jump\t// in\n    tag_238:\n        /* \"input/NOIAVault.sol\":19685:19694  _balances */\n      0x01\n        /* \"input/NOIAVault.sol\":19685:19702  _balances[sender] */\n      0x00\n        /* \"input/NOIAVault.sol\":19695:19701  sender */\n      dup6\n        /* \"input/NOIAVault.sol\":19685:19702  _balances[sender] */\n      0xffffffffffffffffffffffffffffffffffffffff\n      and\n      0xffffffffffffffffffffffffffffffffffffffff\n      and\n      dup2\n      mstore\n      0x20\n      add\n      swap1\n      dup2\n      mstore\n      0x20\n      add\n      0x00\n      keccak256\n        /* \"input/NOIAVault.sol\":19685:19734  _balances[sender] = _balances[sender].sub(amount) */\n      dup2\n      swap1\n      sstore\n      pop\n        /* \"input/NOIAVault.sol\":19767:19799  _balances[recipient].add(amount) */\n      tag_239\n        /* \"input/NOIAVault.sol\":19792:19798  amount */\n      dup2\n        /* \"input/NOIAVault.sol\":19767:19776  _balances */\n      0x01\n        /* \"input/NOIAVault.sol\":19767:19787  _balances[recipient] */\n      0x00\n        /* \"input/NOIAVault.sol\":19777:19786  recipient */\n      dup6\n        /* \"input/NOIAVault.sol\":19767:19787  _balances[recipient] */\n      0xffffffffffffffffffffffffffffffffffffffff\n      and\n      0xffffffffffffffffffffffffffffffffffffffff\n      and\n      dup2\n      mstore\n      0x20\n      add\n      swap1\n      dup2\n      mstore\n      0x20\n      add\n      0x00\n      keccak256\n      sload\n        /* \"input/NOIAVault.sol\":19767:19791  _balances[recipient].add */\n      tag_140\n      swap1\n        /* \"input/NOIAVault.sol\":19767:19799  _balances[recipient].add(amount) */\n      swap2\n      swap1\n      0xffffffff\n      and\n      jump\t// in\n    tag_239:\n        /* \"input/NOIAVault.sol\":19744:19753  _balances */\n      0x01\n        /* \"input/NOIAVault.sol\":19744:19764  _balances[recipient] */\n      0x00\n        /* \"input/NOIAVault.sol\":19754:19763  recipient */\n      dup5\n        /* \"input/NOIAVault.sol\":19744:19764  _balances[recipient] */\n      0xffffffffffffffffffffffffffffffffffffffff\n      and\n      0xffffffffffffffffffffffffffffffffffffffff\n      and\n      dup2\n      mstore\n      0x20\n      add\n      swap1\n      dup2\n      mstore\n      0x20\n      add\n      0x00\n      keccak256\n        /* \"input/NOIAVault.sol\":19744:19799  _balances[recipient] = _balances[recipient].add(amount) */\n      dup2\n      swap1\n      sstore\n      pop\n        /* \"input/NOIAVault.sol\":19831:19840  recipient */\n      dup2\n        /* \"input/NOIAVault.sol\":19814:19849  Transfer(sender, recipient, amount) */\n      0xffffffffffffffffffffffffffffffffffffffff\n      and\n        /* \"input/NOIAVault.sol\":19823:19829  sender */\n      dup4\n        /* \"input/NOIAVault.sol\":19814:19849  Transfer(sender, recipient, amount) */\n      0xffffffffffffffffffffffffffffffffffffffff\n      and\n      0xddf252ad1be2c89b69c2b068fc378daa952ba7f163c4a11628f55a4df523b3ef\n        /* \"input/NOIAVault.sol\":19842:19848  amount */\n      dup4\n        /* \"input/NOIAVault.sol\":19814:19849  Transfer(sender, recipient, amount) */\n      mload(0x40)\n      dup1\n      dup3\n      dup2\n      mstore\n      0x20\n      add\n      swap2\n      pop\n      pop\n      mload(0x40)\n      dup1\n      swap2\n      sub\n      swap1\n      log3\n        /* \"input/NOIAVault.sol\":19434:19856  function _transfer(address sender, address recipient, uint256 amount) internal {... */\n      pop\n      pop\n      pop\n      jump\t// out\n        /* \"input/NOIAVault.sol\":27255:27597  function _postTransfer(address from, address to, uint256 value) internal {... */\n    tag_144:\n        /* \"input/NOIAVault.sol\":27342:27357  to.isContract() */\n      tag_241\n        /* \"input/NOIAVault.sol\":27342:27344  to */\n      dup3\n        /* \"input/NOIAVault.sol\":27342:27355  to.isContract */\n      0xffffffffffffffffffffffffffffffffffffffff\n      and\n      tag_242\n        /* \"input/NOIAVault.sol\":27342:27357  to.isContract() */\n      jump\t// in\n    tag_241:\n        /* \"input/NOIAVault.sol\":27338:27591  if (to.isContract()) {... */\n      iszero\n      tag_243\n      jumpi\n        /* \"input/NOIAVault.sol\":27391:27396  false */\n      0x00\n        /* \"input/NOIAVault.sol\":27377:27396  notify[to] == false */\n      iszero\n      iszero\n        /* \"input/NOIAVault.sol\":27377:27383  notify */\n      0x06\n        /* \"input/NOIAVault.sol\":27377:27387  notify[to] */\n      0x00\n        /* \"input/NOIAVault.sol\":27384:27386  to */\n      dup5\n        /* \"input/NOIAVault.sol\":27377:27387  notify[to] */\n      0xffffffffffffffffffffffffffffffffffffffff\n      and\n      0xffffffffffffffffffffffffffffffffffffffff\n      and\n      dup2\n      mstore\n      0x20\n      add\n      swap1\n      dup2\n      mstore\n      0x20\n      add\n      0x00\n      keccak256\n      0x00\n      swap1\n      sload\n      swap1\n      0x0100\n      exp\n      swap1\n      div\n      0xff\n      and\n        /* \"input/NOIAVault.sol\":27377:27396  notify[to] == false */\n      iszero\n      iszero\n      eq\n        /* \"input/NOIAVault.sol\":27373:27405  if (notify[to] == false) return; */\n      iszero\n      tag_244\n      jumpi\n        /* \"input/NOIAVault.sol\":27398:27405  return; */\n      jump(tag_240)\n        /* \"input/NOIAVault.sol\":27373:27405  if (notify[to] == false) return; */\n    tag_244:\n        /* \"input/NOIAVault.sol\":27434:27436  to */\n      dup2\n        /* \"input/NOIAVault.sol\":27419:27452  ITokenReceiver(to).tokensReceived */\n      0xffffffffffffffffffffffffffffffffffffffff\n      and\n      0x29e9a3b9\n        /* \"input/NOIAVault.sol\":27453:27457  from */\n      dup5\n        /* \"input/NOIAVault.sol\":27459:27461  to */\n      dup5\n        /* \"input/NOIAVault.sol\":27463:27468  value */\n      dup5\n        /* \"input/NOIAVault.sol\":27419:27469  ITokenReceiver(to).tokensReceived(from, to, value) */\n      mload(0x40)\n      dup5\n      0xffffffff\n      and\n      0xe0\n      shl\n      dup2\n      mstore\n      0x04\n      add\n      dup1\n      dup5\n      0xffffffffffffffffffffffffffffffffffffffff\n      and\n      0xffffffffffffffffffffffffffffffffffffffff\n      and\n      dup2\n      mstore\n      0x20\n      add\n      dup4\n      0xffffffffffffffffffffffffffffffffffffffff\n      and\n      0xffffffffffffffffffffffffffffffffffffffff\n      and\n      dup2\n      mstore\n      0x20\n      add\n      dup3\n      dup2\n      mstore\n      0x20\n      add\n      swap4\n      pop\n      pop\n      pop\n      pop\n      0x00\n      mload(0x40)\n      dup1\n      dup4\n      sub\n      dup2\n      0x00\n      dup8\n      dup1\n      extcodesize\n      iszero\n        /* \"--CODEGEN--\":8:17   */\n      dup1\n        /* \"--CODEGEN--\":5:7   */\n      iszero\n      tag_245\n      jumpi\n        /* \"--CODEGEN--\":30:31   */\n      0x00\n        /* \"--CODEGEN--\":27:28   */\n      dup1\n        /* \"--CODEGEN--\":20:32   */\n      revert\n        /* \"--CODEGEN--\":5:7   */\n    tag_245:\n        /* \"input/NOIAVault.sol\":27419:27469  ITokenReceiver(to).tokensReceived(from, to, value) */\n      pop\n      gas\n      call\n      iszero\n        /* \"--CODEGEN--\":8:17   */\n      dup1\n        /* \"--CODEGEN--\":5:7   */\n      iszero\n      tag_246\n      jumpi\n        /* \"--CODEGEN--\":45:61   */\n      returndatasize\n        /* \"--CODEGEN--\":42:43   */\n      0x00\n        /* \"--CODEGEN--\":39:40   */\n      dup1\n        /* \"--CODEGEN--\":24:62   */\n      returndatacopy\n        /* \"--CODEGEN--\":77:93   */\n      returndatasize\n        /* \"--CODEGEN--\":74:75   */\n      0x00\n        /* \"--CODEGEN--\":67:94   */\n      revert\n        /* \"--CODEGEN--\":5:7   */\n    tag_246:\n        /* \"input/NOIAVault.sol\":27419:27469  ITokenReceiver(to).tokensReceived(from, to, value) */\n      pop\n      pop\n      pop\n      pop\n        /* \"input/NOIAVault.sol\":27338:27591  if (to.isContract()) {... */\n      jump(tag_247)\n    tag_243:\n        /* \"input/NOIAVault.sol\":27510:27521  burnAddress */\n      0x05\n      0x00\n      swap1\n      sload\n      swap1\n      0x0100\n      exp\n      swap1\n      div\n      0xffffffffffffffffffffffffffffffffffffffff\n      and\n        /* \"input/NOIAVault.sol\":27504:27521  to == burnAddress */\n      0xffffffffffffffffffffffffffffffffffffffff\n      and\n        /* \"input/NOIAVault.sol\":27504:27506  to */\n      dup3\n        /* \"input/NOIAVault.sol\":27504:27521  to == burnAddress */\n      0xffffffffffffffffffffffffffffffffffffffff\n      and\n      eq\n        /* \"input/NOIAVault.sol\":27500:27581  if (to == burnAddress) {... */\n      iszero\n      tag_248\n      jumpi\n        /* \"input/NOIAVault.sol\":27541:27566  _burn(burnAddress, value) */\n      tag_249\n        /* \"input/NOIAVault.sol\":27547:27558  burnAddress */\n      0x05\n      0x00\n      swap1\n      sload\n      swap1\n      0x0100\n      exp\n      swap1\n      div\n      0xffffffffffffffffffffffffffffffffffffffff\n      and\n        /* \"input/NOIAVault.sol\":27560:27565  value */\n      dup3\n        /* \"input/NOIAVault.sol\":27541:27546  _burn */\n      tag_174\n        /* \"input/NOIAVault.sol\":27541:27566  _burn(burnAddress, value) */\n      jump\t// in\n    tag_249:\n        /* \"input/NOIAVault.sol\":27500:27581  if (to == burnAddress) {... */\n    tag_248:\n        /* \"input/NOIAVault.sol\":27338:27591  if (to.isContract()) {... */\n    tag_247:\n        /* \"input/NOIAVault.sol\":27255:27597  function _postTransfer(address from, address to, uint256 value) internal {... */\n    tag_240:\n      pop\n      pop\n      pop\n      jump\t// out\n        /* \"input/NOIAVault.sol\":17410:17662  function transferFrom(address sender, address recipient, uint256 amount) public returns (bool) {... */\n    tag_154:\n        /* \"input/NOIAVault.sol\":17499:17503  bool */\n      0x00\n        /* \"input/NOIAVault.sol\":17515:17551  _transfer(sender, recipient, amount) */\n      tag_251\n        /* \"input/NOIAVault.sol\":17525:17531  sender */\n      dup5\n        /* \"input/NOIAVault.sol\":17533:17542  recipient */\n      dup5\n        /* \"input/NOIAVault.sol\":17544:17550  amount */\n      dup5\n        /* \"input/NOIAVault.sol\":17515:17524  _transfer */\n      tag_141\n        /* \"input/NOIAVault.sol\":17515:17551  _transfer(sender, recipient, amount) */\n      jump\t// in\n    tag_251:\n        /* \"input/NOIAVault.sol\":17561:17634  _approve(sender, msg.sender, _allowances[sender][msg.sender].sub(amount)) */\n      tag_252\n        /* \"input/NOIAVault.sol\":17570:17576  sender */\n      dup5\n        /* \"input/NOIAVault.sol\":17578:17588  msg.sender */\n      caller\n        /* \"input/NOIAVault.sol\":17590:17633  _allowances[sender][msg.sender].sub(amount) */\n      tag_253\n        /* \"input/NOIAVault.sol\":17626:17632  amount */\n      dup6\n        /* \"input/NOIAVault.sol\":17590:17601  _allowances */\n      0x02\n        /* \"input/NOIAVault.sol\":17590:17609  _allowances[sender] */\n      0x00\n        /* \"input/NOIAVault.sol\":17602:17608  sender */\n      dup11\n        /* \"input/NOIAVault.sol\":17590:17609  _allowances[sender] */\n      0xffffffffffffffffffffffffffffffffffffffff\n      and\n      0xffffffffffffffffffffffffffffffffffffffff\n      and\n      dup2\n      mstore\n      0x20\n      add\n      swap1\n      dup2\n      mstore\n      0x20\n      add\n      0x00\n      keccak256\n        /* \"input/NOIAVault.sol\":17590:17621  _allowances[sender][msg.sender] */\n      0x00\n        /* \"input/NOIAVault.sol\":17610:17620  msg.sender */\n      caller\n        /* \"input/NOIAVault.sol\":17590:17621  _allowances[sender][msg.sender] */\n      0xffffffffffffffffffffffffffffffffffffffff\n      and\n      0xffffffffffffffffffffffffffffffffffffffff\n      and\n      dup2\n      mstore\n      0x20\n      add\n      swap1\n      dup2\n      mstore\n      0x20\n      add\n      0x00\n      keccak256\n      sload\n        /* \"input/NOIAVault.sol\":17590:17625  _allowances[sender][msg.sender].sub */\n      tag_165\n      swap1\n        /* \"input/NOIAVault.sol\":17590:17633  _allowances[sender][msg.sender].sub(amount) */\n      swap2\n      swap1\n      0xffffffff\n      and\n      jump\t// in\n    tag_253:\n        /* \"input/NOIAVault.sol\":17561:17569  _approve */\n      tag_125\n        /* \"input/NOIAVault.sol\":17561:17634  _approve(sender, msg.sender, _allowances[sender][msg.sender].sub(amount)) */\n      jump\t// in\n    tag_252:\n        /* \"input/NOIAVault.sol\":17651:17655  true */\n      0x01\n        /* \"input/NOIAVault.sol\":17644:17655  return true */\n      swap1\n      pop\n        /* \"input/NOIAVault.sol\":17410:17662  function transferFrom(address sender, address recipient, uint256 amount) public returns (bool) {... */\n      swap4\n      swap3\n      pop\n      pop\n      pop\n      jump\t// out\n        /* \"input/NOIAVault.sol\":1302:1481  function sub(uint256 a, uint256 b) internal pure returns (uint256) {... */\n    tag_165:\n        /* \"input/NOIAVault.sol\":1360:1367  uint256 */\n      0x00\n        /* \"input/NOIAVault.sol\":1392:1393  a */\n      dup3\n        /* \"input/NOIAVault.sol\":1387:1388  b */\n      dup3\n        /* \"input/NOIAVault.sol\":1387:1393  b <= a */\n      gt\n      iszero\n        /* \"input/NOIAVault.sol\":1379:1428  require(b <= a, \"SafeMath: subtraction overflow\") */\n      tag_255\n      jumpi\n      mload(0x40)\n      0x08c379a000000000000000000000000000000000000000000000000000000000\n      dup2\n      mstore\n      0x04\n      add\n      dup1\n      dup1\n      0x20\n      add\n      dup3\n      dup2\n      sub\n      dup3\n      mstore\n      0x1e\n      dup2\n      mstore\n      0x20\n      add\n      dup1\n      0x536166654d6174683a207375627472616374696f6e206f766572666c6f770000\n      dup2\n      mstore\n      pop\n      0x20\n      add\n      swap2\n      pop\n      pop\n      mload(0x40)\n      dup1\n      swap2\n      sub\n      swap1\n      revert\n    tag_255:\n        /* \"input/NOIAVault.sol\":1438:1447  uint256 c */\n      0x00\n        /* \"input/NOIAVault.sol\":1454:1455  b */\n      dup3\n        /* \"input/NOIAVault.sol\":1450:1451  a */\n      dup5\n        /* \"input/NOIAVault.sol\":1450:1455  a - b */\n      sub\n        /* \"input/NOIAVault.sol\":1438:1455  uint256 c = a - b */\n      swap1\n      pop\n        /* \"input/NOIAVault.sol\":1473:1474  c */\n      dup1\n        /* \"input/NOIAVault.sol\":1466:1474  return c */\n      swap2\n      pop\n      pop\n        /* \"input/NOIAVault.sol\":1302:1481  function sub(uint256 a, uint256 b) internal pure returns (uint256) {... */\n      swap3\n      swap2\n      pop\n      pop\n      jump\t// out\n        /* \"input/NOIAVault.sol\":20126:20428  function _mint(address account, uint256 amount) internal {... */\n    tag_169:\n        /* \"input/NOIAVault.sol\":20220:20221  0 */\n      0x00\n        /* \"input/NOIAVault.sol\":20201:20222  account != address(0) */\n      0xffffffffffffffffffffffffffffffffffffffff\n      and\n        /* \"input/NOIAVault.sol\":20201:20208  account */\n      dup3\n        /* \"input/NOIAVault.sol\":20201:20222  account != address(0) */\n      0xffffffffffffffffffffffffffffffffffffffff\n      and\n      eq\n      iszero\n        /* \"input/NOIAVault.sol\":20193:20258  require(account != address(0), \"ERC20: mint to the zero address\") */\n      tag_257\n      jumpi\n      mload(0x40)\n      0x08c379a000000000000000000000000000000000000000000000000000000000\n      dup2\n      mstore\n      0x04\n      add\n      dup1\n      dup1\n      0x20\n      add\n      dup3\n      dup2\n      sub\n      dup3\n      mstore\n      0x1f\n      dup2\n      mstore\n      0x20\n      add\n      dup1\n      0x45524332303a206d696e7420746f20746865207a65726f206164647265737300\n      dup2\n      mstore\n      pop\n      0x20\n      add\n      swap2\n      pop\n      pop\n      mload(0x40)\n      dup1\n      swap2\n      sub\n      swap1\n      revert\n    tag_257:\n        /* \"input/NOIAVault.sol\":20284:20308  _totalSupply.add(amount) */\n      tag_258\n        /* \"input/NOIAVault.sol\":20301:20307  amount */\n      dup2\n        /* \"input/NOIAVault.sol\":20284:20296  _totalSupply */\n      sload(0x03)\n        /* \"input/NOIAVault.sol\":20284:20300  _totalSupply.add */\n      tag_140\n      swap1\n        /* \"input/NOIAVault.sol\":20284:20308  _totalSupply.add(amount) */\n      swap2\n      swap1\n      0xffffffff\n      and\n      jump\t// in\n    tag_258:\n        /* \"input/NOIAVault.sol\":20269:20281  _totalSupply */\n      0x03\n        /* \"input/NOIAVault.sol\":20269:20308  _totalSupply = _totalSupply.add(amount) */\n      dup2\n      swap1\n      sstore\n      pop\n        /* \"input/NOIAVault.sol\":20339:20369  _balances[account].add(amount) */\n      tag_259\n        /* \"input/NOIAVault.sol\":20362:20368  amount */\n      dup2\n        /* \"input/NOIAVault.sol\":20339:20348  _balances */\n      0x01\n        /* \"input/NOIAVault.sol\":20339:20357  _balances[account] */\n      0x00\n        /* \"input/NOIAVault.sol\":20349:20356  account */\n      dup6\n        /* \"input/NOIAVault.sol\":20339:20357  _balances[account] */\n      0xffffffffffffffffffffffffffffffffffffffff\n      and\n      0xffffffffffffffffffffffffffffffffffffffff\n      and\n      dup2\n      mstore\n      0x20\n      add\n      swap1\n      dup2\n      mstore\n      0x20\n      add\n      0x00\n      keccak256\n      sload\n        /* \"input/NOIAVault.sol\":20339:20361  _balances[account].add */\n      tag_140\n      swap1\n        /* \"input/NOIAVault.sol\":20339:20369  _balances[account].add(amount) */\n      swap2\n      swap1\n      0xffffffff\n      and\n      jump\t// in\n    tag_259:\n        /* \"input/NOIAVault.sol\":20318:20327  _balances */\n      0x01\n        /* \"input/NOIAVault.sol\":20318:20336  _balances[account] */\n      0x00\n        /* \"input/NOIAVault.sol\":20328:20335  account */\n      dup5\n        /* \"input/NOIAVault.sol\":20318:20336  _balances[account] */\n      0xffffffffffffffffffffffffffffffffffffffff\n      and\n      0xffffffffffffffffffffffffffffffffffffffff\n      and\n      dup2\n      mstore\n      0x20\n      add\n      swap1\n      dup2\n      mstore\n      0x20\n      add\n      0x00\n      keccak256\n        /* \"input/NOIAVault.sol\":20318:20369  _balances[account] = _balances[account].add(amount) */\n      dup2\n      swap1\n      sstore\n      pop\n        /* \"input/NOIAVault.sol\":20405:20412  account */\n      dup2\n        /* \"input/NOIAVault.sol\":20384:20421  Transfer(address(0), account, amount) */\n      0xffffffffffffffffffffffffffffffffffffffff\n      and\n        /* \"input/NOIAVault.sol\":20401:20402  0 */\n      0x00\n        /* \"input/NOIAVault.sol\":20384:20421  Transfer(address(0), account, amount) */\n      0xffffffffffffffffffffffffffffffffffffffff\n      and\n      0xddf252ad1be2c89b69c2b068fc378daa952ba7f163c4a11628f55a4df523b3ef\n        /* \"input/NOIAVault.sol\":20414:20420  amount */\n      dup4\n        /* \"input/NOIAVault.sol\":20384:20421  Transfer(address(0), account, amount) */\n      mload(0x40)\n      dup1\n      dup3\n      dup2\n      mstore\n      0x20\n      add\n      swap2\n      pop\n      pop\n      mload(0x40)\n      dup1\n      swap2\n      sub\n      swap1\n      log3\n        /* \"input/NOIAVault.sol\":20126:20428  function _mint(address account, uint256 amount) internal {... */\n      pop\n      pop\n      jump\t// out\n        /* \"input/NOIAVault.sol\":27603:27783  function _burn(address account, uint256 value) internal {... */\n    tag_174:\n        /* \"input/NOIAVault.sol\":27693:27694  0 */\n      0x00\n        /* \"input/NOIAVault.sol\":27677:27689  tokensToMint */\n      sload(0x04)\n        /* \"input/NOIAVault.sol\":27677:27694  tokensToMint == 0 */\n      eq\n        /* \"input/NOIAVault.sol\":27669:27739  require(tokensToMint == 0, \"All tokens must be minted before burning\") */\n      tag_261\n      jumpi\n      mload(0x40)\n      0x08c379a000000000000000000000000000000000000000000000000000000000\n      dup2\n      mstore\n      0x04\n      add\n      dup1\n      dup1\n      0x20\n      add\n      dup3\n      dup2\n      sub\n      dup3\n      mstore\n      0x28\n      dup2\n      mstore\n      0x20\n      add\n      dup1\n      data_bf109196a8ee399b1cf59e8dcc3ab096280107a55c33327a0228f023e60b89f9\n      0x28\n      swap2\n      codecopy\n      0x40\n      add\n      swap2\n      pop\n      pop\n      mload(0x40)\n      dup1\n      swap2\n      sub\n      swap1\n      revert\n    tag_261:\n        /* \"input/NOIAVault.sol\":27749:27776  super._burn(account, value) */\n      tag_262\n        /* \"input/NOIAVault.sol\":27761:27768  account */\n      dup3\n        /* \"input/NOIAVault.sol\":27770:27775  value */\n      dup3\n        /* \"input/NOIAVault.sol\":27749:27760  super._burn */\n      tag_263\n        /* \"input/NOIAVault.sol\":27749:27776  super._burn(account, value) */\n      jump\t// in\n    tag_262:\n        /* \"input/NOIAVault.sol\":27603:27783  function _burn(address account, uint256 value) internal {... */\n      pop\n      pop\n      jump\t// out\n        /* \"input/NOIAVault.sol\":11379:11553  function safeTransfer(IERC20 token, address to, uint256 value) internal {... */\n    tag_190:\n        /* \"input/NOIAVault.sol\":11461:11546  callOptionalReturn(token, abi.encodeWithSelector(token.transfer.selector, to, value)) */\n      tag_265\n        /* \"input/NOIAVault.sol\":11480:11485  token */\n      dup4\n        /* \"input/NOIAVault.sol\":11510:11515  token */\n      dup5\n        /* \"input/NOIAVault.sol\":11510:11524  token.transfer */\n      0xffffffffffffffffffffffffffffffffffffffff\n      and\n      0xa9059cbb\n        /* \"input/NOIAVault.sol\":11510:11533  token.transfer.selector */\n      swap1\n      pop\n      0xe0\n      shl\n        /* \"input/NOIAVault.sol\":11535:11537  to */\n      dup5\n        /* \"input/NOIAVault.sol\":11539:11544  value */\n      dup5\n        /* \"input/NOIAVault.sol\":11487:11545  abi.encodeWithSelector(token.transfer.selector, to, value) */\n      add(0x24, mload(0x40))\n      dup1\n      dup4\n      0xffffffffffffffffffffffffffffffffffffffff\n      and\n      0xffffffffffffffffffffffffffffffffffffffff\n      and\n      dup2\n      mstore\n      0x20\n      add\n      dup3\n      dup2\n      mstore\n      0x20\n      add\n      swap3\n      pop\n      pop\n      pop\n      mload(0x40)\n        /* \"--CODEGEN--\":49:53   */\n      0x20\n        /* \"--CODEGEN--\":39:46   */\n      dup2\n        /* \"--CODEGEN--\":30:37   */\n      dup4\n        /* \"--CODEGEN--\":26:47   */\n      sub\n        /* \"--CODEGEN--\":22:54   */\n      sub\n        /* \"--CODEGEN--\":13:20   */\n      dup2\n        /* \"--CODEGEN--\":6:55   */\n      mstore\n        /* \"input/NOIAVault.sol\":11487:11545  abi.encodeWithSelector(token.transfer.selector, to, value) */\n      swap1\n      0x40\n      mstore\n      swap1\n      not(0xffffffffffffffffffffffffffffffffffffffffffffffffffffffff)\n      and\n        /* \"--CODEGEN--\":38:42   */\n      0x20\n        /* \"--CODEGEN--\":29:36   */\n      dup3\n        /* \"--CODEGEN--\":25:43   */\n      add\n        /* \"--CODEGEN--\":67:77   */\n      dup1\n        /* \"--CODEGEN--\":61:78   */\n      mload\n        /* \"--CODEGEN--\":96:154   */\n      0xffffffffffffffffffffffffffffffffffffffffffffffffffffffff\n        /* \"--CODEGEN--\":199:207   */\n      dup4\n        /* \"--CODEGEN--\":192:196   */\n      dup2\n        /* \"--CODEGEN--\":186:190   */\n      dup4\n        /* \"--CODEGEN--\":182:197   */\n      and\n        /* \"--CODEGEN--\":179:208   */\n      or\n        /* \"--CODEGEN--\":167:177   */\n      dup4\n        /* \"--CODEGEN--\":160:209   */\n      mstore\n        /* \"--CODEGEN--\":0:215   */\n      pop\n      pop\n      pop\n        /* \"input/NOIAVault.sol\":11487:11545  abi.encodeWithSelector(token.transfer.selector, to, value) */\n      pop\n        /* \"input/NOIAVault.sol\":11461:11479  callOptionalReturn */\n      tag_266\n        /* \"input/NOIAVault.sol\":11461:11546  callOptionalReturn(token, abi.encodeWithSelector(token.transfer.selector, to, value)) */\n      jump\t// in\n    tag_265:\n        /* \"input/NOIAVault.sol\":11379:11553  function safeTransfer(IERC20 token, address to, uint256 value) internal {... */\n      pop\n      pop\n      pop\n      jump\t// out\n        /* \"input/NOIAVault.sol\":16327:16480  function transfer(address recipient, uint256 amount) public returns (bool) {... */\n    tag_211:\n        /* \"input/NOIAVault.sol\":16396:16400  bool */\n      0x00\n        /* \"input/NOIAVault.sol\":16412:16452  _transfer(msg.sender, recipient, amount) */\n      tag_268\n        /* \"input/NOIAVault.sol\":16422:16432  msg.sender */\n      caller\n        /* \"input/NOIAVault.sol\":16434:16443  recipient */\n      dup5\n        /* \"input/NOIAVault.sol\":16445:16451  amount */\n      dup5\n        /* \"input/NOIAVault.sol\":16412:16421  _transfer */\n      tag_141\n        /* \"input/NOIAVault.sol\":16412:16452  _transfer(msg.sender, recipient, amount) */\n      jump\t// in\n    tag_268:\n        /* \"input/NOIAVault.sol\":16469:16473  true */\n      0x01\n        /* \"input/NOIAVault.sol\":16462:16473  return true */\n      swap1\n      pop\n        /* \"input/NOIAVault.sol\":16327:16480  function transfer(address recipient, uint256 amount) public returns (bool) {... */\n      swap3\n      swap2\n      pop\n      pop\n      jump\t// out\n        /* \"input/NOIAVault.sol\":24236:24461  function _transferOwnership(address newOwner) internal {... */\n    tag_222:\n        /* \"input/NOIAVault.sol\":24329:24330  0 */\n      0x00\n        /* \"input/NOIAVault.sol\":24309:24331  newOwner != address(0) */\n      0xffffffffffffffffffffffffffffffffffffffff\n      and\n        /* \"input/NOIAVault.sol\":24309:24317  newOwner */\n      dup2\n        /* \"input/NOIAVault.sol\":24309:24331  newOwner != address(0) */\n      0xffffffffffffffffffffffffffffffffffffffff\n      and\n      eq\n      iszero\n        /* \"input/NOIAVault.sol\":24301:24374  require(newOwner != address(0), \"Ownable: new owner is the zero address\") */\n      tag_270\n      jumpi\n      mload(0x40)\n      0x08c379a000000000000000000000000000000000000000000000000000000000\n      dup2\n      mstore\n      0x04\n      add\n      dup1\n      dup1\n      0x20\n      add\n      dup3\n      dup2\n      sub\n      dup3\n      mstore\n      0x26\n      dup2\n      mstore\n      0x20\n      add\n      dup1\n      data_245f15ff17f551913a7a18385165551503906a406f905ac1c2437281a7cd0cfe\n      0x26\n      swap2\n      codecopy\n      0x40\n      add\n      swap2\n      pop\n      pop\n      mload(0x40)\n      dup1\n      swap2\n      sub\n      swap1\n      revert\n    tag_270:\n        /* \"input/NOIAVault.sol\":24418:24426  newOwner */\n      dup1\n        /* \"input/NOIAVault.sol\":24389:24427  OwnershipTransferred(_owner, newOwner) */\n      0xffffffffffffffffffffffffffffffffffffffff\n      and\n        /* \"input/NOIAVault.sol\":24410:24416  _owner */\n      0x00\n      dup1\n      swap1\n      sload\n      swap1\n      0x0100\n      exp\n      swap1\n      div\n      0xffffffffffffffffffffffffffffffffffffffff\n      and\n        /* \"input/NOIAVault.sol\":24389:24427  OwnershipTransferred(_owner, newOwner) */\n      0xffffffffffffffffffffffffffffffffffffffff\n      and\n      0x8be0079c531659141344cd1fd0a4f28419497f9722a3daafe3b4186f6b6457e0\n      mload(0x40)\n      mload(0x40)\n      dup1\n      swap2\n      sub\n      swap1\n      log3\n        /* \"input/NOIAVault.sol\":24446:24454  newOwner */\n      dup1\n        /* \"input/NOIAVault.sol\":24437:24443  _owner */\n      0x00\n      dup1\n        /* \"input/NOIAVault.sol\":24437:24454  _owner = newOwner */\n      0x0100\n      exp\n      dup2\n      sload\n      dup2\n      0xffffffffffffffffffffffffffffffffffffffff\n      mul\n      not\n      and\n      swap1\n      dup4\n      0xffffffffffffffffffffffffffffffffffffffff\n      and\n      mul\n      or\n      swap1\n      sstore\n      pop\n        /* \"input/NOIAVault.sol\":24236:24461  function _transferOwnership(address newOwner) internal {... */\n      pop\n      jump\t// out\n        /* \"input/NOIAVault.sol\":4074:4487  function isContract(address account) internal view returns (bool) {... */\n    tag_242:\n        /* \"input/NOIAVault.sol\":4134:4138  bool */\n      0x00\n        /* \"input/NOIAVault.sol\":4337:4349  uint256 size */\n      dup1\n        /* \"input/NOIAVault.sol\":4446:4453  account */\n      dup3\n        /* \"input/NOIAVault.sol\":4434:4454  extcodesize(account) */\n      extcodesize\n        /* \"input/NOIAVault.sol\":4426:4454  size := extcodesize(account) */\n      swap1\n      pop\n        /* \"input/NOIAVault.sol\":4479:4480  0 */\n      0x00\n        /* \"input/NOIAVault.sol\":4472:4476  size */\n      dup2\n        /* \"input/NOIAVault.sol\":4472:4480  size > 0 */\n      gt\n        /* \"input/NOIAVault.sol\":4465:4480  return size > 0 */\n      swap2\n      pop\n      pop\n        /* \"input/NOIAVault.sol\":4074:4487  function isContract(address account) internal view returns (bool) {... */\n      swap2\n      swap1\n      pop\n      jump\t// out\n        /* \"input/NOIAVault.sol\":20747:21047  function _burn(address account, uint256 value) internal {... */\n    tag_263:\n        /* \"input/NOIAVault.sol\":20840:20841  0 */\n      0x00\n        /* \"input/NOIAVault.sol\":20821:20842  account != address(0) */\n      0xffffffffffffffffffffffffffffffffffffffff\n      and\n        /* \"input/NOIAVault.sol\":20821:20828  account */\n      dup3\n        /* \"input/NOIAVault.sol\":20821:20842  account != address(0) */\n      0xffffffffffffffffffffffffffffffffffffffff\n      and\n      eq\n      iszero\n        /* \"input/NOIAVault.sol\":20813:20880  require(account != address(0), \"ERC20: burn from the zero address\") */\n      tag_273\n      jumpi\n      mload(0x40)\n      0x08c379a000000000000000000000000000000000000000000000000000000000\n      dup2\n      mstore\n      0x04\n      add\n      dup1\n      dup1\n      0x20\n      add\n      dup3\n      dup2\n      sub\n      dup3\n      mstore\n      0x21\n      dup2\n      mstore\n      0x20\n      add\n      dup1\n      data_b16788493b576042bb52c50ed56189e0b250db113c7bfb1c3897d25cf9632d7f\n      0x21\n      swap2\n      codecopy\n      0x40\n      add\n      swap2\n      pop\n      pop\n      mload(0x40)\n      dup1\n      swap2\n      sub\n      swap1\n      revert\n    tag_273:\n        /* \"input/NOIAVault.sol\":20906:20929  _totalSupply.sub(value) */\n      tag_274\n        /* \"input/NOIAVault.sol\":20923:20928  value */\n      dup2\n        /* \"input/NOIAVault.sol\":20906:20918  _totalSupply */\n      sload(0x03)\n        /* \"input/NOIAVault.sol\":20906:20922  _totalSupply.sub */\n      tag_165\n      swap1\n        /* \"input/NOIAVault.sol\":20906:20929  _totalSupply.sub(value) */\n      swap2\n      swap1\n      0xffffffff\n      and\n      jump\t// in\n    tag_274:\n        /* \"input/NOIAVault.sol\":20891:20903  _totalSupply */\n      0x03\n        /* \"input/NOIAVault.sol\":20891:20929  _totalSupply = _totalSupply.sub(value) */\n      dup2\n      swap1\n      sstore\n      pop\n        /* \"input/NOIAVault.sol\":20960:20989  _balances[account].sub(value) */\n      tag_275\n        /* \"input/NOIAVault.sol\":20983:20988  value */\n      dup2\n        /* \"input/NOIAVault.sol\":20960:20969  _balances */\n      0x01\n        /* \"input/NOIAVault.sol\":20960:20978  _balances[account] */\n      0x00\n        /* \"input/NOIAVault.sol\":20970:20977  account */\n      dup6\n        /* \"input/NOIAVault.sol\":20960:20978  _balances[account] */\n      0xffffffffffffffffffffffffffffffffffffffff\n      and\n      0xffffffffffffffffffffffffffffffffffffffff\n      and\n      dup2\n      mstore\n      0x20\n      add\n      swap1\n      dup2\n      mstore\n      0x20\n      add\n      0x00\n      keccak256\n      sload\n        /* \"input/NOIAVault.sol\":20960:20982  _balances[account].sub */\n      tag_165\n      swap1\n        /* \"input/NOIAVault.sol\":20960:20989  _balances[account].sub(value) */\n      swap2\n      swap1\n      0xffffffff\n      and\n      jump\t// in\n    tag_275:\n        /* \"input/NOIAVault.sol\":20939:20948  _balances */\n      0x01\n        /* \"input/NOIAVault.sol\":20939:20957  _balances[account] */\n      0x00\n        /* \"input/NOIAVault.sol\":20949:20956  account */\n      dup5\n        /* \"input/NOIAVault.sol\":20939:20957  _balances[account] */\n      0xffffffffffffffffffffffffffffffffffffffff\n      and\n      0xffffffffffffffffffffffffffffffffffffffff\n      and\n      dup2\n      mstore\n      0x20\n      add\n      swap1\n      dup2\n      mstore\n      0x20\n      add\n      0x00\n      keccak256\n        /* \"input/NOIAVault.sol\":20939:20989  _balances[account] = _balances[account].sub(value) */\n      dup2\n      swap1\n      sstore\n      pop\n        /* \"input/NOIAVault.sol\":21030:21031  0 */\n      0x00\n        /* \"input/NOIAVault.sol\":21004:21040  Transfer(account, address(0), value) */\n      0xffffffffffffffffffffffffffffffffffffffff\n      and\n        /* \"input/NOIAVault.sol\":21013:21020  account */\n      dup3\n        /* \"input/NOIAVault.sol\":21004:21040  Transfer(account, address(0), value) */\n      0xffffffffffffffffffffffffffffffffffffffff\n      and\n      0xddf252ad1be2c89b69c2b068fc378daa952ba7f163c4a11628f55a4df523b3ef\n        /* \"input/NOIAVault.sol\":21034:21039  value */\n      dup4\n        /* \"input/NOIAVault.sol\":21004:21040  Transfer(account, address(0), value) */\n      mload(0x40)\n      dup1\n      dup3\n      dup2\n      mstore\n      0x20\n      add\n      swap2\n      pop\n      pop\n      mload(0x40)\n      dup1\n      swap2\n      sub\n      swap1\n      log3\n        /* \"input/NOIAVault.sol\":20747:21047  function _burn(address account, uint256 value) internal {... */\n      pop\n      pop\n      jump\t// out\n        /* \"input/NOIAVault.sol\":13338:14433  function callOptionalReturn(IERC20 token, bytes memory data) private {... */\n    tag_266:\n        /* \"input/NOIAVault.sol\":13933:13960  address(token).isContract() */\n      tag_277\n        /* \"input/NOIAVault.sol\":13941:13946  token */\n      dup3\n        /* \"input/NOIAVault.sol\":13933:13958  address(token).isContract */\n      0xffffffffffffffffffffffffffffffffffffffff\n      and\n      tag_242\n        /* \"input/NOIAVault.sol\":13933:13960  address(token).isContract() */\n      jump\t// in\n    tag_277:\n        /* \"input/NOIAVault.sol\":13925:13996  require(address(token).isContract(), \"SafeERC20: call to non-contract\") */\n      tag_278\n      jumpi\n      mload(0x40)\n      0x08c379a000000000000000000000000000000000000000000000000000000000\n      dup2\n      mstore\n      0x04\n      add\n      dup1\n      dup1\n      0x20\n      add\n      dup3\n      dup2\n      sub\n      dup3\n      mstore\n      0x1f\n      dup2\n      mstore\n      0x20\n      add\n      dup1\n      0x5361666545524332303a2063616c6c20746f206e6f6e2d636f6e747261637400\n      dup2\n      mstore\n      pop\n      0x20\n      add\n      swap2\n      pop\n      pop\n      mload(0x40)\n      dup1\n      swap2\n      sub\n      swap1\n      revert\n    tag_278:\n        /* \"input/NOIAVault.sol\":14067:14079  bool success */\n      0x00\n        /* \"input/NOIAVault.sol\":14081:14104  bytes memory returndata */\n      0x60\n        /* \"input/NOIAVault.sol\":14116:14121  token */\n      dup4\n        /* \"input/NOIAVault.sol\":14108:14127  address(token).call */\n      0xffffffffffffffffffffffffffffffffffffffff\n      and\n        /* \"input/NOIAVault.sol\":14128:14132  data */\n      dup4\n        /* \"input/NOIAVault.sol\":14108:14133  address(token).call(data) */\n      mload(0x40)\n      dup1\n      dup3\n      dup1\n      mload\n      swap1\n      0x20\n      add\n      swap1\n      dup1\n      dup4\n      dup4\n        /* \"--CODEGEN--\":36:189   */\n    tag_279:\n        /* \"--CODEGEN--\":66:68   */\n      0x20\n        /* \"--CODEGEN--\":61:64   */\n      dup4\n        /* \"--CODEGEN--\":58:69   */\n      lt\n        /* \"--CODEGEN--\":36:189   */\n      tag_281\n      jumpi\n        /* \"--CODEGEN--\":182:185   */\n      dup1\n        /* \"--CODEGEN--\":176:186   */\n      mload\n        /* \"--CODEGEN--\":171:174   */\n      dup3\n        /* \"--CODEGEN--\":164:187   */\n      mstore\n        /* \"--CODEGEN--\":98:100   */\n      0x20\n        /* \"--CODEGEN--\":93:96   */\n      dup3\n        /* \"--CODEGEN--\":89:101   */\n      add\n        /* \"--CODEGEN--\":82:101   */\n      swap2\n      pop\n        /* \"--CODEGEN--\":123:125   */\n      0x20\n        /* \"--CODEGEN--\":118:121   */\n      dup2\n        /* \"--CODEGEN--\":114:126   */\n      add\n        /* \"--CODEGEN--\":107:126   */\n      swap1\n      pop\n        /* \"--CODEGEN--\":148:150   */\n      0x20\n        /* \"--CODEGEN--\":143:146   */\n      dup4\n        /* \"--CODEGEN--\":139:151   */\n      sub\n        /* \"--CODEGEN--\":132:151   */\n      swap3\n      pop\n        /* \"--CODEGEN--\":36:189   */\n      jump(tag_279)\n    tag_281:\n        /* \"--CODEGEN--\":274:275   */\n      0x01\n        /* \"--CODEGEN--\":267:270   */\n      dup4\n        /* \"--CODEGEN--\":263:265   */\n      0x20\n        /* \"--CODEGEN--\":259:271   */\n      sub\n        /* \"--CODEGEN--\":254:257   */\n      0x0100\n        /* \"--CODEGEN--\":250:272   */\n      exp\n        /* \"--CODEGEN--\":246:276   */\n      sub\n        /* \"--CODEGEN--\":315:319   */\n      dup1\n        /* \"--CODEGEN--\":311:320   */\n      not\n        /* \"--CODEGEN--\":305:308   */\n      dup3\n        /* \"--CODEGEN--\":299:309   */\n      mload\n        /* \"--CODEGEN--\":295:321   */\n      and\n        /* \"--CODEGEN--\":356:360   */\n      dup2\n        /* \"--CODEGEN--\":350:353   */\n      dup5\n        /* \"--CODEGEN--\":344:354   */\n      mload\n        /* \"--CODEGEN--\":340:361   */\n      and\n        /* \"--CODEGEN--\":389:396   */\n      dup1\n        /* \"--CODEGEN--\":380:387   */\n      dup3\n        /* \"--CODEGEN--\":377:397   */\n      or\n        /* \"--CODEGEN--\":372:375   */\n      dup6\n        /* \"--CODEGEN--\":365:398   */\n      mstore\n        /* \"--CODEGEN--\":3:402   */\n      pop\n      pop\n      pop\n        /* \"input/NOIAVault.sol\":14108:14133  address(token).call(data) */\n      pop\n      pop\n      pop\n      swap1\n      pop\n      add\n      swap2\n      pop\n      pop\n      0x00\n      mload(0x40)\n      dup1\n      dup4\n      sub\n      dup2\n      0x00\n      dup7\n      gas\n      call\n      swap2\n      pop\n      pop\n      returndatasize\n        /* \"--CODEGEN--\":14:15   */\n      dup1\n        /* \"--CODEGEN--\":21:22   */\n      0x00\n        /* \"--CODEGEN--\":16:47   */\n      dup2\n      eq\n      tag_283\n      jumpi\n        /* \"--CODEGEN--\":75:79   */\n      0x40\n        /* \"--CODEGEN--\":69:80   */\n      mload\n        /* \"--CODEGEN--\":64:80   */\n      swap2\n      pop\n        /* \"--CODEGEN--\":144:148   */\n      0x1f\n        /* \"--CODEGEN--\":140:149   */\n      not\n        /* \"--CODEGEN--\":133:137   */\n      0x3f\n        /* \"--CODEGEN--\":115:131   */\n      returndatasize\n        /* \"--CODEGEN--\":111:138   */\n      add\n        /* \"--CODEGEN--\":107:150   */\n      and\n        /* \"--CODEGEN--\":104:105   */\n      dup3\n        /* \"--CODEGEN--\":100:151   */\n      add\n        /* \"--CODEGEN--\":94:98   */\n      0x40\n        /* \"--CODEGEN--\":87:152   */\n      mstore\n        /* \"--CODEGEN--\":169:185   */\n      returndatasize\n        /* \"--CODEGEN--\":166:167   */\n      dup3\n        /* \"--CODEGEN--\":159:186   */\n      mstore\n        /* \"--CODEGEN--\":225:241   */\n      returndatasize\n        /* \"--CODEGEN--\":222:223   */\n      0x00\n        /* \"--CODEGEN--\":215:219   */\n      0x20\n        /* \"--CODEGEN--\":212:213   */\n      dup5\n        /* \"--CODEGEN--\":208:220   */\n      add\n        /* \"--CODEGEN--\":193:242   */\n      returndatacopy\n        /* \"--CODEGEN--\":7:249   */\n      jump(tag_282)\n        /* \"--CODEGEN--\":16:47   */\n    tag_283:\n        /* \"--CODEGEN--\":36:40   */\n      0x60\n        /* \"--CODEGEN--\":31:40   */\n      swap2\n      pop\n        /* \"--CODEGEN--\":7:249   */\n    tag_282:\n      pop\n        /* \"input/NOIAVault.sol\":14066:14133  (bool success, bytes memory returndata) = address(token).call(data) */\n      swap2\n      pop\n      swap2\n      pop\n        /* \"input/NOIAVault.sol\":14151:14158  success */\n      dup2\n        /* \"input/NOIAVault.sol\":14143:14195  require(success, \"SafeERC20: low-level call failed\") */\n      tag_284\n      jumpi\n      mload(0x40)\n      0x08c379a000000000000000000000000000000000000000000000000000000000\n      dup2\n      mstore\n      0x04\n      add\n      dup1\n      dup1\n      0x20\n      add\n      dup3\n      dup2\n      sub\n      dup3\n      mstore\n      0x20\n      dup2\n      mstore\n      0x20\n      add\n      dup1\n      0x5361666545524332303a206c6f772d6c6576656c2063616c6c206661696c6564\n      dup2\n      mstore\n      pop\n      0x20\n      add\n      swap2\n      pop\n      pop\n      mload(0x40)\n      dup1\n      swap2\n      sub\n      swap1\n      revert\n    tag_284:\n        /* \"input/NOIAVault.sol\":14230:14231  0 */\n      0x00\n        /* \"input/NOIAVault.sol\":14210:14220  returndata */\n      dup2\n        /* \"input/NOIAVault.sol\":14210:14227  returndata.length */\n      mload\n        /* \"input/NOIAVault.sol\":14210:14231  returndata.length > 0 */\n      gt\n        /* \"input/NOIAVault.sol\":14206:14427  if (returndata.length > 0) { // Return data is optional... */\n      iszero\n      tag_285\n      jumpi\n        /* \"input/NOIAVault.sol\":14350:14360  returndata */\n      dup1\n        /* \"input/NOIAVault.sol\":14339:14369  abi.decode(returndata, (bool)) */\n      dup1\n      0x20\n      add\n      swap1\n      mload\n        /* \"--CODEGEN--\":13:15   */\n      0x20\n        /* \"--CODEGEN--\":8:11   */\n      dup2\n        /* \"--CODEGEN--\":5:16   */\n      lt\n        /* \"--CODEGEN--\":2:4   */\n      iszero\n      tag_286\n      jumpi\n        /* \"--CODEGEN--\":29:30   */\n      0x00\n        /* \"--CODEGEN--\":26:27   */\n      dup1\n        /* \"--CODEGEN--\":19:31   */\n      revert\n        /* \"--CODEGEN--\":2:4   */\n    tag_286:\n        /* \"input/NOIAVault.sol\":14339:14369  abi.decode(returndata, (bool)) */\n      dup2\n      add\n      swap1\n      dup1\n      dup1\n      mload\n      swap1\n      0x20\n      add\n      swap1\n      swap3\n      swap2\n      swap1\n      pop\n      pop\n      pop\n        /* \"input/NOIAVault.sol\":14331:14416  require(abi.decode(returndata, (bool)), \"SafeERC20: ERC20 operation did not succeed\") */\n      tag_287\n      jumpi\n      mload(0x40)\n      0x08c379a000000000000000000000000000000000000000000000000000000000\n      dup2\n      mstore\n      0x04\n      add\n      dup1\n      dup1\n      0x20\n      add\n      dup3\n      dup2\n      sub\n      dup3\n      mstore\n      0x2a\n      dup2\n      mstore\n      0x20\n      add\n      dup1\n      data_e11ad79d1e4a7f2e5f376964cb99e8e8f7904e3fc16a109f7a7ecb9aa7956dcd\n      0x2a\n      swap2\n      codecopy\n      0x40\n      add\n      swap2\n      pop\n      pop\n      mload(0x40)\n      dup1\n      swap2\n      sub\n      swap1\n      revert\n    tag_287:\n        /* \"input/NOIAVault.sol\":14206:14427  if (returndata.length > 0) { // Return data is optional... */\n    tag_285:\n        /* \"input/NOIAVault.sol\":13338:14433  function callOptionalReturn(IERC20 token, bytes memory data) private {... */\n      pop\n      pop\n      pop\n      pop\n      jump\t// out\n    stop\n    data_0557e210f7a69a685100a7e4e3d0a7024c546085cee28910fd17d0b081d9516f 45524332303a207472616e7366657220746f20746865207a65726f2061646472657373\n    data_245f15ff17f551913a7a18385165551503906a406f905ac1c2437281a7cd0cfe 4f776e61626c653a206e6577206f776e657220697320746865207a65726f2061646472657373\n    data_24883cc5fe64ace9d0df1893501ecb93c77180f0ff69cca79affb3c316dc8029 45524332303a20617070726f766520746f20746865207a65726f2061646472657373\n    data_404f292e4068cdcd4d7edf853a549d89b3798ce34c65eaf7dcf5a34f469bbef7 4275726e2061646472657373206d7573742068617665207a65726f2062616c616e636521\n    data_a432d77761e9f48572aa7afef8cc88428f6f968ffe5a0155b531c488448ba1ef 45746865726c657373207472616e736665722066756e6374696f6e616c6974792064697361626c6564\n    data_b16788493b576042bb52c50ed56189e0b250db113c7bfb1c3897d25cf9632d7f 45524332303a206275726e2066726f6d20746865207a65726f2061646472657373\n    data_baecc556b46f4ed0f2b4cb599d60785ac8563dd2dc0a5bf12edea1c39e5e1fea 45524332303a207472616e736665722066726f6d20746865207a65726f2061646472657373\n    data_bf109196a8ee399b1cf59e8dcc3ab096280107a55c33327a0228f023e60b89f9 416c6c20746f6b656e73206d757374206265206d696e746564206265666f7265206275726e696e67\n    data_c953f4879035ed60e766b34720f656aab5c697b141d924c283124ecedb91c208 45524332303a20617070726f76652066726f6d20746865207a65726f2061646472657373\n    data_e11ad79d1e4a7f2e5f376964cb99e8e8f7904e3fc16a109f7a7ecb9aa7956dcd 5361666545524332303a204552433230206f7065726174696f6e20646964206e6f742073756363656564\n    data_f88c2b987653742ecd02849285169f1eaaadf3e37ff12e2783d5486b802d0976 476976656e20616d6f756e74206973206c6172676572207468616e2063757272656e742062616c616e6365\n\n    auxdata: 0xa265627a7a7230582039a0e87f4814b82f8880ccbbe2c0b1cdc2097aab33d1e2e1d197e844465a63fc64736f6c634300050a0032\n}\n",
				"bytecode": {
					"linkReferences": {},
					"object": "60806040526b033b2e3c9fd0803ce80000006004556001600860006101000a81548160ff021916908315150217905550336000806101000a81548173ffffffffffffffffffffffffffffffffffffffff021916908373ffffffffffffffffffffffffffffffffffffffff1602179055506000809054906101000a900473ffffffffffffffffffffffffffffffffffffffff1673ffffffffffffffffffffffffffffffffffffffff16600073ffffffffffffffffffffffffffffffffffffffff167f8be0079c531659141344cd1fd0a4f28419497f9722a3daafe3b4186f6b6457e060405160405180910390a361307e806100fa6000396000f3fe608060405234801561001057600080fd5b50600436106101cf5760003560e01c806370a082311161010457806395d89b41116100a2578063cbb98c3f11610071578063cbb98c3f14610963578063dd62ed3e14610a22578063e79a198f14610a9a578063f2fde38b14610aa4576101cf565b806395d89b41146107f6578063a457c2d714610879578063a9059cbb146108df578063cbafee8a14610945576101cf565b806374686fd2116100de57806374686fd2146107765780638c680798146107805780638da5cb5b1461078a5780638f32d59b146107d4576101cf565b806370a08231146106ca57806370d5ae0514610722578063715018a61461076c576101cf565b806339509351116101715780634b0e72161161014b5780634b0e72161461059a57806359c42cc4146105de5780635f3e849f146106005780635fb9cf201461066e576101cf565b806339509351146104a057806340c10f191461050657806342966c681461056c576101cf565b806318160ddd116101ad57806318160ddd146103ce5780631aa3a008146103ec57806323b872dd146103f6578063313ce5671461047c576101cf565b806306fdde03146101d4578063095ea7b3146102575780631296830d146102bd575b600080fd5b6101dc610ae8565b6040518080602001828103825283818151815260200191508051906020019080838360005b8381101561021c578082015181840152602081019050610201565b50505050905090810190601f1680156102495780820380516001836020036101000a031916815260200191505b509250505060405180910390f35b6102a36004803603604081101561026d57600080fd5b81019080803573ffffffffffffffffffffffffffffffffffffffff16906020019092919080359060200190929190505050610b21565b604051808215151515815260200191505060405180910390f35b6103b4600480360360a08110156102d357600080fd5b81019080803590602001906401000000008111156102f057600080fd5b82018360208201111561030257600080fd5b8035906020019184600183028401116401000000008311171561032457600080fd5b91908080601f016020809104026020016040519081016040528093929190818152602001838380828437600081840152601f19601f820116905080830192505050505050509192919290803573ffffffffffffffffffffffffffffffffffffffff169060200190929190803590602001909291908035906020019092919080359060200190929190505050610b38565b604051808215151515815260200191505060405180910390f35b6103d6610f9d565b6040518082815260200191505060405180910390f35b6103f4610fa7565b005b6104626004803603606081101561040c57600080fd5b81019080803573ffffffffffffffffffffffffffffffffffffffff169060200190929190803573ffffffffffffffffffffffffffffffffffffffff16906020019092919080359060200190929190505050611001565b604051808215151515815260200191505060405180910390f35b61048461102e565b604051808260ff1660ff16815260200191505060405180910390f35b6104ec600480360360408110156104b657600080fd5b81019080803573ffffffffffffffffffffffffffffffffffffffff16906020019092919080359060200190929190505050611033565b604051808215151515815260200191505060405180910390f35b6105526004803603604081101561051c57600080fd5b81019080803573ffffffffffffffffffffffffffffffffffffffff169060200190929190803590602001909291905050506110d8565b604051808215151515815260200191505060405180910390f35b6105986004803603602081101561058257600080fd5b810190808035906020019092919050505061121a565b005b6105dc600480360360208110156105b057600080fd5b81019080803573ffffffffffffffffffffffffffffffffffffffff1690602001909291905050506112ea565b005b6105e6611409565b604051808215151515815260200191505060405180910390f35b61066c6004803603606081101561061657600080fd5b81019080803573ffffffffffffffffffffffffffffffffffffffff169060200190929190803573ffffffffffffffffffffffffffffffffffffffff1690602001909291908035906020019092919050505061141c565b005b6106b06004803603602081101561068457600080fd5b81019080803573ffffffffffffffffffffffffffffffffffffffff1690602001909291905050506115dc565b604051808215151515815260200191505060405180910390f35b61070c600480360360208110156106e057600080fd5b81019080803573ffffffffffffffffffffffffffffffffffffffff1690602001909291905050506115fc565b6040518082815260200191505060405180910390f35b61072a611645565b604051808273ffffffffffffffffffffffffffffffffffffffff1673ffffffffffffffffffffffffffffffffffffffff16815260200191505060405180910390f35b61077461166b565b005b61077e6117a4565b005b61078861183b565b005b6107926118d2565b604051808273ffffffffffffffffffffffffffffffffffffffff1673ffffffffffffffffffffffffffffffffffffffff16815260200191505060405180910390f35b6107dc6118fb565b604051808215151515815260200191505060405180910390f35b6107fe611952565b6040518080602001828103825283818151815260200191508051906020019080838360005b8381101561083e578082015181840152602081019050610823565b50505050905090810190601f16801561086b5780820380516001836020036101000a031916815260200191505b509250505060405180910390f35b6108c56004803603604081101561088f57600080fd5b81019080803573ffffffffffffffffffffffffffffffffffffffff1690602001909291908035906020019092919050505061198b565b604051808215151515815260200191505060405180910390f35b61092b600480360360408110156108f557600080fd5b81019080803573ffffffffffffffffffffffffffffffffffffffff16906020019092919080359060200190929190505050611a30565b604051808215151515815260200191505060405180910390f35b61094d611a5b565b6040518082815260200191505060405180910390f35b610a0c600480360360c081101561097957600080fd5b8101908080357bffffffffffffffffffffffffffffffffffffffffffffffffffffffff19169060200190929190803573ffffffffffffffffffffffffffffffffffffffff169060200190929190803573ffffffffffffffffffffffffffffffffffffffff169060200190929190803590602001909291908035906020019092919080359060200190929190505050611a61565b6040518082815260200191505060405180910390f35b610a8460048036036040811015610a3857600080fd5b81019080803573ffffffffffffffffffffffffffffffffffffffff169060200190929190803573ffffffffffffffffffffffffffffffffffffffff169060200190929190505050611b5a565b6040518082815260200191505060405180910390f35b610aa2611be1565b005b610ae660048036036020811015610aba57600080fd5b81019080803573ffffffffffffffffffffffffffffffffffffffff169060200190929190505050611c3b565b005b6040518060400160405280600a81526020017f4e4f494120546f6b656e0000000000000000000000000000000000000000000081525081565b6000610b2e338484611cc1565b6001905092915050565b600060011515600860009054906101000a900460ff16151514610ba6576040517f08c379a0000000000000000000000000000000000000000000000000000000008152600401808060200182810382526029815260200180612f3a6029913960400191505060405180910390fd5b600073ffffffffffffffffffffffffffffffffffffffff168573ffffffffffffffffffffffffffffffffffffffff161415610c49576040517f08c379a000000000000000000000000000000000000000000000000000000000815260040180806020018281038252601c8152602001807f5472616e7366657220746f20746865207a65726f20616464726573730000000081525060200191505060405180910390fd5b6000610c7d6000357fffffffff00000000000000000000000000000000000000000000000000000000163088888888611a61565b90506000610c9c88610c8e84611eb8565b611f1090919063ffffffff16565b9050600073ffffffffffffffffffffffffffffffffffffffff168173ffffffffffffffffffffffffffffffffffffffff161415610d41576040517f08c379a00000000000000000000000000000000000000000000000000000000081526004018080602001828103825260118152602001807f496e76616c6964207369676e617475726500000000000000000000000000000081525060200191505060405180910390fd5b60008183604051602001808373ffffffffffffffffffffffffffffffffffffffff1673ffffffffffffffffffffffffffffffffffffffff1660601b815260140182815260200192505050604051602081830303815290604052805190602001209050600015156007600083815260200190815260200160002060009054906101000a900460ff16151514610e3d576040517f08c379a00000000000000000000000000000000000000000000000000000000081526004018080602001828103825260128152602001807f4e6f6e636520616c72656164792075736564000000000000000000000000000081525060200191505060405180910390fd5b60016007600083815260200190815260200160002060006101000a81548160ff0219169083151502179055508773ffffffffffffffffffffffffffffffffffffffff163373ffffffffffffffffffffffffffffffffffffffff161415610edc57610eba8289610eb5898b61201490919063ffffffff16565b61209c565b610ed78289610ed2898b61201490919063ffffffff16565b61233c565b610f09565b610ee782898961209c565b610ef282898961233c565b610efd82338861209c565b610f0882338861233c565b5b3373ffffffffffffffffffffffffffffffffffffffff168873ffffffffffffffffffffffffffffffffffffffff168373ffffffffffffffffffffffffffffffffffffffff167fec5a73fd1f178be20c1bca1b406cbf4b5c20d833b66e582fc122fb4baa0fc2a48a8a604051808381526020018281526020019250505060405180910390a46001935050505095945050505050565b6000600354905090565b6001600660003373ffffffffffffffffffffffffffffffffffffffff1673ffffffffffffffffffffffffffffffffffffffff16815260200190815260200160002060006101000a81548160ff021916908315150217905550565b60008061100f858585612520565b905080156110235761102285858561233c565b5b809150509392505050565b601281565b60006110ce33846110c985600260003373ffffffffffffffffffffffffffffffffffffffff1673ffffffffffffffffffffffffffffffffffffffff16815260200190815260200160002060008973ffffffffffffffffffffffffffffffffffffffff1673ffffffffffffffffffffffffffffffffffffffff1681526020019081526020016000205461201490919063ffffffff16565b611cc1565b6001905092915050565b60006110e26118fb565b611154576040517f08c379a00000000000000000000000000000000000000000000000000000000081526004018080602001828103825260208152602001807f4f776e61626c653a2063616c6c6572206973206e6f7420746865206f776e657281525060200191505060405180910390fd5b600061116b836004546125d190919063ffffffff16565b10156111df576040517f08c379a00000000000000000000000000000000000000000000000000000000081526004018080602001828103825260168152602001807f4e6f7420656e6f75676820746f6b656e73206c6566740000000000000000000081525060200191505060405180910390fd5b6111f4826004546125d190919063ffffffff16565b600481905550611204838361265a565b6112106000848461233c565b6001905092915050565b600560009054906101000a900473ffffffffffffffffffffffffffffffffffffffff1673ffffffffffffffffffffffffffffffffffffffff163373ffffffffffffffffffffffffffffffffffffffff16146112dd576040517f08c379a00000000000000000000000000000000000000000000000000000000081526004018080602001828103825260208152602001807f4f6e6c79206275726e416464726573732063616e206275726e20746f6b656e7381525060200191505060405180910390fd5b6112e73382612817565b50565b6112f26118fb565b611364576040517f08c379a00000000000000000000000000000000000000000000000000000000081526004018080602001828103825260208152602001807f4f776e61626c653a2063616c6c6572206973206e6f7420746865206f776e657281525060200191505060405180910390fd5b600061136f826115fc565b146113c5576040517f08c379a0000000000000000000000000000000000000000000000000000000008152600401808060200182810382526024815260200180612f166024913960400191505060405180910390fd5b80600560006101000a81548173ffffffffffffffffffffffffffffffffffffffff021916908373ffffffffffffffffffffffffffffffffffffffff16021790555050565b600860009054906101000a900460ff1681565b6114246118fb565b611496576040517f08c379a00000000000000000000000000000000000000000000000000000000081526004018080602001828103825260208152602001807f4f776e61626c653a2063616c6c6572206973206e6f7420746865206f776e657281525060200191505060405180910390fd5b60008373ffffffffffffffffffffffffffffffffffffffff166370a08231306040518263ffffffff1660e01b8152600401808273ffffffffffffffffffffffffffffffffffffffff1673ffffffffffffffffffffffffffffffffffffffff16815260200191505060206040518083038186803b15801561151557600080fd5b505afa158015611529573d6000803e3d6000fd5b505050506040513d602081101561153f57600080fd5b81019080805190602001909291905050509050818110156115ab576040517f08c379a000000000000000000000000000000000000000000000000000000000815260040180806020018281038252602b81526020018061301f602b913960400191505060405180910390fd5b6115d683838673ffffffffffffffffffffffffffffffffffffffff166128809092919063ffffffff16565b50505050565b60066020528060005260406000206000915054906101000a900460ff1681565b6000600160008373ffffffffffffffffffffffffffffffffffffffff1673ffffffffffffffffffffffffffffffffffffffff168152602001908152602001600020549050919050565b600560009054906101000a900473ffffffffffffffffffffffffffffffffffffffff1681565b6116736118fb565b6116e5576040517f08c379a00000000000000000000000000000000000000000000000000000000081526004018080602001828103825260208152602001807f4f776e61626c653a2063616c6c6572206973206e6f7420746865206f776e657281525060200191505060405180910390fd5b600073ffffffffffffffffffffffffffffffffffffffff166000809054906101000a900473ffffffffffffffffffffffffffffffffffffffff1673ffffffffffffffffffffffffffffffffffffffff167f8be0079c531659141344cd1fd0a4f28419497f9722a3daafe3b4186f6b6457e060405160405180910390a360008060006101000a81548173ffffffffffffffffffffffffffffffffffffffff021916908373ffffffffffffffffffffffffffffffffffffffff160217905550565b6117ac6118fb565b61181e576040517f08c379a00000000000000000000000000000000000000000000000000000000081526004018080602001828103825260208152602001807f4f776e61626c653a2063616c6c6572206973206e6f7420746865206f776e657281525060200191505060405180910390fd5b6001600860006101000a81548160ff021916908315150217905550565b6118436118fb565b6118b5576040517f08c379a00000000000000000000000000000000000000000000000000000000081526004018080602001828103825260208152602001807f4f776e61626c653a2063616c6c6572206973206e6f7420746865206f776e657281525060200191505060405180910390fd5b6000600860006101000a81548160ff021916908315150217905550565b60008060009054906101000a900473ffffffffffffffffffffffffffffffffffffffff16905090565b60008060009054906101000a900473ffffffffffffffffffffffffffffffffffffffff1673ffffffffffffffffffffffffffffffffffffffff163373ffffffffffffffffffffffffffffffffffffffff1614905090565b6040518060400160405280600481526020017f4e4f49410000000000000000000000000000000000000000000000000000000081525081565b6000611a263384611a2185600260003373ffffffffffffffffffffffffffffffffffffffff1673ffffffffffffffffffffffffffffffffffffffff16815260200190815260200160002060008973ffffffffffffffffffffffffffffffffffffffff1673ffffffffffffffffffffffffffffffffffffffff168152602001908152602001600020546125d190919063ffffffff16565b611cc1565b6001905092915050565b600080611a3d8484612951565b90508015611a5157611a5033858561233c565b5b8091505092915050565b60045481565b600086868686868660405160200180877bffffffffffffffffffffffffffffffffffffffffffffffffffffffff19167bffffffffffffffffffffffffffffffffffffffffffffffffffffffff191681526004018673ffffffffffffffffffffffffffffffffffffffff1673ffffffffffffffffffffffffffffffffffffffff1660601b81526014018573ffffffffffffffffffffffffffffffffffffffff1673ffffffffffffffffffffffffffffffffffffffff1660601b815260140184815260200183815260200182815260200196505050505050506040516020818303038152906040528051906020012090509695505050505050565b6000600260008473ffffffffffffffffffffffffffffffffffffffff1673ffffffffffffffffffffffffffffffffffffffff16815260200190815260200160002060008373ffffffffffffffffffffffffffffffffffffffff1673ffffffffffffffffffffffffffffffffffffffff16815260200190815260200160002054905092915050565b6000600660003373ffffffffffffffffffffffffffffffffffffffff1673ffffffffffffffffffffffffffffffffffffffff16815260200190815260200160002060006101000a81548160ff021916908315150217905550565b611c436118fb565b611cb5576040517f08c379a00000000000000000000000000000000000000000000000000000000081526004018080602001828103825260208152602001807f4f776e61626c653a2063616c6c6572206973206e6f7420746865206f776e657281525060200191505060405180910390fd5b611cbe81612968565b50565b600073ffffffffffffffffffffffffffffffffffffffff168373ffffffffffffffffffffffffffffffffffffffff161415611d47576040517f08c379a0000000000000000000000000000000000000000000000000000000008152600401808060200182810382526024815260200180612fd16024913960400191505060405180910390fd5b600073ffffffffffffffffffffffffffffffffffffffff168273ffffffffffffffffffffffffffffffffffffffff161415611dcd576040517f08c379a0000000000000000000000000000000000000000000000000000000008152600401808060200182810382526022815260200180612ef46022913960400191505060405180910390fd5b80600260008573ffffffffffffffffffffffffffffffffffffffff1673ffffffffffffffffffffffffffffffffffffffff16815260200190815260200160002060008473ffffffffffffffffffffffffffffffffffffffff1673ffffffffffffffffffffffffffffffffffffffff168152602001908152602001600020819055508173ffffffffffffffffffffffffffffffffffffffff168373ffffffffffffffffffffffffffffffffffffffff167f8c5be1e5ebec7d5bd14f71427d1e84f3dd0314c0f7b2291e5b200ac8c7c3b925836040518082815260200191505060405180910390a3505050565b60008160405160200180807f19457468657265756d205369676e6564204d6573736167653a0a333200000000815250601c01828152602001915050604051602081830303815290604052805190602001209050919050565b60006041825114611f24576000905061200e565b60008060006020850151925060408501519150606085015160001a90507f7fffffffffffffffffffffffffffffff5d576e7357a4501ddfe92f46681b20a08260001c1115611f78576000935050505061200e565b601b8160ff1614158015611f905750601c8160ff1614155b15611fa1576000935050505061200e565b60018682858560405160008152602001604052604051808581526020018460ff1660ff1681526020018381526020018281526020019450505050506020604051602081039080840390855afa158015611ffe573d6000803e3d6000fd5b5050506020604051035193505050505b92915050565b600080828401905083811015612092576040517f08c379a000000000000000000000000000000000000000000000000000000000815260040180806020018281038252601b8152602001807f536166654d6174683a206164646974696f6e206f766572666c6f77000000000081525060200191505060405180910390fd5b8091505092915050565b600073ffffffffffffffffffffffffffffffffffffffff168373ffffffffffffffffffffffffffffffffffffffff161415612122576040517f08c379a0000000000000000000000000000000000000000000000000000000008152600401808060200182810382526025815260200180612f846025913960400191505060405180910390fd5b600073ffffffffffffffffffffffffffffffffffffffff168273ffffffffffffffffffffffffffffffffffffffff1614156121a8576040517f08c379a0000000000000000000000000000000000000000000000000000000008152600401808060200182810382526023815260200180612eab6023913960400191505060405180910390fd5b6121fa81600160008673ffffffffffffffffffffffffffffffffffffffff1673ffffffffffffffffffffffffffffffffffffffff168152602001908152602001600020546125d190919063ffffffff16565b600160008573ffffffffffffffffffffffffffffffffffffffff1673ffffffffffffffffffffffffffffffffffffffff1681526020019081526020016000208190555061228f81600160008573ffffffffffffffffffffffffffffffffffffffff1673ffffffffffffffffffffffffffffffffffffffff1681526020019081526020016000205461201490919063ffffffff16565b600160008473ffffffffffffffffffffffffffffffffffffffff1673ffffffffffffffffffffffffffffffffffffffff168152602001908152602001600020819055508173ffffffffffffffffffffffffffffffffffffffff168373ffffffffffffffffffffffffffffffffffffffff167fddf252ad1be2c89b69c2b068fc378daa952ba7f163c4a11628f55a4df523b3ef836040518082815260200191505060405180910390a3505050565b61235b8273ffffffffffffffffffffffffffffffffffffffff16612aac565b156124965760001515600660008473ffffffffffffffffffffffffffffffffffffffff1673ffffffffffffffffffffffffffffffffffffffff16815260200190815260200160002060009054906101000a900460ff16151514156123be5761251b565b8173ffffffffffffffffffffffffffffffffffffffff166329e9a3b98484846040518463ffffffff1660e01b8152600401808473ffffffffffffffffffffffffffffffffffffffff1673ffffffffffffffffffffffffffffffffffffffff1681526020018373ffffffffffffffffffffffffffffffffffffffff1673ffffffffffffffffffffffffffffffffffffffff1681526020018281526020019350505050600060405180830381600087803b15801561247957600080fd5b505af115801561248d573d6000803e3d6000fd5b5050505061251a565b600560009054906101000a900473ffffffffffffffffffffffffffffffffffffffff1673ffffffffffffffffffffffffffffffffffffffff168273ffffffffffffffffffffffffffffffffffffffff16141561251957612518600560009054906101000a900473ffffffffffffffffffffffffffffffffffffffff1682612817565b5b5b5b505050565b600061252d84848461209c565b6125c684336125c185600260008a73ffffffffffffffffffffffffffffffffffffffff1673ffffffffffffffffffffffffffffffffffffffff16815260200190815260200160002060003373ffffffffffffffffffffffffffffffffffffffff1673ffffffffffffffffffffffffffffffffffffffff168152602001908152602001600020546125d190919063ffffffff16565b611cc1565b600190509392505050565b600082821115612649576040517f08c379a000000000000000000000000000000000000000000000000000000000815260040180806020018281038252601e8152602001807f536166654d6174683a207375627472616374696f6e206f766572666c6f77000081525060200191505060405180910390fd5b600082840390508091505092915050565b600073ffffffffffffffffffffffffffffffffffffffff168273ffffffffffffffffffffffffffffffffffffffff1614156126fd576040517f08c379a000000000000000000000000000000000000000000000000000000000815260040180806020018281038252601f8152602001807f45524332303a206d696e7420746f20746865207a65726f20616464726573730081525060200191505060405180910390fd5b6127128160035461201490919063ffffffff16565b60038190555061276a81600160008573ffffffffffffffffffffffffffffffffffffffff1673ffffffffffffffffffffffffffffffffffffffff1681526020019081526020016000205461201490919063ffffffff16565b600160008473ffffffffffffffffffffffffffffffffffffffff1673ffffffffffffffffffffffffffffffffffffffff168152602001908152602001600020819055508173ffffffffffffffffffffffffffffffffffffffff16600073ffffffffffffffffffffffffffffffffffffffff167fddf252ad1be2c89b69c2b068fc378daa952ba7f163c4a11628f55a4df523b3ef836040518082815260200191505060405180910390a35050565b600060045414612872576040517f08c379a0000000000000000000000000000000000000000000000000000000008152600401808060200182810382526028815260200180612fa96028913960400191505060405180910390fd5b61287c8282612abf565b5050565b61294c838473ffffffffffffffffffffffffffffffffffffffff1663a9059cbb905060e01b8484604051602401808373ffffffffffffffffffffffffffffffffffffffff1673ffffffffffffffffffffffffffffffffffffffff16815260200182815260200192505050604051602081830303815290604052907bffffffffffffffffffffffffffffffffffffffffffffffffffffffff19166020820180517bffffffffffffffffffffffffffffffffffffffffffffffffffffffff8381831617835250505050612c5f565b505050565b600061295e33848461209c565b6001905092915050565b600073ffffffffffffffffffffffffffffffffffffffff168173ffffffffffffffffffffffffffffffffffffffff1614156129ee576040517f08c379a0000000000000000000000000000000000000000000000000000000008152600401808060200182810382526026815260200180612ece6026913960400191505060405180910390fd5b8073ffffffffffffffffffffffffffffffffffffffff166000809054906101000a900473ffffffffffffffffffffffffffffffffffffffff1673ffffffffffffffffffffffffffffffffffffffff167f8be0079c531659141344cd1fd0a4f28419497f9722a3daafe3b4186f6b6457e060405160405180910390a3806000806101000a81548173ffffffffffffffffffffffffffffffffffffffff021916908373ffffffffffffffffffffffffffffffffffffffff16021790555050565b600080823b905060008111915050919050565b600073ffffffffffffffffffffffffffffffffffffffff168273ffffffffffffffffffffffffffffffffffffffff161415612b45576040517f08c379a0000000000000000000000000000000000000000000000000000000008152600401808060200182810382526021815260200180612f636021913960400191505060405180910390fd5b612b5a816003546125d190919063ffffffff16565b600381905550612bb281600160008573ffffffffffffffffffffffffffffffffffffffff1673ffffffffffffffffffffffffffffffffffffffff168152602001908152602001600020546125d190919063ffffffff16565b600160008473ffffffffffffffffffffffffffffffffffffffff1673ffffffffffffffffffffffffffffffffffffffff16815260200190815260200160002081905550600073ffffffffffffffffffffffffffffffffffffffff168273ffffffffffffffffffffffffffffffffffffffff167fddf252ad1be2c89b69c2b068fc378daa952ba7f163c4a11628f55a4df523b3ef836040518082815260200191505060405180910390a35050565b612c7e8273ffffffffffffffffffffffffffffffffffffffff16612aac565b612cf0576040517f08c379a000000000000000000000000000000000000000000000000000000000815260040180806020018281038252601f8152602001807f5361666545524332303a2063616c6c20746f206e6f6e2d636f6e74726163740081525060200191505060405180910390fd5b600060608373ffffffffffffffffffffffffffffffffffffffff16836040518082805190602001908083835b60208310612d3f5780518252602082019150602081019050602083039250612d1c565b6001836020036101000a0380198251168184511680821785525050505050509050019150506000604051808303816000865af19150503d8060008114612da1576040519150601f19603f3d011682016040523d82523d6000602084013e612da6565b606091505b509150915081612e1e576040517f08c379a00000000000000000000000000000000000000000000000000000000081526004018080602001828103825260208152602001807f5361666545524332303a206c6f772d6c6576656c2063616c6c206661696c656481525060200191505060405180910390fd5b600081511115612ea457808060200190516020811015612e3d57600080fd5b8101908080519060200190929190505050612ea3576040517f08c379a000000000000000000000000000000000000000000000000000000000815260040180806020018281038252602a815260200180612ff5602a913960400191505060405180910390fd5b5b5050505056fe45524332303a207472616e7366657220746f20746865207a65726f20616464726573734f776e61626c653a206e6577206f776e657220697320746865207a65726f206164647265737345524332303a20617070726f766520746f20746865207a65726f20616464726573734275726e2061646472657373206d7573742068617665207a65726f2062616c616e63652145746865726c657373207472616e736665722066756e6374696f6e616c6974792064697361626c656445524332303a206275726e2066726f6d20746865207a65726f206164647265737345524332303a207472616e736665722066726f6d20746865207a65726f2061646472657373416c6c20746f6b656e73206d757374206265206d696e746564206265666f7265206275726e696e6745524332303a20617070726f76652066726f6d20746865207a65726f20616464726573735361666545524332303a204552433230206f7065726174696f6e20646964206e6f742073756363656564476976656e20616d6f756e74206973206c6172676572207468616e2063757272656e742062616c616e6365a265627a7a7230582039a0e87f4814b82f8880ccbbe2c0b1cdc2097aab33d1e2e1d197e844465a63fc64736f6c634300050a0032",
					"opcodes": "PUSH1 0x80 PUSH1 0x40 MSTORE PUSH12 0x33B2E3C9FD0803CE8000000 PUSH1 0x4 SSTORE PUSH1 0x1 PUSH1 0x8 PUSH1 0x0 PUSH2 0x100 EXP DUP2 SLOAD DUP2 PUSH1 0xFF MUL NOT AND SWAP1 DUP4 ISZERO ISZERO MUL OR SWAP1 SSTORE POP CALLER PUSH1 0x0 DUP1 PUSH2 0x100 EXP DUP2 SLOAD DUP2 PUSH20 0xFFFFFFFFFFFFFFFFFFFFFFFFFFFFFFFFFFFFFFFF MUL NOT AND SWAP1 DUP4 PUSH20 0xFFFFFFFFFFFFFFFFFFFFFFFFFFFFFFFFFFFFFFFF AND MUL OR SWAP1 SSTORE POP PUSH1 0x0 DUP1 SWAP1 SLOAD SWAP1 PUSH2 0x100 EXP SWAP1 DIV PUSH20 0xFFFFFFFFFFFFFFFFFFFFFFFFFFFFFFFFFFFFFFFF AND PUSH20 0xFFFFFFFFFFFFFFFFFFFFFFFFFFFFFFFFFFFFFFFF AND PUSH1 0x0 PUSH20 0xFFFFFFFFFFFFFFFFFFFFFFFFFFFFFFFFFFFFFFFF AND PUSH32 0x8BE0079C531659141344CD1FD0A4F28419497F9722A3DAAFE3B4186F6B6457E0 PUSH1 0x40 MLOAD PUSH1 0x40 MLOAD DUP1 SWAP2 SUB SWAP1 LOG3 PUSH2 0x307E DUP1 PUSH2 0xFA PUSH1 0x0 CODECOPY PUSH1 0x0 RETURN INVALID PUSH1 0x80 PUSH1 0x40 MSTORE CALLVALUE DUP1 ISZERO PUSH2 0x10 JUMPI PUSH1 0x0 DUP1 REVERT JUMPDEST POP PUSH1 0x4 CALLDATASIZE LT PUSH2 0x1CF JUMPI PUSH1 0x0 CALLDATALOAD PUSH1 0xE0 SHR DUP1 PUSH4 0x70A08231 GT PUSH2 0x104 JUMPI DUP1 PUSH4 0x95D89B41 GT PUSH2 0xA2 JUMPI DUP1 PUSH4 0xCBB98C3F GT PUSH2 0x71 JUMPI DUP1 PUSH4 0xCBB98C3F EQ PUSH2 0x963 JUMPI DUP1 PUSH4 0xDD62ED3E EQ PUSH2 0xA22 JUMPI DUP1 PUSH4 0xE79A198F EQ PUSH2 0xA9A JUMPI DUP1 PUSH4 0xF2FDE38B EQ PUSH2 0xAA4 JUMPI PUSH2 0x1CF JUMP JUMPDEST DUP1 PUSH4 0x95D89B41 EQ PUSH2 0x7F6 JUMPI DUP1 PUSH4 0xA457C2D7 EQ PUSH2 0x879 JUMPI DUP1 PUSH4 0xA9059CBB EQ PUSH2 0x8DF JUMPI DUP1 PUSH4 0xCBAFEE8A EQ PUSH2 0x945 JUMPI PUSH2 0x1CF JUMP JUMPDEST DUP1 PUSH4 0x74686FD2 GT PUSH2 0xDE JUMPI DUP1 PUSH4 0x74686FD2 EQ PUSH2 0x776 JUMPI DUP1 PUSH4 0x8C680798 EQ PUSH2 0x780 JUMPI DUP1 PUSH4 0x8DA5CB5B EQ PUSH2 0x78A JUMPI DUP1 PUSH4 0x8F32D59B EQ PUSH2 0x7D4 JUMPI PUSH2 0x1CF JUMP JUMPDEST DUP1 PUSH4 0x70A08231 EQ PUSH2 0x6CA JUMPI DUP1 PUSH4 0x70D5AE05 EQ PUSH2 0x722 JUMPI DUP1 PUSH4 0x715018A6 EQ PUSH2 0x76C JUMPI PUSH2 0x1CF JUMP JUMPDEST DUP1 PUSH4 0x39509351 GT PUSH2 0x171 JUMPI DUP1 PUSH4 0x4B0E7216 GT PUSH2 0x14B JUMPI DUP1 PUSH4 0x4B0E7216 EQ PUSH2 0x59A JUMPI DUP1 PUSH4 0x59C42CC4 EQ PUSH2 0x5DE JUMPI DUP1 PUSH4 0x5F3E849F EQ PUSH2 0x600 JUMPI DUP1 PUSH4 0x5FB9CF20 EQ PUSH2 0x66E JUMPI PUSH2 0x1CF JUMP JUMPDEST DUP1 PUSH4 0x39509351 EQ PUSH2 0x4A0 JUMPI DUP1 PUSH4 0x40C10F19 EQ PUSH2 0x506 JUMPI DUP1 PUSH4 0x42966C68 EQ PUSH2 0x56C JUMPI PUSH2 0x1CF JUMP JUMPDEST DUP1 PUSH4 0x18160DDD GT PUSH2 0x1AD JUMPI DUP1 PUSH4 0x18160DDD EQ PUSH2 0x3CE JUMPI DUP1 PUSH4 0x1AA3A008 EQ PUSH2 0x3EC JUMPI DUP1 PUSH4 0x23B872DD EQ PUSH2 0x3F6 JUMPI DUP1 PUSH4 0x313CE567 EQ PUSH2 0x47C JUMPI PUSH2 0x1CF JUMP JUMPDEST DUP1 PUSH4 0x6FDDE03 EQ PUSH2 0x1D4 JUMPI DUP1 PUSH4 0x95EA7B3 EQ PUSH2 0x257 JUMPI DUP1 PUSH4 0x1296830D EQ PUSH2 0x2BD JUMPI JUMPDEST PUSH1 0x0 DUP1 REVERT JUMPDEST PUSH2 0x1DC PUSH2 0xAE8 JUMP JUMPDEST PUSH1 0x40 MLOAD DUP1 DUP1 PUSH1 0x20 ADD DUP3 DUP2 SUB DUP3 MSTORE DUP4 DUP2 DUP2 MLOAD DUP2 MSTORE PUSH1 0x20 ADD SWAP2 POP DUP1 MLOAD SWAP1 PUSH1 0x20 ADD SWAP1 DUP1 DUP4 DUP4 PUSH1 0x0 JUMPDEST DUP4 DUP2 LT ISZERO PUSH2 0x21C JUMPI DUP1 DUP3 ADD MLOAD DUP2 DUP5 ADD MSTORE PUSH1 0x20 DUP2 ADD SWAP1 POP PUSH2 0x201 JUMP JUMPDEST POP POP POP POP SWAP1 POP SWAP1 DUP2 ADD SWAP1 PUSH1 0x1F AND DUP1 ISZERO PUSH2 0x249 JUMPI DUP1 DUP3 SUB DUP1 MLOAD PUSH1 0x1 DUP4 PUSH1 0x20 SUB PUSH2 0x100 EXP SUB NOT AND DUP2 MSTORE PUSH1 0x20 ADD SWAP2 POP JUMPDEST POP SWAP3 POP POP POP PUSH1 0x40 MLOAD DUP1 SWAP2 SUB SWAP1 RETURN JUMPDEST PUSH2 0x2A3 PUSH1 0x4 DUP1 CALLDATASIZE SUB PUSH1 0x40 DUP2 LT ISZERO PUSH2 0x26D JUMPI PUSH1 0x0 DUP1 REVERT JUMPDEST DUP2 ADD SWAP1 DUP1 DUP1 CALLDATALOAD PUSH20 0xFFFFFFFFFFFFFFFFFFFFFFFFFFFFFFFFFFFFFFFF AND SWAP1 PUSH1 0x20 ADD SWAP1 SWAP3 SWAP2 SWAP1 DUP1 CALLDATALOAD SWAP1 PUSH1 0x20 ADD SWAP1 SWAP3 SWAP2 SWAP1 POP POP POP PUSH2 0xB21 JUMP JUMPDEST PUSH1 0x40 MLOAD DUP1 DUP3 ISZERO ISZERO ISZERO ISZERO DUP2 MSTORE PUSH1 0x20 ADD SWAP2 POP POP PUSH1 0x40 MLOAD DUP1 SWAP2 SUB SWAP1 RETURN JUMPDEST PUSH2 0x3B4 PUSH1 0x4 DUP1 CALLDATASIZE SUB PUSH1 0xA0 DUP2 LT ISZERO PUSH2 0x2D3 JUMPI PUSH1 0x0 DUP1 REVERT JUMPDEST DUP2 ADD SWAP1 DUP1 DUP1 CALLDATALOAD SWAP1 PUSH1 0x20 ADD SWAP1 PUSH5 0x100000000 DUP2 GT ISZERO PUSH2 0x2F0 JUMPI PUSH1 0x0 DUP1 REVERT JUMPDEST DUP3 ADD DUP4 PUSH1 0x20 DUP3 ADD GT ISZERO PUSH2 0x302 JUMPI PUSH1 0x0 DUP1 REVERT JUMPDEST DUP1 CALLDATALOAD SWAP1 PUSH1 0x20 ADD SWAP2 DUP5 PUSH1 0x1 DUP4 MUL DUP5 ADD GT PUSH5 0x100000000 DUP4 GT OR ISZERO PUSH2 0x324 JUMPI PUSH1 0x0 DUP1 REVERT JUMPDEST SWAP2 SWAP1 DUP1 DUP1 PUSH1 0x1F ADD PUSH1 0x20 DUP1 SWAP2 DIV MUL PUSH1 0x20 ADD PUSH1 0x40 MLOAD SWAP1 DUP2 ADD PUSH1 0x40 MSTORE DUP1 SWAP4 SWAP3 SWAP2 SWAP1 DUP2 DUP2 MSTORE PUSH1 0x20 ADD DUP4 DUP4 DUP1 DUP3 DUP5 CALLDATACOPY PUSH1 0x0 DUP2 DUP5 ADD MSTORE PUSH1 0x1F NOT PUSH1 0x1F DUP3 ADD AND SWAP1 POP DUP1 DUP4 ADD SWAP3 POP POP POP POP POP POP POP SWAP2 SWAP3 SWAP2 SWAP3 SWAP1 DUP1 CALLDATALOAD PUSH20 0xFFFFFFFFFFFFFFFFFFFFFFFFFFFFFFFFFFFFFFFF AND SWAP1 PUSH1 0x20 ADD SWAP1 SWAP3 SWAP2 SWAP1 DUP1 CALLDATALOAD SWAP1 PUSH1 0x20 ADD SWAP1 SWAP3 SWAP2 SWAP1 DUP1 CALLDATALOAD SWAP1 PUSH1 0x20 ADD SWAP1 SWAP3 SWAP2 SWAP1 DUP1 CALLDATALOAD SWAP1 PUSH1 0x20 ADD SWAP1 SWAP3 SWAP2 SWAP1 POP POP POP PUSH2 0xB38 JUMP JUMPDEST PUSH1 0x40 MLOAD DUP1 DUP3 ISZERO ISZERO ISZERO ISZERO DUP2 MSTORE PUSH1 0x20 ADD SWAP2 POP POP PUSH1 0x40 MLOAD DUP1 SWAP2 SUB SWAP1 RETURN JUMPDEST PUSH2 0x3D6 PUSH2 0xF9D JUMP JUMPDEST PUSH1 0x40 MLOAD DUP1 DUP3 DUP2 MSTORE PUSH1 0x20 ADD SWAP2 POP POP PUSH1 0x40 MLOAD DUP1 SWAP2 SUB SWAP1 RETURN JUMPDEST PUSH2 0x3F4 PUSH2 0xFA7 JUMP JUMPDEST STOP JUMPDEST PUSH2 0x462 PUSH1 0x4 DUP1 CALLDATASIZE SUB PUSH1 0x60 DUP2 LT ISZERO PUSH2 0x40C JUMPI PUSH1 0x0 DUP1 REVERT JUMPDEST DUP2 ADD SWAP1 DUP1 DUP1 CALLDATALOAD PUSH20 0xFFFFFFFFFFFFFFFFFFFFFFFFFFFFFFFFFFFFFFFF AND SWAP1 PUSH1 0x20 ADD SWAP1 SWAP3 SWAP2 SWAP1 DUP1 CALLDATALOAD PUSH20 0xFFFFFFFFFFFFFFFFFFFFFFFFFFFFFFFFFFFFFFFF AND SWAP1 PUSH1 0x20 ADD SWAP1 SWAP3 SWAP2 SWAP1 DUP1 CALLDATALOAD SWAP1 PUSH1 0x20 ADD SWAP1 SWAP3 SWAP2 SWAP1 POP POP POP PUSH2 0x1001 JUMP JUMPDEST PUSH1 0x40 MLOAD DUP1 DUP3 ISZERO ISZERO ISZERO ISZERO DUP2 MSTORE PUSH1 0x20 ADD SWAP2 POP POP PUSH1 0x40 MLOAD DUP1 SWAP2 SUB SWAP1 RETURN JUMPDEST PUSH2 0x484 PUSH2 0x102E JUMP JUMPDEST PUSH1 0x40 MLOAD DUP1 DUP3 PUSH1 0xFF AND PUSH1 0xFF AND DUP2 MSTORE PUSH1 0x20 ADD SWAP2 POP POP PUSH1 0x40 MLOAD DUP1 SWAP2 SUB SWAP1 RETURN JUMPDEST PUSH2 0x4EC PUSH1 0x4 DUP1 CALLDATASIZE SUB PUSH1 0x40 DUP2 LT ISZERO PUSH2 0x4B6 JUMPI PUSH1 0x0 DUP1 REVERT JUMPDEST DUP2 ADD SWAP1 DUP1 DUP1 CALLDATALOAD PUSH20 0xFFFFFFFFFFFFFFFFFFFFFFFFFFFFFFFFFFFFFFFF AND SWAP1 PUSH1 0x20 ADD SWAP1 SWAP3 SWAP2 SWAP1 DUP1 CALLDATALOAD SWAP1 PUSH1 0x20 ADD SWAP1 SWAP3 SWAP2 SWAP1 POP POP POP PUSH2 0x1033 JUMP JUMPDEST PUSH1 0x40 MLOAD DUP1 DUP3 ISZERO ISZERO ISZERO ISZERO DUP2 MSTORE PUSH1 0x20 ADD SWAP2 POP POP PUSH1 0x40 MLOAD DUP1 SWAP2 SUB SWAP1 RETURN JUMPDEST PUSH2 0x552 PUSH1 0x4 DUP1 CALLDATASIZE SUB PUSH1 0x40 DUP2 LT ISZERO PUSH2 0x51C JUMPI PUSH1 0x0 DUP1 REVERT JUMPDEST DUP2 ADD SWAP1 DUP1 DUP1 CALLDATALOAD PUSH20 0xFFFFFFFFFFFFFFFFFFFFFFFFFFFFFFFFFFFFFFFF AND SWAP1 PUSH1 0x20 ADD SWAP1 SWAP3 SWAP2 SWAP1 DUP1 CALLDATALOAD SWAP1 PUSH1 0x20 ADD SWAP1 SWAP3 SWAP2 SWAP1 POP POP POP PUSH2 0x10D8 JUMP JUMPDEST PUSH1 0x40 MLOAD DUP1 DUP3 ISZERO ISZERO ISZERO ISZERO DUP2 MSTORE PUSH1 0x20 ADD SWAP2 POP POP PUSH1 0x40 MLOAD DUP1 SWAP2 SUB SWAP1 RETURN JUMPDEST PUSH2 0x598 PUSH1 0x4 DUP1 CALLDATASIZE SUB PUSH1 0x20 DUP2 LT ISZERO PUSH2 0x582 JUMPI PUSH1 0x0 DUP1 REVERT JUMPDEST DUP2 ADD SWAP1 DUP1 DUP1 CALLDATALOAD SWAP1 PUSH1 0x20 ADD SWAP1 SWAP3 SWAP2 SWAP1 POP POP POP PUSH2 0x121A JUMP JUMPDEST STOP JUMPDEST PUSH2 0x5DC PUSH1 0x4 DUP1 CALLDATASIZE SUB PUSH1 0x20 DUP2 LT ISZERO PUSH2 0x5B0 JUMPI PUSH1 0x0 DUP1 REVERT JUMPDEST DUP2 ADD SWAP1 DUP1 DUP1 CALLDATALOAD PUSH20 0xFFFFFFFFFFFFFFFFFFFFFFFFFFFFFFFFFFFFFFFF AND SWAP1 PUSH1 0x20 ADD SWAP1 SWAP3 SWAP2 SWAP1 POP POP POP PUSH2 0x12EA JUMP JUMPDEST STOP JUMPDEST PUSH2 0x5E6 PUSH2 0x1409 JUMP JUMPDEST PUSH1 0x40 MLOAD DUP1 DUP3 ISZERO ISZERO ISZERO ISZERO DUP2 MSTORE PUSH1 0x20 ADD SWAP2 POP POP PUSH1 0x40 MLOAD DUP1 SWAP2 SUB SWAP1 RETURN JUMPDEST PUSH2 0x66C PUSH1 0x4 DUP1 CALLDATASIZE SUB PUSH1 0x60 DUP2 LT ISZERO PUSH2 0x616 JUMPI PUSH1 0x0 DUP1 REVERT JUMPDEST DUP2 ADD SWAP1 DUP1 DUP1 CALLDATALOAD PUSH20 0xFFFFFFFFFFFFFFFFFFFFFFFFFFFFFFFFFFFFFFFF AND SWAP1 PUSH1 0x20 ADD SWAP1 SWAP3 SWAP2 SWAP1 DUP1 CALLDATALOAD PUSH20 0xFFFFFFFFFFFFFFFFFFFFFFFFFFFFFFFFFFFFFFFF AND SWAP1 PUSH1 0x20 ADD SWAP1 SWAP3 SWAP2 SWAP1 DUP1 CALLDATALOAD SWAP1 PUSH1 0x20 ADD SWAP1 SWAP3 SWAP2 SWAP1 POP POP POP PUSH2 0x141C JUMP JUMPDEST STOP JUMPDEST PUSH2 0x6B0 PUSH1 0x4 DUP1 CALLDATASIZE SUB PUSH1 0x20 DUP2 LT ISZERO PUSH2 0x684 JUMPI PUSH1 0x0 DUP1 REVERT JUMPDEST DUP2 ADD SWAP1 DUP1 DUP1 CALLDATALOAD PUSH20 0xFFFFFFFFFFFFFFFFFFFFFFFFFFFFFFFFFFFFFFFF AND SWAP1 PUSH1 0x20 ADD SWAP1 SWAP3 SWAP2 SWAP1 POP POP POP PUSH2 0x15DC JUMP JUMPDEST PUSH1 0x40 MLOAD DUP1 DUP3 ISZERO ISZERO ISZERO ISZERO DUP2 MSTORE PUSH1 0x20 ADD SWAP2 POP POP PUSH1 0x40 MLOAD DUP1 SWAP2 SUB SWAP1 RETURN JUMPDEST PUSH2 0x70C PUSH1 0x4 DUP1 CALLDATASIZE SUB PUSH1 0x20 DUP2 LT ISZERO PUSH2 0x6E0 JUMPI PUSH1 0x0 DUP1 REVERT JUMPDEST DUP2 ADD SWAP1 DUP1 DUP1 CALLDATALOAD PUSH20 0xFFFFFFFFFFFFFFFFFFFFFFFFFFFFFFFFFFFFFFFF AND SWAP1 PUSH1 0x20 ADD SWAP1 SWAP3 SWAP2 SWAP1 POP POP POP PUSH2 0x15FC JUMP JUMPDEST PUSH1 0x40 MLOAD DUP1 DUP3 DUP2 MSTORE PUSH1 0x20 ADD SWAP2 POP POP PUSH1 0x40 MLOAD DUP1 SWAP2 SUB SWAP1 RETURN JUMPDEST PUSH2 0x72A PUSH2 0x1645 JUMP JUMPDEST PUSH1 0x40 MLOAD DUP1 DUP3 PUSH20 0xFFFFFFFFFFFFFFFFFFFFFFFFFFFFFFFFFFFFFFFF AND PUSH20 0xFFFFFFFFFFFFFFFFFFFFFFFFFFFFFFFFFFFFFFFF AND DUP2 MSTORE PUSH1 0x20 ADD SWAP2 POP POP PUSH1 0x40 MLOAD DUP1 SWAP2 SUB SWAP1 RETURN JUMPDEST PUSH2 0x774 PUSH2 0x166B JUMP JUMPDEST STOP JUMPDEST PUSH2 0x77E PUSH2 0x17A4 JUMP JUMPDEST STOP JUMPDEST PUSH2 0x788 PUSH2 0x183B JUMP JUMPDEST STOP JUMPDEST PUSH2 0x792 PUSH2 0x18D2 JUMP JUMPDEST PUSH1 0x40 MLOAD DUP1 DUP3 PUSH20 0xFFFFFFFFFFFFFFFFFFFFFFFFFFFFFFFFFFFFFFFF AND PUSH20 0xFFFFFFFFFFFFFFFFFFFFFFFFFFFFFFFFFFFFFFFF AND DUP2 MSTORE PUSH1 0x20 ADD SWAP2 POP POP PUSH1 0x40 MLOAD DUP1 SWAP2 SUB SWAP1 RETURN JUMPDEST PUSH2 0x7DC PUSH2 0x18FB JUMP JUMPDEST PUSH1 0x40 MLOAD DUP1 DUP3 ISZERO ISZERO ISZERO ISZERO DUP2 MSTORE PUSH1 0x20 ADD SWAP2 POP POP PUSH1 0x40 MLOAD DUP1 SWAP2 SUB SWAP1 RETURN JUMPDEST PUSH2 0x7FE PUSH2 0x1952 JUMP JUMPDEST PUSH1 0x40 MLOAD DUP1 DUP1 PUSH1 0x20 ADD DUP3 DUP2 SUB DUP3 MSTORE DUP4 DUP2 DUP2 MLOAD DUP2 MSTORE PUSH1 0x20 ADD SWAP2 POP DUP1 MLOAD SWAP1 PUSH1 0x20 ADD SWAP1 DUP1 DUP4 DUP4 PUSH1 0x0 JUMPDEST DUP4 DUP2 LT ISZERO PUSH2 0x83E JUMPI DUP1 DUP3 ADD MLOAD DUP2 DUP5 ADD MSTORE PUSH1 0x20 DUP2 ADD SWAP1 POP PUSH2 0x823 JUMP JUMPDEST POP POP POP POP SWAP1 POP SWAP1 DUP2 ADD SWAP1 PUSH1 0x1F AND DUP1 ISZERO PUSH2 0x86B JUMPI DUP1 DUP3 SUB DUP1 MLOAD PUSH1 0x1 DUP4 PUSH1 0x20 SUB PUSH2 0x100 EXP SUB NOT AND DUP2 MSTORE PUSH1 0x20 ADD SWAP2 POP JUMPDEST POP SWAP3 POP POP POP PUSH1 0x40 MLOAD DUP1 SWAP2 SUB SWAP1 RETURN JUMPDEST PUSH2 0x8C5 PUSH1 0x4 DUP1 CALLDATASIZE SUB PUSH1 0x40 DUP2 LT ISZERO PUSH2 0x88F JUMPI PUSH1 0x0 DUP1 REVERT JUMPDEST DUP2 ADD SWAP1 DUP1 DUP1 CALLDATALOAD PUSH20 0xFFFFFFFFFFFFFFFFFFFFFFFFFFFFFFFFFFFFFFFF AND SWAP1 PUSH1 0x20 ADD SWAP1 SWAP3 SWAP2 SWAP1 DUP1 CALLDATALOAD SWAP1 PUSH1 0x20 ADD SWAP1 SWAP3 SWAP2 SWAP1 POP POP POP PUSH2 0x198B JUMP JUMPDEST PUSH1 0x40 MLOAD DUP1 DUP3 ISZERO ISZERO ISZERO ISZERO DUP2 MSTORE PUSH1 0x20 ADD SWAP2 POP POP PUSH1 0x40 MLOAD DUP1 SWAP2 SUB SWAP1 RETURN JUMPDEST PUSH2 0x92B PUSH1 0x4 DUP1 CALLDATASIZE SUB PUSH1 0x40 DUP2 LT ISZERO PUSH2 0x8F5 JUMPI PUSH1 0x0 DUP1 REVERT JUMPDEST DUP2 ADD SWAP1 DUP1 DUP1 CALLDATALOAD PUSH20 0xFFFFFFFFFFFFFFFFFFFFFFFFFFFFFFFFFFFFFFFF AND SWAP1 PUSH1 0x20 ADD SWAP1 SWAP3 SWAP2 SWAP1 DUP1 CALLDATALOAD SWAP1 PUSH1 0x20 ADD SWAP1 SWAP3 SWAP2 SWAP1 POP POP POP PUSH2 0x1A30 JUMP JUMPDEST PUSH1 0x40 MLOAD DUP1 DUP3 ISZERO ISZERO ISZERO ISZERO DUP2 MSTORE PUSH1 0x20 ADD SWAP2 POP POP PUSH1 0x40 MLOAD DUP1 SWAP2 SUB SWAP1 RETURN JUMPDEST PUSH2 0x94D PUSH2 0x1A5B JUMP JUMPDEST PUSH1 0x40 MLOAD DUP1 DUP3 DUP2 MSTORE PUSH1 0x20 ADD SWAP2 POP POP PUSH1 0x40 MLOAD DUP1 SWAP2 SUB SWAP1 RETURN JUMPDEST PUSH2 0xA0C PUSH1 0x4 DUP1 CALLDATASIZE SUB PUSH1 0xC0 DUP2 LT ISZERO PUSH2 0x979 JUMPI PUSH1 0x0 DUP1 REVERT JUMPDEST DUP2 ADD SWAP1 DUP1 DUP1 CALLDATALOAD PUSH28 0xFFFFFFFFFFFFFFFFFFFFFFFFFFFFFFFFFFFFFFFFFFFFFFFFFFFFFFFF NOT AND SWAP1 PUSH1 0x20 ADD SWAP1 SWAP3 SWAP2 SWAP1 DUP1 CALLDATALOAD PUSH20 0xFFFFFFFFFFFFFFFFFFFFFFFFFFFFFFFFFFFFFFFF AND SWAP1 PUSH1 0x20 ADD SWAP1 SWAP3 SWAP2 SWAP1 DUP1 CALLDATALOAD PUSH20 0xFFFFFFFFFFFFFFFFFFFFFFFFFFFFFFFFFFFFFFFF AND SWAP1 PUSH1 0x20 ADD SWAP1 SWAP3 SWAP2 SWAP1 DUP1 CALLDATALOAD SWAP1 PUSH1 0x20 ADD SWAP1 SWAP3 SWAP2 SWAP1 DUP1 CALLDATALOAD SWAP1 PUSH1 0x20 ADD SWAP1 SWAP3 SWAP2 SWAP1 DUP1 CALLDATALOAD SWAP1 PUSH1 0x20 ADD SWAP1 SWAP3 SWAP2 SWAP1 POP POP POP PUSH2 0x1A61 JUMP JUMPDEST PUSH1 0x40 MLOAD DUP1 DUP3 DUP2 MSTORE PUSH1 0x20 ADD SWAP2 POP POP PUSH1 0x40 MLOAD DUP1 SWAP2 SUB SWAP1 RETURN JUMPDEST PUSH2 0xA84 PUSH1 0x4 DUP1 CALLDATASIZE SUB PUSH1 0x40 DUP2 LT ISZERO PUSH2 0xA38 JUMPI PUSH1 0x0 DUP1 REVERT JUMPDEST DUP2 ADD SWAP1 DUP1 DUP1 CALLDATALOAD PUSH20 0xFFFFFFFFFFFFFFFFFFFFFFFFFFFFFFFFFFFFFFFF AND SWAP1 PUSH1 0x20 ADD SWAP1 SWAP3 SWAP2 SWAP1 DUP1 CALLDATALOAD PUSH20 0xFFFFFFFFFFFFFFFFFFFFFFFFFFFFFFFFFFFFFFFF AND SWAP1 PUSH1 0x20 ADD SWAP1 SWAP3 SWAP2 SWAP1 POP POP POP PUSH2 0x1B5A JUMP JUMPDEST PUSH1 0x40 MLOAD DUP1 DUP3 DUP2 MSTORE PUSH1 0x20 ADD SWAP2 POP POP PUSH1 0x40 MLOAD DUP1 SWAP2 SUB SWAP1 RETURN JUMPDEST PUSH2 0xAA2 PUSH2 0x1BE1 JUMP JUMPDEST STOP JUMPDEST PUSH2 0xAE6 PUSH1 0x4 DUP1 CALLDATASIZE SUB PUSH1 0x20 DUP2 LT ISZERO PUSH2 0xABA JUMPI PUSH1 0x0 DUP1 REVERT JUMPDEST DUP2 ADD SWAP1 DUP1 DUP1 CALLDATALOAD PUSH20 0xFFFFFFFFFFFFFFFFFFFFFFFFFFFFFFFFFFFFFFFF AND SWAP1 PUSH1 0x20 ADD SWAP1 SWAP3 SWAP2 SWAP1 POP POP POP PUSH2 0x1C3B JUMP JUMPDEST STOP JUMPDEST PUSH1 0x40 MLOAD DUP1 PUSH1 0x40 ADD PUSH1 0x40 MSTORE DUP1 PUSH1 0xA DUP2 MSTORE PUSH1 0x20 ADD PUSH32 0x4E4F494120546F6B656E00000000000000000000000000000000000000000000 DUP2 MSTORE POP DUP2 JUMP JUMPDEST PUSH1 0x0 PUSH2 0xB2E CALLER DUP5 DUP5 PUSH2 0x1CC1 JUMP JUMPDEST PUSH1 0x1 SWAP1 POP SWAP3 SWAP2 POP POP JUMP JUMPDEST PUSH1 0x0 PUSH1 0x1 ISZERO ISZERO PUSH1 0x8 PUSH1 0x0 SWAP1 SLOAD SWAP1 PUSH2 0x100 EXP SWAP1 DIV PUSH1 0xFF AND ISZERO ISZERO EQ PUSH2 0xBA6 JUMPI PUSH1 0x40 MLOAD PUSH32 0x8C379A000000000000000000000000000000000000000000000000000000000 DUP2 MSTORE PUSH1 0x4 ADD DUP1 DUP1 PUSH1 0x20 ADD DUP3 DUP2 SUB DUP3 MSTORE PUSH1 0x29 DUP2 MSTORE PUSH1 0x20 ADD DUP1 PUSH2 0x2F3A PUSH1 0x29 SWAP2 CODECOPY PUSH1 0x40 ADD SWAP2 POP POP PUSH1 0x40 MLOAD DUP1 SWAP2 SUB SWAP1 REVERT JUMPDEST PUSH1 0x0 PUSH20 0xFFFFFFFFFFFFFFFFFFFFFFFFFFFFFFFFFFFFFFFF AND DUP6 PUSH20 0xFFFFFFFFFFFFFFFFFFFFFFFFFFFFFFFFFFFFFFFF AND EQ ISZERO PUSH2 0xC49 JUMPI PUSH1 0x40 MLOAD PUSH32 0x8C379A000000000000000000000000000000000000000000000000000000000 DUP2 MSTORE PUSH1 0x4 ADD DUP1 DUP1 PUSH1 0x20 ADD DUP3 DUP2 SUB DUP3 MSTORE PUSH1 0x1C DUP2 MSTORE PUSH1 0x20 ADD DUP1 PUSH32 0x5472616E7366657220746F20746865207A65726F206164647265737300000000 DUP2 MSTORE POP PUSH1 0x20 ADD SWAP2 POP POP PUSH1 0x40 MLOAD DUP1 SWAP2 SUB SWAP1 REVERT JUMPDEST PUSH1 0x0 PUSH2 0xC7D PUSH1 0x0 CALLDATALOAD PUSH32 0xFFFFFFFF00000000000000000000000000000000000000000000000000000000 AND ADDRESS DUP9 DUP9 DUP9 DUP9 PUSH2 0x1A61 JUMP JUMPDEST SWAP1 POP PUSH1 0x0 PUSH2 0xC9C DUP9 PUSH2 0xC8E DUP5 PUSH2 0x1EB8 JUMP JUMPDEST PUSH2 0x1F10 SWAP1 SWAP2 SWAP1 PUSH4 0xFFFFFFFF AND JUMP JUMPDEST SWAP1 POP PUSH1 0x0 PUSH20 0xFFFFFFFFFFFFFFFFFFFFFFFFFFFFFFFFFFFFFFFF AND DUP2 PUSH20 0xFFFFFFFFFFFFFFFFFFFFFFFFFFFFFFFFFFFFFFFF AND EQ ISZERO PUSH2 0xD41 JUMPI PUSH1 0x40 MLOAD PUSH32 0x8C379A000000000000000000000000000000000000000000000000000000000 DUP2 MSTORE PUSH1 0x4 ADD DUP1 DUP1 PUSH1 0x20 ADD DUP3 DUP2 SUB DUP3 MSTORE PUSH1 0x11 DUP2 MSTORE PUSH1 0x20 ADD DUP1 PUSH32 0x496E76616C6964207369676E6174757265000000000000000000000000000000 DUP2 MSTORE POP PUSH1 0x20 ADD SWAP2 POP POP PUSH1 0x40 MLOAD DUP1 SWAP2 SUB SWAP1 REVERT JUMPDEST PUSH1 0x0 DUP2 DUP4 PUSH1 0x40 MLOAD PUSH1 0x20 ADD DUP1 DUP4 PUSH20 0xFFFFFFFFFFFFFFFFFFFFFFFFFFFFFFFFFFFFFFFF AND PUSH20 0xFFFFFFFFFFFFFFFFFFFFFFFFFFFFFFFFFFFFFFFF AND PUSH1 0x60 SHL DUP2 MSTORE PUSH1 0x14 ADD DUP3 DUP2 MSTORE PUSH1 0x20 ADD SWAP3 POP POP POP PUSH1 0x40 MLOAD PUSH1 0x20 DUP2 DUP4 SUB SUB DUP2 MSTORE SWAP1 PUSH1 0x40 MSTORE DUP1 MLOAD SWAP1 PUSH1 0x20 ADD KECCAK256 SWAP1 POP PUSH1 0x0 ISZERO ISZERO PUSH1 0x7 PUSH1 0x0 DUP4 DUP2 MSTORE PUSH1 0x20 ADD SWAP1 DUP2 MSTORE PUSH1 0x20 ADD PUSH1 0x0 KECCAK256 PUSH1 0x0 SWAP1 SLOAD SWAP1 PUSH2 0x100 EXP SWAP1 DIV PUSH1 0xFF AND ISZERO ISZERO EQ PUSH2 0xE3D JUMPI PUSH1 0x40 MLOAD PUSH32 0x8C379A000000000000000000000000000000000000000000000000000000000 DUP2 MSTORE PUSH1 0x4 ADD DUP1 DUP1 PUSH1 0x20 ADD DUP3 DUP2 SUB DUP3 MSTORE PUSH1 0x12 DUP2 MSTORE PUSH1 0x20 ADD DUP1 PUSH32 0x4E6F6E636520616C726561647920757365640000000000000000000000000000 DUP2 MSTORE POP PUSH1 0x20 ADD SWAP2 POP POP PUSH1 0x40 MLOAD DUP1 SWAP2 SUB SWAP1 REVERT JUMPDEST PUSH1 0x1 PUSH1 0x7 PUSH1 0x0 DUP4 DUP2 MSTORE PUSH1 0x20 ADD SWAP1 DUP2 MSTORE PUSH1 0x20 ADD PUSH1 0x0 KECCAK256 PUSH1 0x0 PUSH2 0x100 EXP DUP2 SLOAD DUP2 PUSH1 0xFF MUL NOT AND SWAP1 DUP4 ISZERO ISZERO MUL OR SWAP1 SSTORE POP DUP8 PUSH20 0xFFFFFFFFFFFFFFFFFFFFFFFFFFFFFFFFFFFFFFFF AND CALLER PUSH20 0xFFFFFFFFFFFFFFFFFFFFFFFFFFFFFFFFFFFFFFFF AND EQ ISZERO PUSH2 0xEDC JUMPI PUSH2 0xEBA DUP3 DUP10 PUSH2 0xEB5 DUP10 DUP12 PUSH2 0x2014 SWAP1 SWAP2 SWAP1 PUSH4 0xFFFFFFFF AND JUMP JUMPDEST PUSH2 0x209C JUMP JUMPDEST PUSH2 0xED7 DUP3 DUP10 PUSH2 0xED2 DUP10 DUP12 PUSH2 0x2014 SWAP1 SWAP2 SWAP1 PUSH4 0xFFFFFFFF AND JUMP JUMPDEST PUSH2 0x233C JUMP JUMPDEST PUSH2 0xF09 JUMP JUMPDEST PUSH2 0xEE7 DUP3 DUP10 DUP10 PUSH2 0x209C JUMP JUMPDEST PUSH2 0xEF2 DUP3 DUP10 DUP10 PUSH2 0x233C JUMP JUMPDEST PUSH2 0xEFD DUP3 CALLER DUP9 PUSH2 0x209C JUMP JUMPDEST PUSH2 0xF08 DUP3 CALLER DUP9 PUSH2 0x233C JUMP JUMPDEST JUMPDEST CALLER PUSH20 0xFFFFFFFFFFFFFFFFFFFFFFFFFFFFFFFFFFFFFFFF AND DUP9 PUSH20 0xFFFFFFFFFFFFFFFFFFFFFFFFFFFFFFFFFFFFFFFF AND DUP4 PUSH20 0xFFFFFFFFFFFFFFFFFFFFFFFFFFFFFFFFFFFFFFFF AND PUSH32 0xEC5A73FD1F178BE20C1BCA1B406CBF4B5C20D833B66E582FC122FB4BAA0FC2A4 DUP11 DUP11 PUSH1 0x40 MLOAD DUP1 DUP4 DUP2 MSTORE PUSH1 0x20 ADD DUP3 DUP2 MSTORE PUSH1 0x20 ADD SWAP3 POP POP POP PUSH1 0x40 MLOAD DUP1 SWAP2 SUB SWAP1 LOG4 PUSH1 0x1 SWAP4 POP POP POP POP SWAP6 SWAP5 POP POP POP POP POP JUMP JUMPDEST PUSH1 0x0 PUSH1 0x3 SLOAD SWAP1 POP SWAP1 JUMP JUMPDEST PUSH1 0x1 PUSH1 0x6 PUSH1 0x0 CALLER PUSH20 0xFFFFFFFFFFFFFFFFFFFFFFFFFFFFFFFFFFFFFFFF AND PUSH20 0xFFFFFFFFFFFFFFFFFFFFFFFFFFFFFFFFFFFFFFFF AND DUP2 MSTORE PUSH1 0x20 ADD SWAP1 DUP2 MSTORE PUSH1 0x20 ADD PUSH1 0x0 KECCAK256 PUSH1 0x0 PUSH2 0x100 EXP DUP2 SLOAD DUP2 PUSH1 0xFF MUL NOT AND SWAP1 DUP4 ISZERO ISZERO MUL OR SWAP1 SSTORE POP JUMP JUMPDEST PUSH1 0x0 DUP1 PUSH2 0x100F DUP6 DUP6 DUP6 PUSH2 0x2520 JUMP JUMPDEST SWAP1 POP DUP1 ISZERO PUSH2 0x1023 JUMPI PUSH2 0x1022 DUP6 DUP6 DUP6 PUSH2 0x233C JUMP JUMPDEST JUMPDEST DUP1 SWAP2 POP POP SWAP4 SWAP3 POP POP POP JUMP JUMPDEST PUSH1 0x12 DUP2 JUMP JUMPDEST PUSH1 0x0 PUSH2 0x10CE CALLER DUP5 PUSH2 0x10C9 DUP6 PUSH1 0x2 PUSH1 0x0 CALLER PUSH20 0xFFFFFFFFFFFFFFFFFFFFFFFFFFFFFFFFFFFFFFFF AND PUSH20 0xFFFFFFFFFFFFFFFFFFFFFFFFFFFFFFFFFFFFFFFF AND DUP2 MSTORE PUSH1 0x20 ADD SWAP1 DUP2 MSTORE PUSH1 0x20 ADD PUSH1 0x0 KECCAK256 PUSH1 0x0 DUP10 PUSH20 0xFFFFFFFFFFFFFFFFFFFFFFFFFFFFFFFFFFFFFFFF AND PUSH20 0xFFFFFFFFFFFFFFFFFFFFFFFFFFFFFFFFFFFFFFFF AND DUP2 MSTORE PUSH1 0x20 ADD SWAP1 DUP2 MSTORE PUSH1 0x20 ADD PUSH1 0x0 KECCAK256 SLOAD PUSH2 0x2014 SWAP1 SWAP2 SWAP1 PUSH4 0xFFFFFFFF AND JUMP JUMPDEST PUSH2 0x1CC1 JUMP JUMPDEST PUSH1 0x1 SWAP1 POP SWAP3 SWAP2 POP POP JUMP JUMPDEST PUSH1 0x0 PUSH2 0x10E2 PUSH2 0x18FB JUMP JUMPDEST PUSH2 0x1154 JUMPI PUSH1 0x40 MLOAD PUSH32 0x8C379A000000000000000000000000000000000000000000000000000000000 DUP2 MSTORE PUSH1 0x4 ADD DUP1 DUP1 PUSH1 0x20 ADD DUP3 DUP2 SUB DUP3 MSTORE PUSH1 0x20 DUP2 MSTORE PUSH1 0x20 ADD DUP1 PUSH32 0x4F776E61626C653A2063616C6C6572206973206E6F7420746865206F776E6572 DUP2 MSTORE POP PUSH1 0x20 ADD SWAP2 POP POP PUSH1 0x40 MLOAD DUP1 SWAP2 SUB SWAP1 REVERT JUMPDEST PUSH1 0x0 PUSH2 0x116B DUP4 PUSH1 0x4 SLOAD PUSH2 0x25D1 SWAP1 SWAP2 SWAP1 PUSH4 0xFFFFFFFF AND JUMP JUMPDEST LT ISZERO PUSH2 0x11DF JUMPI PUSH1 0x40 MLOAD PUSH32 0x8C379A000000000000000000000000000000000000000000000000000000000 DUP2 MSTORE PUSH1 0x4 ADD DUP1 DUP1 PUSH1 0x20 ADD DUP3 DUP2 SUB DUP3 MSTORE PUSH1 0x16 DUP2 MSTORE PUSH1 0x20 ADD DUP1 PUSH32 0x4E6F7420656E6F75676820746F6B656E73206C65667400000000000000000000 DUP2 MSTORE POP PUSH1 0x20 ADD SWAP2 POP POP PUSH1 0x40 MLOAD DUP1 SWAP2 SUB SWAP1 REVERT JUMPDEST PUSH2 0x11F4 DUP3 PUSH1 0x4 SLOAD PUSH2 0x25D1 SWAP1 SWAP2 SWAP1 PUSH4 0xFFFFFFFF AND JUMP JUMPDEST PUSH1 0x4 DUP2 SWAP1 SSTORE POP PUSH2 0x1204 DUP4 DUP4 PUSH2 0x265A JUMP JUMPDEST PUSH2 0x1210 PUSH1 0x0 DUP5 DUP5 PUSH2 0x233C JUMP JUMPDEST PUSH1 0x1 SWAP1 POP SWAP3 SWAP2 POP POP JUMP JUMPDEST PUSH1 0x5 PUSH1 0x0 SWAP1 SLOAD SWAP1 PUSH2 0x100 EXP SWAP1 DIV PUSH20 0xFFFFFFFFFFFFFFFFFFFFFFFFFFFFFFFFFFFFFFFF AND PUSH20 0xFFFFFFFFFFFFFFFFFFFFFFFFFFFFFFFFFFFFFFFF AND CALLER PUSH20 0xFFFFFFFFFFFFFFFFFFFFFFFFFFFFFFFFFFFFFFFF AND EQ PUSH2 0x12DD JUMPI PUSH1 0x40 MLOAD PUSH32 0x8C379A000000000000000000000000000000000000000000000000000000000 DUP2 MSTORE PUSH1 0x4 ADD DUP1 DUP1 PUSH1 0x20 ADD DUP3 DUP2 SUB DUP3 MSTORE PUSH1 0x20 DUP2 MSTORE PUSH1 0x20 ADD DUP1 PUSH32 0x4F6E6C79206275726E416464726573732063616E206275726E20746F6B656E73 DUP2 MSTORE POP PUSH1 0x20 ADD SWAP2 POP POP PUSH1 0x40 MLOAD DUP1 SWAP2 SUB SWAP1 REVERT JUMPDEST PUSH2 0x12E7 CALLER DUP3 PUSH2 0x2817 JUMP JUMPDEST POP JUMP JUMPDEST PUSH2 0x12F2 PUSH2 0x18FB JUMP JUMPDEST PUSH2 0x1364 JUMPI PUSH1 0x40 MLOAD PUSH32 0x8C379A000000000000000000000000000000000000000000000000000000000 DUP2 MSTORE PUSH1 0x4 ADD DUP1 DUP1 PUSH1 0x20 ADD DUP3 DUP2 SUB DUP3 MSTORE PUSH1 0x20 DUP2 MSTORE PUSH1 0x20 ADD DUP1 PUSH32 0x4F776E61626C653A2063616C6C6572206973206E6F7420746865206F776E6572 DUP2 MSTORE POP PUSH1 0x20 ADD SWAP2 POP POP PUSH1 0x40 MLOAD DUP1 SWAP2 SUB SWAP1 REVERT JUMPDEST PUSH1 0x0 PUSH2 0x136F DUP3 PUSH2 0x15FC JUMP JUMPDEST EQ PUSH2 0x13C5 JUMPI PUSH1 0x40 MLOAD PUSH32 0x8C379A000000000000000000000000000000000000000000000000000000000 DUP2 MSTORE PUSH1 0x4 ADD DUP1 DUP1 PUSH1 0x20 ADD DUP3 DUP2 SUB DUP3 MSTORE PUSH1 0x24 DUP2 MSTORE PUSH1 0x20 ADD DUP1 PUSH2 0x2F16 PUSH1 0x24 SWAP2 CODECOPY PUSH1 0x40 ADD SWAP2 POP POP PUSH1 0x40 MLOAD DUP1 SWAP2 SUB SWAP1 REVERT JUMPDEST DUP1 PUSH1 0x5 PUSH1 0x0 PUSH2 0x100 EXP DUP2 SLOAD DUP2 PUSH20 0xFFFFFFFFFFFFFFFFFFFFFFFFFFFFFFFFFFFFFFFF MUL NOT AND SWAP1 DUP4 PUSH20 0xFFFFFFFFFFFFFFFFFFFFFFFFFFFFFFFFFFFFFFFF AND MUL OR SWAP1 SSTORE POP POP JUMP JUMPDEST PUSH1 0x8 PUSH1 0x0 SWAP1 SLOAD SWAP1 PUSH2 0x100 EXP SWAP1 DIV PUSH1 0xFF AND DUP2 JUMP JUMPDEST PUSH2 0x1424 PUSH2 0x18FB JUMP JUMPDEST PUSH2 0x1496 JUMPI PUSH1 0x40 MLOAD PUSH32 0x8C379A000000000000000000000000000000000000000000000000000000000 DUP2 MSTORE PUSH1 0x4 ADD DUP1 DUP1 PUSH1 0x20 ADD DUP3 DUP2 SUB DUP3 MSTORE PUSH1 0x20 DUP2 MSTORE PUSH1 0x20 ADD DUP1 PUSH32 0x4F776E61626C653A2063616C6C6572206973206E6F7420746865206F776E6572 DUP2 MSTORE POP PUSH1 0x20 ADD SWAP2 POP POP PUSH1 0x40 MLOAD DUP1 SWAP2 SUB SWAP1 REVERT JUMPDEST PUSH1 0x0 DUP4 PUSH20 0xFFFFFFFFFFFFFFFFFFFFFFFFFFFFFFFFFFFFFFFF AND PUSH4 0x70A08231 ADDRESS PUSH1 0x40 MLOAD DUP3 PUSH4 0xFFFFFFFF AND PUSH1 0xE0 SHL DUP2 MSTORE PUSH1 0x4 ADD DUP1 DUP3 PUSH20 0xFFFFFFFFFFFFFFFFFFFFFFFFFFFFFFFFFFFFFFFF AND PUSH20 0xFFFFFFFFFFFFFFFFFFFFFFFFFFFFFFFFFFFFFFFF AND DUP2 MSTORE PUSH1 0x20 ADD SWAP2 POP POP PUSH1 0x20 PUSH1 0x40 MLOAD DUP1 DUP4 SUB DUP2 DUP7 DUP1 EXTCODESIZE ISZERO DUP1 ISZERO PUSH2 0x1515 JUMPI PUSH1 0x0 DUP1 REVERT JUMPDEST POP GAS STATICCALL ISZERO DUP1 ISZERO PUSH2 0x1529 JUMPI RETURNDATASIZE PUSH1 0x0 DUP1 RETURNDATACOPY RETURNDATASIZE PUSH1 0x0 REVERT JUMPDEST POP POP POP POP PUSH1 0x40 MLOAD RETURNDATASIZE PUSH1 0x20 DUP2 LT ISZERO PUSH2 0x153F JUMPI PUSH1 0x0 DUP1 REVERT JUMPDEST DUP2 ADD SWAP1 DUP1 DUP1 MLOAD SWAP1 PUSH1 0x20 ADD SWAP1 SWAP3 SWAP2 SWAP1 POP POP POP SWAP1 POP DUP2 DUP2 LT ISZERO PUSH2 0x15AB JUMPI PUSH1 0x40 MLOAD PUSH32 0x8C379A000000000000000000000000000000000000000000000000000000000 DUP2 MSTORE PUSH1 0x4 ADD DUP1 DUP1 PUSH1 0x20 ADD DUP3 DUP2 SUB DUP3 MSTORE PUSH1 0x2B DUP2 MSTORE PUSH1 0x20 ADD DUP1 PUSH2 0x301F PUSH1 0x2B SWAP2 CODECOPY PUSH1 0x40 ADD SWAP2 POP POP PUSH1 0x40 MLOAD DUP1 SWAP2 SUB SWAP1 REVERT JUMPDEST PUSH2 0x15D6 DUP4 DUP4 DUP7 PUSH20 0xFFFFFFFFFFFFFFFFFFFFFFFFFFFFFFFFFFFFFFFF AND PUSH2 0x2880 SWAP1 SWAP3 SWAP2 SWAP1 PUSH4 0xFFFFFFFF AND JUMP JUMPDEST POP POP POP POP JUMP JUMPDEST PUSH1 0x6 PUSH1 0x20 MSTORE DUP1 PUSH1 0x0 MSTORE PUSH1 0x40 PUSH1 0x0 KECCAK256 PUSH1 0x0 SWAP2 POP SLOAD SWAP1 PUSH2 0x100 EXP SWAP1 DIV PUSH1 0xFF AND DUP2 JUMP JUMPDEST PUSH1 0x0 PUSH1 0x1 PUSH1 0x0 DUP4 PUSH20 0xFFFFFFFFFFFFFFFFFFFFFFFFFFFFFFFFFFFFFFFF AND PUSH20 0xFFFFFFFFFFFFFFFFFFFFFFFFFFFFFFFFFFFFFFFF AND DUP2 MSTORE PUSH1 0x20 ADD SWAP1 DUP2 MSTORE PUSH1 0x20 ADD PUSH1 0x0 KECCAK256 SLOAD SWAP1 POP SWAP2 SWAP1 POP JUMP JUMPDEST PUSH1 0x5 PUSH1 0x0 SWAP1 SLOAD SWAP1 PUSH2 0x100 EXP SWAP1 DIV PUSH20 0xFFFFFFFFFFFFFFFFFFFFFFFFFFFFFFFFFFFFFFFF AND DUP2 JUMP JUMPDEST PUSH2 0x1673 PUSH2 0x18FB JUMP JUMPDEST PUSH2 0x16E5 JUMPI PUSH1 0x40 MLOAD PUSH32 0x8C379A000000000000000000000000000000000000000000000000000000000 DUP2 MSTORE PUSH1 0x4 ADD DUP1 DUP1 PUSH1 0x20 ADD DUP3 DUP2 SUB DUP3 MSTORE PUSH1 0x20 DUP2 MSTORE PUSH1 0x20 ADD DUP1 PUSH32 0x4F776E61626C653A2063616C6C6572206973206E6F7420746865206F776E6572 DUP2 MSTORE POP PUSH1 0x20 ADD SWAP2 POP POP PUSH1 0x40 MLOAD DUP1 SWAP2 SUB SWAP1 REVERT JUMPDEST PUSH1 0x0 PUSH20 0xFFFFFFFFFFFFFFFFFFFFFFFFFFFFFFFFFFFFFFFF AND PUSH1 0x0 DUP1 SWAP1 SLOAD SWAP1 PUSH2 0x100 EXP SWAP1 DIV PUSH20 0xFFFFFFFFFFFFFFFFFFFFFFFFFFFFFFFFFFFFFFFF AND PUSH20 0xFFFFFFFFFFFFFFFFFFFFFFFFFFFFFFFFFFFFFFFF AND PUSH32 0x8BE0079C531659141344CD1FD0A4F28419497F9722A3DAAFE3B4186F6B6457E0 PUSH1 0x40 MLOAD PUSH1 0x40 MLOAD DUP1 SWAP2 SUB SWAP1 LOG3 PUSH1 0x0 DUP1 PUSH1 0x0 PUSH2 0x100 EXP DUP2 SLOAD DUP2 PUSH20 0xFFFFFFFFFFFFFFFFFFFFFFFFFFFFFFFFFFFFFFFF MUL NOT AND SWAP1 DUP4 PUSH20 0xFFFFFFFFFFFFFFFFFFFFFFFFFFFFFFFFFFFFFFFF AND MUL OR SWAP1 SSTORE POP JUMP JUMPDEST PUSH2 0x17AC PUSH2 0x18FB JUMP JUMPDEST PUSH2 0x181E JUMPI PUSH1 0x40 MLOAD PUSH32 0x8C379A000000000000000000000000000000000000000000000000000000000 DUP2 MSTORE PUSH1 0x4 ADD DUP1 DUP1 PUSH1 0x20 ADD DUP3 DUP2 SUB DUP3 MSTORE PUSH1 0x20 DUP2 MSTORE PUSH1 0x20 ADD DUP1 PUSH32 0x4F776E61626C653A2063616C6C6572206973206E6F7420746865206F776E6572 DUP2 MSTORE POP PUSH1 0x20 ADD SWAP2 POP POP PUSH1 0x40 MLOAD DUP1 SWAP2 SUB SWAP1 REVERT JUMPDEST PUSH1 0x1 PUSH1 0x8 PUSH1 0x0 PUSH2 0x100 EXP DUP2 SLOAD DUP2 PUSH1 0xFF MUL NOT AND SWAP1 DUP4 ISZERO ISZERO MUL OR SWAP1 SSTORE POP JUMP JUMPDEST PUSH2 0x1843 PUSH2 0x18FB JUMP JUMPDEST PUSH2 0x18B5 JUMPI PUSH1 0x40 MLOAD PUSH32 0x8C379A000000000000000000000000000000000000000000000000000000000 DUP2 MSTORE PUSH1 0x4 ADD DUP1 DUP1 PUSH1 0x20 ADD DUP3 DUP2 SUB DUP3 MSTORE PUSH1 0x20 DUP2 MSTORE PUSH1 0x20 ADD DUP1 PUSH32 0x4F776E61626C653A2063616C6C6572206973206E6F7420746865206F776E6572 DUP2 MSTORE POP PUSH1 0x20 ADD SWAP2 POP POP PUSH1 0x40 MLOAD DUP1 SWAP2 SUB SWAP1 REVERT JUMPDEST PUSH1 0x0 PUSH1 0x8 PUSH1 0x0 PUSH2 0x100 EXP DUP2 SLOAD DUP2 PUSH1 0xFF MUL NOT AND SWAP1 DUP4 ISZERO ISZERO MUL OR SWAP1 SSTORE POP JUMP JUMPDEST PUSH1 0x0 DUP1 PUSH1 0x0 SWAP1 SLOAD SWAP1 PUSH2 0x100 EXP SWAP1 DIV PUSH20 0xFFFFFFFFFFFFFFFFFFFFFFFFFFFFFFFFFFFFFFFF AND SWAP1 POP SWAP1 JUMP JUMPDEST PUSH1 0x0 DUP1 PUSH1 0x0 SWAP1 SLOAD SWAP1 PUSH2 0x100 EXP SWAP1 DIV PUSH20 0xFFFFFFFFFFFFFFFFFFFFFFFFFFFFFFFFFFFFFFFF AND PUSH20 0xFFFFFFFFFFFFFFFFFFFFFFFFFFFFFFFFFFFFFFFF AND CALLER PUSH20 0xFFFFFFFFFFFFFFFFFFFFFFFFFFFFFFFFFFFFFFFF AND EQ SWAP1 POP SWAP1 JUMP JUMPDEST PUSH1 0x40 MLOAD DUP1 PUSH1 0x40 ADD PUSH1 0x40 MSTORE DUP1 PUSH1 0x4 DUP2 MSTORE PUSH1 0x20 ADD PUSH32 0x4E4F494100000000000000000000000000000000000000000000000000000000 DUP2 MSTORE POP DUP2 JUMP JUMPDEST PUSH1 0x0 PUSH2 0x1A26 CALLER DUP5 PUSH2 0x1A21 DUP6 PUSH1 0x2 PUSH1 0x0 CALLER PUSH20 0xFFFFFFFFFFFFFFFFFFFFFFFFFFFFFFFFFFFFFFFF AND PUSH20 0xFFFFFFFFFFFFFFFFFFFFFFFFFFFFFFFFFFFFFFFF AND DUP2 MSTORE PUSH1 0x20 ADD SWAP1 DUP2 MSTORE PUSH1 0x20 ADD PUSH1 0x0 KECCAK256 PUSH1 0x0 DUP10 PUSH20 0xFFFFFFFFFFFFFFFFFFFFFFFFFFFFFFFFFFFFFFFF AND PUSH20 0xFFFFFFFFFFFFFFFFFFFFFFFFFFFFFFFFFFFFFFFF AND DUP2 MSTORE PUSH1 0x20 ADD SWAP1 DUP2 MSTORE PUSH1 0x20 ADD PUSH1 0x0 KECCAK256 SLOAD PUSH2 0x25D1 SWAP1 SWAP2 SWAP1 PUSH4 0xFFFFFFFF AND JUMP JUMPDEST PUSH2 0x1CC1 JUMP JUMPDEST PUSH1 0x1 SWAP1 POP SWAP3 SWAP2 POP POP JUMP JUMPDEST PUSH1 0x0 DUP1 PUSH2 0x1A3D DUP5 DUP5 PUSH2 0x2951 JUMP JUMPDEST SWAP1 POP DUP1 ISZERO PUSH2 0x1A51 JUMPI PUSH2 0x1A50 CALLER DUP6 DUP6 PUSH2 0x233C JUMP JUMPDEST JUMPDEST DUP1 SWAP2 POP POP SWAP3 SWAP2 POP POP JUMP JUMPDEST PUSH1 0x4 SLOAD DUP2 JUMP JUMPDEST PUSH1 0x0 DUP7 DUP7 DUP7 DUP7 DUP7 DUP7 PUSH1 0x40 MLOAD PUSH1 0x20 ADD DUP1 DUP8 PUSH28 0xFFFFFFFFFFFFFFFFFFFFFFFFFFFFFFFFFFFFFFFFFFFFFFFFFFFFFFFF NOT AND PUSH28 0xFFFFFFFFFFFFFFFFFFFFFFFFFFFFFFFFFFFFFFFFFFFFFFFFFFFFFFFF NOT AND DUP2 MSTORE PUSH1 0x4 ADD DUP7 PUSH20 0xFFFFFFFFFFFFFFFFFFFFFFFFFFFFFFFFFFFFFFFF AND PUSH20 0xFFFFFFFFFFFFFFFFFFFFFFFFFFFFFFFFFFFFFFFF AND PUSH1 0x60 SHL DUP2 MSTORE PUSH1 0x14 ADD DUP6 PUSH20 0xFFFFFFFFFFFFFFFFFFFFFFFFFFFFFFFFFFFFFFFF AND PUSH20 0xFFFFFFFFFFFFFFFFFFFFFFFFFFFFFFFFFFFFFFFF AND PUSH1 0x60 SHL DUP2 MSTORE PUSH1 0x14 ADD DUP5 DUP2 MSTORE PUSH1 0x20 ADD DUP4 DUP2 MSTORE PUSH1 0x20 ADD DUP3 DUP2 MSTORE PUSH1 0x20 ADD SWAP7 POP POP POP POP POP POP POP PUSH1 0x40 MLOAD PUSH1 0x20 DUP2 DUP4 SUB SUB DUP2 MSTORE SWAP1 PUSH1 0x40 MSTORE DUP1 MLOAD SWAP1 PUSH1 0x20 ADD KECCAK256 SWAP1 POP SWAP7 SWAP6 POP POP POP POP POP POP JUMP JUMPDEST PUSH1 0x0 PUSH1 0x2 PUSH1 0x0 DUP5 PUSH20 0xFFFFFFFFFFFFFFFFFFFFFFFFFFFFFFFFFFFFFFFF AND PUSH20 0xFFFFFFFFFFFFFFFFFFFFFFFFFFFFFFFFFFFFFFFF AND DUP2 MSTORE PUSH1 0x20 ADD SWAP1 DUP2 MSTORE PUSH1 0x20 ADD PUSH1 0x0 KECCAK256 PUSH1 0x0 DUP4 PUSH20 0xFFFFFFFFFFFFFFFFFFFFFFFFFFFFFFFFFFFFFFFF AND PUSH20 0xFFFFFFFFFFFFFFFFFFFFFFFFFFFFFFFFFFFFFFFF AND DUP2 MSTORE PUSH1 0x20 ADD SWAP1 DUP2 MSTORE PUSH1 0x20 ADD PUSH1 0x0 KECCAK256 SLOAD SWAP1 POP SWAP3 SWAP2 POP POP JUMP JUMPDEST PUSH1 0x0 PUSH1 0x6 PUSH1 0x0 CALLER PUSH20 0xFFFFFFFFFFFFFFFFFFFFFFFFFFFFFFFFFFFFFFFF AND PUSH20 0xFFFFFFFFFFFFFFFFFFFFFFFFFFFFFFFFFFFFFFFF AND DUP2 MSTORE PUSH1 0x20 ADD SWAP1 DUP2 MSTORE PUSH1 0x20 ADD PUSH1 0x0 KECCAK256 PUSH1 0x0 PUSH2 0x100 EXP DUP2 SLOAD DUP2 PUSH1 0xFF MUL NOT AND SWAP1 DUP4 ISZERO ISZERO MUL OR SWAP1 SSTORE POP JUMP JUMPDEST PUSH2 0x1C43 PUSH2 0x18FB JUMP JUMPDEST PUSH2 0x1CB5 JUMPI PUSH1 0x40 MLOAD PUSH32 0x8C379A000000000000000000000000000000000000000000000000000000000 DUP2 MSTORE PUSH1 0x4 ADD DUP1 DUP1 PUSH1 0x20 ADD DUP3 DUP2 SUB DUP3 MSTORE PUSH1 0x20 DUP2 MSTORE PUSH1 0x20 ADD DUP1 PUSH32 0x4F776E61626C653A2063616C6C6572206973206E6F7420746865206F776E6572 DUP2 MSTORE POP PUSH1 0x20 ADD SWAP2 POP POP PUSH1 0x40 MLOAD DUP1 SWAP2 SUB SWAP1 REVERT JUMPDEST PUSH2 0x1CBE DUP2 PUSH2 0x2968 JUMP JUMPDEST POP JUMP JUMPDEST PUSH1 0x0 PUSH20 0xFFFFFFFFFFFFFFFFFFFFFFFFFFFFFFFFFFFFFFFF AND DUP4 PUSH20 0xFFFFFFFFFFFFFFFFFFFFFFFFFFFFFFFFFFFFFFFF AND EQ ISZERO PUSH2 0x1D47 JUMPI PUSH1 0x40 MLOAD PUSH32 0x8C379A000000000000000000000000000000000000000000000000000000000 DUP2 MSTORE PUSH1 0x4 ADD DUP1 DUP1 PUSH1 0x20 ADD DUP3 DUP2 SUB DUP3 MSTORE PUSH1 0x24 DUP2 MSTORE PUSH1 0x20 ADD DUP1 PUSH2 0x2FD1 PUSH1 0x24 SWAP2 CODECOPY PUSH1 0x40 ADD SWAP2 POP POP PUSH1 0x40 MLOAD DUP1 SWAP2 SUB SWAP1 REVERT JUMPDEST PUSH1 0x0 PUSH20 0xFFFFFFFFFFFFFFFFFFFFFFFFFFFFFFFFFFFFFFFF AND DUP3 PUSH20 0xFFFFFFFFFFFFFFFFFFFFFFFFFFFFFFFFFFFFFFFF AND EQ ISZERO PUSH2 0x1DCD JUMPI PUSH1 0x40 MLOAD PUSH32 0x8C379A000000000000000000000000000000000000000000000000000000000 DUP2 MSTORE PUSH1 0x4 ADD DUP1 DUP1 PUSH1 0x20 ADD DUP3 DUP2 SUB DUP3 MSTORE PUSH1 0x22 DUP2 MSTORE PUSH1 0x20 ADD DUP1 PUSH2 0x2EF4 PUSH1 0x22 SWAP2 CODECOPY PUSH1 0x40 ADD SWAP2 POP POP PUSH1 0x40 MLOAD DUP1 SWAP2 SUB SWAP1 REVERT JUMPDEST DUP1 PUSH1 0x2 PUSH1 0x0 DUP6 PUSH20 0xFFFFFFFFFFFFFFFFFFFFFFFFFFFFFFFFFFFFFFFF AND PUSH20 0xFFFFFFFFFFFFFFFFFFFFFFFFFFFFFFFFFFFFFFFF AND DUP2 MSTORE PUSH1 0x20 ADD SWAP1 DUP2 MSTORE PUSH1 0x20 ADD PUSH1 0x0 KECCAK256 PUSH1 0x0 DUP5 PUSH20 0xFFFFFFFFFFFFFFFFFFFFFFFFFFFFFFFFFFFFFFFF AND PUSH20 0xFFFFFFFFFFFFFFFFFFFFFFFFFFFFFFFFFFFFFFFF AND DUP2 MSTORE PUSH1 0x20 ADD SWAP1 DUP2 MSTORE PUSH1 0x20 ADD PUSH1 0x0 KECCAK256 DUP2 SWAP1 SSTORE POP DUP2 PUSH20 0xFFFFFFFFFFFFFFFFFFFFFFFFFFFFFFFFFFFFFFFF AND DUP4 PUSH20 0xFFFFFFFFFFFFFFFFFFFFFFFFFFFFFFFFFFFFFFFF AND PUSH32 0x8C5BE1E5EBEC7D5BD14F71427D1E84F3DD0314C0F7B2291E5B200AC8C7C3B925 DUP4 PUSH1 0x40 MLOAD DUP1 DUP3 DUP2 MSTORE PUSH1 0x20 ADD SWAP2 POP POP PUSH1 0x40 MLOAD DUP1 SWAP2 SUB SWAP1 LOG3 POP POP POP JUMP JUMPDEST PUSH1 0x0 DUP2 PUSH1 0x40 MLOAD PUSH1 0x20 ADD DUP1 DUP1 PUSH32 0x19457468657265756D205369676E6564204D6573736167653A0A333200000000 DUP2 MSTORE POP PUSH1 0x1C ADD DUP3 DUP2 MSTORE PUSH1 0x20 ADD SWAP2 POP POP PUSH1 0x40 MLOAD PUSH1 0x20 DUP2 DUP4 SUB SUB DUP2 MSTORE SWAP1 PUSH1 0x40 MSTORE DUP1 MLOAD SWAP1 PUSH1 0x20 ADD KECCAK256 SWAP1 POP SWAP2 SWAP1 POP JUMP JUMPDEST PUSH1 0x0 PUSH1 0x41 DUP3 MLOAD EQ PUSH2 0x1F24 JUMPI PUSH1 0x0 SWAP1 POP PUSH2 0x200E JUMP JUMPDEST PUSH1 0x0 DUP1 PUSH1 0x0 PUSH1 0x20 DUP6 ADD MLOAD SWAP3 POP PUSH1 0x40 DUP6 ADD MLOAD SWAP2 POP PUSH1 0x60 DUP6 ADD MLOAD PUSH1 0x0 BYTE SWAP1 POP PUSH32 0x7FFFFFFFFFFFFFFFFFFFFFFFFFFFFFFF5D576E7357A4501DDFE92F46681B20A0 DUP3 PUSH1 0x0 SHR GT ISZERO PUSH2 0x1F78 JUMPI PUSH1 0x0 SWAP4 POP POP POP POP PUSH2 0x200E JUMP JUMPDEST PUSH1 0x1B DUP2 PUSH1 0xFF AND EQ ISZERO DUP1 ISZERO PUSH2 0x1F90 JUMPI POP PUSH1 0x1C DUP2 PUSH1 0xFF AND EQ ISZERO JUMPDEST ISZERO PUSH2 0x1FA1 JUMPI PUSH1 0x0 SWAP4 POP POP POP POP PUSH2 0x200E JUMP JUMPDEST PUSH1 0x1 DUP7 DUP3 DUP6 DUP6 PUSH1 0x40 MLOAD PUSH1 0x0 DUP2 MSTORE PUSH1 0x20 ADD PUSH1 0x40 MSTORE PUSH1 0x40 MLOAD DUP1 DUP6 DUP2 MSTORE PUSH1 0x20 ADD DUP5 PUSH1 0xFF AND PUSH1 0xFF AND DUP2 MSTORE PUSH1 0x20 ADD DUP4 DUP2 MSTORE PUSH1 0x20 ADD DUP3 DUP2 MSTORE PUSH1 0x20 ADD SWAP5 POP POP POP POP POP PUSH1 0x20 PUSH1 0x40 MLOAD PUSH1 0x20 DUP2 SUB SWAP1 DUP1 DUP5 SUB SWAP1 DUP6 GAS STATICCALL ISZERO DUP1 ISZERO PUSH2 0x1FFE JUMPI RETURNDATASIZE PUSH1 0x0 DUP1 RETURNDATACOPY RETURNDATASIZE PUSH1 0x0 REVERT JUMPDEST POP POP POP PUSH1 0x20 PUSH1 0x40 MLOAD SUB MLOAD SWAP4 POP POP POP POP JUMPDEST SWAP3 SWAP2 POP POP JUMP JUMPDEST PUSH1 0x0 DUP1 DUP3 DUP5 ADD SWAP1 POP DUP4 DUP2 LT ISZERO PUSH2 0x2092 JUMPI PUSH1 0x40 MLOAD PUSH32 0x8C379A000000000000000000000000000000000000000000000000000000000 DUP2 MSTORE PUSH1 0x4 ADD DUP1 DUP1 PUSH1 0x20 ADD DUP3 DUP2 SUB DUP3 MSTORE PUSH1 0x1B DUP2 MSTORE PUSH1 0x20 ADD DUP1 PUSH32 0x536166654D6174683A206164646974696F6E206F766572666C6F770000000000 DUP2 MSTORE POP PUSH1 0x20 ADD SWAP2 POP POP PUSH1 0x40 MLOAD DUP1 SWAP2 SUB SWAP1 REVERT JUMPDEST DUP1 SWAP2 POP POP SWAP3 SWAP2 POP POP JUMP JUMPDEST PUSH1 0x0 PUSH20 0xFFFFFFFFFFFFFFFFFFFFFFFFFFFFFFFFFFFFFFFF AND DUP4 PUSH20 0xFFFFFFFFFFFFFFFFFFFFFFFFFFFFFFFFFFFFFFFF AND EQ ISZERO PUSH2 0x2122 JUMPI PUSH1 0x40 MLOAD PUSH32 0x8C379A000000000000000000000000000000000000000000000000000000000 DUP2 MSTORE PUSH1 0x4 ADD DUP1 DUP1 PUSH1 0x20 ADD DUP3 DUP2 SUB DUP3 MSTORE PUSH1 0x25 DUP2 MSTORE PUSH1 0x20 ADD DUP1 PUSH2 0x2F84 PUSH1 0x25 SWAP2 CODECOPY PUSH1 0x40 ADD SWAP2 POP POP PUSH1 0x40 MLOAD DUP1 SWAP2 SUB SWAP1 REVERT JUMPDEST PUSH1 0x0 PUSH20 0xFFFFFFFFFFFFFFFFFFFFFFFFFFFFFFFFFFFFFFFF AND DUP3 PUSH20 0xFFFFFFFFFFFFFFFFFFFFFFFFFFFFFFFFFFFFFFFF AND EQ ISZERO PUSH2 0x21A8 JUMPI PUSH1 0x40 MLOAD PUSH32 0x8C379A000000000000000000000000000000000000000000000000000000000 DUP2 MSTORE PUSH1 0x4 ADD DUP1 DUP1 PUSH1 0x20 ADD DUP3 DUP2 SUB DUP3 MSTORE PUSH1 0x23 DUP2 MSTORE PUSH1 0x20 ADD DUP1 PUSH2 0x2EAB PUSH1 0x23 SWAP2 CODECOPY PUSH1 0x40 ADD SWAP2 POP POP PUSH1 0x40 MLOAD DUP1 SWAP2 SUB SWAP1 REVERT JUMPDEST PUSH2 0x21FA DUP2 PUSH1 0x1 PUSH1 0x0 DUP7 PUSH20 0xFFFFFFFFFFFFFFFFFFFFFFFFFFFFFFFFFFFFFFFF AND PUSH20 0xFFFFFFFFFFFFFFFFFFFFFFFFFFFFFFFFFFFFFFFF AND DUP2 MSTORE PUSH1 0x20 ADD SWAP1 DUP2 MSTORE PUSH1 0x20 ADD PUSH1 0x0 KECCAK256 SLOAD PUSH2 0x25D1 SWAP1 SWAP2 SWAP1 PUSH4 0xFFFFFFFF AND JUMP JUMPDEST PUSH1 0x1 PUSH1 0x0 DUP6 PUSH20 0xFFFFFFFFFFFFFFFFFFFFFFFFFFFFFFFFFFFFFFFF AND PUSH20 0xFFFFFFFFFFFFFFFFFFFFFFFFFFFFFFFFFFFFFFFF AND DUP2 MSTORE PUSH1 0x20 ADD SWAP1 DUP2 MSTORE PUSH1 0x20 ADD PUSH1 0x0 KECCAK256 DUP2 SWAP1 SSTORE POP PUSH2 0x228F DUP2 PUSH1 0x1 PUSH1 0x0 DUP6 PUSH20 0xFFFFFFFFFFFFFFFFFFFFFFFFFFFFFFFFFFFFFFFF AND PUSH20 0xFFFFFFFFFFFFFFFFFFFFFFFFFFFFFFFFFFFFFFFF AND DUP2 MSTORE PUSH1 0x20 ADD SWAP1 DUP2 MSTORE PUSH1 0x20 ADD PUSH1 0x0 KECCAK256 SLOAD PUSH2 0x2014 SWAP1 SWAP2 SWAP1 PUSH4 0xFFFFFFFF AND JUMP JUMPDEST PUSH1 0x1 PUSH1 0x0 DUP5 PUSH20 0xFFFFFFFFFFFFFFFFFFFFFFFFFFFFFFFFFFFFFFFF AND PUSH20 0xFFFFFFFFFFFFFFFFFFFFFFFFFFFFFFFFFFFFFFFF AND DUP2 MSTORE PUSH1 0x20 ADD SWAP1 DUP2 MSTORE PUSH1 0x20 ADD PUSH1 0x0 KECCAK256 DUP2 SWAP1 SSTORE POP DUP2 PUSH20 0xFFFFFFFFFFFFFFFFFFFFFFFFFFFFFFFFFFFFFFFF AND DUP4 PUSH20 0xFFFFFFFFFFFFFFFFFFFFFFFFFFFFFFFFFFFFFFFF AND PUSH32 0xDDF252AD1BE2C89B69C2B068FC378DAA952BA7F163C4A11628F55A4DF523B3EF DUP4 PUSH1 0x40 MLOAD DUP1 DUP3 DUP2 MSTORE PUSH1 0x20 ADD SWAP2 POP POP PUSH1 0x40 MLOAD DUP1 SWAP2 SUB SWAP1 LOG3 POP POP POP JUMP JUMPDEST PUSH2 0x235B DUP3 PUSH20 0xFFFFFFFFFFFFFFFFFFFFFFFFFFFFFFFFFFFFFFFF AND PUSH2 0x2AAC JUMP JUMPDEST ISZERO PUSH2 0x2496 JUMPI PUSH1 0x0 ISZERO ISZERO PUSH1 0x6 PUSH1 0x0 DUP5 PUSH20 0xFFFFFFFFFFFFFFFFFFFFFFFFFFFFFFFFFFFFFFFF AND PUSH20 0xFFFFFFFFFFFFFFFFFFFFFFFFFFFFFFFFFFFFFFFF AND DUP2 MSTORE PUSH1 0x20 ADD SWAP1 DUP2 MSTORE PUSH1 0x20 ADD PUSH1 0x0 KECCAK256 PUSH1 0x0 SWAP1 SLOAD SWAP1 PUSH2 0x100 EXP SWAP1 DIV PUSH1 0xFF AND ISZERO ISZERO EQ ISZERO PUSH2 0x23BE JUMPI PUSH2 0x251B JUMP JUMPDEST DUP2 PUSH20 0xFFFFFFFFFFFFFFFFFFFFFFFFFFFFFFFFFFFFFFFF AND PUSH4 0x29E9A3B9 DUP5 DUP5 DUP5 PUSH1 0x40 MLOAD DUP5 PUSH4 0xFFFFFFFF AND PUSH1 0xE0 SHL DUP2 MSTORE PUSH1 0x4 ADD DUP1 DUP5 PUSH20 0xFFFFFFFFFFFFFFFFFFFFFFFFFFFFFFFFFFFFFFFF AND PUSH20 0xFFFFFFFFFFFFFFFFFFFFFFFFFFFFFFFFFFFFFFFF AND DUP2 MSTORE PUSH1 0x20 ADD DUP4 PUSH20 0xFFFFFFFFFFFFFFFFFFFFFFFFFFFFFFFFFFFFFFFF AND PUSH20 0xFFFFFFFFFFFFFFFFFFFFFFFFFFFFFFFFFFFFFFFF AND DUP2 MSTORE PUSH1 0x20 ADD DUP3 DUP2 MSTORE PUSH1 0x20 ADD SWAP4 POP POP POP POP PUSH1 0x0 PUSH1 0x40 MLOAD DUP1 DUP4 SUB DUP2 PUSH1 0x0 DUP8 DUP1 EXTCODESIZE ISZERO DUP1 ISZERO PUSH2 0x2479 JUMPI PUSH1 0x0 DUP1 REVERT JUMPDEST POP GAS CALL ISZERO DUP1 ISZERO PUSH2 0x248D JUMPI RETURNDATASIZE PUSH1 0x0 DUP1 RETURNDATACOPY RETURNDATASIZE PUSH1 0x0 REVERT JUMPDEST POP POP POP POP PUSH2 0x251A JUMP JUMPDEST PUSH1 0x5 PUSH1 0x0 SWAP1 SLOAD SWAP1 PUSH2 0x100 EXP SWAP1 DIV PUSH20 0xFFFFFFFFFFFFFFFFFFFFFFFFFFFFFFFFFFFFFFFF AND PUSH20 0xFFFFFFFFFFFFFFFFFFFFFFFFFFFFFFFFFFFFFFFF AND DUP3 PUSH20 0xFFFFFFFFFFFFFFFFFFFFFFFFFFFFFFFFFFFFFFFF AND EQ ISZERO PUSH2 0x2519 JUMPI PUSH2 0x2518 PUSH1 0x5 PUSH1 0x0 SWAP1 SLOAD SWAP1 PUSH2 0x100 EXP SWAP1 DIV PUSH20 0xFFFFFFFFFFFFFFFFFFFFFFFFFFFFFFFFFFFFFFFF AND DUP3 PUSH2 0x2817 JUMP JUMPDEST JUMPDEST JUMPDEST JUMPDEST POP POP POP JUMP JUMPDEST PUSH1 0x0 PUSH2 0x252D DUP5 DUP5 DUP5 PUSH2 0x209C JUMP JUMPDEST PUSH2 0x25C6 DUP5 CALLER PUSH2 0x25C1 DUP6 PUSH1 0x2 PUSH1 0x0 DUP11 PUSH20 0xFFFFFFFFFFFFFFFFFFFFFFFFFFFFFFFFFFFFFFFF AND PUSH20 0xFFFFFFFFFFFFFFFFFFFFFFFFFFFFFFFFFFFFFFFF AND DUP2 MSTORE PUSH1 0x20 ADD SWAP1 DUP2 MSTORE PUSH1 0x20 ADD PUSH1 0x0 KECCAK256 PUSH1 0x0 CALLER PUSH20 0xFFFFFFFFFFFFFFFFFFFFFFFFFFFFFFFFFFFFFFFF AND PUSH20 0xFFFFFFFFFFFFFFFFFFFFFFFFFFFFFFFFFFFFFFFF AND DUP2 MSTORE PUSH1 0x20 ADD SWAP1 DUP2 MSTORE PUSH1 0x20 ADD PUSH1 0x0 KECCAK256 SLOAD PUSH2 0x25D1 SWAP1 SWAP2 SWAP1 PUSH4 0xFFFFFFFF AND JUMP JUMPDEST PUSH2 0x1CC1 JUMP JUMPDEST PUSH1 0x1 SWAP1 POP SWAP4 SWAP3 POP POP POP JUMP JUMPDEST PUSH1 0x0 DUP3 DUP3 GT ISZERO PUSH2 0x2649 JUMPI PUSH1 0x40 MLOAD PUSH32 0x8C379A000000000000000000000000000000000000000000000000000000000 DUP2 MSTORE PUSH1 0x4 ADD DUP1 DUP1 PUSH1 0x20 ADD DUP3 DUP2 SUB DUP3 MSTORE PUSH1 0x1E DUP2 MSTORE PUSH1 0x20 ADD DUP1 PUSH32 0x536166654D6174683A207375627472616374696F6E206F766572666C6F770000 DUP2 MSTORE POP PUSH1 0x20 ADD SWAP2 POP POP PUSH1 0x40 MLOAD DUP1 SWAP2 SUB SWAP1 REVERT JUMPDEST PUSH1 0x0 DUP3 DUP5 SUB SWAP1 POP DUP1 SWAP2 POP POP SWAP3 SWAP2 POP POP JUMP JUMPDEST PUSH1 0x0 PUSH20 0xFFFFFFFFFFFFFFFFFFFFFFFFFFFFFFFFFFFFFFFF AND DUP3 PUSH20 0xFFFFFFFFFFFFFFFFFFFFFFFFFFFFFFFFFFFFFFFF AND EQ ISZERO PUSH2 0x26FD JUMPI PUSH1 0x40 MLOAD PUSH32 0x8C379A000000000000000000000000000000000000000000000000000000000 DUP2 MSTORE PUSH1 0x4 ADD DUP1 DUP1 PUSH1 0x20 ADD DUP3 DUP2 SUB DUP3 MSTORE PUSH1 0x1F DUP2 MSTORE PUSH1 0x20 ADD DUP1 PUSH32 0x45524332303A206D696E7420746F20746865207A65726F206164647265737300 DUP2 MSTORE POP PUSH1 0x20 ADD SWAP2 POP POP PUSH1 0x40 MLOAD DUP1 SWAP2 SUB SWAP1 REVERT JUMPDEST PUSH2 0x2712 DUP2 PUSH1 0x3 SLOAD PUSH2 0x2014 SWAP1 SWAP2 SWAP1 PUSH4 0xFFFFFFFF AND JUMP JUMPDEST PUSH1 0x3 DUP2 SWAP1 SSTORE POP PUSH2 0x276A DUP2 PUSH1 0x1 PUSH1 0x0 DUP6 PUSH20 0xFFFFFFFFFFFFFFFFFFFFFFFFFFFFFFFFFFFFFFFF AND PUSH20 0xFFFFFFFFFFFFFFFFFFFFFFFFFFFFFFFFFFFFFFFF AND DUP2 MSTORE PUSH1 0x20 ADD SWAP1 DUP2 MSTORE PUSH1 0x20 ADD PUSH1 0x0 KECCAK256 SLOAD PUSH2 0x2014 SWAP1 SWAP2 SWAP1 PUSH4 0xFFFFFFFF AND JUMP JUMPDEST PUSH1 0x1 PUSH1 0x0 DUP5 PUSH20 0xFFFFFFFFFFFFFFFFFFFFFFFFFFFFFFFFFFFFFFFF AND PUSH20 0xFFFFFFFFFFFFFFFFFFFFFFFFFFFFFFFFFFFFFFFF AND DUP2 MSTORE PUSH1 0x20 ADD SWAP1 DUP2 MSTORE PUSH1 0x20 ADD PUSH1 0x0 KECCAK256 DUP2 SWAP1 SSTORE POP DUP2 PUSH20 0xFFFFFFFFFFFFFFFFFFFFFFFFFFFFFFFFFFFFFFFF AND PUSH1 0x0 PUSH20 0xFFFFFFFFFFFFFFFFFFFFFFFFFFFFFFFFFFFFFFFF AND PUSH32 0xDDF252AD1BE2C89B69C2B068FC378DAA952BA7F163C4A11628F55A4DF523B3EF DUP4 PUSH1 0x40 MLOAD DUP1 DUP3 DUP2 MSTORE PUSH1 0x20 ADD SWAP2 POP POP PUSH1 0x40 MLOAD DUP1 SWAP2 SUB SWAP1 LOG3 POP POP JUMP JUMPDEST PUSH1 0x0 PUSH1 0x4 SLOAD EQ PUSH2 0x2872 JUMPI PUSH1 0x40 MLOAD PUSH32 0x8C379A000000000000000000000000000000000000000000000000000000000 DUP2 MSTORE PUSH1 0x4 ADD DUP1 DUP1 PUSH1 0x20 ADD DUP3 DUP2 SUB DUP3 MSTORE PUSH1 0x28 DUP2 MSTORE PUSH1 0x20 ADD DUP1 PUSH2 0x2FA9 PUSH1 0x28 SWAP2 CODECOPY PUSH1 0x40 ADD SWAP2 POP POP PUSH1 0x40 MLOAD DUP1 SWAP2 SUB SWAP1 REVERT JUMPDEST PUSH2 0x287C DUP3 DUP3 PUSH2 0x2ABF JUMP JUMPDEST POP POP JUMP JUMPDEST PUSH2 0x294C DUP4 DUP5 PUSH20 0xFFFFFFFFFFFFFFFFFFFFFFFFFFFFFFFFFFFFFFFF AND PUSH4 0xA9059CBB SWAP1 POP PUSH1 0xE0 SHL DUP5 DUP5 PUSH1 0x40 MLOAD PUSH1 0x24 ADD DUP1 DUP4 PUSH20 0xFFFFFFFFFFFFFFFFFFFFFFFFFFFFFFFFFFFFFFFF AND PUSH20 0xFFFFFFFFFFFFFFFFFFFFFFFFFFFFFFFFFFFFFFFF AND DUP2 MSTORE PUSH1 0x20 ADD DUP3 DUP2 MSTORE PUSH1 0x20 ADD SWAP3 POP POP POP PUSH1 0x40 MLOAD PUSH1 0x20 DUP2 DUP4 SUB SUB DUP2 MSTORE SWAP1 PUSH1 0x40 MSTORE SWAP1 PUSH28 0xFFFFFFFFFFFFFFFFFFFFFFFFFFFFFFFFFFFFFFFFFFFFFFFFFFFFFFFF NOT AND PUSH1 0x20 DUP3 ADD DUP1 MLOAD PUSH28 0xFFFFFFFFFFFFFFFFFFFFFFFFFFFFFFFFFFFFFFFFFFFFFFFFFFFFFFFF DUP4 DUP2 DUP4 AND OR DUP4 MSTORE POP POP POP POP PUSH2 0x2C5F JUMP JUMPDEST POP POP POP JUMP JUMPDEST PUSH1 0x0 PUSH2 0x295E CALLER DUP5 DUP5 PUSH2 0x209C JUMP JUMPDEST PUSH1 0x1 SWAP1 POP SWAP3 SWAP2 POP POP JUMP JUMPDEST PUSH1 0x0 PUSH20 0xFFFFFFFFFFFFFFFFFFFFFFFFFFFFFFFFFFFFFFFF AND DUP2 PUSH20 0xFFFFFFFFFFFFFFFFFFFFFFFFFFFFFFFFFFFFFFFF AND EQ ISZERO PUSH2 0x29EE JUMPI PUSH1 0x40 MLOAD PUSH32 0x8C379A000000000000000000000000000000000000000000000000000000000 DUP2 MSTORE PUSH1 0x4 ADD DUP1 DUP1 PUSH1 0x20 ADD DUP3 DUP2 SUB DUP3 MSTORE PUSH1 0x26 DUP2 MSTORE PUSH1 0x20 ADD DUP1 PUSH2 0x2ECE PUSH1 0x26 SWAP2 CODECOPY PUSH1 0x40 ADD SWAP2 POP POP PUSH1 0x40 MLOAD DUP1 SWAP2 SUB SWAP1 REVERT JUMPDEST DUP1 PUSH20 0xFFFFFFFFFFFFFFFFFFFFFFFFFFFFFFFFFFFFFFFF AND PUSH1 0x0 DUP1 SWAP1 SLOAD SWAP1 PUSH2 0x100 EXP SWAP1 DIV PUSH20 0xFFFFFFFFFFFFFFFFFFFFFFFFFFFFFFFFFFFFFFFF AND PUSH20 0xFFFFFFFFFFFFFFFFFFFFFFFFFFFFFFFFFFFFFFFF AND PUSH32 0x8BE0079C531659141344CD1FD0A4F28419497F9722A3DAAFE3B4186F6B6457E0 PUSH1 0x40 MLOAD PUSH1 0x40 MLOAD DUP1 SWAP2 SUB SWAP1 LOG3 DUP1 PUSH1 0x0 DUP1 PUSH2 0x100 EXP DUP2 SLOAD DUP2 PUSH20 0xFFFFFFFFFFFFFFFFFFFFFFFFFFFFFFFFFFFFFFFF MUL NOT AND SWAP1 DUP4 PUSH20 0xFFFFFFFFFFFFFFFFFFFFFFFFFFFFFFFFFFFFFFFF AND MUL OR SWAP1 SSTORE POP POP JUMP JUMPDEST PUSH1 0x0 DUP1 DUP3 EXTCODESIZE SWAP1 POP PUSH1 0x0 DUP2 GT SWAP2 POP POP SWAP2 SWAP1 POP JUMP JUMPDEST PUSH1 0x0 PUSH20 0xFFFFFFFFFFFFFFFFFFFFFFFFFFFFFFFFFFFFFFFF AND DUP3 PUSH20 0xFFFFFFFFFFFFFFFFFFFFFFFFFFFFFFFFFFFFFFFF AND EQ ISZERO PUSH2 0x2B45 JUMPI PUSH1 0x40 MLOAD PUSH32 0x8C379A000000000000000000000000000000000000000000000000000000000 DUP2 MSTORE PUSH1 0x4 ADD DUP1 DUP1 PUSH1 0x20 ADD DUP3 DUP2 SUB DUP3 MSTORE PUSH1 0x21 DUP2 MSTORE PUSH1 0x20 ADD DUP1 PUSH2 0x2F63 PUSH1 0x21 SWAP2 CODECOPY PUSH1 0x40 ADD SWAP2 POP POP PUSH1 0x40 MLOAD DUP1 SWAP2 SUB SWAP1 REVERT JUMPDEST PUSH2 0x2B5A DUP2 PUSH1 0x3 SLOAD PUSH2 0x25D1 SWAP1 SWAP2 SWAP1 PUSH4 0xFFFFFFFF AND JUMP JUMPDEST PUSH1 0x3 DUP2 SWAP1 SSTORE POP PUSH2 0x2BB2 DUP2 PUSH1 0x1 PUSH1 0x0 DUP6 PUSH20 0xFFFFFFFFFFFFFFFFFFFFFFFFFFFFFFFFFFFFFFFF AND PUSH20 0xFFFFFFFFFFFFFFFFFFFFFFFFFFFFFFFFFFFFFFFF AND DUP2 MSTORE PUSH1 0x20 ADD SWAP1 DUP2 MSTORE PUSH1 0x20 ADD PUSH1 0x0 KECCAK256 SLOAD PUSH2 0x25D1 SWAP1 SWAP2 SWAP1 PUSH4 0xFFFFFFFF AND JUMP JUMPDEST PUSH1 0x1 PUSH1 0x0 DUP5 PUSH20 0xFFFFFFFFFFFFFFFFFFFFFFFFFFFFFFFFFFFFFFFF AND PUSH20 0xFFFFFFFFFFFFFFFFFFFFFFFFFFFFFFFFFFFFFFFF AND DUP2 MSTORE PUSH1 0x20 ADD SWAP1 DUP2 MSTORE PUSH1 0x20 ADD PUSH1 0x0 KECCAK256 DUP2 SWAP1 SSTORE POP PUSH1 0x0 PUSH20 0xFFFFFFFFFFFFFFFFFFFFFFFFFFFFFFFFFFFFFFFF AND DUP3 PUSH20 0xFFFFFFFFFFFFFFFFFFFFFFFFFFFFFFFFFFFFFFFF AND PUSH32 0xDDF252AD1BE2C89B69C2B068FC378DAA952BA7F163C4A11628F55A4DF523B3EF DUP4 PUSH1 0x40 MLOAD DUP1 DUP3 DUP2 MSTORE PUSH1 0x20 ADD SWAP2 POP POP PUSH1 0x40 MLOAD DUP1 SWAP2 SUB SWAP1 LOG3 POP POP JUMP JUMPDEST PUSH2 0x2C7E DUP3 PUSH20 0xFFFFFFFFFFFFFFFFFFFFFFFFFFFFFFFFFFFFFFFF AND PUSH2 0x2AAC JUMP JUMPDEST PUSH2 0x2CF0 JUMPI PUSH1 0x40 MLOAD PUSH32 0x8C379A000000000000000000000000000000000000000000000000000000000 DUP2 MSTORE PUSH1 0x4 ADD DUP1 DUP1 PUSH1 0x20 ADD DUP3 DUP2 SUB DUP3 MSTORE PUSH1 0x1F DUP2 MSTORE PUSH1 0x20 ADD DUP1 PUSH32 0x5361666545524332303A2063616C6C20746F206E6F6E2D636F6E747261637400 DUP2 MSTORE POP PUSH1 0x20 ADD SWAP2 POP POP PUSH1 0x40 MLOAD DUP1 SWAP2 SUB SWAP1 REVERT JUMPDEST PUSH1 0x0 PUSH1 0x60 DUP4 PUSH20 0xFFFFFFFFFFFFFFFFFFFFFFFFFFFFFFFFFFFFFFFF AND DUP4 PUSH1 0x40 MLOAD DUP1 DUP3 DUP1 MLOAD SWAP1 PUSH1 0x20 ADD SWAP1 DUP1 DUP4 DUP4 JUMPDEST PUSH1 0x20 DUP4 LT PUSH2 0x2D3F JUMPI DUP1 MLOAD DUP3 MSTORE PUSH1 0x20 DUP3 ADD SWAP2 POP PUSH1 0x20 DUP2 ADD SWAP1 POP PUSH1 0x20 DUP4 SUB SWAP3 POP PUSH2 0x2D1C JUMP JUMPDEST PUSH1 0x1 DUP4 PUSH1 0x20 SUB PUSH2 0x100 EXP SUB DUP1 NOT DUP3 MLOAD AND DUP2 DUP5 MLOAD AND DUP1 DUP3 OR DUP6 MSTORE POP POP POP POP POP POP SWAP1 POP ADD SWAP2 POP POP PUSH1 0x0 PUSH1 0x40 MLOAD DUP1 DUP4 SUB DUP2 PUSH1 0x0 DUP7 GAS CALL SWAP2 POP POP RETURNDATASIZE DUP1 PUSH1 0x0 DUP2 EQ PUSH2 0x2DA1 JUMPI PUSH1 0x40 MLOAD SWAP2 POP PUSH1 0x1F NOT PUSH1 0x3F RETURNDATASIZE ADD AND DUP3 ADD PUSH1 0x40 MSTORE RETURNDATASIZE DUP3 MSTORE RETURNDATASIZE PUSH1 0x0 PUSH1 0x20 DUP5 ADD RETURNDATACOPY PUSH2 0x2DA6 JUMP JUMPDEST PUSH1 0x60 SWAP2 POP JUMPDEST POP SWAP2 POP SWAP2 POP DUP2 PUSH2 0x2E1E JUMPI PUSH1 0x40 MLOAD PUSH32 0x8C379A000000000000000000000000000000000000000000000000000000000 DUP2 MSTORE PUSH1 0x4 ADD DUP1 DUP1 PUSH1 0x20 ADD DUP3 DUP2 SUB DUP3 MSTORE PUSH1 0x20 DUP2 MSTORE PUSH1 0x20 ADD DUP1 PUSH32 0x5361666545524332303A206C6F772D6C6576656C2063616C6C206661696C6564 DUP2 MSTORE POP PUSH1 0x20 ADD SWAP2 POP POP PUSH1 0x40 MLOAD DUP1 SWAP2 SUB SWAP1 REVERT JUMPDEST PUSH1 0x0 DUP2 MLOAD GT ISZERO PUSH2 0x2EA4 JUMPI DUP1 DUP1 PUSH1 0x20 ADD SWAP1 MLOAD PUSH1 0x20 DUP2 LT ISZERO PUSH2 0x2E3D JUMPI PUSH1 0x0 DUP1 REVERT JUMPDEST DUP2 ADD SWAP1 DUP1 DUP1 MLOAD SWAP1 PUSH1 0x20 ADD SWAP1 SWAP3 SWAP2 SWAP1 POP POP POP PUSH2 0x2EA3 JUMPI PUSH1 0x40 MLOAD PUSH32 0x8C379A000000000000000000000000000000000000000000000000000000000 DUP2 MSTORE PUSH1 0x4 ADD DUP1 DUP1 PUSH1 0x20 ADD DUP3 DUP2 SUB DUP3 MSTORE PUSH1 0x2A DUP2 MSTORE PUSH1 0x20 ADD DUP1 PUSH2 0x2FF5 PUSH1 0x2A SWAP2 CODECOPY PUSH1 0x40 ADD SWAP2 POP POP PUSH1 0x40 MLOAD DUP1 SWAP2 SUB SWAP1 REVERT JUMPDEST JUMPDEST POP POP POP POP JUMP INVALID GASLIMIT MSTORE NUMBER ORIGIN ADDRESS GASPRICE KECCAK256 PUSH21 0x72616E7366657220746F20746865207A65726F2061 PUSH5 0x6472657373 0x4f PUSH24 0x6E61626C653A206E6577206F776E65722069732074686520 PUSH27 0x65726F206164647265737345524332303A20617070726F76652074 PUSH16 0x20746865207A65726F20616464726573 PUSH20 0x4275726E2061646472657373206D757374206861 PUSH23 0x65207A65726F2062616C616E63652145746865726C6573 PUSH20 0x207472616E736665722066756E6374696F6E616C PUSH10 0x74792064697361626C65 PUSH5 0x4552433230 GASPRICE KECCAK256 PUSH3 0x75726E KECCAK256 PUSH7 0x726F6D20746865 KECCAK256 PUSH27 0x65726F206164647265737345524332303A207472616E7366657220 PUSH7 0x726F6D20746865 KECCAK256 PUSH27 0x65726F2061646472657373416C6C20746F6B656E73206D75737420 PUSH3 0x65206D PUSH10 0x6E746564206265666F72 PUSH6 0x206275726E69 PUSH15 0x6745524332303A20617070726F7665 KECCAK256 PUSH7 0x726F6D20746865 KECCAK256 PUSH27 0x65726F20616464726573735361666545524332303A204552433230 KECCAK256 PUSH16 0x7065726174696F6E20646964206E6F74 KECCAK256 PUSH20 0x756363656564476976656E20616D6F756E742069 PUSH20 0x206C6172676572207468616E2063757272656E74 KECCAK256 PUSH3 0x616C61 PUSH15 0x6365A265627A7A7230582039A0E87F 0x48 EQ 0xb8 0x2f DUP9 DUP1 0xcc 0xbb 0xe2 0xc0 0xb1 0xcd 0xc2 MULMOD PUSH27 0xAB33D1E2E1D197E844465A63FC64736F6C634300050A0032000000 "
				},
				"gasEstimates": {
					"creation": {
						"codeDepositCost": "2482800",
						"executionCost": "64969",
						"totalCost": "2547769"
					},
					"external": {
						"allowance(address,address)": "787",
						"approve(address,uint256)": "infinite",
						"balanceOf(address)": "642",
						"burn(uint256)": "infinite",
						"burnAddress()": "521",
						"decimals()": "329",
						"decreaseAllowance(address,uint256)": "infinite",
						"disableEtherlessTransfer()": "20783",
						"enableEtherlessTransfer()": "20761",
						"etherlessTransferEnabled()": "520",
						"hashForSign(bytes4,address,address,uint256,uint256,uint256)": "830",
						"increaseAllowance(address,uint256)": "infinite",
						"isOwner()": "589",
						"mint(address,uint256)": "infinite",
						"name()": "infinite",
						"notify(address)": "717",
						"owner()": "550",
						"recoverTokens(address,address,uint256)": "infinite",
						"register()": "20568",
						"renounceOwnership()": "22587",
						"setBurnAddress(address)": "infinite",
						"symbol()": "infinite",
						"tokensToMint()": "516",
						"totalSupply()": "459",
						"transfer(address,uint256)": "infinite",
						"transferFrom(address,address,uint256)": "infinite",
						"transferOwnership(address)": "infinite",
						"transferPreSigned(bytes,address,uint256,uint256,uint256)": "infinite",
						"unregister()": "20588"
					},
					"internal": {
						"_burn(address,uint256)": "infinite",
						"_postTransfer(address,address,uint256)": "infinite"
					}
				},
				"methodIdentifiers": {
					"allowance(address,address)": "dd62ed3e",
					"approve(address,uint256)": "095ea7b3",
					"balanceOf(address)": "70a08231",
					"burn(uint256)": "42966c68",
					"burnAddress()": "70d5ae05",
					"decimals()": "313ce567",
					"decreaseAllowance(address,uint256)": "a457c2d7",
					"disableEtherlessTransfer()": "8c680798",
					"enableEtherlessTransfer()": "74686fd2",
					"etherlessTransferEnabled()": "59c42cc4",
					"hashForSign(bytes4,address,address,uint256,uint256,uint256)": "cbb98c3f",
					"increaseAllowance(address,uint256)": "39509351",
					"isOwner()": "8f32d59b",
					"mint(address,uint256)": "40c10f19",
					"name()": "06fdde03",
					"notify(address)": "5fb9cf20",
					"owner()": "8da5cb5b",
					"recoverTokens(address,address,uint256)": "5f3e849f",
					"register()": "1aa3a008",
					"renounceOwnership()": "715018a6",
					"setBurnAddress(address)": "4b0e7216",
					"symbol()": "95d89b41",
					"tokensToMint()": "cbafee8a",
					"totalSupply()": "18160ddd",
					"transfer(address,uint256)": "a9059cbb",
					"transferFrom(address,address,uint256)": "23b872dd",
					"transferOwnership(address)": "f2fde38b",
					"transferPreSigned(bytes,address,uint256,uint256,uint256)": "1296830d",
					"unregister()": "e79a198f"
				}
			},
			"userdoc": {
				"methods": {
					"hashForSign(bytes4,address,address,uint256,uint256,uint256)": {
						"notice": "Hash (keccak256) of the payload used by transferPreSigned"
					},
					"transferPreSigned(bytes,address,uint256,uint256,uint256)": {
						"notice": "Submit a presigned transfer"
					}
				}
			}
		}
	}
}