{
	"input/KyberPriceFetch.sol": {
		"KyberPriceFetch": {
			"abi": [
				{
					"constant": true,
					"inputs": [
						{
							"internalType": "contract IERC20Token[]",
							"name": "_tokens",
							"type": "address[]"
						}
					],
					"name": "getPrices",
					"outputs": [
						{
							"internalType": "uint256[]",
							"name": "",
							"type": "uint256[]"
						},
						{
							"internalType": "uint256[]",
							"name": "",
							"type": "uint256[]"
						},
						{
							"internalType": "uint256[]",
							"name": "",
							"type": "uint256[]"
						},
						{
							"internalType": "contract IERC20Token[]",
							"name": "",
							"type": "address[]"
						}
					],
					"payable": false,
					"stateMutability": "view",
					"type": "function"
				}
			],
			"devdoc": {
				"methods": {}
			},
			"evm": {
				"assembly": "    /* \"input/KyberPriceFetch.sol\":252:1715  contract KyberPriceFetch {... */\n  mstore(0x40, 0x80)\n    /* \"input/KyberPriceFetch.sol\":319:361  0x818E6FECD516Ecc3849DAf6845e3EC868087B755 */\n  0x818e6fecd516ecc3849daf6845e3ec868087b755\n    /* \"input/KyberPriceFetch.sol\":281:362  KyberProxy private proxy = KyberProxy(0x818E6FECD516Ecc3849DAf6845e3EC868087B755) */\n  0x00\n  dup1\n  0x0100\n  exp\n  dup2\n  sload\n  dup2\n  0xffffffffffffffffffffffffffffffffffffffff\n  mul\n  not\n  and\n  swap1\n  dup4\n  0xffffffffffffffffffffffffffffffffffffffff\n  and\n  mul\n  or\n  swap1\n  sstore\n  pop\n    /* \"input/KyberPriceFetch.sol\":411:453  0xEeeeeEeeeEeEeeEeEeEeeEEEeeeeEeeeeeeeEEeE */\n  0xeeeeeeeeeeeeeeeeeeeeeeeeeeeeeeeeeeeeeeee\n    /* \"input/KyberPriceFetch.sol\":366:454  IERC20Token private etherToken = IERC20Token(0xEeeeeEeeeEeEeeEeEeEeeEEEeeeeEeeeeeeeEEeE) */\n  0x01\n  exp(0x0100, 0x00)\n  dup2\n  sload\n  dup2\n  0xffffffffffffffffffffffffffffffffffffffff\n  mul\n  not\n  and\n  swap1\n  dup4\n  0xffffffffffffffffffffffffffffffffffffffff\n  and\n  mul\n  or\n  swap1\n  sstore\n  pop\n    /* \"input/KyberPriceFetch.sol\":252:1715  contract KyberPriceFetch {... */\n  callvalue\n    /* \"--CODEGEN--\":8:17   */\n  dup1\n    /* \"--CODEGEN--\":5:7   */\n  iszero\n  tag_1\n  jumpi\n    /* \"--CODEGEN--\":30:31   */\n  0x00\n    /* \"--CODEGEN--\":27:28   */\n  dup1\n    /* \"--CODEGEN--\":20:32   */\n  revert\n    /* \"--CODEGEN--\":5:7   */\ntag_1:\n    /* \"input/KyberPriceFetch.sol\":252:1715  contract KyberPriceFetch {... */\n  pop\n  dataSize(sub_0)\n  dup1\n  dataOffset(sub_0)\n  0x00\n  codecopy\n  0x00\n  return\nstop\n\nsub_0: assembly {\n        /* \"input/KyberPriceFetch.sol\":252:1715  contract KyberPriceFetch {... */\n      mstore(0x40, 0x80)\n      callvalue\n        /* \"--CODEGEN--\":8:17   */\n      dup1\n        /* \"--CODEGEN--\":5:7   */\n      iszero\n      tag_1\n      jumpi\n        /* \"--CODEGEN--\":30:31   */\n      0x00\n        /* \"--CODEGEN--\":27:28   */\n      dup1\n        /* \"--CODEGEN--\":20:32   */\n      revert\n        /* \"--CODEGEN--\":5:7   */\n    tag_1:\n        /* \"input/KyberPriceFetch.sol\":252:1715  contract KyberPriceFetch {... */\n      pop\n      jumpi(tag_2, lt(calldatasize, 0x04))\n      shr(0xe0, calldataload(0x00))\n      dup1\n      0x8fb5a482\n      eq\n      tag_3\n      jumpi\n    tag_2:\n      0x00\n      dup1\n      revert\n        /* \"input/KyberPriceFetch.sol\":459:1428  function getPrices(IERC20Token[] memory _tokens)... */\n    tag_3:\n      tag_4\n      0x04\n      dup1\n      calldatasize\n      sub\n        /* \"--CODEGEN--\":13:15   */\n      0x20\n        /* \"--CODEGEN--\":8:11   */\n      dup2\n        /* \"--CODEGEN--\":5:16   */\n      lt\n        /* \"--CODEGEN--\":2:4   */\n      iszero\n      tag_5\n      jumpi\n        /* \"--CODEGEN--\":29:30   */\n      0x00\n        /* \"--CODEGEN--\":26:27   */\n      dup1\n        /* \"--CODEGEN--\":19:31   */\n      revert\n        /* \"--CODEGEN--\":2:4   */\n    tag_5:\n        /* \"input/KyberPriceFetch.sol\":459:1428  function getPrices(IERC20Token[] memory _tokens)... */\n      dup2\n      add\n      swap1\n      dup1\n      dup1\n      calldataload\n      swap1\n      0x20\n      add\n      swap1\n        /* \"--CODEGEN--\":21:32   */\n      0x0100000000\n        /* \"--CODEGEN--\":8:19   */\n      dup2\n        /* \"--CODEGEN--\":5:33   */\n      gt\n        /* \"--CODEGEN--\":2:4   */\n      iszero\n      tag_6\n      jumpi\n        /* \"--CODEGEN--\":46:47   */\n      0x00\n        /* \"--CODEGEN--\":43:44   */\n      dup1\n        /* \"--CODEGEN--\":36:48   */\n      revert\n        /* \"--CODEGEN--\":2:4   */\n    tag_6:\n        /* \"input/KyberPriceFetch.sol\":459:1428  function getPrices(IERC20Token[] memory _tokens)... */\n      dup3\n      add\n        /* \"--CODEGEN--\":35:44   */\n      dup4\n        /* \"--CODEGEN--\":28:32   */\n      0x20\n        /* \"--CODEGEN--\":12:26   */\n      dup3\n        /* \"--CODEGEN--\":8:33   */\n      add\n        /* \"--CODEGEN--\":5:45   */\n      gt\n        /* \"--CODEGEN--\":2:4   */\n      iszero\n      tag_7\n      jumpi\n        /* \"--CODEGEN--\":58:59   */\n      0x00\n        /* \"--CODEGEN--\":55:56   */\n      dup1\n        /* \"--CODEGEN--\":48:60   */\n      revert\n        /* \"--CODEGEN--\":2:4   */\n    tag_7:\n        /* \"input/KyberPriceFetch.sol\":459:1428  function getPrices(IERC20Token[] memory _tokens)... */\n      dup1\n      calldataload\n      swap1\n      0x20\n      add\n      swap2\n        /* \"--CODEGEN--\":101:110   */\n      dup5\n        /* \"--CODEGEN--\":95:97   */\n      0x20\n        /* \"--CODEGEN--\":81:93   */\n      dup4\n        /* \"--CODEGEN--\":77:98   */\n      mul\n        /* \"--CODEGEN--\":67:75   */\n      dup5\n        /* \"--CODEGEN--\":63:99   */\n      add\n        /* \"--CODEGEN--\":60:111   */\n      gt\n        /* \"--CODEGEN--\":39:50   */\n      0x0100000000\n        /* \"--CODEGEN--\":25:37   */\n      dup4\n        /* \"--CODEGEN--\":22:51   */\n      gt\n        /* \"--CODEGEN--\":11:119   */\n      or\n        /* \"--CODEGEN--\":8:10   */\n      iszero\n      tag_8\n      jumpi\n        /* \"--CODEGEN--\":132:133   */\n      0x00\n        /* \"--CODEGEN--\":129:130   */\n      dup1\n        /* \"--CODEGEN--\":122:134   */\n      revert\n        /* \"--CODEGEN--\":8:10   */\n    tag_8:\n        /* \"input/KyberPriceFetch.sol\":459:1428  function getPrices(IERC20Token[] memory _tokens)... */\n      swap2\n      swap1\n      dup1\n      dup1\n      0x20\n      mul\n      0x20\n      add\n      mload(0x40)\n      swap1\n      dup2\n      add\n      0x40\n      mstore\n      dup1\n      swap4\n      swap3\n      swap2\n      swap1\n      dup2\n      dup2\n      mstore\n      0x20\n      add\n      dup4\n      dup4\n      0x20\n      mul\n        /* \"--CODEGEN--\":30:33   */\n      dup1\n        /* \"--CODEGEN--\":22:28   */\n      dup3\n        /* \"--CODEGEN--\":14:20   */\n      dup5\n        /* \"--CODEGEN--\":1:34   */\n      calldatacopy\n        /* \"--CODEGEN--\":99:100   */\n      0x00\n        /* \"--CODEGEN--\":93:96   */\n      dup2\n        /* \"--CODEGEN--\":85:91   */\n      dup5\n        /* \"--CODEGEN--\":81:97   */\n      add\n        /* \"--CODEGEN--\":74:101   */\n      mstore\n        /* \"--CODEGEN--\":137:141   */\n      0x1f\n        /* \"--CODEGEN--\":133:142   */\n      not\n        /* \"--CODEGEN--\":126:130   */\n      0x1f\n        /* \"--CODEGEN--\":121:124   */\n      dup3\n        /* \"--CODEGEN--\":117:131   */\n      add\n        /* \"--CODEGEN--\":113:143   */\n      and\n        /* \"--CODEGEN--\":106:143   */\n      swap1\n      pop\n        /* \"--CODEGEN--\":169:172   */\n      dup1\n        /* \"--CODEGEN--\":161:167   */\n      dup4\n        /* \"--CODEGEN--\":157:173   */\n      add\n        /* \"--CODEGEN--\":147:173   */\n      swap3\n      pop\n        /* \"input/KyberPriceFetch.sol\":459:1428  function getPrices(IERC20Token[] memory _tokens)... */\n      pop\n      pop\n      pop\n      pop\n      pop\n      pop\n      swap2\n      swap3\n      swap2\n      swap3\n      swap1\n      pop\n      pop\n      pop\n      tag_9\n      jump\t// in\n    tag_4:\n      mload(0x40)\n      dup1\n      dup1\n      0x20\n      add\n      dup1\n      0x20\n      add\n      dup1\n      0x20\n      add\n      dup1\n      0x20\n      add\n      dup6\n      dup2\n      sub\n      dup6\n      mstore\n      dup10\n      dup2\n      dup2\n      mload\n      dup2\n      mstore\n      0x20\n      add\n      swap2\n      pop\n      dup1\n      mload\n      swap1\n      0x20\n      add\n      swap1\n      0x20\n      mul\n      dup1\n      dup4\n      dup4\n        /* \"--CODEGEN--\":23:24   */\n      0x00\n        /* \"--CODEGEN--\":8:108   */\n    tag_10:\n        /* \"--CODEGEN--\":33:36   */\n      dup4\n        /* \"--CODEGEN--\":30:31   */\n      dup2\n        /* \"--CODEGEN--\":27:37   */\n      lt\n        /* \"--CODEGEN--\":8:108   */\n      iszero\n      tag_12\n      jumpi\n        /* \"--CODEGEN--\":99:100   */\n      dup1\n        /* \"--CODEGEN--\":94:97   */\n      dup3\n        /* \"--CODEGEN--\":90:101   */\n      add\n        /* \"--CODEGEN--\":84:102   */\n      mload\n        /* \"--CODEGEN--\":80:81   */\n      dup2\n        /* \"--CODEGEN--\":75:78   */\n      dup5\n        /* \"--CODEGEN--\":71:82   */\n      add\n        /* \"--CODEGEN--\":64:103   */\n      mstore\n        /* \"--CODEGEN--\":52:54   */\n      0x20\n        /* \"--CODEGEN--\":49:50   */\n      dup2\n        /* \"--CODEGEN--\":45:55   */\n      add\n        /* \"--CODEGEN--\":40:55   */\n      swap1\n      pop\n        /* \"--CODEGEN--\":8:108   */\n      jump(tag_10)\n    tag_12:\n        /* \"--CODEGEN--\":12:26   */\n      pop\n        /* \"input/KyberPriceFetch.sol\":459:1428  function getPrices(IERC20Token[] memory _tokens)... */\n      pop\n      pop\n      pop\n      swap1\n      pop\n      add\n      dup6\n      dup2\n      sub\n      dup5\n      mstore\n      dup9\n      dup2\n      dup2\n      mload\n      dup2\n      mstore\n      0x20\n      add\n      swap2\n      pop\n      dup1\n      mload\n      swap1\n      0x20\n      add\n      swap1\n      0x20\n      mul\n      dup1\n      dup4\n      dup4\n        /* \"--CODEGEN--\":23:24   */\n      0x00\n        /* \"--CODEGEN--\":8:108   */\n    tag_13:\n        /* \"--CODEGEN--\":33:36   */\n      dup4\n        /* \"--CODEGEN--\":30:31   */\n      dup2\n        /* \"--CODEGEN--\":27:37   */\n      lt\n        /* \"--CODEGEN--\":8:108   */\n      iszero\n      tag_15\n      jumpi\n        /* \"--CODEGEN--\":99:100   */\n      dup1\n        /* \"--CODEGEN--\":94:97   */\n      dup3\n        /* \"--CODEGEN--\":90:101   */\n      add\n        /* \"--CODEGEN--\":84:102   */\n      mload\n        /* \"--CODEGEN--\":80:81   */\n      dup2\n        /* \"--CODEGEN--\":75:78   */\n      dup5\n        /* \"--CODEGEN--\":71:82   */\n      add\n        /* \"--CODEGEN--\":64:103   */\n      mstore\n        /* \"--CODEGEN--\":52:54   */\n      0x20\n        /* \"--CODEGEN--\":49:50   */\n      dup2\n        /* \"--CODEGEN--\":45:55   */\n      add\n        /* \"--CODEGEN--\":40:55   */\n      swap1\n      pop\n        /* \"--CODEGEN--\":8:108   */\n      jump(tag_13)\n    tag_15:\n        /* \"--CODEGEN--\":12:26   */\n      pop\n        /* \"input/KyberPriceFetch.sol\":459:1428  function getPrices(IERC20Token[] memory _tokens)... */\n      pop\n      pop\n      pop\n      swap1\n      pop\n      add\n      dup6\n      dup2\n      sub\n      dup4\n      mstore\n      dup8\n      dup2\n      dup2\n      mload\n      dup2\n      mstore\n      0x20\n      add\n      swap2\n      pop\n      dup1\n      mload\n      swap1\n      0x20\n      add\n      swap1\n      0x20\n      mul\n      dup1\n      dup4\n      dup4\n        /* \"--CODEGEN--\":23:24   */\n      0x00\n        /* \"--CODEGEN--\":8:108   */\n    tag_16:\n        /* \"--CODEGEN--\":33:36   */\n      dup4\n        /* \"--CODEGEN--\":30:31   */\n      dup2\n        /* \"--CODEGEN--\":27:37   */\n      lt\n        /* \"--CODEGEN--\":8:108   */\n      iszero\n      tag_18\n      jumpi\n        /* \"--CODEGEN--\":99:100   */\n      dup1\n        /* \"--CODEGEN--\":94:97   */\n      dup3\n        /* \"--CODEGEN--\":90:101   */\n      add\n        /* \"--CODEGEN--\":84:102   */\n      mload\n        /* \"--CODEGEN--\":80:81   */\n      dup2\n        /* \"--CODEGEN--\":75:78   */\n      dup5\n        /* \"--CODEGEN--\":71:82   */\n      add\n        /* \"--CODEGEN--\":64:103   */\n      mstore\n        /* \"--CODEGEN--\":52:54   */\n      0x20\n        /* \"--CODEGEN--\":49:50   */\n      dup2\n        /* \"--CODEGEN--\":45:55   */\n      add\n        /* \"--CODEGEN--\":40:55   */\n      swap1\n      pop\n        /* \"--CODEGEN--\":8:108   */\n      jump(tag_16)\n    tag_18:\n        /* \"--CODEGEN--\":12:26   */\n      pop\n        /* \"input/KyberPriceFetch.sol\":459:1428  function getPrices(IERC20Token[] memory _tokens)... */\n      pop\n      pop\n      pop\n      swap1\n      pop\n      add\n      dup6\n      dup2\n      sub\n      dup3\n      mstore\n      dup7\n      dup2\n      dup2\n      mload\n      dup2\n      mstore\n      0x20\n      add\n      swap2\n      pop\n      dup1\n      mload\n      swap1\n      0x20\n      add\n      swap1\n      0x20\n      mul\n      dup1\n      dup4\n      dup4\n        /* \"--CODEGEN--\":23:24   */\n      0x00\n        /* \"--CODEGEN--\":8:108   */\n    tag_19:\n        /* \"--CODEGEN--\":33:36   */\n      dup4\n        /* \"--CODEGEN--\":30:31   */\n      dup2\n        /* \"--CODEGEN--\":27:37   */\n      lt\n        /* \"--CODEGEN--\":8:108   */\n      iszero\n      tag_21\n      jumpi\n        /* \"--CODEGEN--\":99:100   */\n      dup1\n        /* \"--CODEGEN--\":94:97   */\n      dup3\n        /* \"--CODEGEN--\":90:101   */\n      add\n        /* \"--CODEGEN--\":84:102   */\n      mload\n        /* \"--CODEGEN--\":80:81   */\n      dup2\n        /* \"--CODEGEN--\":75:78   */\n      dup5\n        /* \"--CODEGEN--\":71:82   */\n      add\n        /* \"--CODEGEN--\":64:103   */\n      mstore\n        /* \"--CODEGEN--\":52:54   */\n      0x20\n        /* \"--CODEGEN--\":49:50   */\n      dup2\n        /* \"--CODEGEN--\":45:55   */\n      add\n        /* \"--CODEGEN--\":40:55   */\n      swap1\n      pop\n        /* \"--CODEGEN--\":8:108   */\n      jump(tag_19)\n    tag_21:\n        /* \"--CODEGEN--\":12:26   */\n      pop\n        /* \"input/KyberPriceFetch.sol\":459:1428  function getPrices(IERC20Token[] memory _tokens)... */\n      pop\n      pop\n      pop\n      swap1\n      pop\n      add\n      swap9\n      pop\n      pop\n      pop\n      pop\n      pop\n      pop\n      pop\n      pop\n      pop\n      mload(0x40)\n      dup1\n      swap2\n      sub\n      swap1\n      return\n    tag_9:\n        /* \"input/KyberPriceFetch.sol\":547:563  uint256[] memory */\n      0x60\n        /* \"input/KyberPriceFetch.sol\":565:581  uint256[] memory */\n      dup1\n        /* \"input/KyberPriceFetch.sol\":583:599  uint256[] memory */\n      0x60\n        /* \"input/KyberPriceFetch.sol\":601:621  IERC20Token[] memory */\n      dup1\n        /* \"input/KyberPriceFetch.sol\":629:652  uint256[] memory rates1 */\n      0x60\n        /* \"input/KyberPriceFetch.sol\":669:676  _tokens */\n      dup6\n        /* \"input/KyberPriceFetch.sol\":669:683  _tokens.length */\n      mload\n        /* \"input/KyberPriceFetch.sol\":655:684  new uint256[](_tokens.length) */\n      mload(0x40)\n      swap1\n      dup1\n      dup3\n      mstore\n      dup1\n      0x20\n      mul\n      0x20\n      add\n      dup3\n      add\n      0x40\n      mstore\n      dup1\n      iszero\n      tag_23\n      jumpi\n      dup2\n      0x20\n      add\n        /* \"--CODEGEN--\":29:31   */\n      0x20\n        /* \"--CODEGEN--\":21:27   */\n      dup3\n        /* \"--CODEGEN--\":17:32   */\n      mul\n        /* \"--CODEGEN--\":117:121   */\n      dup1\n        /* \"--CODEGEN--\":105:115   */\n      codesize\n        /* \"--CODEGEN--\":97:103   */\n      dup4\n        /* \"--CODEGEN--\":88:122   */\n      codecopy\n        /* \"--CODEGEN--\":148:152   */\n      dup1\n        /* \"--CODEGEN--\":140:146   */\n      dup3\n        /* \"--CODEGEN--\":136:153   */\n      add\n        /* \"--CODEGEN--\":126:153   */\n      swap2\n      pop\n        /* \"--CODEGEN--\":0:157   */\n      pop\n        /* \"input/KyberPriceFetch.sol\":655:684  new uint256[](_tokens.length) */\n      swap1\n      pop\n    tag_23:\n      pop\n        /* \"input/KyberPriceFetch.sol\":629:684  uint256[] memory rates1 = new uint256[](_tokens.length) */\n      swap1\n      pop\n        /* \"input/KyberPriceFetch.sol\":690:713  uint256[] memory rates2 */\n      0x60\n        /* \"input/KyberPriceFetch.sol\":730:737  _tokens */\n      dup7\n        /* \"input/KyberPriceFetch.sol\":730:744  _tokens.length */\n      mload\n        /* \"input/KyberPriceFetch.sol\":716:745  new uint256[](_tokens.length) */\n      mload(0x40)\n      swap1\n      dup1\n      dup3\n      mstore\n      dup1\n      0x20\n      mul\n      0x20\n      add\n      dup3\n      add\n      0x40\n      mstore\n      dup1\n      iszero\n      tag_24\n      jumpi\n      dup2\n      0x20\n      add\n        /* \"--CODEGEN--\":29:31   */\n      0x20\n        /* \"--CODEGEN--\":21:27   */\n      dup3\n        /* \"--CODEGEN--\":17:32   */\n      mul\n        /* \"--CODEGEN--\":117:121   */\n      dup1\n        /* \"--CODEGEN--\":105:115   */\n      codesize\n        /* \"--CODEGEN--\":97:103   */\n      dup4\n        /* \"--CODEGEN--\":88:122   */\n      codecopy\n        /* \"--CODEGEN--\":148:152   */\n      dup1\n        /* \"--CODEGEN--\":140:146   */\n      dup3\n        /* \"--CODEGEN--\":136:153   */\n      add\n        /* \"--CODEGEN--\":126:153   */\n      swap2\n      pop\n        /* \"--CODEGEN--\":0:157   */\n      pop\n        /* \"input/KyberPriceFetch.sol\":716:745  new uint256[](_tokens.length) */\n      swap1\n      pop\n    tag_24:\n      pop\n        /* \"input/KyberPriceFetch.sol\":690:745  uint256[] memory rates2 = new uint256[](_tokens.length) */\n      swap1\n      pop\n        /* \"input/KyberPriceFetch.sol\":751:774  uint256[] memory rates3 */\n      0x60\n        /* \"input/KyberPriceFetch.sol\":791:798  _tokens */\n      dup8\n        /* \"input/KyberPriceFetch.sol\":791:805  _tokens.length */\n      mload\n        /* \"input/KyberPriceFetch.sol\":777:806  new uint256[](_tokens.length) */\n      mload(0x40)\n      swap1\n      dup1\n      dup3\n      mstore\n      dup1\n      0x20\n      mul\n      0x20\n      add\n      dup3\n      add\n      0x40\n      mstore\n      dup1\n      iszero\n      tag_25\n      jumpi\n      dup2\n      0x20\n      add\n        /* \"--CODEGEN--\":29:31   */\n      0x20\n        /* \"--CODEGEN--\":21:27   */\n      dup3\n        /* \"--CODEGEN--\":17:32   */\n      mul\n        /* \"--CODEGEN--\":117:121   */\n      dup1\n        /* \"--CODEGEN--\":105:115   */\n      codesize\n        /* \"--CODEGEN--\":97:103   */\n      dup4\n        /* \"--CODEGEN--\":88:122   */\n      codecopy\n        /* \"--CODEGEN--\":148:152   */\n      dup1\n        /* \"--CODEGEN--\":140:146   */\n      dup3\n        /* \"--CODEGEN--\":136:153   */\n      add\n        /* \"--CODEGEN--\":126:153   */\n      swap2\n      pop\n        /* \"--CODEGEN--\":0:157   */\n      pop\n        /* \"input/KyberPriceFetch.sol\":777:806  new uint256[](_tokens.length) */\n      swap1\n      pop\n    tag_25:\n      pop\n        /* \"input/KyberPriceFetch.sol\":751:806  uint256[] memory rates3 = new uint256[](_tokens.length) */\n      swap1\n      pop\n        /* \"input/KyberPriceFetch.sol\":818:824  uint i */\n      0x00\n        /* \"input/KyberPriceFetch.sol\":827:828  0 */\n      dup1\n        /* \"input/KyberPriceFetch.sol\":818:828  uint i = 0 */\n      swap1\n      pop\n        /* \"input/KyberPriceFetch.sol\":813:1378  for (uint i = 0; i < _tokens.length; i++) {... */\n    tag_26:\n        /* \"input/KyberPriceFetch.sol\":834:841  _tokens */\n      dup9\n        /* \"input/KyberPriceFetch.sol\":834:848  _tokens.length */\n      mload\n        /* \"input/KyberPriceFetch.sol\":830:831  i */\n      dup2\n        /* \"input/KyberPriceFetch.sol\":830:848  i < _tokens.length */\n      lt\n        /* \"input/KyberPriceFetch.sol\":813:1378  for (uint i = 0; i < _tokens.length; i++) {... */\n      iszero\n      tag_27\n      jumpi\n        /* \"input/KyberPriceFetch.sol\":863:880  uint256 ether0_01 */\n      0x00\n        /* \"input/KyberPriceFetch.sol\":883:900  10000000000000000 */\n      0x2386f26fc10000\n        /* \"input/KyberPriceFetch.sol\":863:900  uint256 ether0_01 = 10000000000000000 */\n      swap1\n      pop\n        /* \"input/KyberPriceFetch.sol\":908:922  uint256 ether1 */\n      0x00\n        /* \"input/KyberPriceFetch.sol\":925:944  1000000000000000000 */\n      0x0de0b6b3a7640000\n        /* \"input/KyberPriceFetch.sol\":908:944  uint256 ether1 = 1000000000000000000 */\n      swap1\n      pop\n        /* \"input/KyberPriceFetch.sol\":952:968  uint256 ether100 */\n      0x00\n        /* \"input/KyberPriceFetch.sol\":971:992  100000000000000000000 */\n      0x056bc75e2d63100000\n        /* \"input/KyberPriceFetch.sol\":952:992  uint256 ether100 = 100000000000000000000 */\n      swap1\n      pop\n        /* \"input/KyberPriceFetch.sol\":1001:1021  uint256 expectedRate */\n      0x00\n        /* \"input/KyberPriceFetch.sol\":1049:1054  proxy */\n      dup1\n      0x00\n      swap1\n      sload\n      swap1\n      0x0100\n      exp\n      swap1\n      div\n      0xffffffffffffffffffffffffffffffffffffffff\n      and\n        /* \"input/KyberPriceFetch.sol\":1049:1070  proxy.getExpectedRate */\n      0xffffffffffffffffffffffffffffffffffffffff\n      and\n      0x809a9e55\n        /* \"input/KyberPriceFetch.sol\":1071:1081  etherToken */\n      0x01\n      0x00\n      swap1\n      sload\n      swap1\n      0x0100\n      exp\n      swap1\n      div\n      0xffffffffffffffffffffffffffffffffffffffff\n      and\n        /* \"input/KyberPriceFetch.sol\":1083:1090  _tokens */\n      dup16\n        /* \"input/KyberPriceFetch.sol\":1091:1092  i */\n      dup9\n        /* \"input/KyberPriceFetch.sol\":1083:1093  _tokens[i] */\n      dup2\n      mload\n      dup2\n      lt\n      tag_29\n      jumpi\n      invalid\n    tag_29:\n      0x20\n      mul\n      0x20\n      add\n      add\n      mload\n        /* \"input/KyberPriceFetch.sol\":1095:1104  ether0_01 */\n      dup8\n        /* \"input/KyberPriceFetch.sol\":1049:1105  proxy.getExpectedRate(etherToken, _tokens[i], ether0_01) */\n      mload(0x40)\n      dup5\n      0xffffffff\n      and\n      0xe0\n      shl\n      dup2\n      mstore\n      0x04\n      add\n      dup1\n      dup5\n      0xffffffffffffffffffffffffffffffffffffffff\n      and\n      0xffffffffffffffffffffffffffffffffffffffff\n      and\n      dup2\n      mstore\n      0x20\n      add\n      dup4\n      0xffffffffffffffffffffffffffffffffffffffff\n      and\n      0xffffffffffffffffffffffffffffffffffffffff\n      and\n      dup2\n      mstore\n      0x20\n      add\n      dup3\n      dup2\n      mstore\n      0x20\n      add\n      swap4\n      pop\n      pop\n      pop\n      pop\n      0x40\n      dup1\n      mload\n      dup1\n      dup4\n      sub\n      dup2\n      dup7\n      dup1\n      extcodesize\n      iszero\n        /* \"--CODEGEN--\":8:17   */\n      dup1\n        /* \"--CODEGEN--\":5:7   */\n      iszero\n      tag_30\n      jumpi\n        /* \"--CODEGEN--\":30:31   */\n      0x00\n        /* \"--CODEGEN--\":27:28   */\n      dup1\n        /* \"--CODEGEN--\":20:32   */\n      revert\n        /* \"--CODEGEN--\":5:7   */\n    tag_30:\n        /* \"input/KyberPriceFetch.sol\":1049:1105  proxy.getExpectedRate(etherToken, _tokens[i], ether0_01) */\n      pop\n      gas\n      staticcall\n      iszero\n        /* \"--CODEGEN--\":8:17   */\n      dup1\n        /* \"--CODEGEN--\":5:7   */\n      iszero\n      tag_31\n      jumpi\n        /* \"--CODEGEN--\":45:61   */\n      returndatasize\n        /* \"--CODEGEN--\":42:43   */\n      0x00\n        /* \"--CODEGEN--\":39:40   */\n      dup1\n        /* \"--CODEGEN--\":24:62   */\n      returndatacopy\n        /* \"--CODEGEN--\":77:93   */\n      returndatasize\n        /* \"--CODEGEN--\":74:75   */\n      0x00\n        /* \"--CODEGEN--\":67:94   */\n      revert\n        /* \"--CODEGEN--\":5:7   */\n    tag_31:\n        /* \"input/KyberPriceFetch.sol\":1049:1105  proxy.getExpectedRate(etherToken, _tokens[i], ether0_01) */\n      pop\n      pop\n      pop\n      pop\n      mload(0x40)\n      returndatasize\n        /* \"--CODEGEN--\":13:15   */\n      0x40\n        /* \"--CODEGEN--\":8:11   */\n      dup2\n        /* \"--CODEGEN--\":5:16   */\n      lt\n        /* \"--CODEGEN--\":2:4   */\n      iszero\n      tag_32\n      jumpi\n        /* \"--CODEGEN--\":29:30   */\n      0x00\n        /* \"--CODEGEN--\":26:27   */\n      dup1\n        /* \"--CODEGEN--\":19:31   */\n      revert\n        /* \"--CODEGEN--\":2:4   */\n    tag_32:\n        /* \"input/KyberPriceFetch.sol\":1049:1105  proxy.getExpectedRate(etherToken, _tokens[i], ether0_01) */\n      dup2\n      add\n      swap1\n      dup1\n      dup1\n      mload\n      swap1\n      0x20\n      add\n      swap1\n      swap3\n      swap2\n      swap1\n      dup1\n      mload\n      swap1\n      0x20\n      add\n      swap1\n      swap3\n      swap2\n      swap1\n      pop\n      pop\n      pop\n        /* \"input/KyberPriceFetch.sol\":1030:1105  (expectedRate, ) = proxy.getExpectedRate(etherToken, _tokens[i], ether0_01) */\n      pop\n      dup1\n      swap2\n      pop\n      pop\n        /* \"input/KyberPriceFetch.sol\":1126:1138  expectedRate */\n      dup1\n        /* \"input/KyberPriceFetch.sol\":1113:1119  rates1 */\n      dup9\n        /* \"input/KyberPriceFetch.sol\":1120:1121  i */\n      dup7\n        /* \"input/KyberPriceFetch.sol\":1113:1122  rates1[i] */\n      dup2\n      mload\n      dup2\n      lt\n      tag_33\n      jumpi\n      invalid\n    tag_33:\n      0x20\n      mul\n      0x20\n      add\n      add\n        /* \"input/KyberPriceFetch.sol\":1113:1139  rates1[i] = (expectedRate) */\n      dup2\n      dup2\n      mstore\n      pop\n      pop\n        /* \"input/KyberPriceFetch.sol\":1167:1172  proxy */\n      0x00\n      dup1\n      swap1\n      sload\n      swap1\n      0x0100\n      exp\n      swap1\n      div\n      0xffffffffffffffffffffffffffffffffffffffff\n      and\n        /* \"input/KyberPriceFetch.sol\":1167:1188  proxy.getExpectedRate */\n      0xffffffffffffffffffffffffffffffffffffffff\n      and\n      0x809a9e55\n        /* \"input/KyberPriceFetch.sol\":1189:1199  etherToken */\n      0x01\n      0x00\n      swap1\n      sload\n      swap1\n      0x0100\n      exp\n      swap1\n      div\n      0xffffffffffffffffffffffffffffffffffffffff\n      and\n        /* \"input/KyberPriceFetch.sol\":1201:1208  _tokens */\n      dup16\n        /* \"input/KyberPriceFetch.sol\":1209:1210  i */\n      dup9\n        /* \"input/KyberPriceFetch.sol\":1201:1211  _tokens[i] */\n      dup2\n      mload\n      dup2\n      lt\n      tag_34\n      jumpi\n      invalid\n    tag_34:\n      0x20\n      mul\n      0x20\n      add\n      add\n      mload\n        /* \"input/KyberPriceFetch.sol\":1213:1219  ether1 */\n      dup7\n        /* \"input/KyberPriceFetch.sol\":1167:1220  proxy.getExpectedRate(etherToken, _tokens[i], ether1) */\n      mload(0x40)\n      dup5\n      0xffffffff\n      and\n      0xe0\n      shl\n      dup2\n      mstore\n      0x04\n      add\n      dup1\n      dup5\n      0xffffffffffffffffffffffffffffffffffffffff\n      and\n      0xffffffffffffffffffffffffffffffffffffffff\n      and\n      dup2\n      mstore\n      0x20\n      add\n      dup4\n      0xffffffffffffffffffffffffffffffffffffffff\n      and\n      0xffffffffffffffffffffffffffffffffffffffff\n      and\n      dup2\n      mstore\n      0x20\n      add\n      dup3\n      dup2\n      mstore\n      0x20\n      add\n      swap4\n      pop\n      pop\n      pop\n      pop\n      0x40\n      dup1\n      mload\n      dup1\n      dup4\n      sub\n      dup2\n      dup7\n      dup1\n      extcodesize\n      iszero\n        /* \"--CODEGEN--\":8:17   */\n      dup1\n        /* \"--CODEGEN--\":5:7   */\n      iszero\n      tag_35\n      jumpi\n        /* \"--CODEGEN--\":30:31   */\n      0x00\n        /* \"--CODEGEN--\":27:28   */\n      dup1\n        /* \"--CODEGEN--\":20:32   */\n      revert\n        /* \"--CODEGEN--\":5:7   */\n    tag_35:\n        /* \"input/KyberPriceFetch.sol\":1167:1220  proxy.getExpectedRate(etherToken, _tokens[i], ether1) */\n      pop\n      gas\n      staticcall\n      iszero\n        /* \"--CODEGEN--\":8:17   */\n      dup1\n        /* \"--CODEGEN--\":5:7   */\n      iszero\n      tag_36\n      jumpi\n        /* \"--CODEGEN--\":45:61   */\n      returndatasize\n        /* \"--CODEGEN--\":42:43   */\n      0x00\n        /* \"--CODEGEN--\":39:40   */\n      dup1\n        /* \"--CODEGEN--\":24:62   */\n      returndatacopy\n        /* \"--CODEGEN--\":77:93   */\n      returndatasize\n        /* \"--CODEGEN--\":74:75   */\n      0x00\n        /* \"--CODEGEN--\":67:94   */\n      revert\n        /* \"--CODEGEN--\":5:7   */\n    tag_36:\n        /* \"input/KyberPriceFetch.sol\":1167:1220  proxy.getExpectedRate(etherToken, _tokens[i], ether1) */\n      pop\n      pop\n      pop\n      pop\n      mload(0x40)\n      returndatasize\n        /* \"--CODEGEN--\":13:15   */\n      0x40\n        /* \"--CODEGEN--\":8:11   */\n      dup2\n        /* \"--CODEGEN--\":5:16   */\n      lt\n        /* \"--CODEGEN--\":2:4   */\n      iszero\n      tag_37\n      jumpi\n        /* \"--CODEGEN--\":29:30   */\n      0x00\n        /* \"--CODEGEN--\":26:27   */\n      dup1\n        /* \"--CODEGEN--\":19:31   */\n      revert\n        /* \"--CODEGEN--\":2:4   */\n    tag_37:\n        /* \"input/KyberPriceFetch.sol\":1167:1220  proxy.getExpectedRate(etherToken, _tokens[i], ether1) */\n      dup2\n      add\n      swap1\n      dup1\n      dup1\n      mload\n      swap1\n      0x20\n      add\n      swap1\n      swap3\n      swap2\n      swap1\n      dup1\n      mload\n      swap1\n      0x20\n      add\n      swap1\n      swap3\n      swap2\n      swap1\n      pop\n      pop\n      pop\n        /* \"input/KyberPriceFetch.sol\":1148:1220  (expectedRate, ) = proxy.getExpectedRate(etherToken, _tokens[i], ether1) */\n      pop\n      dup1\n      swap2\n      pop\n      pop\n        /* \"input/KyberPriceFetch.sol\":1241:1253  expectedRate */\n      dup1\n        /* \"input/KyberPriceFetch.sol\":1228:1234  rates2 */\n      dup8\n        /* \"input/KyberPriceFetch.sol\":1235:1236  i */\n      dup7\n        /* \"input/KyberPriceFetch.sol\":1228:1237  rates2[i] */\n      dup2\n      mload\n      dup2\n      lt\n      tag_38\n      jumpi\n      invalid\n    tag_38:\n      0x20\n      mul\n      0x20\n      add\n      add\n        /* \"input/KyberPriceFetch.sol\":1228:1254  rates2[i] = (expectedRate) */\n      dup2\n      dup2\n      mstore\n      pop\n      pop\n        /* \"input/KyberPriceFetch.sol\":1282:1287  proxy */\n      0x00\n      dup1\n      swap1\n      sload\n      swap1\n      0x0100\n      exp\n      swap1\n      div\n      0xffffffffffffffffffffffffffffffffffffffff\n      and\n        /* \"input/KyberPriceFetch.sol\":1282:1303  proxy.getExpectedRate */\n      0xffffffffffffffffffffffffffffffffffffffff\n      and\n      0x809a9e55\n        /* \"input/KyberPriceFetch.sol\":1304:1314  etherToken */\n      0x01\n      0x00\n      swap1\n      sload\n      swap1\n      0x0100\n      exp\n      swap1\n      div\n      0xffffffffffffffffffffffffffffffffffffffff\n      and\n        /* \"input/KyberPriceFetch.sol\":1316:1323  _tokens */\n      dup16\n        /* \"input/KyberPriceFetch.sol\":1324:1325  i */\n      dup9\n        /* \"input/KyberPriceFetch.sol\":1316:1326  _tokens[i] */\n      dup2\n      mload\n      dup2\n      lt\n      tag_39\n      jumpi\n      invalid\n    tag_39:\n      0x20\n      mul\n      0x20\n      add\n      add\n      mload\n        /* \"input/KyberPriceFetch.sol\":1328:1336  ether100 */\n      dup6\n        /* \"input/KyberPriceFetch.sol\":1282:1337  proxy.getExpectedRate(etherToken, _tokens[i], ether100) */\n      mload(0x40)\n      dup5\n      0xffffffff\n      and\n      0xe0\n      shl\n      dup2\n      mstore\n      0x04\n      add\n      dup1\n      dup5\n      0xffffffffffffffffffffffffffffffffffffffff\n      and\n      0xffffffffffffffffffffffffffffffffffffffff\n      and\n      dup2\n      mstore\n      0x20\n      add\n      dup4\n      0xffffffffffffffffffffffffffffffffffffffff\n      and\n      0xffffffffffffffffffffffffffffffffffffffff\n      and\n      dup2\n      mstore\n      0x20\n      add\n      dup3\n      dup2\n      mstore\n      0x20\n      add\n      swap4\n      pop\n      pop\n      pop\n      pop\n      0x40\n      dup1\n      mload\n      dup1\n      dup4\n      sub\n      dup2\n      dup7\n      dup1\n      extcodesize\n      iszero\n        /* \"--CODEGEN--\":8:17   */\n      dup1\n        /* \"--CODEGEN--\":5:7   */\n      iszero\n      tag_40\n      jumpi\n        /* \"--CODEGEN--\":30:31   */\n      0x00\n        /* \"--CODEGEN--\":27:28   */\n      dup1\n        /* \"--CODEGEN--\":20:32   */\n      revert\n        /* \"--CODEGEN--\":5:7   */\n    tag_40:\n        /* \"input/KyberPriceFetch.sol\":1282:1337  proxy.getExpectedRate(etherToken, _tokens[i], ether100) */\n      pop\n      gas\n      staticcall\n      iszero\n        /* \"--CODEGEN--\":8:17   */\n      dup1\n        /* \"--CODEGEN--\":5:7   */\n      iszero\n      tag_41\n      jumpi\n        /* \"--CODEGEN--\":45:61   */\n      returndatasize\n        /* \"--CODEGEN--\":42:43   */\n      0x00\n        /* \"--CODEGEN--\":39:40   */\n      dup1\n        /* \"--CODEGEN--\":24:62   */\n      returndatacopy\n        /* \"--CODEGEN--\":77:93   */\n      returndatasize\n        /* \"--CODEGEN--\":74:75   */\n      0x00\n        /* \"--CODEGEN--\":67:94   */\n      revert\n        /* \"--CODEGEN--\":5:7   */\n    tag_41:\n        /* \"input/KyberPriceFetch.sol\":1282:1337  proxy.getExpectedRate(etherToken, _tokens[i], ether100) */\n      pop\n      pop\n      pop\n      pop\n      mload(0x40)\n      returndatasize\n        /* \"--CODEGEN--\":13:15   */\n      0x40\n        /* \"--CODEGEN--\":8:11   */\n      dup2\n        /* \"--CODEGEN--\":5:16   */\n      lt\n        /* \"--CODEGEN--\":2:4   */\n      iszero\n      tag_42\n      jumpi\n        /* \"--CODEGEN--\":29:30   */\n      0x00\n        /* \"--CODEGEN--\":26:27   */\n      dup1\n        /* \"--CODEGEN--\":19:31   */\n      revert\n        /* \"--CODEGEN--\":2:4   */\n    tag_42:\n        /* \"input/KyberPriceFetch.sol\":1282:1337  proxy.getExpectedRate(etherToken, _tokens[i], ether100) */\n      dup2\n      add\n      swap1\n      dup1\n      dup1\n      mload\n      swap1\n      0x20\n      add\n      swap1\n      swap3\n      swap2\n      swap1\n      dup1\n      mload\n      swap1\n      0x20\n      add\n      swap1\n      swap3\n      swap2\n      swap1\n      pop\n      pop\n      pop\n        /* \"input/KyberPriceFetch.sol\":1263:1337  (expectedRate, ) = proxy.getExpectedRate(etherToken, _tokens[i], ether100) */\n      pop\n      dup1\n      swap2\n      pop\n      pop\n        /* \"input/KyberPriceFetch.sol\":1358:1370  expectedRate */\n      dup1\n        /* \"input/KyberPriceFetch.sol\":1345:1351  rates3 */\n      dup7\n        /* \"input/KyberPriceFetch.sol\":1352:1353  i */\n      dup7\n        /* \"input/KyberPriceFetch.sol\":1345:1354  rates3[i] */\n      dup2\n      mload\n      dup2\n      lt\n      tag_43\n      jumpi\n      invalid\n    tag_43:\n      0x20\n      mul\n      0x20\n      add\n      add\n        /* \"input/KyberPriceFetch.sol\":1345:1371  rates3[i] = (expectedRate) */\n      dup2\n      dup2\n      mstore\n      pop\n      pop\n        /* \"input/KyberPriceFetch.sol\":813:1378  for (uint i = 0; i < _tokens.length; i++) {... */\n      pop\n      pop\n      pop\n      pop\n        /* \"input/KyberPriceFetch.sol\":850:853  i++ */\n      dup1\n      dup1\n      0x01\n      add\n      swap2\n      pop\n      pop\n        /* \"input/KyberPriceFetch.sol\":813:1378  for (uint i = 0; i < _tokens.length; i++) {... */\n      jump(tag_26)\n    tag_27:\n      pop\n        /* \"input/KyberPriceFetch.sol\":1391:1397  rates1 */\n      dup3\n        /* \"input/KyberPriceFetch.sol\":1399:1405  rates2 */\n      dup3\n        /* \"input/KyberPriceFetch.sol\":1407:1413  rates3 */\n      dup3\n        /* \"input/KyberPriceFetch.sol\":1415:1422  _tokens */\n      dup11\n        /* \"input/KyberPriceFetch.sol\":1383:1423  return (rates1, rates2, rates3, _tokens) */\n      swap7\n      pop\n      swap7\n      pop\n      swap7\n      pop\n      swap7\n      pop\n      pop\n      pop\n      pop\n        /* \"input/KyberPriceFetch.sol\":459:1428  function getPrices(IERC20Token[] memory _tokens)... */\n      swap2\n      swap4\n      pop\n      swap2\n      swap4\n      jump\t// out\n\n    auxdata: 0xa265627a7a72315820b5c4fbc9a8dc6a2dd8b4382e61593efe5cc58b206ee9feea5c0c0c721bad116564736f6c63430005110032\n}\n",
				"bytecode": {
					"linkReferences": {},
					"object": "608060405273818e6fecd516ecc3849daf6845e3ec868087b7556000806101000a81548173ffffffffffffffffffffffffffffffffffffffff021916908373ffffffffffffffffffffffffffffffffffffffff16021790555073eeeeeeeeeeeeeeeeeeeeeeeeeeeeeeeeeeeeeeee600160006101000a81548173ffffffffffffffffffffffffffffffffffffffff021916908373ffffffffffffffffffffffffffffffffffffffff1602179055503480156100b957600080fd5b506107a2806100c96000396000f3fe608060405234801561001057600080fd5b506004361061002b5760003560e01c80638fb5a48214610030575b600080fd5b6100e66004803603602081101561004657600080fd5b810190808035906020019064010000000081111561006357600080fd5b82018360208201111561007557600080fd5b8035906020019184602083028401116401000000008311171561009757600080fd5b919080806020026020016040519081016040528093929190818152602001838360200280828437600081840152601f19601f820116905080830192505050505050509192919290505050610215565b6040518080602001806020018060200180602001858103855289818151815260200191508051906020019060200280838360005b8381101561013557808201518184015260208101905061011a565b50505050905001858103845288818151815260200191508051906020019060200280838360005b8381101561017757808201518184015260208101905061015c565b50505050905001858103835287818151815260200191508051906020019060200280838360005b838110156101b957808201518184015260208101905061019e565b50505050905001858103825286818151815260200191508051906020019060200280838360005b838110156101fb5780820151818401526020810190506101e0565b505050509050019850505050505050505060405180910390f35b6060806060806060855160405190808252806020026020018201604052801561024d5781602001602082028038833980820191505090505b509050606086516040519080825280602002602001820160405280156102825781602001602082028038833980820191505090505b509050606087516040519080825280602002602001820160405280156102b75781602001602082028038833980820191505090505b50905060008090505b8851811015610756576000662386f26fc1000090506000670de0b6b3a76400009050600068056bc75e2d63100000905060008060009054906101000a900473ffffffffffffffffffffffffffffffffffffffff1673ffffffffffffffffffffffffffffffffffffffff1663809a9e55600160009054906101000a900473ffffffffffffffffffffffffffffffffffffffff168f888151811061035e57fe5b6020026020010151876040518463ffffffff1660e01b8152600401808473ffffffffffffffffffffffffffffffffffffffff1673ffffffffffffffffffffffffffffffffffffffff1681526020018373ffffffffffffffffffffffffffffffffffffffff1673ffffffffffffffffffffffffffffffffffffffff1681526020018281526020019350505050604080518083038186803b15801561040057600080fd5b505afa158015610414573d6000803e3d6000fd5b505050506040513d604081101561042a57600080fd5b81019080805190602001909291908051906020019092919050505050809150508088868151811061045757fe5b6020026020010181815250506000809054906101000a900473ffffffffffffffffffffffffffffffffffffffff1673ffffffffffffffffffffffffffffffffffffffff1663809a9e55600160009054906101000a900473ffffffffffffffffffffffffffffffffffffffff168f88815181106104cf57fe5b6020026020010151866040518463ffffffff1660e01b8152600401808473ffffffffffffffffffffffffffffffffffffffff1673ffffffffffffffffffffffffffffffffffffffff1681526020018373ffffffffffffffffffffffffffffffffffffffff1673ffffffffffffffffffffffffffffffffffffffff1681526020018281526020019350505050604080518083038186803b15801561057157600080fd5b505afa158015610585573d6000803e3d6000fd5b505050506040513d604081101561059b57600080fd5b8101908080519060200190929190805190602001909291905050505080915050808786815181106105c857fe5b6020026020010181815250506000809054906101000a900473ffffffffffffffffffffffffffffffffffffffff1673ffffffffffffffffffffffffffffffffffffffff1663809a9e55600160009054906101000a900473ffffffffffffffffffffffffffffffffffffffff168f888151811061064057fe5b6020026020010151856040518463ffffffff1660e01b8152600401808473ffffffffffffffffffffffffffffffffffffffff1673ffffffffffffffffffffffffffffffffffffffff1681526020018373ffffffffffffffffffffffffffffffffffffffff1673ffffffffffffffffffffffffffffffffffffffff1681526020018281526020019350505050604080518083038186803b1580156106e257600080fd5b505afa1580156106f6573d6000803e3d6000fd5b505050506040513d604081101561070c57600080fd5b81019080805190602001909291908051906020019092919050505050809150508086868151811061073957fe5b6020026020010181815250505050505080806001019150506102c0565b508282828a9650965096509650505050919350919356fea265627a7a72315820b5c4fbc9a8dc6a2dd8b4382e61593efe5cc58b206ee9feea5c0c0c721bad116564736f6c63430005110032",
					"opcodes": "PUSH1 0x80 PUSH1 0x40 MSTORE PUSH20 0x818E6FECD516ECC3849DAF6845E3EC868087B755 PUSH1 0x0 DUP1 PUSH2 0x100 EXP DUP2 SLOAD DUP2 PUSH20 0xFFFFFFFFFFFFFFFFFFFFFFFFFFFFFFFFFFFFFFFF MUL NOT AND SWAP1 DUP4 PUSH20 0xFFFFFFFFFFFFFFFFFFFFFFFFFFFFFFFFFFFFFFFF AND MUL OR SWAP1 SSTORE POP PUSH20 0xEEEEEEEEEEEEEEEEEEEEEEEEEEEEEEEEEEEEEEEE PUSH1 0x1 PUSH1 0x0 PUSH2 0x100 EXP DUP2 SLOAD DUP2 PUSH20 0xFFFFFFFFFFFFFFFFFFFFFFFFFFFFFFFFFFFFFFFF MUL NOT AND SWAP1 DUP4 PUSH20 0xFFFFFFFFFFFFFFFFFFFFFFFFFFFFFFFFFFFFFFFF AND MUL OR SWAP1 SSTORE POP CALLVALUE DUP1 ISZERO PUSH2 0xB9 JUMPI PUSH1 0x0 DUP1 REVERT JUMPDEST POP PUSH2 0x7A2 DUP1 PUSH2 0xC9 PUSH1 0x0 CODECOPY PUSH1 0x0 RETURN INVALID PUSH1 0x80 PUSH1 0x40 MSTORE CALLVALUE DUP1 ISZERO PUSH2 0x10 JUMPI PUSH1 0x0 DUP1 REVERT JUMPDEST POP PUSH1 0x4 CALLDATASIZE LT PUSH2 0x2B JUMPI PUSH1 0x0 CALLDATALOAD PUSH1 0xE0 SHR DUP1 PUSH4 0x8FB5A482 EQ PUSH2 0x30 JUMPI JUMPDEST PUSH1 0x0 DUP1 REVERT JUMPDEST PUSH2 0xE6 PUSH1 0x4 DUP1 CALLDATASIZE SUB PUSH1 0x20 DUP2 LT ISZERO PUSH2 0x46 JUMPI PUSH1 0x0 DUP1 REVERT JUMPDEST DUP2 ADD SWAP1 DUP1 DUP1 CALLDATALOAD SWAP1 PUSH1 0x20 ADD SWAP1 PUSH5 0x100000000 DUP2 GT ISZERO PUSH2 0x63 JUMPI PUSH1 0x0 DUP1 REVERT JUMPDEST DUP3 ADD DUP4 PUSH1 0x20 DUP3 ADD GT ISZERO PUSH2 0x75 JUMPI PUSH1 0x0 DUP1 REVERT JUMPDEST DUP1 CALLDATALOAD SWAP1 PUSH1 0x20 ADD SWAP2 DUP5 PUSH1 0x20 DUP4 MUL DUP5 ADD GT PUSH5 0x100000000 DUP4 GT OR ISZERO PUSH2 0x97 JUMPI PUSH1 0x0 DUP1 REVERT JUMPDEST SWAP2 SWAP1 DUP1 DUP1 PUSH1 0x20 MUL PUSH1 0x20 ADD PUSH1 0x40 MLOAD SWAP1 DUP2 ADD PUSH1 0x40 MSTORE DUP1 SWAP4 SWAP3 SWAP2 SWAP1 DUP2 DUP2 MSTORE PUSH1 0x20 ADD DUP4 DUP4 PUSH1 0x20 MUL DUP1 DUP3 DUP5 CALLDATACOPY PUSH1 0x0 DUP2 DUP5 ADD MSTORE PUSH1 0x1F NOT PUSH1 0x1F DUP3 ADD AND SWAP1 POP DUP1 DUP4 ADD SWAP3 POP POP POP POP POP POP POP SWAP2 SWAP3 SWAP2 SWAP3 SWAP1 POP POP POP PUSH2 0x215 JUMP JUMPDEST PUSH1 0x40 MLOAD DUP1 DUP1 PUSH1 0x20 ADD DUP1 PUSH1 0x20 ADD DUP1 PUSH1 0x20 ADD DUP1 PUSH1 0x20 ADD DUP6 DUP2 SUB DUP6 MSTORE DUP10 DUP2 DUP2 MLOAD DUP2 MSTORE PUSH1 0x20 ADD SWAP2 POP DUP1 MLOAD SWAP1 PUSH1 0x20 ADD SWAP1 PUSH1 0x20 MUL DUP1 DUP4 DUP4 PUSH1 0x0 JUMPDEST DUP4 DUP2 LT ISZERO PUSH2 0x135 JUMPI DUP1 DUP3 ADD MLOAD DUP2 DUP5 ADD MSTORE PUSH1 0x20 DUP2 ADD SWAP1 POP PUSH2 0x11A JUMP JUMPDEST POP POP POP POP SWAP1 POP ADD DUP6 DUP2 SUB DUP5 MSTORE DUP9 DUP2 DUP2 MLOAD DUP2 MSTORE PUSH1 0x20 ADD SWAP2 POP DUP1 MLOAD SWAP1 PUSH1 0x20 ADD SWAP1 PUSH1 0x20 MUL DUP1 DUP4 DUP4 PUSH1 0x0 JUMPDEST DUP4 DUP2 LT ISZERO PUSH2 0x177 JUMPI DUP1 DUP3 ADD MLOAD DUP2 DUP5 ADD MSTORE PUSH1 0x20 DUP2 ADD SWAP1 POP PUSH2 0x15C JUMP JUMPDEST POP POP POP POP SWAP1 POP ADD DUP6 DUP2 SUB DUP4 MSTORE DUP8 DUP2 DUP2 MLOAD DUP2 MSTORE PUSH1 0x20 ADD SWAP2 POP DUP1 MLOAD SWAP1 PUSH1 0x20 ADD SWAP1 PUSH1 0x20 MUL DUP1 DUP4 DUP4 PUSH1 0x0 JUMPDEST DUP4 DUP2 LT ISZERO PUSH2 0x1B9 JUMPI DUP1 DUP3 ADD MLOAD DUP2 DUP5 ADD MSTORE PUSH1 0x20 DUP2 ADD SWAP1 POP PUSH2 0x19E JUMP JUMPDEST POP POP POP POP SWAP1 POP ADD DUP6 DUP2 SUB DUP3 MSTORE DUP7 DUP2 DUP2 MLOAD DUP2 MSTORE PUSH1 0x20 ADD SWAP2 POP DUP1 MLOAD SWAP1 PUSH1 0x20 ADD SWAP1 PUSH1 0x20 MUL DUP1 DUP4 DUP4 PUSH1 0x0 JUMPDEST DUP4 DUP2 LT ISZERO PUSH2 0x1FB JUMPI DUP1 DUP3 ADD MLOAD DUP2 DUP5 ADD MSTORE PUSH1 0x20 DUP2 ADD SWAP1 POP PUSH2 0x1E0 JUMP JUMPDEST POP POP POP POP SWAP1 POP ADD SWAP9 POP POP POP POP POP POP POP POP POP PUSH1 0x40 MLOAD DUP1 SWAP2 SUB SWAP1 RETURN JUMPDEST PUSH1 0x60 DUP1 PUSH1 0x60 DUP1 PUSH1 0x60 DUP6 MLOAD PUSH1 0x40 MLOAD SWAP1 DUP1 DUP3 MSTORE DUP1 PUSH1 0x20 MUL PUSH1 0x20 ADD DUP3 ADD PUSH1 0x40 MSTORE DUP1 ISZERO PUSH2 0x24D JUMPI DUP2 PUSH1 0x20 ADD PUSH1 0x20 DUP3 MUL DUP1 CODESIZE DUP4 CODECOPY DUP1 DUP3 ADD SWAP2 POP POP SWAP1 POP JUMPDEST POP SWAP1 POP PUSH1 0x60 DUP7 MLOAD PUSH1 0x40 MLOAD SWAP1 DUP1 DUP3 MSTORE DUP1 PUSH1 0x20 MUL PUSH1 0x20 ADD DUP3 ADD PUSH1 0x40 MSTORE DUP1 ISZERO PUSH2 0x282 JUMPI DUP2 PUSH1 0x20 ADD PUSH1 0x20 DUP3 MUL DUP1 CODESIZE DUP4 CODECOPY DUP1 DUP3 ADD SWAP2 POP POP SWAP1 POP JUMPDEST POP SWAP1 POP PUSH1 0x60 DUP8 MLOAD PUSH1 0x40 MLOAD SWAP1 DUP1 DUP3 MSTORE DUP1 PUSH1 0x20 MUL PUSH1 0x20 ADD DUP3 ADD PUSH1 0x40 MSTORE DUP1 ISZERO PUSH2 0x2B7 JUMPI DUP2 PUSH1 0x20 ADD PUSH1 0x20 DUP3 MUL DUP1 CODESIZE DUP4 CODECOPY DUP1 DUP3 ADD SWAP2 POP POP SWAP1 POP JUMPDEST POP SWAP1 POP PUSH1 0x0 DUP1 SWAP1 POP JUMPDEST DUP9 MLOAD DUP2 LT ISZERO PUSH2 0x756 JUMPI PUSH1 0x0 PUSH7 0x2386F26FC10000 SWAP1 POP PUSH1 0x0 PUSH8 0xDE0B6B3A7640000 SWAP1 POP PUSH1 0x0 PUSH9 0x56BC75E2D63100000 SWAP1 POP PUSH1 0x0 DUP1 PUSH1 0x0 SWAP1 SLOAD SWAP1 PUSH2 0x100 EXP SWAP1 DIV PUSH20 0xFFFFFFFFFFFFFFFFFFFFFFFFFFFFFFFFFFFFFFFF AND PUSH20 0xFFFFFFFFFFFFFFFFFFFFFFFFFFFFFFFFFFFFFFFF AND PUSH4 0x809A9E55 PUSH1 0x1 PUSH1 0x0 SWAP1 SLOAD SWAP1 PUSH2 0x100 EXP SWAP1 DIV PUSH20 0xFFFFFFFFFFFFFFFFFFFFFFFFFFFFFFFFFFFFFFFF AND DUP16 DUP9 DUP2 MLOAD DUP2 LT PUSH2 0x35E JUMPI INVALID JUMPDEST PUSH1 0x20 MUL PUSH1 0x20 ADD ADD MLOAD DUP8 PUSH1 0x40 MLOAD DUP5 PUSH4 0xFFFFFFFF AND PUSH1 0xE0 SHL DUP2 MSTORE PUSH1 0x4 ADD DUP1 DUP5 PUSH20 0xFFFFFFFFFFFFFFFFFFFFFFFFFFFFFFFFFFFFFFFF AND PUSH20 0xFFFFFFFFFFFFFFFFFFFFFFFFFFFFFFFFFFFFFFFF AND DUP2 MSTORE PUSH1 0x20 ADD DUP4 PUSH20 0xFFFFFFFFFFFFFFFFFFFFFFFFFFFFFFFFFFFFFFFF AND PUSH20 0xFFFFFFFFFFFFFFFFFFFFFFFFFFFFFFFFFFFFFFFF AND DUP2 MSTORE PUSH1 0x20 ADD DUP3 DUP2 MSTORE PUSH1 0x20 ADD SWAP4 POP POP POP POP PUSH1 0x40 DUP1 MLOAD DUP1 DUP4 SUB DUP2 DUP7 DUP1 EXTCODESIZE ISZERO DUP1 ISZERO PUSH2 0x400 JUMPI PUSH1 0x0 DUP1 REVERT JUMPDEST POP GAS STATICCALL ISZERO DUP1 ISZERO PUSH2 0x414 JUMPI RETURNDATASIZE PUSH1 0x0 DUP1 RETURNDATACOPY RETURNDATASIZE PUSH1 0x0 REVERT JUMPDEST POP POP POP POP PUSH1 0x40 MLOAD RETURNDATASIZE PUSH1 0x40 DUP2 LT ISZERO PUSH2 0x42A JUMPI PUSH1 0x0 DUP1 REVERT JUMPDEST DUP2 ADD SWAP1 DUP1 DUP1 MLOAD SWAP1 PUSH1 0x20 ADD SWAP1 SWAP3 SWAP2 SWAP1 DUP1 MLOAD SWAP1 PUSH1 0x20 ADD SWAP1 SWAP3 SWAP2 SWAP1 POP POP POP POP DUP1 SWAP2 POP POP DUP1 DUP9 DUP7 DUP2 MLOAD DUP2 LT PUSH2 0x457 JUMPI INVALID JUMPDEST PUSH1 0x20 MUL PUSH1 0x20 ADD ADD DUP2 DUP2 MSTORE POP POP PUSH1 0x0 DUP1 SWAP1 SLOAD SWAP1 PUSH2 0x100 EXP SWAP1 DIV PUSH20 0xFFFFFFFFFFFFFFFFFFFFFFFFFFFFFFFFFFFFFFFF AND PUSH20 0xFFFFFFFFFFFFFFFFFFFFFFFFFFFFFFFFFFFFFFFF AND PUSH4 0x809A9E55 PUSH1 0x1 PUSH1 0x0 SWAP1 SLOAD SWAP1 PUSH2 0x100 EXP SWAP1 DIV PUSH20 0xFFFFFFFFFFFFFFFFFFFFFFFFFFFFFFFFFFFFFFFF AND DUP16 DUP9 DUP2 MLOAD DUP2 LT PUSH2 0x4CF JUMPI INVALID JUMPDEST PUSH1 0x20 MUL PUSH1 0x20 ADD ADD MLOAD DUP7 PUSH1 0x40 MLOAD DUP5 PUSH4 0xFFFFFFFF AND PUSH1 0xE0 SHL DUP2 MSTORE PUSH1 0x4 ADD DUP1 DUP5 PUSH20 0xFFFFFFFFFFFFFFFFFFFFFFFFFFFFFFFFFFFFFFFF AND PUSH20 0xFFFFFFFFFFFFFFFFFFFFFFFFFFFFFFFFFFFFFFFF AND DUP2 MSTORE PUSH1 0x20 ADD DUP4 PUSH20 0xFFFFFFFFFFFFFFFFFFFFFFFFFFFFFFFFFFFFFFFF AND PUSH20 0xFFFFFFFFFFFFFFFFFFFFFFFFFFFFFFFFFFFFFFFF AND DUP2 MSTORE PUSH1 0x20 ADD DUP3 DUP2 MSTORE PUSH1 0x20 ADD SWAP4 POP POP POP POP PUSH1 0x40 DUP1 MLOAD DUP1 DUP4 SUB DUP2 DUP7 DUP1 EXTCODESIZE ISZERO DUP1 ISZERO PUSH2 0x571 JUMPI PUSH1 0x0 DUP1 REVERT JUMPDEST POP GAS STATICCALL ISZERO DUP1 ISZERO PUSH2 0x585 JUMPI RETURNDATASIZE PUSH1 0x0 DUP1 RETURNDATACOPY RETURNDATASIZE PUSH1 0x0 REVERT JUMPDEST POP POP POP POP PUSH1 0x40 MLOAD RETURNDATASIZE PUSH1 0x40 DUP2 LT ISZERO PUSH2 0x59B JUMPI PUSH1 0x0 DUP1 REVERT JUMPDEST DUP2 ADD SWAP1 DUP1 DUP1 MLOAD SWAP1 PUSH1 0x20 ADD SWAP1 SWAP3 SWAP2 SWAP1 DUP1 MLOAD SWAP1 PUSH1 0x20 ADD SWAP1 SWAP3 SWAP2 SWAP1 POP POP POP POP DUP1 SWAP2 POP POP DUP1 DUP8 DUP7 DUP2 MLOAD DUP2 LT PUSH2 0x5C8 JUMPI INVALID JUMPDEST PUSH1 0x20 MUL PUSH1 0x20 ADD ADD DUP2 DUP2 MSTORE POP POP PUSH1 0x0 DUP1 SWAP1 SLOAD SWAP1 PUSH2 0x100 EXP SWAP1 DIV PUSH20 0xFFFFFFFFFFFFFFFFFFFFFFFFFFFFFFFFFFFFFFFF AND PUSH20 0xFFFFFFFFFFFFFFFFFFFFFFFFFFFFFFFFFFFFFFFF AND PUSH4 0x809A9E55 PUSH1 0x1 PUSH1 0x0 SWAP1 SLOAD SWAP1 PUSH2 0x100 EXP SWAP1 DIV PUSH20 0xFFFFFFFFFFFFFFFFFFFFFFFFFFFFFFFFFFFFFFFF AND DUP16 DUP9 DUP2 MLOAD DUP2 LT PUSH2 0x640 JUMPI INVALID JUMPDEST PUSH1 0x20 MUL PUSH1 0x20 ADD ADD MLOAD DUP6 PUSH1 0x40 MLOAD DUP5 PUSH4 0xFFFFFFFF AND PUSH1 0xE0 SHL DUP2 MSTORE PUSH1 0x4 ADD DUP1 DUP5 PUSH20 0xFFFFFFFFFFFFFFFFFFFFFFFFFFFFFFFFFFFFFFFF AND PUSH20 0xFFFFFFFFFFFFFFFFFFFFFFFFFFFFFFFFFFFFFFFF AND DUP2 MSTORE PUSH1 0x20 ADD DUP4 PUSH20 0xFFFFFFFFFFFFFFFFFFFFFFFFFFFFFFFFFFFFFFFF AND PUSH20 0xFFFFFFFFFFFFFFFFFFFFFFFFFFFFFFFFFFFFFFFF AND DUP2 MSTORE PUSH1 0x20 ADD DUP3 DUP2 MSTORE PUSH1 0x20 ADD SWAP4 POP POP POP POP PUSH1 0x40 DUP1 MLOAD DUP1 DUP4 SUB DUP2 DUP7 DUP1 EXTCODESIZE ISZERO DUP1 ISZERO PUSH2 0x6E2 JUMPI PUSH1 0x0 DUP1 REVERT JUMPDEST POP GAS STATICCALL ISZERO DUP1 ISZERO PUSH2 0x6F6 JUMPI RETURNDATASIZE PUSH1 0x0 DUP1 RETURNDATACOPY RETURNDATASIZE PUSH1 0x0 REVERT JUMPDEST POP POP POP POP PUSH1 0x40 MLOAD RETURNDATASIZE PUSH1 0x40 DUP2 LT ISZERO PUSH2 0x70C JUMPI PUSH1 0x0 DUP1 REVERT JUMPDEST DUP2 ADD SWAP1 DUP1 DUP1 MLOAD SWAP1 PUSH1 0x20 ADD SWAP1 SWAP3 SWAP2 SWAP1 DUP1 MLOAD SWAP1 PUSH1 0x20 ADD SWAP1 SWAP3 SWAP2 SWAP1 POP POP POP POP DUP1 SWAP2 POP POP DUP1 DUP7 DUP7 DUP2 MLOAD DUP2 LT PUSH2 0x739 JUMPI INVALID JUMPDEST PUSH1 0x20 MUL PUSH1 0x20 ADD ADD DUP2 DUP2 MSTORE POP POP POP POP POP POP DUP1 DUP1 PUSH1 0x1 ADD SWAP2 POP POP PUSH2 0x2C0 JUMP JUMPDEST POP DUP3 DUP3 DUP3 DUP11 SWAP7 POP SWAP7 POP SWAP7 POP SWAP7 POP POP POP POP SWAP2 SWAP4 POP SWAP2 SWAP4 JUMP INVALID LOG2 PUSH6 0x627A7A723158 KECCAK256 0xB5 0xC4 0xFB 0xC9 0xA8 0xDC PUSH11 0x2DD8B4382E61593EFE5CC5 DUP12 KECCAK256 PUSH15 0xE9FEEA5C0C0C721BAD116564736F6C PUSH4 0x43000511 STOP ORIGIN "
				},
				"gasEstimates": {
					"creation": {
						"codeDepositCost": "390800",
						"executionCost": "42164",
						"totalCost": "432964"
					},
					"external": {
						"getPrices(address[])": "infinite"
					},
					"internal": {
						"getDecimals(contract IERC20Token)": "infinite",
						"getMultiplier(contract IERC20Token)": "infinite"
					}
				},
				"methodIdentifiers": {
					"getPrices(address[])": "8fb5a482"
				}
			},
			"userdoc": {
				"methods": {}
			}
		}
	}
}