{
	"input/CreateWin.sol": {
		"UtilCreateWin": {
			"abi": [
				{
					"constant": true,
					"inputs": [
						{
							"internalType": "string",
							"name": "_str",
							"type": "string"
						},
						{
							"internalType": "string",
							"name": "str",
							"type": "string"
						}
					],
					"name": "compareStr",
					"outputs": [
						{
							"internalType": "bool",
							"name": "",
							"type": "bool"
						}
					],
					"payable": false,
					"stateMutability": "view",
					"type": "function"
				},
				{
					"constant": true,
					"inputs": [
						{
							"internalType": "uint256",
							"name": "level",
							"type": "uint256"
						}
					],
					"name": "getFireScByLevel",
					"outputs": [
						{
							"internalType": "uint256",
							"name": "",
							"type": "uint256"
						}
					],
					"payable": false,
					"stateMutability": "view",
					"type": "function"
				},
				{
					"constant": true,
					"inputs": [
						{
							"internalType": "uint256",
							"name": "value",
							"type": "uint256"
						}
					],
					"name": "getLevel",
					"outputs": [
						{
							"internalType": "uint256",
							"name": "",
							"type": "uint256"
						}
					],
					"payable": false,
					"stateMutability": "view",
					"type": "function"
				},
				{
					"constant": true,
					"inputs": [
						{
							"internalType": "uint256",
							"name": "value",
							"type": "uint256"
						}
					],
					"name": "getNodeLevel",
					"outputs": [
						{
							"internalType": "uint256",
							"name": "",
							"type": "uint256"
						}
					],
					"payable": false,
					"stateMutability": "view",
					"type": "function"
				},
				{
					"constant": true,
					"inputs": [
						{
							"internalType": "uint256",
							"name": "level",
							"type": "uint256"
						},
						{
							"internalType": "uint256",
							"name": "times",
							"type": "uint256"
						}
					],
					"name": "getRecommendScaleByLevelAndTim",
					"outputs": [
						{
							"internalType": "uint256",
							"name": "",
							"type": "uint256"
						}
					],
					"payable": false,
					"stateMutability": "view",
					"type": "function"
				},
				{
					"constant": true,
					"inputs": [
						{
							"internalType": "uint256",
							"name": "level",
							"type": "uint256"
						}
					],
					"name": "getScByLevel",
					"outputs": [
						{
							"internalType": "uint256",
							"name": "",
							"type": "uint256"
						}
					],
					"payable": false,
					"stateMutability": "view",
					"type": "function"
				}
			],
			"devdoc": {
				"methods": {}
			},
			"evm": {
				"assembly": "    /* \"input/CreateWin.sol\":25:1789  contract UtilCreateWin {... */\n  mstore(0x40, 0x80)\n    /* \"input/CreateWin.sol\":65:72  1 ether */\n  0x0de0b6b3a7640000\n    /* \"input/CreateWin.sol\":51:72  uint ethWei = 1 ether */\n  0x00\n  sstore\n    /* \"input/CreateWin.sol\":25:1789  contract UtilCreateWin {... */\n  callvalue\n    /* \"--CODEGEN--\":8:17   */\n  dup1\n    /* \"--CODEGEN--\":5:7   */\n  iszero\n  tag_1\n  jumpi\n    /* \"--CODEGEN--\":30:31   */\n  0x00\n    /* \"--CODEGEN--\":27:28   */\n  dup1\n    /* \"--CODEGEN--\":20:32   */\n  revert\n    /* \"--CODEGEN--\":5:7   */\ntag_1:\n    /* \"input/CreateWin.sol\":25:1789  contract UtilCreateWin {... */\n  pop\n  dataSize(sub_0)\n  dup1\n  dataOffset(sub_0)\n  0x00\n  codecopy\n  0x00\n  return\nstop\n\nsub_0: assembly {\n        /* \"input/CreateWin.sol\":25:1789  contract UtilCreateWin {... */\n      mstore(0x40, 0x80)\n      callvalue\n        /* \"--CODEGEN--\":8:17   */\n      dup1\n        /* \"--CODEGEN--\":5:7   */\n      iszero\n      tag_1\n      jumpi\n        /* \"--CODEGEN--\":30:31   */\n      0x00\n        /* \"--CODEGEN--\":27:28   */\n      dup1\n        /* \"--CODEGEN--\":20:32   */\n      revert\n        /* \"--CODEGEN--\":5:7   */\n    tag_1:\n        /* \"input/CreateWin.sol\":25:1789  contract UtilCreateWin {... */\n      pop\n      jumpi(tag_2, lt(calldatasize, 0x04))\n      shr(0xe0, calldataload(0x00))\n      dup1\n      0x1ceae42f\n      eq\n      tag_3\n      jumpi\n      dup1\n      0x26eebf41\n      eq\n      tag_4\n      jumpi\n      dup1\n      0x86481d40\n      eq\n      tag_5\n      jumpi\n      dup1\n      0x87c5d5cc\n      eq\n      tag_6\n      jumpi\n      dup1\n      0xe08f0797\n      eq\n      tag_7\n      jumpi\n      dup1\n      0xf7ad55d9\n      eq\n      tag_8\n      jumpi\n    tag_2:\n      0x00\n      dup1\n      revert\n        /* \"input/CreateWin.sol\":362:625  function getNodeLevel(uint value) public view returns (uint) {... */\n    tag_3:\n      tag_9\n      0x04\n      dup1\n      calldatasize\n      sub\n        /* \"--CODEGEN--\":13:15   */\n      0x20\n        /* \"--CODEGEN--\":8:11   */\n      dup2\n        /* \"--CODEGEN--\":5:16   */\n      lt\n        /* \"--CODEGEN--\":2:4   */\n      iszero\n      tag_10\n      jumpi\n        /* \"--CODEGEN--\":29:30   */\n      0x00\n        /* \"--CODEGEN--\":26:27   */\n      dup1\n        /* \"--CODEGEN--\":19:31   */\n      revert\n        /* \"--CODEGEN--\":2:4   */\n    tag_10:\n        /* \"input/CreateWin.sol\":362:625  function getNodeLevel(uint value) public view returns (uint) {... */\n      dup2\n      add\n      swap1\n      dup1\n      dup1\n      calldataload\n      swap1\n      0x20\n      add\n      swap1\n      swap3\n      swap2\n      swap1\n      pop\n      pop\n      pop\n      tag_11\n      jump\t// in\n    tag_9:\n      mload(0x40)\n      dup1\n      dup3\n      dup2\n      mstore\n      0x20\n      add\n      swap2\n      pop\n      pop\n      mload(0x40)\n      dup1\n      swap2\n      sub\n      swap1\n      return\n        /* \"input/CreateWin.sol\":1016:1579  function getRecommendScaleByLevelAndTim(uint level, uint times) public pure returns (uint){... */\n    tag_4:\n      tag_12\n      0x04\n      dup1\n      calldatasize\n      sub\n        /* \"--CODEGEN--\":13:15   */\n      0x40\n        /* \"--CODEGEN--\":8:11   */\n      dup2\n        /* \"--CODEGEN--\":5:16   */\n      lt\n        /* \"--CODEGEN--\":2:4   */\n      iszero\n      tag_13\n      jumpi\n        /* \"--CODEGEN--\":29:30   */\n      0x00\n        /* \"--CODEGEN--\":26:27   */\n      dup1\n        /* \"--CODEGEN--\":19:31   */\n      revert\n        /* \"--CODEGEN--\":2:4   */\n    tag_13:\n        /* \"input/CreateWin.sol\":1016:1579  function getRecommendScaleByLevelAndTim(uint level, uint times) public pure returns (uint){... */\n      dup2\n      add\n      swap1\n      dup1\n      dup1\n      calldataload\n      swap1\n      0x20\n      add\n      swap1\n      swap3\n      swap2\n      swap1\n      dup1\n      calldataload\n      swap1\n      0x20\n      add\n      swap1\n      swap3\n      swap2\n      swap1\n      pop\n      pop\n      pop\n      tag_14\n      jump\t// in\n    tag_12:\n      mload(0x40)\n      dup1\n      dup3\n      dup2\n      mstore\n      0x20\n      add\n      swap2\n      pop\n      pop\n      mload(0x40)\n      dup1\n      swap2\n      sub\n      swap1\n      return\n        /* \"input/CreateWin.sol\":76:359  function getLevel(uint value) public view returns (uint) {... */\n    tag_5:\n      tag_15\n      0x04\n      dup1\n      calldatasize\n      sub\n        /* \"--CODEGEN--\":13:15   */\n      0x20\n        /* \"--CODEGEN--\":8:11   */\n      dup2\n        /* \"--CODEGEN--\":5:16   */\n      lt\n        /* \"--CODEGEN--\":2:4   */\n      iszero\n      tag_16\n      jumpi\n        /* \"--CODEGEN--\":29:30   */\n      0x00\n        /* \"--CODEGEN--\":26:27   */\n      dup1\n        /* \"--CODEGEN--\":19:31   */\n      revert\n        /* \"--CODEGEN--\":2:4   */\n    tag_16:\n        /* \"input/CreateWin.sol\":76:359  function getLevel(uint value) public view returns (uint) {... */\n      dup2\n      add\n      swap1\n      dup1\n      dup1\n      calldataload\n      swap1\n      0x20\n      add\n      swap1\n      swap3\n      swap2\n      swap1\n      pop\n      pop\n      pop\n      tag_17\n      jump\t// in\n    tag_15:\n      mload(0x40)\n      dup1\n      dup3\n      dup2\n      mstore\n      0x20\n      add\n      swap2\n      pop\n      pop\n      mload(0x40)\n      dup1\n      swap2\n      sub\n      swap1\n      return\n        /* \"input/CreateWin.sol\":1582:1787  function compareStr(string memory _str, string memory str) public pure returns (bool) {... */\n    tag_6:\n      tag_18\n      0x04\n      dup1\n      calldatasize\n      sub\n        /* \"--CODEGEN--\":13:15   */\n      0x40\n        /* \"--CODEGEN--\":8:11   */\n      dup2\n        /* \"--CODEGEN--\":5:16   */\n      lt\n        /* \"--CODEGEN--\":2:4   */\n      iszero\n      tag_19\n      jumpi\n        /* \"--CODEGEN--\":29:30   */\n      0x00\n        /* \"--CODEGEN--\":26:27   */\n      dup1\n        /* \"--CODEGEN--\":19:31   */\n      revert\n        /* \"--CODEGEN--\":2:4   */\n    tag_19:\n        /* \"input/CreateWin.sol\":1582:1787  function compareStr(string memory _str, string memory str) public pure returns (bool) {... */\n      dup2\n      add\n      swap1\n      dup1\n      dup1\n      calldataload\n      swap1\n      0x20\n      add\n      swap1\n        /* \"--CODEGEN--\":21:32   */\n      0x0100000000\n        /* \"--CODEGEN--\":8:19   */\n      dup2\n        /* \"--CODEGEN--\":5:33   */\n      gt\n        /* \"--CODEGEN--\":2:4   */\n      iszero\n      tag_20\n      jumpi\n        /* \"--CODEGEN--\":46:47   */\n      0x00\n        /* \"--CODEGEN--\":43:44   */\n      dup1\n        /* \"--CODEGEN--\":36:48   */\n      revert\n        /* \"--CODEGEN--\":2:4   */\n    tag_20:\n        /* \"input/CreateWin.sol\":1582:1787  function compareStr(string memory _str, string memory str) public pure returns (bool) {... */\n      dup3\n      add\n        /* \"--CODEGEN--\":35:44   */\n      dup4\n        /* \"--CODEGEN--\":28:32   */\n      0x20\n        /* \"--CODEGEN--\":12:26   */\n      dup3\n        /* \"--CODEGEN--\":8:33   */\n      add\n        /* \"--CODEGEN--\":5:45   */\n      gt\n        /* \"--CODEGEN--\":2:4   */\n      iszero\n      tag_21\n      jumpi\n        /* \"--CODEGEN--\":58:59   */\n      0x00\n        /* \"--CODEGEN--\":55:56   */\n      dup1\n        /* \"--CODEGEN--\":48:60   */\n      revert\n        /* \"--CODEGEN--\":2:4   */\n    tag_21:\n        /* \"input/CreateWin.sol\":1582:1787  function compareStr(string memory _str, string memory str) public pure returns (bool) {... */\n      dup1\n      calldataload\n      swap1\n      0x20\n      add\n      swap2\n        /* \"--CODEGEN--\":100:109   */\n      dup5\n        /* \"--CODEGEN--\":95:96   */\n      0x01\n        /* \"--CODEGEN--\":81:93   */\n      dup4\n        /* \"--CODEGEN--\":77:97   */\n      mul\n        /* \"--CODEGEN--\":67:75   */\n      dup5\n        /* \"--CODEGEN--\":63:98   */\n      add\n        /* \"--CODEGEN--\":60:110   */\n      gt\n        /* \"--CODEGEN--\":39:50   */\n      0x0100000000\n        /* \"--CODEGEN--\":25:37   */\n      dup4\n        /* \"--CODEGEN--\":22:51   */\n      gt\n        /* \"--CODEGEN--\":11:118   */\n      or\n        /* \"--CODEGEN--\":8:10   */\n      iszero\n      tag_22\n      jumpi\n        /* \"--CODEGEN--\":131:132   */\n      0x00\n        /* \"--CODEGEN--\":128:129   */\n      dup1\n        /* \"--CODEGEN--\":121:133   */\n      revert\n        /* \"--CODEGEN--\":8:10   */\n    tag_22:\n        /* \"input/CreateWin.sol\":1582:1787  function compareStr(string memory _str, string memory str) public pure returns (bool) {... */\n      swap2\n      swap1\n      dup1\n      dup1\n      0x1f\n      add\n      0x20\n      dup1\n      swap2\n      div\n      mul\n      0x20\n      add\n      mload(0x40)\n      swap1\n      dup2\n      add\n      0x40\n      mstore\n      dup1\n      swap4\n      swap3\n      swap2\n      swap1\n      dup2\n      dup2\n      mstore\n      0x20\n      add\n      dup4\n      dup4\n        /* \"--CODEGEN--\":30:33   */\n      dup1\n        /* \"--CODEGEN--\":22:28   */\n      dup3\n        /* \"--CODEGEN--\":14:20   */\n      dup5\n        /* \"--CODEGEN--\":1:34   */\n      calldatacopy\n        /* \"--CODEGEN--\":99:100   */\n      0x00\n        /* \"--CODEGEN--\":93:96   */\n      dup2\n        /* \"--CODEGEN--\":85:91   */\n      dup5\n        /* \"--CODEGEN--\":81:97   */\n      add\n        /* \"--CODEGEN--\":74:101   */\n      mstore\n        /* \"--CODEGEN--\":137:141   */\n      0x1f\n        /* \"--CODEGEN--\":133:142   */\n      not\n        /* \"--CODEGEN--\":126:130   */\n      0x1f\n        /* \"--CODEGEN--\":121:124   */\n      dup3\n        /* \"--CODEGEN--\":117:131   */\n      add\n        /* \"--CODEGEN--\":113:143   */\n      and\n        /* \"--CODEGEN--\":106:143   */\n      swap1\n      pop\n        /* \"--CODEGEN--\":169:172   */\n      dup1\n        /* \"--CODEGEN--\":161:167   */\n      dup4\n        /* \"--CODEGEN--\":157:173   */\n      add\n        /* \"--CODEGEN--\":147:173   */\n      swap3\n      pop\n        /* \"input/CreateWin.sol\":1582:1787  function compareStr(string memory _str, string memory str) public pure returns (bool) {... */\n      pop\n      pop\n      pop\n      pop\n      pop\n      pop\n      swap2\n      swap3\n      swap2\n      swap3\n      swap1\n      dup1\n      calldataload\n      swap1\n      0x20\n      add\n      swap1\n        /* \"--CODEGEN--\":21:32   */\n      0x0100000000\n        /* \"--CODEGEN--\":8:19   */\n      dup2\n        /* \"--CODEGEN--\":5:33   */\n      gt\n        /* \"--CODEGEN--\":2:4   */\n      iszero\n      tag_23\n      jumpi\n        /* \"--CODEGEN--\":46:47   */\n      0x00\n        /* \"--CODEGEN--\":43:44   */\n      dup1\n        /* \"--CODEGEN--\":36:48   */\n      revert\n        /* \"--CODEGEN--\":2:4   */\n    tag_23:\n        /* \"input/CreateWin.sol\":1582:1787  function compareStr(string memory _str, string memory str) public pure returns (bool) {... */\n      dup3\n      add\n        /* \"--CODEGEN--\":35:44   */\n      dup4\n        /* \"--CODEGEN--\":28:32   */\n      0x20\n        /* \"--CODEGEN--\":12:26   */\n      dup3\n        /* \"--CODEGEN--\":8:33   */\n      add\n        /* \"--CODEGEN--\":5:45   */\n      gt\n        /* \"--CODEGEN--\":2:4   */\n      iszero\n      tag_24\n      jumpi\n        /* \"--CODEGEN--\":58:59   */\n      0x00\n        /* \"--CODEGEN--\":55:56   */\n      dup1\n        /* \"--CODEGEN--\":48:60   */\n      revert\n        /* \"--CODEGEN--\":2:4   */\n    tag_24:\n        /* \"input/CreateWin.sol\":1582:1787  function compareStr(string memory _str, string memory str) public pure returns (bool) {... */\n      dup1\n      calldataload\n      swap1\n      0x20\n      add\n      swap2\n        /* \"--CODEGEN--\":100:109   */\n      dup5\n        /* \"--CODEGEN--\":95:96   */\n      0x01\n        /* \"--CODEGEN--\":81:93   */\n      dup4\n        /* \"--CODEGEN--\":77:97   */\n      mul\n        /* \"--CODEGEN--\":67:75   */\n      dup5\n        /* \"--CODEGEN--\":63:98   */\n      add\n        /* \"--CODEGEN--\":60:110   */\n      gt\n        /* \"--CODEGEN--\":39:50   */\n      0x0100000000\n        /* \"--CODEGEN--\":25:37   */\n      dup4\n        /* \"--CODEGEN--\":22:51   */\n      gt\n        /* \"--CODEGEN--\":11:118   */\n      or\n        /* \"--CODEGEN--\":8:10   */\n      iszero\n      tag_25\n      jumpi\n        /* \"--CODEGEN--\":131:132   */\n      0x00\n        /* \"--CODEGEN--\":128:129   */\n      dup1\n        /* \"--CODEGEN--\":121:133   */\n      revert\n        /* \"--CODEGEN--\":8:10   */\n    tag_25:\n        /* \"input/CreateWin.sol\":1582:1787  function compareStr(string memory _str, string memory str) public pure returns (bool) {... */\n      swap2\n      swap1\n      dup1\n      dup1\n      0x1f\n      add\n      0x20\n      dup1\n      swap2\n      div\n      mul\n      0x20\n      add\n      mload(0x40)\n      swap1\n      dup2\n      add\n      0x40\n      mstore\n      dup1\n      swap4\n      swap3\n      swap2\n      swap1\n      dup2\n      dup2\n      mstore\n      0x20\n      add\n      dup4\n      dup4\n        /* \"--CODEGEN--\":30:33   */\n      dup1\n        /* \"--CODEGEN--\":22:28   */\n      dup3\n        /* \"--CODEGEN--\":14:20   */\n      dup5\n        /* \"--CODEGEN--\":1:34   */\n      calldatacopy\n        /* \"--CODEGEN--\":99:100   */\n      0x00\n        /* \"--CODEGEN--\":93:96   */\n      dup2\n        /* \"--CODEGEN--\":85:91   */\n      dup5\n        /* \"--CODEGEN--\":81:97   */\n      add\n        /* \"--CODEGEN--\":74:101   */\n      mstore\n        /* \"--CODEGEN--\":137:141   */\n      0x1f\n        /* \"--CODEGEN--\":133:142   */\n      not\n        /* \"--CODEGEN--\":126:130   */\n      0x1f\n        /* \"--CODEGEN--\":121:124   */\n      dup3\n        /* \"--CODEGEN--\":117:131   */\n      add\n        /* \"--CODEGEN--\":113:143   */\n      and\n        /* \"--CODEGEN--\":106:143   */\n      swap1\n      pop\n        /* \"--CODEGEN--\":169:172   */\n      dup1\n        /* \"--CODEGEN--\":161:167   */\n      dup4\n        /* \"--CODEGEN--\":157:173   */\n      add\n        /* \"--CODEGEN--\":147:173   */\n      swap3\n      pop\n        /* \"input/CreateWin.sol\":1582:1787  function compareStr(string memory _str, string memory str) public pure returns (bool) {... */\n      pop\n      pop\n      pop\n      pop\n      pop\n      pop\n      swap2\n      swap3\n      swap2\n      swap3\n      swap1\n      pop\n      pop\n      pop\n      tag_26\n      jump\t// in\n    tag_18:\n      mload(0x40)\n      dup1\n      dup3\n      iszero\n      iszero\n      iszero\n      iszero\n      dup2\n      mstore\n      0x20\n      add\n      swap2\n      pop\n      pop\n      mload(0x40)\n      dup1\n      swap2\n      sub\n      swap1\n      return\n        /* \"input/CreateWin.sol\":820:1013  function getFireScByLevel(uint level) public pure returns (uint) {... */\n    tag_7:\n      tag_27\n      0x04\n      dup1\n      calldatasize\n      sub\n        /* \"--CODEGEN--\":13:15   */\n      0x20\n        /* \"--CODEGEN--\":8:11   */\n      dup2\n        /* \"--CODEGEN--\":5:16   */\n      lt\n        /* \"--CODEGEN--\":2:4   */\n      iszero\n      tag_28\n      jumpi\n        /* \"--CODEGEN--\":29:30   */\n      0x00\n        /* \"--CODEGEN--\":26:27   */\n      dup1\n        /* \"--CODEGEN--\":19:31   */\n      revert\n        /* \"--CODEGEN--\":2:4   */\n    tag_28:\n        /* \"input/CreateWin.sol\":820:1013  function getFireScByLevel(uint level) public pure returns (uint) {... */\n      dup2\n      add\n      swap1\n      dup1\n      dup1\n      calldataload\n      swap1\n      0x20\n      add\n      swap1\n      swap3\n      swap2\n      swap1\n      pop\n      pop\n      pop\n      tag_29\n      jump\t// in\n    tag_27:\n      mload(0x40)\n      dup1\n      dup3\n      dup2\n      mstore\n      0x20\n      add\n      swap2\n      pop\n      pop\n      mload(0x40)\n      dup1\n      swap2\n      sub\n      swap1\n      return\n        /* \"input/CreateWin.sol\":628:817  function getScByLevel(uint level) public pure returns (uint) {... */\n    tag_8:\n      tag_30\n      0x04\n      dup1\n      calldatasize\n      sub\n        /* \"--CODEGEN--\":13:15   */\n      0x20\n        /* \"--CODEGEN--\":8:11   */\n      dup2\n        /* \"--CODEGEN--\":5:16   */\n      lt\n        /* \"--CODEGEN--\":2:4   */\n      iszero\n      tag_31\n      jumpi\n        /* \"--CODEGEN--\":29:30   */\n      0x00\n        /* \"--CODEGEN--\":26:27   */\n      dup1\n        /* \"--CODEGEN--\":19:31   */\n      revert\n        /* \"--CODEGEN--\":2:4   */\n    tag_31:\n        /* \"input/CreateWin.sol\":628:817  function getScByLevel(uint level) public pure returns (uint) {... */\n      dup2\n      add\n      swap1\n      dup1\n      dup1\n      calldataload\n      swap1\n      0x20\n      add\n      swap1\n      swap3\n      swap2\n      swap1\n      pop\n      pop\n      pop\n      tag_32\n      jump\t// in\n    tag_30:\n      mload(0x40)\n      dup1\n      dup3\n      dup2\n      mstore\n      0x20\n      add\n      swap2\n      pop\n      pop\n      mload(0x40)\n      dup1\n      swap2\n      sub\n      swap1\n      return\n        /* \"input/CreateWin.sol\":362:625  function getNodeLevel(uint value) public view returns (uint) {... */\n    tag_11:\n        /* \"input/CreateWin.sol\":417:421  uint */\n      0x00\n        /* \"input/CreateWin.sol\":444:450  ethWei */\n      dup1\n      sload\n        /* \"input/CreateWin.sol\":440:441  1 */\n      0x01\n        /* \"input/CreateWin.sol\":440:450  1 * ethWei */\n      mul\n        /* \"input/CreateWin.sol\":431:436  value */\n      dup3\n        /* \"input/CreateWin.sol\":431:450  value >= 1 * ethWei */\n      lt\n      iszero\n        /* \"input/CreateWin.sol\":431:473  value >= 1 * ethWei && value <= 5 * ethWei */\n      dup1\n      iszero\n      tag_34\n      jumpi\n      pop\n        /* \"input/CreateWin.sol\":467:473  ethWei */\n      sload(0x00)\n        /* \"input/CreateWin.sol\":463:464  5 */\n      0x05\n        /* \"input/CreateWin.sol\":463:473  5 * ethWei */\n      mul\n        /* \"input/CreateWin.sol\":454:459  value */\n      dup3\n        /* \"input/CreateWin.sol\":454:473  value <= 5 * ethWei */\n      gt\n      iszero\n        /* \"input/CreateWin.sol\":431:473  value >= 1 * ethWei && value <= 5 * ethWei */\n    tag_34:\n        /* \"input/CreateWin.sol\":427:493  if (value >= 1 * ethWei && value <= 5 * ethWei) {... */\n      iszero\n      tag_35\n      jumpi\n        /* \"input/CreateWin.sol\":487:488  1 */\n      0x01\n        /* \"input/CreateWin.sol\":480:488  return 1 */\n      swap1\n      pop\n      jump(tag_33)\n        /* \"input/CreateWin.sol\":427:493  if (value >= 1 * ethWei && value <= 5 * ethWei) {... */\n    tag_35:\n        /* \"input/CreateWin.sol\":513:519  ethWei */\n      sload(0x00)\n        /* \"input/CreateWin.sol\":509:510  6 */\n      0x06\n        /* \"input/CreateWin.sol\":509:519  6 * ethWei */\n      mul\n        /* \"input/CreateWin.sol\":500:505  value */\n      dup3\n        /* \"input/CreateWin.sol\":500:519  value >= 6 * ethWei */\n      lt\n      iszero\n        /* \"input/CreateWin.sol\":500:543  value >= 6 * ethWei && value <= 10 * ethWei */\n      dup1\n      iszero\n      tag_36\n      jumpi\n      pop\n        /* \"input/CreateWin.sol\":537:543  ethWei */\n      sload(0x00)\n        /* \"input/CreateWin.sol\":532:534  10 */\n      0x0a\n        /* \"input/CreateWin.sol\":532:543  10 * ethWei */\n      mul\n        /* \"input/CreateWin.sol\":523:528  value */\n      dup3\n        /* \"input/CreateWin.sol\":523:543  value <= 10 * ethWei */\n      gt\n      iszero\n        /* \"input/CreateWin.sol\":500:543  value >= 6 * ethWei && value <= 10 * ethWei */\n    tag_36:\n        /* \"input/CreateWin.sol\":496:563  if (value >= 6 * ethWei && value <= 10 * ethWei) {... */\n      iszero\n      tag_37\n      jumpi\n        /* \"input/CreateWin.sol\":557:558  2 */\n      0x02\n        /* \"input/CreateWin.sol\":550:558  return 2 */\n      swap1\n      pop\n      jump(tag_33)\n        /* \"input/CreateWin.sol\":496:563  if (value >= 6 * ethWei && value <= 10 * ethWei) {... */\n    tag_37:\n        /* \"input/CreateWin.sol\":584:590  ethWei */\n      sload(0x00)\n        /* \"input/CreateWin.sol\":579:581  11 */\n      0x0b\n        /* \"input/CreateWin.sol\":579:590  11 * ethWei */\n      mul\n        /* \"input/CreateWin.sol\":570:575  value */\n      dup3\n        /* \"input/CreateWin.sol\":570:590  value >= 11 * ethWei */\n      lt\n        /* \"input/CreateWin.sol\":566:610  if (value >= 11 * ethWei) {... */\n      tag_38\n      jumpi\n        /* \"input/CreateWin.sol\":604:605  3 */\n      0x03\n        /* \"input/CreateWin.sol\":597:605  return 3 */\n      swap1\n      pop\n      jump(tag_33)\n        /* \"input/CreateWin.sol\":566:610  if (value >= 11 * ethWei) {... */\n    tag_38:\n        /* \"input/CreateWin.sol\":620:621  0 */\n      0x00\n        /* \"input/CreateWin.sol\":613:621  return 0 */\n      swap1\n      pop\n        /* \"input/CreateWin.sol\":362:625  function getNodeLevel(uint value) public view returns (uint) {... */\n    tag_33:\n      swap2\n      swap1\n      pop\n      jump\t// out\n        /* \"input/CreateWin.sol\":1016:1579  function getRecommendScaleByLevelAndTim(uint level, uint times) public pure returns (uint){... */\n    tag_14:\n        /* \"input/CreateWin.sol\":1101:1105  uint */\n      0x00\n        /* \"input/CreateWin.sol\":1123:1124  1 */\n      0x01\n        /* \"input/CreateWin.sol\":1114:1119  level */\n      dup4\n        /* \"input/CreateWin.sol\":1114:1124  level == 1 */\n      eq\n        /* \"input/CreateWin.sol\":1114:1138  level == 1 && times == 1 */\n      dup1\n      iszero\n      tag_40\n      jumpi\n      pop\n        /* \"input/CreateWin.sol\":1137:1138  1 */\n      0x01\n        /* \"input/CreateWin.sol\":1128:1133  times */\n      dup3\n        /* \"input/CreateWin.sol\":1128:1138  times == 1 */\n      eq\n        /* \"input/CreateWin.sol\":1114:1138  level == 1 && times == 1 */\n    tag_40:\n        /* \"input/CreateWin.sol\":1110:1159  if (level == 1 && times == 1) {... */\n      iszero\n      tag_41\n      jumpi\n        /* \"input/CreateWin.sol\":1152:1154  50 */\n      0x32\n        /* \"input/CreateWin.sol\":1145:1154  return 50 */\n      swap1\n      pop\n      jump(tag_39)\n        /* \"input/CreateWin.sol\":1110:1159  if (level == 1 && times == 1) {... */\n    tag_41:\n        /* \"input/CreateWin.sol\":1175:1176  2 */\n      0x02\n        /* \"input/CreateWin.sol\":1166:1171  level */\n      dup4\n        /* \"input/CreateWin.sol\":1166:1176  level == 2 */\n      eq\n        /* \"input/CreateWin.sol\":1166:1190  level == 2 && times == 1 */\n      dup1\n      iszero\n      tag_42\n      jumpi\n      pop\n        /* \"input/CreateWin.sol\":1189:1190  1 */\n      0x01\n        /* \"input/CreateWin.sol\":1180:1185  times */\n      dup3\n        /* \"input/CreateWin.sol\":1180:1190  times == 1 */\n      eq\n        /* \"input/CreateWin.sol\":1166:1190  level == 2 && times == 1 */\n    tag_42:\n        /* \"input/CreateWin.sol\":1162:1211  if (level == 2 && times == 1) {... */\n      iszero\n      tag_43\n      jumpi\n        /* \"input/CreateWin.sol\":1204:1206  70 */\n      0x46\n        /* \"input/CreateWin.sol\":1197:1206  return 70 */\n      swap1\n      pop\n      jump(tag_39)\n        /* \"input/CreateWin.sol\":1162:1211  if (level == 2 && times == 1) {... */\n    tag_43:\n        /* \"input/CreateWin.sol\":1227:1228  2 */\n      0x02\n        /* \"input/CreateWin.sol\":1218:1223  level */\n      dup4\n        /* \"input/CreateWin.sol\":1218:1228  level == 2 */\n      eq\n        /* \"input/CreateWin.sol\":1218:1242  level == 2 && times == 2 */\n      dup1\n      iszero\n      tag_44\n      jumpi\n      pop\n        /* \"input/CreateWin.sol\":1241:1242  2 */\n      0x02\n        /* \"input/CreateWin.sol\":1232:1237  times */\n      dup3\n        /* \"input/CreateWin.sol\":1232:1242  times == 2 */\n      eq\n        /* \"input/CreateWin.sol\":1218:1242  level == 2 && times == 2 */\n    tag_44:\n        /* \"input/CreateWin.sol\":1214:1263  if (level == 2 && times == 2) {... */\n      iszero\n      tag_45\n      jumpi\n        /* \"input/CreateWin.sol\":1256:1258  50 */\n      0x32\n        /* \"input/CreateWin.sol\":1249:1258  return 50 */\n      swap1\n      pop\n      jump(tag_39)\n        /* \"input/CreateWin.sol\":1214:1263  if (level == 2 && times == 2) {... */\n    tag_45:\n        /* \"input/CreateWin.sol\":1279:1280  3 */\n      0x03\n        /* \"input/CreateWin.sol\":1270:1275  level */\n      dup4\n        /* \"input/CreateWin.sol\":1270:1280  level == 3 */\n      eq\n        /* \"input/CreateWin.sol\":1266:1564  if (level == 3) {... */\n      iszero\n      tag_46\n      jumpi\n        /* \"input/CreateWin.sol\":1300:1301  1 */\n      0x01\n        /* \"input/CreateWin.sol\":1291:1296  times */\n      dup3\n        /* \"input/CreateWin.sol\":1291:1301  times == 1 */\n      eq\n        /* \"input/CreateWin.sol\":1287:1325  if (times == 1) {... */\n      iszero\n      tag_47\n      jumpi\n        /* \"input/CreateWin.sol\":1316:1319  100 */\n      0x64\n        /* \"input/CreateWin.sol\":1309:1319  return 100 */\n      swap1\n      pop\n      jump(tag_39)\n        /* \"input/CreateWin.sol\":1287:1325  if (times == 1) {... */\n    tag_47:\n        /* \"input/CreateWin.sol\":1342:1343  2 */\n      0x02\n        /* \"input/CreateWin.sol\":1333:1338  times */\n      dup3\n        /* \"input/CreateWin.sol\":1333:1343  times == 2 */\n      eq\n        /* \"input/CreateWin.sol\":1329:1366  if (times == 2) {... */\n      iszero\n      tag_48\n      jumpi\n        /* \"input/CreateWin.sol\":1358:1360  70 */\n      0x46\n        /* \"input/CreateWin.sol\":1351:1360  return 70 */\n      swap1\n      pop\n      jump(tag_39)\n        /* \"input/CreateWin.sol\":1329:1366  if (times == 2) {... */\n    tag_48:\n        /* \"input/CreateWin.sol\":1383:1384  3 */\n      0x03\n        /* \"input/CreateWin.sol\":1374:1379  times */\n      dup3\n        /* \"input/CreateWin.sol\":1374:1384  times == 3 */\n      eq\n        /* \"input/CreateWin.sol\":1370:1407  if (times == 3) {... */\n      iszero\n      tag_49\n      jumpi\n        /* \"input/CreateWin.sol\":1399:1401  50 */\n      0x32\n        /* \"input/CreateWin.sol\":1392:1401  return 50 */\n      swap1\n      pop\n      jump(tag_39)\n        /* \"input/CreateWin.sol\":1370:1407  if (times == 3) {... */\n    tag_49:\n        /* \"input/CreateWin.sol\":1424:1425  4 */\n      0x04\n        /* \"input/CreateWin.sol\":1415:1420  times */\n      dup3\n        /* \"input/CreateWin.sol\":1415:1425  times >= 4 */\n      lt\n      iszero\n        /* \"input/CreateWin.sol\":1415:1440  times >= 4 && times <= 10 */\n      dup1\n      iszero\n      tag_50\n      jumpi\n      pop\n        /* \"input/CreateWin.sol\":1438:1440  10 */\n      0x0a\n        /* \"input/CreateWin.sol\":1429:1434  times */\n      dup3\n        /* \"input/CreateWin.sol\":1429:1440  times <= 10 */\n      gt\n      iszero\n        /* \"input/CreateWin.sol\":1415:1440  times >= 4 && times <= 10 */\n    tag_50:\n        /* \"input/CreateWin.sol\":1411:1463  if (times >= 4 && times <= 10) {... */\n      iszero\n      tag_51\n      jumpi\n        /* \"input/CreateWin.sol\":1455:1457  10 */\n      0x0a\n        /* \"input/CreateWin.sol\":1448:1457  return 10 */\n      swap1\n      pop\n      jump(tag_39)\n        /* \"input/CreateWin.sol\":1411:1463  if (times >= 4 && times <= 10) {... */\n    tag_51:\n        /* \"input/CreateWin.sol\":1480:1482  11 */\n      0x0b\n        /* \"input/CreateWin.sol\":1471:1476  times */\n      dup3\n        /* \"input/CreateWin.sol\":1471:1482  times >= 11 */\n      lt\n      iszero\n        /* \"input/CreateWin.sol\":1471:1497  times >= 11 && times <= 20 */\n      dup1\n      iszero\n      tag_52\n      jumpi\n      pop\n        /* \"input/CreateWin.sol\":1495:1497  20 */\n      0x14\n        /* \"input/CreateWin.sol\":1486:1491  times */\n      dup3\n        /* \"input/CreateWin.sol\":1486:1497  times <= 20 */\n      gt\n      iszero\n        /* \"input/CreateWin.sol\":1471:1497  times >= 11 && times <= 20 */\n    tag_52:\n        /* \"input/CreateWin.sol\":1467:1519  if (times >= 11 && times <= 20) {... */\n      iszero\n      tag_53\n      jumpi\n        /* \"input/CreateWin.sol\":1512:1513  5 */\n      0x05\n        /* \"input/CreateWin.sol\":1505:1513  return 5 */\n      swap1\n      pop\n      jump(tag_39)\n        /* \"input/CreateWin.sol\":1467:1519  if (times >= 11 && times <= 20) {... */\n    tag_53:\n        /* \"input/CreateWin.sol\":1536:1538  21 */\n      0x15\n        /* \"input/CreateWin.sol\":1527:1532  times */\n      dup3\n        /* \"input/CreateWin.sol\":1527:1538  times >= 21 */\n      lt\n        /* \"input/CreateWin.sol\":1523:1560  if (times >= 21) {... */\n      tag_54\n      jumpi\n        /* \"input/CreateWin.sol\":1553:1554  1 */\n      0x01\n        /* \"input/CreateWin.sol\":1546:1554  return 1 */\n      swap1\n      pop\n      jump(tag_39)\n        /* \"input/CreateWin.sol\":1523:1560  if (times >= 21) {... */\n    tag_54:\n        /* \"input/CreateWin.sol\":1266:1564  if (level == 3) {... */\n    tag_46:\n        /* \"input/CreateWin.sol\":1574:1575  0 */\n      0x00\n        /* \"input/CreateWin.sol\":1567:1575  return 0 */\n      swap1\n      pop\n        /* \"input/CreateWin.sol\":1016:1579  function getRecommendScaleByLevelAndTim(uint level, uint times) public pure returns (uint){... */\n    tag_39:\n      swap3\n      swap2\n      pop\n      pop\n      jump\t// out\n        /* \"input/CreateWin.sol\":76:359  function getLevel(uint value) public view returns (uint) {... */\n    tag_17:\n        /* \"input/CreateWin.sol\":127:131  uint */\n      0x00\n        /* \"input/CreateWin.sol\":154:160  ethWei */\n      dup1\n      sload\n        /* \"input/CreateWin.sol\":150:151  1 */\n      0x01\n        /* \"input/CreateWin.sol\":150:160  1 * ethWei */\n      mul\n        /* \"input/CreateWin.sol\":141:146  value */\n      dup3\n        /* \"input/CreateWin.sol\":141:160  value >= 1 * ethWei */\n      lt\n      iszero\n        /* \"input/CreateWin.sol\":141:183  value >= 1 * ethWei && value <= 5 * ethWei */\n      dup1\n      iszero\n      tag_56\n      jumpi\n      pop\n        /* \"input/CreateWin.sol\":177:183  ethWei */\n      sload(0x00)\n        /* \"input/CreateWin.sol\":173:174  5 */\n      0x05\n        /* \"input/CreateWin.sol\":173:183  5 * ethWei */\n      mul\n        /* \"input/CreateWin.sol\":164:169  value */\n      dup3\n        /* \"input/CreateWin.sol\":164:183  value <= 5 * ethWei */\n      gt\n      iszero\n        /* \"input/CreateWin.sol\":141:183  value >= 1 * ethWei && value <= 5 * ethWei */\n    tag_56:\n        /* \"input/CreateWin.sol\":137:203  if (value >= 1 * ethWei && value <= 5 * ethWei) {... */\n      iszero\n      tag_57\n      jumpi\n        /* \"input/CreateWin.sol\":197:198  1 */\n      0x01\n        /* \"input/CreateWin.sol\":190:198  return 1 */\n      swap1\n      pop\n      jump(tag_55)\n        /* \"input/CreateWin.sol\":137:203  if (value >= 1 * ethWei && value <= 5 * ethWei) {... */\n    tag_57:\n        /* \"input/CreateWin.sol\":223:229  ethWei */\n      sload(0x00)\n        /* \"input/CreateWin.sol\":219:220  6 */\n      0x06\n        /* \"input/CreateWin.sol\":219:229  6 * ethWei */\n      mul\n        /* \"input/CreateWin.sol\":210:215  value */\n      dup3\n        /* \"input/CreateWin.sol\":210:229  value >= 6 * ethWei */\n      lt\n      iszero\n        /* \"input/CreateWin.sol\":210:253  value >= 6 * ethWei && value <= 10 * ethWei */\n      dup1\n      iszero\n      tag_58\n      jumpi\n      pop\n        /* \"input/CreateWin.sol\":247:253  ethWei */\n      sload(0x00)\n        /* \"input/CreateWin.sol\":242:244  10 */\n      0x0a\n        /* \"input/CreateWin.sol\":242:253  10 * ethWei */\n      mul\n        /* \"input/CreateWin.sol\":233:238  value */\n      dup3\n        /* \"input/CreateWin.sol\":233:253  value <= 10 * ethWei */\n      gt\n      iszero\n        /* \"input/CreateWin.sol\":210:253  value >= 6 * ethWei && value <= 10 * ethWei */\n    tag_58:\n        /* \"input/CreateWin.sol\":206:273  if (value >= 6 * ethWei && value <= 10 * ethWei) {... */\n      iszero\n      tag_59\n      jumpi\n        /* \"input/CreateWin.sol\":267:268  2 */\n      0x02\n        /* \"input/CreateWin.sol\":260:268  return 2 */\n      swap1\n      pop\n      jump(tag_55)\n        /* \"input/CreateWin.sol\":206:273  if (value >= 6 * ethWei && value <= 10 * ethWei) {... */\n    tag_59:\n        /* \"input/CreateWin.sol\":294:300  ethWei */\n      sload(0x00)\n        /* \"input/CreateWin.sol\":289:291  11 */\n      0x0b\n        /* \"input/CreateWin.sol\":289:300  11 * ethWei */\n      mul\n        /* \"input/CreateWin.sol\":280:285  value */\n      dup3\n        /* \"input/CreateWin.sol\":280:300  value >= 11 * ethWei */\n      lt\n      iszero\n        /* \"input/CreateWin.sol\":280:324  value >= 11 * ethWei && value <= 15 * ethWei */\n      dup1\n      iszero\n      tag_60\n      jumpi\n      pop\n        /* \"input/CreateWin.sol\":318:324  ethWei */\n      sload(0x00)\n        /* \"input/CreateWin.sol\":313:315  15 */\n      0x0f\n        /* \"input/CreateWin.sol\":313:324  15 * ethWei */\n      mul\n        /* \"input/CreateWin.sol\":304:309  value */\n      dup3\n        /* \"input/CreateWin.sol\":304:324  value <= 15 * ethWei */\n      gt\n      iszero\n        /* \"input/CreateWin.sol\":280:324  value >= 11 * ethWei && value <= 15 * ethWei */\n    tag_60:\n        /* \"input/CreateWin.sol\":276:344  if (value >= 11 * ethWei && value <= 15 * ethWei) {... */\n      iszero\n      tag_61\n      jumpi\n        /* \"input/CreateWin.sol\":338:339  3 */\n      0x03\n        /* \"input/CreateWin.sol\":331:339  return 3 */\n      swap1\n      pop\n      jump(tag_55)\n        /* \"input/CreateWin.sol\":276:344  if (value >= 11 * ethWei && value <= 15 * ethWei) {... */\n    tag_61:\n        /* \"input/CreateWin.sol\":354:355  0 */\n      0x00\n        /* \"input/CreateWin.sol\":347:355  return 0 */\n      swap1\n      pop\n        /* \"input/CreateWin.sol\":76:359  function getLevel(uint value) public view returns (uint) {... */\n    tag_55:\n      swap2\n      swap1\n      pop\n      jump\t// out\n        /* \"input/CreateWin.sol\":1582:1787  function compareStr(string memory _str, string memory str) public pure returns (bool) {... */\n    tag_26:\n        /* \"input/CreateWin.sol\":1662:1666  bool */\n      0x00\n        /* \"input/CreateWin.sol\":1740:1743  str */\n      dup2\n        /* \"input/CreateWin.sol\":1723:1744  abi.encodePacked(str) */\n      add(0x20, mload(0x40))\n      dup1\n      dup3\n      dup1\n      mload\n      swap1\n      0x20\n      add\n      swap1\n      dup1\n      dup4\n      dup4\n        /* \"--CODEGEN--\":36:189   */\n    tag_63:\n        /* \"--CODEGEN--\":66:68   */\n      0x20\n        /* \"--CODEGEN--\":61:64   */\n      dup4\n        /* \"--CODEGEN--\":58:69   */\n      lt\n        /* \"--CODEGEN--\":36:189   */\n      tag_65\n      jumpi\n        /* \"--CODEGEN--\":182:185   */\n      dup1\n        /* \"--CODEGEN--\":176:186   */\n      mload\n        /* \"--CODEGEN--\":171:174   */\n      dup3\n        /* \"--CODEGEN--\":164:187   */\n      mstore\n        /* \"--CODEGEN--\":98:100   */\n      0x20\n        /* \"--CODEGEN--\":93:96   */\n      dup3\n        /* \"--CODEGEN--\":89:101   */\n      add\n        /* \"--CODEGEN--\":82:101   */\n      swap2\n      pop\n        /* \"--CODEGEN--\":123:125   */\n      0x20\n        /* \"--CODEGEN--\":118:121   */\n      dup2\n        /* \"--CODEGEN--\":114:126   */\n      add\n        /* \"--CODEGEN--\":107:126   */\n      swap1\n      pop\n        /* \"--CODEGEN--\":148:150   */\n      0x20\n        /* \"--CODEGEN--\":143:146   */\n      dup4\n        /* \"--CODEGEN--\":139:151   */\n      sub\n        /* \"--CODEGEN--\":132:151   */\n      swap3\n      pop\n        /* \"--CODEGEN--\":36:189   */\n      jump(tag_63)\n    tag_65:\n        /* \"--CODEGEN--\":274:275   */\n      0x01\n        /* \"--CODEGEN--\":267:270   */\n      dup4\n        /* \"--CODEGEN--\":263:265   */\n      0x20\n        /* \"--CODEGEN--\":259:271   */\n      sub\n        /* \"--CODEGEN--\":254:257   */\n      0x0100\n        /* \"--CODEGEN--\":250:272   */\n      exp\n        /* \"--CODEGEN--\":246:276   */\n      sub\n        /* \"--CODEGEN--\":315:319   */\n      dup1\n        /* \"--CODEGEN--\":311:320   */\n      not\n        /* \"--CODEGEN--\":305:308   */\n      dup3\n        /* \"--CODEGEN--\":299:309   */\n      mload\n        /* \"--CODEGEN--\":295:321   */\n      and\n        /* \"--CODEGEN--\":356:360   */\n      dup2\n        /* \"--CODEGEN--\":350:353   */\n      dup5\n        /* \"--CODEGEN--\":344:354   */\n      mload\n        /* \"--CODEGEN--\":340:361   */\n      and\n        /* \"--CODEGEN--\":389:396   */\n      dup1\n        /* \"--CODEGEN--\":380:387   */\n      dup3\n        /* \"--CODEGEN--\":377:397   */\n      or\n        /* \"--CODEGEN--\":372:375   */\n      dup6\n        /* \"--CODEGEN--\":365:398   */\n      mstore\n        /* \"--CODEGEN--\":3:402   */\n      pop\n      pop\n      pop\n        /* \"input/CreateWin.sol\":1723:1744  abi.encodePacked(str) */\n      pop\n      pop\n      pop\n      swap1\n      pop\n      add\n      swap2\n      pop\n      pop\n      mload(0x40)\n        /* \"--CODEGEN--\":49:53   */\n      0x20\n        /* \"--CODEGEN--\":39:46   */\n      dup2\n        /* \"--CODEGEN--\":30:37   */\n      dup4\n        /* \"--CODEGEN--\":26:47   */\n      sub\n        /* \"--CODEGEN--\":22:54   */\n      sub\n        /* \"--CODEGEN--\":13:20   */\n      dup2\n        /* \"--CODEGEN--\":6:55   */\n      mstore\n        /* \"input/CreateWin.sol\":1723:1744  abi.encodePacked(str) */\n      swap1\n      0x40\n      mstore\n        /* \"input/CreateWin.sol\":1713:1745  keccak256(abi.encodePacked(str)) */\n      dup1\n      mload\n      swap1\n      0x20\n      add\n      keccak256\n        /* \"input/CreateWin.sol\":1703:1707  _str */\n      dup4\n        /* \"input/CreateWin.sol\":1686:1708  abi.encodePacked(_str) */\n      add(0x20, mload(0x40))\n      dup1\n      dup3\n      dup1\n      mload\n      swap1\n      0x20\n      add\n      swap1\n      dup1\n      dup4\n      dup4\n        /* \"--CODEGEN--\":36:189   */\n    tag_66:\n        /* \"--CODEGEN--\":66:68   */\n      0x20\n        /* \"--CODEGEN--\":61:64   */\n      dup4\n        /* \"--CODEGEN--\":58:69   */\n      lt\n        /* \"--CODEGEN--\":36:189   */\n      tag_68\n      jumpi\n        /* \"--CODEGEN--\":182:185   */\n      dup1\n        /* \"--CODEGEN--\":176:186   */\n      mload\n        /* \"--CODEGEN--\":171:174   */\n      dup3\n        /* \"--CODEGEN--\":164:187   */\n      mstore\n        /* \"--CODEGEN--\":98:100   */\n      0x20\n        /* \"--CODEGEN--\":93:96   */\n      dup3\n        /* \"--CODEGEN--\":89:101   */\n      add\n        /* \"--CODEGEN--\":82:101   */\n      swap2\n      pop\n        /* \"--CODEGEN--\":123:125   */\n      0x20\n        /* \"--CODEGEN--\":118:121   */\n      dup2\n        /* \"--CODEGEN--\":114:126   */\n      add\n        /* \"--CODEGEN--\":107:126   */\n      swap1\n      pop\n        /* \"--CODEGEN--\":148:150   */\n      0x20\n        /* \"--CODEGEN--\":143:146   */\n      dup4\n        /* \"--CODEGEN--\":139:151   */\n      sub\n        /* \"--CODEGEN--\":132:151   */\n      swap3\n      pop\n        /* \"--CODEGEN--\":36:189   */\n      jump(tag_66)\n    tag_68:\n        /* \"--CODEGEN--\":274:275   */\n      0x01\n        /* \"--CODEGEN--\":267:270   */\n      dup4\n        /* \"--CODEGEN--\":263:265   */\n      0x20\n        /* \"--CODEGEN--\":259:271   */\n      sub\n        /* \"--CODEGEN--\":254:257   */\n      0x0100\n        /* \"--CODEGEN--\":250:272   */\n      exp\n        /* \"--CODEGEN--\":246:276   */\n      sub\n        /* \"--CODEGEN--\":315:319   */\n      dup1\n        /* \"--CODEGEN--\":311:320   */\n      not\n        /* \"--CODEGEN--\":305:308   */\n      dup3\n        /* \"--CODEGEN--\":299:309   */\n      mload\n        /* \"--CODEGEN--\":295:321   */\n      and\n        /* \"--CODEGEN--\":356:360   */\n      dup2\n        /* \"--CODEGEN--\":350:353   */\n      dup5\n        /* \"--CODEGEN--\":344:354   */\n      mload\n        /* \"--CODEGEN--\":340:361   */\n      and\n        /* \"--CODEGEN--\":389:396   */\n      dup1\n        /* \"--CODEGEN--\":380:387   */\n      dup3\n        /* \"--CODEGEN--\":377:397   */\n      or\n        /* \"--CODEGEN--\":372:375   */\n      dup6\n        /* \"--CODEGEN--\":365:398   */\n      mstore\n        /* \"--CODEGEN--\":3:402   */\n      pop\n      pop\n      pop\n        /* \"input/CreateWin.sol\":1686:1708  abi.encodePacked(_str) */\n      pop\n      pop\n      pop\n      swap1\n      pop\n      add\n      swap2\n      pop\n      pop\n      mload(0x40)\n        /* \"--CODEGEN--\":49:53   */\n      0x20\n        /* \"--CODEGEN--\":39:46   */\n      dup2\n        /* \"--CODEGEN--\":30:37   */\n      dup4\n        /* \"--CODEGEN--\":26:47   */\n      sub\n        /* \"--CODEGEN--\":22:54   */\n      sub\n        /* \"--CODEGEN--\":13:20   */\n      dup2\n        /* \"--CODEGEN--\":6:55   */\n      mstore\n        /* \"input/CreateWin.sol\":1686:1708  abi.encodePacked(_str) */\n      swap1\n      0x40\n      mstore\n        /* \"input/CreateWin.sol\":1676:1709  keccak256(abi.encodePacked(_str)) */\n      dup1\n      mload\n      swap1\n      0x20\n      add\n      keccak256\n        /* \"input/CreateWin.sol\":1676:1745  keccak256(abi.encodePacked(_str)) == keccak256(abi.encodePacked(str)) */\n      eq\n        /* \"input/CreateWin.sol\":1672:1768  if (keccak256(abi.encodePacked(_str)) == keccak256(abi.encodePacked(str))) {... */\n      iszero\n      tag_69\n      jumpi\n        /* \"input/CreateWin.sol\":1759:1763  true */\n      0x01\n        /* \"input/CreateWin.sol\":1752:1763  return true */\n      swap1\n      pop\n      jump(tag_62)\n        /* \"input/CreateWin.sol\":1672:1768  if (keccak256(abi.encodePacked(_str)) == keccak256(abi.encodePacked(str))) {... */\n    tag_69:\n        /* \"input/CreateWin.sol\":1778:1783  false */\n      0x00\n        /* \"input/CreateWin.sol\":1771:1783  return false */\n      swap1\n      pop\n        /* \"input/CreateWin.sol\":1582:1787  function compareStr(string memory _str, string memory str) public pure returns (bool) {... */\n    tag_62:\n      swap3\n      swap2\n      pop\n      pop\n      jump\t// out\n        /* \"input/CreateWin.sol\":820:1013  function getFireScByLevel(uint level) public pure returns (uint) {... */\n    tag_29:\n        /* \"input/CreateWin.sol\":879:883  uint */\n      0x00\n        /* \"input/CreateWin.sol\":902:903  1 */\n      0x01\n        /* \"input/CreateWin.sol\":893:898  level */\n      dup3\n        /* \"input/CreateWin.sol\":893:903  level == 1 */\n      eq\n        /* \"input/CreateWin.sol\":889:923  if (level == 1) {... */\n      iszero\n      tag_71\n      jumpi\n        /* \"input/CreateWin.sol\":917:918  3 */\n      0x03\n        /* \"input/CreateWin.sol\":910:918  return 3 */\n      swap1\n      pop\n      jump(tag_70)\n        /* \"input/CreateWin.sol\":889:923  if (level == 1) {... */\n    tag_71:\n        /* \"input/CreateWin.sol\":939:940  2 */\n      0x02\n        /* \"input/CreateWin.sol\":930:935  level */\n      dup3\n        /* \"input/CreateWin.sol\":930:940  level == 2 */\n      eq\n        /* \"input/CreateWin.sol\":926:960  if (level == 2) {... */\n      iszero\n      tag_72\n      jumpi\n        /* \"input/CreateWin.sol\":954:955  6 */\n      0x06\n        /* \"input/CreateWin.sol\":947:955  return 6 */\n      swap1\n      pop\n      jump(tag_70)\n        /* \"input/CreateWin.sol\":926:960  if (level == 2) {... */\n    tag_72:\n        /* \"input/CreateWin.sol\":976:977  3 */\n      0x03\n        /* \"input/CreateWin.sol\":967:972  level */\n      dup3\n        /* \"input/CreateWin.sol\":967:977  level == 3 */\n      eq\n        /* \"input/CreateWin.sol\":963:998  if (level == 3) {... */\n      iszero\n      tag_73\n      jumpi\n        /* \"input/CreateWin.sol\":991:993  10 */\n      0x0a\n        /* \"input/CreateWin.sol\":984:993  return 10 */\n      swap1\n      pop\n      jump(tag_70)\n        /* \"input/CreateWin.sol\":963:998  if (level == 3) {... */\n    tag_73:\n        /* \"input/CreateWin.sol\":1008:1009  0 */\n      0x00\n        /* \"input/CreateWin.sol\":1001:1009  return 0 */\n      swap1\n      pop\n        /* \"input/CreateWin.sol\":820:1013  function getFireScByLevel(uint level) public pure returns (uint) {... */\n    tag_70:\n      swap2\n      swap1\n      pop\n      jump\t// out\n        /* \"input/CreateWin.sol\":628:817  function getScByLevel(uint level) public pure returns (uint) {... */\n    tag_32:\n        /* \"input/CreateWin.sol\":683:687  uint */\n      0x00\n        /* \"input/CreateWin.sol\":706:707  1 */\n      0x01\n        /* \"input/CreateWin.sol\":697:702  level */\n      dup3\n        /* \"input/CreateWin.sol\":697:707  level == 1 */\n      eq\n        /* \"input/CreateWin.sol\":693:727  if (level == 1) {... */\n      iszero\n      tag_75\n      jumpi\n        /* \"input/CreateWin.sol\":721:722  5 */\n      0x05\n        /* \"input/CreateWin.sol\":714:722  return 5 */\n      swap1\n      pop\n      jump(tag_74)\n        /* \"input/CreateWin.sol\":693:727  if (level == 1) {... */\n    tag_75:\n        /* \"input/CreateWin.sol\":743:744  2 */\n      0x02\n        /* \"input/CreateWin.sol\":734:739  level */\n      dup3\n        /* \"input/CreateWin.sol\":734:744  level == 2 */\n      eq\n        /* \"input/CreateWin.sol\":730:764  if (level == 2) {... */\n      iszero\n      tag_76\n      jumpi\n        /* \"input/CreateWin.sol\":758:759  7 */\n      0x07\n        /* \"input/CreateWin.sol\":751:759  return 7 */\n      swap1\n      pop\n      jump(tag_74)\n        /* \"input/CreateWin.sol\":730:764  if (level == 2) {... */\n    tag_76:\n        /* \"input/CreateWin.sol\":780:781  3 */\n      0x03\n        /* \"input/CreateWin.sol\":771:776  level */\n      dup3\n        /* \"input/CreateWin.sol\":771:781  level == 3 */\n      eq\n        /* \"input/CreateWin.sol\":767:802  if (level == 3) {... */\n      iszero\n      tag_77\n      jumpi\n        /* \"input/CreateWin.sol\":795:797  10 */\n      0x0a\n        /* \"input/CreateWin.sol\":788:797  return 10 */\n      swap1\n      pop\n      jump(tag_74)\n        /* \"input/CreateWin.sol\":767:802  if (level == 3) {... */\n    tag_77:\n        /* \"input/CreateWin.sol\":812:813  0 */\n      0x00\n        /* \"input/CreateWin.sol\":805:813  return 0 */\n      swap1\n      pop\n        /* \"input/CreateWin.sol\":628:817  function getScByLevel(uint level) public pure returns (uint) {... */\n    tag_74:\n      swap2\n      swap1\n      pop\n      jump\t// out\n\n    auxdata: 0xa265627a7a723158200657814d8186ad8cd7d238ae6485ce8c102f25e27d6eefedb0251b70b5e86ce464736f6c63430005110032\n}\n",
				"bytecode": {
					"linkReferences": {},
					"object": "6080604052670de0b6b3a764000060005534801561001c57600080fd5b506106c98061002c6000396000f3fe608060405234801561001057600080fd5b50600436106100625760003560e01c80631ceae42f1461006757806326eebf41146100a957806386481d40146100f557806387c5d5cc14610137578063e08f0797146102a1578063f7ad55d9146102e3575b600080fd5b6100936004803603602081101561007d57600080fd5b8101908080359060200190929190505050610325565b6040518082815260200191505060405180910390f35b6100df600480360360408110156100bf57600080fd5b810190808035906020019092919080359060200190929190505050610395565b6040518082815260200191505060405180910390f35b6101216004803603602081101561010b57600080fd5b810190808035906020019092919050505061048d565b6040518082815260200191505060405180910390f35b6102876004803603604081101561014d57600080fd5b810190808035906020019064010000000081111561016a57600080fd5b82018360208201111561017c57600080fd5b8035906020019184600183028401116401000000008311171561019e57600080fd5b91908080601f016020809104026020016040519081016040528093929190818152602001838380828437600081840152601f19601f8201169050808301925050505050505091929192908035906020019064010000000081111561020157600080fd5b82018360208201111561021357600080fd5b8035906020019184600183028401116401000000008311171561023557600080fd5b91908080601f016020809104026020016040519081016040528093929190818152602001838380828437600081840152601f19601f820116905080830192505050505050509192919290505050610510565b604051808215151515815260200191505060405180910390f35b6102cd600480360360208110156102b757600080fd5b8101908080359060200190929190505050610610565b6040518082815260200191505060405180910390f35b61030f600480360360208110156102f957600080fd5b8101908080359060200190929190505050610652565b6040518082815260200191505060405180910390f35b60008054600102821015801561034057506000546005028211155b1561034e5760019050610390565b60005460060282101580156103685750600054600a028211155b156103765760029050610390565b600054600b02821061038b5760039050610390565b600090505b919050565b60006001831480156103a75750600182145b156103b55760329050610487565b6002831480156103c55750600182145b156103d35760469050610487565b6002831480156103e35750600282145b156103f15760329050610487565b600383141561048257600182141561040c5760649050610487565b600282141561041e5760469050610487565b60038214156104305760329050610487565b600482101580156104425750600a8211155b1561045057600a9050610487565b600b8210158015610462575060148211155b156104705760059050610487565b601582106104815760019050610487565b5b600090505b92915050565b6000805460010282101580156104a857506000546005028211155b156104b6576001905061050b565b60005460060282101580156104d05750600054600a028211155b156104de576002905061050b565b600054600b0282101580156104f85750600054600f028211155b15610506576003905061050b565b600090505b919050565b6000816040516020018082805190602001908083835b602083106105495780518252602082019150602081019050602083039250610526565b6001836020036101000a03801982511681845116808217855250505050505090500191505060405160208183030381529060405280519060200120836040516020018082805190602001908083835b602083106105bb5780518252602082019150602081019050602083039250610598565b6001836020036101000a038019825116818451168082178552505050505050905001915050604051602081830303815290604052805190602001201415610605576001905061060a565b600090505b92915050565b60006001821415610624576003905061064d565b6002821415610636576006905061064d565b600382141561064857600a905061064d565b600090505b919050565b60006001821415610666576005905061068f565b6002821415610678576007905061068f565b600382141561068a57600a905061068f565b600090505b91905056fea265627a7a723158200657814d8186ad8cd7d238ae6485ce8c102f25e27d6eefedb0251b70b5e86ce464736f6c63430005110032",
					"opcodes": "PUSH1 0x80 PUSH1 0x40 MSTORE PUSH8 0xDE0B6B3A7640000 PUSH1 0x0 SSTORE CALLVALUE DUP1 ISZERO PUSH2 0x1C JUMPI PUSH1 0x0 DUP1 REVERT JUMPDEST POP PUSH2 0x6C9 DUP1 PUSH2 0x2C PUSH1 0x0 CODECOPY PUSH1 0x0 RETURN INVALID PUSH1 0x80 PUSH1 0x40 MSTORE CALLVALUE DUP1 ISZERO PUSH2 0x10 JUMPI PUSH1 0x0 DUP1 REVERT JUMPDEST POP PUSH1 0x4 CALLDATASIZE LT PUSH2 0x62 JUMPI PUSH1 0x0 CALLDATALOAD PUSH1 0xE0 SHR DUP1 PUSH4 0x1CEAE42F EQ PUSH2 0x67 JUMPI DUP1 PUSH4 0x26EEBF41 EQ PUSH2 0xA9 JUMPI DUP1 PUSH4 0x86481D40 EQ PUSH2 0xF5 JUMPI DUP1 PUSH4 0x87C5D5CC EQ PUSH2 0x137 JUMPI DUP1 PUSH4 0xE08F0797 EQ PUSH2 0x2A1 JUMPI DUP1 PUSH4 0xF7AD55D9 EQ PUSH2 0x2E3 JUMPI JUMPDEST PUSH1 0x0 DUP1 REVERT JUMPDEST PUSH2 0x93 PUSH1 0x4 DUP1 CALLDATASIZE SUB PUSH1 0x20 DUP2 LT ISZERO PUSH2 0x7D JUMPI PUSH1 0x0 DUP1 REVERT JUMPDEST DUP2 ADD SWAP1 DUP1 DUP1 CALLDATALOAD SWAP1 PUSH1 0x20 ADD SWAP1 SWAP3 SWAP2 SWAP1 POP POP POP PUSH2 0x325 JUMP JUMPDEST PUSH1 0x40 MLOAD DUP1 DUP3 DUP2 MSTORE PUSH1 0x20 ADD SWAP2 POP POP PUSH1 0x40 MLOAD DUP1 SWAP2 SUB SWAP1 RETURN JUMPDEST PUSH2 0xDF PUSH1 0x4 DUP1 CALLDATASIZE SUB PUSH1 0x40 DUP2 LT ISZERO PUSH2 0xBF JUMPI PUSH1 0x0 DUP1 REVERT JUMPDEST DUP2 ADD SWAP1 DUP1 DUP1 CALLDATALOAD SWAP1 PUSH1 0x20 ADD SWAP1 SWAP3 SWAP2 SWAP1 DUP1 CALLDATALOAD SWAP1 PUSH1 0x20 ADD SWAP1 SWAP3 SWAP2 SWAP1 POP POP POP PUSH2 0x395 JUMP JUMPDEST PUSH1 0x40 MLOAD DUP1 DUP3 DUP2 MSTORE PUSH1 0x20 ADD SWAP2 POP POP PUSH1 0x40 MLOAD DUP1 SWAP2 SUB SWAP1 RETURN JUMPDEST PUSH2 0x121 PUSH1 0x4 DUP1 CALLDATASIZE SUB PUSH1 0x20 DUP2 LT ISZERO PUSH2 0x10B JUMPI PUSH1 0x0 DUP1 REVERT JUMPDEST DUP2 ADD SWAP1 DUP1 DUP1 CALLDATALOAD SWAP1 PUSH1 0x20 ADD SWAP1 SWAP3 SWAP2 SWAP1 POP POP POP PUSH2 0x48D JUMP JUMPDEST PUSH1 0x40 MLOAD DUP1 DUP3 DUP2 MSTORE PUSH1 0x20 ADD SWAP2 POP POP PUSH1 0x40 MLOAD DUP1 SWAP2 SUB SWAP1 RETURN JUMPDEST PUSH2 0x287 PUSH1 0x4 DUP1 CALLDATASIZE SUB PUSH1 0x40 DUP2 LT ISZERO PUSH2 0x14D JUMPI PUSH1 0x0 DUP1 REVERT JUMPDEST DUP2 ADD SWAP1 DUP1 DUP1 CALLDATALOAD SWAP1 PUSH1 0x20 ADD SWAP1 PUSH5 0x100000000 DUP2 GT ISZERO PUSH2 0x16A JUMPI PUSH1 0x0 DUP1 REVERT JUMPDEST DUP3 ADD DUP4 PUSH1 0x20 DUP3 ADD GT ISZERO PUSH2 0x17C JUMPI PUSH1 0x0 DUP1 REVERT JUMPDEST DUP1 CALLDATALOAD SWAP1 PUSH1 0x20 ADD SWAP2 DUP5 PUSH1 0x1 DUP4 MUL DUP5 ADD GT PUSH5 0x100000000 DUP4 GT OR ISZERO PUSH2 0x19E JUMPI PUSH1 0x0 DUP1 REVERT JUMPDEST SWAP2 SWAP1 DUP1 DUP1 PUSH1 0x1F ADD PUSH1 0x20 DUP1 SWAP2 DIV MUL PUSH1 0x20 ADD PUSH1 0x40 MLOAD SWAP1 DUP2 ADD PUSH1 0x40 MSTORE DUP1 SWAP4 SWAP3 SWAP2 SWAP1 DUP2 DUP2 MSTORE PUSH1 0x20 ADD DUP4 DUP4 DUP1 DUP3 DUP5 CALLDATACOPY PUSH1 0x0 DUP2 DUP5 ADD MSTORE PUSH1 0x1F NOT PUSH1 0x1F DUP3 ADD AND SWAP1 POP DUP1 DUP4 ADD SWAP3 POP POP POP POP POP POP POP SWAP2 SWAP3 SWAP2 SWAP3 SWAP1 DUP1 CALLDATALOAD SWAP1 PUSH1 0x20 ADD SWAP1 PUSH5 0x100000000 DUP2 GT ISZERO PUSH2 0x201 JUMPI PUSH1 0x0 DUP1 REVERT JUMPDEST DUP3 ADD DUP4 PUSH1 0x20 DUP3 ADD GT ISZERO PUSH2 0x213 JUMPI PUSH1 0x0 DUP1 REVERT JUMPDEST DUP1 CALLDATALOAD SWAP1 PUSH1 0x20 ADD SWAP2 DUP5 PUSH1 0x1 DUP4 MUL DUP5 ADD GT PUSH5 0x100000000 DUP4 GT OR ISZERO PUSH2 0x235 JUMPI PUSH1 0x0 DUP1 REVERT JUMPDEST SWAP2 SWAP1 DUP1 DUP1 PUSH1 0x1F ADD PUSH1 0x20 DUP1 SWAP2 DIV MUL PUSH1 0x20 ADD PUSH1 0x40 MLOAD SWAP1 DUP2 ADD PUSH1 0x40 MSTORE DUP1 SWAP4 SWAP3 SWAP2 SWAP1 DUP2 DUP2 MSTORE PUSH1 0x20 ADD DUP4 DUP4 DUP1 DUP3 DUP5 CALLDATACOPY PUSH1 0x0 DUP2 DUP5 ADD MSTORE PUSH1 0x1F NOT PUSH1 0x1F DUP3 ADD AND SWAP1 POP DUP1 DUP4 ADD SWAP3 POP POP POP POP POP POP POP SWAP2 SWAP3 SWAP2 SWAP3 SWAP1 POP POP POP PUSH2 0x510 JUMP JUMPDEST PUSH1 0x40 MLOAD DUP1 DUP3 ISZERO ISZERO ISZERO ISZERO DUP2 MSTORE PUSH1 0x20 ADD SWAP2 POP POP PUSH1 0x40 MLOAD DUP1 SWAP2 SUB SWAP1 RETURN JUMPDEST PUSH2 0x2CD PUSH1 0x4 DUP1 CALLDATASIZE SUB PUSH1 0x20 DUP2 LT ISZERO PUSH2 0x2B7 JUMPI PUSH1 0x0 DUP1 REVERT JUMPDEST DUP2 ADD SWAP1 DUP1 DUP1 CALLDATALOAD SWAP1 PUSH1 0x20 ADD SWAP1 SWAP3 SWAP2 SWAP1 POP POP POP PUSH2 0x610 JUMP JUMPDEST PUSH1 0x40 MLOAD DUP1 DUP3 DUP2 MSTORE PUSH1 0x20 ADD SWAP2 POP POP PUSH1 0x40 MLOAD DUP1 SWAP2 SUB SWAP1 RETURN JUMPDEST PUSH2 0x30F PUSH1 0x4 DUP1 CALLDATASIZE SUB PUSH1 0x20 DUP2 LT ISZERO PUSH2 0x2F9 JUMPI PUSH1 0x0 DUP1 REVERT JUMPDEST DUP2 ADD SWAP1 DUP1 DUP1 CALLDATALOAD SWAP1 PUSH1 0x20 ADD SWAP1 SWAP3 SWAP2 SWAP1 POP POP POP PUSH2 0x652 JUMP JUMPDEST PUSH1 0x40 MLOAD DUP1 DUP3 DUP2 MSTORE PUSH1 0x20 ADD SWAP2 POP POP PUSH1 0x40 MLOAD DUP1 SWAP2 SUB SWAP1 RETURN JUMPDEST PUSH1 0x0 DUP1 SLOAD PUSH1 0x1 MUL DUP3 LT ISZERO DUP1 ISZERO PUSH2 0x340 JUMPI POP PUSH1 0x0 SLOAD PUSH1 0x5 MUL DUP3 GT ISZERO JUMPDEST ISZERO PUSH2 0x34E JUMPI PUSH1 0x1 SWAP1 POP PUSH2 0x390 JUMP JUMPDEST PUSH1 0x0 SLOAD PUSH1 0x6 MUL DUP3 LT ISZERO DUP1 ISZERO PUSH2 0x368 JUMPI POP PUSH1 0x0 SLOAD PUSH1 0xA MUL DUP3 GT ISZERO JUMPDEST ISZERO PUSH2 0x376 JUMPI PUSH1 0x2 SWAP1 POP PUSH2 0x390 JUMP JUMPDEST PUSH1 0x0 SLOAD PUSH1 0xB MUL DUP3 LT PUSH2 0x38B JUMPI PUSH1 0x3 SWAP1 POP PUSH2 0x390 JUMP JUMPDEST PUSH1 0x0 SWAP1 POP JUMPDEST SWAP2 SWAP1 POP JUMP JUMPDEST PUSH1 0x0 PUSH1 0x1 DUP4 EQ DUP1 ISZERO PUSH2 0x3A7 JUMPI POP PUSH1 0x1 DUP3 EQ JUMPDEST ISZERO PUSH2 0x3B5 JUMPI PUSH1 0x32 SWAP1 POP PUSH2 0x487 JUMP JUMPDEST PUSH1 0x2 DUP4 EQ DUP1 ISZERO PUSH2 0x3C5 JUMPI POP PUSH1 0x1 DUP3 EQ JUMPDEST ISZERO PUSH2 0x3D3 JUMPI PUSH1 0x46 SWAP1 POP PUSH2 0x487 JUMP JUMPDEST PUSH1 0x2 DUP4 EQ DUP1 ISZERO PUSH2 0x3E3 JUMPI POP PUSH1 0x2 DUP3 EQ JUMPDEST ISZERO PUSH2 0x3F1 JUMPI PUSH1 0x32 SWAP1 POP PUSH2 0x487 JUMP JUMPDEST PUSH1 0x3 DUP4 EQ ISZERO PUSH2 0x482 JUMPI PUSH1 0x1 DUP3 EQ ISZERO PUSH2 0x40C JUMPI PUSH1 0x64 SWAP1 POP PUSH2 0x487 JUMP JUMPDEST PUSH1 0x2 DUP3 EQ ISZERO PUSH2 0x41E JUMPI PUSH1 0x46 SWAP1 POP PUSH2 0x487 JUMP JUMPDEST PUSH1 0x3 DUP3 EQ ISZERO PUSH2 0x430 JUMPI PUSH1 0x32 SWAP1 POP PUSH2 0x487 JUMP JUMPDEST PUSH1 0x4 DUP3 LT ISZERO DUP1 ISZERO PUSH2 0x442 JUMPI POP PUSH1 0xA DUP3 GT ISZERO JUMPDEST ISZERO PUSH2 0x450 JUMPI PUSH1 0xA SWAP1 POP PUSH2 0x487 JUMP JUMPDEST PUSH1 0xB DUP3 LT ISZERO DUP1 ISZERO PUSH2 0x462 JUMPI POP PUSH1 0x14 DUP3 GT ISZERO JUMPDEST ISZERO PUSH2 0x470 JUMPI PUSH1 0x5 SWAP1 POP PUSH2 0x487 JUMP JUMPDEST PUSH1 0x15 DUP3 LT PUSH2 0x481 JUMPI PUSH1 0x1 SWAP1 POP PUSH2 0x487 JUMP JUMPDEST JUMPDEST PUSH1 0x0 SWAP1 POP JUMPDEST SWAP3 SWAP2 POP POP JUMP JUMPDEST PUSH1 0x0 DUP1 SLOAD PUSH1 0x1 MUL DUP3 LT ISZERO DUP1 ISZERO PUSH2 0x4A8 JUMPI POP PUSH1 0x0 SLOAD PUSH1 0x5 MUL DUP3 GT ISZERO JUMPDEST ISZERO PUSH2 0x4B6 JUMPI PUSH1 0x1 SWAP1 POP PUSH2 0x50B JUMP JUMPDEST PUSH1 0x0 SLOAD PUSH1 0x6 MUL DUP3 LT ISZERO DUP1 ISZERO PUSH2 0x4D0 JUMPI POP PUSH1 0x0 SLOAD PUSH1 0xA MUL DUP3 GT ISZERO JUMPDEST ISZERO PUSH2 0x4DE JUMPI PUSH1 0x2 SWAP1 POP PUSH2 0x50B JUMP JUMPDEST PUSH1 0x0 SLOAD PUSH1 0xB MUL DUP3 LT ISZERO DUP1 ISZERO PUSH2 0x4F8 JUMPI POP PUSH1 0x0 SLOAD PUSH1 0xF MUL DUP3 GT ISZERO JUMPDEST ISZERO PUSH2 0x506 JUMPI PUSH1 0x3 SWAP1 POP PUSH2 0x50B JUMP JUMPDEST PUSH1 0x0 SWAP1 POP JUMPDEST SWAP2 SWAP1 POP JUMP JUMPDEST PUSH1 0x0 DUP2 PUSH1 0x40 MLOAD PUSH1 0x20 ADD DUP1 DUP3 DUP1 MLOAD SWAP1 PUSH1 0x20 ADD SWAP1 DUP1 DUP4 DUP4 JUMPDEST PUSH1 0x20 DUP4 LT PUSH2 0x549 JUMPI DUP1 MLOAD DUP3 MSTORE PUSH1 0x20 DUP3 ADD SWAP2 POP PUSH1 0x20 DUP2 ADD SWAP1 POP PUSH1 0x20 DUP4 SUB SWAP3 POP PUSH2 0x526 JUMP JUMPDEST PUSH1 0x1 DUP4 PUSH1 0x20 SUB PUSH2 0x100 EXP SUB DUP1 NOT DUP3 MLOAD AND DUP2 DUP5 MLOAD AND DUP1 DUP3 OR DUP6 MSTORE POP POP POP POP POP POP SWAP1 POP ADD SWAP2 POP POP PUSH1 0x40 MLOAD PUSH1 0x20 DUP2 DUP4 SUB SUB DUP2 MSTORE SWAP1 PUSH1 0x40 MSTORE DUP1 MLOAD SWAP1 PUSH1 0x20 ADD KECCAK256 DUP4 PUSH1 0x40 MLOAD PUSH1 0x20 ADD DUP1 DUP3 DUP1 MLOAD SWAP1 PUSH1 0x20 ADD SWAP1 DUP1 DUP4 DUP4 JUMPDEST PUSH1 0x20 DUP4 LT PUSH2 0x5BB JUMPI DUP1 MLOAD DUP3 MSTORE PUSH1 0x20 DUP3 ADD SWAP2 POP PUSH1 0x20 DUP2 ADD SWAP1 POP PUSH1 0x20 DUP4 SUB SWAP3 POP PUSH2 0x598 JUMP JUMPDEST PUSH1 0x1 DUP4 PUSH1 0x20 SUB PUSH2 0x100 EXP SUB DUP1 NOT DUP3 MLOAD AND DUP2 DUP5 MLOAD AND DUP1 DUP3 OR DUP6 MSTORE POP POP POP POP POP POP SWAP1 POP ADD SWAP2 POP POP PUSH1 0x40 MLOAD PUSH1 0x20 DUP2 DUP4 SUB SUB DUP2 MSTORE SWAP1 PUSH1 0x40 MSTORE DUP1 MLOAD SWAP1 PUSH1 0x20 ADD KECCAK256 EQ ISZERO PUSH2 0x605 JUMPI PUSH1 0x1 SWAP1 POP PUSH2 0x60A JUMP JUMPDEST PUSH1 0x0 SWAP1 POP JUMPDEST SWAP3 SWAP2 POP POP JUMP JUMPDEST PUSH1 0x0 PUSH1 0x1 DUP3 EQ ISZERO PUSH2 0x624 JUMPI PUSH1 0x3 SWAP1 POP PUSH2 0x64D JUMP JUMPDEST PUSH1 0x2 DUP3 EQ ISZERO PUSH2 0x636 JUMPI PUSH1 0x6 SWAP1 POP PUSH2 0x64D JUMP JUMPDEST PUSH1 0x3 DUP3 EQ ISZERO PUSH2 0x648 JUMPI PUSH1 0xA SWAP1 POP PUSH2 0x64D JUMP JUMPDEST PUSH1 0x0 SWAP1 POP JUMPDEST SWAP2 SWAP1 POP JUMP JUMPDEST PUSH1 0x0 PUSH1 0x1 DUP3 EQ ISZERO PUSH2 0x666 JUMPI PUSH1 0x5 SWAP1 POP PUSH2 0x68F JUMP JUMPDEST PUSH1 0x2 DUP3 EQ ISZERO PUSH2 0x678 JUMPI PUSH1 0x7 SWAP1 POP PUSH2 0x68F JUMP JUMPDEST PUSH1 0x3 DUP3 EQ ISZERO PUSH2 0x68A JUMPI PUSH1 0xA SWAP1 POP PUSH2 0x68F JUMP JUMPDEST PUSH1 0x0 SWAP1 POP JUMPDEST SWAP2 SWAP1 POP JUMP INVALID LOG2 PUSH6 0x627A7A723158 KECCAK256 MOD JUMPI DUP2 0x4D DUP2 DUP7 0xAD DUP13 0xD7 0xD2 CODESIZE 0xAE PUSH5 0x85CE8C102F 0x25 0xE2 PUSH30 0x6EEFEDB0251B70B5E86CE464736F6C634300051100320000000000000000 "
				},
				"gasEstimates": {
					"creation": {
						"codeDepositCost": "347400",
						"executionCost": "20392",
						"totalCost": "367792"
					},
					"external": {
						"compareStr(string,string)": "infinite",
						"getFireScByLevel(uint256)": "455",
						"getLevel(uint256)": "5370",
						"getNodeLevel(uint256)": "4478",
						"getRecommendScaleByLevelAndTim(uint256,uint256)": "763",
						"getScByLevel(uint256)": "477"
					}
				},
				"methodIdentifiers": {
					"compareStr(string,string)": "87c5d5cc",
					"getFireScByLevel(uint256)": "e08f0797",
					"getLevel(uint256)": "86481d40",
					"getNodeLevel(uint256)": "1ceae42f",
					"getRecommendScaleByLevelAndTim(uint256,uint256)": "26eebf41",
					"getScByLevel(uint256)": "f7ad55d9"
				}
			},
			"storageLayout": {
				"storage": [
					{
						"astId": 4,
						"contract": "input/CreateWin.sol:UtilCreateWin",
						"label": "ethWei",
						"offset": 0,
						"slot": "0",
						"type": "t_uint256"
					}
				],
				"types": {
					"t_uint256": {
						"encoding": "inplace",
						"label": "uint256",
						"numberOfBytes": "32"
					}
				}
			},
			"userdoc": {
				"methods": {}
			}
		}
	}
}