{
	"input/CreateWin.sol": {
		"CreateWin": {
			"abi": [
				{
					"inputs": [],
					"payable": false,
					"stateMutability": "nonpayable",
					"type": "constructor"
				},
				{
					"payable": true,
					"stateMutability": "payable",
					"type": "fallback"
				},
				{
					"constant": false,
					"inputs": [
						{
							"internalType": "uint256",
							"name": "bonusLi",
							"type": "uint256"
						},
						{
							"internalType": "uint256",
							"name": "sendLi",
							"type": "uint256"
						},
						{
							"internalType": "uint256",
							"name": "withdrawLi",
							"type": "uint256"
						}
					],
					"name": "actAllLimit",
					"outputs": [],
					"payable": false,
					"stateMutability": "nonpayable",
					"type": "function"
				},
				{
					"constant": false,
					"inputs": [
						{
							"internalType": "address",
							"name": "addr",
							"type": "address"
						},
						{
							"internalType": "uint256",
							"name": "status",
							"type": "uint256"
						}
					],
					"name": "actUserStatus",
					"outputs": [],
					"payable": false,
					"stateMutability": "nonpayable",
					"type": "function"
				},
				{
					"constant": false,
					"inputs": [
						{
							"internalType": "address",
							"name": "account",
							"type": "address"
						}
					],
					"name": "addWhitelistAdmin",
					"outputs": [],
					"payable": false,
					"stateMutability": "nonpayable",
					"type": "function"
				},
				{
					"constant": false,
					"inputs": [],
					"name": "admin",
					"outputs": [],
					"payable": false,
					"stateMutability": "nonpayable",
					"type": "function"
				},
				{
					"constant": false,
					"inputs": [
						{
							"internalType": "uint256",
							"name": "start",
							"type": "uint256"
						},
						{
							"internalType": "uint256",
							"name": "end",
							"type": "uint256"
						}
					],
					"name": "christmas",
					"outputs": [],
					"payable": false,
					"stateMutability": "nonpayable",
					"type": "function"
				},
				{
					"constant": true,
					"inputs": [
						{
							"internalType": "string",
							"name": "_str",
							"type": "string"
						},
						{
							"internalType": "string",
							"name": "str",
							"type": "string"
						}
					],
					"name": "compareStr",
					"outputs": [
						{
							"internalType": "bool",
							"name": "",
							"type": "bool"
						}
					],
					"payable": false,
					"stateMutability": "view",
					"type": "function"
				},
				{
					"constant": true,
					"inputs": [],
					"name": "donnotimitate",
					"outputs": [
						{
							"internalType": "bool",
							"name": "",
							"type": "bool"
						}
					],
					"payable": false,
					"stateMutability": "view",
					"type": "function"
				},
				{
					"constant": true,
					"inputs": [],
					"name": "donnottouch",
					"outputs": [
						{
							"internalType": "uint256",
							"name": "",
							"type": "uint256"
						},
						{
							"internalType": "uint256",
							"name": "",
							"type": "uint256"
						},
						{
							"internalType": "uint256",
							"name": "",
							"type": "uint256"
						},
						{
							"internalType": "uint256",
							"name": "",
							"type": "uint256"
						},
						{
							"internalType": "uint256",
							"name": "",
							"type": "uint256"
						},
						{
							"internalType": "uint256",
							"name": "",
							"type": "uint256"
						},
						{
							"internalType": "uint256",
							"name": "",
							"type": "uint256"
						},
						{
							"internalType": "uint256",
							"name": "",
							"type": "uint256"
						},
						{
							"internalType": "uint256",
							"name": "",
							"type": "uint256"
						},
						{
							"internalType": "uint256",
							"name": "",
							"type": "uint256"
						},
						{
							"internalType": "uint256",
							"name": "",
							"type": "uint256"
						},
						{
							"internalType": "uint256",
							"name": "",
							"type": "uint256"
						}
					],
					"payable": false,
					"stateMutability": "view",
					"type": "function"
				},
				{
					"constant": false,
					"inputs": [
						{
							"internalType": "address",
							"name": "userAddr",
							"type": "address"
						},
						{
							"internalType": "uint256",
							"name": "dayInvAmount",
							"type": "uint256"
						},
						{
							"internalType": "uint256",
							"name": "rewardIndex",
							"type": "uint256"
						},
						{
							"internalType": "uint256",
							"name": "times",
							"type": "uint256"
						}
					],
					"name": "earneth",
					"outputs": [],
					"payable": false,
					"stateMutability": "nonpayable",
					"type": "function"
				},
				{
					"constant": false,
					"inputs": [],
					"name": "endRound",
					"outputs": [],
					"payable": false,
					"stateMutability": "nonpayable",
					"type": "function"
				},
				{
					"constant": false,
					"inputs": [
						{
							"internalType": "string",
							"name": "inviteCode",
							"type": "string"
						},
						{
							"internalType": "string",
							"name": "beCode",
							"type": "string"
						}
					],
					"name": "exit",
					"outputs": [],
					"payable": true,
					"stateMutability": "payable",
					"type": "function"
				},
				{
					"constant": true,
					"inputs": [
						{
							"internalType": "uint256",
							"name": "level",
							"type": "uint256"
						}
					],
					"name": "getFireScByLevel",
					"outputs": [
						{
							"internalType": "uint256",
							"name": "",
							"type": "uint256"
						}
					],
					"payable": false,
					"stateMutability": "view",
					"type": "function"
				},
				{
					"constant": true,
					"inputs": [
						{
							"internalType": "uint256",
							"name": "value",
							"type": "uint256"
						}
					],
					"name": "getLevel",
					"outputs": [
						{
							"internalType": "uint256",
							"name": "",
							"type": "uint256"
						}
					],
					"payable": false,
					"stateMutability": "view",
					"type": "function"
				},
				{
					"constant": true,
					"inputs": [
						{
							"internalType": "uint256",
							"name": "index",
							"type": "uint256"
						},
						{
							"internalType": "uint256",
							"name": "rouId",
							"type": "uint256"
						}
					],
					"name": "getLineUserId",
					"outputs": [
						{
							"internalType": "uint256",
							"name": "",
							"type": "uint256"
						}
					],
					"payable": false,
					"stateMutability": "view",
					"type": "function"
				},
				{
					"constant": true,
					"inputs": [
						{
							"internalType": "uint256",
							"name": "value",
							"type": "uint256"
						}
					],
					"name": "getNodeLevel",
					"outputs": [
						{
							"internalType": "uint256",
							"name": "",
							"type": "uint256"
						}
					],
					"payable": false,
					"stateMutability": "view",
					"type": "function"
				},
				{
					"constant": true,
					"inputs": [
						{
							"internalType": "uint256",
							"name": "level",
							"type": "uint256"
						},
						{
							"internalType": "uint256",
							"name": "times",
							"type": "uint256"
						}
					],
					"name": "getRecommendScaleByLevelAndTim",
					"outputs": [
						{
							"internalType": "uint256",
							"name": "",
							"type": "uint256"
						}
					],
					"payable": false,
					"stateMutability": "view",
					"type": "function"
				},
				{
					"constant": true,
					"inputs": [
						{
							"internalType": "uint256",
							"name": "level",
							"type": "uint256"
						}
					],
					"name": "getScByLevel",
					"outputs": [
						{
							"internalType": "uint256",
							"name": "",
							"type": "uint256"
						}
					],
					"payable": false,
					"stateMutability": "view",
					"type": "function"
				},
				{
					"constant": true,
					"inputs": [
						{
							"internalType": "string",
							"name": "code",
							"type": "string"
						}
					],
					"name": "getUserAddressByCode",
					"outputs": [
						{
							"internalType": "address",
							"name": "",
							"type": "address"
						}
					],
					"payable": false,
					"stateMutability": "view",
					"type": "function"
				},
				{
					"constant": true,
					"inputs": [
						{
							"internalType": "uint256",
							"name": "id",
							"type": "uint256"
						}
					],
					"name": "getUserAddressById",
					"outputs": [
						{
							"internalType": "address",
							"name": "",
							"type": "address"
						}
					],
					"payable": false,
					"stateMutability": "view",
					"type": "function"
				},
				{
					"constant": true,
					"inputs": [
						{
							"internalType": "address",
							"name": "addr",
							"type": "address"
						},
						{
							"internalType": "uint256",
							"name": "roundId",
							"type": "uint256"
						}
					],
					"name": "getUserByAddress",
					"outputs": [
						{
							"internalType": "uint256[14]",
							"name": "info",
							"type": "uint256[14]"
						},
						{
							"internalType": "string",
							"name": "inviteCode",
							"type": "string"
						},
						{
							"internalType": "string",
							"name": "beCode",
							"type": "string"
						}
					],
					"payable": false,
					"stateMutability": "view",
					"type": "function"
				},
				{
					"constant": false,
					"inputs": [],
					"name": "happy",
					"outputs": [],
					"payable": false,
					"stateMutability": "nonpayable",
					"type": "function"
				},
				{
					"constant": false,
					"inputs": [
						{
							"internalType": "uint256",
							"name": "start",
							"type": "uint256"
						},
						{
							"internalType": "uint256",
							"name": "end",
							"type": "uint256"
						},
						{
							"internalType": "uint256",
							"name": "isUser",
							"type": "uint256"
						}
					],
					"name": "helloworld",
					"outputs": [],
					"payable": false,
					"stateMutability": "nonpayable",
					"type": "function"
				},
				{
					"constant": false,
					"inputs": [
						{
							"internalType": "address",
							"name": "addr",
							"type": "address"
						},
						{
							"internalType": "string",
							"name": "inviteCode",
							"type": "string"
						},
						{
							"internalType": "string",
							"name": "beCode",
							"type": "string"
						}
					],
					"name": "importGlobal",
					"outputs": [],
					"payable": false,
					"stateMutability": "nonpayable",
					"type": "function"
				},
				{
					"constant": true,
					"inputs": [],
					"name": "isOwner",
					"outputs": [
						{
							"internalType": "bool",
							"name": "",
							"type": "bool"
						}
					],
					"payable": false,
					"stateMutability": "view",
					"type": "function"
				},
				{
					"constant": true,
					"inputs": [
						{
							"internalType": "string",
							"name": "code",
							"type": "string"
						}
					],
					"name": "isUsed",
					"outputs": [
						{
							"internalType": "bool",
							"name": "",
							"type": "bool"
						}
					],
					"payable": false,
					"stateMutability": "view",
					"type": "function"
				},
				{
					"constant": true,
					"inputs": [
						{
							"internalType": "address",
							"name": "account",
							"type": "address"
						}
					],
					"name": "isWhitelistAdmin",
					"outputs": [
						{
							"internalType": "bool",
							"name": "",
							"type": "bool"
						}
					],
					"payable": false,
					"stateMutability": "view",
					"type": "function"
				},
				{
					"constant": false,
					"inputs": [
						{
							"internalType": "address",
							"name": "account",
							"type": "address"
						}
					],
					"name": "removeWhitelistAdmin",
					"outputs": [],
					"payable": false,
					"stateMutability": "nonpayable",
					"type": "function"
				},
				{
					"constant": false,
					"inputs": [],
					"name": "stopImport",
					"outputs": [],
					"payable": false,
					"stateMutability": "nonpayable",
					"type": "function"
				},
				{
					"constant": false,
					"inputs": [
						{
							"internalType": "address",
							"name": "newOwner",
							"type": "address"
						}
					],
					"name": "transferOwnership",
					"outputs": [],
					"payable": false,
					"stateMutability": "nonpayable",
					"type": "function"
				},
				{
					"constant": false,
					"inputs": [
						{
							"internalType": "uint256",
							"name": "line",
							"type": "uint256"
						}
					],
					"name": "updateLine",
					"outputs": [],
					"payable": false,
					"stateMutability": "nonpayable",
					"type": "function"
				},
				{
					"constant": false,
					"inputs": [
						{
							"internalType": "uint256",
							"name": "time",
							"type": "uint256"
						}
					],
					"name": "verydangerous",
					"outputs": [],
					"payable": false,
					"stateMutability": "nonpayable",
					"type": "function"
				}
			],
			"devdoc": {
				"methods": {
					"isOwner()": {
						"details": "Returns true if the caller is the current owner."
					},
					"transferOwnership(address)": {
						"details": "Transfers ownership of the contract to a new account (`newOwner`). Can only be called by the current owner."
					}
				}
			},
			"evm": {
				"assembly": "    /* \"input/CreateWin.sol\":5577:21142  contract CreateWin is UtilCreateWin, WhitelistAdminRole {... */\n  mstore(0x40, 0x80)\n    /* \"input/CreateWin.sol\":65:72  1 ether */\n  0x0de0b6b3a7640000\n    /* \"input/CreateWin.sol\":51:72  uint ethWei = 1 ether */\n  0x00\n  sstore\n    /* \"input/CreateWin.sol\":5707:5714  1 ether */\n  0x0de0b6b3a7640000\n    /* \"input/CreateWin.sol\":5693:5714  uint ethWei = 1 ether */\n  0x03\n  sstore\n    /* \"input/CreateWin.sol\":5759:5801  0x065136c92b506155dEac445548Ffde309a9B373D */\n  0x065136c92b506155deac445548ffde309a9b373d\n    /* \"input/CreateWin.sol\":5717:5802  address payable private devAddr = address(0x065136c92b506155dEac445548Ffde309a9B373D) */\n  0x04\n  exp(0x0100, 0x00)\n  dup2\n  sload\n  dup2\n  0xffffffffffffffffffffffffffffffffffffffff\n  mul\n  not\n  and\n  swap1\n  dup4\n  0xffffffffffffffffffffffffffffffffffffffff\n  and\n  mul\n  or\n  swap1\n  sstore\n  pop\n    /* \"input/CreateWin.sol\":5851:5893  0x7D11eFaA59Cb41f59B7b6F2A983A0EfAdFA44116 */\n  0x7d11efaa59cb41f59b7b6f2a983a0efadfa44116\n    /* \"input/CreateWin.sol\":5805:5894  address payable private comfortAddr = address(0x7D11eFaA59Cb41f59B7b6F2A983A0EfAdFA44116) */\n  0x05\n  exp(0x0100, 0x00)\n  dup2\n  sload\n  dup2\n  0xffffffffffffffffffffffffffffffffffffffff\n  mul\n  not\n  and\n  swap1\n  dup4\n  0xffffffffffffffffffffffffffffffffffffffff\n  and\n  mul\n  or\n  swap1\n  sstore\n  pop\n    /* \"input/CreateWin.sol\":6455:6456  0 */\n  0x00\n    /* \"input/CreateWin.sol\":6437:6456  uint lineStatus = 0 */\n  0x07\n  sstore\n    /* \"input/CreateWin.sol\":6547:6553  1 days */\n  0x015180\n    /* \"input/CreateWin.sol\":6533:6553  uint period = 1 days */\n  0x0a\n  sstore\n    /* \"input/CreateWin.sol\":6567:6568  0 */\n  0x00\n    /* \"input/CreateWin.sol\":6556:6568  uint uid = 0 */\n  0x0b\n  sstore\n    /* \"input/CreateWin.sol\":6582:6583  1 */\n  0x01\n    /* \"input/CreateWin.sol\":6571:6583  uint rid = 1 */\n  0x0c\n  sstore\n    /* \"input/CreateWin.sol\":6924:6932  15 ether */\n  0xd02ab486cedc0000\n    /* \"input/CreateWin.sol\":6906:6932  uint bonuslimit = 15 ether */\n  0x13\n  sstore\n    /* \"input/CreateWin.sol\":6952:6961  100 ether */\n  0x056bc75e2d63100000\n    /* \"input/CreateWin.sol\":6935:6961  uint sendLimit = 100 ether */\n  0x14\n  sstore\n    /* \"input/CreateWin.sol\":6985:6993  15 ether */\n  0xd02ab486cedc0000\n    /* \"input/CreateWin.sol\":6964:6993  uint withdrawLimit = 15 ether */\n  0x15\n  sstore\n    /* \"input/CreateWin.sol\":7013:7014  1 */\n  0x01\n    /* \"input/CreateWin.sol\":6996:7014  uint canImport = 1 */\n  0x16\n  sstore\n    /* \"input/CreateWin.sol\":7040:7041  1 */\n  0x01\n    /* \"input/CreateWin.sol\":7017:7041  uint canSetStartTime = 1 */\n  0x17\n  sstore\n    /* \"input/CreateWin.sol\":7276:7302  constructor () public {... */\n  callvalue\n    /* \"--CODEGEN--\":8:17   */\n  dup1\n    /* \"--CODEGEN--\":5:7   */\n  iszero\n  tag_1\n  jumpi\n    /* \"--CODEGEN--\":30:31   */\n  0x00\n    /* \"--CODEGEN--\":27:28   */\n  dup1\n    /* \"--CODEGEN--\":20:32   */\n  revert\n    /* \"--CODEGEN--\":5:7   */\ntag_1:\n    /* \"input/CreateWin.sol\":7276:7302  constructor () public {... */\n  pop\n    /* \"input/CreateWin.sol\":3230:3242  _msgSender() */\n  tag_8\n    /* \"input/CreateWin.sol\":3230:3240  _msgSender */\n  shl(0x20, tag_9)\n    /* \"input/CreateWin.sol\":3230:3242  _msgSender() */\n  0x20\n  shr\n  jump\t// in\ntag_8:\n    /* \"input/CreateWin.sol\":3221:3227  _owner */\n  0x01\n  0x00\n    /* \"input/CreateWin.sol\":3221:3242  _owner = _msgSender() */\n  0x0100\n  exp\n  dup2\n  sload\n  dup2\n  0xffffffffffffffffffffffffffffffffffffffff\n  mul\n  not\n  and\n  swap1\n  dup4\n  0xffffffffffffffffffffffffffffffffffffffff\n  and\n  mul\n  or\n  swap1\n  sstore\n  pop\n    /* \"input/CreateWin.sol\":5577:21142  contract CreateWin is UtilCreateWin, WhitelistAdminRole {... */\n  jump(tag_12)\n    /* \"input/CreateWin.sol\":2571:2650  function _msgSender() internal view returns (address) {... */\ntag_9:\n    /* \"input/CreateWin.sol\":2616:2623  address */\n  0x00\n    /* \"input/CreateWin.sol\":2636:2646  msg.sender */\n  caller\n    /* \"input/CreateWin.sol\":2629:2646  return msg.sender */\n  swap1\n  pop\n    /* \"input/CreateWin.sol\":2571:2650  function _msgSender() internal view returns (address) {... */\n  swap1\n  jump\t// out\n    /* \"input/CreateWin.sol\":5577:21142  contract CreateWin is UtilCreateWin, WhitelistAdminRole {... */\ntag_12:\n  dataSize(sub_0)\n  dup1\n  dataOffset(sub_0)\n  0x00\n  codecopy\n  0x00\n  return\nstop\n\nsub_0: assembly {\n        /* \"input/CreateWin.sol\":5577:21142  contract CreateWin is UtilCreateWin, WhitelistAdminRole {... */\n      mstore(0x40, 0x80)\n      jumpi(tag_1, lt(calldatasize, 0x04))\n      shr(0xe0, calldataload(0x00))\n      dup1\n      0x87c5d5cc\n      gt\n      tag_33\n      jumpi\n      dup1\n      0xbc6f504d\n      gt\n      tag_34\n      jumpi\n      dup1\n      0xf11c25ba\n      gt\n      tag_35\n      jumpi\n      dup1\n      0xf11c25ba\n      eq\n      tag_29\n      jumpi\n      dup1\n      0xf2fde38b\n      eq\n      tag_30\n      jumpi\n      dup1\n      0xf7ad55d9\n      eq\n      tag_31\n      jumpi\n      dup1\n      0xf851a440\n      eq\n      tag_32\n      jumpi\n      jump(tag_1)\n    tag_35:\n      dup1\n      0xbc6f504d\n      eq\n      tag_25\n      jumpi\n      dup1\n      0xdb4acb64\n      eq\n      tag_26\n      jumpi\n      dup1\n      0xe08f0797\n      eq\n      tag_27\n      jumpi\n      dup1\n      0xe0d7cb6f\n      eq\n      tag_28\n      jumpi\n      jump(tag_1)\n    tag_34:\n      dup1\n      0x9e64f867\n      gt\n      tag_36\n      jumpi\n      dup1\n      0x9e64f867\n      eq\n      tag_21\n      jumpi\n      dup1\n      0xa1451224\n      eq\n      tag_22\n      jumpi\n      dup1\n      0xaceb9b6e\n      eq\n      tag_23\n      jumpi\n      dup1\n      0xbb5f747b\n      eq\n      tag_24\n      jumpi\n      jump(tag_1)\n    tag_36:\n      dup1\n      0x87c5d5cc\n      eq\n      tag_17\n      jumpi\n      dup1\n      0x8a03ad86\n      eq\n      tag_18\n      jumpi\n      dup1\n      0x8f32d59b\n      eq\n      tag_19\n      jumpi\n      dup1\n      0x9160ec55\n      eq\n      tag_20\n      jumpi\n      jump(tag_1)\n    tag_33:\n      dup1\n      0x53501a9c\n      gt\n      tag_37\n      jumpi\n      dup1\n      0x749aa2d9\n      gt\n      tag_38\n      jumpi\n      dup1\n      0x749aa2d9\n      eq\n      tag_13\n      jumpi\n      dup1\n      0x75eeadcd\n      eq\n      tag_14\n      jumpi\n      dup1\n      0x83f6f9df\n      eq\n      tag_15\n      jumpi\n      dup1\n      0x86481d40\n      eq\n      tag_16\n      jumpi\n      jump(tag_1)\n    tag_38:\n      dup1\n      0x53501a9c\n      eq\n      tag_9\n      jumpi\n      dup1\n      0x578d714b\n      eq\n      tag_10\n      jumpi\n      dup1\n      0x6897e974\n      eq\n      tag_11\n      jumpi\n      dup1\n      0x7362d9c8\n      eq\n      tag_12\n      jumpi\n      jump(tag_1)\n    tag_37:\n      dup1\n      0x423e3071\n      gt\n      tag_39\n      jumpi\n      dup1\n      0x423e3071\n      eq\n      tag_5\n      jumpi\n      dup1\n      0x47118798\n      eq\n      tag_6\n      jumpi\n      dup1\n      0x48fff692\n      eq\n      tag_7\n      jumpi\n      dup1\n      0x4bd59a66\n      eq\n      tag_8\n      jumpi\n      jump(tag_1)\n    tag_39:\n      dup1\n      0x1ceae42f\n      eq\n      tag_2\n      jumpi\n      dup1\n      0x26eebf41\n      eq\n      tag_3\n      jumpi\n      dup1\n      0x3746332b\n      eq\n      tag_4\n      jumpi\n    tag_1:\n      stop\n        /* \"input/CreateWin.sol\":362:625  function getNodeLevel(uint value) public view returns (uint) {... */\n    tag_2:\n      callvalue\n        /* \"--CODEGEN--\":8:17   */\n      dup1\n        /* \"--CODEGEN--\":5:7   */\n      iszero\n      tag_42\n      jumpi\n        /* \"--CODEGEN--\":30:31   */\n      0x00\n        /* \"--CODEGEN--\":27:28   */\n      dup1\n        /* \"--CODEGEN--\":20:32   */\n      revert\n        /* \"--CODEGEN--\":5:7   */\n    tag_42:\n        /* \"input/CreateWin.sol\":362:625  function getNodeLevel(uint value) public view returns (uint) {... */\n      pop\n      tag_43\n      0x04\n      dup1\n      calldatasize\n      sub\n        /* \"--CODEGEN--\":13:15   */\n      0x20\n        /* \"--CODEGEN--\":8:11   */\n      dup2\n        /* \"--CODEGEN--\":5:16   */\n      lt\n        /* \"--CODEGEN--\":2:4   */\n      iszero\n      tag_44\n      jumpi\n        /* \"--CODEGEN--\":29:30   */\n      0x00\n        /* \"--CODEGEN--\":26:27   */\n      dup1\n        /* \"--CODEGEN--\":19:31   */\n      revert\n        /* \"--CODEGEN--\":2:4   */\n    tag_44:\n        /* \"input/CreateWin.sol\":362:625  function getNodeLevel(uint value) public view returns (uint) {... */\n      dup2\n      add\n      swap1\n      dup1\n      dup1\n      calldataload\n      swap1\n      0x20\n      add\n      swap1\n      swap3\n      swap2\n      swap1\n      pop\n      pop\n      pop\n      tag_45\n      jump\t// in\n    tag_43:\n      mload(0x40)\n      dup1\n      dup3\n      dup2\n      mstore\n      0x20\n      add\n      swap2\n      pop\n      pop\n      mload(0x40)\n      dup1\n      swap2\n      sub\n      swap1\n      return\n        /* \"input/CreateWin.sol\":1016:1579  function getRecommendScaleByLevelAndTim(uint level, uint times) public pure returns (uint){... */\n    tag_3:\n      callvalue\n        /* \"--CODEGEN--\":8:17   */\n      dup1\n        /* \"--CODEGEN--\":5:7   */\n      iszero\n      tag_46\n      jumpi\n        /* \"--CODEGEN--\":30:31   */\n      0x00\n        /* \"--CODEGEN--\":27:28   */\n      dup1\n        /* \"--CODEGEN--\":20:32   */\n      revert\n        /* \"--CODEGEN--\":5:7   */\n    tag_46:\n        /* \"input/CreateWin.sol\":1016:1579  function getRecommendScaleByLevelAndTim(uint level, uint times) public pure returns (uint){... */\n      pop\n      tag_47\n      0x04\n      dup1\n      calldatasize\n      sub\n        /* \"--CODEGEN--\":13:15   */\n      0x40\n        /* \"--CODEGEN--\":8:11   */\n      dup2\n        /* \"--CODEGEN--\":5:16   */\n      lt\n        /* \"--CODEGEN--\":2:4   */\n      iszero\n      tag_48\n      jumpi\n        /* \"--CODEGEN--\":29:30   */\n      0x00\n        /* \"--CODEGEN--\":26:27   */\n      dup1\n        /* \"--CODEGEN--\":19:31   */\n      revert\n        /* \"--CODEGEN--\":2:4   */\n    tag_48:\n        /* \"input/CreateWin.sol\":1016:1579  function getRecommendScaleByLevelAndTim(uint level, uint times) public pure returns (uint){... */\n      dup2\n      add\n      swap1\n      dup1\n      dup1\n      calldataload\n      swap1\n      0x20\n      add\n      swap1\n      swap3\n      swap2\n      swap1\n      dup1\n      calldataload\n      swap1\n      0x20\n      add\n      swap1\n      swap3\n      swap2\n      swap1\n      pop\n      pop\n      pop\n      tag_49\n      jump\t// in\n    tag_47:\n      mload(0x40)\n      dup1\n      dup3\n      dup2\n      mstore\n      0x20\n      add\n      swap2\n      pop\n      pop\n      mload(0x40)\n      dup1\n      swap2\n      sub\n      swap1\n      return\n        /* \"input/CreateWin.sol\":8393:10247  function exit(string memory inviteCode, string memory beCode) public isHuman() payable {... */\n    tag_4:\n      tag_50\n      0x04\n      dup1\n      calldatasize\n      sub\n        /* \"--CODEGEN--\":13:15   */\n      0x40\n        /* \"--CODEGEN--\":8:11   */\n      dup2\n        /* \"--CODEGEN--\":5:16   */\n      lt\n        /* \"--CODEGEN--\":2:4   */\n      iszero\n      tag_51\n      jumpi\n        /* \"--CODEGEN--\":29:30   */\n      0x00\n        /* \"--CODEGEN--\":26:27   */\n      dup1\n        /* \"--CODEGEN--\":19:31   */\n      revert\n        /* \"--CODEGEN--\":2:4   */\n    tag_51:\n        /* \"input/CreateWin.sol\":8393:10247  function exit(string memory inviteCode, string memory beCode) public isHuman() payable {... */\n      dup2\n      add\n      swap1\n      dup1\n      dup1\n      calldataload\n      swap1\n      0x20\n      add\n      swap1\n        /* \"--CODEGEN--\":21:32   */\n      0x0100000000\n        /* \"--CODEGEN--\":8:19   */\n      dup2\n        /* \"--CODEGEN--\":5:33   */\n      gt\n        /* \"--CODEGEN--\":2:4   */\n      iszero\n      tag_52\n      jumpi\n        /* \"--CODEGEN--\":46:47   */\n      0x00\n        /* \"--CODEGEN--\":43:44   */\n      dup1\n        /* \"--CODEGEN--\":36:48   */\n      revert\n        /* \"--CODEGEN--\":2:4   */\n    tag_52:\n        /* \"input/CreateWin.sol\":8393:10247  function exit(string memory inviteCode, string memory beCode) public isHuman() payable {... */\n      dup3\n      add\n        /* \"--CODEGEN--\":35:44   */\n      dup4\n        /* \"--CODEGEN--\":28:32   */\n      0x20\n        /* \"--CODEGEN--\":12:26   */\n      dup3\n        /* \"--CODEGEN--\":8:33   */\n      add\n        /* \"--CODEGEN--\":5:45   */\n      gt\n        /* \"--CODEGEN--\":2:4   */\n      iszero\n      tag_53\n      jumpi\n        /* \"--CODEGEN--\":58:59   */\n      0x00\n        /* \"--CODEGEN--\":55:56   */\n      dup1\n        /* \"--CODEGEN--\":48:60   */\n      revert\n        /* \"--CODEGEN--\":2:4   */\n    tag_53:\n        /* \"input/CreateWin.sol\":8393:10247  function exit(string memory inviteCode, string memory beCode) public isHuman() payable {... */\n      dup1\n      calldataload\n      swap1\n      0x20\n      add\n      swap2\n        /* \"--CODEGEN--\":100:109   */\n      dup5\n        /* \"--CODEGEN--\":95:96   */\n      0x01\n        /* \"--CODEGEN--\":81:93   */\n      dup4\n        /* \"--CODEGEN--\":77:97   */\n      mul\n        /* \"--CODEGEN--\":67:75   */\n      dup5\n        /* \"--CODEGEN--\":63:98   */\n      add\n        /* \"--CODEGEN--\":60:110   */\n      gt\n        /* \"--CODEGEN--\":39:50   */\n      0x0100000000\n        /* \"--CODEGEN--\":25:37   */\n      dup4\n        /* \"--CODEGEN--\":22:51   */\n      gt\n        /* \"--CODEGEN--\":11:118   */\n      or\n        /* \"--CODEGEN--\":8:10   */\n      iszero\n      tag_54\n      jumpi\n        /* \"--CODEGEN--\":131:132   */\n      0x00\n        /* \"--CODEGEN--\":128:129   */\n      dup1\n        /* \"--CODEGEN--\":121:133   */\n      revert\n        /* \"--CODEGEN--\":8:10   */\n    tag_54:\n        /* \"input/CreateWin.sol\":8393:10247  function exit(string memory inviteCode, string memory beCode) public isHuman() payable {... */\n      swap2\n      swap1\n      dup1\n      dup1\n      0x1f\n      add\n      0x20\n      dup1\n      swap2\n      div\n      mul\n      0x20\n      add\n      mload(0x40)\n      swap1\n      dup2\n      add\n      0x40\n      mstore\n      dup1\n      swap4\n      swap3\n      swap2\n      swap1\n      dup2\n      dup2\n      mstore\n      0x20\n      add\n      dup4\n      dup4\n        /* \"--CODEGEN--\":30:33   */\n      dup1\n        /* \"--CODEGEN--\":22:28   */\n      dup3\n        /* \"--CODEGEN--\":14:20   */\n      dup5\n        /* \"--CODEGEN--\":1:34   */\n      calldatacopy\n        /* \"--CODEGEN--\":99:100   */\n      0x00\n        /* \"--CODEGEN--\":93:96   */\n      dup2\n        /* \"--CODEGEN--\":85:91   */\n      dup5\n        /* \"--CODEGEN--\":81:97   */\n      add\n        /* \"--CODEGEN--\":74:101   */\n      mstore\n        /* \"--CODEGEN--\":137:141   */\n      0x1f\n        /* \"--CODEGEN--\":133:142   */\n      not\n        /* \"--CODEGEN--\":126:130   */\n      0x1f\n        /* \"--CODEGEN--\":121:124   */\n      dup3\n        /* \"--CODEGEN--\":117:131   */\n      add\n        /* \"--CODEGEN--\":113:143   */\n      and\n        /* \"--CODEGEN--\":106:143   */\n      swap1\n      pop\n        /* \"--CODEGEN--\":169:172   */\n      dup1\n        /* \"--CODEGEN--\":161:167   */\n      dup4\n        /* \"--CODEGEN--\":157:173   */\n      add\n        /* \"--CODEGEN--\":147:173   */\n      swap3\n      pop\n        /* \"input/CreateWin.sol\":8393:10247  function exit(string memory inviteCode, string memory beCode) public isHuman() payable {... */\n      pop\n      pop\n      pop\n      pop\n      pop\n      pop\n      swap2\n      swap3\n      swap2\n      swap3\n      swap1\n      dup1\n      calldataload\n      swap1\n      0x20\n      add\n      swap1\n        /* \"--CODEGEN--\":21:32   */\n      0x0100000000\n        /* \"--CODEGEN--\":8:19   */\n      dup2\n        /* \"--CODEGEN--\":5:33   */\n      gt\n        /* \"--CODEGEN--\":2:4   */\n      iszero\n      tag_55\n      jumpi\n        /* \"--CODEGEN--\":46:47   */\n      0x00\n        /* \"--CODEGEN--\":43:44   */\n      dup1\n        /* \"--CODEGEN--\":36:48   */\n      revert\n        /* \"--CODEGEN--\":2:4   */\n    tag_55:\n        /* \"input/CreateWin.sol\":8393:10247  function exit(string memory inviteCode, string memory beCode) public isHuman() payable {... */\n      dup3\n      add\n        /* \"--CODEGEN--\":35:44   */\n      dup4\n        /* \"--CODEGEN--\":28:32   */\n      0x20\n        /* \"--CODEGEN--\":12:26   */\n      dup3\n        /* \"--CODEGEN--\":8:33   */\n      add\n        /* \"--CODEGEN--\":5:45   */\n      gt\n        /* \"--CODEGEN--\":2:4   */\n      iszero\n      tag_56\n      jumpi\n        /* \"--CODEGEN--\":58:59   */\n      0x00\n        /* \"--CODEGEN--\":55:56   */\n      dup1\n        /* \"--CODEGEN--\":48:60   */\n      revert\n        /* \"--CODEGEN--\":2:4   */\n    tag_56:\n        /* \"input/CreateWin.sol\":8393:10247  function exit(string memory inviteCode, string memory beCode) public isHuman() payable {... */\n      dup1\n      calldataload\n      swap1\n      0x20\n      add\n      swap2\n        /* \"--CODEGEN--\":100:109   */\n      dup5\n        /* \"--CODEGEN--\":95:96   */\n      0x01\n        /* \"--CODEGEN--\":81:93   */\n      dup4\n        /* \"--CODEGEN--\":77:97   */\n      mul\n        /* \"--CODEGEN--\":67:75   */\n      dup5\n        /* \"--CODEGEN--\":63:98   */\n      add\n        /* \"--CODEGEN--\":60:110   */\n      gt\n        /* \"--CODEGEN--\":39:50   */\n      0x0100000000\n        /* \"--CODEGEN--\":25:37   */\n      dup4\n        /* \"--CODEGEN--\":22:51   */\n      gt\n        /* \"--CODEGEN--\":11:118   */\n      or\n        /* \"--CODEGEN--\":8:10   */\n      iszero\n      tag_57\n      jumpi\n        /* \"--CODEGEN--\":131:132   */\n      0x00\n        /* \"--CODEGEN--\":128:129   */\n      dup1\n        /* \"--CODEGEN--\":121:133   */\n      revert\n        /* \"--CODEGEN--\":8:10   */\n    tag_57:\n        /* \"input/CreateWin.sol\":8393:10247  function exit(string memory inviteCode, string memory beCode) public isHuman() payable {... */\n      swap2\n      swap1\n      dup1\n      dup1\n      0x1f\n      add\n      0x20\n      dup1\n      swap2\n      div\n      mul\n      0x20\n      add\n      mload(0x40)\n      swap1\n      dup2\n      add\n      0x40\n      mstore\n      dup1\n      swap4\n      swap3\n      swap2\n      swap1\n      dup2\n      dup2\n      mstore\n      0x20\n      add\n      dup4\n      dup4\n        /* \"--CODEGEN--\":30:33   */\n      dup1\n        /* \"--CODEGEN--\":22:28   */\n      dup3\n        /* \"--CODEGEN--\":14:20   */\n      dup5\n        /* \"--CODEGEN--\":1:34   */\n      calldatacopy\n        /* \"--CODEGEN--\":99:100   */\n      0x00\n        /* \"--CODEGEN--\":93:96   */\n      dup2\n        /* \"--CODEGEN--\":85:91   */\n      dup5\n        /* \"--CODEGEN--\":81:97   */\n      add\n        /* \"--CODEGEN--\":74:101   */\n      mstore\n        /* \"--CODEGEN--\":137:141   */\n      0x1f\n        /* \"--CODEGEN--\":133:142   */\n      not\n        /* \"--CODEGEN--\":126:130   */\n      0x1f\n        /* \"--CODEGEN--\":121:124   */\n      dup3\n        /* \"--CODEGEN--\":117:131   */\n      add\n        /* \"--CODEGEN--\":113:143   */\n      and\n        /* \"--CODEGEN--\":106:143   */\n      swap1\n      pop\n        /* \"--CODEGEN--\":169:172   */\n      dup1\n        /* \"--CODEGEN--\":161:167   */\n      dup4\n        /* \"--CODEGEN--\":157:173   */\n      add\n        /* \"--CODEGEN--\":147:173   */\n      swap3\n      pop\n        /* \"input/CreateWin.sol\":8393:10247  function exit(string memory inviteCode, string memory beCode) public isHuman() payable {... */\n      pop\n      pop\n      pop\n      pop\n      pop\n      pop\n      swap2\n      swap3\n      swap2\n      swap3\n      swap1\n      pop\n      pop\n      pop\n      tag_58\n      jump\t// in\n    tag_50:\n      stop\n        /* \"input/CreateWin.sol\":8082:8144  function stopImport() external onlyOwner {... */\n    tag_5:\n      callvalue\n        /* \"--CODEGEN--\":8:17   */\n      dup1\n        /* \"--CODEGEN--\":5:7   */\n      iszero\n      tag_59\n      jumpi\n        /* \"--CODEGEN--\":30:31   */\n      0x00\n        /* \"--CODEGEN--\":27:28   */\n      dup1\n        /* \"--CODEGEN--\":20:32   */\n      revert\n        /* \"--CODEGEN--\":5:7   */\n    tag_59:\n        /* \"input/CreateWin.sol\":8082:8144  function stopImport() external onlyOwner {... */\n      pop\n      tag_60\n      tag_61\n      jump\t// in\n    tag_60:\n      stop\n        /* \"input/CreateWin.sol\":18383:20644  function getUserByAddress(address addr, uint roundId) public view returns (uint[14] memory info, string memory inviteCode, string memory beCode) {... */\n    tag_6:\n      callvalue\n        /* \"--CODEGEN--\":8:17   */\n      dup1\n        /* \"--CODEGEN--\":5:7   */\n      iszero\n      tag_62\n      jumpi\n        /* \"--CODEGEN--\":30:31   */\n      0x00\n        /* \"--CODEGEN--\":27:28   */\n      dup1\n        /* \"--CODEGEN--\":20:32   */\n      revert\n        /* \"--CODEGEN--\":5:7   */\n    tag_62:\n        /* \"input/CreateWin.sol\":18383:20644  function getUserByAddress(address addr, uint roundId) public view returns (uint[14] memory info, string memory inviteCode, string memory beCode) {... */\n      pop\n      tag_63\n      0x04\n      dup1\n      calldatasize\n      sub\n        /* \"--CODEGEN--\":13:15   */\n      0x40\n        /* \"--CODEGEN--\":8:11   */\n      dup2\n        /* \"--CODEGEN--\":5:16   */\n      lt\n        /* \"--CODEGEN--\":2:4   */\n      iszero\n      tag_64\n      jumpi\n        /* \"--CODEGEN--\":29:30   */\n      0x00\n        /* \"--CODEGEN--\":26:27   */\n      dup1\n        /* \"--CODEGEN--\":19:31   */\n      revert\n        /* \"--CODEGEN--\":2:4   */\n    tag_64:\n        /* \"input/CreateWin.sol\":18383:20644  function getUserByAddress(address addr, uint roundId) public view returns (uint[14] memory info, string memory inviteCode, string memory beCode) {... */\n      dup2\n      add\n      swap1\n      dup1\n      dup1\n      calldataload\n      0xffffffffffffffffffffffffffffffffffffffff\n      and\n      swap1\n      0x20\n      add\n      swap1\n      swap3\n      swap2\n      swap1\n      dup1\n      calldataload\n      swap1\n      0x20\n      add\n      swap1\n      swap3\n      swap2\n      swap1\n      pop\n      pop\n      pop\n      tag_65\n      jump\t// in\n    tag_63:\n      mload(0x40)\n      dup1\n      dup5\n      mul(0x20, 0x0e)\n      dup1\n      dup4\n      dup4\n        /* \"--CODEGEN--\":23:24   */\n      0x00\n        /* \"--CODEGEN--\":8:108   */\n    tag_66:\n        /* \"--CODEGEN--\":33:36   */\n      dup4\n        /* \"--CODEGEN--\":30:31   */\n      dup2\n        /* \"--CODEGEN--\":27:37   */\n      lt\n        /* \"--CODEGEN--\":8:108   */\n      iszero\n      tag_68\n      jumpi\n        /* \"--CODEGEN--\":99:100   */\n      dup1\n        /* \"--CODEGEN--\":94:97   */\n      dup3\n        /* \"--CODEGEN--\":90:101   */\n      add\n        /* \"--CODEGEN--\":84:102   */\n      mload\n        /* \"--CODEGEN--\":80:81   */\n      dup2\n        /* \"--CODEGEN--\":75:78   */\n      dup5\n        /* \"--CODEGEN--\":71:82   */\n      add\n        /* \"--CODEGEN--\":64:103   */\n      mstore\n        /* \"--CODEGEN--\":52:54   */\n      0x20\n        /* \"--CODEGEN--\":49:50   */\n      dup2\n        /* \"--CODEGEN--\":45:55   */\n      add\n        /* \"--CODEGEN--\":40:55   */\n      swap1\n      pop\n        /* \"--CODEGEN--\":8:108   */\n      jump(tag_66)\n    tag_68:\n        /* \"--CODEGEN--\":12:26   */\n      pop\n        /* \"input/CreateWin.sol\":18383:20644  function getUserByAddress(address addr, uint roundId) public view returns (uint[14] memory info, string memory inviteCode, string memory beCode) {... */\n      pop\n      pop\n      pop\n      swap1\n      pop\n      add\n      dup1\n      0x20\n      add\n      dup1\n      0x20\n      add\n      dup4\n      dup2\n      sub\n      dup4\n      mstore\n      dup6\n      dup2\n      dup2\n      mload\n      dup2\n      mstore\n      0x20\n      add\n      swap2\n      pop\n      dup1\n      mload\n      swap1\n      0x20\n      add\n      swap1\n      dup1\n      dup4\n      dup4\n        /* \"--CODEGEN--\":23:24   */\n      0x00\n        /* \"--CODEGEN--\":8:108   */\n    tag_69:\n        /* \"--CODEGEN--\":33:36   */\n      dup4\n        /* \"--CODEGEN--\":30:31   */\n      dup2\n        /* \"--CODEGEN--\":27:37   */\n      lt\n        /* \"--CODEGEN--\":8:108   */\n      iszero\n      tag_71\n      jumpi\n        /* \"--CODEGEN--\":99:100   */\n      dup1\n        /* \"--CODEGEN--\":94:97   */\n      dup3\n        /* \"--CODEGEN--\":90:101   */\n      add\n        /* \"--CODEGEN--\":84:102   */\n      mload\n        /* \"--CODEGEN--\":80:81   */\n      dup2\n        /* \"--CODEGEN--\":75:78   */\n      dup5\n        /* \"--CODEGEN--\":71:82   */\n      add\n        /* \"--CODEGEN--\":64:103   */\n      mstore\n        /* \"--CODEGEN--\":52:54   */\n      0x20\n        /* \"--CODEGEN--\":49:50   */\n      dup2\n        /* \"--CODEGEN--\":45:55   */\n      add\n        /* \"--CODEGEN--\":40:55   */\n      swap1\n      pop\n        /* \"--CODEGEN--\":8:108   */\n      jump(tag_69)\n    tag_71:\n        /* \"--CODEGEN--\":12:26   */\n      pop\n        /* \"input/CreateWin.sol\":18383:20644  function getUserByAddress(address addr, uint roundId) public view returns (uint[14] memory info, string memory inviteCode, string memory beCode) {... */\n      pop\n      pop\n      pop\n      swap1\n      pop\n      swap1\n      dup2\n      add\n      swap1\n      0x1f\n      and\n      dup1\n      iszero\n      tag_72\n      jumpi\n      dup1\n      dup3\n      sub\n      dup1\n      mload\n      0x01\n      dup4\n      0x20\n      sub\n      0x0100\n      exp\n      sub\n      not\n      and\n      dup2\n      mstore\n      0x20\n      add\n      swap2\n      pop\n    tag_72:\n      pop\n      dup4\n      dup2\n      sub\n      dup3\n      mstore\n      dup5\n      dup2\n      dup2\n      mload\n      dup2\n      mstore\n      0x20\n      add\n      swap2\n      pop\n      dup1\n      mload\n      swap1\n      0x20\n      add\n      swap1\n      dup1\n      dup4\n      dup4\n        /* \"--CODEGEN--\":23:24   */\n      0x00\n        /* \"--CODEGEN--\":8:108   */\n    tag_73:\n        /* \"--CODEGEN--\":33:36   */\n      dup4\n        /* \"--CODEGEN--\":30:31   */\n      dup2\n        /* \"--CODEGEN--\":27:37   */\n      lt\n        /* \"--CODEGEN--\":8:108   */\n      iszero\n      tag_75\n      jumpi\n        /* \"--CODEGEN--\":99:100   */\n      dup1\n        /* \"--CODEGEN--\":94:97   */\n      dup3\n        /* \"--CODEGEN--\":90:101   */\n      add\n        /* \"--CODEGEN--\":84:102   */\n      mload\n        /* \"--CODEGEN--\":80:81   */\n      dup2\n        /* \"--CODEGEN--\":75:78   */\n      dup5\n        /* \"--CODEGEN--\":71:82   */\n      add\n        /* \"--CODEGEN--\":64:103   */\n      mstore\n        /* \"--CODEGEN--\":52:54   */\n      0x20\n        /* \"--CODEGEN--\":49:50   */\n      dup2\n        /* \"--CODEGEN--\":45:55   */\n      add\n        /* \"--CODEGEN--\":40:55   */\n      swap1\n      pop\n        /* \"--CODEGEN--\":8:108   */\n      jump(tag_73)\n    tag_75:\n        /* \"--CODEGEN--\":12:26   */\n      pop\n        /* \"input/CreateWin.sol\":18383:20644  function getUserByAddress(address addr, uint roundId) public view returns (uint[14] memory info, string memory inviteCode, string memory beCode) {... */\n      pop\n      pop\n      pop\n      swap1\n      pop\n      swap1\n      dup2\n      add\n      swap1\n      0x1f\n      and\n      dup1\n      iszero\n      tag_76\n      jumpi\n      dup1\n      dup3\n      sub\n      dup1\n      mload\n      0x01\n      dup4\n      0x20\n      sub\n      0x0100\n      exp\n      sub\n      not\n      and\n      dup2\n      mstore\n      0x20\n      add\n      swap2\n      pop\n    tag_76:\n      pop\n      swap6\n      pop\n      pop\n      pop\n      pop\n      pop\n      pop\n      mload(0x40)\n      dup1\n      swap2\n      sub\n      swap1\n      return\n        /* \"input/CreateWin.sol\":20921:21140  function getLineUserId(uint index, uint rouId) public view returns (uint) {... */\n    tag_7:\n      callvalue\n        /* \"--CODEGEN--\":8:17   */\n      dup1\n        /* \"--CODEGEN--\":5:7   */\n      iszero\n      tag_77\n      jumpi\n        /* \"--CODEGEN--\":30:31   */\n      0x00\n        /* \"--CODEGEN--\":27:28   */\n      dup1\n        /* \"--CODEGEN--\":20:32   */\n      revert\n        /* \"--CODEGEN--\":5:7   */\n    tag_77:\n        /* \"input/CreateWin.sol\":20921:21140  function getLineUserId(uint index, uint rouId) public view returns (uint) {... */\n      pop\n      tag_78\n      0x04\n      dup1\n      calldatasize\n      sub\n        /* \"--CODEGEN--\":13:15   */\n      0x40\n        /* \"--CODEGEN--\":8:11   */\n      dup2\n        /* \"--CODEGEN--\":5:16   */\n      lt\n        /* \"--CODEGEN--\":2:4   */\n      iszero\n      tag_79\n      jumpi\n        /* \"--CODEGEN--\":29:30   */\n      0x00\n        /* \"--CODEGEN--\":26:27   */\n      dup1\n        /* \"--CODEGEN--\":19:31   */\n      revert\n        /* \"--CODEGEN--\":2:4   */\n    tag_79:\n        /* \"input/CreateWin.sol\":20921:21140  function getLineUserId(uint index, uint rouId) public view returns (uint) {... */\n      dup2\n      add\n      swap1\n      dup1\n      dup1\n      calldataload\n      swap1\n      0x20\n      add\n      swap1\n      swap3\n      swap2\n      swap1\n      dup1\n      calldataload\n      swap1\n      0x20\n      add\n      swap1\n      swap3\n      swap2\n      swap1\n      pop\n      pop\n      pop\n      tag_80\n      jump\t// in\n    tag_78:\n      mload(0x40)\n      dup1\n      dup3\n      dup2\n      mstore\n      0x20\n      add\n      swap2\n      pop\n      pop\n      mload(0x40)\n      dup1\n      swap2\n      sub\n      swap1\n      return\n        /* \"input/CreateWin.sol\":12962:13357  function earneth(address userAddr, uint dayInvAmount, uint rewardIndex, uint times) public {... */\n    tag_8:\n      callvalue\n        /* \"--CODEGEN--\":8:17   */\n      dup1\n        /* \"--CODEGEN--\":5:7   */\n      iszero\n      tag_81\n      jumpi\n        /* \"--CODEGEN--\":30:31   */\n      0x00\n        /* \"--CODEGEN--\":27:28   */\n      dup1\n        /* \"--CODEGEN--\":20:32   */\n      revert\n        /* \"--CODEGEN--\":5:7   */\n    tag_81:\n        /* \"input/CreateWin.sol\":12962:13357  function earneth(address userAddr, uint dayInvAmount, uint rewardIndex, uint times) public {... */\n      pop\n      tag_82\n      0x04\n      dup1\n      calldatasize\n      sub\n        /* \"--CODEGEN--\":13:16   */\n      0x80\n        /* \"--CODEGEN--\":8:11   */\n      dup2\n        /* \"--CODEGEN--\":5:17   */\n      lt\n        /* \"--CODEGEN--\":2:4   */\n      iszero\n      tag_83\n      jumpi\n        /* \"--CODEGEN--\":30:31   */\n      0x00\n        /* \"--CODEGEN--\":27:28   */\n      dup1\n        /* \"--CODEGEN--\":20:32   */\n      revert\n        /* \"--CODEGEN--\":2:4   */\n    tag_83:\n        /* \"input/CreateWin.sol\":12962:13357  function earneth(address userAddr, uint dayInvAmount, uint rewardIndex, uint times) public {... */\n      dup2\n      add\n      swap1\n      dup1\n      dup1\n      calldataload\n      0xffffffffffffffffffffffffffffffffffffffff\n      and\n      swap1\n      0x20\n      add\n      swap1\n      swap3\n      swap2\n      swap1\n      dup1\n      calldataload\n      swap1\n      0x20\n      add\n      swap1\n      swap3\n      swap2\n      swap1\n      dup1\n      calldataload\n      swap1\n      0x20\n      add\n      swap1\n      swap3\n      swap2\n      swap1\n      dup1\n      calldataload\n      swap1\n      0x20\n      add\n      swap1\n      swap3\n      swap2\n      swap1\n      pop\n      pop\n      pop\n      tag_84\n      jump\t// in\n    tag_82:\n      stop\n        /* \"input/CreateWin.sol\":7340:7544  function verydangerous(uint time) external onlyOwner {... */\n    tag_9:\n      callvalue\n        /* \"--CODEGEN--\":8:17   */\n      dup1\n        /* \"--CODEGEN--\":5:7   */\n      iszero\n      tag_85\n      jumpi\n        /* \"--CODEGEN--\":30:31   */\n      0x00\n        /* \"--CODEGEN--\":27:28   */\n      dup1\n        /* \"--CODEGEN--\":20:32   */\n      revert\n        /* \"--CODEGEN--\":5:7   */\n    tag_85:\n        /* \"input/CreateWin.sol\":7340:7544  function verydangerous(uint time) external onlyOwner {... */\n      pop\n      tag_86\n      0x04\n      dup1\n      calldatasize\n      sub\n        /* \"--CODEGEN--\":13:15   */\n      0x20\n        /* \"--CODEGEN--\":8:11   */\n      dup2\n        /* \"--CODEGEN--\":5:16   */\n      lt\n        /* \"--CODEGEN--\":2:4   */\n      iszero\n      tag_87\n      jumpi\n        /* \"--CODEGEN--\":29:30   */\n      0x00\n        /* \"--CODEGEN--\":26:27   */\n      dup1\n        /* \"--CODEGEN--\":19:31   */\n      revert\n        /* \"--CODEGEN--\":2:4   */\n    tag_87:\n        /* \"input/CreateWin.sol\":7340:7544  function verydangerous(uint time) external onlyOwner {... */\n      dup2\n      add\n      swap1\n      dup1\n      dup1\n      calldataload\n      swap1\n      0x20\n      add\n      swap1\n      swap3\n      swap2\n      swap1\n      pop\n      pop\n      pop\n      tag_88\n      jump\t// in\n    tag_86:\n      stop\n        /* \"input/CreateWin.sol\":17164:17296  function isUsed(string memory code) public view returns (bool) {... */\n    tag_10:\n      callvalue\n        /* \"--CODEGEN--\":8:17   */\n      dup1\n        /* \"--CODEGEN--\":5:7   */\n      iszero\n      tag_89\n      jumpi\n        /* \"--CODEGEN--\":30:31   */\n      0x00\n        /* \"--CODEGEN--\":27:28   */\n      dup1\n        /* \"--CODEGEN--\":20:32   */\n      revert\n        /* \"--CODEGEN--\":5:7   */\n    tag_89:\n        /* \"input/CreateWin.sol\":17164:17296  function isUsed(string memory code) public view returns (bool) {... */\n      pop\n      tag_90\n      0x04\n      dup1\n      calldatasize\n      sub\n        /* \"--CODEGEN--\":13:15   */\n      0x20\n        /* \"--CODEGEN--\":8:11   */\n      dup2\n        /* \"--CODEGEN--\":5:16   */\n      lt\n        /* \"--CODEGEN--\":2:4   */\n      iszero\n      tag_91\n      jumpi\n        /* \"--CODEGEN--\":29:30   */\n      0x00\n        /* \"--CODEGEN--\":26:27   */\n      dup1\n        /* \"--CODEGEN--\":19:31   */\n      revert\n        /* \"--CODEGEN--\":2:4   */\n    tag_91:\n        /* \"input/CreateWin.sol\":17164:17296  function isUsed(string memory code) public view returns (bool) {... */\n      dup2\n      add\n      swap1\n      dup1\n      dup1\n      calldataload\n      swap1\n      0x20\n      add\n      swap1\n        /* \"--CODEGEN--\":21:32   */\n      0x0100000000\n        /* \"--CODEGEN--\":8:19   */\n      dup2\n        /* \"--CODEGEN--\":5:33   */\n      gt\n        /* \"--CODEGEN--\":2:4   */\n      iszero\n      tag_92\n      jumpi\n        /* \"--CODEGEN--\":46:47   */\n      0x00\n        /* \"--CODEGEN--\":43:44   */\n      dup1\n        /* \"--CODEGEN--\":36:48   */\n      revert\n        /* \"--CODEGEN--\":2:4   */\n    tag_92:\n        /* \"input/CreateWin.sol\":17164:17296  function isUsed(string memory code) public view returns (bool) {... */\n      dup3\n      add\n        /* \"--CODEGEN--\":35:44   */\n      dup4\n        /* \"--CODEGEN--\":28:32   */\n      0x20\n        /* \"--CODEGEN--\":12:26   */\n      dup3\n        /* \"--CODEGEN--\":8:33   */\n      add\n        /* \"--CODEGEN--\":5:45   */\n      gt\n        /* \"--CODEGEN--\":2:4   */\n      iszero\n      tag_93\n      jumpi\n        /* \"--CODEGEN--\":58:59   */\n      0x00\n        /* \"--CODEGEN--\":55:56   */\n      dup1\n        /* \"--CODEGEN--\":48:60   */\n      revert\n        /* \"--CODEGEN--\":2:4   */\n    tag_93:\n        /* \"input/CreateWin.sol\":17164:17296  function isUsed(string memory code) public view returns (bool) {... */\n      dup1\n      calldataload\n      swap1\n      0x20\n      add\n      swap2\n        /* \"--CODEGEN--\":100:109   */\n      dup5\n        /* \"--CODEGEN--\":95:96   */\n      0x01\n        /* \"--CODEGEN--\":81:93   */\n      dup4\n        /* \"--CODEGEN--\":77:97   */\n      mul\n        /* \"--CODEGEN--\":67:75   */\n      dup5\n        /* \"--CODEGEN--\":63:98   */\n      add\n        /* \"--CODEGEN--\":60:110   */\n      gt\n        /* \"--CODEGEN--\":39:50   */\n      0x0100000000\n        /* \"--CODEGEN--\":25:37   */\n      dup4\n        /* \"--CODEGEN--\":22:51   */\n      gt\n        /* \"--CODEGEN--\":11:118   */\n      or\n        /* \"--CODEGEN--\":8:10   */\n      iszero\n      tag_94\n      jumpi\n        /* \"--CODEGEN--\":131:132   */\n      0x00\n        /* \"--CODEGEN--\":128:129   */\n      dup1\n        /* \"--CODEGEN--\":121:133   */\n      revert\n        /* \"--CODEGEN--\":8:10   */\n    tag_94:\n        /* \"input/CreateWin.sol\":17164:17296  function isUsed(string memory code) public view returns (bool) {... */\n      swap2\n      swap1\n      dup1\n      dup1\n      0x1f\n      add\n      0x20\n      dup1\n      swap2\n      div\n      mul\n      0x20\n      add\n      mload(0x40)\n      swap1\n      dup2\n      add\n      0x40\n      mstore\n      dup1\n      swap4\n      swap3\n      swap2\n      swap1\n      dup2\n      dup2\n      mstore\n      0x20\n      add\n      dup4\n      dup4\n        /* \"--CODEGEN--\":30:33   */\n      dup1\n        /* \"--CODEGEN--\":22:28   */\n      dup3\n        /* \"--CODEGEN--\":14:20   */\n      dup5\n        /* \"--CODEGEN--\":1:34   */\n      calldatacopy\n        /* \"--CODEGEN--\":99:100   */\n      0x00\n        /* \"--CODEGEN--\":93:96   */\n      dup2\n        /* \"--CODEGEN--\":85:91   */\n      dup5\n        /* \"--CODEGEN--\":81:97   */\n      add\n        /* \"--CODEGEN--\":74:101   */\n      mstore\n        /* \"--CODEGEN--\":137:141   */\n      0x1f\n        /* \"--CODEGEN--\":133:142   */\n      not\n        /* \"--CODEGEN--\":126:130   */\n      0x1f\n        /* \"--CODEGEN--\":121:124   */\n      dup3\n        /* \"--CODEGEN--\":117:131   */\n      add\n        /* \"--CODEGEN--\":113:143   */\n      and\n        /* \"--CODEGEN--\":106:143   */\n      swap1\n      pop\n        /* \"--CODEGEN--\":169:172   */\n      dup1\n        /* \"--CODEGEN--\":161:167   */\n      dup4\n        /* \"--CODEGEN--\":157:173   */\n      add\n        /* \"--CODEGEN--\":147:173   */\n      swap3\n      pop\n        /* \"input/CreateWin.sol\":17164:17296  function isUsed(string memory code) public view returns (bool) {... */\n      pop\n      pop\n      pop\n      pop\n      pop\n      pop\n      swap2\n      swap3\n      swap2\n      swap3\n      swap1\n      pop\n      pop\n      pop\n      tag_95\n      jump\t// in\n    tag_90:\n      mload(0x40)\n      dup1\n      dup3\n      iszero\n      iszero\n      iszero\n      iszero\n      dup2\n      mstore\n      0x20\n      add\n      swap2\n      pop\n      pop\n      mload(0x40)\n      dup1\n      swap2\n      sub\n      swap1\n      return\n        /* \"input/CreateWin.sol\":5469:5573  function removeWhitelistAdmin(address account) public onlyOwner {... */\n    tag_11:\n      callvalue\n        /* \"--CODEGEN--\":8:17   */\n      dup1\n        /* \"--CODEGEN--\":5:7   */\n      iszero\n      tag_96\n      jumpi\n        /* \"--CODEGEN--\":30:31   */\n      0x00\n        /* \"--CODEGEN--\":27:28   */\n      dup1\n        /* \"--CODEGEN--\":20:32   */\n      revert\n        /* \"--CODEGEN--\":5:7   */\n    tag_96:\n        /* \"input/CreateWin.sol\":5469:5573  function removeWhitelistAdmin(address account) public onlyOwner {... */\n      pop\n      tag_97\n      0x04\n      dup1\n      calldatasize\n      sub\n        /* \"--CODEGEN--\":13:15   */\n      0x20\n        /* \"--CODEGEN--\":8:11   */\n      dup2\n        /* \"--CODEGEN--\":5:16   */\n      lt\n        /* \"--CODEGEN--\":2:4   */\n      iszero\n      tag_98\n      jumpi\n        /* \"--CODEGEN--\":29:30   */\n      0x00\n        /* \"--CODEGEN--\":26:27   */\n      dup1\n        /* \"--CODEGEN--\":19:31   */\n      revert\n        /* \"--CODEGEN--\":2:4   */\n    tag_98:\n        /* \"input/CreateWin.sol\":5469:5573  function removeWhitelistAdmin(address account) public onlyOwner {... */\n      dup2\n      add\n      swap1\n      dup1\n      dup1\n      calldataload\n      0xffffffffffffffffffffffffffffffffffffffff\n      and\n      swap1\n      0x20\n      add\n      swap1\n      swap3\n      swap2\n      swap1\n      pop\n      pop\n      pop\n      tag_99\n      jump\t// in\n    tag_97:\n      stop\n        /* \"input/CreateWin.sol\":5368:5466  function addWhitelistAdmin(address account) public onlyOwner {... */\n    tag_12:\n      callvalue\n        /* \"--CODEGEN--\":8:17   */\n      dup1\n        /* \"--CODEGEN--\":5:7   */\n      iszero\n      tag_100\n      jumpi\n        /* \"--CODEGEN--\":30:31   */\n      0x00\n        /* \"--CODEGEN--\":27:28   */\n      dup1\n        /* \"--CODEGEN--\":20:32   */\n      revert\n        /* \"--CODEGEN--\":5:7   */\n    tag_100:\n        /* \"input/CreateWin.sol\":5368:5466  function addWhitelistAdmin(address account) public onlyOwner {... */\n      pop\n      tag_101\n      0x04\n      dup1\n      calldatasize\n      sub\n        /* \"--CODEGEN--\":13:15   */\n      0x20\n        /* \"--CODEGEN--\":8:11   */\n      dup2\n        /* \"--CODEGEN--\":5:16   */\n      lt\n        /* \"--CODEGEN--\":2:4   */\n      iszero\n      tag_102\n      jumpi\n        /* \"--CODEGEN--\":29:30   */\n      0x00\n        /* \"--CODEGEN--\":26:27   */\n      dup1\n        /* \"--CODEGEN--\":19:31   */\n      revert\n        /* \"--CODEGEN--\":2:4   */\n    tag_102:\n        /* \"input/CreateWin.sol\":5368:5466  function addWhitelistAdmin(address account) public onlyOwner {... */\n      dup2\n      add\n      swap1\n      dup1\n      dup1\n      calldataload\n      0xffffffffffffffffffffffffffffffffffffffff\n      and\n      swap1\n      0x20\n      add\n      swap1\n      swap3\n      swap2\n      swap1\n      pop\n      pop\n      pop\n      tag_103\n      jump\t// in\n    tag_101:\n      stop\n        /* \"input/CreateWin.sol\":17830:18051  function endRound() external onlyOwner {... */\n    tag_13:\n      callvalue\n        /* \"--CODEGEN--\":8:17   */\n      dup1\n        /* \"--CODEGEN--\":5:7   */\n      iszero\n      tag_104\n      jumpi\n        /* \"--CODEGEN--\":30:31   */\n      0x00\n        /* \"--CODEGEN--\":27:28   */\n      dup1\n        /* \"--CODEGEN--\":20:32   */\n      revert\n        /* \"--CODEGEN--\":5:7   */\n    tag_104:\n        /* \"input/CreateWin.sol\":17830:18051  function endRound() external onlyOwner {... */\n      pop\n      tag_105\n      tag_106\n      jump\t// in\n    tag_105:\n      stop\n        /* \"input/CreateWin.sol\":13917:16726  function christmas(uint start, uint end) external onlyWhitelistAdmin {... */\n    tag_14:\n      callvalue\n        /* \"--CODEGEN--\":8:17   */\n      dup1\n        /* \"--CODEGEN--\":5:7   */\n      iszero\n      tag_107\n      jumpi\n        /* \"--CODEGEN--\":30:31   */\n      0x00\n        /* \"--CODEGEN--\":27:28   */\n      dup1\n        /* \"--CODEGEN--\":20:32   */\n      revert\n        /* \"--CODEGEN--\":5:7   */\n    tag_107:\n        /* \"input/CreateWin.sol\":13917:16726  function christmas(uint start, uint end) external onlyWhitelistAdmin {... */\n      pop\n      tag_108\n      0x04\n      dup1\n      calldatasize\n      sub\n        /* \"--CODEGEN--\":13:15   */\n      0x40\n        /* \"--CODEGEN--\":8:11   */\n      dup2\n        /* \"--CODEGEN--\":5:16   */\n      lt\n        /* \"--CODEGEN--\":2:4   */\n      iszero\n      tag_109\n      jumpi\n        /* \"--CODEGEN--\":29:30   */\n      0x00\n        /* \"--CODEGEN--\":26:27   */\n      dup1\n        /* \"--CODEGEN--\":19:31   */\n      revert\n        /* \"--CODEGEN--\":2:4   */\n    tag_109:\n        /* \"input/CreateWin.sol\":13917:16726  function christmas(uint start, uint end) external onlyWhitelistAdmin {... */\n      dup2\n      add\n      swap1\n      dup1\n      dup1\n      calldataload\n      swap1\n      0x20\n      add\n      swap1\n      swap3\n      swap2\n      swap1\n      dup1\n      calldataload\n      swap1\n      0x20\n      add\n      swap1\n      swap3\n      swap2\n      swap1\n      pop\n      pop\n      pop\n      tag_110\n      jump\t// in\n    tag_108:\n      stop\n        /* \"input/CreateWin.sol\":18054:18380  function donnottouch() public view returns (uint, uint, uint, uint, uint, uint, uint, uint, uint, uint, uint, uint) {... */\n    tag_15:\n      callvalue\n        /* \"--CODEGEN--\":8:17   */\n      dup1\n        /* \"--CODEGEN--\":5:7   */\n      iszero\n      tag_111\n      jumpi\n        /* \"--CODEGEN--\":30:31   */\n      0x00\n        /* \"--CODEGEN--\":27:28   */\n      dup1\n        /* \"--CODEGEN--\":20:32   */\n      revert\n        /* \"--CODEGEN--\":5:7   */\n    tag_111:\n        /* \"input/CreateWin.sol\":18054:18380  function donnottouch() public view returns (uint, uint, uint, uint, uint, uint, uint, uint, uint, uint, uint, uint) {... */\n      pop\n      tag_112\n      tag_113\n      jump\t// in\n    tag_112:\n      mload(0x40)\n      dup1\n      dup14\n      dup2\n      mstore\n      0x20\n      add\n      dup13\n      dup2\n      mstore\n      0x20\n      add\n      dup12\n      dup2\n      mstore\n      0x20\n      add\n      dup11\n      dup2\n      mstore\n      0x20\n      add\n      dup10\n      dup2\n      mstore\n      0x20\n      add\n      dup9\n      dup2\n      mstore\n      0x20\n      add\n      dup8\n      dup2\n      mstore\n      0x20\n      add\n      dup7\n      dup2\n      mstore\n      0x20\n      add\n      dup6\n      dup2\n      mstore\n      0x20\n      add\n      dup5\n      dup2\n      mstore\n      0x20\n      add\n      dup4\n      dup2\n      mstore\n      0x20\n      add\n      dup3\n      dup2\n      mstore\n      0x20\n      add\n      swap13\n      pop\n      pop\n      pop\n      pop\n      pop\n      pop\n      pop\n      pop\n      pop\n      pop\n      pop\n      pop\n      pop\n      mload(0x40)\n      dup1\n      swap2\n      sub\n      swap1\n      return\n        /* \"input/CreateWin.sol\":76:359  function getLevel(uint value) public view returns (uint) {... */\n    tag_16:\n      callvalue\n        /* \"--CODEGEN--\":8:17   */\n      dup1\n        /* \"--CODEGEN--\":5:7   */\n      iszero\n      tag_114\n      jumpi\n        /* \"--CODEGEN--\":30:31   */\n      0x00\n        /* \"--CODEGEN--\":27:28   */\n      dup1\n        /* \"--CODEGEN--\":20:32   */\n      revert\n        /* \"--CODEGEN--\":5:7   */\n    tag_114:\n        /* \"input/CreateWin.sol\":76:359  function getLevel(uint value) public view returns (uint) {... */\n      pop\n      tag_115\n      0x04\n      dup1\n      calldatasize\n      sub\n        /* \"--CODEGEN--\":13:15   */\n      0x20\n        /* \"--CODEGEN--\":8:11   */\n      dup2\n        /* \"--CODEGEN--\":5:16   */\n      lt\n        /* \"--CODEGEN--\":2:4   */\n      iszero\n      tag_116\n      jumpi\n        /* \"--CODEGEN--\":29:30   */\n      0x00\n        /* \"--CODEGEN--\":26:27   */\n      dup1\n        /* \"--CODEGEN--\":19:31   */\n      revert\n        /* \"--CODEGEN--\":2:4   */\n    tag_116:\n        /* \"input/CreateWin.sol\":76:359  function getLevel(uint value) public view returns (uint) {... */\n      dup2\n      add\n      swap1\n      dup1\n      dup1\n      calldataload\n      swap1\n      0x20\n      add\n      swap1\n      swap3\n      swap2\n      swap1\n      pop\n      pop\n      pop\n      tag_117\n      jump\t// in\n    tag_115:\n      mload(0x40)\n      dup1\n      dup3\n      dup2\n      mstore\n      0x20\n      add\n      swap2\n      pop\n      pop\n      mload(0x40)\n      dup1\n      swap2\n      sub\n      swap1\n      return\n        /* \"input/CreateWin.sol\":1582:1787  function compareStr(string memory _str, string memory str) public pure returns (bool) {... */\n    tag_17:\n      callvalue\n        /* \"--CODEGEN--\":8:17   */\n      dup1\n        /* \"--CODEGEN--\":5:7   */\n      iszero\n      tag_118\n      jumpi\n        /* \"--CODEGEN--\":30:31   */\n      0x00\n        /* \"--CODEGEN--\":27:28   */\n      dup1\n        /* \"--CODEGEN--\":20:32   */\n      revert\n        /* \"--CODEGEN--\":5:7   */\n    tag_118:\n        /* \"input/CreateWin.sol\":1582:1787  function compareStr(string memory _str, string memory str) public pure returns (bool) {... */\n      pop\n      tag_119\n      0x04\n      dup1\n      calldatasize\n      sub\n        /* \"--CODEGEN--\":13:15   */\n      0x40\n        /* \"--CODEGEN--\":8:11   */\n      dup2\n        /* \"--CODEGEN--\":5:16   */\n      lt\n        /* \"--CODEGEN--\":2:4   */\n      iszero\n      tag_120\n      jumpi\n        /* \"--CODEGEN--\":29:30   */\n      0x00\n        /* \"--CODEGEN--\":26:27   */\n      dup1\n        /* \"--CODEGEN--\":19:31   */\n      revert\n        /* \"--CODEGEN--\":2:4   */\n    tag_120:\n        /* \"input/CreateWin.sol\":1582:1787  function compareStr(string memory _str, string memory str) public pure returns (bool) {... */\n      dup2\n      add\n      swap1\n      dup1\n      dup1\n      calldataload\n      swap1\n      0x20\n      add\n      swap1\n        /* \"--CODEGEN--\":21:32   */\n      0x0100000000\n        /* \"--CODEGEN--\":8:19   */\n      dup2\n        /* \"--CODEGEN--\":5:33   */\n      gt\n        /* \"--CODEGEN--\":2:4   */\n      iszero\n      tag_121\n      jumpi\n        /* \"--CODEGEN--\":46:47   */\n      0x00\n        /* \"--CODEGEN--\":43:44   */\n      dup1\n        /* \"--CODEGEN--\":36:48   */\n      revert\n        /* \"--CODEGEN--\":2:4   */\n    tag_121:\n        /* \"input/CreateWin.sol\":1582:1787  function compareStr(string memory _str, string memory str) public pure returns (bool) {... */\n      dup3\n      add\n        /* \"--CODEGEN--\":35:44   */\n      dup4\n        /* \"--CODEGEN--\":28:32   */\n      0x20\n        /* \"--CODEGEN--\":12:26   */\n      dup3\n        /* \"--CODEGEN--\":8:33   */\n      add\n        /* \"--CODEGEN--\":5:45   */\n      gt\n        /* \"--CODEGEN--\":2:4   */\n      iszero\n      tag_122\n      jumpi\n        /* \"--CODEGEN--\":58:59   */\n      0x00\n        /* \"--CODEGEN--\":55:56   */\n      dup1\n        /* \"--CODEGEN--\":48:60   */\n      revert\n        /* \"--CODEGEN--\":2:4   */\n    tag_122:\n        /* \"input/CreateWin.sol\":1582:1787  function compareStr(string memory _str, string memory str) public pure returns (bool) {... */\n      dup1\n      calldataload\n      swap1\n      0x20\n      add\n      swap2\n        /* \"--CODEGEN--\":100:109   */\n      dup5\n        /* \"--CODEGEN--\":95:96   */\n      0x01\n        /* \"--CODEGEN--\":81:93   */\n      dup4\n        /* \"--CODEGEN--\":77:97   */\n      mul\n        /* \"--CODEGEN--\":67:75   */\n      dup5\n        /* \"--CODEGEN--\":63:98   */\n      add\n        /* \"--CODEGEN--\":60:110   */\n      gt\n        /* \"--CODEGEN--\":39:50   */\n      0x0100000000\n        /* \"--CODEGEN--\":25:37   */\n      dup4\n        /* \"--CODEGEN--\":22:51   */\n      gt\n        /* \"--CODEGEN--\":11:118   */\n      or\n        /* \"--CODEGEN--\":8:10   */\n      iszero\n      tag_123\n      jumpi\n        /* \"--CODEGEN--\":131:132   */\n      0x00\n        /* \"--CODEGEN--\":128:129   */\n      dup1\n        /* \"--CODEGEN--\":121:133   */\n      revert\n        /* \"--CODEGEN--\":8:10   */\n    tag_123:\n        /* \"input/CreateWin.sol\":1582:1787  function compareStr(string memory _str, string memory str) public pure returns (bool) {... */\n      swap2\n      swap1\n      dup1\n      dup1\n      0x1f\n      add\n      0x20\n      dup1\n      swap2\n      div\n      mul\n      0x20\n      add\n      mload(0x40)\n      swap1\n      dup2\n      add\n      0x40\n      mstore\n      dup1\n      swap4\n      swap3\n      swap2\n      swap1\n      dup2\n      dup2\n      mstore\n      0x20\n      add\n      dup4\n      dup4\n        /* \"--CODEGEN--\":30:33   */\n      dup1\n        /* \"--CODEGEN--\":22:28   */\n      dup3\n        /* \"--CODEGEN--\":14:20   */\n      dup5\n        /* \"--CODEGEN--\":1:34   */\n      calldatacopy\n        /* \"--CODEGEN--\":99:100   */\n      0x00\n        /* \"--CODEGEN--\":93:96   */\n      dup2\n        /* \"--CODEGEN--\":85:91   */\n      dup5\n        /* \"--CODEGEN--\":81:97   */\n      add\n        /* \"--CODEGEN--\":74:101   */\n      mstore\n        /* \"--CODEGEN--\":137:141   */\n      0x1f\n        /* \"--CODEGEN--\":133:142   */\n      not\n        /* \"--CODEGEN--\":126:130   */\n      0x1f\n        /* \"--CODEGEN--\":121:124   */\n      dup3\n        /* \"--CODEGEN--\":117:131   */\n      add\n        /* \"--CODEGEN--\":113:143   */\n      and\n        /* \"--CODEGEN--\":106:143   */\n      swap1\n      pop\n        /* \"--CODEGEN--\":169:172   */\n      dup1\n        /* \"--CODEGEN--\":161:167   */\n      dup4\n        /* \"--CODEGEN--\":157:173   */\n      add\n        /* \"--CODEGEN--\":147:173   */\n      swap3\n      pop\n        /* \"input/CreateWin.sol\":1582:1787  function compareStr(string memory _str, string memory str) public pure returns (bool) {... */\n      pop\n      pop\n      pop\n      pop\n      pop\n      pop\n      swap2\n      swap3\n      swap2\n      swap3\n      swap1\n      dup1\n      calldataload\n      swap1\n      0x20\n      add\n      swap1\n        /* \"--CODEGEN--\":21:32   */\n      0x0100000000\n        /* \"--CODEGEN--\":8:19   */\n      dup2\n        /* \"--CODEGEN--\":5:33   */\n      gt\n        /* \"--CODEGEN--\":2:4   */\n      iszero\n      tag_124\n      jumpi\n        /* \"--CODEGEN--\":46:47   */\n      0x00\n        /* \"--CODEGEN--\":43:44   */\n      dup1\n        /* \"--CODEGEN--\":36:48   */\n      revert\n        /* \"--CODEGEN--\":2:4   */\n    tag_124:\n        /* \"input/CreateWin.sol\":1582:1787  function compareStr(string memory _str, string memory str) public pure returns (bool) {... */\n      dup3\n      add\n        /* \"--CODEGEN--\":35:44   */\n      dup4\n        /* \"--CODEGEN--\":28:32   */\n      0x20\n        /* \"--CODEGEN--\":12:26   */\n      dup3\n        /* \"--CODEGEN--\":8:33   */\n      add\n        /* \"--CODEGEN--\":5:45   */\n      gt\n        /* \"--CODEGEN--\":2:4   */\n      iszero\n      tag_125\n      jumpi\n        /* \"--CODEGEN--\":58:59   */\n      0x00\n        /* \"--CODEGEN--\":55:56   */\n      dup1\n        /* \"--CODEGEN--\":48:60   */\n      revert\n        /* \"--CODEGEN--\":2:4   */\n    tag_125:\n        /* \"input/CreateWin.sol\":1582:1787  function compareStr(string memory _str, string memory str) public pure returns (bool) {... */\n      dup1\n      calldataload\n      swap1\n      0x20\n      add\n      swap2\n        /* \"--CODEGEN--\":100:109   */\n      dup5\n        /* \"--CODEGEN--\":95:96   */\n      0x01\n        /* \"--CODEGEN--\":81:93   */\n      dup4\n        /* \"--CODEGEN--\":77:97   */\n      mul\n        /* \"--CODEGEN--\":67:75   */\n      dup5\n        /* \"--CODEGEN--\":63:98   */\n      add\n        /* \"--CODEGEN--\":60:110   */\n      gt\n        /* \"--CODEGEN--\":39:50   */\n      0x0100000000\n        /* \"--CODEGEN--\":25:37   */\n      dup4\n        /* \"--CODEGEN--\":22:51   */\n      gt\n        /* \"--CODEGEN--\":11:118   */\n      or\n        /* \"--CODEGEN--\":8:10   */\n      iszero\n      tag_126\n      jumpi\n        /* \"--CODEGEN--\":131:132   */\n      0x00\n        /* \"--CODEGEN--\":128:129   */\n      dup1\n        /* \"--CODEGEN--\":121:133   */\n      revert\n        /* \"--CODEGEN--\":8:10   */\n    tag_126:\n        /* \"input/CreateWin.sol\":1582:1787  function compareStr(string memory _str, string memory str) public pure returns (bool) {... */\n      swap2\n      swap1\n      dup1\n      dup1\n      0x1f\n      add\n      0x20\n      dup1\n      swap2\n      div\n      mul\n      0x20\n      add\n      mload(0x40)\n      swap1\n      dup2\n      add\n      0x40\n      mstore\n      dup1\n      swap4\n      swap3\n      swap2\n      swap1\n      dup2\n      dup2\n      mstore\n      0x20\n      add\n      dup4\n      dup4\n        /* \"--CODEGEN--\":30:33   */\n      dup1\n        /* \"--CODEGEN--\":22:28   */\n      dup3\n        /* \"--CODEGEN--\":14:20   */\n      dup5\n        /* \"--CODEGEN--\":1:34   */\n      calldatacopy\n        /* \"--CODEGEN--\":99:100   */\n      0x00\n        /* \"--CODEGEN--\":93:96   */\n      dup2\n        /* \"--CODEGEN--\":85:91   */\n      dup5\n        /* \"--CODEGEN--\":81:97   */\n      add\n        /* \"--CODEGEN--\":74:101   */\n      mstore\n        /* \"--CODEGEN--\":137:141   */\n      0x1f\n        /* \"--CODEGEN--\":133:142   */\n      not\n        /* \"--CODEGEN--\":126:130   */\n      0x1f\n        /* \"--CODEGEN--\":121:124   */\n      dup3\n        /* \"--CODEGEN--\":117:131   */\n      add\n        /* \"--CODEGEN--\":113:143   */\n      and\n        /* \"--CODEGEN--\":106:143   */\n      swap1\n      pop\n        /* \"--CODEGEN--\":169:172   */\n      dup1\n        /* \"--CODEGEN--\":161:167   */\n      dup4\n        /* \"--CODEGEN--\":157:173   */\n      add\n        /* \"--CODEGEN--\":147:173   */\n      swap3\n      pop\n        /* \"input/CreateWin.sol\":1582:1787  function compareStr(string memory _str, string memory str) public pure returns (bool) {... */\n      pop\n      pop\n      pop\n      pop\n      pop\n      pop\n      swap2\n      swap3\n      swap2\n      swap3\n      swap1\n      pop\n      pop\n      pop\n      tag_127\n      jump\t// in\n    tag_119:\n      mload(0x40)\n      dup1\n      dup3\n      iszero\n      iszero\n      iszero\n      iszero\n      dup2\n      mstore\n      0x20\n      add\n      swap2\n      pop\n      pop\n      mload(0x40)\n      dup1\n      swap2\n      sub\n      swap1\n      return\n        /* \"input/CreateWin.sol\":20647:20807  function getUserAddressById(uint id) public view returns (address) {... */\n    tag_18:\n      callvalue\n        /* \"--CODEGEN--\":8:17   */\n      dup1\n        /* \"--CODEGEN--\":5:7   */\n      iszero\n      tag_128\n      jumpi\n        /* \"--CODEGEN--\":30:31   */\n      0x00\n        /* \"--CODEGEN--\":27:28   */\n      dup1\n        /* \"--CODEGEN--\":20:32   */\n      revert\n        /* \"--CODEGEN--\":5:7   */\n    tag_128:\n        /* \"input/CreateWin.sol\":20647:20807  function getUserAddressById(uint id) public view returns (address) {... */\n      pop\n      tag_129\n      0x04\n      dup1\n      calldatasize\n      sub\n        /* \"--CODEGEN--\":13:15   */\n      0x20\n        /* \"--CODEGEN--\":8:11   */\n      dup2\n        /* \"--CODEGEN--\":5:16   */\n      lt\n        /* \"--CODEGEN--\":2:4   */\n      iszero\n      tag_130\n      jumpi\n        /* \"--CODEGEN--\":29:30   */\n      0x00\n        /* \"--CODEGEN--\":26:27   */\n      dup1\n        /* \"--CODEGEN--\":19:31   */\n      revert\n        /* \"--CODEGEN--\":2:4   */\n    tag_130:\n        /* \"input/CreateWin.sol\":20647:20807  function getUserAddressById(uint id) public view returns (address) {... */\n      dup2\n      add\n      swap1\n      dup1\n      dup1\n      calldataload\n      swap1\n      0x20\n      add\n      swap1\n      swap3\n      swap2\n      swap1\n      pop\n      pop\n      pop\n      tag_131\n      jump\t// in\n    tag_129:\n      mload(0x40)\n      dup1\n      dup3\n      0xffffffffffffffffffffffffffffffffffffffff\n      and\n      0xffffffffffffffffffffffffffffffffffffffff\n      and\n      dup2\n      mstore\n      0x20\n      add\n      swap2\n      pop\n      pop\n      mload(0x40)\n      dup1\n      swap2\n      sub\n      swap1\n      return\n        /* \"input/CreateWin.sol\":3481:3564  function isOwner() public view returns (bool) {... */\n    tag_19:\n      callvalue\n        /* \"--CODEGEN--\":8:17   */\n      dup1\n        /* \"--CODEGEN--\":5:7   */\n      iszero\n      tag_132\n      jumpi\n        /* \"--CODEGEN--\":30:31   */\n      0x00\n        /* \"--CODEGEN--\":27:28   */\n      dup1\n        /* \"--CODEGEN--\":20:32   */\n      revert\n        /* \"--CODEGEN--\":5:7   */\n    tag_132:\n        /* \"input/CreateWin.sol\":3481:3564  function isOwner() public view returns (bool) {... */\n      pop\n      tag_133\n      tag_134\n      jump\t// in\n    tag_133:\n      mload(0x40)\n      dup1\n      dup3\n      iszero\n      iszero\n      iszero\n      iszero\n      dup2\n      mstore\n      0x20\n      add\n      swap2\n      pop\n      pop\n      mload(0x40)\n      dup1\n      swap2\n      sub\n      swap1\n      return\n        /* \"input/CreateWin.sol\":8147:8390  function actUserStatus(address addr, uint status) external onlyWhitelistAdmin {... */\n    tag_20:\n      callvalue\n        /* \"--CODEGEN--\":8:17   */\n      dup1\n        /* \"--CODEGEN--\":5:7   */\n      iszero\n      tag_135\n      jumpi\n        /* \"--CODEGEN--\":30:31   */\n      0x00\n        /* \"--CODEGEN--\":27:28   */\n      dup1\n        /* \"--CODEGEN--\":20:32   */\n      revert\n        /* \"--CODEGEN--\":5:7   */\n    tag_135:\n        /* \"input/CreateWin.sol\":8147:8390  function actUserStatus(address addr, uint status) external onlyWhitelistAdmin {... */\n      pop\n      tag_136\n      0x04\n      dup1\n      calldatasize\n      sub\n        /* \"--CODEGEN--\":13:15   */\n      0x40\n        /* \"--CODEGEN--\":8:11   */\n      dup2\n        /* \"--CODEGEN--\":5:16   */\n      lt\n        /* \"--CODEGEN--\":2:4   */\n      iszero\n      tag_137\n      jumpi\n        /* \"--CODEGEN--\":29:30   */\n      0x00\n        /* \"--CODEGEN--\":26:27   */\n      dup1\n        /* \"--CODEGEN--\":19:31   */\n      revert\n        /* \"--CODEGEN--\":2:4   */\n    tag_137:\n        /* \"input/CreateWin.sol\":8147:8390  function actUserStatus(address addr, uint status) external onlyWhitelistAdmin {... */\n      dup2\n      add\n      swap1\n      dup1\n      dup1\n      calldataload\n      0xffffffffffffffffffffffffffffffffffffffff\n      and\n      swap1\n      0x20\n      add\n      swap1\n      swap3\n      swap2\n      swap1\n      dup1\n      calldataload\n      swap1\n      0x20\n      add\n      swap1\n      swap3\n      swap2\n      swap1\n      pop\n      pop\n      pop\n      tag_138\n      jump\t// in\n    tag_136:\n      stop\n        /* \"input/CreateWin.sol\":7650:7734  function updateLine(uint line) external onlyWhitelistAdmin {... */\n    tag_21:\n      callvalue\n        /* \"--CODEGEN--\":8:17   */\n      dup1\n        /* \"--CODEGEN--\":5:7   */\n      iszero\n      tag_139\n      jumpi\n        /* \"--CODEGEN--\":30:31   */\n      0x00\n        /* \"--CODEGEN--\":27:28   */\n      dup1\n        /* \"--CODEGEN--\":20:32   */\n      revert\n        /* \"--CODEGEN--\":5:7   */\n    tag_139:\n        /* \"input/CreateWin.sol\":7650:7734  function updateLine(uint line) external onlyWhitelistAdmin {... */\n      pop\n      tag_140\n      0x04\n      dup1\n      calldatasize\n      sub\n        /* \"--CODEGEN--\":13:15   */\n      0x20\n        /* \"--CODEGEN--\":8:11   */\n      dup2\n        /* \"--CODEGEN--\":5:16   */\n      lt\n        /* \"--CODEGEN--\":2:4   */\n      iszero\n      tag_141\n      jumpi\n        /* \"--CODEGEN--\":29:30   */\n      0x00\n        /* \"--CODEGEN--\":26:27   */\n      dup1\n        /* \"--CODEGEN--\":19:31   */\n      revert\n        /* \"--CODEGEN--\":2:4   */\n    tag_141:\n        /* \"input/CreateWin.sol\":7650:7734  function updateLine(uint line) external onlyWhitelistAdmin {... */\n      dup2\n      add\n      swap1\n      dup1\n      dup1\n      calldataload\n      swap1\n      0x20\n      add\n      swap1\n      swap3\n      swap2\n      swap1\n      pop\n      pop\n      pop\n      tag_142\n      jump\t// in\n    tag_140:\n      stop\n        /* \"input/CreateWin.sol\":17299:17476  function getUserAddressByCode(string memory code) public view returns (address) {... */\n    tag_22:\n      callvalue\n        /* \"--CODEGEN--\":8:17   */\n      dup1\n        /* \"--CODEGEN--\":5:7   */\n      iszero\n      tag_143\n      jumpi\n        /* \"--CODEGEN--\":30:31   */\n      0x00\n        /* \"--CODEGEN--\":27:28   */\n      dup1\n        /* \"--CODEGEN--\":20:32   */\n      revert\n        /* \"--CODEGEN--\":5:7   */\n    tag_143:\n        /* \"input/CreateWin.sol\":17299:17476  function getUserAddressByCode(string memory code) public view returns (address) {... */\n      pop\n      tag_144\n      0x04\n      dup1\n      calldatasize\n      sub\n        /* \"--CODEGEN--\":13:15   */\n      0x20\n        /* \"--CODEGEN--\":8:11   */\n      dup2\n        /* \"--CODEGEN--\":5:16   */\n      lt\n        /* \"--CODEGEN--\":2:4   */\n      iszero\n      tag_145\n      jumpi\n        /* \"--CODEGEN--\":29:30   */\n      0x00\n        /* \"--CODEGEN--\":26:27   */\n      dup1\n        /* \"--CODEGEN--\":19:31   */\n      revert\n        /* \"--CODEGEN--\":2:4   */\n    tag_145:\n        /* \"input/CreateWin.sol\":17299:17476  function getUserAddressByCode(string memory code) public view returns (address) {... */\n      dup2\n      add\n      swap1\n      dup1\n      dup1\n      calldataload\n      swap1\n      0x20\n      add\n      swap1\n        /* \"--CODEGEN--\":21:32   */\n      0x0100000000\n        /* \"--CODEGEN--\":8:19   */\n      dup2\n        /* \"--CODEGEN--\":5:33   */\n      gt\n        /* \"--CODEGEN--\":2:4   */\n      iszero\n      tag_146\n      jumpi\n        /* \"--CODEGEN--\":46:47   */\n      0x00\n        /* \"--CODEGEN--\":43:44   */\n      dup1\n        /* \"--CODEGEN--\":36:48   */\n      revert\n        /* \"--CODEGEN--\":2:4   */\n    tag_146:\n        /* \"input/CreateWin.sol\":17299:17476  function getUserAddressByCode(string memory code) public view returns (address) {... */\n      dup3\n      add\n        /* \"--CODEGEN--\":35:44   */\n      dup4\n        /* \"--CODEGEN--\":28:32   */\n      0x20\n        /* \"--CODEGEN--\":12:26   */\n      dup3\n        /* \"--CODEGEN--\":8:33   */\n      add\n        /* \"--CODEGEN--\":5:45   */\n      gt\n        /* \"--CODEGEN--\":2:4   */\n      iszero\n      tag_147\n      jumpi\n        /* \"--CODEGEN--\":58:59   */\n      0x00\n        /* \"--CODEGEN--\":55:56   */\n      dup1\n        /* \"--CODEGEN--\":48:60   */\n      revert\n        /* \"--CODEGEN--\":2:4   */\n    tag_147:\n        /* \"input/CreateWin.sol\":17299:17476  function getUserAddressByCode(string memory code) public view returns (address) {... */\n      dup1\n      calldataload\n      swap1\n      0x20\n      add\n      swap2\n        /* \"--CODEGEN--\":100:109   */\n      dup5\n        /* \"--CODEGEN--\":95:96   */\n      0x01\n        /* \"--CODEGEN--\":81:93   */\n      dup4\n        /* \"--CODEGEN--\":77:97   */\n      mul\n        /* \"--CODEGEN--\":67:75   */\n      dup5\n        /* \"--CODEGEN--\":63:98   */\n      add\n        /* \"--CODEGEN--\":60:110   */\n      gt\n        /* \"--CODEGEN--\":39:50   */\n      0x0100000000\n        /* \"--CODEGEN--\":25:37   */\n      dup4\n        /* \"--CODEGEN--\":22:51   */\n      gt\n        /* \"--CODEGEN--\":11:118   */\n      or\n        /* \"--CODEGEN--\":8:10   */\n      iszero\n      tag_148\n      jumpi\n        /* \"--CODEGEN--\":131:132   */\n      0x00\n        /* \"--CODEGEN--\":128:129   */\n      dup1\n        /* \"--CODEGEN--\":121:133   */\n      revert\n        /* \"--CODEGEN--\":8:10   */\n    tag_148:\n        /* \"input/CreateWin.sol\":17299:17476  function getUserAddressByCode(string memory code) public view returns (address) {... */\n      swap2\n      swap1\n      dup1\n      dup1\n      0x1f\n      add\n      0x20\n      dup1\n      swap2\n      div\n      mul\n      0x20\n      add\n      mload(0x40)\n      swap1\n      dup2\n      add\n      0x40\n      mstore\n      dup1\n      swap4\n      swap3\n      swap2\n      swap1\n      dup2\n      dup2\n      mstore\n      0x20\n      add\n      dup4\n      dup4\n        /* \"--CODEGEN--\":30:33   */\n      dup1\n        /* \"--CODEGEN--\":22:28   */\n      dup3\n        /* \"--CODEGEN--\":14:20   */\n      dup5\n        /* \"--CODEGEN--\":1:34   */\n      calldatacopy\n        /* \"--CODEGEN--\":99:100   */\n      0x00\n        /* \"--CODEGEN--\":93:96   */\n      dup2\n        /* \"--CODEGEN--\":85:91   */\n      dup5\n        /* \"--CODEGEN--\":81:97   */\n      add\n        /* \"--CODEGEN--\":74:101   */\n      mstore\n        /* \"--CODEGEN--\":137:141   */\n      0x1f\n        /* \"--CODEGEN--\":133:142   */\n      not\n        /* \"--CODEGEN--\":126:130   */\n      0x1f\n        /* \"--CODEGEN--\":121:124   */\n      dup3\n        /* \"--CODEGEN--\":117:131   */\n      add\n        /* \"--CODEGEN--\":113:143   */\n      and\n        /* \"--CODEGEN--\":106:143   */\n      swap1\n      pop\n        /* \"--CODEGEN--\":169:172   */\n      dup1\n        /* \"--CODEGEN--\":161:167   */\n      dup4\n        /* \"--CODEGEN--\":157:173   */\n      add\n        /* \"--CODEGEN--\":147:173   */\n      swap3\n      pop\n        /* \"input/CreateWin.sol\":17299:17476  function getUserAddressByCode(string memory code) public view returns (address) {... */\n      pop\n      pop\n      pop\n      pop\n      pop\n      pop\n      swap2\n      swap3\n      swap2\n      swap3\n      swap1\n      pop\n      pop\n      pop\n      tag_149\n      jump\t// in\n    tag_144:\n      mload(0x40)\n      dup1\n      dup3\n      0xffffffffffffffffffffffffffffffffffffffff\n      and\n      0xffffffffffffffffffffffffffffffffffffffff\n      and\n      dup2\n      mstore\n      0x20\n      add\n      swap2\n      pop\n      pop\n      mload(0x40)\n      dup1\n      swap2\n      sub\n      swap1\n      return\n        /* \"input/CreateWin.sol\":10853:11482  function helloworld(uint start, uint end, uint isUser) external onlyWhitelistAdmin {... */\n    tag_23:\n      callvalue\n        /* \"--CODEGEN--\":8:17   */\n      dup1\n        /* \"--CODEGEN--\":5:7   */\n      iszero\n      tag_150\n      jumpi\n        /* \"--CODEGEN--\":30:31   */\n      0x00\n        /* \"--CODEGEN--\":27:28   */\n      dup1\n        /* \"--CODEGEN--\":20:32   */\n      revert\n        /* \"--CODEGEN--\":5:7   */\n    tag_150:\n        /* \"input/CreateWin.sol\":10853:11482  function helloworld(uint start, uint end, uint isUser) external onlyWhitelistAdmin {... */\n      pop\n      tag_151\n      0x04\n      dup1\n      calldatasize\n      sub\n        /* \"--CODEGEN--\":13:15   */\n      0x60\n        /* \"--CODEGEN--\":8:11   */\n      dup2\n        /* \"--CODEGEN--\":5:16   */\n      lt\n        /* \"--CODEGEN--\":2:4   */\n      iszero\n      tag_152\n      jumpi\n        /* \"--CODEGEN--\":29:30   */\n      0x00\n        /* \"--CODEGEN--\":26:27   */\n      dup1\n        /* \"--CODEGEN--\":19:31   */\n      revert\n        /* \"--CODEGEN--\":2:4   */\n    tag_152:\n        /* \"input/CreateWin.sol\":10853:11482  function helloworld(uint start, uint end, uint isUser) external onlyWhitelistAdmin {... */\n      dup2\n      add\n      swap1\n      dup1\n      dup1\n      calldataload\n      swap1\n      0x20\n      add\n      swap1\n      swap3\n      swap2\n      swap1\n      dup1\n      calldataload\n      swap1\n      0x20\n      add\n      swap1\n      swap3\n      swap2\n      swap1\n      dup1\n      calldataload\n      swap1\n      0x20\n      add\n      swap1\n      swap3\n      swap2\n      swap1\n      pop\n      pop\n      pop\n      tag_153\n      jump\t// in\n    tag_151:\n      stop\n        /* \"input/CreateWin.sol\":5238:5365  function isWhitelistAdmin(address account) public view returns (bool) {... */\n    tag_24:\n      callvalue\n        /* \"--CODEGEN--\":8:17   */\n      dup1\n        /* \"--CODEGEN--\":5:7   */\n      iszero\n      tag_154\n      jumpi\n        /* \"--CODEGEN--\":30:31   */\n      0x00\n        /* \"--CODEGEN--\":27:28   */\n      dup1\n        /* \"--CODEGEN--\":20:32   */\n      revert\n        /* \"--CODEGEN--\":5:7   */\n    tag_154:\n        /* \"input/CreateWin.sol\":5238:5365  function isWhitelistAdmin(address account) public view returns (bool) {... */\n      pop\n      tag_155\n      0x04\n      dup1\n      calldatasize\n      sub\n        /* \"--CODEGEN--\":13:15   */\n      0x20\n        /* \"--CODEGEN--\":8:11   */\n      dup2\n        /* \"--CODEGEN--\":5:16   */\n      lt\n        /* \"--CODEGEN--\":2:4   */\n      iszero\n      tag_156\n      jumpi\n        /* \"--CODEGEN--\":29:30   */\n      0x00\n        /* \"--CODEGEN--\":26:27   */\n      dup1\n        /* \"--CODEGEN--\":19:31   */\n      revert\n        /* \"--CODEGEN--\":2:4   */\n    tag_156:\n        /* \"input/CreateWin.sol\":5238:5365  function isWhitelistAdmin(address account) public view returns (bool) {... */\n      dup2\n      add\n      swap1\n      dup1\n      dup1\n      calldataload\n      0xffffffffffffffffffffffffffffffffffffffff\n      and\n      swap1\n      0x20\n      add\n      swap1\n      swap3\n      swap2\n      swap1\n      pop\n      pop\n      pop\n      tag_157\n      jump\t// in\n    tag_155:\n      mload(0x40)\n      dup1\n      dup3\n      iszero\n      iszero\n      iszero\n      iszero\n      dup2\n      mstore\n      0x20\n      add\n      swap2\n      pop\n      pop\n      mload(0x40)\n      dup1\n      swap2\n      sub\n      swap1\n      return\n        /* \"input/CreateWin.sol\":7816:8079  function actAllLimit(uint bonusLi, uint sendLi, uint withdrawLi) external onlyOwner {... */\n    tag_25:\n      callvalue\n        /* \"--CODEGEN--\":8:17   */\n      dup1\n        /* \"--CODEGEN--\":5:7   */\n      iszero\n      tag_158\n      jumpi\n        /* \"--CODEGEN--\":30:31   */\n      0x00\n        /* \"--CODEGEN--\":27:28   */\n      dup1\n        /* \"--CODEGEN--\":20:32   */\n      revert\n        /* \"--CODEGEN--\":5:7   */\n    tag_158:\n        /* \"input/CreateWin.sol\":7816:8079  function actAllLimit(uint bonusLi, uint sendLi, uint withdrawLi) external onlyOwner {... */\n      pop\n      tag_159\n      0x04\n      dup1\n      calldatasize\n      sub\n        /* \"--CODEGEN--\":13:15   */\n      0x60\n        /* \"--CODEGEN--\":8:11   */\n      dup2\n        /* \"--CODEGEN--\":5:16   */\n      lt\n        /* \"--CODEGEN--\":2:4   */\n      iszero\n      tag_160\n      jumpi\n        /* \"--CODEGEN--\":29:30   */\n      0x00\n        /* \"--CODEGEN--\":26:27   */\n      dup1\n        /* \"--CODEGEN--\":19:31   */\n      revert\n        /* \"--CODEGEN--\":2:4   */\n    tag_160:\n        /* \"input/CreateWin.sol\":7816:8079  function actAllLimit(uint bonusLi, uint sendLi, uint withdrawLi) external onlyOwner {... */\n      dup2\n      add\n      swap1\n      dup1\n      dup1\n      calldataload\n      swap1\n      0x20\n      add\n      swap1\n      swap3\n      swap2\n      swap1\n      dup1\n      calldataload\n      swap1\n      0x20\n      add\n      swap1\n      swap3\n      swap2\n      swap1\n      dup1\n      calldataload\n      swap1\n      0x20\n      add\n      swap1\n      swap3\n      swap2\n      swap1\n      pop\n      pop\n      pop\n      tag_161\n      jump\t// in\n    tag_159:\n      stop\n        /* \"input/CreateWin.sol\":10250:10850  function importGlobal(address addr, string calldata inviteCode, string calldata beCode) external onlyWhitelistAdmin {... */\n    tag_26:\n      callvalue\n        /* \"--CODEGEN--\":8:17   */\n      dup1\n        /* \"--CODEGEN--\":5:7   */\n      iszero\n      tag_162\n      jumpi\n        /* \"--CODEGEN--\":30:31   */\n      0x00\n        /* \"--CODEGEN--\":27:28   */\n      dup1\n        /* \"--CODEGEN--\":20:32   */\n      revert\n        /* \"--CODEGEN--\":5:7   */\n    tag_162:\n        /* \"input/CreateWin.sol\":10250:10850  function importGlobal(address addr, string calldata inviteCode, string calldata beCode) external onlyWhitelistAdmin {... */\n      pop\n      tag_163\n      0x04\n      dup1\n      calldatasize\n      sub\n        /* \"--CODEGEN--\":13:15   */\n      0x60\n        /* \"--CODEGEN--\":8:11   */\n      dup2\n        /* \"--CODEGEN--\":5:16   */\n      lt\n        /* \"--CODEGEN--\":2:4   */\n      iszero\n      tag_164\n      jumpi\n        /* \"--CODEGEN--\":29:30   */\n      0x00\n        /* \"--CODEGEN--\":26:27   */\n      dup1\n        /* \"--CODEGEN--\":19:31   */\n      revert\n        /* \"--CODEGEN--\":2:4   */\n    tag_164:\n        /* \"input/CreateWin.sol\":10250:10850  function importGlobal(address addr, string calldata inviteCode, string calldata beCode) external onlyWhitelistAdmin {... */\n      dup2\n      add\n      swap1\n      dup1\n      dup1\n      calldataload\n      0xffffffffffffffffffffffffffffffffffffffff\n      and\n      swap1\n      0x20\n      add\n      swap1\n      swap3\n      swap2\n      swap1\n      dup1\n      calldataload\n      swap1\n      0x20\n      add\n      swap1\n        /* \"--CODEGEN--\":21:32   */\n      0x0100000000\n        /* \"--CODEGEN--\":8:19   */\n      dup2\n        /* \"--CODEGEN--\":5:33   */\n      gt\n        /* \"--CODEGEN--\":2:4   */\n      iszero\n      tag_165\n      jumpi\n        /* \"--CODEGEN--\":46:47   */\n      0x00\n        /* \"--CODEGEN--\":43:44   */\n      dup1\n        /* \"--CODEGEN--\":36:48   */\n      revert\n        /* \"--CODEGEN--\":2:4   */\n    tag_165:\n        /* \"input/CreateWin.sol\":10250:10850  function importGlobal(address addr, string calldata inviteCode, string calldata beCode) external onlyWhitelistAdmin {... */\n      dup3\n      add\n        /* \"--CODEGEN--\":35:44   */\n      dup4\n        /* \"--CODEGEN--\":28:32   */\n      0x20\n        /* \"--CODEGEN--\":12:26   */\n      dup3\n        /* \"--CODEGEN--\":8:33   */\n      add\n        /* \"--CODEGEN--\":5:45   */\n      gt\n        /* \"--CODEGEN--\":2:4   */\n      iszero\n      tag_166\n      jumpi\n        /* \"--CODEGEN--\":58:59   */\n      0x00\n        /* \"--CODEGEN--\":55:56   */\n      dup1\n        /* \"--CODEGEN--\":48:60   */\n      revert\n        /* \"--CODEGEN--\":2:4   */\n    tag_166:\n        /* \"input/CreateWin.sol\":10250:10850  function importGlobal(address addr, string calldata inviteCode, string calldata beCode) external onlyWhitelistAdmin {... */\n      dup1\n      calldataload\n      swap1\n      0x20\n      add\n      swap2\n        /* \"--CODEGEN--\":100:109   */\n      dup5\n        /* \"--CODEGEN--\":95:96   */\n      0x01\n        /* \"--CODEGEN--\":81:93   */\n      dup4\n        /* \"--CODEGEN--\":77:97   */\n      mul\n        /* \"--CODEGEN--\":67:75   */\n      dup5\n        /* \"--CODEGEN--\":63:98   */\n      add\n        /* \"--CODEGEN--\":60:110   */\n      gt\n        /* \"--CODEGEN--\":39:50   */\n      0x0100000000\n        /* \"--CODEGEN--\":25:37   */\n      dup4\n        /* \"--CODEGEN--\":22:51   */\n      gt\n        /* \"--CODEGEN--\":11:118   */\n      or\n        /* \"--CODEGEN--\":8:10   */\n      iszero\n      tag_167\n      jumpi\n        /* \"--CODEGEN--\":131:132   */\n      0x00\n        /* \"--CODEGEN--\":128:129   */\n      dup1\n        /* \"--CODEGEN--\":121:133   */\n      revert\n        /* \"--CODEGEN--\":8:10   */\n    tag_167:\n        /* \"input/CreateWin.sol\":10250:10850  function importGlobal(address addr, string calldata inviteCode, string calldata beCode) external onlyWhitelistAdmin {... */\n      swap1\n      swap2\n      swap3\n      swap4\n      swap2\n      swap3\n      swap4\n      swap1\n      dup1\n      calldataload\n      swap1\n      0x20\n      add\n      swap1\n        /* \"--CODEGEN--\":21:32   */\n      0x0100000000\n        /* \"--CODEGEN--\":8:19   */\n      dup2\n        /* \"--CODEGEN--\":5:33   */\n      gt\n        /* \"--CODEGEN--\":2:4   */\n      iszero\n      tag_168\n      jumpi\n        /* \"--CODEGEN--\":46:47   */\n      0x00\n        /* \"--CODEGEN--\":43:44   */\n      dup1\n        /* \"--CODEGEN--\":36:48   */\n      revert\n        /* \"--CODEGEN--\":2:4   */\n    tag_168:\n        /* \"input/CreateWin.sol\":10250:10850  function importGlobal(address addr, string calldata inviteCode, string calldata beCode) external onlyWhitelistAdmin {... */\n      dup3\n      add\n        /* \"--CODEGEN--\":35:44   */\n      dup4\n        /* \"--CODEGEN--\":28:32   */\n      0x20\n        /* \"--CODEGEN--\":12:26   */\n      dup3\n        /* \"--CODEGEN--\":8:33   */\n      add\n        /* \"--CODEGEN--\":5:45   */\n      gt\n        /* \"--CODEGEN--\":2:4   */\n      iszero\n      tag_169\n      jumpi\n        /* \"--CODEGEN--\":58:59   */\n      0x00\n        /* \"--CODEGEN--\":55:56   */\n      dup1\n        /* \"--CODEGEN--\":48:60   */\n      revert\n        /* \"--CODEGEN--\":2:4   */\n    tag_169:\n        /* \"input/CreateWin.sol\":10250:10850  function importGlobal(address addr, string calldata inviteCode, string calldata beCode) external onlyWhitelistAdmin {... */\n      dup1\n      calldataload\n      swap1\n      0x20\n      add\n      swap2\n        /* \"--CODEGEN--\":100:109   */\n      dup5\n        /* \"--CODEGEN--\":95:96   */\n      0x01\n        /* \"--CODEGEN--\":81:93   */\n      dup4\n        /* \"--CODEGEN--\":77:97   */\n      mul\n        /* \"--CODEGEN--\":67:75   */\n      dup5\n        /* \"--CODEGEN--\":63:98   */\n      add\n        /* \"--CODEGEN--\":60:110   */\n      gt\n        /* \"--CODEGEN--\":39:50   */\n      0x0100000000\n        /* \"--CODEGEN--\":25:37   */\n      dup4\n        /* \"--CODEGEN--\":22:51   */\n      gt\n        /* \"--CODEGEN--\":11:118   */\n      or\n        /* \"--CODEGEN--\":8:10   */\n      iszero\n      tag_170\n      jumpi\n        /* \"--CODEGEN--\":131:132   */\n      0x00\n        /* \"--CODEGEN--\":128:129   */\n      dup1\n        /* \"--CODEGEN--\":121:133   */\n      revert\n        /* \"--CODEGEN--\":8:10   */\n    tag_170:\n        /* \"input/CreateWin.sol\":10250:10850  function importGlobal(address addr, string calldata inviteCode, string calldata beCode) external onlyWhitelistAdmin {... */\n      swap1\n      swap2\n      swap3\n      swap4\n      swap2\n      swap3\n      swap4\n      swap1\n      pop\n      pop\n      pop\n      tag_171\n      jump\t// in\n    tag_163:\n      stop\n        /* \"input/CreateWin.sol\":820:1013  function getFireScByLevel(uint level) public pure returns (uint) {... */\n    tag_27:\n      callvalue\n        /* \"--CODEGEN--\":8:17   */\n      dup1\n        /* \"--CODEGEN--\":5:7   */\n      iszero\n      tag_172\n      jumpi\n        /* \"--CODEGEN--\":30:31   */\n      0x00\n        /* \"--CODEGEN--\":27:28   */\n      dup1\n        /* \"--CODEGEN--\":20:32   */\n      revert\n        /* \"--CODEGEN--\":5:7   */\n    tag_172:\n        /* \"input/CreateWin.sol\":820:1013  function getFireScByLevel(uint level) public pure returns (uint) {... */\n      pop\n      tag_173\n      0x04\n      dup1\n      calldatasize\n      sub\n        /* \"--CODEGEN--\":13:15   */\n      0x20\n        /* \"--CODEGEN--\":8:11   */\n      dup2\n        /* \"--CODEGEN--\":5:16   */\n      lt\n        /* \"--CODEGEN--\":2:4   */\n      iszero\n      tag_174\n      jumpi\n        /* \"--CODEGEN--\":29:30   */\n      0x00\n        /* \"--CODEGEN--\":26:27   */\n      dup1\n        /* \"--CODEGEN--\":19:31   */\n      revert\n        /* \"--CODEGEN--\":2:4   */\n    tag_174:\n        /* \"input/CreateWin.sol\":820:1013  function getFireScByLevel(uint level) public pure returns (uint) {... */\n      dup2\n      add\n      swap1\n      dup1\n      dup1\n      calldataload\n      swap1\n      0x20\n      add\n      swap1\n      swap3\n      swap2\n      swap1\n      pop\n      pop\n      pop\n      tag_175\n      jump\t// in\n    tag_173:\n      mload(0x40)\n      dup1\n      dup3\n      dup2\n      mstore\n      0x20\n      add\n      swap2\n      pop\n      pop\n      mload(0x40)\n      dup1\n      swap2\n      sub\n      swap1\n      return\n        /* \"input/CreateWin.sol\":13360:13914  function happy() public isHuman() {... */\n    tag_28:\n      callvalue\n        /* \"--CODEGEN--\":8:17   */\n      dup1\n        /* \"--CODEGEN--\":5:7   */\n      iszero\n      tag_176\n      jumpi\n        /* \"--CODEGEN--\":30:31   */\n      0x00\n        /* \"--CODEGEN--\":27:28   */\n      dup1\n        /* \"--CODEGEN--\":20:32   */\n      revert\n        /* \"--CODEGEN--\":5:7   */\n    tag_176:\n        /* \"input/CreateWin.sol\":13360:13914  function happy() public isHuman() {... */\n      pop\n      tag_177\n      tag_178\n      jump\t// in\n    tag_177:\n      stop\n        /* \"input/CreateWin.sol\":7547:7647  function donnotimitate() public view returns (bool) {... */\n    tag_29:\n      callvalue\n        /* \"--CODEGEN--\":8:17   */\n      dup1\n        /* \"--CODEGEN--\":5:7   */\n      iszero\n      tag_179\n      jumpi\n        /* \"--CODEGEN--\":30:31   */\n      0x00\n        /* \"--CODEGEN--\":27:28   */\n      dup1\n        /* \"--CODEGEN--\":20:32   */\n      revert\n        /* \"--CODEGEN--\":5:7   */\n    tag_179:\n        /* \"input/CreateWin.sol\":7547:7647  function donnotimitate() public view returns (bool) {... */\n      pop\n      tag_180\n      tag_181\n      jump\t// in\n    tag_180:\n      mload(0x40)\n      dup1\n      dup3\n      iszero\n      iszero\n      iszero\n      iszero\n      dup2\n      mstore\n      0x20\n      add\n      swap2\n      pop\n      pop\n      mload(0x40)\n      dup1\n      swap2\n      sub\n      swap1\n      return\n        /* \"input/CreateWin.sol\":3698:3862  function transferOwnership(address newOwner) public onlyOwner {... */\n    tag_30:\n      callvalue\n        /* \"--CODEGEN--\":8:17   */\n      dup1\n        /* \"--CODEGEN--\":5:7   */\n      iszero\n      tag_182\n      jumpi\n        /* \"--CODEGEN--\":30:31   */\n      0x00\n        /* \"--CODEGEN--\":27:28   */\n      dup1\n        /* \"--CODEGEN--\":20:32   */\n      revert\n        /* \"--CODEGEN--\":5:7   */\n    tag_182:\n        /* \"input/CreateWin.sol\":3698:3862  function transferOwnership(address newOwner) public onlyOwner {... */\n      pop\n      tag_183\n      0x04\n      dup1\n      calldatasize\n      sub\n        /* \"--CODEGEN--\":13:15   */\n      0x20\n        /* \"--CODEGEN--\":8:11   */\n      dup2\n        /* \"--CODEGEN--\":5:16   */\n      lt\n        /* \"--CODEGEN--\":2:4   */\n      iszero\n      tag_184\n      jumpi\n        /* \"--CODEGEN--\":29:30   */\n      0x00\n        /* \"--CODEGEN--\":26:27   */\n      dup1\n        /* \"--CODEGEN--\":19:31   */\n      revert\n        /* \"--CODEGEN--\":2:4   */\n    tag_184:\n        /* \"input/CreateWin.sol\":3698:3862  function transferOwnership(address newOwner) public onlyOwner {... */\n      dup2\n      add\n      swap1\n      dup1\n      dup1\n      calldataload\n      0xffffffffffffffffffffffffffffffffffffffff\n      and\n      swap1\n      0x20\n      add\n      swap1\n      swap3\n      swap2\n      swap1\n      pop\n      pop\n      pop\n      tag_185\n      jump\t// in\n    tag_183:\n      stop\n        /* \"input/CreateWin.sol\":628:817  function getScByLevel(uint level) public pure returns (uint) {... */\n    tag_31:\n      callvalue\n        /* \"--CODEGEN--\":8:17   */\n      dup1\n        /* \"--CODEGEN--\":5:7   */\n      iszero\n      tag_186\n      jumpi\n        /* \"--CODEGEN--\":30:31   */\n      0x00\n        /* \"--CODEGEN--\":27:28   */\n      dup1\n        /* \"--CODEGEN--\":20:32   */\n      revert\n        /* \"--CODEGEN--\":5:7   */\n    tag_186:\n        /* \"input/CreateWin.sol\":628:817  function getScByLevel(uint level) public pure returns (uint) {... */\n      pop\n      tag_187\n      0x04\n      dup1\n      calldatasize\n      sub\n        /* \"--CODEGEN--\":13:15   */\n      0x20\n        /* \"--CODEGEN--\":8:11   */\n      dup2\n        /* \"--CODEGEN--\":5:16   */\n      lt\n        /* \"--CODEGEN--\":2:4   */\n      iszero\n      tag_188\n      jumpi\n        /* \"--CODEGEN--\":29:30   */\n      0x00\n        /* \"--CODEGEN--\":26:27   */\n      dup1\n        /* \"--CODEGEN--\":19:31   */\n      revert\n        /* \"--CODEGEN--\":2:4   */\n    tag_188:\n        /* \"input/CreateWin.sol\":628:817  function getScByLevel(uint level) public pure returns (uint) {... */\n      dup2\n      add\n      swap1\n      dup1\n      dup1\n      calldataload\n      swap1\n      0x20\n      add\n      swap1\n      swap3\n      swap2\n      swap1\n      pop\n      pop\n      pop\n      tag_189\n      jump\t// in\n    tag_187:\n      mload(0x40)\n      dup1\n      dup3\n      dup2\n      mstore\n      0x20\n      add\n      swap2\n      pop\n      pop\n      mload(0x40)\n      dup1\n      swap2\n      sub\n      swap1\n      return\n        /* \"input/CreateWin.sol\":20813:20916  function admin() onlyOwner public ... */\n    tag_32:\n      callvalue\n        /* \"--CODEGEN--\":8:17   */\n      dup1\n        /* \"--CODEGEN--\":5:7   */\n      iszero\n      tag_190\n      jumpi\n        /* \"--CODEGEN--\":30:31   */\n      0x00\n        /* \"--CODEGEN--\":27:28   */\n      dup1\n        /* \"--CODEGEN--\":20:32   */\n      revert\n        /* \"--CODEGEN--\":5:7   */\n    tag_190:\n        /* \"input/CreateWin.sol\":20813:20916  function admin() onlyOwner public ... */\n      pop\n      tag_191\n      tag_192\n      jump\t// in\n    tag_191:\n      stop\n        /* \"input/CreateWin.sol\":362:625  function getNodeLevel(uint value) public view returns (uint) {... */\n    tag_45:\n        /* \"input/CreateWin.sol\":417:421  uint */\n      0x00\n        /* \"input/CreateWin.sol\":444:450  ethWei */\n      dup1\n      sload\n        /* \"input/CreateWin.sol\":440:441  1 */\n      0x01\n        /* \"input/CreateWin.sol\":440:450  1 * ethWei */\n      mul\n        /* \"input/CreateWin.sol\":431:436  value */\n      dup3\n        /* \"input/CreateWin.sol\":431:450  value >= 1 * ethWei */\n      lt\n      iszero\n        /* \"input/CreateWin.sol\":431:473  value >= 1 * ethWei && value <= 5 * ethWei */\n      dup1\n      iszero\n      tag_194\n      jumpi\n      pop\n        /* \"input/CreateWin.sol\":467:473  ethWei */\n      sload(0x00)\n        /* \"input/CreateWin.sol\":463:464  5 */\n      0x05\n        /* \"input/CreateWin.sol\":463:473  5 * ethWei */\n      mul\n        /* \"input/CreateWin.sol\":454:459  value */\n      dup3\n        /* \"input/CreateWin.sol\":454:473  value <= 5 * ethWei */\n      gt\n      iszero\n        /* \"input/CreateWin.sol\":431:473  value >= 1 * ethWei && value <= 5 * ethWei */\n    tag_194:\n        /* \"input/CreateWin.sol\":427:493  if (value >= 1 * ethWei && value <= 5 * ethWei) {... */\n      iszero\n      tag_195\n      jumpi\n        /* \"input/CreateWin.sol\":487:488  1 */\n      0x01\n        /* \"input/CreateWin.sol\":480:488  return 1 */\n      swap1\n      pop\n      jump(tag_193)\n        /* \"input/CreateWin.sol\":427:493  if (value >= 1 * ethWei && value <= 5 * ethWei) {... */\n    tag_195:\n        /* \"input/CreateWin.sol\":513:519  ethWei */\n      sload(0x00)\n        /* \"input/CreateWin.sol\":509:510  6 */\n      0x06\n        /* \"input/CreateWin.sol\":509:519  6 * ethWei */\n      mul\n        /* \"input/CreateWin.sol\":500:505  value */\n      dup3\n        /* \"input/CreateWin.sol\":500:519  value >= 6 * ethWei */\n      lt\n      iszero\n        /* \"input/CreateWin.sol\":500:543  value >= 6 * ethWei && value <= 10 * ethWei */\n      dup1\n      iszero\n      tag_196\n      jumpi\n      pop\n        /* \"input/CreateWin.sol\":537:543  ethWei */\n      sload(0x00)\n        /* \"input/CreateWin.sol\":532:534  10 */\n      0x0a\n        /* \"input/CreateWin.sol\":532:543  10 * ethWei */\n      mul\n        /* \"input/CreateWin.sol\":523:528  value */\n      dup3\n        /* \"input/CreateWin.sol\":523:543  value <= 10 * ethWei */\n      gt\n      iszero\n        /* \"input/CreateWin.sol\":500:543  value >= 6 * ethWei && value <= 10 * ethWei */\n    tag_196:\n        /* \"input/CreateWin.sol\":496:563  if (value >= 6 * ethWei && value <= 10 * ethWei) {... */\n      iszero\n      tag_197\n      jumpi\n        /* \"input/CreateWin.sol\":557:558  2 */\n      0x02\n        /* \"input/CreateWin.sol\":550:558  return 2 */\n      swap1\n      pop\n      jump(tag_193)\n        /* \"input/CreateWin.sol\":496:563  if (value >= 6 * ethWei && value <= 10 * ethWei) {... */\n    tag_197:\n        /* \"input/CreateWin.sol\":584:590  ethWei */\n      sload(0x00)\n        /* \"input/CreateWin.sol\":579:581  11 */\n      0x0b\n        /* \"input/CreateWin.sol\":579:590  11 * ethWei */\n      mul\n        /* \"input/CreateWin.sol\":570:575  value */\n      dup3\n        /* \"input/CreateWin.sol\":570:590  value >= 11 * ethWei */\n      lt\n        /* \"input/CreateWin.sol\":566:610  if (value >= 11 * ethWei) {... */\n      tag_198\n      jumpi\n        /* \"input/CreateWin.sol\":604:605  3 */\n      0x03\n        /* \"input/CreateWin.sol\":597:605  return 3 */\n      swap1\n      pop\n      jump(tag_193)\n        /* \"input/CreateWin.sol\":566:610  if (value >= 11 * ethWei) {... */\n    tag_198:\n        /* \"input/CreateWin.sol\":620:621  0 */\n      0x00\n        /* \"input/CreateWin.sol\":613:621  return 0 */\n      swap1\n      pop\n        /* \"input/CreateWin.sol\":362:625  function getNodeLevel(uint value) public view returns (uint) {... */\n    tag_193:\n      swap2\n      swap1\n      pop\n      jump\t// out\n        /* \"input/CreateWin.sol\":1016:1579  function getRecommendScaleByLevelAndTim(uint level, uint times) public pure returns (uint){... */\n    tag_49:\n        /* \"input/CreateWin.sol\":1101:1105  uint */\n      0x00\n        /* \"input/CreateWin.sol\":1123:1124  1 */\n      0x01\n        /* \"input/CreateWin.sol\":1114:1119  level */\n      dup4\n        /* \"input/CreateWin.sol\":1114:1124  level == 1 */\n      eq\n        /* \"input/CreateWin.sol\":1114:1138  level == 1 && times == 1 */\n      dup1\n      iszero\n      tag_200\n      jumpi\n      pop\n        /* \"input/CreateWin.sol\":1137:1138  1 */\n      0x01\n        /* \"input/CreateWin.sol\":1128:1133  times */\n      dup3\n        /* \"input/CreateWin.sol\":1128:1138  times == 1 */\n      eq\n        /* \"input/CreateWin.sol\":1114:1138  level == 1 && times == 1 */\n    tag_200:\n        /* \"input/CreateWin.sol\":1110:1159  if (level == 1 && times == 1) {... */\n      iszero\n      tag_201\n      jumpi\n        /* \"input/CreateWin.sol\":1152:1154  50 */\n      0x32\n        /* \"input/CreateWin.sol\":1145:1154  return 50 */\n      swap1\n      pop\n      jump(tag_199)\n        /* \"input/CreateWin.sol\":1110:1159  if (level == 1 && times == 1) {... */\n    tag_201:\n        /* \"input/CreateWin.sol\":1175:1176  2 */\n      0x02\n        /* \"input/CreateWin.sol\":1166:1171  level */\n      dup4\n        /* \"input/CreateWin.sol\":1166:1176  level == 2 */\n      eq\n        /* \"input/CreateWin.sol\":1166:1190  level == 2 && times == 1 */\n      dup1\n      iszero\n      tag_202\n      jumpi\n      pop\n        /* \"input/CreateWin.sol\":1189:1190  1 */\n      0x01\n        /* \"input/CreateWin.sol\":1180:1185  times */\n      dup3\n        /* \"input/CreateWin.sol\":1180:1190  times == 1 */\n      eq\n        /* \"input/CreateWin.sol\":1166:1190  level == 2 && times == 1 */\n    tag_202:\n        /* \"input/CreateWin.sol\":1162:1211  if (level == 2 && times == 1) {... */\n      iszero\n      tag_203\n      jumpi\n        /* \"input/CreateWin.sol\":1204:1206  70 */\n      0x46\n        /* \"input/CreateWin.sol\":1197:1206  return 70 */\n      swap1\n      pop\n      jump(tag_199)\n        /* \"input/CreateWin.sol\":1162:1211  if (level == 2 && times == 1) {... */\n    tag_203:\n        /* \"input/CreateWin.sol\":1227:1228  2 */\n      0x02\n        /* \"input/CreateWin.sol\":1218:1223  level */\n      dup4\n        /* \"input/CreateWin.sol\":1218:1228  level == 2 */\n      eq\n        /* \"input/CreateWin.sol\":1218:1242  level == 2 && times == 2 */\n      dup1\n      iszero\n      tag_204\n      jumpi\n      pop\n        /* \"input/CreateWin.sol\":1241:1242  2 */\n      0x02\n        /* \"input/CreateWin.sol\":1232:1237  times */\n      dup3\n        /* \"input/CreateWin.sol\":1232:1242  times == 2 */\n      eq\n        /* \"input/CreateWin.sol\":1218:1242  level == 2 && times == 2 */\n    tag_204:\n        /* \"input/CreateWin.sol\":1214:1263  if (level == 2 && times == 2) {... */\n      iszero\n      tag_205\n      jumpi\n        /* \"input/CreateWin.sol\":1256:1258  50 */\n      0x32\n        /* \"input/CreateWin.sol\":1249:1258  return 50 */\n      swap1\n      pop\n      jump(tag_199)\n        /* \"input/CreateWin.sol\":1214:1263  if (level == 2 && times == 2) {... */\n    tag_205:\n        /* \"input/CreateWin.sol\":1279:1280  3 */\n      0x03\n        /* \"input/CreateWin.sol\":1270:1275  level */\n      dup4\n        /* \"input/CreateWin.sol\":1270:1280  level == 3 */\n      eq\n        /* \"input/CreateWin.sol\":1266:1564  if (level == 3) {... */\n      iszero\n      tag_206\n      jumpi\n        /* \"input/CreateWin.sol\":1300:1301  1 */\n      0x01\n        /* \"input/CreateWin.sol\":1291:1296  times */\n      dup3\n        /* \"input/CreateWin.sol\":1291:1301  times == 1 */\n      eq\n        /* \"input/CreateWin.sol\":1287:1325  if (times == 1) {... */\n      iszero\n      tag_207\n      jumpi\n        /* \"input/CreateWin.sol\":1316:1319  100 */\n      0x64\n        /* \"input/CreateWin.sol\":1309:1319  return 100 */\n      swap1\n      pop\n      jump(tag_199)\n        /* \"input/CreateWin.sol\":1287:1325  if (times == 1) {... */\n    tag_207:\n        /* \"input/CreateWin.sol\":1342:1343  2 */\n      0x02\n        /* \"input/CreateWin.sol\":1333:1338  times */\n      dup3\n        /* \"input/CreateWin.sol\":1333:1343  times == 2 */\n      eq\n        /* \"input/CreateWin.sol\":1329:1366  if (times == 2) {... */\n      iszero\n      tag_208\n      jumpi\n        /* \"input/CreateWin.sol\":1358:1360  70 */\n      0x46\n        /* \"input/CreateWin.sol\":1351:1360  return 70 */\n      swap1\n      pop\n      jump(tag_199)\n        /* \"input/CreateWin.sol\":1329:1366  if (times == 2) {... */\n    tag_208:\n        /* \"input/CreateWin.sol\":1383:1384  3 */\n      0x03\n        /* \"input/CreateWin.sol\":1374:1379  times */\n      dup3\n        /* \"input/CreateWin.sol\":1374:1384  times == 3 */\n      eq\n        /* \"input/CreateWin.sol\":1370:1407  if (times == 3) {... */\n      iszero\n      tag_209\n      jumpi\n        /* \"input/CreateWin.sol\":1399:1401  50 */\n      0x32\n        /* \"input/CreateWin.sol\":1392:1401  return 50 */\n      swap1\n      pop\n      jump(tag_199)\n        /* \"input/CreateWin.sol\":1370:1407  if (times == 3) {... */\n    tag_209:\n        /* \"input/CreateWin.sol\":1424:1425  4 */\n      0x04\n        /* \"input/CreateWin.sol\":1415:1420  times */\n      dup3\n        /* \"input/CreateWin.sol\":1415:1425  times >= 4 */\n      lt\n      iszero\n        /* \"input/CreateWin.sol\":1415:1440  times >= 4 && times <= 10 */\n      dup1\n      iszero\n      tag_210\n      jumpi\n      pop\n        /* \"input/CreateWin.sol\":1438:1440  10 */\n      0x0a\n        /* \"input/CreateWin.sol\":1429:1434  times */\n      dup3\n        /* \"input/CreateWin.sol\":1429:1440  times <= 10 */\n      gt\n      iszero\n        /* \"input/CreateWin.sol\":1415:1440  times >= 4 && times <= 10 */\n    tag_210:\n        /* \"input/CreateWin.sol\":1411:1463  if (times >= 4 && times <= 10) {... */\n      iszero\n      tag_211\n      jumpi\n        /* \"input/CreateWin.sol\":1455:1457  10 */\n      0x0a\n        /* \"input/CreateWin.sol\":1448:1457  return 10 */\n      swap1\n      pop\n      jump(tag_199)\n        /* \"input/CreateWin.sol\":1411:1463  if (times >= 4 && times <= 10) {... */\n    tag_211:\n        /* \"input/CreateWin.sol\":1480:1482  11 */\n      0x0b\n        /* \"input/CreateWin.sol\":1471:1476  times */\n      dup3\n        /* \"input/CreateWin.sol\":1471:1482  times >= 11 */\n      lt\n      iszero\n        /* \"input/CreateWin.sol\":1471:1497  times >= 11 && times <= 20 */\n      dup1\n      iszero\n      tag_212\n      jumpi\n      pop\n        /* \"input/CreateWin.sol\":1495:1497  20 */\n      0x14\n        /* \"input/CreateWin.sol\":1486:1491  times */\n      dup3\n        /* \"input/CreateWin.sol\":1486:1497  times <= 20 */\n      gt\n      iszero\n        /* \"input/CreateWin.sol\":1471:1497  times >= 11 && times <= 20 */\n    tag_212:\n        /* \"input/CreateWin.sol\":1467:1519  if (times >= 11 && times <= 20) {... */\n      iszero\n      tag_213\n      jumpi\n        /* \"input/CreateWin.sol\":1512:1513  5 */\n      0x05\n        /* \"input/CreateWin.sol\":1505:1513  return 5 */\n      swap1\n      pop\n      jump(tag_199)\n        /* \"input/CreateWin.sol\":1467:1519  if (times >= 11 && times <= 20) {... */\n    tag_213:\n        /* \"input/CreateWin.sol\":1536:1538  21 */\n      0x15\n        /* \"input/CreateWin.sol\":1527:1532  times */\n      dup3\n        /* \"input/CreateWin.sol\":1527:1538  times >= 21 */\n      lt\n        /* \"input/CreateWin.sol\":1523:1560  if (times >= 21) {... */\n      tag_214\n      jumpi\n        /* \"input/CreateWin.sol\":1553:1554  1 */\n      0x01\n        /* \"input/CreateWin.sol\":1546:1554  return 1 */\n      swap1\n      pop\n      jump(tag_199)\n        /* \"input/CreateWin.sol\":1523:1560  if (times >= 21) {... */\n    tag_214:\n        /* \"input/CreateWin.sol\":1266:1564  if (level == 3) {... */\n    tag_206:\n        /* \"input/CreateWin.sol\":1574:1575  0 */\n      0x00\n        /* \"input/CreateWin.sol\":1567:1575  return 0 */\n      swap1\n      pop\n        /* \"input/CreateWin.sol\":1016:1579  function getRecommendScaleByLevelAndTim(uint level, uint times) public pure returns (uint){... */\n    tag_199:\n      swap3\n      swap2\n      pop\n      pop\n      jump\t// out\n        /* \"input/CreateWin.sol\":8393:10247  function exit(string memory inviteCode, string memory beCode) public isHuman() payable {... */\n    tag_58:\n        /* \"input/CreateWin.sol\":7068:7080  address addr */\n      0x00\n        /* \"input/CreateWin.sol\":7083:7093  msg.sender */\n      caller\n        /* \"input/CreateWin.sol\":7068:7093  address addr = msg.sender */\n      swap1\n      pop\n        /* \"input/CreateWin.sol\":7097:7112  uint codeLength */\n      0x00\n        /* \"input/CreateWin.sol\":7152:7156  addr */\n      dup2\n        /* \"input/CreateWin.sol\":7140:7157  extcodesize(addr) */\n      extcodesize\n        /* \"input/CreateWin.sol\":7126:7157  codeLength := extcodesize(addr) */\n      swap1\n      pop\n        /* \"input/CreateWin.sol\":7183:7184  0 */\n      0x00\n        /* \"input/CreateWin.sol\":7169:7179  codeLength */\n      dup2\n        /* \"input/CreateWin.sol\":7169:7184  codeLength == 0 */\n      eq\n        /* \"input/CreateWin.sol\":7161:7206  require(codeLength == 0, \"sorry humans only\") */\n      tag_216\n      jumpi\n      mload(0x40)\n      0x08c379a000000000000000000000000000000000000000000000000000000000\n      dup2\n      mstore\n      0x04\n      add\n      dup1\n      dup1\n      0x20\n      add\n      dup3\n      dup2\n      sub\n      dup3\n      mstore\n      0x11\n      dup2\n      mstore\n      0x20\n      add\n      dup1\n      0x736f7272792068756d616e73206f6e6c79000000000000000000000000000000\n      dup2\n      mstore\n      pop\n      0x20\n      add\n      swap2\n      pop\n      pop\n      mload(0x40)\n      dup1\n      swap2\n      sub\n      swap1\n      revert\n    tag_216:\n        /* \"input/CreateWin.sol\":7231:7241  msg.sender */\n      caller\n        /* \"input/CreateWin.sol\":7218:7241  tx.origin == msg.sender */\n      0xffffffffffffffffffffffffffffffffffffffff\n      and\n        /* \"input/CreateWin.sol\":7218:7227  tx.origin */\n      origin\n        /* \"input/CreateWin.sol\":7218:7241  tx.origin == msg.sender */\n      0xffffffffffffffffffffffffffffffffffffffff\n      and\n      eq\n        /* \"input/CreateWin.sol\":7210:7264  require(tx.origin == msg.sender, \"sorry, humans only\") */\n      tag_217\n      jumpi\n      mload(0x40)\n      0x08c379a000000000000000000000000000000000000000000000000000000000\n      dup2\n      mstore\n      0x04\n      add\n      dup1\n      dup1\n      0x20\n      add\n      dup3\n      dup2\n      sub\n      dup3\n      mstore\n      0x12\n      dup2\n      mstore\n      0x20\n      add\n      dup1\n      0x736f7272792c2068756d616e73206f6e6c790000000000000000000000000000\n      dup2\n      mstore\n      pop\n      0x20\n      add\n      swap2\n      pop\n      pop\n      mload(0x40)\n      dup1\n      swap2\n      sub\n      swap1\n      revert\n    tag_217:\n        /* \"input/CreateWin.sol\":8492:8507  donnotimitate() */\n      tag_219\n        /* \"input/CreateWin.sol\":8492:8505  donnotimitate */\n      tag_181\n        /* \"input/CreateWin.sol\":8492:8507  donnotimitate() */\n      jump\t// in\n    tag_219:\n        /* \"input/CreateWin.sol\":8484:8529  require(donnotimitate(), \"no, donnotimitate\") */\n      tag_220\n      jumpi\n      mload(0x40)\n      0x08c379a000000000000000000000000000000000000000000000000000000000\n      dup2\n      mstore\n      0x04\n      add\n      dup1\n      dup1\n      0x20\n      add\n      dup3\n      dup2\n      sub\n      dup3\n      mstore\n      0x11\n      dup2\n      mstore\n      0x20\n      add\n      dup1\n      0x6e6f2c20646f6e6e6f74696d6974617465000000000000000000000000000000\n      dup2\n      mstore\n      pop\n      0x20\n      add\n      swap2\n      pop\n      pop\n      mload(0x40)\n      dup1\n      swap2\n      sub\n      swap1\n      revert\n    tag_220:\n        /* \"input/CreateWin.sol\":8558:8564  ethWei */\n      sload(0x03)\n        /* \"input/CreateWin.sol\":8554:8555  1 */\n      0x01\n        /* \"input/CreateWin.sol\":8554:8564  1 * ethWei */\n      mul\n        /* \"input/CreateWin.sol\":8541:8550  msg.value */\n      callvalue\n        /* \"input/CreateWin.sol\":8541:8564  msg.value >= 1 * ethWei */\n      lt\n      iszero\n        /* \"input/CreateWin.sol\":8541:8592  msg.value >= 1 * ethWei && msg.value <= 15 * ethWei */\n      dup1\n      iszero\n      tag_221\n      jumpi\n      pop\n        /* \"input/CreateWin.sol\":8586:8592  ethWei */\n      sload(0x03)\n        /* \"input/CreateWin.sol\":8581:8583  15 */\n      0x0f\n        /* \"input/CreateWin.sol\":8581:8592  15 * ethWei */\n      mul\n        /* \"input/CreateWin.sol\":8568:8577  msg.value */\n      callvalue\n        /* \"input/CreateWin.sol\":8568:8592  msg.value <= 15 * ethWei */\n      gt\n      iszero\n        /* \"input/CreateWin.sol\":8541:8592  msg.value >= 1 * ethWei && msg.value <= 15 * ethWei */\n    tag_221:\n        /* \"input/CreateWin.sol\":8533:8613  require(msg.value >= 1 * ethWei && msg.value <= 15 * ethWei, \"between 1 and 15\") */\n      tag_222\n      jumpi\n      mload(0x40)\n      0x08c379a000000000000000000000000000000000000000000000000000000000\n      dup2\n      mstore\n      0x04\n      add\n      dup1\n      dup1\n      0x20\n      add\n      dup3\n      dup2\n      sub\n      dup3\n      mstore\n      0x10\n      dup2\n      mstore\n      0x20\n      add\n      dup1\n      0x6265747765656e203120616e6420313500000000000000000000000000000000\n      dup2\n      mstore\n      pop\n      0x20\n      add\n      swap2\n      pop\n      pop\n      mload(0x40)\n      dup1\n      swap2\n      sub\n      swap1\n      revert\n    tag_222:\n        /* \"input/CreateWin.sol\":8638:8671  msg.value.div(ethWei).mul(ethWei) */\n      tag_223\n        /* \"input/CreateWin.sol\":8664:8670  ethWei */\n      sload(0x03)\n        /* \"input/CreateWin.sol\":8638:8659  msg.value.div(ethWei) */\n      tag_224\n        /* \"input/CreateWin.sol\":8652:8658  ethWei */\n      sload(0x03)\n        /* \"input/CreateWin.sol\":8638:8647  msg.value */\n      callvalue\n        /* \"input/CreateWin.sol\":8638:8651  msg.value.div */\n      tag_225\n      swap1\n        /* \"input/CreateWin.sol\":8638:8659  msg.value.div(ethWei) */\n      swap2\n      swap1\n      0xffffffff\n      and\n      jump\t// in\n    tag_224:\n        /* \"input/CreateWin.sol\":8638:8663  msg.value.div(ethWei).mul */\n      tag_226\n      swap1\n        /* \"input/CreateWin.sol\":8638:8671  msg.value.div(ethWei).mul(ethWei) */\n      swap2\n      swap1\n      0xffffffff\n      and\n      jump\t// in\n    tag_223:\n        /* \"input/CreateWin.sol\":8625:8634  msg.value */\n      callvalue\n        /* \"input/CreateWin.sol\":8625:8671  msg.value == msg.value.div(ethWei).mul(ethWei) */\n      eq\n        /* \"input/CreateWin.sol\":8617:8693  require(msg.value == msg.value.div(ethWei).mul(ethWei), \"invalid msg value\") */\n      tag_227\n      jumpi\n      mload(0x40)\n      0x08c379a000000000000000000000000000000000000000000000000000000000\n      dup2\n      mstore\n      0x04\n      add\n      dup1\n      dup1\n      0x20\n      add\n      dup3\n      dup2\n      sub\n      dup3\n      mstore\n      0x11\n      dup2\n      mstore\n      0x20\n      add\n      dup1\n      0x696e76616c6964206d73672076616c7565000000000000000000000000000000\n      dup2\n      mstore\n      pop\n      0x20\n      add\n      swap2\n      pop\n      pop\n      mload(0x40)\n      dup1\n      swap2\n      sub\n      swap1\n      revert\n    tag_227:\n        /* \"input/CreateWin.sol\":8698:8727  UserGlobal storage userGlobal */\n      0x00\n        /* \"input/CreateWin.sol\":8730:8741  userMapping */\n      0x0f\n        /* \"input/CreateWin.sol\":8730:8753  userMapping[msg.sender] */\n      0x00\n        /* \"input/CreateWin.sol\":8742:8752  msg.sender */\n      caller\n        /* \"input/CreateWin.sol\":8730:8753  userMapping[msg.sender] */\n      0xffffffffffffffffffffffffffffffffffffffff\n      and\n      0xffffffffffffffffffffffffffffffffffffffff\n      and\n      dup2\n      mstore\n      0x20\n      add\n      swap1\n      dup2\n      mstore\n      0x20\n      add\n      0x00\n      keccak256\n        /* \"input/CreateWin.sol\":8698:8753  UserGlobal storage userGlobal = userMapping[msg.sender] */\n      swap1\n      pop\n        /* \"input/CreateWin.sol\":8778:8779  0 */\n      0x00\n        /* \"input/CreateWin.sol\":8761:8771  userGlobal */\n      dup2\n        /* \"input/CreateWin.sol\":8761:8774  userGlobal.id */\n      0x00\n      add\n      sload\n        /* \"input/CreateWin.sol\":8761:8779  userGlobal.id == 0 */\n      eq\n        /* \"input/CreateWin.sol\":8757:9150  if (userGlobal.id == 0) {... */\n      iszero\n      tag_228\n      jumpi\n        /* \"input/CreateWin.sol\":8795:8821  compareStr(inviteCode, \"\") */\n      tag_229\n        /* \"input/CreateWin.sol\":8806:8816  inviteCode */\n      dup6\n        /* \"input/CreateWin.sol\":8795:8821  compareStr(inviteCode, \"\") */\n      mload(0x40)\n      dup1\n      0x20\n      add\n      0x40\n      mstore\n      dup1\n      0x00\n      dup2\n      mstore\n      pop\n        /* \"input/CreateWin.sol\":8795:8805  compareStr */\n      tag_127\n        /* \"input/CreateWin.sol\":8795:8821  compareStr(inviteCode, \"\") */\n      jump\t// in\n    tag_229:\n        /* \"input/CreateWin.sol\":8794:8821  !compareStr(inviteCode, \"\") */\n      iszero\n        /* \"input/CreateWin.sol\":8794:8854  !compareStr(inviteCode, \"\") && bytes(inviteCode).length == 6 */\n      dup1\n      iszero\n      tag_230\n      jumpi\n      pop\n        /* \"input/CreateWin.sol\":8853:8854  6 */\n      0x06\n        /* \"input/CreateWin.sol\":8831:8841  inviteCode */\n      dup6\n        /* \"input/CreateWin.sol\":8825:8849  bytes(inviteCode).length */\n      mload\n        /* \"input/CreateWin.sol\":8825:8854  bytes(inviteCode).length == 6 */\n      eq\n        /* \"input/CreateWin.sol\":8794:8854  !compareStr(inviteCode, \"\") && bytes(inviteCode).length == 6 */\n    tag_230:\n        /* \"input/CreateWin.sol\":8786:8878  require(!compareStr(inviteCode, \"\") && bytes(inviteCode).length == 6, \"invalid invite code\") */\n      tag_231\n      jumpi\n      mload(0x40)\n      0x08c379a000000000000000000000000000000000000000000000000000000000\n      dup2\n      mstore\n      0x04\n      add\n      dup1\n      dup1\n      0x20\n      add\n      dup3\n      dup2\n      sub\n      dup3\n      mstore\n      0x13\n      dup2\n      mstore\n      0x20\n      add\n      dup1\n      0x696e76616c696420696e7669746520636f646500000000000000000000000000\n      dup2\n      mstore\n      pop\n      0x20\n      add\n      swap2\n      pop\n      pop\n      mload(0x40)\n      dup1\n      swap2\n      sub\n      swap1\n      revert\n    tag_231:\n        /* \"input/CreateWin.sol\":8883:8901  address beCodeAddr */\n      0x00\n        /* \"input/CreateWin.sol\":8904:8918  addressMapping */\n      0x10\n        /* \"input/CreateWin.sol\":8919:8925  beCode */\n      dup6\n        /* \"input/CreateWin.sol\":8904:8926  addressMapping[beCode] */\n      mload(0x40)\n      dup1\n      dup3\n      dup1\n      mload\n      swap1\n      0x20\n      add\n      swap1\n      dup1\n      dup4\n      dup4\n        /* \"--CODEGEN--\":36:189   */\n    tag_232:\n        /* \"--CODEGEN--\":66:68   */\n      0x20\n        /* \"--CODEGEN--\":61:64   */\n      dup4\n        /* \"--CODEGEN--\":58:69   */\n      lt\n        /* \"--CODEGEN--\":36:189   */\n      tag_234\n      jumpi\n        /* \"--CODEGEN--\":182:185   */\n      dup1\n        /* \"--CODEGEN--\":176:186   */\n      mload\n        /* \"--CODEGEN--\":171:174   */\n      dup3\n        /* \"--CODEGEN--\":164:187   */\n      mstore\n        /* \"--CODEGEN--\":98:100   */\n      0x20\n        /* \"--CODEGEN--\":93:96   */\n      dup3\n        /* \"--CODEGEN--\":89:101   */\n      add\n        /* \"--CODEGEN--\":82:101   */\n      swap2\n      pop\n        /* \"--CODEGEN--\":123:125   */\n      0x20\n        /* \"--CODEGEN--\":118:121   */\n      dup2\n        /* \"--CODEGEN--\":114:126   */\n      add\n        /* \"--CODEGEN--\":107:126   */\n      swap1\n      pop\n        /* \"--CODEGEN--\":148:150   */\n      0x20\n        /* \"--CODEGEN--\":143:146   */\n      dup4\n        /* \"--CODEGEN--\":139:151   */\n      sub\n        /* \"--CODEGEN--\":132:151   */\n      swap3\n      pop\n        /* \"--CODEGEN--\":36:189   */\n      jump(tag_232)\n    tag_234:\n        /* \"--CODEGEN--\":274:275   */\n      0x01\n        /* \"--CODEGEN--\":267:270   */\n      dup4\n        /* \"--CODEGEN--\":263:265   */\n      0x20\n        /* \"--CODEGEN--\":259:271   */\n      sub\n        /* \"--CODEGEN--\":254:257   */\n      0x0100\n        /* \"--CODEGEN--\":250:272   */\n      exp\n        /* \"--CODEGEN--\":246:276   */\n      sub\n        /* \"--CODEGEN--\":315:319   */\n      dup1\n        /* \"--CODEGEN--\":311:320   */\n      not\n        /* \"--CODEGEN--\":305:308   */\n      dup3\n        /* \"--CODEGEN--\":299:309   */\n      mload\n        /* \"--CODEGEN--\":295:321   */\n      and\n        /* \"--CODEGEN--\":356:360   */\n      dup2\n        /* \"--CODEGEN--\":350:353   */\n      dup5\n        /* \"--CODEGEN--\":344:354   */\n      mload\n        /* \"--CODEGEN--\":340:361   */\n      and\n        /* \"--CODEGEN--\":389:396   */\n      dup1\n        /* \"--CODEGEN--\":380:387   */\n      dup3\n        /* \"--CODEGEN--\":377:397   */\n      or\n        /* \"--CODEGEN--\":372:375   */\n      dup6\n        /* \"--CODEGEN--\":365:398   */\n      mstore\n        /* \"--CODEGEN--\":3:402   */\n      pop\n      pop\n      pop\n        /* \"input/CreateWin.sol\":8904:8926  addressMapping[beCode] */\n      pop\n      pop\n      pop\n      swap1\n      pop\n      add\n      swap2\n      pop\n      pop\n      swap1\n      dup2\n      mstore\n      0x20\n      add\n      mload(0x40)\n      dup1\n      swap2\n      sub\n      swap1\n      keccak256\n      0x00\n      swap1\n      sload\n      swap1\n      0x0100\n      exp\n      swap1\n      div\n      0xffffffffffffffffffffffffffffffffffffffff\n      and\n        /* \"input/CreateWin.sol\":8883:8926  address beCodeAddr = addressMapping[beCode] */\n      swap1\n      pop\n        /* \"input/CreateWin.sol\":8939:8953  isUsed(beCode) */\n      tag_235\n        /* \"input/CreateWin.sol\":8946:8952  beCode */\n      dup6\n        /* \"input/CreateWin.sol\":8939:8945  isUsed */\n      tag_95\n        /* \"input/CreateWin.sol\":8939:8953  isUsed(beCode) */\n      jump\t// in\n    tag_235:\n        /* \"input/CreateWin.sol\":8931:8974  require(isUsed(beCode), \"beCode not exist\") */\n      tag_236\n      jumpi\n      mload(0x40)\n      0x08c379a000000000000000000000000000000000000000000000000000000000\n      dup2\n      mstore\n      0x04\n      add\n      dup1\n      dup1\n      0x20\n      add\n      dup3\n      dup2\n      sub\n      dup3\n      mstore\n      0x10\n      dup2\n      mstore\n      0x20\n      add\n      dup1\n      0x6265436f6465206e6f7420657869737400000000000000000000000000000000\n      dup2\n      mstore\n      pop\n      0x20\n      add\n      swap2\n      pop\n      pop\n      mload(0x40)\n      dup1\n      swap2\n      sub\n      swap1\n      revert\n    tag_236:\n        /* \"input/CreateWin.sol\":9001:9011  msg.sender */\n      caller\n        /* \"input/CreateWin.sol\":8987:9011  beCodeAddr != msg.sender */\n      0xffffffffffffffffffffffffffffffffffffffff\n      and\n        /* \"input/CreateWin.sol\":8987:8997  beCodeAddr */\n      dup2\n        /* \"input/CreateWin.sol\":8987:9011  beCodeAddr != msg.sender */\n      0xffffffffffffffffffffffffffffffffffffffff\n      and\n      eq\n      iszero\n        /* \"input/CreateWin.sol\":8979:9040  require(beCodeAddr != msg.sender, \"beCodeAddr can't be self\") */\n      tag_237\n      jumpi\n      mload(0x40)\n      0x08c379a000000000000000000000000000000000000000000000000000000000\n      dup2\n      mstore\n      0x04\n      add\n      dup1\n      dup1\n      0x20\n      add\n      dup3\n      dup2\n      sub\n      dup3\n      mstore\n      0x18\n      dup2\n      mstore\n      0x20\n      add\n      dup1\n      0x6265436f6465416464722063616e27742062652073656c660000000000000000\n      dup2\n      mstore\n      pop\n      0x20\n      add\n      swap2\n      pop\n      pop\n      mload(0x40)\n      dup1\n      swap2\n      sub\n      swap1\n      revert\n    tag_237:\n        /* \"input/CreateWin.sol\":9054:9072  isUsed(inviteCode) */\n      tag_238\n        /* \"input/CreateWin.sol\":9061:9071  inviteCode */\n      dup7\n        /* \"input/CreateWin.sol\":9054:9060  isUsed */\n      tag_95\n        /* \"input/CreateWin.sol\":9054:9072  isUsed(inviteCode) */\n      jump\t// in\n    tag_238:\n        /* \"input/CreateWin.sol\":9053:9072  !isUsed(inviteCode) */\n      iszero\n        /* \"input/CreateWin.sol\":9045:9096  require(!isUsed(inviteCode), \"invite code is used\") */\n      tag_239\n      jumpi\n      mload(0x40)\n      0x08c379a000000000000000000000000000000000000000000000000000000000\n      dup2\n      mstore\n      0x04\n      add\n      dup1\n      dup1\n      0x20\n      add\n      dup3\n      dup2\n      sub\n      dup3\n      mstore\n      0x13\n      dup2\n      mstore\n      0x20\n      add\n      dup1\n      0x696e7669746520636f6465206973207573656400000000000000000000000000\n      dup2\n      mstore\n      pop\n      0x20\n      add\n      swap2\n      pop\n      pop\n      mload(0x40)\n      dup1\n      swap2\n      sub\n      swap1\n      revert\n    tag_239:\n        /* \"input/CreateWin.sol\":9101:9145  registerUser(msg.sender, inviteCode, beCode) */\n      tag_240\n        /* \"input/CreateWin.sol\":9114:9124  msg.sender */\n      caller\n        /* \"input/CreateWin.sol\":9126:9136  inviteCode */\n      dup8\n        /* \"input/CreateWin.sol\":9138:9144  beCode */\n      dup8\n        /* \"input/CreateWin.sol\":9101:9113  registerUser */\n      tag_241\n        /* \"input/CreateWin.sol\":9101:9145  registerUser(msg.sender, inviteCode, beCode) */\n      jump\t// in\n    tag_240:\n        /* \"input/CreateWin.sol\":8757:9150  if (userGlobal.id == 0) {... */\n      pop\n    tag_228:\n        /* \"input/CreateWin.sol\":9153:9169  uint investAmout */\n      0x00\n        /* \"input/CreateWin.sol\":9173:9188  uint lineAmount */\n      dup1\n        /* \"input/CreateWin.sol\":9196:9204  isLine() */\n      tag_242\n        /* \"input/CreateWin.sol\":9196:9202  isLine */\n      tag_243\n        /* \"input/CreateWin.sol\":9196:9204  isLine() */\n      jump\t// in\n    tag_242:\n        /* \"input/CreateWin.sol\":9192:9277  if (isLine()) {... */\n      iszero\n      tag_244\n      jumpi\n        /* \"input/CreateWin.sol\":9224:9233  msg.value */\n      callvalue\n        /* \"input/CreateWin.sol\":9211:9233  lineAmount = msg.value */\n      swap1\n      pop\n        /* \"input/CreateWin.sol\":9192:9277  if (isLine()) {... */\n      jump(tag_245)\n    tag_244:\n        /* \"input/CreateWin.sol\":9263:9272  msg.value */\n      callvalue\n        /* \"input/CreateWin.sol\":9249:9272  investAmout = msg.value */\n      swap2\n      pop\n        /* \"input/CreateWin.sol\":9192:9277  if (isLine()) {... */\n    tag_245:\n        /* \"input/CreateWin.sol\":9280:9297  User storage user */\n      0x00\n        /* \"input/CreateWin.sol\":9300:9316  userRoundMapping */\n      0x0e\n        /* \"input/CreateWin.sol\":9300:9321  userRoundMapping[rid] */\n      0x00\n        /* \"input/CreateWin.sol\":9317:9320  rid */\n      sload(0x0c)\n        /* \"input/CreateWin.sol\":9300:9321  userRoundMapping[rid] */\n      dup2\n      mstore\n      0x20\n      add\n      swap1\n      dup2\n      mstore\n      0x20\n      add\n      0x00\n      keccak256\n        /* \"input/CreateWin.sol\":9300:9333  userRoundMapping[rid][msg.sender] */\n      0x00\n        /* \"input/CreateWin.sol\":9322:9332  msg.sender */\n      caller\n        /* \"input/CreateWin.sol\":9300:9333  userRoundMapping[rid][msg.sender] */\n      0xffffffffffffffffffffffffffffffffffffffff\n      and\n      0xffffffffffffffffffffffffffffffffffffffff\n      and\n      dup2\n      mstore\n      0x20\n      add\n      swap1\n      dup2\n      mstore\n      0x20\n      add\n      0x00\n      keccak256\n        /* \"input/CreateWin.sol\":9280:9333  User storage user = userRoundMapping[rid][msg.sender] */\n      swap1\n      pop\n        /* \"input/CreateWin.sol\":9352:9353  0 */\n      0x00\n        /* \"input/CreateWin.sol\":9341:9345  user */\n      dup2\n        /* \"input/CreateWin.sol\":9341:9348  user.id */\n      0x00\n      add\n      sload\n        /* \"input/CreateWin.sol\":9341:9353  user.id != 0 */\n      eq\n        /* \"input/CreateWin.sol\":9337:10002  if (user.id != 0) {... */\n      tag_246\n      jumpi\n        /* \"input/CreateWin.sol\":9410:9411  0 */\n      0x00\n        /* \"input/CreateWin.sol\":9368:9406  user.freezeAmount.add(user.lineAmount) */\n      tag_247\n        /* \"input/CreateWin.sol\":9390:9394  user */\n      dup3\n        /* \"input/CreateWin.sol\":9390:9405  user.lineAmount */\n      0x04\n      add\n      sload\n        /* \"input/CreateWin.sol\":9368:9372  user */\n      dup4\n        /* \"input/CreateWin.sol\":9368:9385  user.freezeAmount */\n      0x03\n      add\n      sload\n        /* \"input/CreateWin.sol\":9368:9389  user.freezeAmount.add */\n      tag_248\n      swap1\n        /* \"input/CreateWin.sol\":9368:9406  user.freezeAmount.add(user.lineAmount) */\n      swap2\n      swap1\n      0xffffffff\n      and\n      jump\t// in\n    tag_247:\n        /* \"input/CreateWin.sol\":9368:9411  user.freezeAmount.add(user.lineAmount) == 0 */\n      eq\n        /* \"input/CreateWin.sol\":9360:9432  require(user.freezeAmount.add(user.lineAmount) == 0, \"only once invest\") */\n      tag_249\n      jumpi\n      mload(0x40)\n      0x08c379a000000000000000000000000000000000000000000000000000000000\n      dup2\n      mstore\n      0x04\n      add\n      dup1\n      dup1\n      0x20\n      add\n      dup3\n      dup2\n      sub\n      dup3\n      mstore\n      0x10\n      dup2\n      mstore\n      0x20\n      add\n      dup1\n      0x6f6e6c79206f6e636520696e7665737400000000000000000000000000000000\n      dup2\n      mstore\n      pop\n      0x20\n      add\n      swap2\n      pop\n      pop\n      mload(0x40)\n      dup1\n      swap2\n      sub\n      swap1\n      revert\n    tag_249:\n        /* \"input/CreateWin.sol\":9457:9468  investAmout */\n      dup3\n        /* \"input/CreateWin.sol\":9437:9441  user */\n      dup2\n        /* \"input/CreateWin.sol\":9437:9454  user.freezeAmount */\n      0x03\n      add\n        /* \"input/CreateWin.sol\":9437:9468  user.freezeAmount = investAmout */\n      dup2\n      swap1\n      sstore\n      pop\n        /* \"input/CreateWin.sol\":9491:9501  lineAmount */\n      dup2\n        /* \"input/CreateWin.sol\":9473:9477  user */\n      dup2\n        /* \"input/CreateWin.sol\":9473:9488  user.lineAmount */\n      0x04\n      add\n        /* \"input/CreateWin.sol\":9473:9501  user.lineAmount = lineAmount */\n      dup2\n      swap1\n      sstore\n      pop\n        /* \"input/CreateWin.sol\":9519:9546  getLevel(user.freezeAmount) */\n      tag_250\n        /* \"input/CreateWin.sol\":9528:9532  user */\n      dup2\n        /* \"input/CreateWin.sol\":9528:9545  user.freezeAmount */\n      0x03\n      add\n      sload\n        /* \"input/CreateWin.sol\":9519:9527  getLevel */\n      tag_117\n        /* \"input/CreateWin.sol\":9519:9546  getLevel(user.freezeAmount) */\n      jump\t// in\n    tag_250:\n        /* \"input/CreateWin.sol\":9506:9510  user */\n      dup2\n        /* \"input/CreateWin.sol\":9506:9516  user.level */\n      0x08\n      add\n        /* \"input/CreateWin.sol\":9506:9546  user.level = getLevel(user.freezeAmount) */\n      dup2\n      swap1\n      sstore\n      pop\n        /* \"input/CreateWin.sol\":9568:9641  getNodeLevel(user.freezeAmount.add(user.freeAmount).add(user.lineAmount)) */\n      tag_251\n        /* \"input/CreateWin.sol\":9581:9640  user.freezeAmount.add(user.freeAmount).add(user.lineAmount) */\n      tag_252\n        /* \"input/CreateWin.sol\":9624:9628  user */\n      dup3\n        /* \"input/CreateWin.sol\":9624:9639  user.lineAmount */\n      0x04\n      add\n      sload\n        /* \"input/CreateWin.sol\":9581:9619  user.freezeAmount.add(user.freeAmount) */\n      tag_253\n        /* \"input/CreateWin.sol\":9603:9607  user */\n      dup5\n        /* \"input/CreateWin.sol\":9603:9618  user.freeAmount */\n      0x02\n      add\n      sload\n        /* \"input/CreateWin.sol\":9581:9585  user */\n      dup6\n        /* \"input/CreateWin.sol\":9581:9598  user.freezeAmount */\n      0x03\n      add\n      sload\n        /* \"input/CreateWin.sol\":9581:9602  user.freezeAmount.add */\n      tag_248\n      swap1\n        /* \"input/CreateWin.sol\":9581:9619  user.freezeAmount.add(user.freeAmount) */\n      swap2\n      swap1\n      0xffffffff\n      and\n      jump\t// in\n    tag_253:\n        /* \"input/CreateWin.sol\":9581:9623  user.freezeAmount.add(user.freeAmount).add */\n      tag_248\n      swap1\n        /* \"input/CreateWin.sol\":9581:9640  user.freezeAmount.add(user.freeAmount).add(user.lineAmount) */\n      swap2\n      swap1\n      0xffffffff\n      and\n      jump\t// in\n    tag_252:\n        /* \"input/CreateWin.sol\":9568:9580  getNodeLevel */\n      tag_45\n        /* \"input/CreateWin.sol\":9568:9641  getNodeLevel(user.freezeAmount.add(user.freeAmount).add(user.lineAmount)) */\n      jump\t// in\n    tag_251:\n        /* \"input/CreateWin.sol\":9551:9555  user */\n      dup2\n        /* \"input/CreateWin.sol\":9551:9565  user.lineLevel */\n      0x09\n      add\n        /* \"input/CreateWin.sol\":9551:9641  user.lineLevel = getNodeLevel(user.freezeAmount.add(user.freeAmount).add(user.lineAmount)) */\n      dup2\n      swap1\n      sstore\n      pop\n        /* \"input/CreateWin.sol\":9337:10002  if (user.id != 0) {... */\n      jump(tag_254)\n    tag_246:\n        /* \"input/CreateWin.sol\":9667:9677  userGlobal */\n      dup4\n        /* \"input/CreateWin.sol\":9667:9680  userGlobal.id */\n      0x00\n      add\n      sload\n        /* \"input/CreateWin.sol\":9657:9661  user */\n      dup2\n        /* \"input/CreateWin.sol\":9657:9664  user.id */\n      0x00\n      add\n        /* \"input/CreateWin.sol\":9657:9680  user.id = userGlobal.id */\n      dup2\n      swap1\n      sstore\n      pop\n        /* \"input/CreateWin.sol\":9704:9714  msg.sender */\n      caller\n        /* \"input/CreateWin.sol\":9685:9689  user */\n      dup2\n        /* \"input/CreateWin.sol\":9685:9701  user.userAddress */\n      0x01\n      add\n      0x00\n        /* \"input/CreateWin.sol\":9685:9714  user.userAddress = msg.sender */\n      0x0100\n      exp\n      dup2\n      sload\n      dup2\n      0xffffffffffffffffffffffffffffffffffffffff\n      mul\n      not\n      and\n      swap1\n      dup4\n      0xffffffffffffffffffffffffffffffffffffffff\n      and\n      mul\n      or\n      swap1\n      sstore\n      pop\n        /* \"input/CreateWin.sol\":9739:9750  investAmout */\n      dup3\n        /* \"input/CreateWin.sol\":9719:9723  user */\n      dup2\n        /* \"input/CreateWin.sol\":9719:9736  user.freezeAmount */\n      0x03\n      add\n        /* \"input/CreateWin.sol\":9719:9750  user.freezeAmount = investAmout */\n      dup2\n      swap1\n      sstore\n      pop\n        /* \"input/CreateWin.sol\":9768:9789  getLevel(investAmout) */\n      tag_255\n        /* \"input/CreateWin.sol\":9777:9788  investAmout */\n      dup4\n        /* \"input/CreateWin.sol\":9768:9776  getLevel */\n      tag_117\n        /* \"input/CreateWin.sol\":9768:9789  getLevel(investAmout) */\n      jump\t// in\n    tag_255:\n        /* \"input/CreateWin.sol\":9755:9759  user */\n      dup2\n        /* \"input/CreateWin.sol\":9755:9765  user.level */\n      0x08\n      add\n        /* \"input/CreateWin.sol\":9755:9789  user.level = getLevel(investAmout) */\n      dup2\n      swap1\n      sstore\n      pop\n        /* \"input/CreateWin.sol\":9812:9822  lineAmount */\n      dup2\n        /* \"input/CreateWin.sol\":9794:9798  user */\n      dup2\n        /* \"input/CreateWin.sol\":9794:9809  user.lineAmount */\n      0x04\n      add\n        /* \"input/CreateWin.sol\":9794:9822  user.lineAmount = lineAmount */\n      dup2\n      swap1\n      sstore\n      pop\n        /* \"input/CreateWin.sol\":9844:9917  getNodeLevel(user.freezeAmount.add(user.freeAmount).add(user.lineAmount)) */\n      tag_256\n        /* \"input/CreateWin.sol\":9857:9916  user.freezeAmount.add(user.freeAmount).add(user.lineAmount) */\n      tag_257\n        /* \"input/CreateWin.sol\":9900:9904  user */\n      dup3\n        /* \"input/CreateWin.sol\":9900:9915  user.lineAmount */\n      0x04\n      add\n      sload\n        /* \"input/CreateWin.sol\":9857:9895  user.freezeAmount.add(user.freeAmount) */\n      tag_258\n        /* \"input/CreateWin.sol\":9879:9883  user */\n      dup5\n        /* \"input/CreateWin.sol\":9879:9894  user.freeAmount */\n      0x02\n      add\n      sload\n        /* \"input/CreateWin.sol\":9857:9861  user */\n      dup6\n        /* \"input/CreateWin.sol\":9857:9874  user.freezeAmount */\n      0x03\n      add\n      sload\n        /* \"input/CreateWin.sol\":9857:9878  user.freezeAmount.add */\n      tag_248\n      swap1\n        /* \"input/CreateWin.sol\":9857:9895  user.freezeAmount.add(user.freeAmount) */\n      swap2\n      swap1\n      0xffffffff\n      and\n      jump\t// in\n    tag_258:\n        /* \"input/CreateWin.sol\":9857:9899  user.freezeAmount.add(user.freeAmount).add */\n      tag_248\n      swap1\n        /* \"input/CreateWin.sol\":9857:9916  user.freezeAmount.add(user.freeAmount).add(user.lineAmount) */\n      swap2\n      swap1\n      0xffffffff\n      and\n      jump\t// in\n    tag_257:\n        /* \"input/CreateWin.sol\":9844:9856  getNodeLevel */\n      tag_45\n        /* \"input/CreateWin.sol\":9844:9917  getNodeLevel(user.freezeAmount.add(user.freeAmount).add(user.lineAmount)) */\n      jump\t// in\n    tag_256:\n        /* \"input/CreateWin.sol\":9827:9831  user */\n      dup2\n        /* \"input/CreateWin.sol\":9827:9841  user.lineLevel */\n      0x09\n      add\n        /* \"input/CreateWin.sol\":9827:9917  user.lineLevel = getNodeLevel(user.freezeAmount.add(user.freeAmount).add(user.lineAmount)) */\n      dup2\n      swap1\n      sstore\n      pop\n        /* \"input/CreateWin.sol\":9940:9950  userGlobal */\n      dup4\n        /* \"input/CreateWin.sol\":9940:9961  userGlobal.inviteCode */\n      0x02\n      add\n        /* \"input/CreateWin.sol\":9922:9926  user */\n      dup2\n        /* \"input/CreateWin.sol\":9922:9937  user.inviteCode */\n      0x0c\n      add\n        /* \"input/CreateWin.sol\":9922:9961  user.inviteCode = userGlobal.inviteCode */\n      swap1\n      dup1\n      sload\n      0x01\n      dup2\n      0x01\n      and\n      iszero\n      0x0100\n      mul\n      sub\n      and\n      0x02\n      swap1\n      div\n      tag_259\n      swap3\n      swap2\n      swap1\n      tag_260\n      jump\t// in\n    tag_259:\n      pop\n        /* \"input/CreateWin.sol\":9980:9990  userGlobal */\n      dup4\n        /* \"input/CreateWin.sol\":9980:9997  userGlobal.beCode */\n      0x03\n      add\n        /* \"input/CreateWin.sol\":9966:9970  user */\n      dup2\n        /* \"input/CreateWin.sol\":9966:9977  user.beCode */\n      0x0d\n      add\n        /* \"input/CreateWin.sol\":9966:9997  user.beCode = userGlobal.beCode */\n      swap1\n      dup1\n      sload\n      0x01\n      dup2\n      0x01\n      and\n      iszero\n      0x0100\n      mul\n      sub\n      and\n      0x02\n      swap1\n      div\n      tag_261\n      swap3\n      swap2\n      swap1\n      tag_260\n      jump\t// in\n    tag_261:\n      pop\n        /* \"input/CreateWin.sol\":9337:10002  if (user.id != 0) {... */\n    tag_254:\n        /* \"input/CreateWin.sol\":10026:10050  rInvestCount[rid].add(1) */\n      tag_262\n        /* \"input/CreateWin.sol\":10048:10049  1 */\n      0x01\n        /* \"input/CreateWin.sol\":10026:10038  rInvestCount */\n      0x08\n        /* \"input/CreateWin.sol\":10026:10043  rInvestCount[rid] */\n      0x00\n        /* \"input/CreateWin.sol\":10039:10042  rid */\n      sload(0x0c)\n        /* \"input/CreateWin.sol\":10026:10043  rInvestCount[rid] */\n      dup2\n      mstore\n      0x20\n      add\n      swap1\n      dup2\n      mstore\n      0x20\n      add\n      0x00\n      keccak256\n      sload\n        /* \"input/CreateWin.sol\":10026:10047  rInvestCount[rid].add */\n      tag_248\n      swap1\n        /* \"input/CreateWin.sol\":10026:10050  rInvestCount[rid].add(1) */\n      swap2\n      swap1\n      0xffffffff\n      and\n      jump\t// in\n    tag_262:\n        /* \"input/CreateWin.sol\":10006:10018  rInvestCount */\n      0x08\n        /* \"input/CreateWin.sol\":10006:10023  rInvestCount[rid] */\n      0x00\n        /* \"input/CreateWin.sol\":10019:10022  rid */\n      sload(0x0c)\n        /* \"input/CreateWin.sol\":10006:10023  rInvestCount[rid] */\n      dup2\n      mstore\n      0x20\n      add\n      swap1\n      dup2\n      mstore\n      0x20\n      add\n      0x00\n      keccak256\n        /* \"input/CreateWin.sol\":10006:10050  rInvestCount[rid] = rInvestCount[rid].add(1) */\n      dup2\n      swap1\n      sstore\n      pop\n        /* \"input/CreateWin.sol\":10074:10106  rInvestMoney[rid].add(msg.value) */\n      tag_263\n        /* \"input/CreateWin.sol\":10096:10105  msg.value */\n      callvalue\n        /* \"input/CreateWin.sol\":10074:10086  rInvestMoney */\n      0x09\n        /* \"input/CreateWin.sol\":10074:10091  rInvestMoney[rid] */\n      0x00\n        /* \"input/CreateWin.sol\":10087:10090  rid */\n      sload(0x0c)\n        /* \"input/CreateWin.sol\":10074:10091  rInvestMoney[rid] */\n      dup2\n      mstore\n      0x20\n      add\n      swap1\n      dup2\n      mstore\n      0x20\n      add\n      0x00\n      keccak256\n      sload\n        /* \"input/CreateWin.sol\":10074:10095  rInvestMoney[rid].add */\n      tag_248\n      swap1\n        /* \"input/CreateWin.sol\":10074:10106  rInvestMoney[rid].add(msg.value) */\n      swap2\n      swap1\n      0xffffffff\n      and\n      jump\t// in\n    tag_263:\n        /* \"input/CreateWin.sol\":10054:10066  rInvestMoney */\n      0x09\n        /* \"input/CreateWin.sol\":10054:10071  rInvestMoney[rid] */\n      0x00\n        /* \"input/CreateWin.sol\":10067:10070  rid */\n      sload(0x0c)\n        /* \"input/CreateWin.sol\":10054:10071  rInvestMoney[rid] */\n      dup2\n      mstore\n      0x20\n      add\n      swap1\n      dup2\n      mstore\n      0x20\n      add\n      0x00\n      keccak256\n        /* \"input/CreateWin.sol\":10054:10106  rInvestMoney[rid] = rInvestMoney[rid].add(msg.value) */\n      dup2\n      swap1\n      sstore\n      pop\n        /* \"input/CreateWin.sol\":10115:10123  isLine() */\n      tag_264\n        /* \"input/CreateWin.sol\":10115:10121  isLine */\n      tag_243\n        /* \"input/CreateWin.sol\":10115:10123  isLine() */\n      jump\t// in\n    tag_264:\n        /* \"input/CreateWin.sol\":10110:10244  if (!isLine()) {... */\n      tag_265\n      jumpi\n        /* \"input/CreateWin.sol\":10130:10155  sendFeetoAdmin(msg.value) */\n      tag_266\n        /* \"input/CreateWin.sol\":10145:10154  msg.value */\n      callvalue\n        /* \"input/CreateWin.sol\":10130:10144  sendFeetoAdmin */\n      tag_267\n        /* \"input/CreateWin.sol\":10130:10155  sendFeetoAdmin(msg.value) */\n      jump\t// in\n    tag_266:\n        /* \"input/CreateWin.sol\":10160:10188  countBonus(user.userAddress) */\n      tag_268\n        /* \"input/CreateWin.sol\":10171:10175  user */\n      dup2\n        /* \"input/CreateWin.sol\":10171:10187  user.userAddress */\n      0x01\n      add\n      0x00\n      swap1\n      sload\n      swap1\n      0x0100\n      exp\n      swap1\n      div\n      0xffffffffffffffffffffffffffffffffffffffff\n      and\n        /* \"input/CreateWin.sol\":10160:10170  countBonus */\n      tag_269\n        /* \"input/CreateWin.sol\":10160:10188  countBonus(user.userAddress) */\n      jump\t// in\n    tag_268:\n        /* \"input/CreateWin.sol\":10110:10244  if (!isLine()) {... */\n      jump(tag_270)\n    tag_265:\n        /* \"input/CreateWin.sol\":10204:10220  lineArrayMapping */\n      0x0d\n        /* \"input/CreateWin.sol\":10204:10225  lineArrayMapping[rid] */\n      0x00\n        /* \"input/CreateWin.sol\":10221:10224  rid */\n      sload(0x0c)\n        /* \"input/CreateWin.sol\":10204:10225  lineArrayMapping[rid] */\n      dup2\n      mstore\n      0x20\n      add\n      swap1\n      dup2\n      mstore\n      0x20\n      add\n      0x00\n      keccak256\n        /* \"input/CreateWin.sol\":10231:10235  user */\n      dup2\n        /* \"input/CreateWin.sol\":10231:10238  user.id */\n      0x00\n      add\n      sload\n        /* \"input/CreateWin.sol\":10204:10239  lineArrayMapping[rid].push(user.id) */\n      swap1\n      dup1\n        /* \"--CODEGEN--\":39:40   */\n      0x01\n        /* \"--CODEGEN--\":33:36   */\n      dup2\n        /* \"--CODEGEN--\":27:37   */\n      sload\n        /* \"--CODEGEN--\":23:41   */\n      add\n        /* \"--CODEGEN--\":57:67   */\n      dup1\n        /* \"--CODEGEN--\":52:55   */\n      dup3\n        /* \"--CODEGEN--\":45:68   */\n      sstore\n        /* \"--CODEGEN--\":79:89   */\n      dup1\n        /* \"--CODEGEN--\":72:89   */\n      swap2\n      pop\n        /* \"--CODEGEN--\":0:93   */\n      pop\n        /* \"input/CreateWin.sol\":10204:10239  lineArrayMapping[rid].push(user.id) */\n      swap1\n      0x01\n      dup3\n      sub\n      swap1\n      0x00\n      mstore\n      keccak256(0x00, 0x20)\n      add\n      0x00\n      swap1\n      swap2\n      swap3\n      swap1\n      swap2\n      swap1\n      swap2\n      pop\n      sstore\n      pop\n        /* \"input/CreateWin.sol\":10110:10244  if (!isLine()) {... */\n    tag_270:\n        /* \"input/CreateWin.sol\":7268:7269  _ */\n      pop\n      pop\n      pop\n      pop\n        /* \"input/CreateWin.sol\":8393:10247  function exit(string memory inviteCode, string memory beCode) public isHuman() payable {... */\n      pop\n      pop\n      pop\n      pop\n      jump\t// out\n        /* \"input/CreateWin.sol\":8082:8144  function stopImport() external onlyOwner {... */\n    tag_61:\n        /* \"input/CreateWin.sol\":3355:3364  isOwner() */\n      tag_273\n        /* \"input/CreateWin.sol\":3355:3362  isOwner */\n      tag_134\n        /* \"input/CreateWin.sol\":3355:3364  isOwner() */\n      jump\t// in\n    tag_273:\n        /* \"input/CreateWin.sol\":3347:3401  require(isOwner(), \"Ownable: caller is not the owner\") */\n      tag_274\n      jumpi\n      mload(0x40)\n      0x08c379a000000000000000000000000000000000000000000000000000000000\n      dup2\n      mstore\n      0x04\n      add\n      dup1\n      dup1\n      0x20\n      add\n      dup3\n      dup2\n      sub\n      dup3\n      mstore\n      0x20\n      dup2\n      mstore\n      0x20\n      add\n      dup1\n      0x4f776e61626c653a2063616c6c6572206973206e6f7420746865206f776e6572\n      dup2\n      mstore\n      pop\n      0x20\n      add\n      swap2\n      pop\n      pop\n      mload(0x40)\n      dup1\n      swap2\n      sub\n      swap1\n      revert\n    tag_274:\n        /* \"input/CreateWin.sol\":8139:8140  0 */\n      0x00\n        /* \"input/CreateWin.sol\":8127:8136  canImport */\n      0x16\n        /* \"input/CreateWin.sol\":8127:8140  canImport = 0 */\n      dup2\n      swap1\n      sstore\n      pop\n        /* \"input/CreateWin.sol\":8082:8144  function stopImport() external onlyOwner {... */\n      jump\t// out\n        /* \"input/CreateWin.sol\":18383:20644  function getUserByAddress(address addr, uint roundId) public view returns (uint[14] memory info, string memory inviteCode, string memory beCode) {... */\n    tag_65:\n        /* \"input/CreateWin.sol\":18458:18478  uint[14] memory info */\n      tag_276\n      tag_277\n      jump\t// in\n    tag_276:\n        /* \"input/CreateWin.sol\":18480:18504  string memory inviteCode */\n      0x60\n        /* \"input/CreateWin.sol\":18506:18526  string memory beCode */\n      dup1\n        /* \"input/CreateWin.sol\":18540:18568  isWhitelistAdmin(msg.sender) */\n      tag_279\n        /* \"input/CreateWin.sol\":18557:18567  msg.sender */\n      caller\n        /* \"input/CreateWin.sol\":18540:18556  isWhitelistAdmin */\n      tag_157\n        /* \"input/CreateWin.sol\":18540:18568  isWhitelistAdmin(msg.sender) */\n      jump\t// in\n    tag_279:\n        /* \"input/CreateWin.sol\":18540:18590  isWhitelistAdmin(msg.sender) || msg.sender == addr */\n      dup1\n      tag_280\n      jumpi\n      pop\n        /* \"input/CreateWin.sol\":18586:18590  addr */\n      dup5\n        /* \"input/CreateWin.sol\":18572:18590  msg.sender == addr */\n      0xffffffffffffffffffffffffffffffffffffffff\n      and\n        /* \"input/CreateWin.sol\":18572:18582  msg.sender */\n      caller\n        /* \"input/CreateWin.sol\":18572:18590  msg.sender == addr */\n      0xffffffffffffffffffffffffffffffffffffffff\n      and\n      eq\n        /* \"input/CreateWin.sol\":18540:18590  isWhitelistAdmin(msg.sender) || msg.sender == addr */\n    tag_280:\n        /* \"input/CreateWin.sol\":18532:18636  require(isWhitelistAdmin(msg.sender) || msg.sender == addr, \"Permission denied for view user's privacy\") */\n      tag_281\n      jumpi\n      mload(0x40)\n      0x08c379a000000000000000000000000000000000000000000000000000000000\n      dup2\n      mstore\n      0x04\n      add\n      dup1\n      dup1\n      0x20\n      add\n      dup3\n      dup2\n      sub\n      dup3\n      mstore\n      0x29\n      dup2\n      mstore\n      0x20\n      add\n      dup1\n      data_3e5e9c692c817082a9743a693e9b6b8b7e4bcafbc78fe55fa9db9882e0e81a3b\n      0x29\n      swap2\n      codecopy\n      0x40\n      add\n      swap2\n      pop\n      pop\n      mload(0x40)\n      dup1\n      swap2\n      sub\n      swap1\n      revert\n    tag_281:\n        /* \"input/CreateWin.sol\":18656:18657  0 */\n      0x00\n        /* \"input/CreateWin.sol\":18645:18652  roundId */\n      dup5\n        /* \"input/CreateWin.sol\":18645:18657  roundId == 0 */\n      eq\n        /* \"input/CreateWin.sol\":18641:18682  if (roundId == 0) {... */\n      iszero\n      tag_282\n      jumpi\n        /* \"input/CreateWin.sol\":18674:18677  rid */\n      sload(0x0c)\n        /* \"input/CreateWin.sol\":18664:18677  roundId = rid */\n      swap4\n      pop\n        /* \"input/CreateWin.sol\":18641:18682  if (roundId == 0) {... */\n    tag_282:\n        /* \"input/CreateWin.sol\":18686:18714  UserGlobal memory userGlobal */\n      tag_283\n      tag_284\n      jump\t// in\n    tag_283:\n        /* \"input/CreateWin.sol\":18717:18728  userMapping */\n      0x0f\n        /* \"input/CreateWin.sol\":18717:18734  userMapping[addr] */\n      0x00\n        /* \"input/CreateWin.sol\":18729:18733  addr */\n      dup8\n        /* \"input/CreateWin.sol\":18717:18734  userMapping[addr] */\n      0xffffffffffffffffffffffffffffffffffffffff\n      and\n      0xffffffffffffffffffffffffffffffffffffffff\n      and\n      dup2\n      mstore\n      0x20\n      add\n      swap1\n      dup2\n      mstore\n      0x20\n      add\n      0x00\n      keccak256\n        /* \"input/CreateWin.sol\":18686:18734  UserGlobal memory userGlobal = userMapping[addr] */\n      mload(0x40)\n      dup1\n      0xa0\n      add\n      0x40\n      mstore\n      swap1\n      dup2\n      0x00\n      dup3\n      add\n      sload\n      dup2\n      mstore\n      0x20\n      add\n      0x01\n      dup3\n      add\n      0x00\n      swap1\n      sload\n      swap1\n      0x0100\n      exp\n      swap1\n      div\n      0xffffffffffffffffffffffffffffffffffffffff\n      and\n      0xffffffffffffffffffffffffffffffffffffffff\n      and\n      0xffffffffffffffffffffffffffffffffffffffff\n      and\n      dup2\n      mstore\n      0x20\n      add\n      0x02\n      dup3\n      add\n      dup1\n      sload\n      0x01\n      dup2\n      0x01\n      and\n      iszero\n      0x0100\n      mul\n      sub\n      and\n      0x02\n      swap1\n      div\n      dup1\n      0x1f\n      add\n      0x20\n      dup1\n      swap2\n      div\n      mul\n      0x20\n      add\n      mload(0x40)\n      swap1\n      dup2\n      add\n      0x40\n      mstore\n      dup1\n      swap3\n      swap2\n      swap1\n      dup2\n      dup2\n      mstore\n      0x20\n      add\n      dup3\n      dup1\n      sload\n      0x01\n      dup2\n      0x01\n      and\n      iszero\n      0x0100\n      mul\n      sub\n      and\n      0x02\n      swap1\n      div\n      dup1\n      iszero\n      tag_285\n      jumpi\n      dup1\n      0x1f\n      lt\n      tag_286\n      jumpi\n      0x0100\n      dup1\n      dup4\n      sload\n      div\n      mul\n      dup4\n      mstore\n      swap2\n      0x20\n      add\n      swap2\n      jump(tag_285)\n    tag_286:\n      dup3\n      add\n      swap2\n      swap1\n      0x00\n      mstore\n      keccak256(0x00, 0x20)\n      swap1\n    tag_287:\n      dup2\n      sload\n      dup2\n      mstore\n      swap1\n      0x01\n      add\n      swap1\n      0x20\n      add\n      dup1\n      dup4\n      gt\n      tag_287\n      jumpi\n      dup3\n      swap1\n      sub\n      0x1f\n      and\n      dup3\n      add\n      swap2\n    tag_285:\n      pop\n      pop\n      pop\n      pop\n      pop\n      dup2\n      mstore\n      0x20\n      add\n      0x03\n      dup3\n      add\n      dup1\n      sload\n      0x01\n      dup2\n      0x01\n      and\n      iszero\n      0x0100\n      mul\n      sub\n      and\n      0x02\n      swap1\n      div\n      dup1\n      0x1f\n      add\n      0x20\n      dup1\n      swap2\n      div\n      mul\n      0x20\n      add\n      mload(0x40)\n      swap1\n      dup2\n      add\n      0x40\n      mstore\n      dup1\n      swap3\n      swap2\n      swap1\n      dup2\n      dup2\n      mstore\n      0x20\n      add\n      dup3\n      dup1\n      sload\n      0x01\n      dup2\n      0x01\n      and\n      iszero\n      0x0100\n      mul\n      sub\n      and\n      0x02\n      swap1\n      div\n      dup1\n      iszero\n      tag_288\n      jumpi\n      dup1\n      0x1f\n      lt\n      tag_289\n      jumpi\n      0x0100\n      dup1\n      dup4\n      sload\n      div\n      mul\n      dup4\n      mstore\n      swap2\n      0x20\n      add\n      swap2\n      jump(tag_288)\n    tag_289:\n      dup3\n      add\n      swap2\n      swap1\n      0x00\n      mstore\n      keccak256(0x00, 0x20)\n      swap1\n    tag_290:\n      dup2\n      sload\n      dup2\n      mstore\n      swap1\n      0x01\n      add\n      swap1\n      0x20\n      add\n      dup1\n      dup4\n      gt\n      tag_290\n      jumpi\n      dup3\n      swap1\n      sub\n      0x1f\n      and\n      dup3\n      add\n      swap2\n    tag_288:\n      pop\n      pop\n      pop\n      pop\n      pop\n      dup2\n      mstore\n      0x20\n      add\n      0x04\n      dup3\n      add\n      sload\n      dup2\n      mstore\n      pop\n      pop\n      swap1\n      pop\n        /* \"input/CreateWin.sol\":18738:18754  User memory user */\n      tag_291\n      tag_292\n      jump\t// in\n    tag_291:\n        /* \"input/CreateWin.sol\":18757:18773  userRoundMapping */\n      0x0e\n        /* \"input/CreateWin.sol\":18757:18782  userRoundMapping[roundId] */\n      0x00\n        /* \"input/CreateWin.sol\":18774:18781  roundId */\n      dup8\n        /* \"input/CreateWin.sol\":18757:18782  userRoundMapping[roundId] */\n      dup2\n      mstore\n      0x20\n      add\n      swap1\n      dup2\n      mstore\n      0x20\n      add\n      0x00\n      keccak256\n        /* \"input/CreateWin.sol\":18757:18788  userRoundMapping[roundId][addr] */\n      0x00\n        /* \"input/CreateWin.sol\":18783:18787  addr */\n      dup9\n        /* \"input/CreateWin.sol\":18757:18788  userRoundMapping[roundId][addr] */\n      0xffffffffffffffffffffffffffffffffffffffff\n      and\n      0xffffffffffffffffffffffffffffffffffffffff\n      and\n      dup2\n      mstore\n      0x20\n      add\n      swap1\n      dup2\n      mstore\n      0x20\n      add\n      0x00\n      keccak256\n        /* \"input/CreateWin.sol\":18738:18788  User memory user = userRoundMapping[roundId][addr] */\n      mload(0x40)\n      dup1\n      0x0200\n      add\n      0x40\n      mstore\n      swap1\n      dup2\n      0x00\n      dup3\n      add\n      sload\n      dup2\n      mstore\n      0x20\n      add\n      0x01\n      dup3\n      add\n      0x00\n      swap1\n      sload\n      swap1\n      0x0100\n      exp\n      swap1\n      div\n      0xffffffffffffffffffffffffffffffffffffffff\n      and\n      0xffffffffffffffffffffffffffffffffffffffff\n      and\n      0xffffffffffffffffffffffffffffffffffffffff\n      and\n      dup2\n      mstore\n      0x20\n      add\n      0x02\n      dup3\n      add\n      sload\n      dup2\n      mstore\n      0x20\n      add\n      0x03\n      dup3\n      add\n      sload\n      dup2\n      mstore\n      0x20\n      add\n      0x04\n      dup3\n      add\n      sload\n      dup2\n      mstore\n      0x20\n      add\n      0x05\n      dup3\n      add\n      sload\n      dup2\n      mstore\n      0x20\n      add\n      0x06\n      dup3\n      add\n      sload\n      dup2\n      mstore\n      0x20\n      add\n      0x07\n      dup3\n      add\n      sload\n      dup2\n      mstore\n      0x20\n      add\n      0x08\n      dup3\n      add\n      sload\n      dup2\n      mstore\n      0x20\n      add\n      0x09\n      dup3\n      add\n      sload\n      dup2\n      mstore\n      0x20\n      add\n      0x0a\n      dup3\n      add\n      sload\n      dup2\n      mstore\n      0x20\n      add\n      0x0b\n      dup3\n      add\n      sload\n      dup2\n      mstore\n      0x20\n      add\n      0x0c\n      dup3\n      add\n      dup1\n      sload\n      0x01\n      dup2\n      0x01\n      and\n      iszero\n      0x0100\n      mul\n      sub\n      and\n      0x02\n      swap1\n      div\n      dup1\n      0x1f\n      add\n      0x20\n      dup1\n      swap2\n      div\n      mul\n      0x20\n      add\n      mload(0x40)\n      swap1\n      dup2\n      add\n      0x40\n      mstore\n      dup1\n      swap3\n      swap2\n      swap1\n      dup2\n      dup2\n      mstore\n      0x20\n      add\n      dup3\n      dup1\n      sload\n      0x01\n      dup2\n      0x01\n      and\n      iszero\n      0x0100\n      mul\n      sub\n      and\n      0x02\n      swap1\n      div\n      dup1\n      iszero\n      tag_293\n      jumpi\n      dup1\n      0x1f\n      lt\n      tag_294\n      jumpi\n      0x0100\n      dup1\n      dup4\n      sload\n      div\n      mul\n      dup4\n      mstore\n      swap2\n      0x20\n      add\n      swap2\n      jump(tag_293)\n    tag_294:\n      dup3\n      add\n      swap2\n      swap1\n      0x00\n      mstore\n      keccak256(0x00, 0x20)\n      swap1\n    tag_295:\n      dup2\n      sload\n      dup2\n      mstore\n      swap1\n      0x01\n      add\n      swap1\n      0x20\n      add\n      dup1\n      dup4\n      gt\n      tag_295\n      jumpi\n      dup3\n      swap1\n      sub\n      0x1f\n      and\n      dup3\n      add\n      swap2\n    tag_293:\n      pop\n      pop\n      pop\n      pop\n      pop\n      dup2\n      mstore\n      0x20\n      add\n      0x0d\n      dup3\n      add\n      dup1\n      sload\n      0x01\n      dup2\n      0x01\n      and\n      iszero\n      0x0100\n      mul\n      sub\n      and\n      0x02\n      swap1\n      div\n      dup1\n      0x1f\n      add\n      0x20\n      dup1\n      swap2\n      div\n      mul\n      0x20\n      add\n      mload(0x40)\n      swap1\n      dup2\n      add\n      0x40\n      mstore\n      dup1\n      swap3\n      swap2\n      swap1\n      dup2\n      dup2\n      mstore\n      0x20\n      add\n      dup3\n      dup1\n      sload\n      0x01\n      dup2\n      0x01\n      and\n      iszero\n      0x0100\n      mul\n      sub\n      and\n      0x02\n      swap1\n      div\n      dup1\n      iszero\n      tag_296\n      jumpi\n      dup1\n      0x1f\n      lt\n      tag_297\n      jumpi\n      0x0100\n      dup1\n      dup4\n      sload\n      div\n      mul\n      dup4\n      mstore\n      swap2\n      0x20\n      add\n      swap2\n      jump(tag_296)\n    tag_297:\n      dup3\n      add\n      swap2\n      swap1\n      0x00\n      mstore\n      keccak256(0x00, 0x20)\n      swap1\n    tag_298:\n      dup2\n      sload\n      dup2\n      mstore\n      swap1\n      0x01\n      add\n      swap1\n      0x20\n      add\n      dup1\n      dup4\n      gt\n      tag_298\n      jumpi\n      dup3\n      swap1\n      sub\n      0x1f\n      and\n      dup3\n      add\n      swap2\n    tag_296:\n      pop\n      pop\n      pop\n      pop\n      pop\n      dup2\n      mstore\n      0x20\n      add\n      0x0e\n      dup3\n      add\n      sload\n      dup2\n      mstore\n      0x20\n      add\n      0x0f\n      dup3\n      add\n      sload\n      dup2\n      mstore\n      pop\n      pop\n      swap1\n      pop\n        /* \"input/CreateWin.sol\":18802:18812  userGlobal */\n      dup2\n        /* \"input/CreateWin.sol\":18802:18815  userGlobal.id */\n      0x00\n      add\n      mload\n        /* \"input/CreateWin.sol\":18792:18796  info */\n      dup6\n        /* \"input/CreateWin.sol\":18797:18798  0 */\n      0x00\n        /* \"input/CreateWin.sol\":18792:18799  info[0] */\n      0x0e\n      dup2\n      lt\n      tag_299\n      jumpi\n      invalid\n    tag_299:\n      0x20\n      mul\n      add\n        /* \"input/CreateWin.sol\":18792:18815  info[0] = userGlobal.id */\n      dup2\n      dup2\n      mstore\n      pop\n      pop\n        /* \"input/CreateWin.sol\":18829:18833  user */\n      dup1\n        /* \"input/CreateWin.sol\":18829:18844  user.lineAmount */\n      0x80\n      add\n      mload\n        /* \"input/CreateWin.sol\":18819:18823  info */\n      dup6\n        /* \"input/CreateWin.sol\":18824:18825  1 */\n      0x01\n        /* \"input/CreateWin.sol\":18819:18826  info[1] */\n      0x0e\n      dup2\n      lt\n      tag_300\n      jumpi\n      invalid\n    tag_300:\n      0x20\n      mul\n      add\n        /* \"input/CreateWin.sol\":18819:18844  info[1] = user.lineAmount */\n      dup2\n      dup2\n      mstore\n      pop\n      pop\n        /* \"input/CreateWin.sol\":18858:18862  user */\n      dup1\n        /* \"input/CreateWin.sol\":18858:18873  user.freeAmount */\n      0x40\n      add\n      mload\n        /* \"input/CreateWin.sol\":18848:18852  info */\n      dup6\n        /* \"input/CreateWin.sol\":18853:18854  2 */\n      0x02\n        /* \"input/CreateWin.sol\":18848:18855  info[2] */\n      0x0e\n      dup2\n      lt\n      tag_301\n      jumpi\n      invalid\n    tag_301:\n      0x20\n      mul\n      add\n        /* \"input/CreateWin.sol\":18848:18873  info[2] = user.freeAmount */\n      dup2\n      dup2\n      mstore\n      pop\n      pop\n        /* \"input/CreateWin.sol\":18887:18891  user */\n      dup1\n        /* \"input/CreateWin.sol\":18887:18904  user.freezeAmount */\n      0x60\n      add\n      mload\n        /* \"input/CreateWin.sol\":18877:18881  info */\n      dup6\n        /* \"input/CreateWin.sol\":18882:18883  3 */\n      0x03\n        /* \"input/CreateWin.sol\":18877:18884  info[3] */\n      0x0e\n      dup2\n      lt\n      tag_302\n      jumpi\n      invalid\n    tag_302:\n      0x20\n      mul\n      add\n        /* \"input/CreateWin.sol\":18877:18904  info[3] = user.freezeAmount */\n      dup2\n      dup2\n      mstore\n      pop\n      pop\n        /* \"input/CreateWin.sol\":18918:18922  user */\n      dup1\n        /* \"input/CreateWin.sol\":18918:18935  user.inviteAmonut */\n      0xa0\n      add\n      mload\n        /* \"input/CreateWin.sol\":18908:18912  info */\n      dup6\n        /* \"input/CreateWin.sol\":18913:18914  4 */\n      0x04\n        /* \"input/CreateWin.sol\":18908:18915  info[4] */\n      0x0e\n      dup2\n      lt\n      tag_303\n      jumpi\n      invalid\n    tag_303:\n      0x20\n      mul\n      add\n        /* \"input/CreateWin.sol\":18908:18935  info[4] = user.inviteAmonut */\n      dup2\n      dup2\n      mstore\n      pop\n      pop\n        /* \"input/CreateWin.sol\":18949:18953  user */\n      dup1\n        /* \"input/CreateWin.sol\":18949:18965  user.bonusAmount */\n      0xe0\n      add\n      mload\n        /* \"input/CreateWin.sol\":18939:18943  info */\n      dup6\n        /* \"input/CreateWin.sol\":18944:18945  5 */\n      0x05\n        /* \"input/CreateWin.sol\":18939:18946  info[5] */\n      0x0e\n      dup2\n      lt\n      tag_304\n      jumpi\n      invalid\n    tag_304:\n      0x20\n      mul\n      add\n        /* \"input/CreateWin.sol\":18939:18965  info[5] = user.bonusAmount */\n      dup2\n      dup2\n      mstore\n      pop\n      pop\n        /* \"input/CreateWin.sol\":18979:18983  user */\n      dup1\n        /* \"input/CreateWin.sol\":18979:18993  user.lineLevel */\n      0x0120\n      add\n      mload\n        /* \"input/CreateWin.sol\":18969:18973  info */\n      dup6\n        /* \"input/CreateWin.sol\":18974:18975  6 */\n      0x06\n        /* \"input/CreateWin.sol\":18969:18976  info[6] */\n      0x0e\n      dup2\n      lt\n      tag_305\n      jumpi\n      invalid\n    tag_305:\n      0x20\n      mul\n      add\n        /* \"input/CreateWin.sol\":18969:18993  info[6] = user.lineLevel */\n      dup2\n      dup2\n      mstore\n      pop\n      pop\n        /* \"input/CreateWin.sol\":19007:19011  user */\n      dup1\n        /* \"input/CreateWin.sol\":19007:19026  user.dayBonusAmount */\n      0xc0\n      add\n      mload\n        /* \"input/CreateWin.sol\":18997:19001  info */\n      dup6\n        /* \"input/CreateWin.sol\":19002:19003  7 */\n      0x07\n        /* \"input/CreateWin.sol\":18997:19004  info[7] */\n      0x0e\n      dup2\n      lt\n      tag_306\n      jumpi\n      invalid\n    tag_306:\n      0x20\n      mul\n      add\n        /* \"input/CreateWin.sol\":18997:19026  info[7] = user.dayBonusAmount */\n      dup2\n      dup2\n      mstore\n      pop\n      pop\n        /* \"input/CreateWin.sol\":19040:19044  user */\n      dup1\n        /* \"input/CreateWin.sol\":19040:19056  user.rewardIndex */\n      0x01c0\n      add\n      mload\n        /* \"input/CreateWin.sol\":19030:19034  info */\n      dup6\n        /* \"input/CreateWin.sol\":19035:19036  8 */\n      0x08\n        /* \"input/CreateWin.sol\":19030:19037  info[8] */\n      0x0e\n      dup2\n      lt\n      tag_307\n      jumpi\n      invalid\n    tag_307:\n      0x20\n      mul\n      add\n        /* \"input/CreateWin.sol\":19030:19056  info[8] = user.rewardIndex */\n      dup2\n      dup2\n      mstore\n      pop\n      pop\n        /* \"input/CreateWin.sol\":19070:19074  user */\n      dup1\n        /* \"input/CreateWin.sol\":19070:19086  user.investTimes */\n      0x0160\n      add\n      mload\n        /* \"input/CreateWin.sol\":19060:19064  info */\n      dup6\n        /* \"input/CreateWin.sol\":19065:19066  9 */\n      0x09\n        /* \"input/CreateWin.sol\":19060:19067  info[9] */\n      0x0e\n      dup2\n      lt\n      tag_308\n      jumpi\n      invalid\n    tag_308:\n      0x20\n      mul\n      add\n        /* \"input/CreateWin.sol\":19060:19086  info[9] = user.investTimes */\n      dup2\n      dup2\n      mstore\n      pop\n      pop\n        /* \"input/CreateWin.sol\":19101:19105  user */\n      dup1\n        /* \"input/CreateWin.sol\":19101:19111  user.level */\n      0x0100\n      add\n      mload\n        /* \"input/CreateWin.sol\":19090:19094  info */\n      dup6\n        /* \"input/CreateWin.sol\":19095:19097  10 */\n      0x0a\n        /* \"input/CreateWin.sol\":19090:19098  info[10] */\n      0x0e\n      dup2\n      lt\n      tag_309\n      jumpi\n      invalid\n    tag_309:\n      0x20\n      mul\n      add\n        /* \"input/CreateWin.sol\":19090:19111  info[10] = user.level */\n      dup2\n      dup2\n      mstore\n      pop\n      pop\n        /* \"input/CreateWin.sol\":19115:19131  uint grantAmount */\n      0x00\n        /* \"input/CreateWin.sol\":19134:19135  0 */\n      dup1\n        /* \"input/CreateWin.sol\":19115:19135  uint grantAmount = 0 */\n      swap1\n      pop\n        /* \"input/CreateWin.sol\":19153:19154  0 */\n      0x00\n        /* \"input/CreateWin.sol\":19143:19147  user */\n      dup3\n        /* \"input/CreateWin.sol\":19143:19150  user.id */\n      0x00\n      add\n      mload\n        /* \"input/CreateWin.sol\":19143:19154  user.id > 0 */\n      gt\n        /* \"input/CreateWin.sol\":19143:19186  user.id > 0 && user.freezeAmount >= 1 ether */\n      dup1\n      iszero\n      tag_310\n      jumpi\n      pop\n        /* \"input/CreateWin.sol\":19179:19186  1 ether */\n      0x0de0b6b3a7640000\n        /* \"input/CreateWin.sol\":19158:19162  user */\n      dup3\n        /* \"input/CreateWin.sol\":19158:19175  user.freezeAmount */\n      0x60\n      add\n      mload\n        /* \"input/CreateWin.sol\":19158:19186  user.freezeAmount >= 1 ether */\n      lt\n      iszero\n        /* \"input/CreateWin.sol\":19143:19186  user.id > 0 && user.freezeAmount >= 1 ether */\n    tag_310:\n        /* \"input/CreateWin.sol\":19143:19221  user.id > 0 && user.freezeAmount >= 1 ether && user.freezeAmount <= bonuslimit */\n      dup1\n      iszero\n      tag_311\n      jumpi\n      pop\n        /* \"input/CreateWin.sol\":19211:19221  bonuslimit */\n      sload(0x13)\n        /* \"input/CreateWin.sol\":19190:19194  user */\n      dup3\n        /* \"input/CreateWin.sol\":19190:19207  user.freezeAmount */\n      0x60\n      add\n      mload\n        /* \"input/CreateWin.sol\":19190:19221  user.freezeAmount <= bonuslimit */\n      gt\n      iszero\n        /* \"input/CreateWin.sol\":19143:19221  user.id > 0 && user.freezeAmount >= 1 ether && user.freezeAmount <= bonuslimit */\n    tag_311:\n        /* \"input/CreateWin.sol\":19143:19245  user.id > 0 && user.freezeAmount >= 1 ether && user.freezeAmount <= bonuslimit && user.investTimes < 5 */\n      dup1\n      iszero\n      tag_312\n      jumpi\n      pop\n        /* \"input/CreateWin.sol\":19244:19245  5 */\n      0x05\n        /* \"input/CreateWin.sol\":19225:19229  user */\n      dup3\n        /* \"input/CreateWin.sol\":19225:19241  user.investTimes */\n      0x0160\n      add\n      mload\n        /* \"input/CreateWin.sol\":19225:19245  user.investTimes < 5 */\n      lt\n        /* \"input/CreateWin.sol\":19143:19245  user.id > 0 && user.freezeAmount >= 1 ether && user.freezeAmount <= bonuslimit && user.investTimes < 5 */\n    tag_312:\n        /* \"input/CreateWin.sol\":19143:19271  user.id > 0 && user.freezeAmount >= 1 ether && user.freezeAmount <= bonuslimit && user.investTimes < 5 && userGlobal.status != 1 */\n      dup1\n      iszero\n      tag_313\n      jumpi\n      pop\n        /* \"input/CreateWin.sol\":19270:19271  1 */\n      0x01\n        /* \"input/CreateWin.sol\":19249:19259  userGlobal */\n      dup4\n        /* \"input/CreateWin.sol\":19249:19266  userGlobal.status */\n      0x80\n      add\n      mload\n        /* \"input/CreateWin.sol\":19249:19271  userGlobal.status != 1 */\n      eq\n      iszero\n        /* \"input/CreateWin.sol\":19143:19271  user.id > 0 && user.freezeAmount >= 1 ether && user.freezeAmount <= bonuslimit && user.investTimes < 5 && userGlobal.status != 1 */\n    tag_313:\n        /* \"input/CreateWin.sol\":19139:19317  if (user.id > 0 && user.freezeAmount >= 1 ether && user.freezeAmount <= bonuslimit && user.investTimes < 5 && userGlobal.status != 1) {... */\n      iszero\n      tag_314\n      jumpi\n        /* \"input/CreateWin.sol\":19293:19297  user */\n      dup2\n        /* \"input/CreateWin.sol\":19293:19312  user.dayBonusAmount */\n      0xc0\n      add\n      mload\n        /* \"input/CreateWin.sol\":19278:19312  grantAmount += user.dayBonusAmount */\n      dup2\n      add\n      swap1\n      pop\n        /* \"input/CreateWin.sol\":19139:19317  if (user.id > 0 && user.freezeAmount >= 1 ether && user.freezeAmount <= bonuslimit && user.investTimes < 5 && userGlobal.status != 1) {... */\n    tag_314:\n        /* \"input/CreateWin.sol\":19345:19346  0 */\n      0x00\n        /* \"input/CreateWin.sol\":19324:19334  userGlobal */\n      dup4\n        /* \"input/CreateWin.sol\":19324:19341  userGlobal.status */\n      0x80\n      add\n      mload\n        /* \"input/CreateWin.sol\":19324:19346  userGlobal.status == 0 */\n      eq\n        /* \"input/CreateWin.sol\":19320:20493  if (userGlobal.status == 0) {... */\n      iszero\n      tag_315\n      jumpi\n        /* \"input/CreateWin.sol\":19353:19368  uint inviteSend */\n      0x00\n        /* \"input/CreateWin.sol\":19371:19372  0 */\n      dup1\n        /* \"input/CreateWin.sol\":19353:19372  uint inviteSend = 0 */\n      swap1\n      pop\n        /* \"input/CreateWin.sol\":19377:19400  AwardData memory awData */\n      tag_316\n      tag_317\n      jump\t// in\n    tag_316:\n        /* \"input/CreateWin.sol\":19403:19423  userAwardDataMapping */\n      0x12\n        /* \"input/CreateWin.sol\":19403:19428  userAwardDataMapping[rid] */\n      0x00\n        /* \"input/CreateWin.sol\":19424:19427  rid */\n      sload(0x0c)\n        /* \"input/CreateWin.sol\":19403:19428  userAwardDataMapping[rid] */\n      dup2\n      mstore\n      0x20\n      add\n      swap1\n      dup2\n      mstore\n      0x20\n      add\n      0x00\n      keccak256\n        /* \"input/CreateWin.sol\":19403:19446  userAwardDataMapping[rid][user.userAddress] */\n      0x00\n        /* \"input/CreateWin.sol\":19429:19433  user */\n      dup6\n        /* \"input/CreateWin.sol\":19429:19445  user.userAddress */\n      0x20\n      add\n      mload\n        /* \"input/CreateWin.sol\":19403:19446  userAwardDataMapping[rid][user.userAddress] */\n      0xffffffffffffffffffffffffffffffffffffffff\n      and\n      0xffffffffffffffffffffffffffffffffffffffff\n      and\n      dup2\n      mstore\n      0x20\n      add\n      swap1\n      dup2\n      mstore\n      0x20\n      add\n      0x00\n      keccak256\n        /* \"input/CreateWin.sol\":19403:19464  userAwardDataMapping[rid][user.userAddress][user.rewardIndex] */\n      0x00\n        /* \"input/CreateWin.sol\":19447:19451  user */\n      dup6\n        /* \"input/CreateWin.sol\":19447:19463  user.rewardIndex */\n      0x01c0\n      add\n      mload\n        /* \"input/CreateWin.sol\":19403:19464  userAwardDataMapping[rid][user.userAddress][user.rewardIndex] */\n      dup2\n      mstore\n      0x20\n      add\n      swap1\n      dup2\n      mstore\n      0x20\n      add\n      0x00\n      keccak256\n        /* \"input/CreateWin.sol\":19377:19464  AwardData memory awData = userAwardDataMapping[rid][user.userAddress][user.rewardIndex] */\n      mload(0x40)\n      dup1\n      0x60\n      add\n      0x40\n      mstore\n      swap1\n      dup2\n      0x00\n      dup3\n      add\n      sload\n      dup2\n      mstore\n      0x20\n      add\n      0x01\n      dup3\n      add\n      sload\n      dup2\n      mstore\n      0x20\n      add\n      0x02\n      dup3\n      add\n      sload\n      dup2\n      mstore\n      pop\n      pop\n      swap1\n      pop\n        /* \"input/CreateWin.sol\":19469:19484  uint lineAmount */\n      0x00\n        /* \"input/CreateWin.sol\":19487:19546  user.freezeAmount.add(user.freeAmount).add(user.lineAmount) */\n      tag_318\n        /* \"input/CreateWin.sol\":19530:19534  user */\n      dup6\n        /* \"input/CreateWin.sol\":19530:19545  user.lineAmount */\n      0x80\n      add\n      mload\n        /* \"input/CreateWin.sol\":19487:19525  user.freezeAmount.add(user.freeAmount) */\n      tag_319\n        /* \"input/CreateWin.sol\":19509:19513  user */\n      dup8\n        /* \"input/CreateWin.sol\":19509:19524  user.freeAmount */\n      0x40\n      add\n      mload\n        /* \"input/CreateWin.sol\":19487:19491  user */\n      dup9\n        /* \"input/CreateWin.sol\":19487:19504  user.freezeAmount */\n      0x60\n      add\n      mload\n        /* \"input/CreateWin.sol\":19487:19508  user.freezeAmount.add */\n      tag_248\n      swap1\n        /* \"input/CreateWin.sol\":19487:19525  user.freezeAmount.add(user.freeAmount) */\n      swap2\n      swap1\n      0xffffffff\n      and\n      jump\t// in\n    tag_319:\n        /* \"input/CreateWin.sol\":19487:19529  user.freezeAmount.add(user.freeAmount).add */\n      tag_248\n      swap1\n        /* \"input/CreateWin.sol\":19487:19546  user.freezeAmount.add(user.freeAmount).add(user.lineAmount) */\n      swap2\n      swap1\n      0xffffffff\n      and\n      jump\t// in\n    tag_318:\n        /* \"input/CreateWin.sol\":19469:19546  uint lineAmount = user.freezeAmount.add(user.freeAmount).add(user.lineAmount) */\n      swap1\n      pop\n        /* \"input/CreateWin.sol\":19569:19576  1 ether */\n      0x0de0b6b3a7640000\n        /* \"input/CreateWin.sol\":19555:19565  lineAmount */\n      dup2\n        /* \"input/CreateWin.sol\":19555:19576  lineAmount >= 1 ether */\n      lt\n        /* \"input/CreateWin.sol\":19551:20489  if (lineAmount >= 1 ether) {... */\n      tag_320\n      jumpi\n        /* \"input/CreateWin.sol\":19584:19598  uint lineValue */\n      0x00\n        /* \"input/CreateWin.sol\":19601:19623  lineAmount.div(ethWei) */\n      tag_321\n        /* \"input/CreateWin.sol\":19616:19622  ethWei */\n      sload(0x03)\n        /* \"input/CreateWin.sol\":19601:19611  lineAmount */\n      dup4\n        /* \"input/CreateWin.sol\":19601:19615  lineAmount.div */\n      tag_225\n      swap1\n        /* \"input/CreateWin.sol\":19601:19623  lineAmount.div(ethWei) */\n      swap2\n      swap1\n      0xffffffff\n      and\n      jump\t// in\n    tag_321:\n        /* \"input/CreateWin.sol\":19584:19623  uint lineValue = lineAmount.div(ethWei) */\n      swap1\n      pop\n        /* \"input/CreateWin.sol\":19646:19648  15 */\n      0x0f\n        /* \"input/CreateWin.sol\":19633:19642  lineValue */\n      dup2\n        /* \"input/CreateWin.sol\":19633:19648  lineValue >= 15 */\n      lt\n        /* \"input/CreateWin.sol\":19629:20453  if (lineValue >= 15) {... */\n      tag_322\n      jumpi\n        /* \"input/CreateWin.sol\":19671:19677  awData */\n      dup3\n        /* \"input/CreateWin.sol\":19671:19692  awData.threeInvAmount */\n      0x40\n      add\n      mload\n        /* \"input/CreateWin.sol\":19657:19692  inviteSend += awData.threeInvAmount */\n      dup5\n      add\n      swap4\n      pop\n        /* \"input/CreateWin.sol\":19629:20453  if (lineValue >= 15) {... */\n      jump(tag_323)\n    tag_322:\n        /* \"input/CreateWin.sol\":19734:19735  1 */\n      0x01\n        /* \"input/CreateWin.sol\":19716:19720  user */\n      dup7\n        /* \"input/CreateWin.sol\":19716:19730  user.lineLevel */\n      0x0120\n      add\n      mload\n        /* \"input/CreateWin.sol\":19716:19735  user.lineLevel == 1 */\n      eq\n        /* \"input/CreateWin.sol\":19716:19760  user.lineLevel == 1 && lineAmount >= 1 ether */\n      dup1\n      iszero\n      tag_324\n      jumpi\n      pop\n        /* \"input/CreateWin.sol\":19753:19760  1 ether */\n      0x0de0b6b3a7640000\n        /* \"input/CreateWin.sol\":19739:19749  lineAmount */\n      dup3\n        /* \"input/CreateWin.sol\":19739:19760  lineAmount >= 1 ether */\n      lt\n      iszero\n        /* \"input/CreateWin.sol\":19716:19760  user.lineLevel == 1 && lineAmount >= 1 ether */\n    tag_324:\n        /* \"input/CreateWin.sol\":19716:19787  user.lineLevel == 1 && lineAmount >= 1 ether && awData.oneInvAmount > 0 */\n      dup1\n      iszero\n      tag_325\n      jumpi\n      pop\n        /* \"input/CreateWin.sol\":19786:19787  0 */\n      0x00\n        /* \"input/CreateWin.sol\":19764:19770  awData */\n      dup4\n        /* \"input/CreateWin.sol\":19764:19783  awData.oneInvAmount */\n      0x00\n      add\n      mload\n        /* \"input/CreateWin.sol\":19764:19787  awData.oneInvAmount > 0 */\n      gt\n        /* \"input/CreateWin.sol\":19716:19787  user.lineLevel == 1 && lineAmount >= 1 ether && awData.oneInvAmount > 0 */\n    tag_325:\n        /* \"input/CreateWin.sol\":19712:19868  if (user.lineLevel == 1 && lineAmount >= 1 ether && awData.oneInvAmount > 0) {... */\n      iszero\n      tag_326\n      jumpi\n        /* \"input/CreateWin.sol\":19811:19860  awData.oneInvAmount.div(15).mul(lineValue).div(2) */\n      tag_327\n        /* \"input/CreateWin.sol\":19858:19859  2 */\n      0x02\n        /* \"input/CreateWin.sol\":19811:19853  awData.oneInvAmount.div(15).mul(lineValue) */\n      tag_328\n        /* \"input/CreateWin.sol\":19843:19852  lineValue */\n      dup4\n        /* \"input/CreateWin.sol\":19811:19838  awData.oneInvAmount.div(15) */\n      tag_329\n        /* \"input/CreateWin.sol\":19835:19837  15 */\n      0x0f\n        /* \"input/CreateWin.sol\":19811:19817  awData */\n      dup9\n        /* \"input/CreateWin.sol\":19811:19830  awData.oneInvAmount */\n      0x00\n      add\n      mload\n        /* \"input/CreateWin.sol\":19811:19834  awData.oneInvAmount.div */\n      tag_225\n      swap1\n        /* \"input/CreateWin.sol\":19811:19838  awData.oneInvAmount.div(15) */\n      swap2\n      swap1\n      0xffffffff\n      and\n      jump\t// in\n    tag_329:\n        /* \"input/CreateWin.sol\":19811:19842  awData.oneInvAmount.div(15).mul */\n      tag_226\n      swap1\n        /* \"input/CreateWin.sol\":19811:19853  awData.oneInvAmount.div(15).mul(lineValue) */\n      swap2\n      swap1\n      0xffffffff\n      and\n      jump\t// in\n    tag_328:\n        /* \"input/CreateWin.sol\":19811:19857  awData.oneInvAmount.div(15).mul(lineValue).div */\n      tag_225\n      swap1\n        /* \"input/CreateWin.sol\":19811:19860  awData.oneInvAmount.div(15).mul(lineValue).div(2) */\n      swap2\n      swap1\n      0xffffffff\n      and\n      jump\t// in\n    tag_327:\n        /* \"input/CreateWin.sol\":19797:19860  inviteSend += awData.oneInvAmount.div(15).mul(lineValue).div(2) */\n      dup5\n      add\n      swap4\n      pop\n        /* \"input/CreateWin.sol\":19712:19868  if (user.lineLevel == 1 && lineAmount >= 1 ether && awData.oneInvAmount > 0) {... */\n    tag_326:\n        /* \"input/CreateWin.sol\":19896:19897  2 */\n      0x02\n        /* \"input/CreateWin.sol\":19878:19882  user */\n      dup7\n        /* \"input/CreateWin.sol\":19878:19892  user.lineLevel */\n      0x0120\n      add\n      mload\n        /* \"input/CreateWin.sol\":19878:19897  user.lineLevel == 2 */\n      eq\n        /* \"input/CreateWin.sol\":19878:19922  user.lineLevel == 2 && lineAmount >= 1 ether */\n      dup1\n      iszero\n      tag_330\n      jumpi\n      pop\n        /* \"input/CreateWin.sol\":19915:19922  1 ether */\n      0x0de0b6b3a7640000\n        /* \"input/CreateWin.sol\":19901:19911  lineAmount */\n      dup3\n        /* \"input/CreateWin.sol\":19901:19922  lineAmount >= 1 ether */\n      lt\n      iszero\n        /* \"input/CreateWin.sol\":19878:19922  user.lineLevel == 2 && lineAmount >= 1 ether */\n    tag_330:\n        /* \"input/CreateWin.sol\":19878:19978  user.lineLevel == 2 && lineAmount >= 1 ether && (awData.oneInvAmount > 0 || awData.twoInvAmount > 0) */\n      dup1\n      iszero\n      tag_331\n      jumpi\n      pop\n        /* \"input/CreateWin.sol\":19949:19950  0 */\n      0x00\n        /* \"input/CreateWin.sol\":19927:19933  awData */\n      dup4\n        /* \"input/CreateWin.sol\":19927:19946  awData.oneInvAmount */\n      0x00\n      add\n      mload\n        /* \"input/CreateWin.sol\":19927:19950  awData.oneInvAmount > 0 */\n      gt\n        /* \"input/CreateWin.sol\":19927:19977  awData.oneInvAmount > 0 || awData.twoInvAmount > 0 */\n      dup1\n      tag_332\n      jumpi\n      pop\n        /* \"input/CreateWin.sol\":19976:19977  0 */\n      0x00\n        /* \"input/CreateWin.sol\":19954:19960  awData */\n      dup4\n        /* \"input/CreateWin.sol\":19954:19973  awData.twoInvAmount */\n      0x20\n      add\n      mload\n        /* \"input/CreateWin.sol\":19954:19977  awData.twoInvAmount > 0 */\n      gt\n        /* \"input/CreateWin.sol\":19927:19977  awData.oneInvAmount > 0 || awData.twoInvAmount > 0 */\n    tag_332:\n        /* \"input/CreateWin.sol\":19878:19978  user.lineLevel == 2 && lineAmount >= 1 ether && (awData.oneInvAmount > 0 || awData.twoInvAmount > 0) */\n    tag_331:\n        /* \"input/CreateWin.sol\":19874:20145  if (user.lineLevel == 2 && lineAmount >= 1 ether && (awData.oneInvAmount > 0 || awData.twoInvAmount > 0)) {... */\n      iszero\n      tag_333\n      jumpi\n        /* \"input/CreateWin.sol\":20002:20059  awData.oneInvAmount.div(15).mul(lineValue).mul(7).div(10) */\n      tag_334\n        /* \"input/CreateWin.sol\":20056:20058  10 */\n      0x0a\n        /* \"input/CreateWin.sol\":20002:20051  awData.oneInvAmount.div(15).mul(lineValue).mul(7) */\n      tag_335\n        /* \"input/CreateWin.sol\":20049:20050  7 */\n      0x07\n        /* \"input/CreateWin.sol\":20002:20044  awData.oneInvAmount.div(15).mul(lineValue) */\n      tag_336\n        /* \"input/CreateWin.sol\":20034:20043  lineValue */\n      dup6\n        /* \"input/CreateWin.sol\":20002:20029  awData.oneInvAmount.div(15) */\n      tag_337\n        /* \"input/CreateWin.sol\":20026:20028  15 */\n      0x0f\n        /* \"input/CreateWin.sol\":20002:20008  awData */\n      dup11\n        /* \"input/CreateWin.sol\":20002:20021  awData.oneInvAmount */\n      0x00\n      add\n      mload\n        /* \"input/CreateWin.sol\":20002:20025  awData.oneInvAmount.div */\n      tag_225\n      swap1\n        /* \"input/CreateWin.sol\":20002:20029  awData.oneInvAmount.div(15) */\n      swap2\n      swap1\n      0xffffffff\n      and\n      jump\t// in\n    tag_337:\n        /* \"input/CreateWin.sol\":20002:20033  awData.oneInvAmount.div(15).mul */\n      tag_226\n      swap1\n        /* \"input/CreateWin.sol\":20002:20044  awData.oneInvAmount.div(15).mul(lineValue) */\n      swap2\n      swap1\n      0xffffffff\n      and\n      jump\t// in\n    tag_336:\n        /* \"input/CreateWin.sol\":20002:20048  awData.oneInvAmount.div(15).mul(lineValue).mul */\n      tag_226\n      swap1\n        /* \"input/CreateWin.sol\":20002:20051  awData.oneInvAmount.div(15).mul(lineValue).mul(7) */\n      swap2\n      swap1\n      0xffffffff\n      and\n      jump\t// in\n    tag_335:\n        /* \"input/CreateWin.sol\":20002:20055  awData.oneInvAmount.div(15).mul(lineValue).mul(7).div */\n      tag_225\n      swap1\n        /* \"input/CreateWin.sol\":20002:20059  awData.oneInvAmount.div(15).mul(lineValue).mul(7).div(10) */\n      swap2\n      swap1\n      0xffffffff\n      and\n      jump\t// in\n    tag_334:\n        /* \"input/CreateWin.sol\":19988:20059  inviteSend += awData.oneInvAmount.div(15).mul(lineValue).mul(7).div(10) */\n      dup5\n      add\n      swap4\n      pop\n        /* \"input/CreateWin.sol\":20081:20137  awData.twoInvAmount.div(15).mul(lineValue).mul(5).div(7) */\n      tag_338\n        /* \"input/CreateWin.sol\":20135:20136  7 */\n      0x07\n        /* \"input/CreateWin.sol\":20081:20130  awData.twoInvAmount.div(15).mul(lineValue).mul(5) */\n      tag_339\n        /* \"input/CreateWin.sol\":20128:20129  5 */\n      0x05\n        /* \"input/CreateWin.sol\":20081:20123  awData.twoInvAmount.div(15).mul(lineValue) */\n      tag_340\n        /* \"input/CreateWin.sol\":20113:20122  lineValue */\n      dup6\n        /* \"input/CreateWin.sol\":20081:20108  awData.twoInvAmount.div(15) */\n      tag_341\n        /* \"input/CreateWin.sol\":20105:20107  15 */\n      0x0f\n        /* \"input/CreateWin.sol\":20081:20087  awData */\n      dup11\n        /* \"input/CreateWin.sol\":20081:20100  awData.twoInvAmount */\n      0x20\n      add\n      mload\n        /* \"input/CreateWin.sol\":20081:20104  awData.twoInvAmount.div */\n      tag_225\n      swap1\n        /* \"input/CreateWin.sol\":20081:20108  awData.twoInvAmount.div(15) */\n      swap2\n      swap1\n      0xffffffff\n      and\n      jump\t// in\n    tag_341:\n        /* \"input/CreateWin.sol\":20081:20112  awData.twoInvAmount.div(15).mul */\n      tag_226\n      swap1\n        /* \"input/CreateWin.sol\":20081:20123  awData.twoInvAmount.div(15).mul(lineValue) */\n      swap2\n      swap1\n      0xffffffff\n      and\n      jump\t// in\n    tag_340:\n        /* \"input/CreateWin.sol\":20081:20127  awData.twoInvAmount.div(15).mul(lineValue).mul */\n      tag_226\n      swap1\n        /* \"input/CreateWin.sol\":20081:20130  awData.twoInvAmount.div(15).mul(lineValue).mul(5) */\n      swap2\n      swap1\n      0xffffffff\n      and\n      jump\t// in\n    tag_339:\n        /* \"input/CreateWin.sol\":20081:20134  awData.twoInvAmount.div(15).mul(lineValue).mul(5).div */\n      tag_225\n      swap1\n        /* \"input/CreateWin.sol\":20081:20137  awData.twoInvAmount.div(15).mul(lineValue).mul(5).div(7) */\n      swap2\n      swap1\n      0xffffffff\n      and\n      jump\t// in\n    tag_338:\n        /* \"input/CreateWin.sol\":20067:20137  inviteSend += awData.twoInvAmount.div(15).mul(lineValue).mul(5).div(7) */\n      dup5\n      add\n      swap4\n      pop\n        /* \"input/CreateWin.sol\":19874:20145  if (user.lineLevel == 2 && lineAmount >= 1 ether && (awData.oneInvAmount > 0 || awData.twoInvAmount > 0)) {... */\n    tag_333:\n        /* \"input/CreateWin.sol\":20173:20174  3 */\n      0x03\n        /* \"input/CreateWin.sol\":20155:20159  user */\n      dup7\n        /* \"input/CreateWin.sol\":20155:20169  user.lineLevel */\n      0x0120\n      add\n      mload\n        /* \"input/CreateWin.sol\":20155:20174  user.lineLevel == 3 */\n      eq\n        /* \"input/CreateWin.sol\":20155:20199  user.lineLevel == 3 && lineAmount >= 1 ether */\n      dup1\n      iszero\n      tag_342\n      jumpi\n      pop\n        /* \"input/CreateWin.sol\":20192:20199  1 ether */\n      0x0de0b6b3a7640000\n        /* \"input/CreateWin.sol\":20178:20188  lineAmount */\n      dup3\n        /* \"input/CreateWin.sol\":20178:20199  lineAmount >= 1 ether */\n      lt\n      iszero\n        /* \"input/CreateWin.sol\":20155:20199  user.lineLevel == 3 && lineAmount >= 1 ether */\n    tag_342:\n        /* \"input/CreateWin.sol\":20155:20228  user.lineLevel == 3 && lineAmount >= 1 ether && awData.threeInvAmount > 0 */\n      dup1\n      iszero\n      tag_343\n      jumpi\n      pop\n        /* \"input/CreateWin.sol\":20227:20228  0 */\n      0x00\n        /* \"input/CreateWin.sol\":20203:20209  awData */\n      dup4\n        /* \"input/CreateWin.sol\":20203:20224  awData.threeInvAmount */\n      0x40\n      add\n      mload\n        /* \"input/CreateWin.sol\":20203:20228  awData.threeInvAmount > 0 */\n      gt\n        /* \"input/CreateWin.sol\":20155:20228  user.lineLevel == 3 && lineAmount >= 1 ether && awData.threeInvAmount > 0 */\n    tag_343:\n        /* \"input/CreateWin.sol\":20151:20304  if (user.lineLevel == 3 && lineAmount >= 1 ether && awData.threeInvAmount > 0) {... */\n      iszero\n      tag_344\n      jumpi\n        /* \"input/CreateWin.sol\":20252:20296  awData.threeInvAmount.div(15).mul(lineValue) */\n      tag_345\n        /* \"input/CreateWin.sol\":20286:20295  lineValue */\n      dup2\n        /* \"input/CreateWin.sol\":20252:20281  awData.threeInvAmount.div(15) */\n      tag_346\n        /* \"input/CreateWin.sol\":20278:20280  15 */\n      0x0f\n        /* \"input/CreateWin.sol\":20252:20258  awData */\n      dup7\n        /* \"input/CreateWin.sol\":20252:20273  awData.threeInvAmount */\n      0x40\n      add\n      mload\n        /* \"input/CreateWin.sol\":20252:20277  awData.threeInvAmount.div */\n      tag_225\n      swap1\n        /* \"input/CreateWin.sol\":20252:20281  awData.threeInvAmount.div(15) */\n      swap2\n      swap1\n      0xffffffff\n      and\n      jump\t// in\n    tag_346:\n        /* \"input/CreateWin.sol\":20252:20285  awData.threeInvAmount.div(15).mul */\n      tag_226\n      swap1\n        /* \"input/CreateWin.sol\":20252:20296  awData.threeInvAmount.div(15).mul(lineValue) */\n      swap2\n      swap1\n      0xffffffff\n      and\n      jump\t// in\n    tag_345:\n        /* \"input/CreateWin.sol\":20238:20296  inviteSend += awData.threeInvAmount.div(15).mul(lineValue) */\n      dup5\n      add\n      swap4\n      pop\n        /* \"input/CreateWin.sol\":20151:20304  if (user.lineLevel == 3 && lineAmount >= 1 ether && awData.threeInvAmount > 0) {... */\n    tag_344:\n        /* \"input/CreateWin.sol\":20331:20332  3 */\n      0x03\n        /* \"input/CreateWin.sol\":20314:20318  user */\n      dup7\n        /* \"input/CreateWin.sol\":20314:20328  user.lineLevel */\n      0x0120\n      add\n      mload\n        /* \"input/CreateWin.sol\":20314:20332  user.lineLevel < 3 */\n      lt\n        /* \"input/CreateWin.sol\":20310:20447  if (user.lineLevel < 3) {... */\n      iszero\n      tag_347\n      jumpi\n        /* \"input/CreateWin.sol\":20342:20353  uint fireSc */\n      0x00\n        /* \"input/CreateWin.sol\":20356:20388  getFireScByLevel(user.lineLevel) */\n      tag_348\n        /* \"input/CreateWin.sol\":20373:20377  user */\n      dup8\n        /* \"input/CreateWin.sol\":20373:20387  user.lineLevel */\n      0x0120\n      add\n      mload\n        /* \"input/CreateWin.sol\":20356:20372  getFireScByLevel */\n      tag_175\n        /* \"input/CreateWin.sol\":20356:20388  getFireScByLevel(user.lineLevel) */\n      jump\t// in\n    tag_348:\n        /* \"input/CreateWin.sol\":20342:20388  uint fireSc = getFireScByLevel(user.lineLevel) */\n      swap1\n      pop\n        /* \"input/CreateWin.sol\":20409:20439  inviteSend.mul(fireSc).div(10) */\n      tag_349\n        /* \"input/CreateWin.sol\":20436:20438  10 */\n      0x0a\n        /* \"input/CreateWin.sol\":20409:20431  inviteSend.mul(fireSc) */\n      tag_350\n        /* \"input/CreateWin.sol\":20424:20430  fireSc */\n      dup4\n        /* \"input/CreateWin.sol\":20409:20419  inviteSend */\n      dup9\n        /* \"input/CreateWin.sol\":20409:20423  inviteSend.mul */\n      tag_226\n      swap1\n        /* \"input/CreateWin.sol\":20409:20431  inviteSend.mul(fireSc) */\n      swap2\n      swap1\n      0xffffffff\n      and\n      jump\t// in\n    tag_350:\n        /* \"input/CreateWin.sol\":20409:20435  inviteSend.mul(fireSc).div */\n      tag_225\n      swap1\n        /* \"input/CreateWin.sol\":20409:20439  inviteSend.mul(fireSc).div(10) */\n      swap2\n      swap1\n      0xffffffff\n      and\n      jump\t// in\n    tag_349:\n        /* \"input/CreateWin.sol\":20396:20439  inviteSend = inviteSend.mul(fireSc).div(10) */\n      swap5\n      pop\n        /* \"input/CreateWin.sol\":20310:20447  if (user.lineLevel < 3) {... */\n      pop\n    tag_347:\n        /* \"input/CreateWin.sol\":19629:20453  if (lineValue >= 15) {... */\n    tag_323:\n        /* \"input/CreateWin.sol\":20473:20483  inviteSend */\n      dup4\n        /* \"input/CreateWin.sol\":20458:20483  grantAmount += inviteSend */\n      dup6\n      add\n      swap5\n      pop\n        /* \"input/CreateWin.sol\":19551:20489  if (lineAmount >= 1 ether) {... */\n      pop\n    tag_320:\n        /* \"input/CreateWin.sol\":19320:20493  if (userGlobal.status == 0) {... */\n      pop\n      pop\n      pop\n    tag_315:\n        /* \"input/CreateWin.sol\":20507:20518  grantAmount */\n      dup1\n        /* \"input/CreateWin.sol\":20496:20500  info */\n      dup7\n        /* \"input/CreateWin.sol\":20501:20503  11 */\n      0x0b\n        /* \"input/CreateWin.sol\":20496:20504  info[11] */\n      0x0e\n      dup2\n      lt\n      tag_351\n      jumpi\n      invalid\n    tag_351:\n      0x20\n      mul\n      add\n        /* \"input/CreateWin.sol\":20496:20518  info[11] = grantAmount */\n      dup2\n      dup2\n      mstore\n      pop\n      pop\n        /* \"input/CreateWin.sol\":20533:20537  user */\n      dup2\n        /* \"input/CreateWin.sol\":20533:20548  user.lastRwTime */\n      0x01e0\n      add\n      mload\n        /* \"input/CreateWin.sol\":20522:20526  info */\n      dup7\n        /* \"input/CreateWin.sol\":20527:20529  12 */\n      0x0c\n        /* \"input/CreateWin.sol\":20522:20530  info[12] */\n      0x0e\n      dup2\n      lt\n      tag_352\n      jumpi\n      invalid\n    tag_352:\n      0x20\n      mul\n      add\n        /* \"input/CreateWin.sol\":20522:20548  info[12] = user.lastRwTime */\n      dup2\n      dup2\n      mstore\n      pop\n      pop\n        /* \"input/CreateWin.sol\":20563:20573  userGlobal */\n      dup3\n        /* \"input/CreateWin.sol\":20563:20580  userGlobal.status */\n      0x80\n      add\n      mload\n        /* \"input/CreateWin.sol\":20552:20556  info */\n      dup7\n        /* \"input/CreateWin.sol\":20557:20559  13 */\n      0x0d\n        /* \"input/CreateWin.sol\":20552:20560  info[13] */\n      0x0e\n      dup2\n      lt\n      tag_353\n      jumpi\n      invalid\n    tag_353:\n      0x20\n      mul\n      add\n        /* \"input/CreateWin.sol\":20552:20580  info[13] = userGlobal.status */\n      dup2\n      dup2\n      mstore\n      pop\n      pop\n        /* \"input/CreateWin.sol\":20593:20597  info */\n      dup6\n        /* \"input/CreateWin.sol\":20599:20609  userGlobal */\n      dup4\n        /* \"input/CreateWin.sol\":20599:20620  userGlobal.inviteCode */\n      0x40\n      add\n      mload\n        /* \"input/CreateWin.sol\":20622:20632  userGlobal */\n      dup5\n        /* \"input/CreateWin.sol\":20622:20639  userGlobal.beCode */\n      0x60\n      add\n      mload\n        /* \"input/CreateWin.sol\":20585:20640  return (info, userGlobal.inviteCode, userGlobal.beCode) */\n      dup2\n      swap2\n      pop\n      dup1\n      swap1\n      pop\n      swap6\n      pop\n      swap6\n      pop\n      swap6\n      pop\n      pop\n      pop\n      pop\n        /* \"input/CreateWin.sol\":18383:20644  function getUserByAddress(address addr, uint roundId) public view returns (uint[14] memory info, string memory inviteCode, string memory beCode) {... */\n      swap3\n      pop\n      swap3\n      pop\n      swap3\n      jump\t// out\n        /* \"input/CreateWin.sol\":20921:21140  function getLineUserId(uint index, uint rouId) public view returns (uint) {... */\n    tag_80:\n        /* \"input/CreateWin.sol\":20989:20993  uint */\n      0x00\n        /* \"input/CreateWin.sol\":21007:21035  isWhitelistAdmin(msg.sender) */\n      tag_355\n        /* \"input/CreateWin.sol\":21024:21034  msg.sender */\n      caller\n        /* \"input/CreateWin.sol\":21007:21023  isWhitelistAdmin */\n      tag_157\n        /* \"input/CreateWin.sol\":21007:21035  isWhitelistAdmin(msg.sender) */\n      jump\t// in\n    tag_355:\n        /* \"input/CreateWin.sol\":20999:21057  require(isWhitelistAdmin(msg.sender), \"Permission denied\") */\n      tag_356\n      jumpi\n      mload(0x40)\n      0x08c379a000000000000000000000000000000000000000000000000000000000\n      dup2\n      mstore\n      0x04\n      add\n      dup1\n      dup1\n      0x20\n      add\n      dup3\n      dup2\n      sub\n      dup3\n      mstore\n      0x11\n      dup2\n      mstore\n      0x20\n      add\n      dup1\n      0x5065726d697373696f6e2064656e696564000000000000000000000000000000\n      dup2\n      mstore\n      pop\n      0x20\n      add\n      swap2\n      pop\n      pop\n      mload(0x40)\n      dup1\n      swap2\n      sub\n      swap1\n      revert\n    tag_356:\n        /* \"input/CreateWin.sol\":21074:21075  0 */\n      0x00\n        /* \"input/CreateWin.sol\":21065:21070  rouId */\n      dup3\n        /* \"input/CreateWin.sol\":21065:21075  rouId == 0 */\n      eq\n        /* \"input/CreateWin.sol\":21061:21098  if (rouId == 0) {... */\n      iszero\n      tag_357\n      jumpi\n        /* \"input/CreateWin.sol\":21090:21093  rid */\n      sload(0x0c)\n        /* \"input/CreateWin.sol\":21082:21093  rouId = rid */\n      swap2\n      pop\n        /* \"input/CreateWin.sol\":21061:21098  if (rouId == 0) {... */\n    tag_357:\n        /* \"input/CreateWin.sol\":21108:21124  lineArrayMapping */\n      0x0d\n        /* \"input/CreateWin.sol\":21108:21129  lineArrayMapping[rid] */\n      0x00\n        /* \"input/CreateWin.sol\":21125:21128  rid */\n      sload(0x0c)\n        /* \"input/CreateWin.sol\":21108:21129  lineArrayMapping[rid] */\n      dup2\n      mstore\n      0x20\n      add\n      swap1\n      dup2\n      mstore\n      0x20\n      add\n      0x00\n      keccak256\n        /* \"input/CreateWin.sol\":21130:21135  index */\n      dup4\n        /* \"input/CreateWin.sol\":21108:21136  lineArrayMapping[rid][index] */\n      dup2\n      sload\n      dup2\n      lt\n      tag_358\n      jumpi\n      invalid\n    tag_358:\n      swap1\n      0x00\n      mstore\n      keccak256(0x00, 0x20)\n      add\n      sload\n        /* \"input/CreateWin.sol\":21101:21136  return lineArrayMapping[rid][index] */\n      swap1\n      pop\n        /* \"input/CreateWin.sol\":20921:21140  function getLineUserId(uint index, uint rouId) public view returns (uint) {... */\n      swap3\n      swap2\n      pop\n      pop\n      jump\t// out\n        /* \"input/CreateWin.sol\":12962:13357  function earneth(address userAddr, uint dayInvAmount, uint rewardIndex, uint times) public {... */\n    tag_84:\n        /* \"input/CreateWin.sol\":13062:13068  uint i */\n      0x00\n        /* \"input/CreateWin.sol\":13071:13072  0 */\n      dup1\n        /* \"input/CreateWin.sol\":13062:13072  uint i = 0 */\n      swap1\n      pop\n        /* \"input/CreateWin.sol\":13057:13354  for (uint i = 0; i < 5; i++) {... */\n    tag_361:\n        /* \"input/CreateWin.sol\":13078:13079  5 */\n      0x05\n        /* \"input/CreateWin.sol\":13074:13075  i */\n      dup2\n        /* \"input/CreateWin.sol\":13074:13079  i < 5 */\n      lt\n        /* \"input/CreateWin.sol\":13057:13354  for (uint i = 0; i < 5; i++) {... */\n      iszero\n      tag_362\n      jumpi\n        /* \"input/CreateWin.sol\":13091:13115  AwardData storage awData */\n      0x00\n        /* \"input/CreateWin.sol\":13118:13138  userAwardDataMapping */\n      0x12\n        /* \"input/CreateWin.sol\":13118:13143  userAwardDataMapping[rid] */\n      0x00\n        /* \"input/CreateWin.sol\":13139:13142  rid */\n      sload(0x0c)\n        /* \"input/CreateWin.sol\":13118:13143  userAwardDataMapping[rid] */\n      dup2\n      mstore\n      0x20\n      add\n      swap1\n      dup2\n      mstore\n      0x20\n      add\n      0x00\n      keccak256\n        /* \"input/CreateWin.sol\":13118:13153  userAwardDataMapping[rid][userAddr] */\n      0x00\n        /* \"input/CreateWin.sol\":13144:13152  userAddr */\n      dup8\n        /* \"input/CreateWin.sol\":13118:13153  userAwardDataMapping[rid][userAddr] */\n      0xffffffffffffffffffffffffffffffffffffffff\n      and\n      0xffffffffffffffffffffffffffffffffffffffff\n      and\n      dup2\n      mstore\n      0x20\n      add\n      swap1\n      dup2\n      mstore\n      0x20\n      add\n      0x00\n      keccak256\n        /* \"input/CreateWin.sol\":13118:13173  userAwardDataMapping[rid][userAddr][rewardIndex.add(i)] */\n      0x00\n        /* \"input/CreateWin.sol\":13154:13172  rewardIndex.add(i) */\n      tag_364\n        /* \"input/CreateWin.sol\":13170:13171  i */\n      dup5\n        /* \"input/CreateWin.sol\":13154:13165  rewardIndex */\n      dup8\n        /* \"input/CreateWin.sol\":13154:13169  rewardIndex.add */\n      tag_248\n      swap1\n        /* \"input/CreateWin.sol\":13154:13172  rewardIndex.add(i) */\n      swap2\n      swap1\n      0xffffffff\n      and\n      jump\t// in\n    tag_364:\n        /* \"input/CreateWin.sol\":13118:13173  userAwardDataMapping[rid][userAddr][rewardIndex.add(i)] */\n      dup2\n      mstore\n      0x20\n      add\n      swap1\n      dup2\n      mstore\n      0x20\n      add\n      0x00\n      keccak256\n        /* \"input/CreateWin.sol\":13091:13173  AwardData storage awData = userAwardDataMapping[rid][userAddr][rewardIndex.add(i)] */\n      swap1\n      pop\n        /* \"input/CreateWin.sol\":13191:13192  1 */\n      0x01\n        /* \"input/CreateWin.sol\":13182:13187  times */\n      dup4\n        /* \"input/CreateWin.sol\":13182:13192  times == 1 */\n      eq\n        /* \"input/CreateWin.sol\":13178:13241  if (times == 1) {... */\n      iszero\n      tag_365\n      jumpi\n        /* \"input/CreateWin.sol\":13223:13235  dayInvAmount */\n      dup5\n        /* \"input/CreateWin.sol\":13200:13206  awData */\n      dup2\n        /* \"input/CreateWin.sol\":13200:13219  awData.oneInvAmount */\n      0x00\n      add\n      0x00\n        /* \"input/CreateWin.sol\":13200:13235  awData.oneInvAmount += dayInvAmount */\n      dup3\n      dup3\n      sload\n      add\n      swap3\n      pop\n      pop\n      dup2\n      swap1\n      sstore\n      pop\n        /* \"input/CreateWin.sol\":13178:13241  if (times == 1) {... */\n    tag_365:\n        /* \"input/CreateWin.sol\":13258:13259  2 */\n      0x02\n        /* \"input/CreateWin.sol\":13249:13254  times */\n      dup4\n        /* \"input/CreateWin.sol\":13249:13259  times == 2 */\n      eq\n        /* \"input/CreateWin.sol\":13245:13308  if (times == 2) {... */\n      iszero\n      tag_366\n      jumpi\n        /* \"input/CreateWin.sol\":13290:13302  dayInvAmount */\n      dup5\n        /* \"input/CreateWin.sol\":13267:13273  awData */\n      dup2\n        /* \"input/CreateWin.sol\":13267:13286  awData.twoInvAmount */\n      0x01\n      add\n      0x00\n        /* \"input/CreateWin.sol\":13267:13302  awData.twoInvAmount += dayInvAmount */\n      dup3\n      dup3\n      sload\n      add\n      swap3\n      pop\n      pop\n      dup2\n      swap1\n      sstore\n      pop\n        /* \"input/CreateWin.sol\":13245:13308  if (times == 2) {... */\n    tag_366:\n        /* \"input/CreateWin.sol\":13337:13349  dayInvAmount */\n      dup5\n        /* \"input/CreateWin.sol\":13312:13318  awData */\n      dup2\n        /* \"input/CreateWin.sol\":13312:13333  awData.threeInvAmount */\n      0x02\n      add\n      0x00\n        /* \"input/CreateWin.sol\":13312:13349  awData.threeInvAmount += dayInvAmount */\n      dup3\n      dup3\n      sload\n      add\n      swap3\n      pop\n      pop\n      dup2\n      swap1\n      sstore\n      pop\n        /* \"input/CreateWin.sol\":13057:13354  for (uint i = 0; i < 5; i++) {... */\n      pop\n        /* \"input/CreateWin.sol\":13081:13084  i++ */\n      dup1\n      dup1\n      0x01\n      add\n      swap2\n      pop\n      pop\n        /* \"input/CreateWin.sol\":13057:13354  for (uint i = 0; i < 5; i++) {... */\n      jump(tag_361)\n    tag_362:\n      pop\n        /* \"input/CreateWin.sol\":12962:13357  function earneth(address userAddr, uint dayInvAmount, uint rewardIndex, uint times) public {... */\n      pop\n      pop\n      pop\n      pop\n      jump\t// out\n        /* \"input/CreateWin.sol\":7340:7544  function verydangerous(uint time) external onlyOwner {... */\n    tag_88:\n        /* \"input/CreateWin.sol\":3355:3364  isOwner() */\n      tag_368\n        /* \"input/CreateWin.sol\":3355:3362  isOwner */\n      tag_134\n        /* \"input/CreateWin.sol\":3355:3364  isOwner() */\n      jump\t// in\n    tag_368:\n        /* \"input/CreateWin.sol\":3347:3401  require(isOwner(), \"Ownable: caller is not the owner\") */\n      tag_369\n      jumpi\n      mload(0x40)\n      0x08c379a000000000000000000000000000000000000000000000000000000000\n      dup2\n      mstore\n      0x04\n      add\n      dup1\n      dup1\n      0x20\n      add\n      dup3\n      dup2\n      sub\n      dup3\n      mstore\n      0x20\n      dup2\n      mstore\n      0x20\n      add\n      dup1\n      0x4f776e61626c653a2063616c6c6572206973206e6f7420746865206f776e6572\n      dup2\n      mstore\n      pop\n      0x20\n      add\n      swap2\n      pop\n      pop\n      mload(0x40)\n      dup1\n      swap2\n      sub\n      swap1\n      revert\n    tag_369:\n        /* \"input/CreateWin.sol\":7424:7425  1 */\n      0x01\n        /* \"input/CreateWin.sol\":7405:7420  canSetStartTime */\n      sload(0x17)\n        /* \"input/CreateWin.sol\":7405:7425  canSetStartTime == 1 */\n      eq\n        /* \"input/CreateWin.sol\":7397:7453  require(canSetStartTime == 1, \"verydangerous, limited!\") */\n      tag_371\n      jumpi\n      mload(0x40)\n      0x08c379a000000000000000000000000000000000000000000000000000000000\n      dup2\n      mstore\n      0x04\n      add\n      dup1\n      dup1\n      0x20\n      add\n      dup3\n      dup2\n      sub\n      dup3\n      mstore\n      0x17\n      dup2\n      mstore\n      0x20\n      add\n      dup1\n      0x7665727964616e6765726f75732c206c696d6974656421000000000000000000\n      dup2\n      mstore\n      pop\n      0x20\n      add\n      swap2\n      pop\n      pop\n      mload(0x40)\n      dup1\n      swap2\n      sub\n      swap1\n      revert\n    tag_371:\n        /* \"input/CreateWin.sol\":7472:7475  now */\n      timestamp\n        /* \"input/CreateWin.sol\":7465:7469  time */\n      dup2\n        /* \"input/CreateWin.sol\":7465:7475  time > now */\n      gt\n        /* \"input/CreateWin.sol\":7457:7497  require(time > now, \"no, verydangerous\") */\n      tag_372\n      jumpi\n      mload(0x40)\n      0x08c379a000000000000000000000000000000000000000000000000000000000\n      dup2\n      mstore\n      0x04\n      add\n      dup1\n      dup1\n      0x20\n      add\n      dup3\n      dup2\n      sub\n      dup3\n      mstore\n      0x11\n      dup2\n      mstore\n      0x20\n      add\n      dup1\n      0x6e6f2c207665727964616e6765726f7573000000000000000000000000000000\n      dup2\n      mstore\n      pop\n      0x20\n      add\n      swap2\n      pop\n      pop\n      mload(0x40)\n      dup1\n      swap2\n      sub\n      swap1\n      revert\n    tag_372:\n        /* \"input/CreateWin.sol\":7513:7517  time */\n      dup1\n        /* \"input/CreateWin.sol\":7501:7510  startTime */\n      0x06\n        /* \"input/CreateWin.sol\":7501:7517  startTime = time */\n      dup2\n      swap1\n      sstore\n      pop\n        /* \"input/CreateWin.sol\":7539:7540  0 */\n      0x00\n        /* \"input/CreateWin.sol\":7521:7536  canSetStartTime */\n      0x17\n        /* \"input/CreateWin.sol\":7521:7540  canSetStartTime = 0 */\n      dup2\n      swap1\n      sstore\n      pop\n        /* \"input/CreateWin.sol\":7340:7544  function verydangerous(uint time) external onlyOwner {... */\n      pop\n      jump\t// out\n        /* \"input/CreateWin.sol\":17164:17296  function isUsed(string memory code) public view returns (bool) {... */\n    tag_95:\n        /* \"input/CreateWin.sol\":17221:17225  bool */\n      0x00\n        /* \"input/CreateWin.sol\":17231:17243  address addr */\n      dup1\n        /* \"input/CreateWin.sol\":17246:17260  addressMapping */\n      0x10\n        /* \"input/CreateWin.sol\":17261:17265  code */\n      dup4\n        /* \"input/CreateWin.sol\":17246:17266  addressMapping[code] */\n      mload(0x40)\n      dup1\n      dup3\n      dup1\n      mload\n      swap1\n      0x20\n      add\n      swap1\n      dup1\n      dup4\n      dup4\n        /* \"--CODEGEN--\":36:189   */\n    tag_374:\n        /* \"--CODEGEN--\":66:68   */\n      0x20\n        /* \"--CODEGEN--\":61:64   */\n      dup4\n        /* \"--CODEGEN--\":58:69   */\n      lt\n        /* \"--CODEGEN--\":36:189   */\n      tag_376\n      jumpi\n        /* \"--CODEGEN--\":182:185   */\n      dup1\n        /* \"--CODEGEN--\":176:186   */\n      mload\n        /* \"--CODEGEN--\":171:174   */\n      dup3\n        /* \"--CODEGEN--\":164:187   */\n      mstore\n        /* \"--CODEGEN--\":98:100   */\n      0x20\n        /* \"--CODEGEN--\":93:96   */\n      dup3\n        /* \"--CODEGEN--\":89:101   */\n      add\n        /* \"--CODEGEN--\":82:101   */\n      swap2\n      pop\n        /* \"--CODEGEN--\":123:125   */\n      0x20\n        /* \"--CODEGEN--\":118:121   */\n      dup2\n        /* \"--CODEGEN--\":114:126   */\n      add\n        /* \"--CODEGEN--\":107:126   */\n      swap1\n      pop\n        /* \"--CODEGEN--\":148:150   */\n      0x20\n        /* \"--CODEGEN--\":143:146   */\n      dup4\n        /* \"--CODEGEN--\":139:151   */\n      sub\n        /* \"--CODEGEN--\":132:151   */\n      swap3\n      pop\n        /* \"--CODEGEN--\":36:189   */\n      jump(tag_374)\n    tag_376:\n        /* \"--CODEGEN--\":274:275   */\n      0x01\n        /* \"--CODEGEN--\":267:270   */\n      dup4\n        /* \"--CODEGEN--\":263:265   */\n      0x20\n        /* \"--CODEGEN--\":259:271   */\n      sub\n        /* \"--CODEGEN--\":254:257   */\n      0x0100\n        /* \"--CODEGEN--\":250:272   */\n      exp\n        /* \"--CODEGEN--\":246:276   */\n      sub\n        /* \"--CODEGEN--\":315:319   */\n      dup1\n        /* \"--CODEGEN--\":311:320   */\n      not\n        /* \"--CODEGEN--\":305:308   */\n      dup3\n        /* \"--CODEGEN--\":299:309   */\n      mload\n        /* \"--CODEGEN--\":295:321   */\n      and\n        /* \"--CODEGEN--\":356:360   */\n      dup2\n        /* \"--CODEGEN--\":350:353   */\n      dup5\n        /* \"--CODEGEN--\":344:354   */\n      mload\n        /* \"--CODEGEN--\":340:361   */\n      and\n        /* \"--CODEGEN--\":389:396   */\n      dup1\n        /* \"--CODEGEN--\":380:387   */\n      dup3\n        /* \"--CODEGEN--\":377:397   */\n      or\n        /* \"--CODEGEN--\":372:375   */\n      dup6\n        /* \"--CODEGEN--\":365:398   */\n      mstore\n        /* \"--CODEGEN--\":3:402   */\n      pop\n      pop\n      pop\n        /* \"input/CreateWin.sol\":17246:17266  addressMapping[code] */\n      pop\n      pop\n      pop\n      swap1\n      pop\n      add\n      swap2\n      pop\n      pop\n      swap1\n      dup2\n      mstore\n      0x20\n      add\n      mload(0x40)\n      dup1\n      swap2\n      sub\n      swap1\n      keccak256\n      0x00\n      swap1\n      sload\n      swap1\n      0x0100\n      exp\n      swap1\n      div\n      0xffffffffffffffffffffffffffffffffffffffff\n      and\n        /* \"input/CreateWin.sol\":17231:17266  address addr = addressMapping[code] */\n      swap1\n      pop\n        /* \"input/CreateWin.sol\":17291:17292  0 */\n      0x00\n        /* \"input/CreateWin.sol\":17282:17286  addr */\n      dup2\n        /* \"input/CreateWin.sol\":17277:17287  uint(addr) */\n      0xffffffffffffffffffffffffffffffffffffffff\n      and\n        /* \"input/CreateWin.sol\":17277:17292  uint(addr) != 0 */\n      eq\n      iszero\n        /* \"input/CreateWin.sol\":17270:17292  return uint(addr) != 0 */\n      swap2\n      pop\n      pop\n        /* \"input/CreateWin.sol\":17164:17296  function isUsed(string memory code) public view returns (bool) {... */\n      swap2\n      swap1\n      pop\n      jump\t// out\n        /* \"input/CreateWin.sol\":5469:5573  function removeWhitelistAdmin(address account) public onlyOwner {... */\n    tag_99:\n        /* \"input/CreateWin.sol\":3355:3364  isOwner() */\n      tag_378\n        /* \"input/CreateWin.sol\":3355:3362  isOwner */\n      tag_134\n        /* \"input/CreateWin.sol\":3355:3364  isOwner() */\n      jump\t// in\n    tag_378:\n        /* \"input/CreateWin.sol\":3347:3401  require(isOwner(), \"Ownable: caller is not the owner\") */\n      tag_379\n      jumpi\n      mload(0x40)\n      0x08c379a000000000000000000000000000000000000000000000000000000000\n      dup2\n      mstore\n      0x04\n      add\n      dup1\n      dup1\n      0x20\n      add\n      dup3\n      dup2\n      sub\n      dup3\n      mstore\n      0x20\n      dup2\n      mstore\n      0x20\n      add\n      dup1\n      0x4f776e61626c653a2063616c6c6572206973206e6f7420746865206f776e6572\n      dup2\n      mstore\n      pop\n      0x20\n      add\n      swap2\n      pop\n      pop\n      mload(0x40)\n      dup1\n      swap2\n      sub\n      swap1\n      revert\n    tag_379:\n        /* \"input/CreateWin.sol\":5537:5569  _whitelistAdmins.remove(account) */\n      tag_381\n        /* \"input/CreateWin.sol\":5561:5568  account */\n      dup2\n        /* \"input/CreateWin.sol\":5537:5553  _whitelistAdmins */\n      0x02\n        /* \"input/CreateWin.sol\":5537:5560  _whitelistAdmins.remove */\n      tag_382\n      swap1\n        /* \"input/CreateWin.sol\":5537:5569  _whitelistAdmins.remove(account) */\n      swap2\n      swap1\n      0xffffffff\n      and\n      jump\t// in\n    tag_381:\n        /* \"input/CreateWin.sol\":5469:5573  function removeWhitelistAdmin(address account) public onlyOwner {... */\n      pop\n      jump\t// out\n        /* \"input/CreateWin.sol\":5368:5466  function addWhitelistAdmin(address account) public onlyOwner {... */\n    tag_103:\n        /* \"input/CreateWin.sol\":3355:3364  isOwner() */\n      tag_384\n        /* \"input/CreateWin.sol\":3355:3362  isOwner */\n      tag_134\n        /* \"input/CreateWin.sol\":3355:3364  isOwner() */\n      jump\t// in\n    tag_384:\n        /* \"input/CreateWin.sol\":3347:3401  require(isOwner(), \"Ownable: caller is not the owner\") */\n      tag_385\n      jumpi\n      mload(0x40)\n      0x08c379a000000000000000000000000000000000000000000000000000000000\n      dup2\n      mstore\n      0x04\n      add\n      dup1\n      dup1\n      0x20\n      add\n      dup3\n      dup2\n      sub\n      dup3\n      mstore\n      0x20\n      dup2\n      mstore\n      0x20\n      add\n      dup1\n      0x4f776e61626c653a2063616c6c6572206973206e6f7420746865206f776e6572\n      dup2\n      mstore\n      pop\n      0x20\n      add\n      swap2\n      pop\n      pop\n      mload(0x40)\n      dup1\n      swap2\n      sub\n      swap1\n      revert\n    tag_385:\n        /* \"input/CreateWin.sol\":5433:5462  _whitelistAdmins.add(account) */\n      tag_387\n        /* \"input/CreateWin.sol\":5454:5461  account */\n      dup2\n        /* \"input/CreateWin.sol\":5433:5449  _whitelistAdmins */\n      0x02\n        /* \"input/CreateWin.sol\":5433:5453  _whitelistAdmins.add */\n      tag_388\n      swap1\n        /* \"input/CreateWin.sol\":5433:5462  _whitelistAdmins.add(account) */\n      swap2\n      swap1\n      0xffffffff\n      and\n      jump\t// in\n    tag_387:\n        /* \"input/CreateWin.sol\":5368:5466  function addWhitelistAdmin(address account) public onlyOwner {... */\n      pop\n      jump\t// out\n        /* \"input/CreateWin.sol\":17830:18051  function endRound() external onlyOwner {... */\n    tag_106:\n        /* \"input/CreateWin.sol\":3355:3364  isOwner() */\n      tag_390\n        /* \"input/CreateWin.sol\":3355:3362  isOwner */\n      tag_134\n        /* \"input/CreateWin.sol\":3355:3364  isOwner() */\n      jump\t// in\n    tag_390:\n        /* \"input/CreateWin.sol\":3347:3401  require(isOwner(), \"Ownable: caller is not the owner\") */\n      tag_391\n      jumpi\n      mload(0x40)\n      0x08c379a000000000000000000000000000000000000000000000000000000000\n      dup2\n      mstore\n      0x04\n      add\n      dup1\n      dup1\n      0x20\n      add\n      dup3\n      dup2\n      sub\n      dup3\n      mstore\n      0x20\n      dup2\n      mstore\n      0x20\n      add\n      dup1\n      0x4f776e61626c653a2063616c6c6572206973206e6f7420746865206f776e6572\n      dup2\n      mstore\n      pop\n      0x20\n      add\n      swap2\n      pop\n      pop\n      mload(0x40)\n      dup1\n      swap2\n      sub\n      swap1\n      revert\n    tag_391:\n        /* \"input/CreateWin.sol\":17905:17912  1 ether */\n      0x0de0b6b3a7640000\n        /* \"input/CreateWin.sol\":17881:17902  address(this).balance */\n      selfbalance\n        /* \"input/CreateWin.sol\":17881:17912  address(this).balance < 1 ether */\n      lt\n        /* \"input/CreateWin.sol\":17873:17960  require(address(this).balance < 1 ether, \"contract balance must be lower than 1 ether\") */\n      tag_393\n      jumpi\n      mload(0x40)\n      0x08c379a000000000000000000000000000000000000000000000000000000000\n      dup2\n      mstore\n      0x04\n      add\n      dup1\n      dup1\n      0x20\n      add\n      dup3\n      dup2\n      sub\n      dup3\n      mstore\n      0x2b\n      dup2\n      mstore\n      0x20\n      add\n      dup1\n      data_112277b6fc9fa97dbd12e87cf10db4bc8efa7e361be73fd737590c8aaa6be659\n      0x2b\n      swap2\n      codecopy\n      0x40\n      add\n      swap2\n      pop\n      pop\n      mload(0x40)\n      dup1\n      swap2\n      sub\n      swap1\n      revert\n    tag_393:\n        /* \"input/CreateWin.sol\":17964:17967  rid */\n      0x0c\n      0x00\n        /* \"input/CreateWin.sol\":17964:17969  rid++ */\n      dup2\n      sload\n      dup1\n      swap3\n      swap2\n      swap1\n      0x01\n      add\n      swap2\n      swap1\n      pop\n      sstore\n      pop\n        /* \"input/CreateWin.sol\":17985:18024  now.add(period).div(1 days).mul(1 days) */\n      tag_394\n        /* \"input/CreateWin.sol\":18017:18023  1 days */\n      0x015180\n        /* \"input/CreateWin.sol\":17985:18012  now.add(period).div(1 days) */\n      tag_395\n        /* \"input/CreateWin.sol\":18005:18011  1 days */\n      0x015180\n        /* \"input/CreateWin.sol\":17985:18000  now.add(period) */\n      tag_396\n        /* \"input/CreateWin.sol\":17993:17999  period */\n      sload(0x0a)\n        /* \"input/CreateWin.sol\":17985:17988  now */\n      timestamp\n        /* \"input/CreateWin.sol\":17985:17992  now.add */\n      tag_248\n      swap1\n        /* \"input/CreateWin.sol\":17985:18000  now.add(period) */\n      swap2\n      swap1\n      0xffffffff\n      and\n      jump\t// in\n    tag_396:\n        /* \"input/CreateWin.sol\":17985:18004  now.add(period).div */\n      tag_225\n      swap1\n        /* \"input/CreateWin.sol\":17985:18012  now.add(period).div(1 days) */\n      swap2\n      swap1\n      0xffffffff\n      and\n      jump\t// in\n    tag_395:\n        /* \"input/CreateWin.sol\":17985:18016  now.add(period).div(1 days).mul */\n      tag_226\n      swap1\n        /* \"input/CreateWin.sol\":17985:18024  now.add(period).div(1 days).mul(1 days) */\n      swap2\n      swap1\n      0xffffffff\n      and\n      jump\t// in\n    tag_394:\n        /* \"input/CreateWin.sol\":17973:17982  startTime */\n      0x06\n        /* \"input/CreateWin.sol\":17973:18024  startTime = now.add(period).div(1 days).mul(1 days) */\n      dup2\n      swap1\n      sstore\n      pop\n        /* \"input/CreateWin.sol\":18046:18047  1 */\n      0x01\n        /* \"input/CreateWin.sol\":18028:18043  canSetStartTime */\n      0x17\n        /* \"input/CreateWin.sol\":18028:18047  canSetStartTime = 1 */\n      dup2\n      swap1\n      sstore\n      pop\n        /* \"input/CreateWin.sol\":17830:18051  function endRound() external onlyOwner {... */\n      jump\t// out\n        /* \"input/CreateWin.sol\":13917:16726  function christmas(uint start, uint end) external onlyWhitelistAdmin {... */\n    tag_110:\n        /* \"input/CreateWin.sol\":5114:5144  isWhitelistAdmin(_msgSender()) */\n      tag_398\n        /* \"input/CreateWin.sol\":5131:5143  _msgSender() */\n      tag_399\n        /* \"input/CreateWin.sol\":5131:5141  _msgSender */\n      tag_400\n        /* \"input/CreateWin.sol\":5131:5143  _msgSender() */\n      jump\t// in\n    tag_399:\n        /* \"input/CreateWin.sol\":5114:5130  isWhitelistAdmin */\n      tag_157\n        /* \"input/CreateWin.sol\":5114:5144  isWhitelistAdmin(_msgSender()) */\n      jump\t// in\n    tag_398:\n        /* \"input/CreateWin.sol\":5114:5157  isWhitelistAdmin(_msgSender()) || isOwner() */\n      dup1\n      tag_401\n      jumpi\n      pop\n        /* \"input/CreateWin.sol\":5148:5157  isOwner() */\n      tag_402\n        /* \"input/CreateWin.sol\":5148:5155  isOwner */\n      tag_134\n        /* \"input/CreateWin.sol\":5148:5157  isOwner() */\n      jump\t// in\n    tag_402:\n        /* \"input/CreateWin.sol\":5114:5157  isWhitelistAdmin(_msgSender()) || isOwner() */\n    tag_401:\n        /* \"input/CreateWin.sol\":5106:5226  require(isWhitelistAdmin(_msgSender()) || isOwner(), \"WhitelistAdminRole: caller does not have the WhitelistAdmin role\") */\n      tag_403\n      jumpi\n      mload(0x40)\n      0x08c379a000000000000000000000000000000000000000000000000000000000\n      dup2\n      mstore\n      0x04\n      add\n      dup1\n      dup1\n      0x20\n      add\n      dup3\n      dup2\n      sub\n      dup3\n      mstore\n      0x40\n      dup2\n      mstore\n      0x20\n      add\n      dup1\n      data_a092a330b9544809a41baf90fad5bb5d721d39e2ab6006aae3447e7f7e21c961\n      0x40\n      swap2\n      codecopy\n      0x40\n      add\n      swap2\n      pop\n      pop\n      mload(0x40)\n      dup1\n      swap2\n      sub\n      swap1\n      revert\n    tag_403:\n        /* \"input/CreateWin.sol\":13995:14001  uint i */\n      0x00\n        /* \"input/CreateWin.sol\":14004:14009  start */\n      dup3\n        /* \"input/CreateWin.sol\":13995:14009  uint i = start */\n      swap1\n      pop\n        /* \"input/CreateWin.sol\":13990:16723  for (uint i = start; i <= end; i++) {... */\n    tag_405:\n        /* \"input/CreateWin.sol\":14016:14019  end */\n      dup2\n        /* \"input/CreateWin.sol\":14011:14012  i */\n      dup2\n        /* \"input/CreateWin.sol\":14011:14019  i <= end */\n      gt\n        /* \"input/CreateWin.sol\":13990:16723  for (uint i = start; i <= end; i++) {... */\n      tag_406\n      jumpi\n        /* \"input/CreateWin.sol\":14031:14047  address userAddr */\n      0x00\n        /* \"input/CreateWin.sol\":14050:14062  indexMapping */\n      0x11\n        /* \"input/CreateWin.sol\":14050:14065  indexMapping[i] */\n      0x00\n        /* \"input/CreateWin.sol\":14063:14064  i */\n      dup4\n        /* \"input/CreateWin.sol\":14050:14065  indexMapping[i] */\n      dup2\n      mstore\n      0x20\n      add\n      swap1\n      dup2\n      mstore\n      0x20\n      add\n      0x00\n      keccak256\n      0x00\n      swap1\n      sload\n      swap1\n      0x0100\n      exp\n      swap1\n      div\n      0xffffffffffffffffffffffffffffffffffffffff\n      and\n        /* \"input/CreateWin.sol\":14031:14065  address userAddr = indexMapping[i] */\n      swap1\n      pop\n        /* \"input/CreateWin.sol\":14070:14087  User storage user */\n      0x00\n        /* \"input/CreateWin.sol\":14090:14106  userRoundMapping */\n      0x0e\n        /* \"input/CreateWin.sol\":14090:14111  userRoundMapping[rid] */\n      0x00\n        /* \"input/CreateWin.sol\":14107:14110  rid */\n      sload(0x0c)\n        /* \"input/CreateWin.sol\":14090:14111  userRoundMapping[rid] */\n      dup2\n      mstore\n      0x20\n      add\n      swap1\n      dup2\n      mstore\n      0x20\n      add\n      0x00\n      keccak256\n        /* \"input/CreateWin.sol\":14090:14121  userRoundMapping[rid][userAddr] */\n      0x00\n        /* \"input/CreateWin.sol\":14112:14120  userAddr */\n      dup4\n        /* \"input/CreateWin.sol\":14090:14121  userRoundMapping[rid][userAddr] */\n      0xffffffffffffffffffffffffffffffffffffffff\n      and\n      0xffffffffffffffffffffffffffffffffffffffff\n      and\n      dup2\n      mstore\n      0x20\n      add\n      swap1\n      dup2\n      mstore\n      0x20\n      add\n      0x00\n      keccak256\n        /* \"input/CreateWin.sol\":14070:14121  User storage user = userRoundMapping[rid][userAddr] */\n      swap1\n      pop\n        /* \"input/CreateWin.sol\":14126:14154  UserGlobal memory userGlobal */\n      tag_408\n      tag_284\n      jump\t// in\n    tag_408:\n        /* \"input/CreateWin.sol\":14157:14168  userMapping */\n      0x0f\n        /* \"input/CreateWin.sol\":14157:14178  userMapping[userAddr] */\n      0x00\n        /* \"input/CreateWin.sol\":14169:14177  userAddr */\n      dup5\n        /* \"input/CreateWin.sol\":14157:14178  userMapping[userAddr] */\n      0xffffffffffffffffffffffffffffffffffffffff\n      and\n      0xffffffffffffffffffffffffffffffffffffffff\n      and\n      dup2\n      mstore\n      0x20\n      add\n      swap1\n      dup2\n      mstore\n      0x20\n      add\n      0x00\n      keccak256\n        /* \"input/CreateWin.sol\":14126:14178  UserGlobal memory userGlobal = userMapping[userAddr] */\n      mload(0x40)\n      dup1\n      0xa0\n      add\n      0x40\n      mstore\n      swap1\n      dup2\n      0x00\n      dup3\n      add\n      sload\n      dup2\n      mstore\n      0x20\n      add\n      0x01\n      dup3\n      add\n      0x00\n      swap1\n      sload\n      swap1\n      0x0100\n      exp\n      swap1\n      div\n      0xffffffffffffffffffffffffffffffffffffffff\n      and\n      0xffffffffffffffffffffffffffffffffffffffff\n      and\n      0xffffffffffffffffffffffffffffffffffffffff\n      and\n      dup2\n      mstore\n      0x20\n      add\n      0x02\n      dup3\n      add\n      dup1\n      sload\n      0x01\n      dup2\n      0x01\n      and\n      iszero\n      0x0100\n      mul\n      sub\n      and\n      0x02\n      swap1\n      div\n      dup1\n      0x1f\n      add\n      0x20\n      dup1\n      swap2\n      div\n      mul\n      0x20\n      add\n      mload(0x40)\n      swap1\n      dup2\n      add\n      0x40\n      mstore\n      dup1\n      swap3\n      swap2\n      swap1\n      dup2\n      dup2\n      mstore\n      0x20\n      add\n      dup3\n      dup1\n      sload\n      0x01\n      dup2\n      0x01\n      and\n      iszero\n      0x0100\n      mul\n      sub\n      and\n      0x02\n      swap1\n      div\n      dup1\n      iszero\n      tag_409\n      jumpi\n      dup1\n      0x1f\n      lt\n      tag_410\n      jumpi\n      0x0100\n      dup1\n      dup4\n      sload\n      div\n      mul\n      dup4\n      mstore\n      swap2\n      0x20\n      add\n      swap2\n      jump(tag_409)\n    tag_410:\n      dup3\n      add\n      swap2\n      swap1\n      0x00\n      mstore\n      keccak256(0x00, 0x20)\n      swap1\n    tag_411:\n      dup2\n      sload\n      dup2\n      mstore\n      swap1\n      0x01\n      add\n      swap1\n      0x20\n      add\n      dup1\n      dup4\n      gt\n      tag_411\n      jumpi\n      dup3\n      swap1\n      sub\n      0x1f\n      and\n      dup3\n      add\n      swap2\n    tag_409:\n      pop\n      pop\n      pop\n      pop\n      pop\n      dup2\n      mstore\n      0x20\n      add\n      0x03\n      dup3\n      add\n      dup1\n      sload\n      0x01\n      dup2\n      0x01\n      and\n      iszero\n      0x0100\n      mul\n      sub\n      and\n      0x02\n      swap1\n      div\n      dup1\n      0x1f\n      add\n      0x20\n      dup1\n      swap2\n      div\n      mul\n      0x20\n      add\n      mload(0x40)\n      swap1\n      dup2\n      add\n      0x40\n      mstore\n      dup1\n      swap3\n      swap2\n      swap1\n      dup2\n      dup2\n      mstore\n      0x20\n      add\n      dup3\n      dup1\n      sload\n      0x01\n      dup2\n      0x01\n      and\n      iszero\n      0x0100\n      mul\n      sub\n      and\n      0x02\n      swap1\n      div\n      dup1\n      iszero\n      tag_412\n      jumpi\n      dup1\n      0x1f\n      lt\n      tag_413\n      jumpi\n      0x0100\n      dup1\n      dup4\n      sload\n      div\n      mul\n      dup4\n      mstore\n      swap2\n      0x20\n      add\n      swap2\n      jump(tag_412)\n    tag_413:\n      dup3\n      add\n      swap2\n      swap1\n      0x00\n      mstore\n      keccak256(0x00, 0x20)\n      swap1\n    tag_414:\n      dup2\n      sload\n      dup2\n      mstore\n      swap1\n      0x01\n      add\n      swap1\n      0x20\n      add\n      dup1\n      dup4\n      gt\n      tag_414\n      jumpi\n      dup3\n      swap1\n      sub\n      0x1f\n      and\n      dup3\n      add\n      swap2\n    tag_412:\n      pop\n      pop\n      pop\n      pop\n      pop\n      dup2\n      mstore\n      0x20\n      add\n      0x04\n      dup3\n      add\n      sload\n      dup2\n      mstore\n      pop\n      pop\n      swap1\n      pop\n        /* \"input/CreateWin.sol\":14215:14223  12 hours */\n      0xa8c0\n        /* \"input/CreateWin.sol\":14187:14211  now.sub(user.lastRwTime) */\n      tag_415\n        /* \"input/CreateWin.sol\":14195:14199  user */\n      dup4\n        /* \"input/CreateWin.sol\":14195:14210  user.lastRwTime */\n      0x0f\n      add\n      sload\n        /* \"input/CreateWin.sol\":14187:14190  now */\n      timestamp\n        /* \"input/CreateWin.sol\":14187:14194  now.sub */\n      tag_416\n      swap1\n        /* \"input/CreateWin.sol\":14187:14211  now.sub(user.lastRwTime) */\n      swap2\n      swap1\n      0xffffffff\n      and\n      jump\t// in\n    tag_415:\n        /* \"input/CreateWin.sol\":14187:14223  now.sub(user.lastRwTime) <= 12 hours */\n      gt\n        /* \"input/CreateWin.sol\":14183:14245  if (now.sub(user.lastRwTime) <= 12 hours) {... */\n      tag_417\n      jumpi\n        /* \"input/CreateWin.sol\":14231:14239  continue */\n      pop\n      pop\n      pop\n      jump(tag_407)\n        /* \"input/CreateWin.sol\":14183:14245  if (now.sub(user.lastRwTime) <= 12 hours) {... */\n    tag_417:\n        /* \"input/CreateWin.sol\":14267:14270  now */\n      timestamp\n        /* \"input/CreateWin.sol\":14249:14253  user */\n      dup3\n        /* \"input/CreateWin.sol\":14249:14264  user.lastRwTime */\n      0x0f\n      add\n        /* \"input/CreateWin.sol\":14249:14270  user.lastRwTime = now */\n      dup2\n      swap1\n      sstore\n      pop\n        /* \"input/CreateWin.sol\":14300:14301  1 */\n      0x01\n        /* \"input/CreateWin.sol\":14279:14289  userGlobal */\n      dup2\n        /* \"input/CreateWin.sol\":14279:14296  userGlobal.status */\n      0x80\n      add\n      mload\n        /* \"input/CreateWin.sol\":14279:14301  userGlobal.status == 1 */\n      eq\n        /* \"input/CreateWin.sol\":14275:14371  if (userGlobal.status == 1) {... */\n      iszero\n      tag_418\n      jumpi\n        /* \"input/CreateWin.sol\":14328:14351  user.rewardIndex.add(1) */\n      tag_419\n        /* \"input/CreateWin.sol\":14349:14350  1 */\n      0x01\n        /* \"input/CreateWin.sol\":14328:14332  user */\n      dup4\n        /* \"input/CreateWin.sol\":14328:14344  user.rewardIndex */\n      0x0e\n      add\n      sload\n        /* \"input/CreateWin.sol\":14328:14348  user.rewardIndex.add */\n      tag_248\n      swap1\n        /* \"input/CreateWin.sol\":14328:14351  user.rewardIndex.add(1) */\n      swap2\n      swap1\n      0xffffffff\n      and\n      jump\t// in\n    tag_419:\n        /* \"input/CreateWin.sol\":14309:14313  user */\n      dup3\n        /* \"input/CreateWin.sol\":14309:14325  user.rewardIndex */\n      0x0e\n      add\n        /* \"input/CreateWin.sol\":14309:14351  user.rewardIndex = user.rewardIndex.add(1) */\n      dup2\n      swap1\n      sstore\n      pop\n        /* \"input/CreateWin.sol\":14357:14365  continue */\n      pop\n      pop\n      pop\n      jump(tag_407)\n        /* \"input/CreateWin.sol\":14275:14371  if (userGlobal.status == 1) {... */\n    tag_418:\n        /* \"input/CreateWin.sol\":14375:14389  uint bonusSend */\n      0x00\n        /* \"input/CreateWin.sol\":14392:14393  0 */\n      dup1\n        /* \"input/CreateWin.sol\":14375:14393  uint bonusSend = 0 */\n      swap1\n      pop\n        /* \"input/CreateWin.sol\":14413:14414  0 */\n      0x00\n        /* \"input/CreateWin.sol\":14402:14406  user */\n      dup4\n        /* \"input/CreateWin.sol\":14402:14409  user.id */\n      0x00\n      add\n      sload\n        /* \"input/CreateWin.sol\":14402:14414  user.id != 0 */\n      eq\n      iszero\n        /* \"input/CreateWin.sol\":14402:14446  user.id != 0 && user.freezeAmount >= 1 ether */\n      dup1\n      iszero\n      tag_420\n      jumpi\n      pop\n        /* \"input/CreateWin.sol\":14439:14446  1 ether */\n      0x0de0b6b3a7640000\n        /* \"input/CreateWin.sol\":14418:14422  user */\n      dup4\n        /* \"input/CreateWin.sol\":14418:14435  user.freezeAmount */\n      0x03\n      add\n      sload\n        /* \"input/CreateWin.sol\":14418:14446  user.freezeAmount >= 1 ether */\n      lt\n      iszero\n        /* \"input/CreateWin.sol\":14402:14446  user.id != 0 && user.freezeAmount >= 1 ether */\n    tag_420:\n        /* \"input/CreateWin.sol\":14402:14481  user.id != 0 && user.freezeAmount >= 1 ether && user.freezeAmount <= bonuslimit */\n      dup1\n      iszero\n      tag_421\n      jumpi\n      pop\n        /* \"input/CreateWin.sol\":14471:14481  bonuslimit */\n      sload(0x13)\n        /* \"input/CreateWin.sol\":14450:14454  user */\n      dup4\n        /* \"input/CreateWin.sol\":14450:14467  user.freezeAmount */\n      0x03\n      add\n      sload\n        /* \"input/CreateWin.sol\":14450:14481  user.freezeAmount <= bonuslimit */\n      gt\n      iszero\n        /* \"input/CreateWin.sol\":14402:14481  user.id != 0 && user.freezeAmount >= 1 ether && user.freezeAmount <= bonuslimit */\n    tag_421:\n        /* \"input/CreateWin.sol\":14398:14827  if (user.id != 0 && user.freezeAmount >= 1 ether && user.freezeAmount <= bonuslimit) {... */\n      iszero\n      tag_422\n      jumpi\n        /* \"input/CreateWin.sol\":14512:14513  5 */\n      0x05\n        /* \"input/CreateWin.sol\":14493:14497  user */\n      dup4\n        /* \"input/CreateWin.sol\":14493:14509  user.investTimes */\n      0x0b\n      add\n      sload\n        /* \"input/CreateWin.sol\":14493:14513  user.investTimes < 5 */\n      lt\n        /* \"input/CreateWin.sol\":14489:14822  if (user.investTimes < 5) {... */\n      iszero\n      tag_423\n      jumpi\n        /* \"input/CreateWin.sol\":14535:14539  user */\n      dup3\n        /* \"input/CreateWin.sol\":14535:14554  user.dayBonusAmount */\n      0x06\n      add\n      sload\n        /* \"input/CreateWin.sol\":14522:14554  bonusSend += user.dayBonusAmount */\n      dup2\n      add\n      swap1\n      pop\n        /* \"input/CreateWin.sol\":14580:14611  user.bonusAmount.add(bonusSend) */\n      tag_424\n        /* \"input/CreateWin.sol\":14601:14610  bonusSend */\n      dup2\n        /* \"input/CreateWin.sol\":14580:14584  user */\n      dup5\n        /* \"input/CreateWin.sol\":14580:14596  user.bonusAmount */\n      0x07\n      add\n      sload\n        /* \"input/CreateWin.sol\":14580:14600  user.bonusAmount.add */\n      tag_248\n      swap1\n        /* \"input/CreateWin.sol\":14580:14611  user.bonusAmount.add(bonusSend) */\n      swap2\n      swap1\n      0xffffffff\n      and\n      jump\t// in\n    tag_424:\n        /* \"input/CreateWin.sol\":14561:14565  user */\n      dup4\n        /* \"input/CreateWin.sol\":14561:14577  user.bonusAmount */\n      0x07\n      add\n        /* \"input/CreateWin.sol\":14561:14611  user.bonusAmount = user.bonusAmount.add(bonusSend) */\n      dup2\n      swap1\n      sstore\n      pop\n        /* \"input/CreateWin.sol\":14637:14660  user.investTimes.add(1) */\n      tag_425\n        /* \"input/CreateWin.sol\":14658:14659  1 */\n      0x01\n        /* \"input/CreateWin.sol\":14637:14641  user */\n      dup5\n        /* \"input/CreateWin.sol\":14637:14653  user.investTimes */\n      0x0b\n      add\n      sload\n        /* \"input/CreateWin.sol\":14637:14657  user.investTimes.add */\n      tag_248\n      swap1\n        /* \"input/CreateWin.sol\":14637:14660  user.investTimes.add(1) */\n      swap2\n      swap1\n      0xffffffff\n      and\n      jump\t// in\n    tag_425:\n        /* \"input/CreateWin.sol\":14618:14622  user */\n      dup4\n        /* \"input/CreateWin.sol\":14618:14634  user.investTimes */\n      0x0b\n      add\n        /* \"input/CreateWin.sol\":14618:14660  user.investTimes = user.investTimes.add(1) */\n      dup2\n      swap1\n      sstore\n      pop\n        /* \"input/CreateWin.sol\":14489:14822  if (user.investTimes < 5) {... */\n      jump(tag_426)\n    tag_423:\n        /* \"input/CreateWin.sol\":14698:14736  user.freeAmount.add(user.freezeAmount) */\n      tag_427\n        /* \"input/CreateWin.sol\":14718:14722  user */\n      dup4\n        /* \"input/CreateWin.sol\":14718:14735  user.freezeAmount */\n      0x03\n      add\n      sload\n        /* \"input/CreateWin.sol\":14698:14702  user */\n      dup5\n        /* \"input/CreateWin.sol\":14698:14713  user.freeAmount */\n      0x02\n      add\n      sload\n        /* \"input/CreateWin.sol\":14698:14717  user.freeAmount.add */\n      tag_248\n      swap1\n        /* \"input/CreateWin.sol\":14698:14736  user.freeAmount.add(user.freezeAmount) */\n      swap2\n      swap1\n      0xffffffff\n      and\n      jump\t// in\n    tag_427:\n        /* \"input/CreateWin.sol\":14680:14684  user */\n      dup4\n        /* \"input/CreateWin.sol\":14680:14695  user.freeAmount */\n      0x02\n      add\n        /* \"input/CreateWin.sol\":14680:14736  user.freeAmount = user.freeAmount.add(user.freezeAmount) */\n      dup2\n      swap1\n      sstore\n      pop\n        /* \"input/CreateWin.sol\":14763:14764  0 */\n      0x00\n        /* \"input/CreateWin.sol\":14743:14747  user */\n      dup4\n        /* \"input/CreateWin.sol\":14743:14760  user.freezeAmount */\n      0x03\n      add\n        /* \"input/CreateWin.sol\":14743:14764  user.freezeAmount = 0 */\n      dup2\n      swap1\n      sstore\n      pop\n        /* \"input/CreateWin.sol\":14793:14794  0 */\n      0x00\n        /* \"input/CreateWin.sol\":14771:14775  user */\n      dup4\n        /* \"input/CreateWin.sol\":14771:14790  user.dayBonusAmount */\n      0x06\n      add\n        /* \"input/CreateWin.sol\":14771:14794  user.dayBonusAmount = 0 */\n      dup2\n      swap1\n      sstore\n      pop\n        /* \"input/CreateWin.sol\":14814:14815  0 */\n      0x00\n        /* \"input/CreateWin.sol\":14801:14805  user */\n      dup4\n        /* \"input/CreateWin.sol\":14801:14811  user.level */\n      0x08\n      add\n        /* \"input/CreateWin.sol\":14801:14815  user.level = 0 */\n      dup2\n      swap1\n      sstore\n      pop\n        /* \"input/CreateWin.sol\":14489:14822  if (user.investTimes < 5) {... */\n    tag_426:\n        /* \"input/CreateWin.sol\":14398:14827  if (user.id != 0 && user.freezeAmount >= 1 ether && user.freezeAmount <= bonuslimit) {... */\n    tag_422:\n        /* \"input/CreateWin.sol\":14831:14846  uint lineAmount */\n      0x00\n        /* \"input/CreateWin.sol\":14849:14908  user.freezeAmount.add(user.freeAmount).add(user.lineAmount) */\n      tag_428\n        /* \"input/CreateWin.sol\":14892:14896  user */\n      dup5\n        /* \"input/CreateWin.sol\":14892:14907  user.lineAmount */\n      0x04\n      add\n      sload\n        /* \"input/CreateWin.sol\":14849:14887  user.freezeAmount.add(user.freeAmount) */\n      tag_429\n        /* \"input/CreateWin.sol\":14871:14875  user */\n      dup7\n        /* \"input/CreateWin.sol\":14871:14886  user.freeAmount */\n      0x02\n      add\n      sload\n        /* \"input/CreateWin.sol\":14849:14853  user */\n      dup8\n        /* \"input/CreateWin.sol\":14849:14866  user.freezeAmount */\n      0x03\n      add\n      sload\n        /* \"input/CreateWin.sol\":14849:14870  user.freezeAmount.add */\n      tag_248\n      swap1\n        /* \"input/CreateWin.sol\":14849:14887  user.freezeAmount.add(user.freeAmount) */\n      swap2\n      swap1\n      0xffffffff\n      and\n      jump\t// in\n    tag_429:\n        /* \"input/CreateWin.sol\":14849:14891  user.freezeAmount.add(user.freeAmount).add */\n      tag_248\n      swap1\n        /* \"input/CreateWin.sol\":14849:14908  user.freezeAmount.add(user.freeAmount).add(user.lineAmount) */\n      swap2\n      swap1\n      0xffffffff\n      and\n      jump\t// in\n    tag_428:\n        /* \"input/CreateWin.sol\":14831:14908  uint lineAmount = user.freezeAmount.add(user.freeAmount).add(user.lineAmount) */\n      swap1\n      pop\n        /* \"input/CreateWin.sol\":14930:14937  1 ether */\n      0x0de0b6b3a7640000\n        /* \"input/CreateWin.sol\":14917:14927  lineAmount */\n      dup2\n        /* \"input/CreateWin.sol\":14917:14937  lineAmount < 1 ether */\n      lt\n        /* \"input/CreateWin.sol\":14917:14967  lineAmount < 1 ether || lineAmount > withdrawLimit */\n      dup1\n      tag_430\n      jumpi\n      pop\n        /* \"input/CreateWin.sol\":14954:14967  withdrawLimit */\n      sload(0x15)\n        /* \"input/CreateWin.sol\":14941:14951  lineAmount */\n      dup2\n        /* \"input/CreateWin.sol\":14941:14967  lineAmount > withdrawLimit */\n      gt\n        /* \"input/CreateWin.sol\":14917:14967  lineAmount < 1 ether || lineAmount > withdrawLimit */\n    tag_430:\n        /* \"input/CreateWin.sol\":14913:15037  if (lineAmount < 1 ether || lineAmount > withdrawLimit) {... */\n      iszero\n      tag_431\n      jumpi\n        /* \"input/CreateWin.sol\":14994:15017  user.rewardIndex.add(1) */\n      tag_432\n        /* \"input/CreateWin.sol\":15015:15016  1 */\n      0x01\n        /* \"input/CreateWin.sol\":14994:14998  user */\n      dup6\n        /* \"input/CreateWin.sol\":14994:15010  user.rewardIndex */\n      0x0e\n      add\n      sload\n        /* \"input/CreateWin.sol\":14994:15014  user.rewardIndex.add */\n      tag_248\n      swap1\n        /* \"input/CreateWin.sol\":14994:15017  user.rewardIndex.add(1) */\n      swap2\n      swap1\n      0xffffffff\n      and\n      jump\t// in\n    tag_432:\n        /* \"input/CreateWin.sol\":14975:14979  user */\n      dup5\n        /* \"input/CreateWin.sol\":14975:14991  user.rewardIndex */\n      0x0e\n      add\n        /* \"input/CreateWin.sol\":14975:15017  user.rewardIndex = user.rewardIndex.add(1) */\n      dup2\n      swap1\n      sstore\n      pop\n        /* \"input/CreateWin.sol\":15023:15031  continue */\n      pop\n      pop\n      pop\n      pop\n      pop\n      jump(tag_407)\n        /* \"input/CreateWin.sol\":14913:15037  if (lineAmount < 1 ether || lineAmount > withdrawLimit) {... */\n    tag_431:\n        /* \"input/CreateWin.sol\":15041:15056  uint inviteSend */\n      0x00\n        /* \"input/CreateWin.sol\":15059:15060  0 */\n      dup1\n        /* \"input/CreateWin.sol\":15041:15060  uint inviteSend = 0 */\n      swap1\n      pop\n        /* \"input/CreateWin.sol\":15090:15091  0 */\n      0x00\n        /* \"input/CreateWin.sol\":15069:15079  userGlobal */\n      dup5\n        /* \"input/CreateWin.sol\":15069:15086  userGlobal.status */\n      0x80\n      add\n      mload\n        /* \"input/CreateWin.sol\":15069:15091  userGlobal.status == 0 */\n      eq\n        /* \"input/CreateWin.sol\":15065:16195  if (userGlobal.status == 0) {... */\n      iszero\n      tag_433\n      jumpi\n        /* \"input/CreateWin.sol\":15099:15122  AwardData memory awData */\n      tag_434\n      tag_317\n      jump\t// in\n    tag_434:\n        /* \"input/CreateWin.sol\":15125:15145  userAwardDataMapping */\n      0x12\n        /* \"input/CreateWin.sol\":15125:15150  userAwardDataMapping[rid] */\n      0x00\n        /* \"input/CreateWin.sol\":15146:15149  rid */\n      sload(0x0c)\n        /* \"input/CreateWin.sol\":15125:15150  userAwardDataMapping[rid] */\n      dup2\n      mstore\n      0x20\n      add\n      swap1\n      dup2\n      mstore\n      0x20\n      add\n      0x00\n      keccak256\n        /* \"input/CreateWin.sol\":15125:15160  userAwardDataMapping[rid][userAddr] */\n      0x00\n        /* \"input/CreateWin.sol\":15151:15159  userAddr */\n      dup9\n        /* \"input/CreateWin.sol\":15125:15160  userAwardDataMapping[rid][userAddr] */\n      0xffffffffffffffffffffffffffffffffffffffff\n      and\n      0xffffffffffffffffffffffffffffffffffffffff\n      and\n      dup2\n      mstore\n      0x20\n      add\n      swap1\n      dup2\n      mstore\n      0x20\n      add\n      0x00\n      keccak256\n        /* \"input/CreateWin.sol\":15125:15178  userAwardDataMapping[rid][userAddr][user.rewardIndex] */\n      0x00\n        /* \"input/CreateWin.sol\":15161:15165  user */\n      dup8\n        /* \"input/CreateWin.sol\":15161:15177  user.rewardIndex */\n      0x0e\n      add\n      sload\n        /* \"input/CreateWin.sol\":15125:15178  userAwardDataMapping[rid][userAddr][user.rewardIndex] */\n      dup2\n      mstore\n      0x20\n      add\n      swap1\n      dup2\n      mstore\n      0x20\n      add\n      0x00\n      keccak256\n        /* \"input/CreateWin.sol\":15099:15178  AwardData memory awData = userAwardDataMapping[rid][userAddr][user.rewardIndex] */\n      mload(0x40)\n      dup1\n      0x60\n      add\n      0x40\n      mstore\n      swap1\n      dup2\n      0x00\n      dup3\n      add\n      sload\n      dup2\n      mstore\n      0x20\n      add\n      0x01\n      dup3\n      add\n      sload\n      dup2\n      mstore\n      0x20\n      add\n      0x02\n      dup3\n      add\n      sload\n      dup2\n      mstore\n      pop\n      pop\n      swap1\n      pop\n        /* \"input/CreateWin.sol\":15203:15226  user.rewardIndex.add(1) */\n      tag_435\n        /* \"input/CreateWin.sol\":15224:15225  1 */\n      0x01\n        /* \"input/CreateWin.sol\":15203:15207  user */\n      dup8\n        /* \"input/CreateWin.sol\":15203:15219  user.rewardIndex */\n      0x0e\n      add\n      sload\n        /* \"input/CreateWin.sol\":15203:15223  user.rewardIndex.add */\n      tag_248\n      swap1\n        /* \"input/CreateWin.sol\":15203:15226  user.rewardIndex.add(1) */\n      swap2\n      swap1\n      0xffffffff\n      and\n      jump\t// in\n    tag_435:\n        /* \"input/CreateWin.sol\":15184:15188  user */\n      dup7\n        /* \"input/CreateWin.sol\":15184:15200  user.rewardIndex */\n      0x0e\n      add\n        /* \"input/CreateWin.sol\":15184:15226  user.rewardIndex = user.rewardIndex.add(1) */\n      dup2\n      swap1\n      sstore\n      pop\n        /* \"input/CreateWin.sol\":15232:15246  uint lineValue */\n      0x00\n        /* \"input/CreateWin.sol\":15249:15271  lineAmount.div(ethWei) */\n      tag_436\n        /* \"input/CreateWin.sol\":15264:15270  ethWei */\n      sload(0x03)\n        /* \"input/CreateWin.sol\":15249:15259  lineAmount */\n      dup6\n        /* \"input/CreateWin.sol\":15249:15263  lineAmount.div */\n      tag_225\n      swap1\n        /* \"input/CreateWin.sol\":15249:15271  lineAmount.div(ethWei) */\n      swap2\n      swap1\n      0xffffffff\n      and\n      jump\t// in\n    tag_436:\n        /* \"input/CreateWin.sol\":15232:15271  uint lineValue = lineAmount.div(ethWei) */\n      swap1\n      pop\n        /* \"input/CreateWin.sol\":15294:15296  15 */\n      0x0f\n        /* \"input/CreateWin.sol\":15281:15290  lineValue */\n      dup2\n        /* \"input/CreateWin.sol\":15281:15296  lineValue >= 15 */\n      lt\n        /* \"input/CreateWin.sol\":15277:16102  if (lineValue >= 15) {... */\n      tag_437\n      jumpi\n        /* \"input/CreateWin.sol\":15319:15325  awData */\n      dup2\n        /* \"input/CreateWin.sol\":15319:15340  awData.threeInvAmount */\n      0x40\n      add\n      mload\n        /* \"input/CreateWin.sol\":15305:15340  inviteSend += awData.threeInvAmount */\n      dup4\n      add\n      swap3\n      pop\n        /* \"input/CreateWin.sol\":15277:16102  if (lineValue >= 15) {... */\n      jump(tag_438)\n    tag_437:\n        /* \"input/CreateWin.sol\":15382:15383  1 */\n      0x01\n        /* \"input/CreateWin.sol\":15364:15368  user */\n      dup8\n        /* \"input/CreateWin.sol\":15364:15378  user.lineLevel */\n      0x09\n      add\n      sload\n        /* \"input/CreateWin.sol\":15364:15383  user.lineLevel == 1 */\n      eq\n        /* \"input/CreateWin.sol\":15364:15408  user.lineLevel == 1 && lineAmount >= 1 ether */\n      dup1\n      iszero\n      tag_439\n      jumpi\n      pop\n        /* \"input/CreateWin.sol\":15401:15408  1 ether */\n      0x0de0b6b3a7640000\n        /* \"input/CreateWin.sol\":15387:15397  lineAmount */\n      dup5\n        /* \"input/CreateWin.sol\":15387:15408  lineAmount >= 1 ether */\n      lt\n      iszero\n        /* \"input/CreateWin.sol\":15364:15408  user.lineLevel == 1 && lineAmount >= 1 ether */\n    tag_439:\n        /* \"input/CreateWin.sol\":15364:15435  user.lineLevel == 1 && lineAmount >= 1 ether && awData.oneInvAmount > 0 */\n      dup1\n      iszero\n      tag_440\n      jumpi\n      pop\n        /* \"input/CreateWin.sol\":15434:15435  0 */\n      0x00\n        /* \"input/CreateWin.sol\":15412:15418  awData */\n      dup3\n        /* \"input/CreateWin.sol\":15412:15431  awData.oneInvAmount */\n      0x00\n      add\n      mload\n        /* \"input/CreateWin.sol\":15412:15435  awData.oneInvAmount > 0 */\n      gt\n        /* \"input/CreateWin.sol\":15364:15435  user.lineLevel == 1 && lineAmount >= 1 ether && awData.oneInvAmount > 0 */\n    tag_440:\n        /* \"input/CreateWin.sol\":15360:15516  if (user.lineLevel == 1 && lineAmount >= 1 ether && awData.oneInvAmount > 0) {... */\n      iszero\n      tag_441\n      jumpi\n        /* \"input/CreateWin.sol\":15459:15508  awData.oneInvAmount.div(15).mul(lineValue).div(2) */\n      tag_442\n        /* \"input/CreateWin.sol\":15506:15507  2 */\n      0x02\n        /* \"input/CreateWin.sol\":15459:15501  awData.oneInvAmount.div(15).mul(lineValue) */\n      tag_443\n        /* \"input/CreateWin.sol\":15491:15500  lineValue */\n      dup4\n        /* \"input/CreateWin.sol\":15459:15486  awData.oneInvAmount.div(15) */\n      tag_444\n        /* \"input/CreateWin.sol\":15483:15485  15 */\n      0x0f\n        /* \"input/CreateWin.sol\":15459:15465  awData */\n      dup8\n        /* \"input/CreateWin.sol\":15459:15478  awData.oneInvAmount */\n      0x00\n      add\n      mload\n        /* \"input/CreateWin.sol\":15459:15482  awData.oneInvAmount.div */\n      tag_225\n      swap1\n        /* \"input/CreateWin.sol\":15459:15486  awData.oneInvAmount.div(15) */\n      swap2\n      swap1\n      0xffffffff\n      and\n      jump\t// in\n    tag_444:\n        /* \"input/CreateWin.sol\":15459:15490  awData.oneInvAmount.div(15).mul */\n      tag_226\n      swap1\n        /* \"input/CreateWin.sol\":15459:15501  awData.oneInvAmount.div(15).mul(lineValue) */\n      swap2\n      swap1\n      0xffffffff\n      and\n      jump\t// in\n    tag_443:\n        /* \"input/CreateWin.sol\":15459:15505  awData.oneInvAmount.div(15).mul(lineValue).div */\n      tag_225\n      swap1\n        /* \"input/CreateWin.sol\":15459:15508  awData.oneInvAmount.div(15).mul(lineValue).div(2) */\n      swap2\n      swap1\n      0xffffffff\n      and\n      jump\t// in\n    tag_442:\n        /* \"input/CreateWin.sol\":15445:15508  inviteSend += awData.oneInvAmount.div(15).mul(lineValue).div(2) */\n      dup4\n      add\n      swap3\n      pop\n        /* \"input/CreateWin.sol\":15360:15516  if (user.lineLevel == 1 && lineAmount >= 1 ether && awData.oneInvAmount > 0) {... */\n    tag_441:\n        /* \"input/CreateWin.sol\":15544:15545  2 */\n      0x02\n        /* \"input/CreateWin.sol\":15526:15530  user */\n      dup8\n        /* \"input/CreateWin.sol\":15526:15540  user.lineLevel */\n      0x09\n      add\n      sload\n        /* \"input/CreateWin.sol\":15526:15545  user.lineLevel == 2 */\n      eq\n        /* \"input/CreateWin.sol\":15526:15570  user.lineLevel == 2 && lineAmount >= 6 ether */\n      dup1\n      iszero\n      tag_445\n      jumpi\n      pop\n        /* \"input/CreateWin.sol\":15563:15570  6 ether */\n      0x53444835ec580000\n        /* \"input/CreateWin.sol\":15549:15559  lineAmount */\n      dup5\n        /* \"input/CreateWin.sol\":15549:15570  lineAmount >= 6 ether */\n      lt\n      iszero\n        /* \"input/CreateWin.sol\":15526:15570  user.lineLevel == 2 && lineAmount >= 6 ether */\n    tag_445:\n        /* \"input/CreateWin.sol\":15526:15626  user.lineLevel == 2 && lineAmount >= 6 ether && (awData.oneInvAmount > 0 || awData.twoInvAmount > 0) */\n      dup1\n      iszero\n      tag_446\n      jumpi\n      pop\n        /* \"input/CreateWin.sol\":15597:15598  0 */\n      0x00\n        /* \"input/CreateWin.sol\":15575:15581  awData */\n      dup3\n        /* \"input/CreateWin.sol\":15575:15594  awData.oneInvAmount */\n      0x00\n      add\n      mload\n        /* \"input/CreateWin.sol\":15575:15598  awData.oneInvAmount > 0 */\n      gt\n        /* \"input/CreateWin.sol\":15575:15625  awData.oneInvAmount > 0 || awData.twoInvAmount > 0 */\n      dup1\n      tag_447\n      jumpi\n      pop\n        /* \"input/CreateWin.sol\":15624:15625  0 */\n      0x00\n        /* \"input/CreateWin.sol\":15602:15608  awData */\n      dup3\n        /* \"input/CreateWin.sol\":15602:15621  awData.twoInvAmount */\n      0x20\n      add\n      mload\n        /* \"input/CreateWin.sol\":15602:15625  awData.twoInvAmount > 0 */\n      gt\n        /* \"input/CreateWin.sol\":15575:15625  awData.oneInvAmount > 0 || awData.twoInvAmount > 0 */\n    tag_447:\n        /* \"input/CreateWin.sol\":15526:15626  user.lineLevel == 2 && lineAmount >= 6 ether && (awData.oneInvAmount > 0 || awData.twoInvAmount > 0) */\n    tag_446:\n        /* \"input/CreateWin.sol\":15522:15793  if (user.lineLevel == 2 && lineAmount >= 6 ether && (awData.oneInvAmount > 0 || awData.twoInvAmount > 0)) {... */\n      iszero\n      tag_448\n      jumpi\n        /* \"input/CreateWin.sol\":15650:15707  awData.oneInvAmount.div(15).mul(lineValue).mul(7).div(10) */\n      tag_449\n        /* \"input/CreateWin.sol\":15704:15706  10 */\n      0x0a\n        /* \"input/CreateWin.sol\":15650:15699  awData.oneInvAmount.div(15).mul(lineValue).mul(7) */\n      tag_450\n        /* \"input/CreateWin.sol\":15697:15698  7 */\n      0x07\n        /* \"input/CreateWin.sol\":15650:15692  awData.oneInvAmount.div(15).mul(lineValue) */\n      tag_451\n        /* \"input/CreateWin.sol\":15682:15691  lineValue */\n      dup6\n        /* \"input/CreateWin.sol\":15650:15677  awData.oneInvAmount.div(15) */\n      tag_452\n        /* \"input/CreateWin.sol\":15674:15676  15 */\n      0x0f\n        /* \"input/CreateWin.sol\":15650:15656  awData */\n      dup10\n        /* \"input/CreateWin.sol\":15650:15669  awData.oneInvAmount */\n      0x00\n      add\n      mload\n        /* \"input/CreateWin.sol\":15650:15673  awData.oneInvAmount.div */\n      tag_225\n      swap1\n        /* \"input/CreateWin.sol\":15650:15677  awData.oneInvAmount.div(15) */\n      swap2\n      swap1\n      0xffffffff\n      and\n      jump\t// in\n    tag_452:\n        /* \"input/CreateWin.sol\":15650:15681  awData.oneInvAmount.div(15).mul */\n      tag_226\n      swap1\n        /* \"input/CreateWin.sol\":15650:15692  awData.oneInvAmount.div(15).mul(lineValue) */\n      swap2\n      swap1\n      0xffffffff\n      and\n      jump\t// in\n    tag_451:\n        /* \"input/CreateWin.sol\":15650:15696  awData.oneInvAmount.div(15).mul(lineValue).mul */\n      tag_226\n      swap1\n        /* \"input/CreateWin.sol\":15650:15699  awData.oneInvAmount.div(15).mul(lineValue).mul(7) */\n      swap2\n      swap1\n      0xffffffff\n      and\n      jump\t// in\n    tag_450:\n        /* \"input/CreateWin.sol\":15650:15703  awData.oneInvAmount.div(15).mul(lineValue).mul(7).div */\n      tag_225\n      swap1\n        /* \"input/CreateWin.sol\":15650:15707  awData.oneInvAmount.div(15).mul(lineValue).mul(7).div(10) */\n      swap2\n      swap1\n      0xffffffff\n      and\n      jump\t// in\n    tag_449:\n        /* \"input/CreateWin.sol\":15636:15707  inviteSend += awData.oneInvAmount.div(15).mul(lineValue).mul(7).div(10) */\n      dup4\n      add\n      swap3\n      pop\n        /* \"input/CreateWin.sol\":15729:15785  awData.twoInvAmount.div(15).mul(lineValue).mul(5).div(7) */\n      tag_453\n        /* \"input/CreateWin.sol\":15783:15784  7 */\n      0x07\n        /* \"input/CreateWin.sol\":15729:15778  awData.twoInvAmount.div(15).mul(lineValue).mul(5) */\n      tag_454\n        /* \"input/CreateWin.sol\":15776:15777  5 */\n      0x05\n        /* \"input/CreateWin.sol\":15729:15771  awData.twoInvAmount.div(15).mul(lineValue) */\n      tag_455\n        /* \"input/CreateWin.sol\":15761:15770  lineValue */\n      dup6\n        /* \"input/CreateWin.sol\":15729:15756  awData.twoInvAmount.div(15) */\n      tag_456\n        /* \"input/CreateWin.sol\":15753:15755  15 */\n      0x0f\n        /* \"input/CreateWin.sol\":15729:15735  awData */\n      dup10\n        /* \"input/CreateWin.sol\":15729:15748  awData.twoInvAmount */\n      0x20\n      add\n      mload\n        /* \"input/CreateWin.sol\":15729:15752  awData.twoInvAmount.div */\n      tag_225\n      swap1\n        /* \"input/CreateWin.sol\":15729:15756  awData.twoInvAmount.div(15) */\n      swap2\n      swap1\n      0xffffffff\n      and\n      jump\t// in\n    tag_456:\n        /* \"input/CreateWin.sol\":15729:15760  awData.twoInvAmount.div(15).mul */\n      tag_226\n      swap1\n        /* \"input/CreateWin.sol\":15729:15771  awData.twoInvAmount.div(15).mul(lineValue) */\n      swap2\n      swap1\n      0xffffffff\n      and\n      jump\t// in\n    tag_455:\n        /* \"input/CreateWin.sol\":15729:15775  awData.twoInvAmount.div(15).mul(lineValue).mul */\n      tag_226\n      swap1\n        /* \"input/CreateWin.sol\":15729:15778  awData.twoInvAmount.div(15).mul(lineValue).mul(5) */\n      swap2\n      swap1\n      0xffffffff\n      and\n      jump\t// in\n    tag_454:\n        /* \"input/CreateWin.sol\":15729:15782  awData.twoInvAmount.div(15).mul(lineValue).mul(5).div */\n      tag_225\n      swap1\n        /* \"input/CreateWin.sol\":15729:15785  awData.twoInvAmount.div(15).mul(lineValue).mul(5).div(7) */\n      swap2\n      swap1\n      0xffffffff\n      and\n      jump\t// in\n    tag_453:\n        /* \"input/CreateWin.sol\":15715:15785  inviteSend += awData.twoInvAmount.div(15).mul(lineValue).mul(5).div(7) */\n      dup4\n      add\n      swap3\n      pop\n        /* \"input/CreateWin.sol\":15522:15793  if (user.lineLevel == 2 && lineAmount >= 6 ether && (awData.oneInvAmount > 0 || awData.twoInvAmount > 0)) {... */\n    tag_448:\n        /* \"input/CreateWin.sol\":15821:15822  3 */\n      0x03\n        /* \"input/CreateWin.sol\":15803:15807  user */\n      dup8\n        /* \"input/CreateWin.sol\":15803:15817  user.lineLevel */\n      0x09\n      add\n      sload\n        /* \"input/CreateWin.sol\":15803:15822  user.lineLevel == 3 */\n      eq\n        /* \"input/CreateWin.sol\":15803:15848  user.lineLevel == 3 && lineAmount >= 11 ether */\n      dup1\n      iszero\n      tag_457\n      jumpi\n      pop\n        /* \"input/CreateWin.sol\":15840:15848  11 ether */\n      0x98a7d9b8314c0000\n        /* \"input/CreateWin.sol\":15826:15836  lineAmount */\n      dup5\n        /* \"input/CreateWin.sol\":15826:15848  lineAmount >= 11 ether */\n      lt\n      iszero\n        /* \"input/CreateWin.sol\":15803:15848  user.lineLevel == 3 && lineAmount >= 11 ether */\n    tag_457:\n        /* \"input/CreateWin.sol\":15803:15877  user.lineLevel == 3 && lineAmount >= 11 ether && awData.threeInvAmount > 0 */\n      dup1\n      iszero\n      tag_458\n      jumpi\n      pop\n        /* \"input/CreateWin.sol\":15876:15877  0 */\n      0x00\n        /* \"input/CreateWin.sol\":15852:15858  awData */\n      dup3\n        /* \"input/CreateWin.sol\":15852:15873  awData.threeInvAmount */\n      0x40\n      add\n      mload\n        /* \"input/CreateWin.sol\":15852:15877  awData.threeInvAmount > 0 */\n      gt\n        /* \"input/CreateWin.sol\":15803:15877  user.lineLevel == 3 && lineAmount >= 11 ether && awData.threeInvAmount > 0 */\n    tag_458:\n        /* \"input/CreateWin.sol\":15799:15953  if (user.lineLevel == 3 && lineAmount >= 11 ether && awData.threeInvAmount > 0) {... */\n      iszero\n      tag_459\n      jumpi\n        /* \"input/CreateWin.sol\":15901:15945  awData.threeInvAmount.div(15).mul(lineValue) */\n      tag_460\n        /* \"input/CreateWin.sol\":15935:15944  lineValue */\n      dup2\n        /* \"input/CreateWin.sol\":15901:15930  awData.threeInvAmount.div(15) */\n      tag_461\n        /* \"input/CreateWin.sol\":15927:15929  15 */\n      0x0f\n        /* \"input/CreateWin.sol\":15901:15907  awData */\n      dup6\n        /* \"input/CreateWin.sol\":15901:15922  awData.threeInvAmount */\n      0x40\n      add\n      mload\n        /* \"input/CreateWin.sol\":15901:15926  awData.threeInvAmount.div */\n      tag_225\n      swap1\n        /* \"input/CreateWin.sol\":15901:15930  awData.threeInvAmount.div(15) */\n      swap2\n      swap1\n      0xffffffff\n      and\n      jump\t// in\n    tag_461:\n        /* \"input/CreateWin.sol\":15901:15934  awData.threeInvAmount.div(15).mul */\n      tag_226\n      swap1\n        /* \"input/CreateWin.sol\":15901:15945  awData.threeInvAmount.div(15).mul(lineValue) */\n      swap2\n      swap1\n      0xffffffff\n      and\n      jump\t// in\n    tag_460:\n        /* \"input/CreateWin.sol\":15887:15945  inviteSend += awData.threeInvAmount.div(15).mul(lineValue) */\n      dup4\n      add\n      swap3\n      pop\n        /* \"input/CreateWin.sol\":15799:15953  if (user.lineLevel == 3 && lineAmount >= 11 ether && awData.threeInvAmount > 0) {... */\n    tag_459:\n        /* \"input/CreateWin.sol\":15980:15981  3 */\n      0x03\n        /* \"input/CreateWin.sol\":15963:15967  user */\n      dup8\n        /* \"input/CreateWin.sol\":15963:15977  user.lineLevel */\n      0x09\n      add\n      sload\n        /* \"input/CreateWin.sol\":15963:15981  user.lineLevel < 3 */\n      lt\n        /* \"input/CreateWin.sol\":15959:16096  if (user.lineLevel < 3) {... */\n      iszero\n      tag_462\n      jumpi\n        /* \"input/CreateWin.sol\":15991:16002  uint fireSc */\n      0x00\n        /* \"input/CreateWin.sol\":16005:16037  getFireScByLevel(user.lineLevel) */\n      tag_463\n        /* \"input/CreateWin.sol\":16022:16026  user */\n      dup9\n        /* \"input/CreateWin.sol\":16022:16036  user.lineLevel */\n      0x09\n      add\n      sload\n        /* \"input/CreateWin.sol\":16005:16021  getFireScByLevel */\n      tag_175\n        /* \"input/CreateWin.sol\":16005:16037  getFireScByLevel(user.lineLevel) */\n      jump\t// in\n    tag_463:\n        /* \"input/CreateWin.sol\":15991:16037  uint fireSc = getFireScByLevel(user.lineLevel) */\n      swap1\n      pop\n        /* \"input/CreateWin.sol\":16058:16088  inviteSend.mul(fireSc).div(10) */\n      tag_464\n        /* \"input/CreateWin.sol\":16085:16087  10 */\n      0x0a\n        /* \"input/CreateWin.sol\":16058:16080  inviteSend.mul(fireSc) */\n      tag_465\n        /* \"input/CreateWin.sol\":16073:16079  fireSc */\n      dup4\n        /* \"input/CreateWin.sol\":16058:16068  inviteSend */\n      dup8\n        /* \"input/CreateWin.sol\":16058:16072  inviteSend.mul */\n      tag_226\n      swap1\n        /* \"input/CreateWin.sol\":16058:16080  inviteSend.mul(fireSc) */\n      swap2\n      swap1\n      0xffffffff\n      and\n      jump\t// in\n    tag_465:\n        /* \"input/CreateWin.sol\":16058:16084  inviteSend.mul(fireSc).div */\n      tag_225\n      swap1\n        /* \"input/CreateWin.sol\":16058:16088  inviteSend.mul(fireSc).div(10) */\n      swap2\n      swap1\n      0xffffffff\n      and\n      jump\t// in\n    tag_464:\n        /* \"input/CreateWin.sol\":16045:16088  inviteSend = inviteSend.mul(fireSc).div(10) */\n      swap4\n      pop\n        /* \"input/CreateWin.sol\":15959:16096  if (user.lineLevel < 3) {... */\n      pop\n    tag_462:\n        /* \"input/CreateWin.sol\":15277:16102  if (lineValue >= 15) {... */\n    tag_438:\n        /* \"input/CreateWin.sol\":15065:16195  if (userGlobal.status == 0) {... */\n      pop\n      pop\n      jump(tag_466)\n    tag_433:\n        /* \"input/CreateWin.sol\":16138:16139  2 */\n      0x02\n        /* \"input/CreateWin.sol\":16117:16127  userGlobal */\n      dup5\n        /* \"input/CreateWin.sol\":16117:16134  userGlobal.status */\n      0x80\n      add\n      mload\n        /* \"input/CreateWin.sol\":16117:16139  userGlobal.status == 2 */\n      eq\n        /* \"input/CreateWin.sol\":16113:16195  if (userGlobal.status == 2) {... */\n      iszero\n      tag_467\n      jumpi\n        /* \"input/CreateWin.sol\":16166:16189  user.rewardIndex.add(1) */\n      tag_468\n        /* \"input/CreateWin.sol\":16187:16188  1 */\n      0x01\n        /* \"input/CreateWin.sol\":16166:16170  user */\n      dup7\n        /* \"input/CreateWin.sol\":16166:16182  user.rewardIndex */\n      0x0e\n      add\n      sload\n        /* \"input/CreateWin.sol\":16166:16186  user.rewardIndex.add */\n      tag_248\n      swap1\n        /* \"input/CreateWin.sol\":16166:16189  user.rewardIndex.add(1) */\n      swap2\n      swap1\n      0xffffffff\n      and\n      jump\t// in\n    tag_468:\n        /* \"input/CreateWin.sol\":16147:16151  user */\n      dup6\n        /* \"input/CreateWin.sol\":16147:16163  user.rewardIndex */\n      0x0e\n      add\n        /* \"input/CreateWin.sol\":16147:16189  user.rewardIndex = user.rewardIndex.add(1) */\n      dup2\n      swap1\n      sstore\n      pop\n        /* \"input/CreateWin.sol\":16113:16195  if (userGlobal.status == 2) {... */\n    tag_467:\n        /* \"input/CreateWin.sol\":15065:16195  if (userGlobal.status == 0) {... */\n    tag_466:\n        /* \"input/CreateWin.sol\":16233:16242  sendLimit */\n      sload(0x14)\n        /* \"input/CreateWin.sol\":16204:16229  bonusSend.add(inviteSend) */\n      tag_469\n        /* \"input/CreateWin.sol\":16218:16228  inviteSend */\n      dup3\n        /* \"input/CreateWin.sol\":16204:16213  bonusSend */\n      dup6\n        /* \"input/CreateWin.sol\":16204:16217  bonusSend.add */\n      tag_248\n      swap1\n        /* \"input/CreateWin.sol\":16204:16229  bonusSend.add(inviteSend) */\n      swap2\n      swap1\n      0xffffffff\n      and\n      jump\t// in\n    tag_469:\n        /* \"input/CreateWin.sol\":16204:16242  bonusSend.add(inviteSend) <= sendLimit */\n      gt\n        /* \"input/CreateWin.sol\":16200:16719  if (bonusSend.add(inviteSend) <= sendLimit) {... */\n      tag_470\n      jumpi\n        /* \"input/CreateWin.sol\":16270:16303  user.inviteAmonut.add(inviteSend) */\n      tag_471\n        /* \"input/CreateWin.sol\":16292:16302  inviteSend */\n      dup2\n        /* \"input/CreateWin.sol\":16270:16274  user */\n      dup7\n        /* \"input/CreateWin.sol\":16270:16287  user.inviteAmonut */\n      0x05\n      add\n      sload\n        /* \"input/CreateWin.sol\":16270:16291  user.inviteAmonut.add */\n      tag_248\n      swap1\n        /* \"input/CreateWin.sol\":16270:16303  user.inviteAmonut.add(inviteSend) */\n      swap2\n      swap1\n      0xffffffff\n      and\n      jump\t// in\n    tag_471:\n        /* \"input/CreateWin.sol\":16250:16254  user */\n      dup6\n        /* \"input/CreateWin.sol\":16250:16267  user.inviteAmonut */\n      0x05\n      add\n        /* \"input/CreateWin.sol\":16250:16303  user.inviteAmonut = user.inviteAmonut.add(inviteSend) */\n      dup2\n      swap1\n      sstore\n      pop\n        /* \"input/CreateWin.sol\":16309:16322  bool isEnough */\n      0x00\n        /* \"input/CreateWin.sol\":16325:16330  false */\n      dup1\n        /* \"input/CreateWin.sol\":16309:16330  bool isEnough = false */\n      swap1\n      pop\n        /* \"input/CreateWin.sol\":16336:16352  uint resultMoney */\n      0x00\n        /* \"input/CreateWin.sol\":16355:16356  0 */\n      dup1\n        /* \"input/CreateWin.sol\":16336:16356  uint resultMoney = 0 */\n      swap1\n      pop\n        /* \"input/CreateWin.sol\":16388:16430  isEnoughBalance(bonusSend.add(inviteSend)) */\n      tag_472\n        /* \"input/CreateWin.sol\":16404:16429  bonusSend.add(inviteSend) */\n      tag_473\n        /* \"input/CreateWin.sol\":16418:16428  inviteSend */\n      dup5\n        /* \"input/CreateWin.sol\":16404:16413  bonusSend */\n      dup8\n        /* \"input/CreateWin.sol\":16404:16417  bonusSend.add */\n      tag_248\n      swap1\n        /* \"input/CreateWin.sol\":16404:16429  bonusSend.add(inviteSend) */\n      swap2\n      swap1\n      0xffffffff\n      and\n      jump\t// in\n    tag_473:\n        /* \"input/CreateWin.sol\":16388:16403  isEnoughBalance */\n      tag_474\n        /* \"input/CreateWin.sol\":16388:16430  isEnoughBalance(bonusSend.add(inviteSend)) */\n      jump\t// in\n    tag_472:\n        /* \"input/CreateWin.sol\":16362:16430  (isEnough, resultMoney) = isEnoughBalance(bonusSend.add(inviteSend)) */\n      dup1\n      swap3\n      pop\n      dup2\n      swap4\n      pop\n      pop\n      pop\n        /* \"input/CreateWin.sol\":16454:16455  0 */\n      0x00\n        /* \"input/CreateWin.sol\":16440:16451  resultMoney */\n      dup2\n        /* \"input/CreateWin.sol\":16440:16455  resultMoney > 0 */\n      gt\n        /* \"input/CreateWin.sol\":16436:16714  if (resultMoney > 0) {... */\n      iszero\n      tag_475\n      jumpi\n        /* \"input/CreateWin.sol\":16464:16481  uint confortMoney */\n      0x00\n        /* \"input/CreateWin.sol\":16484:16503  resultMoney.div(10) */\n      tag_476\n        /* \"input/CreateWin.sol\":16500:16502  10 */\n      0x0a\n        /* \"input/CreateWin.sol\":16484:16495  resultMoney */\n      dup4\n        /* \"input/CreateWin.sol\":16484:16499  resultMoney.div */\n      tag_225\n      swap1\n        /* \"input/CreateWin.sol\":16484:16503  resultMoney.div(10) */\n      swap2\n      swap1\n      0xffffffff\n      and\n      jump\t// in\n    tag_476:\n        /* \"input/CreateWin.sol\":16464:16503  uint confortMoney = resultMoney.div(10) */\n      swap1\n      pop\n        /* \"input/CreateWin.sol\":16510:16552  sendMoneyToUser(comfortAddr, confortMoney) */\n      tag_477\n        /* \"input/CreateWin.sol\":16526:16537  comfortAddr */\n      0x05\n      0x00\n      swap1\n      sload\n      swap1\n      0x0100\n      exp\n      swap1\n      div\n      0xffffffffffffffffffffffffffffffffffffffff\n      and\n        /* \"input/CreateWin.sol\":16539:16551  confortMoney */\n      dup3\n        /* \"input/CreateWin.sol\":16510:16525  sendMoneyToUser */\n      tag_478\n        /* \"input/CreateWin.sol\":16510:16552  sendMoneyToUser(comfortAddr, confortMoney) */\n      jump\t// in\n    tag_477:\n        /* \"input/CreateWin.sol\":16573:16602  resultMoney.sub(confortMoney) */\n      tag_479\n        /* \"input/CreateWin.sol\":16589:16601  confortMoney */\n      dup2\n        /* \"input/CreateWin.sol\":16573:16584  resultMoney */\n      dup4\n        /* \"input/CreateWin.sol\":16573:16588  resultMoney.sub */\n      tag_416\n      swap1\n        /* \"input/CreateWin.sol\":16573:16602  resultMoney.sub(confortMoney) */\n      swap2\n      swap1\n      0xffffffff\n      and\n      jump\t// in\n    tag_479:\n        /* \"input/CreateWin.sol\":16559:16602  resultMoney = resultMoney.sub(confortMoney) */\n      swap2\n      pop\n        /* \"input/CreateWin.sol\":16609:16633  address payable sendAddr */\n      0x00\n        /* \"input/CreateWin.sol\":16652:16660  userAddr */\n      dup10\n        /* \"input/CreateWin.sol\":16609:16662  address payable sendAddr = address(uint160(userAddr)) */\n      swap1\n      pop\n        /* \"input/CreateWin.sol\":16669:16707  sendMoneyToUser(sendAddr, resultMoney) */\n      tag_480\n        /* \"input/CreateWin.sol\":16685:16693  sendAddr */\n      dup2\n        /* \"input/CreateWin.sol\":16695:16706  resultMoney */\n      dup5\n        /* \"input/CreateWin.sol\":16669:16684  sendMoneyToUser */\n      tag_478\n        /* \"input/CreateWin.sol\":16669:16707  sendMoneyToUser(sendAddr, resultMoney) */\n      jump\t// in\n    tag_480:\n        /* \"input/CreateWin.sol\":16436:16714  if (resultMoney > 0) {... */\n      pop\n      pop\n    tag_475:\n        /* \"input/CreateWin.sol\":16200:16719  if (bonusSend.add(inviteSend) <= sendLimit) {... */\n      pop\n      pop\n    tag_470:\n        /* \"input/CreateWin.sol\":13990:16723  for (uint i = start; i <= end; i++) {... */\n      pop\n      pop\n      pop\n      pop\n      pop\n      pop\n    tag_407:\n        /* \"input/CreateWin.sol\":14021:14024  i++ */\n      dup1\n      dup1\n      0x01\n      add\n      swap2\n      pop\n      pop\n        /* \"input/CreateWin.sol\":13990:16723  for (uint i = start; i <= end; i++) {... */\n      jump(tag_405)\n    tag_406:\n      pop\n        /* \"input/CreateWin.sol\":13917:16726  function christmas(uint start, uint end) external onlyWhitelistAdmin {... */\n      pop\n      pop\n      jump\t// out\n        /* \"input/CreateWin.sol\":18054:18380  function donnottouch() public view returns (uint, uint, uint, uint, uint, uint, uint, uint, uint, uint, uint, uint) {... */\n    tag_113:\n        /* \"input/CreateWin.sol\":18098:18102  uint */\n      0x00\n        /* \"input/CreateWin.sol\":18104:18108  uint */\n      dup1\n        /* \"input/CreateWin.sol\":18110:18114  uint */\n      0x00\n        /* \"input/CreateWin.sol\":18116:18120  uint */\n      dup1\n        /* \"input/CreateWin.sol\":18122:18126  uint */\n      0x00\n        /* \"input/CreateWin.sol\":18128:18132  uint */\n      dup1\n        /* \"input/CreateWin.sol\":18134:18138  uint */\n      0x00\n        /* \"input/CreateWin.sol\":18140:18144  uint */\n      dup1\n        /* \"input/CreateWin.sol\":18146:18150  uint */\n      0x00\n        /* \"input/CreateWin.sol\":18152:18156  uint */\n      dup1\n        /* \"input/CreateWin.sol\":18158:18162  uint */\n      0x00\n        /* \"input/CreateWin.sol\":18164:18168  uint */\n      dup1\n        /* \"input/CreateWin.sol\":18185:18188  rid */\n      sload(0x0c)\n        /* \"input/CreateWin.sol\":18192:18195  uid */\n      sload(0x0b)\n        /* \"input/CreateWin.sol\":18199:18208  startTime */\n      sload(0x06)\n        /* \"input/CreateWin.sol\":18212:18224  rInvestCount */\n      0x08\n        /* \"input/CreateWin.sol\":18212:18229  rInvestCount[rid] */\n      0x00\n        /* \"input/CreateWin.sol\":18225:18228  rid */\n      sload(0x0c)\n        /* \"input/CreateWin.sol\":18212:18229  rInvestCount[rid] */\n      dup2\n      mstore\n      0x20\n      add\n      swap1\n      dup2\n      mstore\n      0x20\n      add\n      0x00\n      keccak256\n      sload\n        /* \"input/CreateWin.sol\":18233:18245  rInvestMoney */\n      0x09\n        /* \"input/CreateWin.sol\":18233:18250  rInvestMoney[rid] */\n      0x00\n        /* \"input/CreateWin.sol\":18246:18249  rid */\n      sload(0x0c)\n        /* \"input/CreateWin.sol\":18233:18250  rInvestMoney[rid] */\n      dup2\n      mstore\n      0x20\n      add\n      swap1\n      dup2\n      mstore\n      0x20\n      add\n      0x00\n      keccak256\n      sload\n        /* \"input/CreateWin.sol\":18254:18264  bonuslimit */\n      sload(0x13)\n        /* \"input/CreateWin.sol\":18268:18277  sendLimit */\n      sload(0x14)\n        /* \"input/CreateWin.sol\":18281:18294  withdrawLimit */\n      sload(0x15)\n        /* \"input/CreateWin.sol\":18298:18307  canImport */\n      sload(0x16)\n        /* \"input/CreateWin.sol\":18311:18321  lineStatus */\n      sload(0x07)\n        /* \"input/CreateWin.sol\":18325:18341  lineArrayMapping */\n      0x0d\n        /* \"input/CreateWin.sol\":18325:18346  lineArrayMapping[rid] */\n      0x00\n        /* \"input/CreateWin.sol\":18342:18345  rid */\n      sload(0x0c)\n        /* \"input/CreateWin.sol\":18325:18346  lineArrayMapping[rid] */\n      dup2\n      mstore\n      0x20\n      add\n      swap1\n      dup2\n      mstore\n      0x20\n      add\n      0x00\n      keccak256\n        /* \"input/CreateWin.sol\":18325:18353  lineArrayMapping[rid].length */\n      dup1\n      sload\n      swap1\n      pop\n        /* \"input/CreateWin.sol\":18357:18372  canSetStartTime */\n      sload(0x17)\n        /* \"input/CreateWin.sol\":18174:18376  return (... */\n      swap12\n      pop\n      swap12\n      pop\n      swap12\n      pop\n      swap12\n      pop\n      swap12\n      pop\n      swap12\n      pop\n      swap12\n      pop\n      swap12\n      pop\n      swap12\n      pop\n      swap12\n      pop\n      swap12\n      pop\n      swap12\n      pop\n        /* \"input/CreateWin.sol\":18054:18380  function donnottouch() public view returns (uint, uint, uint, uint, uint, uint, uint, uint, uint, uint, uint, uint) {... */\n      swap1\n      swap2\n      swap3\n      swap4\n      swap5\n      swap6\n      swap7\n      swap8\n      swap9\n      swap10\n      swap11\n      swap12\n      jump\t// out\n        /* \"input/CreateWin.sol\":76:359  function getLevel(uint value) public view returns (uint) {... */\n    tag_117:\n        /* \"input/CreateWin.sol\":127:131  uint */\n      0x00\n        /* \"input/CreateWin.sol\":154:160  ethWei */\n      dup1\n      sload\n        /* \"input/CreateWin.sol\":150:151  1 */\n      0x01\n        /* \"input/CreateWin.sol\":150:160  1 * ethWei */\n      mul\n        /* \"input/CreateWin.sol\":141:146  value */\n      dup3\n        /* \"input/CreateWin.sol\":141:160  value >= 1 * ethWei */\n      lt\n      iszero\n        /* \"input/CreateWin.sol\":141:183  value >= 1 * ethWei && value <= 5 * ethWei */\n      dup1\n      iszero\n      tag_483\n      jumpi\n      pop\n        /* \"input/CreateWin.sol\":177:183  ethWei */\n      sload(0x00)\n        /* \"input/CreateWin.sol\":173:174  5 */\n      0x05\n        /* \"input/CreateWin.sol\":173:183  5 * ethWei */\n      mul\n        /* \"input/CreateWin.sol\":164:169  value */\n      dup3\n        /* \"input/CreateWin.sol\":164:183  value <= 5 * ethWei */\n      gt\n      iszero\n        /* \"input/CreateWin.sol\":141:183  value >= 1 * ethWei && value <= 5 * ethWei */\n    tag_483:\n        /* \"input/CreateWin.sol\":137:203  if (value >= 1 * ethWei && value <= 5 * ethWei) {... */\n      iszero\n      tag_484\n      jumpi\n        /* \"input/CreateWin.sol\":197:198  1 */\n      0x01\n        /* \"input/CreateWin.sol\":190:198  return 1 */\n      swap1\n      pop\n      jump(tag_482)\n        /* \"input/CreateWin.sol\":137:203  if (value >= 1 * ethWei && value <= 5 * ethWei) {... */\n    tag_484:\n        /* \"input/CreateWin.sol\":223:229  ethWei */\n      sload(0x00)\n        /* \"input/CreateWin.sol\":219:220  6 */\n      0x06\n        /* \"input/CreateWin.sol\":219:229  6 * ethWei */\n      mul\n        /* \"input/CreateWin.sol\":210:215  value */\n      dup3\n        /* \"input/CreateWin.sol\":210:229  value >= 6 * ethWei */\n      lt\n      iszero\n        /* \"input/CreateWin.sol\":210:253  value >= 6 * ethWei && value <= 10 * ethWei */\n      dup1\n      iszero\n      tag_485\n      jumpi\n      pop\n        /* \"input/CreateWin.sol\":247:253  ethWei */\n      sload(0x00)\n        /* \"input/CreateWin.sol\":242:244  10 */\n      0x0a\n        /* \"input/CreateWin.sol\":242:253  10 * ethWei */\n      mul\n        /* \"input/CreateWin.sol\":233:238  value */\n      dup3\n        /* \"input/CreateWin.sol\":233:253  value <= 10 * ethWei */\n      gt\n      iszero\n        /* \"input/CreateWin.sol\":210:253  value >= 6 * ethWei && value <= 10 * ethWei */\n    tag_485:\n        /* \"input/CreateWin.sol\":206:273  if (value >= 6 * ethWei && value <= 10 * ethWei) {... */\n      iszero\n      tag_486\n      jumpi\n        /* \"input/CreateWin.sol\":267:268  2 */\n      0x02\n        /* \"input/CreateWin.sol\":260:268  return 2 */\n      swap1\n      pop\n      jump(tag_482)\n        /* \"input/CreateWin.sol\":206:273  if (value >= 6 * ethWei && value <= 10 * ethWei) {... */\n    tag_486:\n        /* \"input/CreateWin.sol\":294:300  ethWei */\n      sload(0x00)\n        /* \"input/CreateWin.sol\":289:291  11 */\n      0x0b\n        /* \"input/CreateWin.sol\":289:300  11 * ethWei */\n      mul\n        /* \"input/CreateWin.sol\":280:285  value */\n      dup3\n        /* \"input/CreateWin.sol\":280:300  value >= 11 * ethWei */\n      lt\n      iszero\n        /* \"input/CreateWin.sol\":280:324  value >= 11 * ethWei && value <= 15 * ethWei */\n      dup1\n      iszero\n      tag_487\n      jumpi\n      pop\n        /* \"input/CreateWin.sol\":318:324  ethWei */\n      sload(0x00)\n        /* \"input/CreateWin.sol\":313:315  15 */\n      0x0f\n        /* \"input/CreateWin.sol\":313:324  15 * ethWei */\n      mul\n        /* \"input/CreateWin.sol\":304:309  value */\n      dup3\n        /* \"input/CreateWin.sol\":304:324  value <= 15 * ethWei */\n      gt\n      iszero\n        /* \"input/CreateWin.sol\":280:324  value >= 11 * ethWei && value <= 15 * ethWei */\n    tag_487:\n        /* \"input/CreateWin.sol\":276:344  if (value >= 11 * ethWei && value <= 15 * ethWei) {... */\n      iszero\n      tag_488\n      jumpi\n        /* \"input/CreateWin.sol\":338:339  3 */\n      0x03\n        /* \"input/CreateWin.sol\":331:339  return 3 */\n      swap1\n      pop\n      jump(tag_482)\n        /* \"input/CreateWin.sol\":276:344  if (value >= 11 * ethWei && value <= 15 * ethWei) {... */\n    tag_488:\n        /* \"input/CreateWin.sol\":354:355  0 */\n      0x00\n        /* \"input/CreateWin.sol\":347:355  return 0 */\n      swap1\n      pop\n        /* \"input/CreateWin.sol\":76:359  function getLevel(uint value) public view returns (uint) {... */\n    tag_482:\n      swap2\n      swap1\n      pop\n      jump\t// out\n        /* \"input/CreateWin.sol\":1582:1787  function compareStr(string memory _str, string memory str) public pure returns (bool) {... */\n    tag_127:\n        /* \"input/CreateWin.sol\":1662:1666  bool */\n      0x00\n        /* \"input/CreateWin.sol\":1740:1743  str */\n      dup2\n        /* \"input/CreateWin.sol\":1723:1744  abi.encodePacked(str) */\n      add(0x20, mload(0x40))\n      dup1\n      dup3\n      dup1\n      mload\n      swap1\n      0x20\n      add\n      swap1\n      dup1\n      dup4\n      dup4\n        /* \"--CODEGEN--\":36:189   */\n    tag_490:\n        /* \"--CODEGEN--\":66:68   */\n      0x20\n        /* \"--CODEGEN--\":61:64   */\n      dup4\n        /* \"--CODEGEN--\":58:69   */\n      lt\n        /* \"--CODEGEN--\":36:189   */\n      tag_492\n      jumpi\n        /* \"--CODEGEN--\":182:185   */\n      dup1\n        /* \"--CODEGEN--\":176:186   */\n      mload\n        /* \"--CODEGEN--\":171:174   */\n      dup3\n        /* \"--CODEGEN--\":164:187   */\n      mstore\n        /* \"--CODEGEN--\":98:100   */\n      0x20\n        /* \"--CODEGEN--\":93:96   */\n      dup3\n        /* \"--CODEGEN--\":89:101   */\n      add\n        /* \"--CODEGEN--\":82:101   */\n      swap2\n      pop\n        /* \"--CODEGEN--\":123:125   */\n      0x20\n        /* \"--CODEGEN--\":118:121   */\n      dup2\n        /* \"--CODEGEN--\":114:126   */\n      add\n        /* \"--CODEGEN--\":107:126   */\n      swap1\n      pop\n        /* \"--CODEGEN--\":148:150   */\n      0x20\n        /* \"--CODEGEN--\":143:146   */\n      dup4\n        /* \"--CODEGEN--\":139:151   */\n      sub\n        /* \"--CODEGEN--\":132:151   */\n      swap3\n      pop\n        /* \"--CODEGEN--\":36:189   */\n      jump(tag_490)\n    tag_492:\n        /* \"--CODEGEN--\":274:275   */\n      0x01\n        /* \"--CODEGEN--\":267:270   */\n      dup4\n        /* \"--CODEGEN--\":263:265   */\n      0x20\n        /* \"--CODEGEN--\":259:271   */\n      sub\n        /* \"--CODEGEN--\":254:257   */\n      0x0100\n        /* \"--CODEGEN--\":250:272   */\n      exp\n        /* \"--CODEGEN--\":246:276   */\n      sub\n        /* \"--CODEGEN--\":315:319   */\n      dup1\n        /* \"--CODEGEN--\":311:320   */\n      not\n        /* \"--CODEGEN--\":305:308   */\n      dup3\n        /* \"--CODEGEN--\":299:309   */\n      mload\n        /* \"--CODEGEN--\":295:321   */\n      and\n        /* \"--CODEGEN--\":356:360   */\n      dup2\n        /* \"--CODEGEN--\":350:353   */\n      dup5\n        /* \"--CODEGEN--\":344:354   */\n      mload\n        /* \"--CODEGEN--\":340:361   */\n      and\n        /* \"--CODEGEN--\":389:396   */\n      dup1\n        /* \"--CODEGEN--\":380:387   */\n      dup3\n        /* \"--CODEGEN--\":377:397   */\n      or\n        /* \"--CODEGEN--\":372:375   */\n      dup6\n        /* \"--CODEGEN--\":365:398   */\n      mstore\n        /* \"--CODEGEN--\":3:402   */\n      pop\n      pop\n      pop\n        /* \"input/CreateWin.sol\":1723:1744  abi.encodePacked(str) */\n      pop\n      pop\n      pop\n      swap1\n      pop\n      add\n      swap2\n      pop\n      pop\n      mload(0x40)\n        /* \"--CODEGEN--\":49:53   */\n      0x20\n        /* \"--CODEGEN--\":39:46   */\n      dup2\n        /* \"--CODEGEN--\":30:37   */\n      dup4\n        /* \"--CODEGEN--\":26:47   */\n      sub\n        /* \"--CODEGEN--\":22:54   */\n      sub\n        /* \"--CODEGEN--\":13:20   */\n      dup2\n        /* \"--CODEGEN--\":6:55   */\n      mstore\n        /* \"input/CreateWin.sol\":1723:1744  abi.encodePacked(str) */\n      swap1\n      0x40\n      mstore\n        /* \"input/CreateWin.sol\":1713:1745  keccak256(abi.encodePacked(str)) */\n      dup1\n      mload\n      swap1\n      0x20\n      add\n      keccak256\n        /* \"input/CreateWin.sol\":1703:1707  _str */\n      dup4\n        /* \"input/CreateWin.sol\":1686:1708  abi.encodePacked(_str) */\n      add(0x20, mload(0x40))\n      dup1\n      dup3\n      dup1\n      mload\n      swap1\n      0x20\n      add\n      swap1\n      dup1\n      dup4\n      dup4\n        /* \"--CODEGEN--\":36:189   */\n    tag_493:\n        /* \"--CODEGEN--\":66:68   */\n      0x20\n        /* \"--CODEGEN--\":61:64   */\n      dup4\n        /* \"--CODEGEN--\":58:69   */\n      lt\n        /* \"--CODEGEN--\":36:189   */\n      tag_495\n      jumpi\n        /* \"--CODEGEN--\":182:185   */\n      dup1\n        /* \"--CODEGEN--\":176:186   */\n      mload\n        /* \"--CODEGEN--\":171:174   */\n      dup3\n        /* \"--CODEGEN--\":164:187   */\n      mstore\n        /* \"--CODEGEN--\":98:100   */\n      0x20\n        /* \"--CODEGEN--\":93:96   */\n      dup3\n        /* \"--CODEGEN--\":89:101   */\n      add\n        /* \"--CODEGEN--\":82:101   */\n      swap2\n      pop\n        /* \"--CODEGEN--\":123:125   */\n      0x20\n        /* \"--CODEGEN--\":118:121   */\n      dup2\n        /* \"--CODEGEN--\":114:126   */\n      add\n        /* \"--CODEGEN--\":107:126   */\n      swap1\n      pop\n        /* \"--CODEGEN--\":148:150   */\n      0x20\n        /* \"--CODEGEN--\":143:146   */\n      dup4\n        /* \"--CODEGEN--\":139:151   */\n      sub\n        /* \"--CODEGEN--\":132:151   */\n      swap3\n      pop\n        /* \"--CODEGEN--\":36:189   */\n      jump(tag_493)\n    tag_495:\n        /* \"--CODEGEN--\":274:275   */\n      0x01\n        /* \"--CODEGEN--\":267:270   */\n      dup4\n        /* \"--CODEGEN--\":263:265   */\n      0x20\n        /* \"--CODEGEN--\":259:271   */\n      sub\n        /* \"--CODEGEN--\":254:257   */\n      0x0100\n        /* \"--CODEGEN--\":250:272   */\n      exp\n        /* \"--CODEGEN--\":246:276   */\n      sub\n        /* \"--CODEGEN--\":315:319   */\n      dup1\n        /* \"--CODEGEN--\":311:320   */\n      not\n        /* \"--CODEGEN--\":305:308   */\n      dup3\n        /* \"--CODEGEN--\":299:309   */\n      mload\n        /* \"--CODEGEN--\":295:321   */\n      and\n        /* \"--CODEGEN--\":356:360   */\n      dup2\n        /* \"--CODEGEN--\":350:353   */\n      dup5\n        /* \"--CODEGEN--\":344:354   */\n      mload\n        /* \"--CODEGEN--\":340:361   */\n      and\n        /* \"--CODEGEN--\":389:396   */\n      dup1\n        /* \"--CODEGEN--\":380:387   */\n      dup3\n        /* \"--CODEGEN--\":377:397   */\n      or\n        /* \"--CODEGEN--\":372:375   */\n      dup6\n        /* \"--CODEGEN--\":365:398   */\n      mstore\n        /* \"--CODEGEN--\":3:402   */\n      pop\n      pop\n      pop\n        /* \"input/CreateWin.sol\":1686:1708  abi.encodePacked(_str) */\n      pop\n      pop\n      pop\n      swap1\n      pop\n      add\n      swap2\n      pop\n      pop\n      mload(0x40)\n        /* \"--CODEGEN--\":49:53   */\n      0x20\n        /* \"--CODEGEN--\":39:46   */\n      dup2\n        /* \"--CODEGEN--\":30:37   */\n      dup4\n        /* \"--CODEGEN--\":26:47   */\n      sub\n        /* \"--CODEGEN--\":22:54   */\n      sub\n        /* \"--CODEGEN--\":13:20   */\n      dup2\n        /* \"--CODEGEN--\":6:55   */\n      mstore\n        /* \"input/CreateWin.sol\":1686:1708  abi.encodePacked(_str) */\n      swap1\n      0x40\n      mstore\n        /* \"input/CreateWin.sol\":1676:1709  keccak256(abi.encodePacked(_str)) */\n      dup1\n      mload\n      swap1\n      0x20\n      add\n      keccak256\n        /* \"input/CreateWin.sol\":1676:1745  keccak256(abi.encodePacked(_str)) == keccak256(abi.encodePacked(str)) */\n      eq\n        /* \"input/CreateWin.sol\":1672:1768  if (keccak256(abi.encodePacked(_str)) == keccak256(abi.encodePacked(str))) {... */\n      iszero\n      tag_496\n      jumpi\n        /* \"input/CreateWin.sol\":1759:1763  true */\n      0x01\n        /* \"input/CreateWin.sol\":1752:1763  return true */\n      swap1\n      pop\n      jump(tag_489)\n        /* \"input/CreateWin.sol\":1672:1768  if (keccak256(abi.encodePacked(_str)) == keccak256(abi.encodePacked(str))) {... */\n    tag_496:\n        /* \"input/CreateWin.sol\":1778:1783  false */\n      0x00\n        /* \"input/CreateWin.sol\":1771:1783  return false */\n      swap1\n      pop\n        /* \"input/CreateWin.sol\":1582:1787  function compareStr(string memory _str, string memory str) public pure returns (bool) {... */\n    tag_489:\n      swap3\n      swap2\n      pop\n      pop\n      jump\t// out\n        /* \"input/CreateWin.sol\":20647:20807  function getUserAddressById(uint id) public view returns (address) {... */\n    tag_131:\n        /* \"input/CreateWin.sol\":20705:20712  address */\n      0x00\n        /* \"input/CreateWin.sol\":20726:20754  isWhitelistAdmin(msg.sender) */\n      tag_498\n        /* \"input/CreateWin.sol\":20743:20753  msg.sender */\n      caller\n        /* \"input/CreateWin.sol\":20726:20742  isWhitelistAdmin */\n      tag_157\n        /* \"input/CreateWin.sol\":20726:20754  isWhitelistAdmin(msg.sender) */\n      jump\t// in\n    tag_498:\n        /* \"input/CreateWin.sol\":20718:20776  require(isWhitelistAdmin(msg.sender), \"Permission denied\") */\n      tag_499\n      jumpi\n      mload(0x40)\n      0x08c379a000000000000000000000000000000000000000000000000000000000\n      dup2\n      mstore\n      0x04\n      add\n      dup1\n      dup1\n      0x20\n      add\n      dup3\n      dup2\n      sub\n      dup3\n      mstore\n      0x11\n      dup2\n      mstore\n      0x20\n      add\n      dup1\n      0x5065726d697373696f6e2064656e696564000000000000000000000000000000\n      dup2\n      mstore\n      pop\n      0x20\n      add\n      swap2\n      pop\n      pop\n      mload(0x40)\n      dup1\n      swap2\n      sub\n      swap1\n      revert\n    tag_499:\n        /* \"input/CreateWin.sol\":20787:20799  indexMapping */\n      0x11\n        /* \"input/CreateWin.sol\":20787:20803  indexMapping[id] */\n      0x00\n        /* \"input/CreateWin.sol\":20800:20802  id */\n      dup4\n        /* \"input/CreateWin.sol\":20787:20803  indexMapping[id] */\n      dup2\n      mstore\n      0x20\n      add\n      swap1\n      dup2\n      mstore\n      0x20\n      add\n      0x00\n      keccak256\n      0x00\n      swap1\n      sload\n      swap1\n      0x0100\n      exp\n      swap1\n      div\n      0xffffffffffffffffffffffffffffffffffffffff\n      and\n        /* \"input/CreateWin.sol\":20780:20803  return indexMapping[id] */\n      swap1\n      pop\n        /* \"input/CreateWin.sol\":20647:20807  function getUserAddressById(uint id) public view returns (address) {... */\n      swap2\n      swap1\n      pop\n      jump\t// out\n        /* \"input/CreateWin.sol\":3481:3564  function isOwner() public view returns (bool) {... */\n    tag_134:\n        /* \"input/CreateWin.sol\":3521:3525  bool */\n      0x00\n        /* \"input/CreateWin.sol\":3554:3560  _owner */\n      0x01\n      0x00\n      swap1\n      sload\n      swap1\n      0x0100\n      exp\n      swap1\n      div\n      0xffffffffffffffffffffffffffffffffffffffff\n      and\n        /* \"input/CreateWin.sol\":3538:3560  _msgSender() == _owner */\n      0xffffffffffffffffffffffffffffffffffffffff\n      and\n        /* \"input/CreateWin.sol\":3538:3550  _msgSender() */\n      tag_501\n        /* \"input/CreateWin.sol\":3538:3548  _msgSender */\n      tag_400\n        /* \"input/CreateWin.sol\":3538:3550  _msgSender() */\n      jump\t// in\n    tag_501:\n        /* \"input/CreateWin.sol\":3538:3560  _msgSender() == _owner */\n      0xffffffffffffffffffffffffffffffffffffffff\n      and\n      eq\n        /* \"input/CreateWin.sol\":3531:3560  return _msgSender() == _owner */\n      swap1\n      pop\n        /* \"input/CreateWin.sol\":3481:3564  function isOwner() public view returns (bool) {... */\n      swap1\n      jump\t// out\n        /* \"input/CreateWin.sol\":8147:8390  function actUserStatus(address addr, uint status) external onlyWhitelistAdmin {... */\n    tag_138:\n        /* \"input/CreateWin.sol\":5114:5144  isWhitelistAdmin(_msgSender()) */\n      tag_503\n        /* \"input/CreateWin.sol\":5131:5143  _msgSender() */\n      tag_504\n        /* \"input/CreateWin.sol\":5131:5141  _msgSender */\n      tag_400\n        /* \"input/CreateWin.sol\":5131:5143  _msgSender() */\n      jump\t// in\n    tag_504:\n        /* \"input/CreateWin.sol\":5114:5130  isWhitelistAdmin */\n      tag_157\n        /* \"input/CreateWin.sol\":5114:5144  isWhitelistAdmin(_msgSender()) */\n      jump\t// in\n    tag_503:\n        /* \"input/CreateWin.sol\":5114:5157  isWhitelistAdmin(_msgSender()) || isOwner() */\n      dup1\n      tag_505\n      jumpi\n      pop\n        /* \"input/CreateWin.sol\":5148:5157  isOwner() */\n      tag_506\n        /* \"input/CreateWin.sol\":5148:5155  isOwner */\n      tag_134\n        /* \"input/CreateWin.sol\":5148:5157  isOwner() */\n      jump\t// in\n    tag_506:\n        /* \"input/CreateWin.sol\":5114:5157  isWhitelistAdmin(_msgSender()) || isOwner() */\n    tag_505:\n        /* \"input/CreateWin.sol\":5106:5226  require(isWhitelistAdmin(_msgSender()) || isOwner(), \"WhitelistAdminRole: caller does not have the WhitelistAdmin role\") */\n      tag_507\n      jumpi\n      mload(0x40)\n      0x08c379a000000000000000000000000000000000000000000000000000000000\n      dup2\n      mstore\n      0x04\n      add\n      dup1\n      dup1\n      0x20\n      add\n      dup3\n      dup2\n      sub\n      dup3\n      mstore\n      0x40\n      dup2\n      mstore\n      0x20\n      add\n      dup1\n      data_a092a330b9544809a41baf90fad5bb5d721d39e2ab6006aae3447e7f7e21c961\n      0x40\n      swap2\n      codecopy\n      0x40\n      add\n      swap2\n      pop\n      pop\n      mload(0x40)\n      dup1\n      swap2\n      sub\n      swap1\n      revert\n    tag_507:\n        /* \"input/CreateWin.sol\":8247:8248  0 */\n      0x00\n        /* \"input/CreateWin.sol\":8237:8243  status */\n      dup2\n        /* \"input/CreateWin.sol\":8237:8248  status == 0 */\n      eq\n        /* \"input/CreateWin.sol\":8237:8263  status == 0 || status == 1 */\n      dup1\n      tag_509\n      jumpi\n      pop\n        /* \"input/CreateWin.sol\":8262:8263  1 */\n      0x01\n        /* \"input/CreateWin.sol\":8252:8258  status */\n      dup2\n        /* \"input/CreateWin.sol\":8252:8263  status == 1 */\n      eq\n        /* \"input/CreateWin.sol\":8237:8263  status == 0 || status == 1 */\n    tag_509:\n        /* \"input/CreateWin.sol\":8237:8278  status == 0 || status == 1 || status == 2 */\n      dup1\n      tag_510\n      jumpi\n      pop\n        /* \"input/CreateWin.sol\":8277:8278  2 */\n      0x02\n        /* \"input/CreateWin.sol\":8267:8273  status */\n      dup2\n        /* \"input/CreateWin.sol\":8267:8278  status == 2 */\n      eq\n        /* \"input/CreateWin.sol\":8237:8278  status == 0 || status == 1 || status == 2 */\n    tag_510:\n        /* \"input/CreateWin.sol\":8229:8303  require(status == 0 || status == 1 || status == 2, \"bad parameter status\") */\n      tag_511\n      jumpi\n      mload(0x40)\n      0x08c379a000000000000000000000000000000000000000000000000000000000\n      dup2\n      mstore\n      0x04\n      add\n      dup1\n      dup1\n      0x20\n      add\n      dup3\n      dup2\n      sub\n      dup3\n      mstore\n      0x14\n      dup2\n      mstore\n      0x20\n      add\n      dup1\n      0x62616420706172616d6574657220737461747573000000000000000000000000\n      dup2\n      mstore\n      pop\n      0x20\n      add\n      swap2\n      pop\n      pop\n      mload(0x40)\n      dup1\n      swap2\n      sub\n      swap1\n      revert\n    tag_511:\n        /* \"input/CreateWin.sol\":8307:8336  UserGlobal storage userGlobal */\n      0x00\n        /* \"input/CreateWin.sol\":8339:8350  userMapping */\n      0x0f\n        /* \"input/CreateWin.sol\":8339:8356  userMapping[addr] */\n      0x00\n        /* \"input/CreateWin.sol\":8351:8355  addr */\n      dup5\n        /* \"input/CreateWin.sol\":8339:8356  userMapping[addr] */\n      0xffffffffffffffffffffffffffffffffffffffff\n      and\n      0xffffffffffffffffffffffffffffffffffffffff\n      and\n      dup2\n      mstore\n      0x20\n      add\n      swap1\n      dup2\n      mstore\n      0x20\n      add\n      0x00\n      keccak256\n        /* \"input/CreateWin.sol\":8307:8356  UserGlobal storage userGlobal = userMapping[addr] */\n      swap1\n      pop\n        /* \"input/CreateWin.sol\":8380:8386  status */\n      dup2\n        /* \"input/CreateWin.sol\":8360:8370  userGlobal */\n      dup2\n        /* \"input/CreateWin.sol\":8360:8377  userGlobal.status */\n      0x04\n      add\n        /* \"input/CreateWin.sol\":8360:8386  userGlobal.status = status */\n      dup2\n      swap1\n      sstore\n      pop\n        /* \"input/CreateWin.sol\":5230:5231  _ */\n      pop\n        /* \"input/CreateWin.sol\":8147:8390  function actUserStatus(address addr, uint status) external onlyWhitelistAdmin {... */\n      pop\n      pop\n      jump\t// out\n        /* \"input/CreateWin.sol\":7650:7734  function updateLine(uint line) external onlyWhitelistAdmin {... */\n    tag_142:\n        /* \"input/CreateWin.sol\":5114:5144  isWhitelistAdmin(_msgSender()) */\n      tag_513\n        /* \"input/CreateWin.sol\":5131:5143  _msgSender() */\n      tag_514\n        /* \"input/CreateWin.sol\":5131:5141  _msgSender */\n      tag_400\n        /* \"input/CreateWin.sol\":5131:5143  _msgSender() */\n      jump\t// in\n    tag_514:\n        /* \"input/CreateWin.sol\":5114:5130  isWhitelistAdmin */\n      tag_157\n        /* \"input/CreateWin.sol\":5114:5144  isWhitelistAdmin(_msgSender()) */\n      jump\t// in\n    tag_513:\n        /* \"input/CreateWin.sol\":5114:5157  isWhitelistAdmin(_msgSender()) || isOwner() */\n      dup1\n      tag_515\n      jumpi\n      pop\n        /* \"input/CreateWin.sol\":5148:5157  isOwner() */\n      tag_516\n        /* \"input/CreateWin.sol\":5148:5155  isOwner */\n      tag_134\n        /* \"input/CreateWin.sol\":5148:5157  isOwner() */\n      jump\t// in\n    tag_516:\n        /* \"input/CreateWin.sol\":5114:5157  isWhitelistAdmin(_msgSender()) || isOwner() */\n    tag_515:\n        /* \"input/CreateWin.sol\":5106:5226  require(isWhitelistAdmin(_msgSender()) || isOwner(), \"WhitelistAdminRole: caller does not have the WhitelistAdmin role\") */\n      tag_517\n      jumpi\n      mload(0x40)\n      0x08c379a000000000000000000000000000000000000000000000000000000000\n      dup2\n      mstore\n      0x04\n      add\n      dup1\n      dup1\n      0x20\n      add\n      dup3\n      dup2\n      sub\n      dup3\n      mstore\n      0x40\n      dup2\n      mstore\n      0x20\n      add\n      dup1\n      data_a092a330b9544809a41baf90fad5bb5d721d39e2ab6006aae3447e7f7e21c961\n      0x40\n      swap2\n      codecopy\n      0x40\n      add\n      swap2\n      pop\n      pop\n      mload(0x40)\n      dup1\n      swap2\n      sub\n      swap1\n      revert\n    tag_517:\n        /* \"input/CreateWin.sol\":7726:7730  line */\n      dup1\n        /* \"input/CreateWin.sol\":7713:7723  lineStatus */\n      0x07\n        /* \"input/CreateWin.sol\":7713:7730  lineStatus = line */\n      dup2\n      swap1\n      sstore\n      pop\n        /* \"input/CreateWin.sol\":7650:7734  function updateLine(uint line) external onlyWhitelistAdmin {... */\n      pop\n      jump\t// out\n        /* \"input/CreateWin.sol\":17299:17476  function getUserAddressByCode(string memory code) public view returns (address) {... */\n    tag_149:\n        /* \"input/CreateWin.sol\":17370:17377  address */\n      0x00\n        /* \"input/CreateWin.sol\":17391:17419  isWhitelistAdmin(msg.sender) */\n      tag_520\n        /* \"input/CreateWin.sol\":17408:17418  msg.sender */\n      caller\n        /* \"input/CreateWin.sol\":17391:17407  isWhitelistAdmin */\n      tag_157\n        /* \"input/CreateWin.sol\":17391:17419  isWhitelistAdmin(msg.sender) */\n      jump\t// in\n    tag_520:\n        /* \"input/CreateWin.sol\":17383:17441  require(isWhitelistAdmin(msg.sender), \"Permission denied\") */\n      tag_521\n      jumpi\n      mload(0x40)\n      0x08c379a000000000000000000000000000000000000000000000000000000000\n      dup2\n      mstore\n      0x04\n      add\n      dup1\n      dup1\n      0x20\n      add\n      dup3\n      dup2\n      sub\n      dup3\n      mstore\n      0x11\n      dup2\n      mstore\n      0x20\n      add\n      dup1\n      0x5065726d697373696f6e2064656e696564000000000000000000000000000000\n      dup2\n      mstore\n      pop\n      0x20\n      add\n      swap2\n      pop\n      pop\n      mload(0x40)\n      dup1\n      swap2\n      sub\n      swap1\n      revert\n    tag_521:\n        /* \"input/CreateWin.sol\":17452:17466  addressMapping */\n      0x10\n        /* \"input/CreateWin.sol\":17467:17471  code */\n      dup3\n        /* \"input/CreateWin.sol\":17452:17472  addressMapping[code] */\n      mload(0x40)\n      dup1\n      dup3\n      dup1\n      mload\n      swap1\n      0x20\n      add\n      swap1\n      dup1\n      dup4\n      dup4\n        /* \"--CODEGEN--\":36:189   */\n    tag_522:\n        /* \"--CODEGEN--\":66:68   */\n      0x20\n        /* \"--CODEGEN--\":61:64   */\n      dup4\n        /* \"--CODEGEN--\":58:69   */\n      lt\n        /* \"--CODEGEN--\":36:189   */\n      tag_524\n      jumpi\n        /* \"--CODEGEN--\":182:185   */\n      dup1\n        /* \"--CODEGEN--\":176:186   */\n      mload\n        /* \"--CODEGEN--\":171:174   */\n      dup3\n        /* \"--CODEGEN--\":164:187   */\n      mstore\n        /* \"--CODEGEN--\":98:100   */\n      0x20\n        /* \"--CODEGEN--\":93:96   */\n      dup3\n        /* \"--CODEGEN--\":89:101   */\n      add\n        /* \"--CODEGEN--\":82:101   */\n      swap2\n      pop\n        /* \"--CODEGEN--\":123:125   */\n      0x20\n        /* \"--CODEGEN--\":118:121   */\n      dup2\n        /* \"--CODEGEN--\":114:126   */\n      add\n        /* \"--CODEGEN--\":107:126   */\n      swap1\n      pop\n        /* \"--CODEGEN--\":148:150   */\n      0x20\n        /* \"--CODEGEN--\":143:146   */\n      dup4\n        /* \"--CODEGEN--\":139:151   */\n      sub\n        /* \"--CODEGEN--\":132:151   */\n      swap3\n      pop\n        /* \"--CODEGEN--\":36:189   */\n      jump(tag_522)\n    tag_524:\n        /* \"--CODEGEN--\":274:275   */\n      0x01\n        /* \"--CODEGEN--\":267:270   */\n      dup4\n        /* \"--CODEGEN--\":263:265   */\n      0x20\n        /* \"--CODEGEN--\":259:271   */\n      sub\n        /* \"--CODEGEN--\":254:257   */\n      0x0100\n        /* \"--CODEGEN--\":250:272   */\n      exp\n        /* \"--CODEGEN--\":246:276   */\n      sub\n        /* \"--CODEGEN--\":315:319   */\n      dup1\n        /* \"--CODEGEN--\":311:320   */\n      not\n        /* \"--CODEGEN--\":305:308   */\n      dup3\n        /* \"--CODEGEN--\":299:309   */\n      mload\n        /* \"--CODEGEN--\":295:321   */\n      and\n        /* \"--CODEGEN--\":356:360   */\n      dup2\n        /* \"--CODEGEN--\":350:353   */\n      dup5\n        /* \"--CODEGEN--\":344:354   */\n      mload\n        /* \"--CODEGEN--\":340:361   */\n      and\n        /* \"--CODEGEN--\":389:396   */\n      dup1\n        /* \"--CODEGEN--\":380:387   */\n      dup3\n        /* \"--CODEGEN--\":377:397   */\n      or\n        /* \"--CODEGEN--\":372:375   */\n      dup6\n        /* \"--CODEGEN--\":365:398   */\n      mstore\n        /* \"--CODEGEN--\":3:402   */\n      pop\n      pop\n      pop\n        /* \"input/CreateWin.sol\":17452:17472  addressMapping[code] */\n      pop\n      pop\n      pop\n      swap1\n      pop\n      add\n      swap2\n      pop\n      pop\n      swap1\n      dup2\n      mstore\n      0x20\n      add\n      mload(0x40)\n      dup1\n      swap2\n      sub\n      swap1\n      keccak256\n      0x00\n      swap1\n      sload\n      swap1\n      0x0100\n      exp\n      swap1\n      div\n      0xffffffffffffffffffffffffffffffffffffffff\n      and\n        /* \"input/CreateWin.sol\":17445:17472  return addressMapping[code] */\n      swap1\n      pop\n        /* \"input/CreateWin.sol\":17299:17476  function getUserAddressByCode(string memory code) public view returns (address) {... */\n      swap2\n      swap1\n      pop\n      jump\t// out\n        /* \"input/CreateWin.sol\":10853:11482  function helloworld(uint start, uint end, uint isUser) external onlyWhitelistAdmin {... */\n    tag_153:\n        /* \"input/CreateWin.sol\":5114:5144  isWhitelistAdmin(_msgSender()) */\n      tag_526\n        /* \"input/CreateWin.sol\":5131:5143  _msgSender() */\n      tag_527\n        /* \"input/CreateWin.sol\":5131:5141  _msgSender */\n      tag_400\n        /* \"input/CreateWin.sol\":5131:5143  _msgSender() */\n      jump\t// in\n    tag_527:\n        /* \"input/CreateWin.sol\":5114:5130  isWhitelistAdmin */\n      tag_157\n        /* \"input/CreateWin.sol\":5114:5144  isWhitelistAdmin(_msgSender()) */\n      jump\t// in\n    tag_526:\n        /* \"input/CreateWin.sol\":5114:5157  isWhitelistAdmin(_msgSender()) || isOwner() */\n      dup1\n      tag_528\n      jumpi\n      pop\n        /* \"input/CreateWin.sol\":5148:5157  isOwner() */\n      tag_529\n        /* \"input/CreateWin.sol\":5148:5155  isOwner */\n      tag_134\n        /* \"input/CreateWin.sol\":5148:5157  isOwner() */\n      jump\t// in\n    tag_529:\n        /* \"input/CreateWin.sol\":5114:5157  isWhitelistAdmin(_msgSender()) || isOwner() */\n    tag_528:\n        /* \"input/CreateWin.sol\":5106:5226  require(isWhitelistAdmin(_msgSender()) || isOwner(), \"WhitelistAdminRole: caller does not have the WhitelistAdmin role\") */\n      tag_530\n      jumpi\n      mload(0x40)\n      0x08c379a000000000000000000000000000000000000000000000000000000000\n      dup2\n      mstore\n      0x04\n      add\n      dup1\n      dup1\n      0x20\n      add\n      dup3\n      dup2\n      sub\n      dup3\n      mstore\n      0x40\n      dup2\n      mstore\n      0x20\n      add\n      dup1\n      data_a092a330b9544809a41baf90fad5bb5d721d39e2ab6006aae3447e7f7e21c961\n      0x40\n      swap2\n      codecopy\n      0x40\n      add\n      swap2\n      pop\n      pop\n      mload(0x40)\n      dup1\n      swap2\n      sub\n      swap1\n      revert\n    tag_530:\n        /* \"input/CreateWin.sol\":10945:10951  uint i */\n      0x00\n        /* \"input/CreateWin.sol\":10954:10959  start */\n      dup4\n        /* \"input/CreateWin.sol\":10945:10959  uint i = start */\n      swap1\n      pop\n        /* \"input/CreateWin.sol\":10940:11479  for (uint i = start; i <= end; i++) {... */\n    tag_532:\n        /* \"input/CreateWin.sol\":10966:10969  end */\n      dup3\n        /* \"input/CreateWin.sol\":10961:10962  i */\n      dup2\n        /* \"input/CreateWin.sol\":10961:10969  i <= end */\n      gt\n        /* \"input/CreateWin.sol\":10940:11479  for (uint i = start; i <= end; i++) {... */\n      tag_533\n      jumpi\n        /* \"input/CreateWin.sol\":10981:10992  uint userId */\n      0x00\n        /* \"input/CreateWin.sol\":10995:10996  0 */\n      dup1\n        /* \"input/CreateWin.sol\":10981:10996  uint userId = 0 */\n      swap1\n      pop\n        /* \"input/CreateWin.sol\":11015:11016  0 */\n      0x00\n        /* \"input/CreateWin.sol\":11005:11011  isUser */\n      dup4\n        /* \"input/CreateWin.sol\":11005:11016  isUser == 0 */\n      eq\n        /* \"input/CreateWin.sol\":11001:11091  if (isUser == 0) {... */\n      iszero\n      tag_535\n      jumpi\n        /* \"input/CreateWin.sol\":11033:11049  lineArrayMapping */\n      0x0d\n        /* \"input/CreateWin.sol\":11033:11054  lineArrayMapping[rid] */\n      0x00\n        /* \"input/CreateWin.sol\":11050:11053  rid */\n      sload(0x0c)\n        /* \"input/CreateWin.sol\":11033:11054  lineArrayMapping[rid] */\n      dup2\n      mstore\n      0x20\n      add\n      swap1\n      dup2\n      mstore\n      0x20\n      add\n      0x00\n      keccak256\n        /* \"input/CreateWin.sol\":11055:11056  i */\n      dup3\n        /* \"input/CreateWin.sol\":11033:11057  lineArrayMapping[rid][i] */\n      dup2\n      sload\n      dup2\n      lt\n      tag_536\n      jumpi\n      invalid\n    tag_536:\n      swap1\n      0x00\n      mstore\n      keccak256(0x00, 0x20)\n      add\n      sload\n        /* \"input/CreateWin.sol\":11024:11057  userId = lineArrayMapping[rid][i] */\n      swap1\n      pop\n        /* \"input/CreateWin.sol\":11001:11091  if (isUser == 0) {... */\n      jump(tag_538)\n    tag_535:\n        /* \"input/CreateWin.sol\":11084:11085  i */\n      dup2\n        /* \"input/CreateWin.sol\":11075:11085  userId = i */\n      swap1\n      pop\n        /* \"input/CreateWin.sol\":11001:11091  if (isUser == 0) {... */\n    tag_538:\n        /* \"input/CreateWin.sol\":11095:11111  address userAddr */\n      0x00\n        /* \"input/CreateWin.sol\":11114:11126  indexMapping */\n      0x11\n        /* \"input/CreateWin.sol\":11114:11134  indexMapping[userId] */\n      0x00\n        /* \"input/CreateWin.sol\":11127:11133  userId */\n      dup4\n        /* \"input/CreateWin.sol\":11114:11134  indexMapping[userId] */\n      dup2\n      mstore\n      0x20\n      add\n      swap1\n      dup2\n      mstore\n      0x20\n      add\n      0x00\n      keccak256\n      0x00\n      swap1\n      sload\n      swap1\n      0x0100\n      exp\n      swap1\n      div\n      0xffffffffffffffffffffffffffffffffffffffff\n      and\n        /* \"input/CreateWin.sol\":11095:11134  address userAddr = indexMapping[userId] */\n      swap1\n      pop\n        /* \"input/CreateWin.sol\":11139:11156  User storage user */\n      0x00\n        /* \"input/CreateWin.sol\":11159:11175  userRoundMapping */\n      0x0e\n        /* \"input/CreateWin.sol\":11159:11180  userRoundMapping[rid] */\n      0x00\n        /* \"input/CreateWin.sol\":11176:11179  rid */\n      sload(0x0c)\n        /* \"input/CreateWin.sol\":11159:11180  userRoundMapping[rid] */\n      dup2\n      mstore\n      0x20\n      add\n      swap1\n      dup2\n      mstore\n      0x20\n      add\n      0x00\n      keccak256\n        /* \"input/CreateWin.sol\":11159:11190  userRoundMapping[rid][userAddr] */\n      0x00\n        /* \"input/CreateWin.sol\":11181:11189  userAddr */\n      dup4\n        /* \"input/CreateWin.sol\":11159:11190  userRoundMapping[rid][userAddr] */\n      0xffffffffffffffffffffffffffffffffffffffff\n      and\n      0xffffffffffffffffffffffffffffffffffffffff\n      and\n      dup2\n      mstore\n      0x20\n      add\n      swap1\n      dup2\n      mstore\n      0x20\n      add\n      0x00\n      keccak256\n        /* \"input/CreateWin.sol\":11139:11190  User storage user = userRoundMapping[rid][userAddr] */\n      swap1\n      pop\n        /* \"input/CreateWin.sol\":11220:11221  0 */\n      0x00\n        /* \"input/CreateWin.sol\":11199:11203  user */\n      dup2\n        /* \"input/CreateWin.sol\":11199:11216  user.freezeAmount */\n      0x03\n      add\n      sload\n        /* \"input/CreateWin.sol\":11199:11221  user.freezeAmount == 0 */\n      eq\n        /* \"input/CreateWin.sol\":11199:11251  user.freezeAmount == 0 && user.lineAmount >= 1 ether */\n      dup1\n      iszero\n      tag_539\n      jumpi\n      pop\n        /* \"input/CreateWin.sol\":11244:11251  1 ether */\n      0x0de0b6b3a7640000\n        /* \"input/CreateWin.sol\":11225:11229  user */\n      dup2\n        /* \"input/CreateWin.sol\":11225:11240  user.lineAmount */\n      0x04\n      add\n      sload\n        /* \"input/CreateWin.sol\":11225:11251  user.lineAmount >= 1 ether */\n      lt\n      iszero\n        /* \"input/CreateWin.sol\":11199:11251  user.freezeAmount == 0 && user.lineAmount >= 1 ether */\n    tag_539:\n        /* \"input/CreateWin.sol\":11199:11282  user.freezeAmount == 0 && user.lineAmount >= 1 ether && user.lineAmount <= 15 ether */\n      dup1\n      iszero\n      tag_540\n      jumpi\n      pop\n        /* \"input/CreateWin.sol\":11274:11282  15 ether */\n      0xd02ab486cedc0000\n        /* \"input/CreateWin.sol\":11255:11259  user */\n      dup2\n        /* \"input/CreateWin.sol\":11255:11270  user.lineAmount */\n      0x04\n      add\n      sload\n        /* \"input/CreateWin.sol\":11255:11282  user.lineAmount <= 15 ether */\n      gt\n      iszero\n        /* \"input/CreateWin.sol\":11199:11282  user.freezeAmount == 0 && user.lineAmount >= 1 ether && user.lineAmount <= 15 ether */\n    tag_540:\n        /* \"input/CreateWin.sol\":11195:11475  if (user.freezeAmount == 0 && user.lineAmount >= 1 ether && user.lineAmount <= 15 ether) {... */\n      iszero\n      tag_541\n      jumpi\n        /* \"input/CreateWin.sol\":11310:11314  user */\n      dup1\n        /* \"input/CreateWin.sol\":11310:11325  user.lineAmount */\n      0x04\n      add\n      sload\n        /* \"input/CreateWin.sol\":11290:11294  user */\n      dup2\n        /* \"input/CreateWin.sol\":11290:11307  user.freezeAmount */\n      0x03\n      add\n        /* \"input/CreateWin.sol\":11290:11325  user.freezeAmount = user.lineAmount */\n      dup2\n      swap1\n      sstore\n      pop\n        /* \"input/CreateWin.sol\":11344:11371  getLevel(user.freezeAmount) */\n      tag_542\n        /* \"input/CreateWin.sol\":11353:11357  user */\n      dup2\n        /* \"input/CreateWin.sol\":11353:11370  user.freezeAmount */\n      0x03\n      add\n      sload\n        /* \"input/CreateWin.sol\":11344:11352  getLevel */\n      tag_117\n        /* \"input/CreateWin.sol\":11344:11371  getLevel(user.freezeAmount) */\n      jump\t// in\n    tag_542:\n        /* \"input/CreateWin.sol\":11331:11335  user */\n      dup2\n        /* \"input/CreateWin.sol\":11331:11341  user.level */\n      0x08\n      add\n        /* \"input/CreateWin.sol\":11331:11371  user.level = getLevel(user.freezeAmount) */\n      dup2\n      swap1\n      sstore\n      pop\n        /* \"input/CreateWin.sol\":11395:11396  0 */\n      0x00\n        /* \"input/CreateWin.sol\":11377:11381  user */\n      dup2\n        /* \"input/CreateWin.sol\":11377:11392  user.lineAmount */\n      0x04\n      add\n        /* \"input/CreateWin.sol\":11377:11396  user.lineAmount = 0 */\n      dup2\n      swap1\n      sstore\n      pop\n        /* \"input/CreateWin.sol\":11402:11435  sendFeetoAdmin(user.freezeAmount) */\n      tag_543\n        /* \"input/CreateWin.sol\":11417:11421  user */\n      dup2\n        /* \"input/CreateWin.sol\":11417:11434  user.freezeAmount */\n      0x03\n      add\n      sload\n        /* \"input/CreateWin.sol\":11402:11416  sendFeetoAdmin */\n      tag_267\n        /* \"input/CreateWin.sol\":11402:11435  sendFeetoAdmin(user.freezeAmount) */\n      jump\t// in\n    tag_543:\n        /* \"input/CreateWin.sol\":11441:11469  countBonus(user.userAddress) */\n      tag_544\n        /* \"input/CreateWin.sol\":11452:11456  user */\n      dup2\n        /* \"input/CreateWin.sol\":11452:11468  user.userAddress */\n      0x01\n      add\n      0x00\n      swap1\n      sload\n      swap1\n      0x0100\n      exp\n      swap1\n      div\n      0xffffffffffffffffffffffffffffffffffffffff\n      and\n        /* \"input/CreateWin.sol\":11441:11451  countBonus */\n      tag_269\n        /* \"input/CreateWin.sol\":11441:11469  countBonus(user.userAddress) */\n      jump\t// in\n    tag_544:\n        /* \"input/CreateWin.sol\":11195:11475  if (user.freezeAmount == 0 && user.lineAmount >= 1 ether && user.lineAmount <= 15 ether) {... */\n    tag_541:\n        /* \"input/CreateWin.sol\":10940:11479  for (uint i = start; i <= end; i++) {... */\n      pop\n      pop\n      pop\n        /* \"input/CreateWin.sol\":10971:10974  i++ */\n      dup1\n      dup1\n      0x01\n      add\n      swap2\n      pop\n      pop\n        /* \"input/CreateWin.sol\":10940:11479  for (uint i = start; i <= end; i++) {... */\n      jump(tag_532)\n    tag_533:\n      pop\n        /* \"input/CreateWin.sol\":10853:11482  function helloworld(uint start, uint end, uint isUser) external onlyWhitelistAdmin {... */\n      pop\n      pop\n      pop\n      jump\t// out\n        /* \"input/CreateWin.sol\":5238:5365  function isWhitelistAdmin(address account) public view returns (bool) {... */\n    tag_157:\n        /* \"input/CreateWin.sol\":5302:5306  bool */\n      0x00\n        /* \"input/CreateWin.sol\":5319:5348  _whitelistAdmins.has(account) */\n      tag_546\n        /* \"input/CreateWin.sol\":5340:5347  account */\n      dup3\n        /* \"input/CreateWin.sol\":5319:5335  _whitelistAdmins */\n      0x02\n        /* \"input/CreateWin.sol\":5319:5339  _whitelistAdmins.has */\n      tag_547\n      swap1\n        /* \"input/CreateWin.sol\":5319:5348  _whitelistAdmins.has(account) */\n      swap2\n      swap1\n      0xffffffff\n      and\n      jump\t// in\n    tag_546:\n        /* \"input/CreateWin.sol\":5319:5361  _whitelistAdmins.has(account) || isOwner() */\n      dup1\n      tag_548\n      jumpi\n      pop\n        /* \"input/CreateWin.sol\":5352:5361  isOwner() */\n      tag_549\n        /* \"input/CreateWin.sol\":5352:5359  isOwner */\n      tag_134\n        /* \"input/CreateWin.sol\":5352:5361  isOwner() */\n      jump\t// in\n    tag_549:\n        /* \"input/CreateWin.sol\":5319:5361  _whitelistAdmins.has(account) || isOwner() */\n    tag_548:\n        /* \"input/CreateWin.sol\":5312:5361  return _whitelistAdmins.has(account) || isOwner() */\n      swap1\n      pop\n        /* \"input/CreateWin.sol\":5238:5365  function isWhitelistAdmin(address account) public view returns (bool) {... */\n      swap2\n      swap1\n      pop\n      jump\t// out\n        /* \"input/CreateWin.sol\":7816:8079  function actAllLimit(uint bonusLi, uint sendLi, uint withdrawLi) external onlyOwner {... */\n    tag_161:\n        /* \"input/CreateWin.sol\":3355:3364  isOwner() */\n      tag_551\n        /* \"input/CreateWin.sol\":3355:3362  isOwner */\n      tag_134\n        /* \"input/CreateWin.sol\":3355:3364  isOwner() */\n      jump\t// in\n    tag_551:\n        /* \"input/CreateWin.sol\":3347:3401  require(isOwner(), \"Ownable: caller is not the owner\") */\n      tag_552\n      jumpi\n      mload(0x40)\n      0x08c379a000000000000000000000000000000000000000000000000000000000\n      dup2\n      mstore\n      0x04\n      add\n      dup1\n      dup1\n      0x20\n      add\n      dup3\n      dup2\n      sub\n      dup3\n      mstore\n      0x20\n      dup2\n      mstore\n      0x20\n      add\n      dup1\n      0x4f776e61626c653a2063616c6c6572206973206e6f7420746865206f776e6572\n      dup2\n      mstore\n      pop\n      0x20\n      add\n      swap2\n      pop\n      pop\n      mload(0x40)\n      dup1\n      swap2\n      sub\n      swap1\n      revert\n    tag_552:\n        /* \"input/CreateWin.sol\":7923:7931  15 ether */\n      0xd02ab486cedc0000\n        /* \"input/CreateWin.sol\":7912:7919  bonusLi */\n      dup4\n        /* \"input/CreateWin.sol\":7912:7931  bonusLi >= 15 ether */\n      lt\n      iszero\n        /* \"input/CreateWin.sol\":7912:7954  bonusLi >= 15 ether && sendLi >= 100 ether */\n      dup1\n      iszero\n      tag_554\n      jumpi\n      pop\n        /* \"input/CreateWin.sol\":7945:7954  100 ether */\n      0x056bc75e2d63100000\n        /* \"input/CreateWin.sol\":7935:7941  sendLi */\n      dup3\n        /* \"input/CreateWin.sol\":7935:7954  sendLi >= 100 ether */\n      lt\n      iszero\n        /* \"input/CreateWin.sol\":7912:7954  bonusLi >= 15 ether && sendLi >= 100 ether */\n    tag_554:\n        /* \"input/CreateWin.sol\":7912:7980  bonusLi >= 15 ether && sendLi >= 100 ether && withdrawLi >= 15 ether */\n      dup1\n      iszero\n      tag_555\n      jumpi\n      pop\n        /* \"input/CreateWin.sol\":7972:7980  15 ether */\n      0xd02ab486cedc0000\n        /* \"input/CreateWin.sol\":7958:7968  withdrawLi */\n      dup2\n        /* \"input/CreateWin.sol\":7958:7980  withdrawLi >= 15 ether */\n      lt\n      iszero\n        /* \"input/CreateWin.sol\":7912:7980  bonusLi >= 15 ether && sendLi >= 100 ether && withdrawLi >= 15 ether */\n    tag_555:\n        /* \"input/CreateWin.sol\":7904:7999  require(bonusLi >= 15 ether && sendLi >= 100 ether && withdrawLi >= 15 ether, \"invalid amount\") */\n      tag_556\n      jumpi\n      mload(0x40)\n      0x08c379a000000000000000000000000000000000000000000000000000000000\n      dup2\n      mstore\n      0x04\n      add\n      dup1\n      dup1\n      0x20\n      add\n      dup3\n      dup2\n      sub\n      dup3\n      mstore\n      0x0e\n      dup2\n      mstore\n      0x20\n      add\n      dup1\n      0x696e76616c696420616d6f756e74000000000000000000000000000000000000\n      dup2\n      mstore\n      pop\n      0x20\n      add\n      swap2\n      pop\n      pop\n      mload(0x40)\n      dup1\n      swap2\n      sub\n      swap1\n      revert\n    tag_556:\n        /* \"input/CreateWin.sol\":8016:8023  bonusLi */\n      dup3\n        /* \"input/CreateWin.sol\":8003:8013  bonuslimit */\n      0x13\n        /* \"input/CreateWin.sol\":8003:8023  bonuslimit = bonusLi */\n      dup2\n      swap1\n      sstore\n      pop\n        /* \"input/CreateWin.sol\":8039:8045  sendLi */\n      dup2\n        /* \"input/CreateWin.sol\":8027:8036  sendLimit */\n      0x14\n        /* \"input/CreateWin.sol\":8027:8045  sendLimit = sendLi */\n      dup2\n      swap1\n      sstore\n      pop\n        /* \"input/CreateWin.sol\":8065:8075  withdrawLi */\n      dup1\n        /* \"input/CreateWin.sol\":8049:8062  withdrawLimit */\n      0x15\n        /* \"input/CreateWin.sol\":8049:8075  withdrawLimit = withdrawLi */\n      dup2\n      swap1\n      sstore\n      pop\n        /* \"input/CreateWin.sol\":7816:8079  function actAllLimit(uint bonusLi, uint sendLi, uint withdrawLi) external onlyOwner {... */\n      pop\n      pop\n      pop\n      jump\t// out\n        /* \"input/CreateWin.sol\":10250:10850  function importGlobal(address addr, string calldata inviteCode, string calldata beCode) external onlyWhitelistAdmin {... */\n    tag_171:\n        /* \"input/CreateWin.sol\":5114:5144  isWhitelistAdmin(_msgSender()) */\n      tag_558\n        /* \"input/CreateWin.sol\":5131:5143  _msgSender() */\n      tag_559\n        /* \"input/CreateWin.sol\":5131:5141  _msgSender */\n      tag_400\n        /* \"input/CreateWin.sol\":5131:5143  _msgSender() */\n      jump\t// in\n    tag_559:\n        /* \"input/CreateWin.sol\":5114:5130  isWhitelistAdmin */\n      tag_157\n        /* \"input/CreateWin.sol\":5114:5144  isWhitelistAdmin(_msgSender()) */\n      jump\t// in\n    tag_558:\n        /* \"input/CreateWin.sol\":5114:5157  isWhitelistAdmin(_msgSender()) || isOwner() */\n      dup1\n      tag_560\n      jumpi\n      pop\n        /* \"input/CreateWin.sol\":5148:5157  isOwner() */\n      tag_561\n        /* \"input/CreateWin.sol\":5148:5155  isOwner */\n      tag_134\n        /* \"input/CreateWin.sol\":5148:5157  isOwner() */\n      jump\t// in\n    tag_561:\n        /* \"input/CreateWin.sol\":5114:5157  isWhitelistAdmin(_msgSender()) || isOwner() */\n    tag_560:\n        /* \"input/CreateWin.sol\":5106:5226  require(isWhitelistAdmin(_msgSender()) || isOwner(), \"WhitelistAdminRole: caller does not have the WhitelistAdmin role\") */\n      tag_562\n      jumpi\n      mload(0x40)\n      0x08c379a000000000000000000000000000000000000000000000000000000000\n      dup2\n      mstore\n      0x04\n      add\n      dup1\n      dup1\n      0x20\n      add\n      dup3\n      dup2\n      sub\n      dup3\n      mstore\n      0x40\n      dup2\n      mstore\n      0x20\n      add\n      dup1\n      data_a092a330b9544809a41baf90fad5bb5d721d39e2ab6006aae3447e7f7e21c961\n      0x40\n      swap2\n      codecopy\n      0x40\n      add\n      swap2\n      pop\n      pop\n      mload(0x40)\n      dup1\n      swap2\n      sub\n      swap1\n      revert\n    tag_562:\n        /* \"input/CreateWin.sol\":10391:10392  1 */\n      0x01\n        /* \"input/CreateWin.sol\":10378:10387  canImport */\n      sload(0x16)\n        /* \"input/CreateWin.sol\":10378:10392  canImport == 1 */\n      eq\n        /* \"input/CreateWin.sol\":10370:10411  require(canImport == 1, \"import stopped\") */\n      tag_564\n      jumpi\n      mload(0x40)\n      0x08c379a000000000000000000000000000000000000000000000000000000000\n      dup2\n      mstore\n      0x04\n      add\n      dup1\n      dup1\n      0x20\n      add\n      dup3\n      dup2\n      sub\n      dup3\n      mstore\n      0x0e\n      dup2\n      mstore\n      0x20\n      add\n      dup1\n      0x696d706f72742073746f70706564000000000000000000000000000000000000\n      dup2\n      mstore\n      pop\n      0x20\n      add\n      swap2\n      pop\n      pop\n      mload(0x40)\n      dup1\n      swap2\n      sub\n      swap1\n      revert\n    tag_564:\n        /* \"input/CreateWin.sol\":10415:10438  UserGlobal storage user */\n      0x00\n        /* \"input/CreateWin.sol\":10441:10452  userMapping */\n      0x0f\n        /* \"input/CreateWin.sol\":10441:10458  userMapping[addr] */\n      0x00\n        /* \"input/CreateWin.sol\":10453:10457  addr */\n      dup8\n        /* \"input/CreateWin.sol\":10441:10458  userMapping[addr] */\n      0xffffffffffffffffffffffffffffffffffffffff\n      and\n      0xffffffffffffffffffffffffffffffffffffffff\n      and\n      dup2\n      mstore\n      0x20\n      add\n      swap1\n      dup2\n      mstore\n      0x20\n      add\n      0x00\n      keccak256\n        /* \"input/CreateWin.sol\":10415:10458  UserGlobal storage user = userMapping[addr] */\n      swap1\n      pop\n        /* \"input/CreateWin.sol\":10481:10482  0 */\n      0x00\n        /* \"input/CreateWin.sol\":10470:10474  user */\n      dup2\n        /* \"input/CreateWin.sol\":10470:10477  user.id */\n      0x00\n      add\n      sload\n        /* \"input/CreateWin.sol\":10470:10482  user.id == 0 */\n      eq\n        /* \"input/CreateWin.sol\":10462:10506  require(user.id == 0, \"user already exists\") */\n      tag_565\n      jumpi\n      mload(0x40)\n      0x08c379a000000000000000000000000000000000000000000000000000000000\n      dup2\n      mstore\n      0x04\n      add\n      dup1\n      dup1\n      0x20\n      add\n      dup3\n      dup2\n      sub\n      dup3\n      mstore\n      0x13\n      dup2\n      mstore\n      0x20\n      add\n      dup1\n      0x7573657220616c72656164792065786973747300000000000000000000000000\n      dup2\n      mstore\n      pop\n      0x20\n      add\n      swap2\n      pop\n      pop\n      mload(0x40)\n      dup1\n      swap2\n      sub\n      swap1\n      revert\n    tag_565:\n        /* \"input/CreateWin.sol\":10519:10545  compareStr(inviteCode, \"\") */\n      tag_566\n        /* \"input/CreateWin.sol\":10530:10540  inviteCode */\n      dup6\n      dup6\n        /* \"input/CreateWin.sol\":10519:10545  compareStr(inviteCode, \"\") */\n      dup1\n      dup1\n      0x1f\n      add\n      0x20\n      dup1\n      swap2\n      div\n      mul\n      0x20\n      add\n      mload(0x40)\n      swap1\n      dup2\n      add\n      0x40\n      mstore\n      dup1\n      swap4\n      swap3\n      swap2\n      swap1\n      dup2\n      dup2\n      mstore\n      0x20\n      add\n      dup4\n      dup4\n        /* \"--CODEGEN--\":30:33   */\n      dup1\n        /* \"--CODEGEN--\":22:28   */\n      dup3\n        /* \"--CODEGEN--\":14:20   */\n      dup5\n        /* \"--CODEGEN--\":1:34   */\n      calldatacopy\n        /* \"--CODEGEN--\":99:100   */\n      0x00\n        /* \"--CODEGEN--\":93:96   */\n      dup2\n        /* \"--CODEGEN--\":85:91   */\n      dup5\n        /* \"--CODEGEN--\":81:97   */\n      add\n        /* \"--CODEGEN--\":74:101   */\n      mstore\n        /* \"--CODEGEN--\":137:141   */\n      0x1f\n        /* \"--CODEGEN--\":133:142   */\n      not\n        /* \"--CODEGEN--\":126:130   */\n      0x1f\n        /* \"--CODEGEN--\":121:124   */\n      dup3\n        /* \"--CODEGEN--\":117:131   */\n      add\n        /* \"--CODEGEN--\":113:143   */\n      and\n        /* \"--CODEGEN--\":106:143   */\n      swap1\n      pop\n        /* \"--CODEGEN--\":169:172   */\n      dup1\n        /* \"--CODEGEN--\":161:167   */\n      dup4\n        /* \"--CODEGEN--\":157:173   */\n      add\n        /* \"--CODEGEN--\":147:173   */\n      swap3\n      pop\n        /* \"input/CreateWin.sol\":10519:10545  compareStr(inviteCode, \"\") */\n      pop\n      pop\n      pop\n      pop\n      pop\n      pop\n      mload(0x40)\n      dup1\n      0x20\n      add\n      0x40\n      mstore\n      dup1\n      0x00\n      dup2\n      mstore\n      pop\n        /* \"input/CreateWin.sol\":10519:10529  compareStr */\n      tag_127\n        /* \"input/CreateWin.sol\":10519:10545  compareStr(inviteCode, \"\") */\n      jump\t// in\n    tag_566:\n        /* \"input/CreateWin.sol\":10518:10545  !compareStr(inviteCode, \"\") */\n      iszero\n        /* \"input/CreateWin.sol\":10510:10567  require(!compareStr(inviteCode, \"\"), \"empty invite code\") */\n      tag_567\n      jumpi\n      mload(0x40)\n      0x08c379a000000000000000000000000000000000000000000000000000000000\n      dup2\n      mstore\n      0x04\n      add\n      dup1\n      dup1\n      0x20\n      add\n      dup3\n      dup2\n      sub\n      dup3\n      mstore\n      0x11\n      dup2\n      mstore\n      0x20\n      add\n      dup1\n      0x656d70747920696e7669746520636f6465000000000000000000000000000000\n      dup2\n      mstore\n      pop\n      0x20\n      add\n      swap2\n      pop\n      pop\n      mload(0x40)\n      dup1\n      swap2\n      sub\n      swap1\n      revert\n    tag_567:\n        /* \"input/CreateWin.sol\":10582:10583  0 */\n      0x00\n        /* \"input/CreateWin.sol\":10575:10578  uid */\n      sload(0x0b)\n        /* \"input/CreateWin.sol\":10575:10583  uid != 0 */\n      eq\n        /* \"input/CreateWin.sol\":10571:10643  if (uid != 0) {... */\n      tag_568\n      jumpi\n        /* \"input/CreateWin.sol\":10599:10621  compareStr(beCode, \"\") */\n      tag_569\n        /* \"input/CreateWin.sol\":10610:10616  beCode */\n      dup4\n      dup4\n        /* \"input/CreateWin.sol\":10599:10621  compareStr(beCode, \"\") */\n      dup1\n      dup1\n      0x1f\n      add\n      0x20\n      dup1\n      swap2\n      div\n      mul\n      0x20\n      add\n      mload(0x40)\n      swap1\n      dup2\n      add\n      0x40\n      mstore\n      dup1\n      swap4\n      swap3\n      swap2\n      swap1\n      dup2\n      dup2\n      mstore\n      0x20\n      add\n      dup4\n      dup4\n        /* \"--CODEGEN--\":30:33   */\n      dup1\n        /* \"--CODEGEN--\":22:28   */\n      dup3\n        /* \"--CODEGEN--\":14:20   */\n      dup5\n        /* \"--CODEGEN--\":1:34   */\n      calldatacopy\n        /* \"--CODEGEN--\":99:100   */\n      0x00\n        /* \"--CODEGEN--\":93:96   */\n      dup2\n        /* \"--CODEGEN--\":85:91   */\n      dup5\n        /* \"--CODEGEN--\":81:97   */\n      add\n        /* \"--CODEGEN--\":74:101   */\n      mstore\n        /* \"--CODEGEN--\":137:141   */\n      0x1f\n        /* \"--CODEGEN--\":133:142   */\n      not\n        /* \"--CODEGEN--\":126:130   */\n      0x1f\n        /* \"--CODEGEN--\":121:124   */\n      dup3\n        /* \"--CODEGEN--\":117:131   */\n      add\n        /* \"--CODEGEN--\":113:143   */\n      and\n        /* \"--CODEGEN--\":106:143   */\n      swap1\n      pop\n        /* \"--CODEGEN--\":169:172   */\n      dup1\n        /* \"--CODEGEN--\":161:167   */\n      dup4\n        /* \"--CODEGEN--\":157:173   */\n      add\n        /* \"--CODEGEN--\":147:173   */\n      swap3\n      pop\n        /* \"input/CreateWin.sol\":10599:10621  compareStr(beCode, \"\") */\n      pop\n      pop\n      pop\n      pop\n      pop\n      pop\n      mload(0x40)\n      dup1\n      0x20\n      add\n      0x40\n      mstore\n      dup1\n      0x00\n      dup2\n      mstore\n      pop\n        /* \"input/CreateWin.sol\":10599:10609  compareStr */\n      tag_127\n        /* \"input/CreateWin.sol\":10599:10621  compareStr(beCode, \"\") */\n      jump\t// in\n    tag_569:\n        /* \"input/CreateWin.sol\":10598:10621  !compareStr(beCode, \"\") */\n      iszero\n        /* \"input/CreateWin.sol\":10590:10638  require(!compareStr(beCode, \"\"), \"empty beCode\") */\n      tag_570\n      jumpi\n      mload(0x40)\n      0x08c379a000000000000000000000000000000000000000000000000000000000\n      dup2\n      mstore\n      0x04\n      add\n      dup1\n      dup1\n      0x20\n      add\n      dup3\n      dup2\n      sub\n      dup3\n      mstore\n      0x0c\n      dup2\n      mstore\n      0x20\n      add\n      dup1\n      0x656d707479206265436f64650000000000000000000000000000000000000000\n      dup2\n      mstore\n      pop\n      0x20\n      add\n      swap2\n      pop\n      pop\n      mload(0x40)\n      dup1\n      swap2\n      sub\n      swap1\n      revert\n    tag_570:\n        /* \"input/CreateWin.sol\":10571:10643  if (uid != 0) {... */\n    tag_568:\n        /* \"input/CreateWin.sol\":10646:10664  address beCodeAddr */\n      0x00\n        /* \"input/CreateWin.sol\":10667:10681  addressMapping */\n      0x10\n        /* \"input/CreateWin.sol\":10682:10688  beCode */\n      dup5\n      dup5\n        /* \"input/CreateWin.sol\":10667:10689  addressMapping[beCode] */\n      mload(0x40)\n      dup1\n      dup4\n      dup4\n        /* \"--CODEGEN--\":30:33   */\n      dup1\n        /* \"--CODEGEN--\":22:28   */\n      dup3\n        /* \"--CODEGEN--\":14:20   */\n      dup5\n        /* \"--CODEGEN--\":1:34   */\n      calldatacopy\n        /* \"--CODEGEN--\":57:60   */\n      dup1\n        /* \"--CODEGEN--\":49:55   */\n      dup4\n        /* \"--CODEGEN--\":45:61   */\n      add\n        /* \"--CODEGEN--\":35:61   */\n      swap3\n      pop\n        /* \"input/CreateWin.sol\":10667:10689  addressMapping[beCode] */\n      pop\n      pop\n      swap3\n      pop\n      pop\n      pop\n      swap1\n      dup2\n      mstore\n      0x20\n      add\n      mload(0x40)\n      dup1\n      swap2\n      sub\n      swap1\n      keccak256\n      0x00\n      swap1\n      sload\n      swap1\n      0x0100\n      exp\n      swap1\n      div\n      0xffffffffffffffffffffffffffffffffffffffff\n      and\n        /* \"input/CreateWin.sol\":10646:10689  address beCodeAddr = addressMapping[beCode] */\n      swap1\n      pop\n        /* \"input/CreateWin.sol\":10715:10719  addr */\n      dup7\n        /* \"input/CreateWin.sol\":10701:10719  beCodeAddr != addr */\n      0xffffffffffffffffffffffffffffffffffffffff\n      and\n        /* \"input/CreateWin.sol\":10701:10711  beCodeAddr */\n      dup2\n        /* \"input/CreateWin.sol\":10701:10719  beCodeAddr != addr */\n      0xffffffffffffffffffffffffffffffffffffffff\n      and\n      eq\n      iszero\n        /* \"input/CreateWin.sol\":10693:10748  require(beCodeAddr != addr, \"beCodeAddr can't be self\") */\n      tag_571\n      jumpi\n      mload(0x40)\n      0x08c379a000000000000000000000000000000000000000000000000000000000\n      dup2\n      mstore\n      0x04\n      add\n      dup1\n      dup1\n      0x20\n      add\n      dup3\n      dup2\n      sub\n      dup3\n      mstore\n      0x18\n      dup2\n      mstore\n      0x20\n      add\n      dup1\n      0x6265436f6465416464722063616e27742062652073656c660000000000000000\n      dup2\n      mstore\n      pop\n      0x20\n      add\n      swap2\n      pop\n      pop\n      mload(0x40)\n      dup1\n      swap2\n      sub\n      swap1\n      revert\n    tag_571:\n        /* \"input/CreateWin.sol\":10761:10779  isUsed(inviteCode) */\n      tag_572\n        /* \"input/CreateWin.sol\":10768:10778  inviteCode */\n      dup7\n      dup7\n        /* \"input/CreateWin.sol\":10761:10779  isUsed(inviteCode) */\n      dup1\n      dup1\n      0x1f\n      add\n      0x20\n      dup1\n      swap2\n      div\n      mul\n      0x20\n      add\n      mload(0x40)\n      swap1\n      dup2\n      add\n      0x40\n      mstore\n      dup1\n      swap4\n      swap3\n      swap2\n      swap1\n      dup2\n      dup2\n      mstore\n      0x20\n      add\n      dup4\n      dup4\n        /* \"--CODEGEN--\":30:33   */\n      dup1\n        /* \"--CODEGEN--\":22:28   */\n      dup3\n        /* \"--CODEGEN--\":14:20   */\n      dup5\n        /* \"--CODEGEN--\":1:34   */\n      calldatacopy\n        /* \"--CODEGEN--\":99:100   */\n      0x00\n        /* \"--CODEGEN--\":93:96   */\n      dup2\n        /* \"--CODEGEN--\":85:91   */\n      dup5\n        /* \"--CODEGEN--\":81:97   */\n      add\n        /* \"--CODEGEN--\":74:101   */\n      mstore\n        /* \"--CODEGEN--\":137:141   */\n      0x1f\n        /* \"--CODEGEN--\":133:142   */\n      not\n        /* \"--CODEGEN--\":126:130   */\n      0x1f\n        /* \"--CODEGEN--\":121:124   */\n      dup3\n        /* \"--CODEGEN--\":117:131   */\n      add\n        /* \"--CODEGEN--\":113:143   */\n      and\n        /* \"--CODEGEN--\":106:143   */\n      swap1\n      pop\n        /* \"--CODEGEN--\":169:172   */\n      dup1\n        /* \"--CODEGEN--\":161:167   */\n      dup4\n        /* \"--CODEGEN--\":157:173   */\n      add\n        /* \"--CODEGEN--\":147:173   */\n      swap3\n      pop\n        /* \"input/CreateWin.sol\":10761:10779  isUsed(inviteCode) */\n      pop\n      pop\n      pop\n      pop\n      pop\n      pop\n        /* \"input/CreateWin.sol\":10761:10767  isUsed */\n      tag_95\n        /* \"input/CreateWin.sol\":10761:10779  isUsed(inviteCode) */\n      jump\t// in\n    tag_572:\n        /* \"input/CreateWin.sol\":10760:10779  !isUsed(inviteCode) */\n      iszero\n        /* \"input/CreateWin.sol\":10752:10803  require(!isUsed(inviteCode), \"invite code is used\") */\n      tag_573\n      jumpi\n      mload(0x40)\n      0x08c379a000000000000000000000000000000000000000000000000000000000\n      dup2\n      mstore\n      0x04\n      add\n      dup1\n      dup1\n      0x20\n      add\n      dup3\n      dup2\n      sub\n      dup3\n      mstore\n      0x13\n      dup2\n      mstore\n      0x20\n      add\n      dup1\n      0x696e7669746520636f6465206973207573656400000000000000000000000000\n      dup2\n      mstore\n      pop\n      0x20\n      add\n      swap2\n      pop\n      pop\n      mload(0x40)\n      dup1\n      swap2\n      sub\n      swap1\n      revert\n    tag_573:\n        /* \"input/CreateWin.sol\":10808:10846  registerUser(addr, inviteCode, beCode) */\n      tag_574\n        /* \"input/CreateWin.sol\":10821:10825  addr */\n      dup8\n        /* \"input/CreateWin.sol\":10827:10837  inviteCode */\n      dup8\n      dup8\n        /* \"input/CreateWin.sol\":10808:10846  registerUser(addr, inviteCode, beCode) */\n      dup1\n      dup1\n      0x1f\n      add\n      0x20\n      dup1\n      swap2\n      div\n      mul\n      0x20\n      add\n      mload(0x40)\n      swap1\n      dup2\n      add\n      0x40\n      mstore\n      dup1\n      swap4\n      swap3\n      swap2\n      swap1\n      dup2\n      dup2\n      mstore\n      0x20\n      add\n      dup4\n      dup4\n        /* \"--CODEGEN--\":30:33   */\n      dup1\n        /* \"--CODEGEN--\":22:28   */\n      dup3\n        /* \"--CODEGEN--\":14:20   */\n      dup5\n        /* \"--CODEGEN--\":1:34   */\n      calldatacopy\n        /* \"--CODEGEN--\":99:100   */\n      0x00\n        /* \"--CODEGEN--\":93:96   */\n      dup2\n        /* \"--CODEGEN--\":85:91   */\n      dup5\n        /* \"--CODEGEN--\":81:97   */\n      add\n        /* \"--CODEGEN--\":74:101   */\n      mstore\n        /* \"--CODEGEN--\":137:141   */\n      0x1f\n        /* \"--CODEGEN--\":133:142   */\n      not\n        /* \"--CODEGEN--\":126:130   */\n      0x1f\n        /* \"--CODEGEN--\":121:124   */\n      dup3\n        /* \"--CODEGEN--\":117:131   */\n      add\n        /* \"--CODEGEN--\":113:143   */\n      and\n        /* \"--CODEGEN--\":106:143   */\n      swap1\n      pop\n        /* \"--CODEGEN--\":169:172   */\n      dup1\n        /* \"--CODEGEN--\":161:167   */\n      dup4\n        /* \"--CODEGEN--\":157:173   */\n      add\n        /* \"--CODEGEN--\":147:173   */\n      swap3\n      pop\n        /* \"input/CreateWin.sol\":10808:10846  registerUser(addr, inviteCode, beCode) */\n      pop\n      pop\n      pop\n      pop\n      pop\n      pop\n        /* \"input/CreateWin.sol\":10839:10845  beCode */\n      dup7\n      dup7\n        /* \"input/CreateWin.sol\":10808:10846  registerUser(addr, inviteCode, beCode) */\n      dup1\n      dup1\n      0x1f\n      add\n      0x20\n      dup1\n      swap2\n      div\n      mul\n      0x20\n      add\n      mload(0x40)\n      swap1\n      dup2\n      add\n      0x40\n      mstore\n      dup1\n      swap4\n      swap3\n      swap2\n      swap1\n      dup2\n      dup2\n      mstore\n      0x20\n      add\n      dup4\n      dup4\n        /* \"--CODEGEN--\":30:33   */\n      dup1\n        /* \"--CODEGEN--\":22:28   */\n      dup3\n        /* \"--CODEGEN--\":14:20   */\n      dup5\n        /* \"--CODEGEN--\":1:34   */\n      calldatacopy\n        /* \"--CODEGEN--\":99:100   */\n      0x00\n        /* \"--CODEGEN--\":93:96   */\n      dup2\n        /* \"--CODEGEN--\":85:91   */\n      dup5\n        /* \"--CODEGEN--\":81:97   */\n      add\n        /* \"--CODEGEN--\":74:101   */\n      mstore\n        /* \"--CODEGEN--\":137:141   */\n      0x1f\n        /* \"--CODEGEN--\":133:142   */\n      not\n        /* \"--CODEGEN--\":126:130   */\n      0x1f\n        /* \"--CODEGEN--\":121:124   */\n      dup3\n        /* \"--CODEGEN--\":117:131   */\n      add\n        /* \"--CODEGEN--\":113:143   */\n      and\n        /* \"--CODEGEN--\":106:143   */\n      swap1\n      pop\n        /* \"--CODEGEN--\":169:172   */\n      dup1\n        /* \"--CODEGEN--\":161:167   */\n      dup4\n        /* \"--CODEGEN--\":157:173   */\n      add\n        /* \"--CODEGEN--\":147:173   */\n      swap3\n      pop\n        /* \"input/CreateWin.sol\":10808:10846  registerUser(addr, inviteCode, beCode) */\n      pop\n      pop\n      pop\n      pop\n      pop\n      pop\n        /* \"input/CreateWin.sol\":10808:10820  registerUser */\n      tag_241\n        /* \"input/CreateWin.sol\":10808:10846  registerUser(addr, inviteCode, beCode) */\n      jump\t// in\n    tag_574:\n        /* \"input/CreateWin.sol\":5230:5231  _ */\n      pop\n      pop\n        /* \"input/CreateWin.sol\":10250:10850  function importGlobal(address addr, string calldata inviteCode, string calldata beCode) external onlyWhitelistAdmin {... */\n      pop\n      pop\n      pop\n      pop\n      pop\n      jump\t// out\n        /* \"input/CreateWin.sol\":820:1013  function getFireScByLevel(uint level) public pure returns (uint) {... */\n    tag_175:\n        /* \"input/CreateWin.sol\":879:883  uint */\n      0x00\n        /* \"input/CreateWin.sol\":902:903  1 */\n      0x01\n        /* \"input/CreateWin.sol\":893:898  level */\n      dup3\n        /* \"input/CreateWin.sol\":893:903  level == 1 */\n      eq\n        /* \"input/CreateWin.sol\":889:923  if (level == 1) {... */\n      iszero\n      tag_576\n      jumpi\n        /* \"input/CreateWin.sol\":917:918  3 */\n      0x03\n        /* \"input/CreateWin.sol\":910:918  return 3 */\n      swap1\n      pop\n      jump(tag_575)\n        /* \"input/CreateWin.sol\":889:923  if (level == 1) {... */\n    tag_576:\n        /* \"input/CreateWin.sol\":939:940  2 */\n      0x02\n        /* \"input/CreateWin.sol\":930:935  level */\n      dup3\n        /* \"input/CreateWin.sol\":930:940  level == 2 */\n      eq\n        /* \"input/CreateWin.sol\":926:960  if (level == 2) {... */\n      iszero\n      tag_577\n      jumpi\n        /* \"input/CreateWin.sol\":954:955  6 */\n      0x06\n        /* \"input/CreateWin.sol\":947:955  return 6 */\n      swap1\n      pop\n      jump(tag_575)\n        /* \"input/CreateWin.sol\":926:960  if (level == 2) {... */\n    tag_577:\n        /* \"input/CreateWin.sol\":976:977  3 */\n      0x03\n        /* \"input/CreateWin.sol\":967:972  level */\n      dup3\n        /* \"input/CreateWin.sol\":967:977  level == 3 */\n      eq\n        /* \"input/CreateWin.sol\":963:998  if (level == 3) {... */\n      iszero\n      tag_578\n      jumpi\n        /* \"input/CreateWin.sol\":991:993  10 */\n      0x0a\n        /* \"input/CreateWin.sol\":984:993  return 10 */\n      swap1\n      pop\n      jump(tag_575)\n        /* \"input/CreateWin.sol\":963:998  if (level == 3) {... */\n    tag_578:\n        /* \"input/CreateWin.sol\":1008:1009  0 */\n      0x00\n        /* \"input/CreateWin.sol\":1001:1009  return 0 */\n      swap1\n      pop\n        /* \"input/CreateWin.sol\":820:1013  function getFireScByLevel(uint level) public pure returns (uint) {... */\n    tag_575:\n      swap2\n      swap1\n      pop\n      jump\t// out\n        /* \"input/CreateWin.sol\":13360:13914  function happy() public isHuman() {... */\n    tag_178:\n        /* \"input/CreateWin.sol\":7068:7080  address addr */\n      0x00\n        /* \"input/CreateWin.sol\":7083:7093  msg.sender */\n      caller\n        /* \"input/CreateWin.sol\":7068:7093  address addr = msg.sender */\n      swap1\n      pop\n        /* \"input/CreateWin.sol\":7097:7112  uint codeLength */\n      0x00\n        /* \"input/CreateWin.sol\":7152:7156  addr */\n      dup2\n        /* \"input/CreateWin.sol\":7140:7157  extcodesize(addr) */\n      extcodesize\n        /* \"input/CreateWin.sol\":7126:7157  codeLength := extcodesize(addr) */\n      swap1\n      pop\n        /* \"input/CreateWin.sol\":7183:7184  0 */\n      0x00\n        /* \"input/CreateWin.sol\":7169:7179  codeLength */\n      dup2\n        /* \"input/CreateWin.sol\":7169:7184  codeLength == 0 */\n      eq\n        /* \"input/CreateWin.sol\":7161:7206  require(codeLength == 0, \"sorry humans only\") */\n      tag_580\n      jumpi\n      mload(0x40)\n      0x08c379a000000000000000000000000000000000000000000000000000000000\n      dup2\n      mstore\n      0x04\n      add\n      dup1\n      dup1\n      0x20\n      add\n      dup3\n      dup2\n      sub\n      dup3\n      mstore\n      0x11\n      dup2\n      mstore\n      0x20\n      add\n      dup1\n      0x736f7272792068756d616e73206f6e6c79000000000000000000000000000000\n      dup2\n      mstore\n      pop\n      0x20\n      add\n      swap2\n      pop\n      pop\n      mload(0x40)\n      dup1\n      swap2\n      sub\n      swap1\n      revert\n    tag_580:\n        /* \"input/CreateWin.sol\":7231:7241  msg.sender */\n      caller\n        /* \"input/CreateWin.sol\":7218:7241  tx.origin == msg.sender */\n      0xffffffffffffffffffffffffffffffffffffffff\n      and\n        /* \"input/CreateWin.sol\":7218:7227  tx.origin */\n      origin\n        /* \"input/CreateWin.sol\":7218:7241  tx.origin == msg.sender */\n      0xffffffffffffffffffffffffffffffffffffffff\n      and\n      eq\n        /* \"input/CreateWin.sol\":7210:7264  require(tx.origin == msg.sender, \"sorry, humans only\") */\n      tag_581\n      jumpi\n      mload(0x40)\n      0x08c379a000000000000000000000000000000000000000000000000000000000\n      dup2\n      mstore\n      0x04\n      add\n      dup1\n      dup1\n      0x20\n      add\n      dup3\n      dup2\n      sub\n      dup3\n      mstore\n      0x12\n      dup2\n      mstore\n      0x20\n      add\n      dup1\n      0x736f7272792c2068756d616e73206f6e6c790000000000000000000000000000\n      dup2\n      mstore\n      pop\n      0x20\n      add\n      swap2\n      pop\n      pop\n      mload(0x40)\n      dup1\n      swap2\n      sub\n      swap1\n      revert\n    tag_581:\n        /* \"input/CreateWin.sol\":13406:13421  donnotimitate() */\n      tag_583\n        /* \"input/CreateWin.sol\":13406:13419  donnotimitate */\n      tag_181\n        /* \"input/CreateWin.sol\":13406:13421  donnotimitate() */\n      jump\t// in\n    tag_583:\n        /* \"input/CreateWin.sol\":13398:13442  require(donnotimitate(), \"no donnotimitate\") */\n      tag_584\n      jumpi\n      mload(0x40)\n      0x08c379a000000000000000000000000000000000000000000000000000000000\n      dup2\n      mstore\n      0x04\n      add\n      dup1\n      dup1\n      0x20\n      add\n      dup3\n      dup2\n      sub\n      dup3\n      mstore\n      0x10\n      dup2\n      mstore\n      0x20\n      add\n      dup1\n      0x6e6f20646f6e6e6f74696d697461746500000000000000000000000000000000\n      dup2\n      mstore\n      pop\n      0x20\n      add\n      swap2\n      pop\n      pop\n      mload(0x40)\n      dup1\n      swap2\n      sub\n      swap1\n      revert\n    tag_584:\n        /* \"input/CreateWin.sol\":13446:13463  User storage user */\n      0x00\n        /* \"input/CreateWin.sol\":13466:13482  userRoundMapping */\n      0x0e\n        /* \"input/CreateWin.sol\":13466:13487  userRoundMapping[rid] */\n      0x00\n        /* \"input/CreateWin.sol\":13483:13486  rid */\n      sload(0x0c)\n        /* \"input/CreateWin.sol\":13466:13487  userRoundMapping[rid] */\n      dup2\n      mstore\n      0x20\n      add\n      swap1\n      dup2\n      mstore\n      0x20\n      add\n      0x00\n      keccak256\n        /* \"input/CreateWin.sol\":13466:13499  userRoundMapping[rid][msg.sender] */\n      0x00\n        /* \"input/CreateWin.sol\":13488:13498  msg.sender */\n      caller\n        /* \"input/CreateWin.sol\":13466:13499  userRoundMapping[rid][msg.sender] */\n      0xffffffffffffffffffffffffffffffffffffffff\n      and\n      0xffffffffffffffffffffffffffffffffffffffff\n      and\n      dup2\n      mstore\n      0x20\n      add\n      swap1\n      dup2\n      mstore\n      0x20\n      add\n      0x00\n      keccak256\n        /* \"input/CreateWin.sol\":13446:13499  User storage user = userRoundMapping[rid][msg.sender] */\n      swap1\n      pop\n        /* \"input/CreateWin.sol\":13522:13523  0 */\n      0x00\n        /* \"input/CreateWin.sol\":13511:13515  user */\n      dup2\n        /* \"input/CreateWin.sol\":13511:13518  user.id */\n      0x00\n      add\n      sload\n        /* \"input/CreateWin.sol\":13511:13523  user.id != 0 */\n      eq\n      iszero\n        /* \"input/CreateWin.sol\":13503:13542  require(user.id != 0, \"user not exist\") */\n      tag_585\n      jumpi\n      mload(0x40)\n      0x08c379a000000000000000000000000000000000000000000000000000000000\n      dup2\n      mstore\n      0x04\n      add\n      dup1\n      dup1\n      0x20\n      add\n      dup3\n      dup2\n      sub\n      dup3\n      mstore\n      0x0e\n      dup2\n      mstore\n      0x20\n      add\n      dup1\n      0x75736572206e6f74206578697374000000000000000000000000000000000000\n      dup2\n      mstore\n      pop\n      0x20\n      add\n      swap2\n      pop\n      pop\n      mload(0x40)\n      dup1\n      swap2\n      sub\n      swap1\n      revert\n    tag_585:\n        /* \"input/CreateWin.sol\":13546:13560  uint sendMoney */\n      0x00\n        /* \"input/CreateWin.sol\":13581:13585  user */\n      dup2\n        /* \"input/CreateWin.sol\":13581:13596  user.lineAmount */\n      0x04\n      add\n      sload\n        /* \"input/CreateWin.sol\":13563:13567  user */\n      dup3\n        /* \"input/CreateWin.sol\":13563:13578  user.freeAmount */\n      0x02\n      add\n      sload\n        /* \"input/CreateWin.sol\":13563:13596  user.freeAmount + user.lineAmount */\n      add\n        /* \"input/CreateWin.sol\":13546:13596  uint sendMoney = user.freeAmount + user.lineAmount */\n      swap1\n      pop\n        /* \"input/CreateWin.sol\":13600:13613  bool isEnough */\n      0x00\n        /* \"input/CreateWin.sol\":13616:13621  false */\n      dup1\n        /* \"input/CreateWin.sol\":13600:13621  bool isEnough = false */\n      swap1\n      pop\n        /* \"input/CreateWin.sol\":13625:13641  uint resultMoney */\n      0x00\n        /* \"input/CreateWin.sol\":13644:13645  0 */\n      dup1\n        /* \"input/CreateWin.sol\":13625:13645  uint resultMoney = 0 */\n      swap1\n      pop\n        /* \"input/CreateWin.sol\":13676:13702  isEnoughBalance(sendMoney) */\n      tag_586\n        /* \"input/CreateWin.sol\":13692:13701  sendMoney */\n      dup4\n        /* \"input/CreateWin.sol\":13676:13691  isEnoughBalance */\n      tag_474\n        /* \"input/CreateWin.sol\":13676:13702  isEnoughBalance(sendMoney) */\n      jump\t// in\n    tag_586:\n        /* \"input/CreateWin.sol\":13650:13702  (isEnough, resultMoney) = isEnoughBalance(sendMoney) */\n      dup1\n      swap3\n      pop\n      dup2\n      swap4\n      pop\n      pop\n      pop\n        /* \"input/CreateWin.sol\":13725:13726  0 */\n      0x00\n        /* \"input/CreateWin.sol\":13711:13722  resultMoney */\n      dup2\n        /* \"input/CreateWin.sol\":13711:13726  resultMoney > 0 */\n      gt\n        /* \"input/CreateWin.sol\":13711:13758  resultMoney > 0 && resultMoney <= withdrawLimit */\n      dup1\n      iszero\n      tag_587\n      jumpi\n      pop\n        /* \"input/CreateWin.sol\":13745:13758  withdrawLimit */\n      sload(0x15)\n        /* \"input/CreateWin.sol\":13730:13741  resultMoney */\n      dup2\n        /* \"input/CreateWin.sol\":13730:13758  resultMoney <= withdrawLimit */\n      gt\n      iszero\n        /* \"input/CreateWin.sol\":13711:13758  resultMoney > 0 && resultMoney <= withdrawLimit */\n    tag_587:\n        /* \"input/CreateWin.sol\":13707:13911  if (resultMoney > 0 && resultMoney <= withdrawLimit) {... */\n      iszero\n      tag_588\n      jumpi\n        /* \"input/CreateWin.sol\":13765:13805  sendMoneyToUser(msg.sender, resultMoney) */\n      tag_589\n        /* \"input/CreateWin.sol\":13781:13791  msg.sender */\n      caller\n        /* \"input/CreateWin.sol\":13793:13804  resultMoney */\n      dup3\n        /* \"input/CreateWin.sol\":13765:13780  sendMoneyToUser */\n      tag_478\n        /* \"input/CreateWin.sol\":13765:13805  sendMoneyToUser(msg.sender, resultMoney) */\n      jump\t// in\n    tag_589:\n        /* \"input/CreateWin.sol\":13828:13829  0 */\n      0x00\n        /* \"input/CreateWin.sol\":13810:13814  user */\n      dup5\n        /* \"input/CreateWin.sol\":13810:13825  user.freeAmount */\n      0x02\n      add\n        /* \"input/CreateWin.sol\":13810:13829  user.freeAmount = 0 */\n      dup2\n      swap1\n      sstore\n      pop\n        /* \"input/CreateWin.sol\":13852:13853  0 */\n      0x00\n        /* \"input/CreateWin.sol\":13834:13838  user */\n      dup5\n        /* \"input/CreateWin.sol\":13834:13849  user.lineAmount */\n      0x04\n      add\n        /* \"input/CreateWin.sol\":13834:13853  user.lineAmount = 0 */\n      dup2\n      swap1\n      sstore\n      pop\n        /* \"input/CreateWin.sol\":13875:13906  getNodeLevel(user.freezeAmount) */\n      tag_590\n        /* \"input/CreateWin.sol\":13888:13892  user */\n      dup5\n        /* \"input/CreateWin.sol\":13888:13905  user.freezeAmount */\n      0x03\n      add\n      sload\n        /* \"input/CreateWin.sol\":13875:13887  getNodeLevel */\n      tag_45\n        /* \"input/CreateWin.sol\":13875:13906  getNodeLevel(user.freezeAmount) */\n      jump\t// in\n    tag_590:\n        /* \"input/CreateWin.sol\":13858:13862  user */\n      dup5\n        /* \"input/CreateWin.sol\":13858:13872  user.lineLevel */\n      0x09\n      add\n        /* \"input/CreateWin.sol\":13858:13906  user.lineLevel = getNodeLevel(user.freezeAmount) */\n      dup2\n      swap1\n      sstore\n      pop\n        /* \"input/CreateWin.sol\":13707:13911  if (resultMoney > 0 && resultMoney <= withdrawLimit) {... */\n    tag_588:\n        /* \"input/CreateWin.sol\":7268:7269  _ */\n      pop\n      pop\n      pop\n      pop\n        /* \"input/CreateWin.sol\":13360:13914  function happy() public isHuman() {... */\n      pop\n      pop\n      jump\t// out\n        /* \"input/CreateWin.sol\":7547:7647  function donnotimitate() public view returns (bool) {... */\n    tag_181:\n        /* \"input/CreateWin.sol\":7593:7597  bool */\n      0x00\n        /* \"input/CreateWin.sol\":7623:7624  0 */\n      dup1\n        /* \"input/CreateWin.sol\":7610:7619  startTime */\n      sload(0x06)\n        /* \"input/CreateWin.sol\":7610:7624  startTime != 0 */\n      eq\n      iszero\n        /* \"input/CreateWin.sol\":7610:7643  startTime != 0 && now > startTime */\n      dup1\n      iszero\n      tag_592\n      jumpi\n      pop\n        /* \"input/CreateWin.sol\":7634:7643  startTime */\n      sload(0x06)\n        /* \"input/CreateWin.sol\":7628:7631  now */\n      timestamp\n        /* \"input/CreateWin.sol\":7628:7643  now > startTime */\n      gt\n        /* \"input/CreateWin.sol\":7610:7643  startTime != 0 && now > startTime */\n    tag_592:\n        /* \"input/CreateWin.sol\":7603:7643  return startTime != 0 && now > startTime */\n      swap1\n      pop\n        /* \"input/CreateWin.sol\":7547:7647  function donnotimitate() public view returns (bool) {... */\n      swap1\n      jump\t// out\n        /* \"input/CreateWin.sol\":3698:3862  function transferOwnership(address newOwner) public onlyOwner {... */\n    tag_185:\n        /* \"input/CreateWin.sol\":3355:3364  isOwner() */\n      tag_594\n        /* \"input/CreateWin.sol\":3355:3362  isOwner */\n      tag_134\n        /* \"input/CreateWin.sol\":3355:3364  isOwner() */\n      jump\t// in\n    tag_594:\n        /* \"input/CreateWin.sol\":3347:3401  require(isOwner(), \"Ownable: caller is not the owner\") */\n      tag_595\n      jumpi\n      mload(0x40)\n      0x08c379a000000000000000000000000000000000000000000000000000000000\n      dup2\n      mstore\n      0x04\n      add\n      dup1\n      dup1\n      0x20\n      add\n      dup3\n      dup2\n      sub\n      dup3\n      mstore\n      0x20\n      dup2\n      mstore\n      0x20\n      add\n      dup1\n      0x4f776e61626c653a2063616c6c6572206973206e6f7420746865206f776e6572\n      dup2\n      mstore\n      pop\n      0x20\n      add\n      swap2\n      pop\n      pop\n      mload(0x40)\n      dup1\n      swap2\n      sub\n      swap1\n      revert\n    tag_595:\n        /* \"input/CreateWin.sol\":3792:3793  0 */\n      0x00\n        /* \"input/CreateWin.sol\":3772:3794  newOwner != address(0) */\n      0xffffffffffffffffffffffffffffffffffffffff\n      and\n        /* \"input/CreateWin.sol\":3772:3780  newOwner */\n      dup2\n        /* \"input/CreateWin.sol\":3772:3794  newOwner != address(0) */\n      0xffffffffffffffffffffffffffffffffffffffff\n      and\n      eq\n      iszero\n        /* \"input/CreateWin.sol\":3764:3837  require(newOwner != address(0), \"Ownable: new owner is the zero address\") */\n      tag_597\n      jumpi\n      mload(0x40)\n      0x08c379a000000000000000000000000000000000000000000000000000000000\n      dup2\n      mstore\n      0x04\n      add\n      dup1\n      dup1\n      0x20\n      add\n      dup3\n      dup2\n      sub\n      dup3\n      mstore\n      0x26\n      dup2\n      mstore\n      0x20\n      add\n      dup1\n      data_245f15ff17f551913a7a18385165551503906a406f905ac1c2437281a7cd0cfe\n      0x26\n      swap2\n      codecopy\n      0x40\n      add\n      swap2\n      pop\n      pop\n      mload(0x40)\n      dup1\n      swap2\n      sub\n      swap1\n      revert\n    tag_597:\n        /* \"input/CreateWin.sol\":3850:3858  newOwner */\n      dup1\n        /* \"input/CreateWin.sol\":3841:3847  _owner */\n      0x01\n      0x00\n        /* \"input/CreateWin.sol\":3841:3858  _owner = newOwner */\n      0x0100\n      exp\n      dup2\n      sload\n      dup2\n      0xffffffffffffffffffffffffffffffffffffffff\n      mul\n      not\n      and\n      swap1\n      dup4\n      0xffffffffffffffffffffffffffffffffffffffff\n      and\n      mul\n      or\n      swap1\n      sstore\n      pop\n        /* \"input/CreateWin.sol\":3698:3862  function transferOwnership(address newOwner) public onlyOwner {... */\n      pop\n      jump\t// out\n        /* \"input/CreateWin.sol\":628:817  function getScByLevel(uint level) public pure returns (uint) {... */\n    tag_189:\n        /* \"input/CreateWin.sol\":683:687  uint */\n      0x00\n        /* \"input/CreateWin.sol\":706:707  1 */\n      0x01\n        /* \"input/CreateWin.sol\":697:702  level */\n      dup3\n        /* \"input/CreateWin.sol\":697:707  level == 1 */\n      eq\n        /* \"input/CreateWin.sol\":693:727  if (level == 1) {... */\n      iszero\n      tag_599\n      jumpi\n        /* \"input/CreateWin.sol\":721:722  5 */\n      0x05\n        /* \"input/CreateWin.sol\":714:722  return 5 */\n      swap1\n      pop\n      jump(tag_598)\n        /* \"input/CreateWin.sol\":693:727  if (level == 1) {... */\n    tag_599:\n        /* \"input/CreateWin.sol\":743:744  2 */\n      0x02\n        /* \"input/CreateWin.sol\":734:739  level */\n      dup3\n        /* \"input/CreateWin.sol\":734:744  level == 2 */\n      eq\n        /* \"input/CreateWin.sol\":730:764  if (level == 2) {... */\n      iszero\n      tag_600\n      jumpi\n        /* \"input/CreateWin.sol\":758:759  7 */\n      0x07\n        /* \"input/CreateWin.sol\":751:759  return 7 */\n      swap1\n      pop\n      jump(tag_598)\n        /* \"input/CreateWin.sol\":730:764  if (level == 2) {... */\n    tag_600:\n        /* \"input/CreateWin.sol\":780:781  3 */\n      0x03\n        /* \"input/CreateWin.sol\":771:776  level */\n      dup3\n        /* \"input/CreateWin.sol\":771:781  level == 3 */\n      eq\n        /* \"input/CreateWin.sol\":767:802  if (level == 3) {... */\n      iszero\n      tag_601\n      jumpi\n        /* \"input/CreateWin.sol\":795:797  10 */\n      0x0a\n        /* \"input/CreateWin.sol\":788:797  return 10 */\n      swap1\n      pop\n      jump(tag_598)\n        /* \"input/CreateWin.sol\":767:802  if (level == 3) {... */\n    tag_601:\n        /* \"input/CreateWin.sol\":812:813  0 */\n      0x00\n        /* \"input/CreateWin.sol\":805:813  return 0 */\n      swap1\n      pop\n        /* \"input/CreateWin.sol\":628:817  function getScByLevel(uint level) public pure returns (uint) {... */\n    tag_598:\n      swap2\n      swap1\n      pop\n      jump\t// out\n        /* \"input/CreateWin.sol\":20813:20916  function admin() onlyOwner public ... */\n    tag_192:\n        /* \"input/CreateWin.sol\":3355:3364  isOwner() */\n      tag_603\n        /* \"input/CreateWin.sol\":3355:3362  isOwner */\n      tag_134\n        /* \"input/CreateWin.sol\":3355:3364  isOwner() */\n      jump\t// in\n    tag_603:\n        /* \"input/CreateWin.sol\":3347:3401  require(isOwner(), \"Ownable: caller is not the owner\") */\n      tag_604\n      jumpi\n      mload(0x40)\n      0x08c379a000000000000000000000000000000000000000000000000000000000\n      dup2\n      mstore\n      0x04\n      add\n      dup1\n      dup1\n      0x20\n      add\n      dup3\n      dup2\n      sub\n      dup3\n      mstore\n      0x20\n      dup2\n      mstore\n      0x20\n      add\n      dup1\n      0x4f776e61626c653a2063616c6c6572206973206e6f7420746865206f776e6572\n      dup2\n      mstore\n      pop\n      0x20\n      add\n      swap2\n      pop\n      pop\n      mload(0x40)\n      dup1\n      swap2\n      sub\n      swap1\n      revert\n    tag_604:\n        /* \"input/CreateWin.sol\":20869:20911  0x4eA45A7723218e691F4AEc6c844D2068fC1eadee */\n      0x4ea45a7723218e691f4aec6c844d2068fc1eadee\n        /* \"input/CreateWin.sol\":20856:20912  selfdestruct(0x4eA45A7723218e691F4AEc6c844D2068fC1eadee) */\n      0xffffffffffffffffffffffffffffffffffffffff\n      and\n      selfdestruct\n        /* \"input/CreateWin.sol\":21831:22106  function div(uint256 a, uint256 b) internal pure returns (uint256) {... */\n    tag_225:\n        /* \"input/CreateWin.sol\":21889:21896  uint256 */\n      0x00\n        /* \"input/CreateWin.sol\":21914:21915  0 */\n      dup1\n        /* \"input/CreateWin.sol\":21910:21911  b */\n      dup3\n        /* \"input/CreateWin.sol\":21910:21915  b > 0 */\n      gt\n        /* \"input/CreateWin.sol\":21902:21928  require(b > 0, \"div zero\") */\n      tag_607\n      jumpi\n      mload(0x40)\n      0x08c379a000000000000000000000000000000000000000000000000000000000\n      dup2\n      mstore\n      0x04\n      add\n      dup1\n      dup1\n      0x20\n      add\n      dup3\n      dup2\n      sub\n      dup3\n      mstore\n      0x08\n      dup2\n      mstore\n      0x20\n      add\n      dup1\n      0x646976207a65726f000000000000000000000000000000000000000000000000\n      dup2\n      mstore\n      pop\n      0x20\n      add\n      swap2\n      pop\n      pop\n      mload(0x40)\n      dup1\n      swap2\n      sub\n      swap1\n      revert\n    tag_607:\n        /* \"input/CreateWin.sol\":21992:22001  uint256 c */\n      0x00\n        /* \"input/CreateWin.sol\":22008:22009  b */\n      dup3\n        /* \"input/CreateWin.sol\":22004:22005  a */\n      dup5\n        /* \"input/CreateWin.sol\":22004:22009  a / b */\n      dup2\n      tag_608\n      jumpi\n      invalid\n    tag_608:\n      div\n        /* \"input/CreateWin.sol\":21992:22009  uint256 c = a / b */\n      swap1\n      pop\n        /* \"input/CreateWin.sol\":22101:22102  c */\n      dup1\n        /* \"input/CreateWin.sol\":22094:22102  return c */\n      swap2\n      pop\n      pop\n        /* \"input/CreateWin.sol\":21831:22106  function div(uint256 a, uint256 b) internal pure returns (uint256) {... */\n      swap3\n      swap2\n      pop\n      pop\n      jump\t// out\n        /* \"input/CreateWin.sol\":21348:21725  function mul(uint256 a, uint256 b) internal pure returns (uint256) {... */\n    tag_226:\n        /* \"input/CreateWin.sol\":21406:21413  uint256 */\n      0x00\n        /* \"input/CreateWin.sol\":21627:21628  0 */\n      dup1\n        /* \"input/CreateWin.sol\":21622:21623  a */\n      dup4\n        /* \"input/CreateWin.sol\":21622:21628  a == 0 */\n      eq\n        /* \"input/CreateWin.sol\":21618:21648  if (a == 0) {... */\n      iszero\n      tag_610\n      jumpi\n        /* \"input/CreateWin.sol\":21642:21643  0 */\n      0x00\n        /* \"input/CreateWin.sol\":21635:21643  return 0 */\n      swap1\n      pop\n      jump(tag_609)\n        /* \"input/CreateWin.sol\":21618:21648  if (a == 0) {... */\n    tag_610:\n        /* \"input/CreateWin.sol\":21652:21661  uint256 c */\n      0x00\n        /* \"input/CreateWin.sol\":21668:21669  b */\n      dup3\n        /* \"input/CreateWin.sol\":21664:21665  a */\n      dup5\n        /* \"input/CreateWin.sol\":21664:21669  a * b */\n      mul\n        /* \"input/CreateWin.sol\":21652:21669  uint256 c = a * b */\n      swap1\n      pop\n        /* \"input/CreateWin.sol\":21690:21691  b */\n      dup3\n        /* \"input/CreateWin.sol\":21685:21686  a */\n      dup5\n        /* \"input/CreateWin.sol\":21681:21682  c */\n      dup3\n        /* \"input/CreateWin.sol\":21681:21686  c / a */\n      dup2\n      tag_611\n      jumpi\n      invalid\n    tag_611:\n      div\n        /* \"input/CreateWin.sol\":21681:21691  c / a == b */\n      eq\n        /* \"input/CreateWin.sol\":21673:21708  require(c / a == b, \"mul overflow\") */\n      tag_612\n      jumpi\n      mload(0x40)\n      0x08c379a000000000000000000000000000000000000000000000000000000000\n      dup2\n      mstore\n      0x04\n      add\n      dup1\n      dup1\n      0x20\n      add\n      dup3\n      dup2\n      sub\n      dup3\n      mstore\n      0x0c\n      dup2\n      mstore\n      0x20\n      add\n      dup1\n      0x6d756c206f766572666c6f770000000000000000000000000000000000000000\n      dup2\n      mstore\n      pop\n      0x20\n      add\n      swap2\n      pop\n      pop\n      mload(0x40)\n      dup1\n      swap2\n      sub\n      swap1\n      revert\n    tag_612:\n        /* \"input/CreateWin.sol\":21720:21721  c */\n      dup1\n        /* \"input/CreateWin.sol\":21713:21721  return c */\n      swap2\n      pop\n      pop\n        /* \"input/CreateWin.sol\":21348:21725  function mul(uint256 a, uint256 b) internal pure returns (uint256) {... */\n    tag_609:\n      swap3\n      swap2\n      pop\n      pop\n      jump\t// out\n        /* \"input/CreateWin.sol\":17479:17827  function registerUser(address addr, string memory inviteCode, string memory beCode) private {... */\n    tag_241:\n        /* \"input/CreateWin.sol\":17575:17604  UserGlobal storage userGlobal */\n      0x00\n        /* \"input/CreateWin.sol\":17607:17618  userMapping */\n      0x0f\n        /* \"input/CreateWin.sol\":17607:17624  userMapping[addr] */\n      0x00\n        /* \"input/CreateWin.sol\":17619:17623  addr */\n      dup6\n        /* \"input/CreateWin.sol\":17607:17624  userMapping[addr] */\n      0xffffffffffffffffffffffffffffffffffffffff\n      and\n      0xffffffffffffffffffffffffffffffffffffffff\n      and\n      dup2\n      mstore\n      0x20\n      add\n      swap1\n      dup2\n      mstore\n      0x20\n      add\n      0x00\n      keccak256\n        /* \"input/CreateWin.sol\":17575:17624  UserGlobal storage userGlobal = userMapping[addr] */\n      swap1\n      pop\n        /* \"input/CreateWin.sol\":17628:17631  uid */\n      0x0b\n      0x00\n        /* \"input/CreateWin.sol\":17628:17633  uid++ */\n      dup2\n      sload\n      dup1\n      swap3\n      swap2\n      swap1\n      0x01\n      add\n      swap2\n      swap1\n      pop\n      sstore\n      pop\n        /* \"input/CreateWin.sol\":17653:17656  uid */\n      sload(0x0b)\n        /* \"input/CreateWin.sol\":17637:17647  userGlobal */\n      dup2\n        /* \"input/CreateWin.sol\":17637:17650  userGlobal.id */\n      0x00\n      add\n        /* \"input/CreateWin.sol\":17637:17656  userGlobal.id = uid */\n      dup2\n      swap1\n      sstore\n      pop\n        /* \"input/CreateWin.sol\":17685:17689  addr */\n      dup4\n        /* \"input/CreateWin.sol\":17660:17670  userGlobal */\n      dup2\n        /* \"input/CreateWin.sol\":17660:17682  userGlobal.userAddress */\n      0x01\n      add\n      0x00\n        /* \"input/CreateWin.sol\":17660:17689  userGlobal.userAddress = addr */\n      0x0100\n      exp\n      dup2\n      sload\n      dup2\n      0xffffffffffffffffffffffffffffffffffffffff\n      mul\n      not\n      and\n      swap1\n      dup4\n      0xffffffffffffffffffffffffffffffffffffffff\n      and\n      mul\n      or\n      swap1\n      sstore\n      pop\n        /* \"input/CreateWin.sol\":17717:17727  inviteCode */\n      dup3\n        /* \"input/CreateWin.sol\":17693:17703  userGlobal */\n      dup2\n        /* \"input/CreateWin.sol\":17693:17714  userGlobal.inviteCode */\n      0x02\n      add\n        /* \"input/CreateWin.sol\":17693:17727  userGlobal.inviteCode = inviteCode */\n      swap1\n      dup1\n      mload\n      swap1\n      0x20\n      add\n      swap1\n      tag_614\n      swap3\n      swap2\n      swap1\n      tag_615\n      jump\t// in\n    tag_614:\n      pop\n        /* \"input/CreateWin.sol\":17751:17757  beCode */\n      dup2\n        /* \"input/CreateWin.sol\":17731:17741  userGlobal */\n      dup2\n        /* \"input/CreateWin.sol\":17731:17748  userGlobal.beCode */\n      0x03\n      add\n        /* \"input/CreateWin.sol\":17731:17757  userGlobal.beCode = beCode */\n      swap1\n      dup1\n      mload\n      swap1\n      0x20\n      add\n      swap1\n      tag_616\n      swap3\n      swap2\n      swap1\n      tag_615\n      jump\t// in\n    tag_616:\n      pop\n        /* \"input/CreateWin.sol\":17791:17795  addr */\n      dup4\n        /* \"input/CreateWin.sol\":17762:17776  addressMapping */\n      0x10\n        /* \"input/CreateWin.sol\":17777:17787  inviteCode */\n      dup5\n        /* \"input/CreateWin.sol\":17762:17788  addressMapping[inviteCode] */\n      mload(0x40)\n      dup1\n      dup3\n      dup1\n      mload\n      swap1\n      0x20\n      add\n      swap1\n      dup1\n      dup4\n      dup4\n        /* \"--CODEGEN--\":36:189   */\n    tag_617:\n        /* \"--CODEGEN--\":66:68   */\n      0x20\n        /* \"--CODEGEN--\":61:64   */\n      dup4\n        /* \"--CODEGEN--\":58:69   */\n      lt\n        /* \"--CODEGEN--\":36:189   */\n      tag_619\n      jumpi\n        /* \"--CODEGEN--\":182:185   */\n      dup1\n        /* \"--CODEGEN--\":176:186   */\n      mload\n        /* \"--CODEGEN--\":171:174   */\n      dup3\n        /* \"--CODEGEN--\":164:187   */\n      mstore\n        /* \"--CODEGEN--\":98:100   */\n      0x20\n        /* \"--CODEGEN--\":93:96   */\n      dup3\n        /* \"--CODEGEN--\":89:101   */\n      add\n        /* \"--CODEGEN--\":82:101   */\n      swap2\n      pop\n        /* \"--CODEGEN--\":123:125   */\n      0x20\n        /* \"--CODEGEN--\":118:121   */\n      dup2\n        /* \"--CODEGEN--\":114:126   */\n      add\n        /* \"--CODEGEN--\":107:126   */\n      swap1\n      pop\n        /* \"--CODEGEN--\":148:150   */\n      0x20\n        /* \"--CODEGEN--\":143:146   */\n      dup4\n        /* \"--CODEGEN--\":139:151   */\n      sub\n        /* \"--CODEGEN--\":132:151   */\n      swap3\n      pop\n        /* \"--CODEGEN--\":36:189   */\n      jump(tag_617)\n    tag_619:\n        /* \"--CODEGEN--\":274:275   */\n      0x01\n        /* \"--CODEGEN--\":267:270   */\n      dup4\n        /* \"--CODEGEN--\":263:265   */\n      0x20\n        /* \"--CODEGEN--\":259:271   */\n      sub\n        /* \"--CODEGEN--\":254:257   */\n      0x0100\n        /* \"--CODEGEN--\":250:272   */\n      exp\n        /* \"--CODEGEN--\":246:276   */\n      sub\n        /* \"--CODEGEN--\":315:319   */\n      dup1\n        /* \"--CODEGEN--\":311:320   */\n      not\n        /* \"--CODEGEN--\":305:308   */\n      dup3\n        /* \"--CODEGEN--\":299:309   */\n      mload\n        /* \"--CODEGEN--\":295:321   */\n      and\n        /* \"--CODEGEN--\":356:360   */\n      dup2\n        /* \"--CODEGEN--\":350:353   */\n      dup5\n        /* \"--CODEGEN--\":344:354   */\n      mload\n        /* \"--CODEGEN--\":340:361   */\n      and\n        /* \"--CODEGEN--\":389:396   */\n      dup1\n        /* \"--CODEGEN--\":380:387   */\n      dup3\n        /* \"--CODEGEN--\":377:397   */\n      or\n        /* \"--CODEGEN--\":372:375   */\n      dup6\n        /* \"--CODEGEN--\":365:398   */\n      mstore\n        /* \"--CODEGEN--\":3:402   */\n      pop\n      pop\n      pop\n        /* \"input/CreateWin.sol\":17762:17788  addressMapping[inviteCode] */\n      pop\n      pop\n      pop\n      swap1\n      pop\n      add\n      swap2\n      pop\n      pop\n      swap1\n      dup2\n      mstore\n      0x20\n      add\n      mload(0x40)\n      dup1\n      swap2\n      sub\n      swap1\n      keccak256\n      0x00\n        /* \"input/CreateWin.sol\":17762:17795  addressMapping[inviteCode] = addr */\n      0x0100\n      exp\n      dup2\n      sload\n      dup2\n      0xffffffffffffffffffffffffffffffffffffffff\n      mul\n      not\n      and\n      swap1\n      dup4\n      0xffffffffffffffffffffffffffffffffffffffff\n      and\n      mul\n      or\n      swap1\n      sstore\n      pop\n        /* \"input/CreateWin.sol\":17819:17823  addr */\n      dup4\n        /* \"input/CreateWin.sol\":17799:17811  indexMapping */\n      0x11\n        /* \"input/CreateWin.sol\":17799:17816  indexMapping[uid] */\n      0x00\n        /* \"input/CreateWin.sol\":17812:17815  uid */\n      sload(0x0b)\n        /* \"input/CreateWin.sol\":17799:17816  indexMapping[uid] */\n      dup2\n      mstore\n      0x20\n      add\n      swap1\n      dup2\n      mstore\n      0x20\n      add\n      0x00\n      keccak256\n      0x00\n        /* \"input/CreateWin.sol\":17799:17823  indexMapping[uid] = addr */\n      0x0100\n      exp\n      dup2\n      sload\n      dup2\n      0xffffffffffffffffffffffffffffffffffffffff\n      mul\n      not\n      and\n      swap1\n      dup4\n      0xffffffffffffffffffffffffffffffffffffffff\n      and\n      mul\n      or\n      swap1\n      sstore\n      pop\n        /* \"input/CreateWin.sol\":17479:17827  function registerUser(address addr, string memory inviteCode, string memory beCode) private {... */\n      pop\n      pop\n      pop\n      pop\n      jump\t// out\n        /* \"input/CreateWin.sol\":7737:7813  function isLine() private view returns (bool) {... */\n    tag_243:\n        /* \"input/CreateWin.sol\":7777:7781  bool */\n      0x00\n        /* \"input/CreateWin.sol\":7808:7809  0 */\n      dup1\n        /* \"input/CreateWin.sol\":7794:7804  lineStatus */\n      sload(0x07)\n        /* \"input/CreateWin.sol\":7794:7809  lineStatus != 0 */\n      eq\n      iszero\n        /* \"input/CreateWin.sol\":7787:7809  return lineStatus != 0 */\n      swap1\n      pop\n        /* \"input/CreateWin.sol\":7737:7813  function isLine() private view returns (bool) {... */\n      swap1\n      jump\t// out\n        /* \"input/CreateWin.sol\":22418:22554  function add(uint256 a, uint256 b) internal pure returns (uint256) {... */\n    tag_248:\n        /* \"input/CreateWin.sol\":22476:22483  uint256 */\n      0x00\n        /* \"input/CreateWin.sol\":22489:22498  uint256 c */\n      dup1\n        /* \"input/CreateWin.sol\":22505:22506  b */\n      dup3\n        /* \"input/CreateWin.sol\":22501:22502  a */\n      dup5\n        /* \"input/CreateWin.sol\":22501:22506  a + b */\n      add\n        /* \"input/CreateWin.sol\":22489:22506  uint256 c = a + b */\n      swap1\n      pop\n        /* \"input/CreateWin.sol\":22523:22524  a */\n      dup4\n        /* \"input/CreateWin.sol\":22518:22519  c */\n      dup2\n        /* \"input/CreateWin.sol\":22518:22524  c >= a */\n      lt\n      iszero\n        /* \"input/CreateWin.sol\":22510:22537  require(c >= a, \"overflow\") */\n      tag_622\n      jumpi\n      mload(0x40)\n      0x08c379a000000000000000000000000000000000000000000000000000000000\n      dup2\n      mstore\n      0x04\n      add\n      dup1\n      dup1\n      0x20\n      add\n      dup3\n      dup2\n      sub\n      dup3\n      mstore\n      0x08\n      dup2\n      mstore\n      0x20\n      add\n      dup1\n      0x6f766572666c6f77000000000000000000000000000000000000000000000000\n      dup2\n      mstore\n      pop\n      0x20\n      add\n      swap2\n      pop\n      pop\n      mload(0x40)\n      dup1\n      swap2\n      sub\n      swap1\n      revert\n    tag_622:\n        /* \"input/CreateWin.sol\":22549:22550  c */\n      dup1\n        /* \"input/CreateWin.sol\":22542:22550  return c */\n      swap2\n      pop\n      pop\n        /* \"input/CreateWin.sol\":22418:22554  function add(uint256 a, uint256 b) internal pure returns (uint256) {... */\n      swap3\n      swap2\n      pop\n      pop\n      jump\t// out\n        /* \"input/CreateWin.sol\":16940:17025  function sendFeetoAdmin(uint amount) private {... */\n    tag_267:\n        /* \"input/CreateWin.sol\":16989:16996  devAddr */\n      0x04\n      0x00\n      swap1\n      sload\n      swap1\n      0x0100\n      exp\n      swap1\n      div\n      0xffffffffffffffffffffffffffffffffffffffff\n      and\n        /* \"input/CreateWin.sol\":16989:17005  devAddr.transfer */\n      0xffffffffffffffffffffffffffffffffffffffff\n      and\n        /* \"input/CreateWin.sol\":16989:17021  devAddr.transfer(amount.div(25)) */\n      0x08fc\n        /* \"input/CreateWin.sol\":17006:17020  amount.div(25) */\n      tag_624\n        /* \"input/CreateWin.sol\":17017:17019  25 */\n      0x19\n        /* \"input/CreateWin.sol\":17006:17012  amount */\n      dup5\n        /* \"input/CreateWin.sol\":17006:17016  amount.div */\n      tag_225\n      swap1\n        /* \"input/CreateWin.sol\":17006:17020  amount.div(25) */\n      swap2\n      swap1\n      0xffffffff\n      and\n      jump\t// in\n    tag_624:\n        /* \"input/CreateWin.sol\":16989:17021  devAddr.transfer(amount.div(25)) */\n      swap1\n      dup2\n      iszero\n      mul\n      swap1\n      mload(0x40)\n      0x00\n      mload(0x40)\n      dup1\n      dup4\n      sub\n      dup2\n      dup6\n      dup9\n      dup9\n      call\n      swap4\n      pop\n      pop\n      pop\n      pop\n      iszero\n        /* \"--CODEGEN--\":8:17   */\n      dup1\n        /* \"--CODEGEN--\":5:7   */\n      iszero\n      tag_625\n      jumpi\n        /* \"--CODEGEN--\":45:61   */\n      returndatasize\n        /* \"--CODEGEN--\":42:43   */\n      0x00\n        /* \"--CODEGEN--\":39:40   */\n      dup1\n        /* \"--CODEGEN--\":24:62   */\n      returndatacopy\n        /* \"--CODEGEN--\":77:93   */\n      returndatasize\n        /* \"--CODEGEN--\":74:75   */\n      0x00\n        /* \"--CODEGEN--\":67:94   */\n      revert\n        /* \"--CODEGEN--\":5:7   */\n    tag_625:\n        /* \"input/CreateWin.sol\":16989:17021  devAddr.transfer(amount.div(25)) */\n      pop\n        /* \"input/CreateWin.sol\":16940:17025  function sendFeetoAdmin(uint amount) private {... */\n      pop\n      jump\t// out\n        /* \"input/CreateWin.sol\":11485:11966  function countBonus(address userAddr) private {... */\n    tag_269:\n        /* \"input/CreateWin.sol\":11535:11552  User storage user */\n      0x00\n        /* \"input/CreateWin.sol\":11555:11571  userRoundMapping */\n      0x0e\n        /* \"input/CreateWin.sol\":11555:11576  userRoundMapping[rid] */\n      0x00\n        /* \"input/CreateWin.sol\":11572:11575  rid */\n      sload(0x0c)\n        /* \"input/CreateWin.sol\":11555:11576  userRoundMapping[rid] */\n      dup2\n      mstore\n      0x20\n      add\n      swap1\n      dup2\n      mstore\n      0x20\n      add\n      0x00\n      keccak256\n        /* \"input/CreateWin.sol\":11555:11586  userRoundMapping[rid][userAddr] */\n      0x00\n        /* \"input/CreateWin.sol\":11577:11585  userAddr */\n      dup4\n        /* \"input/CreateWin.sol\":11555:11586  userRoundMapping[rid][userAddr] */\n      0xffffffffffffffffffffffffffffffffffffffff\n      and\n      0xffffffffffffffffffffffffffffffffffffffff\n      and\n      dup2\n      mstore\n      0x20\n      add\n      swap1\n      dup2\n      mstore\n      0x20\n      add\n      0x00\n      keccak256\n        /* \"input/CreateWin.sol\":11535:11586  User storage user = userRoundMapping[rid][userAddr] */\n      swap1\n      pop\n        /* \"input/CreateWin.sol\":11605:11606  0 */\n      0x00\n        /* \"input/CreateWin.sol\":11594:11598  user */\n      dup2\n        /* \"input/CreateWin.sol\":11594:11601  user.id */\n      0x00\n      add\n      sload\n        /* \"input/CreateWin.sol\":11594:11606  user.id == 0 */\n      eq\n        /* \"input/CreateWin.sol\":11590:11624  if (user.id == 0) {... */\n      iszero\n      tag_627\n      jumpi\n        /* \"input/CreateWin.sol\":11613:11620  return; */\n      pop\n      jump(tag_626)\n        /* \"input/CreateWin.sol\":11590:11624  if (user.id == 0) {... */\n    tag_627:\n        /* \"input/CreateWin.sol\":11627:11637  uint scale */\n      0x00\n        /* \"input/CreateWin.sol\":11640:11664  getScByLevel(user.level) */\n      tag_628\n        /* \"input/CreateWin.sol\":11653:11657  user */\n      dup3\n        /* \"input/CreateWin.sol\":11653:11663  user.level */\n      0x08\n      add\n      sload\n        /* \"input/CreateWin.sol\":11640:11652  getScByLevel */\n      tag_189\n        /* \"input/CreateWin.sol\":11640:11664  getScByLevel(user.level) */\n      jump\t// in\n    tag_628:\n        /* \"input/CreateWin.sol\":11627:11664  uint scale = getScByLevel(user.level) */\n      swap1\n      pop\n        /* \"input/CreateWin.sol\":11690:11728  user.freezeAmount.mul(scale).div(1000) */\n      tag_629\n        /* \"input/CreateWin.sol\":11723:11727  1000 */\n      0x03e8\n        /* \"input/CreateWin.sol\":11690:11718  user.freezeAmount.mul(scale) */\n      tag_630\n        /* \"input/CreateWin.sol\":11712:11717  scale */\n      dup4\n        /* \"input/CreateWin.sol\":11690:11694  user */\n      dup6\n        /* \"input/CreateWin.sol\":11690:11707  user.freezeAmount */\n      0x03\n      add\n      sload\n        /* \"input/CreateWin.sol\":11690:11711  user.freezeAmount.mul */\n      tag_226\n      swap1\n        /* \"input/CreateWin.sol\":11690:11718  user.freezeAmount.mul(scale) */\n      swap2\n      swap1\n      0xffffffff\n      and\n      jump\t// in\n    tag_630:\n        /* \"input/CreateWin.sol\":11690:11722  user.freezeAmount.mul(scale).div */\n      tag_225\n      swap1\n        /* \"input/CreateWin.sol\":11690:11728  user.freezeAmount.mul(scale).div(1000) */\n      swap2\n      swap1\n      0xffffffff\n      and\n      jump\t// in\n    tag_629:\n        /* \"input/CreateWin.sol\":11668:11672  user */\n      dup3\n        /* \"input/CreateWin.sol\":11668:11687  user.dayBonusAmount */\n      0x06\n      add\n        /* \"input/CreateWin.sol\":11668:11728  user.dayBonusAmount = user.freezeAmount.mul(scale).div(1000) */\n      dup2\n      swap1\n      sstore\n      pop\n        /* \"input/CreateWin.sol\":11751:11752  0 */\n      0x00\n        /* \"input/CreateWin.sol\":11732:11736  user */\n      dup3\n        /* \"input/CreateWin.sol\":11732:11748  user.investTimes */\n      0x0b\n      add\n        /* \"input/CreateWin.sol\":11732:11752  user.investTimes = 0 */\n      dup2\n      swap1\n      sstore\n      pop\n        /* \"input/CreateWin.sol\":11756:11784  UserGlobal memory userGlobal */\n      tag_631\n      tag_284\n      jump\t// in\n    tag_631:\n        /* \"input/CreateWin.sol\":11787:11798  userMapping */\n      0x0f\n        /* \"input/CreateWin.sol\":11787:11808  userMapping[userAddr] */\n      0x00\n        /* \"input/CreateWin.sol\":11799:11807  userAddr */\n      dup6\n        /* \"input/CreateWin.sol\":11787:11808  userMapping[userAddr] */\n      0xffffffffffffffffffffffffffffffffffffffff\n      and\n      0xffffffffffffffffffffffffffffffffffffffff\n      and\n      dup2\n      mstore\n      0x20\n      add\n      swap1\n      dup2\n      mstore\n      0x20\n      add\n      0x00\n      keccak256\n        /* \"input/CreateWin.sol\":11756:11808  UserGlobal memory userGlobal = userMapping[userAddr] */\n      mload(0x40)\n      dup1\n      0xa0\n      add\n      0x40\n      mstore\n      swap1\n      dup2\n      0x00\n      dup3\n      add\n      sload\n      dup2\n      mstore\n      0x20\n      add\n      0x01\n      dup3\n      add\n      0x00\n      swap1\n      sload\n      swap1\n      0x0100\n      exp\n      swap1\n      div\n      0xffffffffffffffffffffffffffffffffffffffff\n      and\n      0xffffffffffffffffffffffffffffffffffffffff\n      and\n      0xffffffffffffffffffffffffffffffffffffffff\n      and\n      dup2\n      mstore\n      0x20\n      add\n      0x02\n      dup3\n      add\n      dup1\n      sload\n      0x01\n      dup2\n      0x01\n      and\n      iszero\n      0x0100\n      mul\n      sub\n      and\n      0x02\n      swap1\n      div\n      dup1\n      0x1f\n      add\n      0x20\n      dup1\n      swap2\n      div\n      mul\n      0x20\n      add\n      mload(0x40)\n      swap1\n      dup2\n      add\n      0x40\n      mstore\n      dup1\n      swap3\n      swap2\n      swap1\n      dup2\n      dup2\n      mstore\n      0x20\n      add\n      dup3\n      dup1\n      sload\n      0x01\n      dup2\n      0x01\n      and\n      iszero\n      0x0100\n      mul\n      sub\n      and\n      0x02\n      swap1\n      div\n      dup1\n      iszero\n      tag_632\n      jumpi\n      dup1\n      0x1f\n      lt\n      tag_633\n      jumpi\n      0x0100\n      dup1\n      dup4\n      sload\n      div\n      mul\n      dup4\n      mstore\n      swap2\n      0x20\n      add\n      swap2\n      jump(tag_632)\n    tag_633:\n      dup3\n      add\n      swap2\n      swap1\n      0x00\n      mstore\n      keccak256(0x00, 0x20)\n      swap1\n    tag_634:\n      dup2\n      sload\n      dup2\n      mstore\n      swap1\n      0x01\n      add\n      swap1\n      0x20\n      add\n      dup1\n      dup4\n      gt\n      tag_634\n      jumpi\n      dup3\n      swap1\n      sub\n      0x1f\n      and\n      dup3\n      add\n      swap2\n    tag_632:\n      pop\n      pop\n      pop\n      pop\n      pop\n      dup2\n      mstore\n      0x20\n      add\n      0x03\n      dup3\n      add\n      dup1\n      sload\n      0x01\n      dup2\n      0x01\n      and\n      iszero\n      0x0100\n      mul\n      sub\n      and\n      0x02\n      swap1\n      div\n      dup1\n      0x1f\n      add\n      0x20\n      dup1\n      swap2\n      div\n      mul\n      0x20\n      add\n      mload(0x40)\n      swap1\n      dup2\n      add\n      0x40\n      mstore\n      dup1\n      swap3\n      swap2\n      swap1\n      dup2\n      dup2\n      mstore\n      0x20\n      add\n      dup3\n      dup1\n      sload\n      0x01\n      dup2\n      0x01\n      and\n      iszero\n      0x0100\n      mul\n      sub\n      and\n      0x02\n      swap1\n      div\n      dup1\n      iszero\n      tag_635\n      jumpi\n      dup1\n      0x1f\n      lt\n      tag_636\n      jumpi\n      0x0100\n      dup1\n      dup4\n      sload\n      div\n      mul\n      dup4\n      mstore\n      swap2\n      0x20\n      add\n      swap2\n      jump(tag_635)\n    tag_636:\n      dup3\n      add\n      swap2\n      swap1\n      0x00\n      mstore\n      keccak256(0x00, 0x20)\n      swap1\n    tag_637:\n      dup2\n      sload\n      dup2\n      mstore\n      swap1\n      0x01\n      add\n      swap1\n      0x20\n      add\n      dup1\n      dup4\n      gt\n      tag_637\n      jumpi\n      dup3\n      swap1\n      sub\n      0x1f\n      and\n      dup3\n      add\n      swap2\n    tag_635:\n      pop\n      pop\n      pop\n      pop\n      pop\n      dup2\n      mstore\n      0x20\n      add\n      0x04\n      dup3\n      add\n      sload\n      dup2\n      mstore\n      pop\n      pop\n      swap1\n      pop\n        /* \"input/CreateWin.sol\":11837:11844  1 ether */\n      0x0de0b6b3a7640000\n        /* \"input/CreateWin.sol\":11816:11820  user */\n      dup4\n        /* \"input/CreateWin.sol\":11816:11833  user.freezeAmount */\n      0x03\n      add\n      sload\n        /* \"input/CreateWin.sol\":11816:11844  user.freezeAmount >= 1 ether */\n      lt\n      iszero\n        /* \"input/CreateWin.sol\":11816:11879  user.freezeAmount >= 1 ether && user.freezeAmount <= bonuslimit */\n      dup1\n      iszero\n      tag_638\n      jumpi\n      pop\n        /* \"input/CreateWin.sol\":11869:11879  bonuslimit */\n      sload(0x13)\n        /* \"input/CreateWin.sol\":11848:11852  user */\n      dup4\n        /* \"input/CreateWin.sol\":11848:11865  user.freezeAmount */\n      0x03\n      add\n      sload\n        /* \"input/CreateWin.sol\":11848:11879  user.freezeAmount <= bonuslimit */\n      gt\n      iszero\n        /* \"input/CreateWin.sol\":11816:11879  user.freezeAmount >= 1 ether && user.freezeAmount <= bonuslimit */\n    tag_638:\n        /* \"input/CreateWin.sol\":11816:11905  user.freezeAmount >= 1 ether && user.freezeAmount <= bonuslimit && userGlobal.status == 0 */\n      dup1\n      iszero\n      tag_639\n      jumpi\n      pop\n        /* \"input/CreateWin.sol\":11904:11905  0 */\n      0x00\n        /* \"input/CreateWin.sol\":11883:11893  userGlobal */\n      dup2\n        /* \"input/CreateWin.sol\":11883:11900  userGlobal.status */\n      0x80\n      add\n      mload\n        /* \"input/CreateWin.sol\":11883:11905  userGlobal.status == 0 */\n      eq\n        /* \"input/CreateWin.sol\":11816:11905  user.freezeAmount >= 1 ether && user.freezeAmount <= bonuslimit && userGlobal.status == 0 */\n    tag_639:\n        /* \"input/CreateWin.sol\":11812:11963  if (user.freezeAmount >= 1 ether && user.freezeAmount <= bonuslimit && userGlobal.status == 0) {... */\n      iszero\n      tag_640\n      jumpi\n        /* \"input/CreateWin.sol\":11912:11958  getaway(user.beCode, user.freezeAmount, scale) */\n      tag_641\n        /* \"input/CreateWin.sol\":11920:11924  user */\n      dup4\n        /* \"input/CreateWin.sol\":11920:11931  user.beCode */\n      0x0d\n      add\n        /* \"input/CreateWin.sol\":11912:11958  getaway(user.beCode, user.freezeAmount, scale) */\n      dup1\n      sload\n      0x01\n      dup2\n      0x01\n      and\n      iszero\n      0x0100\n      mul\n      sub\n      and\n      0x02\n      swap1\n      div\n      dup1\n      0x1f\n      add\n      0x20\n      dup1\n      swap2\n      div\n      mul\n      0x20\n      add\n      mload(0x40)\n      swap1\n      dup2\n      add\n      0x40\n      mstore\n      dup1\n      swap3\n      swap2\n      swap1\n      dup2\n      dup2\n      mstore\n      0x20\n      add\n      dup3\n      dup1\n      sload\n      0x01\n      dup2\n      0x01\n      and\n      iszero\n      0x0100\n      mul\n      sub\n      and\n      0x02\n      swap1\n      div\n      dup1\n      iszero\n      tag_642\n      jumpi\n      dup1\n      0x1f\n      lt\n      tag_643\n      jumpi\n      0x0100\n      dup1\n      dup4\n      sload\n      div\n      mul\n      dup4\n      mstore\n      swap2\n      0x20\n      add\n      swap2\n      jump(tag_642)\n    tag_643:\n      dup3\n      add\n      swap2\n      swap1\n      0x00\n      mstore\n      keccak256(0x00, 0x20)\n      swap1\n    tag_644:\n      dup2\n      sload\n      dup2\n      mstore\n      swap1\n      0x01\n      add\n      swap1\n      0x20\n      add\n      dup1\n      dup4\n      gt\n      tag_644\n      jumpi\n      dup3\n      swap1\n      sub\n      0x1f\n      and\n      dup3\n      add\n      swap2\n    tag_642:\n      pop\n      pop\n      pop\n      pop\n      pop\n        /* \"input/CreateWin.sol\":11933:11937  user */\n      dup5\n        /* \"input/CreateWin.sol\":11933:11950  user.freezeAmount */\n      0x03\n      add\n      sload\n        /* \"input/CreateWin.sol\":11952:11957  scale */\n      dup5\n        /* \"input/CreateWin.sol\":11912:11919  getaway */\n      tag_645\n        /* \"input/CreateWin.sol\":11912:11958  getaway(user.beCode, user.freezeAmount, scale) */\n      jump\t// in\n    tag_641:\n        /* \"input/CreateWin.sol\":11812:11963  if (user.freezeAmount >= 1 ether && user.freezeAmount <= bonuslimit && userGlobal.status == 0) {... */\n    tag_640:\n        /* \"input/CreateWin.sol\":11485:11966  function countBonus(address userAddr) private {... */\n      pop\n      pop\n      pop\n    tag_626:\n      pop\n      jump\t// out\n        /* \"input/CreateWin.sol\":4333:4498  function remove(Role storage role, address account) internal {... */\n    tag_382:\n        /* \"input/CreateWin.sol\":4406:4424  has(role, account) */\n      tag_647\n        /* \"input/CreateWin.sol\":4410:4414  role */\n      dup3\n        /* \"input/CreateWin.sol\":4416:4423  account */\n      dup3\n        /* \"input/CreateWin.sol\":4406:4409  has */\n      tag_547\n        /* \"input/CreateWin.sol\":4406:4424  has(role, account) */\n      jump\t// in\n    tag_647:\n        /* \"input/CreateWin.sol\":4398:4462  require(has(role, account), \"Roles: account does not have role\") */\n      tag_648\n      jumpi\n      mload(0x40)\n      0x08c379a000000000000000000000000000000000000000000000000000000000\n      dup2\n      mstore\n      0x04\n      add\n      dup1\n      dup1\n      0x20\n      add\n      dup3\n      dup2\n      sub\n      dup3\n      mstore\n      0x21\n      dup2\n      mstore\n      0x20\n      add\n      dup1\n      data_7bd893145ac435f339bb7c288622d270324b7033b011f693aca172f5cbc3c257\n      0x21\n      swap2\n      codecopy\n      0x40\n      add\n      swap2\n      pop\n      pop\n      mload(0x40)\n      dup1\n      swap2\n      sub\n      swap1\n      revert\n    tag_648:\n        /* \"input/CreateWin.sol\":4489:4494  false */\n      0x00\n        /* \"input/CreateWin.sol\":4466:4470  role */\n      dup3\n        /* \"input/CreateWin.sol\":4466:4477  role.bearer */\n      0x00\n      add\n        /* \"input/CreateWin.sol\":4466:4486  role.bearer[account] */\n      0x00\n        /* \"input/CreateWin.sol\":4478:4485  account */\n      dup4\n        /* \"input/CreateWin.sol\":4466:4486  role.bearer[account] */\n      0xffffffffffffffffffffffffffffffffffffffff\n      and\n      0xffffffffffffffffffffffffffffffffffffffff\n      and\n      dup2\n      mstore\n      0x20\n      add\n      swap1\n      dup2\n      mstore\n      0x20\n      add\n      0x00\n      keccak256\n      0x00\n        /* \"input/CreateWin.sol\":4466:4494  role.bearer[account] = false */\n      0x0100\n      exp\n      dup2\n      sload\n      dup2\n      0xff\n      mul\n      not\n      and\n      swap1\n      dup4\n      iszero\n      iszero\n      mul\n      or\n      swap1\n      sstore\n      pop\n        /* \"input/CreateWin.sol\":4333:4498  function remove(Role storage role, address account) internal {... */\n      pop\n      pop\n      jump\t// out\n        /* \"input/CreateWin.sol\":4110:4270  function add(Role storage role, address account) internal {... */\n    tag_388:\n        /* \"input/CreateWin.sol\":4181:4199  has(role, account) */\n      tag_650\n        /* \"input/CreateWin.sol\":4185:4189  role */\n      dup3\n        /* \"input/CreateWin.sol\":4191:4198  account */\n      dup3\n        /* \"input/CreateWin.sol\":4181:4184  has */\n      tag_547\n        /* \"input/CreateWin.sol\":4181:4199  has(role, account) */\n      jump\t// in\n    tag_650:\n        /* \"input/CreateWin.sol\":4180:4199  !has(role, account) */\n      iszero\n        /* \"input/CreateWin.sol\":4172:4235  require(!has(role, account), \"Roles: account already has role\") */\n      tag_651\n      jumpi\n      mload(0x40)\n      0x08c379a000000000000000000000000000000000000000000000000000000000\n      dup2\n      mstore\n      0x04\n      add\n      dup1\n      dup1\n      0x20\n      add\n      dup3\n      dup2\n      sub\n      dup3\n      mstore\n      0x1f\n      dup2\n      mstore\n      0x20\n      add\n      dup1\n      0x526f6c65733a206163636f756e7420616c72656164792068617320726f6c6500\n      dup2\n      mstore\n      pop\n      0x20\n      add\n      swap2\n      pop\n      pop\n      mload(0x40)\n      dup1\n      swap2\n      sub\n      swap1\n      revert\n    tag_651:\n        /* \"input/CreateWin.sol\":4262:4266  true */\n      0x01\n        /* \"input/CreateWin.sol\":4239:4243  role */\n      dup3\n        /* \"input/CreateWin.sol\":4239:4250  role.bearer */\n      0x00\n      add\n        /* \"input/CreateWin.sol\":4239:4259  role.bearer[account] */\n      0x00\n        /* \"input/CreateWin.sol\":4251:4258  account */\n      dup4\n        /* \"input/CreateWin.sol\":4239:4259  role.bearer[account] */\n      0xffffffffffffffffffffffffffffffffffffffff\n      and\n      0xffffffffffffffffffffffffffffffffffffffff\n      and\n      dup2\n      mstore\n      0x20\n      add\n      swap1\n      dup2\n      mstore\n      0x20\n      add\n      0x00\n      keccak256\n      0x00\n        /* \"input/CreateWin.sol\":4239:4266  role.bearer[account] = true */\n      0x0100\n      exp\n      dup2\n      sload\n      dup2\n      0xff\n      mul\n      not\n      and\n      swap1\n      dup4\n      iszero\n      iszero\n      mul\n      or\n      swap1\n      sstore\n      pop\n        /* \"input/CreateWin.sol\":4110:4270  function add(Role storage role, address account) internal {... */\n      pop\n      pop\n      jump\t// out\n        /* \"input/CreateWin.sol\":2571:2650  function _msgSender() internal view returns (address) {... */\n    tag_400:\n        /* \"input/CreateWin.sol\":2616:2623  address */\n      0x00\n        /* \"input/CreateWin.sol\":2636:2646  msg.sender */\n      caller\n        /* \"input/CreateWin.sol\":2629:2646  return msg.sender */\n      swap1\n      pop\n        /* \"input/CreateWin.sol\":2571:2650  function _msgSender() internal view returns (address) {... */\n      swap1\n      jump\t// out\n        /* \"input/CreateWin.sol\":22215:22359  function sub(uint256 a, uint256 b) internal pure returns (uint256) {... */\n    tag_416:\n        /* \"input/CreateWin.sol\":22273:22280  uint256 */\n      0x00\n        /* \"input/CreateWin.sol\":22299:22300  a */\n      dup3\n        /* \"input/CreateWin.sol\":22294:22295  b */\n      dup3\n        /* \"input/CreateWin.sol\":22294:22300  b <= a */\n      gt\n      iszero\n        /* \"input/CreateWin.sol\":22286:22321  require(b <= a, \"lower sub bigger\") */\n      tag_654\n      jumpi\n      mload(0x40)\n      0x08c379a000000000000000000000000000000000000000000000000000000000\n      dup2\n      mstore\n      0x04\n      add\n      dup1\n      dup1\n      0x20\n      add\n      dup3\n      dup2\n      sub\n      dup3\n      mstore\n      0x10\n      dup2\n      mstore\n      0x20\n      add\n      dup1\n      0x6c6f776572207375622062696767657200000000000000000000000000000000\n      dup2\n      mstore\n      pop\n      0x20\n      add\n      swap2\n      pop\n      pop\n      mload(0x40)\n      dup1\n      swap2\n      sub\n      swap1\n      revert\n    tag_654:\n        /* \"input/CreateWin.sol\":22325:22334  uint256 c */\n      0x00\n        /* \"input/CreateWin.sol\":22341:22342  b */\n      dup3\n        /* \"input/CreateWin.sol\":22337:22338  a */\n      dup5\n        /* \"input/CreateWin.sol\":22337:22342  a - b */\n      sub\n        /* \"input/CreateWin.sol\":22325:22342  uint256 c = a - b */\n      swap1\n      pop\n        /* \"input/CreateWin.sol\":22354:22355  c */\n      dup1\n        /* \"input/CreateWin.sol\":22347:22355  return c */\n      swap2\n      pop\n      pop\n        /* \"input/CreateWin.sol\":22215:22359  function sub(uint256 a, uint256 b) internal pure returns (uint256) {... */\n      swap3\n      swap2\n      pop\n      pop\n      jump\t// out\n        /* \"input/CreateWin.sol\":16729:16937  function isEnoughBalance(uint sendMoney) private view returns (bool, uint){... */\n    tag_474:\n        /* \"input/CreateWin.sol\":16792:16796  bool */\n      0x00\n        /* \"input/CreateWin.sol\":16798:16802  uint */\n      dup1\n        /* \"input/CreateWin.sol\":16824:16845  address(this).balance */\n      selfbalance\n        /* \"input/CreateWin.sol\":16811:16820  sendMoney */\n      dup4\n        /* \"input/CreateWin.sol\":16811:16845  sendMoney >= address(this).balance */\n      lt\n        /* \"input/CreateWin.sol\":16807:16934  if (sendMoney >= address(this).balance) {... */\n      tag_656\n      jumpi\n        /* \"input/CreateWin.sol\":16860:16865  false */\n      0x00\n        /* \"input/CreateWin.sol\":16867:16888  address(this).balance */\n      selfbalance\n        /* \"input/CreateWin.sol\":16852:16889  return (false, address(this).balance) */\n      swap2\n      pop\n      swap2\n      pop\n      jump(tag_655)\n        /* \"input/CreateWin.sol\":16807:16934  if (sendMoney >= address(this).balance) {... */\n    tag_656:\n        /* \"input/CreateWin.sol\":16913:16917  true */\n      0x01\n        /* \"input/CreateWin.sol\":16919:16928  sendMoney */\n      dup4\n        /* \"input/CreateWin.sol\":16905:16929  return (true, sendMoney) */\n      swap2\n      pop\n      swap2\n      pop\n        /* \"input/CreateWin.sol\":16729:16937  function isEnoughBalance(uint sendMoney) private view returns (bool, uint){... */\n    tag_655:\n      swap2\n      pop\n      swap2\n      jump\t// out\n        /* \"input/CreateWin.sol\":17028:17161  function sendMoneyToUser(address payable userAddress, uint money) private {... */\n    tag_478:\n        /* \"input/CreateWin.sol\":17118:17119  0 */\n      0x00\n        /* \"input/CreateWin.sol\":17110:17115  money */\n      dup2\n        /* \"input/CreateWin.sol\":17110:17119  money > 0 */\n      gt\n        /* \"input/CreateWin.sol\":17106:17158  if (money > 0) {... */\n      iszero\n      tag_659\n      jumpi\n        /* \"input/CreateWin.sol\":17126:17137  userAddress */\n      dup2\n        /* \"input/CreateWin.sol\":17126:17146  userAddress.transfer */\n      0xffffffffffffffffffffffffffffffffffffffff\n      and\n        /* \"input/CreateWin.sol\":17126:17153  userAddress.transfer(money) */\n      0x08fc\n        /* \"input/CreateWin.sol\":17147:17152  money */\n      dup3\n        /* \"input/CreateWin.sol\":17126:17153  userAddress.transfer(money) */\n      swap1\n      dup2\n      iszero\n      mul\n      swap1\n      mload(0x40)\n      0x00\n      mload(0x40)\n      dup1\n      dup4\n      sub\n      dup2\n      dup6\n      dup9\n      dup9\n      call\n      swap4\n      pop\n      pop\n      pop\n      pop\n      iszero\n        /* \"--CODEGEN--\":8:17   */\n      dup1\n        /* \"--CODEGEN--\":5:7   */\n      iszero\n      tag_660\n      jumpi\n        /* \"--CODEGEN--\":45:61   */\n      returndatasize\n        /* \"--CODEGEN--\":42:43   */\n      0x00\n        /* \"--CODEGEN--\":39:40   */\n      dup1\n        /* \"--CODEGEN--\":24:62   */\n      returndatacopy\n        /* \"--CODEGEN--\":77:93   */\n      returndatasize\n        /* \"--CODEGEN--\":74:75   */\n      0x00\n        /* \"--CODEGEN--\":67:94   */\n      revert\n        /* \"--CODEGEN--\":5:7   */\n    tag_660:\n        /* \"input/CreateWin.sol\":17126:17153  userAddress.transfer(money) */\n      pop\n        /* \"input/CreateWin.sol\":17106:17158  if (money > 0) {... */\n    tag_659:\n        /* \"input/CreateWin.sol\":17028:17161  function sendMoneyToUser(address payable userAddress, uint money) private {... */\n      pop\n      pop\n      jump\t// out\n        /* \"input/CreateWin.sol\":4572:4757  function has(Role storage role, address account) internal view returns (bool) {... */\n    tag_547:\n        /* \"input/CreateWin.sol\":4644:4648  bool */\n      0x00\n        /* \"input/CreateWin.sol\":4681:4682  0 */\n      dup1\n        /* \"input/CreateWin.sol\":4662:4683  account != address(0) */\n      0xffffffffffffffffffffffffffffffffffffffff\n      and\n        /* \"input/CreateWin.sol\":4662:4669  account */\n      dup3\n        /* \"input/CreateWin.sol\":4662:4683  account != address(0) */\n      0xffffffffffffffffffffffffffffffffffffffff\n      and\n      eq\n      iszero\n        /* \"input/CreateWin.sol\":4654:4722  require(account != address(0), \"Roles: account is the zero address\") */\n      tag_662\n      jumpi\n      mload(0x40)\n      0x08c379a000000000000000000000000000000000000000000000000000000000\n      dup2\n      mstore\n      0x04\n      add\n      dup1\n      dup1\n      0x20\n      add\n      dup3\n      dup2\n      sub\n      dup3\n      mstore\n      0x22\n      dup2\n      mstore\n      0x20\n      add\n      dup1\n      data_9d214fa89563f4e6456a3929327e54500ea1cde2c0ba9fb2035ec106190d682f\n      0x22\n      swap2\n      codecopy\n      0x40\n      add\n      swap2\n      pop\n      pop\n      mload(0x40)\n      dup1\n      swap2\n      sub\n      swap1\n      revert\n    tag_662:\n        /* \"input/CreateWin.sol\":4733:4737  role */\n      dup3\n        /* \"input/CreateWin.sol\":4733:4744  role.bearer */\n      0x00\n      add\n        /* \"input/CreateWin.sol\":4733:4753  role.bearer[account] */\n      0x00\n        /* \"input/CreateWin.sol\":4745:4752  account */\n      dup4\n        /* \"input/CreateWin.sol\":4733:4753  role.bearer[account] */\n      0xffffffffffffffffffffffffffffffffffffffff\n      and\n      0xffffffffffffffffffffffffffffffffffffffff\n      and\n      dup2\n      mstore\n      0x20\n      add\n      swap1\n      dup2\n      mstore\n      0x20\n      add\n      0x00\n      keccak256\n      0x00\n      swap1\n      sload\n      swap1\n      0x0100\n      exp\n      swap1\n      div\n      0xff\n      and\n        /* \"input/CreateWin.sol\":4726:4753  return role.bearer[account] */\n      swap1\n      pop\n        /* \"input/CreateWin.sol\":4572:4757  function has(Role storage role, address account) internal view returns (bool) {... */\n      swap3\n      swap2\n      pop\n      pop\n      jump\t// out\n        /* \"input/CreateWin.sol\":11969:12959  function getaway(string memory beCode, uint money, uint shareSc) private {... */\n    tag_645:\n        /* \"input/CreateWin.sol\":12046:12071  string memory tmpReferrer */\n      0x60\n        /* \"input/CreateWin.sol\":12074:12080  beCode */\n      dup4\n        /* \"input/CreateWin.sol\":12046:12080  string memory tmpReferrer = beCode */\n      swap1\n      pop\n        /* \"input/CreateWin.sol\":12090:12096  uint i */\n      0x00\n        /* \"input/CreateWin.sol\":12099:12100  1 */\n      0x01\n        /* \"input/CreateWin.sol\":12090:12100  uint i = 1 */\n      swap1\n      pop\n        /* \"input/CreateWin.sol\":12085:12956  for (uint i = 1; i <= 25; i++) {... */\n    tag_664:\n        /* \"input/CreateWin.sol\":12107:12109  25 */\n      0x19\n        /* \"input/CreateWin.sol\":12102:12103  i */\n      dup2\n        /* \"input/CreateWin.sol\":12102:12109  i <= 25 */\n      gt\n        /* \"input/CreateWin.sol\":12085:12956  for (uint i = 1; i <= 25; i++) {... */\n      tag_665\n      jumpi\n        /* \"input/CreateWin.sol\":12125:12152  compareStr(tmpReferrer, \"\") */\n      tag_667\n        /* \"input/CreateWin.sol\":12136:12147  tmpReferrer */\n      dup3\n        /* \"input/CreateWin.sol\":12125:12152  compareStr(tmpReferrer, \"\") */\n      mload(0x40)\n      dup1\n      0x20\n      add\n      0x40\n      mstore\n      dup1\n      0x00\n      dup2\n      mstore\n      pop\n        /* \"input/CreateWin.sol\":12125:12135  compareStr */\n      tag_127\n        /* \"input/CreateWin.sol\":12125:12152  compareStr(tmpReferrer, \"\") */\n      jump\t// in\n    tag_667:\n        /* \"input/CreateWin.sol\":12121:12171  if (compareStr(tmpReferrer, \"\")) {... */\n      iszero\n      tag_668\n      jumpi\n        /* \"input/CreateWin.sol\":12160:12165  break */\n      jump(tag_665)\n        /* \"input/CreateWin.sol\":12121:12171  if (compareStr(tmpReferrer, \"\")) {... */\n    tag_668:\n        /* \"input/CreateWin.sol\":12175:12194  address tmpUserAddr */\n      0x00\n        /* \"input/CreateWin.sol\":12197:12211  addressMapping */\n      0x10\n        /* \"input/CreateWin.sol\":12212:12223  tmpReferrer */\n      dup4\n        /* \"input/CreateWin.sol\":12197:12224  addressMapping[tmpReferrer] */\n      mload(0x40)\n      dup1\n      dup3\n      dup1\n      mload\n      swap1\n      0x20\n      add\n      swap1\n      dup1\n      dup4\n      dup4\n        /* \"--CODEGEN--\":36:189   */\n    tag_669:\n        /* \"--CODEGEN--\":66:68   */\n      0x20\n        /* \"--CODEGEN--\":61:64   */\n      dup4\n        /* \"--CODEGEN--\":58:69   */\n      lt\n        /* \"--CODEGEN--\":36:189   */\n      tag_671\n      jumpi\n        /* \"--CODEGEN--\":182:185   */\n      dup1\n        /* \"--CODEGEN--\":176:186   */\n      mload\n        /* \"--CODEGEN--\":171:174   */\n      dup3\n        /* \"--CODEGEN--\":164:187   */\n      mstore\n        /* \"--CODEGEN--\":98:100   */\n      0x20\n        /* \"--CODEGEN--\":93:96   */\n      dup3\n        /* \"--CODEGEN--\":89:101   */\n      add\n        /* \"--CODEGEN--\":82:101   */\n      swap2\n      pop\n        /* \"--CODEGEN--\":123:125   */\n      0x20\n        /* \"--CODEGEN--\":118:121   */\n      dup2\n        /* \"--CODEGEN--\":114:126   */\n      add\n        /* \"--CODEGEN--\":107:126   */\n      swap1\n      pop\n        /* \"--CODEGEN--\":148:150   */\n      0x20\n        /* \"--CODEGEN--\":143:146   */\n      dup4\n        /* \"--CODEGEN--\":139:151   */\n      sub\n        /* \"--CODEGEN--\":132:151   */\n      swap3\n      pop\n        /* \"--CODEGEN--\":36:189   */\n      jump(tag_669)\n    tag_671:\n        /* \"--CODEGEN--\":274:275   */\n      0x01\n        /* \"--CODEGEN--\":267:270   */\n      dup4\n        /* \"--CODEGEN--\":263:265   */\n      0x20\n        /* \"--CODEGEN--\":259:271   */\n      sub\n        /* \"--CODEGEN--\":254:257   */\n      0x0100\n        /* \"--CODEGEN--\":250:272   */\n      exp\n        /* \"--CODEGEN--\":246:276   */\n      sub\n        /* \"--CODEGEN--\":315:319   */\n      dup1\n        /* \"--CODEGEN--\":311:320   */\n      not\n        /* \"--CODEGEN--\":305:308   */\n      dup3\n        /* \"--CODEGEN--\":299:309   */\n      mload\n        /* \"--CODEGEN--\":295:321   */\n      and\n        /* \"--CODEGEN--\":356:360   */\n      dup2\n        /* \"--CODEGEN--\":350:353   */\n      dup5\n        /* \"--CODEGEN--\":344:354   */\n      mload\n        /* \"--CODEGEN--\":340:361   */\n      and\n        /* \"--CODEGEN--\":389:396   */\n      dup1\n        /* \"--CODEGEN--\":380:387   */\n      dup3\n        /* \"--CODEGEN--\":377:397   */\n      or\n        /* \"--CODEGEN--\":372:375   */\n      dup6\n        /* \"--CODEGEN--\":365:398   */\n      mstore\n        /* \"--CODEGEN--\":3:402   */\n      pop\n      pop\n      pop\n        /* \"input/CreateWin.sol\":12197:12224  addressMapping[tmpReferrer] */\n      pop\n      pop\n      pop\n      swap1\n      pop\n      add\n      swap2\n      pop\n      pop\n      swap1\n      dup2\n      mstore\n      0x20\n      add\n      mload(0x40)\n      dup1\n      swap2\n      sub\n      swap1\n      keccak256\n      0x00\n      swap1\n      sload\n      swap1\n      0x0100\n      exp\n      swap1\n      div\n      0xffffffffffffffffffffffffffffffffffffffff\n      and\n        /* \"input/CreateWin.sol\":12175:12224  address tmpUserAddr = addressMapping[tmpReferrer] */\n      swap1\n      pop\n        /* \"input/CreateWin.sol\":12229:12258  UserGlobal storage userGlobal */\n      0x00\n        /* \"input/CreateWin.sol\":12261:12272  userMapping */\n      0x0f\n        /* \"input/CreateWin.sol\":12261:12285  userMapping[tmpUserAddr] */\n      0x00\n        /* \"input/CreateWin.sol\":12273:12284  tmpUserAddr */\n      dup4\n        /* \"input/CreateWin.sol\":12261:12285  userMapping[tmpUserAddr] */\n      0xffffffffffffffffffffffffffffffffffffffff\n      and\n      0xffffffffffffffffffffffffffffffffffffffff\n      and\n      dup2\n      mstore\n      0x20\n      add\n      swap1\n      dup2\n      mstore\n      0x20\n      add\n      0x00\n      keccak256\n        /* \"input/CreateWin.sol\":12229:12285  UserGlobal storage userGlobal = userMapping[tmpUserAddr] */\n      swap1\n      pop\n        /* \"input/CreateWin.sol\":12290:12310  User storage calUser */\n      0x00\n        /* \"input/CreateWin.sol\":12313:12329  userRoundMapping */\n      0x0e\n        /* \"input/CreateWin.sol\":12313:12334  userRoundMapping[rid] */\n      0x00\n        /* \"input/CreateWin.sol\":12330:12333  rid */\n      sload(0x0c)\n        /* \"input/CreateWin.sol\":12313:12334  userRoundMapping[rid] */\n      dup2\n      mstore\n      0x20\n      add\n      swap1\n      dup2\n      mstore\n      0x20\n      add\n      0x00\n      keccak256\n        /* \"input/CreateWin.sol\":12313:12347  userRoundMapping[rid][tmpUserAddr] */\n      0x00\n        /* \"input/CreateWin.sol\":12335:12346  tmpUserAddr */\n      dup5\n        /* \"input/CreateWin.sol\":12313:12347  userRoundMapping[rid][tmpUserAddr] */\n      0xffffffffffffffffffffffffffffffffffffffff\n      and\n      0xffffffffffffffffffffffffffffffffffffffff\n      and\n      dup2\n      mstore\n      0x20\n      add\n      swap1\n      dup2\n      mstore\n      0x20\n      add\n      0x00\n      keccak256\n        /* \"input/CreateWin.sol\":12290:12347  User storage calUser = userRoundMapping[rid][tmpUserAddr] */\n      swap1\n      pop\n        /* \"input/CreateWin.sol\":12429:12430  0 */\n      0x00\n        /* \"input/CreateWin.sol\":12357:12425  calUser.freezeAmount.add(calUser.freeAmount).add(calUser.lineAmount) */\n      tag_672\n        /* \"input/CreateWin.sol\":12406:12413  calUser */\n      dup3\n        /* \"input/CreateWin.sol\":12406:12424  calUser.lineAmount */\n      0x04\n      add\n      sload\n        /* \"input/CreateWin.sol\":12357:12401  calUser.freezeAmount.add(calUser.freeAmount) */\n      tag_673\n        /* \"input/CreateWin.sol\":12382:12389  calUser */\n      dup5\n        /* \"input/CreateWin.sol\":12382:12400  calUser.freeAmount */\n      0x02\n      add\n      sload\n        /* \"input/CreateWin.sol\":12357:12364  calUser */\n      dup6\n        /* \"input/CreateWin.sol\":12357:12377  calUser.freezeAmount */\n      0x03\n      add\n      sload\n        /* \"input/CreateWin.sol\":12357:12381  calUser.freezeAmount.add */\n      tag_248\n      swap1\n        /* \"input/CreateWin.sol\":12357:12401  calUser.freezeAmount.add(calUser.freeAmount) */\n      swap2\n      swap1\n      0xffffffff\n      and\n      jump\t// in\n    tag_673:\n        /* \"input/CreateWin.sol\":12357:12405  calUser.freezeAmount.add(calUser.freeAmount).add */\n      tag_248\n      swap1\n        /* \"input/CreateWin.sol\":12357:12425  calUser.freezeAmount.add(calUser.freeAmount).add(calUser.lineAmount) */\n      swap2\n      swap1\n      0xffffffff\n      and\n      jump\t// in\n    tag_672:\n        /* \"input/CreateWin.sol\":12357:12430  calUser.freezeAmount.add(calUser.freeAmount).add(calUser.lineAmount) == 0 */\n      eq\n        /* \"input/CreateWin.sol\":12353:12489  if (calUser.freezeAmount.add(calUser.freeAmount).add(calUser.lineAmount) == 0) {... */\n      iszero\n      tag_674\n      jumpi\n        /* \"input/CreateWin.sol\":12452:12462  userGlobal */\n      dup2\n        /* \"input/CreateWin.sol\":12452:12469  userGlobal.beCode */\n      0x03\n      add\n        /* \"input/CreateWin.sol\":12438:12469  tmpReferrer = userGlobal.beCode */\n      dup1\n      sload\n      0x01\n      dup2\n      0x01\n      and\n      iszero\n      0x0100\n      mul\n      sub\n      and\n      0x02\n      swap1\n      div\n      dup1\n      0x1f\n      add\n      0x20\n      dup1\n      swap2\n      div\n      mul\n      0x20\n      add\n      mload(0x40)\n      swap1\n      dup2\n      add\n      0x40\n      mstore\n      dup1\n      swap3\n      swap2\n      swap1\n      dup2\n      dup2\n      mstore\n      0x20\n      add\n      dup3\n      dup1\n      sload\n      0x01\n      dup2\n      0x01\n      and\n      iszero\n      0x0100\n      mul\n      sub\n      and\n      0x02\n      swap1\n      div\n      dup1\n      iszero\n      tag_675\n      jumpi\n      dup1\n      0x1f\n      lt\n      tag_676\n      jumpi\n      0x0100\n      dup1\n      dup4\n      sload\n      div\n      mul\n      dup4\n      mstore\n      swap2\n      0x20\n      add\n      swap2\n      jump(tag_675)\n    tag_676:\n      dup3\n      add\n      swap2\n      swap1\n      0x00\n      mstore\n      keccak256(0x00, 0x20)\n      swap1\n    tag_677:\n      dup2\n      sload\n      dup2\n      mstore\n      swap1\n      0x01\n      add\n      swap1\n      0x20\n      add\n      dup1\n      dup4\n      gt\n      tag_677\n      jumpi\n      dup3\n      swap1\n      sub\n      0x1f\n      and\n      dup3\n      add\n      swap2\n    tag_675:\n      pop\n      pop\n      pop\n      pop\n      pop\n      swap5\n      pop\n        /* \"input/CreateWin.sol\":12475:12483  continue */\n      pop\n      pop\n      pop\n      jump(tag_666)\n        /* \"input/CreateWin.sol\":12353:12489  if (calUser.freezeAmount.add(calUser.freeAmount).add(calUser.lineAmount) == 0) {... */\n    tag_674:\n        /* \"input/CreateWin.sol\":12494:12510  uint recommendSc */\n      0x00\n        /* \"input/CreateWin.sol\":12513:12549  getRecommendScaleByLevelAndTim(3, i) */\n      tag_678\n        /* \"input/CreateWin.sol\":12544:12545  3 */\n      0x03\n        /* \"input/CreateWin.sol\":12547:12548  i */\n      dup7\n        /* \"input/CreateWin.sol\":12513:12543  getRecommendScaleByLevelAndTim */\n      tag_49\n        /* \"input/CreateWin.sol\":12513:12549  getRecommendScaleByLevelAndTim(3, i) */\n      jump\t// in\n    tag_678:\n        /* \"input/CreateWin.sol\":12494:12549  uint recommendSc = getRecommendScaleByLevelAndTim(3, i) */\n      swap1\n      pop\n        /* \"input/CreateWin.sol\":12554:12570  uint moneyResult */\n      0x00\n        /* \"input/CreateWin.sol\":12573:12574  0 */\n      dup1\n        /* \"input/CreateWin.sol\":12554:12574  uint moneyResult = 0 */\n      swap1\n      pop\n        /* \"input/CreateWin.sol\":12592:12600  15 ether */\n      0xd02ab486cedc0000\n        /* \"input/CreateWin.sol\":12583:12588  money */\n      dup10\n        /* \"input/CreateWin.sol\":12583:12600  money <= 15 ether */\n      gt\n        /* \"input/CreateWin.sol\":12579:12673  if (money <= 15 ether) {... */\n      tag_679\n      jumpi\n        /* \"input/CreateWin.sol\":12622:12627  money */\n      dup9\n        /* \"input/CreateWin.sol\":12608:12627  moneyResult = money */\n      swap1\n      pop\n        /* \"input/CreateWin.sol\":12579:12673  if (money <= 15 ether) {... */\n      jump(tag_680)\n    tag_679:\n        /* \"input/CreateWin.sol\":12659:12667  15 ether */\n      0xd02ab486cedc0000\n        /* \"input/CreateWin.sol\":12645:12667  moneyResult = 15 ether */\n      swap1\n      pop\n        /* \"input/CreateWin.sol\":12579:12673  if (money <= 15 ether) {... */\n    tag_680:\n        /* \"input/CreateWin.sol\":12697:12698  0 */\n      0x00\n        /* \"input/CreateWin.sol\":12682:12693  recommendSc */\n      dup3\n        /* \"input/CreateWin.sol\":12682:12698  recommendSc != 0 */\n      eq\n        /* \"input/CreateWin.sol\":12678:12916  if (recommendSc != 0) {... */\n      tag_681\n      jumpi\n        /* \"input/CreateWin.sol\":12706:12727  uint tmpDynamicAmount */\n      0x00\n        /* \"input/CreateWin.sol\":12730:12771  moneyResult.mul(shareSc).mul(recommendSc) */\n      tag_682\n        /* \"input/CreateWin.sol\":12759:12770  recommendSc */\n      dup4\n        /* \"input/CreateWin.sol\":12730:12754  moneyResult.mul(shareSc) */\n      tag_683\n        /* \"input/CreateWin.sol\":12746:12753  shareSc */\n      dup12\n        /* \"input/CreateWin.sol\":12730:12741  moneyResult */\n      dup6\n        /* \"input/CreateWin.sol\":12730:12745  moneyResult.mul */\n      tag_226\n      swap1\n        /* \"input/CreateWin.sol\":12730:12754  moneyResult.mul(shareSc) */\n      swap2\n      swap1\n      0xffffffff\n      and\n      jump\t// in\n    tag_683:\n        /* \"input/CreateWin.sol\":12730:12758  moneyResult.mul(shareSc).mul */\n      tag_226\n      swap1\n        /* \"input/CreateWin.sol\":12730:12771  moneyResult.mul(shareSc).mul(recommendSc) */\n      swap2\n      swap1\n      0xffffffff\n      and\n      jump\t// in\n    tag_682:\n        /* \"input/CreateWin.sol\":12706:12771  uint tmpDynamicAmount = moneyResult.mul(shareSc).mul(recommendSc) */\n      swap1\n      pop\n        /* \"input/CreateWin.sol\":12796:12831  tmpDynamicAmount.div(1000).div(100) */\n      tag_684\n        /* \"input/CreateWin.sol\":12827:12830  100 */\n      0x64\n        /* \"input/CreateWin.sol\":12796:12822  tmpDynamicAmount.div(1000) */\n      tag_685\n        /* \"input/CreateWin.sol\":12817:12821  1000 */\n      0x03e8\n        /* \"input/CreateWin.sol\":12796:12812  tmpDynamicAmount */\n      dup5\n        /* \"input/CreateWin.sol\":12796:12816  tmpDynamicAmount.div */\n      tag_225\n      swap1\n        /* \"input/CreateWin.sol\":12796:12822  tmpDynamicAmount.div(1000) */\n      swap2\n      swap1\n      0xffffffff\n      and\n      jump\t// in\n    tag_685:\n        /* \"input/CreateWin.sol\":12796:12826  tmpDynamicAmount.div(1000).div */\n      tag_225\n      swap1\n        /* \"input/CreateWin.sol\":12796:12831  tmpDynamicAmount.div(1000).div(100) */\n      swap2\n      swap1\n      0xffffffff\n      and\n      jump\t// in\n    tag_684:\n        /* \"input/CreateWin.sol\":12777:12831  tmpDynamicAmount = tmpDynamicAmount.div(1000).div(100) */\n      swap1\n      pop\n        /* \"input/CreateWin.sol\":12837:12910  earneth(userGlobal.userAddress, tmpDynamicAmount, calUser.rewardIndex, i) */\n      tag_686\n        /* \"input/CreateWin.sol\":12845:12855  userGlobal */\n      dup6\n        /* \"input/CreateWin.sol\":12845:12867  userGlobal.userAddress */\n      0x01\n      add\n      0x00\n      swap1\n      sload\n      swap1\n      0x0100\n      exp\n      swap1\n      div\n      0xffffffffffffffffffffffffffffffffffffffff\n      and\n        /* \"input/CreateWin.sol\":12869:12885  tmpDynamicAmount */\n      dup3\n        /* \"input/CreateWin.sol\":12887:12894  calUser */\n      dup7\n        /* \"input/CreateWin.sol\":12887:12906  calUser.rewardIndex */\n      0x0e\n      add\n      sload\n        /* \"input/CreateWin.sol\":12908:12909  i */\n      dup11\n        /* \"input/CreateWin.sol\":12837:12844  earneth */\n      tag_84\n        /* \"input/CreateWin.sol\":12837:12910  earneth(userGlobal.userAddress, tmpDynamicAmount, calUser.rewardIndex, i) */\n      jump\t// in\n    tag_686:\n        /* \"input/CreateWin.sol\":12678:12916  if (recommendSc != 0) {... */\n      pop\n    tag_681:\n        /* \"input/CreateWin.sol\":12934:12944  userGlobal */\n      dup4\n        /* \"input/CreateWin.sol\":12934:12951  userGlobal.beCode */\n      0x03\n      add\n        /* \"input/CreateWin.sol\":12920:12951  tmpReferrer = userGlobal.beCode */\n      dup1\n      sload\n      0x01\n      dup2\n      0x01\n      and\n      iszero\n      0x0100\n      mul\n      sub\n      and\n      0x02\n      swap1\n      div\n      dup1\n      0x1f\n      add\n      0x20\n      dup1\n      swap2\n      div\n      mul\n      0x20\n      add\n      mload(0x40)\n      swap1\n      dup2\n      add\n      0x40\n      mstore\n      dup1\n      swap3\n      swap2\n      swap1\n      dup2\n      dup2\n      mstore\n      0x20\n      add\n      dup3\n      dup1\n      sload\n      0x01\n      dup2\n      0x01\n      and\n      iszero\n      0x0100\n      mul\n      sub\n      and\n      0x02\n      swap1\n      div\n      dup1\n      iszero\n      tag_687\n      jumpi\n      dup1\n      0x1f\n      lt\n      tag_688\n      jumpi\n      0x0100\n      dup1\n      dup4\n      sload\n      div\n      mul\n      dup4\n      mstore\n      swap2\n      0x20\n      add\n      swap2\n      jump(tag_687)\n    tag_688:\n      dup3\n      add\n      swap2\n      swap1\n      0x00\n      mstore\n      keccak256(0x00, 0x20)\n      swap1\n    tag_689:\n      dup2\n      sload\n      dup2\n      mstore\n      swap1\n      0x01\n      add\n      swap1\n      0x20\n      add\n      dup1\n      dup4\n      gt\n      tag_689\n      jumpi\n      dup3\n      swap1\n      sub\n      0x1f\n      and\n      dup3\n      add\n      swap2\n    tag_687:\n      pop\n      pop\n      pop\n      pop\n      pop\n      swap7\n      pop\n        /* \"input/CreateWin.sol\":12085:12956  for (uint i = 1; i <= 25; i++) {... */\n      pop\n      pop\n      pop\n      pop\n      pop\n    tag_666:\n        /* \"input/CreateWin.sol\":12111:12114  i++ */\n      dup1\n      dup1\n      0x01\n      add\n      swap2\n      pop\n      pop\n        /* \"input/CreateWin.sol\":12085:12956  for (uint i = 1; i <= 25; i++) {... */\n      jump(tag_664)\n    tag_665:\n      pop\n        /* \"input/CreateWin.sol\":11969:12959  function getaway(string memory beCode, uint money, uint shareSc) private {... */\n      pop\n      pop\n      pop\n      pop\n      jump\t// out\n        /* \"input/CreateWin.sol\":5577:21142  contract CreateWin is UtilCreateWin, WhitelistAdminRole {... */\n    tag_260:\n      dup3\n      dup1\n      sload\n      0x01\n      dup2\n      0x01\n      and\n      iszero\n      0x0100\n      mul\n      sub\n      and\n      0x02\n      swap1\n      div\n      swap1\n      0x00\n      mstore\n      keccak256(0x00, 0x20)\n      swap1\n      0x1f\n      add\n      0x20\n      swap1\n      div\n      dup2\n      add\n      swap3\n      dup3\n      0x1f\n      lt\n      tag_691\n      jumpi\n      dup1\n      sload\n      dup6\n      sstore\n      jump(tag_690)\n    tag_691:\n      dup3\n      dup1\n      add\n      0x01\n      add\n      dup6\n      sstore\n      dup3\n      iszero\n      tag_690\n      jumpi\n      0x00\n      mstore\n      keccak256(0x00, 0x20)\n      swap2\n      0x1f\n      add\n      0x20\n      swap1\n      div\n      dup3\n      add\n    tag_692:\n      dup3\n      dup2\n      gt\n      iszero\n      tag_693\n      jumpi\n      dup3\n      sload\n      dup3\n      sstore\n      swap2\n      0x01\n      add\n      swap2\n      swap1\n      0x01\n      add\n      swap1\n      jump(tag_692)\n    tag_693:\n    tag_690:\n      pop\n      swap1\n      pop\n      tag_694\n      swap2\n      swap1\n      tag_695\n      jump\t// in\n    tag_694:\n      pop\n      swap1\n      jump\t// out\n    tag_277:\n      mload(0x40)\n      dup1\n      0x01c0\n      add\n      0x40\n      mstore\n      dup1\n      0x0e\n      swap1\n        /* \"--CODEGEN--\":29:31   */\n      0x20\n        /* \"--CODEGEN--\":21:27   */\n      dup3\n        /* \"--CODEGEN--\":17:32   */\n      mul\n        /* \"--CODEGEN--\":117:121   */\n      dup1\n        /* \"--CODEGEN--\":105:115   */\n      codesize\n        /* \"--CODEGEN--\":97:103   */\n      dup4\n        /* \"--CODEGEN--\":88:122   */\n      codecopy\n        /* \"--CODEGEN--\":148:152   */\n      dup1\n        /* \"--CODEGEN--\":140:146   */\n      dup3\n        /* \"--CODEGEN--\":136:153   */\n      add\n        /* \"--CODEGEN--\":126:153   */\n      swap2\n      pop\n        /* \"--CODEGEN--\":0:157   */\n      pop\n        /* \"input/CreateWin.sol\":5577:21142  contract CreateWin is UtilCreateWin, WhitelistAdminRole {... */\n      swap1\n      pop\n      pop\n      swap1\n      jump\t// out\n    tag_284:\n      mload(0x40)\n      dup1\n      0xa0\n      add\n      0x40\n      mstore\n      dup1\n      0x00\n      dup2\n      mstore\n      0x20\n      add\n      and(0xffffffffffffffffffffffffffffffffffffffff, 0x00)\n      dup2\n      mstore\n      0x20\n      add\n      0x60\n      dup2\n      mstore\n      0x20\n      add\n      0x60\n      dup2\n      mstore\n      0x20\n      add\n      0x00\n      dup2\n      mstore\n      pop\n      swap1\n      jump\t// out\n    tag_292:\n      mload(0x40)\n      dup1\n      0x0200\n      add\n      0x40\n      mstore\n      dup1\n      0x00\n      dup2\n      mstore\n      0x20\n      add\n      and(0xffffffffffffffffffffffffffffffffffffffff, 0x00)\n      dup2\n      mstore\n      0x20\n      add\n      0x00\n      dup2\n      mstore\n      0x20\n      add\n      0x00\n      dup2\n      mstore\n      0x20\n      add\n      0x00\n      dup2\n      mstore\n      0x20\n      add\n      0x00\n      dup2\n      mstore\n      0x20\n      add\n      0x00\n      dup2\n      mstore\n      0x20\n      add\n      0x00\n      dup2\n      mstore\n      0x20\n      add\n      0x00\n      dup2\n      mstore\n      0x20\n      add\n      0x00\n      dup2\n      mstore\n      0x20\n      add\n      0x00\n      dup2\n      mstore\n      0x20\n      add\n      0x00\n      dup2\n      mstore\n      0x20\n      add\n      0x60\n      dup2\n      mstore\n      0x20\n      add\n      0x60\n      dup2\n      mstore\n      0x20\n      add\n      0x00\n      dup2\n      mstore\n      0x20\n      add\n      0x00\n      dup2\n      mstore\n      pop\n      swap1\n      jump\t// out\n    tag_317:\n      mload(0x40)\n      dup1\n      0x60\n      add\n      0x40\n      mstore\n      dup1\n      0x00\n      dup2\n      mstore\n      0x20\n      add\n      0x00\n      dup2\n      mstore\n      0x20\n      add\n      0x00\n      dup2\n      mstore\n      pop\n      swap1\n      jump\t// out\n    tag_615:\n      dup3\n      dup1\n      sload\n      0x01\n      dup2\n      0x01\n      and\n      iszero\n      0x0100\n      mul\n      sub\n      and\n      0x02\n      swap1\n      div\n      swap1\n      0x00\n      mstore\n      keccak256(0x00, 0x20)\n      swap1\n      0x1f\n      add\n      0x20\n      swap1\n      div\n      dup2\n      add\n      swap3\n      dup3\n      0x1f\n      lt\n      tag_697\n      jumpi\n      dup1\n      mload\n      not(0xff)\n      and\n      dup4\n      dup1\n      add\n      or\n      dup6\n      sstore\n      jump(tag_696)\n    tag_697:\n      dup3\n      dup1\n      add\n      0x01\n      add\n      dup6\n      sstore\n      dup3\n      iszero\n      tag_696\n      jumpi\n      swap2\n      dup3\n      add\n    tag_698:\n      dup3\n      dup2\n      gt\n      iszero\n      tag_699\n      jumpi\n      dup3\n      mload\n      dup3\n      sstore\n      swap2\n      0x20\n      add\n      swap2\n      swap1\n      0x01\n      add\n      swap1\n      jump(tag_698)\n    tag_699:\n    tag_696:\n      pop\n      swap1\n      pop\n      tag_700\n      swap2\n      swap1\n      tag_695\n      jump\t// in\n    tag_700:\n      pop\n      swap1\n      jump\t// out\n    tag_695:\n      tag_701\n      swap2\n      swap1\n    tag_702:\n      dup1\n      dup3\n      gt\n      iszero\n      tag_703\n      jumpi\n      0x00\n      dup2\n      0x00\n      swap1\n      sstore\n      pop\n      0x01\n      add\n      jump(tag_702)\n    tag_703:\n      pop\n      swap1\n      jump\n    tag_701:\n      swap1\n      jump\t// out\n    stop\n    data_112277b6fc9fa97dbd12e87cf10db4bc8efa7e361be73fd737590c8aaa6be659 636f6e74726163742062616c616e6365206d757374206265206c6f776572207468616e2031206574686572\n    data_245f15ff17f551913a7a18385165551503906a406f905ac1c2437281a7cd0cfe 4f776e61626c653a206e6577206f776e657220697320746865207a65726f2061646472657373\n    data_3e5e9c692c817082a9743a693e9b6b8b7e4bcafbc78fe55fa9db9882e0e81a3b 5065726d697373696f6e2064656e69656420666f722076696577207573657227732070726976616379\n    data_7bd893145ac435f339bb7c288622d270324b7033b011f693aca172f5cbc3c257 526f6c65733a206163636f756e7420646f6573206e6f74206861766520726f6c65\n    data_9d214fa89563f4e6456a3929327e54500ea1cde2c0ba9fb2035ec106190d682f 526f6c65733a206163636f756e7420697320746865207a65726f2061646472657373\n    data_a092a330b9544809a41baf90fad5bb5d721d39e2ab6006aae3447e7f7e21c961 57686974656c69737441646d696e526f6c653a2063616c6c657220646f6573206e6f742068617665207468652057686974656c69737441646d696e20726f6c65\n\n    auxdata: 0xa265627a7a72315820ddc1fdc6024ef8830b6567e62bccecaef8a97d60c07c3d95981d305c3b42c7d464736f6c63430005110032\n}\n",
				"bytecode": {
					"linkReferences": {},
					"object": "6080604052670de0b6b3a7640000600055670de0b6b3a764000060035573065136c92b506155deac445548ffde309a9b373d600460006101000a81548173ffffffffffffffffffffffffffffffffffffffff021916908373ffffffffffffffffffffffffffffffffffffffff160217905550737d11efaa59cb41f59b7b6f2a983a0efadfa44116600560006101000a81548173ffffffffffffffffffffffffffffffffffffffff021916908373ffffffffffffffffffffffffffffffffffffffff160217905550600060075562015180600a556000600b556001600c5567d02ab486cedc000060135568056bc75e2d6310000060145567d02ab486cedc0000601555600160165560016017553480156200011857600080fd5b50620001296200016f60201b60201c565b600160006101000a81548173ffffffffffffffffffffffffffffffffffffffff021916908373ffffffffffffffffffffffffffffffffffffffff16021790555062000177565b600033905090565b615c1680620001876000396000f3fe6080604052600436106101d85760003560e01c806387c5d5cc11610102578063bc6f504d11610095578063f11c25ba11610064578063f11c25ba14610f29578063f2fde38b14610f58578063f7ad55d914610fa9578063f851a44014610ff8576101d8565b8063bc6f504d14610d79578063db4acb6414610dc8578063e08f079714610ec3578063e0d7cb6f14610f12576101d8565b80639e64f867116100d15780639e64f86714610b7e578063a145122414610bb9578063aceb9b6e14610cc1578063bb5f747b14610d10576101d8565b806387c5d5cc146109025780638a03ad8614610a795780638f32d59b14610af45780639160ec5514610b23576101d8565b806353501a9c1161017a578063749aa2d911610149578063749aa2d9146107df57806375eeadcd146107f657806383f6f9df1461083b57806386481d40146108b3576101d8565b806353501a9c14610622578063578d714b1461065d5780636897e9741461073d5780637362d9c81461078e576101d8565b8063423e3071116101b6578063423e3071146103d457806347118798146103eb57806348fff6921461055a5780634bd59a66146105b3576101d8565b80631ceae42f146101da57806326eebf41146102295780633746332b14610282575b005b3480156101e657600080fd5b50610213600480360360208110156101fd57600080fd5b810190808035906020019092919050505061100f565b6040518082815260200191505060405180910390f35b34801561023557600080fd5b5061026c6004803603604081101561024c57600080fd5b81019080803590602001909291908035906020019092919050505061107f565b6040518082815260200191505060405180910390f35b6103d26004803603604081101561029857600080fd5b81019080803590602001906401000000008111156102b557600080fd5b8201836020820111156102c757600080fd5b803590602001918460018302840111640100000000831117156102e957600080fd5b91908080601f016020809104026020016040519081016040528093929190818152602001838380828437600081840152601f19601f8201169050808301925050505050505091929192908035906020019064010000000081111561034c57600080fd5b82018360208201111561035e57600080fd5b8035906020019184600183028401116401000000008311171561038057600080fd5b91908080601f016020809104026020016040519081016040528093929190818152602001838380828437600081840152601f19601f820116905080830192505050505050509192919290505050611177565b005b3480156103e057600080fd5b506103e9611af1565b005b3480156103f757600080fd5b506104446004803603604081101561040e57600080fd5b81019080803573ffffffffffffffffffffffffffffffffffffffff16906020019092919080359060200190929190505050611b75565b6040518084600e60200280838360005b8381101561046f578082015181840152602081019050610454565b505050509050018060200180602001838103835285818151815260200191508051906020019080838360005b838110156104b657808201518184015260208101905061049b565b50505050905090810190601f1680156104e35780820380516001836020036101000a031916815260200191505b50838103825284818151815260200191508051906020019080838360005b8381101561051c578082015181840152602081019050610501565b50505050905090810190601f1680156105495780820380516001836020036101000a031916815260200191505b509550505050505060405180910390f35b34801561056657600080fd5b5061059d6004803603604081101561057d57600080fd5b8101908080359060200190929190803590602001909291905050506125e4565b6040518082815260200191505060405180910390f35b3480156105bf57600080fd5b50610620600480360360808110156105d657600080fd5b81019080803573ffffffffffffffffffffffffffffffffffffffff1690602001909291908035906020019092919080359060200190929190803590602001909291905050506126a3565b005b34801561062e57600080fd5b5061065b6004803603602081101561064557600080fd5b810190808035906020019092919050505061278a565b005b34801561066957600080fd5b506107236004803603602081101561068057600080fd5b810190808035906020019064010000000081111561069d57600080fd5b8201836020820111156106af57600080fd5b803590602001918460018302840111640100000000831117156106d157600080fd5b91908080601f016020809104026020016040519081016040528093929190818152602001838380828437600081840152601f19601f820116905080830192505050505050509192919290505050612903565b604051808215151515815260200191505060405180910390f35b34801561074957600080fd5b5061078c6004803603602081101561076057600080fd5b81019080803573ffffffffffffffffffffffffffffffffffffffff1690602001909291905050506129b5565b005b34801561079a57600080fd5b506107dd600480360360208110156107b157600080fd5b81019080803573ffffffffffffffffffffffffffffffffffffffff169060200190929190505050612a46565b005b3480156107eb57600080fd5b506107f4612ad7565b005b34801561080257600080fd5b506108396004803603604081101561081957600080fd5b810190808035906020019092919080359060200190929190505050612c12565b005b34801561084757600080fd5b5061085061350a565b604051808d81526020018c81526020018b81526020018a81526020018981526020018881526020018781526020018681526020018581526020018481526020018381526020018281526020019c5050505050505050505050505060405180910390f35b3480156108bf57600080fd5b506108ec600480360360208110156108d657600080fd5b81019080803590602001909291905050506135a2565b6040518082815260200191505060405180910390f35b34801561090e57600080fd5b50610a5f6004803603604081101561092557600080fd5b810190808035906020019064010000000081111561094257600080fd5b82018360208201111561095457600080fd5b8035906020019184600183028401116401000000008311171561097657600080fd5b91908080601f016020809104026020016040519081016040528093929190818152602001838380828437600081840152601f19601f820116905080830192505050505050509192919290803590602001906401000000008111156109d957600080fd5b8201836020820111156109eb57600080fd5b80359060200191846001830284011164010000000083111715610a0d57600080fd5b91908080601f016020809104026020016040519081016040528093929190818152602001838380828437600081840152601f19601f820116905080830192505050505050509192919290505050613625565b604051808215151515815260200191505060405180910390f35b348015610a8557600080fd5b50610ab260048036036020811015610a9c57600080fd5b8101908080359060200190929190505050613725565b604051808273ffffffffffffffffffffffffffffffffffffffff1673ffffffffffffffffffffffffffffffffffffffff16815260200191505060405180910390f35b348015610b0057600080fd5b50610b096137dd565b604051808215151515815260200191505060405180910390f35b348015610b2f57600080fd5b50610b7c60048036036040811015610b4657600080fd5b81019080803573ffffffffffffffffffffffffffffffffffffffff1690602001909291908035906020019092919050505061383c565b005b348015610b8a57600080fd5b50610bb760048036036020811015610ba157600080fd5b810190808035906020019092919050505061398d565b005b348015610bc557600080fd5b50610c7f60048036036020811015610bdc57600080fd5b8101908080359060200190640100000000811115610bf957600080fd5b820183602082011115610c0b57600080fd5b80359060200191846001830284011164010000000083111715610c2d57600080fd5b91908080601f016020809104026020016040519081016040528093929190818152602001838380828437600081840152601f19601f820116905080830192505050505050509192919290505050613a0b565b604051808273ffffffffffffffffffffffffffffffffffffffff1673ffffffffffffffffffffffffffffffffffffffff16815260200191505060405180910390f35b348015610ccd57600080fd5b50610d0e60048036036060811015610ce457600080fd5b81019080803590602001909291908035906020019092919080359060200190929190505050613b19565b005b348015610d1c57600080fd5b50610d5f60048036036020811015610d3357600080fd5b81019080803573ffffffffffffffffffffffffffffffffffffffff169060200190929190505050613d26565b604051808215151515815260200191505060405180910390f35b348015610d8557600080fd5b50610dc660048036036060811015610d9c57600080fd5b81019080803590602001909291908035906020019092919080359060200190929190505050613d52565b005b348015610dd457600080fd5b50610ec160048036036060811015610deb57600080fd5b81019080803573ffffffffffffffffffffffffffffffffffffffff16906020019092919080359060200190640100000000811115610e2857600080fd5b820183602082011115610e3a57600080fd5b80359060200191846001830284011164010000000083111715610e5c57600080fd5b909192939192939080359060200190640100000000811115610e7d57600080fd5b820183602082011115610e8f57600080fd5b80359060200191846001830284011164010000000083111715610eb157600080fd5b9091929391929390505050613e8d565b005b348015610ecf57600080fd5b50610efc60048036036020811015610ee657600080fd5b810190808035906020019092919050505061442b565b6040518082815260200191505060405180910390f35b348015610f1e57600080fd5b50610f2761446d565b005b348015610f3557600080fd5b50610f3e614757565b604051808215151515815260200191505060405180910390f35b348015610f6457600080fd5b50610fa760048036036020811015610f7b57600080fd5b81019080803573ffffffffffffffffffffffffffffffffffffffff169060200190929190505050614771565b005b348015610fb557600080fd5b50610fe260048036036020811015610fcc57600080fd5b81019080803590602001909291905050506148b5565b6040518082815260200191505060405180910390f35b34801561100457600080fd5b5061100d6148f7565b005b60008054600102821015801561102a57506000546005028211155b15611038576001905061107a565b60005460060282101580156110525750600054600a028211155b15611060576002905061107a565b600054600b028210611075576003905061107a565b600090505b919050565b60006001831480156110915750600182145b1561109f5760329050611171565b6002831480156110af5750600182145b156110bd5760469050611171565b6002831480156110cd5750600282145b156110db5760329050611171565b600383141561116c5760018214156110f65760649050611171565b60028214156111085760469050611171565b600382141561111a5760329050611171565b6004821015801561112c5750600a8211155b1561113a57600a9050611171565b600b821015801561114c575060148211155b1561115a5760059050611171565b6015821061116b5760019050611171565b5b600090505b92915050565b60003390506000813b9050600081146111f8576040517f08c379a00000000000000000000000000000000000000000000000000000000081526004018080602001828103825260118152602001807f736f7272792068756d616e73206f6e6c7900000000000000000000000000000081525060200191505060405180910390fd5b3373ffffffffffffffffffffffffffffffffffffffff163273ffffffffffffffffffffffffffffffffffffffff1614611299576040517f08c379a00000000000000000000000000000000000000000000000000000000081526004018080602001828103825260128152602001807f736f7272792c2068756d616e73206f6e6c79000000000000000000000000000081525060200191505060405180910390fd5b6112a1614757565b611313576040517f08c379a00000000000000000000000000000000000000000000000000000000081526004018080602001828103825260118152602001807f6e6f2c20646f6e6e6f74696d697461746500000000000000000000000000000081525060200191505060405180910390fd5b600354600102341015801561132d5750600354600f023411155b61139f576040517f08c379a00000000000000000000000000000000000000000000000000000000081526004018080602001828103825260108152602001807f6265747765656e203120616e642031350000000000000000000000000000000081525060200191505060405180910390fd5b6113c86003546113ba6003543461499e90919063ffffffff16565b614a2d90919063ffffffff16565b341461143c576040517f08c379a00000000000000000000000000000000000000000000000000000000081526004018080602001828103825260118152602001807f696e76616c6964206d73672076616c756500000000000000000000000000000081525060200191505060405180910390fd5b6000600f60003373ffffffffffffffffffffffffffffffffffffffff1673ffffffffffffffffffffffffffffffffffffffff1681526020019081526020016000209050600081600001541415611759576114a58560405180602001604052806000815250613625565b1580156114b3575060068551145b611525576040517f08c379a00000000000000000000000000000000000000000000000000000000081526004018080602001828103825260138152602001807f696e76616c696420696e7669746520636f64650000000000000000000000000081525060200191505060405180910390fd5b60006010856040518082805190602001908083835b6020831061155d578051825260208201915060208101905060208303925061153a565b6001836020036101000a038019825116818451168082178552505050505050905001915050908152602001604051809103902060009054906101000a900473ffffffffffffffffffffffffffffffffffffffff1690506115bc85612903565b61162e576040517f08c379a00000000000000000000000000000000000000000000000000000000081526004018080602001828103825260108152602001807f6265436f6465206e6f742065786973740000000000000000000000000000000081525060200191505060405180910390fd5b3373ffffffffffffffffffffffffffffffffffffffff168173ffffffffffffffffffffffffffffffffffffffff1614156116d0576040517f08c379a00000000000000000000000000000000000000000000000000000000081526004018080602001828103825260188152602001807f6265436f6465416464722063616e27742062652073656c66000000000000000081525060200191505060405180910390fd5b6116d986612903565b1561174c576040517f08c379a00000000000000000000000000000000000000000000000000000000081526004018080602001828103825260138152602001807f696e7669746520636f646520697320757365640000000000000000000000000081525060200191505060405180910390fd5b611757338787614ad0565b505b600080611764614ca7565b1561177157349050611775565b3491505b6000600e6000600c54815260200190815260200160002060003373ffffffffffffffffffffffffffffffffffffffff1673ffffffffffffffffffffffffffffffffffffffff168152602001908152602001600020905060008160000154146118d45760006117f482600401548360030154614cb490919063ffffffff16565b14611867576040517f08c379a00000000000000000000000000000000000000000000000000000000081526004018080602001828103825260108152602001807f6f6e6c79206f6e636520696e766573740000000000000000000000000000000081525060200191505060405180910390fd5b82816003018190555081816004018190555061188681600301546135a2565b81600801819055506118c76118c282600401546118b484600201548560030154614cb490919063ffffffff16565b614cb490919063ffffffff16565b61100f565b81600901819055506119d9565b83600001548160000181905550338160010160006101000a81548173ffffffffffffffffffffffffffffffffffffffff021916908373ffffffffffffffffffffffffffffffffffffffff160217905550828160030181905550611936836135a2565b816008018190555081816004018190555061198061197b826004015461196d84600201548560030154614cb490919063ffffffff16565b614cb490919063ffffffff16565b61100f565b81600901819055508360020181600c0190805460018160011615610100020316600290046119af92919061589c565b508360030181600d0190805460018160011615610100020316600290046119d792919061589c565b505b611a02600160086000600c54815260200190815260200160002054614cb490919063ffffffff16565b60086000600c54815260200190815260200160002081905550611a433460096000600c54815260200190815260200160002054614cb490919063ffffffff16565b60096000600c54815260200190815260200160002081905550611a64614ca7565b611aa357611a7134614d3c565b611a9e8160010160009054906101000a900473ffffffffffffffffffffffffffffffffffffffff16614dbb565b611ae7565b600d6000600c548152602001908152602001600020816000015490806001815401808255809150509060018203906000526020600020016000909192909190915055505b5050505050505050565b611af96137dd565b611b6b576040517f08c379a00000000000000000000000000000000000000000000000000000000081526004018080602001828103825260208152602001807f4f776e61626c653a2063616c6c6572206973206e6f7420746865206f776e657281525060200191505060405180910390fd5b6000601681905550565b611b7d615923565b606080611b8933613d26565b80611bbf57508473ffffffffffffffffffffffffffffffffffffffff163373ffffffffffffffffffffffffffffffffffffffff16145b611c14576040517f08c379a0000000000000000000000000000000000000000000000000000000008152600401808060200182810382526029815260200180615b366029913960400191505060405180910390fd5b6000841415611c2357600c5493505b611c2b615946565b600f60008773ffffffffffffffffffffffffffffffffffffffff1673ffffffffffffffffffffffffffffffffffffffff1681526020019081526020016000206040518060a0016040529081600082015481526020016001820160009054906101000a900473ffffffffffffffffffffffffffffffffffffffff1673ffffffffffffffffffffffffffffffffffffffff1673ffffffffffffffffffffffffffffffffffffffff168152602001600282018054600181600116156101000203166002900480601f016020809104026020016040519081016040528092919081815260200182805460018160011615610100020316600290048015611d6e5780601f10611d4357610100808354040283529160200191611d6e565b820191906000526020600020905b815481529060010190602001808311611d5157829003601f168201915b50505050508152602001600382018054600181600116156101000203166002900480601f016020809104026020016040519081016040528092919081815260200182805460018160011615610100020316600290048015611e105780601f10611de557610100808354040283529160200191611e10565b820191906000526020600020905b815481529060010190602001808311611df357829003601f168201915b505050505081526020016004820154815250509050611e2d61598b565b600e600087815260200190815260200160002060008873ffffffffffffffffffffffffffffffffffffffff1673ffffffffffffffffffffffffffffffffffffffff16815260200190815260200160002060405180610200016040529081600082015481526020016001820160009054906101000a900473ffffffffffffffffffffffffffffffffffffffff1673ffffffffffffffffffffffffffffffffffffffff1673ffffffffffffffffffffffffffffffffffffffff1681526020016002820154815260200160038201548152602001600482015481526020016005820154815260200160068201548152602001600782015481526020016008820154815260200160098201548152602001600a8201548152602001600b8201548152602001600c82018054600181600116156101000203166002900480601f016020809104026020016040519081016040528092919081815260200182805460018160011615610100020316600290048015611fe65780601f10611fbb57610100808354040283529160200191611fe6565b820191906000526020600020905b815481529060010190602001808311611fc957829003601f168201915b50505050508152602001600d82018054600181600116156101000203166002900480601f0160208091040260200160405190810160405280929190818152602001828054600181600116156101000203166002900480156120885780601f1061205d57610100808354040283529160200191612088565b820191906000526020600020905b81548152906001019060200180831161206b57829003601f168201915b50505050508152602001600e8201548152602001600f8201548152505090508160000151856000600e81106120b957fe5b6020020181815250508060800151856001600e81106120d457fe5b6020020181815250508060400151856002600e81106120ef57fe5b6020020181815250508060600151856003600e811061210a57fe5b6020020181815250508060a00151856004600e811061212557fe5b6020020181815250508060e00151856005600e811061214057fe5b602002018181525050806101200151856006600e811061215c57fe5b6020020181815250508060c00151856007600e811061217757fe5b602002018181525050806101c00151856008600e811061219357fe5b602002018181525050806101600151856009600e81106121af57fe5b60200201818152505080610100015185600a600e81106121cb57fe5b6020020181815250506000809050600082600001511180156121f95750670de0b6b3a7640000826060015110155b801561220b5750601354826060015111155b801561221c57506005826101600151105b801561222d57506001836080015114155b1561223c578160c00151810190505b600083608001511415612575576000809050612256615a1e565b60126000600c5481526020019081526020016000206000856020015173ffffffffffffffffffffffffffffffffffffffff1673ffffffffffffffffffffffffffffffffffffffff1681526020019081526020016000206000856101c001518152602001908152602001600020604051806060016040529081600082015481526020016001820154815260200160028201548152505090506000612320856080015161231287604001518860600151614cb490919063ffffffff16565b614cb490919063ffffffff16565b9050670de0b6b3a764000081106125715760006123486003548361499e90919063ffffffff16565b9050600f81106123605782604001518401935061256a565b600186610120015114801561237d5750670de0b6b3a76400008210155b801561238d575060008360000151115b156123d4576123cf60026123c1836123b3600f886000015161499e90919063ffffffff16565b614a2d90919063ffffffff16565b61499e90919063ffffffff16565b840193505b60028661012001511480156123f15750670de0b6b3a76400008210155b8015612410575060008360000151118061240f575060008360200151115b5b156124be57612465600a61245760076124498561243b600f8a6000015161499e90919063ffffffff16565b614a2d90919063ffffffff16565b614a2d90919063ffffffff16565b61499e90919063ffffffff16565b840193506124b960076124ab600561249d8561248f600f8a6020015161499e90919063ffffffff16565b614a2d90919063ffffffff16565b614a2d90919063ffffffff16565b61499e90919063ffffffff16565b840193505b60038661012001511480156124db5750670de0b6b3a76400008210155b80156124eb575060008360400151115b1561251f5761251a8161250c600f866040015161499e90919063ffffffff16565b614a2d90919063ffffffff16565b840193505b6003866101200151101561256957600061253d87610120015161442b565b9050612565600a6125578388614a2d90919063ffffffff16565b61499e90919063ffffffff16565b9450505b5b8385019450505b5050505b8086600b600e811061258357fe5b602002018181525050816101e0015186600c600e811061259f57fe5b602002018181525050826080015186600d600e81106125ba57fe5b60200201818152505085836040015184606001518191508090509550955095505050509250925092565b60006125ef33613d26565b612661576040517f08c379a00000000000000000000000000000000000000000000000000000000081526004018080602001828103825260118152602001807f5065726d697373696f6e2064656e69656400000000000000000000000000000081525060200191505060405180910390fd5b600082141561267057600c5491505b600d6000600c548152602001908152602001600020838154811061269057fe5b9060005260206000200154905092915050565b60008090505b600581101561278357600060126000600c54815260200190815260200160002060008773ffffffffffffffffffffffffffffffffffffffff1673ffffffffffffffffffffffffffffffffffffffff168152602001908152602001600020600061271b8487614cb490919063ffffffff16565b815260200190815260200160002090506001831415612747578481600001600082825401925050819055505b6002831415612763578481600101600082825401925050819055505b8481600201600082825401925050819055505080806001019150506126a9565b5050505050565b6127926137dd565b612804576040517f08c379a00000000000000000000000000000000000000000000000000000000081526004018080602001828103825260208152602001807f4f776e61626c653a2063616c6c6572206973206e6f7420746865206f776e657281525060200191505060405180910390fd5b60016017541461287c576040517f08c379a00000000000000000000000000000000000000000000000000000000081526004018080602001828103825260178152602001807f7665727964616e6765726f75732c206c696d697465642100000000000000000081525060200191505060405180910390fd5b4281116128f1576040517f08c379a00000000000000000000000000000000000000000000000000000000081526004018080602001828103825260118152602001807f6e6f2c207665727964616e6765726f757300000000000000000000000000000081525060200191505060405180910390fd5b80600681905550600060178190555050565b6000806010836040518082805190602001908083835b6020831061293c5780518252602082019150602081019050602083039250612919565b6001836020036101000a038019825116818451168082178552505050505050905001915050908152602001604051809103902060009054906101000a900473ffffffffffffffffffffffffffffffffffffffff16905060008173ffffffffffffffffffffffffffffffffffffffff161415915050919050565b6129bd6137dd565b612a2f576040517f08c379a00000000000000000000000000000000000000000000000000000000081526004018080602001828103825260208152602001807f4f776e61626c653a2063616c6c6572206973206e6f7420746865206f776e657281525060200191505060405180910390fd5b612a4381600261515e90919063ffffffff16565b50565b612a4e6137dd565b612ac0576040517f08c379a00000000000000000000000000000000000000000000000000000000081526004018080602001828103825260208152602001807f4f776e61626c653a2063616c6c6572206973206e6f7420746865206f776e657281525060200191505060405180910390fd5b612ad481600261521b90919063ffffffff16565b50565b612adf6137dd565b612b51576040517f08c379a00000000000000000000000000000000000000000000000000000000081526004018080602001828103825260208152602001807f4f776e61626c653a2063616c6c6572206973206e6f7420746865206f776e657281525060200191505060405180910390fd5b670de0b6b3a76400004710612bb1576040517f08c379a000000000000000000000000000000000000000000000000000000000815260040180806020018281038252602b815260200180615ae5602b913960400191505060405180910390fd5b600c60008154809291906001019190505550612c0262015180612bf462015180612be6600a5442614cb490919063ffffffff16565b61499e90919063ffffffff16565b614a2d90919063ffffffff16565b6006819055506001601781905550565b612c22612c1d6152f6565b613d26565b80612c315750612c306137dd565b5b612c86576040517f08c379a0000000000000000000000000000000000000000000000000000000008152600401808060200182810382526040815260200180615ba26040913960400191505060405180910390fd5b60008290505b8181116135055760006011600083815260200190815260200160002060009054906101000a900473ffffffffffffffffffffffffffffffffffffffff1690506000600e6000600c54815260200190815260200160002060008373ffffffffffffffffffffffffffffffffffffffff1673ffffffffffffffffffffffffffffffffffffffff1681526020019081526020016000209050612d29615946565b600f60008473ffffffffffffffffffffffffffffffffffffffff1673ffffffffffffffffffffffffffffffffffffffff1681526020019081526020016000206040518060a0016040529081600082015481526020016001820160009054906101000a900473ffffffffffffffffffffffffffffffffffffffff1673ffffffffffffffffffffffffffffffffffffffff1673ffffffffffffffffffffffffffffffffffffffff168152602001600282018054600181600116156101000203166002900480601f016020809104026020016040519081016040528092919081815260200182805460018160011615610100020316600290048015612e6c5780601f10612e4157610100808354040283529160200191612e6c565b820191906000526020600020905b815481529060010190602001808311612e4f57829003601f168201915b50505050508152602001600382018054600181600116156101000203166002900480601f016020809104026020016040519081016040528092919081815260200182805460018160011615610100020316600290048015612f0e5780601f10612ee357610100808354040283529160200191612f0e565b820191906000526020600020905b815481529060010190602001808311612ef157829003601f168201915b50505050508152602001600482015481525050905061a8c0612f3d83600f0154426152fe90919063ffffffff16565b11612f4a575050506134f8565b4282600f0181905550600181608001511415612f8857612f78600183600e0154614cb490919063ffffffff16565b82600e01819055505050506134f8565b60008090506000836000015414158015612fae5750670de0b6b3a7640000836003015410155b8015612fc05750601354836003015411155b1561306257600583600b0154101561301f57826006015481019050612ff2818460070154614cb490919063ffffffff16565b8360070181905550613012600184600b0154614cb490919063ffffffff16565b83600b0181905550613061565b61303a83600301548460020154614cb490919063ffffffff16565b83600201819055506000836003018190555060008360060181905550600083600801819055505b5b6000613095846004015461308786600201548760030154614cb490919063ffffffff16565b614cb490919063ffffffff16565b9050670de0b6b3a76400008110806130ae575060155481115b156130dd576130cb600185600e0154614cb490919063ffffffff16565b84600e018190555050505050506134f8565b60008090506000846080015114156133e4576130f7615a1e565b60126000600c54815260200190815260200160002060008873ffffffffffffffffffffffffffffffffffffffff1673ffffffffffffffffffffffffffffffffffffffff168152602001908152602001600020600087600e01548152602001908152602001600020604051806060016040529081600082015481526020016001820154815260200160028201548152505090506131a1600187600e0154614cb490919063ffffffff16565b86600e018190555060006131c06003548561499e90919063ffffffff16565b9050600f81106131d8578160400151830192506133dd565b600187600901541480156131f45750670de0b6b3a76400008410155b8015613204575060008260000151115b1561324b5761324660026132388361322a600f876000015161499e90919063ffffffff16565b614a2d90919063ffffffff16565b61499e90919063ffffffff16565b830192505b6002876009015414801561326757506753444835ec5800008410155b80156132865750600082600001511180613285575060008260200151115b5b15613334576132db600a6132cd60076132bf856132b1600f896000015161499e90919063ffffffff16565b614a2d90919063ffffffff16565b614a2d90919063ffffffff16565b61499e90919063ffffffff16565b8301925061332f6007613321600561331385613305600f896020015161499e90919063ffffffff16565b614a2d90919063ffffffff16565b614a2d90919063ffffffff16565b61499e90919063ffffffff16565b830192505b6003876009015414801561335057506798a7d9b8314c00008410155b8015613360575060008260400151115b156133945761338f81613381600f856040015161499e90919063ffffffff16565b614a2d90919063ffffffff16565b830192505b6003876009015410156133dc5760006133b0886009015461442b565b90506133d8600a6133ca8387614a2d90919063ffffffff16565b61499e90919063ffffffff16565b9350505b5b5050613413565b60028460800151141561341257613409600186600e0154614cb490919063ffffffff16565b85600e01819055505b5b6014546134298285614cb490919063ffffffff16565b116134f157613445818660050154614cb490919063ffffffff16565b85600501819055506000809050600080905061347261346d8487614cb490919063ffffffff16565b615387565b809250819350505060008111156134ee576000613499600a8361499e90919063ffffffff16565b90506134c7600560009054906101000a900473ffffffffffffffffffffffffffffffffffffffff16826153aa565b6134da81836152fe90919063ffffffff16565b915060008990506134eb81846153aa565b50505b50505b5050505050505b8080600101915050612c8c565b505050565b600080600080600080600080600080600080600c54600b5460065460086000600c5481526020019081526020016000205460096000600c54815260200190815260200160002054601354601454601554601654600754600d6000600c548152602001908152602001600020805490506017549b509b509b509b509b509b509b509b509b509b509b509b50909192939495969798999a9b565b6000805460010282101580156135bd57506000546005028211155b156135cb5760019050613620565b60005460060282101580156135e55750600054600a028211155b156135f35760029050613620565b600054600b02821015801561360d5750600054600f028211155b1561361b5760039050613620565b600090505b919050565b6000816040516020018082805190602001908083835b6020831061365e578051825260208201915060208101905060208303925061363b565b6001836020036101000a03801982511681845116808217855250505050505090500191505060405160208183030381529060405280519060200120836040516020018082805190602001908083835b602083106136d057805182526020820191506020810190506020830392506136ad565b6001836020036101000a03801982511681845116808217855250505050505090500191505060405160208183030381529060405280519060200120141561371a576001905061371f565b600090505b92915050565b600061373033613d26565b6137a2576040517f08c379a00000000000000000000000000000000000000000000000000000000081526004018080602001828103825260118152602001807f5065726d697373696f6e2064656e69656400000000000000000000000000000081525060200191505060405180910390fd5b6011600083815260200190815260200160002060009054906101000a900473ffffffffffffffffffffffffffffffffffffffff169050919050565b6000600160009054906101000a900473ffffffffffffffffffffffffffffffffffffffff1673ffffffffffffffffffffffffffffffffffffffff166138206152f6565b73ffffffffffffffffffffffffffffffffffffffff1614905090565b61384c6138476152f6565b613d26565b8061385b575061385a6137dd565b5b6138b0576040517f08c379a0000000000000000000000000000000000000000000000000000000008152600401808060200182810382526040815260200180615ba26040913960400191505060405180910390fd5b60008114806138bf5750600181145b806138ca5750600281145b61393c576040517f08c379a00000000000000000000000000000000000000000000000000000000081526004018080602001828103825260148152602001807f62616420706172616d657465722073746174757300000000000000000000000081525060200191505060405180910390fd5b6000600f60008473ffffffffffffffffffffffffffffffffffffffff1673ffffffffffffffffffffffffffffffffffffffff1681526020019081526020016000209050818160040181905550505050565b61399d6139986152f6565b613d26565b806139ac57506139ab6137dd565b5b613a01576040517f08c379a0000000000000000000000000000000000000000000000000000000008152600401808060200182810382526040815260200180615ba26040913960400191505060405180910390fd5b8060078190555050565b6000613a1633613d26565b613a88576040517f08c379a00000000000000000000000000000000000000000000000000000000081526004018080602001828103825260118152602001807f5065726d697373696f6e2064656e69656400000000000000000000000000000081525060200191505060405180910390fd5b6010826040518082805190602001908083835b60208310613abe5780518252602082019150602081019050602083039250613a9b565b6001836020036101000a038019825116818451168082178552505050505050905001915050908152602001604051809103902060009054906101000a900473ffffffffffffffffffffffffffffffffffffffff169050919050565b613b29613b246152f6565b613d26565b80613b385750613b376137dd565b5b613b8d576040517f08c379a0000000000000000000000000000000000000000000000000000000008152600401808060200182810382526040815260200180615ba26040913960400191505060405180910390fd5b60008390505b828111613d205760008090506000831415613bda57600d6000600c5481526020019081526020016000208281548110613bc857fe5b90600052602060002001549050613bde565b8190505b60006011600083815260200190815260200160002060009054906101000a900473ffffffffffffffffffffffffffffffffffffffff1690506000600e6000600c54815260200190815260200160002060008373ffffffffffffffffffffffffffffffffffffffff1673ffffffffffffffffffffffffffffffffffffffff168152602001908152602001600020905060008160030154148015613c8c5750670de0b6b3a7640000816004015410155b8015613ca4575067d02ab486cedc0000816004015411155b15613d105780600401548160030181905550613cc381600301546135a2565b816008018190555060008160040181905550613ce28160030154614d3c565b613d0f8160010160009054906101000a900473ffffffffffffffffffffffffffffffffffffffff16614dbb565b5b5050508080600101915050613b93565b50505050565b6000613d3c8260026153ff90919063ffffffff16565b80613d4b5750613d4a6137dd565b5b9050919050565b613d5a6137dd565b613dcc576040517f08c379a00000000000000000000000000000000000000000000000000000000081526004018080602001828103825260208152602001807f4f776e61626c653a2063616c6c6572206973206e6f7420746865206f776e657281525060200191505060405180910390fd5b67d02ab486cedc00008310158015613ded575068056bc75e2d631000008210155b8015613e01575067d02ab486cedc00008110155b613e73576040517f08c379a000000000000000000000000000000000000000000000000000000000815260040180806020018281038252600e8152602001807f696e76616c696420616d6f756e7400000000000000000000000000000000000081525060200191505060405180910390fd5b826013819055508160148190555080601581905550505050565b613e9d613e986152f6565b613d26565b80613eac5750613eab6137dd565b5b613f01576040517f08c379a0000000000000000000000000000000000000000000000000000000008152600401808060200182810382526040815260200180615ba26040913960400191505060405180910390fd5b600160165414613f79576040517f08c379a000000000000000000000000000000000000000000000000000000000815260040180806020018281038252600e8152602001807f696d706f72742073746f7070656400000000000000000000000000000000000081525060200191505060405180910390fd5b6000600f60008773ffffffffffffffffffffffffffffffffffffffff1673ffffffffffffffffffffffffffffffffffffffff16815260200190815260200160002090506000816000015414614036576040517f08c379a00000000000000000000000000000000000000000000000000000000081526004018080602001828103825260138152602001807f7573657220616c7265616479206578697374730000000000000000000000000081525060200191505060405180910390fd5b61409385858080601f016020809104026020016040519081016040528093929190818152602001838380828437600081840152601f19601f8201169050808301925050505050505060405180602001604052806000815250613625565b15614106576040517f08c379a00000000000000000000000000000000000000000000000000000000081526004018080602001828103825260118152602001807f656d70747920696e7669746520636f646500000000000000000000000000000081525060200191505060405180910390fd5b6000600b54146141e15761416d83838080601f016020809104026020016040519081016040528093929190818152602001838380828437600081840152601f19601f8201169050808301925050505050505060405180602001604052806000815250613625565b156141e0576040517f08c379a000000000000000000000000000000000000000000000000000000000815260040180806020018281038252600c8152602001807f656d707479206265436f6465000000000000000000000000000000000000000081525060200191505060405180910390fd5b5b600060108484604051808383808284378083019250505092505050908152602001604051809103902060009054906101000a900473ffffffffffffffffffffffffffffffffffffffff1690508673ffffffffffffffffffffffffffffffffffffffff168173ffffffffffffffffffffffffffffffffffffffff1614156142cf576040517f08c379a00000000000000000000000000000000000000000000000000000000081526004018080602001828103825260188152602001807f6265436f6465416464722063616e27742062652073656c66000000000000000081525060200191505060405180910390fd5b61431c86868080601f016020809104026020016040519081016040528093929190818152602001838380828437600081840152601f19601f82011690508083019250505050505050612903565b1561438f576040517f08c379a00000000000000000000000000000000000000000000000000000000081526004018080602001828103825260138152602001807f696e7669746520636f646520697320757365640000000000000000000000000081525060200191505060405180910390fd5b6144228787878080601f016020809104026020016040519081016040528093929190818152602001838380828437600081840152601f19601f8201169050808301925050505050505086868080601f016020809104026020016040519081016040528093929190818152602001838380828437600081840152601f19601f82011690508083019250505050505050614ad0565b50505050505050565b6000600182141561443f5760039050614468565b60028214156144515760069050614468565b600382141561446357600a9050614468565b600090505b919050565b60003390506000813b9050600081146144ee576040517f08c379a00000000000000000000000000000000000000000000000000000000081526004018080602001828103825260118152602001807f736f7272792068756d616e73206f6e6c7900000000000000000000000000000081525060200191505060405180910390fd5b3373ffffffffffffffffffffffffffffffffffffffff163273ffffffffffffffffffffffffffffffffffffffff161461458f576040517f08c379a00000000000000000000000000000000000000000000000000000000081526004018080602001828103825260128152602001807f736f7272792c2068756d616e73206f6e6c79000000000000000000000000000081525060200191505060405180910390fd5b614597614757565b614609576040517f08c379a00000000000000000000000000000000000000000000000000000000081526004018080602001828103825260108152602001807f6e6f20646f6e6e6f74696d69746174650000000000000000000000000000000081525060200191505060405180910390fd5b6000600e6000600c54815260200190815260200160002060003373ffffffffffffffffffffffffffffffffffffffff1673ffffffffffffffffffffffffffffffffffffffff16815260200190815260200160002090506000816000015414156146da576040517f08c379a000000000000000000000000000000000000000000000000000000000815260040180806020018281038252600e8152602001807f75736572206e6f7420657869737400000000000000000000000000000000000081525060200191505060405180910390fd5b600081600401548260020154019050600080905060008090506146fc83615387565b809250819350505060008111801561471657506015548111155b1561474f5761472533826153aa565b6000846002018190555060008460040181905550614746846003015461100f565b84600901819055505b505050505050565b6000806006541415801561476c575060065442115b905090565b6147796137dd565b6147eb576040517f08c379a00000000000000000000000000000000000000000000000000000000081526004018080602001828103825260208152602001807f4f776e61626c653a2063616c6c6572206973206e6f7420746865206f776e657281525060200191505060405180910390fd5b600073ffffffffffffffffffffffffffffffffffffffff168173ffffffffffffffffffffffffffffffffffffffff161415614871576040517f08c379a0000000000000000000000000000000000000000000000000000000008152600401808060200182810382526026815260200180615b106026913960400191505060405180910390fd5b80600160006101000a81548173ffffffffffffffffffffffffffffffffffffffff021916908373ffffffffffffffffffffffffffffffffffffffff16021790555050565b600060018214156148c957600590506148f2565b60028214156148db57600790506148f2565b60038214156148ed57600a90506148f2565b600090505b919050565b6148ff6137dd565b614971576040517f08c379a00000000000000000000000000000000000000000000000000000000081526004018080602001828103825260208152602001807f4f776e61626c653a2063616c6c6572206973206e6f7420746865206f776e657281525060200191505060405180910390fd5b734ea45a7723218e691f4aec6c844d2068fc1eadee73ffffffffffffffffffffffffffffffffffffffff16ff5b6000808211614a15576040517f08c379a00000000000000000000000000000000000000000000000000000000081526004018080602001828103825260088152602001807f646976207a65726f00000000000000000000000000000000000000000000000081525060200191505060405180910390fd5b6000828481614a2057fe5b0490508091505092915050565b600080831415614a405760009050614aca565b6000828402905082848281614a5157fe5b0414614ac5576040517f08c379a000000000000000000000000000000000000000000000000000000000815260040180806020018281038252600c8152602001807f6d756c206f766572666c6f77000000000000000000000000000000000000000081525060200191505060405180910390fd5b809150505b92915050565b6000600f60008573ffffffffffffffffffffffffffffffffffffffff1673ffffffffffffffffffffffffffffffffffffffff1681526020019081526020016000209050600b60008154809291906001019190505550600b548160000181905550838160010160006101000a81548173ffffffffffffffffffffffffffffffffffffffff021916908373ffffffffffffffffffffffffffffffffffffffff16021790555082816002019080519060200190614b8b929190615a3f565b5081816003019080519060200190614ba4929190615a3f565b50836010846040518082805190602001908083835b60208310614bdc5780518252602082019150602081019050602083039250614bb9565b6001836020036101000a038019825116818451168082178552505050505050905001915050908152602001604051809103902060006101000a81548173ffffffffffffffffffffffffffffffffffffffff021916908373ffffffffffffffffffffffffffffffffffffffff1602179055508360116000600b54815260200190815260200160002060006101000a81548173ffffffffffffffffffffffffffffffffffffffff021916908373ffffffffffffffffffffffffffffffffffffffff16021790555050505050565b6000806007541415905090565b600080828401905083811015614d32576040517f08c379a00000000000000000000000000000000000000000000000000000000081526004018080602001828103825260088152602001807f6f766572666c6f7700000000000000000000000000000000000000000000000081525060200191505060405180910390fd5b8091505092915050565b600460009054906101000a900473ffffffffffffffffffffffffffffffffffffffff1673ffffffffffffffffffffffffffffffffffffffff166108fc614d8c60198461499e90919063ffffffff16565b9081150290604051600060405180830381858888f19350505050158015614db7573d6000803e3d6000fd5b5050565b6000600e6000600c54815260200190815260200160002060008373ffffffffffffffffffffffffffffffffffffffff1673ffffffffffffffffffffffffffffffffffffffff1681526020019081526020016000209050600081600001541415614e24575061515b565b6000614e3382600801546148b5565b9050614e606103e8614e52838560030154614a2d90919063ffffffff16565b61499e90919063ffffffff16565b8260060181905550600082600b0181905550614e7a615946565b600f60008573ffffffffffffffffffffffffffffffffffffffff1673ffffffffffffffffffffffffffffffffffffffff1681526020019081526020016000206040518060a0016040529081600082015481526020016001820160009054906101000a900473ffffffffffffffffffffffffffffffffffffffff1673ffffffffffffffffffffffffffffffffffffffff1673ffffffffffffffffffffffffffffffffffffffff168152602001600282018054600181600116156101000203166002900480601f016020809104026020016040519081016040528092919081815260200182805460018160011615610100020316600290048015614fbd5780601f10614f9257610100808354040283529160200191614fbd565b820191906000526020600020905b815481529060010190602001808311614fa057829003601f168201915b50505050508152602001600382018054600181600116156101000203166002900480601f01602080910402602001604051908101604052809291908181526020018280546001816001161561010002031660029004801561505f5780601f106150345761010080835404028352916020019161505f565b820191906000526020600020905b81548152906001019060200180831161504257829003601f168201915b505050505081526020016004820154815250509050670de0b6b3a76400008360030154101580156150965750601354836003015411155b80156150a6575060008160800151145b156151575761515683600d018054600181600116156101000203166002900480601f0160208091040260200160405190810160405280929190818152602001828054600181600116156101000203166002900480156151465780601f1061511b57610100808354040283529160200191615146565b820191906000526020600020905b81548152906001019060200180831161512957829003601f168201915b50505050508460030154846154dd565b5b5050505b50565b61516882826153ff565b6151bd576040517f08c379a0000000000000000000000000000000000000000000000000000000008152600401808060200182810382526021815260200180615b5f6021913960400191505060405180910390fd5b60008260000160008373ffffffffffffffffffffffffffffffffffffffff1673ffffffffffffffffffffffffffffffffffffffff16815260200190815260200160002060006101000a81548160ff0219169083151502179055505050565b61522582826153ff565b15615298576040517f08c379a000000000000000000000000000000000000000000000000000000000815260040180806020018281038252601f8152602001807f526f6c65733a206163636f756e7420616c72656164792068617320726f6c650081525060200191505060405180910390fd5b60018260000160008373ffffffffffffffffffffffffffffffffffffffff1673ffffffffffffffffffffffffffffffffffffffff16815260200190815260200160002060006101000a81548160ff0219169083151502179055505050565b600033905090565b600082821115615376576040517f08c379a00000000000000000000000000000000000000000000000000000000081526004018080602001828103825260108152602001807f6c6f77657220737562206269676765720000000000000000000000000000000081525060200191505060405180910390fd5b600082840390508091505092915050565b60008047831061539d57600047915091506153a5565b600183915091505b915091565b60008111156153fb578173ffffffffffffffffffffffffffffffffffffffff166108fc829081150290604051600060405180830381858888f193505050501580156153f9573d6000803e3d6000fd5b505b5050565b60008073ffffffffffffffffffffffffffffffffffffffff168273ffffffffffffffffffffffffffffffffffffffff161415615486576040517f08c379a0000000000000000000000000000000000000000000000000000000008152600401808060200182810382526022815260200180615b806022913960400191505060405180910390fd5b8260000160008373ffffffffffffffffffffffffffffffffffffffff1673ffffffffffffffffffffffffffffffffffffffff16815260200190815260200160002060009054906101000a900460ff16905092915050565b60608390506000600190505b601981116158955761550a8260405180602001604052806000815250613625565b1561551457615895565b60006010836040518082805190602001908083835b6020831061554c5780518252602082019150602081019050602083039250615529565b6001836020036101000a038019825116818451168082178552505050505050905001915050908152602001604051809103902060009054906101000a900473ffffffffffffffffffffffffffffffffffffffff1690506000600f60008373ffffffffffffffffffffffffffffffffffffffff1673ffffffffffffffffffffffffffffffffffffffff16815260200190815260200160002090506000600e6000600c54815260200190815260200160002060008473ffffffffffffffffffffffffffffffffffffffff1673ffffffffffffffffffffffffffffffffffffffff1681526020019081526020016000209050600061566e826004015461566084600201548560030154614cb490919063ffffffff16565b614cb490919063ffffffff16565b141561571b57816003018054600181600116156101000203166002900480601f01602080910402602001604051908101604052809291908181526020018280546001816001161561010002031660029004801561570c5780601f106156e15761010080835404028352916020019161570c565b820191906000526020600020905b8154815290600101906020018083116156ef57829003601f168201915b50505050509450505050615888565b600061572860038661107f565b9050600080905067d02ab486cedc0000891161574657889050615752565b67d02ab486cedc000090505b600082146157e3576000615781836157738b85614a2d90919063ffffffff16565b614a2d90919063ffffffff16565b90506157ab606461579d6103e88461499e90919063ffffffff16565b61499e90919063ffffffff16565b90506157e18560010160009054906101000a900473ffffffffffffffffffffffffffffffffffffffff168286600e01548a6126a3565b505b836003018054600181600116156101000203166002900480601f01602080910402602001604051908101604052809291908181526020018280546001816001161561010002031660029004801561587b5780601f106158505761010080835404028352916020019161587b565b820191906000526020600020905b81548152906001019060200180831161585e57829003601f168201915b5050505050965050505050505b80806001019150506154e9565b5050505050565b828054600181600116156101000203166002900490600052602060002090601f016020900481019282601f106158d55780548555615912565b8280016001018555821561591257600052602060002091601f016020900482015b828111156159115782548255916001019190600101906158f6565b5b50905061591f9190615abf565b5090565b604051806101c00160405280600e90602082028038833980820191505090505090565b6040518060a0016040528060008152602001600073ffffffffffffffffffffffffffffffffffffffff1681526020016060815260200160608152602001600081525090565b60405180610200016040528060008152602001600073ffffffffffffffffffffffffffffffffffffffff16815260200160008152602001600081526020016000815260200160008152602001600081526020016000815260200160008152602001600081526020016000815260200160008152602001606081526020016060815260200160008152602001600081525090565b60405180606001604052806000815260200160008152602001600081525090565b828054600181600116156101000203166002900490600052602060002090601f016020900481019282601f10615a8057805160ff1916838001178555615aae565b82800160010185558215615aae579182015b82811115615aad578251825591602001919060010190615a92565b5b509050615abb9190615abf565b5090565b615ae191905b80821115615add576000816000905550600101615ac5565b5090565b9056fe636f6e74726163742062616c616e6365206d757374206265206c6f776572207468616e20312065746865724f776e61626c653a206e6577206f776e657220697320746865207a65726f20616464726573735065726d697373696f6e2064656e69656420666f722076696577207573657227732070726976616379526f6c65733a206163636f756e7420646f6573206e6f74206861766520726f6c65526f6c65733a206163636f756e7420697320746865207a65726f206164647265737357686974656c69737441646d696e526f6c653a2063616c6c657220646f6573206e6f742068617665207468652057686974656c69737441646d696e20726f6c65a265627a7a72315820ddc1fdc6024ef8830b6567e62bccecaef8a97d60c07c3d95981d305c3b42c7d464736f6c63430005110032",
					"opcodes": "PUSH1 0x80 PUSH1 0x40 MSTORE PUSH8 0xDE0B6B3A7640000 PUSH1 0x0 SSTORE PUSH8 0xDE0B6B3A7640000 PUSH1 0x3 SSTORE PUSH20 0x65136C92B506155DEAC445548FFDE309A9B373D PUSH1 0x4 PUSH1 0x0 PUSH2 0x100 EXP DUP2 SLOAD DUP2 PUSH20 0xFFFFFFFFFFFFFFFFFFFFFFFFFFFFFFFFFFFFFFFF MUL NOT AND SWAP1 DUP4 PUSH20 0xFFFFFFFFFFFFFFFFFFFFFFFFFFFFFFFFFFFFFFFF AND MUL OR SWAP1 SSTORE POP PUSH20 0x7D11EFAA59CB41F59B7B6F2A983A0EFADFA44116 PUSH1 0x5 PUSH1 0x0 PUSH2 0x100 EXP DUP2 SLOAD DUP2 PUSH20 0xFFFFFFFFFFFFFFFFFFFFFFFFFFFFFFFFFFFFFFFF MUL NOT AND SWAP1 DUP4 PUSH20 0xFFFFFFFFFFFFFFFFFFFFFFFFFFFFFFFFFFFFFFFF AND MUL OR SWAP1 SSTORE POP PUSH1 0x0 PUSH1 0x7 SSTORE PUSH3 0x15180 PUSH1 0xA SSTORE PUSH1 0x0 PUSH1 0xB SSTORE PUSH1 0x1 PUSH1 0xC SSTORE PUSH8 0xD02AB486CEDC0000 PUSH1 0x13 SSTORE PUSH9 0x56BC75E2D63100000 PUSH1 0x14 SSTORE PUSH8 0xD02AB486CEDC0000 PUSH1 0x15 SSTORE PUSH1 0x1 PUSH1 0x16 SSTORE PUSH1 0x1 PUSH1 0x17 SSTORE CALLVALUE DUP1 ISZERO PUSH3 0x118 JUMPI PUSH1 0x0 DUP1 REVERT JUMPDEST POP PUSH3 0x129 PUSH3 0x16F PUSH1 0x20 SHL PUSH1 0x20 SHR JUMP JUMPDEST PUSH1 0x1 PUSH1 0x0 PUSH2 0x100 EXP DUP2 SLOAD DUP2 PUSH20 0xFFFFFFFFFFFFFFFFFFFFFFFFFFFFFFFFFFFFFFFF MUL NOT AND SWAP1 DUP4 PUSH20 0xFFFFFFFFFFFFFFFFFFFFFFFFFFFFFFFFFFFFFFFF AND MUL OR SWAP1 SSTORE POP PUSH3 0x177 JUMP JUMPDEST PUSH1 0x0 CALLER SWAP1 POP SWAP1 JUMP JUMPDEST PUSH2 0x5C16 DUP1 PUSH3 0x187 PUSH1 0x0 CODECOPY PUSH1 0x0 RETURN INVALID PUSH1 0x80 PUSH1 0x40 MSTORE PUSH1 0x4 CALLDATASIZE LT PUSH2 0x1D8 JUMPI PUSH1 0x0 CALLDATALOAD PUSH1 0xE0 SHR DUP1 PUSH4 0x87C5D5CC GT PUSH2 0x102 JUMPI DUP1 PUSH4 0xBC6F504D GT PUSH2 0x95 JUMPI DUP1 PUSH4 0xF11C25BA GT PUSH2 0x64 JUMPI DUP1 PUSH4 0xF11C25BA EQ PUSH2 0xF29 JUMPI DUP1 PUSH4 0xF2FDE38B EQ PUSH2 0xF58 JUMPI DUP1 PUSH4 0xF7AD55D9 EQ PUSH2 0xFA9 JUMPI DUP1 PUSH4 0xF851A440 EQ PUSH2 0xFF8 JUMPI PUSH2 0x1D8 JUMP JUMPDEST DUP1 PUSH4 0xBC6F504D EQ PUSH2 0xD79 JUMPI DUP1 PUSH4 0xDB4ACB64 EQ PUSH2 0xDC8 JUMPI DUP1 PUSH4 0xE08F0797 EQ PUSH2 0xEC3 JUMPI DUP1 PUSH4 0xE0D7CB6F EQ PUSH2 0xF12 JUMPI PUSH2 0x1D8 JUMP JUMPDEST DUP1 PUSH4 0x9E64F867 GT PUSH2 0xD1 JUMPI DUP1 PUSH4 0x9E64F867 EQ PUSH2 0xB7E JUMPI DUP1 PUSH4 0xA1451224 EQ PUSH2 0xBB9 JUMPI DUP1 PUSH4 0xACEB9B6E EQ PUSH2 0xCC1 JUMPI DUP1 PUSH4 0xBB5F747B EQ PUSH2 0xD10 JUMPI PUSH2 0x1D8 JUMP JUMPDEST DUP1 PUSH4 0x87C5D5CC EQ PUSH2 0x902 JUMPI DUP1 PUSH4 0x8A03AD86 EQ PUSH2 0xA79 JUMPI DUP1 PUSH4 0x8F32D59B EQ PUSH2 0xAF4 JUMPI DUP1 PUSH4 0x9160EC55 EQ PUSH2 0xB23 JUMPI PUSH2 0x1D8 JUMP JUMPDEST DUP1 PUSH4 0x53501A9C GT PUSH2 0x17A JUMPI DUP1 PUSH4 0x749AA2D9 GT PUSH2 0x149 JUMPI DUP1 PUSH4 0x749AA2D9 EQ PUSH2 0x7DF JUMPI DUP1 PUSH4 0x75EEADCD EQ PUSH2 0x7F6 JUMPI DUP1 PUSH4 0x83F6F9DF EQ PUSH2 0x83B JUMPI DUP1 PUSH4 0x86481D40 EQ PUSH2 0x8B3 JUMPI PUSH2 0x1D8 JUMP JUMPDEST DUP1 PUSH4 0x53501A9C EQ PUSH2 0x622 JUMPI DUP1 PUSH4 0x578D714B EQ PUSH2 0x65D JUMPI DUP1 PUSH4 0x6897E974 EQ PUSH2 0x73D JUMPI DUP1 PUSH4 0x7362D9C8 EQ PUSH2 0x78E JUMPI PUSH2 0x1D8 JUMP JUMPDEST DUP1 PUSH4 0x423E3071 GT PUSH2 0x1B6 JUMPI DUP1 PUSH4 0x423E3071 EQ PUSH2 0x3D4 JUMPI DUP1 PUSH4 0x47118798 EQ PUSH2 0x3EB JUMPI DUP1 PUSH4 0x48FFF692 EQ PUSH2 0x55A JUMPI DUP1 PUSH4 0x4BD59A66 EQ PUSH2 0x5B3 JUMPI PUSH2 0x1D8 JUMP JUMPDEST DUP1 PUSH4 0x1CEAE42F EQ PUSH2 0x1DA JUMPI DUP1 PUSH4 0x26EEBF41 EQ PUSH2 0x229 JUMPI DUP1 PUSH4 0x3746332B EQ PUSH2 0x282 JUMPI JUMPDEST STOP JUMPDEST CALLVALUE DUP1 ISZERO PUSH2 0x1E6 JUMPI PUSH1 0x0 DUP1 REVERT JUMPDEST POP PUSH2 0x213 PUSH1 0x4 DUP1 CALLDATASIZE SUB PUSH1 0x20 DUP2 LT ISZERO PUSH2 0x1FD JUMPI PUSH1 0x0 DUP1 REVERT JUMPDEST DUP2 ADD SWAP1 DUP1 DUP1 CALLDATALOAD SWAP1 PUSH1 0x20 ADD SWAP1 SWAP3 SWAP2 SWAP1 POP POP POP PUSH2 0x100F JUMP JUMPDEST PUSH1 0x40 MLOAD DUP1 DUP3 DUP2 MSTORE PUSH1 0x20 ADD SWAP2 POP POP PUSH1 0x40 MLOAD DUP1 SWAP2 SUB SWAP1 RETURN JUMPDEST CALLVALUE DUP1 ISZERO PUSH2 0x235 JUMPI PUSH1 0x0 DUP1 REVERT JUMPDEST POP PUSH2 0x26C PUSH1 0x4 DUP1 CALLDATASIZE SUB PUSH1 0x40 DUP2 LT ISZERO PUSH2 0x24C JUMPI PUSH1 0x0 DUP1 REVERT JUMPDEST DUP2 ADD SWAP1 DUP1 DUP1 CALLDATALOAD SWAP1 PUSH1 0x20 ADD SWAP1 SWAP3 SWAP2 SWAP1 DUP1 CALLDATALOAD SWAP1 PUSH1 0x20 ADD SWAP1 SWAP3 SWAP2 SWAP1 POP POP POP PUSH2 0x107F JUMP JUMPDEST PUSH1 0x40 MLOAD DUP1 DUP3 DUP2 MSTORE PUSH1 0x20 ADD SWAP2 POP POP PUSH1 0x40 MLOAD DUP1 SWAP2 SUB SWAP1 RETURN JUMPDEST PUSH2 0x3D2 PUSH1 0x4 DUP1 CALLDATASIZE SUB PUSH1 0x40 DUP2 LT ISZERO PUSH2 0x298 JUMPI PUSH1 0x0 DUP1 REVERT JUMPDEST DUP2 ADD SWAP1 DUP1 DUP1 CALLDATALOAD SWAP1 PUSH1 0x20 ADD SWAP1 PUSH5 0x100000000 DUP2 GT ISZERO PUSH2 0x2B5 JUMPI PUSH1 0x0 DUP1 REVERT JUMPDEST DUP3 ADD DUP4 PUSH1 0x20 DUP3 ADD GT ISZERO PUSH2 0x2C7 JUMPI PUSH1 0x0 DUP1 REVERT JUMPDEST DUP1 CALLDATALOAD SWAP1 PUSH1 0x20 ADD SWAP2 DUP5 PUSH1 0x1 DUP4 MUL DUP5 ADD GT PUSH5 0x100000000 DUP4 GT OR ISZERO PUSH2 0x2E9 JUMPI PUSH1 0x0 DUP1 REVERT JUMPDEST SWAP2 SWAP1 DUP1 DUP1 PUSH1 0x1F ADD PUSH1 0x20 DUP1 SWAP2 DIV MUL PUSH1 0x20 ADD PUSH1 0x40 MLOAD SWAP1 DUP2 ADD PUSH1 0x40 MSTORE DUP1 SWAP4 SWAP3 SWAP2 SWAP1 DUP2 DUP2 MSTORE PUSH1 0x20 ADD DUP4 DUP4 DUP1 DUP3 DUP5 CALLDATACOPY PUSH1 0x0 DUP2 DUP5 ADD MSTORE PUSH1 0x1F NOT PUSH1 0x1F DUP3 ADD AND SWAP1 POP DUP1 DUP4 ADD SWAP3 POP POP POP POP POP POP POP SWAP2 SWAP3 SWAP2 SWAP3 SWAP1 DUP1 CALLDATALOAD SWAP1 PUSH1 0x20 ADD SWAP1 PUSH5 0x100000000 DUP2 GT ISZERO PUSH2 0x34C JUMPI PUSH1 0x0 DUP1 REVERT JUMPDEST DUP3 ADD DUP4 PUSH1 0x20 DUP3 ADD GT ISZERO PUSH2 0x35E JUMPI PUSH1 0x0 DUP1 REVERT JUMPDEST DUP1 CALLDATALOAD SWAP1 PUSH1 0x20 ADD SWAP2 DUP5 PUSH1 0x1 DUP4 MUL DUP5 ADD GT PUSH5 0x100000000 DUP4 GT OR ISZERO PUSH2 0x380 JUMPI PUSH1 0x0 DUP1 REVERT JUMPDEST SWAP2 SWAP1 DUP1 DUP1 PUSH1 0x1F ADD PUSH1 0x20 DUP1 SWAP2 DIV MUL PUSH1 0x20 ADD PUSH1 0x40 MLOAD SWAP1 DUP2 ADD PUSH1 0x40 MSTORE DUP1 SWAP4 SWAP3 SWAP2 SWAP1 DUP2 DUP2 MSTORE PUSH1 0x20 ADD DUP4 DUP4 DUP1 DUP3 DUP5 CALLDATACOPY PUSH1 0x0 DUP2 DUP5 ADD MSTORE PUSH1 0x1F NOT PUSH1 0x1F DUP3 ADD AND SWAP1 POP DUP1 DUP4 ADD SWAP3 POP POP POP POP POP POP POP SWAP2 SWAP3 SWAP2 SWAP3 SWAP1 POP POP POP PUSH2 0x1177 JUMP JUMPDEST STOP JUMPDEST CALLVALUE DUP1 ISZERO PUSH2 0x3E0 JUMPI PUSH1 0x0 DUP1 REVERT JUMPDEST POP PUSH2 0x3E9 PUSH2 0x1AF1 JUMP JUMPDEST STOP JUMPDEST CALLVALUE DUP1 ISZERO PUSH2 0x3F7 JUMPI PUSH1 0x0 DUP1 REVERT JUMPDEST POP PUSH2 0x444 PUSH1 0x4 DUP1 CALLDATASIZE SUB PUSH1 0x40 DUP2 LT ISZERO PUSH2 0x40E JUMPI PUSH1 0x0 DUP1 REVERT JUMPDEST DUP2 ADD SWAP1 DUP1 DUP1 CALLDATALOAD PUSH20 0xFFFFFFFFFFFFFFFFFFFFFFFFFFFFFFFFFFFFFFFF AND SWAP1 PUSH1 0x20 ADD SWAP1 SWAP3 SWAP2 SWAP1 DUP1 CALLDATALOAD SWAP1 PUSH1 0x20 ADD SWAP1 SWAP3 SWAP2 SWAP1 POP POP POP PUSH2 0x1B75 JUMP JUMPDEST PUSH1 0x40 MLOAD DUP1 DUP5 PUSH1 0xE PUSH1 0x20 MUL DUP1 DUP4 DUP4 PUSH1 0x0 JUMPDEST DUP4 DUP2 LT ISZERO PUSH2 0x46F JUMPI DUP1 DUP3 ADD MLOAD DUP2 DUP5 ADD MSTORE PUSH1 0x20 DUP2 ADD SWAP1 POP PUSH2 0x454 JUMP JUMPDEST POP POP POP POP SWAP1 POP ADD DUP1 PUSH1 0x20 ADD DUP1 PUSH1 0x20 ADD DUP4 DUP2 SUB DUP4 MSTORE DUP6 DUP2 DUP2 MLOAD DUP2 MSTORE PUSH1 0x20 ADD SWAP2 POP DUP1 MLOAD SWAP1 PUSH1 0x20 ADD SWAP1 DUP1 DUP4 DUP4 PUSH1 0x0 JUMPDEST DUP4 DUP2 LT ISZERO PUSH2 0x4B6 JUMPI DUP1 DUP3 ADD MLOAD DUP2 DUP5 ADD MSTORE PUSH1 0x20 DUP2 ADD SWAP1 POP PUSH2 0x49B JUMP JUMPDEST POP POP POP POP SWAP1 POP SWAP1 DUP2 ADD SWAP1 PUSH1 0x1F AND DUP1 ISZERO PUSH2 0x4E3 JUMPI DUP1 DUP3 SUB DUP1 MLOAD PUSH1 0x1 DUP4 PUSH1 0x20 SUB PUSH2 0x100 EXP SUB NOT AND DUP2 MSTORE PUSH1 0x20 ADD SWAP2 POP JUMPDEST POP DUP4 DUP2 SUB DUP3 MSTORE DUP5 DUP2 DUP2 MLOAD DUP2 MSTORE PUSH1 0x20 ADD SWAP2 POP DUP1 MLOAD SWAP1 PUSH1 0x20 ADD SWAP1 DUP1 DUP4 DUP4 PUSH1 0x0 JUMPDEST DUP4 DUP2 LT ISZERO PUSH2 0x51C JUMPI DUP1 DUP3 ADD MLOAD DUP2 DUP5 ADD MSTORE PUSH1 0x20 DUP2 ADD SWAP1 POP PUSH2 0x501 JUMP JUMPDEST POP POP POP POP SWAP1 POP SWAP1 DUP2 ADD SWAP1 PUSH1 0x1F AND DUP1 ISZERO PUSH2 0x549 JUMPI DUP1 DUP3 SUB DUP1 MLOAD PUSH1 0x1 DUP4 PUSH1 0x20 SUB PUSH2 0x100 EXP SUB NOT AND DUP2 MSTORE PUSH1 0x20 ADD SWAP2 POP JUMPDEST POP SWAP6 POP POP POP POP POP POP PUSH1 0x40 MLOAD DUP1 SWAP2 SUB SWAP1 RETURN JUMPDEST CALLVALUE DUP1 ISZERO PUSH2 0x566 JUMPI PUSH1 0x0 DUP1 REVERT JUMPDEST POP PUSH2 0x59D PUSH1 0x4 DUP1 CALLDATASIZE SUB PUSH1 0x40 DUP2 LT ISZERO PUSH2 0x57D JUMPI PUSH1 0x0 DUP1 REVERT JUMPDEST DUP2 ADD SWAP1 DUP1 DUP1 CALLDATALOAD SWAP1 PUSH1 0x20 ADD SWAP1 SWAP3 SWAP2 SWAP1 DUP1 CALLDATALOAD SWAP1 PUSH1 0x20 ADD SWAP1 SWAP3 SWAP2 SWAP1 POP POP POP PUSH2 0x25E4 JUMP JUMPDEST PUSH1 0x40 MLOAD DUP1 DUP3 DUP2 MSTORE PUSH1 0x20 ADD SWAP2 POP POP PUSH1 0x40 MLOAD DUP1 SWAP2 SUB SWAP1 RETURN JUMPDEST CALLVALUE DUP1 ISZERO PUSH2 0x5BF JUMPI PUSH1 0x0 DUP1 REVERT JUMPDEST POP PUSH2 0x620 PUSH1 0x4 DUP1 CALLDATASIZE SUB PUSH1 0x80 DUP2 LT ISZERO PUSH2 0x5D6 JUMPI PUSH1 0x0 DUP1 REVERT JUMPDEST DUP2 ADD SWAP1 DUP1 DUP1 CALLDATALOAD PUSH20 0xFFFFFFFFFFFFFFFFFFFFFFFFFFFFFFFFFFFFFFFF AND SWAP1 PUSH1 0x20 ADD SWAP1 SWAP3 SWAP2 SWAP1 DUP1 CALLDATALOAD SWAP1 PUSH1 0x20 ADD SWAP1 SWAP3 SWAP2 SWAP1 DUP1 CALLDATALOAD SWAP1 PUSH1 0x20 ADD SWAP1 SWAP3 SWAP2 SWAP1 DUP1 CALLDATALOAD SWAP1 PUSH1 0x20 ADD SWAP1 SWAP3 SWAP2 SWAP1 POP POP POP PUSH2 0x26A3 JUMP JUMPDEST STOP JUMPDEST CALLVALUE DUP1 ISZERO PUSH2 0x62E JUMPI PUSH1 0x0 DUP1 REVERT JUMPDEST POP PUSH2 0x65B PUSH1 0x4 DUP1 CALLDATASIZE SUB PUSH1 0x20 DUP2 LT ISZERO PUSH2 0x645 JUMPI PUSH1 0x0 DUP1 REVERT JUMPDEST DUP2 ADD SWAP1 DUP1 DUP1 CALLDATALOAD SWAP1 PUSH1 0x20 ADD SWAP1 SWAP3 SWAP2 SWAP1 POP POP POP PUSH2 0x278A JUMP JUMPDEST STOP JUMPDEST CALLVALUE DUP1 ISZERO PUSH2 0x669 JUMPI PUSH1 0x0 DUP1 REVERT JUMPDEST POP PUSH2 0x723 PUSH1 0x4 DUP1 CALLDATASIZE SUB PUSH1 0x20 DUP2 LT ISZERO PUSH2 0x680 JUMPI PUSH1 0x0 DUP1 REVERT JUMPDEST DUP2 ADD SWAP1 DUP1 DUP1 CALLDATALOAD SWAP1 PUSH1 0x20 ADD SWAP1 PUSH5 0x100000000 DUP2 GT ISZERO PUSH2 0x69D JUMPI PUSH1 0x0 DUP1 REVERT JUMPDEST DUP3 ADD DUP4 PUSH1 0x20 DUP3 ADD GT ISZERO PUSH2 0x6AF JUMPI PUSH1 0x0 DUP1 REVERT JUMPDEST DUP1 CALLDATALOAD SWAP1 PUSH1 0x20 ADD SWAP2 DUP5 PUSH1 0x1 DUP4 MUL DUP5 ADD GT PUSH5 0x100000000 DUP4 GT OR ISZERO PUSH2 0x6D1 JUMPI PUSH1 0x0 DUP1 REVERT JUMPDEST SWAP2 SWAP1 DUP1 DUP1 PUSH1 0x1F ADD PUSH1 0x20 DUP1 SWAP2 DIV MUL PUSH1 0x20 ADD PUSH1 0x40 MLOAD SWAP1 DUP2 ADD PUSH1 0x40 MSTORE DUP1 SWAP4 SWAP3 SWAP2 SWAP1 DUP2 DUP2 MSTORE PUSH1 0x20 ADD DUP4 DUP4 DUP1 DUP3 DUP5 CALLDATACOPY PUSH1 0x0 DUP2 DUP5 ADD MSTORE PUSH1 0x1F NOT PUSH1 0x1F DUP3 ADD AND SWAP1 POP DUP1 DUP4 ADD SWAP3 POP POP POP POP POP POP POP SWAP2 SWAP3 SWAP2 SWAP3 SWAP1 POP POP POP PUSH2 0x2903 JUMP JUMPDEST PUSH1 0x40 MLOAD DUP1 DUP3 ISZERO ISZERO ISZERO ISZERO DUP2 MSTORE PUSH1 0x20 ADD SWAP2 POP POP PUSH1 0x40 MLOAD DUP1 SWAP2 SUB SWAP1 RETURN JUMPDEST CALLVALUE DUP1 ISZERO PUSH2 0x749 JUMPI PUSH1 0x0 DUP1 REVERT JUMPDEST POP PUSH2 0x78C PUSH1 0x4 DUP1 CALLDATASIZE SUB PUSH1 0x20 DUP2 LT ISZERO PUSH2 0x760 JUMPI PUSH1 0x0 DUP1 REVERT JUMPDEST DUP2 ADD SWAP1 DUP1 DUP1 CALLDATALOAD PUSH20 0xFFFFFFFFFFFFFFFFFFFFFFFFFFFFFFFFFFFFFFFF AND SWAP1 PUSH1 0x20 ADD SWAP1 SWAP3 SWAP2 SWAP1 POP POP POP PUSH2 0x29B5 JUMP JUMPDEST STOP JUMPDEST CALLVALUE DUP1 ISZERO PUSH2 0x79A JUMPI PUSH1 0x0 DUP1 REVERT JUMPDEST POP PUSH2 0x7DD PUSH1 0x4 DUP1 CALLDATASIZE SUB PUSH1 0x20 DUP2 LT ISZERO PUSH2 0x7B1 JUMPI PUSH1 0x0 DUP1 REVERT JUMPDEST DUP2 ADD SWAP1 DUP1 DUP1 CALLDATALOAD PUSH20 0xFFFFFFFFFFFFFFFFFFFFFFFFFFFFFFFFFFFFFFFF AND SWAP1 PUSH1 0x20 ADD SWAP1 SWAP3 SWAP2 SWAP1 POP POP POP PUSH2 0x2A46 JUMP JUMPDEST STOP JUMPDEST CALLVALUE DUP1 ISZERO PUSH2 0x7EB JUMPI PUSH1 0x0 DUP1 REVERT JUMPDEST POP PUSH2 0x7F4 PUSH2 0x2AD7 JUMP JUMPDEST STOP JUMPDEST CALLVALUE DUP1 ISZERO PUSH2 0x802 JUMPI PUSH1 0x0 DUP1 REVERT JUMPDEST POP PUSH2 0x839 PUSH1 0x4 DUP1 CALLDATASIZE SUB PUSH1 0x40 DUP2 LT ISZERO PUSH2 0x819 JUMPI PUSH1 0x0 DUP1 REVERT JUMPDEST DUP2 ADD SWAP1 DUP1 DUP1 CALLDATALOAD SWAP1 PUSH1 0x20 ADD SWAP1 SWAP3 SWAP2 SWAP1 DUP1 CALLDATALOAD SWAP1 PUSH1 0x20 ADD SWAP1 SWAP3 SWAP2 SWAP1 POP POP POP PUSH2 0x2C12 JUMP JUMPDEST STOP JUMPDEST CALLVALUE DUP1 ISZERO PUSH2 0x847 JUMPI PUSH1 0x0 DUP1 REVERT JUMPDEST POP PUSH2 0x850 PUSH2 0x350A JUMP JUMPDEST PUSH1 0x40 MLOAD DUP1 DUP14 DUP2 MSTORE PUSH1 0x20 ADD DUP13 DUP2 MSTORE PUSH1 0x20 ADD DUP12 DUP2 MSTORE PUSH1 0x20 ADD DUP11 DUP2 MSTORE PUSH1 0x20 ADD DUP10 DUP2 MSTORE PUSH1 0x20 ADD DUP9 DUP2 MSTORE PUSH1 0x20 ADD DUP8 DUP2 MSTORE PUSH1 0x20 ADD DUP7 DUP2 MSTORE PUSH1 0x20 ADD DUP6 DUP2 MSTORE PUSH1 0x20 ADD DUP5 DUP2 MSTORE PUSH1 0x20 ADD DUP4 DUP2 MSTORE PUSH1 0x20 ADD DUP3 DUP2 MSTORE PUSH1 0x20 ADD SWAP13 POP POP POP POP POP POP POP POP POP POP POP POP POP PUSH1 0x40 MLOAD DUP1 SWAP2 SUB SWAP1 RETURN JUMPDEST CALLVALUE DUP1 ISZERO PUSH2 0x8BF JUMPI PUSH1 0x0 DUP1 REVERT JUMPDEST POP PUSH2 0x8EC PUSH1 0x4 DUP1 CALLDATASIZE SUB PUSH1 0x20 DUP2 LT ISZERO PUSH2 0x8D6 JUMPI PUSH1 0x0 DUP1 REVERT JUMPDEST DUP2 ADD SWAP1 DUP1 DUP1 CALLDATALOAD SWAP1 PUSH1 0x20 ADD SWAP1 SWAP3 SWAP2 SWAP1 POP POP POP PUSH2 0x35A2 JUMP JUMPDEST PUSH1 0x40 MLOAD DUP1 DUP3 DUP2 MSTORE PUSH1 0x20 ADD SWAP2 POP POP PUSH1 0x40 MLOAD DUP1 SWAP2 SUB SWAP1 RETURN JUMPDEST CALLVALUE DUP1 ISZERO PUSH2 0x90E JUMPI PUSH1 0x0 DUP1 REVERT JUMPDEST POP PUSH2 0xA5F PUSH1 0x4 DUP1 CALLDATASIZE SUB PUSH1 0x40 DUP2 LT ISZERO PUSH2 0x925 JUMPI PUSH1 0x0 DUP1 REVERT JUMPDEST DUP2 ADD SWAP1 DUP1 DUP1 CALLDATALOAD SWAP1 PUSH1 0x20 ADD SWAP1 PUSH5 0x100000000 DUP2 GT ISZERO PUSH2 0x942 JUMPI PUSH1 0x0 DUP1 REVERT JUMPDEST DUP3 ADD DUP4 PUSH1 0x20 DUP3 ADD GT ISZERO PUSH2 0x954 JUMPI PUSH1 0x0 DUP1 REVERT JUMPDEST DUP1 CALLDATALOAD SWAP1 PUSH1 0x20 ADD SWAP2 DUP5 PUSH1 0x1 DUP4 MUL DUP5 ADD GT PUSH5 0x100000000 DUP4 GT OR ISZERO PUSH2 0x976 JUMPI PUSH1 0x0 DUP1 REVERT JUMPDEST SWAP2 SWAP1 DUP1 DUP1 PUSH1 0x1F ADD PUSH1 0x20 DUP1 SWAP2 DIV MUL PUSH1 0x20 ADD PUSH1 0x40 MLOAD SWAP1 DUP2 ADD PUSH1 0x40 MSTORE DUP1 SWAP4 SWAP3 SWAP2 SWAP1 DUP2 DUP2 MSTORE PUSH1 0x20 ADD DUP4 DUP4 DUP1 DUP3 DUP5 CALLDATACOPY PUSH1 0x0 DUP2 DUP5 ADD MSTORE PUSH1 0x1F NOT PUSH1 0x1F DUP3 ADD AND SWAP1 POP DUP1 DUP4 ADD SWAP3 POP POP POP POP POP POP POP SWAP2 SWAP3 SWAP2 SWAP3 SWAP1 DUP1 CALLDATALOAD SWAP1 PUSH1 0x20 ADD SWAP1 PUSH5 0x100000000 DUP2 GT ISZERO PUSH2 0x9D9 JUMPI PUSH1 0x0 DUP1 REVERT JUMPDEST DUP3 ADD DUP4 PUSH1 0x20 DUP3 ADD GT ISZERO PUSH2 0x9EB JUMPI PUSH1 0x0 DUP1 REVERT JUMPDEST DUP1 CALLDATALOAD SWAP1 PUSH1 0x20 ADD SWAP2 DUP5 PUSH1 0x1 DUP4 MUL DUP5 ADD GT PUSH5 0x100000000 DUP4 GT OR ISZERO PUSH2 0xA0D JUMPI PUSH1 0x0 DUP1 REVERT JUMPDEST SWAP2 SWAP1 DUP1 DUP1 PUSH1 0x1F ADD PUSH1 0x20 DUP1 SWAP2 DIV MUL PUSH1 0x20 ADD PUSH1 0x40 MLOAD SWAP1 DUP2 ADD PUSH1 0x40 MSTORE DUP1 SWAP4 SWAP3 SWAP2 SWAP1 DUP2 DUP2 MSTORE PUSH1 0x20 ADD DUP4 DUP4 DUP1 DUP3 DUP5 CALLDATACOPY PUSH1 0x0 DUP2 DUP5 ADD MSTORE PUSH1 0x1F NOT PUSH1 0x1F DUP3 ADD AND SWAP1 POP DUP1 DUP4 ADD SWAP3 POP POP POP POP POP POP POP SWAP2 SWAP3 SWAP2 SWAP3 SWAP1 POP POP POP PUSH2 0x3625 JUMP JUMPDEST PUSH1 0x40 MLOAD DUP1 DUP3 ISZERO ISZERO ISZERO ISZERO DUP2 MSTORE PUSH1 0x20 ADD SWAP2 POP POP PUSH1 0x40 MLOAD DUP1 SWAP2 SUB SWAP1 RETURN JUMPDEST CALLVALUE DUP1 ISZERO PUSH2 0xA85 JUMPI PUSH1 0x0 DUP1 REVERT JUMPDEST POP PUSH2 0xAB2 PUSH1 0x4 DUP1 CALLDATASIZE SUB PUSH1 0x20 DUP2 LT ISZERO PUSH2 0xA9C JUMPI PUSH1 0x0 DUP1 REVERT JUMPDEST DUP2 ADD SWAP1 DUP1 DUP1 CALLDATALOAD SWAP1 PUSH1 0x20 ADD SWAP1 SWAP3 SWAP2 SWAP1 POP POP POP PUSH2 0x3725 JUMP JUMPDEST PUSH1 0x40 MLOAD DUP1 DUP3 PUSH20 0xFFFFFFFFFFFFFFFFFFFFFFFFFFFFFFFFFFFFFFFF AND PUSH20 0xFFFFFFFFFFFFFFFFFFFFFFFFFFFFFFFFFFFFFFFF AND DUP2 MSTORE PUSH1 0x20 ADD SWAP2 POP POP PUSH1 0x40 MLOAD DUP1 SWAP2 SUB SWAP1 RETURN JUMPDEST CALLVALUE DUP1 ISZERO PUSH2 0xB00 JUMPI PUSH1 0x0 DUP1 REVERT JUMPDEST POP PUSH2 0xB09 PUSH2 0x37DD JUMP JUMPDEST PUSH1 0x40 MLOAD DUP1 DUP3 ISZERO ISZERO ISZERO ISZERO DUP2 MSTORE PUSH1 0x20 ADD SWAP2 POP POP PUSH1 0x40 MLOAD DUP1 SWAP2 SUB SWAP1 RETURN JUMPDEST CALLVALUE DUP1 ISZERO PUSH2 0xB2F JUMPI PUSH1 0x0 DUP1 REVERT JUMPDEST POP PUSH2 0xB7C PUSH1 0x4 DUP1 CALLDATASIZE SUB PUSH1 0x40 DUP2 LT ISZERO PUSH2 0xB46 JUMPI PUSH1 0x0 DUP1 REVERT JUMPDEST DUP2 ADD SWAP1 DUP1 DUP1 CALLDATALOAD PUSH20 0xFFFFFFFFFFFFFFFFFFFFFFFFFFFFFFFFFFFFFFFF AND SWAP1 PUSH1 0x20 ADD SWAP1 SWAP3 SWAP2 SWAP1 DUP1 CALLDATALOAD SWAP1 PUSH1 0x20 ADD SWAP1 SWAP3 SWAP2 SWAP1 POP POP POP PUSH2 0x383C JUMP JUMPDEST STOP JUMPDEST CALLVALUE DUP1 ISZERO PUSH2 0xB8A JUMPI PUSH1 0x0 DUP1 REVERT JUMPDEST POP PUSH2 0xBB7 PUSH1 0x4 DUP1 CALLDATASIZE SUB PUSH1 0x20 DUP2 LT ISZERO PUSH2 0xBA1 JUMPI PUSH1 0x0 DUP1 REVERT JUMPDEST DUP2 ADD SWAP1 DUP1 DUP1 CALLDATALOAD SWAP1 PUSH1 0x20 ADD SWAP1 SWAP3 SWAP2 SWAP1 POP POP POP PUSH2 0x398D JUMP JUMPDEST STOP JUMPDEST CALLVALUE DUP1 ISZERO PUSH2 0xBC5 JUMPI PUSH1 0x0 DUP1 REVERT JUMPDEST POP PUSH2 0xC7F PUSH1 0x4 DUP1 CALLDATASIZE SUB PUSH1 0x20 DUP2 LT ISZERO PUSH2 0xBDC JUMPI PUSH1 0x0 DUP1 REVERT JUMPDEST DUP2 ADD SWAP1 DUP1 DUP1 CALLDATALOAD SWAP1 PUSH1 0x20 ADD SWAP1 PUSH5 0x100000000 DUP2 GT ISZERO PUSH2 0xBF9 JUMPI PUSH1 0x0 DUP1 REVERT JUMPDEST DUP3 ADD DUP4 PUSH1 0x20 DUP3 ADD GT ISZERO PUSH2 0xC0B JUMPI PUSH1 0x0 DUP1 REVERT JUMPDEST DUP1 CALLDATALOAD SWAP1 PUSH1 0x20 ADD SWAP2 DUP5 PUSH1 0x1 DUP4 MUL DUP5 ADD GT PUSH5 0x100000000 DUP4 GT OR ISZERO PUSH2 0xC2D JUMPI PUSH1 0x0 DUP1 REVERT JUMPDEST SWAP2 SWAP1 DUP1 DUP1 PUSH1 0x1F ADD PUSH1 0x20 DUP1 SWAP2 DIV MUL PUSH1 0x20 ADD PUSH1 0x40 MLOAD SWAP1 DUP2 ADD PUSH1 0x40 MSTORE DUP1 SWAP4 SWAP3 SWAP2 SWAP1 DUP2 DUP2 MSTORE PUSH1 0x20 ADD DUP4 DUP4 DUP1 DUP3 DUP5 CALLDATACOPY PUSH1 0x0 DUP2 DUP5 ADD MSTORE PUSH1 0x1F NOT PUSH1 0x1F DUP3 ADD AND SWAP1 POP DUP1 DUP4 ADD SWAP3 POP POP POP POP POP POP POP SWAP2 SWAP3 SWAP2 SWAP3 SWAP1 POP POP POP PUSH2 0x3A0B JUMP JUMPDEST PUSH1 0x40 MLOAD DUP1 DUP3 PUSH20 0xFFFFFFFFFFFFFFFFFFFFFFFFFFFFFFFFFFFFFFFF AND PUSH20 0xFFFFFFFFFFFFFFFFFFFFFFFFFFFFFFFFFFFFFFFF AND DUP2 MSTORE PUSH1 0x20 ADD SWAP2 POP POP PUSH1 0x40 MLOAD DUP1 SWAP2 SUB SWAP1 RETURN JUMPDEST CALLVALUE DUP1 ISZERO PUSH2 0xCCD JUMPI PUSH1 0x0 DUP1 REVERT JUMPDEST POP PUSH2 0xD0E PUSH1 0x4 DUP1 CALLDATASIZE SUB PUSH1 0x60 DUP2 LT ISZERO PUSH2 0xCE4 JUMPI PUSH1 0x0 DUP1 REVERT JUMPDEST DUP2 ADD SWAP1 DUP1 DUP1 CALLDATALOAD SWAP1 PUSH1 0x20 ADD SWAP1 SWAP3 SWAP2 SWAP1 DUP1 CALLDATALOAD SWAP1 PUSH1 0x20 ADD SWAP1 SWAP3 SWAP2 SWAP1 DUP1 CALLDATALOAD SWAP1 PUSH1 0x20 ADD SWAP1 SWAP3 SWAP2 SWAP1 POP POP POP PUSH2 0x3B19 JUMP JUMPDEST STOP JUMPDEST CALLVALUE DUP1 ISZERO PUSH2 0xD1C JUMPI PUSH1 0x0 DUP1 REVERT JUMPDEST POP PUSH2 0xD5F PUSH1 0x4 DUP1 CALLDATASIZE SUB PUSH1 0x20 DUP2 LT ISZERO PUSH2 0xD33 JUMPI PUSH1 0x0 DUP1 REVERT JUMPDEST DUP2 ADD SWAP1 DUP1 DUP1 CALLDATALOAD PUSH20 0xFFFFFFFFFFFFFFFFFFFFFFFFFFFFFFFFFFFFFFFF AND SWAP1 PUSH1 0x20 ADD SWAP1 SWAP3 SWAP2 SWAP1 POP POP POP PUSH2 0x3D26 JUMP JUMPDEST PUSH1 0x40 MLOAD DUP1 DUP3 ISZERO ISZERO ISZERO ISZERO DUP2 MSTORE PUSH1 0x20 ADD SWAP2 POP POP PUSH1 0x40 MLOAD DUP1 SWAP2 SUB SWAP1 RETURN JUMPDEST CALLVALUE DUP1 ISZERO PUSH2 0xD85 JUMPI PUSH1 0x0 DUP1 REVERT JUMPDEST POP PUSH2 0xDC6 PUSH1 0x4 DUP1 CALLDATASIZE SUB PUSH1 0x60 DUP2 LT ISZERO PUSH2 0xD9C JUMPI PUSH1 0x0 DUP1 REVERT JUMPDEST DUP2 ADD SWAP1 DUP1 DUP1 CALLDATALOAD SWAP1 PUSH1 0x20 ADD SWAP1 SWAP3 SWAP2 SWAP1 DUP1 CALLDATALOAD SWAP1 PUSH1 0x20 ADD SWAP1 SWAP3 SWAP2 SWAP1 DUP1 CALLDATALOAD SWAP1 PUSH1 0x20 ADD SWAP1 SWAP3 SWAP2 SWAP1 POP POP POP PUSH2 0x3D52 JUMP JUMPDEST STOP JUMPDEST CALLVALUE DUP1 ISZERO PUSH2 0xDD4 JUMPI PUSH1 0x0 DUP1 REVERT JUMPDEST POP PUSH2 0xEC1 PUSH1 0x4 DUP1 CALLDATASIZE SUB PUSH1 0x60 DUP2 LT ISZERO PUSH2 0xDEB JUMPI PUSH1 0x0 DUP1 REVERT JUMPDEST DUP2 ADD SWAP1 DUP1 DUP1 CALLDATALOAD PUSH20 0xFFFFFFFFFFFFFFFFFFFFFFFFFFFFFFFFFFFFFFFF AND SWAP1 PUSH1 0x20 ADD SWAP1 SWAP3 SWAP2 SWAP1 DUP1 CALLDATALOAD SWAP1 PUSH1 0x20 ADD SWAP1 PUSH5 0x100000000 DUP2 GT ISZERO PUSH2 0xE28 JUMPI PUSH1 0x0 DUP1 REVERT JUMPDEST DUP3 ADD DUP4 PUSH1 0x20 DUP3 ADD GT ISZERO PUSH2 0xE3A JUMPI PUSH1 0x0 DUP1 REVERT JUMPDEST DUP1 CALLDATALOAD SWAP1 PUSH1 0x20 ADD SWAP2 DUP5 PUSH1 0x1 DUP4 MUL DUP5 ADD GT PUSH5 0x100000000 DUP4 GT OR ISZERO PUSH2 0xE5C JUMPI PUSH1 0x0 DUP1 REVERT JUMPDEST SWAP1 SWAP2 SWAP3 SWAP4 SWAP2 SWAP3 SWAP4 SWAP1 DUP1 CALLDATALOAD SWAP1 PUSH1 0x20 ADD SWAP1 PUSH5 0x100000000 DUP2 GT ISZERO PUSH2 0xE7D JUMPI PUSH1 0x0 DUP1 REVERT JUMPDEST DUP3 ADD DUP4 PUSH1 0x20 DUP3 ADD GT ISZERO PUSH2 0xE8F JUMPI PUSH1 0x0 DUP1 REVERT JUMPDEST DUP1 CALLDATALOAD SWAP1 PUSH1 0x20 ADD SWAP2 DUP5 PUSH1 0x1 DUP4 MUL DUP5 ADD GT PUSH5 0x100000000 DUP4 GT OR ISZERO PUSH2 0xEB1 JUMPI PUSH1 0x0 DUP1 REVERT JUMPDEST SWAP1 SWAP2 SWAP3 SWAP4 SWAP2 SWAP3 SWAP4 SWAP1 POP POP POP PUSH2 0x3E8D JUMP JUMPDEST STOP JUMPDEST CALLVALUE DUP1 ISZERO PUSH2 0xECF JUMPI PUSH1 0x0 DUP1 REVERT JUMPDEST POP PUSH2 0xEFC PUSH1 0x4 DUP1 CALLDATASIZE SUB PUSH1 0x20 DUP2 LT ISZERO PUSH2 0xEE6 JUMPI PUSH1 0x0 DUP1 REVERT JUMPDEST DUP2 ADD SWAP1 DUP1 DUP1 CALLDATALOAD SWAP1 PUSH1 0x20 ADD SWAP1 SWAP3 SWAP2 SWAP1 POP POP POP PUSH2 0x442B JUMP JUMPDEST PUSH1 0x40 MLOAD DUP1 DUP3 DUP2 MSTORE PUSH1 0x20 ADD SWAP2 POP POP PUSH1 0x40 MLOAD DUP1 SWAP2 SUB SWAP1 RETURN JUMPDEST CALLVALUE DUP1 ISZERO PUSH2 0xF1E JUMPI PUSH1 0x0 DUP1 REVERT JUMPDEST POP PUSH2 0xF27 PUSH2 0x446D JUMP JUMPDEST STOP JUMPDEST CALLVALUE DUP1 ISZERO PUSH2 0xF35 JUMPI PUSH1 0x0 DUP1 REVERT JUMPDEST POP PUSH2 0xF3E PUSH2 0x4757 JUMP JUMPDEST PUSH1 0x40 MLOAD DUP1 DUP3 ISZERO ISZERO ISZERO ISZERO DUP2 MSTORE PUSH1 0x20 ADD SWAP2 POP POP PUSH1 0x40 MLOAD DUP1 SWAP2 SUB SWAP1 RETURN JUMPDEST CALLVALUE DUP1 ISZERO PUSH2 0xF64 JUMPI PUSH1 0x0 DUP1 REVERT JUMPDEST POP PUSH2 0xFA7 PUSH1 0x4 DUP1 CALLDATASIZE SUB PUSH1 0x20 DUP2 LT ISZERO PUSH2 0xF7B JUMPI PUSH1 0x0 DUP1 REVERT JUMPDEST DUP2 ADD SWAP1 DUP1 DUP1 CALLDATALOAD PUSH20 0xFFFFFFFFFFFFFFFFFFFFFFFFFFFFFFFFFFFFFFFF AND SWAP1 PUSH1 0x20 ADD SWAP1 SWAP3 SWAP2 SWAP1 POP POP POP PUSH2 0x4771 JUMP JUMPDEST STOP JUMPDEST CALLVALUE DUP1 ISZERO PUSH2 0xFB5 JUMPI PUSH1 0x0 DUP1 REVERT JUMPDEST POP PUSH2 0xFE2 PUSH1 0x4 DUP1 CALLDATASIZE SUB PUSH1 0x20 DUP2 LT ISZERO PUSH2 0xFCC JUMPI PUSH1 0x0 DUP1 REVERT JUMPDEST DUP2 ADD SWAP1 DUP1 DUP1 CALLDATALOAD SWAP1 PUSH1 0x20 ADD SWAP1 SWAP3 SWAP2 SWAP1 POP POP POP PUSH2 0x48B5 JUMP JUMPDEST PUSH1 0x40 MLOAD DUP1 DUP3 DUP2 MSTORE PUSH1 0x20 ADD SWAP2 POP POP PUSH1 0x40 MLOAD DUP1 SWAP2 SUB SWAP1 RETURN JUMPDEST CALLVALUE DUP1 ISZERO PUSH2 0x1004 JUMPI PUSH1 0x0 DUP1 REVERT JUMPDEST POP PUSH2 0x100D PUSH2 0x48F7 JUMP JUMPDEST STOP JUMPDEST PUSH1 0x0 DUP1 SLOAD PUSH1 0x1 MUL DUP3 LT ISZERO DUP1 ISZERO PUSH2 0x102A JUMPI POP PUSH1 0x0 SLOAD PUSH1 0x5 MUL DUP3 GT ISZERO JUMPDEST ISZERO PUSH2 0x1038 JUMPI PUSH1 0x1 SWAP1 POP PUSH2 0x107A JUMP JUMPDEST PUSH1 0x0 SLOAD PUSH1 0x6 MUL DUP3 LT ISZERO DUP1 ISZERO PUSH2 0x1052 JUMPI POP PUSH1 0x0 SLOAD PUSH1 0xA MUL DUP3 GT ISZERO JUMPDEST ISZERO PUSH2 0x1060 JUMPI PUSH1 0x2 SWAP1 POP PUSH2 0x107A JUMP JUMPDEST PUSH1 0x0 SLOAD PUSH1 0xB MUL DUP3 LT PUSH2 0x1075 JUMPI PUSH1 0x3 SWAP1 POP PUSH2 0x107A JUMP JUMPDEST PUSH1 0x0 SWAP1 POP JUMPDEST SWAP2 SWAP1 POP JUMP JUMPDEST PUSH1 0x0 PUSH1 0x1 DUP4 EQ DUP1 ISZERO PUSH2 0x1091 JUMPI POP PUSH1 0x1 DUP3 EQ JUMPDEST ISZERO PUSH2 0x109F JUMPI PUSH1 0x32 SWAP1 POP PUSH2 0x1171 JUMP JUMPDEST PUSH1 0x2 DUP4 EQ DUP1 ISZERO PUSH2 0x10AF JUMPI POP PUSH1 0x1 DUP3 EQ JUMPDEST ISZERO PUSH2 0x10BD JUMPI PUSH1 0x46 SWAP1 POP PUSH2 0x1171 JUMP JUMPDEST PUSH1 0x2 DUP4 EQ DUP1 ISZERO PUSH2 0x10CD JUMPI POP PUSH1 0x2 DUP3 EQ JUMPDEST ISZERO PUSH2 0x10DB JUMPI PUSH1 0x32 SWAP1 POP PUSH2 0x1171 JUMP JUMPDEST PUSH1 0x3 DUP4 EQ ISZERO PUSH2 0x116C JUMPI PUSH1 0x1 DUP3 EQ ISZERO PUSH2 0x10F6 JUMPI PUSH1 0x64 SWAP1 POP PUSH2 0x1171 JUMP JUMPDEST PUSH1 0x2 DUP3 EQ ISZERO PUSH2 0x1108 JUMPI PUSH1 0x46 SWAP1 POP PUSH2 0x1171 JUMP JUMPDEST PUSH1 0x3 DUP3 EQ ISZERO PUSH2 0x111A JUMPI PUSH1 0x32 SWAP1 POP PUSH2 0x1171 JUMP JUMPDEST PUSH1 0x4 DUP3 LT ISZERO DUP1 ISZERO PUSH2 0x112C JUMPI POP PUSH1 0xA DUP3 GT ISZERO JUMPDEST ISZERO PUSH2 0x113A JUMPI PUSH1 0xA SWAP1 POP PUSH2 0x1171 JUMP JUMPDEST PUSH1 0xB DUP3 LT ISZERO DUP1 ISZERO PUSH2 0x114C JUMPI POP PUSH1 0x14 DUP3 GT ISZERO JUMPDEST ISZERO PUSH2 0x115A JUMPI PUSH1 0x5 SWAP1 POP PUSH2 0x1171 JUMP JUMPDEST PUSH1 0x15 DUP3 LT PUSH2 0x116B JUMPI PUSH1 0x1 SWAP1 POP PUSH2 0x1171 JUMP JUMPDEST JUMPDEST PUSH1 0x0 SWAP1 POP JUMPDEST SWAP3 SWAP2 POP POP JUMP JUMPDEST PUSH1 0x0 CALLER SWAP1 POP PUSH1 0x0 DUP2 EXTCODESIZE SWAP1 POP PUSH1 0x0 DUP2 EQ PUSH2 0x11F8 JUMPI PUSH1 0x40 MLOAD PUSH32 0x8C379A000000000000000000000000000000000000000000000000000000000 DUP2 MSTORE PUSH1 0x4 ADD DUP1 DUP1 PUSH1 0x20 ADD DUP3 DUP2 SUB DUP3 MSTORE PUSH1 0x11 DUP2 MSTORE PUSH1 0x20 ADD DUP1 PUSH32 0x736F7272792068756D616E73206F6E6C79000000000000000000000000000000 DUP2 MSTORE POP PUSH1 0x20 ADD SWAP2 POP POP PUSH1 0x40 MLOAD DUP1 SWAP2 SUB SWAP1 REVERT JUMPDEST CALLER PUSH20 0xFFFFFFFFFFFFFFFFFFFFFFFFFFFFFFFFFFFFFFFF AND ORIGIN PUSH20 0xFFFFFFFFFFFFFFFFFFFFFFFFFFFFFFFFFFFFFFFF AND EQ PUSH2 0x1299 JUMPI PUSH1 0x40 MLOAD PUSH32 0x8C379A000000000000000000000000000000000000000000000000000000000 DUP2 MSTORE PUSH1 0x4 ADD DUP1 DUP1 PUSH1 0x20 ADD DUP3 DUP2 SUB DUP3 MSTORE PUSH1 0x12 DUP2 MSTORE PUSH1 0x20 ADD DUP1 PUSH32 0x736F7272792C2068756D616E73206F6E6C790000000000000000000000000000 DUP2 MSTORE POP PUSH1 0x20 ADD SWAP2 POP POP PUSH1 0x40 MLOAD DUP1 SWAP2 SUB SWAP1 REVERT JUMPDEST PUSH2 0x12A1 PUSH2 0x4757 JUMP JUMPDEST PUSH2 0x1313 JUMPI PUSH1 0x40 MLOAD PUSH32 0x8C379A000000000000000000000000000000000000000000000000000000000 DUP2 MSTORE PUSH1 0x4 ADD DUP1 DUP1 PUSH1 0x20 ADD DUP3 DUP2 SUB DUP3 MSTORE PUSH1 0x11 DUP2 MSTORE PUSH1 0x20 ADD DUP1 PUSH32 0x6E6F2C20646F6E6E6F74696D6974617465000000000000000000000000000000 DUP2 MSTORE POP PUSH1 0x20 ADD SWAP2 POP POP PUSH1 0x40 MLOAD DUP1 SWAP2 SUB SWAP1 REVERT JUMPDEST PUSH1 0x3 SLOAD PUSH1 0x1 MUL CALLVALUE LT ISZERO DUP1 ISZERO PUSH2 0x132D JUMPI POP PUSH1 0x3 SLOAD PUSH1 0xF MUL CALLVALUE GT ISZERO JUMPDEST PUSH2 0x139F JUMPI PUSH1 0x40 MLOAD PUSH32 0x8C379A000000000000000000000000000000000000000000000000000000000 DUP2 MSTORE PUSH1 0x4 ADD DUP1 DUP1 PUSH1 0x20 ADD DUP3 DUP2 SUB DUP3 MSTORE PUSH1 0x10 DUP2 MSTORE PUSH1 0x20 ADD DUP1 PUSH32 0x6265747765656E203120616E6420313500000000000000000000000000000000 DUP2 MSTORE POP PUSH1 0x20 ADD SWAP2 POP POP PUSH1 0x40 MLOAD DUP1 SWAP2 SUB SWAP1 REVERT JUMPDEST PUSH2 0x13C8 PUSH1 0x3 SLOAD PUSH2 0x13BA PUSH1 0x3 SLOAD CALLVALUE PUSH2 0x499E SWAP1 SWAP2 SWAP1 PUSH4 0xFFFFFFFF AND JUMP JUMPDEST PUSH2 0x4A2D SWAP1 SWAP2 SWAP1 PUSH4 0xFFFFFFFF AND JUMP JUMPDEST CALLVALUE EQ PUSH2 0x143C JUMPI PUSH1 0x40 MLOAD PUSH32 0x8C379A000000000000000000000000000000000000000000000000000000000 DUP2 MSTORE PUSH1 0x4 ADD DUP1 DUP1 PUSH1 0x20 ADD DUP3 DUP2 SUB DUP3 MSTORE PUSH1 0x11 DUP2 MSTORE PUSH1 0x20 ADD DUP1 PUSH32 0x696E76616C6964206D73672076616C7565000000000000000000000000000000 DUP2 MSTORE POP PUSH1 0x20 ADD SWAP2 POP POP PUSH1 0x40 MLOAD DUP1 SWAP2 SUB SWAP1 REVERT JUMPDEST PUSH1 0x0 PUSH1 0xF PUSH1 0x0 CALLER PUSH20 0xFFFFFFFFFFFFFFFFFFFFFFFFFFFFFFFFFFFFFFFF AND PUSH20 0xFFFFFFFFFFFFFFFFFFFFFFFFFFFFFFFFFFFFFFFF AND DUP2 MSTORE PUSH1 0x20 ADD SWAP1 DUP2 MSTORE PUSH1 0x20 ADD PUSH1 0x0 KECCAK256 SWAP1 POP PUSH1 0x0 DUP2 PUSH1 0x0 ADD SLOAD EQ ISZERO PUSH2 0x1759 JUMPI PUSH2 0x14A5 DUP6 PUSH1 0x40 MLOAD DUP1 PUSH1 0x20 ADD PUSH1 0x40 MSTORE DUP1 PUSH1 0x0 DUP2 MSTORE POP PUSH2 0x3625 JUMP JUMPDEST ISZERO DUP1 ISZERO PUSH2 0x14B3 JUMPI POP PUSH1 0x6 DUP6 MLOAD EQ JUMPDEST PUSH2 0x1525 JUMPI PUSH1 0x40 MLOAD PUSH32 0x8C379A000000000000000000000000000000000000000000000000000000000 DUP2 MSTORE PUSH1 0x4 ADD DUP1 DUP1 PUSH1 0x20 ADD DUP3 DUP2 SUB DUP3 MSTORE PUSH1 0x13 DUP2 MSTORE PUSH1 0x20 ADD DUP1 PUSH32 0x696E76616C696420696E7669746520636F646500000000000000000000000000 DUP2 MSTORE POP PUSH1 0x20 ADD SWAP2 POP POP PUSH1 0x40 MLOAD DUP1 SWAP2 SUB SWAP1 REVERT JUMPDEST PUSH1 0x0 PUSH1 0x10 DUP6 PUSH1 0x40 MLOAD DUP1 DUP3 DUP1 MLOAD SWAP1 PUSH1 0x20 ADD SWAP1 DUP1 DUP4 DUP4 JUMPDEST PUSH1 0x20 DUP4 LT PUSH2 0x155D JUMPI DUP1 MLOAD DUP3 MSTORE PUSH1 0x20 DUP3 ADD SWAP2 POP PUSH1 0x20 DUP2 ADD SWAP1 POP PUSH1 0x20 DUP4 SUB SWAP3 POP PUSH2 0x153A JUMP JUMPDEST PUSH1 0x1 DUP4 PUSH1 0x20 SUB PUSH2 0x100 EXP SUB DUP1 NOT DUP3 MLOAD AND DUP2 DUP5 MLOAD AND DUP1 DUP3 OR DUP6 MSTORE POP POP POP POP POP POP SWAP1 POP ADD SWAP2 POP POP SWAP1 DUP2 MSTORE PUSH1 0x20 ADD PUSH1 0x40 MLOAD DUP1 SWAP2 SUB SWAP1 KECCAK256 PUSH1 0x0 SWAP1 SLOAD SWAP1 PUSH2 0x100 EXP SWAP1 DIV PUSH20 0xFFFFFFFFFFFFFFFFFFFFFFFFFFFFFFFFFFFFFFFF AND SWAP1 POP PUSH2 0x15BC DUP6 PUSH2 0x2903 JUMP JUMPDEST PUSH2 0x162E JUMPI PUSH1 0x40 MLOAD PUSH32 0x8C379A000000000000000000000000000000000000000000000000000000000 DUP2 MSTORE PUSH1 0x4 ADD DUP1 DUP1 PUSH1 0x20 ADD DUP3 DUP2 SUB DUP3 MSTORE PUSH1 0x10 DUP2 MSTORE PUSH1 0x20 ADD DUP1 PUSH32 0x6265436F6465206E6F7420657869737400000000000000000000000000000000 DUP2 MSTORE POP PUSH1 0x20 ADD SWAP2 POP POP PUSH1 0x40 MLOAD DUP1 SWAP2 SUB SWAP1 REVERT JUMPDEST CALLER PUSH20 0xFFFFFFFFFFFFFFFFFFFFFFFFFFFFFFFFFFFFFFFF AND DUP2 PUSH20 0xFFFFFFFFFFFFFFFFFFFFFFFFFFFFFFFFFFFFFFFF AND EQ ISZERO PUSH2 0x16D0 JUMPI PUSH1 0x40 MLOAD PUSH32 0x8C379A000000000000000000000000000000000000000000000000000000000 DUP2 MSTORE PUSH1 0x4 ADD DUP1 DUP1 PUSH1 0x20 ADD DUP3 DUP2 SUB DUP3 MSTORE PUSH1 0x18 DUP2 MSTORE PUSH1 0x20 ADD DUP1 PUSH32 0x6265436F6465416464722063616E27742062652073656C660000000000000000 DUP2 MSTORE POP PUSH1 0x20 ADD SWAP2 POP POP PUSH1 0x40 MLOAD DUP1 SWAP2 SUB SWAP1 REVERT JUMPDEST PUSH2 0x16D9 DUP7 PUSH2 0x2903 JUMP JUMPDEST ISZERO PUSH2 0x174C JUMPI PUSH1 0x40 MLOAD PUSH32 0x8C379A000000000000000000000000000000000000000000000000000000000 DUP2 MSTORE PUSH1 0x4 ADD DUP1 DUP1 PUSH1 0x20 ADD DUP3 DUP2 SUB DUP3 MSTORE PUSH1 0x13 DUP2 MSTORE PUSH1 0x20 ADD DUP1 PUSH32 0x696E7669746520636F6465206973207573656400000000000000000000000000 DUP2 MSTORE POP PUSH1 0x20 ADD SWAP2 POP POP PUSH1 0x40 MLOAD DUP1 SWAP2 SUB SWAP1 REVERT JUMPDEST PUSH2 0x1757 CALLER DUP8 DUP8 PUSH2 0x4AD0 JUMP JUMPDEST POP JUMPDEST PUSH1 0x0 DUP1 PUSH2 0x1764 PUSH2 0x4CA7 JUMP JUMPDEST ISZERO PUSH2 0x1771 JUMPI CALLVALUE SWAP1 POP PUSH2 0x1775 JUMP JUMPDEST CALLVALUE SWAP2 POP JUMPDEST PUSH1 0x0 PUSH1 0xE PUSH1 0x0 PUSH1 0xC SLOAD DUP2 MSTORE PUSH1 0x20 ADD SWAP1 DUP2 MSTORE PUSH1 0x20 ADD PUSH1 0x0 KECCAK256 PUSH1 0x0 CALLER PUSH20 0xFFFFFFFFFFFFFFFFFFFFFFFFFFFFFFFFFFFFFFFF AND PUSH20 0xFFFFFFFFFFFFFFFFFFFFFFFFFFFFFFFFFFFFFFFF AND DUP2 MSTORE PUSH1 0x20 ADD SWAP1 DUP2 MSTORE PUSH1 0x20 ADD PUSH1 0x0 KECCAK256 SWAP1 POP PUSH1 0x0 DUP2 PUSH1 0x0 ADD SLOAD EQ PUSH2 0x18D4 JUMPI PUSH1 0x0 PUSH2 0x17F4 DUP3 PUSH1 0x4 ADD SLOAD DUP4 PUSH1 0x3 ADD SLOAD PUSH2 0x4CB4 SWAP1 SWAP2 SWAP1 PUSH4 0xFFFFFFFF AND JUMP JUMPDEST EQ PUSH2 0x1867 JUMPI PUSH1 0x40 MLOAD PUSH32 0x8C379A000000000000000000000000000000000000000000000000000000000 DUP2 MSTORE PUSH1 0x4 ADD DUP1 DUP1 PUSH1 0x20 ADD DUP3 DUP2 SUB DUP3 MSTORE PUSH1 0x10 DUP2 MSTORE PUSH1 0x20 ADD DUP1 PUSH32 0x6F6E6C79206F6E636520696E7665737400000000000000000000000000000000 DUP2 MSTORE POP PUSH1 0x20 ADD SWAP2 POP POP PUSH1 0x40 MLOAD DUP1 SWAP2 SUB SWAP1 REVERT JUMPDEST DUP3 DUP2 PUSH1 0x3 ADD DUP2 SWAP1 SSTORE POP DUP2 DUP2 PUSH1 0x4 ADD DUP2 SWAP1 SSTORE POP PUSH2 0x1886 DUP2 PUSH1 0x3 ADD SLOAD PUSH2 0x35A2 JUMP JUMPDEST DUP2 PUSH1 0x8 ADD DUP2 SWAP1 SSTORE POP PUSH2 0x18C7 PUSH2 0x18C2 DUP3 PUSH1 0x4 ADD SLOAD PUSH2 0x18B4 DUP5 PUSH1 0x2 ADD SLOAD DUP6 PUSH1 0x3 ADD SLOAD PUSH2 0x4CB4 SWAP1 SWAP2 SWAP1 PUSH4 0xFFFFFFFF AND JUMP JUMPDEST PUSH2 0x4CB4 SWAP1 SWAP2 SWAP1 PUSH4 0xFFFFFFFF AND JUMP JUMPDEST PUSH2 0x100F JUMP JUMPDEST DUP2 PUSH1 0x9 ADD DUP2 SWAP1 SSTORE POP PUSH2 0x19D9 JUMP JUMPDEST DUP4 PUSH1 0x0 ADD SLOAD DUP2 PUSH1 0x0 ADD DUP2 SWAP1 SSTORE POP CALLER DUP2 PUSH1 0x1 ADD PUSH1 0x0 PUSH2 0x100 EXP DUP2 SLOAD DUP2 PUSH20 0xFFFFFFFFFFFFFFFFFFFFFFFFFFFFFFFFFFFFFFFF MUL NOT AND SWAP1 DUP4 PUSH20 0xFFFFFFFFFFFFFFFFFFFFFFFFFFFFFFFFFFFFFFFF AND MUL OR SWAP1 SSTORE POP DUP3 DUP2 PUSH1 0x3 ADD DUP2 SWAP1 SSTORE POP PUSH2 0x1936 DUP4 PUSH2 0x35A2 JUMP JUMPDEST DUP2 PUSH1 0x8 ADD DUP2 SWAP1 SSTORE POP DUP2 DUP2 PUSH1 0x4 ADD DUP2 SWAP1 SSTORE POP PUSH2 0x1980 PUSH2 0x197B DUP3 PUSH1 0x4 ADD SLOAD PUSH2 0x196D DUP5 PUSH1 0x2 ADD SLOAD DUP6 PUSH1 0x3 ADD SLOAD PUSH2 0x4CB4 SWAP1 SWAP2 SWAP1 PUSH4 0xFFFFFFFF AND JUMP JUMPDEST PUSH2 0x4CB4 SWAP1 SWAP2 SWAP1 PUSH4 0xFFFFFFFF AND JUMP JUMPDEST PUSH2 0x100F JUMP JUMPDEST DUP2 PUSH1 0x9 ADD DUP2 SWAP1 SSTORE POP DUP4 PUSH1 0x2 ADD DUP2 PUSH1 0xC ADD SWAP1 DUP1 SLOAD PUSH1 0x1 DUP2 PUSH1 0x1 AND ISZERO PUSH2 0x100 MUL SUB AND PUSH1 0x2 SWAP1 DIV PUSH2 0x19AF SWAP3 SWAP2 SWAP1 PUSH2 0x589C JUMP JUMPDEST POP DUP4 PUSH1 0x3 ADD DUP2 PUSH1 0xD ADD SWAP1 DUP1 SLOAD PUSH1 0x1 DUP2 PUSH1 0x1 AND ISZERO PUSH2 0x100 MUL SUB AND PUSH1 0x2 SWAP1 DIV PUSH2 0x19D7 SWAP3 SWAP2 SWAP1 PUSH2 0x589C JUMP JUMPDEST POP JUMPDEST PUSH2 0x1A02 PUSH1 0x1 PUSH1 0x8 PUSH1 0x0 PUSH1 0xC SLOAD DUP2 MSTORE PUSH1 0x20 ADD SWAP1 DUP2 MSTORE PUSH1 0x20 ADD PUSH1 0x0 KECCAK256 SLOAD PUSH2 0x4CB4 SWAP1 SWAP2 SWAP1 PUSH4 0xFFFFFFFF AND JUMP JUMPDEST PUSH1 0x8 PUSH1 0x0 PUSH1 0xC SLOAD DUP2 MSTORE PUSH1 0x20 ADD SWAP1 DUP2 MSTORE PUSH1 0x20 ADD PUSH1 0x0 KECCAK256 DUP2 SWAP1 SSTORE POP PUSH2 0x1A43 CALLVALUE PUSH1 0x9 PUSH1 0x0 PUSH1 0xC SLOAD DUP2 MSTORE PUSH1 0x20 ADD SWAP1 DUP2 MSTORE PUSH1 0x20 ADD PUSH1 0x0 KECCAK256 SLOAD PUSH2 0x4CB4 SWAP1 SWAP2 SWAP1 PUSH4 0xFFFFFFFF AND JUMP JUMPDEST PUSH1 0x9 PUSH1 0x0 PUSH1 0xC SLOAD DUP2 MSTORE PUSH1 0x20 ADD SWAP1 DUP2 MSTORE PUSH1 0x20 ADD PUSH1 0x0 KECCAK256 DUP2 SWAP1 SSTORE POP PUSH2 0x1A64 PUSH2 0x4CA7 JUMP JUMPDEST PUSH2 0x1AA3 JUMPI PUSH2 0x1A71 CALLVALUE PUSH2 0x4D3C JUMP JUMPDEST PUSH2 0x1A9E DUP2 PUSH1 0x1 ADD PUSH1 0x0 SWAP1 SLOAD SWAP1 PUSH2 0x100 EXP SWAP1 DIV PUSH20 0xFFFFFFFFFFFFFFFFFFFFFFFFFFFFFFFFFFFFFFFF AND PUSH2 0x4DBB JUMP JUMPDEST PUSH2 0x1AE7 JUMP JUMPDEST PUSH1 0xD PUSH1 0x0 PUSH1 0xC SLOAD DUP2 MSTORE PUSH1 0x20 ADD SWAP1 DUP2 MSTORE PUSH1 0x20 ADD PUSH1 0x0 KECCAK256 DUP2 PUSH1 0x0 ADD SLOAD SWAP1 DUP1 PUSH1 0x1 DUP2 SLOAD ADD DUP1 DUP3 SSTORE DUP1 SWAP2 POP POP SWAP1 PUSH1 0x1 DUP3 SUB SWAP1 PUSH1 0x0 MSTORE PUSH1 0x20 PUSH1 0x0 KECCAK256 ADD PUSH1 0x0 SWAP1 SWAP2 SWAP3 SWAP1 SWAP2 SWAP1 SWAP2 POP SSTORE POP JUMPDEST POP POP POP POP POP POP POP POP JUMP JUMPDEST PUSH2 0x1AF9 PUSH2 0x37DD JUMP JUMPDEST PUSH2 0x1B6B JUMPI PUSH1 0x40 MLOAD PUSH32 0x8C379A000000000000000000000000000000000000000000000000000000000 DUP2 MSTORE PUSH1 0x4 ADD DUP1 DUP1 PUSH1 0x20 ADD DUP3 DUP2 SUB DUP3 MSTORE PUSH1 0x20 DUP2 MSTORE PUSH1 0x20 ADD DUP1 PUSH32 0x4F776E61626C653A2063616C6C6572206973206E6F7420746865206F776E6572 DUP2 MSTORE POP PUSH1 0x20 ADD SWAP2 POP POP PUSH1 0x40 MLOAD DUP1 SWAP2 SUB SWAP1 REVERT JUMPDEST PUSH1 0x0 PUSH1 0x16 DUP2 SWAP1 SSTORE POP JUMP JUMPDEST PUSH2 0x1B7D PUSH2 0x5923 JUMP JUMPDEST PUSH1 0x60 DUP1 PUSH2 0x1B89 CALLER PUSH2 0x3D26 JUMP JUMPDEST DUP1 PUSH2 0x1BBF JUMPI POP DUP5 PUSH20 0xFFFFFFFFFFFFFFFFFFFFFFFFFFFFFFFFFFFFFFFF AND CALLER PUSH20 0xFFFFFFFFFFFFFFFFFFFFFFFFFFFFFFFFFFFFFFFF AND EQ JUMPDEST PUSH2 0x1C14 JUMPI PUSH1 0x40 MLOAD PUSH32 0x8C379A000000000000000000000000000000000000000000000000000000000 DUP2 MSTORE PUSH1 0x4 ADD DUP1 DUP1 PUSH1 0x20 ADD DUP3 DUP2 SUB DUP3 MSTORE PUSH1 0x29 DUP2 MSTORE PUSH1 0x20 ADD DUP1 PUSH2 0x5B36 PUSH1 0x29 SWAP2 CODECOPY PUSH1 0x40 ADD SWAP2 POP POP PUSH1 0x40 MLOAD DUP1 SWAP2 SUB SWAP1 REVERT JUMPDEST PUSH1 0x0 DUP5 EQ ISZERO PUSH2 0x1C23 JUMPI PUSH1 0xC SLOAD SWAP4 POP JUMPDEST PUSH2 0x1C2B PUSH2 0x5946 JUMP JUMPDEST PUSH1 0xF PUSH1 0x0 DUP8 PUSH20 0xFFFFFFFFFFFFFFFFFFFFFFFFFFFFFFFFFFFFFFFF AND PUSH20 0xFFFFFFFFFFFFFFFFFFFFFFFFFFFFFFFFFFFFFFFF AND DUP2 MSTORE PUSH1 0x20 ADD SWAP1 DUP2 MSTORE PUSH1 0x20 ADD PUSH1 0x0 KECCAK256 PUSH1 0x40 MLOAD DUP1 PUSH1 0xA0 ADD PUSH1 0x40 MSTORE SWAP1 DUP2 PUSH1 0x0 DUP3 ADD SLOAD DUP2 MSTORE PUSH1 0x20 ADD PUSH1 0x1 DUP3 ADD PUSH1 0x0 SWAP1 SLOAD SWAP1 PUSH2 0x100 EXP SWAP1 DIV PUSH20 0xFFFFFFFFFFFFFFFFFFFFFFFFFFFFFFFFFFFFFFFF AND PUSH20 0xFFFFFFFFFFFFFFFFFFFFFFFFFFFFFFFFFFFFFFFF AND PUSH20 0xFFFFFFFFFFFFFFFFFFFFFFFFFFFFFFFFFFFFFFFF AND DUP2 MSTORE PUSH1 0x20 ADD PUSH1 0x2 DUP3 ADD DUP1 SLOAD PUSH1 0x1 DUP2 PUSH1 0x1 AND ISZERO PUSH2 0x100 MUL SUB AND PUSH1 0x2 SWAP1 DIV DUP1 PUSH1 0x1F ADD PUSH1 0x20 DUP1 SWAP2 DIV MUL PUSH1 0x20 ADD PUSH1 0x40 MLOAD SWAP1 DUP2 ADD PUSH1 0x40 MSTORE DUP1 SWAP3 SWAP2 SWAP1 DUP2 DUP2 MSTORE PUSH1 0x20 ADD DUP3 DUP1 SLOAD PUSH1 0x1 DUP2 PUSH1 0x1 AND ISZERO PUSH2 0x100 MUL SUB AND PUSH1 0x2 SWAP1 DIV DUP1 ISZERO PUSH2 0x1D6E JUMPI DUP1 PUSH1 0x1F LT PUSH2 0x1D43 JUMPI PUSH2 0x100 DUP1 DUP4 SLOAD DIV MUL DUP4 MSTORE SWAP2 PUSH1 0x20 ADD SWAP2 PUSH2 0x1D6E JUMP JUMPDEST DUP3 ADD SWAP2 SWAP1 PUSH1 0x0 MSTORE PUSH1 0x20 PUSH1 0x0 KECCAK256 SWAP1 JUMPDEST DUP2 SLOAD DUP2 MSTORE SWAP1 PUSH1 0x1 ADD SWAP1 PUSH1 0x20 ADD DUP1 DUP4 GT PUSH2 0x1D51 JUMPI DUP3 SWAP1 SUB PUSH1 0x1F AND DUP3 ADD SWAP2 JUMPDEST POP POP POP POP POP DUP2 MSTORE PUSH1 0x20 ADD PUSH1 0x3 DUP3 ADD DUP1 SLOAD PUSH1 0x1 DUP2 PUSH1 0x1 AND ISZERO PUSH2 0x100 MUL SUB AND PUSH1 0x2 SWAP1 DIV DUP1 PUSH1 0x1F ADD PUSH1 0x20 DUP1 SWAP2 DIV MUL PUSH1 0x20 ADD PUSH1 0x40 MLOAD SWAP1 DUP2 ADD PUSH1 0x40 MSTORE DUP1 SWAP3 SWAP2 SWAP1 DUP2 DUP2 MSTORE PUSH1 0x20 ADD DUP3 DUP1 SLOAD PUSH1 0x1 DUP2 PUSH1 0x1 AND ISZERO PUSH2 0x100 MUL SUB AND PUSH1 0x2 SWAP1 DIV DUP1 ISZERO PUSH2 0x1E10 JUMPI DUP1 PUSH1 0x1F LT PUSH2 0x1DE5 JUMPI PUSH2 0x100 DUP1 DUP4 SLOAD DIV MUL DUP4 MSTORE SWAP2 PUSH1 0x20 ADD SWAP2 PUSH2 0x1E10 JUMP JUMPDEST DUP3 ADD SWAP2 SWAP1 PUSH1 0x0 MSTORE PUSH1 0x20 PUSH1 0x0 KECCAK256 SWAP1 JUMPDEST DUP2 SLOAD DUP2 MSTORE SWAP1 PUSH1 0x1 ADD SWAP1 PUSH1 0x20 ADD DUP1 DUP4 GT PUSH2 0x1DF3 JUMPI DUP3 SWAP1 SUB PUSH1 0x1F AND DUP3 ADD SWAP2 JUMPDEST POP POP POP POP POP DUP2 MSTORE PUSH1 0x20 ADD PUSH1 0x4 DUP3 ADD SLOAD DUP2 MSTORE POP POP SWAP1 POP PUSH2 0x1E2D PUSH2 0x598B JUMP JUMPDEST PUSH1 0xE PUSH1 0x0 DUP8 DUP2 MSTORE PUSH1 0x20 ADD SWAP1 DUP2 MSTORE PUSH1 0x20 ADD PUSH1 0x0 KECCAK256 PUSH1 0x0 DUP9 PUSH20 0xFFFFFFFFFFFFFFFFFFFFFFFFFFFFFFFFFFFFFFFF AND PUSH20 0xFFFFFFFFFFFFFFFFFFFFFFFFFFFFFFFFFFFFFFFF AND DUP2 MSTORE PUSH1 0x20 ADD SWAP1 DUP2 MSTORE PUSH1 0x20 ADD PUSH1 0x0 KECCAK256 PUSH1 0x40 MLOAD DUP1 PUSH2 0x200 ADD PUSH1 0x40 MSTORE SWAP1 DUP2 PUSH1 0x0 DUP3 ADD SLOAD DUP2 MSTORE PUSH1 0x20 ADD PUSH1 0x1 DUP3 ADD PUSH1 0x0 SWAP1 SLOAD SWAP1 PUSH2 0x100 EXP SWAP1 DIV PUSH20 0xFFFFFFFFFFFFFFFFFFFFFFFFFFFFFFFFFFFFFFFF AND PUSH20 0xFFFFFFFFFFFFFFFFFFFFFFFFFFFFFFFFFFFFFFFF AND PUSH20 0xFFFFFFFFFFFFFFFFFFFFFFFFFFFFFFFFFFFFFFFF AND DUP2 MSTORE PUSH1 0x20 ADD PUSH1 0x2 DUP3 ADD SLOAD DUP2 MSTORE PUSH1 0x20 ADD PUSH1 0x3 DUP3 ADD SLOAD DUP2 MSTORE PUSH1 0x20 ADD PUSH1 0x4 DUP3 ADD SLOAD DUP2 MSTORE PUSH1 0x20 ADD PUSH1 0x5 DUP3 ADD SLOAD DUP2 MSTORE PUSH1 0x20 ADD PUSH1 0x6 DUP3 ADD SLOAD DUP2 MSTORE PUSH1 0x20 ADD PUSH1 0x7 DUP3 ADD SLOAD DUP2 MSTORE PUSH1 0x20 ADD PUSH1 0x8 DUP3 ADD SLOAD DUP2 MSTORE PUSH1 0x20 ADD PUSH1 0x9 DUP3 ADD SLOAD DUP2 MSTORE PUSH1 0x20 ADD PUSH1 0xA DUP3 ADD SLOAD DUP2 MSTORE PUSH1 0x20 ADD PUSH1 0xB DUP3 ADD SLOAD DUP2 MSTORE PUSH1 0x20 ADD PUSH1 0xC DUP3 ADD DUP1 SLOAD PUSH1 0x1 DUP2 PUSH1 0x1 AND ISZERO PUSH2 0x100 MUL SUB AND PUSH1 0x2 SWAP1 DIV DUP1 PUSH1 0x1F ADD PUSH1 0x20 DUP1 SWAP2 DIV MUL PUSH1 0x20 ADD PUSH1 0x40 MLOAD SWAP1 DUP2 ADD PUSH1 0x40 MSTORE DUP1 SWAP3 SWAP2 SWAP1 DUP2 DUP2 MSTORE PUSH1 0x20 ADD DUP3 DUP1 SLOAD PUSH1 0x1 DUP2 PUSH1 0x1 AND ISZERO PUSH2 0x100 MUL SUB AND PUSH1 0x2 SWAP1 DIV DUP1 ISZERO PUSH2 0x1FE6 JUMPI DUP1 PUSH1 0x1F LT PUSH2 0x1FBB JUMPI PUSH2 0x100 DUP1 DUP4 SLOAD DIV MUL DUP4 MSTORE SWAP2 PUSH1 0x20 ADD SWAP2 PUSH2 0x1FE6 JUMP JUMPDEST DUP3 ADD SWAP2 SWAP1 PUSH1 0x0 MSTORE PUSH1 0x20 PUSH1 0x0 KECCAK256 SWAP1 JUMPDEST DUP2 SLOAD DUP2 MSTORE SWAP1 PUSH1 0x1 ADD SWAP1 PUSH1 0x20 ADD DUP1 DUP4 GT PUSH2 0x1FC9 JUMPI DUP3 SWAP1 SUB PUSH1 0x1F AND DUP3 ADD SWAP2 JUMPDEST POP POP POP POP POP DUP2 MSTORE PUSH1 0x20 ADD PUSH1 0xD DUP3 ADD DUP1 SLOAD PUSH1 0x1 DUP2 PUSH1 0x1 AND ISZERO PUSH2 0x100 MUL SUB AND PUSH1 0x2 SWAP1 DIV DUP1 PUSH1 0x1F ADD PUSH1 0x20 DUP1 SWAP2 DIV MUL PUSH1 0x20 ADD PUSH1 0x40 MLOAD SWAP1 DUP2 ADD PUSH1 0x40 MSTORE DUP1 SWAP3 SWAP2 SWAP1 DUP2 DUP2 MSTORE PUSH1 0x20 ADD DUP3 DUP1 SLOAD PUSH1 0x1 DUP2 PUSH1 0x1 AND ISZERO PUSH2 0x100 MUL SUB AND PUSH1 0x2 SWAP1 DIV DUP1 ISZERO PUSH2 0x2088 JUMPI DUP1 PUSH1 0x1F LT PUSH2 0x205D JUMPI PUSH2 0x100 DUP1 DUP4 SLOAD DIV MUL DUP4 MSTORE SWAP2 PUSH1 0x20 ADD SWAP2 PUSH2 0x2088 JUMP JUMPDEST DUP3 ADD SWAP2 SWAP1 PUSH1 0x0 MSTORE PUSH1 0x20 PUSH1 0x0 KECCAK256 SWAP1 JUMPDEST DUP2 SLOAD DUP2 MSTORE SWAP1 PUSH1 0x1 ADD SWAP1 PUSH1 0x20 ADD DUP1 DUP4 GT PUSH2 0x206B JUMPI DUP3 SWAP1 SUB PUSH1 0x1F AND DUP3 ADD SWAP2 JUMPDEST POP POP POP POP POP DUP2 MSTORE PUSH1 0x20 ADD PUSH1 0xE DUP3 ADD SLOAD DUP2 MSTORE PUSH1 0x20 ADD PUSH1 0xF DUP3 ADD SLOAD DUP2 MSTORE POP POP SWAP1 POP DUP2 PUSH1 0x0 ADD MLOAD DUP6 PUSH1 0x0 PUSH1 0xE DUP2 LT PUSH2 0x20B9 JUMPI INVALID JUMPDEST PUSH1 0x20 MUL ADD DUP2 DUP2 MSTORE POP POP DUP1 PUSH1 0x80 ADD MLOAD DUP6 PUSH1 0x1 PUSH1 0xE DUP2 LT PUSH2 0x20D4 JUMPI INVALID JUMPDEST PUSH1 0x20 MUL ADD DUP2 DUP2 MSTORE POP POP DUP1 PUSH1 0x40 ADD MLOAD DUP6 PUSH1 0x2 PUSH1 0xE DUP2 LT PUSH2 0x20EF JUMPI INVALID JUMPDEST PUSH1 0x20 MUL ADD DUP2 DUP2 MSTORE POP POP DUP1 PUSH1 0x60 ADD MLOAD DUP6 PUSH1 0x3 PUSH1 0xE DUP2 LT PUSH2 0x210A JUMPI INVALID JUMPDEST PUSH1 0x20 MUL ADD DUP2 DUP2 MSTORE POP POP DUP1 PUSH1 0xA0 ADD MLOAD DUP6 PUSH1 0x4 PUSH1 0xE DUP2 LT PUSH2 0x2125 JUMPI INVALID JUMPDEST PUSH1 0x20 MUL ADD DUP2 DUP2 MSTORE POP POP DUP1 PUSH1 0xE0 ADD MLOAD DUP6 PUSH1 0x5 PUSH1 0xE DUP2 LT PUSH2 0x2140 JUMPI INVALID JUMPDEST PUSH1 0x20 MUL ADD DUP2 DUP2 MSTORE POP POP DUP1 PUSH2 0x120 ADD MLOAD DUP6 PUSH1 0x6 PUSH1 0xE DUP2 LT PUSH2 0x215C JUMPI INVALID JUMPDEST PUSH1 0x20 MUL ADD DUP2 DUP2 MSTORE POP POP DUP1 PUSH1 0xC0 ADD MLOAD DUP6 PUSH1 0x7 PUSH1 0xE DUP2 LT PUSH2 0x2177 JUMPI INVALID JUMPDEST PUSH1 0x20 MUL ADD DUP2 DUP2 MSTORE POP POP DUP1 PUSH2 0x1C0 ADD MLOAD DUP6 PUSH1 0x8 PUSH1 0xE DUP2 LT PUSH2 0x2193 JUMPI INVALID JUMPDEST PUSH1 0x20 MUL ADD DUP2 DUP2 MSTORE POP POP DUP1 PUSH2 0x160 ADD MLOAD DUP6 PUSH1 0x9 PUSH1 0xE DUP2 LT PUSH2 0x21AF JUMPI INVALID JUMPDEST PUSH1 0x20 MUL ADD DUP2 DUP2 MSTORE POP POP DUP1 PUSH2 0x100 ADD MLOAD DUP6 PUSH1 0xA PUSH1 0xE DUP2 LT PUSH2 0x21CB JUMPI INVALID JUMPDEST PUSH1 0x20 MUL ADD DUP2 DUP2 MSTORE POP POP PUSH1 0x0 DUP1 SWAP1 POP PUSH1 0x0 DUP3 PUSH1 0x0 ADD MLOAD GT DUP1 ISZERO PUSH2 0x21F9 JUMPI POP PUSH8 0xDE0B6B3A7640000 DUP3 PUSH1 0x60 ADD MLOAD LT ISZERO JUMPDEST DUP1 ISZERO PUSH2 0x220B JUMPI POP PUSH1 0x13 SLOAD DUP3 PUSH1 0x60 ADD MLOAD GT ISZERO JUMPDEST DUP1 ISZERO PUSH2 0x221C JUMPI POP PUSH1 0x5 DUP3 PUSH2 0x160 ADD MLOAD LT JUMPDEST DUP1 ISZERO PUSH2 0x222D JUMPI POP PUSH1 0x1 DUP4 PUSH1 0x80 ADD MLOAD EQ ISZERO JUMPDEST ISZERO PUSH2 0x223C JUMPI DUP2 PUSH1 0xC0 ADD MLOAD DUP2 ADD SWAP1 POP JUMPDEST PUSH1 0x0 DUP4 PUSH1 0x80 ADD MLOAD EQ ISZERO PUSH2 0x2575 JUMPI PUSH1 0x0 DUP1 SWAP1 POP PUSH2 0x2256 PUSH2 0x5A1E JUMP JUMPDEST PUSH1 0x12 PUSH1 0x0 PUSH1 0xC SLOAD DUP2 MSTORE PUSH1 0x20 ADD SWAP1 DUP2 MSTORE PUSH1 0x20 ADD PUSH1 0x0 KECCAK256 PUSH1 0x0 DUP6 PUSH1 0x20 ADD MLOAD PUSH20 0xFFFFFFFFFFFFFFFFFFFFFFFFFFFFFFFFFFFFFFFF AND PUSH20 0xFFFFFFFFFFFFFFFFFFFFFFFFFFFFFFFFFFFFFFFF AND DUP2 MSTORE PUSH1 0x20 ADD SWAP1 DUP2 MSTORE PUSH1 0x20 ADD PUSH1 0x0 KECCAK256 PUSH1 0x0 DUP6 PUSH2 0x1C0 ADD MLOAD DUP2 MSTORE PUSH1 0x20 ADD SWAP1 DUP2 MSTORE PUSH1 0x20 ADD PUSH1 0x0 KECCAK256 PUSH1 0x40 MLOAD DUP1 PUSH1 0x60 ADD PUSH1 0x40 MSTORE SWAP1 DUP2 PUSH1 0x0 DUP3 ADD SLOAD DUP2 MSTORE PUSH1 0x20 ADD PUSH1 0x1 DUP3 ADD SLOAD DUP2 MSTORE PUSH1 0x20 ADD PUSH1 0x2 DUP3 ADD SLOAD DUP2 MSTORE POP POP SWAP1 POP PUSH1 0x0 PUSH2 0x2320 DUP6 PUSH1 0x80 ADD MLOAD PUSH2 0x2312 DUP8 PUSH1 0x40 ADD MLOAD DUP9 PUSH1 0x60 ADD MLOAD PUSH2 0x4CB4 SWAP1 SWAP2 SWAP1 PUSH4 0xFFFFFFFF AND JUMP JUMPDEST PUSH2 0x4CB4 SWAP1 SWAP2 SWAP1 PUSH4 0xFFFFFFFF AND JUMP JUMPDEST SWAP1 POP PUSH8 0xDE0B6B3A7640000 DUP2 LT PUSH2 0x2571 JUMPI PUSH1 0x0 PUSH2 0x2348 PUSH1 0x3 SLOAD DUP4 PUSH2 0x499E SWAP1 SWAP2 SWAP1 PUSH4 0xFFFFFFFF AND JUMP JUMPDEST SWAP1 POP PUSH1 0xF DUP2 LT PUSH2 0x2360 JUMPI DUP3 PUSH1 0x40 ADD MLOAD DUP5 ADD SWAP4 POP PUSH2 0x256A JUMP JUMPDEST PUSH1 0x1 DUP7 PUSH2 0x120 ADD MLOAD EQ DUP1 ISZERO PUSH2 0x237D JUMPI POP PUSH8 0xDE0B6B3A7640000 DUP3 LT ISZERO JUMPDEST DUP1 ISZERO PUSH2 0x238D JUMPI POP PUSH1 0x0 DUP4 PUSH1 0x0 ADD MLOAD GT JUMPDEST ISZERO PUSH2 0x23D4 JUMPI PUSH2 0x23CF PUSH1 0x2 PUSH2 0x23C1 DUP4 PUSH2 0x23B3 PUSH1 0xF DUP9 PUSH1 0x0 ADD MLOAD PUSH2 0x499E SWAP1 SWAP2 SWAP1 PUSH4 0xFFFFFFFF AND JUMP JUMPDEST PUSH2 0x4A2D SWAP1 SWAP2 SWAP1 PUSH4 0xFFFFFFFF AND JUMP JUMPDEST PUSH2 0x499E SWAP1 SWAP2 SWAP1 PUSH4 0xFFFFFFFF AND JUMP JUMPDEST DUP5 ADD SWAP4 POP JUMPDEST PUSH1 0x2 DUP7 PUSH2 0x120 ADD MLOAD EQ DUP1 ISZERO PUSH2 0x23F1 JUMPI POP PUSH8 0xDE0B6B3A7640000 DUP3 LT ISZERO JUMPDEST DUP1 ISZERO PUSH2 0x2410 JUMPI POP PUSH1 0x0 DUP4 PUSH1 0x0 ADD MLOAD GT DUP1 PUSH2 0x240F JUMPI POP PUSH1 0x0 DUP4 PUSH1 0x20 ADD MLOAD GT JUMPDEST JUMPDEST ISZERO PUSH2 0x24BE JUMPI PUSH2 0x2465 PUSH1 0xA PUSH2 0x2457 PUSH1 0x7 PUSH2 0x2449 DUP6 PUSH2 0x243B PUSH1 0xF DUP11 PUSH1 0x0 ADD MLOAD PUSH2 0x499E SWAP1 SWAP2 SWAP1 PUSH4 0xFFFFFFFF AND JUMP JUMPDEST PUSH2 0x4A2D SWAP1 SWAP2 SWAP1 PUSH4 0xFFFFFFFF AND JUMP JUMPDEST PUSH2 0x4A2D SWAP1 SWAP2 SWAP1 PUSH4 0xFFFFFFFF AND JUMP JUMPDEST PUSH2 0x499E SWAP1 SWAP2 SWAP1 PUSH4 0xFFFFFFFF AND JUMP JUMPDEST DUP5 ADD SWAP4 POP PUSH2 0x24B9 PUSH1 0x7 PUSH2 0x24AB PUSH1 0x5 PUSH2 0x249D DUP6 PUSH2 0x248F PUSH1 0xF DUP11 PUSH1 0x20 ADD MLOAD PUSH2 0x499E SWAP1 SWAP2 SWAP1 PUSH4 0xFFFFFFFF AND JUMP JUMPDEST PUSH2 0x4A2D SWAP1 SWAP2 SWAP1 PUSH4 0xFFFFFFFF AND JUMP JUMPDEST PUSH2 0x4A2D SWAP1 SWAP2 SWAP1 PUSH4 0xFFFFFFFF AND JUMP JUMPDEST PUSH2 0x499E SWAP1 SWAP2 SWAP1 PUSH4 0xFFFFFFFF AND JUMP JUMPDEST DUP5 ADD SWAP4 POP JUMPDEST PUSH1 0x3 DUP7 PUSH2 0x120 ADD MLOAD EQ DUP1 ISZERO PUSH2 0x24DB JUMPI POP PUSH8 0xDE0B6B3A7640000 DUP3 LT ISZERO JUMPDEST DUP1 ISZERO PUSH2 0x24EB JUMPI POP PUSH1 0x0 DUP4 PUSH1 0x40 ADD MLOAD GT JUMPDEST ISZERO PUSH2 0x251F JUMPI PUSH2 0x251A DUP2 PUSH2 0x250C PUSH1 0xF DUP7 PUSH1 0x40 ADD MLOAD PUSH2 0x499E SWAP1 SWAP2 SWAP1 PUSH4 0xFFFFFFFF AND JUMP JUMPDEST PUSH2 0x4A2D SWAP1 SWAP2 SWAP1 PUSH4 0xFFFFFFFF AND JUMP JUMPDEST DUP5 ADD SWAP4 POP JUMPDEST PUSH1 0x3 DUP7 PUSH2 0x120 ADD MLOAD LT ISZERO PUSH2 0x2569 JUMPI PUSH1 0x0 PUSH2 0x253D DUP8 PUSH2 0x120 ADD MLOAD PUSH2 0x442B JUMP JUMPDEST SWAP1 POP PUSH2 0x2565 PUSH1 0xA PUSH2 0x2557 DUP4 DUP9 PUSH2 0x4A2D SWAP1 SWAP2 SWAP1 PUSH4 0xFFFFFFFF AND JUMP JUMPDEST PUSH2 0x499E SWAP1 SWAP2 SWAP1 PUSH4 0xFFFFFFFF AND JUMP JUMPDEST SWAP5 POP POP JUMPDEST JUMPDEST DUP4 DUP6 ADD SWAP5 POP POP JUMPDEST POP POP POP JUMPDEST DUP1 DUP7 PUSH1 0xB PUSH1 0xE DUP2 LT PUSH2 0x2583 JUMPI INVALID JUMPDEST PUSH1 0x20 MUL ADD DUP2 DUP2 MSTORE POP POP DUP2 PUSH2 0x1E0 ADD MLOAD DUP7 PUSH1 0xC PUSH1 0xE DUP2 LT PUSH2 0x259F JUMPI INVALID JUMPDEST PUSH1 0x20 MUL ADD DUP2 DUP2 MSTORE POP POP DUP3 PUSH1 0x80 ADD MLOAD DUP7 PUSH1 0xD PUSH1 0xE DUP2 LT PUSH2 0x25BA JUMPI INVALID JUMPDEST PUSH1 0x20 MUL ADD DUP2 DUP2 MSTORE POP POP DUP6 DUP4 PUSH1 0x40 ADD MLOAD DUP5 PUSH1 0x60 ADD MLOAD DUP2 SWAP2 POP DUP1 SWAP1 POP SWAP6 POP SWAP6 POP SWAP6 POP POP POP POP SWAP3 POP SWAP3 POP SWAP3 JUMP JUMPDEST PUSH1 0x0 PUSH2 0x25EF CALLER PUSH2 0x3D26 JUMP JUMPDEST PUSH2 0x2661 JUMPI PUSH1 0x40 MLOAD PUSH32 0x8C379A000000000000000000000000000000000000000000000000000000000 DUP2 MSTORE PUSH1 0x4 ADD DUP1 DUP1 PUSH1 0x20 ADD DUP3 DUP2 SUB DUP3 MSTORE PUSH1 0x11 DUP2 MSTORE PUSH1 0x20 ADD DUP1 PUSH32 0x5065726D697373696F6E2064656E696564000000000000000000000000000000 DUP2 MSTORE POP PUSH1 0x20 ADD SWAP2 POP POP PUSH1 0x40 MLOAD DUP1 SWAP2 SUB SWAP1 REVERT JUMPDEST PUSH1 0x0 DUP3 EQ ISZERO PUSH2 0x2670 JUMPI PUSH1 0xC SLOAD SWAP2 POP JUMPDEST PUSH1 0xD PUSH1 0x0 PUSH1 0xC SLOAD DUP2 MSTORE PUSH1 0x20 ADD SWAP1 DUP2 MSTORE PUSH1 0x20 ADD PUSH1 0x0 KECCAK256 DUP4 DUP2 SLOAD DUP2 LT PUSH2 0x2690 JUMPI INVALID JUMPDEST SWAP1 PUSH1 0x0 MSTORE PUSH1 0x20 PUSH1 0x0 KECCAK256 ADD SLOAD SWAP1 POP SWAP3 SWAP2 POP POP JUMP JUMPDEST PUSH1 0x0 DUP1 SWAP1 POP JUMPDEST PUSH1 0x5 DUP2 LT ISZERO PUSH2 0x2783 JUMPI PUSH1 0x0 PUSH1 0x12 PUSH1 0x0 PUSH1 0xC SLOAD DUP2 MSTORE PUSH1 0x20 ADD SWAP1 DUP2 MSTORE PUSH1 0x20 ADD PUSH1 0x0 KECCAK256 PUSH1 0x0 DUP8 PUSH20 0xFFFFFFFFFFFFFFFFFFFFFFFFFFFFFFFFFFFFFFFF AND PUSH20 0xFFFFFFFFFFFFFFFFFFFFFFFFFFFFFFFFFFFFFFFF AND DUP2 MSTORE PUSH1 0x20 ADD SWAP1 DUP2 MSTORE PUSH1 0x20 ADD PUSH1 0x0 KECCAK256 PUSH1 0x0 PUSH2 0x271B DUP5 DUP8 PUSH2 0x4CB4 SWAP1 SWAP2 SWAP1 PUSH4 0xFFFFFFFF AND JUMP JUMPDEST DUP2 MSTORE PUSH1 0x20 ADD SWAP1 DUP2 MSTORE PUSH1 0x20 ADD PUSH1 0x0 KECCAK256 SWAP1 POP PUSH1 0x1 DUP4 EQ ISZERO PUSH2 0x2747 JUMPI DUP5 DUP2 PUSH1 0x0 ADD PUSH1 0x0 DUP3 DUP3 SLOAD ADD SWAP3 POP POP DUP2 SWAP1 SSTORE POP JUMPDEST PUSH1 0x2 DUP4 EQ ISZERO PUSH2 0x2763 JUMPI DUP5 DUP2 PUSH1 0x1 ADD PUSH1 0x0 DUP3 DUP3 SLOAD ADD SWAP3 POP POP DUP2 SWAP1 SSTORE POP JUMPDEST DUP5 DUP2 PUSH1 0x2 ADD PUSH1 0x0 DUP3 DUP3 SLOAD ADD SWAP3 POP POP DUP2 SWAP1 SSTORE POP POP DUP1 DUP1 PUSH1 0x1 ADD SWAP2 POP POP PUSH2 0x26A9 JUMP JUMPDEST POP POP POP POP POP JUMP JUMPDEST PUSH2 0x2792 PUSH2 0x37DD JUMP JUMPDEST PUSH2 0x2804 JUMPI PUSH1 0x40 MLOAD PUSH32 0x8C379A000000000000000000000000000000000000000000000000000000000 DUP2 MSTORE PUSH1 0x4 ADD DUP1 DUP1 PUSH1 0x20 ADD DUP3 DUP2 SUB DUP3 MSTORE PUSH1 0x20 DUP2 MSTORE PUSH1 0x20 ADD DUP1 PUSH32 0x4F776E61626C653A2063616C6C6572206973206E6F7420746865206F776E6572 DUP2 MSTORE POP PUSH1 0x20 ADD SWAP2 POP POP PUSH1 0x40 MLOAD DUP1 SWAP2 SUB SWAP1 REVERT JUMPDEST PUSH1 0x1 PUSH1 0x17 SLOAD EQ PUSH2 0x287C JUMPI PUSH1 0x40 MLOAD PUSH32 0x8C379A000000000000000000000000000000000000000000000000000000000 DUP2 MSTORE PUSH1 0x4 ADD DUP1 DUP1 PUSH1 0x20 ADD DUP3 DUP2 SUB DUP3 MSTORE PUSH1 0x17 DUP2 MSTORE PUSH1 0x20 ADD DUP1 PUSH32 0x7665727964616E6765726F75732C206C696D6974656421000000000000000000 DUP2 MSTORE POP PUSH1 0x20 ADD SWAP2 POP POP PUSH1 0x40 MLOAD DUP1 SWAP2 SUB SWAP1 REVERT JUMPDEST TIMESTAMP DUP2 GT PUSH2 0x28F1 JUMPI PUSH1 0x40 MLOAD PUSH32 0x8C379A000000000000000000000000000000000000000000000000000000000 DUP2 MSTORE PUSH1 0x4 ADD DUP1 DUP1 PUSH1 0x20 ADD DUP3 DUP2 SUB DUP3 MSTORE PUSH1 0x11 DUP2 MSTORE PUSH1 0x20 ADD DUP1 PUSH32 0x6E6F2C207665727964616E6765726F7573000000000000000000000000000000 DUP2 MSTORE POP PUSH1 0x20 ADD SWAP2 POP POP PUSH1 0x40 MLOAD DUP1 SWAP2 SUB SWAP1 REVERT JUMPDEST DUP1 PUSH1 0x6 DUP2 SWAP1 SSTORE POP PUSH1 0x0 PUSH1 0x17 DUP2 SWAP1 SSTORE POP POP JUMP JUMPDEST PUSH1 0x0 DUP1 PUSH1 0x10 DUP4 PUSH1 0x40 MLOAD DUP1 DUP3 DUP1 MLOAD SWAP1 PUSH1 0x20 ADD SWAP1 DUP1 DUP4 DUP4 JUMPDEST PUSH1 0x20 DUP4 LT PUSH2 0x293C JUMPI DUP1 MLOAD DUP3 MSTORE PUSH1 0x20 DUP3 ADD SWAP2 POP PUSH1 0x20 DUP2 ADD SWAP1 POP PUSH1 0x20 DUP4 SUB SWAP3 POP PUSH2 0x2919 JUMP JUMPDEST PUSH1 0x1 DUP4 PUSH1 0x20 SUB PUSH2 0x100 EXP SUB DUP1 NOT DUP3 MLOAD AND DUP2 DUP5 MLOAD AND DUP1 DUP3 OR DUP6 MSTORE POP POP POP POP POP POP SWAP1 POP ADD SWAP2 POP POP SWAP1 DUP2 MSTORE PUSH1 0x20 ADD PUSH1 0x40 MLOAD DUP1 SWAP2 SUB SWAP1 KECCAK256 PUSH1 0x0 SWAP1 SLOAD SWAP1 PUSH2 0x100 EXP SWAP1 DIV PUSH20 0xFFFFFFFFFFFFFFFFFFFFFFFFFFFFFFFFFFFFFFFF AND SWAP1 POP PUSH1 0x0 DUP2 PUSH20 0xFFFFFFFFFFFFFFFFFFFFFFFFFFFFFFFFFFFFFFFF AND EQ ISZERO SWAP2 POP POP SWAP2 SWAP1 POP JUMP JUMPDEST PUSH2 0x29BD PUSH2 0x37DD JUMP JUMPDEST PUSH2 0x2A2F JUMPI PUSH1 0x40 MLOAD PUSH32 0x8C379A000000000000000000000000000000000000000000000000000000000 DUP2 MSTORE PUSH1 0x4 ADD DUP1 DUP1 PUSH1 0x20 ADD DUP3 DUP2 SUB DUP3 MSTORE PUSH1 0x20 DUP2 MSTORE PUSH1 0x20 ADD DUP1 PUSH32 0x4F776E61626C653A2063616C6C6572206973206E6F7420746865206F776E6572 DUP2 MSTORE POP PUSH1 0x20 ADD SWAP2 POP POP PUSH1 0x40 MLOAD DUP1 SWAP2 SUB SWAP1 REVERT JUMPDEST PUSH2 0x2A43 DUP2 PUSH1 0x2 PUSH2 0x515E SWAP1 SWAP2 SWAP1 PUSH4 0xFFFFFFFF AND JUMP JUMPDEST POP JUMP JUMPDEST PUSH2 0x2A4E PUSH2 0x37DD JUMP JUMPDEST PUSH2 0x2AC0 JUMPI PUSH1 0x40 MLOAD PUSH32 0x8C379A000000000000000000000000000000000000000000000000000000000 DUP2 MSTORE PUSH1 0x4 ADD DUP1 DUP1 PUSH1 0x20 ADD DUP3 DUP2 SUB DUP3 MSTORE PUSH1 0x20 DUP2 MSTORE PUSH1 0x20 ADD DUP1 PUSH32 0x4F776E61626C653A2063616C6C6572206973206E6F7420746865206F776E6572 DUP2 MSTORE POP PUSH1 0x20 ADD SWAP2 POP POP PUSH1 0x40 MLOAD DUP1 SWAP2 SUB SWAP1 REVERT JUMPDEST PUSH2 0x2AD4 DUP2 PUSH1 0x2 PUSH2 0x521B SWAP1 SWAP2 SWAP1 PUSH4 0xFFFFFFFF AND JUMP JUMPDEST POP JUMP JUMPDEST PUSH2 0x2ADF PUSH2 0x37DD JUMP JUMPDEST PUSH2 0x2B51 JUMPI PUSH1 0x40 MLOAD PUSH32 0x8C379A000000000000000000000000000000000000000000000000000000000 DUP2 MSTORE PUSH1 0x4 ADD DUP1 DUP1 PUSH1 0x20 ADD DUP3 DUP2 SUB DUP3 MSTORE PUSH1 0x20 DUP2 MSTORE PUSH1 0x20 ADD DUP1 PUSH32 0x4F776E61626C653A2063616C6C6572206973206E6F7420746865206F776E6572 DUP2 MSTORE POP PUSH1 0x20 ADD SWAP2 POP POP PUSH1 0x40 MLOAD DUP1 SWAP2 SUB SWAP1 REVERT JUMPDEST PUSH8 0xDE0B6B3A7640000 SELFBALANCE LT PUSH2 0x2BB1 JUMPI PUSH1 0x40 MLOAD PUSH32 0x8C379A000000000000000000000000000000000000000000000000000000000 DUP2 MSTORE PUSH1 0x4 ADD DUP1 DUP1 PUSH1 0x20 ADD DUP3 DUP2 SUB DUP3 MSTORE PUSH1 0x2B DUP2 MSTORE PUSH1 0x20 ADD DUP1 PUSH2 0x5AE5 PUSH1 0x2B SWAP2 CODECOPY PUSH1 0x40 ADD SWAP2 POP POP PUSH1 0x40 MLOAD DUP1 SWAP2 SUB SWAP1 REVERT JUMPDEST PUSH1 0xC PUSH1 0x0 DUP2 SLOAD DUP1 SWAP3 SWAP2 SWAP1 PUSH1 0x1 ADD SWAP2 SWAP1 POP SSTORE POP PUSH2 0x2C02 PUSH3 0x15180 PUSH2 0x2BF4 PUSH3 0x15180 PUSH2 0x2BE6 PUSH1 0xA SLOAD TIMESTAMP PUSH2 0x4CB4 SWAP1 SWAP2 SWAP1 PUSH4 0xFFFFFFFF AND JUMP JUMPDEST PUSH2 0x499E SWAP1 SWAP2 SWAP1 PUSH4 0xFFFFFFFF AND JUMP JUMPDEST PUSH2 0x4A2D SWAP1 SWAP2 SWAP1 PUSH4 0xFFFFFFFF AND JUMP JUMPDEST PUSH1 0x6 DUP2 SWAP1 SSTORE POP PUSH1 0x1 PUSH1 0x17 DUP2 SWAP1 SSTORE POP JUMP JUMPDEST PUSH2 0x2C22 PUSH2 0x2C1D PUSH2 0x52F6 JUMP JUMPDEST PUSH2 0x3D26 JUMP JUMPDEST DUP1 PUSH2 0x2C31 JUMPI POP PUSH2 0x2C30 PUSH2 0x37DD JUMP JUMPDEST JUMPDEST PUSH2 0x2C86 JUMPI PUSH1 0x40 MLOAD PUSH32 0x8C379A000000000000000000000000000000000000000000000000000000000 DUP2 MSTORE PUSH1 0x4 ADD DUP1 DUP1 PUSH1 0x20 ADD DUP3 DUP2 SUB DUP3 MSTORE PUSH1 0x40 DUP2 MSTORE PUSH1 0x20 ADD DUP1 PUSH2 0x5BA2 PUSH1 0x40 SWAP2 CODECOPY PUSH1 0x40 ADD SWAP2 POP POP PUSH1 0x40 MLOAD DUP1 SWAP2 SUB SWAP1 REVERT JUMPDEST PUSH1 0x0 DUP3 SWAP1 POP JUMPDEST DUP2 DUP2 GT PUSH2 0x3505 JUMPI PUSH1 0x0 PUSH1 0x11 PUSH1 0x0 DUP4 DUP2 MSTORE PUSH1 0x20 ADD SWAP1 DUP2 MSTORE PUSH1 0x20 ADD PUSH1 0x0 KECCAK256 PUSH1 0x0 SWAP1 SLOAD SWAP1 PUSH2 0x100 EXP SWAP1 DIV PUSH20 0xFFFFFFFFFFFFFFFFFFFFFFFFFFFFFFFFFFFFFFFF AND SWAP1 POP PUSH1 0x0 PUSH1 0xE PUSH1 0x0 PUSH1 0xC SLOAD DUP2 MSTORE PUSH1 0x20 ADD SWAP1 DUP2 MSTORE PUSH1 0x20 ADD PUSH1 0x0 KECCAK256 PUSH1 0x0 DUP4 PUSH20 0xFFFFFFFFFFFFFFFFFFFFFFFFFFFFFFFFFFFFFFFF AND PUSH20 0xFFFFFFFFFFFFFFFFFFFFFFFFFFFFFFFFFFFFFFFF AND DUP2 MSTORE PUSH1 0x20 ADD SWAP1 DUP2 MSTORE PUSH1 0x20 ADD PUSH1 0x0 KECCAK256 SWAP1 POP PUSH2 0x2D29 PUSH2 0x5946 JUMP JUMPDEST PUSH1 0xF PUSH1 0x0 DUP5 PUSH20 0xFFFFFFFFFFFFFFFFFFFFFFFFFFFFFFFFFFFFFFFF AND PUSH20 0xFFFFFFFFFFFFFFFFFFFFFFFFFFFFFFFFFFFFFFFF AND DUP2 MSTORE PUSH1 0x20 ADD SWAP1 DUP2 MSTORE PUSH1 0x20 ADD PUSH1 0x0 KECCAK256 PUSH1 0x40 MLOAD DUP1 PUSH1 0xA0 ADD PUSH1 0x40 MSTORE SWAP1 DUP2 PUSH1 0x0 DUP3 ADD SLOAD DUP2 MSTORE PUSH1 0x20 ADD PUSH1 0x1 DUP3 ADD PUSH1 0x0 SWAP1 SLOAD SWAP1 PUSH2 0x100 EXP SWAP1 DIV PUSH20 0xFFFFFFFFFFFFFFFFFFFFFFFFFFFFFFFFFFFFFFFF AND PUSH20 0xFFFFFFFFFFFFFFFFFFFFFFFFFFFFFFFFFFFFFFFF AND PUSH20 0xFFFFFFFFFFFFFFFFFFFFFFFFFFFFFFFFFFFFFFFF AND DUP2 MSTORE PUSH1 0x20 ADD PUSH1 0x2 DUP3 ADD DUP1 SLOAD PUSH1 0x1 DUP2 PUSH1 0x1 AND ISZERO PUSH2 0x100 MUL SUB AND PUSH1 0x2 SWAP1 DIV DUP1 PUSH1 0x1F ADD PUSH1 0x20 DUP1 SWAP2 DIV MUL PUSH1 0x20 ADD PUSH1 0x40 MLOAD SWAP1 DUP2 ADD PUSH1 0x40 MSTORE DUP1 SWAP3 SWAP2 SWAP1 DUP2 DUP2 MSTORE PUSH1 0x20 ADD DUP3 DUP1 SLOAD PUSH1 0x1 DUP2 PUSH1 0x1 AND ISZERO PUSH2 0x100 MUL SUB AND PUSH1 0x2 SWAP1 DIV DUP1 ISZERO PUSH2 0x2E6C JUMPI DUP1 PUSH1 0x1F LT PUSH2 0x2E41 JUMPI PUSH2 0x100 DUP1 DUP4 SLOAD DIV MUL DUP4 MSTORE SWAP2 PUSH1 0x20 ADD SWAP2 PUSH2 0x2E6C JUMP JUMPDEST DUP3 ADD SWAP2 SWAP1 PUSH1 0x0 MSTORE PUSH1 0x20 PUSH1 0x0 KECCAK256 SWAP1 JUMPDEST DUP2 SLOAD DUP2 MSTORE SWAP1 PUSH1 0x1 ADD SWAP1 PUSH1 0x20 ADD DUP1 DUP4 GT PUSH2 0x2E4F JUMPI DUP3 SWAP1 SUB PUSH1 0x1F AND DUP3 ADD SWAP2 JUMPDEST POP POP POP POP POP DUP2 MSTORE PUSH1 0x20 ADD PUSH1 0x3 DUP3 ADD DUP1 SLOAD PUSH1 0x1 DUP2 PUSH1 0x1 AND ISZERO PUSH2 0x100 MUL SUB AND PUSH1 0x2 SWAP1 DIV DUP1 PUSH1 0x1F ADD PUSH1 0x20 DUP1 SWAP2 DIV MUL PUSH1 0x20 ADD PUSH1 0x40 MLOAD SWAP1 DUP2 ADD PUSH1 0x40 MSTORE DUP1 SWAP3 SWAP2 SWAP1 DUP2 DUP2 MSTORE PUSH1 0x20 ADD DUP3 DUP1 SLOAD PUSH1 0x1 DUP2 PUSH1 0x1 AND ISZERO PUSH2 0x100 MUL SUB AND PUSH1 0x2 SWAP1 DIV DUP1 ISZERO PUSH2 0x2F0E JUMPI DUP1 PUSH1 0x1F LT PUSH2 0x2EE3 JUMPI PUSH2 0x100 DUP1 DUP4 SLOAD DIV MUL DUP4 MSTORE SWAP2 PUSH1 0x20 ADD SWAP2 PUSH2 0x2F0E JUMP JUMPDEST DUP3 ADD SWAP2 SWAP1 PUSH1 0x0 MSTORE PUSH1 0x20 PUSH1 0x0 KECCAK256 SWAP1 JUMPDEST DUP2 SLOAD DUP2 MSTORE SWAP1 PUSH1 0x1 ADD SWAP1 PUSH1 0x20 ADD DUP1 DUP4 GT PUSH2 0x2EF1 JUMPI DUP3 SWAP1 SUB PUSH1 0x1F AND DUP3 ADD SWAP2 JUMPDEST POP POP POP POP POP DUP2 MSTORE PUSH1 0x20 ADD PUSH1 0x4 DUP3 ADD SLOAD DUP2 MSTORE POP POP SWAP1 POP PUSH2 0xA8C0 PUSH2 0x2F3D DUP4 PUSH1 0xF ADD SLOAD TIMESTAMP PUSH2 0x52FE SWAP1 SWAP2 SWAP1 PUSH4 0xFFFFFFFF AND JUMP JUMPDEST GT PUSH2 0x2F4A JUMPI POP POP POP PUSH2 0x34F8 JUMP JUMPDEST TIMESTAMP DUP3 PUSH1 0xF ADD DUP2 SWAP1 SSTORE POP PUSH1 0x1 DUP2 PUSH1 0x80 ADD MLOAD EQ ISZERO PUSH2 0x2F88 JUMPI PUSH2 0x2F78 PUSH1 0x1 DUP4 PUSH1 0xE ADD SLOAD PUSH2 0x4CB4 SWAP1 SWAP2 SWAP1 PUSH4 0xFFFFFFFF AND JUMP JUMPDEST DUP3 PUSH1 0xE ADD DUP2 SWAP1 SSTORE POP POP POP POP PUSH2 0x34F8 JUMP JUMPDEST PUSH1 0x0 DUP1 SWAP1 POP PUSH1 0x0 DUP4 PUSH1 0x0 ADD SLOAD EQ ISZERO DUP1 ISZERO PUSH2 0x2FAE JUMPI POP PUSH8 0xDE0B6B3A7640000 DUP4 PUSH1 0x3 ADD SLOAD LT ISZERO JUMPDEST DUP1 ISZERO PUSH2 0x2FC0 JUMPI POP PUSH1 0x13 SLOAD DUP4 PUSH1 0x3 ADD SLOAD GT ISZERO JUMPDEST ISZERO PUSH2 0x3062 JUMPI PUSH1 0x5 DUP4 PUSH1 0xB ADD SLOAD LT ISZERO PUSH2 0x301F JUMPI DUP3 PUSH1 0x6 ADD SLOAD DUP2 ADD SWAP1 POP PUSH2 0x2FF2 DUP2 DUP5 PUSH1 0x7 ADD SLOAD PUSH2 0x4CB4 SWAP1 SWAP2 SWAP1 PUSH4 0xFFFFFFFF AND JUMP JUMPDEST DUP4 PUSH1 0x7 ADD DUP2 SWAP1 SSTORE POP PUSH2 0x3012 PUSH1 0x1 DUP5 PUSH1 0xB ADD SLOAD PUSH2 0x4CB4 SWAP1 SWAP2 SWAP1 PUSH4 0xFFFFFFFF AND JUMP JUMPDEST DUP4 PUSH1 0xB ADD DUP2 SWAP1 SSTORE POP PUSH2 0x3061 JUMP JUMPDEST PUSH2 0x303A DUP4 PUSH1 0x3 ADD SLOAD DUP5 PUSH1 0x2 ADD SLOAD PUSH2 0x4CB4 SWAP1 SWAP2 SWAP1 PUSH4 0xFFFFFFFF AND JUMP JUMPDEST DUP4 PUSH1 0x2 ADD DUP2 SWAP1 SSTORE POP PUSH1 0x0 DUP4 PUSH1 0x3 ADD DUP2 SWAP1 SSTORE POP PUSH1 0x0 DUP4 PUSH1 0x6 ADD DUP2 SWAP1 SSTORE POP PUSH1 0x0 DUP4 PUSH1 0x8 ADD DUP2 SWAP1 SSTORE POP JUMPDEST JUMPDEST PUSH1 0x0 PUSH2 0x3095 DUP5 PUSH1 0x4 ADD SLOAD PUSH2 0x3087 DUP7 PUSH1 0x2 ADD SLOAD DUP8 PUSH1 0x3 ADD SLOAD PUSH2 0x4CB4 SWAP1 SWAP2 SWAP1 PUSH4 0xFFFFFFFF AND JUMP JUMPDEST PUSH2 0x4CB4 SWAP1 SWAP2 SWAP1 PUSH4 0xFFFFFFFF AND JUMP JUMPDEST SWAP1 POP PUSH8 0xDE0B6B3A7640000 DUP2 LT DUP1 PUSH2 0x30AE JUMPI POP PUSH1 0x15 SLOAD DUP2 GT JUMPDEST ISZERO PUSH2 0x30DD JUMPI PUSH2 0x30CB PUSH1 0x1 DUP6 PUSH1 0xE ADD SLOAD PUSH2 0x4CB4 SWAP1 SWAP2 SWAP1 PUSH4 0xFFFFFFFF AND JUMP JUMPDEST DUP5 PUSH1 0xE ADD DUP2 SWAP1 SSTORE POP POP POP POP POP POP PUSH2 0x34F8 JUMP JUMPDEST PUSH1 0x0 DUP1 SWAP1 POP PUSH1 0x0 DUP5 PUSH1 0x80 ADD MLOAD EQ ISZERO PUSH2 0x33E4 JUMPI PUSH2 0x30F7 PUSH2 0x5A1E JUMP JUMPDEST PUSH1 0x12 PUSH1 0x0 PUSH1 0xC SLOAD DUP2 MSTORE PUSH1 0x20 ADD SWAP1 DUP2 MSTORE PUSH1 0x20 ADD PUSH1 0x0 KECCAK256 PUSH1 0x0 DUP9 PUSH20 0xFFFFFFFFFFFFFFFFFFFFFFFFFFFFFFFFFFFFFFFF AND PUSH20 0xFFFFFFFFFFFFFFFFFFFFFFFFFFFFFFFFFFFFFFFF AND DUP2 MSTORE PUSH1 0x20 ADD SWAP1 DUP2 MSTORE PUSH1 0x20 ADD PUSH1 0x0 KECCAK256 PUSH1 0x0 DUP8 PUSH1 0xE ADD SLOAD DUP2 MSTORE PUSH1 0x20 ADD SWAP1 DUP2 MSTORE PUSH1 0x20 ADD PUSH1 0x0 KECCAK256 PUSH1 0x40 MLOAD DUP1 PUSH1 0x60 ADD PUSH1 0x40 MSTORE SWAP1 DUP2 PUSH1 0x0 DUP3 ADD SLOAD DUP2 MSTORE PUSH1 0x20 ADD PUSH1 0x1 DUP3 ADD SLOAD DUP2 MSTORE PUSH1 0x20 ADD PUSH1 0x2 DUP3 ADD SLOAD DUP2 MSTORE POP POP SWAP1 POP PUSH2 0x31A1 PUSH1 0x1 DUP8 PUSH1 0xE ADD SLOAD PUSH2 0x4CB4 SWAP1 SWAP2 SWAP1 PUSH4 0xFFFFFFFF AND JUMP JUMPDEST DUP7 PUSH1 0xE ADD DUP2 SWAP1 SSTORE POP PUSH1 0x0 PUSH2 0x31C0 PUSH1 0x3 SLOAD DUP6 PUSH2 0x499E SWAP1 SWAP2 SWAP1 PUSH4 0xFFFFFFFF AND JUMP JUMPDEST SWAP1 POP PUSH1 0xF DUP2 LT PUSH2 0x31D8 JUMPI DUP2 PUSH1 0x40 ADD MLOAD DUP4 ADD SWAP3 POP PUSH2 0x33DD JUMP JUMPDEST PUSH1 0x1 DUP8 PUSH1 0x9 ADD SLOAD EQ DUP1 ISZERO PUSH2 0x31F4 JUMPI POP PUSH8 0xDE0B6B3A7640000 DUP5 LT ISZERO JUMPDEST DUP1 ISZERO PUSH2 0x3204 JUMPI POP PUSH1 0x0 DUP3 PUSH1 0x0 ADD MLOAD GT JUMPDEST ISZERO PUSH2 0x324B JUMPI PUSH2 0x3246 PUSH1 0x2 PUSH2 0x3238 DUP4 PUSH2 0x322A PUSH1 0xF DUP8 PUSH1 0x0 ADD MLOAD PUSH2 0x499E SWAP1 SWAP2 SWAP1 PUSH4 0xFFFFFFFF AND JUMP JUMPDEST PUSH2 0x4A2D SWAP1 SWAP2 SWAP1 PUSH4 0xFFFFFFFF AND JUMP JUMPDEST PUSH2 0x499E SWAP1 SWAP2 SWAP1 PUSH4 0xFFFFFFFF AND JUMP JUMPDEST DUP4 ADD SWAP3 POP JUMPDEST PUSH1 0x2 DUP8 PUSH1 0x9 ADD SLOAD EQ DUP1 ISZERO PUSH2 0x3267 JUMPI POP PUSH8 0x53444835EC580000 DUP5 LT ISZERO JUMPDEST DUP1 ISZERO PUSH2 0x3286 JUMPI POP PUSH1 0x0 DUP3 PUSH1 0x0 ADD MLOAD GT DUP1 PUSH2 0x3285 JUMPI POP PUSH1 0x0 DUP3 PUSH1 0x20 ADD MLOAD GT JUMPDEST JUMPDEST ISZERO PUSH2 0x3334 JUMPI PUSH2 0x32DB PUSH1 0xA PUSH2 0x32CD PUSH1 0x7 PUSH2 0x32BF DUP6 PUSH2 0x32B1 PUSH1 0xF DUP10 PUSH1 0x0 ADD MLOAD PUSH2 0x499E SWAP1 SWAP2 SWAP1 PUSH4 0xFFFFFFFF AND JUMP JUMPDEST PUSH2 0x4A2D SWAP1 SWAP2 SWAP1 PUSH4 0xFFFFFFFF AND JUMP JUMPDEST PUSH2 0x4A2D SWAP1 SWAP2 SWAP1 PUSH4 0xFFFFFFFF AND JUMP JUMPDEST PUSH2 0x499E SWAP1 SWAP2 SWAP1 PUSH4 0xFFFFFFFF AND JUMP JUMPDEST DUP4 ADD SWAP3 POP PUSH2 0x332F PUSH1 0x7 PUSH2 0x3321 PUSH1 0x5 PUSH2 0x3313 DUP6 PUSH2 0x3305 PUSH1 0xF DUP10 PUSH1 0x20 ADD MLOAD PUSH2 0x499E SWAP1 SWAP2 SWAP1 PUSH4 0xFFFFFFFF AND JUMP JUMPDEST PUSH2 0x4A2D SWAP1 SWAP2 SWAP1 PUSH4 0xFFFFFFFF AND JUMP JUMPDEST PUSH2 0x4A2D SWAP1 SWAP2 SWAP1 PUSH4 0xFFFFFFFF AND JUMP JUMPDEST PUSH2 0x499E SWAP1 SWAP2 SWAP1 PUSH4 0xFFFFFFFF AND JUMP JUMPDEST DUP4 ADD SWAP3 POP JUMPDEST PUSH1 0x3 DUP8 PUSH1 0x9 ADD SLOAD EQ DUP1 ISZERO PUSH2 0x3350 JUMPI POP PUSH8 0x98A7D9B8314C0000 DUP5 LT ISZERO JUMPDEST DUP1 ISZERO PUSH2 0x3360 JUMPI POP PUSH1 0x0 DUP3 PUSH1 0x40 ADD MLOAD GT JUMPDEST ISZERO PUSH2 0x3394 JUMPI PUSH2 0x338F DUP2 PUSH2 0x3381 PUSH1 0xF DUP6 PUSH1 0x40 ADD MLOAD PUSH2 0x499E SWAP1 SWAP2 SWAP1 PUSH4 0xFFFFFFFF AND JUMP JUMPDEST PUSH2 0x4A2D SWAP1 SWAP2 SWAP1 PUSH4 0xFFFFFFFF AND JUMP JUMPDEST DUP4 ADD SWAP3 POP JUMPDEST PUSH1 0x3 DUP8 PUSH1 0x9 ADD SLOAD LT ISZERO PUSH2 0x33DC JUMPI PUSH1 0x0 PUSH2 0x33B0 DUP9 PUSH1 0x9 ADD SLOAD PUSH2 0x442B JUMP JUMPDEST SWAP1 POP PUSH2 0x33D8 PUSH1 0xA PUSH2 0x33CA DUP4 DUP8 PUSH2 0x4A2D SWAP1 SWAP2 SWAP1 PUSH4 0xFFFFFFFF AND JUMP JUMPDEST PUSH2 0x499E SWAP1 SWAP2 SWAP1 PUSH4 0xFFFFFFFF AND JUMP JUMPDEST SWAP4 POP POP JUMPDEST JUMPDEST POP POP PUSH2 0x3413 JUMP JUMPDEST PUSH1 0x2 DUP5 PUSH1 0x80 ADD MLOAD EQ ISZERO PUSH2 0x3412 JUMPI PUSH2 0x3409 PUSH1 0x1 DUP7 PUSH1 0xE ADD SLOAD PUSH2 0x4CB4 SWAP1 SWAP2 SWAP1 PUSH4 0xFFFFFFFF AND JUMP JUMPDEST DUP6 PUSH1 0xE ADD DUP2 SWAP1 SSTORE POP JUMPDEST JUMPDEST PUSH1 0x14 SLOAD PUSH2 0x3429 DUP3 DUP6 PUSH2 0x4CB4 SWAP1 SWAP2 SWAP1 PUSH4 0xFFFFFFFF AND JUMP JUMPDEST GT PUSH2 0x34F1 JUMPI PUSH2 0x3445 DUP2 DUP7 PUSH1 0x5 ADD SLOAD PUSH2 0x4CB4 SWAP1 SWAP2 SWAP1 PUSH4 0xFFFFFFFF AND JUMP JUMPDEST DUP6 PUSH1 0x5 ADD DUP2 SWAP1 SSTORE POP PUSH1 0x0 DUP1 SWAP1 POP PUSH1 0x0 DUP1 SWAP1 POP PUSH2 0x3472 PUSH2 0x346D DUP5 DUP8 PUSH2 0x4CB4 SWAP1 SWAP2 SWAP1 PUSH4 0xFFFFFFFF AND JUMP JUMPDEST PUSH2 0x5387 JUMP JUMPDEST DUP1 SWAP3 POP DUP2 SWAP4 POP POP POP PUSH1 0x0 DUP2 GT ISZERO PUSH2 0x34EE JUMPI PUSH1 0x0 PUSH2 0x3499 PUSH1 0xA DUP4 PUSH2 0x499E SWAP1 SWAP2 SWAP1 PUSH4 0xFFFFFFFF AND JUMP JUMPDEST SWAP1 POP PUSH2 0x34C7 PUSH1 0x5 PUSH1 0x0 SWAP1 SLOAD SWAP1 PUSH2 0x100 EXP SWAP1 DIV PUSH20 0xFFFFFFFFFFFFFFFFFFFFFFFFFFFFFFFFFFFFFFFF AND DUP3 PUSH2 0x53AA JUMP JUMPDEST PUSH2 0x34DA DUP2 DUP4 PUSH2 0x52FE SWAP1 SWAP2 SWAP1 PUSH4 0xFFFFFFFF AND JUMP JUMPDEST SWAP2 POP PUSH1 0x0 DUP10 SWAP1 POP PUSH2 0x34EB DUP2 DUP5 PUSH2 0x53AA JUMP JUMPDEST POP POP JUMPDEST POP POP JUMPDEST POP POP POP POP POP POP JUMPDEST DUP1 DUP1 PUSH1 0x1 ADD SWAP2 POP POP PUSH2 0x2C8C JUMP JUMPDEST POP POP POP JUMP JUMPDEST PUSH1 0x0 DUP1 PUSH1 0x0 DUP1 PUSH1 0x0 DUP1 PUSH1 0x0 DUP1 PUSH1 0x0 DUP1 PUSH1 0x0 DUP1 PUSH1 0xC SLOAD PUSH1 0xB SLOAD PUSH1 0x6 SLOAD PUSH1 0x8 PUSH1 0x0 PUSH1 0xC SLOAD DUP2 MSTORE PUSH1 0x20 ADD SWAP1 DUP2 MSTORE PUSH1 0x20 ADD PUSH1 0x0 KECCAK256 SLOAD PUSH1 0x9 PUSH1 0x0 PUSH1 0xC SLOAD DUP2 MSTORE PUSH1 0x20 ADD SWAP1 DUP2 MSTORE PUSH1 0x20 ADD PUSH1 0x0 KECCAK256 SLOAD PUSH1 0x13 SLOAD PUSH1 0x14 SLOAD PUSH1 0x15 SLOAD PUSH1 0x16 SLOAD PUSH1 0x7 SLOAD PUSH1 0xD PUSH1 0x0 PUSH1 0xC SLOAD DUP2 MSTORE PUSH1 0x20 ADD SWAP1 DUP2 MSTORE PUSH1 0x20 ADD PUSH1 0x0 KECCAK256 DUP1 SLOAD SWAP1 POP PUSH1 0x17 SLOAD SWAP12 POP SWAP12 POP SWAP12 POP SWAP12 POP SWAP12 POP SWAP12 POP SWAP12 POP SWAP12 POP SWAP12 POP SWAP12 POP SWAP12 POP SWAP12 POP SWAP1 SWAP2 SWAP3 SWAP4 SWAP5 SWAP6 SWAP7 SWAP8 SWAP9 SWAP10 SWAP11 SWAP12 JUMP JUMPDEST PUSH1 0x0 DUP1 SLOAD PUSH1 0x1 MUL DUP3 LT ISZERO DUP1 ISZERO PUSH2 0x35BD JUMPI POP PUSH1 0x0 SLOAD PUSH1 0x5 MUL DUP3 GT ISZERO JUMPDEST ISZERO PUSH2 0x35CB JUMPI PUSH1 0x1 SWAP1 POP PUSH2 0x3620 JUMP JUMPDEST PUSH1 0x0 SLOAD PUSH1 0x6 MUL DUP3 LT ISZERO DUP1 ISZERO PUSH2 0x35E5 JUMPI POP PUSH1 0x0 SLOAD PUSH1 0xA MUL DUP3 GT ISZERO JUMPDEST ISZERO PUSH2 0x35F3 JUMPI PUSH1 0x2 SWAP1 POP PUSH2 0x3620 JUMP JUMPDEST PUSH1 0x0 SLOAD PUSH1 0xB MUL DUP3 LT ISZERO DUP1 ISZERO PUSH2 0x360D JUMPI POP PUSH1 0x0 SLOAD PUSH1 0xF MUL DUP3 GT ISZERO JUMPDEST ISZERO PUSH2 0x361B JUMPI PUSH1 0x3 SWAP1 POP PUSH2 0x3620 JUMP JUMPDEST PUSH1 0x0 SWAP1 POP JUMPDEST SWAP2 SWAP1 POP JUMP JUMPDEST PUSH1 0x0 DUP2 PUSH1 0x40 MLOAD PUSH1 0x20 ADD DUP1 DUP3 DUP1 MLOAD SWAP1 PUSH1 0x20 ADD SWAP1 DUP1 DUP4 DUP4 JUMPDEST PUSH1 0x20 DUP4 LT PUSH2 0x365E JUMPI DUP1 MLOAD DUP3 MSTORE PUSH1 0x20 DUP3 ADD SWAP2 POP PUSH1 0x20 DUP2 ADD SWAP1 POP PUSH1 0x20 DUP4 SUB SWAP3 POP PUSH2 0x363B JUMP JUMPDEST PUSH1 0x1 DUP4 PUSH1 0x20 SUB PUSH2 0x100 EXP SUB DUP1 NOT DUP3 MLOAD AND DUP2 DUP5 MLOAD AND DUP1 DUP3 OR DUP6 MSTORE POP POP POP POP POP POP SWAP1 POP ADD SWAP2 POP POP PUSH1 0x40 MLOAD PUSH1 0x20 DUP2 DUP4 SUB SUB DUP2 MSTORE SWAP1 PUSH1 0x40 MSTORE DUP1 MLOAD SWAP1 PUSH1 0x20 ADD KECCAK256 DUP4 PUSH1 0x40 MLOAD PUSH1 0x20 ADD DUP1 DUP3 DUP1 MLOAD SWAP1 PUSH1 0x20 ADD SWAP1 DUP1 DUP4 DUP4 JUMPDEST PUSH1 0x20 DUP4 LT PUSH2 0x36D0 JUMPI DUP1 MLOAD DUP3 MSTORE PUSH1 0x20 DUP3 ADD SWAP2 POP PUSH1 0x20 DUP2 ADD SWAP1 POP PUSH1 0x20 DUP4 SUB SWAP3 POP PUSH2 0x36AD JUMP JUMPDEST PUSH1 0x1 DUP4 PUSH1 0x20 SUB PUSH2 0x100 EXP SUB DUP1 NOT DUP3 MLOAD AND DUP2 DUP5 MLOAD AND DUP1 DUP3 OR DUP6 MSTORE POP POP POP POP POP POP SWAP1 POP ADD SWAP2 POP POP PUSH1 0x40 MLOAD PUSH1 0x20 DUP2 DUP4 SUB SUB DUP2 MSTORE SWAP1 PUSH1 0x40 MSTORE DUP1 MLOAD SWAP1 PUSH1 0x20 ADD KECCAK256 EQ ISZERO PUSH2 0x371A JUMPI PUSH1 0x1 SWAP1 POP PUSH2 0x371F JUMP JUMPDEST PUSH1 0x0 SWAP1 POP JUMPDEST SWAP3 SWAP2 POP POP JUMP JUMPDEST PUSH1 0x0 PUSH2 0x3730 CALLER PUSH2 0x3D26 JUMP JUMPDEST PUSH2 0x37A2 JUMPI PUSH1 0x40 MLOAD PUSH32 0x8C379A000000000000000000000000000000000000000000000000000000000 DUP2 MSTORE PUSH1 0x4 ADD DUP1 DUP1 PUSH1 0x20 ADD DUP3 DUP2 SUB DUP3 MSTORE PUSH1 0x11 DUP2 MSTORE PUSH1 0x20 ADD DUP1 PUSH32 0x5065726D697373696F6E2064656E696564000000000000000000000000000000 DUP2 MSTORE POP PUSH1 0x20 ADD SWAP2 POP POP PUSH1 0x40 MLOAD DUP1 SWAP2 SUB SWAP1 REVERT JUMPDEST PUSH1 0x11 PUSH1 0x0 DUP4 DUP2 MSTORE PUSH1 0x20 ADD SWAP1 DUP2 MSTORE PUSH1 0x20 ADD PUSH1 0x0 KECCAK256 PUSH1 0x0 SWAP1 SLOAD SWAP1 PUSH2 0x100 EXP SWAP1 DIV PUSH20 0xFFFFFFFFFFFFFFFFFFFFFFFFFFFFFFFFFFFFFFFF AND SWAP1 POP SWAP2 SWAP1 POP JUMP JUMPDEST PUSH1 0x0 PUSH1 0x1 PUSH1 0x0 SWAP1 SLOAD SWAP1 PUSH2 0x100 EXP SWAP1 DIV PUSH20 0xFFFFFFFFFFFFFFFFFFFFFFFFFFFFFFFFFFFFFFFF AND PUSH20 0xFFFFFFFFFFFFFFFFFFFFFFFFFFFFFFFFFFFFFFFF AND PUSH2 0x3820 PUSH2 0x52F6 JUMP JUMPDEST PUSH20 0xFFFFFFFFFFFFFFFFFFFFFFFFFFFFFFFFFFFFFFFF AND EQ SWAP1 POP SWAP1 JUMP JUMPDEST PUSH2 0x384C PUSH2 0x3847 PUSH2 0x52F6 JUMP JUMPDEST PUSH2 0x3D26 JUMP JUMPDEST DUP1 PUSH2 0x385B JUMPI POP PUSH2 0x385A PUSH2 0x37DD JUMP JUMPDEST JUMPDEST PUSH2 0x38B0 JUMPI PUSH1 0x40 MLOAD PUSH32 0x8C379A000000000000000000000000000000000000000000000000000000000 DUP2 MSTORE PUSH1 0x4 ADD DUP1 DUP1 PUSH1 0x20 ADD DUP3 DUP2 SUB DUP3 MSTORE PUSH1 0x40 DUP2 MSTORE PUSH1 0x20 ADD DUP1 PUSH2 0x5BA2 PUSH1 0x40 SWAP2 CODECOPY PUSH1 0x40 ADD SWAP2 POP POP PUSH1 0x40 MLOAD DUP1 SWAP2 SUB SWAP1 REVERT JUMPDEST PUSH1 0x0 DUP2 EQ DUP1 PUSH2 0x38BF JUMPI POP PUSH1 0x1 DUP2 EQ JUMPDEST DUP1 PUSH2 0x38CA JUMPI POP PUSH1 0x2 DUP2 EQ JUMPDEST PUSH2 0x393C JUMPI PUSH1 0x40 MLOAD PUSH32 0x8C379A000000000000000000000000000000000000000000000000000000000 DUP2 MSTORE PUSH1 0x4 ADD DUP1 DUP1 PUSH1 0x20 ADD DUP3 DUP2 SUB DUP3 MSTORE PUSH1 0x14 DUP2 MSTORE PUSH1 0x20 ADD DUP1 PUSH32 0x62616420706172616D6574657220737461747573000000000000000000000000 DUP2 MSTORE POP PUSH1 0x20 ADD SWAP2 POP POP PUSH1 0x40 MLOAD DUP1 SWAP2 SUB SWAP1 REVERT JUMPDEST PUSH1 0x0 PUSH1 0xF PUSH1 0x0 DUP5 PUSH20 0xFFFFFFFFFFFFFFFFFFFFFFFFFFFFFFFFFFFFFFFF AND PUSH20 0xFFFFFFFFFFFFFFFFFFFFFFFFFFFFFFFFFFFFFFFF AND DUP2 MSTORE PUSH1 0x20 ADD SWAP1 DUP2 MSTORE PUSH1 0x20 ADD PUSH1 0x0 KECCAK256 SWAP1 POP DUP2 DUP2 PUSH1 0x4 ADD DUP2 SWAP1 SSTORE POP POP POP POP JUMP JUMPDEST PUSH2 0x399D PUSH2 0x3998 PUSH2 0x52F6 JUMP JUMPDEST PUSH2 0x3D26 JUMP JUMPDEST DUP1 PUSH2 0x39AC JUMPI POP PUSH2 0x39AB PUSH2 0x37DD JUMP JUMPDEST JUMPDEST PUSH2 0x3A01 JUMPI PUSH1 0x40 MLOAD PUSH32 0x8C379A000000000000000000000000000000000000000000000000000000000 DUP2 MSTORE PUSH1 0x4 ADD DUP1 DUP1 PUSH1 0x20 ADD DUP3 DUP2 SUB DUP3 MSTORE PUSH1 0x40 DUP2 MSTORE PUSH1 0x20 ADD DUP1 PUSH2 0x5BA2 PUSH1 0x40 SWAP2 CODECOPY PUSH1 0x40 ADD SWAP2 POP POP PUSH1 0x40 MLOAD DUP1 SWAP2 SUB SWAP1 REVERT JUMPDEST DUP1 PUSH1 0x7 DUP2 SWAP1 SSTORE POP POP JUMP JUMPDEST PUSH1 0x0 PUSH2 0x3A16 CALLER PUSH2 0x3D26 JUMP JUMPDEST PUSH2 0x3A88 JUMPI PUSH1 0x40 MLOAD PUSH32 0x8C379A000000000000000000000000000000000000000000000000000000000 DUP2 MSTORE PUSH1 0x4 ADD DUP1 DUP1 PUSH1 0x20 ADD DUP3 DUP2 SUB DUP3 MSTORE PUSH1 0x11 DUP2 MSTORE PUSH1 0x20 ADD DUP1 PUSH32 0x5065726D697373696F6E2064656E696564000000000000000000000000000000 DUP2 MSTORE POP PUSH1 0x20 ADD SWAP2 POP POP PUSH1 0x40 MLOAD DUP1 SWAP2 SUB SWAP1 REVERT JUMPDEST PUSH1 0x10 DUP3 PUSH1 0x40 MLOAD DUP1 DUP3 DUP1 MLOAD SWAP1 PUSH1 0x20 ADD SWAP1 DUP1 DUP4 DUP4 JUMPDEST PUSH1 0x20 DUP4 LT PUSH2 0x3ABE JUMPI DUP1 MLOAD DUP3 MSTORE PUSH1 0x20 DUP3 ADD SWAP2 POP PUSH1 0x20 DUP2 ADD SWAP1 POP PUSH1 0x20 DUP4 SUB SWAP3 POP PUSH2 0x3A9B JUMP JUMPDEST PUSH1 0x1 DUP4 PUSH1 0x20 SUB PUSH2 0x100 EXP SUB DUP1 NOT DUP3 MLOAD AND DUP2 DUP5 MLOAD AND DUP1 DUP3 OR DUP6 MSTORE POP POP POP POP POP POP SWAP1 POP ADD SWAP2 POP POP SWAP1 DUP2 MSTORE PUSH1 0x20 ADD PUSH1 0x40 MLOAD DUP1 SWAP2 SUB SWAP1 KECCAK256 PUSH1 0x0 SWAP1 SLOAD SWAP1 PUSH2 0x100 EXP SWAP1 DIV PUSH20 0xFFFFFFFFFFFFFFFFFFFFFFFFFFFFFFFFFFFFFFFF AND SWAP1 POP SWAP2 SWAP1 POP JUMP JUMPDEST PUSH2 0x3B29 PUSH2 0x3B24 PUSH2 0x52F6 JUMP JUMPDEST PUSH2 0x3D26 JUMP JUMPDEST DUP1 PUSH2 0x3B38 JUMPI POP PUSH2 0x3B37 PUSH2 0x37DD JUMP JUMPDEST JUMPDEST PUSH2 0x3B8D JUMPI PUSH1 0x40 MLOAD PUSH32 0x8C379A000000000000000000000000000000000000000000000000000000000 DUP2 MSTORE PUSH1 0x4 ADD DUP1 DUP1 PUSH1 0x20 ADD DUP3 DUP2 SUB DUP3 MSTORE PUSH1 0x40 DUP2 MSTORE PUSH1 0x20 ADD DUP1 PUSH2 0x5BA2 PUSH1 0x40 SWAP2 CODECOPY PUSH1 0x40 ADD SWAP2 POP POP PUSH1 0x40 MLOAD DUP1 SWAP2 SUB SWAP1 REVERT JUMPDEST PUSH1 0x0 DUP4 SWAP1 POP JUMPDEST DUP3 DUP2 GT PUSH2 0x3D20 JUMPI PUSH1 0x0 DUP1 SWAP1 POP PUSH1 0x0 DUP4 EQ ISZERO PUSH2 0x3BDA JUMPI PUSH1 0xD PUSH1 0x0 PUSH1 0xC SLOAD DUP2 MSTORE PUSH1 0x20 ADD SWAP1 DUP2 MSTORE PUSH1 0x20 ADD PUSH1 0x0 KECCAK256 DUP3 DUP2 SLOAD DUP2 LT PUSH2 0x3BC8 JUMPI INVALID JUMPDEST SWAP1 PUSH1 0x0 MSTORE PUSH1 0x20 PUSH1 0x0 KECCAK256 ADD SLOAD SWAP1 POP PUSH2 0x3BDE JUMP JUMPDEST DUP2 SWAP1 POP JUMPDEST PUSH1 0x0 PUSH1 0x11 PUSH1 0x0 DUP4 DUP2 MSTORE PUSH1 0x20 ADD SWAP1 DUP2 MSTORE PUSH1 0x20 ADD PUSH1 0x0 KECCAK256 PUSH1 0x0 SWAP1 SLOAD SWAP1 PUSH2 0x100 EXP SWAP1 DIV PUSH20 0xFFFFFFFFFFFFFFFFFFFFFFFFFFFFFFFFFFFFFFFF AND SWAP1 POP PUSH1 0x0 PUSH1 0xE PUSH1 0x0 PUSH1 0xC SLOAD DUP2 MSTORE PUSH1 0x20 ADD SWAP1 DUP2 MSTORE PUSH1 0x20 ADD PUSH1 0x0 KECCAK256 PUSH1 0x0 DUP4 PUSH20 0xFFFFFFFFFFFFFFFFFFFFFFFFFFFFFFFFFFFFFFFF AND PUSH20 0xFFFFFFFFFFFFFFFFFFFFFFFFFFFFFFFFFFFFFFFF AND DUP2 MSTORE PUSH1 0x20 ADD SWAP1 DUP2 MSTORE PUSH1 0x20 ADD PUSH1 0x0 KECCAK256 SWAP1 POP PUSH1 0x0 DUP2 PUSH1 0x3 ADD SLOAD EQ DUP1 ISZERO PUSH2 0x3C8C JUMPI POP PUSH8 0xDE0B6B3A7640000 DUP2 PUSH1 0x4 ADD SLOAD LT ISZERO JUMPDEST DUP1 ISZERO PUSH2 0x3CA4 JUMPI POP PUSH8 0xD02AB486CEDC0000 DUP2 PUSH1 0x4 ADD SLOAD GT ISZERO JUMPDEST ISZERO PUSH2 0x3D10 JUMPI DUP1 PUSH1 0x4 ADD SLOAD DUP2 PUSH1 0x3 ADD DUP2 SWAP1 SSTORE POP PUSH2 0x3CC3 DUP2 PUSH1 0x3 ADD SLOAD PUSH2 0x35A2 JUMP JUMPDEST DUP2 PUSH1 0x8 ADD DUP2 SWAP1 SSTORE POP PUSH1 0x0 DUP2 PUSH1 0x4 ADD DUP2 SWAP1 SSTORE POP PUSH2 0x3CE2 DUP2 PUSH1 0x3 ADD SLOAD PUSH2 0x4D3C JUMP JUMPDEST PUSH2 0x3D0F DUP2 PUSH1 0x1 ADD PUSH1 0x0 SWAP1 SLOAD SWAP1 PUSH2 0x100 EXP SWAP1 DIV PUSH20 0xFFFFFFFFFFFFFFFFFFFFFFFFFFFFFFFFFFFFFFFF AND PUSH2 0x4DBB JUMP JUMPDEST JUMPDEST POP POP POP DUP1 DUP1 PUSH1 0x1 ADD SWAP2 POP POP PUSH2 0x3B93 JUMP JUMPDEST POP POP POP POP JUMP JUMPDEST PUSH1 0x0 PUSH2 0x3D3C DUP3 PUSH1 0x2 PUSH2 0x53FF SWAP1 SWAP2 SWAP1 PUSH4 0xFFFFFFFF AND JUMP JUMPDEST DUP1 PUSH2 0x3D4B JUMPI POP PUSH2 0x3D4A PUSH2 0x37DD JUMP JUMPDEST JUMPDEST SWAP1 POP SWAP2 SWAP1 POP JUMP JUMPDEST PUSH2 0x3D5A PUSH2 0x37DD JUMP JUMPDEST PUSH2 0x3DCC JUMPI PUSH1 0x40 MLOAD PUSH32 0x8C379A000000000000000000000000000000000000000000000000000000000 DUP2 MSTORE PUSH1 0x4 ADD DUP1 DUP1 PUSH1 0x20 ADD DUP3 DUP2 SUB DUP3 MSTORE PUSH1 0x20 DUP2 MSTORE PUSH1 0x20 ADD DUP1 PUSH32 0x4F776E61626C653A2063616C6C6572206973206E6F7420746865206F776E6572 DUP2 MSTORE POP PUSH1 0x20 ADD SWAP2 POP POP PUSH1 0x40 MLOAD DUP1 SWAP2 SUB SWAP1 REVERT JUMPDEST PUSH8 0xD02AB486CEDC0000 DUP4 LT ISZERO DUP1 ISZERO PUSH2 0x3DED JUMPI POP PUSH9 0x56BC75E2D63100000 DUP3 LT ISZERO JUMPDEST DUP1 ISZERO PUSH2 0x3E01 JUMPI POP PUSH8 0xD02AB486CEDC0000 DUP2 LT ISZERO JUMPDEST PUSH2 0x3E73 JUMPI PUSH1 0x40 MLOAD PUSH32 0x8C379A000000000000000000000000000000000000000000000000000000000 DUP2 MSTORE PUSH1 0x4 ADD DUP1 DUP1 PUSH1 0x20 ADD DUP3 DUP2 SUB DUP3 MSTORE PUSH1 0xE DUP2 MSTORE PUSH1 0x20 ADD DUP1 PUSH32 0x696E76616C696420616D6F756E74000000000000000000000000000000000000 DUP2 MSTORE POP PUSH1 0x20 ADD SWAP2 POP POP PUSH1 0x40 MLOAD DUP1 SWAP2 SUB SWAP1 REVERT JUMPDEST DUP3 PUSH1 0x13 DUP2 SWAP1 SSTORE POP DUP2 PUSH1 0x14 DUP2 SWAP1 SSTORE POP DUP1 PUSH1 0x15 DUP2 SWAP1 SSTORE POP POP POP POP JUMP JUMPDEST PUSH2 0x3E9D PUSH2 0x3E98 PUSH2 0x52F6 JUMP JUMPDEST PUSH2 0x3D26 JUMP JUMPDEST DUP1 PUSH2 0x3EAC JUMPI POP PUSH2 0x3EAB PUSH2 0x37DD JUMP JUMPDEST JUMPDEST PUSH2 0x3F01 JUMPI PUSH1 0x40 MLOAD PUSH32 0x8C379A000000000000000000000000000000000000000000000000000000000 DUP2 MSTORE PUSH1 0x4 ADD DUP1 DUP1 PUSH1 0x20 ADD DUP3 DUP2 SUB DUP3 MSTORE PUSH1 0x40 DUP2 MSTORE PUSH1 0x20 ADD DUP1 PUSH2 0x5BA2 PUSH1 0x40 SWAP2 CODECOPY PUSH1 0x40 ADD SWAP2 POP POP PUSH1 0x40 MLOAD DUP1 SWAP2 SUB SWAP1 REVERT JUMPDEST PUSH1 0x1 PUSH1 0x16 SLOAD EQ PUSH2 0x3F79 JUMPI PUSH1 0x40 MLOAD PUSH32 0x8C379A000000000000000000000000000000000000000000000000000000000 DUP2 MSTORE PUSH1 0x4 ADD DUP1 DUP1 PUSH1 0x20 ADD DUP3 DUP2 SUB DUP3 MSTORE PUSH1 0xE DUP2 MSTORE PUSH1 0x20 ADD DUP1 PUSH32 0x696D706F72742073746F70706564000000000000000000000000000000000000 DUP2 MSTORE POP PUSH1 0x20 ADD SWAP2 POP POP PUSH1 0x40 MLOAD DUP1 SWAP2 SUB SWAP1 REVERT JUMPDEST PUSH1 0x0 PUSH1 0xF PUSH1 0x0 DUP8 PUSH20 0xFFFFFFFFFFFFFFFFFFFFFFFFFFFFFFFFFFFFFFFF AND PUSH20 0xFFFFFFFFFFFFFFFFFFFFFFFFFFFFFFFFFFFFFFFF AND DUP2 MSTORE PUSH1 0x20 ADD SWAP1 DUP2 MSTORE PUSH1 0x20 ADD PUSH1 0x0 KECCAK256 SWAP1 POP PUSH1 0x0 DUP2 PUSH1 0x0 ADD SLOAD EQ PUSH2 0x4036 JUMPI PUSH1 0x40 MLOAD PUSH32 0x8C379A000000000000000000000000000000000000000000000000000000000 DUP2 MSTORE PUSH1 0x4 ADD DUP1 DUP1 PUSH1 0x20 ADD DUP3 DUP2 SUB DUP3 MSTORE PUSH1 0x13 DUP2 MSTORE PUSH1 0x20 ADD DUP1 PUSH32 0x7573657220616C72656164792065786973747300000000000000000000000000 DUP2 MSTORE POP PUSH1 0x20 ADD SWAP2 POP POP PUSH1 0x40 MLOAD DUP1 SWAP2 SUB SWAP1 REVERT JUMPDEST PUSH2 0x4093 DUP6 DUP6 DUP1 DUP1 PUSH1 0x1F ADD PUSH1 0x20 DUP1 SWAP2 DIV MUL PUSH1 0x20 ADD PUSH1 0x40 MLOAD SWAP1 DUP2 ADD PUSH1 0x40 MSTORE DUP1 SWAP4 SWAP3 SWAP2 SWAP1 DUP2 DUP2 MSTORE PUSH1 0x20 ADD DUP4 DUP4 DUP1 DUP3 DUP5 CALLDATACOPY PUSH1 0x0 DUP2 DUP5 ADD MSTORE PUSH1 0x1F NOT PUSH1 0x1F DUP3 ADD AND SWAP1 POP DUP1 DUP4 ADD SWAP3 POP POP POP POP POP POP POP PUSH1 0x40 MLOAD DUP1 PUSH1 0x20 ADD PUSH1 0x40 MSTORE DUP1 PUSH1 0x0 DUP2 MSTORE POP PUSH2 0x3625 JUMP JUMPDEST ISZERO PUSH2 0x4106 JUMPI PUSH1 0x40 MLOAD PUSH32 0x8C379A000000000000000000000000000000000000000000000000000000000 DUP2 MSTORE PUSH1 0x4 ADD DUP1 DUP1 PUSH1 0x20 ADD DUP3 DUP2 SUB DUP3 MSTORE PUSH1 0x11 DUP2 MSTORE PUSH1 0x20 ADD DUP1 PUSH32 0x656D70747920696E7669746520636F6465000000000000000000000000000000 DUP2 MSTORE POP PUSH1 0x20 ADD SWAP2 POP POP PUSH1 0x40 MLOAD DUP1 SWAP2 SUB SWAP1 REVERT JUMPDEST PUSH1 0x0 PUSH1 0xB SLOAD EQ PUSH2 0x41E1 JUMPI PUSH2 0x416D DUP4 DUP4 DUP1 DUP1 PUSH1 0x1F ADD PUSH1 0x20 DUP1 SWAP2 DIV MUL PUSH1 0x20 ADD PUSH1 0x40 MLOAD SWAP1 DUP2 ADD PUSH1 0x40 MSTORE DUP1 SWAP4 SWAP3 SWAP2 SWAP1 DUP2 DUP2 MSTORE PUSH1 0x20 ADD DUP4 DUP4 DUP1 DUP3 DUP5 CALLDATACOPY PUSH1 0x0 DUP2 DUP5 ADD MSTORE PUSH1 0x1F NOT PUSH1 0x1F DUP3 ADD AND SWAP1 POP DUP1 DUP4 ADD SWAP3 POP POP POP POP POP POP POP PUSH1 0x40 MLOAD DUP1 PUSH1 0x20 ADD PUSH1 0x40 MSTORE DUP1 PUSH1 0x0 DUP2 MSTORE POP PUSH2 0x3625 JUMP JUMPDEST ISZERO PUSH2 0x41E0 JUMPI PUSH1 0x40 MLOAD PUSH32 0x8C379A000000000000000000000000000000000000000000000000000000000 DUP2 MSTORE PUSH1 0x4 ADD DUP1 DUP1 PUSH1 0x20 ADD DUP3 DUP2 SUB DUP3 MSTORE PUSH1 0xC DUP2 MSTORE PUSH1 0x20 ADD DUP1 PUSH32 0x656D707479206265436F64650000000000000000000000000000000000000000 DUP2 MSTORE POP PUSH1 0x20 ADD SWAP2 POP POP PUSH1 0x40 MLOAD DUP1 SWAP2 SUB SWAP1 REVERT JUMPDEST JUMPDEST PUSH1 0x0 PUSH1 0x10 DUP5 DUP5 PUSH1 0x40 MLOAD DUP1 DUP4 DUP4 DUP1 DUP3 DUP5 CALLDATACOPY DUP1 DUP4 ADD SWAP3 POP POP POP SWAP3 POP POP POP SWAP1 DUP2 MSTORE PUSH1 0x20 ADD PUSH1 0x40 MLOAD DUP1 SWAP2 SUB SWAP1 KECCAK256 PUSH1 0x0 SWAP1 SLOAD SWAP1 PUSH2 0x100 EXP SWAP1 DIV PUSH20 0xFFFFFFFFFFFFFFFFFFFFFFFFFFFFFFFFFFFFFFFF AND SWAP1 POP DUP7 PUSH20 0xFFFFFFFFFFFFFFFFFFFFFFFFFFFFFFFFFFFFFFFF AND DUP2 PUSH20 0xFFFFFFFFFFFFFFFFFFFFFFFFFFFFFFFFFFFFFFFF AND EQ ISZERO PUSH2 0x42CF JUMPI PUSH1 0x40 MLOAD PUSH32 0x8C379A000000000000000000000000000000000000000000000000000000000 DUP2 MSTORE PUSH1 0x4 ADD DUP1 DUP1 PUSH1 0x20 ADD DUP3 DUP2 SUB DUP3 MSTORE PUSH1 0x18 DUP2 MSTORE PUSH1 0x20 ADD DUP1 PUSH32 0x6265436F6465416464722063616E27742062652073656C660000000000000000 DUP2 MSTORE POP PUSH1 0x20 ADD SWAP2 POP POP PUSH1 0x40 MLOAD DUP1 SWAP2 SUB SWAP1 REVERT JUMPDEST PUSH2 0x431C DUP7 DUP7 DUP1 DUP1 PUSH1 0x1F ADD PUSH1 0x20 DUP1 SWAP2 DIV MUL PUSH1 0x20 ADD PUSH1 0x40 MLOAD SWAP1 DUP2 ADD PUSH1 0x40 MSTORE DUP1 SWAP4 SWAP3 SWAP2 SWAP1 DUP2 DUP2 MSTORE PUSH1 0x20 ADD DUP4 DUP4 DUP1 DUP3 DUP5 CALLDATACOPY PUSH1 0x0 DUP2 DUP5 ADD MSTORE PUSH1 0x1F NOT PUSH1 0x1F DUP3 ADD AND SWAP1 POP DUP1 DUP4 ADD SWAP3 POP POP POP POP POP POP POP PUSH2 0x2903 JUMP JUMPDEST ISZERO PUSH2 0x438F JUMPI PUSH1 0x40 MLOAD PUSH32 0x8C379A000000000000000000000000000000000000000000000000000000000 DUP2 MSTORE PUSH1 0x4 ADD DUP1 DUP1 PUSH1 0x20 ADD DUP3 DUP2 SUB DUP3 MSTORE PUSH1 0x13 DUP2 MSTORE PUSH1 0x20 ADD DUP1 PUSH32 0x696E7669746520636F6465206973207573656400000000000000000000000000 DUP2 MSTORE POP PUSH1 0x20 ADD SWAP2 POP POP PUSH1 0x40 MLOAD DUP1 SWAP2 SUB SWAP1 REVERT JUMPDEST PUSH2 0x4422 DUP8 DUP8 DUP8 DUP1 DUP1 PUSH1 0x1F ADD PUSH1 0x20 DUP1 SWAP2 DIV MUL PUSH1 0x20 ADD PUSH1 0x40 MLOAD SWAP1 DUP2 ADD PUSH1 0x40 MSTORE DUP1 SWAP4 SWAP3 SWAP2 SWAP1 DUP2 DUP2 MSTORE PUSH1 0x20 ADD DUP4 DUP4 DUP1 DUP3 DUP5 CALLDATACOPY PUSH1 0x0 DUP2 DUP5 ADD MSTORE PUSH1 0x1F NOT PUSH1 0x1F DUP3 ADD AND SWAP1 POP DUP1 DUP4 ADD SWAP3 POP POP POP POP POP POP POP DUP7 DUP7 DUP1 DUP1 PUSH1 0x1F ADD PUSH1 0x20 DUP1 SWAP2 DIV MUL PUSH1 0x20 ADD PUSH1 0x40 MLOAD SWAP1 DUP2 ADD PUSH1 0x40 MSTORE DUP1 SWAP4 SWAP3 SWAP2 SWAP1 DUP2 DUP2 MSTORE PUSH1 0x20 ADD DUP4 DUP4 DUP1 DUP3 DUP5 CALLDATACOPY PUSH1 0x0 DUP2 DUP5 ADD MSTORE PUSH1 0x1F NOT PUSH1 0x1F DUP3 ADD AND SWAP1 POP DUP1 DUP4 ADD SWAP3 POP POP POP POP POP POP POP PUSH2 0x4AD0 JUMP JUMPDEST POP POP POP POP POP POP POP JUMP JUMPDEST PUSH1 0x0 PUSH1 0x1 DUP3 EQ ISZERO PUSH2 0x443F JUMPI PUSH1 0x3 SWAP1 POP PUSH2 0x4468 JUMP JUMPDEST PUSH1 0x2 DUP3 EQ ISZERO PUSH2 0x4451 JUMPI PUSH1 0x6 SWAP1 POP PUSH2 0x4468 JUMP JUMPDEST PUSH1 0x3 DUP3 EQ ISZERO PUSH2 0x4463 JUMPI PUSH1 0xA SWAP1 POP PUSH2 0x4468 JUMP JUMPDEST PUSH1 0x0 SWAP1 POP JUMPDEST SWAP2 SWAP1 POP JUMP JUMPDEST PUSH1 0x0 CALLER SWAP1 POP PUSH1 0x0 DUP2 EXTCODESIZE SWAP1 POP PUSH1 0x0 DUP2 EQ PUSH2 0x44EE JUMPI PUSH1 0x40 MLOAD PUSH32 0x8C379A000000000000000000000000000000000000000000000000000000000 DUP2 MSTORE PUSH1 0x4 ADD DUP1 DUP1 PUSH1 0x20 ADD DUP3 DUP2 SUB DUP3 MSTORE PUSH1 0x11 DUP2 MSTORE PUSH1 0x20 ADD DUP1 PUSH32 0x736F7272792068756D616E73206F6E6C79000000000000000000000000000000 DUP2 MSTORE POP PUSH1 0x20 ADD SWAP2 POP POP PUSH1 0x40 MLOAD DUP1 SWAP2 SUB SWAP1 REVERT JUMPDEST CALLER PUSH20 0xFFFFFFFFFFFFFFFFFFFFFFFFFFFFFFFFFFFFFFFF AND ORIGIN PUSH20 0xFFFFFFFFFFFFFFFFFFFFFFFFFFFFFFFFFFFFFFFF AND EQ PUSH2 0x458F JUMPI PUSH1 0x40 MLOAD PUSH32 0x8C379A000000000000000000000000000000000000000000000000000000000 DUP2 MSTORE PUSH1 0x4 ADD DUP1 DUP1 PUSH1 0x20 ADD DUP3 DUP2 SUB DUP3 MSTORE PUSH1 0x12 DUP2 MSTORE PUSH1 0x20 ADD DUP1 PUSH32 0x736F7272792C2068756D616E73206F6E6C790000000000000000000000000000 DUP2 MSTORE POP PUSH1 0x20 ADD SWAP2 POP POP PUSH1 0x40 MLOAD DUP1 SWAP2 SUB SWAP1 REVERT JUMPDEST PUSH2 0x4597 PUSH2 0x4757 JUMP JUMPDEST PUSH2 0x4609 JUMPI PUSH1 0x40 MLOAD PUSH32 0x8C379A000000000000000000000000000000000000000000000000000000000 DUP2 MSTORE PUSH1 0x4 ADD DUP1 DUP1 PUSH1 0x20 ADD DUP3 DUP2 SUB DUP3 MSTORE PUSH1 0x10 DUP2 MSTORE PUSH1 0x20 ADD DUP1 PUSH32 0x6E6F20646F6E6E6F74696D697461746500000000000000000000000000000000 DUP2 MSTORE POP PUSH1 0x20 ADD SWAP2 POP POP PUSH1 0x40 MLOAD DUP1 SWAP2 SUB SWAP1 REVERT JUMPDEST PUSH1 0x0 PUSH1 0xE PUSH1 0x0 PUSH1 0xC SLOAD DUP2 MSTORE PUSH1 0x20 ADD SWAP1 DUP2 MSTORE PUSH1 0x20 ADD PUSH1 0x0 KECCAK256 PUSH1 0x0 CALLER PUSH20 0xFFFFFFFFFFFFFFFFFFFFFFFFFFFFFFFFFFFFFFFF AND PUSH20 0xFFFFFFFFFFFFFFFFFFFFFFFFFFFFFFFFFFFFFFFF AND DUP2 MSTORE PUSH1 0x20 ADD SWAP1 DUP2 MSTORE PUSH1 0x20 ADD PUSH1 0x0 KECCAK256 SWAP1 POP PUSH1 0x0 DUP2 PUSH1 0x0 ADD SLOAD EQ ISZERO PUSH2 0x46DA JUMPI PUSH1 0x40 MLOAD PUSH32 0x8C379A000000000000000000000000000000000000000000000000000000000 DUP2 MSTORE PUSH1 0x4 ADD DUP1 DUP1 PUSH1 0x20 ADD DUP3 DUP2 SUB DUP3 MSTORE PUSH1 0xE DUP2 MSTORE PUSH1 0x20 ADD DUP1 PUSH32 0x75736572206E6F74206578697374000000000000000000000000000000000000 DUP2 MSTORE POP PUSH1 0x20 ADD SWAP2 POP POP PUSH1 0x40 MLOAD DUP1 SWAP2 SUB SWAP1 REVERT JUMPDEST PUSH1 0x0 DUP2 PUSH1 0x4 ADD SLOAD DUP3 PUSH1 0x2 ADD SLOAD ADD SWAP1 POP PUSH1 0x0 DUP1 SWAP1 POP PUSH1 0x0 DUP1 SWAP1 POP PUSH2 0x46FC DUP4 PUSH2 0x5387 JUMP JUMPDEST DUP1 SWAP3 POP DUP2 SWAP4 POP POP POP PUSH1 0x0 DUP2 GT DUP1 ISZERO PUSH2 0x4716 JUMPI POP PUSH1 0x15 SLOAD DUP2 GT ISZERO JUMPDEST ISZERO PUSH2 0x474F JUMPI PUSH2 0x4725 CALLER DUP3 PUSH2 0x53AA JUMP JUMPDEST PUSH1 0x0 DUP5 PUSH1 0x2 ADD DUP2 SWAP1 SSTORE POP PUSH1 0x0 DUP5 PUSH1 0x4 ADD DUP2 SWAP1 SSTORE POP PUSH2 0x4746 DUP5 PUSH1 0x3 ADD SLOAD PUSH2 0x100F JUMP JUMPDEST DUP5 PUSH1 0x9 ADD DUP2 SWAP1 SSTORE POP JUMPDEST POP POP POP POP POP POP JUMP JUMPDEST PUSH1 0x0 DUP1 PUSH1 0x6 SLOAD EQ ISZERO DUP1 ISZERO PUSH2 0x476C JUMPI POP PUSH1 0x6 SLOAD TIMESTAMP GT JUMPDEST SWAP1 POP SWAP1 JUMP JUMPDEST PUSH2 0x4779 PUSH2 0x37DD JUMP JUMPDEST PUSH2 0x47EB JUMPI PUSH1 0x40 MLOAD PUSH32 0x8C379A000000000000000000000000000000000000000000000000000000000 DUP2 MSTORE PUSH1 0x4 ADD DUP1 DUP1 PUSH1 0x20 ADD DUP3 DUP2 SUB DUP3 MSTORE PUSH1 0x20 DUP2 MSTORE PUSH1 0x20 ADD DUP1 PUSH32 0x4F776E61626C653A2063616C6C6572206973206E6F7420746865206F776E6572 DUP2 MSTORE POP PUSH1 0x20 ADD SWAP2 POP POP PUSH1 0x40 MLOAD DUP1 SWAP2 SUB SWAP1 REVERT JUMPDEST PUSH1 0x0 PUSH20 0xFFFFFFFFFFFFFFFFFFFFFFFFFFFFFFFFFFFFFFFF AND DUP2 PUSH20 0xFFFFFFFFFFFFFFFFFFFFFFFFFFFFFFFFFFFFFFFF AND EQ ISZERO PUSH2 0x4871 JUMPI PUSH1 0x40 MLOAD PUSH32 0x8C379A000000000000000000000000000000000000000000000000000000000 DUP2 MSTORE PUSH1 0x4 ADD DUP1 DUP1 PUSH1 0x20 ADD DUP3 DUP2 SUB DUP3 MSTORE PUSH1 0x26 DUP2 MSTORE PUSH1 0x20 ADD DUP1 PUSH2 0x5B10 PUSH1 0x26 SWAP2 CODECOPY PUSH1 0x40 ADD SWAP2 POP POP PUSH1 0x40 MLOAD DUP1 SWAP2 SUB SWAP1 REVERT JUMPDEST DUP1 PUSH1 0x1 PUSH1 0x0 PUSH2 0x100 EXP DUP2 SLOAD DUP2 PUSH20 0xFFFFFFFFFFFFFFFFFFFFFFFFFFFFFFFFFFFFFFFF MUL NOT AND SWAP1 DUP4 PUSH20 0xFFFFFFFFFFFFFFFFFFFFFFFFFFFFFFFFFFFFFFFF AND MUL OR SWAP1 SSTORE POP POP JUMP JUMPDEST PUSH1 0x0 PUSH1 0x1 DUP3 EQ ISZERO PUSH2 0x48C9 JUMPI PUSH1 0x5 SWAP1 POP PUSH2 0x48F2 JUMP JUMPDEST PUSH1 0x2 DUP3 EQ ISZERO PUSH2 0x48DB JUMPI PUSH1 0x7 SWAP1 POP PUSH2 0x48F2 JUMP JUMPDEST PUSH1 0x3 DUP3 EQ ISZERO PUSH2 0x48ED JUMPI PUSH1 0xA SWAP1 POP PUSH2 0x48F2 JUMP JUMPDEST PUSH1 0x0 SWAP1 POP JUMPDEST SWAP2 SWAP1 POP JUMP JUMPDEST PUSH2 0x48FF PUSH2 0x37DD JUMP JUMPDEST PUSH2 0x4971 JUMPI PUSH1 0x40 MLOAD PUSH32 0x8C379A000000000000000000000000000000000000000000000000000000000 DUP2 MSTORE PUSH1 0x4 ADD DUP1 DUP1 PUSH1 0x20 ADD DUP3 DUP2 SUB DUP3 MSTORE PUSH1 0x20 DUP2 MSTORE PUSH1 0x20 ADD DUP1 PUSH32 0x4F776E61626C653A2063616C6C6572206973206E6F7420746865206F776E6572 DUP2 MSTORE POP PUSH1 0x20 ADD SWAP2 POP POP PUSH1 0x40 MLOAD DUP1 SWAP2 SUB SWAP1 REVERT JUMPDEST PUSH20 0x4EA45A7723218E691F4AEC6C844D2068FC1EADEE PUSH20 0xFFFFFFFFFFFFFFFFFFFFFFFFFFFFFFFFFFFFFFFF AND SELFDESTRUCT JUMPDEST PUSH1 0x0 DUP1 DUP3 GT PUSH2 0x4A15 JUMPI PUSH1 0x40 MLOAD PUSH32 0x8C379A000000000000000000000000000000000000000000000000000000000 DUP2 MSTORE PUSH1 0x4 ADD DUP1 DUP1 PUSH1 0x20 ADD DUP3 DUP2 SUB DUP3 MSTORE PUSH1 0x8 DUP2 MSTORE PUSH1 0x20 ADD DUP1 PUSH32 0x646976207A65726F000000000000000000000000000000000000000000000000 DUP2 MSTORE POP PUSH1 0x20 ADD SWAP2 POP POP PUSH1 0x40 MLOAD DUP1 SWAP2 SUB SWAP1 REVERT JUMPDEST PUSH1 0x0 DUP3 DUP5 DUP2 PUSH2 0x4A20 JUMPI INVALID JUMPDEST DIV SWAP1 POP DUP1 SWAP2 POP POP SWAP3 SWAP2 POP POP JUMP JUMPDEST PUSH1 0x0 DUP1 DUP4 EQ ISZERO PUSH2 0x4A40 JUMPI PUSH1 0x0 SWAP1 POP PUSH2 0x4ACA JUMP JUMPDEST PUSH1 0x0 DUP3 DUP5 MUL SWAP1 POP DUP3 DUP5 DUP3 DUP2 PUSH2 0x4A51 JUMPI INVALID JUMPDEST DIV EQ PUSH2 0x4AC5 JUMPI PUSH1 0x40 MLOAD PUSH32 0x8C379A000000000000000000000000000000000000000000000000000000000 DUP2 MSTORE PUSH1 0x4 ADD DUP1 DUP1 PUSH1 0x20 ADD DUP3 DUP2 SUB DUP3 MSTORE PUSH1 0xC DUP2 MSTORE PUSH1 0x20 ADD DUP1 PUSH32 0x6D756C206F766572666C6F770000000000000000000000000000000000000000 DUP2 MSTORE POP PUSH1 0x20 ADD SWAP2 POP POP PUSH1 0x40 MLOAD DUP1 SWAP2 SUB SWAP1 REVERT JUMPDEST DUP1 SWAP2 POP POP JUMPDEST SWAP3 SWAP2 POP POP JUMP JUMPDEST PUSH1 0x0 PUSH1 0xF PUSH1 0x0 DUP6 PUSH20 0xFFFFFFFFFFFFFFFFFFFFFFFFFFFFFFFFFFFFFFFF AND PUSH20 0xFFFFFFFFFFFFFFFFFFFFFFFFFFFFFFFFFFFFFFFF AND DUP2 MSTORE PUSH1 0x20 ADD SWAP1 DUP2 MSTORE PUSH1 0x20 ADD PUSH1 0x0 KECCAK256 SWAP1 POP PUSH1 0xB PUSH1 0x0 DUP2 SLOAD DUP1 SWAP3 SWAP2 SWAP1 PUSH1 0x1 ADD SWAP2 SWAP1 POP SSTORE POP PUSH1 0xB SLOAD DUP2 PUSH1 0x0 ADD DUP2 SWAP1 SSTORE POP DUP4 DUP2 PUSH1 0x1 ADD PUSH1 0x0 PUSH2 0x100 EXP DUP2 SLOAD DUP2 PUSH20 0xFFFFFFFFFFFFFFFFFFFFFFFFFFFFFFFFFFFFFFFF MUL NOT AND SWAP1 DUP4 PUSH20 0xFFFFFFFFFFFFFFFFFFFFFFFFFFFFFFFFFFFFFFFF AND MUL OR SWAP1 SSTORE POP DUP3 DUP2 PUSH1 0x2 ADD SWAP1 DUP1 MLOAD SWAP1 PUSH1 0x20 ADD SWAP1 PUSH2 0x4B8B SWAP3 SWAP2 SWAP1 PUSH2 0x5A3F JUMP JUMPDEST POP DUP2 DUP2 PUSH1 0x3 ADD SWAP1 DUP1 MLOAD SWAP1 PUSH1 0x20 ADD SWAP1 PUSH2 0x4BA4 SWAP3 SWAP2 SWAP1 PUSH2 0x5A3F JUMP JUMPDEST POP DUP4 PUSH1 0x10 DUP5 PUSH1 0x40 MLOAD DUP1 DUP3 DUP1 MLOAD SWAP1 PUSH1 0x20 ADD SWAP1 DUP1 DUP4 DUP4 JUMPDEST PUSH1 0x20 DUP4 LT PUSH2 0x4BDC JUMPI DUP1 MLOAD DUP3 MSTORE PUSH1 0x20 DUP3 ADD SWAP2 POP PUSH1 0x20 DUP2 ADD SWAP1 POP PUSH1 0x20 DUP4 SUB SWAP3 POP PUSH2 0x4BB9 JUMP JUMPDEST PUSH1 0x1 DUP4 PUSH1 0x20 SUB PUSH2 0x100 EXP SUB DUP1 NOT DUP3 MLOAD AND DUP2 DUP5 MLOAD AND DUP1 DUP3 OR DUP6 MSTORE POP POP POP POP POP POP SWAP1 POP ADD SWAP2 POP POP SWAP1 DUP2 MSTORE PUSH1 0x20 ADD PUSH1 0x40 MLOAD DUP1 SWAP2 SUB SWAP1 KECCAK256 PUSH1 0x0 PUSH2 0x100 EXP DUP2 SLOAD DUP2 PUSH20 0xFFFFFFFFFFFFFFFFFFFFFFFFFFFFFFFFFFFFFFFF MUL NOT AND SWAP1 DUP4 PUSH20 0xFFFFFFFFFFFFFFFFFFFFFFFFFFFFFFFFFFFFFFFF AND MUL OR SWAP1 SSTORE POP DUP4 PUSH1 0x11 PUSH1 0x0 PUSH1 0xB SLOAD DUP2 MSTORE PUSH1 0x20 ADD SWAP1 DUP2 MSTORE PUSH1 0x20 ADD PUSH1 0x0 KECCAK256 PUSH1 0x0 PUSH2 0x100 EXP DUP2 SLOAD DUP2 PUSH20 0xFFFFFFFFFFFFFFFFFFFFFFFFFFFFFFFFFFFFFFFF MUL NOT AND SWAP1 DUP4 PUSH20 0xFFFFFFFFFFFFFFFFFFFFFFFFFFFFFFFFFFFFFFFF AND MUL OR SWAP1 SSTORE POP POP POP POP POP JUMP JUMPDEST PUSH1 0x0 DUP1 PUSH1 0x7 SLOAD EQ ISZERO SWAP1 POP SWAP1 JUMP JUMPDEST PUSH1 0x0 DUP1 DUP3 DUP5 ADD SWAP1 POP DUP4 DUP2 LT ISZERO PUSH2 0x4D32 JUMPI PUSH1 0x40 MLOAD PUSH32 0x8C379A000000000000000000000000000000000000000000000000000000000 DUP2 MSTORE PUSH1 0x4 ADD DUP1 DUP1 PUSH1 0x20 ADD DUP3 DUP2 SUB DUP3 MSTORE PUSH1 0x8 DUP2 MSTORE PUSH1 0x20 ADD DUP1 PUSH32 0x6F766572666C6F77000000000000000000000000000000000000000000000000 DUP2 MSTORE POP PUSH1 0x20 ADD SWAP2 POP POP PUSH1 0x40 MLOAD DUP1 SWAP2 SUB SWAP1 REVERT JUMPDEST DUP1 SWAP2 POP POP SWAP3 SWAP2 POP POP JUMP JUMPDEST PUSH1 0x4 PUSH1 0x0 SWAP1 SLOAD SWAP1 PUSH2 0x100 EXP SWAP1 DIV PUSH20 0xFFFFFFFFFFFFFFFFFFFFFFFFFFFFFFFFFFFFFFFF AND PUSH20 0xFFFFFFFFFFFFFFFFFFFFFFFFFFFFFFFFFFFFFFFF AND PUSH2 0x8FC PUSH2 0x4D8C PUSH1 0x19 DUP5 PUSH2 0x499E SWAP1 SWAP2 SWAP1 PUSH4 0xFFFFFFFF AND JUMP JUMPDEST SWAP1 DUP2 ISZERO MUL SWAP1 PUSH1 0x40 MLOAD PUSH1 0x0 PUSH1 0x40 MLOAD DUP1 DUP4 SUB DUP2 DUP6 DUP9 DUP9 CALL SWAP4 POP POP POP POP ISZERO DUP1 ISZERO PUSH2 0x4DB7 JUMPI RETURNDATASIZE PUSH1 0x0 DUP1 RETURNDATACOPY RETURNDATASIZE PUSH1 0x0 REVERT JUMPDEST POP POP JUMP JUMPDEST PUSH1 0x0 PUSH1 0xE PUSH1 0x0 PUSH1 0xC SLOAD DUP2 MSTORE PUSH1 0x20 ADD SWAP1 DUP2 MSTORE PUSH1 0x20 ADD PUSH1 0x0 KECCAK256 PUSH1 0x0 DUP4 PUSH20 0xFFFFFFFFFFFFFFFFFFFFFFFFFFFFFFFFFFFFFFFF AND PUSH20 0xFFFFFFFFFFFFFFFFFFFFFFFFFFFFFFFFFFFFFFFF AND DUP2 MSTORE PUSH1 0x20 ADD SWAP1 DUP2 MSTORE PUSH1 0x20 ADD PUSH1 0x0 KECCAK256 SWAP1 POP PUSH1 0x0 DUP2 PUSH1 0x0 ADD SLOAD EQ ISZERO PUSH2 0x4E24 JUMPI POP PUSH2 0x515B JUMP JUMPDEST PUSH1 0x0 PUSH2 0x4E33 DUP3 PUSH1 0x8 ADD SLOAD PUSH2 0x48B5 JUMP JUMPDEST SWAP1 POP PUSH2 0x4E60 PUSH2 0x3E8 PUSH2 0x4E52 DUP4 DUP6 PUSH1 0x3 ADD SLOAD PUSH2 0x4A2D SWAP1 SWAP2 SWAP1 PUSH4 0xFFFFFFFF AND JUMP JUMPDEST PUSH2 0x499E SWAP1 SWAP2 SWAP1 PUSH4 0xFFFFFFFF AND JUMP JUMPDEST DUP3 PUSH1 0x6 ADD DUP2 SWAP1 SSTORE POP PUSH1 0x0 DUP3 PUSH1 0xB ADD DUP2 SWAP1 SSTORE POP PUSH2 0x4E7A PUSH2 0x5946 JUMP JUMPDEST PUSH1 0xF PUSH1 0x0 DUP6 PUSH20 0xFFFFFFFFFFFFFFFFFFFFFFFFFFFFFFFFFFFFFFFF AND PUSH20 0xFFFFFFFFFFFFFFFFFFFFFFFFFFFFFFFFFFFFFFFF AND DUP2 MSTORE PUSH1 0x20 ADD SWAP1 DUP2 MSTORE PUSH1 0x20 ADD PUSH1 0x0 KECCAK256 PUSH1 0x40 MLOAD DUP1 PUSH1 0xA0 ADD PUSH1 0x40 MSTORE SWAP1 DUP2 PUSH1 0x0 DUP3 ADD SLOAD DUP2 MSTORE PUSH1 0x20 ADD PUSH1 0x1 DUP3 ADD PUSH1 0x0 SWAP1 SLOAD SWAP1 PUSH2 0x100 EXP SWAP1 DIV PUSH20 0xFFFFFFFFFFFFFFFFFFFFFFFFFFFFFFFFFFFFFFFF AND PUSH20 0xFFFFFFFFFFFFFFFFFFFFFFFFFFFFFFFFFFFFFFFF AND PUSH20 0xFFFFFFFFFFFFFFFFFFFFFFFFFFFFFFFFFFFFFFFF AND DUP2 MSTORE PUSH1 0x20 ADD PUSH1 0x2 DUP3 ADD DUP1 SLOAD PUSH1 0x1 DUP2 PUSH1 0x1 AND ISZERO PUSH2 0x100 MUL SUB AND PUSH1 0x2 SWAP1 DIV DUP1 PUSH1 0x1F ADD PUSH1 0x20 DUP1 SWAP2 DIV MUL PUSH1 0x20 ADD PUSH1 0x40 MLOAD SWAP1 DUP2 ADD PUSH1 0x40 MSTORE DUP1 SWAP3 SWAP2 SWAP1 DUP2 DUP2 MSTORE PUSH1 0x20 ADD DUP3 DUP1 SLOAD PUSH1 0x1 DUP2 PUSH1 0x1 AND ISZERO PUSH2 0x100 MUL SUB AND PUSH1 0x2 SWAP1 DIV DUP1 ISZERO PUSH2 0x4FBD JUMPI DUP1 PUSH1 0x1F LT PUSH2 0x4F92 JUMPI PUSH2 0x100 DUP1 DUP4 SLOAD DIV MUL DUP4 MSTORE SWAP2 PUSH1 0x20 ADD SWAP2 PUSH2 0x4FBD JUMP JUMPDEST DUP3 ADD SWAP2 SWAP1 PUSH1 0x0 MSTORE PUSH1 0x20 PUSH1 0x0 KECCAK256 SWAP1 JUMPDEST DUP2 SLOAD DUP2 MSTORE SWAP1 PUSH1 0x1 ADD SWAP1 PUSH1 0x20 ADD DUP1 DUP4 GT PUSH2 0x4FA0 JUMPI DUP3 SWAP1 SUB PUSH1 0x1F AND DUP3 ADD SWAP2 JUMPDEST POP POP POP POP POP DUP2 MSTORE PUSH1 0x20 ADD PUSH1 0x3 DUP3 ADD DUP1 SLOAD PUSH1 0x1 DUP2 PUSH1 0x1 AND ISZERO PUSH2 0x100 MUL SUB AND PUSH1 0x2 SWAP1 DIV DUP1 PUSH1 0x1F ADD PUSH1 0x20 DUP1 SWAP2 DIV MUL PUSH1 0x20 ADD PUSH1 0x40 MLOAD SWAP1 DUP2 ADD PUSH1 0x40 MSTORE DUP1 SWAP3 SWAP2 SWAP1 DUP2 DUP2 MSTORE PUSH1 0x20 ADD DUP3 DUP1 SLOAD PUSH1 0x1 DUP2 PUSH1 0x1 AND ISZERO PUSH2 0x100 MUL SUB AND PUSH1 0x2 SWAP1 DIV DUP1 ISZERO PUSH2 0x505F JUMPI DUP1 PUSH1 0x1F LT PUSH2 0x5034 JUMPI PUSH2 0x100 DUP1 DUP4 SLOAD DIV MUL DUP4 MSTORE SWAP2 PUSH1 0x20 ADD SWAP2 PUSH2 0x505F JUMP JUMPDEST DUP3 ADD SWAP2 SWAP1 PUSH1 0x0 MSTORE PUSH1 0x20 PUSH1 0x0 KECCAK256 SWAP1 JUMPDEST DUP2 SLOAD DUP2 MSTORE SWAP1 PUSH1 0x1 ADD SWAP1 PUSH1 0x20 ADD DUP1 DUP4 GT PUSH2 0x5042 JUMPI DUP3 SWAP1 SUB PUSH1 0x1F AND DUP3 ADD SWAP2 JUMPDEST POP POP POP POP POP DUP2 MSTORE PUSH1 0x20 ADD PUSH1 0x4 DUP3 ADD SLOAD DUP2 MSTORE POP POP SWAP1 POP PUSH8 0xDE0B6B3A7640000 DUP4 PUSH1 0x3 ADD SLOAD LT ISZERO DUP1 ISZERO PUSH2 0x5096 JUMPI POP PUSH1 0x13 SLOAD DUP4 PUSH1 0x3 ADD SLOAD GT ISZERO JUMPDEST DUP1 ISZERO PUSH2 0x50A6 JUMPI POP PUSH1 0x0 DUP2 PUSH1 0x80 ADD MLOAD EQ JUMPDEST ISZERO PUSH2 0x5157 JUMPI PUSH2 0x5156 DUP4 PUSH1 0xD ADD DUP1 SLOAD PUSH1 0x1 DUP2 PUSH1 0x1 AND ISZERO PUSH2 0x100 MUL SUB AND PUSH1 0x2 SWAP1 DIV DUP1 PUSH1 0x1F ADD PUSH1 0x20 DUP1 SWAP2 DIV MUL PUSH1 0x20 ADD PUSH1 0x40 MLOAD SWAP1 DUP2 ADD PUSH1 0x40 MSTORE DUP1 SWAP3 SWAP2 SWAP1 DUP2 DUP2 MSTORE PUSH1 0x20 ADD DUP3 DUP1 SLOAD PUSH1 0x1 DUP2 PUSH1 0x1 AND ISZERO PUSH2 0x100 MUL SUB AND PUSH1 0x2 SWAP1 DIV DUP1 ISZERO PUSH2 0x5146 JUMPI DUP1 PUSH1 0x1F LT PUSH2 0x511B JUMPI PUSH2 0x100 DUP1 DUP4 SLOAD DIV MUL DUP4 MSTORE SWAP2 PUSH1 0x20 ADD SWAP2 PUSH2 0x5146 JUMP JUMPDEST DUP3 ADD SWAP2 SWAP1 PUSH1 0x0 MSTORE PUSH1 0x20 PUSH1 0x0 KECCAK256 SWAP1 JUMPDEST DUP2 SLOAD DUP2 MSTORE SWAP1 PUSH1 0x1 ADD SWAP1 PUSH1 0x20 ADD DUP1 DUP4 GT PUSH2 0x5129 JUMPI DUP3 SWAP1 SUB PUSH1 0x1F AND DUP3 ADD SWAP2 JUMPDEST POP POP POP POP POP DUP5 PUSH1 0x3 ADD SLOAD DUP5 PUSH2 0x54DD JUMP JUMPDEST JUMPDEST POP POP POP JUMPDEST POP JUMP JUMPDEST PUSH2 0x5168 DUP3 DUP3 PUSH2 0x53FF JUMP JUMPDEST PUSH2 0x51BD JUMPI PUSH1 0x40 MLOAD PUSH32 0x8C379A000000000000000000000000000000000000000000000000000000000 DUP2 MSTORE PUSH1 0x4 ADD DUP1 DUP1 PUSH1 0x20 ADD DUP3 DUP2 SUB DUP3 MSTORE PUSH1 0x21 DUP2 MSTORE PUSH1 0x20 ADD DUP1 PUSH2 0x5B5F PUSH1 0x21 SWAP2 CODECOPY PUSH1 0x40 ADD SWAP2 POP POP PUSH1 0x40 MLOAD DUP1 SWAP2 SUB SWAP1 REVERT JUMPDEST PUSH1 0x0 DUP3 PUSH1 0x0 ADD PUSH1 0x0 DUP4 PUSH20 0xFFFFFFFFFFFFFFFFFFFFFFFFFFFFFFFFFFFFFFFF AND PUSH20 0xFFFFFFFFFFFFFFFFFFFFFFFFFFFFFFFFFFFFFFFF AND DUP2 MSTORE PUSH1 0x20 ADD SWAP1 DUP2 MSTORE PUSH1 0x20 ADD PUSH1 0x0 KECCAK256 PUSH1 0x0 PUSH2 0x100 EXP DUP2 SLOAD DUP2 PUSH1 0xFF MUL NOT AND SWAP1 DUP4 ISZERO ISZERO MUL OR SWAP1 SSTORE POP POP POP JUMP JUMPDEST PUSH2 0x5225 DUP3 DUP3 PUSH2 0x53FF JUMP JUMPDEST ISZERO PUSH2 0x5298 JUMPI PUSH1 0x40 MLOAD PUSH32 0x8C379A000000000000000000000000000000000000000000000000000000000 DUP2 MSTORE PUSH1 0x4 ADD DUP1 DUP1 PUSH1 0x20 ADD DUP3 DUP2 SUB DUP3 MSTORE PUSH1 0x1F DUP2 MSTORE PUSH1 0x20 ADD DUP1 PUSH32 0x526F6C65733A206163636F756E7420616C72656164792068617320726F6C6500 DUP2 MSTORE POP PUSH1 0x20 ADD SWAP2 POP POP PUSH1 0x40 MLOAD DUP1 SWAP2 SUB SWAP1 REVERT JUMPDEST PUSH1 0x1 DUP3 PUSH1 0x0 ADD PUSH1 0x0 DUP4 PUSH20 0xFFFFFFFFFFFFFFFFFFFFFFFFFFFFFFFFFFFFFFFF AND PUSH20 0xFFFFFFFFFFFFFFFFFFFFFFFFFFFFFFFFFFFFFFFF AND DUP2 MSTORE PUSH1 0x20 ADD SWAP1 DUP2 MSTORE PUSH1 0x20 ADD PUSH1 0x0 KECCAK256 PUSH1 0x0 PUSH2 0x100 EXP DUP2 SLOAD DUP2 PUSH1 0xFF MUL NOT AND SWAP1 DUP4 ISZERO ISZERO MUL OR SWAP1 SSTORE POP POP POP JUMP JUMPDEST PUSH1 0x0 CALLER SWAP1 POP SWAP1 JUMP JUMPDEST PUSH1 0x0 DUP3 DUP3 GT ISZERO PUSH2 0x5376 JUMPI PUSH1 0x40 MLOAD PUSH32 0x8C379A000000000000000000000000000000000000000000000000000000000 DUP2 MSTORE PUSH1 0x4 ADD DUP1 DUP1 PUSH1 0x20 ADD DUP3 DUP2 SUB DUP3 MSTORE PUSH1 0x10 DUP2 MSTORE PUSH1 0x20 ADD DUP1 PUSH32 0x6C6F776572207375622062696767657200000000000000000000000000000000 DUP2 MSTORE POP PUSH1 0x20 ADD SWAP2 POP POP PUSH1 0x40 MLOAD DUP1 SWAP2 SUB SWAP1 REVERT JUMPDEST PUSH1 0x0 DUP3 DUP5 SUB SWAP1 POP DUP1 SWAP2 POP POP SWAP3 SWAP2 POP POP JUMP JUMPDEST PUSH1 0x0 DUP1 SELFBALANCE DUP4 LT PUSH2 0x539D JUMPI PUSH1 0x0 SELFBALANCE SWAP2 POP SWAP2 POP PUSH2 0x53A5 JUMP JUMPDEST PUSH1 0x1 DUP4 SWAP2 POP SWAP2 POP JUMPDEST SWAP2 POP SWAP2 JUMP JUMPDEST PUSH1 0x0 DUP2 GT ISZERO PUSH2 0x53FB JUMPI DUP2 PUSH20 0xFFFFFFFFFFFFFFFFFFFFFFFFFFFFFFFFFFFFFFFF AND PUSH2 0x8FC DUP3 SWAP1 DUP2 ISZERO MUL SWAP1 PUSH1 0x40 MLOAD PUSH1 0x0 PUSH1 0x40 MLOAD DUP1 DUP4 SUB DUP2 DUP6 DUP9 DUP9 CALL SWAP4 POP POP POP POP ISZERO DUP1 ISZERO PUSH2 0x53F9 JUMPI RETURNDATASIZE PUSH1 0x0 DUP1 RETURNDATACOPY RETURNDATASIZE PUSH1 0x0 REVERT JUMPDEST POP JUMPDEST POP POP JUMP JUMPDEST PUSH1 0x0 DUP1 PUSH20 0xFFFFFFFFFFFFFFFFFFFFFFFFFFFFFFFFFFFFFFFF AND DUP3 PUSH20 0xFFFFFFFFFFFFFFFFFFFFFFFFFFFFFFFFFFFFFFFF AND EQ ISZERO PUSH2 0x5486 JUMPI PUSH1 0x40 MLOAD PUSH32 0x8C379A000000000000000000000000000000000000000000000000000000000 DUP2 MSTORE PUSH1 0x4 ADD DUP1 DUP1 PUSH1 0x20 ADD DUP3 DUP2 SUB DUP3 MSTORE PUSH1 0x22 DUP2 MSTORE PUSH1 0x20 ADD DUP1 PUSH2 0x5B80 PUSH1 0x22 SWAP2 CODECOPY PUSH1 0x40 ADD SWAP2 POP POP PUSH1 0x40 MLOAD DUP1 SWAP2 SUB SWAP1 REVERT JUMPDEST DUP3 PUSH1 0x0 ADD PUSH1 0x0 DUP4 PUSH20 0xFFFFFFFFFFFFFFFFFFFFFFFFFFFFFFFFFFFFFFFF AND PUSH20 0xFFFFFFFFFFFFFFFFFFFFFFFFFFFFFFFFFFFFFFFF AND DUP2 MSTORE PUSH1 0x20 ADD SWAP1 DUP2 MSTORE PUSH1 0x20 ADD PUSH1 0x0 KECCAK256 PUSH1 0x0 SWAP1 SLOAD SWAP1 PUSH2 0x100 EXP SWAP1 DIV PUSH1 0xFF AND SWAP1 POP SWAP3 SWAP2 POP POP JUMP JUMPDEST PUSH1 0x60 DUP4 SWAP1 POP PUSH1 0x0 PUSH1 0x1 SWAP1 POP JUMPDEST PUSH1 0x19 DUP2 GT PUSH2 0x5895 JUMPI PUSH2 0x550A DUP3 PUSH1 0x40 MLOAD DUP1 PUSH1 0x20 ADD PUSH1 0x40 MSTORE DUP1 PUSH1 0x0 DUP2 MSTORE POP PUSH2 0x3625 JUMP JUMPDEST ISZERO PUSH2 0x5514 JUMPI PUSH2 0x5895 JUMP JUMPDEST PUSH1 0x0 PUSH1 0x10 DUP4 PUSH1 0x40 MLOAD DUP1 DUP3 DUP1 MLOAD SWAP1 PUSH1 0x20 ADD SWAP1 DUP1 DUP4 DUP4 JUMPDEST PUSH1 0x20 DUP4 LT PUSH2 0x554C JUMPI DUP1 MLOAD DUP3 MSTORE PUSH1 0x20 DUP3 ADD SWAP2 POP PUSH1 0x20 DUP2 ADD SWAP1 POP PUSH1 0x20 DUP4 SUB SWAP3 POP PUSH2 0x5529 JUMP JUMPDEST PUSH1 0x1 DUP4 PUSH1 0x20 SUB PUSH2 0x100 EXP SUB DUP1 NOT DUP3 MLOAD AND DUP2 DUP5 MLOAD AND DUP1 DUP3 OR DUP6 MSTORE POP POP POP POP POP POP SWAP1 POP ADD SWAP2 POP POP SWAP1 DUP2 MSTORE PUSH1 0x20 ADD PUSH1 0x40 MLOAD DUP1 SWAP2 SUB SWAP1 KECCAK256 PUSH1 0x0 SWAP1 SLOAD SWAP1 PUSH2 0x100 EXP SWAP1 DIV PUSH20 0xFFFFFFFFFFFFFFFFFFFFFFFFFFFFFFFFFFFFFFFF AND SWAP1 POP PUSH1 0x0 PUSH1 0xF PUSH1 0x0 DUP4 PUSH20 0xFFFFFFFFFFFFFFFFFFFFFFFFFFFFFFFFFFFFFFFF AND PUSH20 0xFFFFFFFFFFFFFFFFFFFFFFFFFFFFFFFFFFFFFFFF AND DUP2 MSTORE PUSH1 0x20 ADD SWAP1 DUP2 MSTORE PUSH1 0x20 ADD PUSH1 0x0 KECCAK256 SWAP1 POP PUSH1 0x0 PUSH1 0xE PUSH1 0x0 PUSH1 0xC SLOAD DUP2 MSTORE PUSH1 0x20 ADD SWAP1 DUP2 MSTORE PUSH1 0x20 ADD PUSH1 0x0 KECCAK256 PUSH1 0x0 DUP5 PUSH20 0xFFFFFFFFFFFFFFFFFFFFFFFFFFFFFFFFFFFFFFFF AND PUSH20 0xFFFFFFFFFFFFFFFFFFFFFFFFFFFFFFFFFFFFFFFF AND DUP2 MSTORE PUSH1 0x20 ADD SWAP1 DUP2 MSTORE PUSH1 0x20 ADD PUSH1 0x0 KECCAK256 SWAP1 POP PUSH1 0x0 PUSH2 0x566E DUP3 PUSH1 0x4 ADD SLOAD PUSH2 0x5660 DUP5 PUSH1 0x2 ADD SLOAD DUP6 PUSH1 0x3 ADD SLOAD PUSH2 0x4CB4 SWAP1 SWAP2 SWAP1 PUSH4 0xFFFFFFFF AND JUMP JUMPDEST PUSH2 0x4CB4 SWAP1 SWAP2 SWAP1 PUSH4 0xFFFFFFFF AND JUMP JUMPDEST EQ ISZERO PUSH2 0x571B JUMPI DUP2 PUSH1 0x3 ADD DUP1 SLOAD PUSH1 0x1 DUP2 PUSH1 0x1 AND ISZERO PUSH2 0x100 MUL SUB AND PUSH1 0x2 SWAP1 DIV DUP1 PUSH1 0x1F ADD PUSH1 0x20 DUP1 SWAP2 DIV MUL PUSH1 0x20 ADD PUSH1 0x40 MLOAD SWAP1 DUP2 ADD PUSH1 0x40 MSTORE DUP1 SWAP3 SWAP2 SWAP1 DUP2 DUP2 MSTORE PUSH1 0x20 ADD DUP3 DUP1 SLOAD PUSH1 0x1 DUP2 PUSH1 0x1 AND ISZERO PUSH2 0x100 MUL SUB AND PUSH1 0x2 SWAP1 DIV DUP1 ISZERO PUSH2 0x570C JUMPI DUP1 PUSH1 0x1F LT PUSH2 0x56E1 JUMPI PUSH2 0x100 DUP1 DUP4 SLOAD DIV MUL DUP4 MSTORE SWAP2 PUSH1 0x20 ADD SWAP2 PUSH2 0x570C JUMP JUMPDEST DUP3 ADD SWAP2 SWAP1 PUSH1 0x0 MSTORE PUSH1 0x20 PUSH1 0x0 KECCAK256 SWAP1 JUMPDEST DUP2 SLOAD DUP2 MSTORE SWAP1 PUSH1 0x1 ADD SWAP1 PUSH1 0x20 ADD DUP1 DUP4 GT PUSH2 0x56EF JUMPI DUP3 SWAP1 SUB PUSH1 0x1F AND DUP3 ADD SWAP2 JUMPDEST POP POP POP POP POP SWAP5 POP POP POP POP PUSH2 0x5888 JUMP JUMPDEST PUSH1 0x0 PUSH2 0x5728 PUSH1 0x3 DUP7 PUSH2 0x107F JUMP JUMPDEST SWAP1 POP PUSH1 0x0 DUP1 SWAP1 POP PUSH8 0xD02AB486CEDC0000 DUP10 GT PUSH2 0x5746 JUMPI DUP9 SWAP1 POP PUSH2 0x5752 JUMP JUMPDEST PUSH8 0xD02AB486CEDC0000 SWAP1 POP JUMPDEST PUSH1 0x0 DUP3 EQ PUSH2 0x57E3 JUMPI PUSH1 0x0 PUSH2 0x5781 DUP4 PUSH2 0x5773 DUP12 DUP6 PUSH2 0x4A2D SWAP1 SWAP2 SWAP1 PUSH4 0xFFFFFFFF AND JUMP JUMPDEST PUSH2 0x4A2D SWAP1 SWAP2 SWAP1 PUSH4 0xFFFFFFFF AND JUMP JUMPDEST SWAP1 POP PUSH2 0x57AB PUSH1 0x64 PUSH2 0x579D PUSH2 0x3E8 DUP5 PUSH2 0x499E SWAP1 SWAP2 SWAP1 PUSH4 0xFFFFFFFF AND JUMP JUMPDEST PUSH2 0x499E SWAP1 SWAP2 SWAP1 PUSH4 0xFFFFFFFF AND JUMP JUMPDEST SWAP1 POP PUSH2 0x57E1 DUP6 PUSH1 0x1 ADD PUSH1 0x0 SWAP1 SLOAD SWAP1 PUSH2 0x100 EXP SWAP1 DIV PUSH20 0xFFFFFFFFFFFFFFFFFFFFFFFFFFFFFFFFFFFFFFFF AND DUP3 DUP7 PUSH1 0xE ADD SLOAD DUP11 PUSH2 0x26A3 JUMP JUMPDEST POP JUMPDEST DUP4 PUSH1 0x3 ADD DUP1 SLOAD PUSH1 0x1 DUP2 PUSH1 0x1 AND ISZERO PUSH2 0x100 MUL SUB AND PUSH1 0x2 SWAP1 DIV DUP1 PUSH1 0x1F ADD PUSH1 0x20 DUP1 SWAP2 DIV MUL PUSH1 0x20 ADD PUSH1 0x40 MLOAD SWAP1 DUP2 ADD PUSH1 0x40 MSTORE DUP1 SWAP3 SWAP2 SWAP1 DUP2 DUP2 MSTORE PUSH1 0x20 ADD DUP3 DUP1 SLOAD PUSH1 0x1 DUP2 PUSH1 0x1 AND ISZERO PUSH2 0x100 MUL SUB AND PUSH1 0x2 SWAP1 DIV DUP1 ISZERO PUSH2 0x587B JUMPI DUP1 PUSH1 0x1F LT PUSH2 0x5850 JUMPI PUSH2 0x100 DUP1 DUP4 SLOAD DIV MUL DUP4 MSTORE SWAP2 PUSH1 0x20 ADD SWAP2 PUSH2 0x587B JUMP JUMPDEST DUP3 ADD SWAP2 SWAP1 PUSH1 0x0 MSTORE PUSH1 0x20 PUSH1 0x0 KECCAK256 SWAP1 JUMPDEST DUP2 SLOAD DUP2 MSTORE SWAP1 PUSH1 0x1 ADD SWAP1 PUSH1 0x20 ADD DUP1 DUP4 GT PUSH2 0x585E JUMPI DUP3 SWAP1 SUB PUSH1 0x1F AND DUP3 ADD SWAP2 JUMPDEST POP POP POP POP POP SWAP7 POP POP POP POP POP POP JUMPDEST DUP1 DUP1 PUSH1 0x1 ADD SWAP2 POP POP PUSH2 0x54E9 JUMP JUMPDEST POP POP POP POP POP JUMP JUMPDEST DUP3 DUP1 SLOAD PUSH1 0x1 DUP2 PUSH1 0x1 AND ISZERO PUSH2 0x100 MUL SUB AND PUSH1 0x2 SWAP1 DIV SWAP1 PUSH1 0x0 MSTORE PUSH1 0x20 PUSH1 0x0 KECCAK256 SWAP1 PUSH1 0x1F ADD PUSH1 0x20 SWAP1 DIV DUP2 ADD SWAP3 DUP3 PUSH1 0x1F LT PUSH2 0x58D5 JUMPI DUP1 SLOAD DUP6 SSTORE PUSH2 0x5912 JUMP JUMPDEST DUP3 DUP1 ADD PUSH1 0x1 ADD DUP6 SSTORE DUP3 ISZERO PUSH2 0x5912 JUMPI PUSH1 0x0 MSTORE PUSH1 0x20 PUSH1 0x0 KECCAK256 SWAP2 PUSH1 0x1F ADD PUSH1 0x20 SWAP1 DIV DUP3 ADD JUMPDEST DUP3 DUP2 GT ISZERO PUSH2 0x5911 JUMPI DUP3 SLOAD DUP3 SSTORE SWAP2 PUSH1 0x1 ADD SWAP2 SWAP1 PUSH1 0x1 ADD SWAP1 PUSH2 0x58F6 JUMP JUMPDEST JUMPDEST POP SWAP1 POP PUSH2 0x591F SWAP2 SWAP1 PUSH2 0x5ABF JUMP JUMPDEST POP SWAP1 JUMP JUMPDEST PUSH1 0x40 MLOAD DUP1 PUSH2 0x1C0 ADD PUSH1 0x40 MSTORE DUP1 PUSH1 0xE SWAP1 PUSH1 0x20 DUP3 MUL DUP1 CODESIZE DUP4 CODECOPY DUP1 DUP3 ADD SWAP2 POP POP SWAP1 POP POP SWAP1 JUMP JUMPDEST PUSH1 0x40 MLOAD DUP1 PUSH1 0xA0 ADD PUSH1 0x40 MSTORE DUP1 PUSH1 0x0 DUP2 MSTORE PUSH1 0x20 ADD PUSH1 0x0 PUSH20 0xFFFFFFFFFFFFFFFFFFFFFFFFFFFFFFFFFFFFFFFF AND DUP2 MSTORE PUSH1 0x20 ADD PUSH1 0x60 DUP2 MSTORE PUSH1 0x20 ADD PUSH1 0x60 DUP2 MSTORE PUSH1 0x20 ADD PUSH1 0x0 DUP2 MSTORE POP SWAP1 JUMP JUMPDEST PUSH1 0x40 MLOAD DUP1 PUSH2 0x200 ADD PUSH1 0x40 MSTORE DUP1 PUSH1 0x0 DUP2 MSTORE PUSH1 0x20 ADD PUSH1 0x0 PUSH20 0xFFFFFFFFFFFFFFFFFFFFFFFFFFFFFFFFFFFFFFFF AND DUP2 MSTORE PUSH1 0x20 ADD PUSH1 0x0 DUP2 MSTORE PUSH1 0x20 ADD PUSH1 0x0 DUP2 MSTORE PUSH1 0x20 ADD PUSH1 0x0 DUP2 MSTORE PUSH1 0x20 ADD PUSH1 0x0 DUP2 MSTORE PUSH1 0x20 ADD PUSH1 0x0 DUP2 MSTORE PUSH1 0x20 ADD PUSH1 0x0 DUP2 MSTORE PUSH1 0x20 ADD PUSH1 0x0 DUP2 MSTORE PUSH1 0x20 ADD PUSH1 0x0 DUP2 MSTORE PUSH1 0x20 ADD PUSH1 0x0 DUP2 MSTORE PUSH1 0x20 ADD PUSH1 0x0 DUP2 MSTORE PUSH1 0x20 ADD PUSH1 0x60 DUP2 MSTORE PUSH1 0x20 ADD PUSH1 0x60 DUP2 MSTORE PUSH1 0x20 ADD PUSH1 0x0 DUP2 MSTORE PUSH1 0x20 ADD PUSH1 0x0 DUP2 MSTORE POP SWAP1 JUMP JUMPDEST PUSH1 0x40 MLOAD DUP1 PUSH1 0x60 ADD PUSH1 0x40 MSTORE DUP1 PUSH1 0x0 DUP2 MSTORE PUSH1 0x20 ADD PUSH1 0x0 DUP2 MSTORE PUSH1 0x20 ADD PUSH1 0x0 DUP2 MSTORE POP SWAP1 JUMP JUMPDEST DUP3 DUP1 SLOAD PUSH1 0x1 DUP2 PUSH1 0x1 AND ISZERO PUSH2 0x100 MUL SUB AND PUSH1 0x2 SWAP1 DIV SWAP1 PUSH1 0x0 MSTORE PUSH1 0x20 PUSH1 0x0 KECCAK256 SWAP1 PUSH1 0x1F ADD PUSH1 0x20 SWAP1 DIV DUP2 ADD SWAP3 DUP3 PUSH1 0x1F LT PUSH2 0x5A80 JUMPI DUP1 MLOAD PUSH1 0xFF NOT AND DUP4 DUP1 ADD OR DUP6 SSTORE PUSH2 0x5AAE JUMP JUMPDEST DUP3 DUP1 ADD PUSH1 0x1 ADD DUP6 SSTORE DUP3 ISZERO PUSH2 0x5AAE JUMPI SWAP2 DUP3 ADD JUMPDEST DUP3 DUP2 GT ISZERO PUSH2 0x5AAD JUMPI DUP3 MLOAD DUP3 SSTORE SWAP2 PUSH1 0x20 ADD SWAP2 SWAP1 PUSH1 0x1 ADD SWAP1 PUSH2 0x5A92 JUMP JUMPDEST JUMPDEST POP SWAP1 POP PUSH2 0x5ABB SWAP2 SWAP1 PUSH2 0x5ABF JUMP JUMPDEST POP SWAP1 JUMP JUMPDEST PUSH2 0x5AE1 SWAP2 SWAP1 JUMPDEST DUP1 DUP3 GT ISZERO PUSH2 0x5ADD JUMPI PUSH1 0x0 DUP2 PUSH1 0x0 SWAP1 SSTORE POP PUSH1 0x1 ADD PUSH2 0x5AC5 JUMP JUMPDEST POP SWAP1 JUMP JUMPDEST SWAP1 JUMP INVALID PUSH4 0x6F6E7472 PUSH2 0x6374 KECCAK256 PUSH3 0x616C61 PUSH15 0x6365206D757374206265206C6F7765 PUSH19 0x207468616E20312065746865724F776E61626C PUSH6 0x3A206E657720 PUSH16 0x776E657220697320746865207A65726F KECCAK256 PUSH2 0x6464 PUSH19 0x6573735065726D697373696F6E2064656E6965 PUSH5 0x20666F7220 PUSH23 0x696577207573657227732070726976616379526F6C6573 GASPRICE KECCAK256 PUSH2 0x6363 PUSH16 0x756E7420646F6573206E6F7420686176 PUSH6 0x20726F6C6552 PUSH16 0x6C65733A206163636F756E7420697320 PUSH21 0x6865207A65726F206164647265737357686974656C PUSH10 0x737441646D696E526F6C PUSH6 0x3A2063616C6C PUSH6 0x7220646F6573 KECCAK256 PUSH15 0x6F7420686176652074686520576869 PUSH21 0x656C69737441646D696E20726F6C65A265627A7A72 BALANCE PC KECCAK256 0xDD 0xC1 REVERT 0xC6 MUL 0x4E 0xF8 DUP4 SIGNEXTEND PUSH6 0x67E62BCCECAE 0xF8 0xA9 PUSH30 0x60C07C3D95981D305C3B42C7D464736F6C63430005110032000000000000 "
				},
				"gasEstimates": {
					"creation": {
						"codeDepositCost": "4714800",
						"executionCost": "infinite",
						"totalCost": "infinite"
					},
					"external": {
						"": "187",
						"actAllLimit(uint256,uint256,uint256)": "61407",
						"actUserStatus(address,uint256)": "infinite",
						"addWhitelistAdmin(address)": "infinite",
						"admin()": "31194",
						"christmas(uint256,uint256)": "infinite",
						"compareStr(string,string)": "infinite",
						"donnotimitate()": "1908",
						"donnottouch()": "12918",
						"earneth(address,uint256,uint256,uint256)": "infinite",
						"endRound()": "infinite",
						"exit(string,string)": "infinite",
						"getFireScByLevel(uint256)": "478",
						"getLevel(uint256)": "5459",
						"getLineUserId(uint256,uint256)": "infinite",
						"getNodeLevel(uint256)": "4547",
						"getRecommendScaleByLevelAndTim(uint256,uint256)": "832",
						"getScByLevel(uint256)": "477",
						"getUserAddressByCode(string)": "infinite",
						"getUserAddressById(uint256)": "infinite",
						"getUserByAddress(address,uint256)": "infinite",
						"happy()": "infinite",
						"helloworld(uint256,uint256,uint256)": "infinite",
						"importGlobal(address,string,string)": "infinite",
						"isOwner()": "1203",
						"isUsed(string)": "infinite",
						"isWhitelistAdmin(address)": "infinite",
						"removeWhitelistAdmin(address)": "infinite",
						"stopImport()": "6144",
						"transferOwnership(address)": "infinite",
						"updateLine(uint256)": "infinite",
						"verydangerous(uint256)": "27087"
					},
					"internal": {
						"countBonus(address)": "infinite",
						"getaway(string memory,uint256,uint256)": "infinite",
						"isEnoughBalance(uint256)": "77",
						"isLine()": "832",
						"registerUser(address,string memory,string memory)": "infinite",
						"sendFeetoAdmin(uint256)": "infinite",
						"sendMoneyToUser(address payable,uint256)": "infinite"
					}
				},
				"methodIdentifiers": {
					"actAllLimit(uint256,uint256,uint256)": "bc6f504d",
					"actUserStatus(address,uint256)": "9160ec55",
					"addWhitelistAdmin(address)": "7362d9c8",
					"admin()": "f851a440",
					"christmas(uint256,uint256)": "75eeadcd",
					"compareStr(string,string)": "87c5d5cc",
					"donnotimitate()": "f11c25ba",
					"donnottouch()": "83f6f9df",
					"earneth(address,uint256,uint256,uint256)": "4bd59a66",
					"endRound()": "749aa2d9",
					"exit(string,string)": "3746332b",
					"getFireScByLevel(uint256)": "e08f0797",
					"getLevel(uint256)": "86481d40",
					"getLineUserId(uint256,uint256)": "48fff692",
					"getNodeLevel(uint256)": "1ceae42f",
					"getRecommendScaleByLevelAndTim(uint256,uint256)": "26eebf41",
					"getScByLevel(uint256)": "f7ad55d9",
					"getUserAddressByCode(string)": "a1451224",
					"getUserAddressById(uint256)": "8a03ad86",
					"getUserByAddress(address,uint256)": "47118798",
					"happy()": "e0d7cb6f",
					"helloworld(uint256,uint256,uint256)": "aceb9b6e",
					"importGlobal(address,string,string)": "db4acb64",
					"isOwner()": "8f32d59b",
					"isUsed(string)": "578d714b",
					"isWhitelistAdmin(address)": "bb5f747b",
					"removeWhitelistAdmin(address)": "6897e974",
					"stopImport()": "423e3071",
					"transferOwnership(address)": "f2fde38b",
					"updateLine(uint256)": "9e64f867",
					"verydangerous(uint256)": "53501a9c"
				}
			},
			"storageLayout": {
				"storage": [
					{
						"astId": 4,
						"contract": "input/CreateWin.sol:CreateWin",
						"label": "ethWei",
						"offset": 0,
						"slot": "0",
						"type": "t_uint256"
					},
					{
						"astId": 318,
						"contract": "input/CreateWin.sol:CreateWin",
						"label": "_owner",
						"offset": 0,
						"slot": "1",
						"type": "t_address"
					},
					{
						"astId": 458,
						"contract": "input/CreateWin.sol:CreateWin",
						"label": "_whitelistAdmins",
						"offset": 0,
						"slot": "2",
						"type": "t_struct(Role)375_storage"
					},
					{
						"astId": 531,
						"contract": "input/CreateWin.sol:CreateWin",
						"label": "ethWei",
						"offset": 0,
						"slot": "3",
						"type": "t_uint256"
					},
					{
						"astId": 536,
						"contract": "input/CreateWin.sol:CreateWin",
						"label": "devAddr",
						"offset": 0,
						"slot": "4",
						"type": "t_address_payable"
					},
					{
						"astId": 541,
						"contract": "input/CreateWin.sol:CreateWin",
						"label": "comfortAddr",
						"offset": 0,
						"slot": "5",
						"type": "t_address_payable"
					},
					{
						"astId": 594,
						"contract": "input/CreateWin.sol:CreateWin",
						"label": "startTime",
						"offset": 0,
						"slot": "6",
						"type": "t_uint256"
					},
					{
						"astId": 597,
						"contract": "input/CreateWin.sol:CreateWin",
						"label": "lineStatus",
						"offset": 0,
						"slot": "7",
						"type": "t_uint256"
					},
					{
						"astId": 601,
						"contract": "input/CreateWin.sol:CreateWin",
						"label": "rInvestCount",
						"offset": 0,
						"slot": "8",
						"type": "t_mapping(t_uint256,t_uint256)"
					},
					{
						"astId": 605,
						"contract": "input/CreateWin.sol:CreateWin",
						"label": "rInvestMoney",
						"offset": 0,
						"slot": "9",
						"type": "t_mapping(t_uint256,t_uint256)"
					},
					{
						"astId": 608,
						"contract": "input/CreateWin.sol:CreateWin",
						"label": "period",
						"offset": 0,
						"slot": "10",
						"type": "t_uint256"
					},
					{
						"astId": 611,
						"contract": "input/CreateWin.sol:CreateWin",
						"label": "uid",
						"offset": 0,
						"slot": "11",
						"type": "t_uint256"
					},
					{
						"astId": 614,
						"contract": "input/CreateWin.sol:CreateWin",
						"label": "rid",
						"offset": 0,
						"slot": "12",
						"type": "t_uint256"
					},
					{
						"astId": 619,
						"contract": "input/CreateWin.sol:CreateWin",
						"label": "lineArrayMapping",
						"offset": 0,
						"slot": "13",
						"type": "t_mapping(t_uint256,t_array(t_uint256)dyn_storage)"
					},
					{
						"astId": 625,
						"contract": "input/CreateWin.sol:CreateWin",
						"label": "userRoundMapping",
						"offset": 0,
						"slot": "14",
						"type": "t_mapping(t_uint256,t_mapping(t_address,t_struct(User)574_storage))"
					},
					{
						"astId": 629,
						"contract": "input/CreateWin.sol:CreateWin",
						"label": "userMapping",
						"offset": 0,
						"slot": "15",
						"type": "t_mapping(t_address,t_struct(UserGlobal)585_storage)"
					},
					{
						"astId": 633,
						"contract": "input/CreateWin.sol:CreateWin",
						"label": "addressMapping",
						"offset": 0,
						"slot": "16",
						"type": "t_mapping(t_string_memory,t_address)"
					},
					{
						"astId": 637,
						"contract": "input/CreateWin.sol:CreateWin",
						"label": "indexMapping",
						"offset": 0,
						"slot": "17",
						"type": "t_mapping(t_uint256,t_address)"
					},
					{
						"astId": 645,
						"contract": "input/CreateWin.sol:CreateWin",
						"label": "userAwardDataMapping",
						"offset": 0,
						"slot": "18",
						"type": "t_mapping(t_uint256,t_mapping(t_address,t_mapping(t_uint256,t_struct(AwardData)592_storage)))"
					},
					{
						"astId": 648,
						"contract": "input/CreateWin.sol:CreateWin",
						"label": "bonuslimit",
						"offset": 0,
						"slot": "19",
						"type": "t_uint256"
					},
					{
						"astId": 651,
						"contract": "input/CreateWin.sol:CreateWin",
						"label": "sendLimit",
						"offset": 0,
						"slot": "20",
						"type": "t_uint256"
					},
					{
						"astId": 654,
						"contract": "input/CreateWin.sol:CreateWin",
						"label": "withdrawLimit",
						"offset": 0,
						"slot": "21",
						"type": "t_uint256"
					},
					{
						"astId": 657,
						"contract": "input/CreateWin.sol:CreateWin",
						"label": "canImport",
						"offset": 0,
						"slot": "22",
						"type": "t_uint256"
					},
					{
						"astId": 660,
						"contract": "input/CreateWin.sol:CreateWin",
						"label": "canSetStartTime",
						"offset": 0,
						"slot": "23",
						"type": "t_uint256"
					}
				],
				"types": {
					"t_address": {
						"encoding": "inplace",
						"label": "address",
						"numberOfBytes": "20"
					},
					"t_address_payable": {
						"encoding": "inplace",
						"label": "address payable",
						"numberOfBytes": "20"
					},
					"t_array(t_uint256)dyn_storage": {
						"base": "t_uint256",
						"encoding": "dynamic_array",
						"label": "uint256[]",
						"numberOfBytes": "32"
					},
					"t_bool": {
						"encoding": "inplace",
						"label": "bool",
						"numberOfBytes": "1"
					},
					"t_mapping(t_address,t_bool)": {
						"encoding": "mapping",
						"key": "t_address",
						"label": "mapping(address => bool)",
						"numberOfBytes": "32",
						"value": "t_bool"
					},
					"t_mapping(t_address,t_mapping(t_uint256,t_struct(AwardData)592_storage))": {
						"encoding": "mapping",
						"key": "t_address",
						"label": "mapping(address => mapping(uint256 => struct CreateWin.AwardData))",
						"numberOfBytes": "32",
						"value": "t_mapping(t_uint256,t_struct(AwardData)592_storage)"
					},
					"t_mapping(t_address,t_struct(User)574_storage)": {
						"encoding": "mapping",
						"key": "t_address",
						"label": "mapping(address => struct CreateWin.User)",
						"numberOfBytes": "32",
						"value": "t_struct(User)574_storage"
					},
					"t_mapping(t_address,t_struct(UserGlobal)585_storage)": {
						"encoding": "mapping",
						"key": "t_address",
						"label": "mapping(address => struct CreateWin.UserGlobal)",
						"numberOfBytes": "32",
						"value": "t_struct(UserGlobal)585_storage"
					},
					"t_mapping(t_string_memory,t_address)": {
						"encoding": "mapping",
						"key": "t_string_memory",
						"label": "mapping(string => address)",
						"numberOfBytes": "32",
						"value": "t_address"
					},
					"t_mapping(t_uint256,t_address)": {
						"encoding": "mapping",
						"key": "t_uint256",
						"label": "mapping(uint256 => address)",
						"numberOfBytes": "32",
						"value": "t_address"
					},
					"t_mapping(t_uint256,t_array(t_uint256)dyn_storage)": {
						"encoding": "mapping",
						"key": "t_uint256",
						"label": "mapping(uint256 => uint256[])",
						"numberOfBytes": "32",
						"value": "t_array(t_uint256)dyn_storage"
					},
					"t_mapping(t_uint256,t_mapping(t_address,t_mapping(t_uint256,t_struct(AwardData)592_storage)))": {
						"encoding": "mapping",
						"key": "t_uint256",
						"label": "mapping(uint256 => mapping(address => mapping(uint256 => struct CreateWin.AwardData)))",
						"numberOfBytes": "32",
						"value": "t_mapping(t_address,t_mapping(t_uint256,t_struct(AwardData)592_storage))"
					},
					"t_mapping(t_uint256,t_mapping(t_address,t_struct(User)574_storage))": {
						"encoding": "mapping",
						"key": "t_uint256",
						"label": "mapping(uint256 => mapping(address => struct CreateWin.User))",
						"numberOfBytes": "32",
						"value": "t_mapping(t_address,t_struct(User)574_storage)"
					},
					"t_mapping(t_uint256,t_struct(AwardData)592_storage)": {
						"encoding": "mapping",
						"key": "t_uint256",
						"label": "mapping(uint256 => struct CreateWin.AwardData)",
						"numberOfBytes": "32",
						"value": "t_struct(AwardData)592_storage"
					},
					"t_mapping(t_uint256,t_uint256)": {
						"encoding": "mapping",
						"key": "t_uint256",
						"label": "mapping(uint256 => uint256)",
						"numberOfBytes": "32",
						"value": "t_uint256"
					},
					"t_string_memory": {
						"encoding": "bytes",
						"label": "string",
						"numberOfBytes": "32"
					},
					"t_string_storage": {
						"encoding": "bytes",
						"label": "string",
						"numberOfBytes": "32"
					},
					"t_struct(AwardData)592_storage": {
						"encoding": "inplace",
						"label": "struct CreateWin.AwardData",
						"members": [
							{
								"astId": 587,
								"contract": "input/CreateWin.sol:CreateWin",
								"label": "oneInvAmount",
								"offset": 0,
								"slot": "0",
								"type": "t_uint256"
							},
							{
								"astId": 589,
								"contract": "input/CreateWin.sol:CreateWin",
								"label": "twoInvAmount",
								"offset": 0,
								"slot": "1",
								"type": "t_uint256"
							},
							{
								"astId": 591,
								"contract": "input/CreateWin.sol:CreateWin",
								"label": "threeInvAmount",
								"offset": 0,
								"slot": "2",
								"type": "t_uint256"
							}
						],
						"numberOfBytes": "96"
					},
					"t_struct(Role)375_storage": {
						"encoding": "inplace",
						"label": "struct Roles.Role",
						"members": [
							{
								"astId": 374,
								"contract": "input/CreateWin.sol:CreateWin",
								"label": "bearer",
								"offset": 0,
								"slot": "0",
								"type": "t_mapping(t_address,t_bool)"
							}
						],
						"numberOfBytes": "32"
					},
					"t_struct(User)574_storage": {
						"encoding": "inplace",
						"label": "struct CreateWin.User",
						"members": [
							{
								"astId": 543,
								"contract": "input/CreateWin.sol:CreateWin",
								"label": "id",
								"offset": 0,
								"slot": "0",
								"type": "t_uint256"
							},
							{
								"astId": 545,
								"contract": "input/CreateWin.sol:CreateWin",
								"label": "userAddress",
								"offset": 0,
								"slot": "1",
								"type": "t_address"
							},
							{
								"astId": 547,
								"contract": "input/CreateWin.sol:CreateWin",
								"label": "freeAmount",
								"offset": 0,
								"slot": "2",
								"type": "t_uint256"
							},
							{
								"astId": 549,
								"contract": "input/CreateWin.sol:CreateWin",
								"label": "freezeAmount",
								"offset": 0,
								"slot": "3",
								"type": "t_uint256"
							},
							{
								"astId": 551,
								"contract": "input/CreateWin.sol:CreateWin",
								"label": "lineAmount",
								"offset": 0,
								"slot": "4",
								"type": "t_uint256"
							},
							{
								"astId": 553,
								"contract": "input/CreateWin.sol:CreateWin",
								"label": "inviteAmonut",
								"offset": 0,
								"slot": "5",
								"type": "t_uint256"
							},
							{
								"astId": 555,
								"contract": "input/CreateWin.sol:CreateWin",
								"label": "dayBonusAmount",
								"offset": 0,
								"slot": "6",
								"type": "t_uint256"
							},
							{
								"astId": 557,
								"contract": "input/CreateWin.sol:CreateWin",
								"label": "bonusAmount",
								"offset": 0,
								"slot": "7",
								"type": "t_uint256"
							},
							{
								"astId": 559,
								"contract": "input/CreateWin.sol:CreateWin",
								"label": "level",
								"offset": 0,
								"slot": "8",
								"type": "t_uint256"
							},
							{
								"astId": 561,
								"contract": "input/CreateWin.sol:CreateWin",
								"label": "lineLevel",
								"offset": 0,
								"slot": "9",
								"type": "t_uint256"
							},
							{
								"astId": 563,
								"contract": "input/CreateWin.sol:CreateWin",
								"label": "resTime",
								"offset": 0,
								"slot": "10",
								"type": "t_uint256"
							},
							{
								"astId": 565,
								"contract": "input/CreateWin.sol:CreateWin",
								"label": "investTimes",
								"offset": 0,
								"slot": "11",
								"type": "t_uint256"
							},
							{
								"astId": 567,
								"contract": "input/CreateWin.sol:CreateWin",
								"label": "inviteCode",
								"offset": 0,
								"slot": "12",
								"type": "t_string_storage"
							},
							{
								"astId": 569,
								"contract": "input/CreateWin.sol:CreateWin",
								"label": "beCode",
								"offset": 0,
								"slot": "13",
								"type": "t_string_storage"
							},
							{
								"astId": 571,
								"contract": "input/CreateWin.sol:CreateWin",
								"label": "rewardIndex",
								"offset": 0,
								"slot": "14",
								"type": "t_uint256"
							},
							{
								"astId": 573,
								"contract": "input/CreateWin.sol:CreateWin",
								"label": "lastRwTime",
								"offset": 0,
								"slot": "15",
								"type": "t_uint256"
							}
						],
						"numberOfBytes": "512"
					},
					"t_struct(UserGlobal)585_storage": {
						"encoding": "inplace",
						"label": "struct CreateWin.UserGlobal",
						"members": [
							{
								"astId": 576,
								"contract": "input/CreateWin.sol:CreateWin",
								"label": "id",
								"offset": 0,
								"slot": "0",
								"type": "t_uint256"
							},
							{
								"astId": 578,
								"contract": "input/CreateWin.sol:CreateWin",
								"label": "userAddress",
								"offset": 0,
								"slot": "1",
								"type": "t_address"
							},
							{
								"astId": 580,
								"contract": "input/CreateWin.sol:CreateWin",
								"label": "inviteCode",
								"offset": 0,
								"slot": "2",
								"type": "t_string_storage"
							},
							{
								"astId": 582,
								"contract": "input/CreateWin.sol:CreateWin",
								"label": "beCode",
								"offset": 0,
								"slot": "3",
								"type": "t_string_storage"
							},
							{
								"astId": 584,
								"contract": "input/CreateWin.sol:CreateWin",
								"label": "status",
								"offset": 0,
								"slot": "4",
								"type": "t_uint256"
							}
						],
						"numberOfBytes": "160"
					},
					"t_uint256": {
						"encoding": "inplace",
						"label": "uint256",
						"numberOfBytes": "32"
					}
				}
			},
			"userdoc": {
				"methods": {}
			}
		}
	}
}