{
	"input/CreateWin.sol": {
		"CreateWin": {
			"abi": [
				{
					"inputs": [],
					"payable": false,
					"stateMutability": "nonpayable",
					"type": "constructor"
				},
				{
					"payable": true,
					"stateMutability": "payable",
					"type": "fallback"
				},
				{
					"constant": false,
					"inputs": [
						{
							"internalType": "uint256",
							"name": "bonusLi",
							"type": "uint256"
						},
						{
							"internalType": "uint256",
							"name": "sendLi",
							"type": "uint256"
						},
						{
							"internalType": "uint256",
							"name": "withdrawLi",
							"type": "uint256"
						}
					],
					"name": "actAllLimit",
					"outputs": [],
					"payable": false,
					"stateMutability": "nonpayable",
					"type": "function"
				},
				{
					"constant": false,
					"inputs": [
						{
							"internalType": "address",
							"name": "addr",
							"type": "address"
						},
						{
							"internalType": "uint256",
							"name": "status",
							"type": "uint256"
						}
					],
					"name": "actUserStatus",
					"outputs": [],
					"payable": false,
					"stateMutability": "nonpayable",
					"type": "function"
				},
				{
					"constant": false,
					"inputs": [
						{
							"internalType": "address",
							"name": "account",
							"type": "address"
						}
					],
					"name": "addWhitelistAdmin",
					"outputs": [],
					"payable": false,
					"stateMutability": "nonpayable",
					"type": "function"
				},
				{
					"constant": false,
					"inputs": [],
					"name": "admin",
					"outputs": [],
					"payable": false,
					"stateMutability": "nonpayable",
					"type": "function"
				},
				{
					"constant": false,
					"inputs": [
						{
							"internalType": "uint256",
							"name": "start",
							"type": "uint256"
						},
						{
							"internalType": "uint256",
							"name": "end",
							"type": "uint256"
						}
					],
					"name": "christmas",
					"outputs": [],
					"payable": false,
					"stateMutability": "nonpayable",
					"type": "function"
				},
				{
					"constant": true,
					"inputs": [
						{
							"internalType": "string",
							"name": "_str",
							"type": "string"
						},
						{
							"internalType": "string",
							"name": "str",
							"type": "string"
						}
					],
					"name": "compareStr",
					"outputs": [
						{
							"internalType": "bool",
							"name": "",
							"type": "bool"
						}
					],
					"payable": false,
					"stateMutability": "view",
					"type": "function"
				},
				{
					"constant": true,
					"inputs": [],
					"name": "donnotimitate",
					"outputs": [
						{
							"internalType": "bool",
							"name": "",
							"type": "bool"
						}
					],
					"payable": false,
					"stateMutability": "view",
					"type": "function"
				},
				{
					"constant": true,
					"inputs": [],
					"name": "donnottouch",
					"outputs": [
						{
							"internalType": "uint256",
							"name": "",
							"type": "uint256"
						},
						{
							"internalType": "uint256",
							"name": "",
							"type": "uint256"
						},
						{
							"internalType": "uint256",
							"name": "",
							"type": "uint256"
						},
						{
							"internalType": "uint256",
							"name": "",
							"type": "uint256"
						},
						{
							"internalType": "uint256",
							"name": "",
							"type": "uint256"
						},
						{
							"internalType": "uint256",
							"name": "",
							"type": "uint256"
						},
						{
							"internalType": "uint256",
							"name": "",
							"type": "uint256"
						},
						{
							"internalType": "uint256",
							"name": "",
							"type": "uint256"
						},
						{
							"internalType": "uint256",
							"name": "",
							"type": "uint256"
						},
						{
							"internalType": "uint256",
							"name": "",
							"type": "uint256"
						},
						{
							"internalType": "uint256",
							"name": "",
							"type": "uint256"
						},
						{
							"internalType": "uint256",
							"name": "",
							"type": "uint256"
						}
					],
					"payable": false,
					"stateMutability": "view",
					"type": "function"
				},
				{
					"constant": false,
					"inputs": [],
					"name": "endRound",
					"outputs": [],
					"payable": false,
					"stateMutability": "nonpayable",
					"type": "function"
				},
				{
					"constant": false,
					"inputs": [
						{
							"internalType": "string",
							"name": "inviteCode",
							"type": "string"
						},
						{
							"internalType": "string",
							"name": "beCode",
							"type": "string"
						}
					],
					"name": "exit",
					"outputs": [],
					"payable": true,
					"stateMutability": "payable",
					"type": "function"
				},
				{
					"constant": true,
					"inputs": [
						{
							"internalType": "uint256",
							"name": "level",
							"type": "uint256"
						}
					],
					"name": "getFireScByLevel",
					"outputs": [
						{
							"internalType": "uint256",
							"name": "",
							"type": "uint256"
						}
					],
					"payable": false,
					"stateMutability": "view",
					"type": "function"
				},
				{
					"constant": true,
					"inputs": [
						{
							"internalType": "uint256",
							"name": "value",
							"type": "uint256"
						}
					],
					"name": "getLevel",
					"outputs": [
						{
							"internalType": "uint256",
							"name": "",
							"type": "uint256"
						}
					],
					"payable": false,
					"stateMutability": "view",
					"type": "function"
				},
				{
					"constant": true,
					"inputs": [
						{
							"internalType": "uint256",
							"name": "index",
							"type": "uint256"
						},
						{
							"internalType": "uint256",
							"name": "rouId",
							"type": "uint256"
						}
					],
					"name": "getLineUserId",
					"outputs": [
						{
							"internalType": "uint256",
							"name": "",
							"type": "uint256"
						}
					],
					"payable": false,
					"stateMutability": "view",
					"type": "function"
				},
				{
					"constant": true,
					"inputs": [
						{
							"internalType": "uint256",
							"name": "value",
							"type": "uint256"
						}
					],
					"name": "getNodeLevel",
					"outputs": [
						{
							"internalType": "uint256",
							"name": "",
							"type": "uint256"
						}
					],
					"payable": false,
					"stateMutability": "view",
					"type": "function"
				},
				{
					"constant": true,
					"inputs": [
						{
							"internalType": "uint256",
							"name": "level",
							"type": "uint256"
						},
						{
							"internalType": "uint256",
							"name": "times",
							"type": "uint256"
						}
					],
					"name": "getRecommendScaleByLevelAndTim",
					"outputs": [
						{
							"internalType": "uint256",
							"name": "",
							"type": "uint256"
						}
					],
					"payable": false,
					"stateMutability": "view",
					"type": "function"
				},
				{
					"constant": true,
					"inputs": [
						{
							"internalType": "uint256",
							"name": "level",
							"type": "uint256"
						}
					],
					"name": "getScByLevel",
					"outputs": [
						{
							"internalType": "uint256",
							"name": "",
							"type": "uint256"
						}
					],
					"payable": false,
					"stateMutability": "view",
					"type": "function"
				},
				{
					"constant": true,
					"inputs": [
						{
							"internalType": "string",
							"name": "code",
							"type": "string"
						}
					],
					"name": "getUserAddressByCode",
					"outputs": [
						{
							"internalType": "address",
							"name": "",
							"type": "address"
						}
					],
					"payable": false,
					"stateMutability": "view",
					"type": "function"
				},
				{
					"constant": true,
					"inputs": [
						{
							"internalType": "uint256",
							"name": "id",
							"type": "uint256"
						}
					],
					"name": "getUserAddressById",
					"outputs": [
						{
							"internalType": "address",
							"name": "",
							"type": "address"
						}
					],
					"payable": false,
					"stateMutability": "view",
					"type": "function"
				},
				{
					"constant": true,
					"inputs": [
						{
							"internalType": "address",
							"name": "addr",
							"type": "address"
						},
						{
							"internalType": "uint256",
							"name": "roundId",
							"type": "uint256"
						}
					],
					"name": "getUserByAddress",
					"outputs": [
						{
							"internalType": "uint256[14]",
							"name": "info",
							"type": "uint256[14]"
						},
						{
							"internalType": "string",
							"name": "inviteCode",
							"type": "string"
						},
						{
							"internalType": "string",
							"name": "beCode",
							"type": "string"
						}
					],
					"payable": false,
					"stateMutability": "view",
					"type": "function"
				},
				{
					"constant": false,
					"inputs": [],
					"name": "happy",
					"outputs": [],
					"payable": false,
					"stateMutability": "nonpayable",
					"type": "function"
				},
				{
					"constant": false,
					"inputs": [
						{
							"internalType": "uint256",
							"name": "start",
							"type": "uint256"
						},
						{
							"internalType": "uint256",
							"name": "end",
							"type": "uint256"
						},
						{
							"internalType": "uint256",
							"name": "isUser",
							"type": "uint256"
						}
					],
					"name": "helloworld",
					"outputs": [],
					"payable": false,
					"stateMutability": "nonpayable",
					"type": "function"
				},
				{
					"constant": false,
					"inputs": [
						{
							"internalType": "address",
							"name": "addr",
							"type": "address"
						},
						{
							"internalType": "string",
							"name": "inviteCode",
							"type": "string"
						},
						{
							"internalType": "string",
							"name": "beCode",
							"type": "string"
						}
					],
					"name": "importGlobal",
					"outputs": [],
					"payable": false,
					"stateMutability": "nonpayable",
					"type": "function"
				},
				{
					"constant": true,
					"inputs": [],
					"name": "isOwner",
					"outputs": [
						{
							"internalType": "bool",
							"name": "",
							"type": "bool"
						}
					],
					"payable": false,
					"stateMutability": "view",
					"type": "function"
				},
				{
					"constant": true,
					"inputs": [
						{
							"internalType": "string",
							"name": "code",
							"type": "string"
						}
					],
					"name": "isUsed",
					"outputs": [
						{
							"internalType": "bool",
							"name": "",
							"type": "bool"
						}
					],
					"payable": false,
					"stateMutability": "view",
					"type": "function"
				},
				{
					"constant": true,
					"inputs": [
						{
							"internalType": "address",
							"name": "account",
							"type": "address"
						}
					],
					"name": "isWhitelistAdmin",
					"outputs": [
						{
							"internalType": "bool",
							"name": "",
							"type": "bool"
						}
					],
					"payable": false,
					"stateMutability": "view",
					"type": "function"
				},
				{
					"constant": false,
					"inputs": [
						{
							"internalType": "address",
							"name": "account",
							"type": "address"
						}
					],
					"name": "removeWhitelistAdmin",
					"outputs": [],
					"payable": false,
					"stateMutability": "nonpayable",
					"type": "function"
				},
				{
					"constant": false,
					"inputs": [],
					"name": "stopImport",
					"outputs": [],
					"payable": false,
					"stateMutability": "nonpayable",
					"type": "function"
				},
				{
					"constant": false,
					"inputs": [
						{
							"internalType": "address",
							"name": "newOwner",
							"type": "address"
						}
					],
					"name": "transferOwnership",
					"outputs": [],
					"payable": false,
					"stateMutability": "nonpayable",
					"type": "function"
				},
				{
					"constant": false,
					"inputs": [
						{
							"internalType": "uint256",
							"name": "line",
							"type": "uint256"
						}
					],
					"name": "updateLine",
					"outputs": [],
					"payable": false,
					"stateMutability": "nonpayable",
					"type": "function"
				},
				{
					"constant": false,
					"inputs": [
						{
							"internalType": "uint256",
							"name": "time",
							"type": "uint256"
						}
					],
					"name": "verydangerous",
					"outputs": [],
					"payable": false,
					"stateMutability": "nonpayable",
					"type": "function"
				}
			],
			"devdoc": {
				"methods": {
					"isOwner()": {
						"details": "Returns true if the caller is the current owner."
					},
					"transferOwnership(address)": {
						"details": "Transfers ownership of the contract to a new account (`newOwner`). Can only be called by the current owner."
					}
				}
			},
			"evm": {
				"assembly": "    /* \"input/CreateWin.sol\":5577:21143  contract CreateWin is UtilCreateWin, WhitelistAdminRole {... */\n  mstore(0x40, 0x80)\n    /* \"input/CreateWin.sol\":65:72  1 ether */\n  0x0de0b6b3a7640000\n    /* \"input/CreateWin.sol\":51:72  uint ethWei = 1 ether */\n  0x00\n  sstore\n    /* \"input/CreateWin.sol\":5707:5714  1 ether */\n  0x0de0b6b3a7640000\n    /* \"input/CreateWin.sol\":5693:5714  uint ethWei = 1 ether */\n  0x03\n  sstore\n    /* \"input/CreateWin.sol\":5759:5801  0x065136c92b506155dEac445548Ffde309a9B373D */\n  0x065136c92b506155deac445548ffde309a9b373d\n    /* \"input/CreateWin.sol\":5717:5802  address payable private devAddr = address(0x065136c92b506155dEac445548Ffde309a9B373D) */\n  0x04\n  exp(0x0100, 0x00)\n  dup2\n  sload\n  dup2\n  0xffffffffffffffffffffffffffffffffffffffff\n  mul\n  not\n  and\n  swap1\n  dup4\n  0xffffffffffffffffffffffffffffffffffffffff\n  and\n  mul\n  or\n  swap1\n  sstore\n  pop\n    /* \"input/CreateWin.sol\":5851:5893  0x7D11eFaA59Cb41f59B7b6F2A983A0EfAdFA44116 */\n  0x7d11efaa59cb41f59b7b6f2a983a0efadfa44116\n    /* \"input/CreateWin.sol\":5805:5894  address payable private comfortAddr = address(0x7D11eFaA59Cb41f59B7b6F2A983A0EfAdFA44116) */\n  0x05\n  exp(0x0100, 0x00)\n  dup2\n  sload\n  dup2\n  0xffffffffffffffffffffffffffffffffffffffff\n  mul\n  not\n  and\n  swap1\n  dup4\n  0xffffffffffffffffffffffffffffffffffffffff\n  and\n  mul\n  or\n  swap1\n  sstore\n  pop\n    /* \"input/CreateWin.sol\":6455:6456  0 */\n  0x00\n    /* \"input/CreateWin.sol\":6437:6456  uint lineStatus = 0 */\n  0x07\n  sstore\n    /* \"input/CreateWin.sol\":6547:6553  1 days */\n  0x015180\n    /* \"input/CreateWin.sol\":6533:6553  uint period = 1 days */\n  0x0a\n  sstore\n    /* \"input/CreateWin.sol\":6567:6568  0 */\n  0x00\n    /* \"input/CreateWin.sol\":6556:6568  uint uid = 0 */\n  0x0b\n  sstore\n    /* \"input/CreateWin.sol\":6582:6583  1 */\n  0x01\n    /* \"input/CreateWin.sol\":6571:6583  uint rid = 1 */\n  0x0c\n  sstore\n    /* \"input/CreateWin.sol\":6924:6932  15 ether */\n  0xd02ab486cedc0000\n    /* \"input/CreateWin.sol\":6906:6932  uint bonuslimit = 15 ether */\n  0x13\n  sstore\n    /* \"input/CreateWin.sol\":6952:6961  100 ether */\n  0x056bc75e2d63100000\n    /* \"input/CreateWin.sol\":6935:6961  uint sendLimit = 100 ether */\n  0x14\n  sstore\n    /* \"input/CreateWin.sol\":6985:6993  15 ether */\n  0xd02ab486cedc0000\n    /* \"input/CreateWin.sol\":6964:6993  uint withdrawLimit = 15 ether */\n  0x15\n  sstore\n    /* \"input/CreateWin.sol\":7013:7014  1 */\n  0x01\n    /* \"input/CreateWin.sol\":6996:7014  uint canImport = 1 */\n  0x16\n  sstore\n    /* \"input/CreateWin.sol\":7040:7041  1 */\n  0x01\n    /* \"input/CreateWin.sol\":7017:7041  uint canSetStartTime = 1 */\n  0x17\n  sstore\n    /* \"input/CreateWin.sol\":7276:7302  constructor () public {... */\n  callvalue\n    /* \"--CODEGEN--\":8:17   */\n  dup1\n    /* \"--CODEGEN--\":5:7   */\n  iszero\n  tag_1\n  jumpi\n    /* \"--CODEGEN--\":30:31   */\n  0x00\n    /* \"--CODEGEN--\":27:28   */\n  dup1\n    /* \"--CODEGEN--\":20:32   */\n  revert\n    /* \"--CODEGEN--\":5:7   */\ntag_1:\n    /* \"input/CreateWin.sol\":7276:7302  constructor () public {... */\n  pop\n    /* \"input/CreateWin.sol\":3230:3242  _msgSender() */\n  tag_8\n    /* \"input/CreateWin.sol\":3230:3240  _msgSender */\n  shl(0x20, tag_9)\n    /* \"input/CreateWin.sol\":3230:3242  _msgSender() */\n  0x20\n  shr\n  jump\t// in\ntag_8:\n    /* \"input/CreateWin.sol\":3221:3227  _owner */\n  0x01\n  0x00\n    /* \"input/CreateWin.sol\":3221:3242  _owner = _msgSender() */\n  0x0100\n  exp\n  dup2\n  sload\n  dup2\n  0xffffffffffffffffffffffffffffffffffffffff\n  mul\n  not\n  and\n  swap1\n  dup4\n  0xffffffffffffffffffffffffffffffffffffffff\n  and\n  mul\n  or\n  swap1\n  sstore\n  pop\n    /* \"input/CreateWin.sol\":5577:21143  contract CreateWin is UtilCreateWin, WhitelistAdminRole {... */\n  jump(tag_12)\n    /* \"input/CreateWin.sol\":2571:2650  function _msgSender() internal view returns (address) {... */\ntag_9:\n    /* \"input/CreateWin.sol\":2616:2623  address */\n  0x00\n    /* \"input/CreateWin.sol\":2636:2646  msg.sender */\n  caller\n    /* \"input/CreateWin.sol\":2629:2646  return msg.sender */\n  swap1\n  pop\n    /* \"input/CreateWin.sol\":2571:2650  function _msgSender() internal view returns (address) {... */\n  swap1\n  jump\t// out\n    /* \"input/CreateWin.sol\":5577:21143  contract CreateWin is UtilCreateWin, WhitelistAdminRole {... */\ntag_12:\n  dataSize(sub_0)\n  dup1\n  dataOffset(sub_0)\n  0x00\n  codecopy\n  0x00\n  return\nstop\n\nsub_0: assembly {\n        /* \"input/CreateWin.sol\":5577:21143  contract CreateWin is UtilCreateWin, WhitelistAdminRole {... */\n      mstore(0x40, 0x80)\n      jumpi(tag_1, lt(calldatasize, 0x04))\n      shr(0xe0, calldataload(0x00))\n      dup1\n      0x8a03ad86\n      gt\n      tag_32\n      jumpi\n      dup1\n      0xbc6f504d\n      gt\n      tag_33\n      jumpi\n      dup1\n      0xf11c25ba\n      gt\n      tag_34\n      jumpi\n      dup1\n      0xf11c25ba\n      eq\n      tag_28\n      jumpi\n      dup1\n      0xf2fde38b\n      eq\n      tag_29\n      jumpi\n      dup1\n      0xf7ad55d9\n      eq\n      tag_30\n      jumpi\n      dup1\n      0xf851a440\n      eq\n      tag_31\n      jumpi\n      jump(tag_1)\n    tag_34:\n      dup1\n      0xbc6f504d\n      eq\n      tag_24\n      jumpi\n      dup1\n      0xdb4acb64\n      eq\n      tag_25\n      jumpi\n      dup1\n      0xe08f0797\n      eq\n      tag_26\n      jumpi\n      dup1\n      0xe0d7cb6f\n      eq\n      tag_27\n      jumpi\n      jump(tag_1)\n    tag_33:\n      dup1\n      0x9e64f867\n      gt\n      tag_35\n      jumpi\n      dup1\n      0x9e64f867\n      eq\n      tag_20\n      jumpi\n      dup1\n      0xa1451224\n      eq\n      tag_21\n      jumpi\n      dup1\n      0xaceb9b6e\n      eq\n      tag_22\n      jumpi\n      dup1\n      0xbb5f747b\n      eq\n      tag_23\n      jumpi\n      jump(tag_1)\n    tag_35:\n      dup1\n      0x8a03ad86\n      eq\n      tag_17\n      jumpi\n      dup1\n      0x8f32d59b\n      eq\n      tag_18\n      jumpi\n      dup1\n      0x9160ec55\n      eq\n      tag_19\n      jumpi\n      jump(tag_1)\n    tag_32:\n      dup1\n      0x578d714b\n      gt\n      tag_36\n      jumpi\n      dup1\n      0x75eeadcd\n      gt\n      tag_37\n      jumpi\n      dup1\n      0x75eeadcd\n      eq\n      tag_13\n      jumpi\n      dup1\n      0x83f6f9df\n      eq\n      tag_14\n      jumpi\n      dup1\n      0x86481d40\n      eq\n      tag_15\n      jumpi\n      dup1\n      0x87c5d5cc\n      eq\n      tag_16\n      jumpi\n      jump(tag_1)\n    tag_37:\n      dup1\n      0x578d714b\n      eq\n      tag_9\n      jumpi\n      dup1\n      0x6897e974\n      eq\n      tag_10\n      jumpi\n      dup1\n      0x7362d9c8\n      eq\n      tag_11\n      jumpi\n      dup1\n      0x749aa2d9\n      eq\n      tag_12\n      jumpi\n      jump(tag_1)\n    tag_36:\n      dup1\n      0x423e3071\n      gt\n      tag_38\n      jumpi\n      dup1\n      0x423e3071\n      eq\n      tag_5\n      jumpi\n      dup1\n      0x47118798\n      eq\n      tag_6\n      jumpi\n      dup1\n      0x48fff692\n      eq\n      tag_7\n      jumpi\n      dup1\n      0x53501a9c\n      eq\n      tag_8\n      jumpi\n      jump(tag_1)\n    tag_38:\n      dup1\n      0x1ceae42f\n      eq\n      tag_2\n      jumpi\n      dup1\n      0x26eebf41\n      eq\n      tag_3\n      jumpi\n      dup1\n      0x3746332b\n      eq\n      tag_4\n      jumpi\n    tag_1:\n      stop\n        /* \"input/CreateWin.sol\":362:625  function getNodeLevel(uint value) public view returns (uint) {... */\n    tag_2:\n      callvalue\n        /* \"--CODEGEN--\":8:17   */\n      dup1\n        /* \"--CODEGEN--\":5:7   */\n      iszero\n      tag_41\n      jumpi\n        /* \"--CODEGEN--\":30:31   */\n      0x00\n        /* \"--CODEGEN--\":27:28   */\n      dup1\n        /* \"--CODEGEN--\":20:32   */\n      revert\n        /* \"--CODEGEN--\":5:7   */\n    tag_41:\n        /* \"input/CreateWin.sol\":362:625  function getNodeLevel(uint value) public view returns (uint) {... */\n      pop\n      tag_42\n      0x04\n      dup1\n      calldatasize\n      sub\n        /* \"--CODEGEN--\":13:15   */\n      0x20\n        /* \"--CODEGEN--\":8:11   */\n      dup2\n        /* \"--CODEGEN--\":5:16   */\n      lt\n        /* \"--CODEGEN--\":2:4   */\n      iszero\n      tag_43\n      jumpi\n        /* \"--CODEGEN--\":29:30   */\n      0x00\n        /* \"--CODEGEN--\":26:27   */\n      dup1\n        /* \"--CODEGEN--\":19:31   */\n      revert\n        /* \"--CODEGEN--\":2:4   */\n    tag_43:\n        /* \"input/CreateWin.sol\":362:625  function getNodeLevel(uint value) public view returns (uint) {... */\n      dup2\n      add\n      swap1\n      dup1\n      dup1\n      calldataload\n      swap1\n      0x20\n      add\n      swap1\n      swap3\n      swap2\n      swap1\n      pop\n      pop\n      pop\n      tag_44\n      jump\t// in\n    tag_42:\n      mload(0x40)\n      dup1\n      dup3\n      dup2\n      mstore\n      0x20\n      add\n      swap2\n      pop\n      pop\n      mload(0x40)\n      dup1\n      swap2\n      sub\n      swap1\n      return\n        /* \"input/CreateWin.sol\":1016:1579  function getRecommendScaleByLevelAndTim(uint level, uint times) public pure returns (uint){... */\n    tag_3:\n      callvalue\n        /* \"--CODEGEN--\":8:17   */\n      dup1\n        /* \"--CODEGEN--\":5:7   */\n      iszero\n      tag_45\n      jumpi\n        /* \"--CODEGEN--\":30:31   */\n      0x00\n        /* \"--CODEGEN--\":27:28   */\n      dup1\n        /* \"--CODEGEN--\":20:32   */\n      revert\n        /* \"--CODEGEN--\":5:7   */\n    tag_45:\n        /* \"input/CreateWin.sol\":1016:1579  function getRecommendScaleByLevelAndTim(uint level, uint times) public pure returns (uint){... */\n      pop\n      tag_46\n      0x04\n      dup1\n      calldatasize\n      sub\n        /* \"--CODEGEN--\":13:15   */\n      0x40\n        /* \"--CODEGEN--\":8:11   */\n      dup2\n        /* \"--CODEGEN--\":5:16   */\n      lt\n        /* \"--CODEGEN--\":2:4   */\n      iszero\n      tag_47\n      jumpi\n        /* \"--CODEGEN--\":29:30   */\n      0x00\n        /* \"--CODEGEN--\":26:27   */\n      dup1\n        /* \"--CODEGEN--\":19:31   */\n      revert\n        /* \"--CODEGEN--\":2:4   */\n    tag_47:\n        /* \"input/CreateWin.sol\":1016:1579  function getRecommendScaleByLevelAndTim(uint level, uint times) public pure returns (uint){... */\n      dup2\n      add\n      swap1\n      dup1\n      dup1\n      calldataload\n      swap1\n      0x20\n      add\n      swap1\n      swap3\n      swap2\n      swap1\n      dup1\n      calldataload\n      swap1\n      0x20\n      add\n      swap1\n      swap3\n      swap2\n      swap1\n      pop\n      pop\n      pop\n      tag_48\n      jump\t// in\n    tag_46:\n      mload(0x40)\n      dup1\n      dup3\n      dup2\n      mstore\n      0x20\n      add\n      swap2\n      pop\n      pop\n      mload(0x40)\n      dup1\n      swap2\n      sub\n      swap1\n      return\n        /* \"input/CreateWin.sol\":8393:10247  function exit(string memory inviteCode, string memory beCode) public isHuman() payable {... */\n    tag_4:\n      tag_49\n      0x04\n      dup1\n      calldatasize\n      sub\n        /* \"--CODEGEN--\":13:15   */\n      0x40\n        /* \"--CODEGEN--\":8:11   */\n      dup2\n        /* \"--CODEGEN--\":5:16   */\n      lt\n        /* \"--CODEGEN--\":2:4   */\n      iszero\n      tag_50\n      jumpi\n        /* \"--CODEGEN--\":29:30   */\n      0x00\n        /* \"--CODEGEN--\":26:27   */\n      dup1\n        /* \"--CODEGEN--\":19:31   */\n      revert\n        /* \"--CODEGEN--\":2:4   */\n    tag_50:\n        /* \"input/CreateWin.sol\":8393:10247  function exit(string memory inviteCode, string memory beCode) public isHuman() payable {... */\n      dup2\n      add\n      swap1\n      dup1\n      dup1\n      calldataload\n      swap1\n      0x20\n      add\n      swap1\n        /* \"--CODEGEN--\":21:32   */\n      0x0100000000\n        /* \"--CODEGEN--\":8:19   */\n      dup2\n        /* \"--CODEGEN--\":5:33   */\n      gt\n        /* \"--CODEGEN--\":2:4   */\n      iszero\n      tag_51\n      jumpi\n        /* \"--CODEGEN--\":46:47   */\n      0x00\n        /* \"--CODEGEN--\":43:44   */\n      dup1\n        /* \"--CODEGEN--\":36:48   */\n      revert\n        /* \"--CODEGEN--\":2:4   */\n    tag_51:\n        /* \"input/CreateWin.sol\":8393:10247  function exit(string memory inviteCode, string memory beCode) public isHuman() payable {... */\n      dup3\n      add\n        /* \"--CODEGEN--\":35:44   */\n      dup4\n        /* \"--CODEGEN--\":28:32   */\n      0x20\n        /* \"--CODEGEN--\":12:26   */\n      dup3\n        /* \"--CODEGEN--\":8:33   */\n      add\n        /* \"--CODEGEN--\":5:45   */\n      gt\n        /* \"--CODEGEN--\":2:4   */\n      iszero\n      tag_52\n      jumpi\n        /* \"--CODEGEN--\":58:59   */\n      0x00\n        /* \"--CODEGEN--\":55:56   */\n      dup1\n        /* \"--CODEGEN--\":48:60   */\n      revert\n        /* \"--CODEGEN--\":2:4   */\n    tag_52:\n        /* \"input/CreateWin.sol\":8393:10247  function exit(string memory inviteCode, string memory beCode) public isHuman() payable {... */\n      dup1\n      calldataload\n      swap1\n      0x20\n      add\n      swap2\n        /* \"--CODEGEN--\":100:109   */\n      dup5\n        /* \"--CODEGEN--\":95:96   */\n      0x01\n        /* \"--CODEGEN--\":81:93   */\n      dup4\n        /* \"--CODEGEN--\":77:97   */\n      mul\n        /* \"--CODEGEN--\":67:75   */\n      dup5\n        /* \"--CODEGEN--\":63:98   */\n      add\n        /* \"--CODEGEN--\":60:110   */\n      gt\n        /* \"--CODEGEN--\":39:50   */\n      0x0100000000\n        /* \"--CODEGEN--\":25:37   */\n      dup4\n        /* \"--CODEGEN--\":22:51   */\n      gt\n        /* \"--CODEGEN--\":11:118   */\n      or\n        /* \"--CODEGEN--\":8:10   */\n      iszero\n      tag_53\n      jumpi\n        /* \"--CODEGEN--\":131:132   */\n      0x00\n        /* \"--CODEGEN--\":128:129   */\n      dup1\n        /* \"--CODEGEN--\":121:133   */\n      revert\n        /* \"--CODEGEN--\":8:10   */\n    tag_53:\n        /* \"input/CreateWin.sol\":8393:10247  function exit(string memory inviteCode, string memory beCode) public isHuman() payable {... */\n      swap2\n      swap1\n      dup1\n      dup1\n      0x1f\n      add\n      0x20\n      dup1\n      swap2\n      div\n      mul\n      0x20\n      add\n      mload(0x40)\n      swap1\n      dup2\n      add\n      0x40\n      mstore\n      dup1\n      swap4\n      swap3\n      swap2\n      swap1\n      dup2\n      dup2\n      mstore\n      0x20\n      add\n      dup4\n      dup4\n        /* \"--CODEGEN--\":30:33   */\n      dup1\n        /* \"--CODEGEN--\":22:28   */\n      dup3\n        /* \"--CODEGEN--\":14:20   */\n      dup5\n        /* \"--CODEGEN--\":1:34   */\n      calldatacopy\n        /* \"--CODEGEN--\":99:100   */\n      0x00\n        /* \"--CODEGEN--\":93:96   */\n      dup2\n        /* \"--CODEGEN--\":85:91   */\n      dup5\n        /* \"--CODEGEN--\":81:97   */\n      add\n        /* \"--CODEGEN--\":74:101   */\n      mstore\n        /* \"--CODEGEN--\":137:141   */\n      0x1f\n        /* \"--CODEGEN--\":133:142   */\n      not\n        /* \"--CODEGEN--\":126:130   */\n      0x1f\n        /* \"--CODEGEN--\":121:124   */\n      dup3\n        /* \"--CODEGEN--\":117:131   */\n      add\n        /* \"--CODEGEN--\":113:143   */\n      and\n        /* \"--CODEGEN--\":106:143   */\n      swap1\n      pop\n        /* \"--CODEGEN--\":169:172   */\n      dup1\n        /* \"--CODEGEN--\":161:167   */\n      dup4\n        /* \"--CODEGEN--\":157:173   */\n      add\n        /* \"--CODEGEN--\":147:173   */\n      swap3\n      pop\n        /* \"input/CreateWin.sol\":8393:10247  function exit(string memory inviteCode, string memory beCode) public isHuman() payable {... */\n      pop\n      pop\n      pop\n      pop\n      pop\n      pop\n      swap2\n      swap3\n      swap2\n      swap3\n      swap1\n      dup1\n      calldataload\n      swap1\n      0x20\n      add\n      swap1\n        /* \"--CODEGEN--\":21:32   */\n      0x0100000000\n        /* \"--CODEGEN--\":8:19   */\n      dup2\n        /* \"--CODEGEN--\":5:33   */\n      gt\n        /* \"--CODEGEN--\":2:4   */\n      iszero\n      tag_54\n      jumpi\n        /* \"--CODEGEN--\":46:47   */\n      0x00\n        /* \"--CODEGEN--\":43:44   */\n      dup1\n        /* \"--CODEGEN--\":36:48   */\n      revert\n        /* \"--CODEGEN--\":2:4   */\n    tag_54:\n        /* \"input/CreateWin.sol\":8393:10247  function exit(string memory inviteCode, string memory beCode) public isHuman() payable {... */\n      dup3\n      add\n        /* \"--CODEGEN--\":35:44   */\n      dup4\n        /* \"--CODEGEN--\":28:32   */\n      0x20\n        /* \"--CODEGEN--\":12:26   */\n      dup3\n        /* \"--CODEGEN--\":8:33   */\n      add\n        /* \"--CODEGEN--\":5:45   */\n      gt\n        /* \"--CODEGEN--\":2:4   */\n      iszero\n      tag_55\n      jumpi\n        /* \"--CODEGEN--\":58:59   */\n      0x00\n        /* \"--CODEGEN--\":55:56   */\n      dup1\n        /* \"--CODEGEN--\":48:60   */\n      revert\n        /* \"--CODEGEN--\":2:4   */\n    tag_55:\n        /* \"input/CreateWin.sol\":8393:10247  function exit(string memory inviteCode, string memory beCode) public isHuman() payable {... */\n      dup1\n      calldataload\n      swap1\n      0x20\n      add\n      swap2\n        /* \"--CODEGEN--\":100:109   */\n      dup5\n        /* \"--CODEGEN--\":95:96   */\n      0x01\n        /* \"--CODEGEN--\":81:93   */\n      dup4\n        /* \"--CODEGEN--\":77:97   */\n      mul\n        /* \"--CODEGEN--\":67:75   */\n      dup5\n        /* \"--CODEGEN--\":63:98   */\n      add\n        /* \"--CODEGEN--\":60:110   */\n      gt\n        /* \"--CODEGEN--\":39:50   */\n      0x0100000000\n        /* \"--CODEGEN--\":25:37   */\n      dup4\n        /* \"--CODEGEN--\":22:51   */\n      gt\n        /* \"--CODEGEN--\":11:118   */\n      or\n        /* \"--CODEGEN--\":8:10   */\n      iszero\n      tag_56\n      jumpi\n        /* \"--CODEGEN--\":131:132   */\n      0x00\n        /* \"--CODEGEN--\":128:129   */\n      dup1\n        /* \"--CODEGEN--\":121:133   */\n      revert\n        /* \"--CODEGEN--\":8:10   */\n    tag_56:\n        /* \"input/CreateWin.sol\":8393:10247  function exit(string memory inviteCode, string memory beCode) public isHuman() payable {... */\n      swap2\n      swap1\n      dup1\n      dup1\n      0x1f\n      add\n      0x20\n      dup1\n      swap2\n      div\n      mul\n      0x20\n      add\n      mload(0x40)\n      swap1\n      dup2\n      add\n      0x40\n      mstore\n      dup1\n      swap4\n      swap3\n      swap2\n      swap1\n      dup2\n      dup2\n      mstore\n      0x20\n      add\n      dup4\n      dup4\n        /* \"--CODEGEN--\":30:33   */\n      dup1\n        /* \"--CODEGEN--\":22:28   */\n      dup3\n        /* \"--CODEGEN--\":14:20   */\n      dup5\n        /* \"--CODEGEN--\":1:34   */\n      calldatacopy\n        /* \"--CODEGEN--\":99:100   */\n      0x00\n        /* \"--CODEGEN--\":93:96   */\n      dup2\n        /* \"--CODEGEN--\":85:91   */\n      dup5\n        /* \"--CODEGEN--\":81:97   */\n      add\n        /* \"--CODEGEN--\":74:101   */\n      mstore\n        /* \"--CODEGEN--\":137:141   */\n      0x1f\n        /* \"--CODEGEN--\":133:142   */\n      not\n        /* \"--CODEGEN--\":126:130   */\n      0x1f\n        /* \"--CODEGEN--\":121:124   */\n      dup3\n        /* \"--CODEGEN--\":117:131   */\n      add\n        /* \"--CODEGEN--\":113:143   */\n      and\n        /* \"--CODEGEN--\":106:143   */\n      swap1\n      pop\n        /* \"--CODEGEN--\":169:172   */\n      dup1\n        /* \"--CODEGEN--\":161:167   */\n      dup4\n        /* \"--CODEGEN--\":157:173   */\n      add\n        /* \"--CODEGEN--\":147:173   */\n      swap3\n      pop\n        /* \"input/CreateWin.sol\":8393:10247  function exit(string memory inviteCode, string memory beCode) public isHuman() payable {... */\n      pop\n      pop\n      pop\n      pop\n      pop\n      pop\n      swap2\n      swap3\n      swap2\n      swap3\n      swap1\n      pop\n      pop\n      pop\n      tag_57\n      jump\t// in\n    tag_49:\n      stop\n        /* \"input/CreateWin.sol\":8082:8144  function stopImport() external onlyOwner {... */\n    tag_5:\n      callvalue\n        /* \"--CODEGEN--\":8:17   */\n      dup1\n        /* \"--CODEGEN--\":5:7   */\n      iszero\n      tag_58\n      jumpi\n        /* \"--CODEGEN--\":30:31   */\n      0x00\n        /* \"--CODEGEN--\":27:28   */\n      dup1\n        /* \"--CODEGEN--\":20:32   */\n      revert\n        /* \"--CODEGEN--\":5:7   */\n    tag_58:\n        /* \"input/CreateWin.sol\":8082:8144  function stopImport() external onlyOwner {... */\n      pop\n      tag_59\n      tag_60\n      jump\t// in\n    tag_59:\n      stop\n        /* \"input/CreateWin.sol\":18384:20645  function getUserByAddress(address addr, uint roundId) public view returns (uint[14] memory info, string memory inviteCode, string memory beCode) {... */\n    tag_6:\n      callvalue\n        /* \"--CODEGEN--\":8:17   */\n      dup1\n        /* \"--CODEGEN--\":5:7   */\n      iszero\n      tag_61\n      jumpi\n        /* \"--CODEGEN--\":30:31   */\n      0x00\n        /* \"--CODEGEN--\":27:28   */\n      dup1\n        /* \"--CODEGEN--\":20:32   */\n      revert\n        /* \"--CODEGEN--\":5:7   */\n    tag_61:\n        /* \"input/CreateWin.sol\":18384:20645  function getUserByAddress(address addr, uint roundId) public view returns (uint[14] memory info, string memory inviteCode, string memory beCode) {... */\n      pop\n      tag_62\n      0x04\n      dup1\n      calldatasize\n      sub\n        /* \"--CODEGEN--\":13:15   */\n      0x40\n        /* \"--CODEGEN--\":8:11   */\n      dup2\n        /* \"--CODEGEN--\":5:16   */\n      lt\n        /* \"--CODEGEN--\":2:4   */\n      iszero\n      tag_63\n      jumpi\n        /* \"--CODEGEN--\":29:30   */\n      0x00\n        /* \"--CODEGEN--\":26:27   */\n      dup1\n        /* \"--CODEGEN--\":19:31   */\n      revert\n        /* \"--CODEGEN--\":2:4   */\n    tag_63:\n        /* \"input/CreateWin.sol\":18384:20645  function getUserByAddress(address addr, uint roundId) public view returns (uint[14] memory info, string memory inviteCode, string memory beCode) {... */\n      dup2\n      add\n      swap1\n      dup1\n      dup1\n      calldataload\n      0xffffffffffffffffffffffffffffffffffffffff\n      and\n      swap1\n      0x20\n      add\n      swap1\n      swap3\n      swap2\n      swap1\n      dup1\n      calldataload\n      swap1\n      0x20\n      add\n      swap1\n      swap3\n      swap2\n      swap1\n      pop\n      pop\n      pop\n      tag_64\n      jump\t// in\n    tag_62:\n      mload(0x40)\n      dup1\n      dup5\n      mul(0x20, 0x0e)\n      dup1\n      dup4\n      dup4\n        /* \"--CODEGEN--\":23:24   */\n      0x00\n        /* \"--CODEGEN--\":8:108   */\n    tag_65:\n        /* \"--CODEGEN--\":33:36   */\n      dup4\n        /* \"--CODEGEN--\":30:31   */\n      dup2\n        /* \"--CODEGEN--\":27:37   */\n      lt\n        /* \"--CODEGEN--\":8:108   */\n      iszero\n      tag_67\n      jumpi\n        /* \"--CODEGEN--\":99:100   */\n      dup1\n        /* \"--CODEGEN--\":94:97   */\n      dup3\n        /* \"--CODEGEN--\":90:101   */\n      add\n        /* \"--CODEGEN--\":84:102   */\n      mload\n        /* \"--CODEGEN--\":80:81   */\n      dup2\n        /* \"--CODEGEN--\":75:78   */\n      dup5\n        /* \"--CODEGEN--\":71:82   */\n      add\n        /* \"--CODEGEN--\":64:103   */\n      mstore\n        /* \"--CODEGEN--\":52:54   */\n      0x20\n        /* \"--CODEGEN--\":49:50   */\n      dup2\n        /* \"--CODEGEN--\":45:55   */\n      add\n        /* \"--CODEGEN--\":40:55   */\n      swap1\n      pop\n        /* \"--CODEGEN--\":8:108   */\n      jump(tag_65)\n    tag_67:\n        /* \"--CODEGEN--\":12:26   */\n      pop\n        /* \"input/CreateWin.sol\":18384:20645  function getUserByAddress(address addr, uint roundId) public view returns (uint[14] memory info, string memory inviteCode, string memory beCode) {... */\n      pop\n      pop\n      pop\n      swap1\n      pop\n      add\n      dup1\n      0x20\n      add\n      dup1\n      0x20\n      add\n      dup4\n      dup2\n      sub\n      dup4\n      mstore\n      dup6\n      dup2\n      dup2\n      mload\n      dup2\n      mstore\n      0x20\n      add\n      swap2\n      pop\n      dup1\n      mload\n      swap1\n      0x20\n      add\n      swap1\n      dup1\n      dup4\n      dup4\n        /* \"--CODEGEN--\":23:24   */\n      0x00\n        /* \"--CODEGEN--\":8:108   */\n    tag_68:\n        /* \"--CODEGEN--\":33:36   */\n      dup4\n        /* \"--CODEGEN--\":30:31   */\n      dup2\n        /* \"--CODEGEN--\":27:37   */\n      lt\n        /* \"--CODEGEN--\":8:108   */\n      iszero\n      tag_70\n      jumpi\n        /* \"--CODEGEN--\":99:100   */\n      dup1\n        /* \"--CODEGEN--\":94:97   */\n      dup3\n        /* \"--CODEGEN--\":90:101   */\n      add\n        /* \"--CODEGEN--\":84:102   */\n      mload\n        /* \"--CODEGEN--\":80:81   */\n      dup2\n        /* \"--CODEGEN--\":75:78   */\n      dup5\n        /* \"--CODEGEN--\":71:82   */\n      add\n        /* \"--CODEGEN--\":64:103   */\n      mstore\n        /* \"--CODEGEN--\":52:54   */\n      0x20\n        /* \"--CODEGEN--\":49:50   */\n      dup2\n        /* \"--CODEGEN--\":45:55   */\n      add\n        /* \"--CODEGEN--\":40:55   */\n      swap1\n      pop\n        /* \"--CODEGEN--\":8:108   */\n      jump(tag_68)\n    tag_70:\n        /* \"--CODEGEN--\":12:26   */\n      pop\n        /* \"input/CreateWin.sol\":18384:20645  function getUserByAddress(address addr, uint roundId) public view returns (uint[14] memory info, string memory inviteCode, string memory beCode) {... */\n      pop\n      pop\n      pop\n      swap1\n      pop\n      swap1\n      dup2\n      add\n      swap1\n      0x1f\n      and\n      dup1\n      iszero\n      tag_71\n      jumpi\n      dup1\n      dup3\n      sub\n      dup1\n      mload\n      0x01\n      dup4\n      0x20\n      sub\n      0x0100\n      exp\n      sub\n      not\n      and\n      dup2\n      mstore\n      0x20\n      add\n      swap2\n      pop\n    tag_71:\n      pop\n      dup4\n      dup2\n      sub\n      dup3\n      mstore\n      dup5\n      dup2\n      dup2\n      mload\n      dup2\n      mstore\n      0x20\n      add\n      swap2\n      pop\n      dup1\n      mload\n      swap1\n      0x20\n      add\n      swap1\n      dup1\n      dup4\n      dup4\n        /* \"--CODEGEN--\":23:24   */\n      0x00\n        /* \"--CODEGEN--\":8:108   */\n    tag_72:\n        /* \"--CODEGEN--\":33:36   */\n      dup4\n        /* \"--CODEGEN--\":30:31   */\n      dup2\n        /* \"--CODEGEN--\":27:37   */\n      lt\n        /* \"--CODEGEN--\":8:108   */\n      iszero\n      tag_74\n      jumpi\n        /* \"--CODEGEN--\":99:100   */\n      dup1\n        /* \"--CODEGEN--\":94:97   */\n      dup3\n        /* \"--CODEGEN--\":90:101   */\n      add\n        /* \"--CODEGEN--\":84:102   */\n      mload\n        /* \"--CODEGEN--\":80:81   */\n      dup2\n        /* \"--CODEGEN--\":75:78   */\n      dup5\n        /* \"--CODEGEN--\":71:82   */\n      add\n        /* \"--CODEGEN--\":64:103   */\n      mstore\n        /* \"--CODEGEN--\":52:54   */\n      0x20\n        /* \"--CODEGEN--\":49:50   */\n      dup2\n        /* \"--CODEGEN--\":45:55   */\n      add\n        /* \"--CODEGEN--\":40:55   */\n      swap1\n      pop\n        /* \"--CODEGEN--\":8:108   */\n      jump(tag_72)\n    tag_74:\n        /* \"--CODEGEN--\":12:26   */\n      pop\n        /* \"input/CreateWin.sol\":18384:20645  function getUserByAddress(address addr, uint roundId) public view returns (uint[14] memory info, string memory inviteCode, string memory beCode) {... */\n      pop\n      pop\n      pop\n      swap1\n      pop\n      swap1\n      dup2\n      add\n      swap1\n      0x1f\n      and\n      dup1\n      iszero\n      tag_75\n      jumpi\n      dup1\n      dup3\n      sub\n      dup1\n      mload\n      0x01\n      dup4\n      0x20\n      sub\n      0x0100\n      exp\n      sub\n      not\n      and\n      dup2\n      mstore\n      0x20\n      add\n      swap2\n      pop\n    tag_75:\n      pop\n      swap6\n      pop\n      pop\n      pop\n      pop\n      pop\n      pop\n      mload(0x40)\n      dup1\n      swap2\n      sub\n      swap1\n      return\n        /* \"input/CreateWin.sol\":20922:21141  function getLineUserId(uint index, uint rouId) public view returns (uint) {... */\n    tag_7:\n      callvalue\n        /* \"--CODEGEN--\":8:17   */\n      dup1\n        /* \"--CODEGEN--\":5:7   */\n      iszero\n      tag_76\n      jumpi\n        /* \"--CODEGEN--\":30:31   */\n      0x00\n        /* \"--CODEGEN--\":27:28   */\n      dup1\n        /* \"--CODEGEN--\":20:32   */\n      revert\n        /* \"--CODEGEN--\":5:7   */\n    tag_76:\n        /* \"input/CreateWin.sol\":20922:21141  function getLineUserId(uint index, uint rouId) public view returns (uint) {... */\n      pop\n      tag_77\n      0x04\n      dup1\n      calldatasize\n      sub\n        /* \"--CODEGEN--\":13:15   */\n      0x40\n        /* \"--CODEGEN--\":8:11   */\n      dup2\n        /* \"--CODEGEN--\":5:16   */\n      lt\n        /* \"--CODEGEN--\":2:4   */\n      iszero\n      tag_78\n      jumpi\n        /* \"--CODEGEN--\":29:30   */\n      0x00\n        /* \"--CODEGEN--\":26:27   */\n      dup1\n        /* \"--CODEGEN--\":19:31   */\n      revert\n        /* \"--CODEGEN--\":2:4   */\n    tag_78:\n        /* \"input/CreateWin.sol\":20922:21141  function getLineUserId(uint index, uint rouId) public view returns (uint) {... */\n      dup2\n      add\n      swap1\n      dup1\n      dup1\n      calldataload\n      swap1\n      0x20\n      add\n      swap1\n      swap3\n      swap2\n      swap1\n      dup1\n      calldataload\n      swap1\n      0x20\n      add\n      swap1\n      swap3\n      swap2\n      swap1\n      pop\n      pop\n      pop\n      tag_79\n      jump\t// in\n    tag_77:\n      mload(0x40)\n      dup1\n      dup3\n      dup2\n      mstore\n      0x20\n      add\n      swap2\n      pop\n      pop\n      mload(0x40)\n      dup1\n      swap2\n      sub\n      swap1\n      return\n        /* \"input/CreateWin.sol\":7340:7544  function verydangerous(uint time) external onlyOwner {... */\n    tag_8:\n      callvalue\n        /* \"--CODEGEN--\":8:17   */\n      dup1\n        /* \"--CODEGEN--\":5:7   */\n      iszero\n      tag_80\n      jumpi\n        /* \"--CODEGEN--\":30:31   */\n      0x00\n        /* \"--CODEGEN--\":27:28   */\n      dup1\n        /* \"--CODEGEN--\":20:32   */\n      revert\n        /* \"--CODEGEN--\":5:7   */\n    tag_80:\n        /* \"input/CreateWin.sol\":7340:7544  function verydangerous(uint time) external onlyOwner {... */\n      pop\n      tag_81\n      0x04\n      dup1\n      calldatasize\n      sub\n        /* \"--CODEGEN--\":13:15   */\n      0x20\n        /* \"--CODEGEN--\":8:11   */\n      dup2\n        /* \"--CODEGEN--\":5:16   */\n      lt\n        /* \"--CODEGEN--\":2:4   */\n      iszero\n      tag_82\n      jumpi\n        /* \"--CODEGEN--\":29:30   */\n      0x00\n        /* \"--CODEGEN--\":26:27   */\n      dup1\n        /* \"--CODEGEN--\":19:31   */\n      revert\n        /* \"--CODEGEN--\":2:4   */\n    tag_82:\n        /* \"input/CreateWin.sol\":7340:7544  function verydangerous(uint time) external onlyOwner {... */\n      dup2\n      add\n      swap1\n      dup1\n      dup1\n      calldataload\n      swap1\n      0x20\n      add\n      swap1\n      swap3\n      swap2\n      swap1\n      pop\n      pop\n      pop\n      tag_83\n      jump\t// in\n    tag_81:\n      stop\n        /* \"input/CreateWin.sol\":17165:17297  function isUsed(string memory code) public view returns (bool) {... */\n    tag_9:\n      callvalue\n        /* \"--CODEGEN--\":8:17   */\n      dup1\n        /* \"--CODEGEN--\":5:7   */\n      iszero\n      tag_84\n      jumpi\n        /* \"--CODEGEN--\":30:31   */\n      0x00\n        /* \"--CODEGEN--\":27:28   */\n      dup1\n        /* \"--CODEGEN--\":20:32   */\n      revert\n        /* \"--CODEGEN--\":5:7   */\n    tag_84:\n        /* \"input/CreateWin.sol\":17165:17297  function isUsed(string memory code) public view returns (bool) {... */\n      pop\n      tag_85\n      0x04\n      dup1\n      calldatasize\n      sub\n        /* \"--CODEGEN--\":13:15   */\n      0x20\n        /* \"--CODEGEN--\":8:11   */\n      dup2\n        /* \"--CODEGEN--\":5:16   */\n      lt\n        /* \"--CODEGEN--\":2:4   */\n      iszero\n      tag_86\n      jumpi\n        /* \"--CODEGEN--\":29:30   */\n      0x00\n        /* \"--CODEGEN--\":26:27   */\n      dup1\n        /* \"--CODEGEN--\":19:31   */\n      revert\n        /* \"--CODEGEN--\":2:4   */\n    tag_86:\n        /* \"input/CreateWin.sol\":17165:17297  function isUsed(string memory code) public view returns (bool) {... */\n      dup2\n      add\n      swap1\n      dup1\n      dup1\n      calldataload\n      swap1\n      0x20\n      add\n      swap1\n        /* \"--CODEGEN--\":21:32   */\n      0x0100000000\n        /* \"--CODEGEN--\":8:19   */\n      dup2\n        /* \"--CODEGEN--\":5:33   */\n      gt\n        /* \"--CODEGEN--\":2:4   */\n      iszero\n      tag_87\n      jumpi\n        /* \"--CODEGEN--\":46:47   */\n      0x00\n        /* \"--CODEGEN--\":43:44   */\n      dup1\n        /* \"--CODEGEN--\":36:48   */\n      revert\n        /* \"--CODEGEN--\":2:4   */\n    tag_87:\n        /* \"input/CreateWin.sol\":17165:17297  function isUsed(string memory code) public view returns (bool) {... */\n      dup3\n      add\n        /* \"--CODEGEN--\":35:44   */\n      dup4\n        /* \"--CODEGEN--\":28:32   */\n      0x20\n        /* \"--CODEGEN--\":12:26   */\n      dup3\n        /* \"--CODEGEN--\":8:33   */\n      add\n        /* \"--CODEGEN--\":5:45   */\n      gt\n        /* \"--CODEGEN--\":2:4   */\n      iszero\n      tag_88\n      jumpi\n        /* \"--CODEGEN--\":58:59   */\n      0x00\n        /* \"--CODEGEN--\":55:56   */\n      dup1\n        /* \"--CODEGEN--\":48:60   */\n      revert\n        /* \"--CODEGEN--\":2:4   */\n    tag_88:\n        /* \"input/CreateWin.sol\":17165:17297  function isUsed(string memory code) public view returns (bool) {... */\n      dup1\n      calldataload\n      swap1\n      0x20\n      add\n      swap2\n        /* \"--CODEGEN--\":100:109   */\n      dup5\n        /* \"--CODEGEN--\":95:96   */\n      0x01\n        /* \"--CODEGEN--\":81:93   */\n      dup4\n        /* \"--CODEGEN--\":77:97   */\n      mul\n        /* \"--CODEGEN--\":67:75   */\n      dup5\n        /* \"--CODEGEN--\":63:98   */\n      add\n        /* \"--CODEGEN--\":60:110   */\n      gt\n        /* \"--CODEGEN--\":39:50   */\n      0x0100000000\n        /* \"--CODEGEN--\":25:37   */\n      dup4\n        /* \"--CODEGEN--\":22:51   */\n      gt\n        /* \"--CODEGEN--\":11:118   */\n      or\n        /* \"--CODEGEN--\":8:10   */\n      iszero\n      tag_89\n      jumpi\n        /* \"--CODEGEN--\":131:132   */\n      0x00\n        /* \"--CODEGEN--\":128:129   */\n      dup1\n        /* \"--CODEGEN--\":121:133   */\n      revert\n        /* \"--CODEGEN--\":8:10   */\n    tag_89:\n        /* \"input/CreateWin.sol\":17165:17297  function isUsed(string memory code) public view returns (bool) {... */\n      swap2\n      swap1\n      dup1\n      dup1\n      0x1f\n      add\n      0x20\n      dup1\n      swap2\n      div\n      mul\n      0x20\n      add\n      mload(0x40)\n      swap1\n      dup2\n      add\n      0x40\n      mstore\n      dup1\n      swap4\n      swap3\n      swap2\n      swap1\n      dup2\n      dup2\n      mstore\n      0x20\n      add\n      dup4\n      dup4\n        /* \"--CODEGEN--\":30:33   */\n      dup1\n        /* \"--CODEGEN--\":22:28   */\n      dup3\n        /* \"--CODEGEN--\":14:20   */\n      dup5\n        /* \"--CODEGEN--\":1:34   */\n      calldatacopy\n        /* \"--CODEGEN--\":99:100   */\n      0x00\n        /* \"--CODEGEN--\":93:96   */\n      dup2\n        /* \"--CODEGEN--\":85:91   */\n      dup5\n        /* \"--CODEGEN--\":81:97   */\n      add\n        /* \"--CODEGEN--\":74:101   */\n      mstore\n        /* \"--CODEGEN--\":137:141   */\n      0x1f\n        /* \"--CODEGEN--\":133:142   */\n      not\n        /* \"--CODEGEN--\":126:130   */\n      0x1f\n        /* \"--CODEGEN--\":121:124   */\n      dup3\n        /* \"--CODEGEN--\":117:131   */\n      add\n        /* \"--CODEGEN--\":113:143   */\n      and\n        /* \"--CODEGEN--\":106:143   */\n      swap1\n      pop\n        /* \"--CODEGEN--\":169:172   */\n      dup1\n        /* \"--CODEGEN--\":161:167   */\n      dup4\n        /* \"--CODEGEN--\":157:173   */\n      add\n        /* \"--CODEGEN--\":147:173   */\n      swap3\n      pop\n        /* \"input/CreateWin.sol\":17165:17297  function isUsed(string memory code) public view returns (bool) {... */\n      pop\n      pop\n      pop\n      pop\n      pop\n      pop\n      swap2\n      swap3\n      swap2\n      swap3\n      swap1\n      pop\n      pop\n      pop\n      tag_90\n      jump\t// in\n    tag_85:\n      mload(0x40)\n      dup1\n      dup3\n      iszero\n      iszero\n      iszero\n      iszero\n      dup2\n      mstore\n      0x20\n      add\n      swap2\n      pop\n      pop\n      mload(0x40)\n      dup1\n      swap2\n      sub\n      swap1\n      return\n        /* \"input/CreateWin.sol\":5469:5573  function removeWhitelistAdmin(address account) public onlyOwner {... */\n    tag_10:\n      callvalue\n        /* \"--CODEGEN--\":8:17   */\n      dup1\n        /* \"--CODEGEN--\":5:7   */\n      iszero\n      tag_91\n      jumpi\n        /* \"--CODEGEN--\":30:31   */\n      0x00\n        /* \"--CODEGEN--\":27:28   */\n      dup1\n        /* \"--CODEGEN--\":20:32   */\n      revert\n        /* \"--CODEGEN--\":5:7   */\n    tag_91:\n        /* \"input/CreateWin.sol\":5469:5573  function removeWhitelistAdmin(address account) public onlyOwner {... */\n      pop\n      tag_92\n      0x04\n      dup1\n      calldatasize\n      sub\n        /* \"--CODEGEN--\":13:15   */\n      0x20\n        /* \"--CODEGEN--\":8:11   */\n      dup2\n        /* \"--CODEGEN--\":5:16   */\n      lt\n        /* \"--CODEGEN--\":2:4   */\n      iszero\n      tag_93\n      jumpi\n        /* \"--CODEGEN--\":29:30   */\n      0x00\n        /* \"--CODEGEN--\":26:27   */\n      dup1\n        /* \"--CODEGEN--\":19:31   */\n      revert\n        /* \"--CODEGEN--\":2:4   */\n    tag_93:\n        /* \"input/CreateWin.sol\":5469:5573  function removeWhitelistAdmin(address account) public onlyOwner {... */\n      dup2\n      add\n      swap1\n      dup1\n      dup1\n      calldataload\n      0xffffffffffffffffffffffffffffffffffffffff\n      and\n      swap1\n      0x20\n      add\n      swap1\n      swap3\n      swap2\n      swap1\n      pop\n      pop\n      pop\n      tag_94\n      jump\t// in\n    tag_92:\n      stop\n        /* \"input/CreateWin.sol\":5368:5466  function addWhitelistAdmin(address account) public onlyOwner {... */\n    tag_11:\n      callvalue\n        /* \"--CODEGEN--\":8:17   */\n      dup1\n        /* \"--CODEGEN--\":5:7   */\n      iszero\n      tag_95\n      jumpi\n        /* \"--CODEGEN--\":30:31   */\n      0x00\n        /* \"--CODEGEN--\":27:28   */\n      dup1\n        /* \"--CODEGEN--\":20:32   */\n      revert\n        /* \"--CODEGEN--\":5:7   */\n    tag_95:\n        /* \"input/CreateWin.sol\":5368:5466  function addWhitelistAdmin(address account) public onlyOwner {... */\n      pop\n      tag_96\n      0x04\n      dup1\n      calldatasize\n      sub\n        /* \"--CODEGEN--\":13:15   */\n      0x20\n        /* \"--CODEGEN--\":8:11   */\n      dup2\n        /* \"--CODEGEN--\":5:16   */\n      lt\n        /* \"--CODEGEN--\":2:4   */\n      iszero\n      tag_97\n      jumpi\n        /* \"--CODEGEN--\":29:30   */\n      0x00\n        /* \"--CODEGEN--\":26:27   */\n      dup1\n        /* \"--CODEGEN--\":19:31   */\n      revert\n        /* \"--CODEGEN--\":2:4   */\n    tag_97:\n        /* \"input/CreateWin.sol\":5368:5466  function addWhitelistAdmin(address account) public onlyOwner {... */\n      dup2\n      add\n      swap1\n      dup1\n      dup1\n      calldataload\n      0xffffffffffffffffffffffffffffffffffffffff\n      and\n      swap1\n      0x20\n      add\n      swap1\n      swap3\n      swap2\n      swap1\n      pop\n      pop\n      pop\n      tag_98\n      jump\t// in\n    tag_96:\n      stop\n        /* \"input/CreateWin.sol\":17831:18052  function endRound() external onlyOwner {... */\n    tag_12:\n      callvalue\n        /* \"--CODEGEN--\":8:17   */\n      dup1\n        /* \"--CODEGEN--\":5:7   */\n      iszero\n      tag_99\n      jumpi\n        /* \"--CODEGEN--\":30:31   */\n      0x00\n        /* \"--CODEGEN--\":27:28   */\n      dup1\n        /* \"--CODEGEN--\":20:32   */\n      revert\n        /* \"--CODEGEN--\":5:7   */\n    tag_99:\n        /* \"input/CreateWin.sol\":17831:18052  function endRound() external onlyOwner {... */\n      pop\n      tag_100\n      tag_101\n      jump\t// in\n    tag_100:\n      stop\n        /* \"input/CreateWin.sol\":13918:16727  function christmas(uint start, uint end) external onlyWhitelistAdmin {... */\n    tag_13:\n      callvalue\n        /* \"--CODEGEN--\":8:17   */\n      dup1\n        /* \"--CODEGEN--\":5:7   */\n      iszero\n      tag_102\n      jumpi\n        /* \"--CODEGEN--\":30:31   */\n      0x00\n        /* \"--CODEGEN--\":27:28   */\n      dup1\n        /* \"--CODEGEN--\":20:32   */\n      revert\n        /* \"--CODEGEN--\":5:7   */\n    tag_102:\n        /* \"input/CreateWin.sol\":13918:16727  function christmas(uint start, uint end) external onlyWhitelistAdmin {... */\n      pop\n      tag_103\n      0x04\n      dup1\n      calldatasize\n      sub\n        /* \"--CODEGEN--\":13:15   */\n      0x40\n        /* \"--CODEGEN--\":8:11   */\n      dup2\n        /* \"--CODEGEN--\":5:16   */\n      lt\n        /* \"--CODEGEN--\":2:4   */\n      iszero\n      tag_104\n      jumpi\n        /* \"--CODEGEN--\":29:30   */\n      0x00\n        /* \"--CODEGEN--\":26:27   */\n      dup1\n        /* \"--CODEGEN--\":19:31   */\n      revert\n        /* \"--CODEGEN--\":2:4   */\n    tag_104:\n        /* \"input/CreateWin.sol\":13918:16727  function christmas(uint start, uint end) external onlyWhitelistAdmin {... */\n      dup2\n      add\n      swap1\n      dup1\n      dup1\n      calldataload\n      swap1\n      0x20\n      add\n      swap1\n      swap3\n      swap2\n      swap1\n      dup1\n      calldataload\n      swap1\n      0x20\n      add\n      swap1\n      swap3\n      swap2\n      swap1\n      pop\n      pop\n      pop\n      tag_105\n      jump\t// in\n    tag_103:\n      stop\n        /* \"input/CreateWin.sol\":18055:18381  function donnottouch() public view returns (uint, uint, uint, uint, uint, uint, uint, uint, uint, uint, uint, uint) {... */\n    tag_14:\n      callvalue\n        /* \"--CODEGEN--\":8:17   */\n      dup1\n        /* \"--CODEGEN--\":5:7   */\n      iszero\n      tag_106\n      jumpi\n        /* \"--CODEGEN--\":30:31   */\n      0x00\n        /* \"--CODEGEN--\":27:28   */\n      dup1\n        /* \"--CODEGEN--\":20:32   */\n      revert\n        /* \"--CODEGEN--\":5:7   */\n    tag_106:\n        /* \"input/CreateWin.sol\":18055:18381  function donnottouch() public view returns (uint, uint, uint, uint, uint, uint, uint, uint, uint, uint, uint, uint) {... */\n      pop\n      tag_107\n      tag_108\n      jump\t// in\n    tag_107:\n      mload(0x40)\n      dup1\n      dup14\n      dup2\n      mstore\n      0x20\n      add\n      dup13\n      dup2\n      mstore\n      0x20\n      add\n      dup12\n      dup2\n      mstore\n      0x20\n      add\n      dup11\n      dup2\n      mstore\n      0x20\n      add\n      dup10\n      dup2\n      mstore\n      0x20\n      add\n      dup9\n      dup2\n      mstore\n      0x20\n      add\n      dup8\n      dup2\n      mstore\n      0x20\n      add\n      dup7\n      dup2\n      mstore\n      0x20\n      add\n      dup6\n      dup2\n      mstore\n      0x20\n      add\n      dup5\n      dup2\n      mstore\n      0x20\n      add\n      dup4\n      dup2\n      mstore\n      0x20\n      add\n      dup3\n      dup2\n      mstore\n      0x20\n      add\n      swap13\n      pop\n      pop\n      pop\n      pop\n      pop\n      pop\n      pop\n      pop\n      pop\n      pop\n      pop\n      pop\n      pop\n      mload(0x40)\n      dup1\n      swap2\n      sub\n      swap1\n      return\n        /* \"input/CreateWin.sol\":76:359  function getLevel(uint value) public view returns (uint) {... */\n    tag_15:\n      callvalue\n        /* \"--CODEGEN--\":8:17   */\n      dup1\n        /* \"--CODEGEN--\":5:7   */\n      iszero\n      tag_109\n      jumpi\n        /* \"--CODEGEN--\":30:31   */\n      0x00\n        /* \"--CODEGEN--\":27:28   */\n      dup1\n        /* \"--CODEGEN--\":20:32   */\n      revert\n        /* \"--CODEGEN--\":5:7   */\n    tag_109:\n        /* \"input/CreateWin.sol\":76:359  function getLevel(uint value) public view returns (uint) {... */\n      pop\n      tag_110\n      0x04\n      dup1\n      calldatasize\n      sub\n        /* \"--CODEGEN--\":13:15   */\n      0x20\n        /* \"--CODEGEN--\":8:11   */\n      dup2\n        /* \"--CODEGEN--\":5:16   */\n      lt\n        /* \"--CODEGEN--\":2:4   */\n      iszero\n      tag_111\n      jumpi\n        /* \"--CODEGEN--\":29:30   */\n      0x00\n        /* \"--CODEGEN--\":26:27   */\n      dup1\n        /* \"--CODEGEN--\":19:31   */\n      revert\n        /* \"--CODEGEN--\":2:4   */\n    tag_111:\n        /* \"input/CreateWin.sol\":76:359  function getLevel(uint value) public view returns (uint) {... */\n      dup2\n      add\n      swap1\n      dup1\n      dup1\n      calldataload\n      swap1\n      0x20\n      add\n      swap1\n      swap3\n      swap2\n      swap1\n      pop\n      pop\n      pop\n      tag_112\n      jump\t// in\n    tag_110:\n      mload(0x40)\n      dup1\n      dup3\n      dup2\n      mstore\n      0x20\n      add\n      swap2\n      pop\n      pop\n      mload(0x40)\n      dup1\n      swap2\n      sub\n      swap1\n      return\n        /* \"input/CreateWin.sol\":1582:1787  function compareStr(string memory _str, string memory str) public pure returns (bool) {... */\n    tag_16:\n      callvalue\n        /* \"--CODEGEN--\":8:17   */\n      dup1\n        /* \"--CODEGEN--\":5:7   */\n      iszero\n      tag_113\n      jumpi\n        /* \"--CODEGEN--\":30:31   */\n      0x00\n        /* \"--CODEGEN--\":27:28   */\n      dup1\n        /* \"--CODEGEN--\":20:32   */\n      revert\n        /* \"--CODEGEN--\":5:7   */\n    tag_113:\n        /* \"input/CreateWin.sol\":1582:1787  function compareStr(string memory _str, string memory str) public pure returns (bool) {... */\n      pop\n      tag_114\n      0x04\n      dup1\n      calldatasize\n      sub\n        /* \"--CODEGEN--\":13:15   */\n      0x40\n        /* \"--CODEGEN--\":8:11   */\n      dup2\n        /* \"--CODEGEN--\":5:16   */\n      lt\n        /* \"--CODEGEN--\":2:4   */\n      iszero\n      tag_115\n      jumpi\n        /* \"--CODEGEN--\":29:30   */\n      0x00\n        /* \"--CODEGEN--\":26:27   */\n      dup1\n        /* \"--CODEGEN--\":19:31   */\n      revert\n        /* \"--CODEGEN--\":2:4   */\n    tag_115:\n        /* \"input/CreateWin.sol\":1582:1787  function compareStr(string memory _str, string memory str) public pure returns (bool) {... */\n      dup2\n      add\n      swap1\n      dup1\n      dup1\n      calldataload\n      swap1\n      0x20\n      add\n      swap1\n        /* \"--CODEGEN--\":21:32   */\n      0x0100000000\n        /* \"--CODEGEN--\":8:19   */\n      dup2\n        /* \"--CODEGEN--\":5:33   */\n      gt\n        /* \"--CODEGEN--\":2:4   */\n      iszero\n      tag_116\n      jumpi\n        /* \"--CODEGEN--\":46:47   */\n      0x00\n        /* \"--CODEGEN--\":43:44   */\n      dup1\n        /* \"--CODEGEN--\":36:48   */\n      revert\n        /* \"--CODEGEN--\":2:4   */\n    tag_116:\n        /* \"input/CreateWin.sol\":1582:1787  function compareStr(string memory _str, string memory str) public pure returns (bool) {... */\n      dup3\n      add\n        /* \"--CODEGEN--\":35:44   */\n      dup4\n        /* \"--CODEGEN--\":28:32   */\n      0x20\n        /* \"--CODEGEN--\":12:26   */\n      dup3\n        /* \"--CODEGEN--\":8:33   */\n      add\n        /* \"--CODEGEN--\":5:45   */\n      gt\n        /* \"--CODEGEN--\":2:4   */\n      iszero\n      tag_117\n      jumpi\n        /* \"--CODEGEN--\":58:59   */\n      0x00\n        /* \"--CODEGEN--\":55:56   */\n      dup1\n        /* \"--CODEGEN--\":48:60   */\n      revert\n        /* \"--CODEGEN--\":2:4   */\n    tag_117:\n        /* \"input/CreateWin.sol\":1582:1787  function compareStr(string memory _str, string memory str) public pure returns (bool) {... */\n      dup1\n      calldataload\n      swap1\n      0x20\n      add\n      swap2\n        /* \"--CODEGEN--\":100:109   */\n      dup5\n        /* \"--CODEGEN--\":95:96   */\n      0x01\n        /* \"--CODEGEN--\":81:93   */\n      dup4\n        /* \"--CODEGEN--\":77:97   */\n      mul\n        /* \"--CODEGEN--\":67:75   */\n      dup5\n        /* \"--CODEGEN--\":63:98   */\n      add\n        /* \"--CODEGEN--\":60:110   */\n      gt\n        /* \"--CODEGEN--\":39:50   */\n      0x0100000000\n        /* \"--CODEGEN--\":25:37   */\n      dup4\n        /* \"--CODEGEN--\":22:51   */\n      gt\n        /* \"--CODEGEN--\":11:118   */\n      or\n        /* \"--CODEGEN--\":8:10   */\n      iszero\n      tag_118\n      jumpi\n        /* \"--CODEGEN--\":131:132   */\n      0x00\n        /* \"--CODEGEN--\":128:129   */\n      dup1\n        /* \"--CODEGEN--\":121:133   */\n      revert\n        /* \"--CODEGEN--\":8:10   */\n    tag_118:\n        /* \"input/CreateWin.sol\":1582:1787  function compareStr(string memory _str, string memory str) public pure returns (bool) {... */\n      swap2\n      swap1\n      dup1\n      dup1\n      0x1f\n      add\n      0x20\n      dup1\n      swap2\n      div\n      mul\n      0x20\n      add\n      mload(0x40)\n      swap1\n      dup2\n      add\n      0x40\n      mstore\n      dup1\n      swap4\n      swap3\n      swap2\n      swap1\n      dup2\n      dup2\n      mstore\n      0x20\n      add\n      dup4\n      dup4\n        /* \"--CODEGEN--\":30:33   */\n      dup1\n        /* \"--CODEGEN--\":22:28   */\n      dup3\n        /* \"--CODEGEN--\":14:20   */\n      dup5\n        /* \"--CODEGEN--\":1:34   */\n      calldatacopy\n        /* \"--CODEGEN--\":99:100   */\n      0x00\n        /* \"--CODEGEN--\":93:96   */\n      dup2\n        /* \"--CODEGEN--\":85:91   */\n      dup5\n        /* \"--CODEGEN--\":81:97   */\n      add\n        /* \"--CODEGEN--\":74:101   */\n      mstore\n        /* \"--CODEGEN--\":137:141   */\n      0x1f\n        /* \"--CODEGEN--\":133:142   */\n      not\n        /* \"--CODEGEN--\":126:130   */\n      0x1f\n        /* \"--CODEGEN--\":121:124   */\n      dup3\n        /* \"--CODEGEN--\":117:131   */\n      add\n        /* \"--CODEGEN--\":113:143   */\n      and\n        /* \"--CODEGEN--\":106:143   */\n      swap1\n      pop\n        /* \"--CODEGEN--\":169:172   */\n      dup1\n        /* \"--CODEGEN--\":161:167   */\n      dup4\n        /* \"--CODEGEN--\":157:173   */\n      add\n        /* \"--CODEGEN--\":147:173   */\n      swap3\n      pop\n        /* \"input/CreateWin.sol\":1582:1787  function compareStr(string memory _str, string memory str) public pure returns (bool) {... */\n      pop\n      pop\n      pop\n      pop\n      pop\n      pop\n      swap2\n      swap3\n      swap2\n      swap3\n      swap1\n      dup1\n      calldataload\n      swap1\n      0x20\n      add\n      swap1\n        /* \"--CODEGEN--\":21:32   */\n      0x0100000000\n        /* \"--CODEGEN--\":8:19   */\n      dup2\n        /* \"--CODEGEN--\":5:33   */\n      gt\n        /* \"--CODEGEN--\":2:4   */\n      iszero\n      tag_119\n      jumpi\n        /* \"--CODEGEN--\":46:47   */\n      0x00\n        /* \"--CODEGEN--\":43:44   */\n      dup1\n        /* \"--CODEGEN--\":36:48   */\n      revert\n        /* \"--CODEGEN--\":2:4   */\n    tag_119:\n        /* \"input/CreateWin.sol\":1582:1787  function compareStr(string memory _str, string memory str) public pure returns (bool) {... */\n      dup3\n      add\n        /* \"--CODEGEN--\":35:44   */\n      dup4\n        /* \"--CODEGEN--\":28:32   */\n      0x20\n        /* \"--CODEGEN--\":12:26   */\n      dup3\n        /* \"--CODEGEN--\":8:33   */\n      add\n        /* \"--CODEGEN--\":5:45   */\n      gt\n        /* \"--CODEGEN--\":2:4   */\n      iszero\n      tag_120\n      jumpi\n        /* \"--CODEGEN--\":58:59   */\n      0x00\n        /* \"--CODEGEN--\":55:56   */\n      dup1\n        /* \"--CODEGEN--\":48:60   */\n      revert\n        /* \"--CODEGEN--\":2:4   */\n    tag_120:\n        /* \"input/CreateWin.sol\":1582:1787  function compareStr(string memory _str, string memory str) public pure returns (bool) {... */\n      dup1\n      calldataload\n      swap1\n      0x20\n      add\n      swap2\n        /* \"--CODEGEN--\":100:109   */\n      dup5\n        /* \"--CODEGEN--\":95:96   */\n      0x01\n        /* \"--CODEGEN--\":81:93   */\n      dup4\n        /* \"--CODEGEN--\":77:97   */\n      mul\n        /* \"--CODEGEN--\":67:75   */\n      dup5\n        /* \"--CODEGEN--\":63:98   */\n      add\n        /* \"--CODEGEN--\":60:110   */\n      gt\n        /* \"--CODEGEN--\":39:50   */\n      0x0100000000\n        /* \"--CODEGEN--\":25:37   */\n      dup4\n        /* \"--CODEGEN--\":22:51   */\n      gt\n        /* \"--CODEGEN--\":11:118   */\n      or\n        /* \"--CODEGEN--\":8:10   */\n      iszero\n      tag_121\n      jumpi\n        /* \"--CODEGEN--\":131:132   */\n      0x00\n        /* \"--CODEGEN--\":128:129   */\n      dup1\n        /* \"--CODEGEN--\":121:133   */\n      revert\n        /* \"--CODEGEN--\":8:10   */\n    tag_121:\n        /* \"input/CreateWin.sol\":1582:1787  function compareStr(string memory _str, string memory str) public pure returns (bool) {... */\n      swap2\n      swap1\n      dup1\n      dup1\n      0x1f\n      add\n      0x20\n      dup1\n      swap2\n      div\n      mul\n      0x20\n      add\n      mload(0x40)\n      swap1\n      dup2\n      add\n      0x40\n      mstore\n      dup1\n      swap4\n      swap3\n      swap2\n      swap1\n      dup2\n      dup2\n      mstore\n      0x20\n      add\n      dup4\n      dup4\n        /* \"--CODEGEN--\":30:33   */\n      dup1\n        /* \"--CODEGEN--\":22:28   */\n      dup3\n        /* \"--CODEGEN--\":14:20   */\n      dup5\n        /* \"--CODEGEN--\":1:34   */\n      calldatacopy\n        /* \"--CODEGEN--\":99:100   */\n      0x00\n        /* \"--CODEGEN--\":93:96   */\n      dup2\n        /* \"--CODEGEN--\":85:91   */\n      dup5\n        /* \"--CODEGEN--\":81:97   */\n      add\n        /* \"--CODEGEN--\":74:101   */\n      mstore\n        /* \"--CODEGEN--\":137:141   */\n      0x1f\n        /* \"--CODEGEN--\":133:142   */\n      not\n        /* \"--CODEGEN--\":126:130   */\n      0x1f\n        /* \"--CODEGEN--\":121:124   */\n      dup3\n        /* \"--CODEGEN--\":117:131   */\n      add\n        /* \"--CODEGEN--\":113:143   */\n      and\n        /* \"--CODEGEN--\":106:143   */\n      swap1\n      pop\n        /* \"--CODEGEN--\":169:172   */\n      dup1\n        /* \"--CODEGEN--\":161:167   */\n      dup4\n        /* \"--CODEGEN--\":157:173   */\n      add\n        /* \"--CODEGEN--\":147:173   */\n      swap3\n      pop\n        /* \"input/CreateWin.sol\":1582:1787  function compareStr(string memory _str, string memory str) public pure returns (bool) {... */\n      pop\n      pop\n      pop\n      pop\n      pop\n      pop\n      swap2\n      swap3\n      swap2\n      swap3\n      swap1\n      pop\n      pop\n      pop\n      tag_122\n      jump\t// in\n    tag_114:\n      mload(0x40)\n      dup1\n      dup3\n      iszero\n      iszero\n      iszero\n      iszero\n      dup2\n      mstore\n      0x20\n      add\n      swap2\n      pop\n      pop\n      mload(0x40)\n      dup1\n      swap2\n      sub\n      swap1\n      return\n        /* \"input/CreateWin.sol\":20648:20808  function getUserAddressById(uint id) public view returns (address) {... */\n    tag_17:\n      callvalue\n        /* \"--CODEGEN--\":8:17   */\n      dup1\n        /* \"--CODEGEN--\":5:7   */\n      iszero\n      tag_123\n      jumpi\n        /* \"--CODEGEN--\":30:31   */\n      0x00\n        /* \"--CODEGEN--\":27:28   */\n      dup1\n        /* \"--CODEGEN--\":20:32   */\n      revert\n        /* \"--CODEGEN--\":5:7   */\n    tag_123:\n        /* \"input/CreateWin.sol\":20648:20808  function getUserAddressById(uint id) public view returns (address) {... */\n      pop\n      tag_124\n      0x04\n      dup1\n      calldatasize\n      sub\n        /* \"--CODEGEN--\":13:15   */\n      0x20\n        /* \"--CODEGEN--\":8:11   */\n      dup2\n        /* \"--CODEGEN--\":5:16   */\n      lt\n        /* \"--CODEGEN--\":2:4   */\n      iszero\n      tag_125\n      jumpi\n        /* \"--CODEGEN--\":29:30   */\n      0x00\n        /* \"--CODEGEN--\":26:27   */\n      dup1\n        /* \"--CODEGEN--\":19:31   */\n      revert\n        /* \"--CODEGEN--\":2:4   */\n    tag_125:\n        /* \"input/CreateWin.sol\":20648:20808  function getUserAddressById(uint id) public view returns (address) {... */\n      dup2\n      add\n      swap1\n      dup1\n      dup1\n      calldataload\n      swap1\n      0x20\n      add\n      swap1\n      swap3\n      swap2\n      swap1\n      pop\n      pop\n      pop\n      tag_126\n      jump\t// in\n    tag_124:\n      mload(0x40)\n      dup1\n      dup3\n      0xffffffffffffffffffffffffffffffffffffffff\n      and\n      0xffffffffffffffffffffffffffffffffffffffff\n      and\n      dup2\n      mstore\n      0x20\n      add\n      swap2\n      pop\n      pop\n      mload(0x40)\n      dup1\n      swap2\n      sub\n      swap1\n      return\n        /* \"input/CreateWin.sol\":3481:3564  function isOwner() public view returns (bool) {... */\n    tag_18:\n      callvalue\n        /* \"--CODEGEN--\":8:17   */\n      dup1\n        /* \"--CODEGEN--\":5:7   */\n      iszero\n      tag_127\n      jumpi\n        /* \"--CODEGEN--\":30:31   */\n      0x00\n        /* \"--CODEGEN--\":27:28   */\n      dup1\n        /* \"--CODEGEN--\":20:32   */\n      revert\n        /* \"--CODEGEN--\":5:7   */\n    tag_127:\n        /* \"input/CreateWin.sol\":3481:3564  function isOwner() public view returns (bool) {... */\n      pop\n      tag_128\n      tag_129\n      jump\t// in\n    tag_128:\n      mload(0x40)\n      dup1\n      dup3\n      iszero\n      iszero\n      iszero\n      iszero\n      dup2\n      mstore\n      0x20\n      add\n      swap2\n      pop\n      pop\n      mload(0x40)\n      dup1\n      swap2\n      sub\n      swap1\n      return\n        /* \"input/CreateWin.sol\":8147:8390  function actUserStatus(address addr, uint status) external onlyWhitelistAdmin {... */\n    tag_19:\n      callvalue\n        /* \"--CODEGEN--\":8:17   */\n      dup1\n        /* \"--CODEGEN--\":5:7   */\n      iszero\n      tag_130\n      jumpi\n        /* \"--CODEGEN--\":30:31   */\n      0x00\n        /* \"--CODEGEN--\":27:28   */\n      dup1\n        /* \"--CODEGEN--\":20:32   */\n      revert\n        /* \"--CODEGEN--\":5:7   */\n    tag_130:\n        /* \"input/CreateWin.sol\":8147:8390  function actUserStatus(address addr, uint status) external onlyWhitelistAdmin {... */\n      pop\n      tag_131\n      0x04\n      dup1\n      calldatasize\n      sub\n        /* \"--CODEGEN--\":13:15   */\n      0x40\n        /* \"--CODEGEN--\":8:11   */\n      dup2\n        /* \"--CODEGEN--\":5:16   */\n      lt\n        /* \"--CODEGEN--\":2:4   */\n      iszero\n      tag_132\n      jumpi\n        /* \"--CODEGEN--\":29:30   */\n      0x00\n        /* \"--CODEGEN--\":26:27   */\n      dup1\n        /* \"--CODEGEN--\":19:31   */\n      revert\n        /* \"--CODEGEN--\":2:4   */\n    tag_132:\n        /* \"input/CreateWin.sol\":8147:8390  function actUserStatus(address addr, uint status) external onlyWhitelistAdmin {... */\n      dup2\n      add\n      swap1\n      dup1\n      dup1\n      calldataload\n      0xffffffffffffffffffffffffffffffffffffffff\n      and\n      swap1\n      0x20\n      add\n      swap1\n      swap3\n      swap2\n      swap1\n      dup1\n      calldataload\n      swap1\n      0x20\n      add\n      swap1\n      swap3\n      swap2\n      swap1\n      pop\n      pop\n      pop\n      tag_133\n      jump\t// in\n    tag_131:\n      stop\n        /* \"input/CreateWin.sol\":7650:7734  function updateLine(uint line) external onlyWhitelistAdmin {... */\n    tag_20:\n      callvalue\n        /* \"--CODEGEN--\":8:17   */\n      dup1\n        /* \"--CODEGEN--\":5:7   */\n      iszero\n      tag_134\n      jumpi\n        /* \"--CODEGEN--\":30:31   */\n      0x00\n        /* \"--CODEGEN--\":27:28   */\n      dup1\n        /* \"--CODEGEN--\":20:32   */\n      revert\n        /* \"--CODEGEN--\":5:7   */\n    tag_134:\n        /* \"input/CreateWin.sol\":7650:7734  function updateLine(uint line) external onlyWhitelistAdmin {... */\n      pop\n      tag_135\n      0x04\n      dup1\n      calldatasize\n      sub\n        /* \"--CODEGEN--\":13:15   */\n      0x20\n        /* \"--CODEGEN--\":8:11   */\n      dup2\n        /* \"--CODEGEN--\":5:16   */\n      lt\n        /* \"--CODEGEN--\":2:4   */\n      iszero\n      tag_136\n      jumpi\n        /* \"--CODEGEN--\":29:30   */\n      0x00\n        /* \"--CODEGEN--\":26:27   */\n      dup1\n        /* \"--CODEGEN--\":19:31   */\n      revert\n        /* \"--CODEGEN--\":2:4   */\n    tag_136:\n        /* \"input/CreateWin.sol\":7650:7734  function updateLine(uint line) external onlyWhitelistAdmin {... */\n      dup2\n      add\n      swap1\n      dup1\n      dup1\n      calldataload\n      swap1\n      0x20\n      add\n      swap1\n      swap3\n      swap2\n      swap1\n      pop\n      pop\n      pop\n      tag_137\n      jump\t// in\n    tag_135:\n      stop\n        /* \"input/CreateWin.sol\":17300:17477  function getUserAddressByCode(string memory code) public view returns (address) {... */\n    tag_21:\n      callvalue\n        /* \"--CODEGEN--\":8:17   */\n      dup1\n        /* \"--CODEGEN--\":5:7   */\n      iszero\n      tag_138\n      jumpi\n        /* \"--CODEGEN--\":30:31   */\n      0x00\n        /* \"--CODEGEN--\":27:28   */\n      dup1\n        /* \"--CODEGEN--\":20:32   */\n      revert\n        /* \"--CODEGEN--\":5:7   */\n    tag_138:\n        /* \"input/CreateWin.sol\":17300:17477  function getUserAddressByCode(string memory code) public view returns (address) {... */\n      pop\n      tag_139\n      0x04\n      dup1\n      calldatasize\n      sub\n        /* \"--CODEGEN--\":13:15   */\n      0x20\n        /* \"--CODEGEN--\":8:11   */\n      dup2\n        /* \"--CODEGEN--\":5:16   */\n      lt\n        /* \"--CODEGEN--\":2:4   */\n      iszero\n      tag_140\n      jumpi\n        /* \"--CODEGEN--\":29:30   */\n      0x00\n        /* \"--CODEGEN--\":26:27   */\n      dup1\n        /* \"--CODEGEN--\":19:31   */\n      revert\n        /* \"--CODEGEN--\":2:4   */\n    tag_140:\n        /* \"input/CreateWin.sol\":17300:17477  function getUserAddressByCode(string memory code) public view returns (address) {... */\n      dup2\n      add\n      swap1\n      dup1\n      dup1\n      calldataload\n      swap1\n      0x20\n      add\n      swap1\n        /* \"--CODEGEN--\":21:32   */\n      0x0100000000\n        /* \"--CODEGEN--\":8:19   */\n      dup2\n        /* \"--CODEGEN--\":5:33   */\n      gt\n        /* \"--CODEGEN--\":2:4   */\n      iszero\n      tag_141\n      jumpi\n        /* \"--CODEGEN--\":46:47   */\n      0x00\n        /* \"--CODEGEN--\":43:44   */\n      dup1\n        /* \"--CODEGEN--\":36:48   */\n      revert\n        /* \"--CODEGEN--\":2:4   */\n    tag_141:\n        /* \"input/CreateWin.sol\":17300:17477  function getUserAddressByCode(string memory code) public view returns (address) {... */\n      dup3\n      add\n        /* \"--CODEGEN--\":35:44   */\n      dup4\n        /* \"--CODEGEN--\":28:32   */\n      0x20\n        /* \"--CODEGEN--\":12:26   */\n      dup3\n        /* \"--CODEGEN--\":8:33   */\n      add\n        /* \"--CODEGEN--\":5:45   */\n      gt\n        /* \"--CODEGEN--\":2:4   */\n      iszero\n      tag_142\n      jumpi\n        /* \"--CODEGEN--\":58:59   */\n      0x00\n        /* \"--CODEGEN--\":55:56   */\n      dup1\n        /* \"--CODEGEN--\":48:60   */\n      revert\n        /* \"--CODEGEN--\":2:4   */\n    tag_142:\n        /* \"input/CreateWin.sol\":17300:17477  function getUserAddressByCode(string memory code) public view returns (address) {... */\n      dup1\n      calldataload\n      swap1\n      0x20\n      add\n      swap2\n        /* \"--CODEGEN--\":100:109   */\n      dup5\n        /* \"--CODEGEN--\":95:96   */\n      0x01\n        /* \"--CODEGEN--\":81:93   */\n      dup4\n        /* \"--CODEGEN--\":77:97   */\n      mul\n        /* \"--CODEGEN--\":67:75   */\n      dup5\n        /* \"--CODEGEN--\":63:98   */\n      add\n        /* \"--CODEGEN--\":60:110   */\n      gt\n        /* \"--CODEGEN--\":39:50   */\n      0x0100000000\n        /* \"--CODEGEN--\":25:37   */\n      dup4\n        /* \"--CODEGEN--\":22:51   */\n      gt\n        /* \"--CODEGEN--\":11:118   */\n      or\n        /* \"--CODEGEN--\":8:10   */\n      iszero\n      tag_143\n      jumpi\n        /* \"--CODEGEN--\":131:132   */\n      0x00\n        /* \"--CODEGEN--\":128:129   */\n      dup1\n        /* \"--CODEGEN--\":121:133   */\n      revert\n        /* \"--CODEGEN--\":8:10   */\n    tag_143:\n        /* \"input/CreateWin.sol\":17300:17477  function getUserAddressByCode(string memory code) public view returns (address) {... */\n      swap2\n      swap1\n      dup1\n      dup1\n      0x1f\n      add\n      0x20\n      dup1\n      swap2\n      div\n      mul\n      0x20\n      add\n      mload(0x40)\n      swap1\n      dup2\n      add\n      0x40\n      mstore\n      dup1\n      swap4\n      swap3\n      swap2\n      swap1\n      dup2\n      dup2\n      mstore\n      0x20\n      add\n      dup4\n      dup4\n        /* \"--CODEGEN--\":30:33   */\n      dup1\n        /* \"--CODEGEN--\":22:28   */\n      dup3\n        /* \"--CODEGEN--\":14:20   */\n      dup5\n        /* \"--CODEGEN--\":1:34   */\n      calldatacopy\n        /* \"--CODEGEN--\":99:100   */\n      0x00\n        /* \"--CODEGEN--\":93:96   */\n      dup2\n        /* \"--CODEGEN--\":85:91   */\n      dup5\n        /* \"--CODEGEN--\":81:97   */\n      add\n        /* \"--CODEGEN--\":74:101   */\n      mstore\n        /* \"--CODEGEN--\":137:141   */\n      0x1f\n        /* \"--CODEGEN--\":133:142   */\n      not\n        /* \"--CODEGEN--\":126:130   */\n      0x1f\n        /* \"--CODEGEN--\":121:124   */\n      dup3\n        /* \"--CODEGEN--\":117:131   */\n      add\n        /* \"--CODEGEN--\":113:143   */\n      and\n        /* \"--CODEGEN--\":106:143   */\n      swap1\n      pop\n        /* \"--CODEGEN--\":169:172   */\n      dup1\n        /* \"--CODEGEN--\":161:167   */\n      dup4\n        /* \"--CODEGEN--\":157:173   */\n      add\n        /* \"--CODEGEN--\":147:173   */\n      swap3\n      pop\n        /* \"input/CreateWin.sol\":17300:17477  function getUserAddressByCode(string memory code) public view returns (address) {... */\n      pop\n      pop\n      pop\n      pop\n      pop\n      pop\n      swap2\n      swap3\n      swap2\n      swap3\n      swap1\n      pop\n      pop\n      pop\n      tag_144\n      jump\t// in\n    tag_139:\n      mload(0x40)\n      dup1\n      dup3\n      0xffffffffffffffffffffffffffffffffffffffff\n      and\n      0xffffffffffffffffffffffffffffffffffffffff\n      and\n      dup2\n      mstore\n      0x20\n      add\n      swap2\n      pop\n      pop\n      mload(0x40)\n      dup1\n      swap2\n      sub\n      swap1\n      return\n        /* \"input/CreateWin.sol\":10853:11482  function helloworld(uint start, uint end, uint isUser) external onlyWhitelistAdmin {... */\n    tag_22:\n      callvalue\n        /* \"--CODEGEN--\":8:17   */\n      dup1\n        /* \"--CODEGEN--\":5:7   */\n      iszero\n      tag_145\n      jumpi\n        /* \"--CODEGEN--\":30:31   */\n      0x00\n        /* \"--CODEGEN--\":27:28   */\n      dup1\n        /* \"--CODEGEN--\":20:32   */\n      revert\n        /* \"--CODEGEN--\":5:7   */\n    tag_145:\n        /* \"input/CreateWin.sol\":10853:11482  function helloworld(uint start, uint end, uint isUser) external onlyWhitelistAdmin {... */\n      pop\n      tag_146\n      0x04\n      dup1\n      calldatasize\n      sub\n        /* \"--CODEGEN--\":13:15   */\n      0x60\n        /* \"--CODEGEN--\":8:11   */\n      dup2\n        /* \"--CODEGEN--\":5:16   */\n      lt\n        /* \"--CODEGEN--\":2:4   */\n      iszero\n      tag_147\n      jumpi\n        /* \"--CODEGEN--\":29:30   */\n      0x00\n        /* \"--CODEGEN--\":26:27   */\n      dup1\n        /* \"--CODEGEN--\":19:31   */\n      revert\n        /* \"--CODEGEN--\":2:4   */\n    tag_147:\n        /* \"input/CreateWin.sol\":10853:11482  function helloworld(uint start, uint end, uint isUser) external onlyWhitelistAdmin {... */\n      dup2\n      add\n      swap1\n      dup1\n      dup1\n      calldataload\n      swap1\n      0x20\n      add\n      swap1\n      swap3\n      swap2\n      swap1\n      dup1\n      calldataload\n      swap1\n      0x20\n      add\n      swap1\n      swap3\n      swap2\n      swap1\n      dup1\n      calldataload\n      swap1\n      0x20\n      add\n      swap1\n      swap3\n      swap2\n      swap1\n      pop\n      pop\n      pop\n      tag_148\n      jump\t// in\n    tag_146:\n      stop\n        /* \"input/CreateWin.sol\":5238:5365  function isWhitelistAdmin(address account) public view returns (bool) {... */\n    tag_23:\n      callvalue\n        /* \"--CODEGEN--\":8:17   */\n      dup1\n        /* \"--CODEGEN--\":5:7   */\n      iszero\n      tag_149\n      jumpi\n        /* \"--CODEGEN--\":30:31   */\n      0x00\n        /* \"--CODEGEN--\":27:28   */\n      dup1\n        /* \"--CODEGEN--\":20:32   */\n      revert\n        /* \"--CODEGEN--\":5:7   */\n    tag_149:\n        /* \"input/CreateWin.sol\":5238:5365  function isWhitelistAdmin(address account) public view returns (bool) {... */\n      pop\n      tag_150\n      0x04\n      dup1\n      calldatasize\n      sub\n        /* \"--CODEGEN--\":13:15   */\n      0x20\n        /* \"--CODEGEN--\":8:11   */\n      dup2\n        /* \"--CODEGEN--\":5:16   */\n      lt\n        /* \"--CODEGEN--\":2:4   */\n      iszero\n      tag_151\n      jumpi\n        /* \"--CODEGEN--\":29:30   */\n      0x00\n        /* \"--CODEGEN--\":26:27   */\n      dup1\n        /* \"--CODEGEN--\":19:31   */\n      revert\n        /* \"--CODEGEN--\":2:4   */\n    tag_151:\n        /* \"input/CreateWin.sol\":5238:5365  function isWhitelistAdmin(address account) public view returns (bool) {... */\n      dup2\n      add\n      swap1\n      dup1\n      dup1\n      calldataload\n      0xffffffffffffffffffffffffffffffffffffffff\n      and\n      swap1\n      0x20\n      add\n      swap1\n      swap3\n      swap2\n      swap1\n      pop\n      pop\n      pop\n      tag_152\n      jump\t// in\n    tag_150:\n      mload(0x40)\n      dup1\n      dup3\n      iszero\n      iszero\n      iszero\n      iszero\n      dup2\n      mstore\n      0x20\n      add\n      swap2\n      pop\n      pop\n      mload(0x40)\n      dup1\n      swap2\n      sub\n      swap1\n      return\n        /* \"input/CreateWin.sol\":7816:8079  function actAllLimit(uint bonusLi, uint sendLi, uint withdrawLi) external onlyOwner {... */\n    tag_24:\n      callvalue\n        /* \"--CODEGEN--\":8:17   */\n      dup1\n        /* \"--CODEGEN--\":5:7   */\n      iszero\n      tag_153\n      jumpi\n        /* \"--CODEGEN--\":30:31   */\n      0x00\n        /* \"--CODEGEN--\":27:28   */\n      dup1\n        /* \"--CODEGEN--\":20:32   */\n      revert\n        /* \"--CODEGEN--\":5:7   */\n    tag_153:\n        /* \"input/CreateWin.sol\":7816:8079  function actAllLimit(uint bonusLi, uint sendLi, uint withdrawLi) external onlyOwner {... */\n      pop\n      tag_154\n      0x04\n      dup1\n      calldatasize\n      sub\n        /* \"--CODEGEN--\":13:15   */\n      0x60\n        /* \"--CODEGEN--\":8:11   */\n      dup2\n        /* \"--CODEGEN--\":5:16   */\n      lt\n        /* \"--CODEGEN--\":2:4   */\n      iszero\n      tag_155\n      jumpi\n        /* \"--CODEGEN--\":29:30   */\n      0x00\n        /* \"--CODEGEN--\":26:27   */\n      dup1\n        /* \"--CODEGEN--\":19:31   */\n      revert\n        /* \"--CODEGEN--\":2:4   */\n    tag_155:\n        /* \"input/CreateWin.sol\":7816:8079  function actAllLimit(uint bonusLi, uint sendLi, uint withdrawLi) external onlyOwner {... */\n      dup2\n      add\n      swap1\n      dup1\n      dup1\n      calldataload\n      swap1\n      0x20\n      add\n      swap1\n      swap3\n      swap2\n      swap1\n      dup1\n      calldataload\n      swap1\n      0x20\n      add\n      swap1\n      swap3\n      swap2\n      swap1\n      dup1\n      calldataload\n      swap1\n      0x20\n      add\n      swap1\n      swap3\n      swap2\n      swap1\n      pop\n      pop\n      pop\n      tag_156\n      jump\t// in\n    tag_154:\n      stop\n        /* \"input/CreateWin.sol\":10250:10850  function importGlobal(address addr, string calldata inviteCode, string calldata beCode) external onlyWhitelistAdmin {... */\n    tag_25:\n      callvalue\n        /* \"--CODEGEN--\":8:17   */\n      dup1\n        /* \"--CODEGEN--\":5:7   */\n      iszero\n      tag_157\n      jumpi\n        /* \"--CODEGEN--\":30:31   */\n      0x00\n        /* \"--CODEGEN--\":27:28   */\n      dup1\n        /* \"--CODEGEN--\":20:32   */\n      revert\n        /* \"--CODEGEN--\":5:7   */\n    tag_157:\n        /* \"input/CreateWin.sol\":10250:10850  function importGlobal(address addr, string calldata inviteCode, string calldata beCode) external onlyWhitelistAdmin {... */\n      pop\n      tag_158\n      0x04\n      dup1\n      calldatasize\n      sub\n        /* \"--CODEGEN--\":13:15   */\n      0x60\n        /* \"--CODEGEN--\":8:11   */\n      dup2\n        /* \"--CODEGEN--\":5:16   */\n      lt\n        /* \"--CODEGEN--\":2:4   */\n      iszero\n      tag_159\n      jumpi\n        /* \"--CODEGEN--\":29:30   */\n      0x00\n        /* \"--CODEGEN--\":26:27   */\n      dup1\n        /* \"--CODEGEN--\":19:31   */\n      revert\n        /* \"--CODEGEN--\":2:4   */\n    tag_159:\n        /* \"input/CreateWin.sol\":10250:10850  function importGlobal(address addr, string calldata inviteCode, string calldata beCode) external onlyWhitelistAdmin {... */\n      dup2\n      add\n      swap1\n      dup1\n      dup1\n      calldataload\n      0xffffffffffffffffffffffffffffffffffffffff\n      and\n      swap1\n      0x20\n      add\n      swap1\n      swap3\n      swap2\n      swap1\n      dup1\n      calldataload\n      swap1\n      0x20\n      add\n      swap1\n        /* \"--CODEGEN--\":21:32   */\n      0x0100000000\n        /* \"--CODEGEN--\":8:19   */\n      dup2\n        /* \"--CODEGEN--\":5:33   */\n      gt\n        /* \"--CODEGEN--\":2:4   */\n      iszero\n      tag_160\n      jumpi\n        /* \"--CODEGEN--\":46:47   */\n      0x00\n        /* \"--CODEGEN--\":43:44   */\n      dup1\n        /* \"--CODEGEN--\":36:48   */\n      revert\n        /* \"--CODEGEN--\":2:4   */\n    tag_160:\n        /* \"input/CreateWin.sol\":10250:10850  function importGlobal(address addr, string calldata inviteCode, string calldata beCode) external onlyWhitelistAdmin {... */\n      dup3\n      add\n        /* \"--CODEGEN--\":35:44   */\n      dup4\n        /* \"--CODEGEN--\":28:32   */\n      0x20\n        /* \"--CODEGEN--\":12:26   */\n      dup3\n        /* \"--CODEGEN--\":8:33   */\n      add\n        /* \"--CODEGEN--\":5:45   */\n      gt\n        /* \"--CODEGEN--\":2:4   */\n      iszero\n      tag_161\n      jumpi\n        /* \"--CODEGEN--\":58:59   */\n      0x00\n        /* \"--CODEGEN--\":55:56   */\n      dup1\n        /* \"--CODEGEN--\":48:60   */\n      revert\n        /* \"--CODEGEN--\":2:4   */\n    tag_161:\n        /* \"input/CreateWin.sol\":10250:10850  function importGlobal(address addr, string calldata inviteCode, string calldata beCode) external onlyWhitelistAdmin {... */\n      dup1\n      calldataload\n      swap1\n      0x20\n      add\n      swap2\n        /* \"--CODEGEN--\":100:109   */\n      dup5\n        /* \"--CODEGEN--\":95:96   */\n      0x01\n        /* \"--CODEGEN--\":81:93   */\n      dup4\n        /* \"--CODEGEN--\":77:97   */\n      mul\n        /* \"--CODEGEN--\":67:75   */\n      dup5\n        /* \"--CODEGEN--\":63:98   */\n      add\n        /* \"--CODEGEN--\":60:110   */\n      gt\n        /* \"--CODEGEN--\":39:50   */\n      0x0100000000\n        /* \"--CODEGEN--\":25:37   */\n      dup4\n        /* \"--CODEGEN--\":22:51   */\n      gt\n        /* \"--CODEGEN--\":11:118   */\n      or\n        /* \"--CODEGEN--\":8:10   */\n      iszero\n      tag_162\n      jumpi\n        /* \"--CODEGEN--\":131:132   */\n      0x00\n        /* \"--CODEGEN--\":128:129   */\n      dup1\n        /* \"--CODEGEN--\":121:133   */\n      revert\n        /* \"--CODEGEN--\":8:10   */\n    tag_162:\n        /* \"input/CreateWin.sol\":10250:10850  function importGlobal(address addr, string calldata inviteCode, string calldata beCode) external onlyWhitelistAdmin {... */\n      swap1\n      swap2\n      swap3\n      swap4\n      swap2\n      swap3\n      swap4\n      swap1\n      dup1\n      calldataload\n      swap1\n      0x20\n      add\n      swap1\n        /* \"--CODEGEN--\":21:32   */\n      0x0100000000\n        /* \"--CODEGEN--\":8:19   */\n      dup2\n        /* \"--CODEGEN--\":5:33   */\n      gt\n        /* \"--CODEGEN--\":2:4   */\n      iszero\n      tag_163\n      jumpi\n        /* \"--CODEGEN--\":46:47   */\n      0x00\n        /* \"--CODEGEN--\":43:44   */\n      dup1\n        /* \"--CODEGEN--\":36:48   */\n      revert\n        /* \"--CODEGEN--\":2:4   */\n    tag_163:\n        /* \"input/CreateWin.sol\":10250:10850  function importGlobal(address addr, string calldata inviteCode, string calldata beCode) external onlyWhitelistAdmin {... */\n      dup3\n      add\n        /* \"--CODEGEN--\":35:44   */\n      dup4\n        /* \"--CODEGEN--\":28:32   */\n      0x20\n        /* \"--CODEGEN--\":12:26   */\n      dup3\n        /* \"--CODEGEN--\":8:33   */\n      add\n        /* \"--CODEGEN--\":5:45   */\n      gt\n        /* \"--CODEGEN--\":2:4   */\n      iszero\n      tag_164\n      jumpi\n        /* \"--CODEGEN--\":58:59   */\n      0x00\n        /* \"--CODEGEN--\":55:56   */\n      dup1\n        /* \"--CODEGEN--\":48:60   */\n      revert\n        /* \"--CODEGEN--\":2:4   */\n    tag_164:\n        /* \"input/CreateWin.sol\":10250:10850  function importGlobal(address addr, string calldata inviteCode, string calldata beCode) external onlyWhitelistAdmin {... */\n      dup1\n      calldataload\n      swap1\n      0x20\n      add\n      swap2\n        /* \"--CODEGEN--\":100:109   */\n      dup5\n        /* \"--CODEGEN--\":95:96   */\n      0x01\n        /* \"--CODEGEN--\":81:93   */\n      dup4\n        /* \"--CODEGEN--\":77:97   */\n      mul\n        /* \"--CODEGEN--\":67:75   */\n      dup5\n        /* \"--CODEGEN--\":63:98   */\n      add\n        /* \"--CODEGEN--\":60:110   */\n      gt\n        /* \"--CODEGEN--\":39:50   */\n      0x0100000000\n        /* \"--CODEGEN--\":25:37   */\n      dup4\n        /* \"--CODEGEN--\":22:51   */\n      gt\n        /* \"--CODEGEN--\":11:118   */\n      or\n        /* \"--CODEGEN--\":8:10   */\n      iszero\n      tag_165\n      jumpi\n        /* \"--CODEGEN--\":131:132   */\n      0x00\n        /* \"--CODEGEN--\":128:129   */\n      dup1\n        /* \"--CODEGEN--\":121:133   */\n      revert\n        /* \"--CODEGEN--\":8:10   */\n    tag_165:\n        /* \"input/CreateWin.sol\":10250:10850  function importGlobal(address addr, string calldata inviteCode, string calldata beCode) external onlyWhitelistAdmin {... */\n      swap1\n      swap2\n      swap3\n      swap4\n      swap2\n      swap3\n      swap4\n      swap1\n      pop\n      pop\n      pop\n      tag_166\n      jump\t// in\n    tag_158:\n      stop\n        /* \"input/CreateWin.sol\":820:1013  function getFireScByLevel(uint level) public pure returns (uint) {... */\n    tag_26:\n      callvalue\n        /* \"--CODEGEN--\":8:17   */\n      dup1\n        /* \"--CODEGEN--\":5:7   */\n      iszero\n      tag_167\n      jumpi\n        /* \"--CODEGEN--\":30:31   */\n      0x00\n        /* \"--CODEGEN--\":27:28   */\n      dup1\n        /* \"--CODEGEN--\":20:32   */\n      revert\n        /* \"--CODEGEN--\":5:7   */\n    tag_167:\n        /* \"input/CreateWin.sol\":820:1013  function getFireScByLevel(uint level) public pure returns (uint) {... */\n      pop\n      tag_168\n      0x04\n      dup1\n      calldatasize\n      sub\n        /* \"--CODEGEN--\":13:15   */\n      0x20\n        /* \"--CODEGEN--\":8:11   */\n      dup2\n        /* \"--CODEGEN--\":5:16   */\n      lt\n        /* \"--CODEGEN--\":2:4   */\n      iszero\n      tag_169\n      jumpi\n        /* \"--CODEGEN--\":29:30   */\n      0x00\n        /* \"--CODEGEN--\":26:27   */\n      dup1\n        /* \"--CODEGEN--\":19:31   */\n      revert\n        /* \"--CODEGEN--\":2:4   */\n    tag_169:\n        /* \"input/CreateWin.sol\":820:1013  function getFireScByLevel(uint level) public pure returns (uint) {... */\n      dup2\n      add\n      swap1\n      dup1\n      dup1\n      calldataload\n      swap1\n      0x20\n      add\n      swap1\n      swap3\n      swap2\n      swap1\n      pop\n      pop\n      pop\n      tag_170\n      jump\t// in\n    tag_168:\n      mload(0x40)\n      dup1\n      dup3\n      dup2\n      mstore\n      0x20\n      add\n      swap2\n      pop\n      pop\n      mload(0x40)\n      dup1\n      swap2\n      sub\n      swap1\n      return\n        /* \"input/CreateWin.sol\":13361:13915  function happy() public isHuman() {... */\n    tag_27:\n      callvalue\n        /* \"--CODEGEN--\":8:17   */\n      dup1\n        /* \"--CODEGEN--\":5:7   */\n      iszero\n      tag_171\n      jumpi\n        /* \"--CODEGEN--\":30:31   */\n      0x00\n        /* \"--CODEGEN--\":27:28   */\n      dup1\n        /* \"--CODEGEN--\":20:32   */\n      revert\n        /* \"--CODEGEN--\":5:7   */\n    tag_171:\n        /* \"input/CreateWin.sol\":13361:13915  function happy() public isHuman() {... */\n      pop\n      tag_172\n      tag_173\n      jump\t// in\n    tag_172:\n      stop\n        /* \"input/CreateWin.sol\":7547:7647  function donnotimitate() public view returns (bool) {... */\n    tag_28:\n      callvalue\n        /* \"--CODEGEN--\":8:17   */\n      dup1\n        /* \"--CODEGEN--\":5:7   */\n      iszero\n      tag_174\n      jumpi\n        /* \"--CODEGEN--\":30:31   */\n      0x00\n        /* \"--CODEGEN--\":27:28   */\n      dup1\n        /* \"--CODEGEN--\":20:32   */\n      revert\n        /* \"--CODEGEN--\":5:7   */\n    tag_174:\n        /* \"input/CreateWin.sol\":7547:7647  function donnotimitate() public view returns (bool) {... */\n      pop\n      tag_175\n      tag_176\n      jump\t// in\n    tag_175:\n      mload(0x40)\n      dup1\n      dup3\n      iszero\n      iszero\n      iszero\n      iszero\n      dup2\n      mstore\n      0x20\n      add\n      swap2\n      pop\n      pop\n      mload(0x40)\n      dup1\n      swap2\n      sub\n      swap1\n      return\n        /* \"input/CreateWin.sol\":3698:3862  function transferOwnership(address newOwner) public onlyOwner {... */\n    tag_29:\n      callvalue\n        /* \"--CODEGEN--\":8:17   */\n      dup1\n        /* \"--CODEGEN--\":5:7   */\n      iszero\n      tag_177\n      jumpi\n        /* \"--CODEGEN--\":30:31   */\n      0x00\n        /* \"--CODEGEN--\":27:28   */\n      dup1\n        /* \"--CODEGEN--\":20:32   */\n      revert\n        /* \"--CODEGEN--\":5:7   */\n    tag_177:\n        /* \"input/CreateWin.sol\":3698:3862  function transferOwnership(address newOwner) public onlyOwner {... */\n      pop\n      tag_178\n      0x04\n      dup1\n      calldatasize\n      sub\n        /* \"--CODEGEN--\":13:15   */\n      0x20\n        /* \"--CODEGEN--\":8:11   */\n      dup2\n        /* \"--CODEGEN--\":5:16   */\n      lt\n        /* \"--CODEGEN--\":2:4   */\n      iszero\n      tag_179\n      jumpi\n        /* \"--CODEGEN--\":29:30   */\n      0x00\n        /* \"--CODEGEN--\":26:27   */\n      dup1\n        /* \"--CODEGEN--\":19:31   */\n      revert\n        /* \"--CODEGEN--\":2:4   */\n    tag_179:\n        /* \"input/CreateWin.sol\":3698:3862  function transferOwnership(address newOwner) public onlyOwner {... */\n      dup2\n      add\n      swap1\n      dup1\n      dup1\n      calldataload\n      0xffffffffffffffffffffffffffffffffffffffff\n      and\n      swap1\n      0x20\n      add\n      swap1\n      swap3\n      swap2\n      swap1\n      pop\n      pop\n      pop\n      tag_180\n      jump\t// in\n    tag_178:\n      stop\n        /* \"input/CreateWin.sol\":628:817  function getScByLevel(uint level) public pure returns (uint) {... */\n    tag_30:\n      callvalue\n        /* \"--CODEGEN--\":8:17   */\n      dup1\n        /* \"--CODEGEN--\":5:7   */\n      iszero\n      tag_181\n      jumpi\n        /* \"--CODEGEN--\":30:31   */\n      0x00\n        /* \"--CODEGEN--\":27:28   */\n      dup1\n        /* \"--CODEGEN--\":20:32   */\n      revert\n        /* \"--CODEGEN--\":5:7   */\n    tag_181:\n        /* \"input/CreateWin.sol\":628:817  function getScByLevel(uint level) public pure returns (uint) {... */\n      pop\n      tag_182\n      0x04\n      dup1\n      calldatasize\n      sub\n        /* \"--CODEGEN--\":13:15   */\n      0x20\n        /* \"--CODEGEN--\":8:11   */\n      dup2\n        /* \"--CODEGEN--\":5:16   */\n      lt\n        /* \"--CODEGEN--\":2:4   */\n      iszero\n      tag_183\n      jumpi\n        /* \"--CODEGEN--\":29:30   */\n      0x00\n        /* \"--CODEGEN--\":26:27   */\n      dup1\n        /* \"--CODEGEN--\":19:31   */\n      revert\n        /* \"--CODEGEN--\":2:4   */\n    tag_183:\n        /* \"input/CreateWin.sol\":628:817  function getScByLevel(uint level) public pure returns (uint) {... */\n      dup2\n      add\n      swap1\n      dup1\n      dup1\n      calldataload\n      swap1\n      0x20\n      add\n      swap1\n      swap3\n      swap2\n      swap1\n      pop\n      pop\n      pop\n      tag_184\n      jump\t// in\n    tag_182:\n      mload(0x40)\n      dup1\n      dup3\n      dup2\n      mstore\n      0x20\n      add\n      swap2\n      pop\n      pop\n      mload(0x40)\n      dup1\n      swap2\n      sub\n      swap1\n      return\n        /* \"input/CreateWin.sol\":20814:20917  function admin() onlyOwner public ... */\n    tag_31:\n      callvalue\n        /* \"--CODEGEN--\":8:17   */\n      dup1\n        /* \"--CODEGEN--\":5:7   */\n      iszero\n      tag_185\n      jumpi\n        /* \"--CODEGEN--\":30:31   */\n      0x00\n        /* \"--CODEGEN--\":27:28   */\n      dup1\n        /* \"--CODEGEN--\":20:32   */\n      revert\n        /* \"--CODEGEN--\":5:7   */\n    tag_185:\n        /* \"input/CreateWin.sol\":20814:20917  function admin() onlyOwner public ... */\n      pop\n      tag_186\n      tag_187\n      jump\t// in\n    tag_186:\n      stop\n        /* \"input/CreateWin.sol\":362:625  function getNodeLevel(uint value) public view returns (uint) {... */\n    tag_44:\n        /* \"input/CreateWin.sol\":417:421  uint */\n      0x00\n        /* \"input/CreateWin.sol\":444:450  ethWei */\n      dup1\n      sload\n        /* \"input/CreateWin.sol\":440:441  1 */\n      0x01\n        /* \"input/CreateWin.sol\":440:450  1 * ethWei */\n      mul\n        /* \"input/CreateWin.sol\":431:436  value */\n      dup3\n        /* \"input/CreateWin.sol\":431:450  value >= 1 * ethWei */\n      lt\n      iszero\n        /* \"input/CreateWin.sol\":431:473  value >= 1 * ethWei && value <= 5 * ethWei */\n      dup1\n      iszero\n      tag_189\n      jumpi\n      pop\n        /* \"input/CreateWin.sol\":467:473  ethWei */\n      sload(0x00)\n        /* \"input/CreateWin.sol\":463:464  5 */\n      0x05\n        /* \"input/CreateWin.sol\":463:473  5 * ethWei */\n      mul\n        /* \"input/CreateWin.sol\":454:459  value */\n      dup3\n        /* \"input/CreateWin.sol\":454:473  value <= 5 * ethWei */\n      gt\n      iszero\n        /* \"input/CreateWin.sol\":431:473  value >= 1 * ethWei && value <= 5 * ethWei */\n    tag_189:\n        /* \"input/CreateWin.sol\":427:493  if (value >= 1 * ethWei && value <= 5 * ethWei) {... */\n      iszero\n      tag_190\n      jumpi\n        /* \"input/CreateWin.sol\":487:488  1 */\n      0x01\n        /* \"input/CreateWin.sol\":480:488  return 1 */\n      swap1\n      pop\n      jump(tag_188)\n        /* \"input/CreateWin.sol\":427:493  if (value >= 1 * ethWei && value <= 5 * ethWei) {... */\n    tag_190:\n        /* \"input/CreateWin.sol\":513:519  ethWei */\n      sload(0x00)\n        /* \"input/CreateWin.sol\":509:510  6 */\n      0x06\n        /* \"input/CreateWin.sol\":509:519  6 * ethWei */\n      mul\n        /* \"input/CreateWin.sol\":500:505  value */\n      dup3\n        /* \"input/CreateWin.sol\":500:519  value >= 6 * ethWei */\n      lt\n      iszero\n        /* \"input/CreateWin.sol\":500:543  value >= 6 * ethWei && value <= 10 * ethWei */\n      dup1\n      iszero\n      tag_191\n      jumpi\n      pop\n        /* \"input/CreateWin.sol\":537:543  ethWei */\n      sload(0x00)\n        /* \"input/CreateWin.sol\":532:534  10 */\n      0x0a\n        /* \"input/CreateWin.sol\":532:543  10 * ethWei */\n      mul\n        /* \"input/CreateWin.sol\":523:528  value */\n      dup3\n        /* \"input/CreateWin.sol\":523:543  value <= 10 * ethWei */\n      gt\n      iszero\n        /* \"input/CreateWin.sol\":500:543  value >= 6 * ethWei && value <= 10 * ethWei */\n    tag_191:\n        /* \"input/CreateWin.sol\":496:563  if (value >= 6 * ethWei && value <= 10 * ethWei) {... */\n      iszero\n      tag_192\n      jumpi\n        /* \"input/CreateWin.sol\":557:558  2 */\n      0x02\n        /* \"input/CreateWin.sol\":550:558  return 2 */\n      swap1\n      pop\n      jump(tag_188)\n        /* \"input/CreateWin.sol\":496:563  if (value >= 6 * ethWei && value <= 10 * ethWei) {... */\n    tag_192:\n        /* \"input/CreateWin.sol\":584:590  ethWei */\n      sload(0x00)\n        /* \"input/CreateWin.sol\":579:581  11 */\n      0x0b\n        /* \"input/CreateWin.sol\":579:590  11 * ethWei */\n      mul\n        /* \"input/CreateWin.sol\":570:575  value */\n      dup3\n        /* \"input/CreateWin.sol\":570:590  value >= 11 * ethWei */\n      lt\n        /* \"input/CreateWin.sol\":566:610  if (value >= 11 * ethWei) {... */\n      tag_193\n      jumpi\n        /* \"input/CreateWin.sol\":604:605  3 */\n      0x03\n        /* \"input/CreateWin.sol\":597:605  return 3 */\n      swap1\n      pop\n      jump(tag_188)\n        /* \"input/CreateWin.sol\":566:610  if (value >= 11 * ethWei) {... */\n    tag_193:\n        /* \"input/CreateWin.sol\":620:621  0 */\n      0x00\n        /* \"input/CreateWin.sol\":613:621  return 0 */\n      swap1\n      pop\n        /* \"input/CreateWin.sol\":362:625  function getNodeLevel(uint value) public view returns (uint) {... */\n    tag_188:\n      swap2\n      swap1\n      pop\n      jump\t// out\n        /* \"input/CreateWin.sol\":1016:1579  function getRecommendScaleByLevelAndTim(uint level, uint times) public pure returns (uint){... */\n    tag_48:\n        /* \"input/CreateWin.sol\":1101:1105  uint */\n      0x00\n        /* \"input/CreateWin.sol\":1123:1124  1 */\n      0x01\n        /* \"input/CreateWin.sol\":1114:1119  level */\n      dup4\n        /* \"input/CreateWin.sol\":1114:1124  level == 1 */\n      eq\n        /* \"input/CreateWin.sol\":1114:1138  level == 1 && times == 1 */\n      dup1\n      iszero\n      tag_195\n      jumpi\n      pop\n        /* \"input/CreateWin.sol\":1137:1138  1 */\n      0x01\n        /* \"input/CreateWin.sol\":1128:1133  times */\n      dup3\n        /* \"input/CreateWin.sol\":1128:1138  times == 1 */\n      eq\n        /* \"input/CreateWin.sol\":1114:1138  level == 1 && times == 1 */\n    tag_195:\n        /* \"input/CreateWin.sol\":1110:1159  if (level == 1 && times == 1) {... */\n      iszero\n      tag_196\n      jumpi\n        /* \"input/CreateWin.sol\":1152:1154  50 */\n      0x32\n        /* \"input/CreateWin.sol\":1145:1154  return 50 */\n      swap1\n      pop\n      jump(tag_194)\n        /* \"input/CreateWin.sol\":1110:1159  if (level == 1 && times == 1) {... */\n    tag_196:\n        /* \"input/CreateWin.sol\":1175:1176  2 */\n      0x02\n        /* \"input/CreateWin.sol\":1166:1171  level */\n      dup4\n        /* \"input/CreateWin.sol\":1166:1176  level == 2 */\n      eq\n        /* \"input/CreateWin.sol\":1166:1190  level == 2 && times == 1 */\n      dup1\n      iszero\n      tag_197\n      jumpi\n      pop\n        /* \"input/CreateWin.sol\":1189:1190  1 */\n      0x01\n        /* \"input/CreateWin.sol\":1180:1185  times */\n      dup3\n        /* \"input/CreateWin.sol\":1180:1190  times == 1 */\n      eq\n        /* \"input/CreateWin.sol\":1166:1190  level == 2 && times == 1 */\n    tag_197:\n        /* \"input/CreateWin.sol\":1162:1211  if (level == 2 && times == 1) {... */\n      iszero\n      tag_198\n      jumpi\n        /* \"input/CreateWin.sol\":1204:1206  70 */\n      0x46\n        /* \"input/CreateWin.sol\":1197:1206  return 70 */\n      swap1\n      pop\n      jump(tag_194)\n        /* \"input/CreateWin.sol\":1162:1211  if (level == 2 && times == 1) {... */\n    tag_198:\n        /* \"input/CreateWin.sol\":1227:1228  2 */\n      0x02\n        /* \"input/CreateWin.sol\":1218:1223  level */\n      dup4\n        /* \"input/CreateWin.sol\":1218:1228  level == 2 */\n      eq\n        /* \"input/CreateWin.sol\":1218:1242  level == 2 && times == 2 */\n      dup1\n      iszero\n      tag_199\n      jumpi\n      pop\n        /* \"input/CreateWin.sol\":1241:1242  2 */\n      0x02\n        /* \"input/CreateWin.sol\":1232:1237  times */\n      dup3\n        /* \"input/CreateWin.sol\":1232:1242  times == 2 */\n      eq\n        /* \"input/CreateWin.sol\":1218:1242  level == 2 && times == 2 */\n    tag_199:\n        /* \"input/CreateWin.sol\":1214:1263  if (level == 2 && times == 2) {... */\n      iszero\n      tag_200\n      jumpi\n        /* \"input/CreateWin.sol\":1256:1258  50 */\n      0x32\n        /* \"input/CreateWin.sol\":1249:1258  return 50 */\n      swap1\n      pop\n      jump(tag_194)\n        /* \"input/CreateWin.sol\":1214:1263  if (level == 2 && times == 2) {... */\n    tag_200:\n        /* \"input/CreateWin.sol\":1279:1280  3 */\n      0x03\n        /* \"input/CreateWin.sol\":1270:1275  level */\n      dup4\n        /* \"input/CreateWin.sol\":1270:1280  level == 3 */\n      eq\n        /* \"input/CreateWin.sol\":1266:1564  if (level == 3) {... */\n      iszero\n      tag_201\n      jumpi\n        /* \"input/CreateWin.sol\":1300:1301  1 */\n      0x01\n        /* \"input/CreateWin.sol\":1291:1296  times */\n      dup3\n        /* \"input/CreateWin.sol\":1291:1301  times == 1 */\n      eq\n        /* \"input/CreateWin.sol\":1287:1325  if (times == 1) {... */\n      iszero\n      tag_202\n      jumpi\n        /* \"input/CreateWin.sol\":1316:1319  100 */\n      0x64\n        /* \"input/CreateWin.sol\":1309:1319  return 100 */\n      swap1\n      pop\n      jump(tag_194)\n        /* \"input/CreateWin.sol\":1287:1325  if (times == 1) {... */\n    tag_202:\n        /* \"input/CreateWin.sol\":1342:1343  2 */\n      0x02\n        /* \"input/CreateWin.sol\":1333:1338  times */\n      dup3\n        /* \"input/CreateWin.sol\":1333:1343  times == 2 */\n      eq\n        /* \"input/CreateWin.sol\":1329:1366  if (times == 2) {... */\n      iszero\n      tag_203\n      jumpi\n        /* \"input/CreateWin.sol\":1358:1360  70 */\n      0x46\n        /* \"input/CreateWin.sol\":1351:1360  return 70 */\n      swap1\n      pop\n      jump(tag_194)\n        /* \"input/CreateWin.sol\":1329:1366  if (times == 2) {... */\n    tag_203:\n        /* \"input/CreateWin.sol\":1383:1384  3 */\n      0x03\n        /* \"input/CreateWin.sol\":1374:1379  times */\n      dup3\n        /* \"input/CreateWin.sol\":1374:1384  times == 3 */\n      eq\n        /* \"input/CreateWin.sol\":1370:1407  if (times == 3) {... */\n      iszero\n      tag_204\n      jumpi\n        /* \"input/CreateWin.sol\":1399:1401  50 */\n      0x32\n        /* \"input/CreateWin.sol\":1392:1401  return 50 */\n      swap1\n      pop\n      jump(tag_194)\n        /* \"input/CreateWin.sol\":1370:1407  if (times == 3) {... */\n    tag_204:\n        /* \"input/CreateWin.sol\":1424:1425  4 */\n      0x04\n        /* \"input/CreateWin.sol\":1415:1420  times */\n      dup3\n        /* \"input/CreateWin.sol\":1415:1425  times >= 4 */\n      lt\n      iszero\n        /* \"input/CreateWin.sol\":1415:1440  times >= 4 && times <= 10 */\n      dup1\n      iszero\n      tag_205\n      jumpi\n      pop\n        /* \"input/CreateWin.sol\":1438:1440  10 */\n      0x0a\n        /* \"input/CreateWin.sol\":1429:1434  times */\n      dup3\n        /* \"input/CreateWin.sol\":1429:1440  times <= 10 */\n      gt\n      iszero\n        /* \"input/CreateWin.sol\":1415:1440  times >= 4 && times <= 10 */\n    tag_205:\n        /* \"input/CreateWin.sol\":1411:1463  if (times >= 4 && times <= 10) {... */\n      iszero\n      tag_206\n      jumpi\n        /* \"input/CreateWin.sol\":1455:1457  10 */\n      0x0a\n        /* \"input/CreateWin.sol\":1448:1457  return 10 */\n      swap1\n      pop\n      jump(tag_194)\n        /* \"input/CreateWin.sol\":1411:1463  if (times >= 4 && times <= 10) {... */\n    tag_206:\n        /* \"input/CreateWin.sol\":1480:1482  11 */\n      0x0b\n        /* \"input/CreateWin.sol\":1471:1476  times */\n      dup3\n        /* \"input/CreateWin.sol\":1471:1482  times >= 11 */\n      lt\n      iszero\n        /* \"input/CreateWin.sol\":1471:1497  times >= 11 && times <= 20 */\n      dup1\n      iszero\n      tag_207\n      jumpi\n      pop\n        /* \"input/CreateWin.sol\":1495:1497  20 */\n      0x14\n        /* \"input/CreateWin.sol\":1486:1491  times */\n      dup3\n        /* \"input/CreateWin.sol\":1486:1497  times <= 20 */\n      gt\n      iszero\n        /* \"input/CreateWin.sol\":1471:1497  times >= 11 && times <= 20 */\n    tag_207:\n        /* \"input/CreateWin.sol\":1467:1519  if (times >= 11 && times <= 20) {... */\n      iszero\n      tag_208\n      jumpi\n        /* \"input/CreateWin.sol\":1512:1513  5 */\n      0x05\n        /* \"input/CreateWin.sol\":1505:1513  return 5 */\n      swap1\n      pop\n      jump(tag_194)\n        /* \"input/CreateWin.sol\":1467:1519  if (times >= 11 && times <= 20) {... */\n    tag_208:\n        /* \"input/CreateWin.sol\":1536:1538  21 */\n      0x15\n        /* \"input/CreateWin.sol\":1527:1532  times */\n      dup3\n        /* \"input/CreateWin.sol\":1527:1538  times >= 21 */\n      lt\n        /* \"input/CreateWin.sol\":1523:1560  if (times >= 21) {... */\n      tag_209\n      jumpi\n        /* \"input/CreateWin.sol\":1553:1554  1 */\n      0x01\n        /* \"input/CreateWin.sol\":1546:1554  return 1 */\n      swap1\n      pop\n      jump(tag_194)\n        /* \"input/CreateWin.sol\":1523:1560  if (times >= 21) {... */\n    tag_209:\n        /* \"input/CreateWin.sol\":1266:1564  if (level == 3) {... */\n    tag_201:\n        /* \"input/CreateWin.sol\":1574:1575  0 */\n      0x00\n        /* \"input/CreateWin.sol\":1567:1575  return 0 */\n      swap1\n      pop\n        /* \"input/CreateWin.sol\":1016:1579  function getRecommendScaleByLevelAndTim(uint level, uint times) public pure returns (uint){... */\n    tag_194:\n      swap3\n      swap2\n      pop\n      pop\n      jump\t// out\n        /* \"input/CreateWin.sol\":8393:10247  function exit(string memory inviteCode, string memory beCode) public isHuman() payable {... */\n    tag_57:\n        /* \"input/CreateWin.sol\":7068:7080  address addr */\n      0x00\n        /* \"input/CreateWin.sol\":7083:7093  msg.sender */\n      caller\n        /* \"input/CreateWin.sol\":7068:7093  address addr = msg.sender */\n      swap1\n      pop\n        /* \"input/CreateWin.sol\":7097:7112  uint codeLength */\n      0x00\n        /* \"input/CreateWin.sol\":7152:7156  addr */\n      dup2\n        /* \"input/CreateWin.sol\":7140:7157  extcodesize(addr) */\n      extcodesize\n        /* \"input/CreateWin.sol\":7126:7157  codeLength := extcodesize(addr) */\n      swap1\n      pop\n        /* \"input/CreateWin.sol\":7183:7184  0 */\n      0x00\n        /* \"input/CreateWin.sol\":7169:7179  codeLength */\n      dup2\n        /* \"input/CreateWin.sol\":7169:7184  codeLength == 0 */\n      eq\n        /* \"input/CreateWin.sol\":7161:7206  require(codeLength == 0, \"sorry humans only\") */\n      tag_211\n      jumpi\n      mload(0x40)\n      0x08c379a000000000000000000000000000000000000000000000000000000000\n      dup2\n      mstore\n      0x04\n      add\n      dup1\n      dup1\n      0x20\n      add\n      dup3\n      dup2\n      sub\n      dup3\n      mstore\n      0x11\n      dup2\n      mstore\n      0x20\n      add\n      dup1\n      0x736f7272792068756d616e73206f6e6c79000000000000000000000000000000\n      dup2\n      mstore\n      pop\n      0x20\n      add\n      swap2\n      pop\n      pop\n      mload(0x40)\n      dup1\n      swap2\n      sub\n      swap1\n      revert\n    tag_211:\n        /* \"input/CreateWin.sol\":7231:7241  msg.sender */\n      caller\n        /* \"input/CreateWin.sol\":7218:7241  tx.origin == msg.sender */\n      0xffffffffffffffffffffffffffffffffffffffff\n      and\n        /* \"input/CreateWin.sol\":7218:7227  tx.origin */\n      origin\n        /* \"input/CreateWin.sol\":7218:7241  tx.origin == msg.sender */\n      0xffffffffffffffffffffffffffffffffffffffff\n      and\n      eq\n        /* \"input/CreateWin.sol\":7210:7264  require(tx.origin == msg.sender, \"sorry, humans only\") */\n      tag_212\n      jumpi\n      mload(0x40)\n      0x08c379a000000000000000000000000000000000000000000000000000000000\n      dup2\n      mstore\n      0x04\n      add\n      dup1\n      dup1\n      0x20\n      add\n      dup3\n      dup2\n      sub\n      dup3\n      mstore\n      0x12\n      dup2\n      mstore\n      0x20\n      add\n      dup1\n      0x736f7272792c2068756d616e73206f6e6c790000000000000000000000000000\n      dup2\n      mstore\n      pop\n      0x20\n      add\n      swap2\n      pop\n      pop\n      mload(0x40)\n      dup1\n      swap2\n      sub\n      swap1\n      revert\n    tag_212:\n        /* \"input/CreateWin.sol\":8492:8507  donnotimitate() */\n      tag_214\n        /* \"input/CreateWin.sol\":8492:8505  donnotimitate */\n      tag_176\n        /* \"input/CreateWin.sol\":8492:8507  donnotimitate() */\n      jump\t// in\n    tag_214:\n        /* \"input/CreateWin.sol\":8484:8529  require(donnotimitate(), \"no, donnotimitate\") */\n      tag_215\n      jumpi\n      mload(0x40)\n      0x08c379a000000000000000000000000000000000000000000000000000000000\n      dup2\n      mstore\n      0x04\n      add\n      dup1\n      dup1\n      0x20\n      add\n      dup3\n      dup2\n      sub\n      dup3\n      mstore\n      0x11\n      dup2\n      mstore\n      0x20\n      add\n      dup1\n      0x6e6f2c20646f6e6e6f74696d6974617465000000000000000000000000000000\n      dup2\n      mstore\n      pop\n      0x20\n      add\n      swap2\n      pop\n      pop\n      mload(0x40)\n      dup1\n      swap2\n      sub\n      swap1\n      revert\n    tag_215:\n        /* \"input/CreateWin.sol\":8558:8564  ethWei */\n      sload(0x03)\n        /* \"input/CreateWin.sol\":8554:8555  1 */\n      0x01\n        /* \"input/CreateWin.sol\":8554:8564  1 * ethWei */\n      mul\n        /* \"input/CreateWin.sol\":8541:8550  msg.value */\n      callvalue\n        /* \"input/CreateWin.sol\":8541:8564  msg.value >= 1 * ethWei */\n      lt\n      iszero\n        /* \"input/CreateWin.sol\":8541:8592  msg.value >= 1 * ethWei && msg.value <= 15 * ethWei */\n      dup1\n      iszero\n      tag_216\n      jumpi\n      pop\n        /* \"input/CreateWin.sol\":8586:8592  ethWei */\n      sload(0x03)\n        /* \"input/CreateWin.sol\":8581:8583  15 */\n      0x0f\n        /* \"input/CreateWin.sol\":8581:8592  15 * ethWei */\n      mul\n        /* \"input/CreateWin.sol\":8568:8577  msg.value */\n      callvalue\n        /* \"input/CreateWin.sol\":8568:8592  msg.value <= 15 * ethWei */\n      gt\n      iszero\n        /* \"input/CreateWin.sol\":8541:8592  msg.value >= 1 * ethWei && msg.value <= 15 * ethWei */\n    tag_216:\n        /* \"input/CreateWin.sol\":8533:8613  require(msg.value >= 1 * ethWei && msg.value <= 15 * ethWei, \"between 1 and 15\") */\n      tag_217\n      jumpi\n      mload(0x40)\n      0x08c379a000000000000000000000000000000000000000000000000000000000\n      dup2\n      mstore\n      0x04\n      add\n      dup1\n      dup1\n      0x20\n      add\n      dup3\n      dup2\n      sub\n      dup3\n      mstore\n      0x10\n      dup2\n      mstore\n      0x20\n      add\n      dup1\n      0x6265747765656e203120616e6420313500000000000000000000000000000000\n      dup2\n      mstore\n      pop\n      0x20\n      add\n      swap2\n      pop\n      pop\n      mload(0x40)\n      dup1\n      swap2\n      sub\n      swap1\n      revert\n    tag_217:\n        /* \"input/CreateWin.sol\":8638:8671  msg.value.div(ethWei).mul(ethWei) */\n      tag_218\n        /* \"input/CreateWin.sol\":8664:8670  ethWei */\n      sload(0x03)\n        /* \"input/CreateWin.sol\":8638:8659  msg.value.div(ethWei) */\n      tag_219\n        /* \"input/CreateWin.sol\":8652:8658  ethWei */\n      sload(0x03)\n        /* \"input/CreateWin.sol\":8638:8647  msg.value */\n      callvalue\n        /* \"input/CreateWin.sol\":8638:8651  msg.value.div */\n      tag_220\n      swap1\n        /* \"input/CreateWin.sol\":8638:8659  msg.value.div(ethWei) */\n      swap2\n      swap1\n      0xffffffff\n      and\n      jump\t// in\n    tag_219:\n        /* \"input/CreateWin.sol\":8638:8663  msg.value.div(ethWei).mul */\n      tag_221\n      swap1\n        /* \"input/CreateWin.sol\":8638:8671  msg.value.div(ethWei).mul(ethWei) */\n      swap2\n      swap1\n      0xffffffff\n      and\n      jump\t// in\n    tag_218:\n        /* \"input/CreateWin.sol\":8625:8634  msg.value */\n      callvalue\n        /* \"input/CreateWin.sol\":8625:8671  msg.value == msg.value.div(ethWei).mul(ethWei) */\n      eq\n        /* \"input/CreateWin.sol\":8617:8693  require(msg.value == msg.value.div(ethWei).mul(ethWei), \"invalid msg value\") */\n      tag_222\n      jumpi\n      mload(0x40)\n      0x08c379a000000000000000000000000000000000000000000000000000000000\n      dup2\n      mstore\n      0x04\n      add\n      dup1\n      dup1\n      0x20\n      add\n      dup3\n      dup2\n      sub\n      dup3\n      mstore\n      0x11\n      dup2\n      mstore\n      0x20\n      add\n      dup1\n      0x696e76616c6964206d73672076616c7565000000000000000000000000000000\n      dup2\n      mstore\n      pop\n      0x20\n      add\n      swap2\n      pop\n      pop\n      mload(0x40)\n      dup1\n      swap2\n      sub\n      swap1\n      revert\n    tag_222:\n        /* \"input/CreateWin.sol\":8698:8727  UserGlobal storage userGlobal */\n      0x00\n        /* \"input/CreateWin.sol\":8730:8741  userMapping */\n      0x0f\n        /* \"input/CreateWin.sol\":8730:8753  userMapping[msg.sender] */\n      0x00\n        /* \"input/CreateWin.sol\":8742:8752  msg.sender */\n      caller\n        /* \"input/CreateWin.sol\":8730:8753  userMapping[msg.sender] */\n      0xffffffffffffffffffffffffffffffffffffffff\n      and\n      0xffffffffffffffffffffffffffffffffffffffff\n      and\n      dup2\n      mstore\n      0x20\n      add\n      swap1\n      dup2\n      mstore\n      0x20\n      add\n      0x00\n      keccak256\n        /* \"input/CreateWin.sol\":8698:8753  UserGlobal storage userGlobal = userMapping[msg.sender] */\n      swap1\n      pop\n        /* \"input/CreateWin.sol\":8778:8779  0 */\n      0x00\n        /* \"input/CreateWin.sol\":8761:8771  userGlobal */\n      dup2\n        /* \"input/CreateWin.sol\":8761:8774  userGlobal.id */\n      0x00\n      add\n      sload\n        /* \"input/CreateWin.sol\":8761:8779  userGlobal.id == 0 */\n      eq\n        /* \"input/CreateWin.sol\":8757:9150  if (userGlobal.id == 0) {... */\n      iszero\n      tag_223\n      jumpi\n        /* \"input/CreateWin.sol\":8795:8821  compareStr(inviteCode, \"\") */\n      tag_224\n        /* \"input/CreateWin.sol\":8806:8816  inviteCode */\n      dup6\n        /* \"input/CreateWin.sol\":8795:8821  compareStr(inviteCode, \"\") */\n      mload(0x40)\n      dup1\n      0x20\n      add\n      0x40\n      mstore\n      dup1\n      0x00\n      dup2\n      mstore\n      pop\n        /* \"input/CreateWin.sol\":8795:8805  compareStr */\n      tag_122\n        /* \"input/CreateWin.sol\":8795:8821  compareStr(inviteCode, \"\") */\n      jump\t// in\n    tag_224:\n        /* \"input/CreateWin.sol\":8794:8821  !compareStr(inviteCode, \"\") */\n      iszero\n        /* \"input/CreateWin.sol\":8794:8854  !compareStr(inviteCode, \"\") && bytes(inviteCode).length == 6 */\n      dup1\n      iszero\n      tag_225\n      jumpi\n      pop\n        /* \"input/CreateWin.sol\":8853:8854  6 */\n      0x06\n        /* \"input/CreateWin.sol\":8831:8841  inviteCode */\n      dup6\n        /* \"input/CreateWin.sol\":8825:8849  bytes(inviteCode).length */\n      mload\n        /* \"input/CreateWin.sol\":8825:8854  bytes(inviteCode).length == 6 */\n      eq\n        /* \"input/CreateWin.sol\":8794:8854  !compareStr(inviteCode, \"\") && bytes(inviteCode).length == 6 */\n    tag_225:\n        /* \"input/CreateWin.sol\":8786:8878  require(!compareStr(inviteCode, \"\") && bytes(inviteCode).length == 6, \"invalid invite code\") */\n      tag_226\n      jumpi\n      mload(0x40)\n      0x08c379a000000000000000000000000000000000000000000000000000000000\n      dup2\n      mstore\n      0x04\n      add\n      dup1\n      dup1\n      0x20\n      add\n      dup3\n      dup2\n      sub\n      dup3\n      mstore\n      0x13\n      dup2\n      mstore\n      0x20\n      add\n      dup1\n      0x696e76616c696420696e7669746520636f646500000000000000000000000000\n      dup2\n      mstore\n      pop\n      0x20\n      add\n      swap2\n      pop\n      pop\n      mload(0x40)\n      dup1\n      swap2\n      sub\n      swap1\n      revert\n    tag_226:\n        /* \"input/CreateWin.sol\":8883:8901  address beCodeAddr */\n      0x00\n        /* \"input/CreateWin.sol\":8904:8918  addressMapping */\n      0x10\n        /* \"input/CreateWin.sol\":8919:8925  beCode */\n      dup6\n        /* \"input/CreateWin.sol\":8904:8926  addressMapping[beCode] */\n      mload(0x40)\n      dup1\n      dup3\n      dup1\n      mload\n      swap1\n      0x20\n      add\n      swap1\n      dup1\n      dup4\n      dup4\n        /* \"--CODEGEN--\":36:189   */\n    tag_227:\n        /* \"--CODEGEN--\":66:68   */\n      0x20\n        /* \"--CODEGEN--\":61:64   */\n      dup4\n        /* \"--CODEGEN--\":58:69   */\n      lt\n        /* \"--CODEGEN--\":36:189   */\n      tag_229\n      jumpi\n        /* \"--CODEGEN--\":182:185   */\n      dup1\n        /* \"--CODEGEN--\":176:186   */\n      mload\n        /* \"--CODEGEN--\":171:174   */\n      dup3\n        /* \"--CODEGEN--\":164:187   */\n      mstore\n        /* \"--CODEGEN--\":98:100   */\n      0x20\n        /* \"--CODEGEN--\":93:96   */\n      dup3\n        /* \"--CODEGEN--\":89:101   */\n      add\n        /* \"--CODEGEN--\":82:101   */\n      swap2\n      pop\n        /* \"--CODEGEN--\":123:125   */\n      0x20\n        /* \"--CODEGEN--\":118:121   */\n      dup2\n        /* \"--CODEGEN--\":114:126   */\n      add\n        /* \"--CODEGEN--\":107:126   */\n      swap1\n      pop\n        /* \"--CODEGEN--\":148:150   */\n      0x20\n        /* \"--CODEGEN--\":143:146   */\n      dup4\n        /* \"--CODEGEN--\":139:151   */\n      sub\n        /* \"--CODEGEN--\":132:151   */\n      swap3\n      pop\n        /* \"--CODEGEN--\":36:189   */\n      jump(tag_227)\n    tag_229:\n        /* \"--CODEGEN--\":274:275   */\n      0x01\n        /* \"--CODEGEN--\":267:270   */\n      dup4\n        /* \"--CODEGEN--\":263:265   */\n      0x20\n        /* \"--CODEGEN--\":259:271   */\n      sub\n        /* \"--CODEGEN--\":254:257   */\n      0x0100\n        /* \"--CODEGEN--\":250:272   */\n      exp\n        /* \"--CODEGEN--\":246:276   */\n      sub\n        /* \"--CODEGEN--\":315:319   */\n      dup1\n        /* \"--CODEGEN--\":311:320   */\n      not\n        /* \"--CODEGEN--\":305:308   */\n      dup3\n        /* \"--CODEGEN--\":299:309   */\n      mload\n        /* \"--CODEGEN--\":295:321   */\n      and\n        /* \"--CODEGEN--\":356:360   */\n      dup2\n        /* \"--CODEGEN--\":350:353   */\n      dup5\n        /* \"--CODEGEN--\":344:354   */\n      mload\n        /* \"--CODEGEN--\":340:361   */\n      and\n        /* \"--CODEGEN--\":389:396   */\n      dup1\n        /* \"--CODEGEN--\":380:387   */\n      dup3\n        /* \"--CODEGEN--\":377:397   */\n      or\n        /* \"--CODEGEN--\":372:375   */\n      dup6\n        /* \"--CODEGEN--\":365:398   */\n      mstore\n        /* \"--CODEGEN--\":3:402   */\n      pop\n      pop\n      pop\n        /* \"input/CreateWin.sol\":8904:8926  addressMapping[beCode] */\n      pop\n      pop\n      pop\n      swap1\n      pop\n      add\n      swap2\n      pop\n      pop\n      swap1\n      dup2\n      mstore\n      0x20\n      add\n      mload(0x40)\n      dup1\n      swap2\n      sub\n      swap1\n      keccak256\n      0x00\n      swap1\n      sload\n      swap1\n      0x0100\n      exp\n      swap1\n      div\n      0xffffffffffffffffffffffffffffffffffffffff\n      and\n        /* \"input/CreateWin.sol\":8883:8926  address beCodeAddr = addressMapping[beCode] */\n      swap1\n      pop\n        /* \"input/CreateWin.sol\":8939:8953  isUsed(beCode) */\n      tag_230\n        /* \"input/CreateWin.sol\":8946:8952  beCode */\n      dup6\n        /* \"input/CreateWin.sol\":8939:8945  isUsed */\n      tag_90\n        /* \"input/CreateWin.sol\":8939:8953  isUsed(beCode) */\n      jump\t// in\n    tag_230:\n        /* \"input/CreateWin.sol\":8931:8974  require(isUsed(beCode), \"beCode not exist\") */\n      tag_231\n      jumpi\n      mload(0x40)\n      0x08c379a000000000000000000000000000000000000000000000000000000000\n      dup2\n      mstore\n      0x04\n      add\n      dup1\n      dup1\n      0x20\n      add\n      dup3\n      dup2\n      sub\n      dup3\n      mstore\n      0x10\n      dup2\n      mstore\n      0x20\n      add\n      dup1\n      0x6265436f6465206e6f7420657869737400000000000000000000000000000000\n      dup2\n      mstore\n      pop\n      0x20\n      add\n      swap2\n      pop\n      pop\n      mload(0x40)\n      dup1\n      swap2\n      sub\n      swap1\n      revert\n    tag_231:\n        /* \"input/CreateWin.sol\":9001:9011  msg.sender */\n      caller\n        /* \"input/CreateWin.sol\":8987:9011  beCodeAddr != msg.sender */\n      0xffffffffffffffffffffffffffffffffffffffff\n      and\n        /* \"input/CreateWin.sol\":8987:8997  beCodeAddr */\n      dup2\n        /* \"input/CreateWin.sol\":8987:9011  beCodeAddr != msg.sender */\n      0xffffffffffffffffffffffffffffffffffffffff\n      and\n      eq\n      iszero\n        /* \"input/CreateWin.sol\":8979:9040  require(beCodeAddr != msg.sender, \"beCodeAddr can't be self\") */\n      tag_232\n      jumpi\n      mload(0x40)\n      0x08c379a000000000000000000000000000000000000000000000000000000000\n      dup2\n      mstore\n      0x04\n      add\n      dup1\n      dup1\n      0x20\n      add\n      dup3\n      dup2\n      sub\n      dup3\n      mstore\n      0x18\n      dup2\n      mstore\n      0x20\n      add\n      dup1\n      0x6265436f6465416464722063616e27742062652073656c660000000000000000\n      dup2\n      mstore\n      pop\n      0x20\n      add\n      swap2\n      pop\n      pop\n      mload(0x40)\n      dup1\n      swap2\n      sub\n      swap1\n      revert\n    tag_232:\n        /* \"input/CreateWin.sol\":9054:9072  isUsed(inviteCode) */\n      tag_233\n        /* \"input/CreateWin.sol\":9061:9071  inviteCode */\n      dup7\n        /* \"input/CreateWin.sol\":9054:9060  isUsed */\n      tag_90\n        /* \"input/CreateWin.sol\":9054:9072  isUsed(inviteCode) */\n      jump\t// in\n    tag_233:\n        /* \"input/CreateWin.sol\":9053:9072  !isUsed(inviteCode) */\n      iszero\n        /* \"input/CreateWin.sol\":9045:9096  require(!isUsed(inviteCode), \"invite code is used\") */\n      tag_234\n      jumpi\n      mload(0x40)\n      0x08c379a000000000000000000000000000000000000000000000000000000000\n      dup2\n      mstore\n      0x04\n      add\n      dup1\n      dup1\n      0x20\n      add\n      dup3\n      dup2\n      sub\n      dup3\n      mstore\n      0x13\n      dup2\n      mstore\n      0x20\n      add\n      dup1\n      0x696e7669746520636f6465206973207573656400000000000000000000000000\n      dup2\n      mstore\n      pop\n      0x20\n      add\n      swap2\n      pop\n      pop\n      mload(0x40)\n      dup1\n      swap2\n      sub\n      swap1\n      revert\n    tag_234:\n        /* \"input/CreateWin.sol\":9101:9145  registerUser(msg.sender, inviteCode, beCode) */\n      tag_235\n        /* \"input/CreateWin.sol\":9114:9124  msg.sender */\n      caller\n        /* \"input/CreateWin.sol\":9126:9136  inviteCode */\n      dup8\n        /* \"input/CreateWin.sol\":9138:9144  beCode */\n      dup8\n        /* \"input/CreateWin.sol\":9101:9113  registerUser */\n      tag_236\n        /* \"input/CreateWin.sol\":9101:9145  registerUser(msg.sender, inviteCode, beCode) */\n      jump\t// in\n    tag_235:\n        /* \"input/CreateWin.sol\":8757:9150  if (userGlobal.id == 0) {... */\n      pop\n    tag_223:\n        /* \"input/CreateWin.sol\":9153:9169  uint investAmout */\n      0x00\n        /* \"input/CreateWin.sol\":9173:9188  uint lineAmount */\n      dup1\n        /* \"input/CreateWin.sol\":9196:9204  isLine() */\n      tag_237\n        /* \"input/CreateWin.sol\":9196:9202  isLine */\n      tag_238\n        /* \"input/CreateWin.sol\":9196:9204  isLine() */\n      jump\t// in\n    tag_237:\n        /* \"input/CreateWin.sol\":9192:9277  if (isLine()) {... */\n      iszero\n      tag_239\n      jumpi\n        /* \"input/CreateWin.sol\":9224:9233  msg.value */\n      callvalue\n        /* \"input/CreateWin.sol\":9211:9233  lineAmount = msg.value */\n      swap1\n      pop\n        /* \"input/CreateWin.sol\":9192:9277  if (isLine()) {... */\n      jump(tag_240)\n    tag_239:\n        /* \"input/CreateWin.sol\":9263:9272  msg.value */\n      callvalue\n        /* \"input/CreateWin.sol\":9249:9272  investAmout = msg.value */\n      swap2\n      pop\n        /* \"input/CreateWin.sol\":9192:9277  if (isLine()) {... */\n    tag_240:\n        /* \"input/CreateWin.sol\":9280:9297  User storage user */\n      0x00\n        /* \"input/CreateWin.sol\":9300:9316  userRoundMapping */\n      0x0e\n        /* \"input/CreateWin.sol\":9300:9321  userRoundMapping[rid] */\n      0x00\n        /* \"input/CreateWin.sol\":9317:9320  rid */\n      sload(0x0c)\n        /* \"input/CreateWin.sol\":9300:9321  userRoundMapping[rid] */\n      dup2\n      mstore\n      0x20\n      add\n      swap1\n      dup2\n      mstore\n      0x20\n      add\n      0x00\n      keccak256\n        /* \"input/CreateWin.sol\":9300:9333  userRoundMapping[rid][msg.sender] */\n      0x00\n        /* \"input/CreateWin.sol\":9322:9332  msg.sender */\n      caller\n        /* \"input/CreateWin.sol\":9300:9333  userRoundMapping[rid][msg.sender] */\n      0xffffffffffffffffffffffffffffffffffffffff\n      and\n      0xffffffffffffffffffffffffffffffffffffffff\n      and\n      dup2\n      mstore\n      0x20\n      add\n      swap1\n      dup2\n      mstore\n      0x20\n      add\n      0x00\n      keccak256\n        /* \"input/CreateWin.sol\":9280:9333  User storage user = userRoundMapping[rid][msg.sender] */\n      swap1\n      pop\n        /* \"input/CreateWin.sol\":9352:9353  0 */\n      0x00\n        /* \"input/CreateWin.sol\":9341:9345  user */\n      dup2\n        /* \"input/CreateWin.sol\":9341:9348  user.id */\n      0x00\n      add\n      sload\n        /* \"input/CreateWin.sol\":9341:9353  user.id != 0 */\n      eq\n        /* \"input/CreateWin.sol\":9337:10002  if (user.id != 0) {... */\n      tag_241\n      jumpi\n        /* \"input/CreateWin.sol\":9410:9411  0 */\n      0x00\n        /* \"input/CreateWin.sol\":9368:9406  user.freezeAmount.add(user.lineAmount) */\n      tag_242\n        /* \"input/CreateWin.sol\":9390:9394  user */\n      dup3\n        /* \"input/CreateWin.sol\":9390:9405  user.lineAmount */\n      0x04\n      add\n      sload\n        /* \"input/CreateWin.sol\":9368:9372  user */\n      dup4\n        /* \"input/CreateWin.sol\":9368:9385  user.freezeAmount */\n      0x03\n      add\n      sload\n        /* \"input/CreateWin.sol\":9368:9389  user.freezeAmount.add */\n      tag_243\n      swap1\n        /* \"input/CreateWin.sol\":9368:9406  user.freezeAmount.add(user.lineAmount) */\n      swap2\n      swap1\n      0xffffffff\n      and\n      jump\t// in\n    tag_242:\n        /* \"input/CreateWin.sol\":9368:9411  user.freezeAmount.add(user.lineAmount) == 0 */\n      eq\n        /* \"input/CreateWin.sol\":9360:9432  require(user.freezeAmount.add(user.lineAmount) == 0, \"only once invest\") */\n      tag_244\n      jumpi\n      mload(0x40)\n      0x08c379a000000000000000000000000000000000000000000000000000000000\n      dup2\n      mstore\n      0x04\n      add\n      dup1\n      dup1\n      0x20\n      add\n      dup3\n      dup2\n      sub\n      dup3\n      mstore\n      0x10\n      dup2\n      mstore\n      0x20\n      add\n      dup1\n      0x6f6e6c79206f6e636520696e7665737400000000000000000000000000000000\n      dup2\n      mstore\n      pop\n      0x20\n      add\n      swap2\n      pop\n      pop\n      mload(0x40)\n      dup1\n      swap2\n      sub\n      swap1\n      revert\n    tag_244:\n        /* \"input/CreateWin.sol\":9457:9468  investAmout */\n      dup3\n        /* \"input/CreateWin.sol\":9437:9441  user */\n      dup2\n        /* \"input/CreateWin.sol\":9437:9454  user.freezeAmount */\n      0x03\n      add\n        /* \"input/CreateWin.sol\":9437:9468  user.freezeAmount = investAmout */\n      dup2\n      swap1\n      sstore\n      pop\n        /* \"input/CreateWin.sol\":9491:9501  lineAmount */\n      dup2\n        /* \"input/CreateWin.sol\":9473:9477  user */\n      dup2\n        /* \"input/CreateWin.sol\":9473:9488  user.lineAmount */\n      0x04\n      add\n        /* \"input/CreateWin.sol\":9473:9501  user.lineAmount = lineAmount */\n      dup2\n      swap1\n      sstore\n      pop\n        /* \"input/CreateWin.sol\":9519:9546  getLevel(user.freezeAmount) */\n      tag_245\n        /* \"input/CreateWin.sol\":9528:9532  user */\n      dup2\n        /* \"input/CreateWin.sol\":9528:9545  user.freezeAmount */\n      0x03\n      add\n      sload\n        /* \"input/CreateWin.sol\":9519:9527  getLevel */\n      tag_112\n        /* \"input/CreateWin.sol\":9519:9546  getLevel(user.freezeAmount) */\n      jump\t// in\n    tag_245:\n        /* \"input/CreateWin.sol\":9506:9510  user */\n      dup2\n        /* \"input/CreateWin.sol\":9506:9516  user.level */\n      0x08\n      add\n        /* \"input/CreateWin.sol\":9506:9546  user.level = getLevel(user.freezeAmount) */\n      dup2\n      swap1\n      sstore\n      pop\n        /* \"input/CreateWin.sol\":9568:9641  getNodeLevel(user.freezeAmount.add(user.freeAmount).add(user.lineAmount)) */\n      tag_246\n        /* \"input/CreateWin.sol\":9581:9640  user.freezeAmount.add(user.freeAmount).add(user.lineAmount) */\n      tag_247\n        /* \"input/CreateWin.sol\":9624:9628  user */\n      dup3\n        /* \"input/CreateWin.sol\":9624:9639  user.lineAmount */\n      0x04\n      add\n      sload\n        /* \"input/CreateWin.sol\":9581:9619  user.freezeAmount.add(user.freeAmount) */\n      tag_248\n        /* \"input/CreateWin.sol\":9603:9607  user */\n      dup5\n        /* \"input/CreateWin.sol\":9603:9618  user.freeAmount */\n      0x02\n      add\n      sload\n        /* \"input/CreateWin.sol\":9581:9585  user */\n      dup6\n        /* \"input/CreateWin.sol\":9581:9598  user.freezeAmount */\n      0x03\n      add\n      sload\n        /* \"input/CreateWin.sol\":9581:9602  user.freezeAmount.add */\n      tag_243\n      swap1\n        /* \"input/CreateWin.sol\":9581:9619  user.freezeAmount.add(user.freeAmount) */\n      swap2\n      swap1\n      0xffffffff\n      and\n      jump\t// in\n    tag_248:\n        /* \"input/CreateWin.sol\":9581:9623  user.freezeAmount.add(user.freeAmount).add */\n      tag_243\n      swap1\n        /* \"input/CreateWin.sol\":9581:9640  user.freezeAmount.add(user.freeAmount).add(user.lineAmount) */\n      swap2\n      swap1\n      0xffffffff\n      and\n      jump\t// in\n    tag_247:\n        /* \"input/CreateWin.sol\":9568:9580  getNodeLevel */\n      tag_44\n        /* \"input/CreateWin.sol\":9568:9641  getNodeLevel(user.freezeAmount.add(user.freeAmount).add(user.lineAmount)) */\n      jump\t// in\n    tag_246:\n        /* \"input/CreateWin.sol\":9551:9555  user */\n      dup2\n        /* \"input/CreateWin.sol\":9551:9565  user.lineLevel */\n      0x09\n      add\n        /* \"input/CreateWin.sol\":9551:9641  user.lineLevel = getNodeLevel(user.freezeAmount.add(user.freeAmount).add(user.lineAmount)) */\n      dup2\n      swap1\n      sstore\n      pop\n        /* \"input/CreateWin.sol\":9337:10002  if (user.id != 0) {... */\n      jump(tag_249)\n    tag_241:\n        /* \"input/CreateWin.sol\":9667:9677  userGlobal */\n      dup4\n        /* \"input/CreateWin.sol\":9667:9680  userGlobal.id */\n      0x00\n      add\n      sload\n        /* \"input/CreateWin.sol\":9657:9661  user */\n      dup2\n        /* \"input/CreateWin.sol\":9657:9664  user.id */\n      0x00\n      add\n        /* \"input/CreateWin.sol\":9657:9680  user.id = userGlobal.id */\n      dup2\n      swap1\n      sstore\n      pop\n        /* \"input/CreateWin.sol\":9704:9714  msg.sender */\n      caller\n        /* \"input/CreateWin.sol\":9685:9689  user */\n      dup2\n        /* \"input/CreateWin.sol\":9685:9701  user.userAddress */\n      0x01\n      add\n      0x00\n        /* \"input/CreateWin.sol\":9685:9714  user.userAddress = msg.sender */\n      0x0100\n      exp\n      dup2\n      sload\n      dup2\n      0xffffffffffffffffffffffffffffffffffffffff\n      mul\n      not\n      and\n      swap1\n      dup4\n      0xffffffffffffffffffffffffffffffffffffffff\n      and\n      mul\n      or\n      swap1\n      sstore\n      pop\n        /* \"input/CreateWin.sol\":9739:9750  investAmout */\n      dup3\n        /* \"input/CreateWin.sol\":9719:9723  user */\n      dup2\n        /* \"input/CreateWin.sol\":9719:9736  user.freezeAmount */\n      0x03\n      add\n        /* \"input/CreateWin.sol\":9719:9750  user.freezeAmount = investAmout */\n      dup2\n      swap1\n      sstore\n      pop\n        /* \"input/CreateWin.sol\":9768:9789  getLevel(investAmout) */\n      tag_250\n        /* \"input/CreateWin.sol\":9777:9788  investAmout */\n      dup4\n        /* \"input/CreateWin.sol\":9768:9776  getLevel */\n      tag_112\n        /* \"input/CreateWin.sol\":9768:9789  getLevel(investAmout) */\n      jump\t// in\n    tag_250:\n        /* \"input/CreateWin.sol\":9755:9759  user */\n      dup2\n        /* \"input/CreateWin.sol\":9755:9765  user.level */\n      0x08\n      add\n        /* \"input/CreateWin.sol\":9755:9789  user.level = getLevel(investAmout) */\n      dup2\n      swap1\n      sstore\n      pop\n        /* \"input/CreateWin.sol\":9812:9822  lineAmount */\n      dup2\n        /* \"input/CreateWin.sol\":9794:9798  user */\n      dup2\n        /* \"input/CreateWin.sol\":9794:9809  user.lineAmount */\n      0x04\n      add\n        /* \"input/CreateWin.sol\":9794:9822  user.lineAmount = lineAmount */\n      dup2\n      swap1\n      sstore\n      pop\n        /* \"input/CreateWin.sol\":9844:9917  getNodeLevel(user.freezeAmount.add(user.freeAmount).add(user.lineAmount)) */\n      tag_251\n        /* \"input/CreateWin.sol\":9857:9916  user.freezeAmount.add(user.freeAmount).add(user.lineAmount) */\n      tag_252\n        /* \"input/CreateWin.sol\":9900:9904  user */\n      dup3\n        /* \"input/CreateWin.sol\":9900:9915  user.lineAmount */\n      0x04\n      add\n      sload\n        /* \"input/CreateWin.sol\":9857:9895  user.freezeAmount.add(user.freeAmount) */\n      tag_253\n        /* \"input/CreateWin.sol\":9879:9883  user */\n      dup5\n        /* \"input/CreateWin.sol\":9879:9894  user.freeAmount */\n      0x02\n      add\n      sload\n        /* \"input/CreateWin.sol\":9857:9861  user */\n      dup6\n        /* \"input/CreateWin.sol\":9857:9874  user.freezeAmount */\n      0x03\n      add\n      sload\n        /* \"input/CreateWin.sol\":9857:9878  user.freezeAmount.add */\n      tag_243\n      swap1\n        /* \"input/CreateWin.sol\":9857:9895  user.freezeAmount.add(user.freeAmount) */\n      swap2\n      swap1\n      0xffffffff\n      and\n      jump\t// in\n    tag_253:\n        /* \"input/CreateWin.sol\":9857:9899  user.freezeAmount.add(user.freeAmount).add */\n      tag_243\n      swap1\n        /* \"input/CreateWin.sol\":9857:9916  user.freezeAmount.add(user.freeAmount).add(user.lineAmount) */\n      swap2\n      swap1\n      0xffffffff\n      and\n      jump\t// in\n    tag_252:\n        /* \"input/CreateWin.sol\":9844:9856  getNodeLevel */\n      tag_44\n        /* \"input/CreateWin.sol\":9844:9917  getNodeLevel(user.freezeAmount.add(user.freeAmount).add(user.lineAmount)) */\n      jump\t// in\n    tag_251:\n        /* \"input/CreateWin.sol\":9827:9831  user */\n      dup2\n        /* \"input/CreateWin.sol\":9827:9841  user.lineLevel */\n      0x09\n      add\n        /* \"input/CreateWin.sol\":9827:9917  user.lineLevel = getNodeLevel(user.freezeAmount.add(user.freeAmount).add(user.lineAmount)) */\n      dup2\n      swap1\n      sstore\n      pop\n        /* \"input/CreateWin.sol\":9940:9950  userGlobal */\n      dup4\n        /* \"input/CreateWin.sol\":9940:9961  userGlobal.inviteCode */\n      0x02\n      add\n        /* \"input/CreateWin.sol\":9922:9926  user */\n      dup2\n        /* \"input/CreateWin.sol\":9922:9937  user.inviteCode */\n      0x0c\n      add\n        /* \"input/CreateWin.sol\":9922:9961  user.inviteCode = userGlobal.inviteCode */\n      swap1\n      dup1\n      sload\n      0x01\n      dup2\n      0x01\n      and\n      iszero\n      0x0100\n      mul\n      sub\n      and\n      0x02\n      swap1\n      div\n      tag_254\n      swap3\n      swap2\n      swap1\n      tag_255\n      jump\t// in\n    tag_254:\n      pop\n        /* \"input/CreateWin.sol\":9980:9990  userGlobal */\n      dup4\n        /* \"input/CreateWin.sol\":9980:9997  userGlobal.beCode */\n      0x03\n      add\n        /* \"input/CreateWin.sol\":9966:9970  user */\n      dup2\n        /* \"input/CreateWin.sol\":9966:9977  user.beCode */\n      0x0d\n      add\n        /* \"input/CreateWin.sol\":9966:9997  user.beCode = userGlobal.beCode */\n      swap1\n      dup1\n      sload\n      0x01\n      dup2\n      0x01\n      and\n      iszero\n      0x0100\n      mul\n      sub\n      and\n      0x02\n      swap1\n      div\n      tag_256\n      swap3\n      swap2\n      swap1\n      tag_255\n      jump\t// in\n    tag_256:\n      pop\n        /* \"input/CreateWin.sol\":9337:10002  if (user.id != 0) {... */\n    tag_249:\n        /* \"input/CreateWin.sol\":10026:10050  rInvestCount[rid].add(1) */\n      tag_257\n        /* \"input/CreateWin.sol\":10048:10049  1 */\n      0x01\n        /* \"input/CreateWin.sol\":10026:10038  rInvestCount */\n      0x08\n        /* \"input/CreateWin.sol\":10026:10043  rInvestCount[rid] */\n      0x00\n        /* \"input/CreateWin.sol\":10039:10042  rid */\n      sload(0x0c)\n        /* \"input/CreateWin.sol\":10026:10043  rInvestCount[rid] */\n      dup2\n      mstore\n      0x20\n      add\n      swap1\n      dup2\n      mstore\n      0x20\n      add\n      0x00\n      keccak256\n      sload\n        /* \"input/CreateWin.sol\":10026:10047  rInvestCount[rid].add */\n      tag_243\n      swap1\n        /* \"input/CreateWin.sol\":10026:10050  rInvestCount[rid].add(1) */\n      swap2\n      swap1\n      0xffffffff\n      and\n      jump\t// in\n    tag_257:\n        /* \"input/CreateWin.sol\":10006:10018  rInvestCount */\n      0x08\n        /* \"input/CreateWin.sol\":10006:10023  rInvestCount[rid] */\n      0x00\n        /* \"input/CreateWin.sol\":10019:10022  rid */\n      sload(0x0c)\n        /* \"input/CreateWin.sol\":10006:10023  rInvestCount[rid] */\n      dup2\n      mstore\n      0x20\n      add\n      swap1\n      dup2\n      mstore\n      0x20\n      add\n      0x00\n      keccak256\n        /* \"input/CreateWin.sol\":10006:10050  rInvestCount[rid] = rInvestCount[rid].add(1) */\n      dup2\n      swap1\n      sstore\n      pop\n        /* \"input/CreateWin.sol\":10074:10106  rInvestMoney[rid].add(msg.value) */\n      tag_258\n        /* \"input/CreateWin.sol\":10096:10105  msg.value */\n      callvalue\n        /* \"input/CreateWin.sol\":10074:10086  rInvestMoney */\n      0x09\n        /* \"input/CreateWin.sol\":10074:10091  rInvestMoney[rid] */\n      0x00\n        /* \"input/CreateWin.sol\":10087:10090  rid */\n      sload(0x0c)\n        /* \"input/CreateWin.sol\":10074:10091  rInvestMoney[rid] */\n      dup2\n      mstore\n      0x20\n      add\n      swap1\n      dup2\n      mstore\n      0x20\n      add\n      0x00\n      keccak256\n      sload\n        /* \"input/CreateWin.sol\":10074:10095  rInvestMoney[rid].add */\n      tag_243\n      swap1\n        /* \"input/CreateWin.sol\":10074:10106  rInvestMoney[rid].add(msg.value) */\n      swap2\n      swap1\n      0xffffffff\n      and\n      jump\t// in\n    tag_258:\n        /* \"input/CreateWin.sol\":10054:10066  rInvestMoney */\n      0x09\n        /* \"input/CreateWin.sol\":10054:10071  rInvestMoney[rid] */\n      0x00\n        /* \"input/CreateWin.sol\":10067:10070  rid */\n      sload(0x0c)\n        /* \"input/CreateWin.sol\":10054:10071  rInvestMoney[rid] */\n      dup2\n      mstore\n      0x20\n      add\n      swap1\n      dup2\n      mstore\n      0x20\n      add\n      0x00\n      keccak256\n        /* \"input/CreateWin.sol\":10054:10106  rInvestMoney[rid] = rInvestMoney[rid].add(msg.value) */\n      dup2\n      swap1\n      sstore\n      pop\n        /* \"input/CreateWin.sol\":10115:10123  isLine() */\n      tag_259\n        /* \"input/CreateWin.sol\":10115:10121  isLine */\n      tag_238\n        /* \"input/CreateWin.sol\":10115:10123  isLine() */\n      jump\t// in\n    tag_259:\n        /* \"input/CreateWin.sol\":10110:10244  if (!isLine()) {... */\n      tag_260\n      jumpi\n        /* \"input/CreateWin.sol\":10130:10155  sendFeetoAdmin(msg.value) */\n      tag_261\n        /* \"input/CreateWin.sol\":10145:10154  msg.value */\n      callvalue\n        /* \"input/CreateWin.sol\":10130:10144  sendFeetoAdmin */\n      tag_262\n        /* \"input/CreateWin.sol\":10130:10155  sendFeetoAdmin(msg.value) */\n      jump\t// in\n    tag_261:\n        /* \"input/CreateWin.sol\":10160:10188  countBonus(user.userAddress) */\n      tag_263\n        /* \"input/CreateWin.sol\":10171:10175  user */\n      dup2\n        /* \"input/CreateWin.sol\":10171:10187  user.userAddress */\n      0x01\n      add\n      0x00\n      swap1\n      sload\n      swap1\n      0x0100\n      exp\n      swap1\n      div\n      0xffffffffffffffffffffffffffffffffffffffff\n      and\n        /* \"input/CreateWin.sol\":10160:10170  countBonus */\n      tag_264\n        /* \"input/CreateWin.sol\":10160:10188  countBonus(user.userAddress) */\n      jump\t// in\n    tag_263:\n        /* \"input/CreateWin.sol\":10110:10244  if (!isLine()) {... */\n      jump(tag_265)\n    tag_260:\n        /* \"input/CreateWin.sol\":10204:10220  lineArrayMapping */\n      0x0d\n        /* \"input/CreateWin.sol\":10204:10225  lineArrayMapping[rid] */\n      0x00\n        /* \"input/CreateWin.sol\":10221:10224  rid */\n      sload(0x0c)\n        /* \"input/CreateWin.sol\":10204:10225  lineArrayMapping[rid] */\n      dup2\n      mstore\n      0x20\n      add\n      swap1\n      dup2\n      mstore\n      0x20\n      add\n      0x00\n      keccak256\n        /* \"input/CreateWin.sol\":10231:10235  user */\n      dup2\n        /* \"input/CreateWin.sol\":10231:10238  user.id */\n      0x00\n      add\n      sload\n        /* \"input/CreateWin.sol\":10204:10239  lineArrayMapping[rid].push(user.id) */\n      swap1\n      dup1\n        /* \"--CODEGEN--\":39:40   */\n      0x01\n        /* \"--CODEGEN--\":33:36   */\n      dup2\n        /* \"--CODEGEN--\":27:37   */\n      sload\n        /* \"--CODEGEN--\":23:41   */\n      add\n        /* \"--CODEGEN--\":57:67   */\n      dup1\n        /* \"--CODEGEN--\":52:55   */\n      dup3\n        /* \"--CODEGEN--\":45:68   */\n      sstore\n        /* \"--CODEGEN--\":79:89   */\n      dup1\n        /* \"--CODEGEN--\":72:89   */\n      swap2\n      pop\n        /* \"--CODEGEN--\":0:93   */\n      pop\n        /* \"input/CreateWin.sol\":10204:10239  lineArrayMapping[rid].push(user.id) */\n      swap1\n      0x01\n      dup3\n      sub\n      swap1\n      0x00\n      mstore\n      keccak256(0x00, 0x20)\n      add\n      0x00\n      swap1\n      swap2\n      swap3\n      swap1\n      swap2\n      swap1\n      swap2\n      pop\n      sstore\n      pop\n        /* \"input/CreateWin.sol\":10110:10244  if (!isLine()) {... */\n    tag_265:\n        /* \"input/CreateWin.sol\":7268:7269  _ */\n      pop\n      pop\n      pop\n      pop\n        /* \"input/CreateWin.sol\":8393:10247  function exit(string memory inviteCode, string memory beCode) public isHuman() payable {... */\n      pop\n      pop\n      pop\n      pop\n      jump\t// out\n        /* \"input/CreateWin.sol\":8082:8144  function stopImport() external onlyOwner {... */\n    tag_60:\n        /* \"input/CreateWin.sol\":3355:3364  isOwner() */\n      tag_268\n        /* \"input/CreateWin.sol\":3355:3362  isOwner */\n      tag_129\n        /* \"input/CreateWin.sol\":3355:3364  isOwner() */\n      jump\t// in\n    tag_268:\n        /* \"input/CreateWin.sol\":3347:3401  require(isOwner(), \"Ownable: caller is not the owner\") */\n      tag_269\n      jumpi\n      mload(0x40)\n      0x08c379a000000000000000000000000000000000000000000000000000000000\n      dup2\n      mstore\n      0x04\n      add\n      dup1\n      dup1\n      0x20\n      add\n      dup3\n      dup2\n      sub\n      dup3\n      mstore\n      0x20\n      dup2\n      mstore\n      0x20\n      add\n      dup1\n      0x4f776e61626c653a2063616c6c6572206973206e6f7420746865206f776e6572\n      dup2\n      mstore\n      pop\n      0x20\n      add\n      swap2\n      pop\n      pop\n      mload(0x40)\n      dup1\n      swap2\n      sub\n      swap1\n      revert\n    tag_269:\n        /* \"input/CreateWin.sol\":8139:8140  0 */\n      0x00\n        /* \"input/CreateWin.sol\":8127:8136  canImport */\n      0x16\n        /* \"input/CreateWin.sol\":8127:8140  canImport = 0 */\n      dup2\n      swap1\n      sstore\n      pop\n        /* \"input/CreateWin.sol\":8082:8144  function stopImport() external onlyOwner {... */\n      jump\t// out\n        /* \"input/CreateWin.sol\":18384:20645  function getUserByAddress(address addr, uint roundId) public view returns (uint[14] memory info, string memory inviteCode, string memory beCode) {... */\n    tag_64:\n        /* \"input/CreateWin.sol\":18459:18479  uint[14] memory info */\n      tag_271\n      tag_272\n      jump\t// in\n    tag_271:\n        /* \"input/CreateWin.sol\":18481:18505  string memory inviteCode */\n      0x60\n        /* \"input/CreateWin.sol\":18507:18527  string memory beCode */\n      dup1\n        /* \"input/CreateWin.sol\":18541:18569  isWhitelistAdmin(msg.sender) */\n      tag_274\n        /* \"input/CreateWin.sol\":18558:18568  msg.sender */\n      caller\n        /* \"input/CreateWin.sol\":18541:18557  isWhitelistAdmin */\n      tag_152\n        /* \"input/CreateWin.sol\":18541:18569  isWhitelistAdmin(msg.sender) */\n      jump\t// in\n    tag_274:\n        /* \"input/CreateWin.sol\":18541:18591  isWhitelistAdmin(msg.sender) || msg.sender == addr */\n      dup1\n      tag_275\n      jumpi\n      pop\n        /* \"input/CreateWin.sol\":18587:18591  addr */\n      dup5\n        /* \"input/CreateWin.sol\":18573:18591  msg.sender == addr */\n      0xffffffffffffffffffffffffffffffffffffffff\n      and\n        /* \"input/CreateWin.sol\":18573:18583  msg.sender */\n      caller\n        /* \"input/CreateWin.sol\":18573:18591  msg.sender == addr */\n      0xffffffffffffffffffffffffffffffffffffffff\n      and\n      eq\n        /* \"input/CreateWin.sol\":18541:18591  isWhitelistAdmin(msg.sender) || msg.sender == addr */\n    tag_275:\n        /* \"input/CreateWin.sol\":18533:18637  require(isWhitelistAdmin(msg.sender) || msg.sender == addr, \"Permission denied for view user's privacy\") */\n      tag_276\n      jumpi\n      mload(0x40)\n      0x08c379a000000000000000000000000000000000000000000000000000000000\n      dup2\n      mstore\n      0x04\n      add\n      dup1\n      dup1\n      0x20\n      add\n      dup3\n      dup2\n      sub\n      dup3\n      mstore\n      0x29\n      dup2\n      mstore\n      0x20\n      add\n      dup1\n      data_3e5e9c692c817082a9743a693e9b6b8b7e4bcafbc78fe55fa9db9882e0e81a3b\n      0x29\n      swap2\n      codecopy\n      0x40\n      add\n      swap2\n      pop\n      pop\n      mload(0x40)\n      dup1\n      swap2\n      sub\n      swap1\n      revert\n    tag_276:\n        /* \"input/CreateWin.sol\":18657:18658  0 */\n      0x00\n        /* \"input/CreateWin.sol\":18646:18653  roundId */\n      dup5\n        /* \"input/CreateWin.sol\":18646:18658  roundId == 0 */\n      eq\n        /* \"input/CreateWin.sol\":18642:18683  if (roundId == 0) {... */\n      iszero\n      tag_277\n      jumpi\n        /* \"input/CreateWin.sol\":18675:18678  rid */\n      sload(0x0c)\n        /* \"input/CreateWin.sol\":18665:18678  roundId = rid */\n      swap4\n      pop\n        /* \"input/CreateWin.sol\":18642:18683  if (roundId == 0) {... */\n    tag_277:\n        /* \"input/CreateWin.sol\":18687:18715  UserGlobal memory userGlobal */\n      tag_278\n      tag_279\n      jump\t// in\n    tag_278:\n        /* \"input/CreateWin.sol\":18718:18729  userMapping */\n      0x0f\n        /* \"input/CreateWin.sol\":18718:18735  userMapping[addr] */\n      0x00\n        /* \"input/CreateWin.sol\":18730:18734  addr */\n      dup8\n        /* \"input/CreateWin.sol\":18718:18735  userMapping[addr] */\n      0xffffffffffffffffffffffffffffffffffffffff\n      and\n      0xffffffffffffffffffffffffffffffffffffffff\n      and\n      dup2\n      mstore\n      0x20\n      add\n      swap1\n      dup2\n      mstore\n      0x20\n      add\n      0x00\n      keccak256\n        /* \"input/CreateWin.sol\":18687:18735  UserGlobal memory userGlobal = userMapping[addr] */\n      mload(0x40)\n      dup1\n      0xa0\n      add\n      0x40\n      mstore\n      swap1\n      dup2\n      0x00\n      dup3\n      add\n      sload\n      dup2\n      mstore\n      0x20\n      add\n      0x01\n      dup3\n      add\n      0x00\n      swap1\n      sload\n      swap1\n      0x0100\n      exp\n      swap1\n      div\n      0xffffffffffffffffffffffffffffffffffffffff\n      and\n      0xffffffffffffffffffffffffffffffffffffffff\n      and\n      0xffffffffffffffffffffffffffffffffffffffff\n      and\n      dup2\n      mstore\n      0x20\n      add\n      0x02\n      dup3\n      add\n      dup1\n      sload\n      0x01\n      dup2\n      0x01\n      and\n      iszero\n      0x0100\n      mul\n      sub\n      and\n      0x02\n      swap1\n      div\n      dup1\n      0x1f\n      add\n      0x20\n      dup1\n      swap2\n      div\n      mul\n      0x20\n      add\n      mload(0x40)\n      swap1\n      dup2\n      add\n      0x40\n      mstore\n      dup1\n      swap3\n      swap2\n      swap1\n      dup2\n      dup2\n      mstore\n      0x20\n      add\n      dup3\n      dup1\n      sload\n      0x01\n      dup2\n      0x01\n      and\n      iszero\n      0x0100\n      mul\n      sub\n      and\n      0x02\n      swap1\n      div\n      dup1\n      iszero\n      tag_280\n      jumpi\n      dup1\n      0x1f\n      lt\n      tag_281\n      jumpi\n      0x0100\n      dup1\n      dup4\n      sload\n      div\n      mul\n      dup4\n      mstore\n      swap2\n      0x20\n      add\n      swap2\n      jump(tag_280)\n    tag_281:\n      dup3\n      add\n      swap2\n      swap1\n      0x00\n      mstore\n      keccak256(0x00, 0x20)\n      swap1\n    tag_282:\n      dup2\n      sload\n      dup2\n      mstore\n      swap1\n      0x01\n      add\n      swap1\n      0x20\n      add\n      dup1\n      dup4\n      gt\n      tag_282\n      jumpi\n      dup3\n      swap1\n      sub\n      0x1f\n      and\n      dup3\n      add\n      swap2\n    tag_280:\n      pop\n      pop\n      pop\n      pop\n      pop\n      dup2\n      mstore\n      0x20\n      add\n      0x03\n      dup3\n      add\n      dup1\n      sload\n      0x01\n      dup2\n      0x01\n      and\n      iszero\n      0x0100\n      mul\n      sub\n      and\n      0x02\n      swap1\n      div\n      dup1\n      0x1f\n      add\n      0x20\n      dup1\n      swap2\n      div\n      mul\n      0x20\n      add\n      mload(0x40)\n      swap1\n      dup2\n      add\n      0x40\n      mstore\n      dup1\n      swap3\n      swap2\n      swap1\n      dup2\n      dup2\n      mstore\n      0x20\n      add\n      dup3\n      dup1\n      sload\n      0x01\n      dup2\n      0x01\n      and\n      iszero\n      0x0100\n      mul\n      sub\n      and\n      0x02\n      swap1\n      div\n      dup1\n      iszero\n      tag_283\n      jumpi\n      dup1\n      0x1f\n      lt\n      tag_284\n      jumpi\n      0x0100\n      dup1\n      dup4\n      sload\n      div\n      mul\n      dup4\n      mstore\n      swap2\n      0x20\n      add\n      swap2\n      jump(tag_283)\n    tag_284:\n      dup3\n      add\n      swap2\n      swap1\n      0x00\n      mstore\n      keccak256(0x00, 0x20)\n      swap1\n    tag_285:\n      dup2\n      sload\n      dup2\n      mstore\n      swap1\n      0x01\n      add\n      swap1\n      0x20\n      add\n      dup1\n      dup4\n      gt\n      tag_285\n      jumpi\n      dup3\n      swap1\n      sub\n      0x1f\n      and\n      dup3\n      add\n      swap2\n    tag_283:\n      pop\n      pop\n      pop\n      pop\n      pop\n      dup2\n      mstore\n      0x20\n      add\n      0x04\n      dup3\n      add\n      sload\n      dup2\n      mstore\n      pop\n      pop\n      swap1\n      pop\n        /* \"input/CreateWin.sol\":18739:18755  User memory user */\n      tag_286\n      tag_287\n      jump\t// in\n    tag_286:\n        /* \"input/CreateWin.sol\":18758:18774  userRoundMapping */\n      0x0e\n        /* \"input/CreateWin.sol\":18758:18783  userRoundMapping[roundId] */\n      0x00\n        /* \"input/CreateWin.sol\":18775:18782  roundId */\n      dup8\n        /* \"input/CreateWin.sol\":18758:18783  userRoundMapping[roundId] */\n      dup2\n      mstore\n      0x20\n      add\n      swap1\n      dup2\n      mstore\n      0x20\n      add\n      0x00\n      keccak256\n        /* \"input/CreateWin.sol\":18758:18789  userRoundMapping[roundId][addr] */\n      0x00\n        /* \"input/CreateWin.sol\":18784:18788  addr */\n      dup9\n        /* \"input/CreateWin.sol\":18758:18789  userRoundMapping[roundId][addr] */\n      0xffffffffffffffffffffffffffffffffffffffff\n      and\n      0xffffffffffffffffffffffffffffffffffffffff\n      and\n      dup2\n      mstore\n      0x20\n      add\n      swap1\n      dup2\n      mstore\n      0x20\n      add\n      0x00\n      keccak256\n        /* \"input/CreateWin.sol\":18739:18789  User memory user = userRoundMapping[roundId][addr] */\n      mload(0x40)\n      dup1\n      0x0200\n      add\n      0x40\n      mstore\n      swap1\n      dup2\n      0x00\n      dup3\n      add\n      sload\n      dup2\n      mstore\n      0x20\n      add\n      0x01\n      dup3\n      add\n      0x00\n      swap1\n      sload\n      swap1\n      0x0100\n      exp\n      swap1\n      div\n      0xffffffffffffffffffffffffffffffffffffffff\n      and\n      0xffffffffffffffffffffffffffffffffffffffff\n      and\n      0xffffffffffffffffffffffffffffffffffffffff\n      and\n      dup2\n      mstore\n      0x20\n      add\n      0x02\n      dup3\n      add\n      sload\n      dup2\n      mstore\n      0x20\n      add\n      0x03\n      dup3\n      add\n      sload\n      dup2\n      mstore\n      0x20\n      add\n      0x04\n      dup3\n      add\n      sload\n      dup2\n      mstore\n      0x20\n      add\n      0x05\n      dup3\n      add\n      sload\n      dup2\n      mstore\n      0x20\n      add\n      0x06\n      dup3\n      add\n      sload\n      dup2\n      mstore\n      0x20\n      add\n      0x07\n      dup3\n      add\n      sload\n      dup2\n      mstore\n      0x20\n      add\n      0x08\n      dup3\n      add\n      sload\n      dup2\n      mstore\n      0x20\n      add\n      0x09\n      dup3\n      add\n      sload\n      dup2\n      mstore\n      0x20\n      add\n      0x0a\n      dup3\n      add\n      sload\n      dup2\n      mstore\n      0x20\n      add\n      0x0b\n      dup3\n      add\n      sload\n      dup2\n      mstore\n      0x20\n      add\n      0x0c\n      dup3\n      add\n      dup1\n      sload\n      0x01\n      dup2\n      0x01\n      and\n      iszero\n      0x0100\n      mul\n      sub\n      and\n      0x02\n      swap1\n      div\n      dup1\n      0x1f\n      add\n      0x20\n      dup1\n      swap2\n      div\n      mul\n      0x20\n      add\n      mload(0x40)\n      swap1\n      dup2\n      add\n      0x40\n      mstore\n      dup1\n      swap3\n      swap2\n      swap1\n      dup2\n      dup2\n      mstore\n      0x20\n      add\n      dup3\n      dup1\n      sload\n      0x01\n      dup2\n      0x01\n      and\n      iszero\n      0x0100\n      mul\n      sub\n      and\n      0x02\n      swap1\n      div\n      dup1\n      iszero\n      tag_288\n      jumpi\n      dup1\n      0x1f\n      lt\n      tag_289\n      jumpi\n      0x0100\n      dup1\n      dup4\n      sload\n      div\n      mul\n      dup4\n      mstore\n      swap2\n      0x20\n      add\n      swap2\n      jump(tag_288)\n    tag_289:\n      dup3\n      add\n      swap2\n      swap1\n      0x00\n      mstore\n      keccak256(0x00, 0x20)\n      swap1\n    tag_290:\n      dup2\n      sload\n      dup2\n      mstore\n      swap1\n      0x01\n      add\n      swap1\n      0x20\n      add\n      dup1\n      dup4\n      gt\n      tag_290\n      jumpi\n      dup3\n      swap1\n      sub\n      0x1f\n      and\n      dup3\n      add\n      swap2\n    tag_288:\n      pop\n      pop\n      pop\n      pop\n      pop\n      dup2\n      mstore\n      0x20\n      add\n      0x0d\n      dup3\n      add\n      dup1\n      sload\n      0x01\n      dup2\n      0x01\n      and\n      iszero\n      0x0100\n      mul\n      sub\n      and\n      0x02\n      swap1\n      div\n      dup1\n      0x1f\n      add\n      0x20\n      dup1\n      swap2\n      div\n      mul\n      0x20\n      add\n      mload(0x40)\n      swap1\n      dup2\n      add\n      0x40\n      mstore\n      dup1\n      swap3\n      swap2\n      swap1\n      dup2\n      dup2\n      mstore\n      0x20\n      add\n      dup3\n      dup1\n      sload\n      0x01\n      dup2\n      0x01\n      and\n      iszero\n      0x0100\n      mul\n      sub\n      and\n      0x02\n      swap1\n      div\n      dup1\n      iszero\n      tag_291\n      jumpi\n      dup1\n      0x1f\n      lt\n      tag_292\n      jumpi\n      0x0100\n      dup1\n      dup4\n      sload\n      div\n      mul\n      dup4\n      mstore\n      swap2\n      0x20\n      add\n      swap2\n      jump(tag_291)\n    tag_292:\n      dup3\n      add\n      swap2\n      swap1\n      0x00\n      mstore\n      keccak256(0x00, 0x20)\n      swap1\n    tag_293:\n      dup2\n      sload\n      dup2\n      mstore\n      swap1\n      0x01\n      add\n      swap1\n      0x20\n      add\n      dup1\n      dup4\n      gt\n      tag_293\n      jumpi\n      dup3\n      swap1\n      sub\n      0x1f\n      and\n      dup3\n      add\n      swap2\n    tag_291:\n      pop\n      pop\n      pop\n      pop\n      pop\n      dup2\n      mstore\n      0x20\n      add\n      0x0e\n      dup3\n      add\n      sload\n      dup2\n      mstore\n      0x20\n      add\n      0x0f\n      dup3\n      add\n      sload\n      dup2\n      mstore\n      pop\n      pop\n      swap1\n      pop\n        /* \"input/CreateWin.sol\":18803:18813  userGlobal */\n      dup2\n        /* \"input/CreateWin.sol\":18803:18816  userGlobal.id */\n      0x00\n      add\n      mload\n        /* \"input/CreateWin.sol\":18793:18797  info */\n      dup6\n        /* \"input/CreateWin.sol\":18798:18799  0 */\n      0x00\n        /* \"input/CreateWin.sol\":18793:18800  info[0] */\n      0x0e\n      dup2\n      lt\n      tag_294\n      jumpi\n      invalid\n    tag_294:\n      0x20\n      mul\n      add\n        /* \"input/CreateWin.sol\":18793:18816  info[0] = userGlobal.id */\n      dup2\n      dup2\n      mstore\n      pop\n      pop\n        /* \"input/CreateWin.sol\":18830:18834  user */\n      dup1\n        /* \"input/CreateWin.sol\":18830:18845  user.lineAmount */\n      0x80\n      add\n      mload\n        /* \"input/CreateWin.sol\":18820:18824  info */\n      dup6\n        /* \"input/CreateWin.sol\":18825:18826  1 */\n      0x01\n        /* \"input/CreateWin.sol\":18820:18827  info[1] */\n      0x0e\n      dup2\n      lt\n      tag_295\n      jumpi\n      invalid\n    tag_295:\n      0x20\n      mul\n      add\n        /* \"input/CreateWin.sol\":18820:18845  info[1] = user.lineAmount */\n      dup2\n      dup2\n      mstore\n      pop\n      pop\n        /* \"input/CreateWin.sol\":18859:18863  user */\n      dup1\n        /* \"input/CreateWin.sol\":18859:18874  user.freeAmount */\n      0x40\n      add\n      mload\n        /* \"input/CreateWin.sol\":18849:18853  info */\n      dup6\n        /* \"input/CreateWin.sol\":18854:18855  2 */\n      0x02\n        /* \"input/CreateWin.sol\":18849:18856  info[2] */\n      0x0e\n      dup2\n      lt\n      tag_296\n      jumpi\n      invalid\n    tag_296:\n      0x20\n      mul\n      add\n        /* \"input/CreateWin.sol\":18849:18874  info[2] = user.freeAmount */\n      dup2\n      dup2\n      mstore\n      pop\n      pop\n        /* \"input/CreateWin.sol\":18888:18892  user */\n      dup1\n        /* \"input/CreateWin.sol\":18888:18905  user.freezeAmount */\n      0x60\n      add\n      mload\n        /* \"input/CreateWin.sol\":18878:18882  info */\n      dup6\n        /* \"input/CreateWin.sol\":18883:18884  3 */\n      0x03\n        /* \"input/CreateWin.sol\":18878:18885  info[3] */\n      0x0e\n      dup2\n      lt\n      tag_297\n      jumpi\n      invalid\n    tag_297:\n      0x20\n      mul\n      add\n        /* \"input/CreateWin.sol\":18878:18905  info[3] = user.freezeAmount */\n      dup2\n      dup2\n      mstore\n      pop\n      pop\n        /* \"input/CreateWin.sol\":18919:18923  user */\n      dup1\n        /* \"input/CreateWin.sol\":18919:18936  user.inviteAmonut */\n      0xa0\n      add\n      mload\n        /* \"input/CreateWin.sol\":18909:18913  info */\n      dup6\n        /* \"input/CreateWin.sol\":18914:18915  4 */\n      0x04\n        /* \"input/CreateWin.sol\":18909:18916  info[4] */\n      0x0e\n      dup2\n      lt\n      tag_298\n      jumpi\n      invalid\n    tag_298:\n      0x20\n      mul\n      add\n        /* \"input/CreateWin.sol\":18909:18936  info[4] = user.inviteAmonut */\n      dup2\n      dup2\n      mstore\n      pop\n      pop\n        /* \"input/CreateWin.sol\":18950:18954  user */\n      dup1\n        /* \"input/CreateWin.sol\":18950:18966  user.bonusAmount */\n      0xe0\n      add\n      mload\n        /* \"input/CreateWin.sol\":18940:18944  info */\n      dup6\n        /* \"input/CreateWin.sol\":18945:18946  5 */\n      0x05\n        /* \"input/CreateWin.sol\":18940:18947  info[5] */\n      0x0e\n      dup2\n      lt\n      tag_299\n      jumpi\n      invalid\n    tag_299:\n      0x20\n      mul\n      add\n        /* \"input/CreateWin.sol\":18940:18966  info[5] = user.bonusAmount */\n      dup2\n      dup2\n      mstore\n      pop\n      pop\n        /* \"input/CreateWin.sol\":18980:18984  user */\n      dup1\n        /* \"input/CreateWin.sol\":18980:18994  user.lineLevel */\n      0x0120\n      add\n      mload\n        /* \"input/CreateWin.sol\":18970:18974  info */\n      dup6\n        /* \"input/CreateWin.sol\":18975:18976  6 */\n      0x06\n        /* \"input/CreateWin.sol\":18970:18977  info[6] */\n      0x0e\n      dup2\n      lt\n      tag_300\n      jumpi\n      invalid\n    tag_300:\n      0x20\n      mul\n      add\n        /* \"input/CreateWin.sol\":18970:18994  info[6] = user.lineLevel */\n      dup2\n      dup2\n      mstore\n      pop\n      pop\n        /* \"input/CreateWin.sol\":19008:19012  user */\n      dup1\n        /* \"input/CreateWin.sol\":19008:19027  user.dayBonusAmount */\n      0xc0\n      add\n      mload\n        /* \"input/CreateWin.sol\":18998:19002  info */\n      dup6\n        /* \"input/CreateWin.sol\":19003:19004  7 */\n      0x07\n        /* \"input/CreateWin.sol\":18998:19005  info[7] */\n      0x0e\n      dup2\n      lt\n      tag_301\n      jumpi\n      invalid\n    tag_301:\n      0x20\n      mul\n      add\n        /* \"input/CreateWin.sol\":18998:19027  info[7] = user.dayBonusAmount */\n      dup2\n      dup2\n      mstore\n      pop\n      pop\n        /* \"input/CreateWin.sol\":19041:19045  user */\n      dup1\n        /* \"input/CreateWin.sol\":19041:19057  user.rewardIndex */\n      0x01c0\n      add\n      mload\n        /* \"input/CreateWin.sol\":19031:19035  info */\n      dup6\n        /* \"input/CreateWin.sol\":19036:19037  8 */\n      0x08\n        /* \"input/CreateWin.sol\":19031:19038  info[8] */\n      0x0e\n      dup2\n      lt\n      tag_302\n      jumpi\n      invalid\n    tag_302:\n      0x20\n      mul\n      add\n        /* \"input/CreateWin.sol\":19031:19057  info[8] = user.rewardIndex */\n      dup2\n      dup2\n      mstore\n      pop\n      pop\n        /* \"input/CreateWin.sol\":19071:19075  user */\n      dup1\n        /* \"input/CreateWin.sol\":19071:19087  user.investTimes */\n      0x0160\n      add\n      mload\n        /* \"input/CreateWin.sol\":19061:19065  info */\n      dup6\n        /* \"input/CreateWin.sol\":19066:19067  9 */\n      0x09\n        /* \"input/CreateWin.sol\":19061:19068  info[9] */\n      0x0e\n      dup2\n      lt\n      tag_303\n      jumpi\n      invalid\n    tag_303:\n      0x20\n      mul\n      add\n        /* \"input/CreateWin.sol\":19061:19087  info[9] = user.investTimes */\n      dup2\n      dup2\n      mstore\n      pop\n      pop\n        /* \"input/CreateWin.sol\":19102:19106  user */\n      dup1\n        /* \"input/CreateWin.sol\":19102:19112  user.level */\n      0x0100\n      add\n      mload\n        /* \"input/CreateWin.sol\":19091:19095  info */\n      dup6\n        /* \"input/CreateWin.sol\":19096:19098  10 */\n      0x0a\n        /* \"input/CreateWin.sol\":19091:19099  info[10] */\n      0x0e\n      dup2\n      lt\n      tag_304\n      jumpi\n      invalid\n    tag_304:\n      0x20\n      mul\n      add\n        /* \"input/CreateWin.sol\":19091:19112  info[10] = user.level */\n      dup2\n      dup2\n      mstore\n      pop\n      pop\n        /* \"input/CreateWin.sol\":19116:19132  uint grantAmount */\n      0x00\n        /* \"input/CreateWin.sol\":19135:19136  0 */\n      dup1\n        /* \"input/CreateWin.sol\":19116:19136  uint grantAmount = 0 */\n      swap1\n      pop\n        /* \"input/CreateWin.sol\":19154:19155  0 */\n      0x00\n        /* \"input/CreateWin.sol\":19144:19148  user */\n      dup3\n        /* \"input/CreateWin.sol\":19144:19151  user.id */\n      0x00\n      add\n      mload\n        /* \"input/CreateWin.sol\":19144:19155  user.id > 0 */\n      gt\n        /* \"input/CreateWin.sol\":19144:19187  user.id > 0 && user.freezeAmount >= 1 ether */\n      dup1\n      iszero\n      tag_305\n      jumpi\n      pop\n        /* \"input/CreateWin.sol\":19180:19187  1 ether */\n      0x0de0b6b3a7640000\n        /* \"input/CreateWin.sol\":19159:19163  user */\n      dup3\n        /* \"input/CreateWin.sol\":19159:19176  user.freezeAmount */\n      0x60\n      add\n      mload\n        /* \"input/CreateWin.sol\":19159:19187  user.freezeAmount >= 1 ether */\n      lt\n      iszero\n        /* \"input/CreateWin.sol\":19144:19187  user.id > 0 && user.freezeAmount >= 1 ether */\n    tag_305:\n        /* \"input/CreateWin.sol\":19144:19222  user.id > 0 && user.freezeAmount >= 1 ether && user.freezeAmount <= bonuslimit */\n      dup1\n      iszero\n      tag_306\n      jumpi\n      pop\n        /* \"input/CreateWin.sol\":19212:19222  bonuslimit */\n      sload(0x13)\n        /* \"input/CreateWin.sol\":19191:19195  user */\n      dup3\n        /* \"input/CreateWin.sol\":19191:19208  user.freezeAmount */\n      0x60\n      add\n      mload\n        /* \"input/CreateWin.sol\":19191:19222  user.freezeAmount <= bonuslimit */\n      gt\n      iszero\n        /* \"input/CreateWin.sol\":19144:19222  user.id > 0 && user.freezeAmount >= 1 ether && user.freezeAmount <= bonuslimit */\n    tag_306:\n        /* \"input/CreateWin.sol\":19144:19246  user.id > 0 && user.freezeAmount >= 1 ether && user.freezeAmount <= bonuslimit && user.investTimes < 5 */\n      dup1\n      iszero\n      tag_307\n      jumpi\n      pop\n        /* \"input/CreateWin.sol\":19245:19246  5 */\n      0x05\n        /* \"input/CreateWin.sol\":19226:19230  user */\n      dup3\n        /* \"input/CreateWin.sol\":19226:19242  user.investTimes */\n      0x0160\n      add\n      mload\n        /* \"input/CreateWin.sol\":19226:19246  user.investTimes < 5 */\n      lt\n        /* \"input/CreateWin.sol\":19144:19246  user.id > 0 && user.freezeAmount >= 1 ether && user.freezeAmount <= bonuslimit && user.investTimes < 5 */\n    tag_307:\n        /* \"input/CreateWin.sol\":19144:19272  user.id > 0 && user.freezeAmount >= 1 ether && user.freezeAmount <= bonuslimit && user.investTimes < 5 && userGlobal.status != 1 */\n      dup1\n      iszero\n      tag_308\n      jumpi\n      pop\n        /* \"input/CreateWin.sol\":19271:19272  1 */\n      0x01\n        /* \"input/CreateWin.sol\":19250:19260  userGlobal */\n      dup4\n        /* \"input/CreateWin.sol\":19250:19267  userGlobal.status */\n      0x80\n      add\n      mload\n        /* \"input/CreateWin.sol\":19250:19272  userGlobal.status != 1 */\n      eq\n      iszero\n        /* \"input/CreateWin.sol\":19144:19272  user.id > 0 && user.freezeAmount >= 1 ether && user.freezeAmount <= bonuslimit && user.investTimes < 5 && userGlobal.status != 1 */\n    tag_308:\n        /* \"input/CreateWin.sol\":19140:19318  if (user.id > 0 && user.freezeAmount >= 1 ether && user.freezeAmount <= bonuslimit && user.investTimes < 5 && userGlobal.status != 1) {... */\n      iszero\n      tag_309\n      jumpi\n        /* \"input/CreateWin.sol\":19294:19298  user */\n      dup2\n        /* \"input/CreateWin.sol\":19294:19313  user.dayBonusAmount */\n      0xc0\n      add\n      mload\n        /* \"input/CreateWin.sol\":19279:19313  grantAmount += user.dayBonusAmount */\n      dup2\n      add\n      swap1\n      pop\n        /* \"input/CreateWin.sol\":19140:19318  if (user.id > 0 && user.freezeAmount >= 1 ether && user.freezeAmount <= bonuslimit && user.investTimes < 5 && userGlobal.status != 1) {... */\n    tag_309:\n        /* \"input/CreateWin.sol\":19346:19347  0 */\n      0x00\n        /* \"input/CreateWin.sol\":19325:19335  userGlobal */\n      dup4\n        /* \"input/CreateWin.sol\":19325:19342  userGlobal.status */\n      0x80\n      add\n      mload\n        /* \"input/CreateWin.sol\":19325:19347  userGlobal.status == 0 */\n      eq\n        /* \"input/CreateWin.sol\":19321:20494  if (userGlobal.status == 0) {... */\n      iszero\n      tag_310\n      jumpi\n        /* \"input/CreateWin.sol\":19354:19369  uint inviteSend */\n      0x00\n        /* \"input/CreateWin.sol\":19372:19373  0 */\n      dup1\n        /* \"input/CreateWin.sol\":19354:19373  uint inviteSend = 0 */\n      swap1\n      pop\n        /* \"input/CreateWin.sol\":19378:19401  AwardData memory awData */\n      tag_311\n      tag_312\n      jump\t// in\n    tag_311:\n        /* \"input/CreateWin.sol\":19404:19424  userAwardDataMapping */\n      0x12\n        /* \"input/CreateWin.sol\":19404:19429  userAwardDataMapping[rid] */\n      0x00\n        /* \"input/CreateWin.sol\":19425:19428  rid */\n      sload(0x0c)\n        /* \"input/CreateWin.sol\":19404:19429  userAwardDataMapping[rid] */\n      dup2\n      mstore\n      0x20\n      add\n      swap1\n      dup2\n      mstore\n      0x20\n      add\n      0x00\n      keccak256\n        /* \"input/CreateWin.sol\":19404:19447  userAwardDataMapping[rid][user.userAddress] */\n      0x00\n        /* \"input/CreateWin.sol\":19430:19434  user */\n      dup6\n        /* \"input/CreateWin.sol\":19430:19446  user.userAddress */\n      0x20\n      add\n      mload\n        /* \"input/CreateWin.sol\":19404:19447  userAwardDataMapping[rid][user.userAddress] */\n      0xffffffffffffffffffffffffffffffffffffffff\n      and\n      0xffffffffffffffffffffffffffffffffffffffff\n      and\n      dup2\n      mstore\n      0x20\n      add\n      swap1\n      dup2\n      mstore\n      0x20\n      add\n      0x00\n      keccak256\n        /* \"input/CreateWin.sol\":19404:19465  userAwardDataMapping[rid][user.userAddress][user.rewardIndex] */\n      0x00\n        /* \"input/CreateWin.sol\":19448:19452  user */\n      dup6\n        /* \"input/CreateWin.sol\":19448:19464  user.rewardIndex */\n      0x01c0\n      add\n      mload\n        /* \"input/CreateWin.sol\":19404:19465  userAwardDataMapping[rid][user.userAddress][user.rewardIndex] */\n      dup2\n      mstore\n      0x20\n      add\n      swap1\n      dup2\n      mstore\n      0x20\n      add\n      0x00\n      keccak256\n        /* \"input/CreateWin.sol\":19378:19465  AwardData memory awData = userAwardDataMapping[rid][user.userAddress][user.rewardIndex] */\n      mload(0x40)\n      dup1\n      0x60\n      add\n      0x40\n      mstore\n      swap1\n      dup2\n      0x00\n      dup3\n      add\n      sload\n      dup2\n      mstore\n      0x20\n      add\n      0x01\n      dup3\n      add\n      sload\n      dup2\n      mstore\n      0x20\n      add\n      0x02\n      dup3\n      add\n      sload\n      dup2\n      mstore\n      pop\n      pop\n      swap1\n      pop\n        /* \"input/CreateWin.sol\":19470:19485  uint lineAmount */\n      0x00\n        /* \"input/CreateWin.sol\":19488:19547  user.freezeAmount.add(user.freeAmount).add(user.lineAmount) */\n      tag_313\n        /* \"input/CreateWin.sol\":19531:19535  user */\n      dup6\n        /* \"input/CreateWin.sol\":19531:19546  user.lineAmount */\n      0x80\n      add\n      mload\n        /* \"input/CreateWin.sol\":19488:19526  user.freezeAmount.add(user.freeAmount) */\n      tag_314\n        /* \"input/CreateWin.sol\":19510:19514  user */\n      dup8\n        /* \"input/CreateWin.sol\":19510:19525  user.freeAmount */\n      0x40\n      add\n      mload\n        /* \"input/CreateWin.sol\":19488:19492  user */\n      dup9\n        /* \"input/CreateWin.sol\":19488:19505  user.freezeAmount */\n      0x60\n      add\n      mload\n        /* \"input/CreateWin.sol\":19488:19509  user.freezeAmount.add */\n      tag_243\n      swap1\n        /* \"input/CreateWin.sol\":19488:19526  user.freezeAmount.add(user.freeAmount) */\n      swap2\n      swap1\n      0xffffffff\n      and\n      jump\t// in\n    tag_314:\n        /* \"input/CreateWin.sol\":19488:19530  user.freezeAmount.add(user.freeAmount).add */\n      tag_243\n      swap1\n        /* \"input/CreateWin.sol\":19488:19547  user.freezeAmount.add(user.freeAmount).add(user.lineAmount) */\n      swap2\n      swap1\n      0xffffffff\n      and\n      jump\t// in\n    tag_313:\n        /* \"input/CreateWin.sol\":19470:19547  uint lineAmount = user.freezeAmount.add(user.freeAmount).add(user.lineAmount) */\n      swap1\n      pop\n        /* \"input/CreateWin.sol\":19570:19577  1 ether */\n      0x0de0b6b3a7640000\n        /* \"input/CreateWin.sol\":19556:19566  lineAmount */\n      dup2\n        /* \"input/CreateWin.sol\":19556:19577  lineAmount >= 1 ether */\n      lt\n        /* \"input/CreateWin.sol\":19552:20490  if (lineAmount >= 1 ether) {... */\n      tag_315\n      jumpi\n        /* \"input/CreateWin.sol\":19585:19599  uint lineValue */\n      0x00\n        /* \"input/CreateWin.sol\":19602:19624  lineAmount.div(ethWei) */\n      tag_316\n        /* \"input/CreateWin.sol\":19617:19623  ethWei */\n      sload(0x03)\n        /* \"input/CreateWin.sol\":19602:19612  lineAmount */\n      dup4\n        /* \"input/CreateWin.sol\":19602:19616  lineAmount.div */\n      tag_220\n      swap1\n        /* \"input/CreateWin.sol\":19602:19624  lineAmount.div(ethWei) */\n      swap2\n      swap1\n      0xffffffff\n      and\n      jump\t// in\n    tag_316:\n        /* \"input/CreateWin.sol\":19585:19624  uint lineValue = lineAmount.div(ethWei) */\n      swap1\n      pop\n        /* \"input/CreateWin.sol\":19647:19649  15 */\n      0x0f\n        /* \"input/CreateWin.sol\":19634:19643  lineValue */\n      dup2\n        /* \"input/CreateWin.sol\":19634:19649  lineValue >= 15 */\n      lt\n        /* \"input/CreateWin.sol\":19630:20454  if (lineValue >= 15) {... */\n      tag_317\n      jumpi\n        /* \"input/CreateWin.sol\":19672:19678  awData */\n      dup3\n        /* \"input/CreateWin.sol\":19672:19693  awData.threeInvAmount */\n      0x40\n      add\n      mload\n        /* \"input/CreateWin.sol\":19658:19693  inviteSend += awData.threeInvAmount */\n      dup5\n      add\n      swap4\n      pop\n        /* \"input/CreateWin.sol\":19630:20454  if (lineValue >= 15) {... */\n      jump(tag_318)\n    tag_317:\n        /* \"input/CreateWin.sol\":19735:19736  1 */\n      0x01\n        /* \"input/CreateWin.sol\":19717:19721  user */\n      dup7\n        /* \"input/CreateWin.sol\":19717:19731  user.lineLevel */\n      0x0120\n      add\n      mload\n        /* \"input/CreateWin.sol\":19717:19736  user.lineLevel == 1 */\n      eq\n        /* \"input/CreateWin.sol\":19717:19761  user.lineLevel == 1 && lineAmount >= 1 ether */\n      dup1\n      iszero\n      tag_319\n      jumpi\n      pop\n        /* \"input/CreateWin.sol\":19754:19761  1 ether */\n      0x0de0b6b3a7640000\n        /* \"input/CreateWin.sol\":19740:19750  lineAmount */\n      dup3\n        /* \"input/CreateWin.sol\":19740:19761  lineAmount >= 1 ether */\n      lt\n      iszero\n        /* \"input/CreateWin.sol\":19717:19761  user.lineLevel == 1 && lineAmount >= 1 ether */\n    tag_319:\n        /* \"input/CreateWin.sol\":19717:19788  user.lineLevel == 1 && lineAmount >= 1 ether && awData.oneInvAmount > 0 */\n      dup1\n      iszero\n      tag_320\n      jumpi\n      pop\n        /* \"input/CreateWin.sol\":19787:19788  0 */\n      0x00\n        /* \"input/CreateWin.sol\":19765:19771  awData */\n      dup4\n        /* \"input/CreateWin.sol\":19765:19784  awData.oneInvAmount */\n      0x00\n      add\n      mload\n        /* \"input/CreateWin.sol\":19765:19788  awData.oneInvAmount > 0 */\n      gt\n        /* \"input/CreateWin.sol\":19717:19788  user.lineLevel == 1 && lineAmount >= 1 ether && awData.oneInvAmount > 0 */\n    tag_320:\n        /* \"input/CreateWin.sol\":19713:19869  if (user.lineLevel == 1 && lineAmount >= 1 ether && awData.oneInvAmount > 0) {... */\n      iszero\n      tag_321\n      jumpi\n        /* \"input/CreateWin.sol\":19812:19861  awData.oneInvAmount.div(15).mul(lineValue).div(2) */\n      tag_322\n        /* \"input/CreateWin.sol\":19859:19860  2 */\n      0x02\n        /* \"input/CreateWin.sol\":19812:19854  awData.oneInvAmount.div(15).mul(lineValue) */\n      tag_323\n        /* \"input/CreateWin.sol\":19844:19853  lineValue */\n      dup4\n        /* \"input/CreateWin.sol\":19812:19839  awData.oneInvAmount.div(15) */\n      tag_324\n        /* \"input/CreateWin.sol\":19836:19838  15 */\n      0x0f\n        /* \"input/CreateWin.sol\":19812:19818  awData */\n      dup9\n        /* \"input/CreateWin.sol\":19812:19831  awData.oneInvAmount */\n      0x00\n      add\n      mload\n        /* \"input/CreateWin.sol\":19812:19835  awData.oneInvAmount.div */\n      tag_220\n      swap1\n        /* \"input/CreateWin.sol\":19812:19839  awData.oneInvAmount.div(15) */\n      swap2\n      swap1\n      0xffffffff\n      and\n      jump\t// in\n    tag_324:\n        /* \"input/CreateWin.sol\":19812:19843  awData.oneInvAmount.div(15).mul */\n      tag_221\n      swap1\n        /* \"input/CreateWin.sol\":19812:19854  awData.oneInvAmount.div(15).mul(lineValue) */\n      swap2\n      swap1\n      0xffffffff\n      and\n      jump\t// in\n    tag_323:\n        /* \"input/CreateWin.sol\":19812:19858  awData.oneInvAmount.div(15).mul(lineValue).div */\n      tag_220\n      swap1\n        /* \"input/CreateWin.sol\":19812:19861  awData.oneInvAmount.div(15).mul(lineValue).div(2) */\n      swap2\n      swap1\n      0xffffffff\n      and\n      jump\t// in\n    tag_322:\n        /* \"input/CreateWin.sol\":19798:19861  inviteSend += awData.oneInvAmount.div(15).mul(lineValue).div(2) */\n      dup5\n      add\n      swap4\n      pop\n        /* \"input/CreateWin.sol\":19713:19869  if (user.lineLevel == 1 && lineAmount >= 1 ether && awData.oneInvAmount > 0) {... */\n    tag_321:\n        /* \"input/CreateWin.sol\":19897:19898  2 */\n      0x02\n        /* \"input/CreateWin.sol\":19879:19883  user */\n      dup7\n        /* \"input/CreateWin.sol\":19879:19893  user.lineLevel */\n      0x0120\n      add\n      mload\n        /* \"input/CreateWin.sol\":19879:19898  user.lineLevel == 2 */\n      eq\n        /* \"input/CreateWin.sol\":19879:19923  user.lineLevel == 2 && lineAmount >= 1 ether */\n      dup1\n      iszero\n      tag_325\n      jumpi\n      pop\n        /* \"input/CreateWin.sol\":19916:19923  1 ether */\n      0x0de0b6b3a7640000\n        /* \"input/CreateWin.sol\":19902:19912  lineAmount */\n      dup3\n        /* \"input/CreateWin.sol\":19902:19923  lineAmount >= 1 ether */\n      lt\n      iszero\n        /* \"input/CreateWin.sol\":19879:19923  user.lineLevel == 2 && lineAmount >= 1 ether */\n    tag_325:\n        /* \"input/CreateWin.sol\":19879:19979  user.lineLevel == 2 && lineAmount >= 1 ether && (awData.oneInvAmount > 0 || awData.twoInvAmount > 0) */\n      dup1\n      iszero\n      tag_326\n      jumpi\n      pop\n        /* \"input/CreateWin.sol\":19950:19951  0 */\n      0x00\n        /* \"input/CreateWin.sol\":19928:19934  awData */\n      dup4\n        /* \"input/CreateWin.sol\":19928:19947  awData.oneInvAmount */\n      0x00\n      add\n      mload\n        /* \"input/CreateWin.sol\":19928:19951  awData.oneInvAmount > 0 */\n      gt\n        /* \"input/CreateWin.sol\":19928:19978  awData.oneInvAmount > 0 || awData.twoInvAmount > 0 */\n      dup1\n      tag_327\n      jumpi\n      pop\n        /* \"input/CreateWin.sol\":19977:19978  0 */\n      0x00\n        /* \"input/CreateWin.sol\":19955:19961  awData */\n      dup4\n        /* \"input/CreateWin.sol\":19955:19974  awData.twoInvAmount */\n      0x20\n      add\n      mload\n        /* \"input/CreateWin.sol\":19955:19978  awData.twoInvAmount > 0 */\n      gt\n        /* \"input/CreateWin.sol\":19928:19978  awData.oneInvAmount > 0 || awData.twoInvAmount > 0 */\n    tag_327:\n        /* \"input/CreateWin.sol\":19879:19979  user.lineLevel == 2 && lineAmount >= 1 ether && (awData.oneInvAmount > 0 || awData.twoInvAmount > 0) */\n    tag_326:\n        /* \"input/CreateWin.sol\":19875:20146  if (user.lineLevel == 2 && lineAmount >= 1 ether && (awData.oneInvAmount > 0 || awData.twoInvAmount > 0)) {... */\n      iszero\n      tag_328\n      jumpi\n        /* \"input/CreateWin.sol\":20003:20060  awData.oneInvAmount.div(15).mul(lineValue).mul(7).div(10) */\n      tag_329\n        /* \"input/CreateWin.sol\":20057:20059  10 */\n      0x0a\n        /* \"input/CreateWin.sol\":20003:20052  awData.oneInvAmount.div(15).mul(lineValue).mul(7) */\n      tag_330\n        /* \"input/CreateWin.sol\":20050:20051  7 */\n      0x07\n        /* \"input/CreateWin.sol\":20003:20045  awData.oneInvAmount.div(15).mul(lineValue) */\n      tag_331\n        /* \"input/CreateWin.sol\":20035:20044  lineValue */\n      dup6\n        /* \"input/CreateWin.sol\":20003:20030  awData.oneInvAmount.div(15) */\n      tag_332\n        /* \"input/CreateWin.sol\":20027:20029  15 */\n      0x0f\n        /* \"input/CreateWin.sol\":20003:20009  awData */\n      dup11\n        /* \"input/CreateWin.sol\":20003:20022  awData.oneInvAmount */\n      0x00\n      add\n      mload\n        /* \"input/CreateWin.sol\":20003:20026  awData.oneInvAmount.div */\n      tag_220\n      swap1\n        /* \"input/CreateWin.sol\":20003:20030  awData.oneInvAmount.div(15) */\n      swap2\n      swap1\n      0xffffffff\n      and\n      jump\t// in\n    tag_332:\n        /* \"input/CreateWin.sol\":20003:20034  awData.oneInvAmount.div(15).mul */\n      tag_221\n      swap1\n        /* \"input/CreateWin.sol\":20003:20045  awData.oneInvAmount.div(15).mul(lineValue) */\n      swap2\n      swap1\n      0xffffffff\n      and\n      jump\t// in\n    tag_331:\n        /* \"input/CreateWin.sol\":20003:20049  awData.oneInvAmount.div(15).mul(lineValue).mul */\n      tag_221\n      swap1\n        /* \"input/CreateWin.sol\":20003:20052  awData.oneInvAmount.div(15).mul(lineValue).mul(7) */\n      swap2\n      swap1\n      0xffffffff\n      and\n      jump\t// in\n    tag_330:\n        /* \"input/CreateWin.sol\":20003:20056  awData.oneInvAmount.div(15).mul(lineValue).mul(7).div */\n      tag_220\n      swap1\n        /* \"input/CreateWin.sol\":20003:20060  awData.oneInvAmount.div(15).mul(lineValue).mul(7).div(10) */\n      swap2\n      swap1\n      0xffffffff\n      and\n      jump\t// in\n    tag_329:\n        /* \"input/CreateWin.sol\":19989:20060  inviteSend += awData.oneInvAmount.div(15).mul(lineValue).mul(7).div(10) */\n      dup5\n      add\n      swap4\n      pop\n        /* \"input/CreateWin.sol\":20082:20138  awData.twoInvAmount.div(15).mul(lineValue).mul(5).div(7) */\n      tag_333\n        /* \"input/CreateWin.sol\":20136:20137  7 */\n      0x07\n        /* \"input/CreateWin.sol\":20082:20131  awData.twoInvAmount.div(15).mul(lineValue).mul(5) */\n      tag_334\n        /* \"input/CreateWin.sol\":20129:20130  5 */\n      0x05\n        /* \"input/CreateWin.sol\":20082:20124  awData.twoInvAmount.div(15).mul(lineValue) */\n      tag_335\n        /* \"input/CreateWin.sol\":20114:20123  lineValue */\n      dup6\n        /* \"input/CreateWin.sol\":20082:20109  awData.twoInvAmount.div(15) */\n      tag_336\n        /* \"input/CreateWin.sol\":20106:20108  15 */\n      0x0f\n        /* \"input/CreateWin.sol\":20082:20088  awData */\n      dup11\n        /* \"input/CreateWin.sol\":20082:20101  awData.twoInvAmount */\n      0x20\n      add\n      mload\n        /* \"input/CreateWin.sol\":20082:20105  awData.twoInvAmount.div */\n      tag_220\n      swap1\n        /* \"input/CreateWin.sol\":20082:20109  awData.twoInvAmount.div(15) */\n      swap2\n      swap1\n      0xffffffff\n      and\n      jump\t// in\n    tag_336:\n        /* \"input/CreateWin.sol\":20082:20113  awData.twoInvAmount.div(15).mul */\n      tag_221\n      swap1\n        /* \"input/CreateWin.sol\":20082:20124  awData.twoInvAmount.div(15).mul(lineValue) */\n      swap2\n      swap1\n      0xffffffff\n      and\n      jump\t// in\n    tag_335:\n        /* \"input/CreateWin.sol\":20082:20128  awData.twoInvAmount.div(15).mul(lineValue).mul */\n      tag_221\n      swap1\n        /* \"input/CreateWin.sol\":20082:20131  awData.twoInvAmount.div(15).mul(lineValue).mul(5) */\n      swap2\n      swap1\n      0xffffffff\n      and\n      jump\t// in\n    tag_334:\n        /* \"input/CreateWin.sol\":20082:20135  awData.twoInvAmount.div(15).mul(lineValue).mul(5).div */\n      tag_220\n      swap1\n        /* \"input/CreateWin.sol\":20082:20138  awData.twoInvAmount.div(15).mul(lineValue).mul(5).div(7) */\n      swap2\n      swap1\n      0xffffffff\n      and\n      jump\t// in\n    tag_333:\n        /* \"input/CreateWin.sol\":20068:20138  inviteSend += awData.twoInvAmount.div(15).mul(lineValue).mul(5).div(7) */\n      dup5\n      add\n      swap4\n      pop\n        /* \"input/CreateWin.sol\":19875:20146  if (user.lineLevel == 2 && lineAmount >= 1 ether && (awData.oneInvAmount > 0 || awData.twoInvAmount > 0)) {... */\n    tag_328:\n        /* \"input/CreateWin.sol\":20174:20175  3 */\n      0x03\n        /* \"input/CreateWin.sol\":20156:20160  user */\n      dup7\n        /* \"input/CreateWin.sol\":20156:20170  user.lineLevel */\n      0x0120\n      add\n      mload\n        /* \"input/CreateWin.sol\":20156:20175  user.lineLevel == 3 */\n      eq\n        /* \"input/CreateWin.sol\":20156:20200  user.lineLevel == 3 && lineAmount >= 1 ether */\n      dup1\n      iszero\n      tag_337\n      jumpi\n      pop\n        /* \"input/CreateWin.sol\":20193:20200  1 ether */\n      0x0de0b6b3a7640000\n        /* \"input/CreateWin.sol\":20179:20189  lineAmount */\n      dup3\n        /* \"input/CreateWin.sol\":20179:20200  lineAmount >= 1 ether */\n      lt\n      iszero\n        /* \"input/CreateWin.sol\":20156:20200  user.lineLevel == 3 && lineAmount >= 1 ether */\n    tag_337:\n        /* \"input/CreateWin.sol\":20156:20229  user.lineLevel == 3 && lineAmount >= 1 ether && awData.threeInvAmount > 0 */\n      dup1\n      iszero\n      tag_338\n      jumpi\n      pop\n        /* \"input/CreateWin.sol\":20228:20229  0 */\n      0x00\n        /* \"input/CreateWin.sol\":20204:20210  awData */\n      dup4\n        /* \"input/CreateWin.sol\":20204:20225  awData.threeInvAmount */\n      0x40\n      add\n      mload\n        /* \"input/CreateWin.sol\":20204:20229  awData.threeInvAmount > 0 */\n      gt\n        /* \"input/CreateWin.sol\":20156:20229  user.lineLevel == 3 && lineAmount >= 1 ether && awData.threeInvAmount > 0 */\n    tag_338:\n        /* \"input/CreateWin.sol\":20152:20305  if (user.lineLevel == 3 && lineAmount >= 1 ether && awData.threeInvAmount > 0) {... */\n      iszero\n      tag_339\n      jumpi\n        /* \"input/CreateWin.sol\":20253:20297  awData.threeInvAmount.div(15).mul(lineValue) */\n      tag_340\n        /* \"input/CreateWin.sol\":20287:20296  lineValue */\n      dup2\n        /* \"input/CreateWin.sol\":20253:20282  awData.threeInvAmount.div(15) */\n      tag_341\n        /* \"input/CreateWin.sol\":20279:20281  15 */\n      0x0f\n        /* \"input/CreateWin.sol\":20253:20259  awData */\n      dup7\n        /* \"input/CreateWin.sol\":20253:20274  awData.threeInvAmount */\n      0x40\n      add\n      mload\n        /* \"input/CreateWin.sol\":20253:20278  awData.threeInvAmount.div */\n      tag_220\n      swap1\n        /* \"input/CreateWin.sol\":20253:20282  awData.threeInvAmount.div(15) */\n      swap2\n      swap1\n      0xffffffff\n      and\n      jump\t// in\n    tag_341:\n        /* \"input/CreateWin.sol\":20253:20286  awData.threeInvAmount.div(15).mul */\n      tag_221\n      swap1\n        /* \"input/CreateWin.sol\":20253:20297  awData.threeInvAmount.div(15).mul(lineValue) */\n      swap2\n      swap1\n      0xffffffff\n      and\n      jump\t// in\n    tag_340:\n        /* \"input/CreateWin.sol\":20239:20297  inviteSend += awData.threeInvAmount.div(15).mul(lineValue) */\n      dup5\n      add\n      swap4\n      pop\n        /* \"input/CreateWin.sol\":20152:20305  if (user.lineLevel == 3 && lineAmount >= 1 ether && awData.threeInvAmount > 0) {... */\n    tag_339:\n        /* \"input/CreateWin.sol\":20332:20333  3 */\n      0x03\n        /* \"input/CreateWin.sol\":20315:20319  user */\n      dup7\n        /* \"input/CreateWin.sol\":20315:20329  user.lineLevel */\n      0x0120\n      add\n      mload\n        /* \"input/CreateWin.sol\":20315:20333  user.lineLevel < 3 */\n      lt\n        /* \"input/CreateWin.sol\":20311:20448  if (user.lineLevel < 3) {... */\n      iszero\n      tag_342\n      jumpi\n        /* \"input/CreateWin.sol\":20343:20354  uint fireSc */\n      0x00\n        /* \"input/CreateWin.sol\":20357:20389  getFireScByLevel(user.lineLevel) */\n      tag_343\n        /* \"input/CreateWin.sol\":20374:20378  user */\n      dup8\n        /* \"input/CreateWin.sol\":20374:20388  user.lineLevel */\n      0x0120\n      add\n      mload\n        /* \"input/CreateWin.sol\":20357:20373  getFireScByLevel */\n      tag_170\n        /* \"input/CreateWin.sol\":20357:20389  getFireScByLevel(user.lineLevel) */\n      jump\t// in\n    tag_343:\n        /* \"input/CreateWin.sol\":20343:20389  uint fireSc = getFireScByLevel(user.lineLevel) */\n      swap1\n      pop\n        /* \"input/CreateWin.sol\":20410:20440  inviteSend.mul(fireSc).div(10) */\n      tag_344\n        /* \"input/CreateWin.sol\":20437:20439  10 */\n      0x0a\n        /* \"input/CreateWin.sol\":20410:20432  inviteSend.mul(fireSc) */\n      tag_345\n        /* \"input/CreateWin.sol\":20425:20431  fireSc */\n      dup4\n        /* \"input/CreateWin.sol\":20410:20420  inviteSend */\n      dup9\n        /* \"input/CreateWin.sol\":20410:20424  inviteSend.mul */\n      tag_221\n      swap1\n        /* \"input/CreateWin.sol\":20410:20432  inviteSend.mul(fireSc) */\n      swap2\n      swap1\n      0xffffffff\n      and\n      jump\t// in\n    tag_345:\n        /* \"input/CreateWin.sol\":20410:20436  inviteSend.mul(fireSc).div */\n      tag_220\n      swap1\n        /* \"input/CreateWin.sol\":20410:20440  inviteSend.mul(fireSc).div(10) */\n      swap2\n      swap1\n      0xffffffff\n      and\n      jump\t// in\n    tag_344:\n        /* \"input/CreateWin.sol\":20397:20440  inviteSend = inviteSend.mul(fireSc).div(10) */\n      swap5\n      pop\n        /* \"input/CreateWin.sol\":20311:20448  if (user.lineLevel < 3) {... */\n      pop\n    tag_342:\n        /* \"input/CreateWin.sol\":19630:20454  if (lineValue >= 15) {... */\n    tag_318:\n        /* \"input/CreateWin.sol\":20474:20484  inviteSend */\n      dup4\n        /* \"input/CreateWin.sol\":20459:20484  grantAmount += inviteSend */\n      dup6\n      add\n      swap5\n      pop\n        /* \"input/CreateWin.sol\":19552:20490  if (lineAmount >= 1 ether) {... */\n      pop\n    tag_315:\n        /* \"input/CreateWin.sol\":19321:20494  if (userGlobal.status == 0) {... */\n      pop\n      pop\n      pop\n    tag_310:\n        /* \"input/CreateWin.sol\":20508:20519  grantAmount */\n      dup1\n        /* \"input/CreateWin.sol\":20497:20501  info */\n      dup7\n        /* \"input/CreateWin.sol\":20502:20504  11 */\n      0x0b\n        /* \"input/CreateWin.sol\":20497:20505  info[11] */\n      0x0e\n      dup2\n      lt\n      tag_346\n      jumpi\n      invalid\n    tag_346:\n      0x20\n      mul\n      add\n        /* \"input/CreateWin.sol\":20497:20519  info[11] = grantAmount */\n      dup2\n      dup2\n      mstore\n      pop\n      pop\n        /* \"input/CreateWin.sol\":20534:20538  user */\n      dup2\n        /* \"input/CreateWin.sol\":20534:20549  user.lastRwTime */\n      0x01e0\n      add\n      mload\n        /* \"input/CreateWin.sol\":20523:20527  info */\n      dup7\n        /* \"input/CreateWin.sol\":20528:20530  12 */\n      0x0c\n        /* \"input/CreateWin.sol\":20523:20531  info[12] */\n      0x0e\n      dup2\n      lt\n      tag_347\n      jumpi\n      invalid\n    tag_347:\n      0x20\n      mul\n      add\n        /* \"input/CreateWin.sol\":20523:20549  info[12] = user.lastRwTime */\n      dup2\n      dup2\n      mstore\n      pop\n      pop\n        /* \"input/CreateWin.sol\":20564:20574  userGlobal */\n      dup3\n        /* \"input/CreateWin.sol\":20564:20581  userGlobal.status */\n      0x80\n      add\n      mload\n        /* \"input/CreateWin.sol\":20553:20557  info */\n      dup7\n        /* \"input/CreateWin.sol\":20558:20560  13 */\n      0x0d\n        /* \"input/CreateWin.sol\":20553:20561  info[13] */\n      0x0e\n      dup2\n      lt\n      tag_348\n      jumpi\n      invalid\n    tag_348:\n      0x20\n      mul\n      add\n        /* \"input/CreateWin.sol\":20553:20581  info[13] = userGlobal.status */\n      dup2\n      dup2\n      mstore\n      pop\n      pop\n        /* \"input/CreateWin.sol\":20594:20598  info */\n      dup6\n        /* \"input/CreateWin.sol\":20600:20610  userGlobal */\n      dup4\n        /* \"input/CreateWin.sol\":20600:20621  userGlobal.inviteCode */\n      0x40\n      add\n      mload\n        /* \"input/CreateWin.sol\":20623:20633  userGlobal */\n      dup5\n        /* \"input/CreateWin.sol\":20623:20640  userGlobal.beCode */\n      0x60\n      add\n      mload\n        /* \"input/CreateWin.sol\":20586:20641  return (info, userGlobal.inviteCode, userGlobal.beCode) */\n      dup2\n      swap2\n      pop\n      dup1\n      swap1\n      pop\n      swap6\n      pop\n      swap6\n      pop\n      swap6\n      pop\n      pop\n      pop\n      pop\n        /* \"input/CreateWin.sol\":18384:20645  function getUserByAddress(address addr, uint roundId) public view returns (uint[14] memory info, string memory inviteCode, string memory beCode) {... */\n      swap3\n      pop\n      swap3\n      pop\n      swap3\n      jump\t// out\n        /* \"input/CreateWin.sol\":20922:21141  function getLineUserId(uint index, uint rouId) public view returns (uint) {... */\n    tag_79:\n        /* \"input/CreateWin.sol\":20990:20994  uint */\n      0x00\n        /* \"input/CreateWin.sol\":21008:21036  isWhitelistAdmin(msg.sender) */\n      tag_350\n        /* \"input/CreateWin.sol\":21025:21035  msg.sender */\n      caller\n        /* \"input/CreateWin.sol\":21008:21024  isWhitelistAdmin */\n      tag_152\n        /* \"input/CreateWin.sol\":21008:21036  isWhitelistAdmin(msg.sender) */\n      jump\t// in\n    tag_350:\n        /* \"input/CreateWin.sol\":21000:21058  require(isWhitelistAdmin(msg.sender), \"Permission denied\") */\n      tag_351\n      jumpi\n      mload(0x40)\n      0x08c379a000000000000000000000000000000000000000000000000000000000\n      dup2\n      mstore\n      0x04\n      add\n      dup1\n      dup1\n      0x20\n      add\n      dup3\n      dup2\n      sub\n      dup3\n      mstore\n      0x11\n      dup2\n      mstore\n      0x20\n      add\n      dup1\n      0x5065726d697373696f6e2064656e696564000000000000000000000000000000\n      dup2\n      mstore\n      pop\n      0x20\n      add\n      swap2\n      pop\n      pop\n      mload(0x40)\n      dup1\n      swap2\n      sub\n      swap1\n      revert\n    tag_351:\n        /* \"input/CreateWin.sol\":21075:21076  0 */\n      0x00\n        /* \"input/CreateWin.sol\":21066:21071  rouId */\n      dup3\n        /* \"input/CreateWin.sol\":21066:21076  rouId == 0 */\n      eq\n        /* \"input/CreateWin.sol\":21062:21099  if (rouId == 0) {... */\n      iszero\n      tag_352\n      jumpi\n        /* \"input/CreateWin.sol\":21091:21094  rid */\n      sload(0x0c)\n        /* \"input/CreateWin.sol\":21083:21094  rouId = rid */\n      swap2\n      pop\n        /* \"input/CreateWin.sol\":21062:21099  if (rouId == 0) {... */\n    tag_352:\n        /* \"input/CreateWin.sol\":21109:21125  lineArrayMapping */\n      0x0d\n        /* \"input/CreateWin.sol\":21109:21130  lineArrayMapping[rid] */\n      0x00\n        /* \"input/CreateWin.sol\":21126:21129  rid */\n      sload(0x0c)\n        /* \"input/CreateWin.sol\":21109:21130  lineArrayMapping[rid] */\n      dup2\n      mstore\n      0x20\n      add\n      swap1\n      dup2\n      mstore\n      0x20\n      add\n      0x00\n      keccak256\n        /* \"input/CreateWin.sol\":21131:21136  index */\n      dup4\n        /* \"input/CreateWin.sol\":21109:21137  lineArrayMapping[rid][index] */\n      dup2\n      sload\n      dup2\n      lt\n      tag_353\n      jumpi\n      invalid\n    tag_353:\n      swap1\n      0x00\n      mstore\n      keccak256(0x00, 0x20)\n      add\n      sload\n        /* \"input/CreateWin.sol\":21102:21137  return lineArrayMapping[rid][index] */\n      swap1\n      pop\n        /* \"input/CreateWin.sol\":20922:21141  function getLineUserId(uint index, uint rouId) public view returns (uint) {... */\n      swap3\n      swap2\n      pop\n      pop\n      jump\t// out\n        /* \"input/CreateWin.sol\":7340:7544  function verydangerous(uint time) external onlyOwner {... */\n    tag_83:\n        /* \"input/CreateWin.sol\":3355:3364  isOwner() */\n      tag_356\n        /* \"input/CreateWin.sol\":3355:3362  isOwner */\n      tag_129\n        /* \"input/CreateWin.sol\":3355:3364  isOwner() */\n      jump\t// in\n    tag_356:\n        /* \"input/CreateWin.sol\":3347:3401  require(isOwner(), \"Ownable: caller is not the owner\") */\n      tag_357\n      jumpi\n      mload(0x40)\n      0x08c379a000000000000000000000000000000000000000000000000000000000\n      dup2\n      mstore\n      0x04\n      add\n      dup1\n      dup1\n      0x20\n      add\n      dup3\n      dup2\n      sub\n      dup3\n      mstore\n      0x20\n      dup2\n      mstore\n      0x20\n      add\n      dup1\n      0x4f776e61626c653a2063616c6c6572206973206e6f7420746865206f776e6572\n      dup2\n      mstore\n      pop\n      0x20\n      add\n      swap2\n      pop\n      pop\n      mload(0x40)\n      dup1\n      swap2\n      sub\n      swap1\n      revert\n    tag_357:\n        /* \"input/CreateWin.sol\":7424:7425  1 */\n      0x01\n        /* \"input/CreateWin.sol\":7405:7420  canSetStartTime */\n      sload(0x17)\n        /* \"input/CreateWin.sol\":7405:7425  canSetStartTime == 1 */\n      eq\n        /* \"input/CreateWin.sol\":7397:7453  require(canSetStartTime == 1, \"verydangerous, limited!\") */\n      tag_359\n      jumpi\n      mload(0x40)\n      0x08c379a000000000000000000000000000000000000000000000000000000000\n      dup2\n      mstore\n      0x04\n      add\n      dup1\n      dup1\n      0x20\n      add\n      dup3\n      dup2\n      sub\n      dup3\n      mstore\n      0x17\n      dup2\n      mstore\n      0x20\n      add\n      dup1\n      0x7665727964616e6765726f75732c206c696d6974656421000000000000000000\n      dup2\n      mstore\n      pop\n      0x20\n      add\n      swap2\n      pop\n      pop\n      mload(0x40)\n      dup1\n      swap2\n      sub\n      swap1\n      revert\n    tag_359:\n        /* \"input/CreateWin.sol\":7472:7475  now */\n      timestamp\n        /* \"input/CreateWin.sol\":7465:7469  time */\n      dup2\n        /* \"input/CreateWin.sol\":7465:7475  time > now */\n      gt\n        /* \"input/CreateWin.sol\":7457:7497  require(time > now, \"no, verydangerous\") */\n      tag_360\n      jumpi\n      mload(0x40)\n      0x08c379a000000000000000000000000000000000000000000000000000000000\n      dup2\n      mstore\n      0x04\n      add\n      dup1\n      dup1\n      0x20\n      add\n      dup3\n      dup2\n      sub\n      dup3\n      mstore\n      0x11\n      dup2\n      mstore\n      0x20\n      add\n      dup1\n      0x6e6f2c207665727964616e6765726f7573000000000000000000000000000000\n      dup2\n      mstore\n      pop\n      0x20\n      add\n      swap2\n      pop\n      pop\n      mload(0x40)\n      dup1\n      swap2\n      sub\n      swap1\n      revert\n    tag_360:\n        /* \"input/CreateWin.sol\":7513:7517  time */\n      dup1\n        /* \"input/CreateWin.sol\":7501:7510  startTime */\n      0x06\n        /* \"input/CreateWin.sol\":7501:7517  startTime = time */\n      dup2\n      swap1\n      sstore\n      pop\n        /* \"input/CreateWin.sol\":7539:7540  0 */\n      0x00\n        /* \"input/CreateWin.sol\":7521:7536  canSetStartTime */\n      0x17\n        /* \"input/CreateWin.sol\":7521:7540  canSetStartTime = 0 */\n      dup2\n      swap1\n      sstore\n      pop\n        /* \"input/CreateWin.sol\":7340:7544  function verydangerous(uint time) external onlyOwner {... */\n      pop\n      jump\t// out\n        /* \"input/CreateWin.sol\":17165:17297  function isUsed(string memory code) public view returns (bool) {... */\n    tag_90:\n        /* \"input/CreateWin.sol\":17222:17226  bool */\n      0x00\n        /* \"input/CreateWin.sol\":17232:17244  address addr */\n      dup1\n        /* \"input/CreateWin.sol\":17247:17261  addressMapping */\n      0x10\n        /* \"input/CreateWin.sol\":17262:17266  code */\n      dup4\n        /* \"input/CreateWin.sol\":17247:17267  addressMapping[code] */\n      mload(0x40)\n      dup1\n      dup3\n      dup1\n      mload\n      swap1\n      0x20\n      add\n      swap1\n      dup1\n      dup4\n      dup4\n        /* \"--CODEGEN--\":36:189   */\n    tag_362:\n        /* \"--CODEGEN--\":66:68   */\n      0x20\n        /* \"--CODEGEN--\":61:64   */\n      dup4\n        /* \"--CODEGEN--\":58:69   */\n      lt\n        /* \"--CODEGEN--\":36:189   */\n      tag_364\n      jumpi\n        /* \"--CODEGEN--\":182:185   */\n      dup1\n        /* \"--CODEGEN--\":176:186   */\n      mload\n        /* \"--CODEGEN--\":171:174   */\n      dup3\n        /* \"--CODEGEN--\":164:187   */\n      mstore\n        /* \"--CODEGEN--\":98:100   */\n      0x20\n        /* \"--CODEGEN--\":93:96   */\n      dup3\n        /* \"--CODEGEN--\":89:101   */\n      add\n        /* \"--CODEGEN--\":82:101   */\n      swap2\n      pop\n        /* \"--CODEGEN--\":123:125   */\n      0x20\n        /* \"--CODEGEN--\":118:121   */\n      dup2\n        /* \"--CODEGEN--\":114:126   */\n      add\n        /* \"--CODEGEN--\":107:126   */\n      swap1\n      pop\n        /* \"--CODEGEN--\":148:150   */\n      0x20\n        /* \"--CODEGEN--\":143:146   */\n      dup4\n        /* \"--CODEGEN--\":139:151   */\n      sub\n        /* \"--CODEGEN--\":132:151   */\n      swap3\n      pop\n        /* \"--CODEGEN--\":36:189   */\n      jump(tag_362)\n    tag_364:\n        /* \"--CODEGEN--\":274:275   */\n      0x01\n        /* \"--CODEGEN--\":267:270   */\n      dup4\n        /* \"--CODEGEN--\":263:265   */\n      0x20\n        /* \"--CODEGEN--\":259:271   */\n      sub\n        /* \"--CODEGEN--\":254:257   */\n      0x0100\n        /* \"--CODEGEN--\":250:272   */\n      exp\n        /* \"--CODEGEN--\":246:276   */\n      sub\n        /* \"--CODEGEN--\":315:319   */\n      dup1\n        /* \"--CODEGEN--\":311:320   */\n      not\n        /* \"--CODEGEN--\":305:308   */\n      dup3\n        /* \"--CODEGEN--\":299:309   */\n      mload\n        /* \"--CODEGEN--\":295:321   */\n      and\n        /* \"--CODEGEN--\":356:360   */\n      dup2\n        /* \"--CODEGEN--\":350:353   */\n      dup5\n        /* \"--CODEGEN--\":344:354   */\n      mload\n        /* \"--CODEGEN--\":340:361   */\n      and\n        /* \"--CODEGEN--\":389:396   */\n      dup1\n        /* \"--CODEGEN--\":380:387   */\n      dup3\n        /* \"--CODEGEN--\":377:397   */\n      or\n        /* \"--CODEGEN--\":372:375   */\n      dup6\n        /* \"--CODEGEN--\":365:398   */\n      mstore\n        /* \"--CODEGEN--\":3:402   */\n      pop\n      pop\n      pop\n        /* \"input/CreateWin.sol\":17247:17267  addressMapping[code] */\n      pop\n      pop\n      pop\n      swap1\n      pop\n      add\n      swap2\n      pop\n      pop\n      swap1\n      dup2\n      mstore\n      0x20\n      add\n      mload(0x40)\n      dup1\n      swap2\n      sub\n      swap1\n      keccak256\n      0x00\n      swap1\n      sload\n      swap1\n      0x0100\n      exp\n      swap1\n      div\n      0xffffffffffffffffffffffffffffffffffffffff\n      and\n        /* \"input/CreateWin.sol\":17232:17267  address addr = addressMapping[code] */\n      swap1\n      pop\n        /* \"input/CreateWin.sol\":17292:17293  0 */\n      0x00\n        /* \"input/CreateWin.sol\":17283:17287  addr */\n      dup2\n        /* \"input/CreateWin.sol\":17278:17288  uint(addr) */\n      0xffffffffffffffffffffffffffffffffffffffff\n      and\n        /* \"input/CreateWin.sol\":17278:17293  uint(addr) != 0 */\n      eq\n      iszero\n        /* \"input/CreateWin.sol\":17271:17293  return uint(addr) != 0 */\n      swap2\n      pop\n      pop\n        /* \"input/CreateWin.sol\":17165:17297  function isUsed(string memory code) public view returns (bool) {... */\n      swap2\n      swap1\n      pop\n      jump\t// out\n        /* \"input/CreateWin.sol\":5469:5573  function removeWhitelistAdmin(address account) public onlyOwner {... */\n    tag_94:\n        /* \"input/CreateWin.sol\":3355:3364  isOwner() */\n      tag_366\n        /* \"input/CreateWin.sol\":3355:3362  isOwner */\n      tag_129\n        /* \"input/CreateWin.sol\":3355:3364  isOwner() */\n      jump\t// in\n    tag_366:\n        /* \"input/CreateWin.sol\":3347:3401  require(isOwner(), \"Ownable: caller is not the owner\") */\n      tag_367\n      jumpi\n      mload(0x40)\n      0x08c379a000000000000000000000000000000000000000000000000000000000\n      dup2\n      mstore\n      0x04\n      add\n      dup1\n      dup1\n      0x20\n      add\n      dup3\n      dup2\n      sub\n      dup3\n      mstore\n      0x20\n      dup2\n      mstore\n      0x20\n      add\n      dup1\n      0x4f776e61626c653a2063616c6c6572206973206e6f7420746865206f776e6572\n      dup2\n      mstore\n      pop\n      0x20\n      add\n      swap2\n      pop\n      pop\n      mload(0x40)\n      dup1\n      swap2\n      sub\n      swap1\n      revert\n    tag_367:\n        /* \"input/CreateWin.sol\":5537:5569  _whitelistAdmins.remove(account) */\n      tag_369\n        /* \"input/CreateWin.sol\":5561:5568  account */\n      dup2\n        /* \"input/CreateWin.sol\":5537:5553  _whitelistAdmins */\n      0x02\n        /* \"input/CreateWin.sol\":5537:5560  _whitelistAdmins.remove */\n      tag_370\n      swap1\n        /* \"input/CreateWin.sol\":5537:5569  _whitelistAdmins.remove(account) */\n      swap2\n      swap1\n      0xffffffff\n      and\n      jump\t// in\n    tag_369:\n        /* \"input/CreateWin.sol\":5469:5573  function removeWhitelistAdmin(address account) public onlyOwner {... */\n      pop\n      jump\t// out\n        /* \"input/CreateWin.sol\":5368:5466  function addWhitelistAdmin(address account) public onlyOwner {... */\n    tag_98:\n        /* \"input/CreateWin.sol\":3355:3364  isOwner() */\n      tag_372\n        /* \"input/CreateWin.sol\":3355:3362  isOwner */\n      tag_129\n        /* \"input/CreateWin.sol\":3355:3364  isOwner() */\n      jump\t// in\n    tag_372:\n        /* \"input/CreateWin.sol\":3347:3401  require(isOwner(), \"Ownable: caller is not the owner\") */\n      tag_373\n      jumpi\n      mload(0x40)\n      0x08c379a000000000000000000000000000000000000000000000000000000000\n      dup2\n      mstore\n      0x04\n      add\n      dup1\n      dup1\n      0x20\n      add\n      dup3\n      dup2\n      sub\n      dup3\n      mstore\n      0x20\n      dup2\n      mstore\n      0x20\n      add\n      dup1\n      0x4f776e61626c653a2063616c6c6572206973206e6f7420746865206f776e6572\n      dup2\n      mstore\n      pop\n      0x20\n      add\n      swap2\n      pop\n      pop\n      mload(0x40)\n      dup1\n      swap2\n      sub\n      swap1\n      revert\n    tag_373:\n        /* \"input/CreateWin.sol\":5433:5462  _whitelistAdmins.add(account) */\n      tag_375\n        /* \"input/CreateWin.sol\":5454:5461  account */\n      dup2\n        /* \"input/CreateWin.sol\":5433:5449  _whitelistAdmins */\n      0x02\n        /* \"input/CreateWin.sol\":5433:5453  _whitelistAdmins.add */\n      tag_376\n      swap1\n        /* \"input/CreateWin.sol\":5433:5462  _whitelistAdmins.add(account) */\n      swap2\n      swap1\n      0xffffffff\n      and\n      jump\t// in\n    tag_375:\n        /* \"input/CreateWin.sol\":5368:5466  function addWhitelistAdmin(address account) public onlyOwner {... */\n      pop\n      jump\t// out\n        /* \"input/CreateWin.sol\":17831:18052  function endRound() external onlyOwner {... */\n    tag_101:\n        /* \"input/CreateWin.sol\":3355:3364  isOwner() */\n      tag_378\n        /* \"input/CreateWin.sol\":3355:3362  isOwner */\n      tag_129\n        /* \"input/CreateWin.sol\":3355:3364  isOwner() */\n      jump\t// in\n    tag_378:\n        /* \"input/CreateWin.sol\":3347:3401  require(isOwner(), \"Ownable: caller is not the owner\") */\n      tag_379\n      jumpi\n      mload(0x40)\n      0x08c379a000000000000000000000000000000000000000000000000000000000\n      dup2\n      mstore\n      0x04\n      add\n      dup1\n      dup1\n      0x20\n      add\n      dup3\n      dup2\n      sub\n      dup3\n      mstore\n      0x20\n      dup2\n      mstore\n      0x20\n      add\n      dup1\n      0x4f776e61626c653a2063616c6c6572206973206e6f7420746865206f776e6572\n      dup2\n      mstore\n      pop\n      0x20\n      add\n      swap2\n      pop\n      pop\n      mload(0x40)\n      dup1\n      swap2\n      sub\n      swap1\n      revert\n    tag_379:\n        /* \"input/CreateWin.sol\":17906:17913  1 ether */\n      0x0de0b6b3a7640000\n        /* \"input/CreateWin.sol\":17882:17903  address(this).balance */\n      selfbalance\n        /* \"input/CreateWin.sol\":17882:17913  address(this).balance < 1 ether */\n      lt\n        /* \"input/CreateWin.sol\":17874:17961  require(address(this).balance < 1 ether, \"contract balance must be lower than 1 ether\") */\n      tag_381\n      jumpi\n      mload(0x40)\n      0x08c379a000000000000000000000000000000000000000000000000000000000\n      dup2\n      mstore\n      0x04\n      add\n      dup1\n      dup1\n      0x20\n      add\n      dup3\n      dup2\n      sub\n      dup3\n      mstore\n      0x2b\n      dup2\n      mstore\n      0x20\n      add\n      dup1\n      data_112277b6fc9fa97dbd12e87cf10db4bc8efa7e361be73fd737590c8aaa6be659\n      0x2b\n      swap2\n      codecopy\n      0x40\n      add\n      swap2\n      pop\n      pop\n      mload(0x40)\n      dup1\n      swap2\n      sub\n      swap1\n      revert\n    tag_381:\n        /* \"input/CreateWin.sol\":17965:17968  rid */\n      0x0c\n      0x00\n        /* \"input/CreateWin.sol\":17965:17970  rid++ */\n      dup2\n      sload\n      dup1\n      swap3\n      swap2\n      swap1\n      0x01\n      add\n      swap2\n      swap1\n      pop\n      sstore\n      pop\n        /* \"input/CreateWin.sol\":17986:18025  now.add(period).div(1 days).mul(1 days) */\n      tag_382\n        /* \"input/CreateWin.sol\":18018:18024  1 days */\n      0x015180\n        /* \"input/CreateWin.sol\":17986:18013  now.add(period).div(1 days) */\n      tag_383\n        /* \"input/CreateWin.sol\":18006:18012  1 days */\n      0x015180\n        /* \"input/CreateWin.sol\":17986:18001  now.add(period) */\n      tag_384\n        /* \"input/CreateWin.sol\":17994:18000  period */\n      sload(0x0a)\n        /* \"input/CreateWin.sol\":17986:17989  now */\n      timestamp\n        /* \"input/CreateWin.sol\":17986:17993  now.add */\n      tag_243\n      swap1\n        /* \"input/CreateWin.sol\":17986:18001  now.add(period) */\n      swap2\n      swap1\n      0xffffffff\n      and\n      jump\t// in\n    tag_384:\n        /* \"input/CreateWin.sol\":17986:18005  now.add(period).div */\n      tag_220\n      swap1\n        /* \"input/CreateWin.sol\":17986:18013  now.add(period).div(1 days) */\n      swap2\n      swap1\n      0xffffffff\n      and\n      jump\t// in\n    tag_383:\n        /* \"input/CreateWin.sol\":17986:18017  now.add(period).div(1 days).mul */\n      tag_221\n      swap1\n        /* \"input/CreateWin.sol\":17986:18025  now.add(period).div(1 days).mul(1 days) */\n      swap2\n      swap1\n      0xffffffff\n      and\n      jump\t// in\n    tag_382:\n        /* \"input/CreateWin.sol\":17974:17983  startTime */\n      0x06\n        /* \"input/CreateWin.sol\":17974:18025  startTime = now.add(period).div(1 days).mul(1 days) */\n      dup2\n      swap1\n      sstore\n      pop\n        /* \"input/CreateWin.sol\":18047:18048  1 */\n      0x01\n        /* \"input/CreateWin.sol\":18029:18044  canSetStartTime */\n      0x17\n        /* \"input/CreateWin.sol\":18029:18048  canSetStartTime = 1 */\n      dup2\n      swap1\n      sstore\n      pop\n        /* \"input/CreateWin.sol\":17831:18052  function endRound() external onlyOwner {... */\n      jump\t// out\n        /* \"input/CreateWin.sol\":13918:16727  function christmas(uint start, uint end) external onlyWhitelistAdmin {... */\n    tag_105:\n        /* \"input/CreateWin.sol\":5114:5144  isWhitelistAdmin(_msgSender()) */\n      tag_386\n        /* \"input/CreateWin.sol\":5131:5143  _msgSender() */\n      tag_387\n        /* \"input/CreateWin.sol\":5131:5141  _msgSender */\n      tag_388\n        /* \"input/CreateWin.sol\":5131:5143  _msgSender() */\n      jump\t// in\n    tag_387:\n        /* \"input/CreateWin.sol\":5114:5130  isWhitelistAdmin */\n      tag_152\n        /* \"input/CreateWin.sol\":5114:5144  isWhitelistAdmin(_msgSender()) */\n      jump\t// in\n    tag_386:\n        /* \"input/CreateWin.sol\":5114:5157  isWhitelistAdmin(_msgSender()) || isOwner() */\n      dup1\n      tag_389\n      jumpi\n      pop\n        /* \"input/CreateWin.sol\":5148:5157  isOwner() */\n      tag_390\n        /* \"input/CreateWin.sol\":5148:5155  isOwner */\n      tag_129\n        /* \"input/CreateWin.sol\":5148:5157  isOwner() */\n      jump\t// in\n    tag_390:\n        /* \"input/CreateWin.sol\":5114:5157  isWhitelistAdmin(_msgSender()) || isOwner() */\n    tag_389:\n        /* \"input/CreateWin.sol\":5106:5226  require(isWhitelistAdmin(_msgSender()) || isOwner(), \"WhitelistAdminRole: caller does not have the WhitelistAdmin role\") */\n      tag_391\n      jumpi\n      mload(0x40)\n      0x08c379a000000000000000000000000000000000000000000000000000000000\n      dup2\n      mstore\n      0x04\n      add\n      dup1\n      dup1\n      0x20\n      add\n      dup3\n      dup2\n      sub\n      dup3\n      mstore\n      0x40\n      dup2\n      mstore\n      0x20\n      add\n      dup1\n      data_a092a330b9544809a41baf90fad5bb5d721d39e2ab6006aae3447e7f7e21c961\n      0x40\n      swap2\n      codecopy\n      0x40\n      add\n      swap2\n      pop\n      pop\n      mload(0x40)\n      dup1\n      swap2\n      sub\n      swap1\n      revert\n    tag_391:\n        /* \"input/CreateWin.sol\":13996:14002  uint i */\n      0x00\n        /* \"input/CreateWin.sol\":14005:14010  start */\n      dup3\n        /* \"input/CreateWin.sol\":13996:14010  uint i = start */\n      swap1\n      pop\n        /* \"input/CreateWin.sol\":13991:16724  for (uint i = start; i <= end; i++) {... */\n    tag_393:\n        /* \"input/CreateWin.sol\":14017:14020  end */\n      dup2\n        /* \"input/CreateWin.sol\":14012:14013  i */\n      dup2\n        /* \"input/CreateWin.sol\":14012:14020  i <= end */\n      gt\n        /* \"input/CreateWin.sol\":13991:16724  for (uint i = start; i <= end; i++) {... */\n      tag_394\n      jumpi\n        /* \"input/CreateWin.sol\":14032:14048  address userAddr */\n      0x00\n        /* \"input/CreateWin.sol\":14051:14063  indexMapping */\n      0x11\n        /* \"input/CreateWin.sol\":14051:14066  indexMapping[i] */\n      0x00\n        /* \"input/CreateWin.sol\":14064:14065  i */\n      dup4\n        /* \"input/CreateWin.sol\":14051:14066  indexMapping[i] */\n      dup2\n      mstore\n      0x20\n      add\n      swap1\n      dup2\n      mstore\n      0x20\n      add\n      0x00\n      keccak256\n      0x00\n      swap1\n      sload\n      swap1\n      0x0100\n      exp\n      swap1\n      div\n      0xffffffffffffffffffffffffffffffffffffffff\n      and\n        /* \"input/CreateWin.sol\":14032:14066  address userAddr = indexMapping[i] */\n      swap1\n      pop\n        /* \"input/CreateWin.sol\":14071:14088  User storage user */\n      0x00\n        /* \"input/CreateWin.sol\":14091:14107  userRoundMapping */\n      0x0e\n        /* \"input/CreateWin.sol\":14091:14112  userRoundMapping[rid] */\n      0x00\n        /* \"input/CreateWin.sol\":14108:14111  rid */\n      sload(0x0c)\n        /* \"input/CreateWin.sol\":14091:14112  userRoundMapping[rid] */\n      dup2\n      mstore\n      0x20\n      add\n      swap1\n      dup2\n      mstore\n      0x20\n      add\n      0x00\n      keccak256\n        /* \"input/CreateWin.sol\":14091:14122  userRoundMapping[rid][userAddr] */\n      0x00\n        /* \"input/CreateWin.sol\":14113:14121  userAddr */\n      dup4\n        /* \"input/CreateWin.sol\":14091:14122  userRoundMapping[rid][userAddr] */\n      0xffffffffffffffffffffffffffffffffffffffff\n      and\n      0xffffffffffffffffffffffffffffffffffffffff\n      and\n      dup2\n      mstore\n      0x20\n      add\n      swap1\n      dup2\n      mstore\n      0x20\n      add\n      0x00\n      keccak256\n        /* \"input/CreateWin.sol\":14071:14122  User storage user = userRoundMapping[rid][userAddr] */\n      swap1\n      pop\n        /* \"input/CreateWin.sol\":14127:14155  UserGlobal memory userGlobal */\n      tag_396\n      tag_279\n      jump\t// in\n    tag_396:\n        /* \"input/CreateWin.sol\":14158:14169  userMapping */\n      0x0f\n        /* \"input/CreateWin.sol\":14158:14179  userMapping[userAddr] */\n      0x00\n        /* \"input/CreateWin.sol\":14170:14178  userAddr */\n      dup5\n        /* \"input/CreateWin.sol\":14158:14179  userMapping[userAddr] */\n      0xffffffffffffffffffffffffffffffffffffffff\n      and\n      0xffffffffffffffffffffffffffffffffffffffff\n      and\n      dup2\n      mstore\n      0x20\n      add\n      swap1\n      dup2\n      mstore\n      0x20\n      add\n      0x00\n      keccak256\n        /* \"input/CreateWin.sol\":14127:14179  UserGlobal memory userGlobal = userMapping[userAddr] */\n      mload(0x40)\n      dup1\n      0xa0\n      add\n      0x40\n      mstore\n      swap1\n      dup2\n      0x00\n      dup3\n      add\n      sload\n      dup2\n      mstore\n      0x20\n      add\n      0x01\n      dup3\n      add\n      0x00\n      swap1\n      sload\n      swap1\n      0x0100\n      exp\n      swap1\n      div\n      0xffffffffffffffffffffffffffffffffffffffff\n      and\n      0xffffffffffffffffffffffffffffffffffffffff\n      and\n      0xffffffffffffffffffffffffffffffffffffffff\n      and\n      dup2\n      mstore\n      0x20\n      add\n      0x02\n      dup3\n      add\n      dup1\n      sload\n      0x01\n      dup2\n      0x01\n      and\n      iszero\n      0x0100\n      mul\n      sub\n      and\n      0x02\n      swap1\n      div\n      dup1\n      0x1f\n      add\n      0x20\n      dup1\n      swap2\n      div\n      mul\n      0x20\n      add\n      mload(0x40)\n      swap1\n      dup2\n      add\n      0x40\n      mstore\n      dup1\n      swap3\n      swap2\n      swap1\n      dup2\n      dup2\n      mstore\n      0x20\n      add\n      dup3\n      dup1\n      sload\n      0x01\n      dup2\n      0x01\n      and\n      iszero\n      0x0100\n      mul\n      sub\n      and\n      0x02\n      swap1\n      div\n      dup1\n      iszero\n      tag_397\n      jumpi\n      dup1\n      0x1f\n      lt\n      tag_398\n      jumpi\n      0x0100\n      dup1\n      dup4\n      sload\n      div\n      mul\n      dup4\n      mstore\n      swap2\n      0x20\n      add\n      swap2\n      jump(tag_397)\n    tag_398:\n      dup3\n      add\n      swap2\n      swap1\n      0x00\n      mstore\n      keccak256(0x00, 0x20)\n      swap1\n    tag_399:\n      dup2\n      sload\n      dup2\n      mstore\n      swap1\n      0x01\n      add\n      swap1\n      0x20\n      add\n      dup1\n      dup4\n      gt\n      tag_399\n      jumpi\n      dup3\n      swap1\n      sub\n      0x1f\n      and\n      dup3\n      add\n      swap2\n    tag_397:\n      pop\n      pop\n      pop\n      pop\n      pop\n      dup2\n      mstore\n      0x20\n      add\n      0x03\n      dup3\n      add\n      dup1\n      sload\n      0x01\n      dup2\n      0x01\n      and\n      iszero\n      0x0100\n      mul\n      sub\n      and\n      0x02\n      swap1\n      div\n      dup1\n      0x1f\n      add\n      0x20\n      dup1\n      swap2\n      div\n      mul\n      0x20\n      add\n      mload(0x40)\n      swap1\n      dup2\n      add\n      0x40\n      mstore\n      dup1\n      swap3\n      swap2\n      swap1\n      dup2\n      dup2\n      mstore\n      0x20\n      add\n      dup3\n      dup1\n      sload\n      0x01\n      dup2\n      0x01\n      and\n      iszero\n      0x0100\n      mul\n      sub\n      and\n      0x02\n      swap1\n      div\n      dup1\n      iszero\n      tag_400\n      jumpi\n      dup1\n      0x1f\n      lt\n      tag_401\n      jumpi\n      0x0100\n      dup1\n      dup4\n      sload\n      div\n      mul\n      dup4\n      mstore\n      swap2\n      0x20\n      add\n      swap2\n      jump(tag_400)\n    tag_401:\n      dup3\n      add\n      swap2\n      swap1\n      0x00\n      mstore\n      keccak256(0x00, 0x20)\n      swap1\n    tag_402:\n      dup2\n      sload\n      dup2\n      mstore\n      swap1\n      0x01\n      add\n      swap1\n      0x20\n      add\n      dup1\n      dup4\n      gt\n      tag_402\n      jumpi\n      dup3\n      swap1\n      sub\n      0x1f\n      and\n      dup3\n      add\n      swap2\n    tag_400:\n      pop\n      pop\n      pop\n      pop\n      pop\n      dup2\n      mstore\n      0x20\n      add\n      0x04\n      dup3\n      add\n      sload\n      dup2\n      mstore\n      pop\n      pop\n      swap1\n      pop\n        /* \"input/CreateWin.sol\":14216:14224  12 hours */\n      0xa8c0\n        /* \"input/CreateWin.sol\":14188:14212  now.sub(user.lastRwTime) */\n      tag_403\n        /* \"input/CreateWin.sol\":14196:14200  user */\n      dup4\n        /* \"input/CreateWin.sol\":14196:14211  user.lastRwTime */\n      0x0f\n      add\n      sload\n        /* \"input/CreateWin.sol\":14188:14191  now */\n      timestamp\n        /* \"input/CreateWin.sol\":14188:14195  now.sub */\n      tag_404\n      swap1\n        /* \"input/CreateWin.sol\":14188:14212  now.sub(user.lastRwTime) */\n      swap2\n      swap1\n      0xffffffff\n      and\n      jump\t// in\n    tag_403:\n        /* \"input/CreateWin.sol\":14188:14224  now.sub(user.lastRwTime) <= 12 hours */\n      gt\n        /* \"input/CreateWin.sol\":14184:14246  if (now.sub(user.lastRwTime) <= 12 hours) {... */\n      tag_405\n      jumpi\n        /* \"input/CreateWin.sol\":14232:14240  continue */\n      pop\n      pop\n      pop\n      jump(tag_395)\n        /* \"input/CreateWin.sol\":14184:14246  if (now.sub(user.lastRwTime) <= 12 hours) {... */\n    tag_405:\n        /* \"input/CreateWin.sol\":14268:14271  now */\n      timestamp\n        /* \"input/CreateWin.sol\":14250:14254  user */\n      dup3\n        /* \"input/CreateWin.sol\":14250:14265  user.lastRwTime */\n      0x0f\n      add\n        /* \"input/CreateWin.sol\":14250:14271  user.lastRwTime = now */\n      dup2\n      swap1\n      sstore\n      pop\n        /* \"input/CreateWin.sol\":14301:14302  1 */\n      0x01\n        /* \"input/CreateWin.sol\":14280:14290  userGlobal */\n      dup2\n        /* \"input/CreateWin.sol\":14280:14297  userGlobal.status */\n      0x80\n      add\n      mload\n        /* \"input/CreateWin.sol\":14280:14302  userGlobal.status == 1 */\n      eq\n        /* \"input/CreateWin.sol\":14276:14372  if (userGlobal.status == 1) {... */\n      iszero\n      tag_406\n      jumpi\n        /* \"input/CreateWin.sol\":14329:14352  user.rewardIndex.add(1) */\n      tag_407\n        /* \"input/CreateWin.sol\":14350:14351  1 */\n      0x01\n        /* \"input/CreateWin.sol\":14329:14333  user */\n      dup4\n        /* \"input/CreateWin.sol\":14329:14345  user.rewardIndex */\n      0x0e\n      add\n      sload\n        /* \"input/CreateWin.sol\":14329:14349  user.rewardIndex.add */\n      tag_243\n      swap1\n        /* \"input/CreateWin.sol\":14329:14352  user.rewardIndex.add(1) */\n      swap2\n      swap1\n      0xffffffff\n      and\n      jump\t// in\n    tag_407:\n        /* \"input/CreateWin.sol\":14310:14314  user */\n      dup3\n        /* \"input/CreateWin.sol\":14310:14326  user.rewardIndex */\n      0x0e\n      add\n        /* \"input/CreateWin.sol\":14310:14352  user.rewardIndex = user.rewardIndex.add(1) */\n      dup2\n      swap1\n      sstore\n      pop\n        /* \"input/CreateWin.sol\":14358:14366  continue */\n      pop\n      pop\n      pop\n      jump(tag_395)\n        /* \"input/CreateWin.sol\":14276:14372  if (userGlobal.status == 1) {... */\n    tag_406:\n        /* \"input/CreateWin.sol\":14376:14390  uint bonusSend */\n      0x00\n        /* \"input/CreateWin.sol\":14393:14394  0 */\n      dup1\n        /* \"input/CreateWin.sol\":14376:14394  uint bonusSend = 0 */\n      swap1\n      pop\n        /* \"input/CreateWin.sol\":14414:14415  0 */\n      0x00\n        /* \"input/CreateWin.sol\":14403:14407  user */\n      dup4\n        /* \"input/CreateWin.sol\":14403:14410  user.id */\n      0x00\n      add\n      sload\n        /* \"input/CreateWin.sol\":14403:14415  user.id != 0 */\n      eq\n      iszero\n        /* \"input/CreateWin.sol\":14403:14447  user.id != 0 && user.freezeAmount >= 1 ether */\n      dup1\n      iszero\n      tag_408\n      jumpi\n      pop\n        /* \"input/CreateWin.sol\":14440:14447  1 ether */\n      0x0de0b6b3a7640000\n        /* \"input/CreateWin.sol\":14419:14423  user */\n      dup4\n        /* \"input/CreateWin.sol\":14419:14436  user.freezeAmount */\n      0x03\n      add\n      sload\n        /* \"input/CreateWin.sol\":14419:14447  user.freezeAmount >= 1 ether */\n      lt\n      iszero\n        /* \"input/CreateWin.sol\":14403:14447  user.id != 0 && user.freezeAmount >= 1 ether */\n    tag_408:\n        /* \"input/CreateWin.sol\":14403:14482  user.id != 0 && user.freezeAmount >= 1 ether && user.freezeAmount <= bonuslimit */\n      dup1\n      iszero\n      tag_409\n      jumpi\n      pop\n        /* \"input/CreateWin.sol\":14472:14482  bonuslimit */\n      sload(0x13)\n        /* \"input/CreateWin.sol\":14451:14455  user */\n      dup4\n        /* \"input/CreateWin.sol\":14451:14468  user.freezeAmount */\n      0x03\n      add\n      sload\n        /* \"input/CreateWin.sol\":14451:14482  user.freezeAmount <= bonuslimit */\n      gt\n      iszero\n        /* \"input/CreateWin.sol\":14403:14482  user.id != 0 && user.freezeAmount >= 1 ether && user.freezeAmount <= bonuslimit */\n    tag_409:\n        /* \"input/CreateWin.sol\":14399:14828  if (user.id != 0 && user.freezeAmount >= 1 ether && user.freezeAmount <= bonuslimit) {... */\n      iszero\n      tag_410\n      jumpi\n        /* \"input/CreateWin.sol\":14513:14514  5 */\n      0x05\n        /* \"input/CreateWin.sol\":14494:14498  user */\n      dup4\n        /* \"input/CreateWin.sol\":14494:14510  user.investTimes */\n      0x0b\n      add\n      sload\n        /* \"input/CreateWin.sol\":14494:14514  user.investTimes < 5 */\n      lt\n        /* \"input/CreateWin.sol\":14490:14823  if (user.investTimes < 5) {... */\n      iszero\n      tag_411\n      jumpi\n        /* \"input/CreateWin.sol\":14536:14540  user */\n      dup3\n        /* \"input/CreateWin.sol\":14536:14555  user.dayBonusAmount */\n      0x06\n      add\n      sload\n        /* \"input/CreateWin.sol\":14523:14555  bonusSend += user.dayBonusAmount */\n      dup2\n      add\n      swap1\n      pop\n        /* \"input/CreateWin.sol\":14581:14612  user.bonusAmount.add(bonusSend) */\n      tag_412\n        /* \"input/CreateWin.sol\":14602:14611  bonusSend */\n      dup2\n        /* \"input/CreateWin.sol\":14581:14585  user */\n      dup5\n        /* \"input/CreateWin.sol\":14581:14597  user.bonusAmount */\n      0x07\n      add\n      sload\n        /* \"input/CreateWin.sol\":14581:14601  user.bonusAmount.add */\n      tag_243\n      swap1\n        /* \"input/CreateWin.sol\":14581:14612  user.bonusAmount.add(bonusSend) */\n      swap2\n      swap1\n      0xffffffff\n      and\n      jump\t// in\n    tag_412:\n        /* \"input/CreateWin.sol\":14562:14566  user */\n      dup4\n        /* \"input/CreateWin.sol\":14562:14578  user.bonusAmount */\n      0x07\n      add\n        /* \"input/CreateWin.sol\":14562:14612  user.bonusAmount = user.bonusAmount.add(bonusSend) */\n      dup2\n      swap1\n      sstore\n      pop\n        /* \"input/CreateWin.sol\":14638:14661  user.investTimes.add(1) */\n      tag_413\n        /* \"input/CreateWin.sol\":14659:14660  1 */\n      0x01\n        /* \"input/CreateWin.sol\":14638:14642  user */\n      dup5\n        /* \"input/CreateWin.sol\":14638:14654  user.investTimes */\n      0x0b\n      add\n      sload\n        /* \"input/CreateWin.sol\":14638:14658  user.investTimes.add */\n      tag_243\n      swap1\n        /* \"input/CreateWin.sol\":14638:14661  user.investTimes.add(1) */\n      swap2\n      swap1\n      0xffffffff\n      and\n      jump\t// in\n    tag_413:\n        /* \"input/CreateWin.sol\":14619:14623  user */\n      dup4\n        /* \"input/CreateWin.sol\":14619:14635  user.investTimes */\n      0x0b\n      add\n        /* \"input/CreateWin.sol\":14619:14661  user.investTimes = user.investTimes.add(1) */\n      dup2\n      swap1\n      sstore\n      pop\n        /* \"input/CreateWin.sol\":14490:14823  if (user.investTimes < 5) {... */\n      jump(tag_414)\n    tag_411:\n        /* \"input/CreateWin.sol\":14699:14737  user.freeAmount.add(user.freezeAmount) */\n      tag_415\n        /* \"input/CreateWin.sol\":14719:14723  user */\n      dup4\n        /* \"input/CreateWin.sol\":14719:14736  user.freezeAmount */\n      0x03\n      add\n      sload\n        /* \"input/CreateWin.sol\":14699:14703  user */\n      dup5\n        /* \"input/CreateWin.sol\":14699:14714  user.freeAmount */\n      0x02\n      add\n      sload\n        /* \"input/CreateWin.sol\":14699:14718  user.freeAmount.add */\n      tag_243\n      swap1\n        /* \"input/CreateWin.sol\":14699:14737  user.freeAmount.add(user.freezeAmount) */\n      swap2\n      swap1\n      0xffffffff\n      and\n      jump\t// in\n    tag_415:\n        /* \"input/CreateWin.sol\":14681:14685  user */\n      dup4\n        /* \"input/CreateWin.sol\":14681:14696  user.freeAmount */\n      0x02\n      add\n        /* \"input/CreateWin.sol\":14681:14737  user.freeAmount = user.freeAmount.add(user.freezeAmount) */\n      dup2\n      swap1\n      sstore\n      pop\n        /* \"input/CreateWin.sol\":14764:14765  0 */\n      0x00\n        /* \"input/CreateWin.sol\":14744:14748  user */\n      dup4\n        /* \"input/CreateWin.sol\":14744:14761  user.freezeAmount */\n      0x03\n      add\n        /* \"input/CreateWin.sol\":14744:14765  user.freezeAmount = 0 */\n      dup2\n      swap1\n      sstore\n      pop\n        /* \"input/CreateWin.sol\":14794:14795  0 */\n      0x00\n        /* \"input/CreateWin.sol\":14772:14776  user */\n      dup4\n        /* \"input/CreateWin.sol\":14772:14791  user.dayBonusAmount */\n      0x06\n      add\n        /* \"input/CreateWin.sol\":14772:14795  user.dayBonusAmount = 0 */\n      dup2\n      swap1\n      sstore\n      pop\n        /* \"input/CreateWin.sol\":14815:14816  0 */\n      0x00\n        /* \"input/CreateWin.sol\":14802:14806  user */\n      dup4\n        /* \"input/CreateWin.sol\":14802:14812  user.level */\n      0x08\n      add\n        /* \"input/CreateWin.sol\":14802:14816  user.level = 0 */\n      dup2\n      swap1\n      sstore\n      pop\n        /* \"input/CreateWin.sol\":14490:14823  if (user.investTimes < 5) {... */\n    tag_414:\n        /* \"input/CreateWin.sol\":14399:14828  if (user.id != 0 && user.freezeAmount >= 1 ether && user.freezeAmount <= bonuslimit) {... */\n    tag_410:\n        /* \"input/CreateWin.sol\":14832:14847  uint lineAmount */\n      0x00\n        /* \"input/CreateWin.sol\":14850:14909  user.freezeAmount.add(user.freeAmount).add(user.lineAmount) */\n      tag_416\n        /* \"input/CreateWin.sol\":14893:14897  user */\n      dup5\n        /* \"input/CreateWin.sol\":14893:14908  user.lineAmount */\n      0x04\n      add\n      sload\n        /* \"input/CreateWin.sol\":14850:14888  user.freezeAmount.add(user.freeAmount) */\n      tag_417\n        /* \"input/CreateWin.sol\":14872:14876  user */\n      dup7\n        /* \"input/CreateWin.sol\":14872:14887  user.freeAmount */\n      0x02\n      add\n      sload\n        /* \"input/CreateWin.sol\":14850:14854  user */\n      dup8\n        /* \"input/CreateWin.sol\":14850:14867  user.freezeAmount */\n      0x03\n      add\n      sload\n        /* \"input/CreateWin.sol\":14850:14871  user.freezeAmount.add */\n      tag_243\n      swap1\n        /* \"input/CreateWin.sol\":14850:14888  user.freezeAmount.add(user.freeAmount) */\n      swap2\n      swap1\n      0xffffffff\n      and\n      jump\t// in\n    tag_417:\n        /* \"input/CreateWin.sol\":14850:14892  user.freezeAmount.add(user.freeAmount).add */\n      tag_243\n      swap1\n        /* \"input/CreateWin.sol\":14850:14909  user.freezeAmount.add(user.freeAmount).add(user.lineAmount) */\n      swap2\n      swap1\n      0xffffffff\n      and\n      jump\t// in\n    tag_416:\n        /* \"input/CreateWin.sol\":14832:14909  uint lineAmount = user.freezeAmount.add(user.freeAmount).add(user.lineAmount) */\n      swap1\n      pop\n        /* \"input/CreateWin.sol\":14931:14938  1 ether */\n      0x0de0b6b3a7640000\n        /* \"input/CreateWin.sol\":14918:14928  lineAmount */\n      dup2\n        /* \"input/CreateWin.sol\":14918:14938  lineAmount < 1 ether */\n      lt\n        /* \"input/CreateWin.sol\":14918:14968  lineAmount < 1 ether || lineAmount > withdrawLimit */\n      dup1\n      tag_418\n      jumpi\n      pop\n        /* \"input/CreateWin.sol\":14955:14968  withdrawLimit */\n      sload(0x15)\n        /* \"input/CreateWin.sol\":14942:14952  lineAmount */\n      dup2\n        /* \"input/CreateWin.sol\":14942:14968  lineAmount > withdrawLimit */\n      gt\n        /* \"input/CreateWin.sol\":14918:14968  lineAmount < 1 ether || lineAmount > withdrawLimit */\n    tag_418:\n        /* \"input/CreateWin.sol\":14914:15038  if (lineAmount < 1 ether || lineAmount > withdrawLimit) {... */\n      iszero\n      tag_419\n      jumpi\n        /* \"input/CreateWin.sol\":14995:15018  user.rewardIndex.add(1) */\n      tag_420\n        /* \"input/CreateWin.sol\":15016:15017  1 */\n      0x01\n        /* \"input/CreateWin.sol\":14995:14999  user */\n      dup6\n        /* \"input/CreateWin.sol\":14995:15011  user.rewardIndex */\n      0x0e\n      add\n      sload\n        /* \"input/CreateWin.sol\":14995:15015  user.rewardIndex.add */\n      tag_243\n      swap1\n        /* \"input/CreateWin.sol\":14995:15018  user.rewardIndex.add(1) */\n      swap2\n      swap1\n      0xffffffff\n      and\n      jump\t// in\n    tag_420:\n        /* \"input/CreateWin.sol\":14976:14980  user */\n      dup5\n        /* \"input/CreateWin.sol\":14976:14992  user.rewardIndex */\n      0x0e\n      add\n        /* \"input/CreateWin.sol\":14976:15018  user.rewardIndex = user.rewardIndex.add(1) */\n      dup2\n      swap1\n      sstore\n      pop\n        /* \"input/CreateWin.sol\":15024:15032  continue */\n      pop\n      pop\n      pop\n      pop\n      pop\n      jump(tag_395)\n        /* \"input/CreateWin.sol\":14914:15038  if (lineAmount < 1 ether || lineAmount > withdrawLimit) {... */\n    tag_419:\n        /* \"input/CreateWin.sol\":15042:15057  uint inviteSend */\n      0x00\n        /* \"input/CreateWin.sol\":15060:15061  0 */\n      dup1\n        /* \"input/CreateWin.sol\":15042:15061  uint inviteSend = 0 */\n      swap1\n      pop\n        /* \"input/CreateWin.sol\":15091:15092  0 */\n      0x00\n        /* \"input/CreateWin.sol\":15070:15080  userGlobal */\n      dup5\n        /* \"input/CreateWin.sol\":15070:15087  userGlobal.status */\n      0x80\n      add\n      mload\n        /* \"input/CreateWin.sol\":15070:15092  userGlobal.status == 0 */\n      eq\n        /* \"input/CreateWin.sol\":15066:16196  if (userGlobal.status == 0) {... */\n      iszero\n      tag_421\n      jumpi\n        /* \"input/CreateWin.sol\":15100:15123  AwardData memory awData */\n      tag_422\n      tag_312\n      jump\t// in\n    tag_422:\n        /* \"input/CreateWin.sol\":15126:15146  userAwardDataMapping */\n      0x12\n        /* \"input/CreateWin.sol\":15126:15151  userAwardDataMapping[rid] */\n      0x00\n        /* \"input/CreateWin.sol\":15147:15150  rid */\n      sload(0x0c)\n        /* \"input/CreateWin.sol\":15126:15151  userAwardDataMapping[rid] */\n      dup2\n      mstore\n      0x20\n      add\n      swap1\n      dup2\n      mstore\n      0x20\n      add\n      0x00\n      keccak256\n        /* \"input/CreateWin.sol\":15126:15161  userAwardDataMapping[rid][userAddr] */\n      0x00\n        /* \"input/CreateWin.sol\":15152:15160  userAddr */\n      dup9\n        /* \"input/CreateWin.sol\":15126:15161  userAwardDataMapping[rid][userAddr] */\n      0xffffffffffffffffffffffffffffffffffffffff\n      and\n      0xffffffffffffffffffffffffffffffffffffffff\n      and\n      dup2\n      mstore\n      0x20\n      add\n      swap1\n      dup2\n      mstore\n      0x20\n      add\n      0x00\n      keccak256\n        /* \"input/CreateWin.sol\":15126:15179  userAwardDataMapping[rid][userAddr][user.rewardIndex] */\n      0x00\n        /* \"input/CreateWin.sol\":15162:15166  user */\n      dup8\n        /* \"input/CreateWin.sol\":15162:15178  user.rewardIndex */\n      0x0e\n      add\n      sload\n        /* \"input/CreateWin.sol\":15126:15179  userAwardDataMapping[rid][userAddr][user.rewardIndex] */\n      dup2\n      mstore\n      0x20\n      add\n      swap1\n      dup2\n      mstore\n      0x20\n      add\n      0x00\n      keccak256\n        /* \"input/CreateWin.sol\":15100:15179  AwardData memory awData = userAwardDataMapping[rid][userAddr][user.rewardIndex] */\n      mload(0x40)\n      dup1\n      0x60\n      add\n      0x40\n      mstore\n      swap1\n      dup2\n      0x00\n      dup3\n      add\n      sload\n      dup2\n      mstore\n      0x20\n      add\n      0x01\n      dup3\n      add\n      sload\n      dup2\n      mstore\n      0x20\n      add\n      0x02\n      dup3\n      add\n      sload\n      dup2\n      mstore\n      pop\n      pop\n      swap1\n      pop\n        /* \"input/CreateWin.sol\":15204:15227  user.rewardIndex.add(1) */\n      tag_423\n        /* \"input/CreateWin.sol\":15225:15226  1 */\n      0x01\n        /* \"input/CreateWin.sol\":15204:15208  user */\n      dup8\n        /* \"input/CreateWin.sol\":15204:15220  user.rewardIndex */\n      0x0e\n      add\n      sload\n        /* \"input/CreateWin.sol\":15204:15224  user.rewardIndex.add */\n      tag_243\n      swap1\n        /* \"input/CreateWin.sol\":15204:15227  user.rewardIndex.add(1) */\n      swap2\n      swap1\n      0xffffffff\n      and\n      jump\t// in\n    tag_423:\n        /* \"input/CreateWin.sol\":15185:15189  user */\n      dup7\n        /* \"input/CreateWin.sol\":15185:15201  user.rewardIndex */\n      0x0e\n      add\n        /* \"input/CreateWin.sol\":15185:15227  user.rewardIndex = user.rewardIndex.add(1) */\n      dup2\n      swap1\n      sstore\n      pop\n        /* \"input/CreateWin.sol\":15233:15247  uint lineValue */\n      0x00\n        /* \"input/CreateWin.sol\":15250:15272  lineAmount.div(ethWei) */\n      tag_424\n        /* \"input/CreateWin.sol\":15265:15271  ethWei */\n      sload(0x03)\n        /* \"input/CreateWin.sol\":15250:15260  lineAmount */\n      dup6\n        /* \"input/CreateWin.sol\":15250:15264  lineAmount.div */\n      tag_220\n      swap1\n        /* \"input/CreateWin.sol\":15250:15272  lineAmount.div(ethWei) */\n      swap2\n      swap1\n      0xffffffff\n      and\n      jump\t// in\n    tag_424:\n        /* \"input/CreateWin.sol\":15233:15272  uint lineValue = lineAmount.div(ethWei) */\n      swap1\n      pop\n        /* \"input/CreateWin.sol\":15295:15297  15 */\n      0x0f\n        /* \"input/CreateWin.sol\":15282:15291  lineValue */\n      dup2\n        /* \"input/CreateWin.sol\":15282:15297  lineValue >= 15 */\n      lt\n        /* \"input/CreateWin.sol\":15278:16103  if (lineValue >= 15) {... */\n      tag_425\n      jumpi\n        /* \"input/CreateWin.sol\":15320:15326  awData */\n      dup2\n        /* \"input/CreateWin.sol\":15320:15341  awData.threeInvAmount */\n      0x40\n      add\n      mload\n        /* \"input/CreateWin.sol\":15306:15341  inviteSend += awData.threeInvAmount */\n      dup4\n      add\n      swap3\n      pop\n        /* \"input/CreateWin.sol\":15278:16103  if (lineValue >= 15) {... */\n      jump(tag_426)\n    tag_425:\n        /* \"input/CreateWin.sol\":15383:15384  1 */\n      0x01\n        /* \"input/CreateWin.sol\":15365:15369  user */\n      dup8\n        /* \"input/CreateWin.sol\":15365:15379  user.lineLevel */\n      0x09\n      add\n      sload\n        /* \"input/CreateWin.sol\":15365:15384  user.lineLevel == 1 */\n      eq\n        /* \"input/CreateWin.sol\":15365:15409  user.lineLevel == 1 && lineAmount >= 1 ether */\n      dup1\n      iszero\n      tag_427\n      jumpi\n      pop\n        /* \"input/CreateWin.sol\":15402:15409  1 ether */\n      0x0de0b6b3a7640000\n        /* \"input/CreateWin.sol\":15388:15398  lineAmount */\n      dup5\n        /* \"input/CreateWin.sol\":15388:15409  lineAmount >= 1 ether */\n      lt\n      iszero\n        /* \"input/CreateWin.sol\":15365:15409  user.lineLevel == 1 && lineAmount >= 1 ether */\n    tag_427:\n        /* \"input/CreateWin.sol\":15365:15436  user.lineLevel == 1 && lineAmount >= 1 ether && awData.oneInvAmount > 0 */\n      dup1\n      iszero\n      tag_428\n      jumpi\n      pop\n        /* \"input/CreateWin.sol\":15435:15436  0 */\n      0x00\n        /* \"input/CreateWin.sol\":15413:15419  awData */\n      dup3\n        /* \"input/CreateWin.sol\":15413:15432  awData.oneInvAmount */\n      0x00\n      add\n      mload\n        /* \"input/CreateWin.sol\":15413:15436  awData.oneInvAmount > 0 */\n      gt\n        /* \"input/CreateWin.sol\":15365:15436  user.lineLevel == 1 && lineAmount >= 1 ether && awData.oneInvAmount > 0 */\n    tag_428:\n        /* \"input/CreateWin.sol\":15361:15517  if (user.lineLevel == 1 && lineAmount >= 1 ether && awData.oneInvAmount > 0) {... */\n      iszero\n      tag_429\n      jumpi\n        /* \"input/CreateWin.sol\":15460:15509  awData.oneInvAmount.div(15).mul(lineValue).div(2) */\n      tag_430\n        /* \"input/CreateWin.sol\":15507:15508  2 */\n      0x02\n        /* \"input/CreateWin.sol\":15460:15502  awData.oneInvAmount.div(15).mul(lineValue) */\n      tag_431\n        /* \"input/CreateWin.sol\":15492:15501  lineValue */\n      dup4\n        /* \"input/CreateWin.sol\":15460:15487  awData.oneInvAmount.div(15) */\n      tag_432\n        /* \"input/CreateWin.sol\":15484:15486  15 */\n      0x0f\n        /* \"input/CreateWin.sol\":15460:15466  awData */\n      dup8\n        /* \"input/CreateWin.sol\":15460:15479  awData.oneInvAmount */\n      0x00\n      add\n      mload\n        /* \"input/CreateWin.sol\":15460:15483  awData.oneInvAmount.div */\n      tag_220\n      swap1\n        /* \"input/CreateWin.sol\":15460:15487  awData.oneInvAmount.div(15) */\n      swap2\n      swap1\n      0xffffffff\n      and\n      jump\t// in\n    tag_432:\n        /* \"input/CreateWin.sol\":15460:15491  awData.oneInvAmount.div(15).mul */\n      tag_221\n      swap1\n        /* \"input/CreateWin.sol\":15460:15502  awData.oneInvAmount.div(15).mul(lineValue) */\n      swap2\n      swap1\n      0xffffffff\n      and\n      jump\t// in\n    tag_431:\n        /* \"input/CreateWin.sol\":15460:15506  awData.oneInvAmount.div(15).mul(lineValue).div */\n      tag_220\n      swap1\n        /* \"input/CreateWin.sol\":15460:15509  awData.oneInvAmount.div(15).mul(lineValue).div(2) */\n      swap2\n      swap1\n      0xffffffff\n      and\n      jump\t// in\n    tag_430:\n        /* \"input/CreateWin.sol\":15446:15509  inviteSend += awData.oneInvAmount.div(15).mul(lineValue).div(2) */\n      dup4\n      add\n      swap3\n      pop\n        /* \"input/CreateWin.sol\":15361:15517  if (user.lineLevel == 1 && lineAmount >= 1 ether && awData.oneInvAmount > 0) {... */\n    tag_429:\n        /* \"input/CreateWin.sol\":15545:15546  2 */\n      0x02\n        /* \"input/CreateWin.sol\":15527:15531  user */\n      dup8\n        /* \"input/CreateWin.sol\":15527:15541  user.lineLevel */\n      0x09\n      add\n      sload\n        /* \"input/CreateWin.sol\":15527:15546  user.lineLevel == 2 */\n      eq\n        /* \"input/CreateWin.sol\":15527:15571  user.lineLevel == 2 && lineAmount >= 6 ether */\n      dup1\n      iszero\n      tag_433\n      jumpi\n      pop\n        /* \"input/CreateWin.sol\":15564:15571  6 ether */\n      0x53444835ec580000\n        /* \"input/CreateWin.sol\":15550:15560  lineAmount */\n      dup5\n        /* \"input/CreateWin.sol\":15550:15571  lineAmount >= 6 ether */\n      lt\n      iszero\n        /* \"input/CreateWin.sol\":15527:15571  user.lineLevel == 2 && lineAmount >= 6 ether */\n    tag_433:\n        /* \"input/CreateWin.sol\":15527:15627  user.lineLevel == 2 && lineAmount >= 6 ether && (awData.oneInvAmount > 0 || awData.twoInvAmount > 0) */\n      dup1\n      iszero\n      tag_434\n      jumpi\n      pop\n        /* \"input/CreateWin.sol\":15598:15599  0 */\n      0x00\n        /* \"input/CreateWin.sol\":15576:15582  awData */\n      dup3\n        /* \"input/CreateWin.sol\":15576:15595  awData.oneInvAmount */\n      0x00\n      add\n      mload\n        /* \"input/CreateWin.sol\":15576:15599  awData.oneInvAmount > 0 */\n      gt\n        /* \"input/CreateWin.sol\":15576:15626  awData.oneInvAmount > 0 || awData.twoInvAmount > 0 */\n      dup1\n      tag_435\n      jumpi\n      pop\n        /* \"input/CreateWin.sol\":15625:15626  0 */\n      0x00\n        /* \"input/CreateWin.sol\":15603:15609  awData */\n      dup3\n        /* \"input/CreateWin.sol\":15603:15622  awData.twoInvAmount */\n      0x20\n      add\n      mload\n        /* \"input/CreateWin.sol\":15603:15626  awData.twoInvAmount > 0 */\n      gt\n        /* \"input/CreateWin.sol\":15576:15626  awData.oneInvAmount > 0 || awData.twoInvAmount > 0 */\n    tag_435:\n        /* \"input/CreateWin.sol\":15527:15627  user.lineLevel == 2 && lineAmount >= 6 ether && (awData.oneInvAmount > 0 || awData.twoInvAmount > 0) */\n    tag_434:\n        /* \"input/CreateWin.sol\":15523:15794  if (user.lineLevel == 2 && lineAmount >= 6 ether && (awData.oneInvAmount > 0 || awData.twoInvAmount > 0)) {... */\n      iszero\n      tag_436\n      jumpi\n        /* \"input/CreateWin.sol\":15651:15708  awData.oneInvAmount.div(15).mul(lineValue).mul(7).div(10) */\n      tag_437\n        /* \"input/CreateWin.sol\":15705:15707  10 */\n      0x0a\n        /* \"input/CreateWin.sol\":15651:15700  awData.oneInvAmount.div(15).mul(lineValue).mul(7) */\n      tag_438\n        /* \"input/CreateWin.sol\":15698:15699  7 */\n      0x07\n        /* \"input/CreateWin.sol\":15651:15693  awData.oneInvAmount.div(15).mul(lineValue) */\n      tag_439\n        /* \"input/CreateWin.sol\":15683:15692  lineValue */\n      dup6\n        /* \"input/CreateWin.sol\":15651:15678  awData.oneInvAmount.div(15) */\n      tag_440\n        /* \"input/CreateWin.sol\":15675:15677  15 */\n      0x0f\n        /* \"input/CreateWin.sol\":15651:15657  awData */\n      dup10\n        /* \"input/CreateWin.sol\":15651:15670  awData.oneInvAmount */\n      0x00\n      add\n      mload\n        /* \"input/CreateWin.sol\":15651:15674  awData.oneInvAmount.div */\n      tag_220\n      swap1\n        /* \"input/CreateWin.sol\":15651:15678  awData.oneInvAmount.div(15) */\n      swap2\n      swap1\n      0xffffffff\n      and\n      jump\t// in\n    tag_440:\n        /* \"input/CreateWin.sol\":15651:15682  awData.oneInvAmount.div(15).mul */\n      tag_221\n      swap1\n        /* \"input/CreateWin.sol\":15651:15693  awData.oneInvAmount.div(15).mul(lineValue) */\n      swap2\n      swap1\n      0xffffffff\n      and\n      jump\t// in\n    tag_439:\n        /* \"input/CreateWin.sol\":15651:15697  awData.oneInvAmount.div(15).mul(lineValue).mul */\n      tag_221\n      swap1\n        /* \"input/CreateWin.sol\":15651:15700  awData.oneInvAmount.div(15).mul(lineValue).mul(7) */\n      swap2\n      swap1\n      0xffffffff\n      and\n      jump\t// in\n    tag_438:\n        /* \"input/CreateWin.sol\":15651:15704  awData.oneInvAmount.div(15).mul(lineValue).mul(7).div */\n      tag_220\n      swap1\n        /* \"input/CreateWin.sol\":15651:15708  awData.oneInvAmount.div(15).mul(lineValue).mul(7).div(10) */\n      swap2\n      swap1\n      0xffffffff\n      and\n      jump\t// in\n    tag_437:\n        /* \"input/CreateWin.sol\":15637:15708  inviteSend += awData.oneInvAmount.div(15).mul(lineValue).mul(7).div(10) */\n      dup4\n      add\n      swap3\n      pop\n        /* \"input/CreateWin.sol\":15730:15786  awData.twoInvAmount.div(15).mul(lineValue).mul(5).div(7) */\n      tag_441\n        /* \"input/CreateWin.sol\":15784:15785  7 */\n      0x07\n        /* \"input/CreateWin.sol\":15730:15779  awData.twoInvAmount.div(15).mul(lineValue).mul(5) */\n      tag_442\n        /* \"input/CreateWin.sol\":15777:15778  5 */\n      0x05\n        /* \"input/CreateWin.sol\":15730:15772  awData.twoInvAmount.div(15).mul(lineValue) */\n      tag_443\n        /* \"input/CreateWin.sol\":15762:15771  lineValue */\n      dup6\n        /* \"input/CreateWin.sol\":15730:15757  awData.twoInvAmount.div(15) */\n      tag_444\n        /* \"input/CreateWin.sol\":15754:15756  15 */\n      0x0f\n        /* \"input/CreateWin.sol\":15730:15736  awData */\n      dup10\n        /* \"input/CreateWin.sol\":15730:15749  awData.twoInvAmount */\n      0x20\n      add\n      mload\n        /* \"input/CreateWin.sol\":15730:15753  awData.twoInvAmount.div */\n      tag_220\n      swap1\n        /* \"input/CreateWin.sol\":15730:15757  awData.twoInvAmount.div(15) */\n      swap2\n      swap1\n      0xffffffff\n      and\n      jump\t// in\n    tag_444:\n        /* \"input/CreateWin.sol\":15730:15761  awData.twoInvAmount.div(15).mul */\n      tag_221\n      swap1\n        /* \"input/CreateWin.sol\":15730:15772  awData.twoInvAmount.div(15).mul(lineValue) */\n      swap2\n      swap1\n      0xffffffff\n      and\n      jump\t// in\n    tag_443:\n        /* \"input/CreateWin.sol\":15730:15776  awData.twoInvAmount.div(15).mul(lineValue).mul */\n      tag_221\n      swap1\n        /* \"input/CreateWin.sol\":15730:15779  awData.twoInvAmount.div(15).mul(lineValue).mul(5) */\n      swap2\n      swap1\n      0xffffffff\n      and\n      jump\t// in\n    tag_442:\n        /* \"input/CreateWin.sol\":15730:15783  awData.twoInvAmount.div(15).mul(lineValue).mul(5).div */\n      tag_220\n      swap1\n        /* \"input/CreateWin.sol\":15730:15786  awData.twoInvAmount.div(15).mul(lineValue).mul(5).div(7) */\n      swap2\n      swap1\n      0xffffffff\n      and\n      jump\t// in\n    tag_441:\n        /* \"input/CreateWin.sol\":15716:15786  inviteSend += awData.twoInvAmount.div(15).mul(lineValue).mul(5).div(7) */\n      dup4\n      add\n      swap3\n      pop\n        /* \"input/CreateWin.sol\":15523:15794  if (user.lineLevel == 2 && lineAmount >= 6 ether && (awData.oneInvAmount > 0 || awData.twoInvAmount > 0)) {... */\n    tag_436:\n        /* \"input/CreateWin.sol\":15822:15823  3 */\n      0x03\n        /* \"input/CreateWin.sol\":15804:15808  user */\n      dup8\n        /* \"input/CreateWin.sol\":15804:15818  user.lineLevel */\n      0x09\n      add\n      sload\n        /* \"input/CreateWin.sol\":15804:15823  user.lineLevel == 3 */\n      eq\n        /* \"input/CreateWin.sol\":15804:15849  user.lineLevel == 3 && lineAmount >= 11 ether */\n      dup1\n      iszero\n      tag_445\n      jumpi\n      pop\n        /* \"input/CreateWin.sol\":15841:15849  11 ether */\n      0x98a7d9b8314c0000\n        /* \"input/CreateWin.sol\":15827:15837  lineAmount */\n      dup5\n        /* \"input/CreateWin.sol\":15827:15849  lineAmount >= 11 ether */\n      lt\n      iszero\n        /* \"input/CreateWin.sol\":15804:15849  user.lineLevel == 3 && lineAmount >= 11 ether */\n    tag_445:\n        /* \"input/CreateWin.sol\":15804:15878  user.lineLevel == 3 && lineAmount >= 11 ether && awData.threeInvAmount > 0 */\n      dup1\n      iszero\n      tag_446\n      jumpi\n      pop\n        /* \"input/CreateWin.sol\":15877:15878  0 */\n      0x00\n        /* \"input/CreateWin.sol\":15853:15859  awData */\n      dup3\n        /* \"input/CreateWin.sol\":15853:15874  awData.threeInvAmount */\n      0x40\n      add\n      mload\n        /* \"input/CreateWin.sol\":15853:15878  awData.threeInvAmount > 0 */\n      gt\n        /* \"input/CreateWin.sol\":15804:15878  user.lineLevel == 3 && lineAmount >= 11 ether && awData.threeInvAmount > 0 */\n    tag_446:\n        /* \"input/CreateWin.sol\":15800:15954  if (user.lineLevel == 3 && lineAmount >= 11 ether && awData.threeInvAmount > 0) {... */\n      iszero\n      tag_447\n      jumpi\n        /* \"input/CreateWin.sol\":15902:15946  awData.threeInvAmount.div(15).mul(lineValue) */\n      tag_448\n        /* \"input/CreateWin.sol\":15936:15945  lineValue */\n      dup2\n        /* \"input/CreateWin.sol\":15902:15931  awData.threeInvAmount.div(15) */\n      tag_449\n        /* \"input/CreateWin.sol\":15928:15930  15 */\n      0x0f\n        /* \"input/CreateWin.sol\":15902:15908  awData */\n      dup6\n        /* \"input/CreateWin.sol\":15902:15923  awData.threeInvAmount */\n      0x40\n      add\n      mload\n        /* \"input/CreateWin.sol\":15902:15927  awData.threeInvAmount.div */\n      tag_220\n      swap1\n        /* \"input/CreateWin.sol\":15902:15931  awData.threeInvAmount.div(15) */\n      swap2\n      swap1\n      0xffffffff\n      and\n      jump\t// in\n    tag_449:\n        /* \"input/CreateWin.sol\":15902:15935  awData.threeInvAmount.div(15).mul */\n      tag_221\n      swap1\n        /* \"input/CreateWin.sol\":15902:15946  awData.threeInvAmount.div(15).mul(lineValue) */\n      swap2\n      swap1\n      0xffffffff\n      and\n      jump\t// in\n    tag_448:\n        /* \"input/CreateWin.sol\":15888:15946  inviteSend += awData.threeInvAmount.div(15).mul(lineValue) */\n      dup4\n      add\n      swap3\n      pop\n        /* \"input/CreateWin.sol\":15800:15954  if (user.lineLevel == 3 && lineAmount >= 11 ether && awData.threeInvAmount > 0) {... */\n    tag_447:\n        /* \"input/CreateWin.sol\":15981:15982  3 */\n      0x03\n        /* \"input/CreateWin.sol\":15964:15968  user */\n      dup8\n        /* \"input/CreateWin.sol\":15964:15978  user.lineLevel */\n      0x09\n      add\n      sload\n        /* \"input/CreateWin.sol\":15964:15982  user.lineLevel < 3 */\n      lt\n        /* \"input/CreateWin.sol\":15960:16097  if (user.lineLevel < 3) {... */\n      iszero\n      tag_450\n      jumpi\n        /* \"input/CreateWin.sol\":15992:16003  uint fireSc */\n      0x00\n        /* \"input/CreateWin.sol\":16006:16038  getFireScByLevel(user.lineLevel) */\n      tag_451\n        /* \"input/CreateWin.sol\":16023:16027  user */\n      dup9\n        /* \"input/CreateWin.sol\":16023:16037  user.lineLevel */\n      0x09\n      add\n      sload\n        /* \"input/CreateWin.sol\":16006:16022  getFireScByLevel */\n      tag_170\n        /* \"input/CreateWin.sol\":16006:16038  getFireScByLevel(user.lineLevel) */\n      jump\t// in\n    tag_451:\n        /* \"input/CreateWin.sol\":15992:16038  uint fireSc = getFireScByLevel(user.lineLevel) */\n      swap1\n      pop\n        /* \"input/CreateWin.sol\":16059:16089  inviteSend.mul(fireSc).div(10) */\n      tag_452\n        /* \"input/CreateWin.sol\":16086:16088  10 */\n      0x0a\n        /* \"input/CreateWin.sol\":16059:16081  inviteSend.mul(fireSc) */\n      tag_453\n        /* \"input/CreateWin.sol\":16074:16080  fireSc */\n      dup4\n        /* \"input/CreateWin.sol\":16059:16069  inviteSend */\n      dup8\n        /* \"input/CreateWin.sol\":16059:16073  inviteSend.mul */\n      tag_221\n      swap1\n        /* \"input/CreateWin.sol\":16059:16081  inviteSend.mul(fireSc) */\n      swap2\n      swap1\n      0xffffffff\n      and\n      jump\t// in\n    tag_453:\n        /* \"input/CreateWin.sol\":16059:16085  inviteSend.mul(fireSc).div */\n      tag_220\n      swap1\n        /* \"input/CreateWin.sol\":16059:16089  inviteSend.mul(fireSc).div(10) */\n      swap2\n      swap1\n      0xffffffff\n      and\n      jump\t// in\n    tag_452:\n        /* \"input/CreateWin.sol\":16046:16089  inviteSend = inviteSend.mul(fireSc).div(10) */\n      swap4\n      pop\n        /* \"input/CreateWin.sol\":15960:16097  if (user.lineLevel < 3) {... */\n      pop\n    tag_450:\n        /* \"input/CreateWin.sol\":15278:16103  if (lineValue >= 15) {... */\n    tag_426:\n        /* \"input/CreateWin.sol\":15066:16196  if (userGlobal.status == 0) {... */\n      pop\n      pop\n      jump(tag_454)\n    tag_421:\n        /* \"input/CreateWin.sol\":16139:16140  2 */\n      0x02\n        /* \"input/CreateWin.sol\":16118:16128  userGlobal */\n      dup5\n        /* \"input/CreateWin.sol\":16118:16135  userGlobal.status */\n      0x80\n      add\n      mload\n        /* \"input/CreateWin.sol\":16118:16140  userGlobal.status == 2 */\n      eq\n        /* \"input/CreateWin.sol\":16114:16196  if (userGlobal.status == 2) {... */\n      iszero\n      tag_455\n      jumpi\n        /* \"input/CreateWin.sol\":16167:16190  user.rewardIndex.add(1) */\n      tag_456\n        /* \"input/CreateWin.sol\":16188:16189  1 */\n      0x01\n        /* \"input/CreateWin.sol\":16167:16171  user */\n      dup7\n        /* \"input/CreateWin.sol\":16167:16183  user.rewardIndex */\n      0x0e\n      add\n      sload\n        /* \"input/CreateWin.sol\":16167:16187  user.rewardIndex.add */\n      tag_243\n      swap1\n        /* \"input/CreateWin.sol\":16167:16190  user.rewardIndex.add(1) */\n      swap2\n      swap1\n      0xffffffff\n      and\n      jump\t// in\n    tag_456:\n        /* \"input/CreateWin.sol\":16148:16152  user */\n      dup6\n        /* \"input/CreateWin.sol\":16148:16164  user.rewardIndex */\n      0x0e\n      add\n        /* \"input/CreateWin.sol\":16148:16190  user.rewardIndex = user.rewardIndex.add(1) */\n      dup2\n      swap1\n      sstore\n      pop\n        /* \"input/CreateWin.sol\":16114:16196  if (userGlobal.status == 2) {... */\n    tag_455:\n        /* \"input/CreateWin.sol\":15066:16196  if (userGlobal.status == 0) {... */\n    tag_454:\n        /* \"input/CreateWin.sol\":16234:16243  sendLimit */\n      sload(0x14)\n        /* \"input/CreateWin.sol\":16205:16230  bonusSend.add(inviteSend) */\n      tag_457\n        /* \"input/CreateWin.sol\":16219:16229  inviteSend */\n      dup3\n        /* \"input/CreateWin.sol\":16205:16214  bonusSend */\n      dup6\n        /* \"input/CreateWin.sol\":16205:16218  bonusSend.add */\n      tag_243\n      swap1\n        /* \"input/CreateWin.sol\":16205:16230  bonusSend.add(inviteSend) */\n      swap2\n      swap1\n      0xffffffff\n      and\n      jump\t// in\n    tag_457:\n        /* \"input/CreateWin.sol\":16205:16243  bonusSend.add(inviteSend) <= sendLimit */\n      gt\n        /* \"input/CreateWin.sol\":16201:16720  if (bonusSend.add(inviteSend) <= sendLimit) {... */\n      tag_458\n      jumpi\n        /* \"input/CreateWin.sol\":16271:16304  user.inviteAmonut.add(inviteSend) */\n      tag_459\n        /* \"input/CreateWin.sol\":16293:16303  inviteSend */\n      dup2\n        /* \"input/CreateWin.sol\":16271:16275  user */\n      dup7\n        /* \"input/CreateWin.sol\":16271:16288  user.inviteAmonut */\n      0x05\n      add\n      sload\n        /* \"input/CreateWin.sol\":16271:16292  user.inviteAmonut.add */\n      tag_243\n      swap1\n        /* \"input/CreateWin.sol\":16271:16304  user.inviteAmonut.add(inviteSend) */\n      swap2\n      swap1\n      0xffffffff\n      and\n      jump\t// in\n    tag_459:\n        /* \"input/CreateWin.sol\":16251:16255  user */\n      dup6\n        /* \"input/CreateWin.sol\":16251:16268  user.inviteAmonut */\n      0x05\n      add\n        /* \"input/CreateWin.sol\":16251:16304  user.inviteAmonut = user.inviteAmonut.add(inviteSend) */\n      dup2\n      swap1\n      sstore\n      pop\n        /* \"input/CreateWin.sol\":16310:16323  bool isEnough */\n      0x00\n        /* \"input/CreateWin.sol\":16326:16331  false */\n      dup1\n        /* \"input/CreateWin.sol\":16310:16331  bool isEnough = false */\n      swap1\n      pop\n        /* \"input/CreateWin.sol\":16337:16353  uint resultMoney */\n      0x00\n        /* \"input/CreateWin.sol\":16356:16357  0 */\n      dup1\n        /* \"input/CreateWin.sol\":16337:16357  uint resultMoney = 0 */\n      swap1\n      pop\n        /* \"input/CreateWin.sol\":16389:16431  isEnoughBalance(bonusSend.add(inviteSend)) */\n      tag_460\n        /* \"input/CreateWin.sol\":16405:16430  bonusSend.add(inviteSend) */\n      tag_461\n        /* \"input/CreateWin.sol\":16419:16429  inviteSend */\n      dup5\n        /* \"input/CreateWin.sol\":16405:16414  bonusSend */\n      dup8\n        /* \"input/CreateWin.sol\":16405:16418  bonusSend.add */\n      tag_243\n      swap1\n        /* \"input/CreateWin.sol\":16405:16430  bonusSend.add(inviteSend) */\n      swap2\n      swap1\n      0xffffffff\n      and\n      jump\t// in\n    tag_461:\n        /* \"input/CreateWin.sol\":16389:16404  isEnoughBalance */\n      tag_462\n        /* \"input/CreateWin.sol\":16389:16431  isEnoughBalance(bonusSend.add(inviteSend)) */\n      jump\t// in\n    tag_460:\n        /* \"input/CreateWin.sol\":16363:16431  (isEnough, resultMoney) = isEnoughBalance(bonusSend.add(inviteSend)) */\n      dup1\n      swap3\n      pop\n      dup2\n      swap4\n      pop\n      pop\n      pop\n        /* \"input/CreateWin.sol\":16455:16456  0 */\n      0x00\n        /* \"input/CreateWin.sol\":16441:16452  resultMoney */\n      dup2\n        /* \"input/CreateWin.sol\":16441:16456  resultMoney > 0 */\n      gt\n        /* \"input/CreateWin.sol\":16437:16715  if (resultMoney > 0) {... */\n      iszero\n      tag_463\n      jumpi\n        /* \"input/CreateWin.sol\":16465:16482  uint confortMoney */\n      0x00\n        /* \"input/CreateWin.sol\":16485:16504  resultMoney.div(10) */\n      tag_464\n        /* \"input/CreateWin.sol\":16501:16503  10 */\n      0x0a\n        /* \"input/CreateWin.sol\":16485:16496  resultMoney */\n      dup4\n        /* \"input/CreateWin.sol\":16485:16500  resultMoney.div */\n      tag_220\n      swap1\n        /* \"input/CreateWin.sol\":16485:16504  resultMoney.div(10) */\n      swap2\n      swap1\n      0xffffffff\n      and\n      jump\t// in\n    tag_464:\n        /* \"input/CreateWin.sol\":16465:16504  uint confortMoney = resultMoney.div(10) */\n      swap1\n      pop\n        /* \"input/CreateWin.sol\":16511:16553  sendMoneyToUser(comfortAddr, confortMoney) */\n      tag_465\n        /* \"input/CreateWin.sol\":16527:16538  comfortAddr */\n      0x05\n      0x00\n      swap1\n      sload\n      swap1\n      0x0100\n      exp\n      swap1\n      div\n      0xffffffffffffffffffffffffffffffffffffffff\n      and\n        /* \"input/CreateWin.sol\":16540:16552  confortMoney */\n      dup3\n        /* \"input/CreateWin.sol\":16511:16526  sendMoneyToUser */\n      tag_466\n        /* \"input/CreateWin.sol\":16511:16553  sendMoneyToUser(comfortAddr, confortMoney) */\n      jump\t// in\n    tag_465:\n        /* \"input/CreateWin.sol\":16574:16603  resultMoney.sub(confortMoney) */\n      tag_467\n        /* \"input/CreateWin.sol\":16590:16602  confortMoney */\n      dup2\n        /* \"input/CreateWin.sol\":16574:16585  resultMoney */\n      dup4\n        /* \"input/CreateWin.sol\":16574:16589  resultMoney.sub */\n      tag_404\n      swap1\n        /* \"input/CreateWin.sol\":16574:16603  resultMoney.sub(confortMoney) */\n      swap2\n      swap1\n      0xffffffff\n      and\n      jump\t// in\n    tag_467:\n        /* \"input/CreateWin.sol\":16560:16603  resultMoney = resultMoney.sub(confortMoney) */\n      swap2\n      pop\n        /* \"input/CreateWin.sol\":16610:16634  address payable sendAddr */\n      0x00\n        /* \"input/CreateWin.sol\":16653:16661  userAddr */\n      dup10\n        /* \"input/CreateWin.sol\":16610:16663  address payable sendAddr = address(uint160(userAddr)) */\n      swap1\n      pop\n        /* \"input/CreateWin.sol\":16670:16708  sendMoneyToUser(sendAddr, resultMoney) */\n      tag_468\n        /* \"input/CreateWin.sol\":16686:16694  sendAddr */\n      dup2\n        /* \"input/CreateWin.sol\":16696:16707  resultMoney */\n      dup5\n        /* \"input/CreateWin.sol\":16670:16685  sendMoneyToUser */\n      tag_466\n        /* \"input/CreateWin.sol\":16670:16708  sendMoneyToUser(sendAddr, resultMoney) */\n      jump\t// in\n    tag_468:\n        /* \"input/CreateWin.sol\":16437:16715  if (resultMoney > 0) {... */\n      pop\n      pop\n    tag_463:\n        /* \"input/CreateWin.sol\":16201:16720  if (bonusSend.add(inviteSend) <= sendLimit) {... */\n      pop\n      pop\n    tag_458:\n        /* \"input/CreateWin.sol\":13991:16724  for (uint i = start; i <= end; i++) {... */\n      pop\n      pop\n      pop\n      pop\n      pop\n      pop\n    tag_395:\n        /* \"input/CreateWin.sol\":14022:14025  i++ */\n      dup1\n      dup1\n      0x01\n      add\n      swap2\n      pop\n      pop\n        /* \"input/CreateWin.sol\":13991:16724  for (uint i = start; i <= end; i++) {... */\n      jump(tag_393)\n    tag_394:\n      pop\n        /* \"input/CreateWin.sol\":13918:16727  function christmas(uint start, uint end) external onlyWhitelistAdmin {... */\n      pop\n      pop\n      jump\t// out\n        /* \"input/CreateWin.sol\":18055:18381  function donnottouch() public view returns (uint, uint, uint, uint, uint, uint, uint, uint, uint, uint, uint, uint) {... */\n    tag_108:\n        /* \"input/CreateWin.sol\":18099:18103  uint */\n      0x00\n        /* \"input/CreateWin.sol\":18105:18109  uint */\n      dup1\n        /* \"input/CreateWin.sol\":18111:18115  uint */\n      0x00\n        /* \"input/CreateWin.sol\":18117:18121  uint */\n      dup1\n        /* \"input/CreateWin.sol\":18123:18127  uint */\n      0x00\n        /* \"input/CreateWin.sol\":18129:18133  uint */\n      dup1\n        /* \"input/CreateWin.sol\":18135:18139  uint */\n      0x00\n        /* \"input/CreateWin.sol\":18141:18145  uint */\n      dup1\n        /* \"input/CreateWin.sol\":18147:18151  uint */\n      0x00\n        /* \"input/CreateWin.sol\":18153:18157  uint */\n      dup1\n        /* \"input/CreateWin.sol\":18159:18163  uint */\n      0x00\n        /* \"input/CreateWin.sol\":18165:18169  uint */\n      dup1\n        /* \"input/CreateWin.sol\":18186:18189  rid */\n      sload(0x0c)\n        /* \"input/CreateWin.sol\":18193:18196  uid */\n      sload(0x0b)\n        /* \"input/CreateWin.sol\":18200:18209  startTime */\n      sload(0x06)\n        /* \"input/CreateWin.sol\":18213:18225  rInvestCount */\n      0x08\n        /* \"input/CreateWin.sol\":18213:18230  rInvestCount[rid] */\n      0x00\n        /* \"input/CreateWin.sol\":18226:18229  rid */\n      sload(0x0c)\n        /* \"input/CreateWin.sol\":18213:18230  rInvestCount[rid] */\n      dup2\n      mstore\n      0x20\n      add\n      swap1\n      dup2\n      mstore\n      0x20\n      add\n      0x00\n      keccak256\n      sload\n        /* \"input/CreateWin.sol\":18234:18246  rInvestMoney */\n      0x09\n        /* \"input/CreateWin.sol\":18234:18251  rInvestMoney[rid] */\n      0x00\n        /* \"input/CreateWin.sol\":18247:18250  rid */\n      sload(0x0c)\n        /* \"input/CreateWin.sol\":18234:18251  rInvestMoney[rid] */\n      dup2\n      mstore\n      0x20\n      add\n      swap1\n      dup2\n      mstore\n      0x20\n      add\n      0x00\n      keccak256\n      sload\n        /* \"input/CreateWin.sol\":18255:18265  bonuslimit */\n      sload(0x13)\n        /* \"input/CreateWin.sol\":18269:18278  sendLimit */\n      sload(0x14)\n        /* \"input/CreateWin.sol\":18282:18295  withdrawLimit */\n      sload(0x15)\n        /* \"input/CreateWin.sol\":18299:18308  canImport */\n      sload(0x16)\n        /* \"input/CreateWin.sol\":18312:18322  lineStatus */\n      sload(0x07)\n        /* \"input/CreateWin.sol\":18326:18342  lineArrayMapping */\n      0x0d\n        /* \"input/CreateWin.sol\":18326:18347  lineArrayMapping[rid] */\n      0x00\n        /* \"input/CreateWin.sol\":18343:18346  rid */\n      sload(0x0c)\n        /* \"input/CreateWin.sol\":18326:18347  lineArrayMapping[rid] */\n      dup2\n      mstore\n      0x20\n      add\n      swap1\n      dup2\n      mstore\n      0x20\n      add\n      0x00\n      keccak256\n        /* \"input/CreateWin.sol\":18326:18354  lineArrayMapping[rid].length */\n      dup1\n      sload\n      swap1\n      pop\n        /* \"input/CreateWin.sol\":18358:18373  canSetStartTime */\n      sload(0x17)\n        /* \"input/CreateWin.sol\":18175:18377  return (... */\n      swap12\n      pop\n      swap12\n      pop\n      swap12\n      pop\n      swap12\n      pop\n      swap12\n      pop\n      swap12\n      pop\n      swap12\n      pop\n      swap12\n      pop\n      swap12\n      pop\n      swap12\n      pop\n      swap12\n      pop\n      swap12\n      pop\n        /* \"input/CreateWin.sol\":18055:18381  function donnottouch() public view returns (uint, uint, uint, uint, uint, uint, uint, uint, uint, uint, uint, uint) {... */\n      swap1\n      swap2\n      swap3\n      swap4\n      swap5\n      swap6\n      swap7\n      swap8\n      swap9\n      swap10\n      swap11\n      swap12\n      jump\t// out\n        /* \"input/CreateWin.sol\":76:359  function getLevel(uint value) public view returns (uint) {... */\n    tag_112:\n        /* \"input/CreateWin.sol\":127:131  uint */\n      0x00\n        /* \"input/CreateWin.sol\":154:160  ethWei */\n      dup1\n      sload\n        /* \"input/CreateWin.sol\":150:151  1 */\n      0x01\n        /* \"input/CreateWin.sol\":150:160  1 * ethWei */\n      mul\n        /* \"input/CreateWin.sol\":141:146  value */\n      dup3\n        /* \"input/CreateWin.sol\":141:160  value >= 1 * ethWei */\n      lt\n      iszero\n        /* \"input/CreateWin.sol\":141:183  value >= 1 * ethWei && value <= 5 * ethWei */\n      dup1\n      iszero\n      tag_471\n      jumpi\n      pop\n        /* \"input/CreateWin.sol\":177:183  ethWei */\n      sload(0x00)\n        /* \"input/CreateWin.sol\":173:174  5 */\n      0x05\n        /* \"input/CreateWin.sol\":173:183  5 * ethWei */\n      mul\n        /* \"input/CreateWin.sol\":164:169  value */\n      dup3\n        /* \"input/CreateWin.sol\":164:183  value <= 5 * ethWei */\n      gt\n      iszero\n        /* \"input/CreateWin.sol\":141:183  value >= 1 * ethWei && value <= 5 * ethWei */\n    tag_471:\n        /* \"input/CreateWin.sol\":137:203  if (value >= 1 * ethWei && value <= 5 * ethWei) {... */\n      iszero\n      tag_472\n      jumpi\n        /* \"input/CreateWin.sol\":197:198  1 */\n      0x01\n        /* \"input/CreateWin.sol\":190:198  return 1 */\n      swap1\n      pop\n      jump(tag_470)\n        /* \"input/CreateWin.sol\":137:203  if (value >= 1 * ethWei && value <= 5 * ethWei) {... */\n    tag_472:\n        /* \"input/CreateWin.sol\":223:229  ethWei */\n      sload(0x00)\n        /* \"input/CreateWin.sol\":219:220  6 */\n      0x06\n        /* \"input/CreateWin.sol\":219:229  6 * ethWei */\n      mul\n        /* \"input/CreateWin.sol\":210:215  value */\n      dup3\n        /* \"input/CreateWin.sol\":210:229  value >= 6 * ethWei */\n      lt\n      iszero\n        /* \"input/CreateWin.sol\":210:253  value >= 6 * ethWei && value <= 10 * ethWei */\n      dup1\n      iszero\n      tag_473\n      jumpi\n      pop\n        /* \"input/CreateWin.sol\":247:253  ethWei */\n      sload(0x00)\n        /* \"input/CreateWin.sol\":242:244  10 */\n      0x0a\n        /* \"input/CreateWin.sol\":242:253  10 * ethWei */\n      mul\n        /* \"input/CreateWin.sol\":233:238  value */\n      dup3\n        /* \"input/CreateWin.sol\":233:253  value <= 10 * ethWei */\n      gt\n      iszero\n        /* \"input/CreateWin.sol\":210:253  value >= 6 * ethWei && value <= 10 * ethWei */\n    tag_473:\n        /* \"input/CreateWin.sol\":206:273  if (value >= 6 * ethWei && value <= 10 * ethWei) {... */\n      iszero\n      tag_474\n      jumpi\n        /* \"input/CreateWin.sol\":267:268  2 */\n      0x02\n        /* \"input/CreateWin.sol\":260:268  return 2 */\n      swap1\n      pop\n      jump(tag_470)\n        /* \"input/CreateWin.sol\":206:273  if (value >= 6 * ethWei && value <= 10 * ethWei) {... */\n    tag_474:\n        /* \"input/CreateWin.sol\":294:300  ethWei */\n      sload(0x00)\n        /* \"input/CreateWin.sol\":289:291  11 */\n      0x0b\n        /* \"input/CreateWin.sol\":289:300  11 * ethWei */\n      mul\n        /* \"input/CreateWin.sol\":280:285  value */\n      dup3\n        /* \"input/CreateWin.sol\":280:300  value >= 11 * ethWei */\n      lt\n      iszero\n        /* \"input/CreateWin.sol\":280:324  value >= 11 * ethWei && value <= 15 * ethWei */\n      dup1\n      iszero\n      tag_475\n      jumpi\n      pop\n        /* \"input/CreateWin.sol\":318:324  ethWei */\n      sload(0x00)\n        /* \"input/CreateWin.sol\":313:315  15 */\n      0x0f\n        /* \"input/CreateWin.sol\":313:324  15 * ethWei */\n      mul\n        /* \"input/CreateWin.sol\":304:309  value */\n      dup3\n        /* \"input/CreateWin.sol\":304:324  value <= 15 * ethWei */\n      gt\n      iszero\n        /* \"input/CreateWin.sol\":280:324  value >= 11 * ethWei && value <= 15 * ethWei */\n    tag_475:\n        /* \"input/CreateWin.sol\":276:344  if (value >= 11 * ethWei && value <= 15 * ethWei) {... */\n      iszero\n      tag_476\n      jumpi\n        /* \"input/CreateWin.sol\":338:339  3 */\n      0x03\n        /* \"input/CreateWin.sol\":331:339  return 3 */\n      swap1\n      pop\n      jump(tag_470)\n        /* \"input/CreateWin.sol\":276:344  if (value >= 11 * ethWei && value <= 15 * ethWei) {... */\n    tag_476:\n        /* \"input/CreateWin.sol\":354:355  0 */\n      0x00\n        /* \"input/CreateWin.sol\":347:355  return 0 */\n      swap1\n      pop\n        /* \"input/CreateWin.sol\":76:359  function getLevel(uint value) public view returns (uint) {... */\n    tag_470:\n      swap2\n      swap1\n      pop\n      jump\t// out\n        /* \"input/CreateWin.sol\":1582:1787  function compareStr(string memory _str, string memory str) public pure returns (bool) {... */\n    tag_122:\n        /* \"input/CreateWin.sol\":1662:1666  bool */\n      0x00\n        /* \"input/CreateWin.sol\":1740:1743  str */\n      dup2\n        /* \"input/CreateWin.sol\":1723:1744  abi.encodePacked(str) */\n      add(0x20, mload(0x40))\n      dup1\n      dup3\n      dup1\n      mload\n      swap1\n      0x20\n      add\n      swap1\n      dup1\n      dup4\n      dup4\n        /* \"--CODEGEN--\":36:189   */\n    tag_478:\n        /* \"--CODEGEN--\":66:68   */\n      0x20\n        /* \"--CODEGEN--\":61:64   */\n      dup4\n        /* \"--CODEGEN--\":58:69   */\n      lt\n        /* \"--CODEGEN--\":36:189   */\n      tag_480\n      jumpi\n        /* \"--CODEGEN--\":182:185   */\n      dup1\n        /* \"--CODEGEN--\":176:186   */\n      mload\n        /* \"--CODEGEN--\":171:174   */\n      dup3\n        /* \"--CODEGEN--\":164:187   */\n      mstore\n        /* \"--CODEGEN--\":98:100   */\n      0x20\n        /* \"--CODEGEN--\":93:96   */\n      dup3\n        /* \"--CODEGEN--\":89:101   */\n      add\n        /* \"--CODEGEN--\":82:101   */\n      swap2\n      pop\n        /* \"--CODEGEN--\":123:125   */\n      0x20\n        /* \"--CODEGEN--\":118:121   */\n      dup2\n        /* \"--CODEGEN--\":114:126   */\n      add\n        /* \"--CODEGEN--\":107:126   */\n      swap1\n      pop\n        /* \"--CODEGEN--\":148:150   */\n      0x20\n        /* \"--CODEGEN--\":143:146   */\n      dup4\n        /* \"--CODEGEN--\":139:151   */\n      sub\n        /* \"--CODEGEN--\":132:151   */\n      swap3\n      pop\n        /* \"--CODEGEN--\":36:189   */\n      jump(tag_478)\n    tag_480:\n        /* \"--CODEGEN--\":274:275   */\n      0x01\n        /* \"--CODEGEN--\":267:270   */\n      dup4\n        /* \"--CODEGEN--\":263:265   */\n      0x20\n        /* \"--CODEGEN--\":259:271   */\n      sub\n        /* \"--CODEGEN--\":254:257   */\n      0x0100\n        /* \"--CODEGEN--\":250:272   */\n      exp\n        /* \"--CODEGEN--\":246:276   */\n      sub\n        /* \"--CODEGEN--\":315:319   */\n      dup1\n        /* \"--CODEGEN--\":311:320   */\n      not\n        /* \"--CODEGEN--\":305:308   */\n      dup3\n        /* \"--CODEGEN--\":299:309   */\n      mload\n        /* \"--CODEGEN--\":295:321   */\n      and\n        /* \"--CODEGEN--\":356:360   */\n      dup2\n        /* \"--CODEGEN--\":350:353   */\n      dup5\n        /* \"--CODEGEN--\":344:354   */\n      mload\n        /* \"--CODEGEN--\":340:361   */\n      and\n        /* \"--CODEGEN--\":389:396   */\n      dup1\n        /* \"--CODEGEN--\":380:387   */\n      dup3\n        /* \"--CODEGEN--\":377:397   */\n      or\n        /* \"--CODEGEN--\":372:375   */\n      dup6\n        /* \"--CODEGEN--\":365:398   */\n      mstore\n        /* \"--CODEGEN--\":3:402   */\n      pop\n      pop\n      pop\n        /* \"input/CreateWin.sol\":1723:1744  abi.encodePacked(str) */\n      pop\n      pop\n      pop\n      swap1\n      pop\n      add\n      swap2\n      pop\n      pop\n      mload(0x40)\n        /* \"--CODEGEN--\":49:53   */\n      0x20\n        /* \"--CODEGEN--\":39:46   */\n      dup2\n        /* \"--CODEGEN--\":30:37   */\n      dup4\n        /* \"--CODEGEN--\":26:47   */\n      sub\n        /* \"--CODEGEN--\":22:54   */\n      sub\n        /* \"--CODEGEN--\":13:20   */\n      dup2\n        /* \"--CODEGEN--\":6:55   */\n      mstore\n        /* \"input/CreateWin.sol\":1723:1744  abi.encodePacked(str) */\n      swap1\n      0x40\n      mstore\n        /* \"input/CreateWin.sol\":1713:1745  keccak256(abi.encodePacked(str)) */\n      dup1\n      mload\n      swap1\n      0x20\n      add\n      keccak256\n        /* \"input/CreateWin.sol\":1703:1707  _str */\n      dup4\n        /* \"input/CreateWin.sol\":1686:1708  abi.encodePacked(_str) */\n      add(0x20, mload(0x40))\n      dup1\n      dup3\n      dup1\n      mload\n      swap1\n      0x20\n      add\n      swap1\n      dup1\n      dup4\n      dup4\n        /* \"--CODEGEN--\":36:189   */\n    tag_481:\n        /* \"--CODEGEN--\":66:68   */\n      0x20\n        /* \"--CODEGEN--\":61:64   */\n      dup4\n        /* \"--CODEGEN--\":58:69   */\n      lt\n        /* \"--CODEGEN--\":36:189   */\n      tag_483\n      jumpi\n        /* \"--CODEGEN--\":182:185   */\n      dup1\n        /* \"--CODEGEN--\":176:186   */\n      mload\n        /* \"--CODEGEN--\":171:174   */\n      dup3\n        /* \"--CODEGEN--\":164:187   */\n      mstore\n        /* \"--CODEGEN--\":98:100   */\n      0x20\n        /* \"--CODEGEN--\":93:96   */\n      dup3\n        /* \"--CODEGEN--\":89:101   */\n      add\n        /* \"--CODEGEN--\":82:101   */\n      swap2\n      pop\n        /* \"--CODEGEN--\":123:125   */\n      0x20\n        /* \"--CODEGEN--\":118:121   */\n      dup2\n        /* \"--CODEGEN--\":114:126   */\n      add\n        /* \"--CODEGEN--\":107:126   */\n      swap1\n      pop\n        /* \"--CODEGEN--\":148:150   */\n      0x20\n        /* \"--CODEGEN--\":143:146   */\n      dup4\n        /* \"--CODEGEN--\":139:151   */\n      sub\n        /* \"--CODEGEN--\":132:151   */\n      swap3\n      pop\n        /* \"--CODEGEN--\":36:189   */\n      jump(tag_481)\n    tag_483:\n        /* \"--CODEGEN--\":274:275   */\n      0x01\n        /* \"--CODEGEN--\":267:270   */\n      dup4\n        /* \"--CODEGEN--\":263:265   */\n      0x20\n        /* \"--CODEGEN--\":259:271   */\n      sub\n        /* \"--CODEGEN--\":254:257   */\n      0x0100\n        /* \"--CODEGEN--\":250:272   */\n      exp\n        /* \"--CODEGEN--\":246:276   */\n      sub\n        /* \"--CODEGEN--\":315:319   */\n      dup1\n        /* \"--CODEGEN--\":311:320   */\n      not\n        /* \"--CODEGEN--\":305:308   */\n      dup3\n        /* \"--CODEGEN--\":299:309   */\n      mload\n        /* \"--CODEGEN--\":295:321   */\n      and\n        /* \"--CODEGEN--\":356:360   */\n      dup2\n        /* \"--CODEGEN--\":350:353   */\n      dup5\n        /* \"--CODEGEN--\":344:354   */\n      mload\n        /* \"--CODEGEN--\":340:361   */\n      and\n        /* \"--CODEGEN--\":389:396   */\n      dup1\n        /* \"--CODEGEN--\":380:387   */\n      dup3\n        /* \"--CODEGEN--\":377:397   */\n      or\n        /* \"--CODEGEN--\":372:375   */\n      dup6\n        /* \"--CODEGEN--\":365:398   */\n      mstore\n        /* \"--CODEGEN--\":3:402   */\n      pop\n      pop\n      pop\n        /* \"input/CreateWin.sol\":1686:1708  abi.encodePacked(_str) */\n      pop\n      pop\n      pop\n      swap1\n      pop\n      add\n      swap2\n      pop\n      pop\n      mload(0x40)\n        /* \"--CODEGEN--\":49:53   */\n      0x20\n        /* \"--CODEGEN--\":39:46   */\n      dup2\n        /* \"--CODEGEN--\":30:37   */\n      dup4\n        /* \"--CODEGEN--\":26:47   */\n      sub\n        /* \"--CODEGEN--\":22:54   */\n      sub\n        /* \"--CODEGEN--\":13:20   */\n      dup2\n        /* \"--CODEGEN--\":6:55   */\n      mstore\n        /* \"input/CreateWin.sol\":1686:1708  abi.encodePacked(_str) */\n      swap1\n      0x40\n      mstore\n        /* \"input/CreateWin.sol\":1676:1709  keccak256(abi.encodePacked(_str)) */\n      dup1\n      mload\n      swap1\n      0x20\n      add\n      keccak256\n        /* \"input/CreateWin.sol\":1676:1745  keccak256(abi.encodePacked(_str)) == keccak256(abi.encodePacked(str)) */\n      eq\n        /* \"input/CreateWin.sol\":1672:1768  if (keccak256(abi.encodePacked(_str)) == keccak256(abi.encodePacked(str))) {... */\n      iszero\n      tag_484\n      jumpi\n        /* \"input/CreateWin.sol\":1759:1763  true */\n      0x01\n        /* \"input/CreateWin.sol\":1752:1763  return true */\n      swap1\n      pop\n      jump(tag_477)\n        /* \"input/CreateWin.sol\":1672:1768  if (keccak256(abi.encodePacked(_str)) == keccak256(abi.encodePacked(str))) {... */\n    tag_484:\n        /* \"input/CreateWin.sol\":1778:1783  false */\n      0x00\n        /* \"input/CreateWin.sol\":1771:1783  return false */\n      swap1\n      pop\n        /* \"input/CreateWin.sol\":1582:1787  function compareStr(string memory _str, string memory str) public pure returns (bool) {... */\n    tag_477:\n      swap3\n      swap2\n      pop\n      pop\n      jump\t// out\n        /* \"input/CreateWin.sol\":20648:20808  function getUserAddressById(uint id) public view returns (address) {... */\n    tag_126:\n        /* \"input/CreateWin.sol\":20706:20713  address */\n      0x00\n        /* \"input/CreateWin.sol\":20727:20755  isWhitelistAdmin(msg.sender) */\n      tag_486\n        /* \"input/CreateWin.sol\":20744:20754  msg.sender */\n      caller\n        /* \"input/CreateWin.sol\":20727:20743  isWhitelistAdmin */\n      tag_152\n        /* \"input/CreateWin.sol\":20727:20755  isWhitelistAdmin(msg.sender) */\n      jump\t// in\n    tag_486:\n        /* \"input/CreateWin.sol\":20719:20777  require(isWhitelistAdmin(msg.sender), \"Permission denied\") */\n      tag_487\n      jumpi\n      mload(0x40)\n      0x08c379a000000000000000000000000000000000000000000000000000000000\n      dup2\n      mstore\n      0x04\n      add\n      dup1\n      dup1\n      0x20\n      add\n      dup3\n      dup2\n      sub\n      dup3\n      mstore\n      0x11\n      dup2\n      mstore\n      0x20\n      add\n      dup1\n      0x5065726d697373696f6e2064656e696564000000000000000000000000000000\n      dup2\n      mstore\n      pop\n      0x20\n      add\n      swap2\n      pop\n      pop\n      mload(0x40)\n      dup1\n      swap2\n      sub\n      swap1\n      revert\n    tag_487:\n        /* \"input/CreateWin.sol\":20788:20800  indexMapping */\n      0x11\n        /* \"input/CreateWin.sol\":20788:20804  indexMapping[id] */\n      0x00\n        /* \"input/CreateWin.sol\":20801:20803  id */\n      dup4\n        /* \"input/CreateWin.sol\":20788:20804  indexMapping[id] */\n      dup2\n      mstore\n      0x20\n      add\n      swap1\n      dup2\n      mstore\n      0x20\n      add\n      0x00\n      keccak256\n      0x00\n      swap1\n      sload\n      swap1\n      0x0100\n      exp\n      swap1\n      div\n      0xffffffffffffffffffffffffffffffffffffffff\n      and\n        /* \"input/CreateWin.sol\":20781:20804  return indexMapping[id] */\n      swap1\n      pop\n        /* \"input/CreateWin.sol\":20648:20808  function getUserAddressById(uint id) public view returns (address) {... */\n      swap2\n      swap1\n      pop\n      jump\t// out\n        /* \"input/CreateWin.sol\":3481:3564  function isOwner() public view returns (bool) {... */\n    tag_129:\n        /* \"input/CreateWin.sol\":3521:3525  bool */\n      0x00\n        /* \"input/CreateWin.sol\":3554:3560  _owner */\n      0x01\n      0x00\n      swap1\n      sload\n      swap1\n      0x0100\n      exp\n      swap1\n      div\n      0xffffffffffffffffffffffffffffffffffffffff\n      and\n        /* \"input/CreateWin.sol\":3538:3560  _msgSender() == _owner */\n      0xffffffffffffffffffffffffffffffffffffffff\n      and\n        /* \"input/CreateWin.sol\":3538:3550  _msgSender() */\n      tag_489\n        /* \"input/CreateWin.sol\":3538:3548  _msgSender */\n      tag_388\n        /* \"input/CreateWin.sol\":3538:3550  _msgSender() */\n      jump\t// in\n    tag_489:\n        /* \"input/CreateWin.sol\":3538:3560  _msgSender() == _owner */\n      0xffffffffffffffffffffffffffffffffffffffff\n      and\n      eq\n        /* \"input/CreateWin.sol\":3531:3560  return _msgSender() == _owner */\n      swap1\n      pop\n        /* \"input/CreateWin.sol\":3481:3564  function isOwner() public view returns (bool) {... */\n      swap1\n      jump\t// out\n        /* \"input/CreateWin.sol\":8147:8390  function actUserStatus(address addr, uint status) external onlyWhitelistAdmin {... */\n    tag_133:\n        /* \"input/CreateWin.sol\":5114:5144  isWhitelistAdmin(_msgSender()) */\n      tag_491\n        /* \"input/CreateWin.sol\":5131:5143  _msgSender() */\n      tag_492\n        /* \"input/CreateWin.sol\":5131:5141  _msgSender */\n      tag_388\n        /* \"input/CreateWin.sol\":5131:5143  _msgSender() */\n      jump\t// in\n    tag_492:\n        /* \"input/CreateWin.sol\":5114:5130  isWhitelistAdmin */\n      tag_152\n        /* \"input/CreateWin.sol\":5114:5144  isWhitelistAdmin(_msgSender()) */\n      jump\t// in\n    tag_491:\n        /* \"input/CreateWin.sol\":5114:5157  isWhitelistAdmin(_msgSender()) || isOwner() */\n      dup1\n      tag_493\n      jumpi\n      pop\n        /* \"input/CreateWin.sol\":5148:5157  isOwner() */\n      tag_494\n        /* \"input/CreateWin.sol\":5148:5155  isOwner */\n      tag_129\n        /* \"input/CreateWin.sol\":5148:5157  isOwner() */\n      jump\t// in\n    tag_494:\n        /* \"input/CreateWin.sol\":5114:5157  isWhitelistAdmin(_msgSender()) || isOwner() */\n    tag_493:\n        /* \"input/CreateWin.sol\":5106:5226  require(isWhitelistAdmin(_msgSender()) || isOwner(), \"WhitelistAdminRole: caller does not have the WhitelistAdmin role\") */\n      tag_495\n      jumpi\n      mload(0x40)\n      0x08c379a000000000000000000000000000000000000000000000000000000000\n      dup2\n      mstore\n      0x04\n      add\n      dup1\n      dup1\n      0x20\n      add\n      dup3\n      dup2\n      sub\n      dup3\n      mstore\n      0x40\n      dup2\n      mstore\n      0x20\n      add\n      dup1\n      data_a092a330b9544809a41baf90fad5bb5d721d39e2ab6006aae3447e7f7e21c961\n      0x40\n      swap2\n      codecopy\n      0x40\n      add\n      swap2\n      pop\n      pop\n      mload(0x40)\n      dup1\n      swap2\n      sub\n      swap1\n      revert\n    tag_495:\n        /* \"input/CreateWin.sol\":8247:8248  0 */\n      0x00\n        /* \"input/CreateWin.sol\":8237:8243  status */\n      dup2\n        /* \"input/CreateWin.sol\":8237:8248  status == 0 */\n      eq\n        /* \"input/CreateWin.sol\":8237:8263  status == 0 || status == 1 */\n      dup1\n      tag_497\n      jumpi\n      pop\n        /* \"input/CreateWin.sol\":8262:8263  1 */\n      0x01\n        /* \"input/CreateWin.sol\":8252:8258  status */\n      dup2\n        /* \"input/CreateWin.sol\":8252:8263  status == 1 */\n      eq\n        /* \"input/CreateWin.sol\":8237:8263  status == 0 || status == 1 */\n    tag_497:\n        /* \"input/CreateWin.sol\":8237:8278  status == 0 || status == 1 || status == 2 */\n      dup1\n      tag_498\n      jumpi\n      pop\n        /* \"input/CreateWin.sol\":8277:8278  2 */\n      0x02\n        /* \"input/CreateWin.sol\":8267:8273  status */\n      dup2\n        /* \"input/CreateWin.sol\":8267:8278  status == 2 */\n      eq\n        /* \"input/CreateWin.sol\":8237:8278  status == 0 || status == 1 || status == 2 */\n    tag_498:\n        /* \"input/CreateWin.sol\":8229:8303  require(status == 0 || status == 1 || status == 2, \"bad parameter status\") */\n      tag_499\n      jumpi\n      mload(0x40)\n      0x08c379a000000000000000000000000000000000000000000000000000000000\n      dup2\n      mstore\n      0x04\n      add\n      dup1\n      dup1\n      0x20\n      add\n      dup3\n      dup2\n      sub\n      dup3\n      mstore\n      0x14\n      dup2\n      mstore\n      0x20\n      add\n      dup1\n      0x62616420706172616d6574657220737461747573000000000000000000000000\n      dup2\n      mstore\n      pop\n      0x20\n      add\n      swap2\n      pop\n      pop\n      mload(0x40)\n      dup1\n      swap2\n      sub\n      swap1\n      revert\n    tag_499:\n        /* \"input/CreateWin.sol\":8307:8336  UserGlobal storage userGlobal */\n      0x00\n        /* \"input/CreateWin.sol\":8339:8350  userMapping */\n      0x0f\n        /* \"input/CreateWin.sol\":8339:8356  userMapping[addr] */\n      0x00\n        /* \"input/CreateWin.sol\":8351:8355  addr */\n      dup5\n        /* \"input/CreateWin.sol\":8339:8356  userMapping[addr] */\n      0xffffffffffffffffffffffffffffffffffffffff\n      and\n      0xffffffffffffffffffffffffffffffffffffffff\n      and\n      dup2\n      mstore\n      0x20\n      add\n      swap1\n      dup2\n      mstore\n      0x20\n      add\n      0x00\n      keccak256\n        /* \"input/CreateWin.sol\":8307:8356  UserGlobal storage userGlobal = userMapping[addr] */\n      swap1\n      pop\n        /* \"input/CreateWin.sol\":8380:8386  status */\n      dup2\n        /* \"input/CreateWin.sol\":8360:8370  userGlobal */\n      dup2\n        /* \"input/CreateWin.sol\":8360:8377  userGlobal.status */\n      0x04\n      add\n        /* \"input/CreateWin.sol\":8360:8386  userGlobal.status = status */\n      dup2\n      swap1\n      sstore\n      pop\n        /* \"input/CreateWin.sol\":5230:5231  _ */\n      pop\n        /* \"input/CreateWin.sol\":8147:8390  function actUserStatus(address addr, uint status) external onlyWhitelistAdmin {... */\n      pop\n      pop\n      jump\t// out\n        /* \"input/CreateWin.sol\":7650:7734  function updateLine(uint line) external onlyWhitelistAdmin {... */\n    tag_137:\n        /* \"input/CreateWin.sol\":5114:5144  isWhitelistAdmin(_msgSender()) */\n      tag_501\n        /* \"input/CreateWin.sol\":5131:5143  _msgSender() */\n      tag_502\n        /* \"input/CreateWin.sol\":5131:5141  _msgSender */\n      tag_388\n        /* \"input/CreateWin.sol\":5131:5143  _msgSender() */\n      jump\t// in\n    tag_502:\n        /* \"input/CreateWin.sol\":5114:5130  isWhitelistAdmin */\n      tag_152\n        /* \"input/CreateWin.sol\":5114:5144  isWhitelistAdmin(_msgSender()) */\n      jump\t// in\n    tag_501:\n        /* \"input/CreateWin.sol\":5114:5157  isWhitelistAdmin(_msgSender()) || isOwner() */\n      dup1\n      tag_503\n      jumpi\n      pop\n        /* \"input/CreateWin.sol\":5148:5157  isOwner() */\n      tag_504\n        /* \"input/CreateWin.sol\":5148:5155  isOwner */\n      tag_129\n        /* \"input/CreateWin.sol\":5148:5157  isOwner() */\n      jump\t// in\n    tag_504:\n        /* \"input/CreateWin.sol\":5114:5157  isWhitelistAdmin(_msgSender()) || isOwner() */\n    tag_503:\n        /* \"input/CreateWin.sol\":5106:5226  require(isWhitelistAdmin(_msgSender()) || isOwner(), \"WhitelistAdminRole: caller does not have the WhitelistAdmin role\") */\n      tag_505\n      jumpi\n      mload(0x40)\n      0x08c379a000000000000000000000000000000000000000000000000000000000\n      dup2\n      mstore\n      0x04\n      add\n      dup1\n      dup1\n      0x20\n      add\n      dup3\n      dup2\n      sub\n      dup3\n      mstore\n      0x40\n      dup2\n      mstore\n      0x20\n      add\n      dup1\n      data_a092a330b9544809a41baf90fad5bb5d721d39e2ab6006aae3447e7f7e21c961\n      0x40\n      swap2\n      codecopy\n      0x40\n      add\n      swap2\n      pop\n      pop\n      mload(0x40)\n      dup1\n      swap2\n      sub\n      swap1\n      revert\n    tag_505:\n        /* \"input/CreateWin.sol\":7726:7730  line */\n      dup1\n        /* \"input/CreateWin.sol\":7713:7723  lineStatus */\n      0x07\n        /* \"input/CreateWin.sol\":7713:7730  lineStatus = line */\n      dup2\n      swap1\n      sstore\n      pop\n        /* \"input/CreateWin.sol\":7650:7734  function updateLine(uint line) external onlyWhitelistAdmin {... */\n      pop\n      jump\t// out\n        /* \"input/CreateWin.sol\":17300:17477  function getUserAddressByCode(string memory code) public view returns (address) {... */\n    tag_144:\n        /* \"input/CreateWin.sol\":17371:17378  address */\n      0x00\n        /* \"input/CreateWin.sol\":17392:17420  isWhitelistAdmin(msg.sender) */\n      tag_508\n        /* \"input/CreateWin.sol\":17409:17419  msg.sender */\n      caller\n        /* \"input/CreateWin.sol\":17392:17408  isWhitelistAdmin */\n      tag_152\n        /* \"input/CreateWin.sol\":17392:17420  isWhitelistAdmin(msg.sender) */\n      jump\t// in\n    tag_508:\n        /* \"input/CreateWin.sol\":17384:17442  require(isWhitelistAdmin(msg.sender), \"Permission denied\") */\n      tag_509\n      jumpi\n      mload(0x40)\n      0x08c379a000000000000000000000000000000000000000000000000000000000\n      dup2\n      mstore\n      0x04\n      add\n      dup1\n      dup1\n      0x20\n      add\n      dup3\n      dup2\n      sub\n      dup3\n      mstore\n      0x11\n      dup2\n      mstore\n      0x20\n      add\n      dup1\n      0x5065726d697373696f6e2064656e696564000000000000000000000000000000\n      dup2\n      mstore\n      pop\n      0x20\n      add\n      swap2\n      pop\n      pop\n      mload(0x40)\n      dup1\n      swap2\n      sub\n      swap1\n      revert\n    tag_509:\n        /* \"input/CreateWin.sol\":17453:17467  addressMapping */\n      0x10\n        /* \"input/CreateWin.sol\":17468:17472  code */\n      dup3\n        /* \"input/CreateWin.sol\":17453:17473  addressMapping[code] */\n      mload(0x40)\n      dup1\n      dup3\n      dup1\n      mload\n      swap1\n      0x20\n      add\n      swap1\n      dup1\n      dup4\n      dup4\n        /* \"--CODEGEN--\":36:189   */\n    tag_510:\n        /* \"--CODEGEN--\":66:68   */\n      0x20\n        /* \"--CODEGEN--\":61:64   */\n      dup4\n        /* \"--CODEGEN--\":58:69   */\n      lt\n        /* \"--CODEGEN--\":36:189   */\n      tag_512\n      jumpi\n        /* \"--CODEGEN--\":182:185   */\n      dup1\n        /* \"--CODEGEN--\":176:186   */\n      mload\n        /* \"--CODEGEN--\":171:174   */\n      dup3\n        /* \"--CODEGEN--\":164:187   */\n      mstore\n        /* \"--CODEGEN--\":98:100   */\n      0x20\n        /* \"--CODEGEN--\":93:96   */\n      dup3\n        /* \"--CODEGEN--\":89:101   */\n      add\n        /* \"--CODEGEN--\":82:101   */\n      swap2\n      pop\n        /* \"--CODEGEN--\":123:125   */\n      0x20\n        /* \"--CODEGEN--\":118:121   */\n      dup2\n        /* \"--CODEGEN--\":114:126   */\n      add\n        /* \"--CODEGEN--\":107:126   */\n      swap1\n      pop\n        /* \"--CODEGEN--\":148:150   */\n      0x20\n        /* \"--CODEGEN--\":143:146   */\n      dup4\n        /* \"--CODEGEN--\":139:151   */\n      sub\n        /* \"--CODEGEN--\":132:151   */\n      swap3\n      pop\n        /* \"--CODEGEN--\":36:189   */\n      jump(tag_510)\n    tag_512:\n        /* \"--CODEGEN--\":274:275   */\n      0x01\n        /* \"--CODEGEN--\":267:270   */\n      dup4\n        /* \"--CODEGEN--\":263:265   */\n      0x20\n        /* \"--CODEGEN--\":259:271   */\n      sub\n        /* \"--CODEGEN--\":254:257   */\n      0x0100\n        /* \"--CODEGEN--\":250:272   */\n      exp\n        /* \"--CODEGEN--\":246:276   */\n      sub\n        /* \"--CODEGEN--\":315:319   */\n      dup1\n        /* \"--CODEGEN--\":311:320   */\n      not\n        /* \"--CODEGEN--\":305:308   */\n      dup3\n        /* \"--CODEGEN--\":299:309   */\n      mload\n        /* \"--CODEGEN--\":295:321   */\n      and\n        /* \"--CODEGEN--\":356:360   */\n      dup2\n        /* \"--CODEGEN--\":350:353   */\n      dup5\n        /* \"--CODEGEN--\":344:354   */\n      mload\n        /* \"--CODEGEN--\":340:361   */\n      and\n        /* \"--CODEGEN--\":389:396   */\n      dup1\n        /* \"--CODEGEN--\":380:387   */\n      dup3\n        /* \"--CODEGEN--\":377:397   */\n      or\n        /* \"--CODEGEN--\":372:375   */\n      dup6\n        /* \"--CODEGEN--\":365:398   */\n      mstore\n        /* \"--CODEGEN--\":3:402   */\n      pop\n      pop\n      pop\n        /* \"input/CreateWin.sol\":17453:17473  addressMapping[code] */\n      pop\n      pop\n      pop\n      swap1\n      pop\n      add\n      swap2\n      pop\n      pop\n      swap1\n      dup2\n      mstore\n      0x20\n      add\n      mload(0x40)\n      dup1\n      swap2\n      sub\n      swap1\n      keccak256\n      0x00\n      swap1\n      sload\n      swap1\n      0x0100\n      exp\n      swap1\n      div\n      0xffffffffffffffffffffffffffffffffffffffff\n      and\n        /* \"input/CreateWin.sol\":17446:17473  return addressMapping[code] */\n      swap1\n      pop\n        /* \"input/CreateWin.sol\":17300:17477  function getUserAddressByCode(string memory code) public view returns (address) {... */\n      swap2\n      swap1\n      pop\n      jump\t// out\n        /* \"input/CreateWin.sol\":10853:11482  function helloworld(uint start, uint end, uint isUser) external onlyWhitelistAdmin {... */\n    tag_148:\n        /* \"input/CreateWin.sol\":5114:5144  isWhitelistAdmin(_msgSender()) */\n      tag_514\n        /* \"input/CreateWin.sol\":5131:5143  _msgSender() */\n      tag_515\n        /* \"input/CreateWin.sol\":5131:5141  _msgSender */\n      tag_388\n        /* \"input/CreateWin.sol\":5131:5143  _msgSender() */\n      jump\t// in\n    tag_515:\n        /* \"input/CreateWin.sol\":5114:5130  isWhitelistAdmin */\n      tag_152\n        /* \"input/CreateWin.sol\":5114:5144  isWhitelistAdmin(_msgSender()) */\n      jump\t// in\n    tag_514:\n        /* \"input/CreateWin.sol\":5114:5157  isWhitelistAdmin(_msgSender()) || isOwner() */\n      dup1\n      tag_516\n      jumpi\n      pop\n        /* \"input/CreateWin.sol\":5148:5157  isOwner() */\n      tag_517\n        /* \"input/CreateWin.sol\":5148:5155  isOwner */\n      tag_129\n        /* \"input/CreateWin.sol\":5148:5157  isOwner() */\n      jump\t// in\n    tag_517:\n        /* \"input/CreateWin.sol\":5114:5157  isWhitelistAdmin(_msgSender()) || isOwner() */\n    tag_516:\n        /* \"input/CreateWin.sol\":5106:5226  require(isWhitelistAdmin(_msgSender()) || isOwner(), \"WhitelistAdminRole: caller does not have the WhitelistAdmin role\") */\n      tag_518\n      jumpi\n      mload(0x40)\n      0x08c379a000000000000000000000000000000000000000000000000000000000\n      dup2\n      mstore\n      0x04\n      add\n      dup1\n      dup1\n      0x20\n      add\n      dup3\n      dup2\n      sub\n      dup3\n      mstore\n      0x40\n      dup2\n      mstore\n      0x20\n      add\n      dup1\n      data_a092a330b9544809a41baf90fad5bb5d721d39e2ab6006aae3447e7f7e21c961\n      0x40\n      swap2\n      codecopy\n      0x40\n      add\n      swap2\n      pop\n      pop\n      mload(0x40)\n      dup1\n      swap2\n      sub\n      swap1\n      revert\n    tag_518:\n        /* \"input/CreateWin.sol\":10945:10951  uint i */\n      0x00\n        /* \"input/CreateWin.sol\":10954:10959  start */\n      dup4\n        /* \"input/CreateWin.sol\":10945:10959  uint i = start */\n      swap1\n      pop\n        /* \"input/CreateWin.sol\":10940:11479  for (uint i = start; i <= end; i++) {... */\n    tag_520:\n        /* \"input/CreateWin.sol\":10966:10969  end */\n      dup3\n        /* \"input/CreateWin.sol\":10961:10962  i */\n      dup2\n        /* \"input/CreateWin.sol\":10961:10969  i <= end */\n      gt\n        /* \"input/CreateWin.sol\":10940:11479  for (uint i = start; i <= end; i++) {... */\n      tag_521\n      jumpi\n        /* \"input/CreateWin.sol\":10981:10992  uint userId */\n      0x00\n        /* \"input/CreateWin.sol\":10995:10996  0 */\n      dup1\n        /* \"input/CreateWin.sol\":10981:10996  uint userId = 0 */\n      swap1\n      pop\n        /* \"input/CreateWin.sol\":11015:11016  0 */\n      0x00\n        /* \"input/CreateWin.sol\":11005:11011  isUser */\n      dup4\n        /* \"input/CreateWin.sol\":11005:11016  isUser == 0 */\n      eq\n        /* \"input/CreateWin.sol\":11001:11091  if (isUser == 0) {... */\n      iszero\n      tag_523\n      jumpi\n        /* \"input/CreateWin.sol\":11033:11049  lineArrayMapping */\n      0x0d\n        /* \"input/CreateWin.sol\":11033:11054  lineArrayMapping[rid] */\n      0x00\n        /* \"input/CreateWin.sol\":11050:11053  rid */\n      sload(0x0c)\n        /* \"input/CreateWin.sol\":11033:11054  lineArrayMapping[rid] */\n      dup2\n      mstore\n      0x20\n      add\n      swap1\n      dup2\n      mstore\n      0x20\n      add\n      0x00\n      keccak256\n        /* \"input/CreateWin.sol\":11055:11056  i */\n      dup3\n        /* \"input/CreateWin.sol\":11033:11057  lineArrayMapping[rid][i] */\n      dup2\n      sload\n      dup2\n      lt\n      tag_524\n      jumpi\n      invalid\n    tag_524:\n      swap1\n      0x00\n      mstore\n      keccak256(0x00, 0x20)\n      add\n      sload\n        /* \"input/CreateWin.sol\":11024:11057  userId = lineArrayMapping[rid][i] */\n      swap1\n      pop\n        /* \"input/CreateWin.sol\":11001:11091  if (isUser == 0) {... */\n      jump(tag_526)\n    tag_523:\n        /* \"input/CreateWin.sol\":11084:11085  i */\n      dup2\n        /* \"input/CreateWin.sol\":11075:11085  userId = i */\n      swap1\n      pop\n        /* \"input/CreateWin.sol\":11001:11091  if (isUser == 0) {... */\n    tag_526:\n        /* \"input/CreateWin.sol\":11095:11111  address userAddr */\n      0x00\n        /* \"input/CreateWin.sol\":11114:11126  indexMapping */\n      0x11\n        /* \"input/CreateWin.sol\":11114:11134  indexMapping[userId] */\n      0x00\n        /* \"input/CreateWin.sol\":11127:11133  userId */\n      dup4\n        /* \"input/CreateWin.sol\":11114:11134  indexMapping[userId] */\n      dup2\n      mstore\n      0x20\n      add\n      swap1\n      dup2\n      mstore\n      0x20\n      add\n      0x00\n      keccak256\n      0x00\n      swap1\n      sload\n      swap1\n      0x0100\n      exp\n      swap1\n      div\n      0xffffffffffffffffffffffffffffffffffffffff\n      and\n        /* \"input/CreateWin.sol\":11095:11134  address userAddr = indexMapping[userId] */\n      swap1\n      pop\n        /* \"input/CreateWin.sol\":11139:11156  User storage user */\n      0x00\n        /* \"input/CreateWin.sol\":11159:11175  userRoundMapping */\n      0x0e\n        /* \"input/CreateWin.sol\":11159:11180  userRoundMapping[rid] */\n      0x00\n        /* \"input/CreateWin.sol\":11176:11179  rid */\n      sload(0x0c)\n        /* \"input/CreateWin.sol\":11159:11180  userRoundMapping[rid] */\n      dup2\n      mstore\n      0x20\n      add\n      swap1\n      dup2\n      mstore\n      0x20\n      add\n      0x00\n      keccak256\n        /* \"input/CreateWin.sol\":11159:11190  userRoundMapping[rid][userAddr] */\n      0x00\n        /* \"input/CreateWin.sol\":11181:11189  userAddr */\n      dup4\n        /* \"input/CreateWin.sol\":11159:11190  userRoundMapping[rid][userAddr] */\n      0xffffffffffffffffffffffffffffffffffffffff\n      and\n      0xffffffffffffffffffffffffffffffffffffffff\n      and\n      dup2\n      mstore\n      0x20\n      add\n      swap1\n      dup2\n      mstore\n      0x20\n      add\n      0x00\n      keccak256\n        /* \"input/CreateWin.sol\":11139:11190  User storage user = userRoundMapping[rid][userAddr] */\n      swap1\n      pop\n        /* \"input/CreateWin.sol\":11220:11221  0 */\n      0x00\n        /* \"input/CreateWin.sol\":11199:11203  user */\n      dup2\n        /* \"input/CreateWin.sol\":11199:11216  user.freezeAmount */\n      0x03\n      add\n      sload\n        /* \"input/CreateWin.sol\":11199:11221  user.freezeAmount == 0 */\n      eq\n        /* \"input/CreateWin.sol\":11199:11251  user.freezeAmount == 0 && user.lineAmount >= 1 ether */\n      dup1\n      iszero\n      tag_527\n      jumpi\n      pop\n        /* \"input/CreateWin.sol\":11244:11251  1 ether */\n      0x0de0b6b3a7640000\n        /* \"input/CreateWin.sol\":11225:11229  user */\n      dup2\n        /* \"input/CreateWin.sol\":11225:11240  user.lineAmount */\n      0x04\n      add\n      sload\n        /* \"input/CreateWin.sol\":11225:11251  user.lineAmount >= 1 ether */\n      lt\n      iszero\n        /* \"input/CreateWin.sol\":11199:11251  user.freezeAmount == 0 && user.lineAmount >= 1 ether */\n    tag_527:\n        /* \"input/CreateWin.sol\":11199:11282  user.freezeAmount == 0 && user.lineAmount >= 1 ether && user.lineAmount <= 15 ether */\n      dup1\n      iszero\n      tag_528\n      jumpi\n      pop\n        /* \"input/CreateWin.sol\":11274:11282  15 ether */\n      0xd02ab486cedc0000\n        /* \"input/CreateWin.sol\":11255:11259  user */\n      dup2\n        /* \"input/CreateWin.sol\":11255:11270  user.lineAmount */\n      0x04\n      add\n      sload\n        /* \"input/CreateWin.sol\":11255:11282  user.lineAmount <= 15 ether */\n      gt\n      iszero\n        /* \"input/CreateWin.sol\":11199:11282  user.freezeAmount == 0 && user.lineAmount >= 1 ether && user.lineAmount <= 15 ether */\n    tag_528:\n        /* \"input/CreateWin.sol\":11195:11475  if (user.freezeAmount == 0 && user.lineAmount >= 1 ether && user.lineAmount <= 15 ether) {... */\n      iszero\n      tag_529\n      jumpi\n        /* \"input/CreateWin.sol\":11310:11314  user */\n      dup1\n        /* \"input/CreateWin.sol\":11310:11325  user.lineAmount */\n      0x04\n      add\n      sload\n        /* \"input/CreateWin.sol\":11290:11294  user */\n      dup2\n        /* \"input/CreateWin.sol\":11290:11307  user.freezeAmount */\n      0x03\n      add\n        /* \"input/CreateWin.sol\":11290:11325  user.freezeAmount = user.lineAmount */\n      dup2\n      swap1\n      sstore\n      pop\n        /* \"input/CreateWin.sol\":11344:11371  getLevel(user.freezeAmount) */\n      tag_530\n        /* \"input/CreateWin.sol\":11353:11357  user */\n      dup2\n        /* \"input/CreateWin.sol\":11353:11370  user.freezeAmount */\n      0x03\n      add\n      sload\n        /* \"input/CreateWin.sol\":11344:11352  getLevel */\n      tag_112\n        /* \"input/CreateWin.sol\":11344:11371  getLevel(user.freezeAmount) */\n      jump\t// in\n    tag_530:\n        /* \"input/CreateWin.sol\":11331:11335  user */\n      dup2\n        /* \"input/CreateWin.sol\":11331:11341  user.level */\n      0x08\n      add\n        /* \"input/CreateWin.sol\":11331:11371  user.level = getLevel(user.freezeAmount) */\n      dup2\n      swap1\n      sstore\n      pop\n        /* \"input/CreateWin.sol\":11395:11396  0 */\n      0x00\n        /* \"input/CreateWin.sol\":11377:11381  user */\n      dup2\n        /* \"input/CreateWin.sol\":11377:11392  user.lineAmount */\n      0x04\n      add\n        /* \"input/CreateWin.sol\":11377:11396  user.lineAmount = 0 */\n      dup2\n      swap1\n      sstore\n      pop\n        /* \"input/CreateWin.sol\":11402:11435  sendFeetoAdmin(user.freezeAmount) */\n      tag_531\n        /* \"input/CreateWin.sol\":11417:11421  user */\n      dup2\n        /* \"input/CreateWin.sol\":11417:11434  user.freezeAmount */\n      0x03\n      add\n      sload\n        /* \"input/CreateWin.sol\":11402:11416  sendFeetoAdmin */\n      tag_262\n        /* \"input/CreateWin.sol\":11402:11435  sendFeetoAdmin(user.freezeAmount) */\n      jump\t// in\n    tag_531:\n        /* \"input/CreateWin.sol\":11441:11469  countBonus(user.userAddress) */\n      tag_532\n        /* \"input/CreateWin.sol\":11452:11456  user */\n      dup2\n        /* \"input/CreateWin.sol\":11452:11468  user.userAddress */\n      0x01\n      add\n      0x00\n      swap1\n      sload\n      swap1\n      0x0100\n      exp\n      swap1\n      div\n      0xffffffffffffffffffffffffffffffffffffffff\n      and\n        /* \"input/CreateWin.sol\":11441:11451  countBonus */\n      tag_264\n        /* \"input/CreateWin.sol\":11441:11469  countBonus(user.userAddress) */\n      jump\t// in\n    tag_532:\n        /* \"input/CreateWin.sol\":11195:11475  if (user.freezeAmount == 0 && user.lineAmount >= 1 ether && user.lineAmount <= 15 ether) {... */\n    tag_529:\n        /* \"input/CreateWin.sol\":10940:11479  for (uint i = start; i <= end; i++) {... */\n      pop\n      pop\n      pop\n        /* \"input/CreateWin.sol\":10971:10974  i++ */\n      dup1\n      dup1\n      0x01\n      add\n      swap2\n      pop\n      pop\n        /* \"input/CreateWin.sol\":10940:11479  for (uint i = start; i <= end; i++) {... */\n      jump(tag_520)\n    tag_521:\n      pop\n        /* \"input/CreateWin.sol\":10853:11482  function helloworld(uint start, uint end, uint isUser) external onlyWhitelistAdmin {... */\n      pop\n      pop\n      pop\n      jump\t// out\n        /* \"input/CreateWin.sol\":5238:5365  function isWhitelistAdmin(address account) public view returns (bool) {... */\n    tag_152:\n        /* \"input/CreateWin.sol\":5302:5306  bool */\n      0x00\n        /* \"input/CreateWin.sol\":5319:5348  _whitelistAdmins.has(account) */\n      tag_534\n        /* \"input/CreateWin.sol\":5340:5347  account */\n      dup3\n        /* \"input/CreateWin.sol\":5319:5335  _whitelistAdmins */\n      0x02\n        /* \"input/CreateWin.sol\":5319:5339  _whitelistAdmins.has */\n      tag_535\n      swap1\n        /* \"input/CreateWin.sol\":5319:5348  _whitelistAdmins.has(account) */\n      swap2\n      swap1\n      0xffffffff\n      and\n      jump\t// in\n    tag_534:\n        /* \"input/CreateWin.sol\":5319:5361  _whitelistAdmins.has(account) || isOwner() */\n      dup1\n      tag_536\n      jumpi\n      pop\n        /* \"input/CreateWin.sol\":5352:5361  isOwner() */\n      tag_537\n        /* \"input/CreateWin.sol\":5352:5359  isOwner */\n      tag_129\n        /* \"input/CreateWin.sol\":5352:5361  isOwner() */\n      jump\t// in\n    tag_537:\n        /* \"input/CreateWin.sol\":5319:5361  _whitelistAdmins.has(account) || isOwner() */\n    tag_536:\n        /* \"input/CreateWin.sol\":5312:5361  return _whitelistAdmins.has(account) || isOwner() */\n      swap1\n      pop\n        /* \"input/CreateWin.sol\":5238:5365  function isWhitelistAdmin(address account) public view returns (bool) {... */\n      swap2\n      swap1\n      pop\n      jump\t// out\n        /* \"input/CreateWin.sol\":7816:8079  function actAllLimit(uint bonusLi, uint sendLi, uint withdrawLi) external onlyOwner {... */\n    tag_156:\n        /* \"input/CreateWin.sol\":3355:3364  isOwner() */\n      tag_539\n        /* \"input/CreateWin.sol\":3355:3362  isOwner */\n      tag_129\n        /* \"input/CreateWin.sol\":3355:3364  isOwner() */\n      jump\t// in\n    tag_539:\n        /* \"input/CreateWin.sol\":3347:3401  require(isOwner(), \"Ownable: caller is not the owner\") */\n      tag_540\n      jumpi\n      mload(0x40)\n      0x08c379a000000000000000000000000000000000000000000000000000000000\n      dup2\n      mstore\n      0x04\n      add\n      dup1\n      dup1\n      0x20\n      add\n      dup3\n      dup2\n      sub\n      dup3\n      mstore\n      0x20\n      dup2\n      mstore\n      0x20\n      add\n      dup1\n      0x4f776e61626c653a2063616c6c6572206973206e6f7420746865206f776e6572\n      dup2\n      mstore\n      pop\n      0x20\n      add\n      swap2\n      pop\n      pop\n      mload(0x40)\n      dup1\n      swap2\n      sub\n      swap1\n      revert\n    tag_540:\n        /* \"input/CreateWin.sol\":7923:7931  15 ether */\n      0xd02ab486cedc0000\n        /* \"input/CreateWin.sol\":7912:7919  bonusLi */\n      dup4\n        /* \"input/CreateWin.sol\":7912:7931  bonusLi >= 15 ether */\n      lt\n      iszero\n        /* \"input/CreateWin.sol\":7912:7954  bonusLi >= 15 ether && sendLi >= 100 ether */\n      dup1\n      iszero\n      tag_542\n      jumpi\n      pop\n        /* \"input/CreateWin.sol\":7945:7954  100 ether */\n      0x056bc75e2d63100000\n        /* \"input/CreateWin.sol\":7935:7941  sendLi */\n      dup3\n        /* \"input/CreateWin.sol\":7935:7954  sendLi >= 100 ether */\n      lt\n      iszero\n        /* \"input/CreateWin.sol\":7912:7954  bonusLi >= 15 ether && sendLi >= 100 ether */\n    tag_542:\n        /* \"input/CreateWin.sol\":7912:7980  bonusLi >= 15 ether && sendLi >= 100 ether && withdrawLi >= 15 ether */\n      dup1\n      iszero\n      tag_543\n      jumpi\n      pop\n        /* \"input/CreateWin.sol\":7972:7980  15 ether */\n      0xd02ab486cedc0000\n        /* \"input/CreateWin.sol\":7958:7968  withdrawLi */\n      dup2\n        /* \"input/CreateWin.sol\":7958:7980  withdrawLi >= 15 ether */\n      lt\n      iszero\n        /* \"input/CreateWin.sol\":7912:7980  bonusLi >= 15 ether && sendLi >= 100 ether && withdrawLi >= 15 ether */\n    tag_543:\n        /* \"input/CreateWin.sol\":7904:7999  require(bonusLi >= 15 ether && sendLi >= 100 ether && withdrawLi >= 15 ether, \"invalid amount\") */\n      tag_544\n      jumpi\n      mload(0x40)\n      0x08c379a000000000000000000000000000000000000000000000000000000000\n      dup2\n      mstore\n      0x04\n      add\n      dup1\n      dup1\n      0x20\n      add\n      dup3\n      dup2\n      sub\n      dup3\n      mstore\n      0x0e\n      dup2\n      mstore\n      0x20\n      add\n      dup1\n      0x696e76616c696420616d6f756e74000000000000000000000000000000000000\n      dup2\n      mstore\n      pop\n      0x20\n      add\n      swap2\n      pop\n      pop\n      mload(0x40)\n      dup1\n      swap2\n      sub\n      swap1\n      revert\n    tag_544:\n        /* \"input/CreateWin.sol\":8016:8023  bonusLi */\n      dup3\n        /* \"input/CreateWin.sol\":8003:8013  bonuslimit */\n      0x13\n        /* \"input/CreateWin.sol\":8003:8023  bonuslimit = bonusLi */\n      dup2\n      swap1\n      sstore\n      pop\n        /* \"input/CreateWin.sol\":8039:8045  sendLi */\n      dup2\n        /* \"input/CreateWin.sol\":8027:8036  sendLimit */\n      0x14\n        /* \"input/CreateWin.sol\":8027:8045  sendLimit = sendLi */\n      dup2\n      swap1\n      sstore\n      pop\n        /* \"input/CreateWin.sol\":8065:8075  withdrawLi */\n      dup1\n        /* \"input/CreateWin.sol\":8049:8062  withdrawLimit */\n      0x15\n        /* \"input/CreateWin.sol\":8049:8075  withdrawLimit = withdrawLi */\n      dup2\n      swap1\n      sstore\n      pop\n        /* \"input/CreateWin.sol\":7816:8079  function actAllLimit(uint bonusLi, uint sendLi, uint withdrawLi) external onlyOwner {... */\n      pop\n      pop\n      pop\n      jump\t// out\n        /* \"input/CreateWin.sol\":10250:10850  function importGlobal(address addr, string calldata inviteCode, string calldata beCode) external onlyWhitelistAdmin {... */\n    tag_166:\n        /* \"input/CreateWin.sol\":5114:5144  isWhitelistAdmin(_msgSender()) */\n      tag_546\n        /* \"input/CreateWin.sol\":5131:5143  _msgSender() */\n      tag_547\n        /* \"input/CreateWin.sol\":5131:5141  _msgSender */\n      tag_388\n        /* \"input/CreateWin.sol\":5131:5143  _msgSender() */\n      jump\t// in\n    tag_547:\n        /* \"input/CreateWin.sol\":5114:5130  isWhitelistAdmin */\n      tag_152\n        /* \"input/CreateWin.sol\":5114:5144  isWhitelistAdmin(_msgSender()) */\n      jump\t// in\n    tag_546:\n        /* \"input/CreateWin.sol\":5114:5157  isWhitelistAdmin(_msgSender()) || isOwner() */\n      dup1\n      tag_548\n      jumpi\n      pop\n        /* \"input/CreateWin.sol\":5148:5157  isOwner() */\n      tag_549\n        /* \"input/CreateWin.sol\":5148:5155  isOwner */\n      tag_129\n        /* \"input/CreateWin.sol\":5148:5157  isOwner() */\n      jump\t// in\n    tag_549:\n        /* \"input/CreateWin.sol\":5114:5157  isWhitelistAdmin(_msgSender()) || isOwner() */\n    tag_548:\n        /* \"input/CreateWin.sol\":5106:5226  require(isWhitelistAdmin(_msgSender()) || isOwner(), \"WhitelistAdminRole: caller does not have the WhitelistAdmin role\") */\n      tag_550\n      jumpi\n      mload(0x40)\n      0x08c379a000000000000000000000000000000000000000000000000000000000\n      dup2\n      mstore\n      0x04\n      add\n      dup1\n      dup1\n      0x20\n      add\n      dup3\n      dup2\n      sub\n      dup3\n      mstore\n      0x40\n      dup2\n      mstore\n      0x20\n      add\n      dup1\n      data_a092a330b9544809a41baf90fad5bb5d721d39e2ab6006aae3447e7f7e21c961\n      0x40\n      swap2\n      codecopy\n      0x40\n      add\n      swap2\n      pop\n      pop\n      mload(0x40)\n      dup1\n      swap2\n      sub\n      swap1\n      revert\n    tag_550:\n        /* \"input/CreateWin.sol\":10391:10392  1 */\n      0x01\n        /* \"input/CreateWin.sol\":10378:10387  canImport */\n      sload(0x16)\n        /* \"input/CreateWin.sol\":10378:10392  canImport == 1 */\n      eq\n        /* \"input/CreateWin.sol\":10370:10411  require(canImport == 1, \"import stopped\") */\n      tag_552\n      jumpi\n      mload(0x40)\n      0x08c379a000000000000000000000000000000000000000000000000000000000\n      dup2\n      mstore\n      0x04\n      add\n      dup1\n      dup1\n      0x20\n      add\n      dup3\n      dup2\n      sub\n      dup3\n      mstore\n      0x0e\n      dup2\n      mstore\n      0x20\n      add\n      dup1\n      0x696d706f72742073746f70706564000000000000000000000000000000000000\n      dup2\n      mstore\n      pop\n      0x20\n      add\n      swap2\n      pop\n      pop\n      mload(0x40)\n      dup1\n      swap2\n      sub\n      swap1\n      revert\n    tag_552:\n        /* \"input/CreateWin.sol\":10415:10438  UserGlobal storage user */\n      0x00\n        /* \"input/CreateWin.sol\":10441:10452  userMapping */\n      0x0f\n        /* \"input/CreateWin.sol\":10441:10458  userMapping[addr] */\n      0x00\n        /* \"input/CreateWin.sol\":10453:10457  addr */\n      dup8\n        /* \"input/CreateWin.sol\":10441:10458  userMapping[addr] */\n      0xffffffffffffffffffffffffffffffffffffffff\n      and\n      0xffffffffffffffffffffffffffffffffffffffff\n      and\n      dup2\n      mstore\n      0x20\n      add\n      swap1\n      dup2\n      mstore\n      0x20\n      add\n      0x00\n      keccak256\n        /* \"input/CreateWin.sol\":10415:10458  UserGlobal storage user = userMapping[addr] */\n      swap1\n      pop\n        /* \"input/CreateWin.sol\":10481:10482  0 */\n      0x00\n        /* \"input/CreateWin.sol\":10470:10474  user */\n      dup2\n        /* \"input/CreateWin.sol\":10470:10477  user.id */\n      0x00\n      add\n      sload\n        /* \"input/CreateWin.sol\":10470:10482  user.id == 0 */\n      eq\n        /* \"input/CreateWin.sol\":10462:10506  require(user.id == 0, \"user already exists\") */\n      tag_553\n      jumpi\n      mload(0x40)\n      0x08c379a000000000000000000000000000000000000000000000000000000000\n      dup2\n      mstore\n      0x04\n      add\n      dup1\n      dup1\n      0x20\n      add\n      dup3\n      dup2\n      sub\n      dup3\n      mstore\n      0x13\n      dup2\n      mstore\n      0x20\n      add\n      dup1\n      0x7573657220616c72656164792065786973747300000000000000000000000000\n      dup2\n      mstore\n      pop\n      0x20\n      add\n      swap2\n      pop\n      pop\n      mload(0x40)\n      dup1\n      swap2\n      sub\n      swap1\n      revert\n    tag_553:\n        /* \"input/CreateWin.sol\":10519:10545  compareStr(inviteCode, \"\") */\n      tag_554\n        /* \"input/CreateWin.sol\":10530:10540  inviteCode */\n      dup6\n      dup6\n        /* \"input/CreateWin.sol\":10519:10545  compareStr(inviteCode, \"\") */\n      dup1\n      dup1\n      0x1f\n      add\n      0x20\n      dup1\n      swap2\n      div\n      mul\n      0x20\n      add\n      mload(0x40)\n      swap1\n      dup2\n      add\n      0x40\n      mstore\n      dup1\n      swap4\n      swap3\n      swap2\n      swap1\n      dup2\n      dup2\n      mstore\n      0x20\n      add\n      dup4\n      dup4\n        /* \"--CODEGEN--\":30:33   */\n      dup1\n        /* \"--CODEGEN--\":22:28   */\n      dup3\n        /* \"--CODEGEN--\":14:20   */\n      dup5\n        /* \"--CODEGEN--\":1:34   */\n      calldatacopy\n        /* \"--CODEGEN--\":99:100   */\n      0x00\n        /* \"--CODEGEN--\":93:96   */\n      dup2\n        /* \"--CODEGEN--\":85:91   */\n      dup5\n        /* \"--CODEGEN--\":81:97   */\n      add\n        /* \"--CODEGEN--\":74:101   */\n      mstore\n        /* \"--CODEGEN--\":137:141   */\n      0x1f\n        /* \"--CODEGEN--\":133:142   */\n      not\n        /* \"--CODEGEN--\":126:130   */\n      0x1f\n        /* \"--CODEGEN--\":121:124   */\n      dup3\n        /* \"--CODEGEN--\":117:131   */\n      add\n        /* \"--CODEGEN--\":113:143   */\n      and\n        /* \"--CODEGEN--\":106:143   */\n      swap1\n      pop\n        /* \"--CODEGEN--\":169:172   */\n      dup1\n        /* \"--CODEGEN--\":161:167   */\n      dup4\n        /* \"--CODEGEN--\":157:173   */\n      add\n        /* \"--CODEGEN--\":147:173   */\n      swap3\n      pop\n        /* \"input/CreateWin.sol\":10519:10545  compareStr(inviteCode, \"\") */\n      pop\n      pop\n      pop\n      pop\n      pop\n      pop\n      mload(0x40)\n      dup1\n      0x20\n      add\n      0x40\n      mstore\n      dup1\n      0x00\n      dup2\n      mstore\n      pop\n        /* \"input/CreateWin.sol\":10519:10529  compareStr */\n      tag_122\n        /* \"input/CreateWin.sol\":10519:10545  compareStr(inviteCode, \"\") */\n      jump\t// in\n    tag_554:\n        /* \"input/CreateWin.sol\":10518:10545  !compareStr(inviteCode, \"\") */\n      iszero\n        /* \"input/CreateWin.sol\":10510:10567  require(!compareStr(inviteCode, \"\"), \"empty invite code\") */\n      tag_555\n      jumpi\n      mload(0x40)\n      0x08c379a000000000000000000000000000000000000000000000000000000000\n      dup2\n      mstore\n      0x04\n      add\n      dup1\n      dup1\n      0x20\n      add\n      dup3\n      dup2\n      sub\n      dup3\n      mstore\n      0x11\n      dup2\n      mstore\n      0x20\n      add\n      dup1\n      0x656d70747920696e7669746520636f6465000000000000000000000000000000\n      dup2\n      mstore\n      pop\n      0x20\n      add\n      swap2\n      pop\n      pop\n      mload(0x40)\n      dup1\n      swap2\n      sub\n      swap1\n      revert\n    tag_555:\n        /* \"input/CreateWin.sol\":10582:10583  0 */\n      0x00\n        /* \"input/CreateWin.sol\":10575:10578  uid */\n      sload(0x0b)\n        /* \"input/CreateWin.sol\":10575:10583  uid != 0 */\n      eq\n        /* \"input/CreateWin.sol\":10571:10643  if (uid != 0) {... */\n      tag_556\n      jumpi\n        /* \"input/CreateWin.sol\":10599:10621  compareStr(beCode, \"\") */\n      tag_557\n        /* \"input/CreateWin.sol\":10610:10616  beCode */\n      dup4\n      dup4\n        /* \"input/CreateWin.sol\":10599:10621  compareStr(beCode, \"\") */\n      dup1\n      dup1\n      0x1f\n      add\n      0x20\n      dup1\n      swap2\n      div\n      mul\n      0x20\n      add\n      mload(0x40)\n      swap1\n      dup2\n      add\n      0x40\n      mstore\n      dup1\n      swap4\n      swap3\n      swap2\n      swap1\n      dup2\n      dup2\n      mstore\n      0x20\n      add\n      dup4\n      dup4\n        /* \"--CODEGEN--\":30:33   */\n      dup1\n        /* \"--CODEGEN--\":22:28   */\n      dup3\n        /* \"--CODEGEN--\":14:20   */\n      dup5\n        /* \"--CODEGEN--\":1:34   */\n      calldatacopy\n        /* \"--CODEGEN--\":99:100   */\n      0x00\n        /* \"--CODEGEN--\":93:96   */\n      dup2\n        /* \"--CODEGEN--\":85:91   */\n      dup5\n        /* \"--CODEGEN--\":81:97   */\n      add\n        /* \"--CODEGEN--\":74:101   */\n      mstore\n        /* \"--CODEGEN--\":137:141   */\n      0x1f\n        /* \"--CODEGEN--\":133:142   */\n      not\n        /* \"--CODEGEN--\":126:130   */\n      0x1f\n        /* \"--CODEGEN--\":121:124   */\n      dup3\n        /* \"--CODEGEN--\":117:131   */\n      add\n        /* \"--CODEGEN--\":113:143   */\n      and\n        /* \"--CODEGEN--\":106:143   */\n      swap1\n      pop\n        /* \"--CODEGEN--\":169:172   */\n      dup1\n        /* \"--CODEGEN--\":161:167   */\n      dup4\n        /* \"--CODEGEN--\":157:173   */\n      add\n        /* \"--CODEGEN--\":147:173   */\n      swap3\n      pop\n        /* \"input/CreateWin.sol\":10599:10621  compareStr(beCode, \"\") */\n      pop\n      pop\n      pop\n      pop\n      pop\n      pop\n      mload(0x40)\n      dup1\n      0x20\n      add\n      0x40\n      mstore\n      dup1\n      0x00\n      dup2\n      mstore\n      pop\n        /* \"input/CreateWin.sol\":10599:10609  compareStr */\n      tag_122\n        /* \"input/CreateWin.sol\":10599:10621  compareStr(beCode, \"\") */\n      jump\t// in\n    tag_557:\n        /* \"input/CreateWin.sol\":10598:10621  !compareStr(beCode, \"\") */\n      iszero\n        /* \"input/CreateWin.sol\":10590:10638  require(!compareStr(beCode, \"\"), \"empty beCode\") */\n      tag_558\n      jumpi\n      mload(0x40)\n      0x08c379a000000000000000000000000000000000000000000000000000000000\n      dup2\n      mstore\n      0x04\n      add\n      dup1\n      dup1\n      0x20\n      add\n      dup3\n      dup2\n      sub\n      dup3\n      mstore\n      0x0c\n      dup2\n      mstore\n      0x20\n      add\n      dup1\n      0x656d707479206265436f64650000000000000000000000000000000000000000\n      dup2\n      mstore\n      pop\n      0x20\n      add\n      swap2\n      pop\n      pop\n      mload(0x40)\n      dup1\n      swap2\n      sub\n      swap1\n      revert\n    tag_558:\n        /* \"input/CreateWin.sol\":10571:10643  if (uid != 0) {... */\n    tag_556:\n        /* \"input/CreateWin.sol\":10646:10664  address beCodeAddr */\n      0x00\n        /* \"input/CreateWin.sol\":10667:10681  addressMapping */\n      0x10\n        /* \"input/CreateWin.sol\":10682:10688  beCode */\n      dup5\n      dup5\n        /* \"input/CreateWin.sol\":10667:10689  addressMapping[beCode] */\n      mload(0x40)\n      dup1\n      dup4\n      dup4\n        /* \"--CODEGEN--\":30:33   */\n      dup1\n        /* \"--CODEGEN--\":22:28   */\n      dup3\n        /* \"--CODEGEN--\":14:20   */\n      dup5\n        /* \"--CODEGEN--\":1:34   */\n      calldatacopy\n        /* \"--CODEGEN--\":57:60   */\n      dup1\n        /* \"--CODEGEN--\":49:55   */\n      dup4\n        /* \"--CODEGEN--\":45:61   */\n      add\n        /* \"--CODEGEN--\":35:61   */\n      swap3\n      pop\n        /* \"input/CreateWin.sol\":10667:10689  addressMapping[beCode] */\n      pop\n      pop\n      swap3\n      pop\n      pop\n      pop\n      swap1\n      dup2\n      mstore\n      0x20\n      add\n      mload(0x40)\n      dup1\n      swap2\n      sub\n      swap1\n      keccak256\n      0x00\n      swap1\n      sload\n      swap1\n      0x0100\n      exp\n      swap1\n      div\n      0xffffffffffffffffffffffffffffffffffffffff\n      and\n        /* \"input/CreateWin.sol\":10646:10689  address beCodeAddr = addressMapping[beCode] */\n      swap1\n      pop\n        /* \"input/CreateWin.sol\":10715:10719  addr */\n      dup7\n        /* \"input/CreateWin.sol\":10701:10719  beCodeAddr != addr */\n      0xffffffffffffffffffffffffffffffffffffffff\n      and\n        /* \"input/CreateWin.sol\":10701:10711  beCodeAddr */\n      dup2\n        /* \"input/CreateWin.sol\":10701:10719  beCodeAddr != addr */\n      0xffffffffffffffffffffffffffffffffffffffff\n      and\n      eq\n      iszero\n        /* \"input/CreateWin.sol\":10693:10748  require(beCodeAddr != addr, \"beCodeAddr can't be self\") */\n      tag_559\n      jumpi\n      mload(0x40)\n      0x08c379a000000000000000000000000000000000000000000000000000000000\n      dup2\n      mstore\n      0x04\n      add\n      dup1\n      dup1\n      0x20\n      add\n      dup3\n      dup2\n      sub\n      dup3\n      mstore\n      0x18\n      dup2\n      mstore\n      0x20\n      add\n      dup1\n      0x6265436f6465416464722063616e27742062652073656c660000000000000000\n      dup2\n      mstore\n      pop\n      0x20\n      add\n      swap2\n      pop\n      pop\n      mload(0x40)\n      dup1\n      swap2\n      sub\n      swap1\n      revert\n    tag_559:\n        /* \"input/CreateWin.sol\":10761:10779  isUsed(inviteCode) */\n      tag_560\n        /* \"input/CreateWin.sol\":10768:10778  inviteCode */\n      dup7\n      dup7\n        /* \"input/CreateWin.sol\":10761:10779  isUsed(inviteCode) */\n      dup1\n      dup1\n      0x1f\n      add\n      0x20\n      dup1\n      swap2\n      div\n      mul\n      0x20\n      add\n      mload(0x40)\n      swap1\n      dup2\n      add\n      0x40\n      mstore\n      dup1\n      swap4\n      swap3\n      swap2\n      swap1\n      dup2\n      dup2\n      mstore\n      0x20\n      add\n      dup4\n      dup4\n        /* \"--CODEGEN--\":30:33   */\n      dup1\n        /* \"--CODEGEN--\":22:28   */\n      dup3\n        /* \"--CODEGEN--\":14:20   */\n      dup5\n        /* \"--CODEGEN--\":1:34   */\n      calldatacopy\n        /* \"--CODEGEN--\":99:100   */\n      0x00\n        /* \"--CODEGEN--\":93:96   */\n      dup2\n        /* \"--CODEGEN--\":85:91   */\n      dup5\n        /* \"--CODEGEN--\":81:97   */\n      add\n        /* \"--CODEGEN--\":74:101   */\n      mstore\n        /* \"--CODEGEN--\":137:141   */\n      0x1f\n        /* \"--CODEGEN--\":133:142   */\n      not\n        /* \"--CODEGEN--\":126:130   */\n      0x1f\n        /* \"--CODEGEN--\":121:124   */\n      dup3\n        /* \"--CODEGEN--\":117:131   */\n      add\n        /* \"--CODEGEN--\":113:143   */\n      and\n        /* \"--CODEGEN--\":106:143   */\n      swap1\n      pop\n        /* \"--CODEGEN--\":169:172   */\n      dup1\n        /* \"--CODEGEN--\":161:167   */\n      dup4\n        /* \"--CODEGEN--\":157:173   */\n      add\n        /* \"--CODEGEN--\":147:173   */\n      swap3\n      pop\n        /* \"input/CreateWin.sol\":10761:10779  isUsed(inviteCode) */\n      pop\n      pop\n      pop\n      pop\n      pop\n      pop\n        /* \"input/CreateWin.sol\":10761:10767  isUsed */\n      tag_90\n        /* \"input/CreateWin.sol\":10761:10779  isUsed(inviteCode) */\n      jump\t// in\n    tag_560:\n        /* \"input/CreateWin.sol\":10760:10779  !isUsed(inviteCode) */\n      iszero\n        /* \"input/CreateWin.sol\":10752:10803  require(!isUsed(inviteCode), \"invite code is used\") */\n      tag_561\n      jumpi\n      mload(0x40)\n      0x08c379a000000000000000000000000000000000000000000000000000000000\n      dup2\n      mstore\n      0x04\n      add\n      dup1\n      dup1\n      0x20\n      add\n      dup3\n      dup2\n      sub\n      dup3\n      mstore\n      0x13\n      dup2\n      mstore\n      0x20\n      add\n      dup1\n      0x696e7669746520636f6465206973207573656400000000000000000000000000\n      dup2\n      mstore\n      pop\n      0x20\n      add\n      swap2\n      pop\n      pop\n      mload(0x40)\n      dup1\n      swap2\n      sub\n      swap1\n      revert\n    tag_561:\n        /* \"input/CreateWin.sol\":10808:10846  registerUser(addr, inviteCode, beCode) */\n      tag_562\n        /* \"input/CreateWin.sol\":10821:10825  addr */\n      dup8\n        /* \"input/CreateWin.sol\":10827:10837  inviteCode */\n      dup8\n      dup8\n        /* \"input/CreateWin.sol\":10808:10846  registerUser(addr, inviteCode, beCode) */\n      dup1\n      dup1\n      0x1f\n      add\n      0x20\n      dup1\n      swap2\n      div\n      mul\n      0x20\n      add\n      mload(0x40)\n      swap1\n      dup2\n      add\n      0x40\n      mstore\n      dup1\n      swap4\n      swap3\n      swap2\n      swap1\n      dup2\n      dup2\n      mstore\n      0x20\n      add\n      dup4\n      dup4\n        /* \"--CODEGEN--\":30:33   */\n      dup1\n        /* \"--CODEGEN--\":22:28   */\n      dup3\n        /* \"--CODEGEN--\":14:20   */\n      dup5\n        /* \"--CODEGEN--\":1:34   */\n      calldatacopy\n        /* \"--CODEGEN--\":99:100   */\n      0x00\n        /* \"--CODEGEN--\":93:96   */\n      dup2\n        /* \"--CODEGEN--\":85:91   */\n      dup5\n        /* \"--CODEGEN--\":81:97   */\n      add\n        /* \"--CODEGEN--\":74:101   */\n      mstore\n        /* \"--CODEGEN--\":137:141   */\n      0x1f\n        /* \"--CODEGEN--\":133:142   */\n      not\n        /* \"--CODEGEN--\":126:130   */\n      0x1f\n        /* \"--CODEGEN--\":121:124   */\n      dup3\n        /* \"--CODEGEN--\":117:131   */\n      add\n        /* \"--CODEGEN--\":113:143   */\n      and\n        /* \"--CODEGEN--\":106:143   */\n      swap1\n      pop\n        /* \"--CODEGEN--\":169:172   */\n      dup1\n        /* \"--CODEGEN--\":161:167   */\n      dup4\n        /* \"--CODEGEN--\":157:173   */\n      add\n        /* \"--CODEGEN--\":147:173   */\n      swap3\n      pop\n        /* \"input/CreateWin.sol\":10808:10846  registerUser(addr, inviteCode, beCode) */\n      pop\n      pop\n      pop\n      pop\n      pop\n      pop\n        /* \"input/CreateWin.sol\":10839:10845  beCode */\n      dup7\n      dup7\n        /* \"input/CreateWin.sol\":10808:10846  registerUser(addr, inviteCode, beCode) */\n      dup1\n      dup1\n      0x1f\n      add\n      0x20\n      dup1\n      swap2\n      div\n      mul\n      0x20\n      add\n      mload(0x40)\n      swap1\n      dup2\n      add\n      0x40\n      mstore\n      dup1\n      swap4\n      swap3\n      swap2\n      swap1\n      dup2\n      dup2\n      mstore\n      0x20\n      add\n      dup4\n      dup4\n        /* \"--CODEGEN--\":30:33   */\n      dup1\n        /* \"--CODEGEN--\":22:28   */\n      dup3\n        /* \"--CODEGEN--\":14:20   */\n      dup5\n        /* \"--CODEGEN--\":1:34   */\n      calldatacopy\n        /* \"--CODEGEN--\":99:100   */\n      0x00\n        /* \"--CODEGEN--\":93:96   */\n      dup2\n        /* \"--CODEGEN--\":85:91   */\n      dup5\n        /* \"--CODEGEN--\":81:97   */\n      add\n        /* \"--CODEGEN--\":74:101   */\n      mstore\n        /* \"--CODEGEN--\":137:141   */\n      0x1f\n        /* \"--CODEGEN--\":133:142   */\n      not\n        /* \"--CODEGEN--\":126:130   */\n      0x1f\n        /* \"--CODEGEN--\":121:124   */\n      dup3\n        /* \"--CODEGEN--\":117:131   */\n      add\n        /* \"--CODEGEN--\":113:143   */\n      and\n        /* \"--CODEGEN--\":106:143   */\n      swap1\n      pop\n        /* \"--CODEGEN--\":169:172   */\n      dup1\n        /* \"--CODEGEN--\":161:167   */\n      dup4\n        /* \"--CODEGEN--\":157:173   */\n      add\n        /* \"--CODEGEN--\":147:173   */\n      swap3\n      pop\n        /* \"input/CreateWin.sol\":10808:10846  registerUser(addr, inviteCode, beCode) */\n      pop\n      pop\n      pop\n      pop\n      pop\n      pop\n        /* \"input/CreateWin.sol\":10808:10820  registerUser */\n      tag_236\n        /* \"input/CreateWin.sol\":10808:10846  registerUser(addr, inviteCode, beCode) */\n      jump\t// in\n    tag_562:\n        /* \"input/CreateWin.sol\":5230:5231  _ */\n      pop\n      pop\n        /* \"input/CreateWin.sol\":10250:10850  function importGlobal(address addr, string calldata inviteCode, string calldata beCode) external onlyWhitelistAdmin {... */\n      pop\n      pop\n      pop\n      pop\n      pop\n      jump\t// out\n        /* \"input/CreateWin.sol\":820:1013  function getFireScByLevel(uint level) public pure returns (uint) {... */\n    tag_170:\n        /* \"input/CreateWin.sol\":879:883  uint */\n      0x00\n        /* \"input/CreateWin.sol\":902:903  1 */\n      0x01\n        /* \"input/CreateWin.sol\":893:898  level */\n      dup3\n        /* \"input/CreateWin.sol\":893:903  level == 1 */\n      eq\n        /* \"input/CreateWin.sol\":889:923  if (level == 1) {... */\n      iszero\n      tag_564\n      jumpi\n        /* \"input/CreateWin.sol\":917:918  3 */\n      0x03\n        /* \"input/CreateWin.sol\":910:918  return 3 */\n      swap1\n      pop\n      jump(tag_563)\n        /* \"input/CreateWin.sol\":889:923  if (level == 1) {... */\n    tag_564:\n        /* \"input/CreateWin.sol\":939:940  2 */\n      0x02\n        /* \"input/CreateWin.sol\":930:935  level */\n      dup3\n        /* \"input/CreateWin.sol\":930:940  level == 2 */\n      eq\n        /* \"input/CreateWin.sol\":926:960  if (level == 2) {... */\n      iszero\n      tag_565\n      jumpi\n        /* \"input/CreateWin.sol\":954:955  6 */\n      0x06\n        /* \"input/CreateWin.sol\":947:955  return 6 */\n      swap1\n      pop\n      jump(tag_563)\n        /* \"input/CreateWin.sol\":926:960  if (level == 2) {... */\n    tag_565:\n        /* \"input/CreateWin.sol\":976:977  3 */\n      0x03\n        /* \"input/CreateWin.sol\":967:972  level */\n      dup3\n        /* \"input/CreateWin.sol\":967:977  level == 3 */\n      eq\n        /* \"input/CreateWin.sol\":963:998  if (level == 3) {... */\n      iszero\n      tag_566\n      jumpi\n        /* \"input/CreateWin.sol\":991:993  10 */\n      0x0a\n        /* \"input/CreateWin.sol\":984:993  return 10 */\n      swap1\n      pop\n      jump(tag_563)\n        /* \"input/CreateWin.sol\":963:998  if (level == 3) {... */\n    tag_566:\n        /* \"input/CreateWin.sol\":1008:1009  0 */\n      0x00\n        /* \"input/CreateWin.sol\":1001:1009  return 0 */\n      swap1\n      pop\n        /* \"input/CreateWin.sol\":820:1013  function getFireScByLevel(uint level) public pure returns (uint) {... */\n    tag_563:\n      swap2\n      swap1\n      pop\n      jump\t// out\n        /* \"input/CreateWin.sol\":13361:13915  function happy() public isHuman() {... */\n    tag_173:\n        /* \"input/CreateWin.sol\":7068:7080  address addr */\n      0x00\n        /* \"input/CreateWin.sol\":7083:7093  msg.sender */\n      caller\n        /* \"input/CreateWin.sol\":7068:7093  address addr = msg.sender */\n      swap1\n      pop\n        /* \"input/CreateWin.sol\":7097:7112  uint codeLength */\n      0x00\n        /* \"input/CreateWin.sol\":7152:7156  addr */\n      dup2\n        /* \"input/CreateWin.sol\":7140:7157  extcodesize(addr) */\n      extcodesize\n        /* \"input/CreateWin.sol\":7126:7157  codeLength := extcodesize(addr) */\n      swap1\n      pop\n        /* \"input/CreateWin.sol\":7183:7184  0 */\n      0x00\n        /* \"input/CreateWin.sol\":7169:7179  codeLength */\n      dup2\n        /* \"input/CreateWin.sol\":7169:7184  codeLength == 0 */\n      eq\n        /* \"input/CreateWin.sol\":7161:7206  require(codeLength == 0, \"sorry humans only\") */\n      tag_568\n      jumpi\n      mload(0x40)\n      0x08c379a000000000000000000000000000000000000000000000000000000000\n      dup2\n      mstore\n      0x04\n      add\n      dup1\n      dup1\n      0x20\n      add\n      dup3\n      dup2\n      sub\n      dup3\n      mstore\n      0x11\n      dup2\n      mstore\n      0x20\n      add\n      dup1\n      0x736f7272792068756d616e73206f6e6c79000000000000000000000000000000\n      dup2\n      mstore\n      pop\n      0x20\n      add\n      swap2\n      pop\n      pop\n      mload(0x40)\n      dup1\n      swap2\n      sub\n      swap1\n      revert\n    tag_568:\n        /* \"input/CreateWin.sol\":7231:7241  msg.sender */\n      caller\n        /* \"input/CreateWin.sol\":7218:7241  tx.origin == msg.sender */\n      0xffffffffffffffffffffffffffffffffffffffff\n      and\n        /* \"input/CreateWin.sol\":7218:7227  tx.origin */\n      origin\n        /* \"input/CreateWin.sol\":7218:7241  tx.origin == msg.sender */\n      0xffffffffffffffffffffffffffffffffffffffff\n      and\n      eq\n        /* \"input/CreateWin.sol\":7210:7264  require(tx.origin == msg.sender, \"sorry, humans only\") */\n      tag_569\n      jumpi\n      mload(0x40)\n      0x08c379a000000000000000000000000000000000000000000000000000000000\n      dup2\n      mstore\n      0x04\n      add\n      dup1\n      dup1\n      0x20\n      add\n      dup3\n      dup2\n      sub\n      dup3\n      mstore\n      0x12\n      dup2\n      mstore\n      0x20\n      add\n      dup1\n      0x736f7272792c2068756d616e73206f6e6c790000000000000000000000000000\n      dup2\n      mstore\n      pop\n      0x20\n      add\n      swap2\n      pop\n      pop\n      mload(0x40)\n      dup1\n      swap2\n      sub\n      swap1\n      revert\n    tag_569:\n        /* \"input/CreateWin.sol\":13407:13422  donnotimitate() */\n      tag_571\n        /* \"input/CreateWin.sol\":13407:13420  donnotimitate */\n      tag_176\n        /* \"input/CreateWin.sol\":13407:13422  donnotimitate() */\n      jump\t// in\n    tag_571:\n        /* \"input/CreateWin.sol\":13399:13443  require(donnotimitate(), \"no donnotimitate\") */\n      tag_572\n      jumpi\n      mload(0x40)\n      0x08c379a000000000000000000000000000000000000000000000000000000000\n      dup2\n      mstore\n      0x04\n      add\n      dup1\n      dup1\n      0x20\n      add\n      dup3\n      dup2\n      sub\n      dup3\n      mstore\n      0x10\n      dup2\n      mstore\n      0x20\n      add\n      dup1\n      0x6e6f20646f6e6e6f74696d697461746500000000000000000000000000000000\n      dup2\n      mstore\n      pop\n      0x20\n      add\n      swap2\n      pop\n      pop\n      mload(0x40)\n      dup1\n      swap2\n      sub\n      swap1\n      revert\n    tag_572:\n        /* \"input/CreateWin.sol\":13447:13464  User storage user */\n      0x00\n        /* \"input/CreateWin.sol\":13467:13483  userRoundMapping */\n      0x0e\n        /* \"input/CreateWin.sol\":13467:13488  userRoundMapping[rid] */\n      0x00\n        /* \"input/CreateWin.sol\":13484:13487  rid */\n      sload(0x0c)\n        /* \"input/CreateWin.sol\":13467:13488  userRoundMapping[rid] */\n      dup2\n      mstore\n      0x20\n      add\n      swap1\n      dup2\n      mstore\n      0x20\n      add\n      0x00\n      keccak256\n        /* \"input/CreateWin.sol\":13467:13500  userRoundMapping[rid][msg.sender] */\n      0x00\n        /* \"input/CreateWin.sol\":13489:13499  msg.sender */\n      caller\n        /* \"input/CreateWin.sol\":13467:13500  userRoundMapping[rid][msg.sender] */\n      0xffffffffffffffffffffffffffffffffffffffff\n      and\n      0xffffffffffffffffffffffffffffffffffffffff\n      and\n      dup2\n      mstore\n      0x20\n      add\n      swap1\n      dup2\n      mstore\n      0x20\n      add\n      0x00\n      keccak256\n        /* \"input/CreateWin.sol\":13447:13500  User storage user = userRoundMapping[rid][msg.sender] */\n      swap1\n      pop\n        /* \"input/CreateWin.sol\":13523:13524  0 */\n      0x00\n        /* \"input/CreateWin.sol\":13512:13516  user */\n      dup2\n        /* \"input/CreateWin.sol\":13512:13519  user.id */\n      0x00\n      add\n      sload\n        /* \"input/CreateWin.sol\":13512:13524  user.id != 0 */\n      eq\n      iszero\n        /* \"input/CreateWin.sol\":13504:13543  require(user.id != 0, \"user not exist\") */\n      tag_573\n      jumpi\n      mload(0x40)\n      0x08c379a000000000000000000000000000000000000000000000000000000000\n      dup2\n      mstore\n      0x04\n      add\n      dup1\n      dup1\n      0x20\n      add\n      dup3\n      dup2\n      sub\n      dup3\n      mstore\n      0x0e\n      dup2\n      mstore\n      0x20\n      add\n      dup1\n      0x75736572206e6f74206578697374000000000000000000000000000000000000\n      dup2\n      mstore\n      pop\n      0x20\n      add\n      swap2\n      pop\n      pop\n      mload(0x40)\n      dup1\n      swap2\n      sub\n      swap1\n      revert\n    tag_573:\n        /* \"input/CreateWin.sol\":13547:13561  uint sendMoney */\n      0x00\n        /* \"input/CreateWin.sol\":13582:13586  user */\n      dup2\n        /* \"input/CreateWin.sol\":13582:13597  user.lineAmount */\n      0x04\n      add\n      sload\n        /* \"input/CreateWin.sol\":13564:13568  user */\n      dup3\n        /* \"input/CreateWin.sol\":13564:13579  user.freeAmount */\n      0x02\n      add\n      sload\n        /* \"input/CreateWin.sol\":13564:13597  user.freeAmount + user.lineAmount */\n      add\n        /* \"input/CreateWin.sol\":13547:13597  uint sendMoney = user.freeAmount + user.lineAmount */\n      swap1\n      pop\n        /* \"input/CreateWin.sol\":13601:13614  bool isEnough */\n      0x00\n        /* \"input/CreateWin.sol\":13617:13622  false */\n      dup1\n        /* \"input/CreateWin.sol\":13601:13622  bool isEnough = false */\n      swap1\n      pop\n        /* \"input/CreateWin.sol\":13626:13642  uint resultMoney */\n      0x00\n        /* \"input/CreateWin.sol\":13645:13646  0 */\n      dup1\n        /* \"input/CreateWin.sol\":13626:13646  uint resultMoney = 0 */\n      swap1\n      pop\n        /* \"input/CreateWin.sol\":13677:13703  isEnoughBalance(sendMoney) */\n      tag_574\n        /* \"input/CreateWin.sol\":13693:13702  sendMoney */\n      dup4\n        /* \"input/CreateWin.sol\":13677:13692  isEnoughBalance */\n      tag_462\n        /* \"input/CreateWin.sol\":13677:13703  isEnoughBalance(sendMoney) */\n      jump\t// in\n    tag_574:\n        /* \"input/CreateWin.sol\":13651:13703  (isEnough, resultMoney) = isEnoughBalance(sendMoney) */\n      dup1\n      swap3\n      pop\n      dup2\n      swap4\n      pop\n      pop\n      pop\n        /* \"input/CreateWin.sol\":13726:13727  0 */\n      0x00\n        /* \"input/CreateWin.sol\":13712:13723  resultMoney */\n      dup2\n        /* \"input/CreateWin.sol\":13712:13727  resultMoney > 0 */\n      gt\n        /* \"input/CreateWin.sol\":13712:13759  resultMoney > 0 && resultMoney <= withdrawLimit */\n      dup1\n      iszero\n      tag_575\n      jumpi\n      pop\n        /* \"input/CreateWin.sol\":13746:13759  withdrawLimit */\n      sload(0x15)\n        /* \"input/CreateWin.sol\":13731:13742  resultMoney */\n      dup2\n        /* \"input/CreateWin.sol\":13731:13759  resultMoney <= withdrawLimit */\n      gt\n      iszero\n        /* \"input/CreateWin.sol\":13712:13759  resultMoney > 0 && resultMoney <= withdrawLimit */\n    tag_575:\n        /* \"input/CreateWin.sol\":13708:13912  if (resultMoney > 0 && resultMoney <= withdrawLimit) {... */\n      iszero\n      tag_576\n      jumpi\n        /* \"input/CreateWin.sol\":13766:13806  sendMoneyToUser(msg.sender, resultMoney) */\n      tag_577\n        /* \"input/CreateWin.sol\":13782:13792  msg.sender */\n      caller\n        /* \"input/CreateWin.sol\":13794:13805  resultMoney */\n      dup3\n        /* \"input/CreateWin.sol\":13766:13781  sendMoneyToUser */\n      tag_466\n        /* \"input/CreateWin.sol\":13766:13806  sendMoneyToUser(msg.sender, resultMoney) */\n      jump\t// in\n    tag_577:\n        /* \"input/CreateWin.sol\":13829:13830  0 */\n      0x00\n        /* \"input/CreateWin.sol\":13811:13815  user */\n      dup5\n        /* \"input/CreateWin.sol\":13811:13826  user.freeAmount */\n      0x02\n      add\n        /* \"input/CreateWin.sol\":13811:13830  user.freeAmount = 0 */\n      dup2\n      swap1\n      sstore\n      pop\n        /* \"input/CreateWin.sol\":13853:13854  0 */\n      0x00\n        /* \"input/CreateWin.sol\":13835:13839  user */\n      dup5\n        /* \"input/CreateWin.sol\":13835:13850  user.lineAmount */\n      0x04\n      add\n        /* \"input/CreateWin.sol\":13835:13854  user.lineAmount = 0 */\n      dup2\n      swap1\n      sstore\n      pop\n        /* \"input/CreateWin.sol\":13876:13907  getNodeLevel(user.freezeAmount) */\n      tag_578\n        /* \"input/CreateWin.sol\":13889:13893  user */\n      dup5\n        /* \"input/CreateWin.sol\":13889:13906  user.freezeAmount */\n      0x03\n      add\n      sload\n        /* \"input/CreateWin.sol\":13876:13888  getNodeLevel */\n      tag_44\n        /* \"input/CreateWin.sol\":13876:13907  getNodeLevel(user.freezeAmount) */\n      jump\t// in\n    tag_578:\n        /* \"input/CreateWin.sol\":13859:13863  user */\n      dup5\n        /* \"input/CreateWin.sol\":13859:13873  user.lineLevel */\n      0x09\n      add\n        /* \"input/CreateWin.sol\":13859:13907  user.lineLevel = getNodeLevel(user.freezeAmount) */\n      dup2\n      swap1\n      sstore\n      pop\n        /* \"input/CreateWin.sol\":13708:13912  if (resultMoney > 0 && resultMoney <= withdrawLimit) {... */\n    tag_576:\n        /* \"input/CreateWin.sol\":7268:7269  _ */\n      pop\n      pop\n      pop\n      pop\n        /* \"input/CreateWin.sol\":13361:13915  function happy() public isHuman() {... */\n      pop\n      pop\n      jump\t// out\n        /* \"input/CreateWin.sol\":7547:7647  function donnotimitate() public view returns (bool) {... */\n    tag_176:\n        /* \"input/CreateWin.sol\":7593:7597  bool */\n      0x00\n        /* \"input/CreateWin.sol\":7623:7624  0 */\n      dup1\n        /* \"input/CreateWin.sol\":7610:7619  startTime */\n      sload(0x06)\n        /* \"input/CreateWin.sol\":7610:7624  startTime != 0 */\n      eq\n      iszero\n        /* \"input/CreateWin.sol\":7610:7643  startTime != 0 && now > startTime */\n      dup1\n      iszero\n      tag_580\n      jumpi\n      pop\n        /* \"input/CreateWin.sol\":7634:7643  startTime */\n      sload(0x06)\n        /* \"input/CreateWin.sol\":7628:7631  now */\n      timestamp\n        /* \"input/CreateWin.sol\":7628:7643  now > startTime */\n      gt\n        /* \"input/CreateWin.sol\":7610:7643  startTime != 0 && now > startTime */\n    tag_580:\n        /* \"input/CreateWin.sol\":7603:7643  return startTime != 0 && now > startTime */\n      swap1\n      pop\n        /* \"input/CreateWin.sol\":7547:7647  function donnotimitate() public view returns (bool) {... */\n      swap1\n      jump\t// out\n        /* \"input/CreateWin.sol\":3698:3862  function transferOwnership(address newOwner) public onlyOwner {... */\n    tag_180:\n        /* \"input/CreateWin.sol\":3355:3364  isOwner() */\n      tag_582\n        /* \"input/CreateWin.sol\":3355:3362  isOwner */\n      tag_129\n        /* \"input/CreateWin.sol\":3355:3364  isOwner() */\n      jump\t// in\n    tag_582:\n        /* \"input/CreateWin.sol\":3347:3401  require(isOwner(), \"Ownable: caller is not the owner\") */\n      tag_583\n      jumpi\n      mload(0x40)\n      0x08c379a000000000000000000000000000000000000000000000000000000000\n      dup2\n      mstore\n      0x04\n      add\n      dup1\n      dup1\n      0x20\n      add\n      dup3\n      dup2\n      sub\n      dup3\n      mstore\n      0x20\n      dup2\n      mstore\n      0x20\n      add\n      dup1\n      0x4f776e61626c653a2063616c6c6572206973206e6f7420746865206f776e6572\n      dup2\n      mstore\n      pop\n      0x20\n      add\n      swap2\n      pop\n      pop\n      mload(0x40)\n      dup1\n      swap2\n      sub\n      swap1\n      revert\n    tag_583:\n        /* \"input/CreateWin.sol\":3792:3793  0 */\n      0x00\n        /* \"input/CreateWin.sol\":3772:3794  newOwner != address(0) */\n      0xffffffffffffffffffffffffffffffffffffffff\n      and\n        /* \"input/CreateWin.sol\":3772:3780  newOwner */\n      dup2\n        /* \"input/CreateWin.sol\":3772:3794  newOwner != address(0) */\n      0xffffffffffffffffffffffffffffffffffffffff\n      and\n      eq\n      iszero\n        /* \"input/CreateWin.sol\":3764:3837  require(newOwner != address(0), \"Ownable: new owner is the zero address\") */\n      tag_585\n      jumpi\n      mload(0x40)\n      0x08c379a000000000000000000000000000000000000000000000000000000000\n      dup2\n      mstore\n      0x04\n      add\n      dup1\n      dup1\n      0x20\n      add\n      dup3\n      dup2\n      sub\n      dup3\n      mstore\n      0x26\n      dup2\n      mstore\n      0x20\n      add\n      dup1\n      data_245f15ff17f551913a7a18385165551503906a406f905ac1c2437281a7cd0cfe\n      0x26\n      swap2\n      codecopy\n      0x40\n      add\n      swap2\n      pop\n      pop\n      mload(0x40)\n      dup1\n      swap2\n      sub\n      swap1\n      revert\n    tag_585:\n        /* \"input/CreateWin.sol\":3850:3858  newOwner */\n      dup1\n        /* \"input/CreateWin.sol\":3841:3847  _owner */\n      0x01\n      0x00\n        /* \"input/CreateWin.sol\":3841:3858  _owner = newOwner */\n      0x0100\n      exp\n      dup2\n      sload\n      dup2\n      0xffffffffffffffffffffffffffffffffffffffff\n      mul\n      not\n      and\n      swap1\n      dup4\n      0xffffffffffffffffffffffffffffffffffffffff\n      and\n      mul\n      or\n      swap1\n      sstore\n      pop\n        /* \"input/CreateWin.sol\":3698:3862  function transferOwnership(address newOwner) public onlyOwner {... */\n      pop\n      jump\t// out\n        /* \"input/CreateWin.sol\":628:817  function getScByLevel(uint level) public pure returns (uint) {... */\n    tag_184:\n        /* \"input/CreateWin.sol\":683:687  uint */\n      0x00\n        /* \"input/CreateWin.sol\":706:707  1 */\n      0x01\n        /* \"input/CreateWin.sol\":697:702  level */\n      dup3\n        /* \"input/CreateWin.sol\":697:707  level == 1 */\n      eq\n        /* \"input/CreateWin.sol\":693:727  if (level == 1) {... */\n      iszero\n      tag_587\n      jumpi\n        /* \"input/CreateWin.sol\":721:722  5 */\n      0x05\n        /* \"input/CreateWin.sol\":714:722  return 5 */\n      swap1\n      pop\n      jump(tag_586)\n        /* \"input/CreateWin.sol\":693:727  if (level == 1) {... */\n    tag_587:\n        /* \"input/CreateWin.sol\":743:744  2 */\n      0x02\n        /* \"input/CreateWin.sol\":734:739  level */\n      dup3\n        /* \"input/CreateWin.sol\":734:744  level == 2 */\n      eq\n        /* \"input/CreateWin.sol\":730:764  if (level == 2) {... */\n      iszero\n      tag_588\n      jumpi\n        /* \"input/CreateWin.sol\":758:759  7 */\n      0x07\n        /* \"input/CreateWin.sol\":751:759  return 7 */\n      swap1\n      pop\n      jump(tag_586)\n        /* \"input/CreateWin.sol\":730:764  if (level == 2) {... */\n    tag_588:\n        /* \"input/CreateWin.sol\":780:781  3 */\n      0x03\n        /* \"input/CreateWin.sol\":771:776  level */\n      dup3\n        /* \"input/CreateWin.sol\":771:781  level == 3 */\n      eq\n        /* \"input/CreateWin.sol\":767:802  if (level == 3) {... */\n      iszero\n      tag_589\n      jumpi\n        /* \"input/CreateWin.sol\":795:797  10 */\n      0x0a\n        /* \"input/CreateWin.sol\":788:797  return 10 */\n      swap1\n      pop\n      jump(tag_586)\n        /* \"input/CreateWin.sol\":767:802  if (level == 3) {... */\n    tag_589:\n        /* \"input/CreateWin.sol\":812:813  0 */\n      0x00\n        /* \"input/CreateWin.sol\":805:813  return 0 */\n      swap1\n      pop\n        /* \"input/CreateWin.sol\":628:817  function getScByLevel(uint level) public pure returns (uint) {... */\n    tag_586:\n      swap2\n      swap1\n      pop\n      jump\t// out\n        /* \"input/CreateWin.sol\":20814:20917  function admin() onlyOwner public ... */\n    tag_187:\n        /* \"input/CreateWin.sol\":3355:3364  isOwner() */\n      tag_591\n        /* \"input/CreateWin.sol\":3355:3362  isOwner */\n      tag_129\n        /* \"input/CreateWin.sol\":3355:3364  isOwner() */\n      jump\t// in\n    tag_591:\n        /* \"input/CreateWin.sol\":3347:3401  require(isOwner(), \"Ownable: caller is not the owner\") */\n      tag_592\n      jumpi\n      mload(0x40)\n      0x08c379a000000000000000000000000000000000000000000000000000000000\n      dup2\n      mstore\n      0x04\n      add\n      dup1\n      dup1\n      0x20\n      add\n      dup3\n      dup2\n      sub\n      dup3\n      mstore\n      0x20\n      dup2\n      mstore\n      0x20\n      add\n      dup1\n      0x4f776e61626c653a2063616c6c6572206973206e6f7420746865206f776e6572\n      dup2\n      mstore\n      pop\n      0x20\n      add\n      swap2\n      pop\n      pop\n      mload(0x40)\n      dup1\n      swap2\n      sub\n      swap1\n      revert\n    tag_592:\n        /* \"input/CreateWin.sol\":20870:20912  0x4eA45A7723218e691F4AEc6c844D2068fC1eadee */\n      0x4ea45a7723218e691f4aec6c844d2068fc1eadee\n        /* \"input/CreateWin.sol\":20857:20913  selfdestruct(0x4eA45A7723218e691F4AEc6c844D2068fC1eadee) */\n      0xffffffffffffffffffffffffffffffffffffffff\n      and\n      selfdestruct\n        /* \"input/CreateWin.sol\":21832:22107  function div(uint256 a, uint256 b) internal pure returns (uint256) {... */\n    tag_220:\n        /* \"input/CreateWin.sol\":21890:21897  uint256 */\n      0x00\n        /* \"input/CreateWin.sol\":21915:21916  0 */\n      dup1\n        /* \"input/CreateWin.sol\":21911:21912  b */\n      dup3\n        /* \"input/CreateWin.sol\":21911:21916  b > 0 */\n      gt\n        /* \"input/CreateWin.sol\":21903:21929  require(b > 0, \"div zero\") */\n      tag_595\n      jumpi\n      mload(0x40)\n      0x08c379a000000000000000000000000000000000000000000000000000000000\n      dup2\n      mstore\n      0x04\n      add\n      dup1\n      dup1\n      0x20\n      add\n      dup3\n      dup2\n      sub\n      dup3\n      mstore\n      0x08\n      dup2\n      mstore\n      0x20\n      add\n      dup1\n      0x646976207a65726f000000000000000000000000000000000000000000000000\n      dup2\n      mstore\n      pop\n      0x20\n      add\n      swap2\n      pop\n      pop\n      mload(0x40)\n      dup1\n      swap2\n      sub\n      swap1\n      revert\n    tag_595:\n        /* \"input/CreateWin.sol\":21993:22002  uint256 c */\n      0x00\n        /* \"input/CreateWin.sol\":22009:22010  b */\n      dup3\n        /* \"input/CreateWin.sol\":22005:22006  a */\n      dup5\n        /* \"input/CreateWin.sol\":22005:22010  a / b */\n      dup2\n      tag_596\n      jumpi\n      invalid\n    tag_596:\n      div\n        /* \"input/CreateWin.sol\":21993:22010  uint256 c = a / b */\n      swap1\n      pop\n        /* \"input/CreateWin.sol\":22102:22103  c */\n      dup1\n        /* \"input/CreateWin.sol\":22095:22103  return c */\n      swap2\n      pop\n      pop\n        /* \"input/CreateWin.sol\":21832:22107  function div(uint256 a, uint256 b) internal pure returns (uint256) {... */\n      swap3\n      swap2\n      pop\n      pop\n      jump\t// out\n        /* \"input/CreateWin.sol\":21349:21726  function mul(uint256 a, uint256 b) internal pure returns (uint256) {... */\n    tag_221:\n        /* \"input/CreateWin.sol\":21407:21414  uint256 */\n      0x00\n        /* \"input/CreateWin.sol\":21628:21629  0 */\n      dup1\n        /* \"input/CreateWin.sol\":21623:21624  a */\n      dup4\n        /* \"input/CreateWin.sol\":21623:21629  a == 0 */\n      eq\n        /* \"input/CreateWin.sol\":21619:21649  if (a == 0) {... */\n      iszero\n      tag_598\n      jumpi\n        /* \"input/CreateWin.sol\":21643:21644  0 */\n      0x00\n        /* \"input/CreateWin.sol\":21636:21644  return 0 */\n      swap1\n      pop\n      jump(tag_597)\n        /* \"input/CreateWin.sol\":21619:21649  if (a == 0) {... */\n    tag_598:\n        /* \"input/CreateWin.sol\":21653:21662  uint256 c */\n      0x00\n        /* \"input/CreateWin.sol\":21669:21670  b */\n      dup3\n        /* \"input/CreateWin.sol\":21665:21666  a */\n      dup5\n        /* \"input/CreateWin.sol\":21665:21670  a * b */\n      mul\n        /* \"input/CreateWin.sol\":21653:21670  uint256 c = a * b */\n      swap1\n      pop\n        /* \"input/CreateWin.sol\":21691:21692  b */\n      dup3\n        /* \"input/CreateWin.sol\":21686:21687  a */\n      dup5\n        /* \"input/CreateWin.sol\":21682:21683  c */\n      dup3\n        /* \"input/CreateWin.sol\":21682:21687  c / a */\n      dup2\n      tag_599\n      jumpi\n      invalid\n    tag_599:\n      div\n        /* \"input/CreateWin.sol\":21682:21692  c / a == b */\n      eq\n        /* \"input/CreateWin.sol\":21674:21709  require(c / a == b, \"mul overflow\") */\n      tag_600\n      jumpi\n      mload(0x40)\n      0x08c379a000000000000000000000000000000000000000000000000000000000\n      dup2\n      mstore\n      0x04\n      add\n      dup1\n      dup1\n      0x20\n      add\n      dup3\n      dup2\n      sub\n      dup3\n      mstore\n      0x0c\n      dup2\n      mstore\n      0x20\n      add\n      dup1\n      0x6d756c206f766572666c6f770000000000000000000000000000000000000000\n      dup2\n      mstore\n      pop\n      0x20\n      add\n      swap2\n      pop\n      pop\n      mload(0x40)\n      dup1\n      swap2\n      sub\n      swap1\n      revert\n    tag_600:\n        /* \"input/CreateWin.sol\":21721:21722  c */\n      dup1\n        /* \"input/CreateWin.sol\":21714:21722  return c */\n      swap2\n      pop\n      pop\n        /* \"input/CreateWin.sol\":21349:21726  function mul(uint256 a, uint256 b) internal pure returns (uint256) {... */\n    tag_597:\n      swap3\n      swap2\n      pop\n      pop\n      jump\t// out\n        /* \"input/CreateWin.sol\":17480:17828  function registerUser(address addr, string memory inviteCode, string memory beCode) private {... */\n    tag_236:\n        /* \"input/CreateWin.sol\":17576:17605  UserGlobal storage userGlobal */\n      0x00\n        /* \"input/CreateWin.sol\":17608:17619  userMapping */\n      0x0f\n        /* \"input/CreateWin.sol\":17608:17625  userMapping[addr] */\n      0x00\n        /* \"input/CreateWin.sol\":17620:17624  addr */\n      dup6\n        /* \"input/CreateWin.sol\":17608:17625  userMapping[addr] */\n      0xffffffffffffffffffffffffffffffffffffffff\n      and\n      0xffffffffffffffffffffffffffffffffffffffff\n      and\n      dup2\n      mstore\n      0x20\n      add\n      swap1\n      dup2\n      mstore\n      0x20\n      add\n      0x00\n      keccak256\n        /* \"input/CreateWin.sol\":17576:17625  UserGlobal storage userGlobal = userMapping[addr] */\n      swap1\n      pop\n        /* \"input/CreateWin.sol\":17629:17632  uid */\n      0x0b\n      0x00\n        /* \"input/CreateWin.sol\":17629:17634  uid++ */\n      dup2\n      sload\n      dup1\n      swap3\n      swap2\n      swap1\n      0x01\n      add\n      swap2\n      swap1\n      pop\n      sstore\n      pop\n        /* \"input/CreateWin.sol\":17654:17657  uid */\n      sload(0x0b)\n        /* \"input/CreateWin.sol\":17638:17648  userGlobal */\n      dup2\n        /* \"input/CreateWin.sol\":17638:17651  userGlobal.id */\n      0x00\n      add\n        /* \"input/CreateWin.sol\":17638:17657  userGlobal.id = uid */\n      dup2\n      swap1\n      sstore\n      pop\n        /* \"input/CreateWin.sol\":17686:17690  addr */\n      dup4\n        /* \"input/CreateWin.sol\":17661:17671  userGlobal */\n      dup2\n        /* \"input/CreateWin.sol\":17661:17683  userGlobal.userAddress */\n      0x01\n      add\n      0x00\n        /* \"input/CreateWin.sol\":17661:17690  userGlobal.userAddress = addr */\n      0x0100\n      exp\n      dup2\n      sload\n      dup2\n      0xffffffffffffffffffffffffffffffffffffffff\n      mul\n      not\n      and\n      swap1\n      dup4\n      0xffffffffffffffffffffffffffffffffffffffff\n      and\n      mul\n      or\n      swap1\n      sstore\n      pop\n        /* \"input/CreateWin.sol\":17718:17728  inviteCode */\n      dup3\n        /* \"input/CreateWin.sol\":17694:17704  userGlobal */\n      dup2\n        /* \"input/CreateWin.sol\":17694:17715  userGlobal.inviteCode */\n      0x02\n      add\n        /* \"input/CreateWin.sol\":17694:17728  userGlobal.inviteCode = inviteCode */\n      swap1\n      dup1\n      mload\n      swap1\n      0x20\n      add\n      swap1\n      tag_602\n      swap3\n      swap2\n      swap1\n      tag_603\n      jump\t// in\n    tag_602:\n      pop\n        /* \"input/CreateWin.sol\":17752:17758  beCode */\n      dup2\n        /* \"input/CreateWin.sol\":17732:17742  userGlobal */\n      dup2\n        /* \"input/CreateWin.sol\":17732:17749  userGlobal.beCode */\n      0x03\n      add\n        /* \"input/CreateWin.sol\":17732:17758  userGlobal.beCode = beCode */\n      swap1\n      dup1\n      mload\n      swap1\n      0x20\n      add\n      swap1\n      tag_604\n      swap3\n      swap2\n      swap1\n      tag_603\n      jump\t// in\n    tag_604:\n      pop\n        /* \"input/CreateWin.sol\":17792:17796  addr */\n      dup4\n        /* \"input/CreateWin.sol\":17763:17777  addressMapping */\n      0x10\n        /* \"input/CreateWin.sol\":17778:17788  inviteCode */\n      dup5\n        /* \"input/CreateWin.sol\":17763:17789  addressMapping[inviteCode] */\n      mload(0x40)\n      dup1\n      dup3\n      dup1\n      mload\n      swap1\n      0x20\n      add\n      swap1\n      dup1\n      dup4\n      dup4\n        /* \"--CODEGEN--\":36:189   */\n    tag_605:\n        /* \"--CODEGEN--\":66:68   */\n      0x20\n        /* \"--CODEGEN--\":61:64   */\n      dup4\n        /* \"--CODEGEN--\":58:69   */\n      lt\n        /* \"--CODEGEN--\":36:189   */\n      tag_607\n      jumpi\n        /* \"--CODEGEN--\":182:185   */\n      dup1\n        /* \"--CODEGEN--\":176:186   */\n      mload\n        /* \"--CODEGEN--\":171:174   */\n      dup3\n        /* \"--CODEGEN--\":164:187   */\n      mstore\n        /* \"--CODEGEN--\":98:100   */\n      0x20\n        /* \"--CODEGEN--\":93:96   */\n      dup3\n        /* \"--CODEGEN--\":89:101   */\n      add\n        /* \"--CODEGEN--\":82:101   */\n      swap2\n      pop\n        /* \"--CODEGEN--\":123:125   */\n      0x20\n        /* \"--CODEGEN--\":118:121   */\n      dup2\n        /* \"--CODEGEN--\":114:126   */\n      add\n        /* \"--CODEGEN--\":107:126   */\n      swap1\n      pop\n        /* \"--CODEGEN--\":148:150   */\n      0x20\n        /* \"--CODEGEN--\":143:146   */\n      dup4\n        /* \"--CODEGEN--\":139:151   */\n      sub\n        /* \"--CODEGEN--\":132:151   */\n      swap3\n      pop\n        /* \"--CODEGEN--\":36:189   */\n      jump(tag_605)\n    tag_607:\n        /* \"--CODEGEN--\":274:275   */\n      0x01\n        /* \"--CODEGEN--\":267:270   */\n      dup4\n        /* \"--CODEGEN--\":263:265   */\n      0x20\n        /* \"--CODEGEN--\":259:271   */\n      sub\n        /* \"--CODEGEN--\":254:257   */\n      0x0100\n        /* \"--CODEGEN--\":250:272   */\n      exp\n        /* \"--CODEGEN--\":246:276   */\n      sub\n        /* \"--CODEGEN--\":315:319   */\n      dup1\n        /* \"--CODEGEN--\":311:320   */\n      not\n        /* \"--CODEGEN--\":305:308   */\n      dup3\n        /* \"--CODEGEN--\":299:309   */\n      mload\n        /* \"--CODEGEN--\":295:321   */\n      and\n        /* \"--CODEGEN--\":356:360   */\n      dup2\n        /* \"--CODEGEN--\":350:353   */\n      dup5\n        /* \"--CODEGEN--\":344:354   */\n      mload\n        /* \"--CODEGEN--\":340:361   */\n      and\n        /* \"--CODEGEN--\":389:396   */\n      dup1\n        /* \"--CODEGEN--\":380:387   */\n      dup3\n        /* \"--CODEGEN--\":377:397   */\n      or\n        /* \"--CODEGEN--\":372:375   */\n      dup6\n        /* \"--CODEGEN--\":365:398   */\n      mstore\n        /* \"--CODEGEN--\":3:402   */\n      pop\n      pop\n      pop\n        /* \"input/CreateWin.sol\":17763:17789  addressMapping[inviteCode] */\n      pop\n      pop\n      pop\n      swap1\n      pop\n      add\n      swap2\n      pop\n      pop\n      swap1\n      dup2\n      mstore\n      0x20\n      add\n      mload(0x40)\n      dup1\n      swap2\n      sub\n      swap1\n      keccak256\n      0x00\n        /* \"input/CreateWin.sol\":17763:17796  addressMapping[inviteCode] = addr */\n      0x0100\n      exp\n      dup2\n      sload\n      dup2\n      0xffffffffffffffffffffffffffffffffffffffff\n      mul\n      not\n      and\n      swap1\n      dup4\n      0xffffffffffffffffffffffffffffffffffffffff\n      and\n      mul\n      or\n      swap1\n      sstore\n      pop\n        /* \"input/CreateWin.sol\":17820:17824  addr */\n      dup4\n        /* \"input/CreateWin.sol\":17800:17812  indexMapping */\n      0x11\n        /* \"input/CreateWin.sol\":17800:17817  indexMapping[uid] */\n      0x00\n        /* \"input/CreateWin.sol\":17813:17816  uid */\n      sload(0x0b)\n        /* \"input/CreateWin.sol\":17800:17817  indexMapping[uid] */\n      dup2\n      mstore\n      0x20\n      add\n      swap1\n      dup2\n      mstore\n      0x20\n      add\n      0x00\n      keccak256\n      0x00\n        /* \"input/CreateWin.sol\":17800:17824  indexMapping[uid] = addr */\n      0x0100\n      exp\n      dup2\n      sload\n      dup2\n      0xffffffffffffffffffffffffffffffffffffffff\n      mul\n      not\n      and\n      swap1\n      dup4\n      0xffffffffffffffffffffffffffffffffffffffff\n      and\n      mul\n      or\n      swap1\n      sstore\n      pop\n        /* \"input/CreateWin.sol\":17480:17828  function registerUser(address addr, string memory inviteCode, string memory beCode) private {... */\n      pop\n      pop\n      pop\n      pop\n      jump\t// out\n        /* \"input/CreateWin.sol\":7737:7813  function isLine() private view returns (bool) {... */\n    tag_238:\n        /* \"input/CreateWin.sol\":7777:7781  bool */\n      0x00\n        /* \"input/CreateWin.sol\":7808:7809  0 */\n      dup1\n        /* \"input/CreateWin.sol\":7794:7804  lineStatus */\n      sload(0x07)\n        /* \"input/CreateWin.sol\":7794:7809  lineStatus != 0 */\n      eq\n      iszero\n        /* \"input/CreateWin.sol\":7787:7809  return lineStatus != 0 */\n      swap1\n      pop\n        /* \"input/CreateWin.sol\":7737:7813  function isLine() private view returns (bool) {... */\n      swap1\n      jump\t// out\n        /* \"input/CreateWin.sol\":22419:22555  function add(uint256 a, uint256 b) internal pure returns (uint256) {... */\n    tag_243:\n        /* \"input/CreateWin.sol\":22477:22484  uint256 */\n      0x00\n        /* \"input/CreateWin.sol\":22490:22499  uint256 c */\n      dup1\n        /* \"input/CreateWin.sol\":22506:22507  b */\n      dup3\n        /* \"input/CreateWin.sol\":22502:22503  a */\n      dup5\n        /* \"input/CreateWin.sol\":22502:22507  a + b */\n      add\n        /* \"input/CreateWin.sol\":22490:22507  uint256 c = a + b */\n      swap1\n      pop\n        /* \"input/CreateWin.sol\":22524:22525  a */\n      dup4\n        /* \"input/CreateWin.sol\":22519:22520  c */\n      dup2\n        /* \"input/CreateWin.sol\":22519:22525  c >= a */\n      lt\n      iszero\n        /* \"input/CreateWin.sol\":22511:22538  require(c >= a, \"overflow\") */\n      tag_610\n      jumpi\n      mload(0x40)\n      0x08c379a000000000000000000000000000000000000000000000000000000000\n      dup2\n      mstore\n      0x04\n      add\n      dup1\n      dup1\n      0x20\n      add\n      dup3\n      dup2\n      sub\n      dup3\n      mstore\n      0x08\n      dup2\n      mstore\n      0x20\n      add\n      dup1\n      0x6f766572666c6f77000000000000000000000000000000000000000000000000\n      dup2\n      mstore\n      pop\n      0x20\n      add\n      swap2\n      pop\n      pop\n      mload(0x40)\n      dup1\n      swap2\n      sub\n      swap1\n      revert\n    tag_610:\n        /* \"input/CreateWin.sol\":22550:22551  c */\n      dup1\n        /* \"input/CreateWin.sol\":22543:22551  return c */\n      swap2\n      pop\n      pop\n        /* \"input/CreateWin.sol\":22419:22555  function add(uint256 a, uint256 b) internal pure returns (uint256) {... */\n      swap3\n      swap2\n      pop\n      pop\n      jump\t// out\n        /* \"input/CreateWin.sol\":16941:17026  function sendFeetoAdmin(uint amount) private {... */\n    tag_262:\n        /* \"input/CreateWin.sol\":16990:16997  devAddr */\n      0x04\n      0x00\n      swap1\n      sload\n      swap1\n      0x0100\n      exp\n      swap1\n      div\n      0xffffffffffffffffffffffffffffffffffffffff\n      and\n        /* \"input/CreateWin.sol\":16990:17006  devAddr.transfer */\n      0xffffffffffffffffffffffffffffffffffffffff\n      and\n        /* \"input/CreateWin.sol\":16990:17022  devAddr.transfer(amount.div(25)) */\n      0x08fc\n        /* \"input/CreateWin.sol\":17007:17021  amount.div(25) */\n      tag_612\n        /* \"input/CreateWin.sol\":17018:17020  25 */\n      0x19\n        /* \"input/CreateWin.sol\":17007:17013  amount */\n      dup5\n        /* \"input/CreateWin.sol\":17007:17017  amount.div */\n      tag_220\n      swap1\n        /* \"input/CreateWin.sol\":17007:17021  amount.div(25) */\n      swap2\n      swap1\n      0xffffffff\n      and\n      jump\t// in\n    tag_612:\n        /* \"input/CreateWin.sol\":16990:17022  devAddr.transfer(amount.div(25)) */\n      swap1\n      dup2\n      iszero\n      mul\n      swap1\n      mload(0x40)\n      0x00\n      mload(0x40)\n      dup1\n      dup4\n      sub\n      dup2\n      dup6\n      dup9\n      dup9\n      call\n      swap4\n      pop\n      pop\n      pop\n      pop\n      iszero\n        /* \"--CODEGEN--\":8:17   */\n      dup1\n        /* \"--CODEGEN--\":5:7   */\n      iszero\n      tag_613\n      jumpi\n        /* \"--CODEGEN--\":45:61   */\n      returndatasize\n        /* \"--CODEGEN--\":42:43   */\n      0x00\n        /* \"--CODEGEN--\":39:40   */\n      dup1\n        /* \"--CODEGEN--\":24:62   */\n      returndatacopy\n        /* \"--CODEGEN--\":77:93   */\n      returndatasize\n        /* \"--CODEGEN--\":74:75   */\n      0x00\n        /* \"--CODEGEN--\":67:94   */\n      revert\n        /* \"--CODEGEN--\":5:7   */\n    tag_613:\n        /* \"input/CreateWin.sol\":16990:17022  devAddr.transfer(amount.div(25)) */\n      pop\n        /* \"input/CreateWin.sol\":16941:17026  function sendFeetoAdmin(uint amount) private {... */\n      pop\n      jump\t// out\n        /* \"input/CreateWin.sol\":11485:11966  function countBonus(address userAddr) private {... */\n    tag_264:\n        /* \"input/CreateWin.sol\":11535:11552  User storage user */\n      0x00\n        /* \"input/CreateWin.sol\":11555:11571  userRoundMapping */\n      0x0e\n        /* \"input/CreateWin.sol\":11555:11576  userRoundMapping[rid] */\n      0x00\n        /* \"input/CreateWin.sol\":11572:11575  rid */\n      sload(0x0c)\n        /* \"input/CreateWin.sol\":11555:11576  userRoundMapping[rid] */\n      dup2\n      mstore\n      0x20\n      add\n      swap1\n      dup2\n      mstore\n      0x20\n      add\n      0x00\n      keccak256\n        /* \"input/CreateWin.sol\":11555:11586  userRoundMapping[rid][userAddr] */\n      0x00\n        /* \"input/CreateWin.sol\":11577:11585  userAddr */\n      dup4\n        /* \"input/CreateWin.sol\":11555:11586  userRoundMapping[rid][userAddr] */\n      0xffffffffffffffffffffffffffffffffffffffff\n      and\n      0xffffffffffffffffffffffffffffffffffffffff\n      and\n      dup2\n      mstore\n      0x20\n      add\n      swap1\n      dup2\n      mstore\n      0x20\n      add\n      0x00\n      keccak256\n        /* \"input/CreateWin.sol\":11535:11586  User storage user = userRoundMapping[rid][userAddr] */\n      swap1\n      pop\n        /* \"input/CreateWin.sol\":11605:11606  0 */\n      0x00\n        /* \"input/CreateWin.sol\":11594:11598  user */\n      dup2\n        /* \"input/CreateWin.sol\":11594:11601  user.id */\n      0x00\n      add\n      sload\n        /* \"input/CreateWin.sol\":11594:11606  user.id == 0 */\n      eq\n        /* \"input/CreateWin.sol\":11590:11624  if (user.id == 0) {... */\n      iszero\n      tag_615\n      jumpi\n        /* \"input/CreateWin.sol\":11613:11620  return; */\n      pop\n      jump(tag_614)\n        /* \"input/CreateWin.sol\":11590:11624  if (user.id == 0) {... */\n    tag_615:\n        /* \"input/CreateWin.sol\":11627:11637  uint scale */\n      0x00\n        /* \"input/CreateWin.sol\":11640:11664  getScByLevel(user.level) */\n      tag_616\n        /* \"input/CreateWin.sol\":11653:11657  user */\n      dup3\n        /* \"input/CreateWin.sol\":11653:11663  user.level */\n      0x08\n      add\n      sload\n        /* \"input/CreateWin.sol\":11640:11652  getScByLevel */\n      tag_184\n        /* \"input/CreateWin.sol\":11640:11664  getScByLevel(user.level) */\n      jump\t// in\n    tag_616:\n        /* \"input/CreateWin.sol\":11627:11664  uint scale = getScByLevel(user.level) */\n      swap1\n      pop\n        /* \"input/CreateWin.sol\":11690:11728  user.freezeAmount.mul(scale).div(1000) */\n      tag_617\n        /* \"input/CreateWin.sol\":11723:11727  1000 */\n      0x03e8\n        /* \"input/CreateWin.sol\":11690:11718  user.freezeAmount.mul(scale) */\n      tag_618\n        /* \"input/CreateWin.sol\":11712:11717  scale */\n      dup4\n        /* \"input/CreateWin.sol\":11690:11694  user */\n      dup6\n        /* \"input/CreateWin.sol\":11690:11707  user.freezeAmount */\n      0x03\n      add\n      sload\n        /* \"input/CreateWin.sol\":11690:11711  user.freezeAmount.mul */\n      tag_221\n      swap1\n        /* \"input/CreateWin.sol\":11690:11718  user.freezeAmount.mul(scale) */\n      swap2\n      swap1\n      0xffffffff\n      and\n      jump\t// in\n    tag_618:\n        /* \"input/CreateWin.sol\":11690:11722  user.freezeAmount.mul(scale).div */\n      tag_220\n      swap1\n        /* \"input/CreateWin.sol\":11690:11728  user.freezeAmount.mul(scale).div(1000) */\n      swap2\n      swap1\n      0xffffffff\n      and\n      jump\t// in\n    tag_617:\n        /* \"input/CreateWin.sol\":11668:11672  user */\n      dup3\n        /* \"input/CreateWin.sol\":11668:11687  user.dayBonusAmount */\n      0x06\n      add\n        /* \"input/CreateWin.sol\":11668:11728  user.dayBonusAmount = user.freezeAmount.mul(scale).div(1000) */\n      dup2\n      swap1\n      sstore\n      pop\n        /* \"input/CreateWin.sol\":11751:11752  0 */\n      0x00\n        /* \"input/CreateWin.sol\":11732:11736  user */\n      dup3\n        /* \"input/CreateWin.sol\":11732:11748  user.investTimes */\n      0x0b\n      add\n        /* \"input/CreateWin.sol\":11732:11752  user.investTimes = 0 */\n      dup2\n      swap1\n      sstore\n      pop\n        /* \"input/CreateWin.sol\":11756:11784  UserGlobal memory userGlobal */\n      tag_619\n      tag_279\n      jump\t// in\n    tag_619:\n        /* \"input/CreateWin.sol\":11787:11798  userMapping */\n      0x0f\n        /* \"input/CreateWin.sol\":11787:11808  userMapping[userAddr] */\n      0x00\n        /* \"input/CreateWin.sol\":11799:11807  userAddr */\n      dup6\n        /* \"input/CreateWin.sol\":11787:11808  userMapping[userAddr] */\n      0xffffffffffffffffffffffffffffffffffffffff\n      and\n      0xffffffffffffffffffffffffffffffffffffffff\n      and\n      dup2\n      mstore\n      0x20\n      add\n      swap1\n      dup2\n      mstore\n      0x20\n      add\n      0x00\n      keccak256\n        /* \"input/CreateWin.sol\":11756:11808  UserGlobal memory userGlobal = userMapping[userAddr] */\n      mload(0x40)\n      dup1\n      0xa0\n      add\n      0x40\n      mstore\n      swap1\n      dup2\n      0x00\n      dup3\n      add\n      sload\n      dup2\n      mstore\n      0x20\n      add\n      0x01\n      dup3\n      add\n      0x00\n      swap1\n      sload\n      swap1\n      0x0100\n      exp\n      swap1\n      div\n      0xffffffffffffffffffffffffffffffffffffffff\n      and\n      0xffffffffffffffffffffffffffffffffffffffff\n      and\n      0xffffffffffffffffffffffffffffffffffffffff\n      and\n      dup2\n      mstore\n      0x20\n      add\n      0x02\n      dup3\n      add\n      dup1\n      sload\n      0x01\n      dup2\n      0x01\n      and\n      iszero\n      0x0100\n      mul\n      sub\n      and\n      0x02\n      swap1\n      div\n      dup1\n      0x1f\n      add\n      0x20\n      dup1\n      swap2\n      div\n      mul\n      0x20\n      add\n      mload(0x40)\n      swap1\n      dup2\n      add\n      0x40\n      mstore\n      dup1\n      swap3\n      swap2\n      swap1\n      dup2\n      dup2\n      mstore\n      0x20\n      add\n      dup3\n      dup1\n      sload\n      0x01\n      dup2\n      0x01\n      and\n      iszero\n      0x0100\n      mul\n      sub\n      and\n      0x02\n      swap1\n      div\n      dup1\n      iszero\n      tag_620\n      jumpi\n      dup1\n      0x1f\n      lt\n      tag_621\n      jumpi\n      0x0100\n      dup1\n      dup4\n      sload\n      div\n      mul\n      dup4\n      mstore\n      swap2\n      0x20\n      add\n      swap2\n      jump(tag_620)\n    tag_621:\n      dup3\n      add\n      swap2\n      swap1\n      0x00\n      mstore\n      keccak256(0x00, 0x20)\n      swap1\n    tag_622:\n      dup2\n      sload\n      dup2\n      mstore\n      swap1\n      0x01\n      add\n      swap1\n      0x20\n      add\n      dup1\n      dup4\n      gt\n      tag_622\n      jumpi\n      dup3\n      swap1\n      sub\n      0x1f\n      and\n      dup3\n      add\n      swap2\n    tag_620:\n      pop\n      pop\n      pop\n      pop\n      pop\n      dup2\n      mstore\n      0x20\n      add\n      0x03\n      dup3\n      add\n      dup1\n      sload\n      0x01\n      dup2\n      0x01\n      and\n      iszero\n      0x0100\n      mul\n      sub\n      and\n      0x02\n      swap1\n      div\n      dup1\n      0x1f\n      add\n      0x20\n      dup1\n      swap2\n      div\n      mul\n      0x20\n      add\n      mload(0x40)\n      swap1\n      dup2\n      add\n      0x40\n      mstore\n      dup1\n      swap3\n      swap2\n      swap1\n      dup2\n      dup2\n      mstore\n      0x20\n      add\n      dup3\n      dup1\n      sload\n      0x01\n      dup2\n      0x01\n      and\n      iszero\n      0x0100\n      mul\n      sub\n      and\n      0x02\n      swap1\n      div\n      dup1\n      iszero\n      tag_623\n      jumpi\n      dup1\n      0x1f\n      lt\n      tag_624\n      jumpi\n      0x0100\n      dup1\n      dup4\n      sload\n      div\n      mul\n      dup4\n      mstore\n      swap2\n      0x20\n      add\n      swap2\n      jump(tag_623)\n    tag_624:\n      dup3\n      add\n      swap2\n      swap1\n      0x00\n      mstore\n      keccak256(0x00, 0x20)\n      swap1\n    tag_625:\n      dup2\n      sload\n      dup2\n      mstore\n      swap1\n      0x01\n      add\n      swap1\n      0x20\n      add\n      dup1\n      dup4\n      gt\n      tag_625\n      jumpi\n      dup3\n      swap1\n      sub\n      0x1f\n      and\n      dup3\n      add\n      swap2\n    tag_623:\n      pop\n      pop\n      pop\n      pop\n      pop\n      dup2\n      mstore\n      0x20\n      add\n      0x04\n      dup3\n      add\n      sload\n      dup2\n      mstore\n      pop\n      pop\n      swap1\n      pop\n        /* \"input/CreateWin.sol\":11837:11844  1 ether */\n      0x0de0b6b3a7640000\n        /* \"input/CreateWin.sol\":11816:11820  user */\n      dup4\n        /* \"input/CreateWin.sol\":11816:11833  user.freezeAmount */\n      0x03\n      add\n      sload\n        /* \"input/CreateWin.sol\":11816:11844  user.freezeAmount >= 1 ether */\n      lt\n      iszero\n        /* \"input/CreateWin.sol\":11816:11879  user.freezeAmount >= 1 ether && user.freezeAmount <= bonuslimit */\n      dup1\n      iszero\n      tag_626\n      jumpi\n      pop\n        /* \"input/CreateWin.sol\":11869:11879  bonuslimit */\n      sload(0x13)\n        /* \"input/CreateWin.sol\":11848:11852  user */\n      dup4\n        /* \"input/CreateWin.sol\":11848:11865  user.freezeAmount */\n      0x03\n      add\n      sload\n        /* \"input/CreateWin.sol\":11848:11879  user.freezeAmount <= bonuslimit */\n      gt\n      iszero\n        /* \"input/CreateWin.sol\":11816:11879  user.freezeAmount >= 1 ether && user.freezeAmount <= bonuslimit */\n    tag_626:\n        /* \"input/CreateWin.sol\":11816:11905  user.freezeAmount >= 1 ether && user.freezeAmount <= bonuslimit && userGlobal.status == 0 */\n      dup1\n      iszero\n      tag_627\n      jumpi\n      pop\n        /* \"input/CreateWin.sol\":11904:11905  0 */\n      0x00\n        /* \"input/CreateWin.sol\":11883:11893  userGlobal */\n      dup2\n        /* \"input/CreateWin.sol\":11883:11900  userGlobal.status */\n      0x80\n      add\n      mload\n        /* \"input/CreateWin.sol\":11883:11905  userGlobal.status == 0 */\n      eq\n        /* \"input/CreateWin.sol\":11816:11905  user.freezeAmount >= 1 ether && user.freezeAmount <= bonuslimit && userGlobal.status == 0 */\n    tag_627:\n        /* \"input/CreateWin.sol\":11812:11963  if (user.freezeAmount >= 1 ether && user.freezeAmount <= bonuslimit && userGlobal.status == 0) {... */\n      iszero\n      tag_628\n      jumpi\n        /* \"input/CreateWin.sol\":11912:11958  getaway(user.beCode, user.freezeAmount, scale) */\n      tag_629\n        /* \"input/CreateWin.sol\":11920:11924  user */\n      dup4\n        /* \"input/CreateWin.sol\":11920:11931  user.beCode */\n      0x0d\n      add\n        /* \"input/CreateWin.sol\":11912:11958  getaway(user.beCode, user.freezeAmount, scale) */\n      dup1\n      sload\n      0x01\n      dup2\n      0x01\n      and\n      iszero\n      0x0100\n      mul\n      sub\n      and\n      0x02\n      swap1\n      div\n      dup1\n      0x1f\n      add\n      0x20\n      dup1\n      swap2\n      div\n      mul\n      0x20\n      add\n      mload(0x40)\n      swap1\n      dup2\n      add\n      0x40\n      mstore\n      dup1\n      swap3\n      swap2\n      swap1\n      dup2\n      dup2\n      mstore\n      0x20\n      add\n      dup3\n      dup1\n      sload\n      0x01\n      dup2\n      0x01\n      and\n      iszero\n      0x0100\n      mul\n      sub\n      and\n      0x02\n      swap1\n      div\n      dup1\n      iszero\n      tag_630\n      jumpi\n      dup1\n      0x1f\n      lt\n      tag_631\n      jumpi\n      0x0100\n      dup1\n      dup4\n      sload\n      div\n      mul\n      dup4\n      mstore\n      swap2\n      0x20\n      add\n      swap2\n      jump(tag_630)\n    tag_631:\n      dup3\n      add\n      swap2\n      swap1\n      0x00\n      mstore\n      keccak256(0x00, 0x20)\n      swap1\n    tag_632:\n      dup2\n      sload\n      dup2\n      mstore\n      swap1\n      0x01\n      add\n      swap1\n      0x20\n      add\n      dup1\n      dup4\n      gt\n      tag_632\n      jumpi\n      dup3\n      swap1\n      sub\n      0x1f\n      and\n      dup3\n      add\n      swap2\n    tag_630:\n      pop\n      pop\n      pop\n      pop\n      pop\n        /* \"input/CreateWin.sol\":11933:11937  user */\n      dup5\n        /* \"input/CreateWin.sol\":11933:11950  user.freezeAmount */\n      0x03\n      add\n      sload\n        /* \"input/CreateWin.sol\":11952:11957  scale */\n      dup5\n        /* \"input/CreateWin.sol\":11912:11919  getaway */\n      tag_633\n        /* \"input/CreateWin.sol\":11912:11958  getaway(user.beCode, user.freezeAmount, scale) */\n      jump\t// in\n    tag_629:\n        /* \"input/CreateWin.sol\":11812:11963  if (user.freezeAmount >= 1 ether && user.freezeAmount <= bonuslimit && userGlobal.status == 0) {... */\n    tag_628:\n        /* \"input/CreateWin.sol\":11485:11966  function countBonus(address userAddr) private {... */\n      pop\n      pop\n      pop\n    tag_614:\n      pop\n      jump\t// out\n        /* \"input/CreateWin.sol\":4333:4498  function remove(Role storage role, address account) internal {... */\n    tag_370:\n        /* \"input/CreateWin.sol\":4406:4424  has(role, account) */\n      tag_635\n        /* \"input/CreateWin.sol\":4410:4414  role */\n      dup3\n        /* \"input/CreateWin.sol\":4416:4423  account */\n      dup3\n        /* \"input/CreateWin.sol\":4406:4409  has */\n      tag_535\n        /* \"input/CreateWin.sol\":4406:4424  has(role, account) */\n      jump\t// in\n    tag_635:\n        /* \"input/CreateWin.sol\":4398:4462  require(has(role, account), \"Roles: account does not have role\") */\n      tag_636\n      jumpi\n      mload(0x40)\n      0x08c379a000000000000000000000000000000000000000000000000000000000\n      dup2\n      mstore\n      0x04\n      add\n      dup1\n      dup1\n      0x20\n      add\n      dup3\n      dup2\n      sub\n      dup3\n      mstore\n      0x21\n      dup2\n      mstore\n      0x20\n      add\n      dup1\n      data_7bd893145ac435f339bb7c288622d270324b7033b011f693aca172f5cbc3c257\n      0x21\n      swap2\n      codecopy\n      0x40\n      add\n      swap2\n      pop\n      pop\n      mload(0x40)\n      dup1\n      swap2\n      sub\n      swap1\n      revert\n    tag_636:\n        /* \"input/CreateWin.sol\":4489:4494  false */\n      0x00\n        /* \"input/CreateWin.sol\":4466:4470  role */\n      dup3\n        /* \"input/CreateWin.sol\":4466:4477  role.bearer */\n      0x00\n      add\n        /* \"input/CreateWin.sol\":4466:4486  role.bearer[account] */\n      0x00\n        /* \"input/CreateWin.sol\":4478:4485  account */\n      dup4\n        /* \"input/CreateWin.sol\":4466:4486  role.bearer[account] */\n      0xffffffffffffffffffffffffffffffffffffffff\n      and\n      0xffffffffffffffffffffffffffffffffffffffff\n      and\n      dup2\n      mstore\n      0x20\n      add\n      swap1\n      dup2\n      mstore\n      0x20\n      add\n      0x00\n      keccak256\n      0x00\n        /* \"input/CreateWin.sol\":4466:4494  role.bearer[account] = false */\n      0x0100\n      exp\n      dup2\n      sload\n      dup2\n      0xff\n      mul\n      not\n      and\n      swap1\n      dup4\n      iszero\n      iszero\n      mul\n      or\n      swap1\n      sstore\n      pop\n        /* \"input/CreateWin.sol\":4333:4498  function remove(Role storage role, address account) internal {... */\n      pop\n      pop\n      jump\t// out\n        /* \"input/CreateWin.sol\":4110:4270  function add(Role storage role, address account) internal {... */\n    tag_376:\n        /* \"input/CreateWin.sol\":4181:4199  has(role, account) */\n      tag_638\n        /* \"input/CreateWin.sol\":4185:4189  role */\n      dup3\n        /* \"input/CreateWin.sol\":4191:4198  account */\n      dup3\n        /* \"input/CreateWin.sol\":4181:4184  has */\n      tag_535\n        /* \"input/CreateWin.sol\":4181:4199  has(role, account) */\n      jump\t// in\n    tag_638:\n        /* \"input/CreateWin.sol\":4180:4199  !has(role, account) */\n      iszero\n        /* \"input/CreateWin.sol\":4172:4235  require(!has(role, account), \"Roles: account already has role\") */\n      tag_639\n      jumpi\n      mload(0x40)\n      0x08c379a000000000000000000000000000000000000000000000000000000000\n      dup2\n      mstore\n      0x04\n      add\n      dup1\n      dup1\n      0x20\n      add\n      dup3\n      dup2\n      sub\n      dup3\n      mstore\n      0x1f\n      dup2\n      mstore\n      0x20\n      add\n      dup1\n      0x526f6c65733a206163636f756e7420616c72656164792068617320726f6c6500\n      dup2\n      mstore\n      pop\n      0x20\n      add\n      swap2\n      pop\n      pop\n      mload(0x40)\n      dup1\n      swap2\n      sub\n      swap1\n      revert\n    tag_639:\n        /* \"input/CreateWin.sol\":4262:4266  true */\n      0x01\n        /* \"input/CreateWin.sol\":4239:4243  role */\n      dup3\n        /* \"input/CreateWin.sol\":4239:4250  role.bearer */\n      0x00\n      add\n        /* \"input/CreateWin.sol\":4239:4259  role.bearer[account] */\n      0x00\n        /* \"input/CreateWin.sol\":4251:4258  account */\n      dup4\n        /* \"input/CreateWin.sol\":4239:4259  role.bearer[account] */\n      0xffffffffffffffffffffffffffffffffffffffff\n      and\n      0xffffffffffffffffffffffffffffffffffffffff\n      and\n      dup2\n      mstore\n      0x20\n      add\n      swap1\n      dup2\n      mstore\n      0x20\n      add\n      0x00\n      keccak256\n      0x00\n        /* \"input/CreateWin.sol\":4239:4266  role.bearer[account] = true */\n      0x0100\n      exp\n      dup2\n      sload\n      dup2\n      0xff\n      mul\n      not\n      and\n      swap1\n      dup4\n      iszero\n      iszero\n      mul\n      or\n      swap1\n      sstore\n      pop\n        /* \"input/CreateWin.sol\":4110:4270  function add(Role storage role, address account) internal {... */\n      pop\n      pop\n      jump\t// out\n        /* \"input/CreateWin.sol\":2571:2650  function _msgSender() internal view returns (address) {... */\n    tag_388:\n        /* \"input/CreateWin.sol\":2616:2623  address */\n      0x00\n        /* \"input/CreateWin.sol\":2636:2646  msg.sender */\n      caller\n        /* \"input/CreateWin.sol\":2629:2646  return msg.sender */\n      swap1\n      pop\n        /* \"input/CreateWin.sol\":2571:2650  function _msgSender() internal view returns (address) {... */\n      swap1\n      jump\t// out\n        /* \"input/CreateWin.sol\":22216:22360  function sub(uint256 a, uint256 b) internal pure returns (uint256) {... */\n    tag_404:\n        /* \"input/CreateWin.sol\":22274:22281  uint256 */\n      0x00\n        /* \"input/CreateWin.sol\":22300:22301  a */\n      dup3\n        /* \"input/CreateWin.sol\":22295:22296  b */\n      dup3\n        /* \"input/CreateWin.sol\":22295:22301  b <= a */\n      gt\n      iszero\n        /* \"input/CreateWin.sol\":22287:22322  require(b <= a, \"lower sub bigger\") */\n      tag_642\n      jumpi\n      mload(0x40)\n      0x08c379a000000000000000000000000000000000000000000000000000000000\n      dup2\n      mstore\n      0x04\n      add\n      dup1\n      dup1\n      0x20\n      add\n      dup3\n      dup2\n      sub\n      dup3\n      mstore\n      0x10\n      dup2\n      mstore\n      0x20\n      add\n      dup1\n      0x6c6f776572207375622062696767657200000000000000000000000000000000\n      dup2\n      mstore\n      pop\n      0x20\n      add\n      swap2\n      pop\n      pop\n      mload(0x40)\n      dup1\n      swap2\n      sub\n      swap1\n      revert\n    tag_642:\n        /* \"input/CreateWin.sol\":22326:22335  uint256 c */\n      0x00\n        /* \"input/CreateWin.sol\":22342:22343  b */\n      dup3\n        /* \"input/CreateWin.sol\":22338:22339  a */\n      dup5\n        /* \"input/CreateWin.sol\":22338:22343  a - b */\n      sub\n        /* \"input/CreateWin.sol\":22326:22343  uint256 c = a - b */\n      swap1\n      pop\n        /* \"input/CreateWin.sol\":22355:22356  c */\n      dup1\n        /* \"input/CreateWin.sol\":22348:22356  return c */\n      swap2\n      pop\n      pop\n        /* \"input/CreateWin.sol\":22216:22360  function sub(uint256 a, uint256 b) internal pure returns (uint256) {... */\n      swap3\n      swap2\n      pop\n      pop\n      jump\t// out\n        /* \"input/CreateWin.sol\":16730:16938  function isEnoughBalance(uint sendMoney) private view returns (bool, uint){... */\n    tag_462:\n        /* \"input/CreateWin.sol\":16793:16797  bool */\n      0x00\n        /* \"input/CreateWin.sol\":16799:16803  uint */\n      dup1\n        /* \"input/CreateWin.sol\":16825:16846  address(this).balance */\n      selfbalance\n        /* \"input/CreateWin.sol\":16812:16821  sendMoney */\n      dup4\n        /* \"input/CreateWin.sol\":16812:16846  sendMoney >= address(this).balance */\n      lt\n        /* \"input/CreateWin.sol\":16808:16935  if (sendMoney >= address(this).balance) {... */\n      tag_644\n      jumpi\n        /* \"input/CreateWin.sol\":16861:16866  false */\n      0x00\n        /* \"input/CreateWin.sol\":16868:16889  address(this).balance */\n      selfbalance\n        /* \"input/CreateWin.sol\":16853:16890  return (false, address(this).balance) */\n      swap2\n      pop\n      swap2\n      pop\n      jump(tag_643)\n        /* \"input/CreateWin.sol\":16808:16935  if (sendMoney >= address(this).balance) {... */\n    tag_644:\n        /* \"input/CreateWin.sol\":16914:16918  true */\n      0x01\n        /* \"input/CreateWin.sol\":16920:16929  sendMoney */\n      dup4\n        /* \"input/CreateWin.sol\":16906:16930  return (true, sendMoney) */\n      swap2\n      pop\n      swap2\n      pop\n        /* \"input/CreateWin.sol\":16730:16938  function isEnoughBalance(uint sendMoney) private view returns (bool, uint){... */\n    tag_643:\n      swap2\n      pop\n      swap2\n      jump\t// out\n        /* \"input/CreateWin.sol\":17029:17162  function sendMoneyToUser(address payable userAddress, uint money) private {... */\n    tag_466:\n        /* \"input/CreateWin.sol\":17119:17120  0 */\n      0x00\n        /* \"input/CreateWin.sol\":17111:17116  money */\n      dup2\n        /* \"input/CreateWin.sol\":17111:17120  money > 0 */\n      gt\n        /* \"input/CreateWin.sol\":17107:17159  if (money > 0) {... */\n      iszero\n      tag_647\n      jumpi\n        /* \"input/CreateWin.sol\":17127:17138  userAddress */\n      dup2\n        /* \"input/CreateWin.sol\":17127:17147  userAddress.transfer */\n      0xffffffffffffffffffffffffffffffffffffffff\n      and\n        /* \"input/CreateWin.sol\":17127:17154  userAddress.transfer(money) */\n      0x08fc\n        /* \"input/CreateWin.sol\":17148:17153  money */\n      dup3\n        /* \"input/CreateWin.sol\":17127:17154  userAddress.transfer(money) */\n      swap1\n      dup2\n      iszero\n      mul\n      swap1\n      mload(0x40)\n      0x00\n      mload(0x40)\n      dup1\n      dup4\n      sub\n      dup2\n      dup6\n      dup9\n      dup9\n      call\n      swap4\n      pop\n      pop\n      pop\n      pop\n      iszero\n        /* \"--CODEGEN--\":8:17   */\n      dup1\n        /* \"--CODEGEN--\":5:7   */\n      iszero\n      tag_648\n      jumpi\n        /* \"--CODEGEN--\":45:61   */\n      returndatasize\n        /* \"--CODEGEN--\":42:43   */\n      0x00\n        /* \"--CODEGEN--\":39:40   */\n      dup1\n        /* \"--CODEGEN--\":24:62   */\n      returndatacopy\n        /* \"--CODEGEN--\":77:93   */\n      returndatasize\n        /* \"--CODEGEN--\":74:75   */\n      0x00\n        /* \"--CODEGEN--\":67:94   */\n      revert\n        /* \"--CODEGEN--\":5:7   */\n    tag_648:\n        /* \"input/CreateWin.sol\":17127:17154  userAddress.transfer(money) */\n      pop\n        /* \"input/CreateWin.sol\":17107:17159  if (money > 0) {... */\n    tag_647:\n        /* \"input/CreateWin.sol\":17029:17162  function sendMoneyToUser(address payable userAddress, uint money) private {... */\n      pop\n      pop\n      jump\t// out\n        /* \"input/CreateWin.sol\":4572:4757  function has(Role storage role, address account) internal view returns (bool) {... */\n    tag_535:\n        /* \"input/CreateWin.sol\":4644:4648  bool */\n      0x00\n        /* \"input/CreateWin.sol\":4681:4682  0 */\n      dup1\n        /* \"input/CreateWin.sol\":4662:4683  account != address(0) */\n      0xffffffffffffffffffffffffffffffffffffffff\n      and\n        /* \"input/CreateWin.sol\":4662:4669  account */\n      dup3\n        /* \"input/CreateWin.sol\":4662:4683  account != address(0) */\n      0xffffffffffffffffffffffffffffffffffffffff\n      and\n      eq\n      iszero\n        /* \"input/CreateWin.sol\":4654:4722  require(account != address(0), \"Roles: account is the zero address\") */\n      tag_650\n      jumpi\n      mload(0x40)\n      0x08c379a000000000000000000000000000000000000000000000000000000000\n      dup2\n      mstore\n      0x04\n      add\n      dup1\n      dup1\n      0x20\n      add\n      dup3\n      dup2\n      sub\n      dup3\n      mstore\n      0x22\n      dup2\n      mstore\n      0x20\n      add\n      dup1\n      data_9d214fa89563f4e6456a3929327e54500ea1cde2c0ba9fb2035ec106190d682f\n      0x22\n      swap2\n      codecopy\n      0x40\n      add\n      swap2\n      pop\n      pop\n      mload(0x40)\n      dup1\n      swap2\n      sub\n      swap1\n      revert\n    tag_650:\n        /* \"input/CreateWin.sol\":4733:4737  role */\n      dup3\n        /* \"input/CreateWin.sol\":4733:4744  role.bearer */\n      0x00\n      add\n        /* \"input/CreateWin.sol\":4733:4753  role.bearer[account] */\n      0x00\n        /* \"input/CreateWin.sol\":4745:4752  account */\n      dup4\n        /* \"input/CreateWin.sol\":4733:4753  role.bearer[account] */\n      0xffffffffffffffffffffffffffffffffffffffff\n      and\n      0xffffffffffffffffffffffffffffffffffffffff\n      and\n      dup2\n      mstore\n      0x20\n      add\n      swap1\n      dup2\n      mstore\n      0x20\n      add\n      0x00\n      keccak256\n      0x00\n      swap1\n      sload\n      swap1\n      0x0100\n      exp\n      swap1\n      div\n      0xff\n      and\n        /* \"input/CreateWin.sol\":4726:4753  return role.bearer[account] */\n      swap1\n      pop\n        /* \"input/CreateWin.sol\":4572:4757  function has(Role storage role, address account) internal view returns (bool) {... */\n      swap3\n      swap2\n      pop\n      pop\n      jump\t// out\n        /* \"input/CreateWin.sol\":11969:12959  function getaway(string memory beCode, uint money, uint shareSc) private {... */\n    tag_633:\n        /* \"input/CreateWin.sol\":12046:12071  string memory tmpReferrer */\n      0x60\n        /* \"input/CreateWin.sol\":12074:12080  beCode */\n      dup4\n        /* \"input/CreateWin.sol\":12046:12080  string memory tmpReferrer = beCode */\n      swap1\n      pop\n        /* \"input/CreateWin.sol\":12090:12096  uint i */\n      0x00\n        /* \"input/CreateWin.sol\":12099:12100  1 */\n      0x01\n        /* \"input/CreateWin.sol\":12090:12100  uint i = 1 */\n      swap1\n      pop\n        /* \"input/CreateWin.sol\":12085:12956  for (uint i = 1; i <= 25; i++) {... */\n    tag_652:\n        /* \"input/CreateWin.sol\":12107:12109  25 */\n      0x19\n        /* \"input/CreateWin.sol\":12102:12103  i */\n      dup2\n        /* \"input/CreateWin.sol\":12102:12109  i <= 25 */\n      gt\n        /* \"input/CreateWin.sol\":12085:12956  for (uint i = 1; i <= 25; i++) {... */\n      tag_653\n      jumpi\n        /* \"input/CreateWin.sol\":12125:12152  compareStr(tmpReferrer, \"\") */\n      tag_655\n        /* \"input/CreateWin.sol\":12136:12147  tmpReferrer */\n      dup3\n        /* \"input/CreateWin.sol\":12125:12152  compareStr(tmpReferrer, \"\") */\n      mload(0x40)\n      dup1\n      0x20\n      add\n      0x40\n      mstore\n      dup1\n      0x00\n      dup2\n      mstore\n      pop\n        /* \"input/CreateWin.sol\":12125:12135  compareStr */\n      tag_122\n        /* \"input/CreateWin.sol\":12125:12152  compareStr(tmpReferrer, \"\") */\n      jump\t// in\n    tag_655:\n        /* \"input/CreateWin.sol\":12121:12171  if (compareStr(tmpReferrer, \"\")) {... */\n      iszero\n      tag_656\n      jumpi\n        /* \"input/CreateWin.sol\":12160:12165  break */\n      jump(tag_653)\n        /* \"input/CreateWin.sol\":12121:12171  if (compareStr(tmpReferrer, \"\")) {... */\n    tag_656:\n        /* \"input/CreateWin.sol\":12175:12194  address tmpUserAddr */\n      0x00\n        /* \"input/CreateWin.sol\":12197:12211  addressMapping */\n      0x10\n        /* \"input/CreateWin.sol\":12212:12223  tmpReferrer */\n      dup4\n        /* \"input/CreateWin.sol\":12197:12224  addressMapping[tmpReferrer] */\n      mload(0x40)\n      dup1\n      dup3\n      dup1\n      mload\n      swap1\n      0x20\n      add\n      swap1\n      dup1\n      dup4\n      dup4\n        /* \"--CODEGEN--\":36:189   */\n    tag_657:\n        /* \"--CODEGEN--\":66:68   */\n      0x20\n        /* \"--CODEGEN--\":61:64   */\n      dup4\n        /* \"--CODEGEN--\":58:69   */\n      lt\n        /* \"--CODEGEN--\":36:189   */\n      tag_659\n      jumpi\n        /* \"--CODEGEN--\":182:185   */\n      dup1\n        /* \"--CODEGEN--\":176:186   */\n      mload\n        /* \"--CODEGEN--\":171:174   */\n      dup3\n        /* \"--CODEGEN--\":164:187   */\n      mstore\n        /* \"--CODEGEN--\":98:100   */\n      0x20\n        /* \"--CODEGEN--\":93:96   */\n      dup3\n        /* \"--CODEGEN--\":89:101   */\n      add\n        /* \"--CODEGEN--\":82:101   */\n      swap2\n      pop\n        /* \"--CODEGEN--\":123:125   */\n      0x20\n        /* \"--CODEGEN--\":118:121   */\n      dup2\n        /* \"--CODEGEN--\":114:126   */\n      add\n        /* \"--CODEGEN--\":107:126   */\n      swap1\n      pop\n        /* \"--CODEGEN--\":148:150   */\n      0x20\n        /* \"--CODEGEN--\":143:146   */\n      dup4\n        /* \"--CODEGEN--\":139:151   */\n      sub\n        /* \"--CODEGEN--\":132:151   */\n      swap3\n      pop\n        /* \"--CODEGEN--\":36:189   */\n      jump(tag_657)\n    tag_659:\n        /* \"--CODEGEN--\":274:275   */\n      0x01\n        /* \"--CODEGEN--\":267:270   */\n      dup4\n        /* \"--CODEGEN--\":263:265   */\n      0x20\n        /* \"--CODEGEN--\":259:271   */\n      sub\n        /* \"--CODEGEN--\":254:257   */\n      0x0100\n        /* \"--CODEGEN--\":250:272   */\n      exp\n        /* \"--CODEGEN--\":246:276   */\n      sub\n        /* \"--CODEGEN--\":315:319   */\n      dup1\n        /* \"--CODEGEN--\":311:320   */\n      not\n        /* \"--CODEGEN--\":305:308   */\n      dup3\n        /* \"--CODEGEN--\":299:309   */\n      mload\n        /* \"--CODEGEN--\":295:321   */\n      and\n        /* \"--CODEGEN--\":356:360   */\n      dup2\n        /* \"--CODEGEN--\":350:353   */\n      dup5\n        /* \"--CODEGEN--\":344:354   */\n      mload\n        /* \"--CODEGEN--\":340:361   */\n      and\n        /* \"--CODEGEN--\":389:396   */\n      dup1\n        /* \"--CODEGEN--\":380:387   */\n      dup3\n        /* \"--CODEGEN--\":377:397   */\n      or\n        /* \"--CODEGEN--\":372:375   */\n      dup6\n        /* \"--CODEGEN--\":365:398   */\n      mstore\n        /* \"--CODEGEN--\":3:402   */\n      pop\n      pop\n      pop\n        /* \"input/CreateWin.sol\":12197:12224  addressMapping[tmpReferrer] */\n      pop\n      pop\n      pop\n      swap1\n      pop\n      add\n      swap2\n      pop\n      pop\n      swap1\n      dup2\n      mstore\n      0x20\n      add\n      mload(0x40)\n      dup1\n      swap2\n      sub\n      swap1\n      keccak256\n      0x00\n      swap1\n      sload\n      swap1\n      0x0100\n      exp\n      swap1\n      div\n      0xffffffffffffffffffffffffffffffffffffffff\n      and\n        /* \"input/CreateWin.sol\":12175:12224  address tmpUserAddr = addressMapping[tmpReferrer] */\n      swap1\n      pop\n        /* \"input/CreateWin.sol\":12229:12258  UserGlobal storage userGlobal */\n      0x00\n        /* \"input/CreateWin.sol\":12261:12272  userMapping */\n      0x0f\n        /* \"input/CreateWin.sol\":12261:12285  userMapping[tmpUserAddr] */\n      0x00\n        /* \"input/CreateWin.sol\":12273:12284  tmpUserAddr */\n      dup4\n        /* \"input/CreateWin.sol\":12261:12285  userMapping[tmpUserAddr] */\n      0xffffffffffffffffffffffffffffffffffffffff\n      and\n      0xffffffffffffffffffffffffffffffffffffffff\n      and\n      dup2\n      mstore\n      0x20\n      add\n      swap1\n      dup2\n      mstore\n      0x20\n      add\n      0x00\n      keccak256\n        /* \"input/CreateWin.sol\":12229:12285  UserGlobal storage userGlobal = userMapping[tmpUserAddr] */\n      swap1\n      pop\n        /* \"input/CreateWin.sol\":12290:12310  User storage calUser */\n      0x00\n        /* \"input/CreateWin.sol\":12313:12329  userRoundMapping */\n      0x0e\n        /* \"input/CreateWin.sol\":12313:12334  userRoundMapping[rid] */\n      0x00\n        /* \"input/CreateWin.sol\":12330:12333  rid */\n      sload(0x0c)\n        /* \"input/CreateWin.sol\":12313:12334  userRoundMapping[rid] */\n      dup2\n      mstore\n      0x20\n      add\n      swap1\n      dup2\n      mstore\n      0x20\n      add\n      0x00\n      keccak256\n        /* \"input/CreateWin.sol\":12313:12347  userRoundMapping[rid][tmpUserAddr] */\n      0x00\n        /* \"input/CreateWin.sol\":12335:12346  tmpUserAddr */\n      dup5\n        /* \"input/CreateWin.sol\":12313:12347  userRoundMapping[rid][tmpUserAddr] */\n      0xffffffffffffffffffffffffffffffffffffffff\n      and\n      0xffffffffffffffffffffffffffffffffffffffff\n      and\n      dup2\n      mstore\n      0x20\n      add\n      swap1\n      dup2\n      mstore\n      0x20\n      add\n      0x00\n      keccak256\n        /* \"input/CreateWin.sol\":12290:12347  User storage calUser = userRoundMapping[rid][tmpUserAddr] */\n      swap1\n      pop\n        /* \"input/CreateWin.sol\":12429:12430  0 */\n      0x00\n        /* \"input/CreateWin.sol\":12357:12425  calUser.freezeAmount.add(calUser.freeAmount).add(calUser.lineAmount) */\n      tag_660\n        /* \"input/CreateWin.sol\":12406:12413  calUser */\n      dup3\n        /* \"input/CreateWin.sol\":12406:12424  calUser.lineAmount */\n      0x04\n      add\n      sload\n        /* \"input/CreateWin.sol\":12357:12401  calUser.freezeAmount.add(calUser.freeAmount) */\n      tag_661\n        /* \"input/CreateWin.sol\":12382:12389  calUser */\n      dup5\n        /* \"input/CreateWin.sol\":12382:12400  calUser.freeAmount */\n      0x02\n      add\n      sload\n        /* \"input/CreateWin.sol\":12357:12364  calUser */\n      dup6\n        /* \"input/CreateWin.sol\":12357:12377  calUser.freezeAmount */\n      0x03\n      add\n      sload\n        /* \"input/CreateWin.sol\":12357:12381  calUser.freezeAmount.add */\n      tag_243\n      swap1\n        /* \"input/CreateWin.sol\":12357:12401  calUser.freezeAmount.add(calUser.freeAmount) */\n      swap2\n      swap1\n      0xffffffff\n      and\n      jump\t// in\n    tag_661:\n        /* \"input/CreateWin.sol\":12357:12405  calUser.freezeAmount.add(calUser.freeAmount).add */\n      tag_243\n      swap1\n        /* \"input/CreateWin.sol\":12357:12425  calUser.freezeAmount.add(calUser.freeAmount).add(calUser.lineAmount) */\n      swap2\n      swap1\n      0xffffffff\n      and\n      jump\t// in\n    tag_660:\n        /* \"input/CreateWin.sol\":12357:12430  calUser.freezeAmount.add(calUser.freeAmount).add(calUser.lineAmount) == 0 */\n      eq\n        /* \"input/CreateWin.sol\":12353:12489  if (calUser.freezeAmount.add(calUser.freeAmount).add(calUser.lineAmount) == 0) {... */\n      iszero\n      tag_662\n      jumpi\n        /* \"input/CreateWin.sol\":12452:12462  userGlobal */\n      dup2\n        /* \"input/CreateWin.sol\":12452:12469  userGlobal.beCode */\n      0x03\n      add\n        /* \"input/CreateWin.sol\":12438:12469  tmpReferrer = userGlobal.beCode */\n      dup1\n      sload\n      0x01\n      dup2\n      0x01\n      and\n      iszero\n      0x0100\n      mul\n      sub\n      and\n      0x02\n      swap1\n      div\n      dup1\n      0x1f\n      add\n      0x20\n      dup1\n      swap2\n      div\n      mul\n      0x20\n      add\n      mload(0x40)\n      swap1\n      dup2\n      add\n      0x40\n      mstore\n      dup1\n      swap3\n      swap2\n      swap1\n      dup2\n      dup2\n      mstore\n      0x20\n      add\n      dup3\n      dup1\n      sload\n      0x01\n      dup2\n      0x01\n      and\n      iszero\n      0x0100\n      mul\n      sub\n      and\n      0x02\n      swap1\n      div\n      dup1\n      iszero\n      tag_663\n      jumpi\n      dup1\n      0x1f\n      lt\n      tag_664\n      jumpi\n      0x0100\n      dup1\n      dup4\n      sload\n      div\n      mul\n      dup4\n      mstore\n      swap2\n      0x20\n      add\n      swap2\n      jump(tag_663)\n    tag_664:\n      dup3\n      add\n      swap2\n      swap1\n      0x00\n      mstore\n      keccak256(0x00, 0x20)\n      swap1\n    tag_665:\n      dup2\n      sload\n      dup2\n      mstore\n      swap1\n      0x01\n      add\n      swap1\n      0x20\n      add\n      dup1\n      dup4\n      gt\n      tag_665\n      jumpi\n      dup3\n      swap1\n      sub\n      0x1f\n      and\n      dup3\n      add\n      swap2\n    tag_663:\n      pop\n      pop\n      pop\n      pop\n      pop\n      swap5\n      pop\n        /* \"input/CreateWin.sol\":12475:12483  continue */\n      pop\n      pop\n      pop\n      jump(tag_654)\n        /* \"input/CreateWin.sol\":12353:12489  if (calUser.freezeAmount.add(calUser.freeAmount).add(calUser.lineAmount) == 0) {... */\n    tag_662:\n        /* \"input/CreateWin.sol\":12494:12510  uint recommendSc */\n      0x00\n        /* \"input/CreateWin.sol\":12513:12549  getRecommendScaleByLevelAndTim(3, i) */\n      tag_666\n        /* \"input/CreateWin.sol\":12544:12545  3 */\n      0x03\n        /* \"input/CreateWin.sol\":12547:12548  i */\n      dup7\n        /* \"input/CreateWin.sol\":12513:12543  getRecommendScaleByLevelAndTim */\n      tag_48\n        /* \"input/CreateWin.sol\":12513:12549  getRecommendScaleByLevelAndTim(3, i) */\n      jump\t// in\n    tag_666:\n        /* \"input/CreateWin.sol\":12494:12549  uint recommendSc = getRecommendScaleByLevelAndTim(3, i) */\n      swap1\n      pop\n        /* \"input/CreateWin.sol\":12554:12570  uint moneyResult */\n      0x00\n        /* \"input/CreateWin.sol\":12573:12574  0 */\n      dup1\n        /* \"input/CreateWin.sol\":12554:12574  uint moneyResult = 0 */\n      swap1\n      pop\n        /* \"input/CreateWin.sol\":12592:12600  15 ether */\n      0xd02ab486cedc0000\n        /* \"input/CreateWin.sol\":12583:12588  money */\n      dup10\n        /* \"input/CreateWin.sol\":12583:12600  money <= 15 ether */\n      gt\n        /* \"input/CreateWin.sol\":12579:12673  if (money <= 15 ether) {... */\n      tag_667\n      jumpi\n        /* \"input/CreateWin.sol\":12622:12627  money */\n      dup9\n        /* \"input/CreateWin.sol\":12608:12627  moneyResult = money */\n      swap1\n      pop\n        /* \"input/CreateWin.sol\":12579:12673  if (money <= 15 ether) {... */\n      jump(tag_668)\n    tag_667:\n        /* \"input/CreateWin.sol\":12659:12667  15 ether */\n      0xd02ab486cedc0000\n        /* \"input/CreateWin.sol\":12645:12667  moneyResult = 15 ether */\n      swap1\n      pop\n        /* \"input/CreateWin.sol\":12579:12673  if (money <= 15 ether) {... */\n    tag_668:\n        /* \"input/CreateWin.sol\":12697:12698  0 */\n      0x00\n        /* \"input/CreateWin.sol\":12682:12693  recommendSc */\n      dup3\n        /* \"input/CreateWin.sol\":12682:12698  recommendSc != 0 */\n      eq\n        /* \"input/CreateWin.sol\":12678:12916  if (recommendSc != 0) {... */\n      tag_669\n      jumpi\n        /* \"input/CreateWin.sol\":12706:12727  uint tmpDynamicAmount */\n      0x00\n        /* \"input/CreateWin.sol\":12730:12771  moneyResult.mul(shareSc).mul(recommendSc) */\n      tag_670\n        /* \"input/CreateWin.sol\":12759:12770  recommendSc */\n      dup4\n        /* \"input/CreateWin.sol\":12730:12754  moneyResult.mul(shareSc) */\n      tag_671\n        /* \"input/CreateWin.sol\":12746:12753  shareSc */\n      dup12\n        /* \"input/CreateWin.sol\":12730:12741  moneyResult */\n      dup6\n        /* \"input/CreateWin.sol\":12730:12745  moneyResult.mul */\n      tag_221\n      swap1\n        /* \"input/CreateWin.sol\":12730:12754  moneyResult.mul(shareSc) */\n      swap2\n      swap1\n      0xffffffff\n      and\n      jump\t// in\n    tag_671:\n        /* \"input/CreateWin.sol\":12730:12758  moneyResult.mul(shareSc).mul */\n      tag_221\n      swap1\n        /* \"input/CreateWin.sol\":12730:12771  moneyResult.mul(shareSc).mul(recommendSc) */\n      swap2\n      swap1\n      0xffffffff\n      and\n      jump\t// in\n    tag_670:\n        /* \"input/CreateWin.sol\":12706:12771  uint tmpDynamicAmount = moneyResult.mul(shareSc).mul(recommendSc) */\n      swap1\n      pop\n        /* \"input/CreateWin.sol\":12796:12831  tmpDynamicAmount.div(1000).div(100) */\n      tag_672\n        /* \"input/CreateWin.sol\":12827:12830  100 */\n      0x64\n        /* \"input/CreateWin.sol\":12796:12822  tmpDynamicAmount.div(1000) */\n      tag_673\n        /* \"input/CreateWin.sol\":12817:12821  1000 */\n      0x03e8\n        /* \"input/CreateWin.sol\":12796:12812  tmpDynamicAmount */\n      dup5\n        /* \"input/CreateWin.sol\":12796:12816  tmpDynamicAmount.div */\n      tag_220\n      swap1\n        /* \"input/CreateWin.sol\":12796:12822  tmpDynamicAmount.div(1000) */\n      swap2\n      swap1\n      0xffffffff\n      and\n      jump\t// in\n    tag_673:\n        /* \"input/CreateWin.sol\":12796:12826  tmpDynamicAmount.div(1000).div */\n      tag_220\n      swap1\n        /* \"input/CreateWin.sol\":12796:12831  tmpDynamicAmount.div(1000).div(100) */\n      swap2\n      swap1\n      0xffffffff\n      and\n      jump\t// in\n    tag_672:\n        /* \"input/CreateWin.sol\":12777:12831  tmpDynamicAmount = tmpDynamicAmount.div(1000).div(100) */\n      swap1\n      pop\n        /* \"input/CreateWin.sol\":12837:12910  earneth(userGlobal.userAddress, tmpDynamicAmount, calUser.rewardIndex, i) */\n      tag_674\n        /* \"input/CreateWin.sol\":12845:12855  userGlobal */\n      dup6\n        /* \"input/CreateWin.sol\":12845:12867  userGlobal.userAddress */\n      0x01\n      add\n      0x00\n      swap1\n      sload\n      swap1\n      0x0100\n      exp\n      swap1\n      div\n      0xffffffffffffffffffffffffffffffffffffffff\n      and\n        /* \"input/CreateWin.sol\":12869:12885  tmpDynamicAmount */\n      dup3\n        /* \"input/CreateWin.sol\":12887:12894  calUser */\n      dup7\n        /* \"input/CreateWin.sol\":12887:12906  calUser.rewardIndex */\n      0x0e\n      add\n      sload\n        /* \"input/CreateWin.sol\":12908:12909  i */\n      dup11\n        /* \"input/CreateWin.sol\":12837:12844  earneth */\n      tag_675\n        /* \"input/CreateWin.sol\":12837:12910  earneth(userGlobal.userAddress, tmpDynamicAmount, calUser.rewardIndex, i) */\n      jump\t// in\n    tag_674:\n        /* \"input/CreateWin.sol\":12678:12916  if (recommendSc != 0) {... */\n      pop\n    tag_669:\n        /* \"input/CreateWin.sol\":12934:12944  userGlobal */\n      dup4\n        /* \"input/CreateWin.sol\":12934:12951  userGlobal.beCode */\n      0x03\n      add\n        /* \"input/CreateWin.sol\":12920:12951  tmpReferrer = userGlobal.beCode */\n      dup1\n      sload\n      0x01\n      dup2\n      0x01\n      and\n      iszero\n      0x0100\n      mul\n      sub\n      and\n      0x02\n      swap1\n      div\n      dup1\n      0x1f\n      add\n      0x20\n      dup1\n      swap2\n      div\n      mul\n      0x20\n      add\n      mload(0x40)\n      swap1\n      dup2\n      add\n      0x40\n      mstore\n      dup1\n      swap3\n      swap2\n      swap1\n      dup2\n      dup2\n      mstore\n      0x20\n      add\n      dup3\n      dup1\n      sload\n      0x01\n      dup2\n      0x01\n      and\n      iszero\n      0x0100\n      mul\n      sub\n      and\n      0x02\n      swap1\n      div\n      dup1\n      iszero\n      tag_676\n      jumpi\n      dup1\n      0x1f\n      lt\n      tag_677\n      jumpi\n      0x0100\n      dup1\n      dup4\n      sload\n      div\n      mul\n      dup4\n      mstore\n      swap2\n      0x20\n      add\n      swap2\n      jump(tag_676)\n    tag_677:\n      dup3\n      add\n      swap2\n      swap1\n      0x00\n      mstore\n      keccak256(0x00, 0x20)\n      swap1\n    tag_678:\n      dup2\n      sload\n      dup2\n      mstore\n      swap1\n      0x01\n      add\n      swap1\n      0x20\n      add\n      dup1\n      dup4\n      gt\n      tag_678\n      jumpi\n      dup3\n      swap1\n      sub\n      0x1f\n      and\n      dup3\n      add\n      swap2\n    tag_676:\n      pop\n      pop\n      pop\n      pop\n      pop\n      swap7\n      pop\n        /* \"input/CreateWin.sol\":12085:12956  for (uint i = 1; i <= 25; i++) {... */\n      pop\n      pop\n      pop\n      pop\n      pop\n    tag_654:\n        /* \"input/CreateWin.sol\":12111:12114  i++ */\n      dup1\n      dup1\n      0x01\n      add\n      swap2\n      pop\n      pop\n        /* \"input/CreateWin.sol\":12085:12956  for (uint i = 1; i <= 25; i++) {... */\n      jump(tag_652)\n    tag_653:\n      pop\n        /* \"input/CreateWin.sol\":11969:12959  function getaway(string memory beCode, uint money, uint shareSc) private {... */\n      pop\n      pop\n      pop\n      pop\n      jump\t// out\n        /* \"input/CreateWin.sol\":12962:13358  function earneth(address userAddr, uint dayInvAmount, uint rewardIndex, uint times) private {... */\n    tag_675:\n        /* \"input/CreateWin.sol\":13063:13069  uint i */\n      0x00\n        /* \"input/CreateWin.sol\":13072:13073  0 */\n      dup1\n        /* \"input/CreateWin.sol\":13063:13073  uint i = 0 */\n      swap1\n      pop\n        /* \"input/CreateWin.sol\":13058:13355  for (uint i = 0; i < 5; i++) {... */\n    tag_680:\n        /* \"input/CreateWin.sol\":13079:13080  5 */\n      0x05\n        /* \"input/CreateWin.sol\":13075:13076  i */\n      dup2\n        /* \"input/CreateWin.sol\":13075:13080  i < 5 */\n      lt\n        /* \"input/CreateWin.sol\":13058:13355  for (uint i = 0; i < 5; i++) {... */\n      iszero\n      tag_681\n      jumpi\n        /* \"input/CreateWin.sol\":13092:13116  AwardData storage awData */\n      0x00\n        /* \"input/CreateWin.sol\":13119:13139  userAwardDataMapping */\n      0x12\n        /* \"input/CreateWin.sol\":13119:13144  userAwardDataMapping[rid] */\n      0x00\n        /* \"input/CreateWin.sol\":13140:13143  rid */\n      sload(0x0c)\n        /* \"input/CreateWin.sol\":13119:13144  userAwardDataMapping[rid] */\n      dup2\n      mstore\n      0x20\n      add\n      swap1\n      dup2\n      mstore\n      0x20\n      add\n      0x00\n      keccak256\n        /* \"input/CreateWin.sol\":13119:13154  userAwardDataMapping[rid][userAddr] */\n      0x00\n        /* \"input/CreateWin.sol\":13145:13153  userAddr */\n      dup8\n        /* \"input/CreateWin.sol\":13119:13154  userAwardDataMapping[rid][userAddr] */\n      0xffffffffffffffffffffffffffffffffffffffff\n      and\n      0xffffffffffffffffffffffffffffffffffffffff\n      and\n      dup2\n      mstore\n      0x20\n      add\n      swap1\n      dup2\n      mstore\n      0x20\n      add\n      0x00\n      keccak256\n        /* \"input/CreateWin.sol\":13119:13174  userAwardDataMapping[rid][userAddr][rewardIndex.add(i)] */\n      0x00\n        /* \"input/CreateWin.sol\":13155:13173  rewardIndex.add(i) */\n      tag_683\n        /* \"input/CreateWin.sol\":13171:13172  i */\n      dup5\n        /* \"input/CreateWin.sol\":13155:13166  rewardIndex */\n      dup8\n        /* \"input/CreateWin.sol\":13155:13170  rewardIndex.add */\n      tag_243\n      swap1\n        /* \"input/CreateWin.sol\":13155:13173  rewardIndex.add(i) */\n      swap2\n      swap1\n      0xffffffff\n      and\n      jump\t// in\n    tag_683:\n        /* \"input/CreateWin.sol\":13119:13174  userAwardDataMapping[rid][userAddr][rewardIndex.add(i)] */\n      dup2\n      mstore\n      0x20\n      add\n      swap1\n      dup2\n      mstore\n      0x20\n      add\n      0x00\n      keccak256\n        /* \"input/CreateWin.sol\":13092:13174  AwardData storage awData = userAwardDataMapping[rid][userAddr][rewardIndex.add(i)] */\n      swap1\n      pop\n        /* \"input/CreateWin.sol\":13192:13193  1 */\n      0x01\n        /* \"input/CreateWin.sol\":13183:13188  times */\n      dup4\n        /* \"input/CreateWin.sol\":13183:13193  times == 1 */\n      eq\n        /* \"input/CreateWin.sol\":13179:13242  if (times == 1) {... */\n      iszero\n      tag_684\n      jumpi\n        /* \"input/CreateWin.sol\":13224:13236  dayInvAmount */\n      dup5\n        /* \"input/CreateWin.sol\":13201:13207  awData */\n      dup2\n        /* \"input/CreateWin.sol\":13201:13220  awData.oneInvAmount */\n      0x00\n      add\n      0x00\n        /* \"input/CreateWin.sol\":13201:13236  awData.oneInvAmount += dayInvAmount */\n      dup3\n      dup3\n      sload\n      add\n      swap3\n      pop\n      pop\n      dup2\n      swap1\n      sstore\n      pop\n        /* \"input/CreateWin.sol\":13179:13242  if (times == 1) {... */\n    tag_684:\n        /* \"input/CreateWin.sol\":13259:13260  2 */\n      0x02\n        /* \"input/CreateWin.sol\":13250:13255  times */\n      dup4\n        /* \"input/CreateWin.sol\":13250:13260  times == 2 */\n      eq\n        /* \"input/CreateWin.sol\":13246:13309  if (times == 2) {... */\n      iszero\n      tag_685\n      jumpi\n        /* \"input/CreateWin.sol\":13291:13303  dayInvAmount */\n      dup5\n        /* \"input/CreateWin.sol\":13268:13274  awData */\n      dup2\n        /* \"input/CreateWin.sol\":13268:13287  awData.twoInvAmount */\n      0x01\n      add\n      0x00\n        /* \"input/CreateWin.sol\":13268:13303  awData.twoInvAmount += dayInvAmount */\n      dup3\n      dup3\n      sload\n      add\n      swap3\n      pop\n      pop\n      dup2\n      swap1\n      sstore\n      pop\n        /* \"input/CreateWin.sol\":13246:13309  if (times == 2) {... */\n    tag_685:\n        /* \"input/CreateWin.sol\":13338:13350  dayInvAmount */\n      dup5\n        /* \"input/CreateWin.sol\":13313:13319  awData */\n      dup2\n        /* \"input/CreateWin.sol\":13313:13334  awData.threeInvAmount */\n      0x02\n      add\n      0x00\n        /* \"input/CreateWin.sol\":13313:13350  awData.threeInvAmount += dayInvAmount */\n      dup3\n      dup3\n      sload\n      add\n      swap3\n      pop\n      pop\n      dup2\n      swap1\n      sstore\n      pop\n        /* \"input/CreateWin.sol\":13058:13355  for (uint i = 0; i < 5; i++) {... */\n      pop\n        /* \"input/CreateWin.sol\":13082:13085  i++ */\n      dup1\n      dup1\n      0x01\n      add\n      swap2\n      pop\n      pop\n        /* \"input/CreateWin.sol\":13058:13355  for (uint i = 0; i < 5; i++) {... */\n      jump(tag_680)\n    tag_681:\n      pop\n        /* \"input/CreateWin.sol\":12962:13358  function earneth(address userAddr, uint dayInvAmount, uint rewardIndex, uint times) private {... */\n      pop\n      pop\n      pop\n      pop\n      jump\t// out\n        /* \"input/CreateWin.sol\":5577:21143  contract CreateWin is UtilCreateWin, WhitelistAdminRole {... */\n    tag_255:\n      dup3\n      dup1\n      sload\n      0x01\n      dup2\n      0x01\n      and\n      iszero\n      0x0100\n      mul\n      sub\n      and\n      0x02\n      swap1\n      div\n      swap1\n      0x00\n      mstore\n      keccak256(0x00, 0x20)\n      swap1\n      0x1f\n      add\n      0x20\n      swap1\n      div\n      dup2\n      add\n      swap3\n      dup3\n      0x1f\n      lt\n      tag_687\n      jumpi\n      dup1\n      sload\n      dup6\n      sstore\n      jump(tag_686)\n    tag_687:\n      dup3\n      dup1\n      add\n      0x01\n      add\n      dup6\n      sstore\n      dup3\n      iszero\n      tag_686\n      jumpi\n      0x00\n      mstore\n      keccak256(0x00, 0x20)\n      swap2\n      0x1f\n      add\n      0x20\n      swap1\n      div\n      dup3\n      add\n    tag_688:\n      dup3\n      dup2\n      gt\n      iszero\n      tag_689\n      jumpi\n      dup3\n      sload\n      dup3\n      sstore\n      swap2\n      0x01\n      add\n      swap2\n      swap1\n      0x01\n      add\n      swap1\n      jump(tag_688)\n    tag_689:\n    tag_686:\n      pop\n      swap1\n      pop\n      tag_690\n      swap2\n      swap1\n      tag_691\n      jump\t// in\n    tag_690:\n      pop\n      swap1\n      jump\t// out\n    tag_272:\n      mload(0x40)\n      dup1\n      0x01c0\n      add\n      0x40\n      mstore\n      dup1\n      0x0e\n      swap1\n        /* \"--CODEGEN--\":29:31   */\n      0x20\n        /* \"--CODEGEN--\":21:27   */\n      dup3\n        /* \"--CODEGEN--\":17:32   */\n      mul\n        /* \"--CODEGEN--\":117:121   */\n      dup1\n        /* \"--CODEGEN--\":105:115   */\n      codesize\n        /* \"--CODEGEN--\":97:103   */\n      dup4\n        /* \"--CODEGEN--\":88:122   */\n      codecopy\n        /* \"--CODEGEN--\":148:152   */\n      dup1\n        /* \"--CODEGEN--\":140:146   */\n      dup3\n        /* \"--CODEGEN--\":136:153   */\n      add\n        /* \"--CODEGEN--\":126:153   */\n      swap2\n      pop\n        /* \"--CODEGEN--\":0:157   */\n      pop\n        /* \"input/CreateWin.sol\":5577:21143  contract CreateWin is UtilCreateWin, WhitelistAdminRole {... */\n      swap1\n      pop\n      pop\n      swap1\n      jump\t// out\n    tag_279:\n      mload(0x40)\n      dup1\n      0xa0\n      add\n      0x40\n      mstore\n      dup1\n      0x00\n      dup2\n      mstore\n      0x20\n      add\n      and(0xffffffffffffffffffffffffffffffffffffffff, 0x00)\n      dup2\n      mstore\n      0x20\n      add\n      0x60\n      dup2\n      mstore\n      0x20\n      add\n      0x60\n      dup2\n      mstore\n      0x20\n      add\n      0x00\n      dup2\n      mstore\n      pop\n      swap1\n      jump\t// out\n    tag_287:\n      mload(0x40)\n      dup1\n      0x0200\n      add\n      0x40\n      mstore\n      dup1\n      0x00\n      dup2\n      mstore\n      0x20\n      add\n      and(0xffffffffffffffffffffffffffffffffffffffff, 0x00)\n      dup2\n      mstore\n      0x20\n      add\n      0x00\n      dup2\n      mstore\n      0x20\n      add\n      0x00\n      dup2\n      mstore\n      0x20\n      add\n      0x00\n      dup2\n      mstore\n      0x20\n      add\n      0x00\n      dup2\n      mstore\n      0x20\n      add\n      0x00\n      dup2\n      mstore\n      0x20\n      add\n      0x00\n      dup2\n      mstore\n      0x20\n      add\n      0x00\n      dup2\n      mstore\n      0x20\n      add\n      0x00\n      dup2\n      mstore\n      0x20\n      add\n      0x00\n      dup2\n      mstore\n      0x20\n      add\n      0x00\n      dup2\n      mstore\n      0x20\n      add\n      0x60\n      dup2\n      mstore\n      0x20\n      add\n      0x60\n      dup2\n      mstore\n      0x20\n      add\n      0x00\n      dup2\n      mstore\n      0x20\n      add\n      0x00\n      dup2\n      mstore\n      pop\n      swap1\n      jump\t// out\n    tag_312:\n      mload(0x40)\n      dup1\n      0x60\n      add\n      0x40\n      mstore\n      dup1\n      0x00\n      dup2\n      mstore\n      0x20\n      add\n      0x00\n      dup2\n      mstore\n      0x20\n      add\n      0x00\n      dup2\n      mstore\n      pop\n      swap1\n      jump\t// out\n    tag_603:\n      dup3\n      dup1\n      sload\n      0x01\n      dup2\n      0x01\n      and\n      iszero\n      0x0100\n      mul\n      sub\n      and\n      0x02\n      swap1\n      div\n      swap1\n      0x00\n      mstore\n      keccak256(0x00, 0x20)\n      swap1\n      0x1f\n      add\n      0x20\n      swap1\n      div\n      dup2\n      add\n      swap3\n      dup3\n      0x1f\n      lt\n      tag_693\n      jumpi\n      dup1\n      mload\n      not(0xff)\n      and\n      dup4\n      dup1\n      add\n      or\n      dup6\n      sstore\n      jump(tag_692)\n    tag_693:\n      dup3\n      dup1\n      add\n      0x01\n      add\n      dup6\n      sstore\n      dup3\n      iszero\n      tag_692\n      jumpi\n      swap2\n      dup3\n      add\n    tag_694:\n      dup3\n      dup2\n      gt\n      iszero\n      tag_695\n      jumpi\n      dup3\n      mload\n      dup3\n      sstore\n      swap2\n      0x20\n      add\n      swap2\n      swap1\n      0x01\n      add\n      swap1\n      jump(tag_694)\n    tag_695:\n    tag_692:\n      pop\n      swap1\n      pop\n      tag_696\n      swap2\n      swap1\n      tag_691\n      jump\t// in\n    tag_696:\n      pop\n      swap1\n      jump\t// out\n    tag_691:\n      tag_697\n      swap2\n      swap1\n    tag_698:\n      dup1\n      dup3\n      gt\n      iszero\n      tag_699\n      jumpi\n      0x00\n      dup2\n      0x00\n      swap1\n      sstore\n      pop\n      0x01\n      add\n      jump(tag_698)\n    tag_699:\n      pop\n      swap1\n      jump\n    tag_697:\n      swap1\n      jump\t// out\n    stop\n    data_112277b6fc9fa97dbd12e87cf10db4bc8efa7e361be73fd737590c8aaa6be659 636f6e74726163742062616c616e6365206d757374206265206c6f776572207468616e2031206574686572\n    data_245f15ff17f551913a7a18385165551503906a406f905ac1c2437281a7cd0cfe 4f776e61626c653a206e6577206f776e657220697320746865207a65726f2061646472657373\n    data_3e5e9c692c817082a9743a693e9b6b8b7e4bcafbc78fe55fa9db9882e0e81a3b 5065726d697373696f6e2064656e69656420666f722076696577207573657227732070726976616379\n    data_7bd893145ac435f339bb7c288622d270324b7033b011f693aca172f5cbc3c257 526f6c65733a206163636f756e7420646f6573206e6f74206861766520726f6c65\n    data_9d214fa89563f4e6456a3929327e54500ea1cde2c0ba9fb2035ec106190d682f 526f6c65733a206163636f756e7420697320746865207a65726f2061646472657373\n    data_a092a330b9544809a41baf90fad5bb5d721d39e2ab6006aae3447e7f7e21c961 57686974656c69737441646d696e526f6c653a2063616c6c657220646f6573206e6f742068617665207468652057686974656c69737441646d696e20726f6c65\n\n    auxdata: 0xa265627a7a72315820107e97cba6ffe3fb0483dbf6af07e5c4fe745aa851873adcae23257994c487d764736f6c63430005110032\n}\n",
				"bytecode": {
					"linkReferences": {},
					"object": "6080604052670de0b6b3a7640000600055670de0b6b3a764000060035573065136c92b506155deac445548ffde309a9b373d600460006101000a81548173ffffffffffffffffffffffffffffffffffffffff021916908373ffffffffffffffffffffffffffffffffffffffff160217905550737d11efaa59cb41f59b7b6f2a983a0efadfa44116600560006101000a81548173ffffffffffffffffffffffffffffffffffffffff021916908373ffffffffffffffffffffffffffffffffffffffff160217905550600060075562015180600a556000600b556001600c5567d02ab486cedc000060135568056bc75e2d6310000060145567d02ab486cedc0000601555600160165560016017553480156200011857600080fd5b50620001296200016f60201b60201c565b600160006101000a81548173ffffffffffffffffffffffffffffffffffffffff021916908373ffffffffffffffffffffffffffffffffffffffff16021790555062000177565b600033905090565b615b9c80620001876000396000f3fe6080604052600436106101cd5760003560e01c80638a03ad86116100f7578063bc6f504d11610095578063f11c25ba11610064578063f11c25ba14610eaf578063f2fde38b14610ede578063f7ad55d914610f2f578063f851a44014610f7e576101cd565b8063bc6f504d14610cff578063db4acb6414610d4e578063e08f079714610e49578063e0d7cb6f14610e98576101cd565b80639e64f867116100d15780639e64f86714610b04578063a145122414610b3f578063aceb9b6e14610c47578063bb5f747b14610c96576101cd565b80638a03ad86146109ff5780638f32d59b14610a7a5780639160ec5514610aa9576101cd565b8063578d714b1161016f57806375eeadcd1161013e57806375eeadcd1461077c57806383f6f9df146107c157806386481d401461083957806387c5d5cc14610888576101cd565b8063578d714b146105e35780636897e974146106c35780637362d9c814610714578063749aa2d914610765576101cd565b8063423e3071116101ab578063423e3071146103c957806347118798146103e057806348fff6921461054f57806353501a9c146105a8576101cd565b80631ceae42f146101cf57806326eebf411461021e5780633746332b14610277575b005b3480156101db57600080fd5b50610208600480360360208110156101f257600080fd5b8101908080359060200190929190505050610f95565b6040518082815260200191505060405180910390f35b34801561022a57600080fd5b506102616004803603604081101561024157600080fd5b810190808035906020019092919080359060200190929190505050611005565b6040518082815260200191505060405180910390f35b6103c76004803603604081101561028d57600080fd5b81019080803590602001906401000000008111156102aa57600080fd5b8201836020820111156102bc57600080fd5b803590602001918460018302840111640100000000831117156102de57600080fd5b91908080601f016020809104026020016040519081016040528093929190818152602001838380828437600081840152601f19601f8201169050808301925050505050505091929192908035906020019064010000000081111561034157600080fd5b82018360208201111561035357600080fd5b8035906020019184600183028401116401000000008311171561037557600080fd5b91908080601f016020809104026020016040519081016040528093929190818152602001838380828437600081840152601f19601f8201169050808301925050505050505091929192905050506110fd565b005b3480156103d557600080fd5b506103de611a77565b005b3480156103ec57600080fd5b506104396004803603604081101561040357600080fd5b81019080803573ffffffffffffffffffffffffffffffffffffffff16906020019092919080359060200190929190505050611afb565b6040518084600e60200280838360005b83811015610464578082015181840152602081019050610449565b505050509050018060200180602001838103835285818151815260200191508051906020019080838360005b838110156104ab578082015181840152602081019050610490565b50505050905090810190601f1680156104d85780820380516001836020036101000a031916815260200191505b50838103825284818151815260200191508051906020019080838360005b838110156105115780820151818401526020810190506104f6565b50505050905090810190601f16801561053e5780820380516001836020036101000a031916815260200191505b509550505050505060405180910390f35b34801561055b57600080fd5b506105926004803603604081101561057257600080fd5b81019080803590602001909291908035906020019092919050505061256a565b6040518082815260200191505060405180910390f35b3480156105b457600080fd5b506105e1600480360360208110156105cb57600080fd5b8101908080359060200190929190505050612629565b005b3480156105ef57600080fd5b506106a96004803603602081101561060657600080fd5b810190808035906020019064010000000081111561062357600080fd5b82018360208201111561063557600080fd5b8035906020019184600183028401116401000000008311171561065757600080fd5b91908080601f016020809104026020016040519081016040528093929190818152602001838380828437600081840152601f19601f8201169050808301925050505050505091929192905050506127a2565b604051808215151515815260200191505060405180910390f35b3480156106cf57600080fd5b50610712600480360360208110156106e657600080fd5b81019080803573ffffffffffffffffffffffffffffffffffffffff169060200190929190505050612854565b005b34801561072057600080fd5b506107636004803603602081101561073757600080fd5b81019080803573ffffffffffffffffffffffffffffffffffffffff1690602001909291905050506128e5565b005b34801561077157600080fd5b5061077a612976565b005b34801561078857600080fd5b506107bf6004803603604081101561079f57600080fd5b810190808035906020019092919080359060200190929190505050612ab1565b005b3480156107cd57600080fd5b506107d66133a9565b604051808d81526020018c81526020018b81526020018a81526020018981526020018881526020018781526020018681526020018581526020018481526020018381526020018281526020019c5050505050505050505050505060405180910390f35b34801561084557600080fd5b506108726004803603602081101561085c57600080fd5b8101908080359060200190929190505050613441565b6040518082815260200191505060405180910390f35b34801561089457600080fd5b506109e5600480360360408110156108ab57600080fd5b81019080803590602001906401000000008111156108c857600080fd5b8201836020820111156108da57600080fd5b803590602001918460018302840111640100000000831117156108fc57600080fd5b91908080601f016020809104026020016040519081016040528093929190818152602001838380828437600081840152601f19601f8201169050808301925050505050505091929192908035906020019064010000000081111561095f57600080fd5b82018360208201111561097157600080fd5b8035906020019184600183028401116401000000008311171561099357600080fd5b91908080601f016020809104026020016040519081016040528093929190818152602001838380828437600081840152601f19601f8201169050808301925050505050505091929192905050506134c4565b604051808215151515815260200191505060405180910390f35b348015610a0b57600080fd5b50610a3860048036036020811015610a2257600080fd5b81019080803590602001909291905050506135c4565b604051808273ffffffffffffffffffffffffffffffffffffffff1673ffffffffffffffffffffffffffffffffffffffff16815260200191505060405180910390f35b348015610a8657600080fd5b50610a8f61367c565b604051808215151515815260200191505060405180910390f35b348015610ab557600080fd5b50610b0260048036036040811015610acc57600080fd5b81019080803573ffffffffffffffffffffffffffffffffffffffff169060200190929190803590602001909291905050506136db565b005b348015610b1057600080fd5b50610b3d60048036036020811015610b2757600080fd5b810190808035906020019092919050505061382c565b005b348015610b4b57600080fd5b50610c0560048036036020811015610b6257600080fd5b8101908080359060200190640100000000811115610b7f57600080fd5b820183602082011115610b9157600080fd5b80359060200191846001830284011164010000000083111715610bb357600080fd5b91908080601f016020809104026020016040519081016040528093929190818152602001838380828437600081840152601f19601f8201169050808301925050505050505091929192905050506138aa565b604051808273ffffffffffffffffffffffffffffffffffffffff1673ffffffffffffffffffffffffffffffffffffffff16815260200191505060405180910390f35b348015610c5357600080fd5b50610c9460048036036060811015610c6a57600080fd5b810190808035906020019092919080359060200190929190803590602001909291905050506139b8565b005b348015610ca257600080fd5b50610ce560048036036020811015610cb957600080fd5b81019080803573ffffffffffffffffffffffffffffffffffffffff169060200190929190505050613bc5565b604051808215151515815260200191505060405180910390f35b348015610d0b57600080fd5b50610d4c60048036036060811015610d2257600080fd5b81019080803590602001909291908035906020019092919080359060200190929190505050613bf1565b005b348015610d5a57600080fd5b50610e4760048036036060811015610d7157600080fd5b81019080803573ffffffffffffffffffffffffffffffffffffffff16906020019092919080359060200190640100000000811115610dae57600080fd5b820183602082011115610dc057600080fd5b80359060200191846001830284011164010000000083111715610de257600080fd5b909192939192939080359060200190640100000000811115610e0357600080fd5b820183602082011115610e1557600080fd5b80359060200191846001830284011164010000000083111715610e3757600080fd5b9091929391929390505050613d2c565b005b348015610e5557600080fd5b50610e8260048036036020811015610e6c57600080fd5b81019080803590602001909291905050506142ca565b6040518082815260200191505060405180910390f35b348015610ea457600080fd5b50610ead61430c565b005b348015610ebb57600080fd5b50610ec46145f6565b604051808215151515815260200191505060405180910390f35b348015610eea57600080fd5b50610f2d60048036036020811015610f0157600080fd5b81019080803573ffffffffffffffffffffffffffffffffffffffff169060200190929190505050614610565b005b348015610f3b57600080fd5b50610f6860048036036020811015610f5257600080fd5b8101908080359060200190929190505050614754565b6040518082815260200191505060405180910390f35b348015610f8a57600080fd5b50610f93614796565b005b600080546001028210158015610fb057506000546005028211155b15610fbe5760019050611000565b6000546006028210158015610fd85750600054600a028211155b15610fe65760029050611000565b600054600b028210610ffb5760039050611000565b600090505b919050565b60006001831480156110175750600182145b1561102557603290506110f7565b6002831480156110355750600182145b1561104357604690506110f7565b6002831480156110535750600282145b1561106157603290506110f7565b60038314156110f257600182141561107c57606490506110f7565b600282141561108e57604690506110f7565b60038214156110a057603290506110f7565b600482101580156110b25750600a8211155b156110c057600a90506110f7565b600b82101580156110d2575060148211155b156110e057600590506110f7565b601582106110f157600190506110f7565b5b600090505b92915050565b60003390506000813b90506000811461117e576040517f08c379a00000000000000000000000000000000000000000000000000000000081526004018080602001828103825260118152602001807f736f7272792068756d616e73206f6e6c7900000000000000000000000000000081525060200191505060405180910390fd5b3373ffffffffffffffffffffffffffffffffffffffff163273ffffffffffffffffffffffffffffffffffffffff161461121f576040517f08c379a00000000000000000000000000000000000000000000000000000000081526004018080602001828103825260128152602001807f736f7272792c2068756d616e73206f6e6c79000000000000000000000000000081525060200191505060405180910390fd5b6112276145f6565b611299576040517f08c379a00000000000000000000000000000000000000000000000000000000081526004018080602001828103825260118152602001807f6e6f2c20646f6e6e6f74696d697461746500000000000000000000000000000081525060200191505060405180910390fd5b60035460010234101580156112b35750600354600f023411155b611325576040517f08c379a00000000000000000000000000000000000000000000000000000000081526004018080602001828103825260108152602001807f6265747765656e203120616e642031350000000000000000000000000000000081525060200191505060405180910390fd5b61134e6003546113406003543461483d90919063ffffffff16565b6148cc90919063ffffffff16565b34146113c2576040517f08c379a00000000000000000000000000000000000000000000000000000000081526004018080602001828103825260118152602001807f696e76616c6964206d73672076616c756500000000000000000000000000000081525060200191505060405180910390fd5b6000600f60003373ffffffffffffffffffffffffffffffffffffffff1673ffffffffffffffffffffffffffffffffffffffff16815260200190815260200160002090506000816000015414156116df5761142b85604051806020016040528060008152506134c4565b158015611439575060068551145b6114ab576040517f08c379a00000000000000000000000000000000000000000000000000000000081526004018080602001828103825260138152602001807f696e76616c696420696e7669746520636f64650000000000000000000000000081525060200191505060405180910390fd5b60006010856040518082805190602001908083835b602083106114e357805182526020820191506020810190506020830392506114c0565b6001836020036101000a038019825116818451168082178552505050505050905001915050908152602001604051809103902060009054906101000a900473ffffffffffffffffffffffffffffffffffffffff169050611542856127a2565b6115b4576040517f08c379a00000000000000000000000000000000000000000000000000000000081526004018080602001828103825260108152602001807f6265436f6465206e6f742065786973740000000000000000000000000000000081525060200191505060405180910390fd5b3373ffffffffffffffffffffffffffffffffffffffff168173ffffffffffffffffffffffffffffffffffffffff161415611656576040517f08c379a00000000000000000000000000000000000000000000000000000000081526004018080602001828103825260188152602001807f6265436f6465416464722063616e27742062652073656c66000000000000000081525060200191505060405180910390fd5b61165f866127a2565b156116d2576040517f08c379a00000000000000000000000000000000000000000000000000000000081526004018080602001828103825260138152602001807f696e7669746520636f646520697320757365640000000000000000000000000081525060200191505060405180910390fd5b6116dd33878761496f565b505b6000806116ea614b46565b156116f7573490506116fb565b3491505b6000600e6000600c54815260200190815260200160002060003373ffffffffffffffffffffffffffffffffffffffff1673ffffffffffffffffffffffffffffffffffffffff1681526020019081526020016000209050600081600001541461185a57600061177a82600401548360030154614b5390919063ffffffff16565b146117ed576040517f08c379a00000000000000000000000000000000000000000000000000000000081526004018080602001828103825260108152602001807f6f6e6c79206f6e636520696e766573740000000000000000000000000000000081525060200191505060405180910390fd5b82816003018190555081816004018190555061180c8160030154613441565b816008018190555061184d611848826004015461183a84600201548560030154614b5390919063ffffffff16565b614b5390919063ffffffff16565b610f95565b816009018190555061195f565b83600001548160000181905550338160010160006101000a81548173ffffffffffffffffffffffffffffffffffffffff021916908373ffffffffffffffffffffffffffffffffffffffff1602179055508281600301819055506118bc83613441565b816008018190555081816004018190555061190661190182600401546118f384600201548560030154614b5390919063ffffffff16565b614b5390919063ffffffff16565b610f95565b81600901819055508360020181600c019080546001816001161561010002031660029004611935929190615822565b508360030181600d01908054600181600116156101000203166002900461195d929190615822565b505b611988600160086000600c54815260200190815260200160002054614b5390919063ffffffff16565b60086000600c548152602001908152602001600020819055506119c93460096000600c54815260200190815260200160002054614b5390919063ffffffff16565b60096000600c548152602001908152602001600020819055506119ea614b46565b611a29576119f734614bdb565b611a248160010160009054906101000a900473ffffffffffffffffffffffffffffffffffffffff16614c5a565b611a6d565b600d6000600c548152602001908152602001600020816000015490806001815401808255809150509060018203906000526020600020016000909192909190915055505b5050505050505050565b611a7f61367c565b611af1576040517f08c379a00000000000000000000000000000000000000000000000000000000081526004018080602001828103825260208152602001807f4f776e61626c653a2063616c6c6572206973206e6f7420746865206f776e657281525060200191505060405180910390fd5b6000601681905550565b611b036158a9565b606080611b0f33613bc5565b80611b4557508473ffffffffffffffffffffffffffffffffffffffff163373ffffffffffffffffffffffffffffffffffffffff16145b611b9a576040517f08c379a0000000000000000000000000000000000000000000000000000000008152600401808060200182810382526029815260200180615abc6029913960400191505060405180910390fd5b6000841415611ba957600c5493505b611bb16158cc565b600f60008773ffffffffffffffffffffffffffffffffffffffff1673ffffffffffffffffffffffffffffffffffffffff1681526020019081526020016000206040518060a0016040529081600082015481526020016001820160009054906101000a900473ffffffffffffffffffffffffffffffffffffffff1673ffffffffffffffffffffffffffffffffffffffff1673ffffffffffffffffffffffffffffffffffffffff168152602001600282018054600181600116156101000203166002900480601f016020809104026020016040519081016040528092919081815260200182805460018160011615610100020316600290048015611cf45780601f10611cc957610100808354040283529160200191611cf4565b820191906000526020600020905b815481529060010190602001808311611cd757829003601f168201915b50505050508152602001600382018054600181600116156101000203166002900480601f016020809104026020016040519081016040528092919081815260200182805460018160011615610100020316600290048015611d965780601f10611d6b57610100808354040283529160200191611d96565b820191906000526020600020905b815481529060010190602001808311611d7957829003601f168201915b505050505081526020016004820154815250509050611db3615911565b600e600087815260200190815260200160002060008873ffffffffffffffffffffffffffffffffffffffff1673ffffffffffffffffffffffffffffffffffffffff16815260200190815260200160002060405180610200016040529081600082015481526020016001820160009054906101000a900473ffffffffffffffffffffffffffffffffffffffff1673ffffffffffffffffffffffffffffffffffffffff1673ffffffffffffffffffffffffffffffffffffffff1681526020016002820154815260200160038201548152602001600482015481526020016005820154815260200160068201548152602001600782015481526020016008820154815260200160098201548152602001600a8201548152602001600b8201548152602001600c82018054600181600116156101000203166002900480601f016020809104026020016040519081016040528092919081815260200182805460018160011615610100020316600290048015611f6c5780601f10611f4157610100808354040283529160200191611f6c565b820191906000526020600020905b815481529060010190602001808311611f4f57829003601f168201915b50505050508152602001600d82018054600181600116156101000203166002900480601f01602080910402602001604051908101604052809291908181526020018280546001816001161561010002031660029004801561200e5780601f10611fe35761010080835404028352916020019161200e565b820191906000526020600020905b815481529060010190602001808311611ff157829003601f168201915b50505050508152602001600e8201548152602001600f8201548152505090508160000151856000600e811061203f57fe5b6020020181815250508060800151856001600e811061205a57fe5b6020020181815250508060400151856002600e811061207557fe5b6020020181815250508060600151856003600e811061209057fe5b6020020181815250508060a00151856004600e81106120ab57fe5b6020020181815250508060e00151856005600e81106120c657fe5b602002018181525050806101200151856006600e81106120e257fe5b6020020181815250508060c00151856007600e81106120fd57fe5b602002018181525050806101c00151856008600e811061211957fe5b602002018181525050806101600151856009600e811061213557fe5b60200201818152505080610100015185600a600e811061215157fe5b60200201818152505060008090506000826000015111801561217f5750670de0b6b3a7640000826060015110155b80156121915750601354826060015111155b80156121a257506005826101600151105b80156121b357506001836080015114155b156121c2578160c00151810190505b6000836080015114156124fb5760008090506121dc6159a4565b60126000600c5481526020019081526020016000206000856020015173ffffffffffffffffffffffffffffffffffffffff1673ffffffffffffffffffffffffffffffffffffffff1681526020019081526020016000206000856101c0015181526020019081526020016000206040518060600160405290816000820154815260200160018201548152602001600282015481525050905060006122a6856080015161229887604001518860600151614b5390919063ffffffff16565b614b5390919063ffffffff16565b9050670de0b6b3a764000081106124f75760006122ce6003548361483d90919063ffffffff16565b9050600f81106122e6578260400151840193506124f0565b60018661012001511480156123035750670de0b6b3a76400008210155b8015612313575060008360000151115b1561235a57612355600261234783612339600f886000015161483d90919063ffffffff16565b6148cc90919063ffffffff16565b61483d90919063ffffffff16565b840193505b60028661012001511480156123775750670de0b6b3a76400008210155b80156123965750600083600001511180612395575060008360200151115b5b15612444576123eb600a6123dd60076123cf856123c1600f8a6000015161483d90919063ffffffff16565b6148cc90919063ffffffff16565b6148cc90919063ffffffff16565b61483d90919063ffffffff16565b8401935061243f6007612431600561242385612415600f8a6020015161483d90919063ffffffff16565b6148cc90919063ffffffff16565b6148cc90919063ffffffff16565b61483d90919063ffffffff16565b840193505b60038661012001511480156124615750670de0b6b3a76400008210155b8015612471575060008360400151115b156124a5576124a081612492600f866040015161483d90919063ffffffff16565b6148cc90919063ffffffff16565b840193505b600386610120015110156124ef5760006124c38761012001516142ca565b90506124eb600a6124dd83886148cc90919063ffffffff16565b61483d90919063ffffffff16565b9450505b5b8385019450505b5050505b8086600b600e811061250957fe5b602002018181525050816101e0015186600c600e811061252557fe5b602002018181525050826080015186600d600e811061254057fe5b60200201818152505085836040015184606001518191508090509550955095505050509250925092565b600061257533613bc5565b6125e7576040517f08c379a00000000000000000000000000000000000000000000000000000000081526004018080602001828103825260118152602001807f5065726d697373696f6e2064656e69656400000000000000000000000000000081525060200191505060405180910390fd5b60008214156125f657600c5491505b600d6000600c548152602001908152602001600020838154811061261657fe5b9060005260206000200154905092915050565b61263161367c565b6126a3576040517f08c379a00000000000000000000000000000000000000000000000000000000081526004018080602001828103825260208152602001807f4f776e61626c653a2063616c6c6572206973206e6f7420746865206f776e657281525060200191505060405180910390fd5b60016017541461271b576040517f08c379a00000000000000000000000000000000000000000000000000000000081526004018080602001828103825260178152602001807f7665727964616e6765726f75732c206c696d697465642100000000000000000081525060200191505060405180910390fd5b428111612790576040517f08c379a00000000000000000000000000000000000000000000000000000000081526004018080602001828103825260118152602001807f6e6f2c207665727964616e6765726f757300000000000000000000000000000081525060200191505060405180910390fd5b80600681905550600060178190555050565b6000806010836040518082805190602001908083835b602083106127db57805182526020820191506020810190506020830392506127b8565b6001836020036101000a038019825116818451168082178552505050505050905001915050908152602001604051809103902060009054906101000a900473ffffffffffffffffffffffffffffffffffffffff16905060008173ffffffffffffffffffffffffffffffffffffffff161415915050919050565b61285c61367c565b6128ce576040517f08c379a00000000000000000000000000000000000000000000000000000000081526004018080602001828103825260208152602001807f4f776e61626c653a2063616c6c6572206973206e6f7420746865206f776e657281525060200191505060405180910390fd5b6128e2816002614ffd90919063ffffffff16565b50565b6128ed61367c565b61295f576040517f08c379a00000000000000000000000000000000000000000000000000000000081526004018080602001828103825260208152602001807f4f776e61626c653a2063616c6c6572206973206e6f7420746865206f776e657281525060200191505060405180910390fd5b6129738160026150ba90919063ffffffff16565b50565b61297e61367c565b6129f0576040517f08c379a00000000000000000000000000000000000000000000000000000000081526004018080602001828103825260208152602001807f4f776e61626c653a2063616c6c6572206973206e6f7420746865206f776e657281525060200191505060405180910390fd5b670de0b6b3a76400004710612a50576040517f08c379a000000000000000000000000000000000000000000000000000000000815260040180806020018281038252602b815260200180615a6b602b913960400191505060405180910390fd5b600c60008154809291906001019190505550612aa162015180612a9362015180612a85600a5442614b5390919063ffffffff16565b61483d90919063ffffffff16565b6148cc90919063ffffffff16565b6006819055506001601781905550565b612ac1612abc615195565b613bc5565b80612ad05750612acf61367c565b5b612b25576040517f08c379a0000000000000000000000000000000000000000000000000000000008152600401808060200182810382526040815260200180615b286040913960400191505060405180910390fd5b60008290505b8181116133a45760006011600083815260200190815260200160002060009054906101000a900473ffffffffffffffffffffffffffffffffffffffff1690506000600e6000600c54815260200190815260200160002060008373ffffffffffffffffffffffffffffffffffffffff1673ffffffffffffffffffffffffffffffffffffffff1681526020019081526020016000209050612bc86158cc565b600f60008473ffffffffffffffffffffffffffffffffffffffff1673ffffffffffffffffffffffffffffffffffffffff1681526020019081526020016000206040518060a0016040529081600082015481526020016001820160009054906101000a900473ffffffffffffffffffffffffffffffffffffffff1673ffffffffffffffffffffffffffffffffffffffff1673ffffffffffffffffffffffffffffffffffffffff168152602001600282018054600181600116156101000203166002900480601f016020809104026020016040519081016040528092919081815260200182805460018160011615610100020316600290048015612d0b5780601f10612ce057610100808354040283529160200191612d0b565b820191906000526020600020905b815481529060010190602001808311612cee57829003601f168201915b50505050508152602001600382018054600181600116156101000203166002900480601f016020809104026020016040519081016040528092919081815260200182805460018160011615610100020316600290048015612dad5780601f10612d8257610100808354040283529160200191612dad565b820191906000526020600020905b815481529060010190602001808311612d9057829003601f168201915b50505050508152602001600482015481525050905061a8c0612ddc83600f01544261519d90919063ffffffff16565b11612de957505050613397565b4282600f0181905550600181608001511415612e2757612e17600183600e0154614b5390919063ffffffff16565b82600e0181905550505050613397565b60008090506000836000015414158015612e4d5750670de0b6b3a7640000836003015410155b8015612e5f5750601354836003015411155b15612f0157600583600b01541015612ebe57826006015481019050612e91818460070154614b5390919063ffffffff16565b8360070181905550612eb1600184600b0154614b5390919063ffffffff16565b83600b0181905550612f00565b612ed983600301548460020154614b5390919063ffffffff16565b83600201819055506000836003018190555060008360060181905550600083600801819055505b5b6000612f348460040154612f2686600201548760030154614b5390919063ffffffff16565b614b5390919063ffffffff16565b9050670de0b6b3a7640000811080612f4d575060155481115b15612f7c57612f6a600185600e0154614b5390919063ffffffff16565b84600e01819055505050505050613397565b600080905060008460800151141561328357612f966159a4565b60126000600c54815260200190815260200160002060008873ffffffffffffffffffffffffffffffffffffffff1673ffffffffffffffffffffffffffffffffffffffff168152602001908152602001600020600087600e0154815260200190815260200160002060405180606001604052908160008201548152602001600182015481526020016002820154815250509050613040600187600e0154614b5390919063ffffffff16565b86600e0181905550600061305f6003548561483d90919063ffffffff16565b9050600f81106130775781604001518301925061327c565b600187600901541480156130935750670de0b6b3a76400008410155b80156130a3575060008260000151115b156130ea576130e560026130d7836130c9600f876000015161483d90919063ffffffff16565b6148cc90919063ffffffff16565b61483d90919063ffffffff16565b830192505b6002876009015414801561310657506753444835ec5800008410155b80156131255750600082600001511180613124575060008260200151115b5b156131d35761317a600a61316c600761315e85613150600f896000015161483d90919063ffffffff16565b6148cc90919063ffffffff16565b6148cc90919063ffffffff16565b61483d90919063ffffffff16565b830192506131ce60076131c060056131b2856131a4600f896020015161483d90919063ffffffff16565b6148cc90919063ffffffff16565b6148cc90919063ffffffff16565b61483d90919063ffffffff16565b830192505b600387600901541480156131ef57506798a7d9b8314c00008410155b80156131ff575060008260400151115b156132335761322e81613220600f856040015161483d90919063ffffffff16565b6148cc90919063ffffffff16565b830192505b60038760090154101561327b57600061324f88600901546142ca565b9050613277600a61326983876148cc90919063ffffffff16565b61483d90919063ffffffff16565b9350505b5b50506132b2565b6002846080015114156132b1576132a8600186600e0154614b5390919063ffffffff16565b85600e01819055505b5b6014546132c88285614b5390919063ffffffff16565b11613390576132e4818660050154614b5390919063ffffffff16565b85600501819055506000809050600080905061331161330c8487614b5390919063ffffffff16565b615226565b8092508193505050600081111561338d576000613338600a8361483d90919063ffffffff16565b9050613366600560009054906101000a900473ffffffffffffffffffffffffffffffffffffffff1682615249565b613379818361519d90919063ffffffff16565b9150600089905061338a8184615249565b50505b50505b5050505050505b8080600101915050612b2b565b505050565b600080600080600080600080600080600080600c54600b5460065460086000600c5481526020019081526020016000205460096000600c54815260200190815260200160002054601354601454601554601654600754600d6000600c548152602001908152602001600020805490506017549b509b509b509b509b509b509b509b509b509b509b509b50909192939495969798999a9b565b60008054600102821015801561345c57506000546005028211155b1561346a57600190506134bf565b60005460060282101580156134845750600054600a028211155b1561349257600290506134bf565b600054600b0282101580156134ac5750600054600f028211155b156134ba57600390506134bf565b600090505b919050565b6000816040516020018082805190602001908083835b602083106134fd57805182526020820191506020810190506020830392506134da565b6001836020036101000a03801982511681845116808217855250505050505090500191505060405160208183030381529060405280519060200120836040516020018082805190602001908083835b6020831061356f578051825260208201915060208101905060208303925061354c565b6001836020036101000a0380198251168184511680821785525050505050509050019150506040516020818303038152906040528051906020012014156135b957600190506135be565b600090505b92915050565b60006135cf33613bc5565b613641576040517f08c379a00000000000000000000000000000000000000000000000000000000081526004018080602001828103825260118152602001807f5065726d697373696f6e2064656e69656400000000000000000000000000000081525060200191505060405180910390fd5b6011600083815260200190815260200160002060009054906101000a900473ffffffffffffffffffffffffffffffffffffffff169050919050565b6000600160009054906101000a900473ffffffffffffffffffffffffffffffffffffffff1673ffffffffffffffffffffffffffffffffffffffff166136bf615195565b73ffffffffffffffffffffffffffffffffffffffff1614905090565b6136eb6136e6615195565b613bc5565b806136fa57506136f961367c565b5b61374f576040517f08c379a0000000000000000000000000000000000000000000000000000000008152600401808060200182810382526040815260200180615b286040913960400191505060405180910390fd5b600081148061375e5750600181145b806137695750600281145b6137db576040517f08c379a00000000000000000000000000000000000000000000000000000000081526004018080602001828103825260148152602001807f62616420706172616d657465722073746174757300000000000000000000000081525060200191505060405180910390fd5b6000600f60008473ffffffffffffffffffffffffffffffffffffffff1673ffffffffffffffffffffffffffffffffffffffff1681526020019081526020016000209050818160040181905550505050565b61383c613837615195565b613bc5565b8061384b575061384a61367c565b5b6138a0576040517f08c379a0000000000000000000000000000000000000000000000000000000008152600401808060200182810382526040815260200180615b286040913960400191505060405180910390fd5b8060078190555050565b60006138b533613bc5565b613927576040517f08c379a00000000000000000000000000000000000000000000000000000000081526004018080602001828103825260118152602001807f5065726d697373696f6e2064656e69656400000000000000000000000000000081525060200191505060405180910390fd5b6010826040518082805190602001908083835b6020831061395d578051825260208201915060208101905060208303925061393a565b6001836020036101000a038019825116818451168082178552505050505050905001915050908152602001604051809103902060009054906101000a900473ffffffffffffffffffffffffffffffffffffffff169050919050565b6139c86139c3615195565b613bc5565b806139d757506139d661367c565b5b613a2c576040517f08c379a0000000000000000000000000000000000000000000000000000000008152600401808060200182810382526040815260200180615b286040913960400191505060405180910390fd5b60008390505b828111613bbf5760008090506000831415613a7957600d6000600c5481526020019081526020016000208281548110613a6757fe5b90600052602060002001549050613a7d565b8190505b60006011600083815260200190815260200160002060009054906101000a900473ffffffffffffffffffffffffffffffffffffffff1690506000600e6000600c54815260200190815260200160002060008373ffffffffffffffffffffffffffffffffffffffff1673ffffffffffffffffffffffffffffffffffffffff168152602001908152602001600020905060008160030154148015613b2b5750670de0b6b3a7640000816004015410155b8015613b43575067d02ab486cedc0000816004015411155b15613baf5780600401548160030181905550613b628160030154613441565b816008018190555060008160040181905550613b818160030154614bdb565b613bae8160010160009054906101000a900473ffffffffffffffffffffffffffffffffffffffff16614c5a565b5b5050508080600101915050613a32565b50505050565b6000613bdb82600261529e90919063ffffffff16565b80613bea5750613be961367c565b5b9050919050565b613bf961367c565b613c6b576040517f08c379a00000000000000000000000000000000000000000000000000000000081526004018080602001828103825260208152602001807f4f776e61626c653a2063616c6c6572206973206e6f7420746865206f776e657281525060200191505060405180910390fd5b67d02ab486cedc00008310158015613c8c575068056bc75e2d631000008210155b8015613ca0575067d02ab486cedc00008110155b613d12576040517f08c379a000000000000000000000000000000000000000000000000000000000815260040180806020018281038252600e8152602001807f696e76616c696420616d6f756e7400000000000000000000000000000000000081525060200191505060405180910390fd5b826013819055508160148190555080601581905550505050565b613d3c613d37615195565b613bc5565b80613d4b5750613d4a61367c565b5b613da0576040517f08c379a0000000000000000000000000000000000000000000000000000000008152600401808060200182810382526040815260200180615b286040913960400191505060405180910390fd5b600160165414613e18576040517f08c379a000000000000000000000000000000000000000000000000000000000815260040180806020018281038252600e8152602001807f696d706f72742073746f7070656400000000000000000000000000000000000081525060200191505060405180910390fd5b6000600f60008773ffffffffffffffffffffffffffffffffffffffff1673ffffffffffffffffffffffffffffffffffffffff16815260200190815260200160002090506000816000015414613ed5576040517f08c379a00000000000000000000000000000000000000000000000000000000081526004018080602001828103825260138152602001807f7573657220616c7265616479206578697374730000000000000000000000000081525060200191505060405180910390fd5b613f3285858080601f016020809104026020016040519081016040528093929190818152602001838380828437600081840152601f19601f82011690508083019250505050505050604051806020016040528060008152506134c4565b15613fa5576040517f08c379a00000000000000000000000000000000000000000000000000000000081526004018080602001828103825260118152602001807f656d70747920696e7669746520636f646500000000000000000000000000000081525060200191505060405180910390fd5b6000600b54146140805761400c83838080601f016020809104026020016040519081016040528093929190818152602001838380828437600081840152601f19601f82011690508083019250505050505050604051806020016040528060008152506134c4565b1561407f576040517f08c379a000000000000000000000000000000000000000000000000000000000815260040180806020018281038252600c8152602001807f656d707479206265436f6465000000000000000000000000000000000000000081525060200191505060405180910390fd5b5b600060108484604051808383808284378083019250505092505050908152602001604051809103902060009054906101000a900473ffffffffffffffffffffffffffffffffffffffff1690508673ffffffffffffffffffffffffffffffffffffffff168173ffffffffffffffffffffffffffffffffffffffff16141561416e576040517f08c379a00000000000000000000000000000000000000000000000000000000081526004018080602001828103825260188152602001807f6265436f6465416464722063616e27742062652073656c66000000000000000081525060200191505060405180910390fd5b6141bb86868080601f016020809104026020016040519081016040528093929190818152602001838380828437600081840152601f19601f820116905080830192505050505050506127a2565b1561422e576040517f08c379a00000000000000000000000000000000000000000000000000000000081526004018080602001828103825260138152602001807f696e7669746520636f646520697320757365640000000000000000000000000081525060200191505060405180910390fd5b6142c18787878080601f016020809104026020016040519081016040528093929190818152602001838380828437600081840152601f19601f8201169050808301925050505050505086868080601f016020809104026020016040519081016040528093929190818152602001838380828437600081840152601f19601f8201169050808301925050505050505061496f565b50505050505050565b600060018214156142de5760039050614307565b60028214156142f05760069050614307565b600382141561430257600a9050614307565b600090505b919050565b60003390506000813b90506000811461438d576040517f08c379a00000000000000000000000000000000000000000000000000000000081526004018080602001828103825260118152602001807f736f7272792068756d616e73206f6e6c7900000000000000000000000000000081525060200191505060405180910390fd5b3373ffffffffffffffffffffffffffffffffffffffff163273ffffffffffffffffffffffffffffffffffffffff161461442e576040517f08c379a00000000000000000000000000000000000000000000000000000000081526004018080602001828103825260128152602001807f736f7272792c2068756d616e73206f6e6c79000000000000000000000000000081525060200191505060405180910390fd5b6144366145f6565b6144a8576040517f08c379a00000000000000000000000000000000000000000000000000000000081526004018080602001828103825260108152602001807f6e6f20646f6e6e6f74696d69746174650000000000000000000000000000000081525060200191505060405180910390fd5b6000600e6000600c54815260200190815260200160002060003373ffffffffffffffffffffffffffffffffffffffff1673ffffffffffffffffffffffffffffffffffffffff1681526020019081526020016000209050600081600001541415614579576040517f08c379a000000000000000000000000000000000000000000000000000000000815260040180806020018281038252600e8152602001807f75736572206e6f7420657869737400000000000000000000000000000000000081525060200191505060405180910390fd5b6000816004015482600201540190506000809050600080905061459b83615226565b80925081935050506000811180156145b557506015548111155b156145ee576145c43382615249565b60008460020181905550600084600401819055506145e58460030154610f95565b84600901819055505b505050505050565b6000806006541415801561460b575060065442115b905090565b61461861367c565b61468a576040517f08c379a00000000000000000000000000000000000000000000000000000000081526004018080602001828103825260208152602001807f4f776e61626c653a2063616c6c6572206973206e6f7420746865206f776e657281525060200191505060405180910390fd5b600073ffffffffffffffffffffffffffffffffffffffff168173ffffffffffffffffffffffffffffffffffffffff161415614710576040517f08c379a0000000000000000000000000000000000000000000000000000000008152600401808060200182810382526026815260200180615a966026913960400191505060405180910390fd5b80600160006101000a81548173ffffffffffffffffffffffffffffffffffffffff021916908373ffffffffffffffffffffffffffffffffffffffff16021790555050565b600060018214156147685760059050614791565b600282141561477a5760079050614791565b600382141561478c57600a9050614791565b600090505b919050565b61479e61367c565b614810576040517f08c379a00000000000000000000000000000000000000000000000000000000081526004018080602001828103825260208152602001807f4f776e61626c653a2063616c6c6572206973206e6f7420746865206f776e657281525060200191505060405180910390fd5b734ea45a7723218e691f4aec6c844d2068fc1eadee73ffffffffffffffffffffffffffffffffffffffff16ff5b60008082116148b4576040517f08c379a00000000000000000000000000000000000000000000000000000000081526004018080602001828103825260088152602001807f646976207a65726f00000000000000000000000000000000000000000000000081525060200191505060405180910390fd5b60008284816148bf57fe5b0490508091505092915050565b6000808314156148df5760009050614969565b60008284029050828482816148f057fe5b0414614964576040517f08c379a000000000000000000000000000000000000000000000000000000000815260040180806020018281038252600c8152602001807f6d756c206f766572666c6f77000000000000000000000000000000000000000081525060200191505060405180910390fd5b809150505b92915050565b6000600f60008573ffffffffffffffffffffffffffffffffffffffff1673ffffffffffffffffffffffffffffffffffffffff1681526020019081526020016000209050600b60008154809291906001019190505550600b548160000181905550838160010160006101000a81548173ffffffffffffffffffffffffffffffffffffffff021916908373ffffffffffffffffffffffffffffffffffffffff16021790555082816002019080519060200190614a2a9291906159c5565b5081816003019080519060200190614a439291906159c5565b50836010846040518082805190602001908083835b60208310614a7b5780518252602082019150602081019050602083039250614a58565b6001836020036101000a038019825116818451168082178552505050505050905001915050908152602001604051809103902060006101000a81548173ffffffffffffffffffffffffffffffffffffffff021916908373ffffffffffffffffffffffffffffffffffffffff1602179055508360116000600b54815260200190815260200160002060006101000a81548173ffffffffffffffffffffffffffffffffffffffff021916908373ffffffffffffffffffffffffffffffffffffffff16021790555050505050565b6000806007541415905090565b600080828401905083811015614bd1576040517f08c379a00000000000000000000000000000000000000000000000000000000081526004018080602001828103825260088152602001807f6f766572666c6f7700000000000000000000000000000000000000000000000081525060200191505060405180910390fd5b8091505092915050565b600460009054906101000a900473ffffffffffffffffffffffffffffffffffffffff1673ffffffffffffffffffffffffffffffffffffffff166108fc614c2b60198461483d90919063ffffffff16565b9081150290604051600060405180830381858888f19350505050158015614c56573d6000803e3d6000fd5b5050565b6000600e6000600c54815260200190815260200160002060008373ffffffffffffffffffffffffffffffffffffffff1673ffffffffffffffffffffffffffffffffffffffff1681526020019081526020016000209050600081600001541415614cc35750614ffa565b6000614cd28260080154614754565b9050614cff6103e8614cf18385600301546148cc90919063ffffffff16565b61483d90919063ffffffff16565b8260060181905550600082600b0181905550614d196158cc565b600f60008573ffffffffffffffffffffffffffffffffffffffff1673ffffffffffffffffffffffffffffffffffffffff1681526020019081526020016000206040518060a0016040529081600082015481526020016001820160009054906101000a900473ffffffffffffffffffffffffffffffffffffffff1673ffffffffffffffffffffffffffffffffffffffff1673ffffffffffffffffffffffffffffffffffffffff168152602001600282018054600181600116156101000203166002900480601f016020809104026020016040519081016040528092919081815260200182805460018160011615610100020316600290048015614e5c5780601f10614e3157610100808354040283529160200191614e5c565b820191906000526020600020905b815481529060010190602001808311614e3f57829003601f168201915b50505050508152602001600382018054600181600116156101000203166002900480601f016020809104026020016040519081016040528092919081815260200182805460018160011615610100020316600290048015614efe5780601f10614ed357610100808354040283529160200191614efe565b820191906000526020600020905b815481529060010190602001808311614ee157829003601f168201915b505050505081526020016004820154815250509050670de0b6b3a7640000836003015410158015614f355750601354836003015411155b8015614f45575060008160800151145b15614ff657614ff583600d018054600181600116156101000203166002900480601f016020809104026020016040519081016040528092919081815260200182805460018160011615610100020316600290048015614fe55780601f10614fba57610100808354040283529160200191614fe5565b820191906000526020600020905b815481529060010190602001808311614fc857829003601f168201915b505050505084600301548461537c565b5b5050505b50565b615007828261529e565b61505c576040517f08c379a0000000000000000000000000000000000000000000000000000000008152600401808060200182810382526021815260200180615ae56021913960400191505060405180910390fd5b60008260000160008373ffffffffffffffffffffffffffffffffffffffff1673ffffffffffffffffffffffffffffffffffffffff16815260200190815260200160002060006101000a81548160ff0219169083151502179055505050565b6150c4828261529e565b15615137576040517f08c379a000000000000000000000000000000000000000000000000000000000815260040180806020018281038252601f8152602001807f526f6c65733a206163636f756e7420616c72656164792068617320726f6c650081525060200191505060405180910390fd5b60018260000160008373ffffffffffffffffffffffffffffffffffffffff1673ffffffffffffffffffffffffffffffffffffffff16815260200190815260200160002060006101000a81548160ff0219169083151502179055505050565b600033905090565b600082821115615215576040517f08c379a00000000000000000000000000000000000000000000000000000000081526004018080602001828103825260108152602001807f6c6f77657220737562206269676765720000000000000000000000000000000081525060200191505060405180910390fd5b600082840390508091505092915050565b60008047831061523c5760004791509150615244565b600183915091505b915091565b600081111561529a578173ffffffffffffffffffffffffffffffffffffffff166108fc829081150290604051600060405180830381858888f19350505050158015615298573d6000803e3d6000fd5b505b5050565b60008073ffffffffffffffffffffffffffffffffffffffff168273ffffffffffffffffffffffffffffffffffffffff161415615325576040517f08c379a0000000000000000000000000000000000000000000000000000000008152600401808060200182810382526022815260200180615b066022913960400191505060405180910390fd5b8260000160008373ffffffffffffffffffffffffffffffffffffffff1673ffffffffffffffffffffffffffffffffffffffff16815260200190815260200160002060009054906101000a900460ff16905092915050565b60608390506000600190505b60198111615734576153a982604051806020016040528060008152506134c4565b156153b357615734565b60006010836040518082805190602001908083835b602083106153eb57805182526020820191506020810190506020830392506153c8565b6001836020036101000a038019825116818451168082178552505050505050905001915050908152602001604051809103902060009054906101000a900473ffffffffffffffffffffffffffffffffffffffff1690506000600f60008373ffffffffffffffffffffffffffffffffffffffff1673ffffffffffffffffffffffffffffffffffffffff16815260200190815260200160002090506000600e6000600c54815260200190815260200160002060008473ffffffffffffffffffffffffffffffffffffffff1673ffffffffffffffffffffffffffffffffffffffff1681526020019081526020016000209050600061550d82600401546154ff84600201548560030154614b5390919063ffffffff16565b614b5390919063ffffffff16565b14156155ba57816003018054600181600116156101000203166002900480601f0160208091040260200160405190810160405280929190818152602001828054600181600116156101000203166002900480156155ab5780601f10615580576101008083540402835291602001916155ab565b820191906000526020600020905b81548152906001019060200180831161558e57829003601f168201915b50505050509450505050615727565b60006155c7600386611005565b9050600080905067d02ab486cedc000089116155e5578890506155f1565b67d02ab486cedc000090505b60008214615682576000615620836156128b856148cc90919063ffffffff16565b6148cc90919063ffffffff16565b905061564a606461563c6103e88461483d90919063ffffffff16565b61483d90919063ffffffff16565b90506156808560010160009054906101000a900473ffffffffffffffffffffffffffffffffffffffff168286600e01548a61573b565b505b836003018054600181600116156101000203166002900480601f01602080910402602001604051908101604052809291908181526020018280546001816001161561010002031660029004801561571a5780601f106156ef5761010080835404028352916020019161571a565b820191906000526020600020905b8154815290600101906020018083116156fd57829003601f168201915b5050505050965050505050505b8080600101915050615388565b5050505050565b60008090505b600581101561581b57600060126000600c54815260200190815260200160002060008773ffffffffffffffffffffffffffffffffffffffff1673ffffffffffffffffffffffffffffffffffffffff16815260200190815260200160002060006157b38487614b5390919063ffffffff16565b8152602001908152602001600020905060018314156157df578481600001600082825401925050819055505b60028314156157fb578481600101600082825401925050819055505b848160020160008282540192505081905550508080600101915050615741565b5050505050565b828054600181600116156101000203166002900490600052602060002090601f016020900481019282601f1061585b5780548555615898565b8280016001018555821561589857600052602060002091601f016020900482015b8281111561589757825482559160010191906001019061587c565b5b5090506158a59190615a45565b5090565b604051806101c00160405280600e90602082028038833980820191505090505090565b6040518060a0016040528060008152602001600073ffffffffffffffffffffffffffffffffffffffff1681526020016060815260200160608152602001600081525090565b60405180610200016040528060008152602001600073ffffffffffffffffffffffffffffffffffffffff16815260200160008152602001600081526020016000815260200160008152602001600081526020016000815260200160008152602001600081526020016000815260200160008152602001606081526020016060815260200160008152602001600081525090565b60405180606001604052806000815260200160008152602001600081525090565b828054600181600116156101000203166002900490600052602060002090601f016020900481019282601f10615a0657805160ff1916838001178555615a34565b82800160010185558215615a34579182015b82811115615a33578251825591602001919060010190615a18565b5b509050615a419190615a45565b5090565b615a6791905b80821115615a63576000816000905550600101615a4b565b5090565b9056fe636f6e74726163742062616c616e6365206d757374206265206c6f776572207468616e20312065746865724f776e61626c653a206e6577206f776e657220697320746865207a65726f20616464726573735065726d697373696f6e2064656e69656420666f722076696577207573657227732070726976616379526f6c65733a206163636f756e7420646f6573206e6f74206861766520726f6c65526f6c65733a206163636f756e7420697320746865207a65726f206164647265737357686974656c69737441646d696e526f6c653a2063616c6c657220646f6573206e6f742068617665207468652057686974656c69737441646d696e20726f6c65a265627a7a72315820107e97cba6ffe3fb0483dbf6af07e5c4fe745aa851873adcae23257994c487d764736f6c63430005110032",
					"opcodes": "PUSH1 0x80 PUSH1 0x40 MSTORE PUSH8 0xDE0B6B3A7640000 PUSH1 0x0 SSTORE PUSH8 0xDE0B6B3A7640000 PUSH1 0x3 SSTORE PUSH20 0x65136C92B506155DEAC445548FFDE309A9B373D PUSH1 0x4 PUSH1 0x0 PUSH2 0x100 EXP DUP2 SLOAD DUP2 PUSH20 0xFFFFFFFFFFFFFFFFFFFFFFFFFFFFFFFFFFFFFFFF MUL NOT AND SWAP1 DUP4 PUSH20 0xFFFFFFFFFFFFFFFFFFFFFFFFFFFFFFFFFFFFFFFF AND MUL OR SWAP1 SSTORE POP PUSH20 0x7D11EFAA59CB41F59B7B6F2A983A0EFADFA44116 PUSH1 0x5 PUSH1 0x0 PUSH2 0x100 EXP DUP2 SLOAD DUP2 PUSH20 0xFFFFFFFFFFFFFFFFFFFFFFFFFFFFFFFFFFFFFFFF MUL NOT AND SWAP1 DUP4 PUSH20 0xFFFFFFFFFFFFFFFFFFFFFFFFFFFFFFFFFFFFFFFF AND MUL OR SWAP1 SSTORE POP PUSH1 0x0 PUSH1 0x7 SSTORE PUSH3 0x15180 PUSH1 0xA SSTORE PUSH1 0x0 PUSH1 0xB SSTORE PUSH1 0x1 PUSH1 0xC SSTORE PUSH8 0xD02AB486CEDC0000 PUSH1 0x13 SSTORE PUSH9 0x56BC75E2D63100000 PUSH1 0x14 SSTORE PUSH8 0xD02AB486CEDC0000 PUSH1 0x15 SSTORE PUSH1 0x1 PUSH1 0x16 SSTORE PUSH1 0x1 PUSH1 0x17 SSTORE CALLVALUE DUP1 ISZERO PUSH3 0x118 JUMPI PUSH1 0x0 DUP1 REVERT JUMPDEST POP PUSH3 0x129 PUSH3 0x16F PUSH1 0x20 SHL PUSH1 0x20 SHR JUMP JUMPDEST PUSH1 0x1 PUSH1 0x0 PUSH2 0x100 EXP DUP2 SLOAD DUP2 PUSH20 0xFFFFFFFFFFFFFFFFFFFFFFFFFFFFFFFFFFFFFFFF MUL NOT AND SWAP1 DUP4 PUSH20 0xFFFFFFFFFFFFFFFFFFFFFFFFFFFFFFFFFFFFFFFF AND MUL OR SWAP1 SSTORE POP PUSH3 0x177 JUMP JUMPDEST PUSH1 0x0 CALLER SWAP1 POP SWAP1 JUMP JUMPDEST PUSH2 0x5B9C DUP1 PUSH3 0x187 PUSH1 0x0 CODECOPY PUSH1 0x0 RETURN INVALID PUSH1 0x80 PUSH1 0x40 MSTORE PUSH1 0x4 CALLDATASIZE LT PUSH2 0x1CD JUMPI PUSH1 0x0 CALLDATALOAD PUSH1 0xE0 SHR DUP1 PUSH4 0x8A03AD86 GT PUSH2 0xF7 JUMPI DUP1 PUSH4 0xBC6F504D GT PUSH2 0x95 JUMPI DUP1 PUSH4 0xF11C25BA GT PUSH2 0x64 JUMPI DUP1 PUSH4 0xF11C25BA EQ PUSH2 0xEAF JUMPI DUP1 PUSH4 0xF2FDE38B EQ PUSH2 0xEDE JUMPI DUP1 PUSH4 0xF7AD55D9 EQ PUSH2 0xF2F JUMPI DUP1 PUSH4 0xF851A440 EQ PUSH2 0xF7E JUMPI PUSH2 0x1CD JUMP JUMPDEST DUP1 PUSH4 0xBC6F504D EQ PUSH2 0xCFF JUMPI DUP1 PUSH4 0xDB4ACB64 EQ PUSH2 0xD4E JUMPI DUP1 PUSH4 0xE08F0797 EQ PUSH2 0xE49 JUMPI DUP1 PUSH4 0xE0D7CB6F EQ PUSH2 0xE98 JUMPI PUSH2 0x1CD JUMP JUMPDEST DUP1 PUSH4 0x9E64F867 GT PUSH2 0xD1 JUMPI DUP1 PUSH4 0x9E64F867 EQ PUSH2 0xB04 JUMPI DUP1 PUSH4 0xA1451224 EQ PUSH2 0xB3F JUMPI DUP1 PUSH4 0xACEB9B6E EQ PUSH2 0xC47 JUMPI DUP1 PUSH4 0xBB5F747B EQ PUSH2 0xC96 JUMPI PUSH2 0x1CD JUMP JUMPDEST DUP1 PUSH4 0x8A03AD86 EQ PUSH2 0x9FF JUMPI DUP1 PUSH4 0x8F32D59B EQ PUSH2 0xA7A JUMPI DUP1 PUSH4 0x9160EC55 EQ PUSH2 0xAA9 JUMPI PUSH2 0x1CD JUMP JUMPDEST DUP1 PUSH4 0x578D714B GT PUSH2 0x16F JUMPI DUP1 PUSH4 0x75EEADCD GT PUSH2 0x13E JUMPI DUP1 PUSH4 0x75EEADCD EQ PUSH2 0x77C JUMPI DUP1 PUSH4 0x83F6F9DF EQ PUSH2 0x7C1 JUMPI DUP1 PUSH4 0x86481D40 EQ PUSH2 0x839 JUMPI DUP1 PUSH4 0x87C5D5CC EQ PUSH2 0x888 JUMPI PUSH2 0x1CD JUMP JUMPDEST DUP1 PUSH4 0x578D714B EQ PUSH2 0x5E3 JUMPI DUP1 PUSH4 0x6897E974 EQ PUSH2 0x6C3 JUMPI DUP1 PUSH4 0x7362D9C8 EQ PUSH2 0x714 JUMPI DUP1 PUSH4 0x749AA2D9 EQ PUSH2 0x765 JUMPI PUSH2 0x1CD JUMP JUMPDEST DUP1 PUSH4 0x423E3071 GT PUSH2 0x1AB JUMPI DUP1 PUSH4 0x423E3071 EQ PUSH2 0x3C9 JUMPI DUP1 PUSH4 0x47118798 EQ PUSH2 0x3E0 JUMPI DUP1 PUSH4 0x48FFF692 EQ PUSH2 0x54F JUMPI DUP1 PUSH4 0x53501A9C EQ PUSH2 0x5A8 JUMPI PUSH2 0x1CD JUMP JUMPDEST DUP1 PUSH4 0x1CEAE42F EQ PUSH2 0x1CF JUMPI DUP1 PUSH4 0x26EEBF41 EQ PUSH2 0x21E JUMPI DUP1 PUSH4 0x3746332B EQ PUSH2 0x277 JUMPI JUMPDEST STOP JUMPDEST CALLVALUE DUP1 ISZERO PUSH2 0x1DB JUMPI PUSH1 0x0 DUP1 REVERT JUMPDEST POP PUSH2 0x208 PUSH1 0x4 DUP1 CALLDATASIZE SUB PUSH1 0x20 DUP2 LT ISZERO PUSH2 0x1F2 JUMPI PUSH1 0x0 DUP1 REVERT JUMPDEST DUP2 ADD SWAP1 DUP1 DUP1 CALLDATALOAD SWAP1 PUSH1 0x20 ADD SWAP1 SWAP3 SWAP2 SWAP1 POP POP POP PUSH2 0xF95 JUMP JUMPDEST PUSH1 0x40 MLOAD DUP1 DUP3 DUP2 MSTORE PUSH1 0x20 ADD SWAP2 POP POP PUSH1 0x40 MLOAD DUP1 SWAP2 SUB SWAP1 RETURN JUMPDEST CALLVALUE DUP1 ISZERO PUSH2 0x22A JUMPI PUSH1 0x0 DUP1 REVERT JUMPDEST POP PUSH2 0x261 PUSH1 0x4 DUP1 CALLDATASIZE SUB PUSH1 0x40 DUP2 LT ISZERO PUSH2 0x241 JUMPI PUSH1 0x0 DUP1 REVERT JUMPDEST DUP2 ADD SWAP1 DUP1 DUP1 CALLDATALOAD SWAP1 PUSH1 0x20 ADD SWAP1 SWAP3 SWAP2 SWAP1 DUP1 CALLDATALOAD SWAP1 PUSH1 0x20 ADD SWAP1 SWAP3 SWAP2 SWAP1 POP POP POP PUSH2 0x1005 JUMP JUMPDEST PUSH1 0x40 MLOAD DUP1 DUP3 DUP2 MSTORE PUSH1 0x20 ADD SWAP2 POP POP PUSH1 0x40 MLOAD DUP1 SWAP2 SUB SWAP1 RETURN JUMPDEST PUSH2 0x3C7 PUSH1 0x4 DUP1 CALLDATASIZE SUB PUSH1 0x40 DUP2 LT ISZERO PUSH2 0x28D JUMPI PUSH1 0x0 DUP1 REVERT JUMPDEST DUP2 ADD SWAP1 DUP1 DUP1 CALLDATALOAD SWAP1 PUSH1 0x20 ADD SWAP1 PUSH5 0x100000000 DUP2 GT ISZERO PUSH2 0x2AA JUMPI PUSH1 0x0 DUP1 REVERT JUMPDEST DUP3 ADD DUP4 PUSH1 0x20 DUP3 ADD GT ISZERO PUSH2 0x2BC JUMPI PUSH1 0x0 DUP1 REVERT JUMPDEST DUP1 CALLDATALOAD SWAP1 PUSH1 0x20 ADD SWAP2 DUP5 PUSH1 0x1 DUP4 MUL DUP5 ADD GT PUSH5 0x100000000 DUP4 GT OR ISZERO PUSH2 0x2DE JUMPI PUSH1 0x0 DUP1 REVERT JUMPDEST SWAP2 SWAP1 DUP1 DUP1 PUSH1 0x1F ADD PUSH1 0x20 DUP1 SWAP2 DIV MUL PUSH1 0x20 ADD PUSH1 0x40 MLOAD SWAP1 DUP2 ADD PUSH1 0x40 MSTORE DUP1 SWAP4 SWAP3 SWAP2 SWAP1 DUP2 DUP2 MSTORE PUSH1 0x20 ADD DUP4 DUP4 DUP1 DUP3 DUP5 CALLDATACOPY PUSH1 0x0 DUP2 DUP5 ADD MSTORE PUSH1 0x1F NOT PUSH1 0x1F DUP3 ADD AND SWAP1 POP DUP1 DUP4 ADD SWAP3 POP POP POP POP POP POP POP SWAP2 SWAP3 SWAP2 SWAP3 SWAP1 DUP1 CALLDATALOAD SWAP1 PUSH1 0x20 ADD SWAP1 PUSH5 0x100000000 DUP2 GT ISZERO PUSH2 0x341 JUMPI PUSH1 0x0 DUP1 REVERT JUMPDEST DUP3 ADD DUP4 PUSH1 0x20 DUP3 ADD GT ISZERO PUSH2 0x353 JUMPI PUSH1 0x0 DUP1 REVERT JUMPDEST DUP1 CALLDATALOAD SWAP1 PUSH1 0x20 ADD SWAP2 DUP5 PUSH1 0x1 DUP4 MUL DUP5 ADD GT PUSH5 0x100000000 DUP4 GT OR ISZERO PUSH2 0x375 JUMPI PUSH1 0x0 DUP1 REVERT JUMPDEST SWAP2 SWAP1 DUP1 DUP1 PUSH1 0x1F ADD PUSH1 0x20 DUP1 SWAP2 DIV MUL PUSH1 0x20 ADD PUSH1 0x40 MLOAD SWAP1 DUP2 ADD PUSH1 0x40 MSTORE DUP1 SWAP4 SWAP3 SWAP2 SWAP1 DUP2 DUP2 MSTORE PUSH1 0x20 ADD DUP4 DUP4 DUP1 DUP3 DUP5 CALLDATACOPY PUSH1 0x0 DUP2 DUP5 ADD MSTORE PUSH1 0x1F NOT PUSH1 0x1F DUP3 ADD AND SWAP1 POP DUP1 DUP4 ADD SWAP3 POP POP POP POP POP POP POP SWAP2 SWAP3 SWAP2 SWAP3 SWAP1 POP POP POP PUSH2 0x10FD JUMP JUMPDEST STOP JUMPDEST CALLVALUE DUP1 ISZERO PUSH2 0x3D5 JUMPI PUSH1 0x0 DUP1 REVERT JUMPDEST POP PUSH2 0x3DE PUSH2 0x1A77 JUMP JUMPDEST STOP JUMPDEST CALLVALUE DUP1 ISZERO PUSH2 0x3EC JUMPI PUSH1 0x0 DUP1 REVERT JUMPDEST POP PUSH2 0x439 PUSH1 0x4 DUP1 CALLDATASIZE SUB PUSH1 0x40 DUP2 LT ISZERO PUSH2 0x403 JUMPI PUSH1 0x0 DUP1 REVERT JUMPDEST DUP2 ADD SWAP1 DUP1 DUP1 CALLDATALOAD PUSH20 0xFFFFFFFFFFFFFFFFFFFFFFFFFFFFFFFFFFFFFFFF AND SWAP1 PUSH1 0x20 ADD SWAP1 SWAP3 SWAP2 SWAP1 DUP1 CALLDATALOAD SWAP1 PUSH1 0x20 ADD SWAP1 SWAP3 SWAP2 SWAP1 POP POP POP PUSH2 0x1AFB JUMP JUMPDEST PUSH1 0x40 MLOAD DUP1 DUP5 PUSH1 0xE PUSH1 0x20 MUL DUP1 DUP4 DUP4 PUSH1 0x0 JUMPDEST DUP4 DUP2 LT ISZERO PUSH2 0x464 JUMPI DUP1 DUP3 ADD MLOAD DUP2 DUP5 ADD MSTORE PUSH1 0x20 DUP2 ADD SWAP1 POP PUSH2 0x449 JUMP JUMPDEST POP POP POP POP SWAP1 POP ADD DUP1 PUSH1 0x20 ADD DUP1 PUSH1 0x20 ADD DUP4 DUP2 SUB DUP4 MSTORE DUP6 DUP2 DUP2 MLOAD DUP2 MSTORE PUSH1 0x20 ADD SWAP2 POP DUP1 MLOAD SWAP1 PUSH1 0x20 ADD SWAP1 DUP1 DUP4 DUP4 PUSH1 0x0 JUMPDEST DUP4 DUP2 LT ISZERO PUSH2 0x4AB JUMPI DUP1 DUP3 ADD MLOAD DUP2 DUP5 ADD MSTORE PUSH1 0x20 DUP2 ADD SWAP1 POP PUSH2 0x490 JUMP JUMPDEST POP POP POP POP SWAP1 POP SWAP1 DUP2 ADD SWAP1 PUSH1 0x1F AND DUP1 ISZERO PUSH2 0x4D8 JUMPI DUP1 DUP3 SUB DUP1 MLOAD PUSH1 0x1 DUP4 PUSH1 0x20 SUB PUSH2 0x100 EXP SUB NOT AND DUP2 MSTORE PUSH1 0x20 ADD SWAP2 POP JUMPDEST POP DUP4 DUP2 SUB DUP3 MSTORE DUP5 DUP2 DUP2 MLOAD DUP2 MSTORE PUSH1 0x20 ADD SWAP2 POP DUP1 MLOAD SWAP1 PUSH1 0x20 ADD SWAP1 DUP1 DUP4 DUP4 PUSH1 0x0 JUMPDEST DUP4 DUP2 LT ISZERO PUSH2 0x511 JUMPI DUP1 DUP3 ADD MLOAD DUP2 DUP5 ADD MSTORE PUSH1 0x20 DUP2 ADD SWAP1 POP PUSH2 0x4F6 JUMP JUMPDEST POP POP POP POP SWAP1 POP SWAP1 DUP2 ADD SWAP1 PUSH1 0x1F AND DUP1 ISZERO PUSH2 0x53E JUMPI DUP1 DUP3 SUB DUP1 MLOAD PUSH1 0x1 DUP4 PUSH1 0x20 SUB PUSH2 0x100 EXP SUB NOT AND DUP2 MSTORE PUSH1 0x20 ADD SWAP2 POP JUMPDEST POP SWAP6 POP POP POP POP POP POP PUSH1 0x40 MLOAD DUP1 SWAP2 SUB SWAP1 RETURN JUMPDEST CALLVALUE DUP1 ISZERO PUSH2 0x55B JUMPI PUSH1 0x0 DUP1 REVERT JUMPDEST POP PUSH2 0x592 PUSH1 0x4 DUP1 CALLDATASIZE SUB PUSH1 0x40 DUP2 LT ISZERO PUSH2 0x572 JUMPI PUSH1 0x0 DUP1 REVERT JUMPDEST DUP2 ADD SWAP1 DUP1 DUP1 CALLDATALOAD SWAP1 PUSH1 0x20 ADD SWAP1 SWAP3 SWAP2 SWAP1 DUP1 CALLDATALOAD SWAP1 PUSH1 0x20 ADD SWAP1 SWAP3 SWAP2 SWAP1 POP POP POP PUSH2 0x256A JUMP JUMPDEST PUSH1 0x40 MLOAD DUP1 DUP3 DUP2 MSTORE PUSH1 0x20 ADD SWAP2 POP POP PUSH1 0x40 MLOAD DUP1 SWAP2 SUB SWAP1 RETURN JUMPDEST CALLVALUE DUP1 ISZERO PUSH2 0x5B4 JUMPI PUSH1 0x0 DUP1 REVERT JUMPDEST POP PUSH2 0x5E1 PUSH1 0x4 DUP1 CALLDATASIZE SUB PUSH1 0x20 DUP2 LT ISZERO PUSH2 0x5CB JUMPI PUSH1 0x0 DUP1 REVERT JUMPDEST DUP2 ADD SWAP1 DUP1 DUP1 CALLDATALOAD SWAP1 PUSH1 0x20 ADD SWAP1 SWAP3 SWAP2 SWAP1 POP POP POP PUSH2 0x2629 JUMP JUMPDEST STOP JUMPDEST CALLVALUE DUP1 ISZERO PUSH2 0x5EF JUMPI PUSH1 0x0 DUP1 REVERT JUMPDEST POP PUSH2 0x6A9 PUSH1 0x4 DUP1 CALLDATASIZE SUB PUSH1 0x20 DUP2 LT ISZERO PUSH2 0x606 JUMPI PUSH1 0x0 DUP1 REVERT JUMPDEST DUP2 ADD SWAP1 DUP1 DUP1 CALLDATALOAD SWAP1 PUSH1 0x20 ADD SWAP1 PUSH5 0x100000000 DUP2 GT ISZERO PUSH2 0x623 JUMPI PUSH1 0x0 DUP1 REVERT JUMPDEST DUP3 ADD DUP4 PUSH1 0x20 DUP3 ADD GT ISZERO PUSH2 0x635 JUMPI PUSH1 0x0 DUP1 REVERT JUMPDEST DUP1 CALLDATALOAD SWAP1 PUSH1 0x20 ADD SWAP2 DUP5 PUSH1 0x1 DUP4 MUL DUP5 ADD GT PUSH5 0x100000000 DUP4 GT OR ISZERO PUSH2 0x657 JUMPI PUSH1 0x0 DUP1 REVERT JUMPDEST SWAP2 SWAP1 DUP1 DUP1 PUSH1 0x1F ADD PUSH1 0x20 DUP1 SWAP2 DIV MUL PUSH1 0x20 ADD PUSH1 0x40 MLOAD SWAP1 DUP2 ADD PUSH1 0x40 MSTORE DUP1 SWAP4 SWAP3 SWAP2 SWAP1 DUP2 DUP2 MSTORE PUSH1 0x20 ADD DUP4 DUP4 DUP1 DUP3 DUP5 CALLDATACOPY PUSH1 0x0 DUP2 DUP5 ADD MSTORE PUSH1 0x1F NOT PUSH1 0x1F DUP3 ADD AND SWAP1 POP DUP1 DUP4 ADD SWAP3 POP POP POP POP POP POP POP SWAP2 SWAP3 SWAP2 SWAP3 SWAP1 POP POP POP PUSH2 0x27A2 JUMP JUMPDEST PUSH1 0x40 MLOAD DUP1 DUP3 ISZERO ISZERO ISZERO ISZERO DUP2 MSTORE PUSH1 0x20 ADD SWAP2 POP POP PUSH1 0x40 MLOAD DUP1 SWAP2 SUB SWAP1 RETURN JUMPDEST CALLVALUE DUP1 ISZERO PUSH2 0x6CF JUMPI PUSH1 0x0 DUP1 REVERT JUMPDEST POP PUSH2 0x712 PUSH1 0x4 DUP1 CALLDATASIZE SUB PUSH1 0x20 DUP2 LT ISZERO PUSH2 0x6E6 JUMPI PUSH1 0x0 DUP1 REVERT JUMPDEST DUP2 ADD SWAP1 DUP1 DUP1 CALLDATALOAD PUSH20 0xFFFFFFFFFFFFFFFFFFFFFFFFFFFFFFFFFFFFFFFF AND SWAP1 PUSH1 0x20 ADD SWAP1 SWAP3 SWAP2 SWAP1 POP POP POP PUSH2 0x2854 JUMP JUMPDEST STOP JUMPDEST CALLVALUE DUP1 ISZERO PUSH2 0x720 JUMPI PUSH1 0x0 DUP1 REVERT JUMPDEST POP PUSH2 0x763 PUSH1 0x4 DUP1 CALLDATASIZE SUB PUSH1 0x20 DUP2 LT ISZERO PUSH2 0x737 JUMPI PUSH1 0x0 DUP1 REVERT JUMPDEST DUP2 ADD SWAP1 DUP1 DUP1 CALLDATALOAD PUSH20 0xFFFFFFFFFFFFFFFFFFFFFFFFFFFFFFFFFFFFFFFF AND SWAP1 PUSH1 0x20 ADD SWAP1 SWAP3 SWAP2 SWAP1 POP POP POP PUSH2 0x28E5 JUMP JUMPDEST STOP JUMPDEST CALLVALUE DUP1 ISZERO PUSH2 0x771 JUMPI PUSH1 0x0 DUP1 REVERT JUMPDEST POP PUSH2 0x77A PUSH2 0x2976 JUMP JUMPDEST STOP JUMPDEST CALLVALUE DUP1 ISZERO PUSH2 0x788 JUMPI PUSH1 0x0 DUP1 REVERT JUMPDEST POP PUSH2 0x7BF PUSH1 0x4 DUP1 CALLDATASIZE SUB PUSH1 0x40 DUP2 LT ISZERO PUSH2 0x79F JUMPI PUSH1 0x0 DUP1 REVERT JUMPDEST DUP2 ADD SWAP1 DUP1 DUP1 CALLDATALOAD SWAP1 PUSH1 0x20 ADD SWAP1 SWAP3 SWAP2 SWAP1 DUP1 CALLDATALOAD SWAP1 PUSH1 0x20 ADD SWAP1 SWAP3 SWAP2 SWAP1 POP POP POP PUSH2 0x2AB1 JUMP JUMPDEST STOP JUMPDEST CALLVALUE DUP1 ISZERO PUSH2 0x7CD JUMPI PUSH1 0x0 DUP1 REVERT JUMPDEST POP PUSH2 0x7D6 PUSH2 0x33A9 JUMP JUMPDEST PUSH1 0x40 MLOAD DUP1 DUP14 DUP2 MSTORE PUSH1 0x20 ADD DUP13 DUP2 MSTORE PUSH1 0x20 ADD DUP12 DUP2 MSTORE PUSH1 0x20 ADD DUP11 DUP2 MSTORE PUSH1 0x20 ADD DUP10 DUP2 MSTORE PUSH1 0x20 ADD DUP9 DUP2 MSTORE PUSH1 0x20 ADD DUP8 DUP2 MSTORE PUSH1 0x20 ADD DUP7 DUP2 MSTORE PUSH1 0x20 ADD DUP6 DUP2 MSTORE PUSH1 0x20 ADD DUP5 DUP2 MSTORE PUSH1 0x20 ADD DUP4 DUP2 MSTORE PUSH1 0x20 ADD DUP3 DUP2 MSTORE PUSH1 0x20 ADD SWAP13 POP POP POP POP POP POP POP POP POP POP POP POP POP PUSH1 0x40 MLOAD DUP1 SWAP2 SUB SWAP1 RETURN JUMPDEST CALLVALUE DUP1 ISZERO PUSH2 0x845 JUMPI PUSH1 0x0 DUP1 REVERT JUMPDEST POP PUSH2 0x872 PUSH1 0x4 DUP1 CALLDATASIZE SUB PUSH1 0x20 DUP2 LT ISZERO PUSH2 0x85C JUMPI PUSH1 0x0 DUP1 REVERT JUMPDEST DUP2 ADD SWAP1 DUP1 DUP1 CALLDATALOAD SWAP1 PUSH1 0x20 ADD SWAP1 SWAP3 SWAP2 SWAP1 POP POP POP PUSH2 0x3441 JUMP JUMPDEST PUSH1 0x40 MLOAD DUP1 DUP3 DUP2 MSTORE PUSH1 0x20 ADD SWAP2 POP POP PUSH1 0x40 MLOAD DUP1 SWAP2 SUB SWAP1 RETURN JUMPDEST CALLVALUE DUP1 ISZERO PUSH2 0x894 JUMPI PUSH1 0x0 DUP1 REVERT JUMPDEST POP PUSH2 0x9E5 PUSH1 0x4 DUP1 CALLDATASIZE SUB PUSH1 0x40 DUP2 LT ISZERO PUSH2 0x8AB JUMPI PUSH1 0x0 DUP1 REVERT JUMPDEST DUP2 ADD SWAP1 DUP1 DUP1 CALLDATALOAD SWAP1 PUSH1 0x20 ADD SWAP1 PUSH5 0x100000000 DUP2 GT ISZERO PUSH2 0x8C8 JUMPI PUSH1 0x0 DUP1 REVERT JUMPDEST DUP3 ADD DUP4 PUSH1 0x20 DUP3 ADD GT ISZERO PUSH2 0x8DA JUMPI PUSH1 0x0 DUP1 REVERT JUMPDEST DUP1 CALLDATALOAD SWAP1 PUSH1 0x20 ADD SWAP2 DUP5 PUSH1 0x1 DUP4 MUL DUP5 ADD GT PUSH5 0x100000000 DUP4 GT OR ISZERO PUSH2 0x8FC JUMPI PUSH1 0x0 DUP1 REVERT JUMPDEST SWAP2 SWAP1 DUP1 DUP1 PUSH1 0x1F ADD PUSH1 0x20 DUP1 SWAP2 DIV MUL PUSH1 0x20 ADD PUSH1 0x40 MLOAD SWAP1 DUP2 ADD PUSH1 0x40 MSTORE DUP1 SWAP4 SWAP3 SWAP2 SWAP1 DUP2 DUP2 MSTORE PUSH1 0x20 ADD DUP4 DUP4 DUP1 DUP3 DUP5 CALLDATACOPY PUSH1 0x0 DUP2 DUP5 ADD MSTORE PUSH1 0x1F NOT PUSH1 0x1F DUP3 ADD AND SWAP1 POP DUP1 DUP4 ADD SWAP3 POP POP POP POP POP POP POP SWAP2 SWAP3 SWAP2 SWAP3 SWAP1 DUP1 CALLDATALOAD SWAP1 PUSH1 0x20 ADD SWAP1 PUSH5 0x100000000 DUP2 GT ISZERO PUSH2 0x95F JUMPI PUSH1 0x0 DUP1 REVERT JUMPDEST DUP3 ADD DUP4 PUSH1 0x20 DUP3 ADD GT ISZERO PUSH2 0x971 JUMPI PUSH1 0x0 DUP1 REVERT JUMPDEST DUP1 CALLDATALOAD SWAP1 PUSH1 0x20 ADD SWAP2 DUP5 PUSH1 0x1 DUP4 MUL DUP5 ADD GT PUSH5 0x100000000 DUP4 GT OR ISZERO PUSH2 0x993 JUMPI PUSH1 0x0 DUP1 REVERT JUMPDEST SWAP2 SWAP1 DUP1 DUP1 PUSH1 0x1F ADD PUSH1 0x20 DUP1 SWAP2 DIV MUL PUSH1 0x20 ADD PUSH1 0x40 MLOAD SWAP1 DUP2 ADD PUSH1 0x40 MSTORE DUP1 SWAP4 SWAP3 SWAP2 SWAP1 DUP2 DUP2 MSTORE PUSH1 0x20 ADD DUP4 DUP4 DUP1 DUP3 DUP5 CALLDATACOPY PUSH1 0x0 DUP2 DUP5 ADD MSTORE PUSH1 0x1F NOT PUSH1 0x1F DUP3 ADD AND SWAP1 POP DUP1 DUP4 ADD SWAP3 POP POP POP POP POP POP POP SWAP2 SWAP3 SWAP2 SWAP3 SWAP1 POP POP POP PUSH2 0x34C4 JUMP JUMPDEST PUSH1 0x40 MLOAD DUP1 DUP3 ISZERO ISZERO ISZERO ISZERO DUP2 MSTORE PUSH1 0x20 ADD SWAP2 POP POP PUSH1 0x40 MLOAD DUP1 SWAP2 SUB SWAP1 RETURN JUMPDEST CALLVALUE DUP1 ISZERO PUSH2 0xA0B JUMPI PUSH1 0x0 DUP1 REVERT JUMPDEST POP PUSH2 0xA38 PUSH1 0x4 DUP1 CALLDATASIZE SUB PUSH1 0x20 DUP2 LT ISZERO PUSH2 0xA22 JUMPI PUSH1 0x0 DUP1 REVERT JUMPDEST DUP2 ADD SWAP1 DUP1 DUP1 CALLDATALOAD SWAP1 PUSH1 0x20 ADD SWAP1 SWAP3 SWAP2 SWAP1 POP POP POP PUSH2 0x35C4 JUMP JUMPDEST PUSH1 0x40 MLOAD DUP1 DUP3 PUSH20 0xFFFFFFFFFFFFFFFFFFFFFFFFFFFFFFFFFFFFFFFF AND PUSH20 0xFFFFFFFFFFFFFFFFFFFFFFFFFFFFFFFFFFFFFFFF AND DUP2 MSTORE PUSH1 0x20 ADD SWAP2 POP POP PUSH1 0x40 MLOAD DUP1 SWAP2 SUB SWAP1 RETURN JUMPDEST CALLVALUE DUP1 ISZERO PUSH2 0xA86 JUMPI PUSH1 0x0 DUP1 REVERT JUMPDEST POP PUSH2 0xA8F PUSH2 0x367C JUMP JUMPDEST PUSH1 0x40 MLOAD DUP1 DUP3 ISZERO ISZERO ISZERO ISZERO DUP2 MSTORE PUSH1 0x20 ADD SWAP2 POP POP PUSH1 0x40 MLOAD DUP1 SWAP2 SUB SWAP1 RETURN JUMPDEST CALLVALUE DUP1 ISZERO PUSH2 0xAB5 JUMPI PUSH1 0x0 DUP1 REVERT JUMPDEST POP PUSH2 0xB02 PUSH1 0x4 DUP1 CALLDATASIZE SUB PUSH1 0x40 DUP2 LT ISZERO PUSH2 0xACC JUMPI PUSH1 0x0 DUP1 REVERT JUMPDEST DUP2 ADD SWAP1 DUP1 DUP1 CALLDATALOAD PUSH20 0xFFFFFFFFFFFFFFFFFFFFFFFFFFFFFFFFFFFFFFFF AND SWAP1 PUSH1 0x20 ADD SWAP1 SWAP3 SWAP2 SWAP1 DUP1 CALLDATALOAD SWAP1 PUSH1 0x20 ADD SWAP1 SWAP3 SWAP2 SWAP1 POP POP POP PUSH2 0x36DB JUMP JUMPDEST STOP JUMPDEST CALLVALUE DUP1 ISZERO PUSH2 0xB10 JUMPI PUSH1 0x0 DUP1 REVERT JUMPDEST POP PUSH2 0xB3D PUSH1 0x4 DUP1 CALLDATASIZE SUB PUSH1 0x20 DUP2 LT ISZERO PUSH2 0xB27 JUMPI PUSH1 0x0 DUP1 REVERT JUMPDEST DUP2 ADD SWAP1 DUP1 DUP1 CALLDATALOAD SWAP1 PUSH1 0x20 ADD SWAP1 SWAP3 SWAP2 SWAP1 POP POP POP PUSH2 0x382C JUMP JUMPDEST STOP JUMPDEST CALLVALUE DUP1 ISZERO PUSH2 0xB4B JUMPI PUSH1 0x0 DUP1 REVERT JUMPDEST POP PUSH2 0xC05 PUSH1 0x4 DUP1 CALLDATASIZE SUB PUSH1 0x20 DUP2 LT ISZERO PUSH2 0xB62 JUMPI PUSH1 0x0 DUP1 REVERT JUMPDEST DUP2 ADD SWAP1 DUP1 DUP1 CALLDATALOAD SWAP1 PUSH1 0x20 ADD SWAP1 PUSH5 0x100000000 DUP2 GT ISZERO PUSH2 0xB7F JUMPI PUSH1 0x0 DUP1 REVERT JUMPDEST DUP3 ADD DUP4 PUSH1 0x20 DUP3 ADD GT ISZERO PUSH2 0xB91 JUMPI PUSH1 0x0 DUP1 REVERT JUMPDEST DUP1 CALLDATALOAD SWAP1 PUSH1 0x20 ADD SWAP2 DUP5 PUSH1 0x1 DUP4 MUL DUP5 ADD GT PUSH5 0x100000000 DUP4 GT OR ISZERO PUSH2 0xBB3 JUMPI PUSH1 0x0 DUP1 REVERT JUMPDEST SWAP2 SWAP1 DUP1 DUP1 PUSH1 0x1F ADD PUSH1 0x20 DUP1 SWAP2 DIV MUL PUSH1 0x20 ADD PUSH1 0x40 MLOAD SWAP1 DUP2 ADD PUSH1 0x40 MSTORE DUP1 SWAP4 SWAP3 SWAP2 SWAP1 DUP2 DUP2 MSTORE PUSH1 0x20 ADD DUP4 DUP4 DUP1 DUP3 DUP5 CALLDATACOPY PUSH1 0x0 DUP2 DUP5 ADD MSTORE PUSH1 0x1F NOT PUSH1 0x1F DUP3 ADD AND SWAP1 POP DUP1 DUP4 ADD SWAP3 POP POP POP POP POP POP POP SWAP2 SWAP3 SWAP2 SWAP3 SWAP1 POP POP POP PUSH2 0x38AA JUMP JUMPDEST PUSH1 0x40 MLOAD DUP1 DUP3 PUSH20 0xFFFFFFFFFFFFFFFFFFFFFFFFFFFFFFFFFFFFFFFF AND PUSH20 0xFFFFFFFFFFFFFFFFFFFFFFFFFFFFFFFFFFFFFFFF AND DUP2 MSTORE PUSH1 0x20 ADD SWAP2 POP POP PUSH1 0x40 MLOAD DUP1 SWAP2 SUB SWAP1 RETURN JUMPDEST CALLVALUE DUP1 ISZERO PUSH2 0xC53 JUMPI PUSH1 0x0 DUP1 REVERT JUMPDEST POP PUSH2 0xC94 PUSH1 0x4 DUP1 CALLDATASIZE SUB PUSH1 0x60 DUP2 LT ISZERO PUSH2 0xC6A JUMPI PUSH1 0x0 DUP1 REVERT JUMPDEST DUP2 ADD SWAP1 DUP1 DUP1 CALLDATALOAD SWAP1 PUSH1 0x20 ADD SWAP1 SWAP3 SWAP2 SWAP1 DUP1 CALLDATALOAD SWAP1 PUSH1 0x20 ADD SWAP1 SWAP3 SWAP2 SWAP1 DUP1 CALLDATALOAD SWAP1 PUSH1 0x20 ADD SWAP1 SWAP3 SWAP2 SWAP1 POP POP POP PUSH2 0x39B8 JUMP JUMPDEST STOP JUMPDEST CALLVALUE DUP1 ISZERO PUSH2 0xCA2 JUMPI PUSH1 0x0 DUP1 REVERT JUMPDEST POP PUSH2 0xCE5 PUSH1 0x4 DUP1 CALLDATASIZE SUB PUSH1 0x20 DUP2 LT ISZERO PUSH2 0xCB9 JUMPI PUSH1 0x0 DUP1 REVERT JUMPDEST DUP2 ADD SWAP1 DUP1 DUP1 CALLDATALOAD PUSH20 0xFFFFFFFFFFFFFFFFFFFFFFFFFFFFFFFFFFFFFFFF AND SWAP1 PUSH1 0x20 ADD SWAP1 SWAP3 SWAP2 SWAP1 POP POP POP PUSH2 0x3BC5 JUMP JUMPDEST PUSH1 0x40 MLOAD DUP1 DUP3 ISZERO ISZERO ISZERO ISZERO DUP2 MSTORE PUSH1 0x20 ADD SWAP2 POP POP PUSH1 0x40 MLOAD DUP1 SWAP2 SUB SWAP1 RETURN JUMPDEST CALLVALUE DUP1 ISZERO PUSH2 0xD0B JUMPI PUSH1 0x0 DUP1 REVERT JUMPDEST POP PUSH2 0xD4C PUSH1 0x4 DUP1 CALLDATASIZE SUB PUSH1 0x60 DUP2 LT ISZERO PUSH2 0xD22 JUMPI PUSH1 0x0 DUP1 REVERT JUMPDEST DUP2 ADD SWAP1 DUP1 DUP1 CALLDATALOAD SWAP1 PUSH1 0x20 ADD SWAP1 SWAP3 SWAP2 SWAP1 DUP1 CALLDATALOAD SWAP1 PUSH1 0x20 ADD SWAP1 SWAP3 SWAP2 SWAP1 DUP1 CALLDATALOAD SWAP1 PUSH1 0x20 ADD SWAP1 SWAP3 SWAP2 SWAP1 POP POP POP PUSH2 0x3BF1 JUMP JUMPDEST STOP JUMPDEST CALLVALUE DUP1 ISZERO PUSH2 0xD5A JUMPI PUSH1 0x0 DUP1 REVERT JUMPDEST POP PUSH2 0xE47 PUSH1 0x4 DUP1 CALLDATASIZE SUB PUSH1 0x60 DUP2 LT ISZERO PUSH2 0xD71 JUMPI PUSH1 0x0 DUP1 REVERT JUMPDEST DUP2 ADD SWAP1 DUP1 DUP1 CALLDATALOAD PUSH20 0xFFFFFFFFFFFFFFFFFFFFFFFFFFFFFFFFFFFFFFFF AND SWAP1 PUSH1 0x20 ADD SWAP1 SWAP3 SWAP2 SWAP1 DUP1 CALLDATALOAD SWAP1 PUSH1 0x20 ADD SWAP1 PUSH5 0x100000000 DUP2 GT ISZERO PUSH2 0xDAE JUMPI PUSH1 0x0 DUP1 REVERT JUMPDEST DUP3 ADD DUP4 PUSH1 0x20 DUP3 ADD GT ISZERO PUSH2 0xDC0 JUMPI PUSH1 0x0 DUP1 REVERT JUMPDEST DUP1 CALLDATALOAD SWAP1 PUSH1 0x20 ADD SWAP2 DUP5 PUSH1 0x1 DUP4 MUL DUP5 ADD GT PUSH5 0x100000000 DUP4 GT OR ISZERO PUSH2 0xDE2 JUMPI PUSH1 0x0 DUP1 REVERT JUMPDEST SWAP1 SWAP2 SWAP3 SWAP4 SWAP2 SWAP3 SWAP4 SWAP1 DUP1 CALLDATALOAD SWAP1 PUSH1 0x20 ADD SWAP1 PUSH5 0x100000000 DUP2 GT ISZERO PUSH2 0xE03 JUMPI PUSH1 0x0 DUP1 REVERT JUMPDEST DUP3 ADD DUP4 PUSH1 0x20 DUP3 ADD GT ISZERO PUSH2 0xE15 JUMPI PUSH1 0x0 DUP1 REVERT JUMPDEST DUP1 CALLDATALOAD SWAP1 PUSH1 0x20 ADD SWAP2 DUP5 PUSH1 0x1 DUP4 MUL DUP5 ADD GT PUSH5 0x100000000 DUP4 GT OR ISZERO PUSH2 0xE37 JUMPI PUSH1 0x0 DUP1 REVERT JUMPDEST SWAP1 SWAP2 SWAP3 SWAP4 SWAP2 SWAP3 SWAP4 SWAP1 POP POP POP PUSH2 0x3D2C JUMP JUMPDEST STOP JUMPDEST CALLVALUE DUP1 ISZERO PUSH2 0xE55 JUMPI PUSH1 0x0 DUP1 REVERT JUMPDEST POP PUSH2 0xE82 PUSH1 0x4 DUP1 CALLDATASIZE SUB PUSH1 0x20 DUP2 LT ISZERO PUSH2 0xE6C JUMPI PUSH1 0x0 DUP1 REVERT JUMPDEST DUP2 ADD SWAP1 DUP1 DUP1 CALLDATALOAD SWAP1 PUSH1 0x20 ADD SWAP1 SWAP3 SWAP2 SWAP1 POP POP POP PUSH2 0x42CA JUMP JUMPDEST PUSH1 0x40 MLOAD DUP1 DUP3 DUP2 MSTORE PUSH1 0x20 ADD SWAP2 POP POP PUSH1 0x40 MLOAD DUP1 SWAP2 SUB SWAP1 RETURN JUMPDEST CALLVALUE DUP1 ISZERO PUSH2 0xEA4 JUMPI PUSH1 0x0 DUP1 REVERT JUMPDEST POP PUSH2 0xEAD PUSH2 0x430C JUMP JUMPDEST STOP JUMPDEST CALLVALUE DUP1 ISZERO PUSH2 0xEBB JUMPI PUSH1 0x0 DUP1 REVERT JUMPDEST POP PUSH2 0xEC4 PUSH2 0x45F6 JUMP JUMPDEST PUSH1 0x40 MLOAD DUP1 DUP3 ISZERO ISZERO ISZERO ISZERO DUP2 MSTORE PUSH1 0x20 ADD SWAP2 POP POP PUSH1 0x40 MLOAD DUP1 SWAP2 SUB SWAP1 RETURN JUMPDEST CALLVALUE DUP1 ISZERO PUSH2 0xEEA JUMPI PUSH1 0x0 DUP1 REVERT JUMPDEST POP PUSH2 0xF2D PUSH1 0x4 DUP1 CALLDATASIZE SUB PUSH1 0x20 DUP2 LT ISZERO PUSH2 0xF01 JUMPI PUSH1 0x0 DUP1 REVERT JUMPDEST DUP2 ADD SWAP1 DUP1 DUP1 CALLDATALOAD PUSH20 0xFFFFFFFFFFFFFFFFFFFFFFFFFFFFFFFFFFFFFFFF AND SWAP1 PUSH1 0x20 ADD SWAP1 SWAP3 SWAP2 SWAP1 POP POP POP PUSH2 0x4610 JUMP JUMPDEST STOP JUMPDEST CALLVALUE DUP1 ISZERO PUSH2 0xF3B JUMPI PUSH1 0x0 DUP1 REVERT JUMPDEST POP PUSH2 0xF68 PUSH1 0x4 DUP1 CALLDATASIZE SUB PUSH1 0x20 DUP2 LT ISZERO PUSH2 0xF52 JUMPI PUSH1 0x0 DUP1 REVERT JUMPDEST DUP2 ADD SWAP1 DUP1 DUP1 CALLDATALOAD SWAP1 PUSH1 0x20 ADD SWAP1 SWAP3 SWAP2 SWAP1 POP POP POP PUSH2 0x4754 JUMP JUMPDEST PUSH1 0x40 MLOAD DUP1 DUP3 DUP2 MSTORE PUSH1 0x20 ADD SWAP2 POP POP PUSH1 0x40 MLOAD DUP1 SWAP2 SUB SWAP1 RETURN JUMPDEST CALLVALUE DUP1 ISZERO PUSH2 0xF8A JUMPI PUSH1 0x0 DUP1 REVERT JUMPDEST POP PUSH2 0xF93 PUSH2 0x4796 JUMP JUMPDEST STOP JUMPDEST PUSH1 0x0 DUP1 SLOAD PUSH1 0x1 MUL DUP3 LT ISZERO DUP1 ISZERO PUSH2 0xFB0 JUMPI POP PUSH1 0x0 SLOAD PUSH1 0x5 MUL DUP3 GT ISZERO JUMPDEST ISZERO PUSH2 0xFBE JUMPI PUSH1 0x1 SWAP1 POP PUSH2 0x1000 JUMP JUMPDEST PUSH1 0x0 SLOAD PUSH1 0x6 MUL DUP3 LT ISZERO DUP1 ISZERO PUSH2 0xFD8 JUMPI POP PUSH1 0x0 SLOAD PUSH1 0xA MUL DUP3 GT ISZERO JUMPDEST ISZERO PUSH2 0xFE6 JUMPI PUSH1 0x2 SWAP1 POP PUSH2 0x1000 JUMP JUMPDEST PUSH1 0x0 SLOAD PUSH1 0xB MUL DUP3 LT PUSH2 0xFFB JUMPI PUSH1 0x3 SWAP1 POP PUSH2 0x1000 JUMP JUMPDEST PUSH1 0x0 SWAP1 POP JUMPDEST SWAP2 SWAP1 POP JUMP JUMPDEST PUSH1 0x0 PUSH1 0x1 DUP4 EQ DUP1 ISZERO PUSH2 0x1017 JUMPI POP PUSH1 0x1 DUP3 EQ JUMPDEST ISZERO PUSH2 0x1025 JUMPI PUSH1 0x32 SWAP1 POP PUSH2 0x10F7 JUMP JUMPDEST PUSH1 0x2 DUP4 EQ DUP1 ISZERO PUSH2 0x1035 JUMPI POP PUSH1 0x1 DUP3 EQ JUMPDEST ISZERO PUSH2 0x1043 JUMPI PUSH1 0x46 SWAP1 POP PUSH2 0x10F7 JUMP JUMPDEST PUSH1 0x2 DUP4 EQ DUP1 ISZERO PUSH2 0x1053 JUMPI POP PUSH1 0x2 DUP3 EQ JUMPDEST ISZERO PUSH2 0x1061 JUMPI PUSH1 0x32 SWAP1 POP PUSH2 0x10F7 JUMP JUMPDEST PUSH1 0x3 DUP4 EQ ISZERO PUSH2 0x10F2 JUMPI PUSH1 0x1 DUP3 EQ ISZERO PUSH2 0x107C JUMPI PUSH1 0x64 SWAP1 POP PUSH2 0x10F7 JUMP JUMPDEST PUSH1 0x2 DUP3 EQ ISZERO PUSH2 0x108E JUMPI PUSH1 0x46 SWAP1 POP PUSH2 0x10F7 JUMP JUMPDEST PUSH1 0x3 DUP3 EQ ISZERO PUSH2 0x10A0 JUMPI PUSH1 0x32 SWAP1 POP PUSH2 0x10F7 JUMP JUMPDEST PUSH1 0x4 DUP3 LT ISZERO DUP1 ISZERO PUSH2 0x10B2 JUMPI POP PUSH1 0xA DUP3 GT ISZERO JUMPDEST ISZERO PUSH2 0x10C0 JUMPI PUSH1 0xA SWAP1 POP PUSH2 0x10F7 JUMP JUMPDEST PUSH1 0xB DUP3 LT ISZERO DUP1 ISZERO PUSH2 0x10D2 JUMPI POP PUSH1 0x14 DUP3 GT ISZERO JUMPDEST ISZERO PUSH2 0x10E0 JUMPI PUSH1 0x5 SWAP1 POP PUSH2 0x10F7 JUMP JUMPDEST PUSH1 0x15 DUP3 LT PUSH2 0x10F1 JUMPI PUSH1 0x1 SWAP1 POP PUSH2 0x10F7 JUMP JUMPDEST JUMPDEST PUSH1 0x0 SWAP1 POP JUMPDEST SWAP3 SWAP2 POP POP JUMP JUMPDEST PUSH1 0x0 CALLER SWAP1 POP PUSH1 0x0 DUP2 EXTCODESIZE SWAP1 POP PUSH1 0x0 DUP2 EQ PUSH2 0x117E JUMPI PUSH1 0x40 MLOAD PUSH32 0x8C379A000000000000000000000000000000000000000000000000000000000 DUP2 MSTORE PUSH1 0x4 ADD DUP1 DUP1 PUSH1 0x20 ADD DUP3 DUP2 SUB DUP3 MSTORE PUSH1 0x11 DUP2 MSTORE PUSH1 0x20 ADD DUP1 PUSH32 0x736F7272792068756D616E73206F6E6C79000000000000000000000000000000 DUP2 MSTORE POP PUSH1 0x20 ADD SWAP2 POP POP PUSH1 0x40 MLOAD DUP1 SWAP2 SUB SWAP1 REVERT JUMPDEST CALLER PUSH20 0xFFFFFFFFFFFFFFFFFFFFFFFFFFFFFFFFFFFFFFFF AND ORIGIN PUSH20 0xFFFFFFFFFFFFFFFFFFFFFFFFFFFFFFFFFFFFFFFF AND EQ PUSH2 0x121F JUMPI PUSH1 0x40 MLOAD PUSH32 0x8C379A000000000000000000000000000000000000000000000000000000000 DUP2 MSTORE PUSH1 0x4 ADD DUP1 DUP1 PUSH1 0x20 ADD DUP3 DUP2 SUB DUP3 MSTORE PUSH1 0x12 DUP2 MSTORE PUSH1 0x20 ADD DUP1 PUSH32 0x736F7272792C2068756D616E73206F6E6C790000000000000000000000000000 DUP2 MSTORE POP PUSH1 0x20 ADD SWAP2 POP POP PUSH1 0x40 MLOAD DUP1 SWAP2 SUB SWAP1 REVERT JUMPDEST PUSH2 0x1227 PUSH2 0x45F6 JUMP JUMPDEST PUSH2 0x1299 JUMPI PUSH1 0x40 MLOAD PUSH32 0x8C379A000000000000000000000000000000000000000000000000000000000 DUP2 MSTORE PUSH1 0x4 ADD DUP1 DUP1 PUSH1 0x20 ADD DUP3 DUP2 SUB DUP3 MSTORE PUSH1 0x11 DUP2 MSTORE PUSH1 0x20 ADD DUP1 PUSH32 0x6E6F2C20646F6E6E6F74696D6974617465000000000000000000000000000000 DUP2 MSTORE POP PUSH1 0x20 ADD SWAP2 POP POP PUSH1 0x40 MLOAD DUP1 SWAP2 SUB SWAP1 REVERT JUMPDEST PUSH1 0x3 SLOAD PUSH1 0x1 MUL CALLVALUE LT ISZERO DUP1 ISZERO PUSH2 0x12B3 JUMPI POP PUSH1 0x3 SLOAD PUSH1 0xF MUL CALLVALUE GT ISZERO JUMPDEST PUSH2 0x1325 JUMPI PUSH1 0x40 MLOAD PUSH32 0x8C379A000000000000000000000000000000000000000000000000000000000 DUP2 MSTORE PUSH1 0x4 ADD DUP1 DUP1 PUSH1 0x20 ADD DUP3 DUP2 SUB DUP3 MSTORE PUSH1 0x10 DUP2 MSTORE PUSH1 0x20 ADD DUP1 PUSH32 0x6265747765656E203120616E6420313500000000000000000000000000000000 DUP2 MSTORE POP PUSH1 0x20 ADD SWAP2 POP POP PUSH1 0x40 MLOAD DUP1 SWAP2 SUB SWAP1 REVERT JUMPDEST PUSH2 0x134E PUSH1 0x3 SLOAD PUSH2 0x1340 PUSH1 0x3 SLOAD CALLVALUE PUSH2 0x483D SWAP1 SWAP2 SWAP1 PUSH4 0xFFFFFFFF AND JUMP JUMPDEST PUSH2 0x48CC SWAP1 SWAP2 SWAP1 PUSH4 0xFFFFFFFF AND JUMP JUMPDEST CALLVALUE EQ PUSH2 0x13C2 JUMPI PUSH1 0x40 MLOAD PUSH32 0x8C379A000000000000000000000000000000000000000000000000000000000 DUP2 MSTORE PUSH1 0x4 ADD DUP1 DUP1 PUSH1 0x20 ADD DUP3 DUP2 SUB DUP3 MSTORE PUSH1 0x11 DUP2 MSTORE PUSH1 0x20 ADD DUP1 PUSH32 0x696E76616C6964206D73672076616C7565000000000000000000000000000000 DUP2 MSTORE POP PUSH1 0x20 ADD SWAP2 POP POP PUSH1 0x40 MLOAD DUP1 SWAP2 SUB SWAP1 REVERT JUMPDEST PUSH1 0x0 PUSH1 0xF PUSH1 0x0 CALLER PUSH20 0xFFFFFFFFFFFFFFFFFFFFFFFFFFFFFFFFFFFFFFFF AND PUSH20 0xFFFFFFFFFFFFFFFFFFFFFFFFFFFFFFFFFFFFFFFF AND DUP2 MSTORE PUSH1 0x20 ADD SWAP1 DUP2 MSTORE PUSH1 0x20 ADD PUSH1 0x0 KECCAK256 SWAP1 POP PUSH1 0x0 DUP2 PUSH1 0x0 ADD SLOAD EQ ISZERO PUSH2 0x16DF JUMPI PUSH2 0x142B DUP6 PUSH1 0x40 MLOAD DUP1 PUSH1 0x20 ADD PUSH1 0x40 MSTORE DUP1 PUSH1 0x0 DUP2 MSTORE POP PUSH2 0x34C4 JUMP JUMPDEST ISZERO DUP1 ISZERO PUSH2 0x1439 JUMPI POP PUSH1 0x6 DUP6 MLOAD EQ JUMPDEST PUSH2 0x14AB JUMPI PUSH1 0x40 MLOAD PUSH32 0x8C379A000000000000000000000000000000000000000000000000000000000 DUP2 MSTORE PUSH1 0x4 ADD DUP1 DUP1 PUSH1 0x20 ADD DUP3 DUP2 SUB DUP3 MSTORE PUSH1 0x13 DUP2 MSTORE PUSH1 0x20 ADD DUP1 PUSH32 0x696E76616C696420696E7669746520636F646500000000000000000000000000 DUP2 MSTORE POP PUSH1 0x20 ADD SWAP2 POP POP PUSH1 0x40 MLOAD DUP1 SWAP2 SUB SWAP1 REVERT JUMPDEST PUSH1 0x0 PUSH1 0x10 DUP6 PUSH1 0x40 MLOAD DUP1 DUP3 DUP1 MLOAD SWAP1 PUSH1 0x20 ADD SWAP1 DUP1 DUP4 DUP4 JUMPDEST PUSH1 0x20 DUP4 LT PUSH2 0x14E3 JUMPI DUP1 MLOAD DUP3 MSTORE PUSH1 0x20 DUP3 ADD SWAP2 POP PUSH1 0x20 DUP2 ADD SWAP1 POP PUSH1 0x20 DUP4 SUB SWAP3 POP PUSH2 0x14C0 JUMP JUMPDEST PUSH1 0x1 DUP4 PUSH1 0x20 SUB PUSH2 0x100 EXP SUB DUP1 NOT DUP3 MLOAD AND DUP2 DUP5 MLOAD AND DUP1 DUP3 OR DUP6 MSTORE POP POP POP POP POP POP SWAP1 POP ADD SWAP2 POP POP SWAP1 DUP2 MSTORE PUSH1 0x20 ADD PUSH1 0x40 MLOAD DUP1 SWAP2 SUB SWAP1 KECCAK256 PUSH1 0x0 SWAP1 SLOAD SWAP1 PUSH2 0x100 EXP SWAP1 DIV PUSH20 0xFFFFFFFFFFFFFFFFFFFFFFFFFFFFFFFFFFFFFFFF AND SWAP1 POP PUSH2 0x1542 DUP6 PUSH2 0x27A2 JUMP JUMPDEST PUSH2 0x15B4 JUMPI PUSH1 0x40 MLOAD PUSH32 0x8C379A000000000000000000000000000000000000000000000000000000000 DUP2 MSTORE PUSH1 0x4 ADD DUP1 DUP1 PUSH1 0x20 ADD DUP3 DUP2 SUB DUP3 MSTORE PUSH1 0x10 DUP2 MSTORE PUSH1 0x20 ADD DUP1 PUSH32 0x6265436F6465206E6F7420657869737400000000000000000000000000000000 DUP2 MSTORE POP PUSH1 0x20 ADD SWAP2 POP POP PUSH1 0x40 MLOAD DUP1 SWAP2 SUB SWAP1 REVERT JUMPDEST CALLER PUSH20 0xFFFFFFFFFFFFFFFFFFFFFFFFFFFFFFFFFFFFFFFF AND DUP2 PUSH20 0xFFFFFFFFFFFFFFFFFFFFFFFFFFFFFFFFFFFFFFFF AND EQ ISZERO PUSH2 0x1656 JUMPI PUSH1 0x40 MLOAD PUSH32 0x8C379A000000000000000000000000000000000000000000000000000000000 DUP2 MSTORE PUSH1 0x4 ADD DUP1 DUP1 PUSH1 0x20 ADD DUP3 DUP2 SUB DUP3 MSTORE PUSH1 0x18 DUP2 MSTORE PUSH1 0x20 ADD DUP1 PUSH32 0x6265436F6465416464722063616E27742062652073656C660000000000000000 DUP2 MSTORE POP PUSH1 0x20 ADD SWAP2 POP POP PUSH1 0x40 MLOAD DUP1 SWAP2 SUB SWAP1 REVERT JUMPDEST PUSH2 0x165F DUP7 PUSH2 0x27A2 JUMP JUMPDEST ISZERO PUSH2 0x16D2 JUMPI PUSH1 0x40 MLOAD PUSH32 0x8C379A000000000000000000000000000000000000000000000000000000000 DUP2 MSTORE PUSH1 0x4 ADD DUP1 DUP1 PUSH1 0x20 ADD DUP3 DUP2 SUB DUP3 MSTORE PUSH1 0x13 DUP2 MSTORE PUSH1 0x20 ADD DUP1 PUSH32 0x696E7669746520636F6465206973207573656400000000000000000000000000 DUP2 MSTORE POP PUSH1 0x20 ADD SWAP2 POP POP PUSH1 0x40 MLOAD DUP1 SWAP2 SUB SWAP1 REVERT JUMPDEST PUSH2 0x16DD CALLER DUP8 DUP8 PUSH2 0x496F JUMP JUMPDEST POP JUMPDEST PUSH1 0x0 DUP1 PUSH2 0x16EA PUSH2 0x4B46 JUMP JUMPDEST ISZERO PUSH2 0x16F7 JUMPI CALLVALUE SWAP1 POP PUSH2 0x16FB JUMP JUMPDEST CALLVALUE SWAP2 POP JUMPDEST PUSH1 0x0 PUSH1 0xE PUSH1 0x0 PUSH1 0xC SLOAD DUP2 MSTORE PUSH1 0x20 ADD SWAP1 DUP2 MSTORE PUSH1 0x20 ADD PUSH1 0x0 KECCAK256 PUSH1 0x0 CALLER PUSH20 0xFFFFFFFFFFFFFFFFFFFFFFFFFFFFFFFFFFFFFFFF AND PUSH20 0xFFFFFFFFFFFFFFFFFFFFFFFFFFFFFFFFFFFFFFFF AND DUP2 MSTORE PUSH1 0x20 ADD SWAP1 DUP2 MSTORE PUSH1 0x20 ADD PUSH1 0x0 KECCAK256 SWAP1 POP PUSH1 0x0 DUP2 PUSH1 0x0 ADD SLOAD EQ PUSH2 0x185A JUMPI PUSH1 0x0 PUSH2 0x177A DUP3 PUSH1 0x4 ADD SLOAD DUP4 PUSH1 0x3 ADD SLOAD PUSH2 0x4B53 SWAP1 SWAP2 SWAP1 PUSH4 0xFFFFFFFF AND JUMP JUMPDEST EQ PUSH2 0x17ED JUMPI PUSH1 0x40 MLOAD PUSH32 0x8C379A000000000000000000000000000000000000000000000000000000000 DUP2 MSTORE PUSH1 0x4 ADD DUP1 DUP1 PUSH1 0x20 ADD DUP3 DUP2 SUB DUP3 MSTORE PUSH1 0x10 DUP2 MSTORE PUSH1 0x20 ADD DUP1 PUSH32 0x6F6E6C79206F6E636520696E7665737400000000000000000000000000000000 DUP2 MSTORE POP PUSH1 0x20 ADD SWAP2 POP POP PUSH1 0x40 MLOAD DUP1 SWAP2 SUB SWAP1 REVERT JUMPDEST DUP3 DUP2 PUSH1 0x3 ADD DUP2 SWAP1 SSTORE POP DUP2 DUP2 PUSH1 0x4 ADD DUP2 SWAP1 SSTORE POP PUSH2 0x180C DUP2 PUSH1 0x3 ADD SLOAD PUSH2 0x3441 JUMP JUMPDEST DUP2 PUSH1 0x8 ADD DUP2 SWAP1 SSTORE POP PUSH2 0x184D PUSH2 0x1848 DUP3 PUSH1 0x4 ADD SLOAD PUSH2 0x183A DUP5 PUSH1 0x2 ADD SLOAD DUP6 PUSH1 0x3 ADD SLOAD PUSH2 0x4B53 SWAP1 SWAP2 SWAP1 PUSH4 0xFFFFFFFF AND JUMP JUMPDEST PUSH2 0x4B53 SWAP1 SWAP2 SWAP1 PUSH4 0xFFFFFFFF AND JUMP JUMPDEST PUSH2 0xF95 JUMP JUMPDEST DUP2 PUSH1 0x9 ADD DUP2 SWAP1 SSTORE POP PUSH2 0x195F JUMP JUMPDEST DUP4 PUSH1 0x0 ADD SLOAD DUP2 PUSH1 0x0 ADD DUP2 SWAP1 SSTORE POP CALLER DUP2 PUSH1 0x1 ADD PUSH1 0x0 PUSH2 0x100 EXP DUP2 SLOAD DUP2 PUSH20 0xFFFFFFFFFFFFFFFFFFFFFFFFFFFFFFFFFFFFFFFF MUL NOT AND SWAP1 DUP4 PUSH20 0xFFFFFFFFFFFFFFFFFFFFFFFFFFFFFFFFFFFFFFFF AND MUL OR SWAP1 SSTORE POP DUP3 DUP2 PUSH1 0x3 ADD DUP2 SWAP1 SSTORE POP PUSH2 0x18BC DUP4 PUSH2 0x3441 JUMP JUMPDEST DUP2 PUSH1 0x8 ADD DUP2 SWAP1 SSTORE POP DUP2 DUP2 PUSH1 0x4 ADD DUP2 SWAP1 SSTORE POP PUSH2 0x1906 PUSH2 0x1901 DUP3 PUSH1 0x4 ADD SLOAD PUSH2 0x18F3 DUP5 PUSH1 0x2 ADD SLOAD DUP6 PUSH1 0x3 ADD SLOAD PUSH2 0x4B53 SWAP1 SWAP2 SWAP1 PUSH4 0xFFFFFFFF AND JUMP JUMPDEST PUSH2 0x4B53 SWAP1 SWAP2 SWAP1 PUSH4 0xFFFFFFFF AND JUMP JUMPDEST PUSH2 0xF95 JUMP JUMPDEST DUP2 PUSH1 0x9 ADD DUP2 SWAP1 SSTORE POP DUP4 PUSH1 0x2 ADD DUP2 PUSH1 0xC ADD SWAP1 DUP1 SLOAD PUSH1 0x1 DUP2 PUSH1 0x1 AND ISZERO PUSH2 0x100 MUL SUB AND PUSH1 0x2 SWAP1 DIV PUSH2 0x1935 SWAP3 SWAP2 SWAP1 PUSH2 0x5822 JUMP JUMPDEST POP DUP4 PUSH1 0x3 ADD DUP2 PUSH1 0xD ADD SWAP1 DUP1 SLOAD PUSH1 0x1 DUP2 PUSH1 0x1 AND ISZERO PUSH2 0x100 MUL SUB AND PUSH1 0x2 SWAP1 DIV PUSH2 0x195D SWAP3 SWAP2 SWAP1 PUSH2 0x5822 JUMP JUMPDEST POP JUMPDEST PUSH2 0x1988 PUSH1 0x1 PUSH1 0x8 PUSH1 0x0 PUSH1 0xC SLOAD DUP2 MSTORE PUSH1 0x20 ADD SWAP1 DUP2 MSTORE PUSH1 0x20 ADD PUSH1 0x0 KECCAK256 SLOAD PUSH2 0x4B53 SWAP1 SWAP2 SWAP1 PUSH4 0xFFFFFFFF AND JUMP JUMPDEST PUSH1 0x8 PUSH1 0x0 PUSH1 0xC SLOAD DUP2 MSTORE PUSH1 0x20 ADD SWAP1 DUP2 MSTORE PUSH1 0x20 ADD PUSH1 0x0 KECCAK256 DUP2 SWAP1 SSTORE POP PUSH2 0x19C9 CALLVALUE PUSH1 0x9 PUSH1 0x0 PUSH1 0xC SLOAD DUP2 MSTORE PUSH1 0x20 ADD SWAP1 DUP2 MSTORE PUSH1 0x20 ADD PUSH1 0x0 KECCAK256 SLOAD PUSH2 0x4B53 SWAP1 SWAP2 SWAP1 PUSH4 0xFFFFFFFF AND JUMP JUMPDEST PUSH1 0x9 PUSH1 0x0 PUSH1 0xC SLOAD DUP2 MSTORE PUSH1 0x20 ADD SWAP1 DUP2 MSTORE PUSH1 0x20 ADD PUSH1 0x0 KECCAK256 DUP2 SWAP1 SSTORE POP PUSH2 0x19EA PUSH2 0x4B46 JUMP JUMPDEST PUSH2 0x1A29 JUMPI PUSH2 0x19F7 CALLVALUE PUSH2 0x4BDB JUMP JUMPDEST PUSH2 0x1A24 DUP2 PUSH1 0x1 ADD PUSH1 0x0 SWAP1 SLOAD SWAP1 PUSH2 0x100 EXP SWAP1 DIV PUSH20 0xFFFFFFFFFFFFFFFFFFFFFFFFFFFFFFFFFFFFFFFF AND PUSH2 0x4C5A JUMP JUMPDEST PUSH2 0x1A6D JUMP JUMPDEST PUSH1 0xD PUSH1 0x0 PUSH1 0xC SLOAD DUP2 MSTORE PUSH1 0x20 ADD SWAP1 DUP2 MSTORE PUSH1 0x20 ADD PUSH1 0x0 KECCAK256 DUP2 PUSH1 0x0 ADD SLOAD SWAP1 DUP1 PUSH1 0x1 DUP2 SLOAD ADD DUP1 DUP3 SSTORE DUP1 SWAP2 POP POP SWAP1 PUSH1 0x1 DUP3 SUB SWAP1 PUSH1 0x0 MSTORE PUSH1 0x20 PUSH1 0x0 KECCAK256 ADD PUSH1 0x0 SWAP1 SWAP2 SWAP3 SWAP1 SWAP2 SWAP1 SWAP2 POP SSTORE POP JUMPDEST POP POP POP POP POP POP POP POP JUMP JUMPDEST PUSH2 0x1A7F PUSH2 0x367C JUMP JUMPDEST PUSH2 0x1AF1 JUMPI PUSH1 0x40 MLOAD PUSH32 0x8C379A000000000000000000000000000000000000000000000000000000000 DUP2 MSTORE PUSH1 0x4 ADD DUP1 DUP1 PUSH1 0x20 ADD DUP3 DUP2 SUB DUP3 MSTORE PUSH1 0x20 DUP2 MSTORE PUSH1 0x20 ADD DUP1 PUSH32 0x4F776E61626C653A2063616C6C6572206973206E6F7420746865206F776E6572 DUP2 MSTORE POP PUSH1 0x20 ADD SWAP2 POP POP PUSH1 0x40 MLOAD DUP1 SWAP2 SUB SWAP1 REVERT JUMPDEST PUSH1 0x0 PUSH1 0x16 DUP2 SWAP1 SSTORE POP JUMP JUMPDEST PUSH2 0x1B03 PUSH2 0x58A9 JUMP JUMPDEST PUSH1 0x60 DUP1 PUSH2 0x1B0F CALLER PUSH2 0x3BC5 JUMP JUMPDEST DUP1 PUSH2 0x1B45 JUMPI POP DUP5 PUSH20 0xFFFFFFFFFFFFFFFFFFFFFFFFFFFFFFFFFFFFFFFF AND CALLER PUSH20 0xFFFFFFFFFFFFFFFFFFFFFFFFFFFFFFFFFFFFFFFF AND EQ JUMPDEST PUSH2 0x1B9A JUMPI PUSH1 0x40 MLOAD PUSH32 0x8C379A000000000000000000000000000000000000000000000000000000000 DUP2 MSTORE PUSH1 0x4 ADD DUP1 DUP1 PUSH1 0x20 ADD DUP3 DUP2 SUB DUP3 MSTORE PUSH1 0x29 DUP2 MSTORE PUSH1 0x20 ADD DUP1 PUSH2 0x5ABC PUSH1 0x29 SWAP2 CODECOPY PUSH1 0x40 ADD SWAP2 POP POP PUSH1 0x40 MLOAD DUP1 SWAP2 SUB SWAP1 REVERT JUMPDEST PUSH1 0x0 DUP5 EQ ISZERO PUSH2 0x1BA9 JUMPI PUSH1 0xC SLOAD SWAP4 POP JUMPDEST PUSH2 0x1BB1 PUSH2 0x58CC JUMP JUMPDEST PUSH1 0xF PUSH1 0x0 DUP8 PUSH20 0xFFFFFFFFFFFFFFFFFFFFFFFFFFFFFFFFFFFFFFFF AND PUSH20 0xFFFFFFFFFFFFFFFFFFFFFFFFFFFFFFFFFFFFFFFF AND DUP2 MSTORE PUSH1 0x20 ADD SWAP1 DUP2 MSTORE PUSH1 0x20 ADD PUSH1 0x0 KECCAK256 PUSH1 0x40 MLOAD DUP1 PUSH1 0xA0 ADD PUSH1 0x40 MSTORE SWAP1 DUP2 PUSH1 0x0 DUP3 ADD SLOAD DUP2 MSTORE PUSH1 0x20 ADD PUSH1 0x1 DUP3 ADD PUSH1 0x0 SWAP1 SLOAD SWAP1 PUSH2 0x100 EXP SWAP1 DIV PUSH20 0xFFFFFFFFFFFFFFFFFFFFFFFFFFFFFFFFFFFFFFFF AND PUSH20 0xFFFFFFFFFFFFFFFFFFFFFFFFFFFFFFFFFFFFFFFF AND PUSH20 0xFFFFFFFFFFFFFFFFFFFFFFFFFFFFFFFFFFFFFFFF AND DUP2 MSTORE PUSH1 0x20 ADD PUSH1 0x2 DUP3 ADD DUP1 SLOAD PUSH1 0x1 DUP2 PUSH1 0x1 AND ISZERO PUSH2 0x100 MUL SUB AND PUSH1 0x2 SWAP1 DIV DUP1 PUSH1 0x1F ADD PUSH1 0x20 DUP1 SWAP2 DIV MUL PUSH1 0x20 ADD PUSH1 0x40 MLOAD SWAP1 DUP2 ADD PUSH1 0x40 MSTORE DUP1 SWAP3 SWAP2 SWAP1 DUP2 DUP2 MSTORE PUSH1 0x20 ADD DUP3 DUP1 SLOAD PUSH1 0x1 DUP2 PUSH1 0x1 AND ISZERO PUSH2 0x100 MUL SUB AND PUSH1 0x2 SWAP1 DIV DUP1 ISZERO PUSH2 0x1CF4 JUMPI DUP1 PUSH1 0x1F LT PUSH2 0x1CC9 JUMPI PUSH2 0x100 DUP1 DUP4 SLOAD DIV MUL DUP4 MSTORE SWAP2 PUSH1 0x20 ADD SWAP2 PUSH2 0x1CF4 JUMP JUMPDEST DUP3 ADD SWAP2 SWAP1 PUSH1 0x0 MSTORE PUSH1 0x20 PUSH1 0x0 KECCAK256 SWAP1 JUMPDEST DUP2 SLOAD DUP2 MSTORE SWAP1 PUSH1 0x1 ADD SWAP1 PUSH1 0x20 ADD DUP1 DUP4 GT PUSH2 0x1CD7 JUMPI DUP3 SWAP1 SUB PUSH1 0x1F AND DUP3 ADD SWAP2 JUMPDEST POP POP POP POP POP DUP2 MSTORE PUSH1 0x20 ADD PUSH1 0x3 DUP3 ADD DUP1 SLOAD PUSH1 0x1 DUP2 PUSH1 0x1 AND ISZERO PUSH2 0x100 MUL SUB AND PUSH1 0x2 SWAP1 DIV DUP1 PUSH1 0x1F ADD PUSH1 0x20 DUP1 SWAP2 DIV MUL PUSH1 0x20 ADD PUSH1 0x40 MLOAD SWAP1 DUP2 ADD PUSH1 0x40 MSTORE DUP1 SWAP3 SWAP2 SWAP1 DUP2 DUP2 MSTORE PUSH1 0x20 ADD DUP3 DUP1 SLOAD PUSH1 0x1 DUP2 PUSH1 0x1 AND ISZERO PUSH2 0x100 MUL SUB AND PUSH1 0x2 SWAP1 DIV DUP1 ISZERO PUSH2 0x1D96 JUMPI DUP1 PUSH1 0x1F LT PUSH2 0x1D6B JUMPI PUSH2 0x100 DUP1 DUP4 SLOAD DIV MUL DUP4 MSTORE SWAP2 PUSH1 0x20 ADD SWAP2 PUSH2 0x1D96 JUMP JUMPDEST DUP3 ADD SWAP2 SWAP1 PUSH1 0x0 MSTORE PUSH1 0x20 PUSH1 0x0 KECCAK256 SWAP1 JUMPDEST DUP2 SLOAD DUP2 MSTORE SWAP1 PUSH1 0x1 ADD SWAP1 PUSH1 0x20 ADD DUP1 DUP4 GT PUSH2 0x1D79 JUMPI DUP3 SWAP1 SUB PUSH1 0x1F AND DUP3 ADD SWAP2 JUMPDEST POP POP POP POP POP DUP2 MSTORE PUSH1 0x20 ADD PUSH1 0x4 DUP3 ADD SLOAD DUP2 MSTORE POP POP SWAP1 POP PUSH2 0x1DB3 PUSH2 0x5911 JUMP JUMPDEST PUSH1 0xE PUSH1 0x0 DUP8 DUP2 MSTORE PUSH1 0x20 ADD SWAP1 DUP2 MSTORE PUSH1 0x20 ADD PUSH1 0x0 KECCAK256 PUSH1 0x0 DUP9 PUSH20 0xFFFFFFFFFFFFFFFFFFFFFFFFFFFFFFFFFFFFFFFF AND PUSH20 0xFFFFFFFFFFFFFFFFFFFFFFFFFFFFFFFFFFFFFFFF AND DUP2 MSTORE PUSH1 0x20 ADD SWAP1 DUP2 MSTORE PUSH1 0x20 ADD PUSH1 0x0 KECCAK256 PUSH1 0x40 MLOAD DUP1 PUSH2 0x200 ADD PUSH1 0x40 MSTORE SWAP1 DUP2 PUSH1 0x0 DUP3 ADD SLOAD DUP2 MSTORE PUSH1 0x20 ADD PUSH1 0x1 DUP3 ADD PUSH1 0x0 SWAP1 SLOAD SWAP1 PUSH2 0x100 EXP SWAP1 DIV PUSH20 0xFFFFFFFFFFFFFFFFFFFFFFFFFFFFFFFFFFFFFFFF AND PUSH20 0xFFFFFFFFFFFFFFFFFFFFFFFFFFFFFFFFFFFFFFFF AND PUSH20 0xFFFFFFFFFFFFFFFFFFFFFFFFFFFFFFFFFFFFFFFF AND DUP2 MSTORE PUSH1 0x20 ADD PUSH1 0x2 DUP3 ADD SLOAD DUP2 MSTORE PUSH1 0x20 ADD PUSH1 0x3 DUP3 ADD SLOAD DUP2 MSTORE PUSH1 0x20 ADD PUSH1 0x4 DUP3 ADD SLOAD DUP2 MSTORE PUSH1 0x20 ADD PUSH1 0x5 DUP3 ADD SLOAD DUP2 MSTORE PUSH1 0x20 ADD PUSH1 0x6 DUP3 ADD SLOAD DUP2 MSTORE PUSH1 0x20 ADD PUSH1 0x7 DUP3 ADD SLOAD DUP2 MSTORE PUSH1 0x20 ADD PUSH1 0x8 DUP3 ADD SLOAD DUP2 MSTORE PUSH1 0x20 ADD PUSH1 0x9 DUP3 ADD SLOAD DUP2 MSTORE PUSH1 0x20 ADD PUSH1 0xA DUP3 ADD SLOAD DUP2 MSTORE PUSH1 0x20 ADD PUSH1 0xB DUP3 ADD SLOAD DUP2 MSTORE PUSH1 0x20 ADD PUSH1 0xC DUP3 ADD DUP1 SLOAD PUSH1 0x1 DUP2 PUSH1 0x1 AND ISZERO PUSH2 0x100 MUL SUB AND PUSH1 0x2 SWAP1 DIV DUP1 PUSH1 0x1F ADD PUSH1 0x20 DUP1 SWAP2 DIV MUL PUSH1 0x20 ADD PUSH1 0x40 MLOAD SWAP1 DUP2 ADD PUSH1 0x40 MSTORE DUP1 SWAP3 SWAP2 SWAP1 DUP2 DUP2 MSTORE PUSH1 0x20 ADD DUP3 DUP1 SLOAD PUSH1 0x1 DUP2 PUSH1 0x1 AND ISZERO PUSH2 0x100 MUL SUB AND PUSH1 0x2 SWAP1 DIV DUP1 ISZERO PUSH2 0x1F6C JUMPI DUP1 PUSH1 0x1F LT PUSH2 0x1F41 JUMPI PUSH2 0x100 DUP1 DUP4 SLOAD DIV MUL DUP4 MSTORE SWAP2 PUSH1 0x20 ADD SWAP2 PUSH2 0x1F6C JUMP JUMPDEST DUP3 ADD SWAP2 SWAP1 PUSH1 0x0 MSTORE PUSH1 0x20 PUSH1 0x0 KECCAK256 SWAP1 JUMPDEST DUP2 SLOAD DUP2 MSTORE SWAP1 PUSH1 0x1 ADD SWAP1 PUSH1 0x20 ADD DUP1 DUP4 GT PUSH2 0x1F4F JUMPI DUP3 SWAP1 SUB PUSH1 0x1F AND DUP3 ADD SWAP2 JUMPDEST POP POP POP POP POP DUP2 MSTORE PUSH1 0x20 ADD PUSH1 0xD DUP3 ADD DUP1 SLOAD PUSH1 0x1 DUP2 PUSH1 0x1 AND ISZERO PUSH2 0x100 MUL SUB AND PUSH1 0x2 SWAP1 DIV DUP1 PUSH1 0x1F ADD PUSH1 0x20 DUP1 SWAP2 DIV MUL PUSH1 0x20 ADD PUSH1 0x40 MLOAD SWAP1 DUP2 ADD PUSH1 0x40 MSTORE DUP1 SWAP3 SWAP2 SWAP1 DUP2 DUP2 MSTORE PUSH1 0x20 ADD DUP3 DUP1 SLOAD PUSH1 0x1 DUP2 PUSH1 0x1 AND ISZERO PUSH2 0x100 MUL SUB AND PUSH1 0x2 SWAP1 DIV DUP1 ISZERO PUSH2 0x200E JUMPI DUP1 PUSH1 0x1F LT PUSH2 0x1FE3 JUMPI PUSH2 0x100 DUP1 DUP4 SLOAD DIV MUL DUP4 MSTORE SWAP2 PUSH1 0x20 ADD SWAP2 PUSH2 0x200E JUMP JUMPDEST DUP3 ADD SWAP2 SWAP1 PUSH1 0x0 MSTORE PUSH1 0x20 PUSH1 0x0 KECCAK256 SWAP1 JUMPDEST DUP2 SLOAD DUP2 MSTORE SWAP1 PUSH1 0x1 ADD SWAP1 PUSH1 0x20 ADD DUP1 DUP4 GT PUSH2 0x1FF1 JUMPI DUP3 SWAP1 SUB PUSH1 0x1F AND DUP3 ADD SWAP2 JUMPDEST POP POP POP POP POP DUP2 MSTORE PUSH1 0x20 ADD PUSH1 0xE DUP3 ADD SLOAD DUP2 MSTORE PUSH1 0x20 ADD PUSH1 0xF DUP3 ADD SLOAD DUP2 MSTORE POP POP SWAP1 POP DUP2 PUSH1 0x0 ADD MLOAD DUP6 PUSH1 0x0 PUSH1 0xE DUP2 LT PUSH2 0x203F JUMPI INVALID JUMPDEST PUSH1 0x20 MUL ADD DUP2 DUP2 MSTORE POP POP DUP1 PUSH1 0x80 ADD MLOAD DUP6 PUSH1 0x1 PUSH1 0xE DUP2 LT PUSH2 0x205A JUMPI INVALID JUMPDEST PUSH1 0x20 MUL ADD DUP2 DUP2 MSTORE POP POP DUP1 PUSH1 0x40 ADD MLOAD DUP6 PUSH1 0x2 PUSH1 0xE DUP2 LT PUSH2 0x2075 JUMPI INVALID JUMPDEST PUSH1 0x20 MUL ADD DUP2 DUP2 MSTORE POP POP DUP1 PUSH1 0x60 ADD MLOAD DUP6 PUSH1 0x3 PUSH1 0xE DUP2 LT PUSH2 0x2090 JUMPI INVALID JUMPDEST PUSH1 0x20 MUL ADD DUP2 DUP2 MSTORE POP POP DUP1 PUSH1 0xA0 ADD MLOAD DUP6 PUSH1 0x4 PUSH1 0xE DUP2 LT PUSH2 0x20AB JUMPI INVALID JUMPDEST PUSH1 0x20 MUL ADD DUP2 DUP2 MSTORE POP POP DUP1 PUSH1 0xE0 ADD MLOAD DUP6 PUSH1 0x5 PUSH1 0xE DUP2 LT PUSH2 0x20C6 JUMPI INVALID JUMPDEST PUSH1 0x20 MUL ADD DUP2 DUP2 MSTORE POP POP DUP1 PUSH2 0x120 ADD MLOAD DUP6 PUSH1 0x6 PUSH1 0xE DUP2 LT PUSH2 0x20E2 JUMPI INVALID JUMPDEST PUSH1 0x20 MUL ADD DUP2 DUP2 MSTORE POP POP DUP1 PUSH1 0xC0 ADD MLOAD DUP6 PUSH1 0x7 PUSH1 0xE DUP2 LT PUSH2 0x20FD JUMPI INVALID JUMPDEST PUSH1 0x20 MUL ADD DUP2 DUP2 MSTORE POP POP DUP1 PUSH2 0x1C0 ADD MLOAD DUP6 PUSH1 0x8 PUSH1 0xE DUP2 LT PUSH2 0x2119 JUMPI INVALID JUMPDEST PUSH1 0x20 MUL ADD DUP2 DUP2 MSTORE POP POP DUP1 PUSH2 0x160 ADD MLOAD DUP6 PUSH1 0x9 PUSH1 0xE DUP2 LT PUSH2 0x2135 JUMPI INVALID JUMPDEST PUSH1 0x20 MUL ADD DUP2 DUP2 MSTORE POP POP DUP1 PUSH2 0x100 ADD MLOAD DUP6 PUSH1 0xA PUSH1 0xE DUP2 LT PUSH2 0x2151 JUMPI INVALID JUMPDEST PUSH1 0x20 MUL ADD DUP2 DUP2 MSTORE POP POP PUSH1 0x0 DUP1 SWAP1 POP PUSH1 0x0 DUP3 PUSH1 0x0 ADD MLOAD GT DUP1 ISZERO PUSH2 0x217F JUMPI POP PUSH8 0xDE0B6B3A7640000 DUP3 PUSH1 0x60 ADD MLOAD LT ISZERO JUMPDEST DUP1 ISZERO PUSH2 0x2191 JUMPI POP PUSH1 0x13 SLOAD DUP3 PUSH1 0x60 ADD MLOAD GT ISZERO JUMPDEST DUP1 ISZERO PUSH2 0x21A2 JUMPI POP PUSH1 0x5 DUP3 PUSH2 0x160 ADD MLOAD LT JUMPDEST DUP1 ISZERO PUSH2 0x21B3 JUMPI POP PUSH1 0x1 DUP4 PUSH1 0x80 ADD MLOAD EQ ISZERO JUMPDEST ISZERO PUSH2 0x21C2 JUMPI DUP2 PUSH1 0xC0 ADD MLOAD DUP2 ADD SWAP1 POP JUMPDEST PUSH1 0x0 DUP4 PUSH1 0x80 ADD MLOAD EQ ISZERO PUSH2 0x24FB JUMPI PUSH1 0x0 DUP1 SWAP1 POP PUSH2 0x21DC PUSH2 0x59A4 JUMP JUMPDEST PUSH1 0x12 PUSH1 0x0 PUSH1 0xC SLOAD DUP2 MSTORE PUSH1 0x20 ADD SWAP1 DUP2 MSTORE PUSH1 0x20 ADD PUSH1 0x0 KECCAK256 PUSH1 0x0 DUP6 PUSH1 0x20 ADD MLOAD PUSH20 0xFFFFFFFFFFFFFFFFFFFFFFFFFFFFFFFFFFFFFFFF AND PUSH20 0xFFFFFFFFFFFFFFFFFFFFFFFFFFFFFFFFFFFFFFFF AND DUP2 MSTORE PUSH1 0x20 ADD SWAP1 DUP2 MSTORE PUSH1 0x20 ADD PUSH1 0x0 KECCAK256 PUSH1 0x0 DUP6 PUSH2 0x1C0 ADD MLOAD DUP2 MSTORE PUSH1 0x20 ADD SWAP1 DUP2 MSTORE PUSH1 0x20 ADD PUSH1 0x0 KECCAK256 PUSH1 0x40 MLOAD DUP1 PUSH1 0x60 ADD PUSH1 0x40 MSTORE SWAP1 DUP2 PUSH1 0x0 DUP3 ADD SLOAD DUP2 MSTORE PUSH1 0x20 ADD PUSH1 0x1 DUP3 ADD SLOAD DUP2 MSTORE PUSH1 0x20 ADD PUSH1 0x2 DUP3 ADD SLOAD DUP2 MSTORE POP POP SWAP1 POP PUSH1 0x0 PUSH2 0x22A6 DUP6 PUSH1 0x80 ADD MLOAD PUSH2 0x2298 DUP8 PUSH1 0x40 ADD MLOAD DUP9 PUSH1 0x60 ADD MLOAD PUSH2 0x4B53 SWAP1 SWAP2 SWAP1 PUSH4 0xFFFFFFFF AND JUMP JUMPDEST PUSH2 0x4B53 SWAP1 SWAP2 SWAP1 PUSH4 0xFFFFFFFF AND JUMP JUMPDEST SWAP1 POP PUSH8 0xDE0B6B3A7640000 DUP2 LT PUSH2 0x24F7 JUMPI PUSH1 0x0 PUSH2 0x22CE PUSH1 0x3 SLOAD DUP4 PUSH2 0x483D SWAP1 SWAP2 SWAP1 PUSH4 0xFFFFFFFF AND JUMP JUMPDEST SWAP1 POP PUSH1 0xF DUP2 LT PUSH2 0x22E6 JUMPI DUP3 PUSH1 0x40 ADD MLOAD DUP5 ADD SWAP4 POP PUSH2 0x24F0 JUMP JUMPDEST PUSH1 0x1 DUP7 PUSH2 0x120 ADD MLOAD EQ DUP1 ISZERO PUSH2 0x2303 JUMPI POP PUSH8 0xDE0B6B3A7640000 DUP3 LT ISZERO JUMPDEST DUP1 ISZERO PUSH2 0x2313 JUMPI POP PUSH1 0x0 DUP4 PUSH1 0x0 ADD MLOAD GT JUMPDEST ISZERO PUSH2 0x235A JUMPI PUSH2 0x2355 PUSH1 0x2 PUSH2 0x2347 DUP4 PUSH2 0x2339 PUSH1 0xF DUP9 PUSH1 0x0 ADD MLOAD PUSH2 0x483D SWAP1 SWAP2 SWAP1 PUSH4 0xFFFFFFFF AND JUMP JUMPDEST PUSH2 0x48CC SWAP1 SWAP2 SWAP1 PUSH4 0xFFFFFFFF AND JUMP JUMPDEST PUSH2 0x483D SWAP1 SWAP2 SWAP1 PUSH4 0xFFFFFFFF AND JUMP JUMPDEST DUP5 ADD SWAP4 POP JUMPDEST PUSH1 0x2 DUP7 PUSH2 0x120 ADD MLOAD EQ DUP1 ISZERO PUSH2 0x2377 JUMPI POP PUSH8 0xDE0B6B3A7640000 DUP3 LT ISZERO JUMPDEST DUP1 ISZERO PUSH2 0x2396 JUMPI POP PUSH1 0x0 DUP4 PUSH1 0x0 ADD MLOAD GT DUP1 PUSH2 0x2395 JUMPI POP PUSH1 0x0 DUP4 PUSH1 0x20 ADD MLOAD GT JUMPDEST JUMPDEST ISZERO PUSH2 0x2444 JUMPI PUSH2 0x23EB PUSH1 0xA PUSH2 0x23DD PUSH1 0x7 PUSH2 0x23CF DUP6 PUSH2 0x23C1 PUSH1 0xF DUP11 PUSH1 0x0 ADD MLOAD PUSH2 0x483D SWAP1 SWAP2 SWAP1 PUSH4 0xFFFFFFFF AND JUMP JUMPDEST PUSH2 0x48CC SWAP1 SWAP2 SWAP1 PUSH4 0xFFFFFFFF AND JUMP JUMPDEST PUSH2 0x48CC SWAP1 SWAP2 SWAP1 PUSH4 0xFFFFFFFF AND JUMP JUMPDEST PUSH2 0x483D SWAP1 SWAP2 SWAP1 PUSH4 0xFFFFFFFF AND JUMP JUMPDEST DUP5 ADD SWAP4 POP PUSH2 0x243F PUSH1 0x7 PUSH2 0x2431 PUSH1 0x5 PUSH2 0x2423 DUP6 PUSH2 0x2415 PUSH1 0xF DUP11 PUSH1 0x20 ADD MLOAD PUSH2 0x483D SWAP1 SWAP2 SWAP1 PUSH4 0xFFFFFFFF AND JUMP JUMPDEST PUSH2 0x48CC SWAP1 SWAP2 SWAP1 PUSH4 0xFFFFFFFF AND JUMP JUMPDEST PUSH2 0x48CC SWAP1 SWAP2 SWAP1 PUSH4 0xFFFFFFFF AND JUMP JUMPDEST PUSH2 0x483D SWAP1 SWAP2 SWAP1 PUSH4 0xFFFFFFFF AND JUMP JUMPDEST DUP5 ADD SWAP4 POP JUMPDEST PUSH1 0x3 DUP7 PUSH2 0x120 ADD MLOAD EQ DUP1 ISZERO PUSH2 0x2461 JUMPI POP PUSH8 0xDE0B6B3A7640000 DUP3 LT ISZERO JUMPDEST DUP1 ISZERO PUSH2 0x2471 JUMPI POP PUSH1 0x0 DUP4 PUSH1 0x40 ADD MLOAD GT JUMPDEST ISZERO PUSH2 0x24A5 JUMPI PUSH2 0x24A0 DUP2 PUSH2 0x2492 PUSH1 0xF DUP7 PUSH1 0x40 ADD MLOAD PUSH2 0x483D SWAP1 SWAP2 SWAP1 PUSH4 0xFFFFFFFF AND JUMP JUMPDEST PUSH2 0x48CC SWAP1 SWAP2 SWAP1 PUSH4 0xFFFFFFFF AND JUMP JUMPDEST DUP5 ADD SWAP4 POP JUMPDEST PUSH1 0x3 DUP7 PUSH2 0x120 ADD MLOAD LT ISZERO PUSH2 0x24EF JUMPI PUSH1 0x0 PUSH2 0x24C3 DUP8 PUSH2 0x120 ADD MLOAD PUSH2 0x42CA JUMP JUMPDEST SWAP1 POP PUSH2 0x24EB PUSH1 0xA PUSH2 0x24DD DUP4 DUP9 PUSH2 0x48CC SWAP1 SWAP2 SWAP1 PUSH4 0xFFFFFFFF AND JUMP JUMPDEST PUSH2 0x483D SWAP1 SWAP2 SWAP1 PUSH4 0xFFFFFFFF AND JUMP JUMPDEST SWAP5 POP POP JUMPDEST JUMPDEST DUP4 DUP6 ADD SWAP5 POP POP JUMPDEST POP POP POP JUMPDEST DUP1 DUP7 PUSH1 0xB PUSH1 0xE DUP2 LT PUSH2 0x2509 JUMPI INVALID JUMPDEST PUSH1 0x20 MUL ADD DUP2 DUP2 MSTORE POP POP DUP2 PUSH2 0x1E0 ADD MLOAD DUP7 PUSH1 0xC PUSH1 0xE DUP2 LT PUSH2 0x2525 JUMPI INVALID JUMPDEST PUSH1 0x20 MUL ADD DUP2 DUP2 MSTORE POP POP DUP3 PUSH1 0x80 ADD MLOAD DUP7 PUSH1 0xD PUSH1 0xE DUP2 LT PUSH2 0x2540 JUMPI INVALID JUMPDEST PUSH1 0x20 MUL ADD DUP2 DUP2 MSTORE POP POP DUP6 DUP4 PUSH1 0x40 ADD MLOAD DUP5 PUSH1 0x60 ADD MLOAD DUP2 SWAP2 POP DUP1 SWAP1 POP SWAP6 POP SWAP6 POP SWAP6 POP POP POP POP SWAP3 POP SWAP3 POP SWAP3 JUMP JUMPDEST PUSH1 0x0 PUSH2 0x2575 CALLER PUSH2 0x3BC5 JUMP JUMPDEST PUSH2 0x25E7 JUMPI PUSH1 0x40 MLOAD PUSH32 0x8C379A000000000000000000000000000000000000000000000000000000000 DUP2 MSTORE PUSH1 0x4 ADD DUP1 DUP1 PUSH1 0x20 ADD DUP3 DUP2 SUB DUP3 MSTORE PUSH1 0x11 DUP2 MSTORE PUSH1 0x20 ADD DUP1 PUSH32 0x5065726D697373696F6E2064656E696564000000000000000000000000000000 DUP2 MSTORE POP PUSH1 0x20 ADD SWAP2 POP POP PUSH1 0x40 MLOAD DUP1 SWAP2 SUB SWAP1 REVERT JUMPDEST PUSH1 0x0 DUP3 EQ ISZERO PUSH2 0x25F6 JUMPI PUSH1 0xC SLOAD SWAP2 POP JUMPDEST PUSH1 0xD PUSH1 0x0 PUSH1 0xC SLOAD DUP2 MSTORE PUSH1 0x20 ADD SWAP1 DUP2 MSTORE PUSH1 0x20 ADD PUSH1 0x0 KECCAK256 DUP4 DUP2 SLOAD DUP2 LT PUSH2 0x2616 JUMPI INVALID JUMPDEST SWAP1 PUSH1 0x0 MSTORE PUSH1 0x20 PUSH1 0x0 KECCAK256 ADD SLOAD SWAP1 POP SWAP3 SWAP2 POP POP JUMP JUMPDEST PUSH2 0x2631 PUSH2 0x367C JUMP JUMPDEST PUSH2 0x26A3 JUMPI PUSH1 0x40 MLOAD PUSH32 0x8C379A000000000000000000000000000000000000000000000000000000000 DUP2 MSTORE PUSH1 0x4 ADD DUP1 DUP1 PUSH1 0x20 ADD DUP3 DUP2 SUB DUP3 MSTORE PUSH1 0x20 DUP2 MSTORE PUSH1 0x20 ADD DUP1 PUSH32 0x4F776E61626C653A2063616C6C6572206973206E6F7420746865206F776E6572 DUP2 MSTORE POP PUSH1 0x20 ADD SWAP2 POP POP PUSH1 0x40 MLOAD DUP1 SWAP2 SUB SWAP1 REVERT JUMPDEST PUSH1 0x1 PUSH1 0x17 SLOAD EQ PUSH2 0x271B JUMPI PUSH1 0x40 MLOAD PUSH32 0x8C379A000000000000000000000000000000000000000000000000000000000 DUP2 MSTORE PUSH1 0x4 ADD DUP1 DUP1 PUSH1 0x20 ADD DUP3 DUP2 SUB DUP3 MSTORE PUSH1 0x17 DUP2 MSTORE PUSH1 0x20 ADD DUP1 PUSH32 0x7665727964616E6765726F75732C206C696D6974656421000000000000000000 DUP2 MSTORE POP PUSH1 0x20 ADD SWAP2 POP POP PUSH1 0x40 MLOAD DUP1 SWAP2 SUB SWAP1 REVERT JUMPDEST TIMESTAMP DUP2 GT PUSH2 0x2790 JUMPI PUSH1 0x40 MLOAD PUSH32 0x8C379A000000000000000000000000000000000000000000000000000000000 DUP2 MSTORE PUSH1 0x4 ADD DUP1 DUP1 PUSH1 0x20 ADD DUP3 DUP2 SUB DUP3 MSTORE PUSH1 0x11 DUP2 MSTORE PUSH1 0x20 ADD DUP1 PUSH32 0x6E6F2C207665727964616E6765726F7573000000000000000000000000000000 DUP2 MSTORE POP PUSH1 0x20 ADD SWAP2 POP POP PUSH1 0x40 MLOAD DUP1 SWAP2 SUB SWAP1 REVERT JUMPDEST DUP1 PUSH1 0x6 DUP2 SWAP1 SSTORE POP PUSH1 0x0 PUSH1 0x17 DUP2 SWAP1 SSTORE POP POP JUMP JUMPDEST PUSH1 0x0 DUP1 PUSH1 0x10 DUP4 PUSH1 0x40 MLOAD DUP1 DUP3 DUP1 MLOAD SWAP1 PUSH1 0x20 ADD SWAP1 DUP1 DUP4 DUP4 JUMPDEST PUSH1 0x20 DUP4 LT PUSH2 0x27DB JUMPI DUP1 MLOAD DUP3 MSTORE PUSH1 0x20 DUP3 ADD SWAP2 POP PUSH1 0x20 DUP2 ADD SWAP1 POP PUSH1 0x20 DUP4 SUB SWAP3 POP PUSH2 0x27B8 JUMP JUMPDEST PUSH1 0x1 DUP4 PUSH1 0x20 SUB PUSH2 0x100 EXP SUB DUP1 NOT DUP3 MLOAD AND DUP2 DUP5 MLOAD AND DUP1 DUP3 OR DUP6 MSTORE POP POP POP POP POP POP SWAP1 POP ADD SWAP2 POP POP SWAP1 DUP2 MSTORE PUSH1 0x20 ADD PUSH1 0x40 MLOAD DUP1 SWAP2 SUB SWAP1 KECCAK256 PUSH1 0x0 SWAP1 SLOAD SWAP1 PUSH2 0x100 EXP SWAP1 DIV PUSH20 0xFFFFFFFFFFFFFFFFFFFFFFFFFFFFFFFFFFFFFFFF AND SWAP1 POP PUSH1 0x0 DUP2 PUSH20 0xFFFFFFFFFFFFFFFFFFFFFFFFFFFFFFFFFFFFFFFF AND EQ ISZERO SWAP2 POP POP SWAP2 SWAP1 POP JUMP JUMPDEST PUSH2 0x285C PUSH2 0x367C JUMP JUMPDEST PUSH2 0x28CE JUMPI PUSH1 0x40 MLOAD PUSH32 0x8C379A000000000000000000000000000000000000000000000000000000000 DUP2 MSTORE PUSH1 0x4 ADD DUP1 DUP1 PUSH1 0x20 ADD DUP3 DUP2 SUB DUP3 MSTORE PUSH1 0x20 DUP2 MSTORE PUSH1 0x20 ADD DUP1 PUSH32 0x4F776E61626C653A2063616C6C6572206973206E6F7420746865206F776E6572 DUP2 MSTORE POP PUSH1 0x20 ADD SWAP2 POP POP PUSH1 0x40 MLOAD DUP1 SWAP2 SUB SWAP1 REVERT JUMPDEST PUSH2 0x28E2 DUP2 PUSH1 0x2 PUSH2 0x4FFD SWAP1 SWAP2 SWAP1 PUSH4 0xFFFFFFFF AND JUMP JUMPDEST POP JUMP JUMPDEST PUSH2 0x28ED PUSH2 0x367C JUMP JUMPDEST PUSH2 0x295F JUMPI PUSH1 0x40 MLOAD PUSH32 0x8C379A000000000000000000000000000000000000000000000000000000000 DUP2 MSTORE PUSH1 0x4 ADD DUP1 DUP1 PUSH1 0x20 ADD DUP3 DUP2 SUB DUP3 MSTORE PUSH1 0x20 DUP2 MSTORE PUSH1 0x20 ADD DUP1 PUSH32 0x4F776E61626C653A2063616C6C6572206973206E6F7420746865206F776E6572 DUP2 MSTORE POP PUSH1 0x20 ADD SWAP2 POP POP PUSH1 0x40 MLOAD DUP1 SWAP2 SUB SWAP1 REVERT JUMPDEST PUSH2 0x2973 DUP2 PUSH1 0x2 PUSH2 0x50BA SWAP1 SWAP2 SWAP1 PUSH4 0xFFFFFFFF AND JUMP JUMPDEST POP JUMP JUMPDEST PUSH2 0x297E PUSH2 0x367C JUMP JUMPDEST PUSH2 0x29F0 JUMPI PUSH1 0x40 MLOAD PUSH32 0x8C379A000000000000000000000000000000000000000000000000000000000 DUP2 MSTORE PUSH1 0x4 ADD DUP1 DUP1 PUSH1 0x20 ADD DUP3 DUP2 SUB DUP3 MSTORE PUSH1 0x20 DUP2 MSTORE PUSH1 0x20 ADD DUP1 PUSH32 0x4F776E61626C653A2063616C6C6572206973206E6F7420746865206F776E6572 DUP2 MSTORE POP PUSH1 0x20 ADD SWAP2 POP POP PUSH1 0x40 MLOAD DUP1 SWAP2 SUB SWAP1 REVERT JUMPDEST PUSH8 0xDE0B6B3A7640000 SELFBALANCE LT PUSH2 0x2A50 JUMPI PUSH1 0x40 MLOAD PUSH32 0x8C379A000000000000000000000000000000000000000000000000000000000 DUP2 MSTORE PUSH1 0x4 ADD DUP1 DUP1 PUSH1 0x20 ADD DUP3 DUP2 SUB DUP3 MSTORE PUSH1 0x2B DUP2 MSTORE PUSH1 0x20 ADD DUP1 PUSH2 0x5A6B PUSH1 0x2B SWAP2 CODECOPY PUSH1 0x40 ADD SWAP2 POP POP PUSH1 0x40 MLOAD DUP1 SWAP2 SUB SWAP1 REVERT JUMPDEST PUSH1 0xC PUSH1 0x0 DUP2 SLOAD DUP1 SWAP3 SWAP2 SWAP1 PUSH1 0x1 ADD SWAP2 SWAP1 POP SSTORE POP PUSH2 0x2AA1 PUSH3 0x15180 PUSH2 0x2A93 PUSH3 0x15180 PUSH2 0x2A85 PUSH1 0xA SLOAD TIMESTAMP PUSH2 0x4B53 SWAP1 SWAP2 SWAP1 PUSH4 0xFFFFFFFF AND JUMP JUMPDEST PUSH2 0x483D SWAP1 SWAP2 SWAP1 PUSH4 0xFFFFFFFF AND JUMP JUMPDEST PUSH2 0x48CC SWAP1 SWAP2 SWAP1 PUSH4 0xFFFFFFFF AND JUMP JUMPDEST PUSH1 0x6 DUP2 SWAP1 SSTORE POP PUSH1 0x1 PUSH1 0x17 DUP2 SWAP1 SSTORE POP JUMP JUMPDEST PUSH2 0x2AC1 PUSH2 0x2ABC PUSH2 0x5195 JUMP JUMPDEST PUSH2 0x3BC5 JUMP JUMPDEST DUP1 PUSH2 0x2AD0 JUMPI POP PUSH2 0x2ACF PUSH2 0x367C JUMP JUMPDEST JUMPDEST PUSH2 0x2B25 JUMPI PUSH1 0x40 MLOAD PUSH32 0x8C379A000000000000000000000000000000000000000000000000000000000 DUP2 MSTORE PUSH1 0x4 ADD DUP1 DUP1 PUSH1 0x20 ADD DUP3 DUP2 SUB DUP3 MSTORE PUSH1 0x40 DUP2 MSTORE PUSH1 0x20 ADD DUP1 PUSH2 0x5B28 PUSH1 0x40 SWAP2 CODECOPY PUSH1 0x40 ADD SWAP2 POP POP PUSH1 0x40 MLOAD DUP1 SWAP2 SUB SWAP1 REVERT JUMPDEST PUSH1 0x0 DUP3 SWAP1 POP JUMPDEST DUP2 DUP2 GT PUSH2 0x33A4 JUMPI PUSH1 0x0 PUSH1 0x11 PUSH1 0x0 DUP4 DUP2 MSTORE PUSH1 0x20 ADD SWAP1 DUP2 MSTORE PUSH1 0x20 ADD PUSH1 0x0 KECCAK256 PUSH1 0x0 SWAP1 SLOAD SWAP1 PUSH2 0x100 EXP SWAP1 DIV PUSH20 0xFFFFFFFFFFFFFFFFFFFFFFFFFFFFFFFFFFFFFFFF AND SWAP1 POP PUSH1 0x0 PUSH1 0xE PUSH1 0x0 PUSH1 0xC SLOAD DUP2 MSTORE PUSH1 0x20 ADD SWAP1 DUP2 MSTORE PUSH1 0x20 ADD PUSH1 0x0 KECCAK256 PUSH1 0x0 DUP4 PUSH20 0xFFFFFFFFFFFFFFFFFFFFFFFFFFFFFFFFFFFFFFFF AND PUSH20 0xFFFFFFFFFFFFFFFFFFFFFFFFFFFFFFFFFFFFFFFF AND DUP2 MSTORE PUSH1 0x20 ADD SWAP1 DUP2 MSTORE PUSH1 0x20 ADD PUSH1 0x0 KECCAK256 SWAP1 POP PUSH2 0x2BC8 PUSH2 0x58CC JUMP JUMPDEST PUSH1 0xF PUSH1 0x0 DUP5 PUSH20 0xFFFFFFFFFFFFFFFFFFFFFFFFFFFFFFFFFFFFFFFF AND PUSH20 0xFFFFFFFFFFFFFFFFFFFFFFFFFFFFFFFFFFFFFFFF AND DUP2 MSTORE PUSH1 0x20 ADD SWAP1 DUP2 MSTORE PUSH1 0x20 ADD PUSH1 0x0 KECCAK256 PUSH1 0x40 MLOAD DUP1 PUSH1 0xA0 ADD PUSH1 0x40 MSTORE SWAP1 DUP2 PUSH1 0x0 DUP3 ADD SLOAD DUP2 MSTORE PUSH1 0x20 ADD PUSH1 0x1 DUP3 ADD PUSH1 0x0 SWAP1 SLOAD SWAP1 PUSH2 0x100 EXP SWAP1 DIV PUSH20 0xFFFFFFFFFFFFFFFFFFFFFFFFFFFFFFFFFFFFFFFF AND PUSH20 0xFFFFFFFFFFFFFFFFFFFFFFFFFFFFFFFFFFFFFFFF AND PUSH20 0xFFFFFFFFFFFFFFFFFFFFFFFFFFFFFFFFFFFFFFFF AND DUP2 MSTORE PUSH1 0x20 ADD PUSH1 0x2 DUP3 ADD DUP1 SLOAD PUSH1 0x1 DUP2 PUSH1 0x1 AND ISZERO PUSH2 0x100 MUL SUB AND PUSH1 0x2 SWAP1 DIV DUP1 PUSH1 0x1F ADD PUSH1 0x20 DUP1 SWAP2 DIV MUL PUSH1 0x20 ADD PUSH1 0x40 MLOAD SWAP1 DUP2 ADD PUSH1 0x40 MSTORE DUP1 SWAP3 SWAP2 SWAP1 DUP2 DUP2 MSTORE PUSH1 0x20 ADD DUP3 DUP1 SLOAD PUSH1 0x1 DUP2 PUSH1 0x1 AND ISZERO PUSH2 0x100 MUL SUB AND PUSH1 0x2 SWAP1 DIV DUP1 ISZERO PUSH2 0x2D0B JUMPI DUP1 PUSH1 0x1F LT PUSH2 0x2CE0 JUMPI PUSH2 0x100 DUP1 DUP4 SLOAD DIV MUL DUP4 MSTORE SWAP2 PUSH1 0x20 ADD SWAP2 PUSH2 0x2D0B JUMP JUMPDEST DUP3 ADD SWAP2 SWAP1 PUSH1 0x0 MSTORE PUSH1 0x20 PUSH1 0x0 KECCAK256 SWAP1 JUMPDEST DUP2 SLOAD DUP2 MSTORE SWAP1 PUSH1 0x1 ADD SWAP1 PUSH1 0x20 ADD DUP1 DUP4 GT PUSH2 0x2CEE JUMPI DUP3 SWAP1 SUB PUSH1 0x1F AND DUP3 ADD SWAP2 JUMPDEST POP POP POP POP POP DUP2 MSTORE PUSH1 0x20 ADD PUSH1 0x3 DUP3 ADD DUP1 SLOAD PUSH1 0x1 DUP2 PUSH1 0x1 AND ISZERO PUSH2 0x100 MUL SUB AND PUSH1 0x2 SWAP1 DIV DUP1 PUSH1 0x1F ADD PUSH1 0x20 DUP1 SWAP2 DIV MUL PUSH1 0x20 ADD PUSH1 0x40 MLOAD SWAP1 DUP2 ADD PUSH1 0x40 MSTORE DUP1 SWAP3 SWAP2 SWAP1 DUP2 DUP2 MSTORE PUSH1 0x20 ADD DUP3 DUP1 SLOAD PUSH1 0x1 DUP2 PUSH1 0x1 AND ISZERO PUSH2 0x100 MUL SUB AND PUSH1 0x2 SWAP1 DIV DUP1 ISZERO PUSH2 0x2DAD JUMPI DUP1 PUSH1 0x1F LT PUSH2 0x2D82 JUMPI PUSH2 0x100 DUP1 DUP4 SLOAD DIV MUL DUP4 MSTORE SWAP2 PUSH1 0x20 ADD SWAP2 PUSH2 0x2DAD JUMP JUMPDEST DUP3 ADD SWAP2 SWAP1 PUSH1 0x0 MSTORE PUSH1 0x20 PUSH1 0x0 KECCAK256 SWAP1 JUMPDEST DUP2 SLOAD DUP2 MSTORE SWAP1 PUSH1 0x1 ADD SWAP1 PUSH1 0x20 ADD DUP1 DUP4 GT PUSH2 0x2D90 JUMPI DUP3 SWAP1 SUB PUSH1 0x1F AND DUP3 ADD SWAP2 JUMPDEST POP POP POP POP POP DUP2 MSTORE PUSH1 0x20 ADD PUSH1 0x4 DUP3 ADD SLOAD DUP2 MSTORE POP POP SWAP1 POP PUSH2 0xA8C0 PUSH2 0x2DDC DUP4 PUSH1 0xF ADD SLOAD TIMESTAMP PUSH2 0x519D SWAP1 SWAP2 SWAP1 PUSH4 0xFFFFFFFF AND JUMP JUMPDEST GT PUSH2 0x2DE9 JUMPI POP POP POP PUSH2 0x3397 JUMP JUMPDEST TIMESTAMP DUP3 PUSH1 0xF ADD DUP2 SWAP1 SSTORE POP PUSH1 0x1 DUP2 PUSH1 0x80 ADD MLOAD EQ ISZERO PUSH2 0x2E27 JUMPI PUSH2 0x2E17 PUSH1 0x1 DUP4 PUSH1 0xE ADD SLOAD PUSH2 0x4B53 SWAP1 SWAP2 SWAP1 PUSH4 0xFFFFFFFF AND JUMP JUMPDEST DUP3 PUSH1 0xE ADD DUP2 SWAP1 SSTORE POP POP POP POP PUSH2 0x3397 JUMP JUMPDEST PUSH1 0x0 DUP1 SWAP1 POP PUSH1 0x0 DUP4 PUSH1 0x0 ADD SLOAD EQ ISZERO DUP1 ISZERO PUSH2 0x2E4D JUMPI POP PUSH8 0xDE0B6B3A7640000 DUP4 PUSH1 0x3 ADD SLOAD LT ISZERO JUMPDEST DUP1 ISZERO PUSH2 0x2E5F JUMPI POP PUSH1 0x13 SLOAD DUP4 PUSH1 0x3 ADD SLOAD GT ISZERO JUMPDEST ISZERO PUSH2 0x2F01 JUMPI PUSH1 0x5 DUP4 PUSH1 0xB ADD SLOAD LT ISZERO PUSH2 0x2EBE JUMPI DUP3 PUSH1 0x6 ADD SLOAD DUP2 ADD SWAP1 POP PUSH2 0x2E91 DUP2 DUP5 PUSH1 0x7 ADD SLOAD PUSH2 0x4B53 SWAP1 SWAP2 SWAP1 PUSH4 0xFFFFFFFF AND JUMP JUMPDEST DUP4 PUSH1 0x7 ADD DUP2 SWAP1 SSTORE POP PUSH2 0x2EB1 PUSH1 0x1 DUP5 PUSH1 0xB ADD SLOAD PUSH2 0x4B53 SWAP1 SWAP2 SWAP1 PUSH4 0xFFFFFFFF AND JUMP JUMPDEST DUP4 PUSH1 0xB ADD DUP2 SWAP1 SSTORE POP PUSH2 0x2F00 JUMP JUMPDEST PUSH2 0x2ED9 DUP4 PUSH1 0x3 ADD SLOAD DUP5 PUSH1 0x2 ADD SLOAD PUSH2 0x4B53 SWAP1 SWAP2 SWAP1 PUSH4 0xFFFFFFFF AND JUMP JUMPDEST DUP4 PUSH1 0x2 ADD DUP2 SWAP1 SSTORE POP PUSH1 0x0 DUP4 PUSH1 0x3 ADD DUP2 SWAP1 SSTORE POP PUSH1 0x0 DUP4 PUSH1 0x6 ADD DUP2 SWAP1 SSTORE POP PUSH1 0x0 DUP4 PUSH1 0x8 ADD DUP2 SWAP1 SSTORE POP JUMPDEST JUMPDEST PUSH1 0x0 PUSH2 0x2F34 DUP5 PUSH1 0x4 ADD SLOAD PUSH2 0x2F26 DUP7 PUSH1 0x2 ADD SLOAD DUP8 PUSH1 0x3 ADD SLOAD PUSH2 0x4B53 SWAP1 SWAP2 SWAP1 PUSH4 0xFFFFFFFF AND JUMP JUMPDEST PUSH2 0x4B53 SWAP1 SWAP2 SWAP1 PUSH4 0xFFFFFFFF AND JUMP JUMPDEST SWAP1 POP PUSH8 0xDE0B6B3A7640000 DUP2 LT DUP1 PUSH2 0x2F4D JUMPI POP PUSH1 0x15 SLOAD DUP2 GT JUMPDEST ISZERO PUSH2 0x2F7C JUMPI PUSH2 0x2F6A PUSH1 0x1 DUP6 PUSH1 0xE ADD SLOAD PUSH2 0x4B53 SWAP1 SWAP2 SWAP1 PUSH4 0xFFFFFFFF AND JUMP JUMPDEST DUP5 PUSH1 0xE ADD DUP2 SWAP1 SSTORE POP POP POP POP POP POP PUSH2 0x3397 JUMP JUMPDEST PUSH1 0x0 DUP1 SWAP1 POP PUSH1 0x0 DUP5 PUSH1 0x80 ADD MLOAD EQ ISZERO PUSH2 0x3283 JUMPI PUSH2 0x2F96 PUSH2 0x59A4 JUMP JUMPDEST PUSH1 0x12 PUSH1 0x0 PUSH1 0xC SLOAD DUP2 MSTORE PUSH1 0x20 ADD SWAP1 DUP2 MSTORE PUSH1 0x20 ADD PUSH1 0x0 KECCAK256 PUSH1 0x0 DUP9 PUSH20 0xFFFFFFFFFFFFFFFFFFFFFFFFFFFFFFFFFFFFFFFF AND PUSH20 0xFFFFFFFFFFFFFFFFFFFFFFFFFFFFFFFFFFFFFFFF AND DUP2 MSTORE PUSH1 0x20 ADD SWAP1 DUP2 MSTORE PUSH1 0x20 ADD PUSH1 0x0 KECCAK256 PUSH1 0x0 DUP8 PUSH1 0xE ADD SLOAD DUP2 MSTORE PUSH1 0x20 ADD SWAP1 DUP2 MSTORE PUSH1 0x20 ADD PUSH1 0x0 KECCAK256 PUSH1 0x40 MLOAD DUP1 PUSH1 0x60 ADD PUSH1 0x40 MSTORE SWAP1 DUP2 PUSH1 0x0 DUP3 ADD SLOAD DUP2 MSTORE PUSH1 0x20 ADD PUSH1 0x1 DUP3 ADD SLOAD DUP2 MSTORE PUSH1 0x20 ADD PUSH1 0x2 DUP3 ADD SLOAD DUP2 MSTORE POP POP SWAP1 POP PUSH2 0x3040 PUSH1 0x1 DUP8 PUSH1 0xE ADD SLOAD PUSH2 0x4B53 SWAP1 SWAP2 SWAP1 PUSH4 0xFFFFFFFF AND JUMP JUMPDEST DUP7 PUSH1 0xE ADD DUP2 SWAP1 SSTORE POP PUSH1 0x0 PUSH2 0x305F PUSH1 0x3 SLOAD DUP6 PUSH2 0x483D SWAP1 SWAP2 SWAP1 PUSH4 0xFFFFFFFF AND JUMP JUMPDEST SWAP1 POP PUSH1 0xF DUP2 LT PUSH2 0x3077 JUMPI DUP2 PUSH1 0x40 ADD MLOAD DUP4 ADD SWAP3 POP PUSH2 0x327C JUMP JUMPDEST PUSH1 0x1 DUP8 PUSH1 0x9 ADD SLOAD EQ DUP1 ISZERO PUSH2 0x3093 JUMPI POP PUSH8 0xDE0B6B3A7640000 DUP5 LT ISZERO JUMPDEST DUP1 ISZERO PUSH2 0x30A3 JUMPI POP PUSH1 0x0 DUP3 PUSH1 0x0 ADD MLOAD GT JUMPDEST ISZERO PUSH2 0x30EA JUMPI PUSH2 0x30E5 PUSH1 0x2 PUSH2 0x30D7 DUP4 PUSH2 0x30C9 PUSH1 0xF DUP8 PUSH1 0x0 ADD MLOAD PUSH2 0x483D SWAP1 SWAP2 SWAP1 PUSH4 0xFFFFFFFF AND JUMP JUMPDEST PUSH2 0x48CC SWAP1 SWAP2 SWAP1 PUSH4 0xFFFFFFFF AND JUMP JUMPDEST PUSH2 0x483D SWAP1 SWAP2 SWAP1 PUSH4 0xFFFFFFFF AND JUMP JUMPDEST DUP4 ADD SWAP3 POP JUMPDEST PUSH1 0x2 DUP8 PUSH1 0x9 ADD SLOAD EQ DUP1 ISZERO PUSH2 0x3106 JUMPI POP PUSH8 0x53444835EC580000 DUP5 LT ISZERO JUMPDEST DUP1 ISZERO PUSH2 0x3125 JUMPI POP PUSH1 0x0 DUP3 PUSH1 0x0 ADD MLOAD GT DUP1 PUSH2 0x3124 JUMPI POP PUSH1 0x0 DUP3 PUSH1 0x20 ADD MLOAD GT JUMPDEST JUMPDEST ISZERO PUSH2 0x31D3 JUMPI PUSH2 0x317A PUSH1 0xA PUSH2 0x316C PUSH1 0x7 PUSH2 0x315E DUP6 PUSH2 0x3150 PUSH1 0xF DUP10 PUSH1 0x0 ADD MLOAD PUSH2 0x483D SWAP1 SWAP2 SWAP1 PUSH4 0xFFFFFFFF AND JUMP JUMPDEST PUSH2 0x48CC SWAP1 SWAP2 SWAP1 PUSH4 0xFFFFFFFF AND JUMP JUMPDEST PUSH2 0x48CC SWAP1 SWAP2 SWAP1 PUSH4 0xFFFFFFFF AND JUMP JUMPDEST PUSH2 0x483D SWAP1 SWAP2 SWAP1 PUSH4 0xFFFFFFFF AND JUMP JUMPDEST DUP4 ADD SWAP3 POP PUSH2 0x31CE PUSH1 0x7 PUSH2 0x31C0 PUSH1 0x5 PUSH2 0x31B2 DUP6 PUSH2 0x31A4 PUSH1 0xF DUP10 PUSH1 0x20 ADD MLOAD PUSH2 0x483D SWAP1 SWAP2 SWAP1 PUSH4 0xFFFFFFFF AND JUMP JUMPDEST PUSH2 0x48CC SWAP1 SWAP2 SWAP1 PUSH4 0xFFFFFFFF AND JUMP JUMPDEST PUSH2 0x48CC SWAP1 SWAP2 SWAP1 PUSH4 0xFFFFFFFF AND JUMP JUMPDEST PUSH2 0x483D SWAP1 SWAP2 SWAP1 PUSH4 0xFFFFFFFF AND JUMP JUMPDEST DUP4 ADD SWAP3 POP JUMPDEST PUSH1 0x3 DUP8 PUSH1 0x9 ADD SLOAD EQ DUP1 ISZERO PUSH2 0x31EF JUMPI POP PUSH8 0x98A7D9B8314C0000 DUP5 LT ISZERO JUMPDEST DUP1 ISZERO PUSH2 0x31FF JUMPI POP PUSH1 0x0 DUP3 PUSH1 0x40 ADD MLOAD GT JUMPDEST ISZERO PUSH2 0x3233 JUMPI PUSH2 0x322E DUP2 PUSH2 0x3220 PUSH1 0xF DUP6 PUSH1 0x40 ADD MLOAD PUSH2 0x483D SWAP1 SWAP2 SWAP1 PUSH4 0xFFFFFFFF AND JUMP JUMPDEST PUSH2 0x48CC SWAP1 SWAP2 SWAP1 PUSH4 0xFFFFFFFF AND JUMP JUMPDEST DUP4 ADD SWAP3 POP JUMPDEST PUSH1 0x3 DUP8 PUSH1 0x9 ADD SLOAD LT ISZERO PUSH2 0x327B JUMPI PUSH1 0x0 PUSH2 0x324F DUP9 PUSH1 0x9 ADD SLOAD PUSH2 0x42CA JUMP JUMPDEST SWAP1 POP PUSH2 0x3277 PUSH1 0xA PUSH2 0x3269 DUP4 DUP8 PUSH2 0x48CC SWAP1 SWAP2 SWAP1 PUSH4 0xFFFFFFFF AND JUMP JUMPDEST PUSH2 0x483D SWAP1 SWAP2 SWAP1 PUSH4 0xFFFFFFFF AND JUMP JUMPDEST SWAP4 POP POP JUMPDEST JUMPDEST POP POP PUSH2 0x32B2 JUMP JUMPDEST PUSH1 0x2 DUP5 PUSH1 0x80 ADD MLOAD EQ ISZERO PUSH2 0x32B1 JUMPI PUSH2 0x32A8 PUSH1 0x1 DUP7 PUSH1 0xE ADD SLOAD PUSH2 0x4B53 SWAP1 SWAP2 SWAP1 PUSH4 0xFFFFFFFF AND JUMP JUMPDEST DUP6 PUSH1 0xE ADD DUP2 SWAP1 SSTORE POP JUMPDEST JUMPDEST PUSH1 0x14 SLOAD PUSH2 0x32C8 DUP3 DUP6 PUSH2 0x4B53 SWAP1 SWAP2 SWAP1 PUSH4 0xFFFFFFFF AND JUMP JUMPDEST GT PUSH2 0x3390 JUMPI PUSH2 0x32E4 DUP2 DUP7 PUSH1 0x5 ADD SLOAD PUSH2 0x4B53 SWAP1 SWAP2 SWAP1 PUSH4 0xFFFFFFFF AND JUMP JUMPDEST DUP6 PUSH1 0x5 ADD DUP2 SWAP1 SSTORE POP PUSH1 0x0 DUP1 SWAP1 POP PUSH1 0x0 DUP1 SWAP1 POP PUSH2 0x3311 PUSH2 0x330C DUP5 DUP8 PUSH2 0x4B53 SWAP1 SWAP2 SWAP1 PUSH4 0xFFFFFFFF AND JUMP JUMPDEST PUSH2 0x5226 JUMP JUMPDEST DUP1 SWAP3 POP DUP2 SWAP4 POP POP POP PUSH1 0x0 DUP2 GT ISZERO PUSH2 0x338D JUMPI PUSH1 0x0 PUSH2 0x3338 PUSH1 0xA DUP4 PUSH2 0x483D SWAP1 SWAP2 SWAP1 PUSH4 0xFFFFFFFF AND JUMP JUMPDEST SWAP1 POP PUSH2 0x3366 PUSH1 0x5 PUSH1 0x0 SWAP1 SLOAD SWAP1 PUSH2 0x100 EXP SWAP1 DIV PUSH20 0xFFFFFFFFFFFFFFFFFFFFFFFFFFFFFFFFFFFFFFFF AND DUP3 PUSH2 0x5249 JUMP JUMPDEST PUSH2 0x3379 DUP2 DUP4 PUSH2 0x519D SWAP1 SWAP2 SWAP1 PUSH4 0xFFFFFFFF AND JUMP JUMPDEST SWAP2 POP PUSH1 0x0 DUP10 SWAP1 POP PUSH2 0x338A DUP2 DUP5 PUSH2 0x5249 JUMP JUMPDEST POP POP JUMPDEST POP POP JUMPDEST POP POP POP POP POP POP JUMPDEST DUP1 DUP1 PUSH1 0x1 ADD SWAP2 POP POP PUSH2 0x2B2B JUMP JUMPDEST POP POP POP JUMP JUMPDEST PUSH1 0x0 DUP1 PUSH1 0x0 DUP1 PUSH1 0x0 DUP1 PUSH1 0x0 DUP1 PUSH1 0x0 DUP1 PUSH1 0x0 DUP1 PUSH1 0xC SLOAD PUSH1 0xB SLOAD PUSH1 0x6 SLOAD PUSH1 0x8 PUSH1 0x0 PUSH1 0xC SLOAD DUP2 MSTORE PUSH1 0x20 ADD SWAP1 DUP2 MSTORE PUSH1 0x20 ADD PUSH1 0x0 KECCAK256 SLOAD PUSH1 0x9 PUSH1 0x0 PUSH1 0xC SLOAD DUP2 MSTORE PUSH1 0x20 ADD SWAP1 DUP2 MSTORE PUSH1 0x20 ADD PUSH1 0x0 KECCAK256 SLOAD PUSH1 0x13 SLOAD PUSH1 0x14 SLOAD PUSH1 0x15 SLOAD PUSH1 0x16 SLOAD PUSH1 0x7 SLOAD PUSH1 0xD PUSH1 0x0 PUSH1 0xC SLOAD DUP2 MSTORE PUSH1 0x20 ADD SWAP1 DUP2 MSTORE PUSH1 0x20 ADD PUSH1 0x0 KECCAK256 DUP1 SLOAD SWAP1 POP PUSH1 0x17 SLOAD SWAP12 POP SWAP12 POP SWAP12 POP SWAP12 POP SWAP12 POP SWAP12 POP SWAP12 POP SWAP12 POP SWAP12 POP SWAP12 POP SWAP12 POP SWAP12 POP SWAP1 SWAP2 SWAP3 SWAP4 SWAP5 SWAP6 SWAP7 SWAP8 SWAP9 SWAP10 SWAP11 SWAP12 JUMP JUMPDEST PUSH1 0x0 DUP1 SLOAD PUSH1 0x1 MUL DUP3 LT ISZERO DUP1 ISZERO PUSH2 0x345C JUMPI POP PUSH1 0x0 SLOAD PUSH1 0x5 MUL DUP3 GT ISZERO JUMPDEST ISZERO PUSH2 0x346A JUMPI PUSH1 0x1 SWAP1 POP PUSH2 0x34BF JUMP JUMPDEST PUSH1 0x0 SLOAD PUSH1 0x6 MUL DUP3 LT ISZERO DUP1 ISZERO PUSH2 0x3484 JUMPI POP PUSH1 0x0 SLOAD PUSH1 0xA MUL DUP3 GT ISZERO JUMPDEST ISZERO PUSH2 0x3492 JUMPI PUSH1 0x2 SWAP1 POP PUSH2 0x34BF JUMP JUMPDEST PUSH1 0x0 SLOAD PUSH1 0xB MUL DUP3 LT ISZERO DUP1 ISZERO PUSH2 0x34AC JUMPI POP PUSH1 0x0 SLOAD PUSH1 0xF MUL DUP3 GT ISZERO JUMPDEST ISZERO PUSH2 0x34BA JUMPI PUSH1 0x3 SWAP1 POP PUSH2 0x34BF JUMP JUMPDEST PUSH1 0x0 SWAP1 POP JUMPDEST SWAP2 SWAP1 POP JUMP JUMPDEST PUSH1 0x0 DUP2 PUSH1 0x40 MLOAD PUSH1 0x20 ADD DUP1 DUP3 DUP1 MLOAD SWAP1 PUSH1 0x20 ADD SWAP1 DUP1 DUP4 DUP4 JUMPDEST PUSH1 0x20 DUP4 LT PUSH2 0x34FD JUMPI DUP1 MLOAD DUP3 MSTORE PUSH1 0x20 DUP3 ADD SWAP2 POP PUSH1 0x20 DUP2 ADD SWAP1 POP PUSH1 0x20 DUP4 SUB SWAP3 POP PUSH2 0x34DA JUMP JUMPDEST PUSH1 0x1 DUP4 PUSH1 0x20 SUB PUSH2 0x100 EXP SUB DUP1 NOT DUP3 MLOAD AND DUP2 DUP5 MLOAD AND DUP1 DUP3 OR DUP6 MSTORE POP POP POP POP POP POP SWAP1 POP ADD SWAP2 POP POP PUSH1 0x40 MLOAD PUSH1 0x20 DUP2 DUP4 SUB SUB DUP2 MSTORE SWAP1 PUSH1 0x40 MSTORE DUP1 MLOAD SWAP1 PUSH1 0x20 ADD KECCAK256 DUP4 PUSH1 0x40 MLOAD PUSH1 0x20 ADD DUP1 DUP3 DUP1 MLOAD SWAP1 PUSH1 0x20 ADD SWAP1 DUP1 DUP4 DUP4 JUMPDEST PUSH1 0x20 DUP4 LT PUSH2 0x356F JUMPI DUP1 MLOAD DUP3 MSTORE PUSH1 0x20 DUP3 ADD SWAP2 POP PUSH1 0x20 DUP2 ADD SWAP1 POP PUSH1 0x20 DUP4 SUB SWAP3 POP PUSH2 0x354C JUMP JUMPDEST PUSH1 0x1 DUP4 PUSH1 0x20 SUB PUSH2 0x100 EXP SUB DUP1 NOT DUP3 MLOAD AND DUP2 DUP5 MLOAD AND DUP1 DUP3 OR DUP6 MSTORE POP POP POP POP POP POP SWAP1 POP ADD SWAP2 POP POP PUSH1 0x40 MLOAD PUSH1 0x20 DUP2 DUP4 SUB SUB DUP2 MSTORE SWAP1 PUSH1 0x40 MSTORE DUP1 MLOAD SWAP1 PUSH1 0x20 ADD KECCAK256 EQ ISZERO PUSH2 0x35B9 JUMPI PUSH1 0x1 SWAP1 POP PUSH2 0x35BE JUMP JUMPDEST PUSH1 0x0 SWAP1 POP JUMPDEST SWAP3 SWAP2 POP POP JUMP JUMPDEST PUSH1 0x0 PUSH2 0x35CF CALLER PUSH2 0x3BC5 JUMP JUMPDEST PUSH2 0x3641 JUMPI PUSH1 0x40 MLOAD PUSH32 0x8C379A000000000000000000000000000000000000000000000000000000000 DUP2 MSTORE PUSH1 0x4 ADD DUP1 DUP1 PUSH1 0x20 ADD DUP3 DUP2 SUB DUP3 MSTORE PUSH1 0x11 DUP2 MSTORE PUSH1 0x20 ADD DUP1 PUSH32 0x5065726D697373696F6E2064656E696564000000000000000000000000000000 DUP2 MSTORE POP PUSH1 0x20 ADD SWAP2 POP POP PUSH1 0x40 MLOAD DUP1 SWAP2 SUB SWAP1 REVERT JUMPDEST PUSH1 0x11 PUSH1 0x0 DUP4 DUP2 MSTORE PUSH1 0x20 ADD SWAP1 DUP2 MSTORE PUSH1 0x20 ADD PUSH1 0x0 KECCAK256 PUSH1 0x0 SWAP1 SLOAD SWAP1 PUSH2 0x100 EXP SWAP1 DIV PUSH20 0xFFFFFFFFFFFFFFFFFFFFFFFFFFFFFFFFFFFFFFFF AND SWAP1 POP SWAP2 SWAP1 POP JUMP JUMPDEST PUSH1 0x0 PUSH1 0x1 PUSH1 0x0 SWAP1 SLOAD SWAP1 PUSH2 0x100 EXP SWAP1 DIV PUSH20 0xFFFFFFFFFFFFFFFFFFFFFFFFFFFFFFFFFFFFFFFF AND PUSH20 0xFFFFFFFFFFFFFFFFFFFFFFFFFFFFFFFFFFFFFFFF AND PUSH2 0x36BF PUSH2 0x5195 JUMP JUMPDEST PUSH20 0xFFFFFFFFFFFFFFFFFFFFFFFFFFFFFFFFFFFFFFFF AND EQ SWAP1 POP SWAP1 JUMP JUMPDEST PUSH2 0x36EB PUSH2 0x36E6 PUSH2 0x5195 JUMP JUMPDEST PUSH2 0x3BC5 JUMP JUMPDEST DUP1 PUSH2 0x36FA JUMPI POP PUSH2 0x36F9 PUSH2 0x367C JUMP JUMPDEST JUMPDEST PUSH2 0x374F JUMPI PUSH1 0x40 MLOAD PUSH32 0x8C379A000000000000000000000000000000000000000000000000000000000 DUP2 MSTORE PUSH1 0x4 ADD DUP1 DUP1 PUSH1 0x20 ADD DUP3 DUP2 SUB DUP3 MSTORE PUSH1 0x40 DUP2 MSTORE PUSH1 0x20 ADD DUP1 PUSH2 0x5B28 PUSH1 0x40 SWAP2 CODECOPY PUSH1 0x40 ADD SWAP2 POP POP PUSH1 0x40 MLOAD DUP1 SWAP2 SUB SWAP1 REVERT JUMPDEST PUSH1 0x0 DUP2 EQ DUP1 PUSH2 0x375E JUMPI POP PUSH1 0x1 DUP2 EQ JUMPDEST DUP1 PUSH2 0x3769 JUMPI POP PUSH1 0x2 DUP2 EQ JUMPDEST PUSH2 0x37DB JUMPI PUSH1 0x40 MLOAD PUSH32 0x8C379A000000000000000000000000000000000000000000000000000000000 DUP2 MSTORE PUSH1 0x4 ADD DUP1 DUP1 PUSH1 0x20 ADD DUP3 DUP2 SUB DUP3 MSTORE PUSH1 0x14 DUP2 MSTORE PUSH1 0x20 ADD DUP1 PUSH32 0x62616420706172616D6574657220737461747573000000000000000000000000 DUP2 MSTORE POP PUSH1 0x20 ADD SWAP2 POP POP PUSH1 0x40 MLOAD DUP1 SWAP2 SUB SWAP1 REVERT JUMPDEST PUSH1 0x0 PUSH1 0xF PUSH1 0x0 DUP5 PUSH20 0xFFFFFFFFFFFFFFFFFFFFFFFFFFFFFFFFFFFFFFFF AND PUSH20 0xFFFFFFFFFFFFFFFFFFFFFFFFFFFFFFFFFFFFFFFF AND DUP2 MSTORE PUSH1 0x20 ADD SWAP1 DUP2 MSTORE PUSH1 0x20 ADD PUSH1 0x0 KECCAK256 SWAP1 POP DUP2 DUP2 PUSH1 0x4 ADD DUP2 SWAP1 SSTORE POP POP POP POP JUMP JUMPDEST PUSH2 0x383C PUSH2 0x3837 PUSH2 0x5195 JUMP JUMPDEST PUSH2 0x3BC5 JUMP JUMPDEST DUP1 PUSH2 0x384B JUMPI POP PUSH2 0x384A PUSH2 0x367C JUMP JUMPDEST JUMPDEST PUSH2 0x38A0 JUMPI PUSH1 0x40 MLOAD PUSH32 0x8C379A000000000000000000000000000000000000000000000000000000000 DUP2 MSTORE PUSH1 0x4 ADD DUP1 DUP1 PUSH1 0x20 ADD DUP3 DUP2 SUB DUP3 MSTORE PUSH1 0x40 DUP2 MSTORE PUSH1 0x20 ADD DUP1 PUSH2 0x5B28 PUSH1 0x40 SWAP2 CODECOPY PUSH1 0x40 ADD SWAP2 POP POP PUSH1 0x40 MLOAD DUP1 SWAP2 SUB SWAP1 REVERT JUMPDEST DUP1 PUSH1 0x7 DUP2 SWAP1 SSTORE POP POP JUMP JUMPDEST PUSH1 0x0 PUSH2 0x38B5 CALLER PUSH2 0x3BC5 JUMP JUMPDEST PUSH2 0x3927 JUMPI PUSH1 0x40 MLOAD PUSH32 0x8C379A000000000000000000000000000000000000000000000000000000000 DUP2 MSTORE PUSH1 0x4 ADD DUP1 DUP1 PUSH1 0x20 ADD DUP3 DUP2 SUB DUP3 MSTORE PUSH1 0x11 DUP2 MSTORE PUSH1 0x20 ADD DUP1 PUSH32 0x5065726D697373696F6E2064656E696564000000000000000000000000000000 DUP2 MSTORE POP PUSH1 0x20 ADD SWAP2 POP POP PUSH1 0x40 MLOAD DUP1 SWAP2 SUB SWAP1 REVERT JUMPDEST PUSH1 0x10 DUP3 PUSH1 0x40 MLOAD DUP1 DUP3 DUP1 MLOAD SWAP1 PUSH1 0x20 ADD SWAP1 DUP1 DUP4 DUP4 JUMPDEST PUSH1 0x20 DUP4 LT PUSH2 0x395D JUMPI DUP1 MLOAD DUP3 MSTORE PUSH1 0x20 DUP3 ADD SWAP2 POP PUSH1 0x20 DUP2 ADD SWAP1 POP PUSH1 0x20 DUP4 SUB SWAP3 POP PUSH2 0x393A JUMP JUMPDEST PUSH1 0x1 DUP4 PUSH1 0x20 SUB PUSH2 0x100 EXP SUB DUP1 NOT DUP3 MLOAD AND DUP2 DUP5 MLOAD AND DUP1 DUP3 OR DUP6 MSTORE POP POP POP POP POP POP SWAP1 POP ADD SWAP2 POP POP SWAP1 DUP2 MSTORE PUSH1 0x20 ADD PUSH1 0x40 MLOAD DUP1 SWAP2 SUB SWAP1 KECCAK256 PUSH1 0x0 SWAP1 SLOAD SWAP1 PUSH2 0x100 EXP SWAP1 DIV PUSH20 0xFFFFFFFFFFFFFFFFFFFFFFFFFFFFFFFFFFFFFFFF AND SWAP1 POP SWAP2 SWAP1 POP JUMP JUMPDEST PUSH2 0x39C8 PUSH2 0x39C3 PUSH2 0x5195 JUMP JUMPDEST PUSH2 0x3BC5 JUMP JUMPDEST DUP1 PUSH2 0x39D7 JUMPI POP PUSH2 0x39D6 PUSH2 0x367C JUMP JUMPDEST JUMPDEST PUSH2 0x3A2C JUMPI PUSH1 0x40 MLOAD PUSH32 0x8C379A000000000000000000000000000000000000000000000000000000000 DUP2 MSTORE PUSH1 0x4 ADD DUP1 DUP1 PUSH1 0x20 ADD DUP3 DUP2 SUB DUP3 MSTORE PUSH1 0x40 DUP2 MSTORE PUSH1 0x20 ADD DUP1 PUSH2 0x5B28 PUSH1 0x40 SWAP2 CODECOPY PUSH1 0x40 ADD SWAP2 POP POP PUSH1 0x40 MLOAD DUP1 SWAP2 SUB SWAP1 REVERT JUMPDEST PUSH1 0x0 DUP4 SWAP1 POP JUMPDEST DUP3 DUP2 GT PUSH2 0x3BBF JUMPI PUSH1 0x0 DUP1 SWAP1 POP PUSH1 0x0 DUP4 EQ ISZERO PUSH2 0x3A79 JUMPI PUSH1 0xD PUSH1 0x0 PUSH1 0xC SLOAD DUP2 MSTORE PUSH1 0x20 ADD SWAP1 DUP2 MSTORE PUSH1 0x20 ADD PUSH1 0x0 KECCAK256 DUP3 DUP2 SLOAD DUP2 LT PUSH2 0x3A67 JUMPI INVALID JUMPDEST SWAP1 PUSH1 0x0 MSTORE PUSH1 0x20 PUSH1 0x0 KECCAK256 ADD SLOAD SWAP1 POP PUSH2 0x3A7D JUMP JUMPDEST DUP2 SWAP1 POP JUMPDEST PUSH1 0x0 PUSH1 0x11 PUSH1 0x0 DUP4 DUP2 MSTORE PUSH1 0x20 ADD SWAP1 DUP2 MSTORE PUSH1 0x20 ADD PUSH1 0x0 KECCAK256 PUSH1 0x0 SWAP1 SLOAD SWAP1 PUSH2 0x100 EXP SWAP1 DIV PUSH20 0xFFFFFFFFFFFFFFFFFFFFFFFFFFFFFFFFFFFFFFFF AND SWAP1 POP PUSH1 0x0 PUSH1 0xE PUSH1 0x0 PUSH1 0xC SLOAD DUP2 MSTORE PUSH1 0x20 ADD SWAP1 DUP2 MSTORE PUSH1 0x20 ADD PUSH1 0x0 KECCAK256 PUSH1 0x0 DUP4 PUSH20 0xFFFFFFFFFFFFFFFFFFFFFFFFFFFFFFFFFFFFFFFF AND PUSH20 0xFFFFFFFFFFFFFFFFFFFFFFFFFFFFFFFFFFFFFFFF AND DUP2 MSTORE PUSH1 0x20 ADD SWAP1 DUP2 MSTORE PUSH1 0x20 ADD PUSH1 0x0 KECCAK256 SWAP1 POP PUSH1 0x0 DUP2 PUSH1 0x3 ADD SLOAD EQ DUP1 ISZERO PUSH2 0x3B2B JUMPI POP PUSH8 0xDE0B6B3A7640000 DUP2 PUSH1 0x4 ADD SLOAD LT ISZERO JUMPDEST DUP1 ISZERO PUSH2 0x3B43 JUMPI POP PUSH8 0xD02AB486CEDC0000 DUP2 PUSH1 0x4 ADD SLOAD GT ISZERO JUMPDEST ISZERO PUSH2 0x3BAF JUMPI DUP1 PUSH1 0x4 ADD SLOAD DUP2 PUSH1 0x3 ADD DUP2 SWAP1 SSTORE POP PUSH2 0x3B62 DUP2 PUSH1 0x3 ADD SLOAD PUSH2 0x3441 JUMP JUMPDEST DUP2 PUSH1 0x8 ADD DUP2 SWAP1 SSTORE POP PUSH1 0x0 DUP2 PUSH1 0x4 ADD DUP2 SWAP1 SSTORE POP PUSH2 0x3B81 DUP2 PUSH1 0x3 ADD SLOAD PUSH2 0x4BDB JUMP JUMPDEST PUSH2 0x3BAE DUP2 PUSH1 0x1 ADD PUSH1 0x0 SWAP1 SLOAD SWAP1 PUSH2 0x100 EXP SWAP1 DIV PUSH20 0xFFFFFFFFFFFFFFFFFFFFFFFFFFFFFFFFFFFFFFFF AND PUSH2 0x4C5A JUMP JUMPDEST JUMPDEST POP POP POP DUP1 DUP1 PUSH1 0x1 ADD SWAP2 POP POP PUSH2 0x3A32 JUMP JUMPDEST POP POP POP POP JUMP JUMPDEST PUSH1 0x0 PUSH2 0x3BDB DUP3 PUSH1 0x2 PUSH2 0x529E SWAP1 SWAP2 SWAP1 PUSH4 0xFFFFFFFF AND JUMP JUMPDEST DUP1 PUSH2 0x3BEA JUMPI POP PUSH2 0x3BE9 PUSH2 0x367C JUMP JUMPDEST JUMPDEST SWAP1 POP SWAP2 SWAP1 POP JUMP JUMPDEST PUSH2 0x3BF9 PUSH2 0x367C JUMP JUMPDEST PUSH2 0x3C6B JUMPI PUSH1 0x40 MLOAD PUSH32 0x8C379A000000000000000000000000000000000000000000000000000000000 DUP2 MSTORE PUSH1 0x4 ADD DUP1 DUP1 PUSH1 0x20 ADD DUP3 DUP2 SUB DUP3 MSTORE PUSH1 0x20 DUP2 MSTORE PUSH1 0x20 ADD DUP1 PUSH32 0x4F776E61626C653A2063616C6C6572206973206E6F7420746865206F776E6572 DUP2 MSTORE POP PUSH1 0x20 ADD SWAP2 POP POP PUSH1 0x40 MLOAD DUP1 SWAP2 SUB SWAP1 REVERT JUMPDEST PUSH8 0xD02AB486CEDC0000 DUP4 LT ISZERO DUP1 ISZERO PUSH2 0x3C8C JUMPI POP PUSH9 0x56BC75E2D63100000 DUP3 LT ISZERO JUMPDEST DUP1 ISZERO PUSH2 0x3CA0 JUMPI POP PUSH8 0xD02AB486CEDC0000 DUP2 LT ISZERO JUMPDEST PUSH2 0x3D12 JUMPI PUSH1 0x40 MLOAD PUSH32 0x8C379A000000000000000000000000000000000000000000000000000000000 DUP2 MSTORE PUSH1 0x4 ADD DUP1 DUP1 PUSH1 0x20 ADD DUP3 DUP2 SUB DUP3 MSTORE PUSH1 0xE DUP2 MSTORE PUSH1 0x20 ADD DUP1 PUSH32 0x696E76616C696420616D6F756E74000000000000000000000000000000000000 DUP2 MSTORE POP PUSH1 0x20 ADD SWAP2 POP POP PUSH1 0x40 MLOAD DUP1 SWAP2 SUB SWAP1 REVERT JUMPDEST DUP3 PUSH1 0x13 DUP2 SWAP1 SSTORE POP DUP2 PUSH1 0x14 DUP2 SWAP1 SSTORE POP DUP1 PUSH1 0x15 DUP2 SWAP1 SSTORE POP POP POP POP JUMP JUMPDEST PUSH2 0x3D3C PUSH2 0x3D37 PUSH2 0x5195 JUMP JUMPDEST PUSH2 0x3BC5 JUMP JUMPDEST DUP1 PUSH2 0x3D4B JUMPI POP PUSH2 0x3D4A PUSH2 0x367C JUMP JUMPDEST JUMPDEST PUSH2 0x3DA0 JUMPI PUSH1 0x40 MLOAD PUSH32 0x8C379A000000000000000000000000000000000000000000000000000000000 DUP2 MSTORE PUSH1 0x4 ADD DUP1 DUP1 PUSH1 0x20 ADD DUP3 DUP2 SUB DUP3 MSTORE PUSH1 0x40 DUP2 MSTORE PUSH1 0x20 ADD DUP1 PUSH2 0x5B28 PUSH1 0x40 SWAP2 CODECOPY PUSH1 0x40 ADD SWAP2 POP POP PUSH1 0x40 MLOAD DUP1 SWAP2 SUB SWAP1 REVERT JUMPDEST PUSH1 0x1 PUSH1 0x16 SLOAD EQ PUSH2 0x3E18 JUMPI PUSH1 0x40 MLOAD PUSH32 0x8C379A000000000000000000000000000000000000000000000000000000000 DUP2 MSTORE PUSH1 0x4 ADD DUP1 DUP1 PUSH1 0x20 ADD DUP3 DUP2 SUB DUP3 MSTORE PUSH1 0xE DUP2 MSTORE PUSH1 0x20 ADD DUP1 PUSH32 0x696D706F72742073746F70706564000000000000000000000000000000000000 DUP2 MSTORE POP PUSH1 0x20 ADD SWAP2 POP POP PUSH1 0x40 MLOAD DUP1 SWAP2 SUB SWAP1 REVERT JUMPDEST PUSH1 0x0 PUSH1 0xF PUSH1 0x0 DUP8 PUSH20 0xFFFFFFFFFFFFFFFFFFFFFFFFFFFFFFFFFFFFFFFF AND PUSH20 0xFFFFFFFFFFFFFFFFFFFFFFFFFFFFFFFFFFFFFFFF AND DUP2 MSTORE PUSH1 0x20 ADD SWAP1 DUP2 MSTORE PUSH1 0x20 ADD PUSH1 0x0 KECCAK256 SWAP1 POP PUSH1 0x0 DUP2 PUSH1 0x0 ADD SLOAD EQ PUSH2 0x3ED5 JUMPI PUSH1 0x40 MLOAD PUSH32 0x8C379A000000000000000000000000000000000000000000000000000000000 DUP2 MSTORE PUSH1 0x4 ADD DUP1 DUP1 PUSH1 0x20 ADD DUP3 DUP2 SUB DUP3 MSTORE PUSH1 0x13 DUP2 MSTORE PUSH1 0x20 ADD DUP1 PUSH32 0x7573657220616C72656164792065786973747300000000000000000000000000 DUP2 MSTORE POP PUSH1 0x20 ADD SWAP2 POP POP PUSH1 0x40 MLOAD DUP1 SWAP2 SUB SWAP1 REVERT JUMPDEST PUSH2 0x3F32 DUP6 DUP6 DUP1 DUP1 PUSH1 0x1F ADD PUSH1 0x20 DUP1 SWAP2 DIV MUL PUSH1 0x20 ADD PUSH1 0x40 MLOAD SWAP1 DUP2 ADD PUSH1 0x40 MSTORE DUP1 SWAP4 SWAP3 SWAP2 SWAP1 DUP2 DUP2 MSTORE PUSH1 0x20 ADD DUP4 DUP4 DUP1 DUP3 DUP5 CALLDATACOPY PUSH1 0x0 DUP2 DUP5 ADD MSTORE PUSH1 0x1F NOT PUSH1 0x1F DUP3 ADD AND SWAP1 POP DUP1 DUP4 ADD SWAP3 POP POP POP POP POP POP POP PUSH1 0x40 MLOAD DUP1 PUSH1 0x20 ADD PUSH1 0x40 MSTORE DUP1 PUSH1 0x0 DUP2 MSTORE POP PUSH2 0x34C4 JUMP JUMPDEST ISZERO PUSH2 0x3FA5 JUMPI PUSH1 0x40 MLOAD PUSH32 0x8C379A000000000000000000000000000000000000000000000000000000000 DUP2 MSTORE PUSH1 0x4 ADD DUP1 DUP1 PUSH1 0x20 ADD DUP3 DUP2 SUB DUP3 MSTORE PUSH1 0x11 DUP2 MSTORE PUSH1 0x20 ADD DUP1 PUSH32 0x656D70747920696E7669746520636F6465000000000000000000000000000000 DUP2 MSTORE POP PUSH1 0x20 ADD SWAP2 POP POP PUSH1 0x40 MLOAD DUP1 SWAP2 SUB SWAP1 REVERT JUMPDEST PUSH1 0x0 PUSH1 0xB SLOAD EQ PUSH2 0x4080 JUMPI PUSH2 0x400C DUP4 DUP4 DUP1 DUP1 PUSH1 0x1F ADD PUSH1 0x20 DUP1 SWAP2 DIV MUL PUSH1 0x20 ADD PUSH1 0x40 MLOAD SWAP1 DUP2 ADD PUSH1 0x40 MSTORE DUP1 SWAP4 SWAP3 SWAP2 SWAP1 DUP2 DUP2 MSTORE PUSH1 0x20 ADD DUP4 DUP4 DUP1 DUP3 DUP5 CALLDATACOPY PUSH1 0x0 DUP2 DUP5 ADD MSTORE PUSH1 0x1F NOT PUSH1 0x1F DUP3 ADD AND SWAP1 POP DUP1 DUP4 ADD SWAP3 POP POP POP POP POP POP POP PUSH1 0x40 MLOAD DUP1 PUSH1 0x20 ADD PUSH1 0x40 MSTORE DUP1 PUSH1 0x0 DUP2 MSTORE POP PUSH2 0x34C4 JUMP JUMPDEST ISZERO PUSH2 0x407F JUMPI PUSH1 0x40 MLOAD PUSH32 0x8C379A000000000000000000000000000000000000000000000000000000000 DUP2 MSTORE PUSH1 0x4 ADD DUP1 DUP1 PUSH1 0x20 ADD DUP3 DUP2 SUB DUP3 MSTORE PUSH1 0xC DUP2 MSTORE PUSH1 0x20 ADD DUP1 PUSH32 0x656D707479206265436F64650000000000000000000000000000000000000000 DUP2 MSTORE POP PUSH1 0x20 ADD SWAP2 POP POP PUSH1 0x40 MLOAD DUP1 SWAP2 SUB SWAP1 REVERT JUMPDEST JUMPDEST PUSH1 0x0 PUSH1 0x10 DUP5 DUP5 PUSH1 0x40 MLOAD DUP1 DUP4 DUP4 DUP1 DUP3 DUP5 CALLDATACOPY DUP1 DUP4 ADD SWAP3 POP POP POP SWAP3 POP POP POP SWAP1 DUP2 MSTORE PUSH1 0x20 ADD PUSH1 0x40 MLOAD DUP1 SWAP2 SUB SWAP1 KECCAK256 PUSH1 0x0 SWAP1 SLOAD SWAP1 PUSH2 0x100 EXP SWAP1 DIV PUSH20 0xFFFFFFFFFFFFFFFFFFFFFFFFFFFFFFFFFFFFFFFF AND SWAP1 POP DUP7 PUSH20 0xFFFFFFFFFFFFFFFFFFFFFFFFFFFFFFFFFFFFFFFF AND DUP2 PUSH20 0xFFFFFFFFFFFFFFFFFFFFFFFFFFFFFFFFFFFFFFFF AND EQ ISZERO PUSH2 0x416E JUMPI PUSH1 0x40 MLOAD PUSH32 0x8C379A000000000000000000000000000000000000000000000000000000000 DUP2 MSTORE PUSH1 0x4 ADD DUP1 DUP1 PUSH1 0x20 ADD DUP3 DUP2 SUB DUP3 MSTORE PUSH1 0x18 DUP2 MSTORE PUSH1 0x20 ADD DUP1 PUSH32 0x6265436F6465416464722063616E27742062652073656C660000000000000000 DUP2 MSTORE POP PUSH1 0x20 ADD SWAP2 POP POP PUSH1 0x40 MLOAD DUP1 SWAP2 SUB SWAP1 REVERT JUMPDEST PUSH2 0x41BB DUP7 DUP7 DUP1 DUP1 PUSH1 0x1F ADD PUSH1 0x20 DUP1 SWAP2 DIV MUL PUSH1 0x20 ADD PUSH1 0x40 MLOAD SWAP1 DUP2 ADD PUSH1 0x40 MSTORE DUP1 SWAP4 SWAP3 SWAP2 SWAP1 DUP2 DUP2 MSTORE PUSH1 0x20 ADD DUP4 DUP4 DUP1 DUP3 DUP5 CALLDATACOPY PUSH1 0x0 DUP2 DUP5 ADD MSTORE PUSH1 0x1F NOT PUSH1 0x1F DUP3 ADD AND SWAP1 POP DUP1 DUP4 ADD SWAP3 POP POP POP POP POP POP POP PUSH2 0x27A2 JUMP JUMPDEST ISZERO PUSH2 0x422E JUMPI PUSH1 0x40 MLOAD PUSH32 0x8C379A000000000000000000000000000000000000000000000000000000000 DUP2 MSTORE PUSH1 0x4 ADD DUP1 DUP1 PUSH1 0x20 ADD DUP3 DUP2 SUB DUP3 MSTORE PUSH1 0x13 DUP2 MSTORE PUSH1 0x20 ADD DUP1 PUSH32 0x696E7669746520636F6465206973207573656400000000000000000000000000 DUP2 MSTORE POP PUSH1 0x20 ADD SWAP2 POP POP PUSH1 0x40 MLOAD DUP1 SWAP2 SUB SWAP1 REVERT JUMPDEST PUSH2 0x42C1 DUP8 DUP8 DUP8 DUP1 DUP1 PUSH1 0x1F ADD PUSH1 0x20 DUP1 SWAP2 DIV MUL PUSH1 0x20 ADD PUSH1 0x40 MLOAD SWAP1 DUP2 ADD PUSH1 0x40 MSTORE DUP1 SWAP4 SWAP3 SWAP2 SWAP1 DUP2 DUP2 MSTORE PUSH1 0x20 ADD DUP4 DUP4 DUP1 DUP3 DUP5 CALLDATACOPY PUSH1 0x0 DUP2 DUP5 ADD MSTORE PUSH1 0x1F NOT PUSH1 0x1F DUP3 ADD AND SWAP1 POP DUP1 DUP4 ADD SWAP3 POP POP POP POP POP POP POP DUP7 DUP7 DUP1 DUP1 PUSH1 0x1F ADD PUSH1 0x20 DUP1 SWAP2 DIV MUL PUSH1 0x20 ADD PUSH1 0x40 MLOAD SWAP1 DUP2 ADD PUSH1 0x40 MSTORE DUP1 SWAP4 SWAP3 SWAP2 SWAP1 DUP2 DUP2 MSTORE PUSH1 0x20 ADD DUP4 DUP4 DUP1 DUP3 DUP5 CALLDATACOPY PUSH1 0x0 DUP2 DUP5 ADD MSTORE PUSH1 0x1F NOT PUSH1 0x1F DUP3 ADD AND SWAP1 POP DUP1 DUP4 ADD SWAP3 POP POP POP POP POP POP POP PUSH2 0x496F JUMP JUMPDEST POP POP POP POP POP POP POP JUMP JUMPDEST PUSH1 0x0 PUSH1 0x1 DUP3 EQ ISZERO PUSH2 0x42DE JUMPI PUSH1 0x3 SWAP1 POP PUSH2 0x4307 JUMP JUMPDEST PUSH1 0x2 DUP3 EQ ISZERO PUSH2 0x42F0 JUMPI PUSH1 0x6 SWAP1 POP PUSH2 0x4307 JUMP JUMPDEST PUSH1 0x3 DUP3 EQ ISZERO PUSH2 0x4302 JUMPI PUSH1 0xA SWAP1 POP PUSH2 0x4307 JUMP JUMPDEST PUSH1 0x0 SWAP1 POP JUMPDEST SWAP2 SWAP1 POP JUMP JUMPDEST PUSH1 0x0 CALLER SWAP1 POP PUSH1 0x0 DUP2 EXTCODESIZE SWAP1 POP PUSH1 0x0 DUP2 EQ PUSH2 0x438D JUMPI PUSH1 0x40 MLOAD PUSH32 0x8C379A000000000000000000000000000000000000000000000000000000000 DUP2 MSTORE PUSH1 0x4 ADD DUP1 DUP1 PUSH1 0x20 ADD DUP3 DUP2 SUB DUP3 MSTORE PUSH1 0x11 DUP2 MSTORE PUSH1 0x20 ADD DUP1 PUSH32 0x736F7272792068756D616E73206F6E6C79000000000000000000000000000000 DUP2 MSTORE POP PUSH1 0x20 ADD SWAP2 POP POP PUSH1 0x40 MLOAD DUP1 SWAP2 SUB SWAP1 REVERT JUMPDEST CALLER PUSH20 0xFFFFFFFFFFFFFFFFFFFFFFFFFFFFFFFFFFFFFFFF AND ORIGIN PUSH20 0xFFFFFFFFFFFFFFFFFFFFFFFFFFFFFFFFFFFFFFFF AND EQ PUSH2 0x442E JUMPI PUSH1 0x40 MLOAD PUSH32 0x8C379A000000000000000000000000000000000000000000000000000000000 DUP2 MSTORE PUSH1 0x4 ADD DUP1 DUP1 PUSH1 0x20 ADD DUP3 DUP2 SUB DUP3 MSTORE PUSH1 0x12 DUP2 MSTORE PUSH1 0x20 ADD DUP1 PUSH32 0x736F7272792C2068756D616E73206F6E6C790000000000000000000000000000 DUP2 MSTORE POP PUSH1 0x20 ADD SWAP2 POP POP PUSH1 0x40 MLOAD DUP1 SWAP2 SUB SWAP1 REVERT JUMPDEST PUSH2 0x4436 PUSH2 0x45F6 JUMP JUMPDEST PUSH2 0x44A8 JUMPI PUSH1 0x40 MLOAD PUSH32 0x8C379A000000000000000000000000000000000000000000000000000000000 DUP2 MSTORE PUSH1 0x4 ADD DUP1 DUP1 PUSH1 0x20 ADD DUP3 DUP2 SUB DUP3 MSTORE PUSH1 0x10 DUP2 MSTORE PUSH1 0x20 ADD DUP1 PUSH32 0x6E6F20646F6E6E6F74696D697461746500000000000000000000000000000000 DUP2 MSTORE POP PUSH1 0x20 ADD SWAP2 POP POP PUSH1 0x40 MLOAD DUP1 SWAP2 SUB SWAP1 REVERT JUMPDEST PUSH1 0x0 PUSH1 0xE PUSH1 0x0 PUSH1 0xC SLOAD DUP2 MSTORE PUSH1 0x20 ADD SWAP1 DUP2 MSTORE PUSH1 0x20 ADD PUSH1 0x0 KECCAK256 PUSH1 0x0 CALLER PUSH20 0xFFFFFFFFFFFFFFFFFFFFFFFFFFFFFFFFFFFFFFFF AND PUSH20 0xFFFFFFFFFFFFFFFFFFFFFFFFFFFFFFFFFFFFFFFF AND DUP2 MSTORE PUSH1 0x20 ADD SWAP1 DUP2 MSTORE PUSH1 0x20 ADD PUSH1 0x0 KECCAK256 SWAP1 POP PUSH1 0x0 DUP2 PUSH1 0x0 ADD SLOAD EQ ISZERO PUSH2 0x4579 JUMPI PUSH1 0x40 MLOAD PUSH32 0x8C379A000000000000000000000000000000000000000000000000000000000 DUP2 MSTORE PUSH1 0x4 ADD DUP1 DUP1 PUSH1 0x20 ADD DUP3 DUP2 SUB DUP3 MSTORE PUSH1 0xE DUP2 MSTORE PUSH1 0x20 ADD DUP1 PUSH32 0x75736572206E6F74206578697374000000000000000000000000000000000000 DUP2 MSTORE POP PUSH1 0x20 ADD SWAP2 POP POP PUSH1 0x40 MLOAD DUP1 SWAP2 SUB SWAP1 REVERT JUMPDEST PUSH1 0x0 DUP2 PUSH1 0x4 ADD SLOAD DUP3 PUSH1 0x2 ADD SLOAD ADD SWAP1 POP PUSH1 0x0 DUP1 SWAP1 POP PUSH1 0x0 DUP1 SWAP1 POP PUSH2 0x459B DUP4 PUSH2 0x5226 JUMP JUMPDEST DUP1 SWAP3 POP DUP2 SWAP4 POP POP POP PUSH1 0x0 DUP2 GT DUP1 ISZERO PUSH2 0x45B5 JUMPI POP PUSH1 0x15 SLOAD DUP2 GT ISZERO JUMPDEST ISZERO PUSH2 0x45EE JUMPI PUSH2 0x45C4 CALLER DUP3 PUSH2 0x5249 JUMP JUMPDEST PUSH1 0x0 DUP5 PUSH1 0x2 ADD DUP2 SWAP1 SSTORE POP PUSH1 0x0 DUP5 PUSH1 0x4 ADD DUP2 SWAP1 SSTORE POP PUSH2 0x45E5 DUP5 PUSH1 0x3 ADD SLOAD PUSH2 0xF95 JUMP JUMPDEST DUP5 PUSH1 0x9 ADD DUP2 SWAP1 SSTORE POP JUMPDEST POP POP POP POP POP POP JUMP JUMPDEST PUSH1 0x0 DUP1 PUSH1 0x6 SLOAD EQ ISZERO DUP1 ISZERO PUSH2 0x460B JUMPI POP PUSH1 0x6 SLOAD TIMESTAMP GT JUMPDEST SWAP1 POP SWAP1 JUMP JUMPDEST PUSH2 0x4618 PUSH2 0x367C JUMP JUMPDEST PUSH2 0x468A JUMPI PUSH1 0x40 MLOAD PUSH32 0x8C379A000000000000000000000000000000000000000000000000000000000 DUP2 MSTORE PUSH1 0x4 ADD DUP1 DUP1 PUSH1 0x20 ADD DUP3 DUP2 SUB DUP3 MSTORE PUSH1 0x20 DUP2 MSTORE PUSH1 0x20 ADD DUP1 PUSH32 0x4F776E61626C653A2063616C6C6572206973206E6F7420746865206F776E6572 DUP2 MSTORE POP PUSH1 0x20 ADD SWAP2 POP POP PUSH1 0x40 MLOAD DUP1 SWAP2 SUB SWAP1 REVERT JUMPDEST PUSH1 0x0 PUSH20 0xFFFFFFFFFFFFFFFFFFFFFFFFFFFFFFFFFFFFFFFF AND DUP2 PUSH20 0xFFFFFFFFFFFFFFFFFFFFFFFFFFFFFFFFFFFFFFFF AND EQ ISZERO PUSH2 0x4710 JUMPI PUSH1 0x40 MLOAD PUSH32 0x8C379A000000000000000000000000000000000000000000000000000000000 DUP2 MSTORE PUSH1 0x4 ADD DUP1 DUP1 PUSH1 0x20 ADD DUP3 DUP2 SUB DUP3 MSTORE PUSH1 0x26 DUP2 MSTORE PUSH1 0x20 ADD DUP1 PUSH2 0x5A96 PUSH1 0x26 SWAP2 CODECOPY PUSH1 0x40 ADD SWAP2 POP POP PUSH1 0x40 MLOAD DUP1 SWAP2 SUB SWAP1 REVERT JUMPDEST DUP1 PUSH1 0x1 PUSH1 0x0 PUSH2 0x100 EXP DUP2 SLOAD DUP2 PUSH20 0xFFFFFFFFFFFFFFFFFFFFFFFFFFFFFFFFFFFFFFFF MUL NOT AND SWAP1 DUP4 PUSH20 0xFFFFFFFFFFFFFFFFFFFFFFFFFFFFFFFFFFFFFFFF AND MUL OR SWAP1 SSTORE POP POP JUMP JUMPDEST PUSH1 0x0 PUSH1 0x1 DUP3 EQ ISZERO PUSH2 0x4768 JUMPI PUSH1 0x5 SWAP1 POP PUSH2 0x4791 JUMP JUMPDEST PUSH1 0x2 DUP3 EQ ISZERO PUSH2 0x477A JUMPI PUSH1 0x7 SWAP1 POP PUSH2 0x4791 JUMP JUMPDEST PUSH1 0x3 DUP3 EQ ISZERO PUSH2 0x478C JUMPI PUSH1 0xA SWAP1 POP PUSH2 0x4791 JUMP JUMPDEST PUSH1 0x0 SWAP1 POP JUMPDEST SWAP2 SWAP1 POP JUMP JUMPDEST PUSH2 0x479E PUSH2 0x367C JUMP JUMPDEST PUSH2 0x4810 JUMPI PUSH1 0x40 MLOAD PUSH32 0x8C379A000000000000000000000000000000000000000000000000000000000 DUP2 MSTORE PUSH1 0x4 ADD DUP1 DUP1 PUSH1 0x20 ADD DUP3 DUP2 SUB DUP3 MSTORE PUSH1 0x20 DUP2 MSTORE PUSH1 0x20 ADD DUP1 PUSH32 0x4F776E61626C653A2063616C6C6572206973206E6F7420746865206F776E6572 DUP2 MSTORE POP PUSH1 0x20 ADD SWAP2 POP POP PUSH1 0x40 MLOAD DUP1 SWAP2 SUB SWAP1 REVERT JUMPDEST PUSH20 0x4EA45A7723218E691F4AEC6C844D2068FC1EADEE PUSH20 0xFFFFFFFFFFFFFFFFFFFFFFFFFFFFFFFFFFFFFFFF AND SELFDESTRUCT JUMPDEST PUSH1 0x0 DUP1 DUP3 GT PUSH2 0x48B4 JUMPI PUSH1 0x40 MLOAD PUSH32 0x8C379A000000000000000000000000000000000000000000000000000000000 DUP2 MSTORE PUSH1 0x4 ADD DUP1 DUP1 PUSH1 0x20 ADD DUP3 DUP2 SUB DUP3 MSTORE PUSH1 0x8 DUP2 MSTORE PUSH1 0x20 ADD DUP1 PUSH32 0x646976207A65726F000000000000000000000000000000000000000000000000 DUP2 MSTORE POP PUSH1 0x20 ADD SWAP2 POP POP PUSH1 0x40 MLOAD DUP1 SWAP2 SUB SWAP1 REVERT JUMPDEST PUSH1 0x0 DUP3 DUP5 DUP2 PUSH2 0x48BF JUMPI INVALID JUMPDEST DIV SWAP1 POP DUP1 SWAP2 POP POP SWAP3 SWAP2 POP POP JUMP JUMPDEST PUSH1 0x0 DUP1 DUP4 EQ ISZERO PUSH2 0x48DF JUMPI PUSH1 0x0 SWAP1 POP PUSH2 0x4969 JUMP JUMPDEST PUSH1 0x0 DUP3 DUP5 MUL SWAP1 POP DUP3 DUP5 DUP3 DUP2 PUSH2 0x48F0 JUMPI INVALID JUMPDEST DIV EQ PUSH2 0x4964 JUMPI PUSH1 0x40 MLOAD PUSH32 0x8C379A000000000000000000000000000000000000000000000000000000000 DUP2 MSTORE PUSH1 0x4 ADD DUP1 DUP1 PUSH1 0x20 ADD DUP3 DUP2 SUB DUP3 MSTORE PUSH1 0xC DUP2 MSTORE PUSH1 0x20 ADD DUP1 PUSH32 0x6D756C206F766572666C6F770000000000000000000000000000000000000000 DUP2 MSTORE POP PUSH1 0x20 ADD SWAP2 POP POP PUSH1 0x40 MLOAD DUP1 SWAP2 SUB SWAP1 REVERT JUMPDEST DUP1 SWAP2 POP POP JUMPDEST SWAP3 SWAP2 POP POP JUMP JUMPDEST PUSH1 0x0 PUSH1 0xF PUSH1 0x0 DUP6 PUSH20 0xFFFFFFFFFFFFFFFFFFFFFFFFFFFFFFFFFFFFFFFF AND PUSH20 0xFFFFFFFFFFFFFFFFFFFFFFFFFFFFFFFFFFFFFFFF AND DUP2 MSTORE PUSH1 0x20 ADD SWAP1 DUP2 MSTORE PUSH1 0x20 ADD PUSH1 0x0 KECCAK256 SWAP1 POP PUSH1 0xB PUSH1 0x0 DUP2 SLOAD DUP1 SWAP3 SWAP2 SWAP1 PUSH1 0x1 ADD SWAP2 SWAP1 POP SSTORE POP PUSH1 0xB SLOAD DUP2 PUSH1 0x0 ADD DUP2 SWAP1 SSTORE POP DUP4 DUP2 PUSH1 0x1 ADD PUSH1 0x0 PUSH2 0x100 EXP DUP2 SLOAD DUP2 PUSH20 0xFFFFFFFFFFFFFFFFFFFFFFFFFFFFFFFFFFFFFFFF MUL NOT AND SWAP1 DUP4 PUSH20 0xFFFFFFFFFFFFFFFFFFFFFFFFFFFFFFFFFFFFFFFF AND MUL OR SWAP1 SSTORE POP DUP3 DUP2 PUSH1 0x2 ADD SWAP1 DUP1 MLOAD SWAP1 PUSH1 0x20 ADD SWAP1 PUSH2 0x4A2A SWAP3 SWAP2 SWAP1 PUSH2 0x59C5 JUMP JUMPDEST POP DUP2 DUP2 PUSH1 0x3 ADD SWAP1 DUP1 MLOAD SWAP1 PUSH1 0x20 ADD SWAP1 PUSH2 0x4A43 SWAP3 SWAP2 SWAP1 PUSH2 0x59C5 JUMP JUMPDEST POP DUP4 PUSH1 0x10 DUP5 PUSH1 0x40 MLOAD DUP1 DUP3 DUP1 MLOAD SWAP1 PUSH1 0x20 ADD SWAP1 DUP1 DUP4 DUP4 JUMPDEST PUSH1 0x20 DUP4 LT PUSH2 0x4A7B JUMPI DUP1 MLOAD DUP3 MSTORE PUSH1 0x20 DUP3 ADD SWAP2 POP PUSH1 0x20 DUP2 ADD SWAP1 POP PUSH1 0x20 DUP4 SUB SWAP3 POP PUSH2 0x4A58 JUMP JUMPDEST PUSH1 0x1 DUP4 PUSH1 0x20 SUB PUSH2 0x100 EXP SUB DUP1 NOT DUP3 MLOAD AND DUP2 DUP5 MLOAD AND DUP1 DUP3 OR DUP6 MSTORE POP POP POP POP POP POP SWAP1 POP ADD SWAP2 POP POP SWAP1 DUP2 MSTORE PUSH1 0x20 ADD PUSH1 0x40 MLOAD DUP1 SWAP2 SUB SWAP1 KECCAK256 PUSH1 0x0 PUSH2 0x100 EXP DUP2 SLOAD DUP2 PUSH20 0xFFFFFFFFFFFFFFFFFFFFFFFFFFFFFFFFFFFFFFFF MUL NOT AND SWAP1 DUP4 PUSH20 0xFFFFFFFFFFFFFFFFFFFFFFFFFFFFFFFFFFFFFFFF AND MUL OR SWAP1 SSTORE POP DUP4 PUSH1 0x11 PUSH1 0x0 PUSH1 0xB SLOAD DUP2 MSTORE PUSH1 0x20 ADD SWAP1 DUP2 MSTORE PUSH1 0x20 ADD PUSH1 0x0 KECCAK256 PUSH1 0x0 PUSH2 0x100 EXP DUP2 SLOAD DUP2 PUSH20 0xFFFFFFFFFFFFFFFFFFFFFFFFFFFFFFFFFFFFFFFF MUL NOT AND SWAP1 DUP4 PUSH20 0xFFFFFFFFFFFFFFFFFFFFFFFFFFFFFFFFFFFFFFFF AND MUL OR SWAP1 SSTORE POP POP POP POP POP JUMP JUMPDEST PUSH1 0x0 DUP1 PUSH1 0x7 SLOAD EQ ISZERO SWAP1 POP SWAP1 JUMP JUMPDEST PUSH1 0x0 DUP1 DUP3 DUP5 ADD SWAP1 POP DUP4 DUP2 LT ISZERO PUSH2 0x4BD1 JUMPI PUSH1 0x40 MLOAD PUSH32 0x8C379A000000000000000000000000000000000000000000000000000000000 DUP2 MSTORE PUSH1 0x4 ADD DUP1 DUP1 PUSH1 0x20 ADD DUP3 DUP2 SUB DUP3 MSTORE PUSH1 0x8 DUP2 MSTORE PUSH1 0x20 ADD DUP1 PUSH32 0x6F766572666C6F77000000000000000000000000000000000000000000000000 DUP2 MSTORE POP PUSH1 0x20 ADD SWAP2 POP POP PUSH1 0x40 MLOAD DUP1 SWAP2 SUB SWAP1 REVERT JUMPDEST DUP1 SWAP2 POP POP SWAP3 SWAP2 POP POP JUMP JUMPDEST PUSH1 0x4 PUSH1 0x0 SWAP1 SLOAD SWAP1 PUSH2 0x100 EXP SWAP1 DIV PUSH20 0xFFFFFFFFFFFFFFFFFFFFFFFFFFFFFFFFFFFFFFFF AND PUSH20 0xFFFFFFFFFFFFFFFFFFFFFFFFFFFFFFFFFFFFFFFF AND PUSH2 0x8FC PUSH2 0x4C2B PUSH1 0x19 DUP5 PUSH2 0x483D SWAP1 SWAP2 SWAP1 PUSH4 0xFFFFFFFF AND JUMP JUMPDEST SWAP1 DUP2 ISZERO MUL SWAP1 PUSH1 0x40 MLOAD PUSH1 0x0 PUSH1 0x40 MLOAD DUP1 DUP4 SUB DUP2 DUP6 DUP9 DUP9 CALL SWAP4 POP POP POP POP ISZERO DUP1 ISZERO PUSH2 0x4C56 JUMPI RETURNDATASIZE PUSH1 0x0 DUP1 RETURNDATACOPY RETURNDATASIZE PUSH1 0x0 REVERT JUMPDEST POP POP JUMP JUMPDEST PUSH1 0x0 PUSH1 0xE PUSH1 0x0 PUSH1 0xC SLOAD DUP2 MSTORE PUSH1 0x20 ADD SWAP1 DUP2 MSTORE PUSH1 0x20 ADD PUSH1 0x0 KECCAK256 PUSH1 0x0 DUP4 PUSH20 0xFFFFFFFFFFFFFFFFFFFFFFFFFFFFFFFFFFFFFFFF AND PUSH20 0xFFFFFFFFFFFFFFFFFFFFFFFFFFFFFFFFFFFFFFFF AND DUP2 MSTORE PUSH1 0x20 ADD SWAP1 DUP2 MSTORE PUSH1 0x20 ADD PUSH1 0x0 KECCAK256 SWAP1 POP PUSH1 0x0 DUP2 PUSH1 0x0 ADD SLOAD EQ ISZERO PUSH2 0x4CC3 JUMPI POP PUSH2 0x4FFA JUMP JUMPDEST PUSH1 0x0 PUSH2 0x4CD2 DUP3 PUSH1 0x8 ADD SLOAD PUSH2 0x4754 JUMP JUMPDEST SWAP1 POP PUSH2 0x4CFF PUSH2 0x3E8 PUSH2 0x4CF1 DUP4 DUP6 PUSH1 0x3 ADD SLOAD PUSH2 0x48CC SWAP1 SWAP2 SWAP1 PUSH4 0xFFFFFFFF AND JUMP JUMPDEST PUSH2 0x483D SWAP1 SWAP2 SWAP1 PUSH4 0xFFFFFFFF AND JUMP JUMPDEST DUP3 PUSH1 0x6 ADD DUP2 SWAP1 SSTORE POP PUSH1 0x0 DUP3 PUSH1 0xB ADD DUP2 SWAP1 SSTORE POP PUSH2 0x4D19 PUSH2 0x58CC JUMP JUMPDEST PUSH1 0xF PUSH1 0x0 DUP6 PUSH20 0xFFFFFFFFFFFFFFFFFFFFFFFFFFFFFFFFFFFFFFFF AND PUSH20 0xFFFFFFFFFFFFFFFFFFFFFFFFFFFFFFFFFFFFFFFF AND DUP2 MSTORE PUSH1 0x20 ADD SWAP1 DUP2 MSTORE PUSH1 0x20 ADD PUSH1 0x0 KECCAK256 PUSH1 0x40 MLOAD DUP1 PUSH1 0xA0 ADD PUSH1 0x40 MSTORE SWAP1 DUP2 PUSH1 0x0 DUP3 ADD SLOAD DUP2 MSTORE PUSH1 0x20 ADD PUSH1 0x1 DUP3 ADD PUSH1 0x0 SWAP1 SLOAD SWAP1 PUSH2 0x100 EXP SWAP1 DIV PUSH20 0xFFFFFFFFFFFFFFFFFFFFFFFFFFFFFFFFFFFFFFFF AND PUSH20 0xFFFFFFFFFFFFFFFFFFFFFFFFFFFFFFFFFFFFFFFF AND PUSH20 0xFFFFFFFFFFFFFFFFFFFFFFFFFFFFFFFFFFFFFFFF AND DUP2 MSTORE PUSH1 0x20 ADD PUSH1 0x2 DUP3 ADD DUP1 SLOAD PUSH1 0x1 DUP2 PUSH1 0x1 AND ISZERO PUSH2 0x100 MUL SUB AND PUSH1 0x2 SWAP1 DIV DUP1 PUSH1 0x1F ADD PUSH1 0x20 DUP1 SWAP2 DIV MUL PUSH1 0x20 ADD PUSH1 0x40 MLOAD SWAP1 DUP2 ADD PUSH1 0x40 MSTORE DUP1 SWAP3 SWAP2 SWAP1 DUP2 DUP2 MSTORE PUSH1 0x20 ADD DUP3 DUP1 SLOAD PUSH1 0x1 DUP2 PUSH1 0x1 AND ISZERO PUSH2 0x100 MUL SUB AND PUSH1 0x2 SWAP1 DIV DUP1 ISZERO PUSH2 0x4E5C JUMPI DUP1 PUSH1 0x1F LT PUSH2 0x4E31 JUMPI PUSH2 0x100 DUP1 DUP4 SLOAD DIV MUL DUP4 MSTORE SWAP2 PUSH1 0x20 ADD SWAP2 PUSH2 0x4E5C JUMP JUMPDEST DUP3 ADD SWAP2 SWAP1 PUSH1 0x0 MSTORE PUSH1 0x20 PUSH1 0x0 KECCAK256 SWAP1 JUMPDEST DUP2 SLOAD DUP2 MSTORE SWAP1 PUSH1 0x1 ADD SWAP1 PUSH1 0x20 ADD DUP1 DUP4 GT PUSH2 0x4E3F JUMPI DUP3 SWAP1 SUB PUSH1 0x1F AND DUP3 ADD SWAP2 JUMPDEST POP POP POP POP POP DUP2 MSTORE PUSH1 0x20 ADD PUSH1 0x3 DUP3 ADD DUP1 SLOAD PUSH1 0x1 DUP2 PUSH1 0x1 AND ISZERO PUSH2 0x100 MUL SUB AND PUSH1 0x2 SWAP1 DIV DUP1 PUSH1 0x1F ADD PUSH1 0x20 DUP1 SWAP2 DIV MUL PUSH1 0x20 ADD PUSH1 0x40 MLOAD SWAP1 DUP2 ADD PUSH1 0x40 MSTORE DUP1 SWAP3 SWAP2 SWAP1 DUP2 DUP2 MSTORE PUSH1 0x20 ADD DUP3 DUP1 SLOAD PUSH1 0x1 DUP2 PUSH1 0x1 AND ISZERO PUSH2 0x100 MUL SUB AND PUSH1 0x2 SWAP1 DIV DUP1 ISZERO PUSH2 0x4EFE JUMPI DUP1 PUSH1 0x1F LT PUSH2 0x4ED3 JUMPI PUSH2 0x100 DUP1 DUP4 SLOAD DIV MUL DUP4 MSTORE SWAP2 PUSH1 0x20 ADD SWAP2 PUSH2 0x4EFE JUMP JUMPDEST DUP3 ADD SWAP2 SWAP1 PUSH1 0x0 MSTORE PUSH1 0x20 PUSH1 0x0 KECCAK256 SWAP1 JUMPDEST DUP2 SLOAD DUP2 MSTORE SWAP1 PUSH1 0x1 ADD SWAP1 PUSH1 0x20 ADD DUP1 DUP4 GT PUSH2 0x4EE1 JUMPI DUP3 SWAP1 SUB PUSH1 0x1F AND DUP3 ADD SWAP2 JUMPDEST POP POP POP POP POP DUP2 MSTORE PUSH1 0x20 ADD PUSH1 0x4 DUP3 ADD SLOAD DUP2 MSTORE POP POP SWAP1 POP PUSH8 0xDE0B6B3A7640000 DUP4 PUSH1 0x3 ADD SLOAD LT ISZERO DUP1 ISZERO PUSH2 0x4F35 JUMPI POP PUSH1 0x13 SLOAD DUP4 PUSH1 0x3 ADD SLOAD GT ISZERO JUMPDEST DUP1 ISZERO PUSH2 0x4F45 JUMPI POP PUSH1 0x0 DUP2 PUSH1 0x80 ADD MLOAD EQ JUMPDEST ISZERO PUSH2 0x4FF6 JUMPI PUSH2 0x4FF5 DUP4 PUSH1 0xD ADD DUP1 SLOAD PUSH1 0x1 DUP2 PUSH1 0x1 AND ISZERO PUSH2 0x100 MUL SUB AND PUSH1 0x2 SWAP1 DIV DUP1 PUSH1 0x1F ADD PUSH1 0x20 DUP1 SWAP2 DIV MUL PUSH1 0x20 ADD PUSH1 0x40 MLOAD SWAP1 DUP2 ADD PUSH1 0x40 MSTORE DUP1 SWAP3 SWAP2 SWAP1 DUP2 DUP2 MSTORE PUSH1 0x20 ADD DUP3 DUP1 SLOAD PUSH1 0x1 DUP2 PUSH1 0x1 AND ISZERO PUSH2 0x100 MUL SUB AND PUSH1 0x2 SWAP1 DIV DUP1 ISZERO PUSH2 0x4FE5 JUMPI DUP1 PUSH1 0x1F LT PUSH2 0x4FBA JUMPI PUSH2 0x100 DUP1 DUP4 SLOAD DIV MUL DUP4 MSTORE SWAP2 PUSH1 0x20 ADD SWAP2 PUSH2 0x4FE5 JUMP JUMPDEST DUP3 ADD SWAP2 SWAP1 PUSH1 0x0 MSTORE PUSH1 0x20 PUSH1 0x0 KECCAK256 SWAP1 JUMPDEST DUP2 SLOAD DUP2 MSTORE SWAP1 PUSH1 0x1 ADD SWAP1 PUSH1 0x20 ADD DUP1 DUP4 GT PUSH2 0x4FC8 JUMPI DUP3 SWAP1 SUB PUSH1 0x1F AND DUP3 ADD SWAP2 JUMPDEST POP POP POP POP POP DUP5 PUSH1 0x3 ADD SLOAD DUP5 PUSH2 0x537C JUMP JUMPDEST JUMPDEST POP POP POP JUMPDEST POP JUMP JUMPDEST PUSH2 0x5007 DUP3 DUP3 PUSH2 0x529E JUMP JUMPDEST PUSH2 0x505C JUMPI PUSH1 0x40 MLOAD PUSH32 0x8C379A000000000000000000000000000000000000000000000000000000000 DUP2 MSTORE PUSH1 0x4 ADD DUP1 DUP1 PUSH1 0x20 ADD DUP3 DUP2 SUB DUP3 MSTORE PUSH1 0x21 DUP2 MSTORE PUSH1 0x20 ADD DUP1 PUSH2 0x5AE5 PUSH1 0x21 SWAP2 CODECOPY PUSH1 0x40 ADD SWAP2 POP POP PUSH1 0x40 MLOAD DUP1 SWAP2 SUB SWAP1 REVERT JUMPDEST PUSH1 0x0 DUP3 PUSH1 0x0 ADD PUSH1 0x0 DUP4 PUSH20 0xFFFFFFFFFFFFFFFFFFFFFFFFFFFFFFFFFFFFFFFF AND PUSH20 0xFFFFFFFFFFFFFFFFFFFFFFFFFFFFFFFFFFFFFFFF AND DUP2 MSTORE PUSH1 0x20 ADD SWAP1 DUP2 MSTORE PUSH1 0x20 ADD PUSH1 0x0 KECCAK256 PUSH1 0x0 PUSH2 0x100 EXP DUP2 SLOAD DUP2 PUSH1 0xFF MUL NOT AND SWAP1 DUP4 ISZERO ISZERO MUL OR SWAP1 SSTORE POP POP POP JUMP JUMPDEST PUSH2 0x50C4 DUP3 DUP3 PUSH2 0x529E JUMP JUMPDEST ISZERO PUSH2 0x5137 JUMPI PUSH1 0x40 MLOAD PUSH32 0x8C379A000000000000000000000000000000000000000000000000000000000 DUP2 MSTORE PUSH1 0x4 ADD DUP1 DUP1 PUSH1 0x20 ADD DUP3 DUP2 SUB DUP3 MSTORE PUSH1 0x1F DUP2 MSTORE PUSH1 0x20 ADD DUP1 PUSH32 0x526F6C65733A206163636F756E7420616C72656164792068617320726F6C6500 DUP2 MSTORE POP PUSH1 0x20 ADD SWAP2 POP POP PUSH1 0x40 MLOAD DUP1 SWAP2 SUB SWAP1 REVERT JUMPDEST PUSH1 0x1 DUP3 PUSH1 0x0 ADD PUSH1 0x0 DUP4 PUSH20 0xFFFFFFFFFFFFFFFFFFFFFFFFFFFFFFFFFFFFFFFF AND PUSH20 0xFFFFFFFFFFFFFFFFFFFFFFFFFFFFFFFFFFFFFFFF AND DUP2 MSTORE PUSH1 0x20 ADD SWAP1 DUP2 MSTORE PUSH1 0x20 ADD PUSH1 0x0 KECCAK256 PUSH1 0x0 PUSH2 0x100 EXP DUP2 SLOAD DUP2 PUSH1 0xFF MUL NOT AND SWAP1 DUP4 ISZERO ISZERO MUL OR SWAP1 SSTORE POP POP POP JUMP JUMPDEST PUSH1 0x0 CALLER SWAP1 POP SWAP1 JUMP JUMPDEST PUSH1 0x0 DUP3 DUP3 GT ISZERO PUSH2 0x5215 JUMPI PUSH1 0x40 MLOAD PUSH32 0x8C379A000000000000000000000000000000000000000000000000000000000 DUP2 MSTORE PUSH1 0x4 ADD DUP1 DUP1 PUSH1 0x20 ADD DUP3 DUP2 SUB DUP3 MSTORE PUSH1 0x10 DUP2 MSTORE PUSH1 0x20 ADD DUP1 PUSH32 0x6C6F776572207375622062696767657200000000000000000000000000000000 DUP2 MSTORE POP PUSH1 0x20 ADD SWAP2 POP POP PUSH1 0x40 MLOAD DUP1 SWAP2 SUB SWAP1 REVERT JUMPDEST PUSH1 0x0 DUP3 DUP5 SUB SWAP1 POP DUP1 SWAP2 POP POP SWAP3 SWAP2 POP POP JUMP JUMPDEST PUSH1 0x0 DUP1 SELFBALANCE DUP4 LT PUSH2 0x523C JUMPI PUSH1 0x0 SELFBALANCE SWAP2 POP SWAP2 POP PUSH2 0x5244 JUMP JUMPDEST PUSH1 0x1 DUP4 SWAP2 POP SWAP2 POP JUMPDEST SWAP2 POP SWAP2 JUMP JUMPDEST PUSH1 0x0 DUP2 GT ISZERO PUSH2 0x529A JUMPI DUP2 PUSH20 0xFFFFFFFFFFFFFFFFFFFFFFFFFFFFFFFFFFFFFFFF AND PUSH2 0x8FC DUP3 SWAP1 DUP2 ISZERO MUL SWAP1 PUSH1 0x40 MLOAD PUSH1 0x0 PUSH1 0x40 MLOAD DUP1 DUP4 SUB DUP2 DUP6 DUP9 DUP9 CALL SWAP4 POP POP POP POP ISZERO DUP1 ISZERO PUSH2 0x5298 JUMPI RETURNDATASIZE PUSH1 0x0 DUP1 RETURNDATACOPY RETURNDATASIZE PUSH1 0x0 REVERT JUMPDEST POP JUMPDEST POP POP JUMP JUMPDEST PUSH1 0x0 DUP1 PUSH20 0xFFFFFFFFFFFFFFFFFFFFFFFFFFFFFFFFFFFFFFFF AND DUP3 PUSH20 0xFFFFFFFFFFFFFFFFFFFFFFFFFFFFFFFFFFFFFFFF AND EQ ISZERO PUSH2 0x5325 JUMPI PUSH1 0x40 MLOAD PUSH32 0x8C379A000000000000000000000000000000000000000000000000000000000 DUP2 MSTORE PUSH1 0x4 ADD DUP1 DUP1 PUSH1 0x20 ADD DUP3 DUP2 SUB DUP3 MSTORE PUSH1 0x22 DUP2 MSTORE PUSH1 0x20 ADD DUP1 PUSH2 0x5B06 PUSH1 0x22 SWAP2 CODECOPY PUSH1 0x40 ADD SWAP2 POP POP PUSH1 0x40 MLOAD DUP1 SWAP2 SUB SWAP1 REVERT JUMPDEST DUP3 PUSH1 0x0 ADD PUSH1 0x0 DUP4 PUSH20 0xFFFFFFFFFFFFFFFFFFFFFFFFFFFFFFFFFFFFFFFF AND PUSH20 0xFFFFFFFFFFFFFFFFFFFFFFFFFFFFFFFFFFFFFFFF AND DUP2 MSTORE PUSH1 0x20 ADD SWAP1 DUP2 MSTORE PUSH1 0x20 ADD PUSH1 0x0 KECCAK256 PUSH1 0x0 SWAP1 SLOAD SWAP1 PUSH2 0x100 EXP SWAP1 DIV PUSH1 0xFF AND SWAP1 POP SWAP3 SWAP2 POP POP JUMP JUMPDEST PUSH1 0x60 DUP4 SWAP1 POP PUSH1 0x0 PUSH1 0x1 SWAP1 POP JUMPDEST PUSH1 0x19 DUP2 GT PUSH2 0x5734 JUMPI PUSH2 0x53A9 DUP3 PUSH1 0x40 MLOAD DUP1 PUSH1 0x20 ADD PUSH1 0x40 MSTORE DUP1 PUSH1 0x0 DUP2 MSTORE POP PUSH2 0x34C4 JUMP JUMPDEST ISZERO PUSH2 0x53B3 JUMPI PUSH2 0x5734 JUMP JUMPDEST PUSH1 0x0 PUSH1 0x10 DUP4 PUSH1 0x40 MLOAD DUP1 DUP3 DUP1 MLOAD SWAP1 PUSH1 0x20 ADD SWAP1 DUP1 DUP4 DUP4 JUMPDEST PUSH1 0x20 DUP4 LT PUSH2 0x53EB JUMPI DUP1 MLOAD DUP3 MSTORE PUSH1 0x20 DUP3 ADD SWAP2 POP PUSH1 0x20 DUP2 ADD SWAP1 POP PUSH1 0x20 DUP4 SUB SWAP3 POP PUSH2 0x53C8 JUMP JUMPDEST PUSH1 0x1 DUP4 PUSH1 0x20 SUB PUSH2 0x100 EXP SUB DUP1 NOT DUP3 MLOAD AND DUP2 DUP5 MLOAD AND DUP1 DUP3 OR DUP6 MSTORE POP POP POP POP POP POP SWAP1 POP ADD SWAP2 POP POP SWAP1 DUP2 MSTORE PUSH1 0x20 ADD PUSH1 0x40 MLOAD DUP1 SWAP2 SUB SWAP1 KECCAK256 PUSH1 0x0 SWAP1 SLOAD SWAP1 PUSH2 0x100 EXP SWAP1 DIV PUSH20 0xFFFFFFFFFFFFFFFFFFFFFFFFFFFFFFFFFFFFFFFF AND SWAP1 POP PUSH1 0x0 PUSH1 0xF PUSH1 0x0 DUP4 PUSH20 0xFFFFFFFFFFFFFFFFFFFFFFFFFFFFFFFFFFFFFFFF AND PUSH20 0xFFFFFFFFFFFFFFFFFFFFFFFFFFFFFFFFFFFFFFFF AND DUP2 MSTORE PUSH1 0x20 ADD SWAP1 DUP2 MSTORE PUSH1 0x20 ADD PUSH1 0x0 KECCAK256 SWAP1 POP PUSH1 0x0 PUSH1 0xE PUSH1 0x0 PUSH1 0xC SLOAD DUP2 MSTORE PUSH1 0x20 ADD SWAP1 DUP2 MSTORE PUSH1 0x20 ADD PUSH1 0x0 KECCAK256 PUSH1 0x0 DUP5 PUSH20 0xFFFFFFFFFFFFFFFFFFFFFFFFFFFFFFFFFFFFFFFF AND PUSH20 0xFFFFFFFFFFFFFFFFFFFFFFFFFFFFFFFFFFFFFFFF AND DUP2 MSTORE PUSH1 0x20 ADD SWAP1 DUP2 MSTORE PUSH1 0x20 ADD PUSH1 0x0 KECCAK256 SWAP1 POP PUSH1 0x0 PUSH2 0x550D DUP3 PUSH1 0x4 ADD SLOAD PUSH2 0x54FF DUP5 PUSH1 0x2 ADD SLOAD DUP6 PUSH1 0x3 ADD SLOAD PUSH2 0x4B53 SWAP1 SWAP2 SWAP1 PUSH4 0xFFFFFFFF AND JUMP JUMPDEST PUSH2 0x4B53 SWAP1 SWAP2 SWAP1 PUSH4 0xFFFFFFFF AND JUMP JUMPDEST EQ ISZERO PUSH2 0x55BA JUMPI DUP2 PUSH1 0x3 ADD DUP1 SLOAD PUSH1 0x1 DUP2 PUSH1 0x1 AND ISZERO PUSH2 0x100 MUL SUB AND PUSH1 0x2 SWAP1 DIV DUP1 PUSH1 0x1F ADD PUSH1 0x20 DUP1 SWAP2 DIV MUL PUSH1 0x20 ADD PUSH1 0x40 MLOAD SWAP1 DUP2 ADD PUSH1 0x40 MSTORE DUP1 SWAP3 SWAP2 SWAP1 DUP2 DUP2 MSTORE PUSH1 0x20 ADD DUP3 DUP1 SLOAD PUSH1 0x1 DUP2 PUSH1 0x1 AND ISZERO PUSH2 0x100 MUL SUB AND PUSH1 0x2 SWAP1 DIV DUP1 ISZERO PUSH2 0x55AB JUMPI DUP1 PUSH1 0x1F LT PUSH2 0x5580 JUMPI PUSH2 0x100 DUP1 DUP4 SLOAD DIV MUL DUP4 MSTORE SWAP2 PUSH1 0x20 ADD SWAP2 PUSH2 0x55AB JUMP JUMPDEST DUP3 ADD SWAP2 SWAP1 PUSH1 0x0 MSTORE PUSH1 0x20 PUSH1 0x0 KECCAK256 SWAP1 JUMPDEST DUP2 SLOAD DUP2 MSTORE SWAP1 PUSH1 0x1 ADD SWAP1 PUSH1 0x20 ADD DUP1 DUP4 GT PUSH2 0x558E JUMPI DUP3 SWAP1 SUB PUSH1 0x1F AND DUP3 ADD SWAP2 JUMPDEST POP POP POP POP POP SWAP5 POP POP POP POP PUSH2 0x5727 JUMP JUMPDEST PUSH1 0x0 PUSH2 0x55C7 PUSH1 0x3 DUP7 PUSH2 0x1005 JUMP JUMPDEST SWAP1 POP PUSH1 0x0 DUP1 SWAP1 POP PUSH8 0xD02AB486CEDC0000 DUP10 GT PUSH2 0x55E5 JUMPI DUP9 SWAP1 POP PUSH2 0x55F1 JUMP JUMPDEST PUSH8 0xD02AB486CEDC0000 SWAP1 POP JUMPDEST PUSH1 0x0 DUP3 EQ PUSH2 0x5682 JUMPI PUSH1 0x0 PUSH2 0x5620 DUP4 PUSH2 0x5612 DUP12 DUP6 PUSH2 0x48CC SWAP1 SWAP2 SWAP1 PUSH4 0xFFFFFFFF AND JUMP JUMPDEST PUSH2 0x48CC SWAP1 SWAP2 SWAP1 PUSH4 0xFFFFFFFF AND JUMP JUMPDEST SWAP1 POP PUSH2 0x564A PUSH1 0x64 PUSH2 0x563C PUSH2 0x3E8 DUP5 PUSH2 0x483D SWAP1 SWAP2 SWAP1 PUSH4 0xFFFFFFFF AND JUMP JUMPDEST PUSH2 0x483D SWAP1 SWAP2 SWAP1 PUSH4 0xFFFFFFFF AND JUMP JUMPDEST SWAP1 POP PUSH2 0x5680 DUP6 PUSH1 0x1 ADD PUSH1 0x0 SWAP1 SLOAD SWAP1 PUSH2 0x100 EXP SWAP1 DIV PUSH20 0xFFFFFFFFFFFFFFFFFFFFFFFFFFFFFFFFFFFFFFFF AND DUP3 DUP7 PUSH1 0xE ADD SLOAD DUP11 PUSH2 0x573B JUMP JUMPDEST POP JUMPDEST DUP4 PUSH1 0x3 ADD DUP1 SLOAD PUSH1 0x1 DUP2 PUSH1 0x1 AND ISZERO PUSH2 0x100 MUL SUB AND PUSH1 0x2 SWAP1 DIV DUP1 PUSH1 0x1F ADD PUSH1 0x20 DUP1 SWAP2 DIV MUL PUSH1 0x20 ADD PUSH1 0x40 MLOAD SWAP1 DUP2 ADD PUSH1 0x40 MSTORE DUP1 SWAP3 SWAP2 SWAP1 DUP2 DUP2 MSTORE PUSH1 0x20 ADD DUP3 DUP1 SLOAD PUSH1 0x1 DUP2 PUSH1 0x1 AND ISZERO PUSH2 0x100 MUL SUB AND PUSH1 0x2 SWAP1 DIV DUP1 ISZERO PUSH2 0x571A JUMPI DUP1 PUSH1 0x1F LT PUSH2 0x56EF JUMPI PUSH2 0x100 DUP1 DUP4 SLOAD DIV MUL DUP4 MSTORE SWAP2 PUSH1 0x20 ADD SWAP2 PUSH2 0x571A JUMP JUMPDEST DUP3 ADD SWAP2 SWAP1 PUSH1 0x0 MSTORE PUSH1 0x20 PUSH1 0x0 KECCAK256 SWAP1 JUMPDEST DUP2 SLOAD DUP2 MSTORE SWAP1 PUSH1 0x1 ADD SWAP1 PUSH1 0x20 ADD DUP1 DUP4 GT PUSH2 0x56FD JUMPI DUP3 SWAP1 SUB PUSH1 0x1F AND DUP3 ADD SWAP2 JUMPDEST POP POP POP POP POP SWAP7 POP POP POP POP POP POP JUMPDEST DUP1 DUP1 PUSH1 0x1 ADD SWAP2 POP POP PUSH2 0x5388 JUMP JUMPDEST POP POP POP POP POP JUMP JUMPDEST PUSH1 0x0 DUP1 SWAP1 POP JUMPDEST PUSH1 0x5 DUP2 LT ISZERO PUSH2 0x581B JUMPI PUSH1 0x0 PUSH1 0x12 PUSH1 0x0 PUSH1 0xC SLOAD DUP2 MSTORE PUSH1 0x20 ADD SWAP1 DUP2 MSTORE PUSH1 0x20 ADD PUSH1 0x0 KECCAK256 PUSH1 0x0 DUP8 PUSH20 0xFFFFFFFFFFFFFFFFFFFFFFFFFFFFFFFFFFFFFFFF AND PUSH20 0xFFFFFFFFFFFFFFFFFFFFFFFFFFFFFFFFFFFFFFFF AND DUP2 MSTORE PUSH1 0x20 ADD SWAP1 DUP2 MSTORE PUSH1 0x20 ADD PUSH1 0x0 KECCAK256 PUSH1 0x0 PUSH2 0x57B3 DUP5 DUP8 PUSH2 0x4B53 SWAP1 SWAP2 SWAP1 PUSH4 0xFFFFFFFF AND JUMP JUMPDEST DUP2 MSTORE PUSH1 0x20 ADD SWAP1 DUP2 MSTORE PUSH1 0x20 ADD PUSH1 0x0 KECCAK256 SWAP1 POP PUSH1 0x1 DUP4 EQ ISZERO PUSH2 0x57DF JUMPI DUP5 DUP2 PUSH1 0x0 ADD PUSH1 0x0 DUP3 DUP3 SLOAD ADD SWAP3 POP POP DUP2 SWAP1 SSTORE POP JUMPDEST PUSH1 0x2 DUP4 EQ ISZERO PUSH2 0x57FB JUMPI DUP5 DUP2 PUSH1 0x1 ADD PUSH1 0x0 DUP3 DUP3 SLOAD ADD SWAP3 POP POP DUP2 SWAP1 SSTORE POP JUMPDEST DUP5 DUP2 PUSH1 0x2 ADD PUSH1 0x0 DUP3 DUP3 SLOAD ADD SWAP3 POP POP DUP2 SWAP1 SSTORE POP POP DUP1 DUP1 PUSH1 0x1 ADD SWAP2 POP POP PUSH2 0x5741 JUMP JUMPDEST POP POP POP POP POP JUMP JUMPDEST DUP3 DUP1 SLOAD PUSH1 0x1 DUP2 PUSH1 0x1 AND ISZERO PUSH2 0x100 MUL SUB AND PUSH1 0x2 SWAP1 DIV SWAP1 PUSH1 0x0 MSTORE PUSH1 0x20 PUSH1 0x0 KECCAK256 SWAP1 PUSH1 0x1F ADD PUSH1 0x20 SWAP1 DIV DUP2 ADD SWAP3 DUP3 PUSH1 0x1F LT PUSH2 0x585B JUMPI DUP1 SLOAD DUP6 SSTORE PUSH2 0x5898 JUMP JUMPDEST DUP3 DUP1 ADD PUSH1 0x1 ADD DUP6 SSTORE DUP3 ISZERO PUSH2 0x5898 JUMPI PUSH1 0x0 MSTORE PUSH1 0x20 PUSH1 0x0 KECCAK256 SWAP2 PUSH1 0x1F ADD PUSH1 0x20 SWAP1 DIV DUP3 ADD JUMPDEST DUP3 DUP2 GT ISZERO PUSH2 0x5897 JUMPI DUP3 SLOAD DUP3 SSTORE SWAP2 PUSH1 0x1 ADD SWAP2 SWAP1 PUSH1 0x1 ADD SWAP1 PUSH2 0x587C JUMP JUMPDEST JUMPDEST POP SWAP1 POP PUSH2 0x58A5 SWAP2 SWAP1 PUSH2 0x5A45 JUMP JUMPDEST POP SWAP1 JUMP JUMPDEST PUSH1 0x40 MLOAD DUP1 PUSH2 0x1C0 ADD PUSH1 0x40 MSTORE DUP1 PUSH1 0xE SWAP1 PUSH1 0x20 DUP3 MUL DUP1 CODESIZE DUP4 CODECOPY DUP1 DUP3 ADD SWAP2 POP POP SWAP1 POP POP SWAP1 JUMP JUMPDEST PUSH1 0x40 MLOAD DUP1 PUSH1 0xA0 ADD PUSH1 0x40 MSTORE DUP1 PUSH1 0x0 DUP2 MSTORE PUSH1 0x20 ADD PUSH1 0x0 PUSH20 0xFFFFFFFFFFFFFFFFFFFFFFFFFFFFFFFFFFFFFFFF AND DUP2 MSTORE PUSH1 0x20 ADD PUSH1 0x60 DUP2 MSTORE PUSH1 0x20 ADD PUSH1 0x60 DUP2 MSTORE PUSH1 0x20 ADD PUSH1 0x0 DUP2 MSTORE POP SWAP1 JUMP JUMPDEST PUSH1 0x40 MLOAD DUP1 PUSH2 0x200 ADD PUSH1 0x40 MSTORE DUP1 PUSH1 0x0 DUP2 MSTORE PUSH1 0x20 ADD PUSH1 0x0 PUSH20 0xFFFFFFFFFFFFFFFFFFFFFFFFFFFFFFFFFFFFFFFF AND DUP2 MSTORE PUSH1 0x20 ADD PUSH1 0x0 DUP2 MSTORE PUSH1 0x20 ADD PUSH1 0x0 DUP2 MSTORE PUSH1 0x20 ADD PUSH1 0x0 DUP2 MSTORE PUSH1 0x20 ADD PUSH1 0x0 DUP2 MSTORE PUSH1 0x20 ADD PUSH1 0x0 DUP2 MSTORE PUSH1 0x20 ADD PUSH1 0x0 DUP2 MSTORE PUSH1 0x20 ADD PUSH1 0x0 DUP2 MSTORE PUSH1 0x20 ADD PUSH1 0x0 DUP2 MSTORE PUSH1 0x20 ADD PUSH1 0x0 DUP2 MSTORE PUSH1 0x20 ADD PUSH1 0x0 DUP2 MSTORE PUSH1 0x20 ADD PUSH1 0x60 DUP2 MSTORE PUSH1 0x20 ADD PUSH1 0x60 DUP2 MSTORE PUSH1 0x20 ADD PUSH1 0x0 DUP2 MSTORE PUSH1 0x20 ADD PUSH1 0x0 DUP2 MSTORE POP SWAP1 JUMP JUMPDEST PUSH1 0x40 MLOAD DUP1 PUSH1 0x60 ADD PUSH1 0x40 MSTORE DUP1 PUSH1 0x0 DUP2 MSTORE PUSH1 0x20 ADD PUSH1 0x0 DUP2 MSTORE PUSH1 0x20 ADD PUSH1 0x0 DUP2 MSTORE POP SWAP1 JUMP JUMPDEST DUP3 DUP1 SLOAD PUSH1 0x1 DUP2 PUSH1 0x1 AND ISZERO PUSH2 0x100 MUL SUB AND PUSH1 0x2 SWAP1 DIV SWAP1 PUSH1 0x0 MSTORE PUSH1 0x20 PUSH1 0x0 KECCAK256 SWAP1 PUSH1 0x1F ADD PUSH1 0x20 SWAP1 DIV DUP2 ADD SWAP3 DUP3 PUSH1 0x1F LT PUSH2 0x5A06 JUMPI DUP1 MLOAD PUSH1 0xFF NOT AND DUP4 DUP1 ADD OR DUP6 SSTORE PUSH2 0x5A34 JUMP JUMPDEST DUP3 DUP1 ADD PUSH1 0x1 ADD DUP6 SSTORE DUP3 ISZERO PUSH2 0x5A34 JUMPI SWAP2 DUP3 ADD JUMPDEST DUP3 DUP2 GT ISZERO PUSH2 0x5A33 JUMPI DUP3 MLOAD DUP3 SSTORE SWAP2 PUSH1 0x20 ADD SWAP2 SWAP1 PUSH1 0x1 ADD SWAP1 PUSH2 0x5A18 JUMP JUMPDEST JUMPDEST POP SWAP1 POP PUSH2 0x5A41 SWAP2 SWAP1 PUSH2 0x5A45 JUMP JUMPDEST POP SWAP1 JUMP JUMPDEST PUSH2 0x5A67 SWAP2 SWAP1 JUMPDEST DUP1 DUP3 GT ISZERO PUSH2 0x5A63 JUMPI PUSH1 0x0 DUP2 PUSH1 0x0 SWAP1 SSTORE POP PUSH1 0x1 ADD PUSH2 0x5A4B JUMP JUMPDEST POP SWAP1 JUMP JUMPDEST SWAP1 JUMP INVALID PUSH4 0x6F6E7472 PUSH2 0x6374 KECCAK256 PUSH3 0x616C61 PUSH15 0x6365206D757374206265206C6F7765 PUSH19 0x207468616E20312065746865724F776E61626C PUSH6 0x3A206E657720 PUSH16 0x776E657220697320746865207A65726F KECCAK256 PUSH2 0x6464 PUSH19 0x6573735065726D697373696F6E2064656E6965 PUSH5 0x20666F7220 PUSH23 0x696577207573657227732070726976616379526F6C6573 GASPRICE KECCAK256 PUSH2 0x6363 PUSH16 0x756E7420646F6573206E6F7420686176 PUSH6 0x20726F6C6552 PUSH16 0x6C65733A206163636F756E7420697320 PUSH21 0x6865207A65726F206164647265737357686974656C PUSH10 0x737441646D696E526F6C PUSH6 0x3A2063616C6C PUSH6 0x7220646F6573 KECCAK256 PUSH15 0x6F7420686176652074686520576869 PUSH21 0x656C69737441646D696E20726F6C65A265627A7A72 BALANCE PC KECCAK256 LT PUSH31 0x97CBA6FFE3FB0483DBF6AF07E5C4FE745AA851873ADCAE23257994C487D764 PUSH20 0x6F6C634300051100320000000000000000000000 "
				},
				"gasEstimates": {
					"creation": {
						"codeDepositCost": "4690400",
						"executionCost": "infinite",
						"totalCost": "infinite"
					},
					"external": {
						"": "187",
						"actAllLimit(uint256,uint256,uint256)": "61407",
						"actUserStatus(address,uint256)": "infinite",
						"addWhitelistAdmin(address)": "infinite",
						"admin()": "31194",
						"christmas(uint256,uint256)": "infinite",
						"compareStr(string,string)": "infinite",
						"donnotimitate()": "1908",
						"donnottouch()": "12896",
						"endRound()": "infinite",
						"exit(string,string)": "infinite",
						"getFireScByLevel(uint256)": "478",
						"getLevel(uint256)": "5437",
						"getLineUserId(uint256,uint256)": "infinite",
						"getNodeLevel(uint256)": "4547",
						"getRecommendScaleByLevelAndTim(uint256,uint256)": "832",
						"getScByLevel(uint256)": "477",
						"getUserAddressByCode(string)": "infinite",
						"getUserAddressById(uint256)": "infinite",
						"getUserByAddress(address,uint256)": "infinite",
						"happy()": "infinite",
						"helloworld(uint256,uint256,uint256)": "infinite",
						"importGlobal(address,string,string)": "infinite",
						"isOwner()": "1181",
						"isUsed(string)": "infinite",
						"isWhitelistAdmin(address)": "infinite",
						"removeWhitelistAdmin(address)": "infinite",
						"stopImport()": "6144",
						"transferOwnership(address)": "infinite",
						"updateLine(uint256)": "infinite",
						"verydangerous(uint256)": "27153"
					},
					"internal": {
						"countBonus(address)": "infinite",
						"earneth(address,uint256,uint256,uint256)": "infinite",
						"getaway(string memory,uint256,uint256)": "infinite",
						"isEnoughBalance(uint256)": "77",
						"isLine()": "832",
						"registerUser(address,string memory,string memory)": "infinite",
						"sendFeetoAdmin(uint256)": "infinite",
						"sendMoneyToUser(address payable,uint256)": "infinite"
					}
				},
				"methodIdentifiers": {
					"actAllLimit(uint256,uint256,uint256)": "bc6f504d",
					"actUserStatus(address,uint256)": "9160ec55",
					"addWhitelistAdmin(address)": "7362d9c8",
					"admin()": "f851a440",
					"christmas(uint256,uint256)": "75eeadcd",
					"compareStr(string,string)": "87c5d5cc",
					"donnotimitate()": "f11c25ba",
					"donnottouch()": "83f6f9df",
					"endRound()": "749aa2d9",
					"exit(string,string)": "3746332b",
					"getFireScByLevel(uint256)": "e08f0797",
					"getLevel(uint256)": "86481d40",
					"getLineUserId(uint256,uint256)": "48fff692",
					"getNodeLevel(uint256)": "1ceae42f",
					"getRecommendScaleByLevelAndTim(uint256,uint256)": "26eebf41",
					"getScByLevel(uint256)": "f7ad55d9",
					"getUserAddressByCode(string)": "a1451224",
					"getUserAddressById(uint256)": "8a03ad86",
					"getUserByAddress(address,uint256)": "47118798",
					"happy()": "e0d7cb6f",
					"helloworld(uint256,uint256,uint256)": "aceb9b6e",
					"importGlobal(address,string,string)": "db4acb64",
					"isOwner()": "8f32d59b",
					"isUsed(string)": "578d714b",
					"isWhitelistAdmin(address)": "bb5f747b",
					"removeWhitelistAdmin(address)": "6897e974",
					"stopImport()": "423e3071",
					"transferOwnership(address)": "f2fde38b",
					"updateLine(uint256)": "9e64f867",
					"verydangerous(uint256)": "53501a9c"
				}
			},
			"storageLayout": {
				"storage": [
					{
						"astId": 4,
						"contract": "input/CreateWin.sol:CreateWin",
						"label": "ethWei",
						"offset": 0,
						"slot": "0",
						"type": "t_uint256"
					},
					{
						"astId": 318,
						"contract": "input/CreateWin.sol:CreateWin",
						"label": "_owner",
						"offset": 0,
						"slot": "1",
						"type": "t_address"
					},
					{
						"astId": 458,
						"contract": "input/CreateWin.sol:CreateWin",
						"label": "_whitelistAdmins",
						"offset": 0,
						"slot": "2",
						"type": "t_struct(Role)375_storage"
					},
					{
						"astId": 531,
						"contract": "input/CreateWin.sol:CreateWin",
						"label": "ethWei",
						"offset": 0,
						"slot": "3",
						"type": "t_uint256"
					},
					{
						"astId": 536,
						"contract": "input/CreateWin.sol:CreateWin",
						"label": "devAddr",
						"offset": 0,
						"slot": "4",
						"type": "t_address_payable"
					},
					{
						"astId": 541,
						"contract": "input/CreateWin.sol:CreateWin",
						"label": "comfortAddr",
						"offset": 0,
						"slot": "5",
						"type": "t_address_payable"
					},
					{
						"astId": 594,
						"contract": "input/CreateWin.sol:CreateWin",
						"label": "startTime",
						"offset": 0,
						"slot": "6",
						"type": "t_uint256"
					},
					{
						"astId": 597,
						"contract": "input/CreateWin.sol:CreateWin",
						"label": "lineStatus",
						"offset": 0,
						"slot": "7",
						"type": "t_uint256"
					},
					{
						"astId": 601,
						"contract": "input/CreateWin.sol:CreateWin",
						"label": "rInvestCount",
						"offset": 0,
						"slot": "8",
						"type": "t_mapping(t_uint256,t_uint256)"
					},
					{
						"astId": 605,
						"contract": "input/CreateWin.sol:CreateWin",
						"label": "rInvestMoney",
						"offset": 0,
						"slot": "9",
						"type": "t_mapping(t_uint256,t_uint256)"
					},
					{
						"astId": 608,
						"contract": "input/CreateWin.sol:CreateWin",
						"label": "period",
						"offset": 0,
						"slot": "10",
						"type": "t_uint256"
					},
					{
						"astId": 611,
						"contract": "input/CreateWin.sol:CreateWin",
						"label": "uid",
						"offset": 0,
						"slot": "11",
						"type": "t_uint256"
					},
					{
						"astId": 614,
						"contract": "input/CreateWin.sol:CreateWin",
						"label": "rid",
						"offset": 0,
						"slot": "12",
						"type": "t_uint256"
					},
					{
						"astId": 619,
						"contract": "input/CreateWin.sol:CreateWin",
						"label": "lineArrayMapping",
						"offset": 0,
						"slot": "13",
						"type": "t_mapping(t_uint256,t_array(t_uint256)dyn_storage)"
					},
					{
						"astId": 625,
						"contract": "input/CreateWin.sol:CreateWin",
						"label": "userRoundMapping",
						"offset": 0,
						"slot": "14",
						"type": "t_mapping(t_uint256,t_mapping(t_address,t_struct(User)574_storage))"
					},
					{
						"astId": 629,
						"contract": "input/CreateWin.sol:CreateWin",
						"label": "userMapping",
						"offset": 0,
						"slot": "15",
						"type": "t_mapping(t_address,t_struct(UserGlobal)585_storage)"
					},
					{
						"astId": 633,
						"contract": "input/CreateWin.sol:CreateWin",
						"label": "addressMapping",
						"offset": 0,
						"slot": "16",
						"type": "t_mapping(t_string_memory,t_address)"
					},
					{
						"astId": 637,
						"contract": "input/CreateWin.sol:CreateWin",
						"label": "indexMapping",
						"offset": 0,
						"slot": "17",
						"type": "t_mapping(t_uint256,t_address)"
					},
					{
						"astId": 645,
						"contract": "input/CreateWin.sol:CreateWin",
						"label": "userAwardDataMapping",
						"offset": 0,
						"slot": "18",
						"type": "t_mapping(t_uint256,t_mapping(t_address,t_mapping(t_uint256,t_struct(AwardData)592_storage)))"
					},
					{
						"astId": 648,
						"contract": "input/CreateWin.sol:CreateWin",
						"label": "bonuslimit",
						"offset": 0,
						"slot": "19",
						"type": "t_uint256"
					},
					{
						"astId": 651,
						"contract": "input/CreateWin.sol:CreateWin",
						"label": "sendLimit",
						"offset": 0,
						"slot": "20",
						"type": "t_uint256"
					},
					{
						"astId": 654,
						"contract": "input/CreateWin.sol:CreateWin",
						"label": "withdrawLimit",
						"offset": 0,
						"slot": "21",
						"type": "t_uint256"
					},
					{
						"astId": 657,
						"contract": "input/CreateWin.sol:CreateWin",
						"label": "canImport",
						"offset": 0,
						"slot": "22",
						"type": "t_uint256"
					},
					{
						"astId": 660,
						"contract": "input/CreateWin.sol:CreateWin",
						"label": "canSetStartTime",
						"offset": 0,
						"slot": "23",
						"type": "t_uint256"
					}
				],
				"types": {
					"t_address": {
						"encoding": "inplace",
						"label": "address",
						"numberOfBytes": "20"
					},
					"t_address_payable": {
						"encoding": "inplace",
						"label": "address payable",
						"numberOfBytes": "20"
					},
					"t_array(t_uint256)dyn_storage": {
						"base": "t_uint256",
						"encoding": "dynamic_array",
						"label": "uint256[]",
						"numberOfBytes": "32"
					},
					"t_bool": {
						"encoding": "inplace",
						"label": "bool",
						"numberOfBytes": "1"
					},
					"t_mapping(t_address,t_bool)": {
						"encoding": "mapping",
						"key": "t_address",
						"label": "mapping(address => bool)",
						"numberOfBytes": "32",
						"value": "t_bool"
					},
					"t_mapping(t_address,t_mapping(t_uint256,t_struct(AwardData)592_storage))": {
						"encoding": "mapping",
						"key": "t_address",
						"label": "mapping(address => mapping(uint256 => struct CreateWin.AwardData))",
						"numberOfBytes": "32",
						"value": "t_mapping(t_uint256,t_struct(AwardData)592_storage)"
					},
					"t_mapping(t_address,t_struct(User)574_storage)": {
						"encoding": "mapping",
						"key": "t_address",
						"label": "mapping(address => struct CreateWin.User)",
						"numberOfBytes": "32",
						"value": "t_struct(User)574_storage"
					},
					"t_mapping(t_address,t_struct(UserGlobal)585_storage)": {
						"encoding": "mapping",
						"key": "t_address",
						"label": "mapping(address => struct CreateWin.UserGlobal)",
						"numberOfBytes": "32",
						"value": "t_struct(UserGlobal)585_storage"
					},
					"t_mapping(t_string_memory,t_address)": {
						"encoding": "mapping",
						"key": "t_string_memory",
						"label": "mapping(string => address)",
						"numberOfBytes": "32",
						"value": "t_address"
					},
					"t_mapping(t_uint256,t_address)": {
						"encoding": "mapping",
						"key": "t_uint256",
						"label": "mapping(uint256 => address)",
						"numberOfBytes": "32",
						"value": "t_address"
					},
					"t_mapping(t_uint256,t_array(t_uint256)dyn_storage)": {
						"encoding": "mapping",
						"key": "t_uint256",
						"label": "mapping(uint256 => uint256[])",
						"numberOfBytes": "32",
						"value": "t_array(t_uint256)dyn_storage"
					},
					"t_mapping(t_uint256,t_mapping(t_address,t_mapping(t_uint256,t_struct(AwardData)592_storage)))": {
						"encoding": "mapping",
						"key": "t_uint256",
						"label": "mapping(uint256 => mapping(address => mapping(uint256 => struct CreateWin.AwardData)))",
						"numberOfBytes": "32",
						"value": "t_mapping(t_address,t_mapping(t_uint256,t_struct(AwardData)592_storage))"
					},
					"t_mapping(t_uint256,t_mapping(t_address,t_struct(User)574_storage))": {
						"encoding": "mapping",
						"key": "t_uint256",
						"label": "mapping(uint256 => mapping(address => struct CreateWin.User))",
						"numberOfBytes": "32",
						"value": "t_mapping(t_address,t_struct(User)574_storage)"
					},
					"t_mapping(t_uint256,t_struct(AwardData)592_storage)": {
						"encoding": "mapping",
						"key": "t_uint256",
						"label": "mapping(uint256 => struct CreateWin.AwardData)",
						"numberOfBytes": "32",
						"value": "t_struct(AwardData)592_storage"
					},
					"t_mapping(t_uint256,t_uint256)": {
						"encoding": "mapping",
						"key": "t_uint256",
						"label": "mapping(uint256 => uint256)",
						"numberOfBytes": "32",
						"value": "t_uint256"
					},
					"t_string_memory": {
						"encoding": "bytes",
						"label": "string",
						"numberOfBytes": "32"
					},
					"t_string_storage": {
						"encoding": "bytes",
						"label": "string",
						"numberOfBytes": "32"
					},
					"t_struct(AwardData)592_storage": {
						"encoding": "inplace",
						"label": "struct CreateWin.AwardData",
						"members": [
							{
								"astId": 587,
								"contract": "input/CreateWin.sol:CreateWin",
								"label": "oneInvAmount",
								"offset": 0,
								"slot": "0",
								"type": "t_uint256"
							},
							{
								"astId": 589,
								"contract": "input/CreateWin.sol:CreateWin",
								"label": "twoInvAmount",
								"offset": 0,
								"slot": "1",
								"type": "t_uint256"
							},
							{
								"astId": 591,
								"contract": "input/CreateWin.sol:CreateWin",
								"label": "threeInvAmount",
								"offset": 0,
								"slot": "2",
								"type": "t_uint256"
							}
						],
						"numberOfBytes": "96"
					},
					"t_struct(Role)375_storage": {
						"encoding": "inplace",
						"label": "struct Roles.Role",
						"members": [
							{
								"astId": 374,
								"contract": "input/CreateWin.sol:CreateWin",
								"label": "bearer",
								"offset": 0,
								"slot": "0",
								"type": "t_mapping(t_address,t_bool)"
							}
						],
						"numberOfBytes": "32"
					},
					"t_struct(User)574_storage": {
						"encoding": "inplace",
						"label": "struct CreateWin.User",
						"members": [
							{
								"astId": 543,
								"contract": "input/CreateWin.sol:CreateWin",
								"label": "id",
								"offset": 0,
								"slot": "0",
								"type": "t_uint256"
							},
							{
								"astId": 545,
								"contract": "input/CreateWin.sol:CreateWin",
								"label": "userAddress",
								"offset": 0,
								"slot": "1",
								"type": "t_address"
							},
							{
								"astId": 547,
								"contract": "input/CreateWin.sol:CreateWin",
								"label": "freeAmount",
								"offset": 0,
								"slot": "2",
								"type": "t_uint256"
							},
							{
								"astId": 549,
								"contract": "input/CreateWin.sol:CreateWin",
								"label": "freezeAmount",
								"offset": 0,
								"slot": "3",
								"type": "t_uint256"
							},
							{
								"astId": 551,
								"contract": "input/CreateWin.sol:CreateWin",
								"label": "lineAmount",
								"offset": 0,
								"slot": "4",
								"type": "t_uint256"
							},
							{
								"astId": 553,
								"contract": "input/CreateWin.sol:CreateWin",
								"label": "inviteAmonut",
								"offset": 0,
								"slot": "5",
								"type": "t_uint256"
							},
							{
								"astId": 555,
								"contract": "input/CreateWin.sol:CreateWin",
								"label": "dayBonusAmount",
								"offset": 0,
								"slot": "6",
								"type": "t_uint256"
							},
							{
								"astId": 557,
								"contract": "input/CreateWin.sol:CreateWin",
								"label": "bonusAmount",
								"offset": 0,
								"slot": "7",
								"type": "t_uint256"
							},
							{
								"astId": 559,
								"contract": "input/CreateWin.sol:CreateWin",
								"label": "level",
								"offset": 0,
								"slot": "8",
								"type": "t_uint256"
							},
							{
								"astId": 561,
								"contract": "input/CreateWin.sol:CreateWin",
								"label": "lineLevel",
								"offset": 0,
								"slot": "9",
								"type": "t_uint256"
							},
							{
								"astId": 563,
								"contract": "input/CreateWin.sol:CreateWin",
								"label": "resTime",
								"offset": 0,
								"slot": "10",
								"type": "t_uint256"
							},
							{
								"astId": 565,
								"contract": "input/CreateWin.sol:CreateWin",
								"label": "investTimes",
								"offset": 0,
								"slot": "11",
								"type": "t_uint256"
							},
							{
								"astId": 567,
								"contract": "input/CreateWin.sol:CreateWin",
								"label": "inviteCode",
								"offset": 0,
								"slot": "12",
								"type": "t_string_storage"
							},
							{
								"astId": 569,
								"contract": "input/CreateWin.sol:CreateWin",
								"label": "beCode",
								"offset": 0,
								"slot": "13",
								"type": "t_string_storage"
							},
							{
								"astId": 571,
								"contract": "input/CreateWin.sol:CreateWin",
								"label": "rewardIndex",
								"offset": 0,
								"slot": "14",
								"type": "t_uint256"
							},
							{
								"astId": 573,
								"contract": "input/CreateWin.sol:CreateWin",
								"label": "lastRwTime",
								"offset": 0,
								"slot": "15",
								"type": "t_uint256"
							}
						],
						"numberOfBytes": "512"
					},
					"t_struct(UserGlobal)585_storage": {
						"encoding": "inplace",
						"label": "struct CreateWin.UserGlobal",
						"members": [
							{
								"astId": 576,
								"contract": "input/CreateWin.sol:CreateWin",
								"label": "id",
								"offset": 0,
								"slot": "0",
								"type": "t_uint256"
							},
							{
								"astId": 578,
								"contract": "input/CreateWin.sol:CreateWin",
								"label": "userAddress",
								"offset": 0,
								"slot": "1",
								"type": "t_address"
							},
							{
								"astId": 580,
								"contract": "input/CreateWin.sol:CreateWin",
								"label": "inviteCode",
								"offset": 0,
								"slot": "2",
								"type": "t_string_storage"
							},
							{
								"astId": 582,
								"contract": "input/CreateWin.sol:CreateWin",
								"label": "beCode",
								"offset": 0,
								"slot": "3",
								"type": "t_string_storage"
							},
							{
								"astId": 584,
								"contract": "input/CreateWin.sol:CreateWin",
								"label": "status",
								"offset": 0,
								"slot": "4",
								"type": "t_uint256"
							}
						],
						"numberOfBytes": "160"
					},
					"t_uint256": {
						"encoding": "inplace",
						"label": "uint256",
						"numberOfBytes": "32"
					}
				}
			},
			"userdoc": {
				"methods": {}
			}
		}
	}
}