{
	"input/RampInstantEthEscrows.sol": {
		"RampInstantEthEscrows": {
			"abi": [
				{
					"constant": false,
					"inputs": [
						{
							"name": "_pool",
							"type": "address"
						},
						{
							"name": "_receiver",
							"type": "address"
						},
						{
							"name": "_oracle",
							"type": "address"
						},
						{
							"name": "_assetData",
							"type": "bytes"
						},
						{
							"name": "_paymentDetailsHash",
							"type": "bytes32"
						},
						{
							"name": "lockTimeS",
							"type": "uint32"
						}
					],
					"name": "create",
					"outputs": [
						{
							"name": "success",
							"type": "bool"
						}
					],
					"payable": false,
					"stateMutability": "nonpayable",
					"type": "function"
				},
				{
					"constant": true,
					"inputs": [],
					"name": "feeThousandthsPercent",
					"outputs": [
						{
							"name": "",
							"type": "uint16"
						}
					],
					"payable": false,
					"stateMutability": "view",
					"type": "function"
				},
				{
					"constant": true,
					"inputs": [],
					"name": "status",
					"outputs": [
						{
							"name": "",
							"type": "uint8"
						}
					],
					"payable": false,
					"stateMutability": "view",
					"type": "function"
				},
				{
					"constant": false,
					"inputs": [
						{
							"name": "_newCreator",
							"type": "address"
						}
					],
					"name": "changeSwapCreator",
					"outputs": [],
					"payable": false,
					"stateMutability": "nonpayable",
					"type": "function"
				},
				{
					"constant": false,
					"inputs": [
						{
							"name": "_status",
							"type": "uint8"
						}
					],
					"name": "setStatus",
					"outputs": [],
					"payable": false,
					"stateMutability": "nonpayable",
					"type": "function"
				},
				{
					"constant": false,
					"inputs": [
						{
							"name": "_oracle",
							"type": "address"
						}
					],
					"name": "revokeOracle",
					"outputs": [],
					"payable": false,
					"stateMutability": "nonpayable",
					"type": "function"
				},
				{
					"constant": true,
					"inputs": [],
					"name": "ASSET_TYPE",
					"outputs": [
						{
							"name": "",
							"type": "uint16"
						}
					],
					"payable": false,
					"stateMutability": "view",
					"type": "function"
				},
				{
					"constant": true,
					"inputs": [],
					"name": "owner",
					"outputs": [
						{
							"name": "",
							"type": "address"
						}
					],
					"payable": false,
					"stateMutability": "view",
					"type": "function"
				},
				{
					"constant": true,
					"inputs": [
						{
							"name": "_pool",
							"type": "address"
						},
						{
							"name": "_receiver",
							"type": "address"
						},
						{
							"name": "_oracle",
							"type": "address"
						},
						{
							"name": "_assetData",
							"type": "bytes"
						},
						{
							"name": "_paymentDetailsHash",
							"type": "bytes32"
						}
					],
					"name": "getSwapStatus",
					"outputs": [
						{
							"name": "status",
							"type": "uint32"
						}
					],
					"payable": false,
					"stateMutability": "view",
					"type": "function"
				},
				{
					"constant": false,
					"inputs": [
						{
							"name": "_pool",
							"type": "address"
						},
						{
							"name": "_receiver",
							"type": "address"
						},
						{
							"name": "_oracle",
							"type": "address"
						},
						{
							"name": "_assetData",
							"type": "bytes"
						},
						{
							"name": "_paymentDetailsHash",
							"type": "bytes32"
						}
					],
					"name": "release",
					"outputs": [],
					"payable": false,
					"stateMutability": "nonpayable",
					"type": "function"
				},
				{
					"constant": false,
					"inputs": [
						{
							"name": "_newOwner",
							"type": "address"
						}
					],
					"name": "changeOwner",
					"outputs": [],
					"payable": false,
					"stateMutability": "nonpayable",
					"type": "function"
				},
				{
					"constant": false,
					"inputs": [
						{
							"name": "_pool",
							"type": "address"
						},
						{
							"name": "_receiver",
							"type": "address"
						},
						{
							"name": "_oracle",
							"type": "address"
						},
						{
							"name": "_assetData",
							"type": "bytes"
						},
						{
							"name": "_paymentDetailsHash",
							"type": "bytes32"
						}
					],
					"name": "returnFunds",
					"outputs": [],
					"payable": false,
					"stateMutability": "nonpayable",
					"type": "function"
				},
				{
					"constant": false,
					"inputs": [
						{
							"name": "",
							"type": "bytes"
						},
						{
							"name": "_to",
							"type": "address"
						}
					],
					"name": "withdrawFees",
					"outputs": [
						{
							"name": "success",
							"type": "bool"
						}
					],
					"payable": false,
					"stateMutability": "nonpayable",
					"type": "function"
				},
				{
					"constant": false,
					"inputs": [
						{
							"name": "_oracle",
							"type": "address"
						}
					],
					"name": "approveOracle",
					"outputs": [],
					"payable": false,
					"stateMutability": "nonpayable",
					"type": "function"
				},
				{
					"constant": true,
					"inputs": [],
					"name": "minFeeAmount",
					"outputs": [
						{
							"name": "",
							"type": "uint256"
						}
					],
					"payable": false,
					"stateMutability": "view",
					"type": "function"
				},
				{
					"constant": true,
					"inputs": [],
					"name": "VERSION",
					"outputs": [
						{
							"name": "",
							"type": "string"
						}
					],
					"payable": false,
					"stateMutability": "view",
					"type": "function"
				},
				{
					"inputs": [
						{
							"name": "_feeThousandthsPercent",
							"type": "uint16"
						},
						{
							"name": "_minFeeAmount",
							"type": "uint256"
						}
					],
					"payable": false,
					"stateMutability": "nonpayable",
					"type": "constructor"
				},
				{
					"payable": true,
					"stateMutability": "payable",
					"type": "fallback"
				},
				{
					"anonymous": false,
					"inputs": [
						{
							"indexed": true,
							"name": "swapHash",
							"type": "bytes32"
						}
					],
					"name": "Created",
					"type": "event"
				},
				{
					"anonymous": false,
					"inputs": [
						{
							"indexed": true,
							"name": "swapHash",
							"type": "bytes32"
						}
					],
					"name": "Released",
					"type": "event"
				},
				{
					"anonymous": false,
					"inputs": [
						{
							"indexed": true,
							"name": "swapHash",
							"type": "bytes32"
						}
					],
					"name": "PoolReleased",
					"type": "event"
				},
				{
					"anonymous": false,
					"inputs": [
						{
							"indexed": true,
							"name": "swapHash",
							"type": "bytes32"
						}
					],
					"name": "Returned",
					"type": "event"
				},
				{
					"anonymous": false,
					"inputs": [
						{
							"indexed": true,
							"name": "swapHash",
							"type": "bytes32"
						}
					],
					"name": "PoolReturned",
					"type": "event"
				},
				{
					"anonymous": false,
					"inputs": [
						{
							"indexed": false,
							"name": "_oldCreator",
							"type": "address"
						},
						{
							"indexed": false,
							"name": "_newCreator",
							"type": "address"
						}
					],
					"name": "SwapCreatorChanged",
					"type": "event"
				},
				{
					"anonymous": false,
					"inputs": [
						{
							"indexed": false,
							"name": "oldStatus",
							"type": "uint8"
						},
						{
							"indexed": false,
							"name": "newStatus",
							"type": "uint8"
						}
					],
					"name": "StatusChanged",
					"type": "event"
				},
				{
					"anonymous": false,
					"inputs": [
						{
							"indexed": false,
							"name": "oldOwner",
							"type": "address"
						},
						{
							"indexed": false,
							"name": "newOwner",
							"type": "address"
						}
					],
					"name": "OwnerChanged",
					"type": "event"
				}
			],
			"devdoc": {
				"methods": {}
			},
			"evm": {
				"assembly": "    /* \"input/RampInstantEthEscrows.sol\":16437:16669  contract RampInstantEthEscrows is RampInstantEscrows, EthAdapter {... */\n  mstore(0x40, 0x80)\n    /* \"input/RampInstantEthEscrows.sol\":4400:4413  Status.ACTIVE */\n  0x03\n    /* \"input/RampInstantEthEscrows.sol\":4377:4413  Status public status = Status.ACTIVE */\n  0x00\n  exp(0x0100, 0x14)\n  dup2\n  sload\n  dup2\n  0xff\n  mul\n  not\n  and\n  swap1\n  dup4\n  0x03\n  dup2\n  gt\n  iszero\n  tag_1\n  jumpi\n  invalid\ntag_1:\n  mul\n  or\n  swap1\n  sstore\n  pop\n    /* \"input/RampInstantEthEscrows.sol\":14822:14823  0 */\n  0x00\n    /* \"input/RampInstantEthEscrows.sol\":14787:14823  uint256 internal accumulatedFees = 0 */\n  0x05\n  sstore\n    /* \"input/RampInstantEthEscrows.sol\":16509:16666  constructor(... */\n  callvalue\n    /* \"--CODEGEN--\":8:17   */\n  dup1\n    /* \"--CODEGEN--\":5:7   */\n  iszero\n  tag_2\n  jumpi\n    /* \"--CODEGEN--\":30:31   */\n  0x00\n    /* \"--CODEGEN--\":27:28   */\n  dup1\n    /* \"--CODEGEN--\":20:32   */\n  revert\n    /* \"--CODEGEN--\":5:7   */\ntag_2:\n    /* \"input/RampInstantEthEscrows.sol\":16509:16666  constructor(... */\n  pop\n  mload(0x40)\n  sub(codesize, bytecodeSize)\n  dup1\n  bytecodeSize\n  dup4\n  codecopy\n  dup2\n  dup2\n  add\n  0x40\n  mstore\n    /* \"--CODEGEN--\":13:15   */\n  0x40\n    /* \"--CODEGEN--\":8:11   */\n  dup2\n    /* \"--CODEGEN--\":5:16   */\n  lt\n    /* \"--CODEGEN--\":2:4   */\n  iszero\n  tag_3\n  jumpi\n    /* \"--CODEGEN--\":29:30   */\n  0x00\n    /* \"--CODEGEN--\":26:27   */\n  dup1\n    /* \"--CODEGEN--\":19:31   */\n  revert\n    /* \"--CODEGEN--\":2:4   */\ntag_3:\n    /* \"input/RampInstantEthEscrows.sol\":16509:16666  constructor(... */\n  dup2\n  add\n  swap1\n  dup1\n  dup1\n  mload\n  swap1\n  0x20\n  add\n  swap1\n  swap3\n  swap2\n  swap1\n  dup1\n  mload\n  swap1\n  0x20\n  add\n  swap1\n  swap3\n  swap2\n  swap1\n  pop\n  pop\n  pop\n    /* \"input/RampInstantEthEscrows.sol\":16625:16647  _feeThousandthsPercent */\n  dup2\n    /* \"input/RampInstantEthEscrows.sol\":16649:16662  _minFeeAmount */\n  dup2\n    /* \"input/RampInstantEthEscrows.sol\":14723:14724  1 */\n  0x01\n    /* \"input/RampInstantEthEscrows.sol\":3890:3900  msg.sender */\n  caller\n    /* \"input/RampInstantEthEscrows.sol\":3882:3887  owner */\n  0x00\n  dup1\n    /* \"input/RampInstantEthEscrows.sol\":3882:3900  owner = msg.sender */\n  0x0100\n  exp\n  dup2\n  sload\n  dup2\n  0xffffffffffffffffffffffffffffffffffffffff\n  mul\n  not\n  and\n  swap1\n  dup4\n  0xffffffffffffffffffffffffffffffffffffffff\n  and\n  mul\n  or\n  swap1\n  sstore\n  pop\n    /* \"input/RampInstantEthEscrows.sol\":4817:4821  true */\n  0x01\n    /* \"input/RampInstantEthEscrows.sol\":4795:4802  oracles */\n  dup1\n    /* \"input/RampInstantEthEscrows.sol\":4795:4814  oracles[msg.sender] */\n  0x00\n    /* \"input/RampInstantEthEscrows.sol\":4803:4813  msg.sender */\n  caller\n    /* \"input/RampInstantEthEscrows.sol\":4795:4814  oracles[msg.sender] */\n  0xffffffffffffffffffffffffffffffffffffffff\n  and\n  0xffffffffffffffffffffffffffffffffffffffff\n  and\n  dup2\n  mstore\n  0x20\n  add\n  swap1\n  dup2\n  mstore\n  0x20\n  add\n  0x00\n  keccak256\n  0x00\n    /* \"input/RampInstantEthEscrows.sol\":4795:4821  oracles[msg.sender] = true */\n  0x0100\n  exp\n  dup2\n  sload\n  dup2\n  0xff\n  mul\n  not\n  and\n  swap1\n  dup4\n  iszero\n  iszero\n  mul\n  or\n  swap1\n  sstore\n  pop\n    /* \"input/RampInstantEthEscrows.sol\":5611:5621  msg.sender */\n  caller\n    /* \"input/RampInstantEthEscrows.sol\":5597:5608  swapCreator */\n  0x02\n  0x00\n    /* \"input/RampInstantEthEscrows.sol\":5597:5621  swapCreator = msg.sender */\n  0x0100\n  exp\n  dup2\n  sload\n  dup2\n  0xffffffffffffffffffffffffffffffffffffffff\n  mul\n  not\n  and\n  swap1\n  dup4\n  0xffffffffffffffffffffffffffffffffffffffff\n  and\n  mul\n  or\n  swap1\n  sstore\n  pop\n    /* \"input/RampInstantEthEscrows.sol\":1322:1331  assetType */\n  dup1\n    /* \"input/RampInstantEthEscrows.sol\":1309:1319  ASSET_TYPE */\n  0x02\n  0x14\n    /* \"input/RampInstantEthEscrows.sol\":1309:1331  ASSET_TYPE = assetType */\n  0x0100\n  exp\n  dup2\n  sload\n  dup2\n  0xffff\n  mul\n  not\n  and\n  swap1\n  dup4\n  0xffff\n  and\n  mul\n  or\n  swap1\n  sstore\n  pop\n    /* \"input/RampInstantEthEscrows.sol\":1246:1338  constructor(... */\n  pop\n    /* \"input/RampInstantEthEscrows.sol\":6192:6199  1 << 16 */\n  0x010000\n    /* \"input/RampInstantEthEscrows.sol\":6166:6188  _feeThousandthsPercent */\n  dup3\n    /* \"input/RampInstantEthEscrows.sol\":6166:6200  _feeThousandthsPercent < (1 << 16) */\n  0xffff\n  and\n  lt\n    /* \"input/RampInstantEthEscrows.sol\":6158:6219  require(_feeThousandthsPercent < (1 << 16), \"fee % too high\") */\n  tag_16\n  jumpi\n  mload(0x40)\n  0x08c379a000000000000000000000000000000000000000000000000000000000\n  dup2\n  mstore\n  0x04\n  add\n  dup1\n  dup1\n  0x20\n  add\n  dup3\n  dup2\n  sub\n  dup3\n  mstore\n  0x0e\n  dup2\n  mstore\n  0x20\n  add\n  dup1\n  0x666565202520746f6f2068696768000000000000000000000000000000000000\n  dup2\n  mstore\n  pop\n  0x20\n  add\n  swap2\n  pop\n  pop\n  mload(0x40)\n  dup1\n  swap2\n  sub\n  swap1\n  revert\ntag_16:\n    /* \"input/RampInstantEthEscrows.sol\":6255:6263  1 << 255 */\n  0x8000000000000000000000000000000000000000000000000000000000000000\n    /* \"input/RampInstantEthEscrows.sol\":6237:6250  _minFeeAmount */\n  dup2\n    /* \"input/RampInstantEthEscrows.sol\":6237:6264  _minFeeAmount <= (1 << 255) */\n  gt\n  iszero\n    /* \"input/RampInstantEthEscrows.sol\":6229:6290  require(_minFeeAmount <= (1 << 255), \"minFeeAmount too high\") */\n  tag_17\n  jumpi\n  mload(0x40)\n  0x08c379a000000000000000000000000000000000000000000000000000000000\n  dup2\n  mstore\n  0x04\n  add\n  dup1\n  dup1\n  0x20\n  add\n  dup3\n  dup2\n  sub\n  dup3\n  mstore\n  0x15\n  dup2\n  mstore\n  0x20\n  add\n  dup1\n  0x6d696e466565416d6f756e7420746f6f20686967680000000000000000000000\n  dup2\n  mstore\n  pop\n  0x20\n  add\n  swap2\n  pop\n  pop\n  mload(0x40)\n  dup1\n  swap2\n  sub\n  swap1\n  revert\ntag_17:\n    /* \"input/RampInstantEthEscrows.sol\":6324:6346  _feeThousandthsPercent */\n  dup2\n    /* \"input/RampInstantEthEscrows.sol\":6300:6321  feeThousandthsPercent */\n  0x02\n  0x16\n    /* \"input/RampInstantEthEscrows.sol\":6300:6346  feeThousandthsPercent = _feeThousandthsPercent */\n  0x0100\n  exp\n  dup2\n  sload\n  dup2\n  0xffff\n  mul\n  not\n  and\n  swap1\n  dup4\n  0xffff\n  and\n  mul\n  or\n  swap1\n  sstore\n  pop\n    /* \"input/RampInstantEthEscrows.sol\":6371:6384  _minFeeAmount */\n  dup1\n    /* \"input/RampInstantEthEscrows.sol\":6356:6368  minFeeAmount */\n  0x03\n    /* \"input/RampInstantEthEscrows.sol\":6356:6384  minFeeAmount = _minFeeAmount */\n  dup2\n  swap1\n  sstore\n  pop\n    /* \"input/RampInstantEthEscrows.sol\":6075:6391  constructor(uint16 _feeThousandthsPercent, uint256 _minFeeAmount) public {... */\n  pop\n  pop\n    /* \"input/RampInstantEthEscrows.sol\":16509:16666  constructor(... */\n  pop\n  pop\n    /* \"input/RampInstantEthEscrows.sol\":16437:16669  contract RampInstantEthEscrows is RampInstantEscrows, EthAdapter {... */\n  dataSize(sub_0)\n  dup1\n  dataOffset(sub_0)\n  0x00\n  codecopy\n  0x00\n  return\nstop\n\nsub_0: assembly {\n        /* \"input/RampInstantEthEscrows.sol\":16437:16669  contract RampInstantEthEscrows is RampInstantEscrows, EthAdapter {... */\n      mstore(0x40, 0x80)\n      jumpi(tag_1, lt(calldatasize, 0x04))\n      shr(0xe0, calldataload(0x00))\n      dup1\n      0x946519f1\n      gt\n      tag_18\n      jumpi\n      dup1\n      0xbfe5d9c5\n      gt\n      tag_19\n      jumpi\n      dup1\n      0xbfe5d9c5\n      eq\n      tag_14\n      jumpi\n      dup1\n      0xf47bc89c\n      eq\n      tag_15\n      jumpi\n      dup1\n      0xf5d36475\n      eq\n      tag_16\n      jumpi\n      dup1\n      0xffa1ad74\n      eq\n      tag_17\n      jumpi\n      jump(tag_1)\n    tag_19:\n      dup1\n      0x946519f1\n      eq\n      tag_10\n      jumpi\n      dup1\n      0x9a3c6e29\n      eq\n      tag_11\n      jumpi\n      dup1\n      0xa6f9dae1\n      eq\n      tag_12\n      jumpi\n      dup1\n      0xa80e7acb\n      eq\n      tag_13\n      jumpi\n      jump(tag_1)\n    tag_18:\n      dup1\n      0x2e49d78b\n      gt\n      tag_20\n      jumpi\n      dup1\n      0x2e49d78b\n      eq\n      tag_6\n      jumpi\n      dup1\n      0x5983e6b0\n      eq\n      tag_7\n      jumpi\n      dup1\n      0x8815eb39\n      eq\n      tag_8\n      jumpi\n      dup1\n      0x8da5cb5b\n      eq\n      tag_9\n      jumpi\n      jump(tag_1)\n    tag_20:\n      dup1\n      0x0b898c9e\n      eq\n      tag_2\n      jumpi\n      dup1\n      0x0bc2aad2\n      eq\n      tag_3\n      jumpi\n      dup1\n      0x200d2ed2\n      eq\n      tag_4\n      jumpi\n      dup1\n      0x26bdee37\n      eq\n      tag_5\n      jumpi\n    tag_1:\n        /* \"input/RampInstantEthEscrows.sol\":16215:16216  0 */\n      0x00\n        /* \"input/RampInstantEthEscrows.sol\":16196:16204  msg.data */\n      dup1\n      calldatasize\n        /* \"input/RampInstantEthEscrows.sol\":16196:16211  msg.data.length */\n      swap1\n      pop\n        /* \"input/RampInstantEthEscrows.sol\":16196:16216  msg.data.length == 0 */\n      eq\n        /* \"input/RampInstantEthEscrows.sol\":16188:16242  require(msg.data.length == 0, \"invalid method called\") */\n      tag_23\n      jumpi\n      mload(0x40)\n      0x08c379a000000000000000000000000000000000000000000000000000000000\n      dup2\n      mstore\n      0x04\n      add\n      dup1\n      dup1\n      0x20\n      add\n      dup3\n      dup2\n      sub\n      dup3\n      mstore\n      0x15\n      dup2\n      mstore\n      0x20\n      add\n      dup1\n      0x696e76616c6964206d6574686f642063616c6c65640000000000000000000000\n      dup2\n      mstore\n      pop\n      0x20\n      add\n      swap2\n      pop\n      pop\n      mload(0x40)\n      dup1\n      swap2\n      sub\n      swap1\n      revert\n    tag_23:\n        /* \"input/RampInstantEthEscrows.sol\":16437:16669  contract RampInstantEthEscrows is RampInstantEscrows, EthAdapter {... */\n      stop\n        /* \"input/RampInstantEthEscrows.sol\":9101:10453  function create(... */\n    tag_2:\n      callvalue\n        /* \"--CODEGEN--\":8:17   */\n      dup1\n        /* \"--CODEGEN--\":5:7   */\n      iszero\n      tag_24\n      jumpi\n        /* \"--CODEGEN--\":30:31   */\n      0x00\n        /* \"--CODEGEN--\":27:28   */\n      dup1\n        /* \"--CODEGEN--\":20:32   */\n      revert\n        /* \"--CODEGEN--\":5:7   */\n    tag_24:\n        /* \"input/RampInstantEthEscrows.sol\":9101:10453  function create(... */\n      pop\n      tag_25\n      0x04\n      dup1\n      calldatasize\n      sub\n        /* \"--CODEGEN--\":13:16   */\n      0xc0\n        /* \"--CODEGEN--\":8:11   */\n      dup2\n        /* \"--CODEGEN--\":5:17   */\n      lt\n        /* \"--CODEGEN--\":2:4   */\n      iszero\n      tag_26\n      jumpi\n        /* \"--CODEGEN--\":30:31   */\n      0x00\n        /* \"--CODEGEN--\":27:28   */\n      dup1\n        /* \"--CODEGEN--\":20:32   */\n      revert\n        /* \"--CODEGEN--\":2:4   */\n    tag_26:\n        /* \"input/RampInstantEthEscrows.sol\":9101:10453  function create(... */\n      dup2\n      add\n      swap1\n      dup1\n      dup1\n      calldataload\n      0xffffffffffffffffffffffffffffffffffffffff\n      and\n      swap1\n      0x20\n      add\n      swap1\n      swap3\n      swap2\n      swap1\n      dup1\n      calldataload\n      0xffffffffffffffffffffffffffffffffffffffff\n      and\n      swap1\n      0x20\n      add\n      swap1\n      swap3\n      swap2\n      swap1\n      dup1\n      calldataload\n      0xffffffffffffffffffffffffffffffffffffffff\n      and\n      swap1\n      0x20\n      add\n      swap1\n      swap3\n      swap2\n      swap1\n      dup1\n      calldataload\n      swap1\n      0x20\n      add\n      swap1\n        /* \"--CODEGEN--\":21:32   */\n      0x0100000000\n        /* \"--CODEGEN--\":8:19   */\n      dup2\n        /* \"--CODEGEN--\":5:33   */\n      gt\n        /* \"--CODEGEN--\":2:4   */\n      iszero\n      tag_27\n      jumpi\n        /* \"--CODEGEN--\":46:47   */\n      0x00\n        /* \"--CODEGEN--\":43:44   */\n      dup1\n        /* \"--CODEGEN--\":36:48   */\n      revert\n        /* \"--CODEGEN--\":2:4   */\n    tag_27:\n        /* \"input/RampInstantEthEscrows.sol\":9101:10453  function create(... */\n      dup3\n      add\n        /* \"--CODEGEN--\":35:44   */\n      dup4\n        /* \"--CODEGEN--\":28:32   */\n      0x20\n        /* \"--CODEGEN--\":12:26   */\n      dup3\n        /* \"--CODEGEN--\":8:33   */\n      add\n        /* \"--CODEGEN--\":5:45   */\n      gt\n        /* \"--CODEGEN--\":2:4   */\n      iszero\n      tag_28\n      jumpi\n        /* \"--CODEGEN--\":58:59   */\n      0x00\n        /* \"--CODEGEN--\":55:56   */\n      dup1\n        /* \"--CODEGEN--\":48:60   */\n      revert\n        /* \"--CODEGEN--\":2:4   */\n    tag_28:\n        /* \"input/RampInstantEthEscrows.sol\":9101:10453  function create(... */\n      dup1\n      calldataload\n      swap1\n      0x20\n      add\n      swap2\n        /* \"--CODEGEN--\":100:109   */\n      dup5\n        /* \"--CODEGEN--\":95:96   */\n      0x01\n        /* \"--CODEGEN--\":81:93   */\n      dup4\n        /* \"--CODEGEN--\":77:97   */\n      mul\n        /* \"--CODEGEN--\":67:75   */\n      dup5\n        /* \"--CODEGEN--\":63:98   */\n      add\n        /* \"--CODEGEN--\":60:110   */\n      gt\n        /* \"--CODEGEN--\":39:50   */\n      0x0100000000\n        /* \"--CODEGEN--\":25:37   */\n      dup4\n        /* \"--CODEGEN--\":22:51   */\n      gt\n        /* \"--CODEGEN--\":11:118   */\n      or\n        /* \"--CODEGEN--\":8:10   */\n      iszero\n      tag_29\n      jumpi\n        /* \"--CODEGEN--\":131:132   */\n      0x00\n        /* \"--CODEGEN--\":128:129   */\n      dup1\n        /* \"--CODEGEN--\":121:133   */\n      revert\n        /* \"--CODEGEN--\":8:10   */\n    tag_29:\n        /* \"input/RampInstantEthEscrows.sol\":9101:10453  function create(... */\n      swap1\n      swap2\n      swap3\n      swap4\n      swap2\n      swap3\n      swap4\n      swap1\n      dup1\n      calldataload\n      swap1\n      0x20\n      add\n      swap1\n      swap3\n      swap2\n      swap1\n      dup1\n      calldataload\n      0xffffffff\n      and\n      swap1\n      0x20\n      add\n      swap1\n      swap3\n      swap2\n      swap1\n      pop\n      pop\n      pop\n      tag_30\n      jump\t// in\n    tag_25:\n      mload(0x40)\n      dup1\n      dup3\n      iszero\n      iszero\n      iszero\n      iszero\n      dup2\n      mstore\n      0x20\n      add\n      swap2\n      pop\n      pop\n      mload(0x40)\n      dup1\n      swap2\n      sub\n      swap1\n      return\n        /* \"input/RampInstantEthEscrows.sol\":6000:6035  uint16 public feeThousandthsPercent */\n    tag_3:\n      callvalue\n        /* \"--CODEGEN--\":8:17   */\n      dup1\n        /* \"--CODEGEN--\":5:7   */\n      iszero\n      tag_31\n      jumpi\n        /* \"--CODEGEN--\":30:31   */\n      0x00\n        /* \"--CODEGEN--\":27:28   */\n      dup1\n        /* \"--CODEGEN--\":20:32   */\n      revert\n        /* \"--CODEGEN--\":5:7   */\n    tag_31:\n        /* \"input/RampInstantEthEscrows.sol\":6000:6035  uint16 public feeThousandthsPercent */\n      pop\n      tag_32\n      tag_33\n      jump\t// in\n    tag_32:\n      mload(0x40)\n      dup1\n      dup3\n      0xffff\n      and\n      0xffff\n      and\n      dup2\n      mstore\n      0x20\n      add\n      swap2\n      pop\n      pop\n      mload(0x40)\n      dup1\n      swap2\n      sub\n      swap1\n      return\n        /* \"input/RampInstantEthEscrows.sol\":4377:4413  Status public status = Status.ACTIVE */\n    tag_4:\n      callvalue\n        /* \"--CODEGEN--\":8:17   */\n      dup1\n        /* \"--CODEGEN--\":5:7   */\n      iszero\n      tag_34\n      jumpi\n        /* \"--CODEGEN--\":30:31   */\n      0x00\n        /* \"--CODEGEN--\":27:28   */\n      dup1\n        /* \"--CODEGEN--\":20:32   */\n      revert\n        /* \"--CODEGEN--\":5:7   */\n    tag_34:\n        /* \"input/RampInstantEthEscrows.sol\":4377:4413  Status public status = Status.ACTIVE */\n      pop\n      tag_35\n      tag_36\n      jump\t// in\n    tag_35:\n      mload(0x40)\n      dup1\n      dup3\n      0x03\n      dup2\n      gt\n      iszero\n      tag_37\n      jumpi\n      invalid\n    tag_37:\n      0xff\n      and\n      dup2\n      mstore\n      0x20\n      add\n      swap2\n      pop\n      pop\n      mload(0x40)\n      dup1\n      swap2\n      sub\n      swap1\n      return\n        /* \"input/RampInstantEthEscrows.sol\":5634:5799  function changeSwapCreator(address _newCreator) public onlyOwner {... */\n    tag_5:\n      callvalue\n        /* \"--CODEGEN--\":8:17   */\n      dup1\n        /* \"--CODEGEN--\":5:7   */\n      iszero\n      tag_38\n      jumpi\n        /* \"--CODEGEN--\":30:31   */\n      0x00\n        /* \"--CODEGEN--\":27:28   */\n      dup1\n        /* \"--CODEGEN--\":20:32   */\n      revert\n        /* \"--CODEGEN--\":5:7   */\n    tag_38:\n        /* \"input/RampInstantEthEscrows.sol\":5634:5799  function changeSwapCreator(address _newCreator) public onlyOwner {... */\n      pop\n      tag_39\n      0x04\n      dup1\n      calldatasize\n      sub\n        /* \"--CODEGEN--\":13:15   */\n      0x20\n        /* \"--CODEGEN--\":8:11   */\n      dup2\n        /* \"--CODEGEN--\":5:16   */\n      lt\n        /* \"--CODEGEN--\":2:4   */\n      iszero\n      tag_40\n      jumpi\n        /* \"--CODEGEN--\":29:30   */\n      0x00\n        /* \"--CODEGEN--\":26:27   */\n      dup1\n        /* \"--CODEGEN--\":19:31   */\n      revert\n        /* \"--CODEGEN--\":2:4   */\n    tag_40:\n        /* \"input/RampInstantEthEscrows.sol\":5634:5799  function changeSwapCreator(address _newCreator) public onlyOwner {... */\n      dup2\n      add\n      swap1\n      dup1\n      dup1\n      calldataload\n      0xffffffffffffffffffffffffffffffffffffffff\n      and\n      swap1\n      0x20\n      add\n      swap1\n      swap3\n      swap2\n      swap1\n      pop\n      pop\n      pop\n      tag_41\n      jump\t// in\n    tag_39:\n      stop\n        /* \"input/RampInstantEthEscrows.sol\":4420:4552  function setStatus(Status _status) external onlyOwner {... */\n    tag_6:\n      callvalue\n        /* \"--CODEGEN--\":8:17   */\n      dup1\n        /* \"--CODEGEN--\":5:7   */\n      iszero\n      tag_42\n      jumpi\n        /* \"--CODEGEN--\":30:31   */\n      0x00\n        /* \"--CODEGEN--\":27:28   */\n      dup1\n        /* \"--CODEGEN--\":20:32   */\n      revert\n        /* \"--CODEGEN--\":5:7   */\n    tag_42:\n        /* \"input/RampInstantEthEscrows.sol\":4420:4552  function setStatus(Status _status) external onlyOwner {... */\n      pop\n      tag_43\n      0x04\n      dup1\n      calldatasize\n      sub\n        /* \"--CODEGEN--\":13:15   */\n      0x20\n        /* \"--CODEGEN--\":8:11   */\n      dup2\n        /* \"--CODEGEN--\":5:16   */\n      lt\n        /* \"--CODEGEN--\":2:4   */\n      iszero\n      tag_44\n      jumpi\n        /* \"--CODEGEN--\":29:30   */\n      0x00\n        /* \"--CODEGEN--\":26:27   */\n      dup1\n        /* \"--CODEGEN--\":19:31   */\n      revert\n        /* \"--CODEGEN--\":2:4   */\n    tag_44:\n        /* \"input/RampInstantEthEscrows.sol\":4420:4552  function setStatus(Status _status) external onlyOwner {... */\n      dup2\n      add\n      swap1\n      dup1\n      dup1\n      calldataload\n      0xff\n      and\n      swap1\n      0x20\n      add\n      swap1\n      swap3\n      swap2\n      swap1\n      pop\n      pop\n      pop\n      tag_45\n      jump\t// in\n    tag_43:\n      stop\n        /* \"input/RampInstantEthEscrows.sol\":4939:5038  function revokeOracle(address _oracle) external onlyOwner {... */\n    tag_7:\n      callvalue\n        /* \"--CODEGEN--\":8:17   */\n      dup1\n        /* \"--CODEGEN--\":5:7   */\n      iszero\n      tag_46\n      jumpi\n        /* \"--CODEGEN--\":30:31   */\n      0x00\n        /* \"--CODEGEN--\":27:28   */\n      dup1\n        /* \"--CODEGEN--\":20:32   */\n      revert\n        /* \"--CODEGEN--\":5:7   */\n    tag_46:\n        /* \"input/RampInstantEthEscrows.sol\":4939:5038  function revokeOracle(address _oracle) external onlyOwner {... */\n      pop\n      tag_47\n      0x04\n      dup1\n      calldatasize\n      sub\n        /* \"--CODEGEN--\":13:15   */\n      0x20\n        /* \"--CODEGEN--\":8:11   */\n      dup2\n        /* \"--CODEGEN--\":5:16   */\n      lt\n        /* \"--CODEGEN--\":2:4   */\n      iszero\n      tag_48\n      jumpi\n        /* \"--CODEGEN--\":29:30   */\n      0x00\n        /* \"--CODEGEN--\":26:27   */\n      dup1\n        /* \"--CODEGEN--\":19:31   */\n      revert\n        /* \"--CODEGEN--\":2:4   */\n    tag_48:\n        /* \"input/RampInstantEthEscrows.sol\":4939:5038  function revokeOracle(address _oracle) external onlyOwner {... */\n      dup2\n      add\n      swap1\n      dup1\n      dup1\n      calldataload\n      0xffffffffffffffffffffffffffffffffffffffff\n      and\n      swap1\n      0x20\n      add\n      swap1\n      swap3\n      swap2\n      swap1\n      pop\n      pop\n      pop\n      tag_49\n      jump\t// in\n    tag_47:\n      stop\n        /* \"input/RampInstantEthEscrows.sol\":1215:1239  uint16 public ASSET_TYPE */\n    tag_8:\n      callvalue\n        /* \"--CODEGEN--\":8:17   */\n      dup1\n        /* \"--CODEGEN--\":5:7   */\n      iszero\n      tag_50\n      jumpi\n        /* \"--CODEGEN--\":30:31   */\n      0x00\n        /* \"--CODEGEN--\":27:28   */\n      dup1\n        /* \"--CODEGEN--\":20:32   */\n      revert\n        /* \"--CODEGEN--\":5:7   */\n    tag_50:\n        /* \"input/RampInstantEthEscrows.sol\":1215:1239  uint16 public ASSET_TYPE */\n      pop\n      tag_51\n      tag_52\n      jump\t// in\n    tag_51:\n      mload(0x40)\n      dup1\n      dup3\n      0xffff\n      and\n      0xffff\n      and\n      dup2\n      mstore\n      0x20\n      add\n      swap2\n      pop\n      pop\n      mload(0x40)\n      dup1\n      swap2\n      sub\n      swap1\n      return\n        /* \"input/RampInstantEthEscrows.sol\":3761:3781  address public owner */\n    tag_9:\n      callvalue\n        /* \"--CODEGEN--\":8:17   */\n      dup1\n        /* \"--CODEGEN--\":5:7   */\n      iszero\n      tag_53\n      jumpi\n        /* \"--CODEGEN--\":30:31   */\n      0x00\n        /* \"--CODEGEN--\":27:28   */\n      dup1\n        /* \"--CODEGEN--\":20:32   */\n      revert\n        /* \"--CODEGEN--\":5:7   */\n    tag_53:\n        /* \"input/RampInstantEthEscrows.sol\":3761:3781  address public owner */\n      pop\n      tag_54\n      tag_55\n      jump\t// in\n    tag_54:\n      mload(0x40)\n      dup1\n      dup3\n      0xffffffffffffffffffffffffffffffffffffffff\n      and\n      0xffffffffffffffffffffffffffffffffffffffff\n      and\n      dup2\n      mstore\n      0x20\n      add\n      swap2\n      pop\n      pop\n      mload(0x40)\n      dup1\n      swap2\n      sub\n      swap1\n      return\n        /* \"input/RampInstantEthEscrows.sol\":13124:13510  function getSwapStatus(... */\n    tag_10:\n      callvalue\n        /* \"--CODEGEN--\":8:17   */\n      dup1\n        /* \"--CODEGEN--\":5:7   */\n      iszero\n      tag_56\n      jumpi\n        /* \"--CODEGEN--\":30:31   */\n      0x00\n        /* \"--CODEGEN--\":27:28   */\n      dup1\n        /* \"--CODEGEN--\":20:32   */\n      revert\n        /* \"--CODEGEN--\":5:7   */\n    tag_56:\n        /* \"input/RampInstantEthEscrows.sol\":13124:13510  function getSwapStatus(... */\n      pop\n      tag_57\n      0x04\n      dup1\n      calldatasize\n      sub\n        /* \"--CODEGEN--\":13:16   */\n      0xa0\n        /* \"--CODEGEN--\":8:11   */\n      dup2\n        /* \"--CODEGEN--\":5:17   */\n      lt\n        /* \"--CODEGEN--\":2:4   */\n      iszero\n      tag_58\n      jumpi\n        /* \"--CODEGEN--\":30:31   */\n      0x00\n        /* \"--CODEGEN--\":27:28   */\n      dup1\n        /* \"--CODEGEN--\":20:32   */\n      revert\n        /* \"--CODEGEN--\":2:4   */\n    tag_58:\n        /* \"input/RampInstantEthEscrows.sol\":13124:13510  function getSwapStatus(... */\n      dup2\n      add\n      swap1\n      dup1\n      dup1\n      calldataload\n      0xffffffffffffffffffffffffffffffffffffffff\n      and\n      swap1\n      0x20\n      add\n      swap1\n      swap3\n      swap2\n      swap1\n      dup1\n      calldataload\n      0xffffffffffffffffffffffffffffffffffffffff\n      and\n      swap1\n      0x20\n      add\n      swap1\n      swap3\n      swap2\n      swap1\n      dup1\n      calldataload\n      0xffffffffffffffffffffffffffffffffffffffff\n      and\n      swap1\n      0x20\n      add\n      swap1\n      swap3\n      swap2\n      swap1\n      dup1\n      calldataload\n      swap1\n      0x20\n      add\n      swap1\n        /* \"--CODEGEN--\":21:32   */\n      0x0100000000\n        /* \"--CODEGEN--\":8:19   */\n      dup2\n        /* \"--CODEGEN--\":5:33   */\n      gt\n        /* \"--CODEGEN--\":2:4   */\n      iszero\n      tag_59\n      jumpi\n        /* \"--CODEGEN--\":46:47   */\n      0x00\n        /* \"--CODEGEN--\":43:44   */\n      dup1\n        /* \"--CODEGEN--\":36:48   */\n      revert\n        /* \"--CODEGEN--\":2:4   */\n    tag_59:\n        /* \"input/RampInstantEthEscrows.sol\":13124:13510  function getSwapStatus(... */\n      dup3\n      add\n        /* \"--CODEGEN--\":35:44   */\n      dup4\n        /* \"--CODEGEN--\":28:32   */\n      0x20\n        /* \"--CODEGEN--\":12:26   */\n      dup3\n        /* \"--CODEGEN--\":8:33   */\n      add\n        /* \"--CODEGEN--\":5:45   */\n      gt\n        /* \"--CODEGEN--\":2:4   */\n      iszero\n      tag_60\n      jumpi\n        /* \"--CODEGEN--\":58:59   */\n      0x00\n        /* \"--CODEGEN--\":55:56   */\n      dup1\n        /* \"--CODEGEN--\":48:60   */\n      revert\n        /* \"--CODEGEN--\":2:4   */\n    tag_60:\n        /* \"input/RampInstantEthEscrows.sol\":13124:13510  function getSwapStatus(... */\n      dup1\n      calldataload\n      swap1\n      0x20\n      add\n      swap2\n        /* \"--CODEGEN--\":100:109   */\n      dup5\n        /* \"--CODEGEN--\":95:96   */\n      0x01\n        /* \"--CODEGEN--\":81:93   */\n      dup4\n        /* \"--CODEGEN--\":77:97   */\n      mul\n        /* \"--CODEGEN--\":67:75   */\n      dup5\n        /* \"--CODEGEN--\":63:98   */\n      add\n        /* \"--CODEGEN--\":60:110   */\n      gt\n        /* \"--CODEGEN--\":39:50   */\n      0x0100000000\n        /* \"--CODEGEN--\":25:37   */\n      dup4\n        /* \"--CODEGEN--\":22:51   */\n      gt\n        /* \"--CODEGEN--\":11:118   */\n      or\n        /* \"--CODEGEN--\":8:10   */\n      iszero\n      tag_61\n      jumpi\n        /* \"--CODEGEN--\":131:132   */\n      0x00\n        /* \"--CODEGEN--\":128:129   */\n      dup1\n        /* \"--CODEGEN--\":121:133   */\n      revert\n        /* \"--CODEGEN--\":8:10   */\n    tag_61:\n        /* \"input/RampInstantEthEscrows.sol\":13124:13510  function getSwapStatus(... */\n      swap1\n      swap2\n      swap3\n      swap4\n      swap2\n      swap3\n      swap4\n      swap1\n      dup1\n      calldataload\n      swap1\n      0x20\n      add\n      swap1\n      swap3\n      swap2\n      swap1\n      pop\n      pop\n      pop\n      tag_62\n      jump\t// in\n    tag_57:\n      mload(0x40)\n      dup1\n      dup3\n      0xffffffff\n      and\n      0xffffffff\n      and\n      dup2\n      mstore\n      0x20\n      add\n      swap2\n      pop\n      pop\n      mload(0x40)\n      dup1\n      swap2\n      sub\n      swap1\n      return\n        /* \"input/RampInstantEthEscrows.sol\":10913:11715  function release(... */\n    tag_11:\n      callvalue\n        /* \"--CODEGEN--\":8:17   */\n      dup1\n        /* \"--CODEGEN--\":5:7   */\n      iszero\n      tag_63\n      jumpi\n        /* \"--CODEGEN--\":30:31   */\n      0x00\n        /* \"--CODEGEN--\":27:28   */\n      dup1\n        /* \"--CODEGEN--\":20:32   */\n      revert\n        /* \"--CODEGEN--\":5:7   */\n    tag_63:\n        /* \"input/RampInstantEthEscrows.sol\":10913:11715  function release(... */\n      pop\n      tag_64\n      0x04\n      dup1\n      calldatasize\n      sub\n        /* \"--CODEGEN--\":13:16   */\n      0xa0\n        /* \"--CODEGEN--\":8:11   */\n      dup2\n        /* \"--CODEGEN--\":5:17   */\n      lt\n        /* \"--CODEGEN--\":2:4   */\n      iszero\n      tag_65\n      jumpi\n        /* \"--CODEGEN--\":30:31   */\n      0x00\n        /* \"--CODEGEN--\":27:28   */\n      dup1\n        /* \"--CODEGEN--\":20:32   */\n      revert\n        /* \"--CODEGEN--\":2:4   */\n    tag_65:\n        /* \"input/RampInstantEthEscrows.sol\":10913:11715  function release(... */\n      dup2\n      add\n      swap1\n      dup1\n      dup1\n      calldataload\n      0xffffffffffffffffffffffffffffffffffffffff\n      and\n      swap1\n      0x20\n      add\n      swap1\n      swap3\n      swap2\n      swap1\n      dup1\n      calldataload\n      0xffffffffffffffffffffffffffffffffffffffff\n      and\n      swap1\n      0x20\n      add\n      swap1\n      swap3\n      swap2\n      swap1\n      dup1\n      calldataload\n      0xffffffffffffffffffffffffffffffffffffffff\n      and\n      swap1\n      0x20\n      add\n      swap1\n      swap3\n      swap2\n      swap1\n      dup1\n      calldataload\n      swap1\n      0x20\n      add\n      swap1\n        /* \"--CODEGEN--\":21:32   */\n      0x0100000000\n        /* \"--CODEGEN--\":8:19   */\n      dup2\n        /* \"--CODEGEN--\":5:33   */\n      gt\n        /* \"--CODEGEN--\":2:4   */\n      iszero\n      tag_66\n      jumpi\n        /* \"--CODEGEN--\":46:47   */\n      0x00\n        /* \"--CODEGEN--\":43:44   */\n      dup1\n        /* \"--CODEGEN--\":36:48   */\n      revert\n        /* \"--CODEGEN--\":2:4   */\n    tag_66:\n        /* \"input/RampInstantEthEscrows.sol\":10913:11715  function release(... */\n      dup3\n      add\n        /* \"--CODEGEN--\":35:44   */\n      dup4\n        /* \"--CODEGEN--\":28:32   */\n      0x20\n        /* \"--CODEGEN--\":12:26   */\n      dup3\n        /* \"--CODEGEN--\":8:33   */\n      add\n        /* \"--CODEGEN--\":5:45   */\n      gt\n        /* \"--CODEGEN--\":2:4   */\n      iszero\n      tag_67\n      jumpi\n        /* \"--CODEGEN--\":58:59   */\n      0x00\n        /* \"--CODEGEN--\":55:56   */\n      dup1\n        /* \"--CODEGEN--\":48:60   */\n      revert\n        /* \"--CODEGEN--\":2:4   */\n    tag_67:\n        /* \"input/RampInstantEthEscrows.sol\":10913:11715  function release(... */\n      dup1\n      calldataload\n      swap1\n      0x20\n      add\n      swap2\n        /* \"--CODEGEN--\":100:109   */\n      dup5\n        /* \"--CODEGEN--\":95:96   */\n      0x01\n        /* \"--CODEGEN--\":81:93   */\n      dup4\n        /* \"--CODEGEN--\":77:97   */\n      mul\n        /* \"--CODEGEN--\":67:75   */\n      dup5\n        /* \"--CODEGEN--\":63:98   */\n      add\n        /* \"--CODEGEN--\":60:110   */\n      gt\n        /* \"--CODEGEN--\":39:50   */\n      0x0100000000\n        /* \"--CODEGEN--\":25:37   */\n      dup4\n        /* \"--CODEGEN--\":22:51   */\n      gt\n        /* \"--CODEGEN--\":11:118   */\n      or\n        /* \"--CODEGEN--\":8:10   */\n      iszero\n      tag_68\n      jumpi\n        /* \"--CODEGEN--\":131:132   */\n      0x00\n        /* \"--CODEGEN--\":128:129   */\n      dup1\n        /* \"--CODEGEN--\":121:133   */\n      revert\n        /* \"--CODEGEN--\":8:10   */\n    tag_68:\n        /* \"input/RampInstantEthEscrows.sol\":10913:11715  function release(... */\n      swap1\n      swap2\n      swap3\n      swap4\n      swap2\n      swap3\n      swap4\n      swap1\n      dup1\n      calldataload\n      swap1\n      0x20\n      add\n      swap1\n      swap3\n      swap2\n      swap1\n      pop\n      pop\n      pop\n      tag_69\n      jump\t// in\n    tag_64:\n      stop\n        /* \"input/RampInstantEthEscrows.sol\":4028:4171  function changeOwner(address _newOwner) external onlyOwner {... */\n    tag_12:\n      callvalue\n        /* \"--CODEGEN--\":8:17   */\n      dup1\n        /* \"--CODEGEN--\":5:7   */\n      iszero\n      tag_70\n      jumpi\n        /* \"--CODEGEN--\":30:31   */\n      0x00\n        /* \"--CODEGEN--\":27:28   */\n      dup1\n        /* \"--CODEGEN--\":20:32   */\n      revert\n        /* \"--CODEGEN--\":5:7   */\n    tag_70:\n        /* \"input/RampInstantEthEscrows.sol\":4028:4171  function changeOwner(address _newOwner) external onlyOwner {... */\n      pop\n      tag_71\n      0x04\n      dup1\n      calldatasize\n      sub\n        /* \"--CODEGEN--\":13:15   */\n      0x20\n        /* \"--CODEGEN--\":8:11   */\n      dup2\n        /* \"--CODEGEN--\":5:16   */\n      lt\n        /* \"--CODEGEN--\":2:4   */\n      iszero\n      tag_72\n      jumpi\n        /* \"--CODEGEN--\":29:30   */\n      0x00\n        /* \"--CODEGEN--\":26:27   */\n      dup1\n        /* \"--CODEGEN--\":19:31   */\n      revert\n        /* \"--CODEGEN--\":2:4   */\n    tag_72:\n        /* \"input/RampInstantEthEscrows.sol\":4028:4171  function changeOwner(address _newOwner) external onlyOwner {... */\n      dup2\n      add\n      swap1\n      dup1\n      dup1\n      calldataload\n      0xffffffffffffffffffffffffffffffffffffffff\n      and\n      swap1\n      0x20\n      add\n      swap1\n      swap3\n      swap2\n      swap1\n      pop\n      pop\n      pop\n      tag_73\n      jump\t// in\n    tag_71:\n      stop\n        /* \"input/RampInstantEthEscrows.sol\":12041:12837  function returnFunds(... */\n    tag_13:\n      callvalue\n        /* \"--CODEGEN--\":8:17   */\n      dup1\n        /* \"--CODEGEN--\":5:7   */\n      iszero\n      tag_74\n      jumpi\n        /* \"--CODEGEN--\":30:31   */\n      0x00\n        /* \"--CODEGEN--\":27:28   */\n      dup1\n        /* \"--CODEGEN--\":20:32   */\n      revert\n        /* \"--CODEGEN--\":5:7   */\n    tag_74:\n        /* \"input/RampInstantEthEscrows.sol\":12041:12837  function returnFunds(... */\n      pop\n      tag_75\n      0x04\n      dup1\n      calldatasize\n      sub\n        /* \"--CODEGEN--\":13:16   */\n      0xa0\n        /* \"--CODEGEN--\":8:11   */\n      dup2\n        /* \"--CODEGEN--\":5:17   */\n      lt\n        /* \"--CODEGEN--\":2:4   */\n      iszero\n      tag_76\n      jumpi\n        /* \"--CODEGEN--\":30:31   */\n      0x00\n        /* \"--CODEGEN--\":27:28   */\n      dup1\n        /* \"--CODEGEN--\":20:32   */\n      revert\n        /* \"--CODEGEN--\":2:4   */\n    tag_76:\n        /* \"input/RampInstantEthEscrows.sol\":12041:12837  function returnFunds(... */\n      dup2\n      add\n      swap1\n      dup1\n      dup1\n      calldataload\n      0xffffffffffffffffffffffffffffffffffffffff\n      and\n      swap1\n      0x20\n      add\n      swap1\n      swap3\n      swap2\n      swap1\n      dup1\n      calldataload\n      0xffffffffffffffffffffffffffffffffffffffff\n      and\n      swap1\n      0x20\n      add\n      swap1\n      swap3\n      swap2\n      swap1\n      dup1\n      calldataload\n      0xffffffffffffffffffffffffffffffffffffffff\n      and\n      swap1\n      0x20\n      add\n      swap1\n      swap3\n      swap2\n      swap1\n      dup1\n      calldataload\n      swap1\n      0x20\n      add\n      swap1\n        /* \"--CODEGEN--\":21:32   */\n      0x0100000000\n        /* \"--CODEGEN--\":8:19   */\n      dup2\n        /* \"--CODEGEN--\":5:33   */\n      gt\n        /* \"--CODEGEN--\":2:4   */\n      iszero\n      tag_77\n      jumpi\n        /* \"--CODEGEN--\":46:47   */\n      0x00\n        /* \"--CODEGEN--\":43:44   */\n      dup1\n        /* \"--CODEGEN--\":36:48   */\n      revert\n        /* \"--CODEGEN--\":2:4   */\n    tag_77:\n        /* \"input/RampInstantEthEscrows.sol\":12041:12837  function returnFunds(... */\n      dup3\n      add\n        /* \"--CODEGEN--\":35:44   */\n      dup4\n        /* \"--CODEGEN--\":28:32   */\n      0x20\n        /* \"--CODEGEN--\":12:26   */\n      dup3\n        /* \"--CODEGEN--\":8:33   */\n      add\n        /* \"--CODEGEN--\":5:45   */\n      gt\n        /* \"--CODEGEN--\":2:4   */\n      iszero\n      tag_78\n      jumpi\n        /* \"--CODEGEN--\":58:59   */\n      0x00\n        /* \"--CODEGEN--\":55:56   */\n      dup1\n        /* \"--CODEGEN--\":48:60   */\n      revert\n        /* \"--CODEGEN--\":2:4   */\n    tag_78:\n        /* \"input/RampInstantEthEscrows.sol\":12041:12837  function returnFunds(... */\n      dup1\n      calldataload\n      swap1\n      0x20\n      add\n      swap2\n        /* \"--CODEGEN--\":100:109   */\n      dup5\n        /* \"--CODEGEN--\":95:96   */\n      0x01\n        /* \"--CODEGEN--\":81:93   */\n      dup4\n        /* \"--CODEGEN--\":77:97   */\n      mul\n        /* \"--CODEGEN--\":67:75   */\n      dup5\n        /* \"--CODEGEN--\":63:98   */\n      add\n        /* \"--CODEGEN--\":60:110   */\n      gt\n        /* \"--CODEGEN--\":39:50   */\n      0x0100000000\n        /* \"--CODEGEN--\":25:37   */\n      dup4\n        /* \"--CODEGEN--\":22:51   */\n      gt\n        /* \"--CODEGEN--\":11:118   */\n      or\n        /* \"--CODEGEN--\":8:10   */\n      iszero\n      tag_79\n      jumpi\n        /* \"--CODEGEN--\":131:132   */\n      0x00\n        /* \"--CODEGEN--\":128:129   */\n      dup1\n        /* \"--CODEGEN--\":121:133   */\n      revert\n        /* \"--CODEGEN--\":8:10   */\n    tag_79:\n        /* \"input/RampInstantEthEscrows.sol\":12041:12837  function returnFunds(... */\n      swap1\n      swap2\n      swap3\n      swap4\n      swap2\n      swap3\n      swap4\n      swap1\n      dup1\n      calldataload\n      swap1\n      0x20\n      add\n      swap1\n      swap3\n      swap2\n      swap1\n      pop\n      pop\n      pop\n      tag_80\n      jump\t// in\n    tag_75:\n      stop\n        /* \"input/RampInstantEthEscrows.sol\":15765:16027  function withdrawFees(... */\n    tag_14:\n      callvalue\n        /* \"--CODEGEN--\":8:17   */\n      dup1\n        /* \"--CODEGEN--\":5:7   */\n      iszero\n      tag_81\n      jumpi\n        /* \"--CODEGEN--\":30:31   */\n      0x00\n        /* \"--CODEGEN--\":27:28   */\n      dup1\n        /* \"--CODEGEN--\":20:32   */\n      revert\n        /* \"--CODEGEN--\":5:7   */\n    tag_81:\n        /* \"input/RampInstantEthEscrows.sol\":15765:16027  function withdrawFees(... */\n      pop\n      tag_82\n      0x04\n      dup1\n      calldatasize\n      sub\n        /* \"--CODEGEN--\":13:15   */\n      0x40\n        /* \"--CODEGEN--\":8:11   */\n      dup2\n        /* \"--CODEGEN--\":5:16   */\n      lt\n        /* \"--CODEGEN--\":2:4   */\n      iszero\n      tag_83\n      jumpi\n        /* \"--CODEGEN--\":29:30   */\n      0x00\n        /* \"--CODEGEN--\":26:27   */\n      dup1\n        /* \"--CODEGEN--\":19:31   */\n      revert\n        /* \"--CODEGEN--\":2:4   */\n    tag_83:\n        /* \"input/RampInstantEthEscrows.sol\":15765:16027  function withdrawFees(... */\n      dup2\n      add\n      swap1\n      dup1\n      dup1\n      calldataload\n      swap1\n      0x20\n      add\n      swap1\n        /* \"--CODEGEN--\":21:32   */\n      0x0100000000\n        /* \"--CODEGEN--\":8:19   */\n      dup2\n        /* \"--CODEGEN--\":5:33   */\n      gt\n        /* \"--CODEGEN--\":2:4   */\n      iszero\n      tag_84\n      jumpi\n        /* \"--CODEGEN--\":46:47   */\n      0x00\n        /* \"--CODEGEN--\":43:44   */\n      dup1\n        /* \"--CODEGEN--\":36:48   */\n      revert\n        /* \"--CODEGEN--\":2:4   */\n    tag_84:\n        /* \"input/RampInstantEthEscrows.sol\":15765:16027  function withdrawFees(... */\n      dup3\n      add\n        /* \"--CODEGEN--\":35:44   */\n      dup4\n        /* \"--CODEGEN--\":28:32   */\n      0x20\n        /* \"--CODEGEN--\":12:26   */\n      dup3\n        /* \"--CODEGEN--\":8:33   */\n      add\n        /* \"--CODEGEN--\":5:45   */\n      gt\n        /* \"--CODEGEN--\":2:4   */\n      iszero\n      tag_85\n      jumpi\n        /* \"--CODEGEN--\":58:59   */\n      0x00\n        /* \"--CODEGEN--\":55:56   */\n      dup1\n        /* \"--CODEGEN--\":48:60   */\n      revert\n        /* \"--CODEGEN--\":2:4   */\n    tag_85:\n        /* \"input/RampInstantEthEscrows.sol\":15765:16027  function withdrawFees(... */\n      dup1\n      calldataload\n      swap1\n      0x20\n      add\n      swap2\n        /* \"--CODEGEN--\":100:109   */\n      dup5\n        /* \"--CODEGEN--\":95:96   */\n      0x01\n        /* \"--CODEGEN--\":81:93   */\n      dup4\n        /* \"--CODEGEN--\":77:97   */\n      mul\n        /* \"--CODEGEN--\":67:75   */\n      dup5\n        /* \"--CODEGEN--\":63:98   */\n      add\n        /* \"--CODEGEN--\":60:110   */\n      gt\n        /* \"--CODEGEN--\":39:50   */\n      0x0100000000\n        /* \"--CODEGEN--\":25:37   */\n      dup4\n        /* \"--CODEGEN--\":22:51   */\n      gt\n        /* \"--CODEGEN--\":11:118   */\n      or\n        /* \"--CODEGEN--\":8:10   */\n      iszero\n      tag_86\n      jumpi\n        /* \"--CODEGEN--\":131:132   */\n      0x00\n        /* \"--CODEGEN--\":128:129   */\n      dup1\n        /* \"--CODEGEN--\":121:133   */\n      revert\n        /* \"--CODEGEN--\":8:10   */\n    tag_86:\n        /* \"input/RampInstantEthEscrows.sol\":15765:16027  function withdrawFees(... */\n      swap1\n      swap2\n      swap3\n      swap4\n      swap2\n      swap3\n      swap4\n      swap1\n      dup1\n      calldataload\n      0xffffffffffffffffffffffffffffffffffffffff\n      and\n      swap1\n      0x20\n      add\n      swap1\n      swap3\n      swap2\n      swap1\n      pop\n      pop\n      pop\n      tag_87\n      jump\t// in\n    tag_82:\n      mload(0x40)\n      dup1\n      dup3\n      iszero\n      iszero\n      iszero\n      iszero\n      dup2\n      mstore\n      0x20\n      add\n      swap2\n      pop\n      pop\n      mload(0x40)\n      dup1\n      swap2\n      sub\n      swap1\n      return\n        /* \"input/RampInstantEthEscrows.sol\":4834:4933  function approveOracle(address _oracle) external onlyOwner {... */\n    tag_15:\n      callvalue\n        /* \"--CODEGEN--\":8:17   */\n      dup1\n        /* \"--CODEGEN--\":5:7   */\n      iszero\n      tag_88\n      jumpi\n        /* \"--CODEGEN--\":30:31   */\n      0x00\n        /* \"--CODEGEN--\":27:28   */\n      dup1\n        /* \"--CODEGEN--\":20:32   */\n      revert\n        /* \"--CODEGEN--\":5:7   */\n    tag_88:\n        /* \"input/RampInstantEthEscrows.sol\":4834:4933  function approveOracle(address _oracle) external onlyOwner {... */\n      pop\n      tag_89\n      0x04\n      dup1\n      calldatasize\n      sub\n        /* \"--CODEGEN--\":13:15   */\n      0x20\n        /* \"--CODEGEN--\":8:11   */\n      dup2\n        /* \"--CODEGEN--\":5:16   */\n      lt\n        /* \"--CODEGEN--\":2:4   */\n      iszero\n      tag_90\n      jumpi\n        /* \"--CODEGEN--\":29:30   */\n      0x00\n        /* \"--CODEGEN--\":26:27   */\n      dup1\n        /* \"--CODEGEN--\":19:31   */\n      revert\n        /* \"--CODEGEN--\":2:4   */\n    tag_90:\n        /* \"input/RampInstantEthEscrows.sol\":4834:4933  function approveOracle(address _oracle) external onlyOwner {... */\n      dup2\n      add\n      swap1\n      dup1\n      dup1\n      calldataload\n      0xffffffffffffffffffffffffffffffffffffffff\n      and\n      swap1\n      0x20\n      add\n      swap1\n      swap3\n      swap2\n      swap1\n      pop\n      pop\n      pop\n      tag_91\n      jump\t// in\n    tag_89:\n      stop\n        /* \"input/RampInstantEthEscrows.sol\":6041:6068  uint256 public minFeeAmount */\n    tag_16:\n      callvalue\n        /* \"--CODEGEN--\":8:17   */\n      dup1\n        /* \"--CODEGEN--\":5:7   */\n      iszero\n      tag_92\n      jumpi\n        /* \"--CODEGEN--\":30:31   */\n      0x00\n        /* \"--CODEGEN--\":27:28   */\n      dup1\n        /* \"--CODEGEN--\":20:32   */\n      revert\n        /* \"--CODEGEN--\":5:7   */\n    tag_92:\n        /* \"input/RampInstantEthEscrows.sol\":6041:6068  uint256 public minFeeAmount */\n      pop\n      tag_93\n      tag_94\n      jump\t// in\n    tag_93:\n      mload(0x40)\n      dup1\n      dup3\n      dup2\n      mstore\n      0x20\n      add\n      swap2\n      pop\n      pop\n      mload(0x40)\n      dup1\n      swap2\n      sub\n      swap1\n      return\n        /* \"input/RampInstantEthEscrows.sol\":8070:8110  string public constant VERSION = \"0.5.0\" */\n    tag_17:\n      callvalue\n        /* \"--CODEGEN--\":8:17   */\n      dup1\n        /* \"--CODEGEN--\":5:7   */\n      iszero\n      tag_95\n      jumpi\n        /* \"--CODEGEN--\":30:31   */\n      0x00\n        /* \"--CODEGEN--\":27:28   */\n      dup1\n        /* \"--CODEGEN--\":20:32   */\n      revert\n        /* \"--CODEGEN--\":5:7   */\n    tag_95:\n        /* \"input/RampInstantEthEscrows.sol\":8070:8110  string public constant VERSION = \"0.5.0\" */\n      pop\n      tag_96\n      tag_97\n      jump\t// in\n    tag_96:\n      mload(0x40)\n      dup1\n      dup1\n      0x20\n      add\n      dup3\n      dup2\n      sub\n      dup3\n      mstore\n      dup4\n      dup2\n      dup2\n      mload\n      dup2\n      mstore\n      0x20\n      add\n      swap2\n      pop\n      dup1\n      mload\n      swap1\n      0x20\n      add\n      swap1\n      dup1\n      dup4\n      dup4\n        /* \"--CODEGEN--\":23:24   */\n      0x00\n        /* \"--CODEGEN--\":8:108   */\n    tag_98:\n        /* \"--CODEGEN--\":33:36   */\n      dup4\n        /* \"--CODEGEN--\":30:31   */\n      dup2\n        /* \"--CODEGEN--\":27:37   */\n      lt\n        /* \"--CODEGEN--\":8:108   */\n      iszero\n      tag_100\n      jumpi\n        /* \"--CODEGEN--\":99:100   */\n      dup1\n        /* \"--CODEGEN--\":94:97   */\n      dup3\n        /* \"--CODEGEN--\":90:101   */\n      add\n        /* \"--CODEGEN--\":84:102   */\n      mload\n        /* \"--CODEGEN--\":80:81   */\n      dup2\n        /* \"--CODEGEN--\":75:78   */\n      dup5\n        /* \"--CODEGEN--\":71:82   */\n      add\n        /* \"--CODEGEN--\":64:103   */\n      mstore\n        /* \"--CODEGEN--\":52:54   */\n      0x20\n        /* \"--CODEGEN--\":49:50   */\n      dup2\n        /* \"--CODEGEN--\":45:55   */\n      add\n        /* \"--CODEGEN--\":40:55   */\n      swap1\n      pop\n        /* \"--CODEGEN--\":8:108   */\n      jump(tag_98)\n    tag_100:\n        /* \"--CODEGEN--\":12:26   */\n      pop\n        /* \"input/RampInstantEthEscrows.sol\":8070:8110  string public constant VERSION = \"0.5.0\" */\n      pop\n      pop\n      pop\n      swap1\n      pop\n      swap1\n      dup2\n      add\n      swap1\n      0x1f\n      and\n      dup1\n      iszero\n      tag_101\n      jumpi\n      dup1\n      dup3\n      sub\n      dup1\n      mload\n      0x01\n      dup4\n      0x20\n      sub\n      0x0100\n      exp\n      sub\n      not\n      and\n      dup2\n      mstore\n      0x20\n      add\n      swap2\n      pop\n    tag_101:\n      pop\n      swap3\n      pop\n      pop\n      pop\n      mload(0x40)\n      dup1\n      swap2\n      sub\n      swap1\n      return\n        /* \"input/RampInstantEthEscrows.sol\":9101:10453  function create(... */\n    tag_30:\n        /* \"input/RampInstantEthEscrows.sol\":9484:9496  bool success */\n      0x00\n        /* \"input/RampInstantEthEscrows.sol\":9343:9356  Status.ACTIVE */\n      0x03\n        /* \"input/RampInstantEthEscrows.sol\":4625:4632  _status */\n      dup1\n        /* \"input/RampInstantEthEscrows.sol\":4615:4632  status >= _status */\n      0x03\n      dup2\n      gt\n      iszero\n      tag_103\n      jumpi\n      invalid\n    tag_103:\n        /* \"input/RampInstantEthEscrows.sol\":4615:4621  status */\n      0x00\n      0x14\n      swap1\n      sload\n      swap1\n      0x0100\n      exp\n      swap1\n      div\n      0xff\n      and\n        /* \"input/RampInstantEthEscrows.sol\":4615:4632  status >= _status */\n      0x03\n      dup2\n      gt\n      iszero\n      tag_104\n      jumpi\n      invalid\n    tag_104:\n      lt\n      iszero\n        /* \"input/RampInstantEthEscrows.sol\":4607:4660  require(status >= _status, \"invalid contract status\") */\n      tag_105\n      jumpi\n      mload(0x40)\n      0x08c379a000000000000000000000000000000000000000000000000000000000\n      dup2\n      mstore\n      0x04\n      add\n      dup1\n      dup1\n      0x20\n      add\n      dup3\n      dup2\n      sub\n      dup3\n      mstore\n      0x17\n      dup2\n      mstore\n      0x20\n      add\n      dup1\n      0x696e76616c696420636f6e747261637420737461747573000000000000000000\n      dup2\n      mstore\n      pop\n      0x20\n      add\n      swap2\n      pop\n      pop\n      mload(0x40)\n      dup1\n      swap2\n      sub\n      swap1\n      revert\n    tag_105:\n        /* \"input/RampInstantEthEscrows.sol\":5864:5875  swapCreator */\n      0x02\n      0x00\n      swap1\n      sload\n      swap1\n      0x0100\n      exp\n      swap1\n      div\n      0xffffffffffffffffffffffffffffffffffffffff\n      and\n        /* \"input/RampInstantEthEscrows.sol\":5850:5875  msg.sender == swapCreator */\n      0xffffffffffffffffffffffffffffffffffffffff\n      and\n        /* \"input/RampInstantEthEscrows.sol\":5850:5860  msg.sender */\n      caller\n        /* \"input/RampInstantEthEscrows.sol\":5850:5875  msg.sender == swapCreator */\n      0xffffffffffffffffffffffffffffffffffffffff\n      and\n      eq\n        /* \"input/RampInstantEthEscrows.sol\":5842:5915  require(msg.sender == swapCreator, \"only the swap creator can call this\") */\n      tag_107\n      jumpi\n      mload(0x40)\n      0x08c379a000000000000000000000000000000000000000000000000000000000\n      dup2\n      mstore\n      0x04\n      add\n      dup1\n      dup1\n      0x20\n      add\n      dup3\n      dup2\n      sub\n      dup3\n      mstore\n      0x23\n      dup2\n      mstore\n      0x20\n      add\n      dup1\n      data_505dcbf77baa9fcb931859d75ef58472fc43f433ecc69abf910161910b72606c\n      0x23\n      swap2\n      codecopy\n      0x40\n      add\n      swap2\n      pop\n      pop\n      mload(0x40)\n      dup1\n      swap2\n      sub\n      swap1\n      revert\n    tag_107:\n        /* \"input/RampInstantEthEscrows.sol\":9401:9408  _oracle */\n      dup7\n        /* \"input/RampInstantEthEscrows.sol\":5097:5104  oracles */\n      0x01\n        /* \"input/RampInstantEthEscrows.sol\":5097:5113  oracles[_oracle] */\n      0x00\n        /* \"input/RampInstantEthEscrows.sol\":5105:5112  _oracle */\n      dup3\n        /* \"input/RampInstantEthEscrows.sol\":5097:5113  oracles[_oracle] */\n      0xffffffffffffffffffffffffffffffffffffffff\n      and\n      0xffffffffffffffffffffffffffffffffffffffff\n      and\n      dup2\n      mstore\n      0x20\n      add\n      swap1\n      dup2\n      mstore\n      0x20\n      add\n      0x00\n      keccak256\n      0x00\n      swap1\n      sload\n      swap1\n      0x0100\n      exp\n      swap1\n      div\n      0xff\n      and\n        /* \"input/RampInstantEthEscrows.sol\":5089:5140  require(oracles[_oracle], \"invalid oracle address\") */\n      tag_109\n      jumpi\n      mload(0x40)\n      0x08c379a000000000000000000000000000000000000000000000000000000000\n      dup2\n      mstore\n      0x04\n      add\n      dup1\n      dup1\n      0x20\n      add\n      dup3\n      dup2\n      sub\n      dup3\n      mstore\n      0x16\n      dup2\n      mstore\n      0x20\n      add\n      dup1\n      0x696e76616c6964206f7261636c65206164647265737300000000000000000000\n      dup2\n      mstore\n      pop\n      0x20\n      add\n      swap2\n      pop\n      pop\n      mload(0x40)\n      dup1\n      swap2\n      sub\n      swap1\n      revert\n    tag_109:\n        /* \"input/RampInstantEthEscrows.sol\":9440:9450  _assetData */\n      dup7\n      dup7\n        /* \"input/RampInstantEthEscrows.sol\":2927:3349  modifier checkAssetTypeAndData(bytes memory assetData, address _pool) {... */\n      dup1\n      dup1\n      0x1f\n      add\n      0x20\n      dup1\n      swap2\n      div\n      mul\n      0x20\n      add\n      mload(0x40)\n      swap1\n      dup2\n      add\n      0x40\n      mstore\n      dup1\n      swap4\n      swap3\n      swap2\n      swap1\n      dup2\n      dup2\n      mstore\n      0x20\n      add\n      dup4\n      dup4\n        /* \"--CODEGEN--\":30:33   */\n      dup1\n        /* \"--CODEGEN--\":22:28   */\n      dup3\n        /* \"--CODEGEN--\":14:20   */\n      dup5\n        /* \"--CODEGEN--\":1:34   */\n      calldatacopy\n        /* \"--CODEGEN--\":99:100   */\n      0x00\n        /* \"--CODEGEN--\":93:96   */\n      dup2\n        /* \"--CODEGEN--\":85:91   */\n      dup5\n        /* \"--CODEGEN--\":81:97   */\n      add\n        /* \"--CODEGEN--\":74:101   */\n      mstore\n        /* \"--CODEGEN--\":137:141   */\n      0x1f\n        /* \"--CODEGEN--\":133:142   */\n      not\n        /* \"--CODEGEN--\":126:130   */\n      0x1f\n        /* \"--CODEGEN--\":121:124   */\n      dup3\n        /* \"--CODEGEN--\":117:131   */\n      add\n        /* \"--CODEGEN--\":113:143   */\n      and\n        /* \"--CODEGEN--\":106:143   */\n      swap1\n      pop\n        /* \"--CODEGEN--\":169:172   */\n      dup1\n        /* \"--CODEGEN--\":161:167   */\n      dup4\n        /* \"--CODEGEN--\":157:173   */\n      add\n        /* \"--CODEGEN--\":147:173   */\n      swap3\n      pop\n        /* \"input/RampInstantEthEscrows.sol\":2927:3349  modifier checkAssetTypeAndData(bytes memory assetData, address _pool) {... */\n      pop\n      pop\n      pop\n      pop\n      pop\n      pop\n        /* \"input/RampInstantEthEscrows.sol\":9452:9457  _pool */\n      dup11\n        /* \"input/RampInstantEthEscrows.sol\":3007:3023  uint16 assetType */\n      0x00\n        /* \"input/RampInstantEthEscrows.sol\":3196:3202  0xffff */\n      0xffff\n        /* \"input/RampInstantEthEscrows.sol\":3175:3176  2 */\n      0x02\n        /* \"input/RampInstantEthEscrows.sol\":3164:3173  assetData */\n      dup5\n        /* \"input/RampInstantEthEscrows.sol\":3160:3177  add(assetData, 2) */\n      add\n        /* \"input/RampInstantEthEscrows.sol\":3154:3178  mload(add(assetData, 2)) */\n      mload\n        /* \"input/RampInstantEthEscrows.sol\":3133:3216  and(... */\n      and\n        /* \"input/RampInstantEthEscrows.sol\":3120:3216  assetType := and(... */\n      swap1\n      pop\n        /* \"input/RampInstantEthEscrows.sol\":3256:3266  ASSET_TYPE */\n      0x02\n      0x14\n      swap1\n      sload\n      swap1\n      0x0100\n      exp\n      swap1\n      div\n      0xffff\n      and\n        /* \"input/RampInstantEthEscrows.sol\":3243:3266  assetType == ASSET_TYPE */\n      0xffff\n      and\n        /* \"input/RampInstantEthEscrows.sol\":3243:3252  assetType */\n      dup2\n        /* \"input/RampInstantEthEscrows.sol\":3243:3266  assetType == ASSET_TYPE */\n      0xffff\n      and\n      eq\n        /* \"input/RampInstantEthEscrows.sol\":3235:3289  require(assetType == ASSET_TYPE, \"invalid asset type\") */\n      tag_111\n      jumpi\n      mload(0x40)\n      0x08c379a000000000000000000000000000000000000000000000000000000000\n      dup2\n      mstore\n      0x04\n      add\n      dup1\n      dup1\n      0x20\n      add\n      dup3\n      dup2\n      sub\n      dup3\n      mstore\n      0x12\n      dup2\n      mstore\n      0x20\n      add\n      dup1\n      0x696e76616c696420617373657420747970650000000000000000000000000000\n      dup2\n      mstore\n      pop\n      0x20\n      add\n      swap2\n      pop\n      pop\n      mload(0x40)\n      dup1\n      swap2\n      sub\n      swap1\n      revert\n    tag_111:\n        /* \"input/RampInstantEthEscrows.sol\":3299:3331  checkAssetData(assetData, _pool) */\n      tag_112\n        /* \"input/RampInstantEthEscrows.sol\":3314:3323  assetData */\n      dup4\n        /* \"input/RampInstantEthEscrows.sol\":3325:3330  _pool */\n      dup4\n        /* \"input/RampInstantEthEscrows.sol\":3299:3313  checkAssetData */\n      tag_113\n        /* \"input/RampInstantEthEscrows.sol\":3299:3331  checkAssetData(assetData, _pool) */\n      jump\t// in\n    tag_112:\n        /* \"input/RampInstantEthEscrows.sol\":8329:8337  24 hours */\n      0x015180\n        /* \"input/RampInstantEthEscrows.sol\":9533:9566  lockTimeS >= MIN_SWAP_LOCK_TIME_S */\n      0xffffffff\n      and\n        /* \"input/RampInstantEthEscrows.sol\":9533:9542  lockTimeS */\n      dup8\n        /* \"input/RampInstantEthEscrows.sol\":9533:9566  lockTimeS >= MIN_SWAP_LOCK_TIME_S */\n      0xffffffff\n      and\n      lt\n      iszero\n        /* \"input/RampInstantEthEscrows.sol\":9533:9603  lockTimeS >= MIN_SWAP_LOCK_TIME_S && lockTimeS <= MAX_SWAP_LOCK_TIME_S */\n      dup1\n      iszero\n      tag_115\n      jumpi\n      pop\n        /* \"input/RampInstantEthEscrows.sol\":8391:8398  30 days */\n      0x278d00\n        /* \"input/RampInstantEthEscrows.sol\":9570:9603  lockTimeS <= MAX_SWAP_LOCK_TIME_S */\n      0xffffffff\n      and\n        /* \"input/RampInstantEthEscrows.sol\":9570:9579  lockTimeS */\n      dup8\n        /* \"input/RampInstantEthEscrows.sol\":9570:9603  lockTimeS <= MAX_SWAP_LOCK_TIME_S */\n      0xffffffff\n      and\n      gt\n      iszero\n        /* \"input/RampInstantEthEscrows.sol\":9533:9603  lockTimeS >= MIN_SWAP_LOCK_TIME_S && lockTimeS <= MAX_SWAP_LOCK_TIME_S */\n    tag_115:\n        /* \"input/RampInstantEthEscrows.sol\":9512:9653  require(... */\n      tag_116\n      jumpi\n      mload(0x40)\n      0x08c379a000000000000000000000000000000000000000000000000000000000\n      dup2\n      mstore\n      0x04\n      add\n      dup1\n      dup1\n      0x20\n      add\n      dup3\n      dup2\n      sub\n      dup3\n      mstore\n      0x18\n      dup2\n      mstore\n      0x20\n      add\n      dup1\n      0x6c6f636b2074696d65206f757473696465206c696d6974730000000000000000\n      dup2\n      mstore\n      pop\n      0x20\n      add\n      swap2\n      pop\n      pop\n      mload(0x40)\n      dup1\n      swap2\n      sub\n      swap1\n      revert\n    tag_116:\n        /* \"input/RampInstantEthEscrows.sol\":9663:9679  bytes32 swapHash */\n      0x00\n        /* \"input/RampInstantEthEscrows.sol\":9682:9786  getSwapHash(... */\n      tag_117\n        /* \"input/RampInstantEthEscrows.sol\":9707:9712  _pool */\n      dup15\n        /* \"input/RampInstantEthEscrows.sol\":9714:9723  _receiver */\n      dup15\n        /* \"input/RampInstantEthEscrows.sol\":9725:9732  _oracle */\n      dup15\n        /* \"input/RampInstantEthEscrows.sol\":9744:9754  _assetData */\n      dup15\n      dup15\n        /* \"input/RampInstantEthEscrows.sol\":9734:9755  keccak256(_assetData) */\n      mload(0x40)\n      dup1\n      dup4\n      dup4\n        /* \"--CODEGEN--\":30:33   */\n      dup1\n        /* \"--CODEGEN--\":22:28   */\n      dup3\n        /* \"--CODEGEN--\":14:20   */\n      dup5\n        /* \"--CODEGEN--\":1:34   */\n      calldatacopy\n        /* \"--CODEGEN--\":57:60   */\n      dup1\n        /* \"--CODEGEN--\":49:55   */\n      dup4\n        /* \"--CODEGEN--\":45:61   */\n      add\n        /* \"--CODEGEN--\":35:61   */\n      swap3\n      pop\n        /* \"input/RampInstantEthEscrows.sol\":9734:9755  keccak256(_assetData) */\n      pop\n      pop\n      swap3\n      pop\n      pop\n      pop\n      mload(0x40)\n      dup1\n      swap2\n      sub\n      swap1\n      keccak256\n        /* \"input/RampInstantEthEscrows.sol\":9757:9776  _paymentDetailsHash */\n      dup14\n        /* \"input/RampInstantEthEscrows.sol\":9682:9693  getSwapHash */\n      tag_118\n        /* \"input/RampInstantEthEscrows.sol\":9682:9786  getSwapHash(... */\n      jump\t// in\n    tag_117:\n        /* \"input/RampInstantEthEscrows.sol\":9663:9786  bytes32 swapHash = getSwapHash(... */\n      swap1\n      pop\n        /* \"input/RampInstantEthEscrows.sol\":9796:9826  requireSwapNotExists(swapHash) */\n      tag_119\n        /* \"input/RampInstantEthEscrows.sol\":9817:9825  swapHash */\n      dup2\n        /* \"input/RampInstantEthEscrows.sol\":9796:9816  requireSwapNotExists */\n      tag_120\n        /* \"input/RampInstantEthEscrows.sol\":9796:9826  requireSwapNotExists(swapHash) */\n      jump\t// in\n    tag_119:\n        /* \"input/RampInstantEthEscrows.sol\":10274:10283  lockTimeS */\n      dup8\n        /* \"input/RampInstantEthEscrows.sol\":10255:10270  block.timestamp */\n      timestamp\n        /* \"input/RampInstantEthEscrows.sol\":10248:10283  uint32(block.timestamp) + lockTimeS */\n      add\n        /* \"input/RampInstantEthEscrows.sol\":10230:10235  swaps */\n      0x04\n        /* \"input/RampInstantEthEscrows.sol\":10230:10245  swaps[swapHash] */\n      0x00\n        /* \"input/RampInstantEthEscrows.sol\":10236:10244  swapHash */\n      dup4\n        /* \"input/RampInstantEthEscrows.sol\":10230:10245  swaps[swapHash] */\n      dup2\n      mstore\n      0x20\n      add\n      swap1\n      dup2\n      mstore\n      0x20\n      add\n      0x00\n      keccak256\n      0x00\n        /* \"input/RampInstantEthEscrows.sol\":10230:10283  swaps[swapHash] = uint32(block.timestamp) + lockTimeS */\n      0x0100\n      exp\n      dup2\n      sload\n      dup2\n      0xffffffff\n      mul\n      not\n      and\n      swap1\n      dup4\n      0xffffffff\n      and\n      mul\n      or\n      swap1\n      sstore\n      pop\n        /* \"input/RampInstantEthEscrows.sol\":10314:10349  lockAssetWithFee(_assetData, _pool) */\n      tag_121\n        /* \"input/RampInstantEthEscrows.sol\":10331:10341  _assetData */\n      dup12\n      dup12\n        /* \"input/RampInstantEthEscrows.sol\":10314:10349  lockAssetWithFee(_assetData, _pool) */\n      dup1\n      dup1\n      0x1f\n      add\n      0x20\n      dup1\n      swap2\n      div\n      mul\n      0x20\n      add\n      mload(0x40)\n      swap1\n      dup2\n      add\n      0x40\n      mstore\n      dup1\n      swap4\n      swap3\n      swap2\n      swap1\n      dup2\n      dup2\n      mstore\n      0x20\n      add\n      dup4\n      dup4\n        /* \"--CODEGEN--\":30:33   */\n      dup1\n        /* \"--CODEGEN--\":22:28   */\n      dup3\n        /* \"--CODEGEN--\":14:20   */\n      dup5\n        /* \"--CODEGEN--\":1:34   */\n      calldatacopy\n        /* \"--CODEGEN--\":99:100   */\n      0x00\n        /* \"--CODEGEN--\":93:96   */\n      dup2\n        /* \"--CODEGEN--\":85:91   */\n      dup5\n        /* \"--CODEGEN--\":81:97   */\n      add\n        /* \"--CODEGEN--\":74:101   */\n      mstore\n        /* \"--CODEGEN--\":137:141   */\n      0x1f\n        /* \"--CODEGEN--\":133:142   */\n      not\n        /* \"--CODEGEN--\":126:130   */\n      0x1f\n        /* \"--CODEGEN--\":121:124   */\n      dup3\n        /* \"--CODEGEN--\":117:131   */\n      add\n        /* \"--CODEGEN--\":113:143   */\n      and\n        /* \"--CODEGEN--\":106:143   */\n      swap1\n      pop\n        /* \"--CODEGEN--\":169:172   */\n      dup1\n        /* \"--CODEGEN--\":161:167   */\n      dup4\n        /* \"--CODEGEN--\":157:173   */\n      add\n        /* \"--CODEGEN--\":147:173   */\n      swap3\n      pop\n        /* \"input/RampInstantEthEscrows.sol\":10314:10349  lockAssetWithFee(_assetData, _pool) */\n      pop\n      pop\n      pop\n      pop\n      pop\n      pop\n        /* \"input/RampInstantEthEscrows.sol\":10343:10348  _pool */\n      dup16\n        /* \"input/RampInstantEthEscrows.sol\":10314:10330  lockAssetWithFee */\n      tag_122\n        /* \"input/RampInstantEthEscrows.sol\":10314:10349  lockAssetWithFee(_assetData, _pool) */\n      jump\t// in\n    tag_121:\n        /* \"input/RampInstantEthEscrows.sol\":10293:10393  require(... */\n      tag_123\n      jumpi\n      mload(0x40)\n      0x08c379a000000000000000000000000000000000000000000000000000000000\n      dup2\n      mstore\n      0x04\n      add\n      dup1\n      dup1\n      0x20\n      add\n      dup3\n      dup2\n      sub\n      dup3\n      mstore\n      0x12\n      dup2\n      mstore\n      0x20\n      add\n      dup1\n      0x657363726f77206c6f636b206661696c65640000000000000000000000000000\n      dup2\n      mstore\n      pop\n      0x20\n      add\n      swap2\n      pop\n      pop\n      mload(0x40)\n      dup1\n      swap2\n      sub\n      swap1\n      revert\n    tag_123:\n        /* \"input/RampInstantEthEscrows.sol\":10416:10424  swapHash */\n      dup1\n        /* \"input/RampInstantEthEscrows.sol\":10408:10425  Created(swapHash) */\n      0x102d25c49d33fcdb8976a3f2744e0785c98d9e43b88364859e6aec4ae82eff5c\n      mload(0x40)\n      mload(0x40)\n      dup1\n      swap2\n      sub\n      swap1\n      log2\n        /* \"input/RampInstantEthEscrows.sol\":10442:10446  true */\n      0x01\n        /* \"input/RampInstantEthEscrows.sol\":10435:10446  return true */\n      swap7\n      pop\n      pop\n        /* \"input/RampInstantEthEscrows.sol\":5150:5151  _ */\n      pop\n      pop\n      pop\n        /* \"input/RampInstantEthEscrows.sol\":5925:5926  _ */\n      pop\n        /* \"input/RampInstantEthEscrows.sol\":9101:10453  function create(... */\n      pop\n      swap8\n      swap7\n      pop\n      pop\n      pop\n      pop\n      pop\n      pop\n      pop\n      jump\t// out\n        /* \"input/RampInstantEthEscrows.sol\":6000:6035  uint16 public feeThousandthsPercent */\n    tag_33:\n      0x02\n      0x16\n      swap1\n      sload\n      swap1\n      0x0100\n      exp\n      swap1\n      div\n      0xffff\n      and\n      dup2\n      jump\t// out\n        /* \"input/RampInstantEthEscrows.sol\":4377:4413  Status public status = Status.ACTIVE */\n    tag_36:\n      0x00\n      0x14\n      swap1\n      sload\n      swap1\n      0x0100\n      exp\n      swap1\n      div\n      0xff\n      and\n      dup2\n      jump\t// out\n        /* \"input/RampInstantEthEscrows.sol\":5634:5799  function changeSwapCreator(address _newCreator) public onlyOwner {... */\n    tag_41:\n        /* \"input/RampInstantEthEscrows.sol\":3966:3971  owner */\n      0x00\n      dup1\n      swap1\n      sload\n      swap1\n      0x0100\n      exp\n      swap1\n      div\n      0xffffffffffffffffffffffffffffffffffffffff\n      and\n        /* \"input/RampInstantEthEscrows.sol\":3952:3971  msg.sender == owner */\n      0xffffffffffffffffffffffffffffffffffffffff\n      and\n        /* \"input/RampInstantEthEscrows.sol\":3952:3962  msg.sender */\n      caller\n        /* \"input/RampInstantEthEscrows.sol\":3952:3971  msg.sender == owner */\n      0xffffffffffffffffffffffffffffffffffffffff\n      and\n      eq\n        /* \"input/RampInstantEthEscrows.sol\":3944:4004  require(msg.sender == owner, \"only the owner can call this\") */\n      tag_125\n      jumpi\n      mload(0x40)\n      0x08c379a000000000000000000000000000000000000000000000000000000000\n      dup2\n      mstore\n      0x04\n      add\n      dup1\n      dup1\n      0x20\n      add\n      dup3\n      dup2\n      sub\n      dup3\n      mstore\n      0x1c\n      dup2\n      mstore\n      0x20\n      add\n      dup1\n      0x6f6e6c7920746865206f776e65722063616e2063616c6c207468697300000000\n      dup2\n      mstore\n      pop\n      0x20\n      add\n      swap2\n      pop\n      pop\n      mload(0x40)\n      dup1\n      swap2\n      sub\n      swap1\n      revert\n    tag_125:\n        /* \"input/RampInstantEthEscrows.sol\":5723:5734  _newCreator */\n      dup1\n        /* \"input/RampInstantEthEscrows.sol\":5709:5720  swapCreator */\n      0x02\n      0x00\n        /* \"input/RampInstantEthEscrows.sol\":5709:5734  swapCreator = _newCreator */\n      0x0100\n      exp\n      dup2\n      sload\n      dup2\n      0xffffffffffffffffffffffffffffffffffffffff\n      mul\n      not\n      and\n      swap1\n      dup4\n      0xffffffffffffffffffffffffffffffffffffffff\n      and\n      mul\n      or\n      swap1\n      sstore\n      pop\n        /* \"input/RampInstantEthEscrows.sol\":5749:5792  SwapCreatorChanged(msg.sender, _newCreator) */\n      0xadf20380d9033e7f11fc1856d69012aa18e03195a098cd38ce3be225966968a8\n        /* \"input/RampInstantEthEscrows.sol\":5768:5778  msg.sender */\n      caller\n        /* \"input/RampInstantEthEscrows.sol\":5780:5791  _newCreator */\n      dup3\n        /* \"input/RampInstantEthEscrows.sol\":5749:5792  SwapCreatorChanged(msg.sender, _newCreator) */\n      mload(0x40)\n      dup1\n      dup4\n      0xffffffffffffffffffffffffffffffffffffffff\n      and\n      0xffffffffffffffffffffffffffffffffffffffff\n      and\n      dup2\n      mstore\n      0x20\n      add\n      dup3\n      0xffffffffffffffffffffffffffffffffffffffff\n      and\n      0xffffffffffffffffffffffffffffffffffffffff\n      and\n      dup2\n      mstore\n      0x20\n      add\n      swap3\n      pop\n      pop\n      pop\n      mload(0x40)\n      dup1\n      swap2\n      sub\n      swap1\n      log1\n        /* \"input/RampInstantEthEscrows.sol\":5634:5799  function changeSwapCreator(address _newCreator) public onlyOwner {... */\n      pop\n      jump\t// out\n        /* \"input/RampInstantEthEscrows.sol\":4420:4552  function setStatus(Status _status) external onlyOwner {... */\n    tag_45:\n        /* \"input/RampInstantEthEscrows.sol\":3966:3971  owner */\n      0x00\n      dup1\n      swap1\n      sload\n      swap1\n      0x0100\n      exp\n      swap1\n      div\n      0xffffffffffffffffffffffffffffffffffffffff\n      and\n        /* \"input/RampInstantEthEscrows.sol\":3952:3971  msg.sender == owner */\n      0xffffffffffffffffffffffffffffffffffffffff\n      and\n        /* \"input/RampInstantEthEscrows.sol\":3952:3962  msg.sender */\n      caller\n        /* \"input/RampInstantEthEscrows.sol\":3952:3971  msg.sender == owner */\n      0xffffffffffffffffffffffffffffffffffffffff\n      and\n      eq\n        /* \"input/RampInstantEthEscrows.sol\":3944:4004  require(msg.sender == owner, \"only the owner can call this\") */\n      tag_128\n      jumpi\n      mload(0x40)\n      0x08c379a000000000000000000000000000000000000000000000000000000000\n      dup2\n      mstore\n      0x04\n      add\n      dup1\n      dup1\n      0x20\n      add\n      dup3\n      dup2\n      sub\n      dup3\n      mstore\n      0x1c\n      dup2\n      mstore\n      0x20\n      add\n      dup1\n      0x6f6e6c7920746865206f776e65722063616e2063616c6c207468697300000000\n      dup2\n      mstore\n      pop\n      0x20\n      add\n      swap2\n      pop\n      pop\n      mload(0x40)\n      dup1\n      swap2\n      sub\n      swap1\n      revert\n    tag_128:\n        /* \"input/RampInstantEthEscrows.sol\":4489:4519  StatusChanged(status, _status) */\n      0xe1377aa21d49fa10bb9ece6a0cd4f75597a90a80c3750f7f7674967f49ab9a62\n        /* \"input/RampInstantEthEscrows.sol\":4503:4509  status */\n      0x00\n      0x14\n      swap1\n      sload\n      swap1\n      0x0100\n      exp\n      swap1\n      div\n      0xff\n      and\n        /* \"input/RampInstantEthEscrows.sol\":4511:4518  _status */\n      dup3\n        /* \"input/RampInstantEthEscrows.sol\":4489:4519  StatusChanged(status, _status) */\n      mload(0x40)\n      dup1\n      dup4\n      0x03\n      dup2\n      gt\n      iszero\n      tag_130\n      jumpi\n      invalid\n    tag_130:\n      0xff\n      and\n      dup2\n      mstore\n      0x20\n      add\n      dup3\n      0x03\n      dup2\n      gt\n      iszero\n      tag_131\n      jumpi\n      invalid\n    tag_131:\n      0xff\n      and\n      dup2\n      mstore\n      0x20\n      add\n      swap3\n      pop\n      pop\n      pop\n      mload(0x40)\n      dup1\n      swap2\n      sub\n      swap1\n      log1\n        /* \"input/RampInstantEthEscrows.sol\":4538:4545  _status */\n      dup1\n        /* \"input/RampInstantEthEscrows.sol\":4529:4535  status */\n      0x00\n      0x14\n        /* \"input/RampInstantEthEscrows.sol\":4529:4545  status = _status */\n      0x0100\n      exp\n      dup2\n      sload\n      dup2\n      0xff\n      mul\n      not\n      and\n      swap1\n      dup4\n      0x03\n      dup2\n      gt\n      iszero\n      tag_132\n      jumpi\n      invalid\n    tag_132:\n      mul\n      or\n      swap1\n      sstore\n      pop\n        /* \"input/RampInstantEthEscrows.sol\":4420:4552  function setStatus(Status _status) external onlyOwner {... */\n      pop\n      jump\t// out\n        /* \"input/RampInstantEthEscrows.sol\":4939:5038  function revokeOracle(address _oracle) external onlyOwner {... */\n    tag_49:\n        /* \"input/RampInstantEthEscrows.sol\":3966:3971  owner */\n      0x00\n      dup1\n      swap1\n      sload\n      swap1\n      0x0100\n      exp\n      swap1\n      div\n      0xffffffffffffffffffffffffffffffffffffffff\n      and\n        /* \"input/RampInstantEthEscrows.sol\":3952:3971  msg.sender == owner */\n      0xffffffffffffffffffffffffffffffffffffffff\n      and\n        /* \"input/RampInstantEthEscrows.sol\":3952:3962  msg.sender */\n      caller\n        /* \"input/RampInstantEthEscrows.sol\":3952:3971  msg.sender == owner */\n      0xffffffffffffffffffffffffffffffffffffffff\n      and\n      eq\n        /* \"input/RampInstantEthEscrows.sol\":3944:4004  require(msg.sender == owner, \"only the owner can call this\") */\n      tag_134\n      jumpi\n      mload(0x40)\n      0x08c379a000000000000000000000000000000000000000000000000000000000\n      dup2\n      mstore\n      0x04\n      add\n      dup1\n      dup1\n      0x20\n      add\n      dup3\n      dup2\n      sub\n      dup3\n      mstore\n      0x1c\n      dup2\n      mstore\n      0x20\n      add\n      dup1\n      0x6f6e6c7920746865206f776e65722063616e2063616c6c207468697300000000\n      dup2\n      mstore\n      pop\n      0x20\n      add\n      swap2\n      pop\n      pop\n      mload(0x40)\n      dup1\n      swap2\n      sub\n      swap1\n      revert\n    tag_134:\n        /* \"input/RampInstantEthEscrows.sol\":5026:5031  false */\n      0x00\n        /* \"input/RampInstantEthEscrows.sol\":5007:5014  oracles */\n      0x01\n        /* \"input/RampInstantEthEscrows.sol\":5007:5023  oracles[_oracle] */\n      0x00\n        /* \"input/RampInstantEthEscrows.sol\":5015:5022  _oracle */\n      dup4\n        /* \"input/RampInstantEthEscrows.sol\":5007:5023  oracles[_oracle] */\n      0xffffffffffffffffffffffffffffffffffffffff\n      and\n      0xffffffffffffffffffffffffffffffffffffffff\n      and\n      dup2\n      mstore\n      0x20\n      add\n      swap1\n      dup2\n      mstore\n      0x20\n      add\n      0x00\n      keccak256\n      0x00\n        /* \"input/RampInstantEthEscrows.sol\":5007:5031  oracles[_oracle] = false */\n      0x0100\n      exp\n      dup2\n      sload\n      dup2\n      0xff\n      mul\n      not\n      and\n      swap1\n      dup4\n      iszero\n      iszero\n      mul\n      or\n      swap1\n      sstore\n      pop\n        /* \"input/RampInstantEthEscrows.sol\":4939:5038  function revokeOracle(address _oracle) external onlyOwner {... */\n      pop\n      jump\t// out\n        /* \"input/RampInstantEthEscrows.sol\":1215:1239  uint16 public ASSET_TYPE */\n    tag_52:\n      0x02\n      0x14\n      swap1\n      sload\n      swap1\n      0x0100\n      exp\n      swap1\n      div\n      0xffff\n      and\n      dup2\n      jump\t// out\n        /* \"input/RampInstantEthEscrows.sol\":3761:3781  address public owner */\n    tag_55:\n      0x00\n      dup1\n      swap1\n      sload\n      swap1\n      0x0100\n      exp\n      swap1\n      div\n      0xffffffffffffffffffffffffffffffffffffffff\n      and\n      dup2\n      jump\t// out\n        /* \"input/RampInstantEthEscrows.sol\":13124:13510  function getSwapStatus(... */\n    tag_62:\n        /* \"input/RampInstantEthEscrows.sol\":13323:13336  uint32 status */\n      0x00\n        /* \"input/RampInstantEthEscrows.sol\":13348:13364  bytes32 swapHash */\n      dup1\n        /* \"input/RampInstantEthEscrows.sol\":13367:13471  getSwapHash(... */\n      tag_137\n        /* \"input/RampInstantEthEscrows.sol\":13392:13397  _pool */\n      dup9\n        /* \"input/RampInstantEthEscrows.sol\":13399:13408  _receiver */\n      dup9\n        /* \"input/RampInstantEthEscrows.sol\":13410:13417  _oracle */\n      dup9\n        /* \"input/RampInstantEthEscrows.sol\":13429:13439  _assetData */\n      dup9\n      dup9\n        /* \"input/RampInstantEthEscrows.sol\":13419:13440  keccak256(_assetData) */\n      mload(0x40)\n      dup1\n      dup4\n      dup4\n        /* \"--CODEGEN--\":30:33   */\n      dup1\n        /* \"--CODEGEN--\":22:28   */\n      dup3\n        /* \"--CODEGEN--\":14:20   */\n      dup5\n        /* \"--CODEGEN--\":1:34   */\n      calldatacopy\n        /* \"--CODEGEN--\":57:60   */\n      dup1\n        /* \"--CODEGEN--\":49:55   */\n      dup4\n        /* \"--CODEGEN--\":45:61   */\n      add\n        /* \"--CODEGEN--\":35:61   */\n      swap3\n      pop\n        /* \"input/RampInstantEthEscrows.sol\":13419:13440  keccak256(_assetData) */\n      pop\n      pop\n      swap3\n      pop\n      pop\n      pop\n      mload(0x40)\n      dup1\n      swap2\n      sub\n      swap1\n      keccak256\n        /* \"input/RampInstantEthEscrows.sol\":13442:13461  _paymentDetailsHash */\n      dup8\n        /* \"input/RampInstantEthEscrows.sol\":13367:13378  getSwapHash */\n      tag_118\n        /* \"input/RampInstantEthEscrows.sol\":13367:13471  getSwapHash(... */\n      jump\t// in\n    tag_137:\n        /* \"input/RampInstantEthEscrows.sol\":13348:13471  bytes32 swapHash = getSwapHash(... */\n      swap1\n      pop\n        /* \"input/RampInstantEthEscrows.sol\":13488:13493  swaps */\n      0x04\n        /* \"input/RampInstantEthEscrows.sol\":13488:13503  swaps[swapHash] */\n      0x00\n        /* \"input/RampInstantEthEscrows.sol\":13494:13502  swapHash */\n      dup3\n        /* \"input/RampInstantEthEscrows.sol\":13488:13503  swaps[swapHash] */\n      dup2\n      mstore\n      0x20\n      add\n      swap1\n      dup2\n      mstore\n      0x20\n      add\n      0x00\n      keccak256\n      0x00\n      swap1\n      sload\n      swap1\n      0x0100\n      exp\n      swap1\n      div\n      0xffffffff\n      and\n        /* \"input/RampInstantEthEscrows.sol\":13481:13503  return swaps[swapHash] */\n      swap2\n      pop\n      pop\n        /* \"input/RampInstantEthEscrows.sol\":13124:13510  function getSwapStatus(... */\n      swap7\n      swap6\n      pop\n      pop\n      pop\n      pop\n      pop\n      pop\n      jump\t// out\n        /* \"input/RampInstantEthEscrows.sol\":10913:11715  function release(... */\n    tag_69:\n        /* \"input/RampInstantEthEscrows.sol\":11114:11134  Status.FINALIZE_ONLY */\n      0x02\n        /* \"input/RampInstantEthEscrows.sol\":4625:4632  _status */\n      dup1\n        /* \"input/RampInstantEthEscrows.sol\":4615:4632  status >= _status */\n      0x03\n      dup2\n      gt\n      iszero\n      tag_139\n      jumpi\n      invalid\n    tag_139:\n        /* \"input/RampInstantEthEscrows.sol\":4615:4621  status */\n      0x00\n      0x14\n      swap1\n      sload\n      swap1\n      0x0100\n      exp\n      swap1\n      div\n      0xff\n      and\n        /* \"input/RampInstantEthEscrows.sol\":4615:4632  status >= _status */\n      0x03\n      dup2\n      gt\n      iszero\n      tag_140\n      jumpi\n      invalid\n    tag_140:\n      lt\n      iszero\n        /* \"input/RampInstantEthEscrows.sol\":4607:4660  require(status >= _status, \"invalid contract status\") */\n      tag_141\n      jumpi\n      mload(0x40)\n      0x08c379a000000000000000000000000000000000000000000000000000000000\n      dup2\n      mstore\n      0x04\n      add\n      dup1\n      dup1\n      0x20\n      add\n      dup3\n      dup2\n      sub\n      dup3\n      mstore\n      0x17\n      dup2\n      mstore\n      0x20\n      add\n      dup1\n      0x696e76616c696420636f6e747261637420737461747573000000000000000000\n      dup2\n      mstore\n      pop\n      0x20\n      add\n      swap2\n      pop\n      pop\n      mload(0x40)\n      dup1\n      swap2\n      sub\n      swap1\n      revert\n    tag_141:\n        /* \"input/RampInstantEthEscrows.sol\":11153:11158  _pool */\n      dup7\n        /* \"input/RampInstantEthEscrows.sol\":11160:11167  _oracle */\n      dup6\n        /* \"input/RampInstantEthEscrows.sol\":5267:5272  _pool */\n      dup2\n        /* \"input/RampInstantEthEscrows.sol\":5253:5272  msg.sender == _pool */\n      0xffffffffffffffffffffffffffffffffffffffff\n      and\n        /* \"input/RampInstantEthEscrows.sol\":5253:5263  msg.sender */\n      caller\n        /* \"input/RampInstantEthEscrows.sol\":5253:5272  msg.sender == _pool */\n      0xffffffffffffffffffffffffffffffffffffffff\n      and\n      eq\n        /* \"input/RampInstantEthEscrows.sol\":5253:5322  msg.sender == _pool || (msg.sender == _oracle && oracles[msg.sender]) */\n      dup1\n      tag_143\n      jumpi\n      pop\n        /* \"input/RampInstantEthEscrows.sol\":5291:5298  _oracle */\n      dup1\n        /* \"input/RampInstantEthEscrows.sol\":5277:5298  msg.sender == _oracle */\n      0xffffffffffffffffffffffffffffffffffffffff\n      and\n        /* \"input/RampInstantEthEscrows.sol\":5277:5287  msg.sender */\n      caller\n        /* \"input/RampInstantEthEscrows.sol\":5277:5298  msg.sender == _oracle */\n      0xffffffffffffffffffffffffffffffffffffffff\n      and\n      eq\n        /* \"input/RampInstantEthEscrows.sol\":5277:5321  msg.sender == _oracle && oracles[msg.sender] */\n      dup1\n      iszero\n      tag_144\n      jumpi\n      pop\n        /* \"input/RampInstantEthEscrows.sol\":5302:5309  oracles */\n      0x01\n        /* \"input/RampInstantEthEscrows.sol\":5302:5321  oracles[msg.sender] */\n      0x00\n        /* \"input/RampInstantEthEscrows.sol\":5310:5320  msg.sender */\n      caller\n        /* \"input/RampInstantEthEscrows.sol\":5302:5321  oracles[msg.sender] */\n      0xffffffffffffffffffffffffffffffffffffffff\n      and\n      0xffffffffffffffffffffffffffffffffffffffff\n      and\n      dup2\n      mstore\n      0x20\n      add\n      swap1\n      dup2\n      mstore\n      0x20\n      add\n      0x00\n      keccak256\n      0x00\n      swap1\n      sload\n      swap1\n      0x0100\n      exp\n      swap1\n      div\n      0xff\n      and\n        /* \"input/RampInstantEthEscrows.sol\":5277:5321  msg.sender == _oracle && oracles[msg.sender] */\n    tag_144:\n        /* \"input/RampInstantEthEscrows.sol\":5253:5322  msg.sender == _pool || (msg.sender == _oracle && oracles[msg.sender]) */\n    tag_143:\n        /* \"input/RampInstantEthEscrows.sol\":5232:5389  require(... */\n      tag_145\n      jumpi\n      mload(0x40)\n      0x08c379a000000000000000000000000000000000000000000000000000000000\n      dup2\n      mstore\n      0x04\n      add\n      dup1\n      dup1\n      0x20\n      add\n      dup3\n      dup2\n      sub\n      dup3\n      mstore\n      0x29\n      dup2\n      mstore\n      0x20\n      add\n      dup1\n      data_8889cdf9502051f6182111d178aad396861a3ff01e10cbd6b8663bfd3219a4fe\n      0x29\n      swap2\n      codecopy\n      0x40\n      add\n      swap2\n      pop\n      pop\n      mload(0x40)\n      dup1\n      swap2\n      sub\n      swap1\n      revert\n    tag_145:\n        /* \"input/RampInstantEthEscrows.sol\":11179:11195  bytes32 swapHash */\n      0x00\n        /* \"input/RampInstantEthEscrows.sol\":11198:11302  getSwapHash(... */\n      tag_147\n        /* \"input/RampInstantEthEscrows.sol\":11223:11228  _pool */\n      dup11\n        /* \"input/RampInstantEthEscrows.sol\":11230:11239  _receiver */\n      dup11\n        /* \"input/RampInstantEthEscrows.sol\":11241:11248  _oracle */\n      dup11\n        /* \"input/RampInstantEthEscrows.sol\":11260:11270  _assetData */\n      dup11\n      dup11\n        /* \"input/RampInstantEthEscrows.sol\":11250:11271  keccak256(_assetData) */\n      mload(0x40)\n      dup1\n      dup4\n      dup4\n        /* \"--CODEGEN--\":30:33   */\n      dup1\n        /* \"--CODEGEN--\":22:28   */\n      dup3\n        /* \"--CODEGEN--\":14:20   */\n      dup5\n        /* \"--CODEGEN--\":1:34   */\n      calldatacopy\n        /* \"--CODEGEN--\":57:60   */\n      dup1\n        /* \"--CODEGEN--\":49:55   */\n      dup4\n        /* \"--CODEGEN--\":45:61   */\n      add\n        /* \"--CODEGEN--\":35:61   */\n      swap3\n      pop\n        /* \"input/RampInstantEthEscrows.sol\":11250:11271  keccak256(_assetData) */\n      pop\n      pop\n      swap3\n      pop\n      pop\n      pop\n      mload(0x40)\n      dup1\n      swap2\n      sub\n      swap1\n      keccak256\n        /* \"input/RampInstantEthEscrows.sol\":11273:11292  _paymentDetailsHash */\n      dup10\n        /* \"input/RampInstantEthEscrows.sol\":11198:11209  getSwapHash */\n      tag_118\n        /* \"input/RampInstantEthEscrows.sol\":11198:11302  getSwapHash(... */\n      jump\t// in\n    tag_147:\n        /* \"input/RampInstantEthEscrows.sol\":11179:11302  bytes32 swapHash = getSwapHash(... */\n      swap1\n      pop\n        /* \"input/RampInstantEthEscrows.sol\":11312:11340  requireSwapCreated(swapHash) */\n      tag_148\n        /* \"input/RampInstantEthEscrows.sol\":11331:11339  swapHash */\n      dup2\n        /* \"input/RampInstantEthEscrows.sol\":11312:11330  requireSwapCreated */\n      tag_149\n        /* \"input/RampInstantEthEscrows.sol\":11312:11340  requireSwapCreated(swapHash) */\n      jump\t// in\n    tag_148:\n        /* \"input/RampInstantEthEscrows.sol\":11448:11449  0 */\n      0x00\n        /* \"input/RampInstantEthEscrows.sol\":11430:11435  swaps */\n      0x04\n        /* \"input/RampInstantEthEscrows.sol\":11430:11445  swaps[swapHash] */\n      0x00\n        /* \"input/RampInstantEthEscrows.sol\":11436:11444  swapHash */\n      dup4\n        /* \"input/RampInstantEthEscrows.sol\":11430:11445  swaps[swapHash] */\n      dup2\n      mstore\n      0x20\n      add\n      swap1\n      dup2\n      mstore\n      0x20\n      add\n      0x00\n      keccak256\n      0x00\n        /* \"input/RampInstantEthEscrows.sol\":11430:11449  swaps[swapHash] = 0 */\n      0x0100\n      exp\n      dup2\n      sload\n      dup2\n      0xffffffff\n      mul\n      not\n      and\n      swap1\n      dup4\n      0xffffffff\n      and\n      mul\n      or\n      swap1\n      sstore\n      pop\n        /* \"input/RampInstantEthEscrows.sol\":11480:11522  sendAssetKeepingFee(_assetData, _receiver) */\n      tag_150\n        /* \"input/RampInstantEthEscrows.sol\":11500:11510  _assetData */\n      dup8\n      dup8\n        /* \"input/RampInstantEthEscrows.sol\":11480:11522  sendAssetKeepingFee(_assetData, _receiver) */\n      dup1\n      dup1\n      0x1f\n      add\n      0x20\n      dup1\n      swap2\n      div\n      mul\n      0x20\n      add\n      mload(0x40)\n      swap1\n      dup2\n      add\n      0x40\n      mstore\n      dup1\n      swap4\n      swap3\n      swap2\n      swap1\n      dup2\n      dup2\n      mstore\n      0x20\n      add\n      dup4\n      dup4\n        /* \"--CODEGEN--\":30:33   */\n      dup1\n        /* \"--CODEGEN--\":22:28   */\n      dup3\n        /* \"--CODEGEN--\":14:20   */\n      dup5\n        /* \"--CODEGEN--\":1:34   */\n      calldatacopy\n        /* \"--CODEGEN--\":99:100   */\n      0x00\n        /* \"--CODEGEN--\":93:96   */\n      dup2\n        /* \"--CODEGEN--\":85:91   */\n      dup5\n        /* \"--CODEGEN--\":81:97   */\n      add\n        /* \"--CODEGEN--\":74:101   */\n      mstore\n        /* \"--CODEGEN--\":137:141   */\n      0x1f\n        /* \"--CODEGEN--\":133:142   */\n      not\n        /* \"--CODEGEN--\":126:130   */\n      0x1f\n        /* \"--CODEGEN--\":121:124   */\n      dup3\n        /* \"--CODEGEN--\":117:131   */\n      add\n        /* \"--CODEGEN--\":113:143   */\n      and\n        /* \"--CODEGEN--\":106:143   */\n      swap1\n      pop\n        /* \"--CODEGEN--\":169:172   */\n      dup1\n        /* \"--CODEGEN--\":161:167   */\n      dup4\n        /* \"--CODEGEN--\":157:173   */\n      add\n        /* \"--CODEGEN--\":147:173   */\n      swap3\n      pop\n        /* \"input/RampInstantEthEscrows.sol\":11480:11522  sendAssetKeepingFee(_assetData, _receiver) */\n      pop\n      pop\n      pop\n      pop\n      pop\n      pop\n        /* \"input/RampInstantEthEscrows.sol\":11512:11521  _receiver */\n      dup11\n        /* \"input/RampInstantEthEscrows.sol\":11480:11499  sendAssetKeepingFee */\n      tag_151\n        /* \"input/RampInstantEthEscrows.sol\":11480:11522  sendAssetKeepingFee(_assetData, _receiver) */\n      jump\t// in\n    tag_150:\n        /* \"input/RampInstantEthEscrows.sol\":11459:11568  require(... */\n      tag_152\n      jumpi\n      mload(0x40)\n      0x08c379a000000000000000000000000000000000000000000000000000000000\n      dup2\n      mstore\n      0x04\n      add\n      dup1\n      dup1\n      0x20\n      add\n      dup3\n      dup2\n      sub\n      dup3\n      mstore\n      0x14\n      dup2\n      mstore\n      0x20\n      add\n      dup1\n      0x61737365742072656c65617365206661696c6564000000000000000000000000\n      dup2\n      mstore\n      pop\n      0x20\n      add\n      swap2\n      pop\n      pop\n      mload(0x40)\n      dup1\n      swap2\n      sub\n      swap1\n      revert\n    tag_152:\n        /* \"input/RampInstantEthEscrows.sol\":11596:11601  _pool */\n      dup10\n        /* \"input/RampInstantEthEscrows.sol\":11582:11601  msg.sender == _pool */\n      0xffffffffffffffffffffffffffffffffffffffff\n      and\n        /* \"input/RampInstantEthEscrows.sol\":11582:11592  msg.sender */\n      caller\n        /* \"input/RampInstantEthEscrows.sol\":11582:11601  msg.sender == _pool */\n      0xffffffffffffffffffffffffffffffffffffffff\n      and\n      eq\n        /* \"input/RampInstantEthEscrows.sol\":11578:11709  if (msg.sender == _pool) {... */\n      iszero\n      tag_153\n      jumpi\n        /* \"input/RampInstantEthEscrows.sol\":11635:11643  swapHash */\n      dup1\n        /* \"input/RampInstantEthEscrows.sol\":11622:11644  PoolReleased(swapHash) */\n      0x789952a21900cba4809507b4ba56618cee6a1e748254f8faab21e9b8f1c60bc9\n      mload(0x40)\n      mload(0x40)\n      dup1\n      swap2\n      sub\n      swap1\n      log2\n        /* \"input/RampInstantEthEscrows.sol\":11578:11709  if (msg.sender == _pool) {... */\n      jump(tag_154)\n    tag_153:\n        /* \"input/RampInstantEthEscrows.sol\":11689:11697  swapHash */\n      dup1\n        /* \"input/RampInstantEthEscrows.sol\":11680:11698  Released(swapHash) */\n      0x6eec2dd2382427616d4ea7ef183b16091feac4e2e63c8b55f25215f132df8d14\n      mload(0x40)\n      mload(0x40)\n      dup1\n      swap2\n      sub\n      swap1\n      log2\n        /* \"input/RampInstantEthEscrows.sol\":11578:11709  if (msg.sender == _pool) {... */\n    tag_154:\n        /* \"input/RampInstantEthEscrows.sol\":5399:5400  _ */\n      pop\n        /* \"input/RampInstantEthEscrows.sol\":4670:4671  _ */\n      pop\n      pop\n        /* \"input/RampInstantEthEscrows.sol\":10913:11715  function release(... */\n      pop\n      pop\n      pop\n      pop\n      pop\n      pop\n      pop\n      jump\t// out\n        /* \"input/RampInstantEthEscrows.sol\":4028:4171  function changeOwner(address _newOwner) external onlyOwner {... */\n    tag_73:\n        /* \"input/RampInstantEthEscrows.sol\":3966:3971  owner */\n      0x00\n      dup1\n      swap1\n      sload\n      swap1\n      0x0100\n      exp\n      swap1\n      div\n      0xffffffffffffffffffffffffffffffffffffffff\n      and\n        /* \"input/RampInstantEthEscrows.sol\":3952:3971  msg.sender == owner */\n      0xffffffffffffffffffffffffffffffffffffffff\n      and\n        /* \"input/RampInstantEthEscrows.sol\":3952:3962  msg.sender */\n      caller\n        /* \"input/RampInstantEthEscrows.sol\":3952:3971  msg.sender == owner */\n      0xffffffffffffffffffffffffffffffffffffffff\n      and\n      eq\n        /* \"input/RampInstantEthEscrows.sol\":3944:4004  require(msg.sender == owner, \"only the owner can call this\") */\n      tag_156\n      jumpi\n      mload(0x40)\n      0x08c379a000000000000000000000000000000000000000000000000000000000\n      dup2\n      mstore\n      0x04\n      add\n      dup1\n      dup1\n      0x20\n      add\n      dup3\n      dup2\n      sub\n      dup3\n      mstore\n      0x1c\n      dup2\n      mstore\n      0x20\n      add\n      dup1\n      0x6f6e6c7920746865206f776e65722063616e2063616c6c207468697300000000\n      dup2\n      mstore\n      pop\n      0x20\n      add\n      swap2\n      pop\n      pop\n      mload(0x40)\n      dup1\n      swap2\n      sub\n      swap1\n      revert\n    tag_156:\n        /* \"input/RampInstantEthEscrows.sol\":4105:4114  _newOwner */\n      dup1\n        /* \"input/RampInstantEthEscrows.sol\":4097:4102  owner */\n      0x00\n      dup1\n        /* \"input/RampInstantEthEscrows.sol\":4097:4114  owner = _newOwner */\n      0x0100\n      exp\n      dup2\n      sload\n      dup2\n      0xffffffffffffffffffffffffffffffffffffffff\n      mul\n      not\n      and\n      swap1\n      dup4\n      0xffffffffffffffffffffffffffffffffffffffff\n      and\n      mul\n      or\n      swap1\n      sstore\n      pop\n        /* \"input/RampInstantEthEscrows.sol\":4129:4164  OwnerChanged(msg.sender, _newOwner) */\n      0xb532073b38c83145e3e5135377a08bf9aab55bc0fd7c1179cd4fb995d2a5159c\n        /* \"input/RampInstantEthEscrows.sol\":4142:4152  msg.sender */\n      caller\n        /* \"input/RampInstantEthEscrows.sol\":4154:4163  _newOwner */\n      dup3\n        /* \"input/RampInstantEthEscrows.sol\":4129:4164  OwnerChanged(msg.sender, _newOwner) */\n      mload(0x40)\n      dup1\n      dup4\n      0xffffffffffffffffffffffffffffffffffffffff\n      and\n      0xffffffffffffffffffffffffffffffffffffffff\n      and\n      dup2\n      mstore\n      0x20\n      add\n      dup3\n      0xffffffffffffffffffffffffffffffffffffffff\n      and\n      0xffffffffffffffffffffffffffffffffffffffff\n      and\n      dup2\n      mstore\n      0x20\n      add\n      swap3\n      pop\n      pop\n      pop\n      mload(0x40)\n      dup1\n      swap2\n      sub\n      swap1\n      log1\n        /* \"input/RampInstantEthEscrows.sol\":4028:4171  function changeOwner(address _newOwner) external onlyOwner {... */\n      pop\n      jump\t// out\n        /* \"input/RampInstantEthEscrows.sol\":12041:12837  function returnFunds(... */\n    tag_80:\n        /* \"input/RampInstantEthEscrows.sol\":12246:12264  Status.RETURN_ONLY */\n      0x01\n        /* \"input/RampInstantEthEscrows.sol\":4625:4632  _status */\n      dup1\n        /* \"input/RampInstantEthEscrows.sol\":4615:4632  status >= _status */\n      0x03\n      dup2\n      gt\n      iszero\n      tag_159\n      jumpi\n      invalid\n    tag_159:\n        /* \"input/RampInstantEthEscrows.sol\":4615:4621  status */\n      0x00\n      0x14\n      swap1\n      sload\n      swap1\n      0x0100\n      exp\n      swap1\n      div\n      0xff\n      and\n        /* \"input/RampInstantEthEscrows.sol\":4615:4632  status >= _status */\n      0x03\n      dup2\n      gt\n      iszero\n      tag_160\n      jumpi\n      invalid\n    tag_160:\n      lt\n      iszero\n        /* \"input/RampInstantEthEscrows.sol\":4607:4660  require(status >= _status, \"invalid contract status\") */\n      tag_161\n      jumpi\n      mload(0x40)\n      0x08c379a000000000000000000000000000000000000000000000000000000000\n      dup2\n      mstore\n      0x04\n      add\n      dup1\n      dup1\n      0x20\n      add\n      dup3\n      dup2\n      sub\n      dup3\n      mstore\n      0x17\n      dup2\n      mstore\n      0x20\n      add\n      dup1\n      0x696e76616c696420636f6e747261637420737461747573000000000000000000\n      dup2\n      mstore\n      pop\n      0x20\n      add\n      swap2\n      pop\n      pop\n      mload(0x40)\n      dup1\n      swap2\n      sub\n      swap1\n      revert\n    tag_161:\n        /* \"input/RampInstantEthEscrows.sol\":12283:12288  _pool */\n      dup7\n        /* \"input/RampInstantEthEscrows.sol\":12290:12297  _oracle */\n      dup6\n        /* \"input/RampInstantEthEscrows.sol\":5267:5272  _pool */\n      dup2\n        /* \"input/RampInstantEthEscrows.sol\":5253:5272  msg.sender == _pool */\n      0xffffffffffffffffffffffffffffffffffffffff\n      and\n        /* \"input/RampInstantEthEscrows.sol\":5253:5263  msg.sender */\n      caller\n        /* \"input/RampInstantEthEscrows.sol\":5253:5272  msg.sender == _pool */\n      0xffffffffffffffffffffffffffffffffffffffff\n      and\n      eq\n        /* \"input/RampInstantEthEscrows.sol\":5253:5322  msg.sender == _pool || (msg.sender == _oracle && oracles[msg.sender]) */\n      dup1\n      tag_163\n      jumpi\n      pop\n        /* \"input/RampInstantEthEscrows.sol\":5291:5298  _oracle */\n      dup1\n        /* \"input/RampInstantEthEscrows.sol\":5277:5298  msg.sender == _oracle */\n      0xffffffffffffffffffffffffffffffffffffffff\n      and\n        /* \"input/RampInstantEthEscrows.sol\":5277:5287  msg.sender */\n      caller\n        /* \"input/RampInstantEthEscrows.sol\":5277:5298  msg.sender == _oracle */\n      0xffffffffffffffffffffffffffffffffffffffff\n      and\n      eq\n        /* \"input/RampInstantEthEscrows.sol\":5277:5321  msg.sender == _oracle && oracles[msg.sender] */\n      dup1\n      iszero\n      tag_164\n      jumpi\n      pop\n        /* \"input/RampInstantEthEscrows.sol\":5302:5309  oracles */\n      0x01\n        /* \"input/RampInstantEthEscrows.sol\":5302:5321  oracles[msg.sender] */\n      0x00\n        /* \"input/RampInstantEthEscrows.sol\":5310:5320  msg.sender */\n      caller\n        /* \"input/RampInstantEthEscrows.sol\":5302:5321  oracles[msg.sender] */\n      0xffffffffffffffffffffffffffffffffffffffff\n      and\n      0xffffffffffffffffffffffffffffffffffffffff\n      and\n      dup2\n      mstore\n      0x20\n      add\n      swap1\n      dup2\n      mstore\n      0x20\n      add\n      0x00\n      keccak256\n      0x00\n      swap1\n      sload\n      swap1\n      0x0100\n      exp\n      swap1\n      div\n      0xff\n      and\n        /* \"input/RampInstantEthEscrows.sol\":5277:5321  msg.sender == _oracle && oracles[msg.sender] */\n    tag_164:\n        /* \"input/RampInstantEthEscrows.sol\":5253:5322  msg.sender == _pool || (msg.sender == _oracle && oracles[msg.sender]) */\n    tag_163:\n        /* \"input/RampInstantEthEscrows.sol\":5232:5389  require(... */\n      tag_165\n      jumpi\n      mload(0x40)\n      0x08c379a000000000000000000000000000000000000000000000000000000000\n      dup2\n      mstore\n      0x04\n      add\n      dup1\n      dup1\n      0x20\n      add\n      dup3\n      dup2\n      sub\n      dup3\n      mstore\n      0x29\n      dup2\n      mstore\n      0x20\n      add\n      dup1\n      data_8889cdf9502051f6182111d178aad396861a3ff01e10cbd6b8663bfd3219a4fe\n      0x29\n      swap2\n      codecopy\n      0x40\n      add\n      swap2\n      pop\n      pop\n      mload(0x40)\n      dup1\n      swap2\n      sub\n      swap1\n      revert\n    tag_165:\n        /* \"input/RampInstantEthEscrows.sol\":12309:12325  bytes32 swapHash */\n      0x00\n        /* \"input/RampInstantEthEscrows.sol\":12328:12432  getSwapHash(... */\n      tag_167\n        /* \"input/RampInstantEthEscrows.sol\":12353:12358  _pool */\n      dup11\n        /* \"input/RampInstantEthEscrows.sol\":12360:12369  _receiver */\n      dup11\n        /* \"input/RampInstantEthEscrows.sol\":12371:12378  _oracle */\n      dup11\n        /* \"input/RampInstantEthEscrows.sol\":12390:12400  _assetData */\n      dup11\n      dup11\n        /* \"input/RampInstantEthEscrows.sol\":12380:12401  keccak256(_assetData) */\n      mload(0x40)\n      dup1\n      dup4\n      dup4\n        /* \"--CODEGEN--\":30:33   */\n      dup1\n        /* \"--CODEGEN--\":22:28   */\n      dup3\n        /* \"--CODEGEN--\":14:20   */\n      dup5\n        /* \"--CODEGEN--\":1:34   */\n      calldatacopy\n        /* \"--CODEGEN--\":57:60   */\n      dup1\n        /* \"--CODEGEN--\":49:55   */\n      dup4\n        /* \"--CODEGEN--\":45:61   */\n      add\n        /* \"--CODEGEN--\":35:61   */\n      swap3\n      pop\n        /* \"input/RampInstantEthEscrows.sol\":12380:12401  keccak256(_assetData) */\n      pop\n      pop\n      swap3\n      pop\n      pop\n      pop\n      mload(0x40)\n      dup1\n      swap2\n      sub\n      swap1\n      keccak256\n        /* \"input/RampInstantEthEscrows.sol\":12403:12422  _paymentDetailsHash */\n      dup10\n        /* \"input/RampInstantEthEscrows.sol\":12328:12339  getSwapHash */\n      tag_118\n        /* \"input/RampInstantEthEscrows.sol\":12328:12432  getSwapHash(... */\n      jump\t// in\n    tag_167:\n        /* \"input/RampInstantEthEscrows.sol\":12309:12432  bytes32 swapHash = getSwapHash(... */\n      swap1\n      pop\n        /* \"input/RampInstantEthEscrows.sol\":12442:12470  requireSwapExpired(swapHash) */\n      tag_168\n        /* \"input/RampInstantEthEscrows.sol\":12461:12469  swapHash */\n      dup2\n        /* \"input/RampInstantEthEscrows.sol\":12442:12460  requireSwapExpired */\n      tag_169\n        /* \"input/RampInstantEthEscrows.sol\":12442:12470  requireSwapExpired(swapHash) */\n      jump\t// in\n    tag_168:\n        /* \"input/RampInstantEthEscrows.sol\":12578:12579  0 */\n      0x00\n        /* \"input/RampInstantEthEscrows.sol\":12560:12565  swaps */\n      0x04\n        /* \"input/RampInstantEthEscrows.sol\":12560:12575  swaps[swapHash] */\n      0x00\n        /* \"input/RampInstantEthEscrows.sol\":12566:12574  swapHash */\n      dup4\n        /* \"input/RampInstantEthEscrows.sol\":12560:12575  swaps[swapHash] */\n      dup2\n      mstore\n      0x20\n      add\n      swap1\n      dup2\n      mstore\n      0x20\n      add\n      0x00\n      keccak256\n      0x00\n        /* \"input/RampInstantEthEscrows.sol\":12560:12579  swaps[swapHash] = 0 */\n      0x0100\n      exp\n      dup2\n      sload\n      dup2\n      0xffffffff\n      mul\n      not\n      and\n      swap1\n      dup4\n      0xffffffff\n      and\n      mul\n      or\n      swap1\n      sstore\n      pop\n        /* \"input/RampInstantEthEscrows.sol\":12610:12645  sendAssetWithFee(_assetData, _pool) */\n      tag_170\n        /* \"input/RampInstantEthEscrows.sol\":12627:12637  _assetData */\n      dup8\n      dup8\n        /* \"input/RampInstantEthEscrows.sol\":12610:12645  sendAssetWithFee(_assetData, _pool) */\n      dup1\n      dup1\n      0x1f\n      add\n      0x20\n      dup1\n      swap2\n      div\n      mul\n      0x20\n      add\n      mload(0x40)\n      swap1\n      dup2\n      add\n      0x40\n      mstore\n      dup1\n      swap4\n      swap3\n      swap2\n      swap1\n      dup2\n      dup2\n      mstore\n      0x20\n      add\n      dup4\n      dup4\n        /* \"--CODEGEN--\":30:33   */\n      dup1\n        /* \"--CODEGEN--\":22:28   */\n      dup3\n        /* \"--CODEGEN--\":14:20   */\n      dup5\n        /* \"--CODEGEN--\":1:34   */\n      calldatacopy\n        /* \"--CODEGEN--\":99:100   */\n      0x00\n        /* \"--CODEGEN--\":93:96   */\n      dup2\n        /* \"--CODEGEN--\":85:91   */\n      dup5\n        /* \"--CODEGEN--\":81:97   */\n      add\n        /* \"--CODEGEN--\":74:101   */\n      mstore\n        /* \"--CODEGEN--\":137:141   */\n      0x1f\n        /* \"--CODEGEN--\":133:142   */\n      not\n        /* \"--CODEGEN--\":126:130   */\n      0x1f\n        /* \"--CODEGEN--\":121:124   */\n      dup3\n        /* \"--CODEGEN--\":117:131   */\n      add\n        /* \"--CODEGEN--\":113:143   */\n      and\n        /* \"--CODEGEN--\":106:143   */\n      swap1\n      pop\n        /* \"--CODEGEN--\":169:172   */\n      dup1\n        /* \"--CODEGEN--\":161:167   */\n      dup4\n        /* \"--CODEGEN--\":157:173   */\n      add\n        /* \"--CODEGEN--\":147:173   */\n      swap3\n      pop\n        /* \"input/RampInstantEthEscrows.sol\":12610:12645  sendAssetWithFee(_assetData, _pool) */\n      pop\n      pop\n      pop\n      pop\n      pop\n      pop\n        /* \"input/RampInstantEthEscrows.sol\":12639:12644  _pool */\n      dup12\n        /* \"input/RampInstantEthEscrows.sol\":12610:12626  sendAssetWithFee */\n      tag_171\n        /* \"input/RampInstantEthEscrows.sol\":12610:12645  sendAssetWithFee(_assetData, _pool) */\n      jump\t// in\n    tag_170:\n        /* \"input/RampInstantEthEscrows.sol\":12589:12690  require(... */\n      tag_172\n      jumpi\n      mload(0x40)\n      0x08c379a000000000000000000000000000000000000000000000000000000000\n      dup2\n      mstore\n      0x04\n      add\n      dup1\n      dup1\n      0x20\n      add\n      dup3\n      dup2\n      sub\n      dup3\n      mstore\n      0x13\n      dup2\n      mstore\n      0x20\n      add\n      dup1\n      0x61737365742072657475726e206661696c656400000000000000000000000000\n      dup2\n      mstore\n      pop\n      0x20\n      add\n      swap2\n      pop\n      pop\n      mload(0x40)\n      dup1\n      swap2\n      sub\n      swap1\n      revert\n    tag_172:\n        /* \"input/RampInstantEthEscrows.sol\":12718:12723  _pool */\n      dup10\n        /* \"input/RampInstantEthEscrows.sol\":12704:12723  msg.sender == _pool */\n      0xffffffffffffffffffffffffffffffffffffffff\n      and\n        /* \"input/RampInstantEthEscrows.sol\":12704:12714  msg.sender */\n      caller\n        /* \"input/RampInstantEthEscrows.sol\":12704:12723  msg.sender == _pool */\n      0xffffffffffffffffffffffffffffffffffffffff\n      and\n      eq\n        /* \"input/RampInstantEthEscrows.sol\":12700:12831  if (msg.sender == _pool) {... */\n      iszero\n      tag_173\n      jumpi\n        /* \"input/RampInstantEthEscrows.sol\":12757:12765  swapHash */\n      dup1\n        /* \"input/RampInstantEthEscrows.sol\":12744:12766  PoolReturned(swapHash) */\n      0x7b5ac55826e0ca40c3f69722d916fb9962d86cffcddc9c84d082b712419e5cbd\n      mload(0x40)\n      mload(0x40)\n      dup1\n      swap2\n      sub\n      swap1\n      log2\n        /* \"input/RampInstantEthEscrows.sol\":12700:12831  if (msg.sender == _pool) {... */\n      jump(tag_174)\n    tag_173:\n        /* \"input/RampInstantEthEscrows.sol\":12811:12819  swapHash */\n      dup1\n        /* \"input/RampInstantEthEscrows.sol\":12802:12820  Returned(swapHash) */\n      0xc99795d9dc9d68f27b21e122a0e663f689138f9110dee0122fc2980f8d579775\n      mload(0x40)\n      mload(0x40)\n      dup1\n      swap2\n      sub\n      swap1\n      log2\n        /* \"input/RampInstantEthEscrows.sol\":12700:12831  if (msg.sender == _pool) {... */\n    tag_174:\n        /* \"input/RampInstantEthEscrows.sol\":5399:5400  _ */\n      pop\n        /* \"input/RampInstantEthEscrows.sol\":4670:4671  _ */\n      pop\n      pop\n        /* \"input/RampInstantEthEscrows.sol\":12041:12837  function returnFunds(... */\n      pop\n      pop\n      pop\n      pop\n      pop\n      pop\n      pop\n      jump\t// out\n        /* \"input/RampInstantEthEscrows.sol\":15765:16027  function withdrawFees(... */\n    tag_87:\n        /* \"input/RampInstantEthEscrows.sol\":15888:15900  bool success */\n      0x00\n        /* \"input/RampInstantEthEscrows.sol\":3966:3971  owner */\n      dup1\n      0x00\n      swap1\n      sload\n      swap1\n      0x0100\n      exp\n      swap1\n      div\n      0xffffffffffffffffffffffffffffffffffffffff\n      and\n        /* \"input/RampInstantEthEscrows.sol\":3952:3971  msg.sender == owner */\n      0xffffffffffffffffffffffffffffffffffffffff\n      and\n        /* \"input/RampInstantEthEscrows.sol\":3952:3962  msg.sender */\n      caller\n        /* \"input/RampInstantEthEscrows.sol\":3952:3971  msg.sender == owner */\n      0xffffffffffffffffffffffffffffffffffffffff\n      and\n      eq\n        /* \"input/RampInstantEthEscrows.sol\":3944:4004  require(msg.sender == owner, \"only the owner can call this\") */\n      tag_176\n      jumpi\n      mload(0x40)\n      0x08c379a000000000000000000000000000000000000000000000000000000000\n      dup2\n      mstore\n      0x04\n      add\n      dup1\n      dup1\n      0x20\n      add\n      dup3\n      dup2\n      sub\n      dup3\n      mstore\n      0x1c\n      dup2\n      mstore\n      0x20\n      add\n      dup1\n      0x6f6e6c7920746865206f776e65722063616e2063616c6c207468697300000000\n      dup2\n      mstore\n      pop\n      0x20\n      add\n      swap2\n      pop\n      pop\n      mload(0x40)\n      dup1\n      swap2\n      sub\n      swap1\n      revert\n    tag_176:\n        /* \"input/RampInstantEthEscrows.sol\":15912:15924  uint256 fees */\n      0x00\n        /* \"input/RampInstantEthEscrows.sol\":15927:15942  accumulatedFees */\n      sload(0x05)\n        /* \"input/RampInstantEthEscrows.sol\":15912:15942  uint256 fees = accumulatedFees */\n      swap1\n      pop\n        /* \"input/RampInstantEthEscrows.sol\":15970:15971  0 */\n      0x00\n        /* \"input/RampInstantEthEscrows.sol\":15952:15967  accumulatedFees */\n      0x05\n        /* \"input/RampInstantEthEscrows.sol\":15952:15971  accumulatedFees = 0 */\n      dup2\n      swap1\n      sstore\n      pop\n        /* \"input/RampInstantEthEscrows.sol\":15981:15984  _to */\n      dup3\n        /* \"input/RampInstantEthEscrows.sol\":15981:15993  _to.transfer */\n      0xffffffffffffffffffffffffffffffffffffffff\n      and\n        /* \"input/RampInstantEthEscrows.sol\":15981:15999  _to.transfer(fees) */\n      0x08fc\n        /* \"input/RampInstantEthEscrows.sol\":15994:15998  fees */\n      dup3\n        /* \"input/RampInstantEthEscrows.sol\":15981:15999  _to.transfer(fees) */\n      swap1\n      dup2\n      iszero\n      mul\n      swap1\n      mload(0x40)\n      0x00\n      mload(0x40)\n      dup1\n      dup4\n      sub\n      dup2\n      dup6\n      dup9\n      dup9\n      call\n      swap4\n      pop\n      pop\n      pop\n      pop\n      iszero\n        /* \"--CODEGEN--\":8:17   */\n      dup1\n        /* \"--CODEGEN--\":5:7   */\n      iszero\n      tag_178\n      jumpi\n        /* \"--CODEGEN--\":45:61   */\n      returndatasize\n        /* \"--CODEGEN--\":42:43   */\n      0x00\n        /* \"--CODEGEN--\":39:40   */\n      dup1\n        /* \"--CODEGEN--\":24:62   */\n      returndatacopy\n        /* \"--CODEGEN--\":77:93   */\n      returndatasize\n        /* \"--CODEGEN--\":74:75   */\n      0x00\n        /* \"--CODEGEN--\":67:94   */\n      revert\n        /* \"--CODEGEN--\":5:7   */\n    tag_178:\n        /* \"input/RampInstantEthEscrows.sol\":15981:15999  _to.transfer(fees) */\n      pop\n        /* \"input/RampInstantEthEscrows.sol\":16016:16020  true */\n      0x01\n        /* \"input/RampInstantEthEscrows.sol\":16009:16020  return true */\n      swap2\n      pop\n      pop\n        /* \"input/RampInstantEthEscrows.sol\":15765:16027  function withdrawFees(... */\n      swap4\n      swap3\n      pop\n      pop\n      pop\n      jump\t// out\n        /* \"input/RampInstantEthEscrows.sol\":4834:4933  function approveOracle(address _oracle) external onlyOwner {... */\n    tag_91:\n        /* \"input/RampInstantEthEscrows.sol\":3966:3971  owner */\n      0x00\n      dup1\n      swap1\n      sload\n      swap1\n      0x0100\n      exp\n      swap1\n      div\n      0xffffffffffffffffffffffffffffffffffffffff\n      and\n        /* \"input/RampInstantEthEscrows.sol\":3952:3971  msg.sender == owner */\n      0xffffffffffffffffffffffffffffffffffffffff\n      and\n        /* \"input/RampInstantEthEscrows.sol\":3952:3962  msg.sender */\n      caller\n        /* \"input/RampInstantEthEscrows.sol\":3952:3971  msg.sender == owner */\n      0xffffffffffffffffffffffffffffffffffffffff\n      and\n      eq\n        /* \"input/RampInstantEthEscrows.sol\":3944:4004  require(msg.sender == owner, \"only the owner can call this\") */\n      tag_180\n      jumpi\n      mload(0x40)\n      0x08c379a000000000000000000000000000000000000000000000000000000000\n      dup2\n      mstore\n      0x04\n      add\n      dup1\n      dup1\n      0x20\n      add\n      dup3\n      dup2\n      sub\n      dup3\n      mstore\n      0x1c\n      dup2\n      mstore\n      0x20\n      add\n      dup1\n      0x6f6e6c7920746865206f776e65722063616e2063616c6c207468697300000000\n      dup2\n      mstore\n      pop\n      0x20\n      add\n      swap2\n      pop\n      pop\n      mload(0x40)\n      dup1\n      swap2\n      sub\n      swap1\n      revert\n    tag_180:\n        /* \"input/RampInstantEthEscrows.sol\":4922:4926  true */\n      0x01\n        /* \"input/RampInstantEthEscrows.sol\":4903:4910  oracles */\n      dup1\n        /* \"input/RampInstantEthEscrows.sol\":4903:4919  oracles[_oracle] */\n      0x00\n        /* \"input/RampInstantEthEscrows.sol\":4911:4918  _oracle */\n      dup4\n        /* \"input/RampInstantEthEscrows.sol\":4903:4919  oracles[_oracle] */\n      0xffffffffffffffffffffffffffffffffffffffff\n      and\n      0xffffffffffffffffffffffffffffffffffffffff\n      and\n      dup2\n      mstore\n      0x20\n      add\n      swap1\n      dup2\n      mstore\n      0x20\n      add\n      0x00\n      keccak256\n      0x00\n        /* \"input/RampInstantEthEscrows.sol\":4903:4926  oracles[_oracle] = true */\n      0x0100\n      exp\n      dup2\n      sload\n      dup2\n      0xff\n      mul\n      not\n      and\n      swap1\n      dup4\n      iszero\n      iszero\n      mul\n      or\n      swap1\n      sstore\n      pop\n        /* \"input/RampInstantEthEscrows.sol\":4834:4933  function approveOracle(address _oracle) external onlyOwner {... */\n      pop\n      jump\t// out\n        /* \"input/RampInstantEthEscrows.sol\":6041:6068  uint256 public minFeeAmount */\n    tag_94:\n      sload(0x03)\n      dup2\n      jump\t// out\n        /* \"input/RampInstantEthEscrows.sol\":8070:8110  string public constant VERSION = \"0.5.0\" */\n    tag_97:\n      mload(0x40)\n      dup1\n      0x40\n      add\n      0x40\n      mstore\n      dup1\n      0x05\n      dup2\n      mstore\n      0x20\n      add\n      0x302e352e30000000000000000000000000000000000000000000000000000000\n      dup2\n      mstore\n      pop\n      dup2\n      jump\t// out\n        /* \"input/RampInstantEthEscrows.sol\":16255:16432  function checkAssetData(bytes memory assetData, address /*_pool*/) internal view {... */\n    tag_113:\n        /* \"input/RampInstantEthEscrows.sol\":14779:14781  34 */\n      0x22\n        /* \"input/RampInstantEthEscrows.sol\":16354:16395  assetData.length == ETH_ASSET_DATA_LENGTH */\n      0xffff\n      and\n        /* \"input/RampInstantEthEscrows.sol\":16354:16363  assetData */\n      dup3\n        /* \"input/RampInstantEthEscrows.sol\":16354:16370  assetData.length */\n      mload\n        /* \"input/RampInstantEthEscrows.sol\":16354:16395  assetData.length == ETH_ASSET_DATA_LENGTH */\n      eq\n        /* \"input/RampInstantEthEscrows.sol\":16346:16425  require(assetData.length == ETH_ASSET_DATA_LENGTH, \"invalid asset data length\") */\n      tag_183\n      jumpi\n      mload(0x40)\n      0x08c379a000000000000000000000000000000000000000000000000000000000\n      dup2\n      mstore\n      0x04\n      add\n      dup1\n      dup1\n      0x20\n      add\n      dup3\n      dup2\n      sub\n      dup3\n      mstore\n      0x19\n      dup2\n      mstore\n      0x20\n      add\n      dup1\n      0x696e76616c69642061737365742064617461206c656e67746800000000000000\n      dup2\n      mstore\n      pop\n      0x20\n      add\n      swap2\n      pop\n      pop\n      mload(0x40)\n      dup1\n      swap2\n      sub\n      swap1\n      revert\n    tag_183:\n        /* \"input/RampInstantEthEscrows.sol\":16255:16432  function checkAssetData(bytes memory assetData, address /*_pool*/) internal view {... */\n      pop\n      pop\n      jump\t// out\n        /* \"input/RampInstantEthEscrows.sol\":13619:13979  function getSwapHash(... */\n    tag_118:\n        /* \"input/RampInstantEthEscrows.sol\":13808:13815  bytes32 */\n      0x00\n        /* \"input/RampInstantEthEscrows.sol\":13891:13896  _pool */\n      dup6\n        /* \"input/RampInstantEthEscrows.sol\":13898:13907  _receiver */\n      dup6\n        /* \"input/RampInstantEthEscrows.sol\":13909:13916  _oracle */\n      dup6\n        /* \"input/RampInstantEthEscrows.sol\":13918:13927  assetHash */\n      dup6\n        /* \"input/RampInstantEthEscrows.sol\":13929:13948  _paymentDetailsHash */\n      dup6\n        /* \"input/RampInstantEthEscrows.sol\":13857:13962  abi.encodePacked(... */\n      add(0x20, mload(0x40))\n      dup1\n      dup7\n      0xffffffffffffffffffffffffffffffffffffffff\n      and\n      0xffffffffffffffffffffffffffffffffffffffff\n      and\n      0x60\n      shl\n      dup2\n      mstore\n      0x14\n      add\n      dup6\n      0xffffffffffffffffffffffffffffffffffffffff\n      and\n      0xffffffffffffffffffffffffffffffffffffffff\n      and\n      0x60\n      shl\n      dup2\n      mstore\n      0x14\n      add\n      dup5\n      0xffffffffffffffffffffffffffffffffffffffff\n      and\n      0xffffffffffffffffffffffffffffffffffffffff\n      and\n      0x60\n      shl\n      dup2\n      mstore\n      0x14\n      add\n      dup4\n      dup2\n      mstore\n      0x20\n      add\n      dup3\n      dup2\n      mstore\n      0x20\n      add\n      swap6\n      pop\n      pop\n      pop\n      pop\n      pop\n      pop\n      mload(0x40)\n        /* \"--CODEGEN--\":49:53   */\n      0x20\n        /* \"--CODEGEN--\":39:46   */\n      dup2\n        /* \"--CODEGEN--\":30:37   */\n      dup4\n        /* \"--CODEGEN--\":26:47   */\n      sub\n        /* \"--CODEGEN--\":22:54   */\n      sub\n        /* \"--CODEGEN--\":13:20   */\n      dup2\n        /* \"--CODEGEN--\":6:55   */\n      mstore\n        /* \"input/RampInstantEthEscrows.sol\":13857:13962  abi.encodePacked(... */\n      swap1\n      0x40\n      mstore\n        /* \"input/RampInstantEthEscrows.sol\":13834:13972  keccak256(... */\n      dup1\n      mload\n      swap1\n      0x20\n      add\n      keccak256\n        /* \"input/RampInstantEthEscrows.sol\":13827:13972  return keccak256(... */\n      swap1\n      pop\n        /* \"input/RampInstantEthEscrows.sol\":13619:13979  function getSwapHash(... */\n      swap6\n      swap5\n      pop\n      pop\n      pop\n      pop\n      pop\n      jump\t// out\n        /* \"input/RampInstantEthEscrows.sol\":13985:14150  function requireSwapNotExists(bytes32 swapHash) internal view {... */\n    tag_120:\n        /* \"input/RampInstantEthEscrows.sol\":14097:14098  0 */\n      0x00\n        /* \"input/RampInstantEthEscrows.sol\":14078:14083  swaps */\n      0x04\n        /* \"input/RampInstantEthEscrows.sol\":14078:14093  swaps[swapHash] */\n      0x00\n        /* \"input/RampInstantEthEscrows.sol\":14084:14092  swapHash */\n      dup4\n        /* \"input/RampInstantEthEscrows.sol\":14078:14093  swaps[swapHash] */\n      dup2\n      mstore\n      0x20\n      add\n      swap1\n      dup2\n      mstore\n      0x20\n      add\n      0x00\n      keccak256\n      0x00\n      swap1\n      sload\n      swap1\n      0x0100\n      exp\n      swap1\n      div\n      0xffffffff\n      and\n        /* \"input/RampInstantEthEscrows.sol\":14078:14098  swaps[swapHash] == 0 */\n      0xffffffff\n      and\n      eq\n        /* \"input/RampInstantEthEscrows.sol\":14057:14143  require(... */\n      tag_186\n      jumpi\n      mload(0x40)\n      0x08c379a000000000000000000000000000000000000000000000000000000000\n      dup2\n      mstore\n      0x04\n      add\n      dup1\n      dup1\n      0x20\n      add\n      dup3\n      dup2\n      sub\n      dup3\n      mstore\n      0x13\n      dup2\n      mstore\n      0x20\n      add\n      dup1\n      0x7377617020616c72656164792065786973747300000000000000000000000000\n      dup2\n      mstore\n      pop\n      0x20\n      add\n      swap2\n      pop\n      pop\n      mload(0x40)\n      dup1\n      swap2\n      sub\n      swap1\n      revert\n    tag_186:\n        /* \"input/RampInstantEthEscrows.sol\":13985:14150  function requireSwapNotExists(bytes32 swapHash) internal view {... */\n      pop\n      jump\t// out\n        /* \"input/RampInstantEthEscrows.sol\":7210:7409  function lockAssetWithFee(... */\n    tag_122:\n        /* \"input/RampInstantEthEscrows.sol\":7323:7335  bool success */\n      0x00\n        /* \"input/RampInstantEthEscrows.sol\":7354:7402  rawLockAsset(getAmountWithFee(assetData), _from) */\n      tag_188\n        /* \"input/RampInstantEthEscrows.sol\":7367:7394  getAmountWithFee(assetData) */\n      tag_189\n        /* \"input/RampInstantEthEscrows.sol\":7384:7393  assetData */\n      dup5\n        /* \"input/RampInstantEthEscrows.sol\":7367:7383  getAmountWithFee */\n      tag_190\n        /* \"input/RampInstantEthEscrows.sol\":7367:7394  getAmountWithFee(assetData) */\n      jump\t// in\n    tag_189:\n        /* \"input/RampInstantEthEscrows.sol\":7396:7401  _from */\n      dup4\n        /* \"input/RampInstantEthEscrows.sol\":7354:7366  rawLockAsset */\n      tag_191\n        /* \"input/RampInstantEthEscrows.sol\":7354:7402  rawLockAsset(getAmountWithFee(assetData), _from) */\n      jump\t// in\n    tag_188:\n        /* \"input/RampInstantEthEscrows.sol\":7347:7402  return rawLockAsset(getAmountWithFee(assetData), _from) */\n      swap1\n      pop\n        /* \"input/RampInstantEthEscrows.sol\":7210:7409  function lockAssetWithFee(... */\n      swap3\n      swap2\n      pop\n      pop\n      jump\t// out\n        /* \"input/RampInstantEthEscrows.sol\":14156:14330  function requireSwapCreated(bytes32 swapHash) internal view {... */\n    tag_149:\n        /* \"input/RampInstantEthEscrows.sol\":8165:8175  1000000000 */\n      0x3b9aca00\n        /* \"input/RampInstantEthEscrows.sol\":14247:14285  swaps[swapHash] > MIN_ACTUAL_TIMESTAMP */\n      0xffffffff\n      and\n        /* \"input/RampInstantEthEscrows.sol\":14247:14252  swaps */\n      0x04\n        /* \"input/RampInstantEthEscrows.sol\":14247:14262  swaps[swapHash] */\n      0x00\n        /* \"input/RampInstantEthEscrows.sol\":14253:14261  swapHash */\n      dup4\n        /* \"input/RampInstantEthEscrows.sol\":14247:14262  swaps[swapHash] */\n      dup2\n      mstore\n      0x20\n      add\n      swap1\n      dup2\n      mstore\n      0x20\n      add\n      0x00\n      keccak256\n      0x00\n      swap1\n      sload\n      swap1\n      0x0100\n      exp\n      swap1\n      div\n      0xffffffff\n      and\n        /* \"input/RampInstantEthEscrows.sol\":14247:14285  swaps[swapHash] > MIN_ACTUAL_TIMESTAMP */\n      0xffffffff\n      and\n      gt\n        /* \"input/RampInstantEthEscrows.sol\":14226:14323  require(... */\n      tag_193\n      jumpi\n      mload(0x40)\n      0x08c379a000000000000000000000000000000000000000000000000000000000\n      dup2\n      mstore\n      0x04\n      add\n      dup1\n      dup1\n      0x20\n      add\n      dup3\n      dup2\n      sub\n      dup3\n      mstore\n      0x0c\n      dup2\n      mstore\n      0x20\n      add\n      dup1\n      0x7377617020696e76616c69640000000000000000000000000000000000000000\n      dup2\n      mstore\n      pop\n      0x20\n      add\n      swap2\n      pop\n      pop\n      mload(0x40)\n      dup1\n      swap2\n      sub\n      swap1\n      revert\n    tag_193:\n        /* \"input/RampInstantEthEscrows.sol\":14156:14330  function requireSwapCreated(bytes32 swapHash) internal view {... */\n      pop\n      jump\t// out\n        /* \"input/RampInstantEthEscrows.sol\":7627:7905  function sendAssetKeepingFee(... */\n    tag_151:\n        /* \"input/RampInstantEthEscrows.sol\":7741:7753  bool success */\n      0x00\n        /* \"input/RampInstantEthEscrows.sol\":7765:7776  bool result */\n      dup1\n        /* \"input/RampInstantEthEscrows.sol\":7779:7829  rawSendAsset(assetData, getAmount(assetData), _to) */\n      tag_195\n        /* \"input/RampInstantEthEscrows.sol\":7792:7801  assetData */\n      dup5\n        /* \"input/RampInstantEthEscrows.sol\":7803:7823  getAmount(assetData) */\n      tag_196\n        /* \"input/RampInstantEthEscrows.sol\":7813:7822  assetData */\n      dup7\n        /* \"input/RampInstantEthEscrows.sol\":7803:7812  getAmount */\n      tag_197\n        /* \"input/RampInstantEthEscrows.sol\":7803:7823  getAmount(assetData) */\n      jump\t// in\n    tag_196:\n        /* \"input/RampInstantEthEscrows.sol\":7825:7828  _to */\n      dup6\n        /* \"input/RampInstantEthEscrows.sol\":7779:7791  rawSendAsset */\n      tag_198\n        /* \"input/RampInstantEthEscrows.sol\":7779:7829  rawSendAsset(assetData, getAmount(assetData), _to) */\n      jump\t// in\n    tag_195:\n        /* \"input/RampInstantEthEscrows.sol\":7765:7829  bool result = rawSendAsset(assetData, getAmount(assetData), _to) */\n      swap1\n      pop\n        /* \"input/RampInstantEthEscrows.sol\":7843:7849  result */\n      dup1\n        /* \"input/RampInstantEthEscrows.sol\":7839:7875  if (result) accumulateFee(assetData) */\n      iszero\n      tag_199\n      jumpi\n        /* \"input/RampInstantEthEscrows.sol\":7851:7875  accumulateFee(assetData) */\n      tag_200\n        /* \"input/RampInstantEthEscrows.sol\":7865:7874  assetData */\n      dup5\n        /* \"input/RampInstantEthEscrows.sol\":7851:7864  accumulateFee */\n      tag_201\n        /* \"input/RampInstantEthEscrows.sol\":7851:7875  accumulateFee(assetData) */\n      jump\t// in\n    tag_200:\n        /* \"input/RampInstantEthEscrows.sol\":7839:7875  if (result) accumulateFee(assetData) */\n    tag_199:\n        /* \"input/RampInstantEthEscrows.sol\":7892:7898  result */\n      dup1\n        /* \"input/RampInstantEthEscrows.sol\":7885:7898  return result */\n      swap2\n      pop\n      pop\n        /* \"input/RampInstantEthEscrows.sol\":7627:7905  function sendAssetKeepingFee(... */\n      swap3\n      swap2\n      pop\n      pop\n      jump\t// out\n        /* \"input/RampInstantEthEscrows.sol\":14336:14628  function requireSwapExpired(bytes32 swapHash) internal view {... */\n    tag_169:\n        /* \"input/RampInstantEthEscrows.sol\":8165:8175  1000000000 */\n      0x3b9aca00\n        /* \"input/RampInstantEthEscrows.sol\":14493:14531  swaps[swapHash] > MIN_ACTUAL_TIMESTAMP */\n      0xffffffff\n      and\n        /* \"input/RampInstantEthEscrows.sol\":14493:14498  swaps */\n      0x04\n        /* \"input/RampInstantEthEscrows.sol\":14493:14508  swaps[swapHash] */\n      0x00\n        /* \"input/RampInstantEthEscrows.sol\":14499:14507  swapHash */\n      dup4\n        /* \"input/RampInstantEthEscrows.sol\":14493:14508  swaps[swapHash] */\n      dup2\n      mstore\n      0x20\n      add\n      swap1\n      dup2\n      mstore\n      0x20\n      add\n      0x00\n      keccak256\n      0x00\n      swap1\n      sload\n      swap1\n      0x0100\n      exp\n      swap1\n      div\n      0xffffffff\n      and\n        /* \"input/RampInstantEthEscrows.sol\":14493:14531  swaps[swapHash] > MIN_ACTUAL_TIMESTAMP */\n      0xffffffff\n      and\n      gt\n        /* \"input/RampInstantEthEscrows.sol\":14493:14568  swaps[swapHash] > MIN_ACTUAL_TIMESTAMP && block.timestamp > swaps[swapHash] */\n      dup1\n      iszero\n      tag_203\n      jumpi\n      pop\n        /* \"input/RampInstantEthEscrows.sol\":14553:14558  swaps */\n      0x04\n        /* \"input/RampInstantEthEscrows.sol\":14553:14568  swaps[swapHash] */\n      0x00\n        /* \"input/RampInstantEthEscrows.sol\":14559:14567  swapHash */\n      dup3\n        /* \"input/RampInstantEthEscrows.sol\":14553:14568  swaps[swapHash] */\n      dup2\n      mstore\n      0x20\n      add\n      swap1\n      dup2\n      mstore\n      0x20\n      add\n      0x00\n      keccak256\n      0x00\n      swap1\n      sload\n      swap1\n      0x0100\n      exp\n      swap1\n      div\n      0xffffffff\n      and\n        /* \"input/RampInstantEthEscrows.sol\":14535:14568  block.timestamp > swaps[swapHash] */\n      0xffffffff\n      and\n        /* \"input/RampInstantEthEscrows.sol\":14535:14550  block.timestamp */\n      timestamp\n        /* \"input/RampInstantEthEscrows.sol\":14535:14568  block.timestamp > swaps[swapHash] */\n      gt\n        /* \"input/RampInstantEthEscrows.sol\":14493:14568  swaps[swapHash] > MIN_ACTUAL_TIMESTAMP && block.timestamp > swaps[swapHash] */\n    tag_203:\n        /* \"input/RampInstantEthEscrows.sol\":14406:14621  require(... */\n      tag_204\n      jumpi\n      mload(0x40)\n      0x08c379a000000000000000000000000000000000000000000000000000000000\n      dup2\n      mstore\n      0x04\n      add\n      dup1\n      dup1\n      0x20\n      add\n      dup3\n      dup2\n      sub\n      dup3\n      mstore\n      0x1b\n      dup2\n      mstore\n      0x20\n      add\n      dup1\n      0x73776170206e6f742065787069726564206f7220696e76616c69640000000000\n      dup2\n      mstore\n      pop\n      0x20\n      add\n      swap2\n      pop\n      pop\n      mload(0x40)\n      dup1\n      swap2\n      sub\n      swap1\n      revert\n    tag_204:\n        /* \"input/RampInstantEthEscrows.sol\":14336:14628  function requireSwapExpired(bytes32 swapHash) internal view {... */\n      pop\n      jump\t// out\n        /* \"input/RampInstantEthEscrows.sol\":7415:7621  function sendAssetWithFee(... */\n    tag_171:\n        /* \"input/RampInstantEthEscrows.sol\":7526:7538  bool success */\n      0x00\n        /* \"input/RampInstantEthEscrows.sol\":7557:7614  rawSendAsset(assetData, getAmountWithFee(assetData), _to) */\n      tag_206\n        /* \"input/RampInstantEthEscrows.sol\":7570:7579  assetData */\n      dup4\n        /* \"input/RampInstantEthEscrows.sol\":7581:7608  getAmountWithFee(assetData) */\n      tag_207\n        /* \"input/RampInstantEthEscrows.sol\":7598:7607  assetData */\n      dup6\n        /* \"input/RampInstantEthEscrows.sol\":7581:7597  getAmountWithFee */\n      tag_190\n        /* \"input/RampInstantEthEscrows.sol\":7581:7608  getAmountWithFee(assetData) */\n      jump\t// in\n    tag_207:\n        /* \"input/RampInstantEthEscrows.sol\":7610:7613  _to */\n      dup5\n        /* \"input/RampInstantEthEscrows.sol\":7557:7569  rawSendAsset */\n      tag_198\n        /* \"input/RampInstantEthEscrows.sol\":7557:7614  rawSendAsset(assetData, getAmountWithFee(assetData), _to) */\n      jump\t// in\n    tag_206:\n        /* \"input/RampInstantEthEscrows.sol\":7550:7614  return rawSendAsset(assetData, getAmountWithFee(assetData), _to) */\n      swap1\n      pop\n        /* \"input/RampInstantEthEscrows.sol\":7415:7621  function sendAssetWithFee(... */\n      swap3\n      swap2\n      pop\n      pop\n      jump\t// out\n        /* \"input/RampInstantEthEscrows.sol\":7016:7204  function getAmountWithFee(bytes memory assetData) internal view returns (uint256) {... */\n    tag_190:\n        /* \"input/RampInstantEthEscrows.sol\":7089:7096  uint256 */\n      0x00\n        /* \"input/RampInstantEthEscrows.sol\":7108:7126  uint256 baseAmount */\n      dup1\n        /* \"input/RampInstantEthEscrows.sol\":7129:7149  getAmount(assetData) */\n      tag_209\n        /* \"input/RampInstantEthEscrows.sol\":7139:7148  assetData */\n      dup4\n        /* \"input/RampInstantEthEscrows.sol\":7129:7138  getAmount */\n      tag_197\n        /* \"input/RampInstantEthEscrows.sol\":7129:7149  getAmount(assetData) */\n      jump\t// in\n    tag_209:\n        /* \"input/RampInstantEthEscrows.sol\":7108:7149  uint256 baseAmount = getAmount(assetData) */\n      swap1\n      pop\n        /* \"input/RampInstantEthEscrows.sol\":7179:7197  getFee(baseAmount) */\n      tag_210\n        /* \"input/RampInstantEthEscrows.sol\":7186:7196  baseAmount */\n      dup2\n        /* \"input/RampInstantEthEscrows.sol\":7179:7185  getFee */\n      tag_211\n        /* \"input/RampInstantEthEscrows.sol\":7179:7197  getFee(baseAmount) */\n      jump\t// in\n    tag_210:\n        /* \"input/RampInstantEthEscrows.sol\":7166:7176  baseAmount */\n      dup2\n        /* \"input/RampInstantEthEscrows.sol\":7166:7197  baseAmount + getFee(baseAmount) */\n      add\n        /* \"input/RampInstantEthEscrows.sol\":7159:7197  return baseAmount + getFee(baseAmount) */\n      swap2\n      pop\n      pop\n        /* \"input/RampInstantEthEscrows.sol\":7016:7204  function getAmountWithFee(bytes memory assetData) internal view returns (uint256) {... */\n      swap2\n      swap1\n      pop\n      jump\t// out\n        /* \"input/RampInstantEthEscrows.sol\":2039:2233  function rawLockAsset(... */\n    tag_191:\n        /* \"input/RampInstantEthEscrows.sol\":2140:2152  bool success */\n      0x00\n        /* \"input/RampInstantEthEscrows.sol\":2196:2201  _from */\n      dup2\n        /* \"input/RampInstantEthEscrows.sol\":2171:2218  RampInstantPoolInterface(_from).sendFundsToSwap */\n      0xffffffffffffffffffffffffffffffffffffffff\n      and\n      0x81fd3f0b\n        /* \"input/RampInstantEthEscrows.sol\":2219:2225  amount */\n      dup5\n        /* \"input/RampInstantEthEscrows.sol\":2171:2226  RampInstantPoolInterface(_from).sendFundsToSwap(amount) */\n      mload(0x40)\n      dup3\n      0xffffffff\n      and\n      0xe0\n      shl\n      dup2\n      mstore\n      0x04\n      add\n      dup1\n      dup3\n      dup2\n      mstore\n      0x20\n      add\n      swap2\n      pop\n      pop\n      0x20\n      mload(0x40)\n      dup1\n      dup4\n      sub\n      dup2\n      0x00\n      dup8\n      dup1\n      extcodesize\n      iszero\n        /* \"--CODEGEN--\":8:17   */\n      dup1\n        /* \"--CODEGEN--\":5:7   */\n      iszero\n      tag_213\n      jumpi\n        /* \"--CODEGEN--\":30:31   */\n      0x00\n        /* \"--CODEGEN--\":27:28   */\n      dup1\n        /* \"--CODEGEN--\":20:32   */\n      revert\n        /* \"--CODEGEN--\":5:7   */\n    tag_213:\n        /* \"input/RampInstantEthEscrows.sol\":2171:2226  RampInstantPoolInterface(_from).sendFundsToSwap(amount) */\n      pop\n      gas\n      call\n      iszero\n        /* \"--CODEGEN--\":8:17   */\n      dup1\n        /* \"--CODEGEN--\":5:7   */\n      iszero\n      tag_214\n      jumpi\n        /* \"--CODEGEN--\":45:61   */\n      returndatasize\n        /* \"--CODEGEN--\":42:43   */\n      0x00\n        /* \"--CODEGEN--\":39:40   */\n      dup1\n        /* \"--CODEGEN--\":24:62   */\n      returndatacopy\n        /* \"--CODEGEN--\":77:93   */\n      returndatasize\n        /* \"--CODEGEN--\":74:75   */\n      0x00\n        /* \"--CODEGEN--\":67:94   */\n      revert\n        /* \"--CODEGEN--\":5:7   */\n    tag_214:\n        /* \"input/RampInstantEthEscrows.sol\":2171:2226  RampInstantPoolInterface(_from).sendFundsToSwap(amount) */\n      pop\n      pop\n      pop\n      pop\n      mload(0x40)\n      returndatasize\n        /* \"--CODEGEN--\":13:15   */\n      0x20\n        /* \"--CODEGEN--\":8:11   */\n      dup2\n        /* \"--CODEGEN--\":5:16   */\n      lt\n        /* \"--CODEGEN--\":2:4   */\n      iszero\n      tag_215\n      jumpi\n        /* \"--CODEGEN--\":29:30   */\n      0x00\n        /* \"--CODEGEN--\":26:27   */\n      dup1\n        /* \"--CODEGEN--\":19:31   */\n      revert\n        /* \"--CODEGEN--\":2:4   */\n    tag_215:\n        /* \"input/RampInstantEthEscrows.sol\":2171:2226  RampInstantPoolInterface(_from).sendFundsToSwap(amount) */\n      dup2\n      add\n      swap1\n      dup1\n      dup1\n      mload\n      swap1\n      0x20\n      add\n      swap1\n      swap3\n      swap2\n      swap1\n      pop\n      pop\n      pop\n        /* \"input/RampInstantEthEscrows.sol\":2164:2226  return RampInstantPoolInterface(_from).sendFundsToSwap(amount) */\n      swap1\n      pop\n        /* \"input/RampInstantEthEscrows.sol\":2039:2233  function rawLockAsset(... */\n      swap3\n      swap2\n      pop\n      pop\n      jump\t// out\n        /* \"input/RampInstantEthEscrows.sol\":15156:15386  function getAmount(bytes memory assetData) internal pure returns (uint256 amount) {... */\n    tag_197:\n        /* \"input/RampInstantEthEscrows.sol\":15222:15236  uint256 amount */\n      0x00\n        /* \"input/RampInstantEthEscrows.sol\":15366:15368  34 */\n      0x22\n        /* \"input/RampInstantEthEscrows.sol\":15355:15364  assetData */\n      dup3\n        /* \"input/RampInstantEthEscrows.sol\":15351:15369  add(assetData, 34) */\n      add\n        /* \"input/RampInstantEthEscrows.sol\":15345:15370  mload(add(assetData, 34)) */\n      mload\n        /* \"input/RampInstantEthEscrows.sol\":15335:15370  amount := mload(add(assetData, 34)) */\n      swap1\n      pop\n        /* \"input/RampInstantEthEscrows.sol\":15321:15380  {... */\n      swap2\n      swap1\n      pop\n      jump\t// out\n        /* \"input/RampInstantEthEscrows.sol\":15392:15630  function rawSendAsset(... */\n    tag_198:\n        /* \"input/RampInstantEthEscrows.sol\":15528:15540  bool success */\n      0x00\n        /* \"input/RampInstantEthEscrows.sol\":15552:15555  _to */\n      dup2\n        /* \"input/RampInstantEthEscrows.sol\":15552:15564  _to.transfer */\n      0xffffffffffffffffffffffffffffffffffffffff\n      and\n        /* \"input/RampInstantEthEscrows.sol\":15552:15573  _to.transfer(_amount) */\n      0x08fc\n        /* \"input/RampInstantEthEscrows.sol\":15565:15572  _amount */\n      dup5\n        /* \"input/RampInstantEthEscrows.sol\":15552:15573  _to.transfer(_amount) */\n      swap1\n      dup2\n      iszero\n      mul\n      swap1\n      mload(0x40)\n      0x00\n      mload(0x40)\n      dup1\n      dup4\n      sub\n      dup2\n      dup6\n      dup9\n      dup9\n      call\n      swap4\n      pop\n      pop\n      pop\n      pop\n      iszero\n        /* \"--CODEGEN--\":8:17   */\n      dup1\n        /* \"--CODEGEN--\":5:7   */\n      iszero\n      tag_218\n      jumpi\n        /* \"--CODEGEN--\":45:61   */\n      returndatasize\n        /* \"--CODEGEN--\":42:43   */\n      0x00\n        /* \"--CODEGEN--\":39:40   */\n      dup1\n        /* \"--CODEGEN--\":24:62   */\n      returndatacopy\n        /* \"--CODEGEN--\":77:93   */\n      returndatasize\n        /* \"--CODEGEN--\":74:75   */\n      0x00\n        /* \"--CODEGEN--\":67:94   */\n      revert\n        /* \"--CODEGEN--\":5:7   */\n    tag_218:\n        /* \"input/RampInstantEthEscrows.sol\":15552:15573  _to.transfer(_amount) */\n      pop\n        /* \"input/RampInstantEthEscrows.sol\":15619:15623  true */\n      0x01\n        /* \"input/RampInstantEthEscrows.sol\":15612:15623  return true */\n      swap1\n      pop\n        /* \"input/RampInstantEthEscrows.sol\":15392:15630  function rawSendAsset(... */\n      swap4\n      swap3\n      pop\n      pop\n      pop\n      jump\t// out\n        /* \"input/RampInstantEthEscrows.sol\":6479:6609  function accumulateFee(bytes memory assetData) internal {... */\n    tag_201:\n        /* \"input/RampInstantEthEscrows.sol\":6545:6602  rawAccumulateFee(assetData, getFee(getAmount(assetData))) */\n      tag_220\n        /* \"input/RampInstantEthEscrows.sol\":6562:6571  assetData */\n      dup2\n        /* \"input/RampInstantEthEscrows.sol\":6573:6601  getFee(getAmount(assetData)) */\n      tag_221\n        /* \"input/RampInstantEthEscrows.sol\":6580:6600  getAmount(assetData) */\n      tag_222\n        /* \"input/RampInstantEthEscrows.sol\":6590:6599  assetData */\n      dup5\n        /* \"input/RampInstantEthEscrows.sol\":6580:6589  getAmount */\n      tag_197\n        /* \"input/RampInstantEthEscrows.sol\":6580:6600  getAmount(assetData) */\n      jump\t// in\n    tag_222:\n        /* \"input/RampInstantEthEscrows.sol\":6573:6579  getFee */\n      tag_211\n        /* \"input/RampInstantEthEscrows.sol\":6573:6601  getFee(getAmount(assetData)) */\n      jump\t// in\n    tag_221:\n        /* \"input/RampInstantEthEscrows.sol\":6545:6561  rawAccumulateFee */\n      tag_223\n        /* \"input/RampInstantEthEscrows.sol\":6545:6602  rawAccumulateFee(assetData, getFee(getAmount(assetData))) */\n      jump\t// in\n    tag_220:\n        /* \"input/RampInstantEthEscrows.sol\":6479:6609  function accumulateFee(bytes memory assetData) internal {... */\n      pop\n      jump\t// out\n        /* \"input/RampInstantEthEscrows.sol\":6794:7010  function getFee(uint256 _amount) internal view returns (uint256) {... */\n    tag_211:\n        /* \"input/RampInstantEthEscrows.sol\":6850:6857  uint256 */\n      0x00\n        /* \"input/RampInstantEthEscrows.sol\":6869:6880  uint256 fee */\n      dup1\n        /* \"input/RampInstantEthEscrows.sol\":6917:6923  100000 */\n      0x0186a0\n        /* \"input/RampInstantEthEscrows.sol\":6893:6914  feeThousandthsPercent */\n      0x02\n      0x16\n      swap1\n      sload\n      swap1\n      0x0100\n      exp\n      swap1\n      div\n      0xffff\n      and\n        /* \"input/RampInstantEthEscrows.sol\":6883:6914  _amount * feeThousandthsPercent */\n      0xffff\n      and\n        /* \"input/RampInstantEthEscrows.sol\":6883:6890  _amount */\n      dup5\n        /* \"input/RampInstantEthEscrows.sol\":6883:6914  _amount * feeThousandthsPercent */\n      mul\n        /* \"input/RampInstantEthEscrows.sol\":6883:6923  _amount * feeThousandthsPercent / 100000 */\n      dup2\n      tag_225\n      jumpi\n      invalid\n    tag_225:\n      div\n        /* \"input/RampInstantEthEscrows.sol\":6869:6923  uint256 fee = _amount * feeThousandthsPercent / 100000 */\n      swap1\n      pop\n        /* \"input/RampInstantEthEscrows.sol\":6946:6958  minFeeAmount */\n      sload(0x03)\n        /* \"input/RampInstantEthEscrows.sol\":6940:6943  fee */\n      dup2\n        /* \"input/RampInstantEthEscrows.sol\":6940:6958  fee < minFeeAmount */\n      lt\n        /* \"input/RampInstantEthEscrows.sol\":6940:7003  fee < minFeeAmount... */\n      tag_226\n      jumpi\n        /* \"input/RampInstantEthEscrows.sol\":7000:7003  fee */\n      dup1\n        /* \"input/RampInstantEthEscrows.sol\":6940:7003  fee < minFeeAmount... */\n      jump(tag_227)\n    tag_226:\n        /* \"input/RampInstantEthEscrows.sol\":6973:6985  minFeeAmount */\n      sload(0x03)\n        /* \"input/RampInstantEthEscrows.sol\":6940:7003  fee < minFeeAmount... */\n    tag_227:\n        /* \"input/RampInstantEthEscrows.sol\":6933:7003  return fee < minFeeAmount... */\n      swap2\n      pop\n      pop\n        /* \"input/RampInstantEthEscrows.sol\":6794:7010  function getFee(uint256 _amount) internal view returns (uint256) {... */\n      swap2\n      swap1\n      pop\n      jump\t// out\n        /* \"input/RampInstantEthEscrows.sol\":15636:15759  function rawAccumulateFee(bytes memory /*assetData*/, uint256 _amount) internal {... */\n    tag_223:\n        /* \"input/RampInstantEthEscrows.sol\":15745:15752  _amount */\n      dup1\n        /* \"input/RampInstantEthEscrows.sol\":15726:15741  accumulatedFees */\n      0x05\n      0x00\n        /* \"input/RampInstantEthEscrows.sol\":15726:15752  accumulatedFees += _amount */\n      dup3\n      dup3\n      sload\n      add\n      swap3\n      pop\n      pop\n      dup2\n      swap1\n      sstore\n      pop\n        /* \"input/RampInstantEthEscrows.sol\":15636:15759  function rawAccumulateFee(bytes memory /*assetData*/, uint256 _amount) internal {... */\n      pop\n      pop\n      jump\t// out\n    stop\n    data_505dcbf77baa9fcb931859d75ef58472fc43f433ecc69abf910161910b72606c 6f6e6c792074686520737761702063726561746f722063616e2063616c6c2074686973\n    data_8889cdf9502051f6182111d178aad396861a3ff01e10cbd6b8663bfd3219a4fe 6f6e6c7920746865206f7261636c65206f722074686520706f6f6c2063616e2063616c6c2074686973\n\n    auxdata: 0xa265627a7a723058209143755cff470eb6308962123b2a3d76fc429d511e891b82d5c9db902912180c64736f6c634300050a0032\n}\n",
				"bytecode": {
					"linkReferences": {},
					"object": "60806040526003600060146101000a81548160ff0219169083600381111561002357fe5b0217905550600060055534801561003957600080fd5b506040516127013803806127018339818101604052604081101561005c57600080fd5b81019080805190602001909291908051906020019092919050505081816001336000806101000a81548173ffffffffffffffffffffffffffffffffffffffff021916908373ffffffffffffffffffffffffffffffffffffffff16021790555060018060003373ffffffffffffffffffffffffffffffffffffffff1673ffffffffffffffffffffffffffffffffffffffff16815260200190815260200160002060006101000a81548160ff02191690831515021790555033600260006101000a81548173ffffffffffffffffffffffffffffffffffffffff021916908373ffffffffffffffffffffffffffffffffffffffff16021790555080600260146101000a81548161ffff021916908361ffff16021790555050620100008261ffff16106101ed576040517f08c379a000000000000000000000000000000000000000000000000000000000815260040180806020018281038252600e8152602001807f666565202520746f6f206869676800000000000000000000000000000000000081525060200191505060405180910390fd5b7f8000000000000000000000000000000000000000000000000000000000000000811115610283576040517f08c379a00000000000000000000000000000000000000000000000000000000081526004018080602001828103825260158152602001807f6d696e466565416d6f756e7420746f6f2068696768000000000000000000000081525060200191505060405180910390fd5b81600260166101000a81548161ffff021916908361ffff1602179055508060038190555050505050612447806102ba6000396000f3fe6080604052600436106100f35760003560e01c8063946519f11161008a578063bfe5d9c511610059578063bfe5d9c51461079d578063f47bc89c1461085b578063f5d36475146108ac578063ffa1ad74146108d7576100f3565b8063946519f11461045c5780639a3c6e291461056c578063a6f9dae11461065c578063a80e7acb146106ad576100f3565b80632e49d78b116100c65780632e49d78b146103435780635983e6b0146103815780638815eb39146103d25780638da5cb5b14610405576100f3565b80630b898c9e1461016e5780630bc2aad214610286578063200d2ed2146102b957806326bdee37146102f2575b6000803690501461016c576040517f08c379a00000000000000000000000000000000000000000000000000000000081526004018080602001828103825260158152602001807f696e76616c6964206d6574686f642063616c6c6564000000000000000000000081525060200191505060405180910390fd5b005b34801561017a57600080fd5b5061026c600480360360c081101561019157600080fd5b81019080803573ffffffffffffffffffffffffffffffffffffffff169060200190929190803573ffffffffffffffffffffffffffffffffffffffff169060200190929190803573ffffffffffffffffffffffffffffffffffffffff1690602001909291908035906020019064010000000081111561020e57600080fd5b82018360208201111561022057600080fd5b8035906020019184600183028401116401000000008311171561024257600080fd5b909192939192939080359060200190929190803563ffffffff169060200190929190505050610967565b604051808215151515815260200191505060405180910390f35b34801561029257600080fd5b5061029b610e64565b604051808261ffff1661ffff16815260200191505060405180910390f35b3480156102c557600080fd5b506102ce610e78565b604051808260038111156102de57fe5b60ff16815260200191505060405180910390f35b3480156102fe57600080fd5b506103416004803603602081101561031557600080fd5b81019080803573ffffffffffffffffffffffffffffffffffffffff169060200190929190505050610e8b565b005b34801561034f57600080fd5b5061037f6004803603602081101561036657600080fd5b81019080803560ff169060200190929190505050611028565b005b34801561038d57600080fd5b506103d0600480360360208110156103a457600080fd5b81019080803573ffffffffffffffffffffffffffffffffffffffff16906020019092919050505061117a565b005b3480156103de57600080fd5b506103e7611297565b604051808261ffff1661ffff16815260200191505060405180910390f35b34801561041157600080fd5b5061041a6112ab565b604051808273ffffffffffffffffffffffffffffffffffffffff1673ffffffffffffffffffffffffffffffffffffffff16815260200191505060405180910390f35b34801561046857600080fd5b5061054a600480360360a081101561047f57600080fd5b81019080803573ffffffffffffffffffffffffffffffffffffffff169060200190929190803573ffffffffffffffffffffffffffffffffffffffff169060200190929190803573ffffffffffffffffffffffffffffffffffffffff169060200190929190803590602001906401000000008111156104fc57600080fd5b82018360208201111561050e57600080fd5b8035906020019184600183028401116401000000008311171561053057600080fd5b9091929391929390803590602001909291905050506112d0565b604051808263ffffffff1663ffffffff16815260200191505060405180910390f35b34801561057857600080fd5b5061065a600480360360a081101561058f57600080fd5b81019080803573ffffffffffffffffffffffffffffffffffffffff169060200190929190803573ffffffffffffffffffffffffffffffffffffffff169060200190929190803573ffffffffffffffffffffffffffffffffffffffff1690602001909291908035906020019064010000000081111561060c57600080fd5b82018360208201111561061e57600080fd5b8035906020019184600183028401116401000000008311171561064057600080fd5b909192939192939080359060200190929190505050611331565b005b34801561066857600080fd5b506106ab6004803603602081101561067f57600080fd5b81019080803573ffffffffffffffffffffffffffffffffffffffff1690602001909291905050506116aa565b005b3480156106b957600080fd5b5061079b600480360360a08110156106d057600080fd5b81019080803573ffffffffffffffffffffffffffffffffffffffff169060200190929190803573ffffffffffffffffffffffffffffffffffffffff169060200190929190803573ffffffffffffffffffffffffffffffffffffffff1690602001909291908035906020019064010000000081111561074d57600080fd5b82018360208201111561075f57600080fd5b8035906020019184600183028401116401000000008311171561078157600080fd5b909192939192939080359060200190929190505050611846565b005b3480156107a957600080fd5b50610841600480360360408110156107c057600080fd5b81019080803590602001906401000000008111156107dd57600080fd5b8201836020820111156107ef57600080fd5b8035906020019184600183028401116401000000008311171561081157600080fd5b9091929391929390803573ffffffffffffffffffffffffffffffffffffffff169060200190929190505050611bbf565b604051808215151515815260200191505060405180910390f35b34801561086757600080fd5b506108aa6004803603602081101561087e57600080fd5b81019080803573ffffffffffffffffffffffffffffffffffffffff169060200190929190505050611ce5565b005b3480156108b857600080fd5b506108c1611e01565b6040518082815260200191505060405180910390f35b3480156108e357600080fd5b506108ec611e07565b6040518080602001828103825283818151815260200191508051906020019080838360005b8381101561092c578082015181840152602081019050610911565b50505050905090810190601f1680156109595780820380516001836020036101000a031916815260200191505b509250505060405180910390f35b6000600380600381111561097757fe5b600060149054906101000a900460ff16600381111561099257fe5b1015610a06576040517f08c379a00000000000000000000000000000000000000000000000000000000081526004018080602001828103825260178152602001807f696e76616c696420636f6e74726163742073746174757300000000000000000081525060200191505060405180910390fd5b600260009054906101000a900473ffffffffffffffffffffffffffffffffffffffff1673ffffffffffffffffffffffffffffffffffffffff163373ffffffffffffffffffffffffffffffffffffffff1614610aac576040517f08c379a00000000000000000000000000000000000000000000000000000000081526004018080602001828103825260238152602001806123c76023913960400191505060405180910390fd5b86600160008273ffffffffffffffffffffffffffffffffffffffff1673ffffffffffffffffffffffffffffffffffffffff16815260200190815260200160002060009054906101000a900460ff16610b6c576040517f08c379a00000000000000000000000000000000000000000000000000000000081526004018080602001828103825260168152602001807f696e76616c6964206f7261636c6520616464726573730000000000000000000081525060200191505060405180910390fd5b86868080601f016020809104026020016040519081016040528093929190818152602001838380828437600081840152601f19601f820116905080830192505050505050508a600061ffff6002840151169050600260149054906101000a900461ffff1661ffff168161ffff1614610c4c576040517f08c379a00000000000000000000000000000000000000000000000000000000081526004018080602001828103825260128152602001807f696e76616c69642061737365742074797065000000000000000000000000000081525060200191505060405180910390fd5b610c568383611e40565b6201518063ffffffff168763ffffffff1610158015610c84575062278d0063ffffffff168763ffffffff1611155b610cf6576040517f08c379a00000000000000000000000000000000000000000000000000000000081526004018080602001828103825260188152602001807f6c6f636b2074696d65206f757473696465206c696d697473000000000000000081525060200191505060405180910390fd5b6000610d238e8e8e8e8e60405180838380828437808301925050509250505060405180910390208d611ebf565b9050610d2e81611fa0565b8742016004600083815260200190815260200160002060006101000a81548163ffffffff021916908363ffffffff160217905550610db08b8b8080601f016020809104026020016040519081016040528093929190818152602001838380828437600081840152601f19601f820116905080830192505050505050508f612042565b610e22576040517f08c379a00000000000000000000000000000000000000000000000000000000081526004018080602001828103825260128152602001807f657363726f77206c6f636b206661696c6564000000000000000000000000000081525060200191505060405180910390fd5b807f102d25c49d33fcdb8976a3f2744e0785c98d9e43b88364859e6aec4ae82eff5c60405160405180910390a260019650505050505050979650505050505050565b600260169054906101000a900461ffff1681565b600060149054906101000a900460ff1681565b6000809054906101000a900473ffffffffffffffffffffffffffffffffffffffff1673ffffffffffffffffffffffffffffffffffffffff163373ffffffffffffffffffffffffffffffffffffffff1614610f4d576040517f08c379a000000000000000000000000000000000000000000000000000000000815260040180806020018281038252601c8152602001807f6f6e6c7920746865206f776e65722063616e2063616c6c20746869730000000081525060200191505060405180910390fd5b80600260006101000a81548173ffffffffffffffffffffffffffffffffffffffff021916908373ffffffffffffffffffffffffffffffffffffffff1602179055507fadf20380d9033e7f11fc1856d69012aa18e03195a098cd38ce3be225966968a83382604051808373ffffffffffffffffffffffffffffffffffffffff1673ffffffffffffffffffffffffffffffffffffffff1681526020018273ffffffffffffffffffffffffffffffffffffffff1673ffffffffffffffffffffffffffffffffffffffff1681526020019250505060405180910390a150565b6000809054906101000a900473ffffffffffffffffffffffffffffffffffffffff1673ffffffffffffffffffffffffffffffffffffffff163373ffffffffffffffffffffffffffffffffffffffff16146110ea576040517f08c379a000000000000000000000000000000000000000000000000000000000815260040180806020018281038252601c8152602001807f6f6e6c7920746865206f776e65722063616e2063616c6c20746869730000000081525060200191505060405180910390fd5b7fe1377aa21d49fa10bb9ece6a0cd4f75597a90a80c3750f7f7674967f49ab9a62600060149054906101000a900460ff16826040518083600381111561112c57fe5b60ff16815260200182600381111561114057fe5b60ff1681526020019250505060405180910390a180600060146101000a81548160ff0219169083600381111561117257fe5b021790555050565b6000809054906101000a900473ffffffffffffffffffffffffffffffffffffffff1673ffffffffffffffffffffffffffffffffffffffff163373ffffffffffffffffffffffffffffffffffffffff161461123c576040517f08c379a000000000000000000000000000000000000000000000000000000000815260040180806020018281038252601c8152602001807f6f6e6c7920746865206f776e65722063616e2063616c6c20746869730000000081525060200191505060405180910390fd5b6000600160008373ffffffffffffffffffffffffffffffffffffffff1673ffffffffffffffffffffffffffffffffffffffff16815260200190815260200160002060006101000a81548160ff02191690831515021790555050565b600260149054906101000a900461ffff1681565b6000809054906101000a900473ffffffffffffffffffffffffffffffffffffffff1681565b6000806112fe8888888888604051808383808284378083019250505092505050604051809103902087611ebf565b90506004600082815260200190815260200160002060009054906101000a900463ffffffff169150509695505050505050565b600280600381111561133f57fe5b600060149054906101000a900460ff16600381111561135a57fe5b10156113ce576040517f08c379a00000000000000000000000000000000000000000000000000000000081526004018080602001828103825260178152602001807f696e76616c696420636f6e74726163742073746174757300000000000000000081525060200191505060405180910390fd5b86858173ffffffffffffffffffffffffffffffffffffffff163373ffffffffffffffffffffffffffffffffffffffff16148061148a57508073ffffffffffffffffffffffffffffffffffffffff163373ffffffffffffffffffffffffffffffffffffffff161480156114895750600160003373ffffffffffffffffffffffffffffffffffffffff1673ffffffffffffffffffffffffffffffffffffffff16815260200190815260200160002060009054906101000a900460ff165b5b6114df576040517f08c379a00000000000000000000000000000000000000000000000000000000081526004018080602001828103825260298152602001806123ea6029913960400191505060405180910390fd5b600061150c8a8a8a8a8a604051808383808284378083019250505092505050604051809103902089611ebf565b90506115178161205e565b60006004600083815260200190815260200160002060006101000a81548163ffffffff021916908363ffffffff16021790555061159887878080601f016020809104026020016040519081016040528093929190818152602001838380828437600081840152601f19601f820116905080830192505050505050508a612109565b61160a576040517f08c379a00000000000000000000000000000000000000000000000000000000081526004018080602001828103825260148152602001807f61737365742072656c65617365206661696c656400000000000000000000000081525060200191505060405180910390fd5b8973ffffffffffffffffffffffffffffffffffffffff163373ffffffffffffffffffffffffffffffffffffffff16141561167057807f789952a21900cba4809507b4ba56618cee6a1e748254f8faab21e9b8f1c60bc960405160405180910390a261169e565b807f6eec2dd2382427616d4ea7ef183b16091feac4e2e63c8b55f25215f132df8d1460405160405180910390a25b50505050505050505050565b6000809054906101000a900473ffffffffffffffffffffffffffffffffffffffff1673ffffffffffffffffffffffffffffffffffffffff163373ffffffffffffffffffffffffffffffffffffffff161461176c576040517f08c379a000000000000000000000000000000000000000000000000000000000815260040180806020018281038252601c8152602001807f6f6e6c7920746865206f776e65722063616e2063616c6c20746869730000000081525060200191505060405180910390fd5b806000806101000a81548173ffffffffffffffffffffffffffffffffffffffff021916908373ffffffffffffffffffffffffffffffffffffffff1602179055507fb532073b38c83145e3e5135377a08bf9aab55bc0fd7c1179cd4fb995d2a5159c3382604051808373ffffffffffffffffffffffffffffffffffffffff1673ffffffffffffffffffffffffffffffffffffffff1681526020018273ffffffffffffffffffffffffffffffffffffffff1673ffffffffffffffffffffffffffffffffffffffff1681526020019250505060405180910390a150565b600180600381111561185457fe5b600060149054906101000a900460ff16600381111561186f57fe5b10156118e3576040517f08c379a00000000000000000000000000000000000000000000000000000000081526004018080602001828103825260178152602001807f696e76616c696420636f6e74726163742073746174757300000000000000000081525060200191505060405180910390fd5b86858173ffffffffffffffffffffffffffffffffffffffff163373ffffffffffffffffffffffffffffffffffffffff16148061199f57508073ffffffffffffffffffffffffffffffffffffffff163373ffffffffffffffffffffffffffffffffffffffff1614801561199e5750600160003373ffffffffffffffffffffffffffffffffffffffff1673ffffffffffffffffffffffffffffffffffffffff16815260200190815260200160002060009054906101000a900460ff165b5b6119f4576040517f08c379a00000000000000000000000000000000000000000000000000000000081526004018080602001828103825260298152602001806123ea6029913960400191505060405180910390fd5b6000611a218a8a8a8a8a604051808383808284378083019250505092505050604051809103902089611ebf565b9050611a2c8161213b565b60006004600083815260200190815260200160002060006101000a81548163ffffffff021916908363ffffffff160217905550611aad87878080601f016020809104026020016040519081016040528093929190818152602001838380828437600081840152601f19601f820116905080830192505050505050508b61221a565b611b1f576040517f08c379a00000000000000000000000000000000000000000000000000000000081526004018080602001828103825260138152602001807f61737365742072657475726e206661696c65640000000000000000000000000081525060200191505060405180910390fd5b8973ffffffffffffffffffffffffffffffffffffffff163373ffffffffffffffffffffffffffffffffffffffff161415611b8557807f7b5ac55826e0ca40c3f69722d916fb9962d86cffcddc9c84d082b712419e5cbd60405160405180910390a2611bb3565b807fc99795d9dc9d68f27b21e122a0e663f689138f9110dee0122fc2980f8d57977560405160405180910390a25b50505050505050505050565b60008060009054906101000a900473ffffffffffffffffffffffffffffffffffffffff1673ffffffffffffffffffffffffffffffffffffffff163373ffffffffffffffffffffffffffffffffffffffff1614611c83576040517f08c379a000000000000000000000000000000000000000000000000000000000815260040180806020018281038252601c8152602001807f6f6e6c7920746865206f776e65722063616e2063616c6c20746869730000000081525060200191505060405180910390fd5b6000600554905060006005819055508273ffffffffffffffffffffffffffffffffffffffff166108fc829081150290604051600060405180830381858888f19350505050158015611cd8573d6000803e3d6000fd5b5060019150509392505050565b6000809054906101000a900473ffffffffffffffffffffffffffffffffffffffff1673ffffffffffffffffffffffffffffffffffffffff163373ffffffffffffffffffffffffffffffffffffffff1614611da7576040517f08c379a000000000000000000000000000000000000000000000000000000000815260040180806020018281038252601c8152602001807f6f6e6c7920746865206f776e65722063616e2063616c6c20746869730000000081525060200191505060405180910390fd5b60018060008373ffffffffffffffffffffffffffffffffffffffff1673ffffffffffffffffffffffffffffffffffffffff16815260200190815260200160002060006101000a81548160ff02191690831515021790555050565b60035481565b6040518060400160405280600581526020017f302e352e3000000000000000000000000000000000000000000000000000000081525081565b602261ffff16825114611ebb576040517f08c379a00000000000000000000000000000000000000000000000000000000081526004018080602001828103825260198152602001807f696e76616c69642061737365742064617461206c656e6774680000000000000081525060200191505060405180910390fd5b5050565b60008585858585604051602001808673ffffffffffffffffffffffffffffffffffffffff1673ffffffffffffffffffffffffffffffffffffffff1660601b81526014018573ffffffffffffffffffffffffffffffffffffffff1673ffffffffffffffffffffffffffffffffffffffff1660601b81526014018473ffffffffffffffffffffffffffffffffffffffff1673ffffffffffffffffffffffffffffffffffffffff1660601b81526014018381526020018281526020019550505050505060405160208183030381529060405280519060200120905095945050505050565b60006004600083815260200190815260200160002060009054906101000a900463ffffffff1663ffffffff161461203f576040517f08c379a00000000000000000000000000000000000000000000000000000000081526004018080602001828103825260138152602001807f7377617020616c7265616479206578697374730000000000000000000000000081525060200191505060405180910390fd5b50565b600061205661205084612237565b83612258565b905092915050565b633b9aca0063ffffffff166004600083815260200190815260200160002060009054906101000a900463ffffffff1663ffffffff1611612106576040517f08c379a000000000000000000000000000000000000000000000000000000000815260040180806020018281038252600c8152602001807f7377617020696e76616c6964000000000000000000000000000000000000000081525060200191505060405180910390fd5b50565b60008061211f84612119866122f0565b856122fe565b905080156121315761213084612352565b5b8091505092915050565b633b9aca0063ffffffff166004600083815260200190815260200160002060009054906101000a900463ffffffff1663ffffffff161180156121a557506004600082815260200190815260200160002060009054906101000a900463ffffffff1663ffffffff1642115b612217576040517f08c379a000000000000000000000000000000000000000000000000000000000815260040180806020018281038252601b8152602001807f73776170206e6f742065787069726564206f7220696e76616c6964000000000081525060200191505060405180910390fd5b50565b600061222f8361222985612237565b846122fe565b905092915050565b600080612243836122f0565b905061224e8161236f565b8101915050919050565b60008173ffffffffffffffffffffffffffffffffffffffff166381fd3f0b846040518263ffffffff1660e01b815260040180828152602001915050602060405180830381600087803b1580156122ad57600080fd5b505af11580156122c1573d6000803e3d6000fd5b505050506040513d60208110156122d757600080fd5b8101908080519060200190929190505050905092915050565b600060228201519050919050565b60008173ffffffffffffffffffffffffffffffffffffffff166108fc849081150290604051600060405180830381858888f19350505050158015612346573d6000803e3d6000fd5b50600190509392505050565b61236c81612367612362846122f0565b61236f565b6123b2565b50565b600080620186a0600260169054906101000a900461ffff1661ffff1684028161239457fe5b04905060035481106123a657806123aa565b6003545b915050919050565b80600560008282540192505081905550505056fe6f6e6c792074686520737761702063726561746f722063616e2063616c6c20746869736f6e6c7920746865206f7261636c65206f722074686520706f6f6c2063616e2063616c6c2074686973a265627a7a723058209143755cff470eb6308962123b2a3d76fc429d511e891b82d5c9db902912180c64736f6c634300050a0032",
					"opcodes": "PUSH1 0x80 PUSH1 0x40 MSTORE PUSH1 0x3 PUSH1 0x0 PUSH1 0x14 PUSH2 0x100 EXP DUP2 SLOAD DUP2 PUSH1 0xFF MUL NOT AND SWAP1 DUP4 PUSH1 0x3 DUP2 GT ISZERO PUSH2 0x23 JUMPI INVALID JUMPDEST MUL OR SWAP1 SSTORE POP PUSH1 0x0 PUSH1 0x5 SSTORE CALLVALUE DUP1 ISZERO PUSH2 0x39 JUMPI PUSH1 0x0 DUP1 REVERT JUMPDEST POP PUSH1 0x40 MLOAD PUSH2 0x2701 CODESIZE SUB DUP1 PUSH2 0x2701 DUP4 CODECOPY DUP2 DUP2 ADD PUSH1 0x40 MSTORE PUSH1 0x40 DUP2 LT ISZERO PUSH2 0x5C JUMPI PUSH1 0x0 DUP1 REVERT JUMPDEST DUP2 ADD SWAP1 DUP1 DUP1 MLOAD SWAP1 PUSH1 0x20 ADD SWAP1 SWAP3 SWAP2 SWAP1 DUP1 MLOAD SWAP1 PUSH1 0x20 ADD SWAP1 SWAP3 SWAP2 SWAP1 POP POP POP DUP2 DUP2 PUSH1 0x1 CALLER PUSH1 0x0 DUP1 PUSH2 0x100 EXP DUP2 SLOAD DUP2 PUSH20 0xFFFFFFFFFFFFFFFFFFFFFFFFFFFFFFFFFFFFFFFF MUL NOT AND SWAP1 DUP4 PUSH20 0xFFFFFFFFFFFFFFFFFFFFFFFFFFFFFFFFFFFFFFFF AND MUL OR SWAP1 SSTORE POP PUSH1 0x1 DUP1 PUSH1 0x0 CALLER PUSH20 0xFFFFFFFFFFFFFFFFFFFFFFFFFFFFFFFFFFFFFFFF AND PUSH20 0xFFFFFFFFFFFFFFFFFFFFFFFFFFFFFFFFFFFFFFFF AND DUP2 MSTORE PUSH1 0x20 ADD SWAP1 DUP2 MSTORE PUSH1 0x20 ADD PUSH1 0x0 KECCAK256 PUSH1 0x0 PUSH2 0x100 EXP DUP2 SLOAD DUP2 PUSH1 0xFF MUL NOT AND SWAP1 DUP4 ISZERO ISZERO MUL OR SWAP1 SSTORE POP CALLER PUSH1 0x2 PUSH1 0x0 PUSH2 0x100 EXP DUP2 SLOAD DUP2 PUSH20 0xFFFFFFFFFFFFFFFFFFFFFFFFFFFFFFFFFFFFFFFF MUL NOT AND SWAP1 DUP4 PUSH20 0xFFFFFFFFFFFFFFFFFFFFFFFFFFFFFFFFFFFFFFFF AND MUL OR SWAP1 SSTORE POP DUP1 PUSH1 0x2 PUSH1 0x14 PUSH2 0x100 EXP DUP2 SLOAD DUP2 PUSH2 0xFFFF MUL NOT AND SWAP1 DUP4 PUSH2 0xFFFF AND MUL OR SWAP1 SSTORE POP POP PUSH3 0x10000 DUP3 PUSH2 0xFFFF AND LT PUSH2 0x1ED JUMPI PUSH1 0x40 MLOAD PUSH32 0x8C379A000000000000000000000000000000000000000000000000000000000 DUP2 MSTORE PUSH1 0x4 ADD DUP1 DUP1 PUSH1 0x20 ADD DUP3 DUP2 SUB DUP3 MSTORE PUSH1 0xE DUP2 MSTORE PUSH1 0x20 ADD DUP1 PUSH32 0x666565202520746F6F2068696768000000000000000000000000000000000000 DUP2 MSTORE POP PUSH1 0x20 ADD SWAP2 POP POP PUSH1 0x40 MLOAD DUP1 SWAP2 SUB SWAP1 REVERT JUMPDEST PUSH32 0x8000000000000000000000000000000000000000000000000000000000000000 DUP2 GT ISZERO PUSH2 0x283 JUMPI PUSH1 0x40 MLOAD PUSH32 0x8C379A000000000000000000000000000000000000000000000000000000000 DUP2 MSTORE PUSH1 0x4 ADD DUP1 DUP1 PUSH1 0x20 ADD DUP3 DUP2 SUB DUP3 MSTORE PUSH1 0x15 DUP2 MSTORE PUSH1 0x20 ADD DUP1 PUSH32 0x6D696E466565416D6F756E7420746F6F20686967680000000000000000000000 DUP2 MSTORE POP PUSH1 0x20 ADD SWAP2 POP POP PUSH1 0x40 MLOAD DUP1 SWAP2 SUB SWAP1 REVERT JUMPDEST DUP2 PUSH1 0x2 PUSH1 0x16 PUSH2 0x100 EXP DUP2 SLOAD DUP2 PUSH2 0xFFFF MUL NOT AND SWAP1 DUP4 PUSH2 0xFFFF AND MUL OR SWAP1 SSTORE POP DUP1 PUSH1 0x3 DUP2 SWAP1 SSTORE POP POP POP POP POP PUSH2 0x2447 DUP1 PUSH2 0x2BA PUSH1 0x0 CODECOPY PUSH1 0x0 RETURN INVALID PUSH1 0x80 PUSH1 0x40 MSTORE PUSH1 0x4 CALLDATASIZE LT PUSH2 0xF3 JUMPI PUSH1 0x0 CALLDATALOAD PUSH1 0xE0 SHR DUP1 PUSH4 0x946519F1 GT PUSH2 0x8A JUMPI DUP1 PUSH4 0xBFE5D9C5 GT PUSH2 0x59 JUMPI DUP1 PUSH4 0xBFE5D9C5 EQ PUSH2 0x79D JUMPI DUP1 PUSH4 0xF47BC89C EQ PUSH2 0x85B JUMPI DUP1 PUSH4 0xF5D36475 EQ PUSH2 0x8AC JUMPI DUP1 PUSH4 0xFFA1AD74 EQ PUSH2 0x8D7 JUMPI PUSH2 0xF3 JUMP JUMPDEST DUP1 PUSH4 0x946519F1 EQ PUSH2 0x45C JUMPI DUP1 PUSH4 0x9A3C6E29 EQ PUSH2 0x56C JUMPI DUP1 PUSH4 0xA6F9DAE1 EQ PUSH2 0x65C JUMPI DUP1 PUSH4 0xA80E7ACB EQ PUSH2 0x6AD JUMPI PUSH2 0xF3 JUMP JUMPDEST DUP1 PUSH4 0x2E49D78B GT PUSH2 0xC6 JUMPI DUP1 PUSH4 0x2E49D78B EQ PUSH2 0x343 JUMPI DUP1 PUSH4 0x5983E6B0 EQ PUSH2 0x381 JUMPI DUP1 PUSH4 0x8815EB39 EQ PUSH2 0x3D2 JUMPI DUP1 PUSH4 0x8DA5CB5B EQ PUSH2 0x405 JUMPI PUSH2 0xF3 JUMP JUMPDEST DUP1 PUSH4 0xB898C9E EQ PUSH2 0x16E JUMPI DUP1 PUSH4 0xBC2AAD2 EQ PUSH2 0x286 JUMPI DUP1 PUSH4 0x200D2ED2 EQ PUSH2 0x2B9 JUMPI DUP1 PUSH4 0x26BDEE37 EQ PUSH2 0x2F2 JUMPI JUMPDEST PUSH1 0x0 DUP1 CALLDATASIZE SWAP1 POP EQ PUSH2 0x16C JUMPI PUSH1 0x40 MLOAD PUSH32 0x8C379A000000000000000000000000000000000000000000000000000000000 DUP2 MSTORE PUSH1 0x4 ADD DUP1 DUP1 PUSH1 0x20 ADD DUP3 DUP2 SUB DUP3 MSTORE PUSH1 0x15 DUP2 MSTORE PUSH1 0x20 ADD DUP1 PUSH32 0x696E76616C6964206D6574686F642063616C6C65640000000000000000000000 DUP2 MSTORE POP PUSH1 0x20 ADD SWAP2 POP POP PUSH1 0x40 MLOAD DUP1 SWAP2 SUB SWAP1 REVERT JUMPDEST STOP JUMPDEST CALLVALUE DUP1 ISZERO PUSH2 0x17A JUMPI PUSH1 0x0 DUP1 REVERT JUMPDEST POP PUSH2 0x26C PUSH1 0x4 DUP1 CALLDATASIZE SUB PUSH1 0xC0 DUP2 LT ISZERO PUSH2 0x191 JUMPI PUSH1 0x0 DUP1 REVERT JUMPDEST DUP2 ADD SWAP1 DUP1 DUP1 CALLDATALOAD PUSH20 0xFFFFFFFFFFFFFFFFFFFFFFFFFFFFFFFFFFFFFFFF AND SWAP1 PUSH1 0x20 ADD SWAP1 SWAP3 SWAP2 SWAP1 DUP1 CALLDATALOAD PUSH20 0xFFFFFFFFFFFFFFFFFFFFFFFFFFFFFFFFFFFFFFFF AND SWAP1 PUSH1 0x20 ADD SWAP1 SWAP3 SWAP2 SWAP1 DUP1 CALLDATALOAD PUSH20 0xFFFFFFFFFFFFFFFFFFFFFFFFFFFFFFFFFFFFFFFF AND SWAP1 PUSH1 0x20 ADD SWAP1 SWAP3 SWAP2 SWAP1 DUP1 CALLDATALOAD SWAP1 PUSH1 0x20 ADD SWAP1 PUSH5 0x100000000 DUP2 GT ISZERO PUSH2 0x20E JUMPI PUSH1 0x0 DUP1 REVERT JUMPDEST DUP3 ADD DUP4 PUSH1 0x20 DUP3 ADD GT ISZERO PUSH2 0x220 JUMPI PUSH1 0x0 DUP1 REVERT JUMPDEST DUP1 CALLDATALOAD SWAP1 PUSH1 0x20 ADD SWAP2 DUP5 PUSH1 0x1 DUP4 MUL DUP5 ADD GT PUSH5 0x100000000 DUP4 GT OR ISZERO PUSH2 0x242 JUMPI PUSH1 0x0 DUP1 REVERT JUMPDEST SWAP1 SWAP2 SWAP3 SWAP4 SWAP2 SWAP3 SWAP4 SWAP1 DUP1 CALLDATALOAD SWAP1 PUSH1 0x20 ADD SWAP1 SWAP3 SWAP2 SWAP1 DUP1 CALLDATALOAD PUSH4 0xFFFFFFFF AND SWAP1 PUSH1 0x20 ADD SWAP1 SWAP3 SWAP2 SWAP1 POP POP POP PUSH2 0x967 JUMP JUMPDEST PUSH1 0x40 MLOAD DUP1 DUP3 ISZERO ISZERO ISZERO ISZERO DUP2 MSTORE PUSH1 0x20 ADD SWAP2 POP POP PUSH1 0x40 MLOAD DUP1 SWAP2 SUB SWAP1 RETURN JUMPDEST CALLVALUE DUP1 ISZERO PUSH2 0x292 JUMPI PUSH1 0x0 DUP1 REVERT JUMPDEST POP PUSH2 0x29B PUSH2 0xE64 JUMP JUMPDEST PUSH1 0x40 MLOAD DUP1 DUP3 PUSH2 0xFFFF AND PUSH2 0xFFFF AND DUP2 MSTORE PUSH1 0x20 ADD SWAP2 POP POP PUSH1 0x40 MLOAD DUP1 SWAP2 SUB SWAP1 RETURN JUMPDEST CALLVALUE DUP1 ISZERO PUSH2 0x2C5 JUMPI PUSH1 0x0 DUP1 REVERT JUMPDEST POP PUSH2 0x2CE PUSH2 0xE78 JUMP JUMPDEST PUSH1 0x40 MLOAD DUP1 DUP3 PUSH1 0x3 DUP2 GT ISZERO PUSH2 0x2DE JUMPI INVALID JUMPDEST PUSH1 0xFF AND DUP2 MSTORE PUSH1 0x20 ADD SWAP2 POP POP PUSH1 0x40 MLOAD DUP1 SWAP2 SUB SWAP1 RETURN JUMPDEST CALLVALUE DUP1 ISZERO PUSH2 0x2FE JUMPI PUSH1 0x0 DUP1 REVERT JUMPDEST POP PUSH2 0x341 PUSH1 0x4 DUP1 CALLDATASIZE SUB PUSH1 0x20 DUP2 LT ISZERO PUSH2 0x315 JUMPI PUSH1 0x0 DUP1 REVERT JUMPDEST DUP2 ADD SWAP1 DUP1 DUP1 CALLDATALOAD PUSH20 0xFFFFFFFFFFFFFFFFFFFFFFFFFFFFFFFFFFFFFFFF AND SWAP1 PUSH1 0x20 ADD SWAP1 SWAP3 SWAP2 SWAP1 POP POP POP PUSH2 0xE8B JUMP JUMPDEST STOP JUMPDEST CALLVALUE DUP1 ISZERO PUSH2 0x34F JUMPI PUSH1 0x0 DUP1 REVERT JUMPDEST POP PUSH2 0x37F PUSH1 0x4 DUP1 CALLDATASIZE SUB PUSH1 0x20 DUP2 LT ISZERO PUSH2 0x366 JUMPI PUSH1 0x0 DUP1 REVERT JUMPDEST DUP2 ADD SWAP1 DUP1 DUP1 CALLDATALOAD PUSH1 0xFF AND SWAP1 PUSH1 0x20 ADD SWAP1 SWAP3 SWAP2 SWAP1 POP POP POP PUSH2 0x1028 JUMP JUMPDEST STOP JUMPDEST CALLVALUE DUP1 ISZERO PUSH2 0x38D JUMPI PUSH1 0x0 DUP1 REVERT JUMPDEST POP PUSH2 0x3D0 PUSH1 0x4 DUP1 CALLDATASIZE SUB PUSH1 0x20 DUP2 LT ISZERO PUSH2 0x3A4 JUMPI PUSH1 0x0 DUP1 REVERT JUMPDEST DUP2 ADD SWAP1 DUP1 DUP1 CALLDATALOAD PUSH20 0xFFFFFFFFFFFFFFFFFFFFFFFFFFFFFFFFFFFFFFFF AND SWAP1 PUSH1 0x20 ADD SWAP1 SWAP3 SWAP2 SWAP1 POP POP POP PUSH2 0x117A JUMP JUMPDEST STOP JUMPDEST CALLVALUE DUP1 ISZERO PUSH2 0x3DE JUMPI PUSH1 0x0 DUP1 REVERT JUMPDEST POP PUSH2 0x3E7 PUSH2 0x1297 JUMP JUMPDEST PUSH1 0x40 MLOAD DUP1 DUP3 PUSH2 0xFFFF AND PUSH2 0xFFFF AND DUP2 MSTORE PUSH1 0x20 ADD SWAP2 POP POP PUSH1 0x40 MLOAD DUP1 SWAP2 SUB SWAP1 RETURN JUMPDEST CALLVALUE DUP1 ISZERO PUSH2 0x411 JUMPI PUSH1 0x0 DUP1 REVERT JUMPDEST POP PUSH2 0x41A PUSH2 0x12AB JUMP JUMPDEST PUSH1 0x40 MLOAD DUP1 DUP3 PUSH20 0xFFFFFFFFFFFFFFFFFFFFFFFFFFFFFFFFFFFFFFFF AND PUSH20 0xFFFFFFFFFFFFFFFFFFFFFFFFFFFFFFFFFFFFFFFF AND DUP2 MSTORE PUSH1 0x20 ADD SWAP2 POP POP PUSH1 0x40 MLOAD DUP1 SWAP2 SUB SWAP1 RETURN JUMPDEST CALLVALUE DUP1 ISZERO PUSH2 0x468 JUMPI PUSH1 0x0 DUP1 REVERT JUMPDEST POP PUSH2 0x54A PUSH1 0x4 DUP1 CALLDATASIZE SUB PUSH1 0xA0 DUP2 LT ISZERO PUSH2 0x47F JUMPI PUSH1 0x0 DUP1 REVERT JUMPDEST DUP2 ADD SWAP1 DUP1 DUP1 CALLDATALOAD PUSH20 0xFFFFFFFFFFFFFFFFFFFFFFFFFFFFFFFFFFFFFFFF AND SWAP1 PUSH1 0x20 ADD SWAP1 SWAP3 SWAP2 SWAP1 DUP1 CALLDATALOAD PUSH20 0xFFFFFFFFFFFFFFFFFFFFFFFFFFFFFFFFFFFFFFFF AND SWAP1 PUSH1 0x20 ADD SWAP1 SWAP3 SWAP2 SWAP1 DUP1 CALLDATALOAD PUSH20 0xFFFFFFFFFFFFFFFFFFFFFFFFFFFFFFFFFFFFFFFF AND SWAP1 PUSH1 0x20 ADD SWAP1 SWAP3 SWAP2 SWAP1 DUP1 CALLDATALOAD SWAP1 PUSH1 0x20 ADD SWAP1 PUSH5 0x100000000 DUP2 GT ISZERO PUSH2 0x4FC JUMPI PUSH1 0x0 DUP1 REVERT JUMPDEST DUP3 ADD DUP4 PUSH1 0x20 DUP3 ADD GT ISZERO PUSH2 0x50E JUMPI PUSH1 0x0 DUP1 REVERT JUMPDEST DUP1 CALLDATALOAD SWAP1 PUSH1 0x20 ADD SWAP2 DUP5 PUSH1 0x1 DUP4 MUL DUP5 ADD GT PUSH5 0x100000000 DUP4 GT OR ISZERO PUSH2 0x530 JUMPI PUSH1 0x0 DUP1 REVERT JUMPDEST SWAP1 SWAP2 SWAP3 SWAP4 SWAP2 SWAP3 SWAP4 SWAP1 DUP1 CALLDATALOAD SWAP1 PUSH1 0x20 ADD SWAP1 SWAP3 SWAP2 SWAP1 POP POP POP PUSH2 0x12D0 JUMP JUMPDEST PUSH1 0x40 MLOAD DUP1 DUP3 PUSH4 0xFFFFFFFF AND PUSH4 0xFFFFFFFF AND DUP2 MSTORE PUSH1 0x20 ADD SWAP2 POP POP PUSH1 0x40 MLOAD DUP1 SWAP2 SUB SWAP1 RETURN JUMPDEST CALLVALUE DUP1 ISZERO PUSH2 0x578 JUMPI PUSH1 0x0 DUP1 REVERT JUMPDEST POP PUSH2 0x65A PUSH1 0x4 DUP1 CALLDATASIZE SUB PUSH1 0xA0 DUP2 LT ISZERO PUSH2 0x58F JUMPI PUSH1 0x0 DUP1 REVERT JUMPDEST DUP2 ADD SWAP1 DUP1 DUP1 CALLDATALOAD PUSH20 0xFFFFFFFFFFFFFFFFFFFFFFFFFFFFFFFFFFFFFFFF AND SWAP1 PUSH1 0x20 ADD SWAP1 SWAP3 SWAP2 SWAP1 DUP1 CALLDATALOAD PUSH20 0xFFFFFFFFFFFFFFFFFFFFFFFFFFFFFFFFFFFFFFFF AND SWAP1 PUSH1 0x20 ADD SWAP1 SWAP3 SWAP2 SWAP1 DUP1 CALLDATALOAD PUSH20 0xFFFFFFFFFFFFFFFFFFFFFFFFFFFFFFFFFFFFFFFF AND SWAP1 PUSH1 0x20 ADD SWAP1 SWAP3 SWAP2 SWAP1 DUP1 CALLDATALOAD SWAP1 PUSH1 0x20 ADD SWAP1 PUSH5 0x100000000 DUP2 GT ISZERO PUSH2 0x60C JUMPI PUSH1 0x0 DUP1 REVERT JUMPDEST DUP3 ADD DUP4 PUSH1 0x20 DUP3 ADD GT ISZERO PUSH2 0x61E JUMPI PUSH1 0x0 DUP1 REVERT JUMPDEST DUP1 CALLDATALOAD SWAP1 PUSH1 0x20 ADD SWAP2 DUP5 PUSH1 0x1 DUP4 MUL DUP5 ADD GT PUSH5 0x100000000 DUP4 GT OR ISZERO PUSH2 0x640 JUMPI PUSH1 0x0 DUP1 REVERT JUMPDEST SWAP1 SWAP2 SWAP3 SWAP4 SWAP2 SWAP3 SWAP4 SWAP1 DUP1 CALLDATALOAD SWAP1 PUSH1 0x20 ADD SWAP1 SWAP3 SWAP2 SWAP1 POP POP POP PUSH2 0x1331 JUMP JUMPDEST STOP JUMPDEST CALLVALUE DUP1 ISZERO PUSH2 0x668 JUMPI PUSH1 0x0 DUP1 REVERT JUMPDEST POP PUSH2 0x6AB PUSH1 0x4 DUP1 CALLDATASIZE SUB PUSH1 0x20 DUP2 LT ISZERO PUSH2 0x67F JUMPI PUSH1 0x0 DUP1 REVERT JUMPDEST DUP2 ADD SWAP1 DUP1 DUP1 CALLDATALOAD PUSH20 0xFFFFFFFFFFFFFFFFFFFFFFFFFFFFFFFFFFFFFFFF AND SWAP1 PUSH1 0x20 ADD SWAP1 SWAP3 SWAP2 SWAP1 POP POP POP PUSH2 0x16AA JUMP JUMPDEST STOP JUMPDEST CALLVALUE DUP1 ISZERO PUSH2 0x6B9 JUMPI PUSH1 0x0 DUP1 REVERT JUMPDEST POP PUSH2 0x79B PUSH1 0x4 DUP1 CALLDATASIZE SUB PUSH1 0xA0 DUP2 LT ISZERO PUSH2 0x6D0 JUMPI PUSH1 0x0 DUP1 REVERT JUMPDEST DUP2 ADD SWAP1 DUP1 DUP1 CALLDATALOAD PUSH20 0xFFFFFFFFFFFFFFFFFFFFFFFFFFFFFFFFFFFFFFFF AND SWAP1 PUSH1 0x20 ADD SWAP1 SWAP3 SWAP2 SWAP1 DUP1 CALLDATALOAD PUSH20 0xFFFFFFFFFFFFFFFFFFFFFFFFFFFFFFFFFFFFFFFF AND SWAP1 PUSH1 0x20 ADD SWAP1 SWAP3 SWAP2 SWAP1 DUP1 CALLDATALOAD PUSH20 0xFFFFFFFFFFFFFFFFFFFFFFFFFFFFFFFFFFFFFFFF AND SWAP1 PUSH1 0x20 ADD SWAP1 SWAP3 SWAP2 SWAP1 DUP1 CALLDATALOAD SWAP1 PUSH1 0x20 ADD SWAP1 PUSH5 0x100000000 DUP2 GT ISZERO PUSH2 0x74D JUMPI PUSH1 0x0 DUP1 REVERT JUMPDEST DUP3 ADD DUP4 PUSH1 0x20 DUP3 ADD GT ISZERO PUSH2 0x75F JUMPI PUSH1 0x0 DUP1 REVERT JUMPDEST DUP1 CALLDATALOAD SWAP1 PUSH1 0x20 ADD SWAP2 DUP5 PUSH1 0x1 DUP4 MUL DUP5 ADD GT PUSH5 0x100000000 DUP4 GT OR ISZERO PUSH2 0x781 JUMPI PUSH1 0x0 DUP1 REVERT JUMPDEST SWAP1 SWAP2 SWAP3 SWAP4 SWAP2 SWAP3 SWAP4 SWAP1 DUP1 CALLDATALOAD SWAP1 PUSH1 0x20 ADD SWAP1 SWAP3 SWAP2 SWAP1 POP POP POP PUSH2 0x1846 JUMP JUMPDEST STOP JUMPDEST CALLVALUE DUP1 ISZERO PUSH2 0x7A9 JUMPI PUSH1 0x0 DUP1 REVERT JUMPDEST POP PUSH2 0x841 PUSH1 0x4 DUP1 CALLDATASIZE SUB PUSH1 0x40 DUP2 LT ISZERO PUSH2 0x7C0 JUMPI PUSH1 0x0 DUP1 REVERT JUMPDEST DUP2 ADD SWAP1 DUP1 DUP1 CALLDATALOAD SWAP1 PUSH1 0x20 ADD SWAP1 PUSH5 0x100000000 DUP2 GT ISZERO PUSH2 0x7DD JUMPI PUSH1 0x0 DUP1 REVERT JUMPDEST DUP3 ADD DUP4 PUSH1 0x20 DUP3 ADD GT ISZERO PUSH2 0x7EF JUMPI PUSH1 0x0 DUP1 REVERT JUMPDEST DUP1 CALLDATALOAD SWAP1 PUSH1 0x20 ADD SWAP2 DUP5 PUSH1 0x1 DUP4 MUL DUP5 ADD GT PUSH5 0x100000000 DUP4 GT OR ISZERO PUSH2 0x811 JUMPI PUSH1 0x0 DUP1 REVERT JUMPDEST SWAP1 SWAP2 SWAP3 SWAP4 SWAP2 SWAP3 SWAP4 SWAP1 DUP1 CALLDATALOAD PUSH20 0xFFFFFFFFFFFFFFFFFFFFFFFFFFFFFFFFFFFFFFFF AND SWAP1 PUSH1 0x20 ADD SWAP1 SWAP3 SWAP2 SWAP1 POP POP POP PUSH2 0x1BBF JUMP JUMPDEST PUSH1 0x40 MLOAD DUP1 DUP3 ISZERO ISZERO ISZERO ISZERO DUP2 MSTORE PUSH1 0x20 ADD SWAP2 POP POP PUSH1 0x40 MLOAD DUP1 SWAP2 SUB SWAP1 RETURN JUMPDEST CALLVALUE DUP1 ISZERO PUSH2 0x867 JUMPI PUSH1 0x0 DUP1 REVERT JUMPDEST POP PUSH2 0x8AA PUSH1 0x4 DUP1 CALLDATASIZE SUB PUSH1 0x20 DUP2 LT ISZERO PUSH2 0x87E JUMPI PUSH1 0x0 DUP1 REVERT JUMPDEST DUP2 ADD SWAP1 DUP1 DUP1 CALLDATALOAD PUSH20 0xFFFFFFFFFFFFFFFFFFFFFFFFFFFFFFFFFFFFFFFF AND SWAP1 PUSH1 0x20 ADD SWAP1 SWAP3 SWAP2 SWAP1 POP POP POP PUSH2 0x1CE5 JUMP JUMPDEST STOP JUMPDEST CALLVALUE DUP1 ISZERO PUSH2 0x8B8 JUMPI PUSH1 0x0 DUP1 REVERT JUMPDEST POP PUSH2 0x8C1 PUSH2 0x1E01 JUMP JUMPDEST PUSH1 0x40 MLOAD DUP1 DUP3 DUP2 MSTORE PUSH1 0x20 ADD SWAP2 POP POP PUSH1 0x40 MLOAD DUP1 SWAP2 SUB SWAP1 RETURN JUMPDEST CALLVALUE DUP1 ISZERO PUSH2 0x8E3 JUMPI PUSH1 0x0 DUP1 REVERT JUMPDEST POP PUSH2 0x8EC PUSH2 0x1E07 JUMP JUMPDEST PUSH1 0x40 MLOAD DUP1 DUP1 PUSH1 0x20 ADD DUP3 DUP2 SUB DUP3 MSTORE DUP4 DUP2 DUP2 MLOAD DUP2 MSTORE PUSH1 0x20 ADD SWAP2 POP DUP1 MLOAD SWAP1 PUSH1 0x20 ADD SWAP1 DUP1 DUP4 DUP4 PUSH1 0x0 JUMPDEST DUP4 DUP2 LT ISZERO PUSH2 0x92C JUMPI DUP1 DUP3 ADD MLOAD DUP2 DUP5 ADD MSTORE PUSH1 0x20 DUP2 ADD SWAP1 POP PUSH2 0x911 JUMP JUMPDEST POP POP POP POP SWAP1 POP SWAP1 DUP2 ADD SWAP1 PUSH1 0x1F AND DUP1 ISZERO PUSH2 0x959 JUMPI DUP1 DUP3 SUB DUP1 MLOAD PUSH1 0x1 DUP4 PUSH1 0x20 SUB PUSH2 0x100 EXP SUB NOT AND DUP2 MSTORE PUSH1 0x20 ADD SWAP2 POP JUMPDEST POP SWAP3 POP POP POP PUSH1 0x40 MLOAD DUP1 SWAP2 SUB SWAP1 RETURN JUMPDEST PUSH1 0x0 PUSH1 0x3 DUP1 PUSH1 0x3 DUP2 GT ISZERO PUSH2 0x977 JUMPI INVALID JUMPDEST PUSH1 0x0 PUSH1 0x14 SWAP1 SLOAD SWAP1 PUSH2 0x100 EXP SWAP1 DIV PUSH1 0xFF AND PUSH1 0x3 DUP2 GT ISZERO PUSH2 0x992 JUMPI INVALID JUMPDEST LT ISZERO PUSH2 0xA06 JUMPI PUSH1 0x40 MLOAD PUSH32 0x8C379A000000000000000000000000000000000000000000000000000000000 DUP2 MSTORE PUSH1 0x4 ADD DUP1 DUP1 PUSH1 0x20 ADD DUP3 DUP2 SUB DUP3 MSTORE PUSH1 0x17 DUP2 MSTORE PUSH1 0x20 ADD DUP1 PUSH32 0x696E76616C696420636F6E747261637420737461747573000000000000000000 DUP2 MSTORE POP PUSH1 0x20 ADD SWAP2 POP POP PUSH1 0x40 MLOAD DUP1 SWAP2 SUB SWAP1 REVERT JUMPDEST PUSH1 0x2 PUSH1 0x0 SWAP1 SLOAD SWAP1 PUSH2 0x100 EXP SWAP1 DIV PUSH20 0xFFFFFFFFFFFFFFFFFFFFFFFFFFFFFFFFFFFFFFFF AND PUSH20 0xFFFFFFFFFFFFFFFFFFFFFFFFFFFFFFFFFFFFFFFF AND CALLER PUSH20 0xFFFFFFFFFFFFFFFFFFFFFFFFFFFFFFFFFFFFFFFF AND EQ PUSH2 0xAAC JUMPI PUSH1 0x40 MLOAD PUSH32 0x8C379A000000000000000000000000000000000000000000000000000000000 DUP2 MSTORE PUSH1 0x4 ADD DUP1 DUP1 PUSH1 0x20 ADD DUP3 DUP2 SUB DUP3 MSTORE PUSH1 0x23 DUP2 MSTORE PUSH1 0x20 ADD DUP1 PUSH2 0x23C7 PUSH1 0x23 SWAP2 CODECOPY PUSH1 0x40 ADD SWAP2 POP POP PUSH1 0x40 MLOAD DUP1 SWAP2 SUB SWAP1 REVERT JUMPDEST DUP7 PUSH1 0x1 PUSH1 0x0 DUP3 PUSH20 0xFFFFFFFFFFFFFFFFFFFFFFFFFFFFFFFFFFFFFFFF AND PUSH20 0xFFFFFFFFFFFFFFFFFFFFFFFFFFFFFFFFFFFFFFFF AND DUP2 MSTORE PUSH1 0x20 ADD SWAP1 DUP2 MSTORE PUSH1 0x20 ADD PUSH1 0x0 KECCAK256 PUSH1 0x0 SWAP1 SLOAD SWAP1 PUSH2 0x100 EXP SWAP1 DIV PUSH1 0xFF AND PUSH2 0xB6C JUMPI PUSH1 0x40 MLOAD PUSH32 0x8C379A000000000000000000000000000000000000000000000000000000000 DUP2 MSTORE PUSH1 0x4 ADD DUP1 DUP1 PUSH1 0x20 ADD DUP3 DUP2 SUB DUP3 MSTORE PUSH1 0x16 DUP2 MSTORE PUSH1 0x20 ADD DUP1 PUSH32 0x696E76616C6964206F7261636C65206164647265737300000000000000000000 DUP2 MSTORE POP PUSH1 0x20 ADD SWAP2 POP POP PUSH1 0x40 MLOAD DUP1 SWAP2 SUB SWAP1 REVERT JUMPDEST DUP7 DUP7 DUP1 DUP1 PUSH1 0x1F ADD PUSH1 0x20 DUP1 SWAP2 DIV MUL PUSH1 0x20 ADD PUSH1 0x40 MLOAD SWAP1 DUP2 ADD PUSH1 0x40 MSTORE DUP1 SWAP4 SWAP3 SWAP2 SWAP1 DUP2 DUP2 MSTORE PUSH1 0x20 ADD DUP4 DUP4 DUP1 DUP3 DUP5 CALLDATACOPY PUSH1 0x0 DUP2 DUP5 ADD MSTORE PUSH1 0x1F NOT PUSH1 0x1F DUP3 ADD AND SWAP1 POP DUP1 DUP4 ADD SWAP3 POP POP POP POP POP POP POP DUP11 PUSH1 0x0 PUSH2 0xFFFF PUSH1 0x2 DUP5 ADD MLOAD AND SWAP1 POP PUSH1 0x2 PUSH1 0x14 SWAP1 SLOAD SWAP1 PUSH2 0x100 EXP SWAP1 DIV PUSH2 0xFFFF AND PUSH2 0xFFFF AND DUP2 PUSH2 0xFFFF AND EQ PUSH2 0xC4C JUMPI PUSH1 0x40 MLOAD PUSH32 0x8C379A000000000000000000000000000000000000000000000000000000000 DUP2 MSTORE PUSH1 0x4 ADD DUP1 DUP1 PUSH1 0x20 ADD DUP3 DUP2 SUB DUP3 MSTORE PUSH1 0x12 DUP2 MSTORE PUSH1 0x20 ADD DUP1 PUSH32 0x696E76616C696420617373657420747970650000000000000000000000000000 DUP2 MSTORE POP PUSH1 0x20 ADD SWAP2 POP POP PUSH1 0x40 MLOAD DUP1 SWAP2 SUB SWAP1 REVERT JUMPDEST PUSH2 0xC56 DUP4 DUP4 PUSH2 0x1E40 JUMP JUMPDEST PUSH3 0x15180 PUSH4 0xFFFFFFFF AND DUP8 PUSH4 0xFFFFFFFF AND LT ISZERO DUP1 ISZERO PUSH2 0xC84 JUMPI POP PUSH3 0x278D00 PUSH4 0xFFFFFFFF AND DUP8 PUSH4 0xFFFFFFFF AND GT ISZERO JUMPDEST PUSH2 0xCF6 JUMPI PUSH1 0x40 MLOAD PUSH32 0x8C379A000000000000000000000000000000000000000000000000000000000 DUP2 MSTORE PUSH1 0x4 ADD DUP1 DUP1 PUSH1 0x20 ADD DUP3 DUP2 SUB DUP3 MSTORE PUSH1 0x18 DUP2 MSTORE PUSH1 0x20 ADD DUP1 PUSH32 0x6C6F636B2074696D65206F757473696465206C696D6974730000000000000000 DUP2 MSTORE POP PUSH1 0x20 ADD SWAP2 POP POP PUSH1 0x40 MLOAD DUP1 SWAP2 SUB SWAP1 REVERT JUMPDEST PUSH1 0x0 PUSH2 0xD23 DUP15 DUP15 DUP15 DUP15 DUP15 PUSH1 0x40 MLOAD DUP1 DUP4 DUP4 DUP1 DUP3 DUP5 CALLDATACOPY DUP1 DUP4 ADD SWAP3 POP POP POP SWAP3 POP POP POP PUSH1 0x40 MLOAD DUP1 SWAP2 SUB SWAP1 KECCAK256 DUP14 PUSH2 0x1EBF JUMP JUMPDEST SWAP1 POP PUSH2 0xD2E DUP2 PUSH2 0x1FA0 JUMP JUMPDEST DUP8 TIMESTAMP ADD PUSH1 0x4 PUSH1 0x0 DUP4 DUP2 MSTORE PUSH1 0x20 ADD SWAP1 DUP2 MSTORE PUSH1 0x20 ADD PUSH1 0x0 KECCAK256 PUSH1 0x0 PUSH2 0x100 EXP DUP2 SLOAD DUP2 PUSH4 0xFFFFFFFF MUL NOT AND SWAP1 DUP4 PUSH4 0xFFFFFFFF AND MUL OR SWAP1 SSTORE POP PUSH2 0xDB0 DUP12 DUP12 DUP1 DUP1 PUSH1 0x1F ADD PUSH1 0x20 DUP1 SWAP2 DIV MUL PUSH1 0x20 ADD PUSH1 0x40 MLOAD SWAP1 DUP2 ADD PUSH1 0x40 MSTORE DUP1 SWAP4 SWAP3 SWAP2 SWAP1 DUP2 DUP2 MSTORE PUSH1 0x20 ADD DUP4 DUP4 DUP1 DUP3 DUP5 CALLDATACOPY PUSH1 0x0 DUP2 DUP5 ADD MSTORE PUSH1 0x1F NOT PUSH1 0x1F DUP3 ADD AND SWAP1 POP DUP1 DUP4 ADD SWAP3 POP POP POP POP POP POP POP DUP16 PUSH2 0x2042 JUMP JUMPDEST PUSH2 0xE22 JUMPI PUSH1 0x40 MLOAD PUSH32 0x8C379A000000000000000000000000000000000000000000000000000000000 DUP2 MSTORE PUSH1 0x4 ADD DUP1 DUP1 PUSH1 0x20 ADD DUP3 DUP2 SUB DUP3 MSTORE PUSH1 0x12 DUP2 MSTORE PUSH1 0x20 ADD DUP1 PUSH32 0x657363726F77206C6F636B206661696C65640000000000000000000000000000 DUP2 MSTORE POP PUSH1 0x20 ADD SWAP2 POP POP PUSH1 0x40 MLOAD DUP1 SWAP2 SUB SWAP1 REVERT JUMPDEST DUP1 PUSH32 0x102D25C49D33FCDB8976A3F2744E0785C98D9E43B88364859E6AEC4AE82EFF5C PUSH1 0x40 MLOAD PUSH1 0x40 MLOAD DUP1 SWAP2 SUB SWAP1 LOG2 PUSH1 0x1 SWAP7 POP POP POP POP POP POP POP SWAP8 SWAP7 POP POP POP POP POP POP POP JUMP JUMPDEST PUSH1 0x2 PUSH1 0x16 SWAP1 SLOAD SWAP1 PUSH2 0x100 EXP SWAP1 DIV PUSH2 0xFFFF AND DUP2 JUMP JUMPDEST PUSH1 0x0 PUSH1 0x14 SWAP1 SLOAD SWAP1 PUSH2 0x100 EXP SWAP1 DIV PUSH1 0xFF AND DUP2 JUMP JUMPDEST PUSH1 0x0 DUP1 SWAP1 SLOAD SWAP1 PUSH2 0x100 EXP SWAP1 DIV PUSH20 0xFFFFFFFFFFFFFFFFFFFFFFFFFFFFFFFFFFFFFFFF AND PUSH20 0xFFFFFFFFFFFFFFFFFFFFFFFFFFFFFFFFFFFFFFFF AND CALLER PUSH20 0xFFFFFFFFFFFFFFFFFFFFFFFFFFFFFFFFFFFFFFFF AND EQ PUSH2 0xF4D JUMPI PUSH1 0x40 MLOAD PUSH32 0x8C379A000000000000000000000000000000000000000000000000000000000 DUP2 MSTORE PUSH1 0x4 ADD DUP1 DUP1 PUSH1 0x20 ADD DUP3 DUP2 SUB DUP3 MSTORE PUSH1 0x1C DUP2 MSTORE PUSH1 0x20 ADD DUP1 PUSH32 0x6F6E6C7920746865206F776E65722063616E2063616C6C207468697300000000 DUP2 MSTORE POP PUSH1 0x20 ADD SWAP2 POP POP PUSH1 0x40 MLOAD DUP1 SWAP2 SUB SWAP1 REVERT JUMPDEST DUP1 PUSH1 0x2 PUSH1 0x0 PUSH2 0x100 EXP DUP2 SLOAD DUP2 PUSH20 0xFFFFFFFFFFFFFFFFFFFFFFFFFFFFFFFFFFFFFFFF MUL NOT AND SWAP1 DUP4 PUSH20 0xFFFFFFFFFFFFFFFFFFFFFFFFFFFFFFFFFFFFFFFF AND MUL OR SWAP1 SSTORE POP PUSH32 0xADF20380D9033E7F11FC1856D69012AA18E03195A098CD38CE3BE225966968A8 CALLER DUP3 PUSH1 0x40 MLOAD DUP1 DUP4 PUSH20 0xFFFFFFFFFFFFFFFFFFFFFFFFFFFFFFFFFFFFFFFF AND PUSH20 0xFFFFFFFFFFFFFFFFFFFFFFFFFFFFFFFFFFFFFFFF AND DUP2 MSTORE PUSH1 0x20 ADD DUP3 PUSH20 0xFFFFFFFFFFFFFFFFFFFFFFFFFFFFFFFFFFFFFFFF AND PUSH20 0xFFFFFFFFFFFFFFFFFFFFFFFFFFFFFFFFFFFFFFFF AND DUP2 MSTORE PUSH1 0x20 ADD SWAP3 POP POP POP PUSH1 0x40 MLOAD DUP1 SWAP2 SUB SWAP1 LOG1 POP JUMP JUMPDEST PUSH1 0x0 DUP1 SWAP1 SLOAD SWAP1 PUSH2 0x100 EXP SWAP1 DIV PUSH20 0xFFFFFFFFFFFFFFFFFFFFFFFFFFFFFFFFFFFFFFFF AND PUSH20 0xFFFFFFFFFFFFFFFFFFFFFFFFFFFFFFFFFFFFFFFF AND CALLER PUSH20 0xFFFFFFFFFFFFFFFFFFFFFFFFFFFFFFFFFFFFFFFF AND EQ PUSH2 0x10EA JUMPI PUSH1 0x40 MLOAD PUSH32 0x8C379A000000000000000000000000000000000000000000000000000000000 DUP2 MSTORE PUSH1 0x4 ADD DUP1 DUP1 PUSH1 0x20 ADD DUP3 DUP2 SUB DUP3 MSTORE PUSH1 0x1C DUP2 MSTORE PUSH1 0x20 ADD DUP1 PUSH32 0x6F6E6C7920746865206F776E65722063616E2063616C6C207468697300000000 DUP2 MSTORE POP PUSH1 0x20 ADD SWAP2 POP POP PUSH1 0x40 MLOAD DUP1 SWAP2 SUB SWAP1 REVERT JUMPDEST PUSH32 0xE1377AA21D49FA10BB9ECE6A0CD4F75597A90A80C3750F7F7674967F49AB9A62 PUSH1 0x0 PUSH1 0x14 SWAP1 SLOAD SWAP1 PUSH2 0x100 EXP SWAP1 DIV PUSH1 0xFF AND DUP3 PUSH1 0x40 MLOAD DUP1 DUP4 PUSH1 0x3 DUP2 GT ISZERO PUSH2 0x112C JUMPI INVALID JUMPDEST PUSH1 0xFF AND DUP2 MSTORE PUSH1 0x20 ADD DUP3 PUSH1 0x3 DUP2 GT ISZERO PUSH2 0x1140 JUMPI INVALID JUMPDEST PUSH1 0xFF AND DUP2 MSTORE PUSH1 0x20 ADD SWAP3 POP POP POP PUSH1 0x40 MLOAD DUP1 SWAP2 SUB SWAP1 LOG1 DUP1 PUSH1 0x0 PUSH1 0x14 PUSH2 0x100 EXP DUP2 SLOAD DUP2 PUSH1 0xFF MUL NOT AND SWAP1 DUP4 PUSH1 0x3 DUP2 GT ISZERO PUSH2 0x1172 JUMPI INVALID JUMPDEST MUL OR SWAP1 SSTORE POP POP JUMP JUMPDEST PUSH1 0x0 DUP1 SWAP1 SLOAD SWAP1 PUSH2 0x100 EXP SWAP1 DIV PUSH20 0xFFFFFFFFFFFFFFFFFFFFFFFFFFFFFFFFFFFFFFFF AND PUSH20 0xFFFFFFFFFFFFFFFFFFFFFFFFFFFFFFFFFFFFFFFF AND CALLER PUSH20 0xFFFFFFFFFFFFFFFFFFFFFFFFFFFFFFFFFFFFFFFF AND EQ PUSH2 0x123C JUMPI PUSH1 0x40 MLOAD PUSH32 0x8C379A000000000000000000000000000000000000000000000000000000000 DUP2 MSTORE PUSH1 0x4 ADD DUP1 DUP1 PUSH1 0x20 ADD DUP3 DUP2 SUB DUP3 MSTORE PUSH1 0x1C DUP2 MSTORE PUSH1 0x20 ADD DUP1 PUSH32 0x6F6E6C7920746865206F776E65722063616E2063616C6C207468697300000000 DUP2 MSTORE POP PUSH1 0x20 ADD SWAP2 POP POP PUSH1 0x40 MLOAD DUP1 SWAP2 SUB SWAP1 REVERT JUMPDEST PUSH1 0x0 PUSH1 0x1 PUSH1 0x0 DUP4 PUSH20 0xFFFFFFFFFFFFFFFFFFFFFFFFFFFFFFFFFFFFFFFF AND PUSH20 0xFFFFFFFFFFFFFFFFFFFFFFFFFFFFFFFFFFFFFFFF AND DUP2 MSTORE PUSH1 0x20 ADD SWAP1 DUP2 MSTORE PUSH1 0x20 ADD PUSH1 0x0 KECCAK256 PUSH1 0x0 PUSH2 0x100 EXP DUP2 SLOAD DUP2 PUSH1 0xFF MUL NOT AND SWAP1 DUP4 ISZERO ISZERO MUL OR SWAP1 SSTORE POP POP JUMP JUMPDEST PUSH1 0x2 PUSH1 0x14 SWAP1 SLOAD SWAP1 PUSH2 0x100 EXP SWAP1 DIV PUSH2 0xFFFF AND DUP2 JUMP JUMPDEST PUSH1 0x0 DUP1 SWAP1 SLOAD SWAP1 PUSH2 0x100 EXP SWAP1 DIV PUSH20 0xFFFFFFFFFFFFFFFFFFFFFFFFFFFFFFFFFFFFFFFF AND DUP2 JUMP JUMPDEST PUSH1 0x0 DUP1 PUSH2 0x12FE DUP9 DUP9 DUP9 DUP9 DUP9 PUSH1 0x40 MLOAD DUP1 DUP4 DUP4 DUP1 DUP3 DUP5 CALLDATACOPY DUP1 DUP4 ADD SWAP3 POP POP POP SWAP3 POP POP POP PUSH1 0x40 MLOAD DUP1 SWAP2 SUB SWAP1 KECCAK256 DUP8 PUSH2 0x1EBF JUMP JUMPDEST SWAP1 POP PUSH1 0x4 PUSH1 0x0 DUP3 DUP2 MSTORE PUSH1 0x20 ADD SWAP1 DUP2 MSTORE PUSH1 0x20 ADD PUSH1 0x0 KECCAK256 PUSH1 0x0 SWAP1 SLOAD SWAP1 PUSH2 0x100 EXP SWAP1 DIV PUSH4 0xFFFFFFFF AND SWAP2 POP POP SWAP7 SWAP6 POP POP POP POP POP POP JUMP JUMPDEST PUSH1 0x2 DUP1 PUSH1 0x3 DUP2 GT ISZERO PUSH2 0x133F JUMPI INVALID JUMPDEST PUSH1 0x0 PUSH1 0x14 SWAP1 SLOAD SWAP1 PUSH2 0x100 EXP SWAP1 DIV PUSH1 0xFF AND PUSH1 0x3 DUP2 GT ISZERO PUSH2 0x135A JUMPI INVALID JUMPDEST LT ISZERO PUSH2 0x13CE JUMPI PUSH1 0x40 MLOAD PUSH32 0x8C379A000000000000000000000000000000000000000000000000000000000 DUP2 MSTORE PUSH1 0x4 ADD DUP1 DUP1 PUSH1 0x20 ADD DUP3 DUP2 SUB DUP3 MSTORE PUSH1 0x17 DUP2 MSTORE PUSH1 0x20 ADD DUP1 PUSH32 0x696E76616C696420636F6E747261637420737461747573000000000000000000 DUP2 MSTORE POP PUSH1 0x20 ADD SWAP2 POP POP PUSH1 0x40 MLOAD DUP1 SWAP2 SUB SWAP1 REVERT JUMPDEST DUP7 DUP6 DUP2 PUSH20 0xFFFFFFFFFFFFFFFFFFFFFFFFFFFFFFFFFFFFFFFF AND CALLER PUSH20 0xFFFFFFFFFFFFFFFFFFFFFFFFFFFFFFFFFFFFFFFF AND EQ DUP1 PUSH2 0x148A JUMPI POP DUP1 PUSH20 0xFFFFFFFFFFFFFFFFFFFFFFFFFFFFFFFFFFFFFFFF AND CALLER PUSH20 0xFFFFFFFFFFFFFFFFFFFFFFFFFFFFFFFFFFFFFFFF AND EQ DUP1 ISZERO PUSH2 0x1489 JUMPI POP PUSH1 0x1 PUSH1 0x0 CALLER PUSH20 0xFFFFFFFFFFFFFFFFFFFFFFFFFFFFFFFFFFFFFFFF AND PUSH20 0xFFFFFFFFFFFFFFFFFFFFFFFFFFFFFFFFFFFFFFFF AND DUP2 MSTORE PUSH1 0x20 ADD SWAP1 DUP2 MSTORE PUSH1 0x20 ADD PUSH1 0x0 KECCAK256 PUSH1 0x0 SWAP1 SLOAD SWAP1 PUSH2 0x100 EXP SWAP1 DIV PUSH1 0xFF AND JUMPDEST JUMPDEST PUSH2 0x14DF JUMPI PUSH1 0x40 MLOAD PUSH32 0x8C379A000000000000000000000000000000000000000000000000000000000 DUP2 MSTORE PUSH1 0x4 ADD DUP1 DUP1 PUSH1 0x20 ADD DUP3 DUP2 SUB DUP3 MSTORE PUSH1 0x29 DUP2 MSTORE PUSH1 0x20 ADD DUP1 PUSH2 0x23EA PUSH1 0x29 SWAP2 CODECOPY PUSH1 0x40 ADD SWAP2 POP POP PUSH1 0x40 MLOAD DUP1 SWAP2 SUB SWAP1 REVERT JUMPDEST PUSH1 0x0 PUSH2 0x150C DUP11 DUP11 DUP11 DUP11 DUP11 PUSH1 0x40 MLOAD DUP1 DUP4 DUP4 DUP1 DUP3 DUP5 CALLDATACOPY DUP1 DUP4 ADD SWAP3 POP POP POP SWAP3 POP POP POP PUSH1 0x40 MLOAD DUP1 SWAP2 SUB SWAP1 KECCAK256 DUP10 PUSH2 0x1EBF JUMP JUMPDEST SWAP1 POP PUSH2 0x1517 DUP2 PUSH2 0x205E JUMP JUMPDEST PUSH1 0x0 PUSH1 0x4 PUSH1 0x0 DUP4 DUP2 MSTORE PUSH1 0x20 ADD SWAP1 DUP2 MSTORE PUSH1 0x20 ADD PUSH1 0x0 KECCAK256 PUSH1 0x0 PUSH2 0x100 EXP DUP2 SLOAD DUP2 PUSH4 0xFFFFFFFF MUL NOT AND SWAP1 DUP4 PUSH4 0xFFFFFFFF AND MUL OR SWAP1 SSTORE POP PUSH2 0x1598 DUP8 DUP8 DUP1 DUP1 PUSH1 0x1F ADD PUSH1 0x20 DUP1 SWAP2 DIV MUL PUSH1 0x20 ADD PUSH1 0x40 MLOAD SWAP1 DUP2 ADD PUSH1 0x40 MSTORE DUP1 SWAP4 SWAP3 SWAP2 SWAP1 DUP2 DUP2 MSTORE PUSH1 0x20 ADD DUP4 DUP4 DUP1 DUP3 DUP5 CALLDATACOPY PUSH1 0x0 DUP2 DUP5 ADD MSTORE PUSH1 0x1F NOT PUSH1 0x1F DUP3 ADD AND SWAP1 POP DUP1 DUP4 ADD SWAP3 POP POP POP POP POP POP POP DUP11 PUSH2 0x2109 JUMP JUMPDEST PUSH2 0x160A JUMPI PUSH1 0x40 MLOAD PUSH32 0x8C379A000000000000000000000000000000000000000000000000000000000 DUP2 MSTORE PUSH1 0x4 ADD DUP1 DUP1 PUSH1 0x20 ADD DUP3 DUP2 SUB DUP3 MSTORE PUSH1 0x14 DUP2 MSTORE PUSH1 0x20 ADD DUP1 PUSH32 0x61737365742072656C65617365206661696C6564000000000000000000000000 DUP2 MSTORE POP PUSH1 0x20 ADD SWAP2 POP POP PUSH1 0x40 MLOAD DUP1 SWAP2 SUB SWAP1 REVERT JUMPDEST DUP10 PUSH20 0xFFFFFFFFFFFFFFFFFFFFFFFFFFFFFFFFFFFFFFFF AND CALLER PUSH20 0xFFFFFFFFFFFFFFFFFFFFFFFFFFFFFFFFFFFFFFFF AND EQ ISZERO PUSH2 0x1670 JUMPI DUP1 PUSH32 0x789952A21900CBA4809507B4BA56618CEE6A1E748254F8FAAB21E9B8F1C60BC9 PUSH1 0x40 MLOAD PUSH1 0x40 MLOAD DUP1 SWAP2 SUB SWAP1 LOG2 PUSH2 0x169E JUMP JUMPDEST DUP1 PUSH32 0x6EEC2DD2382427616D4EA7EF183B16091FEAC4E2E63C8B55F25215F132DF8D14 PUSH1 0x40 MLOAD PUSH1 0x40 MLOAD DUP1 SWAP2 SUB SWAP1 LOG2 JUMPDEST POP POP POP POP POP POP POP POP POP POP JUMP JUMPDEST PUSH1 0x0 DUP1 SWAP1 SLOAD SWAP1 PUSH2 0x100 EXP SWAP1 DIV PUSH20 0xFFFFFFFFFFFFFFFFFFFFFFFFFFFFFFFFFFFFFFFF AND PUSH20 0xFFFFFFFFFFFFFFFFFFFFFFFFFFFFFFFFFFFFFFFF AND CALLER PUSH20 0xFFFFFFFFFFFFFFFFFFFFFFFFFFFFFFFFFFFFFFFF AND EQ PUSH2 0x176C JUMPI PUSH1 0x40 MLOAD PUSH32 0x8C379A000000000000000000000000000000000000000000000000000000000 DUP2 MSTORE PUSH1 0x4 ADD DUP1 DUP1 PUSH1 0x20 ADD DUP3 DUP2 SUB DUP3 MSTORE PUSH1 0x1C DUP2 MSTORE PUSH1 0x20 ADD DUP1 PUSH32 0x6F6E6C7920746865206F776E65722063616E2063616C6C207468697300000000 DUP2 MSTORE POP PUSH1 0x20 ADD SWAP2 POP POP PUSH1 0x40 MLOAD DUP1 SWAP2 SUB SWAP1 REVERT JUMPDEST DUP1 PUSH1 0x0 DUP1 PUSH2 0x100 EXP DUP2 SLOAD DUP2 PUSH20 0xFFFFFFFFFFFFFFFFFFFFFFFFFFFFFFFFFFFFFFFF MUL NOT AND SWAP1 DUP4 PUSH20 0xFFFFFFFFFFFFFFFFFFFFFFFFFFFFFFFFFFFFFFFF AND MUL OR SWAP1 SSTORE POP PUSH32 0xB532073B38C83145E3E5135377A08BF9AAB55BC0FD7C1179CD4FB995D2A5159C CALLER DUP3 PUSH1 0x40 MLOAD DUP1 DUP4 PUSH20 0xFFFFFFFFFFFFFFFFFFFFFFFFFFFFFFFFFFFFFFFF AND PUSH20 0xFFFFFFFFFFFFFFFFFFFFFFFFFFFFFFFFFFFFFFFF AND DUP2 MSTORE PUSH1 0x20 ADD DUP3 PUSH20 0xFFFFFFFFFFFFFFFFFFFFFFFFFFFFFFFFFFFFFFFF AND PUSH20 0xFFFFFFFFFFFFFFFFFFFFFFFFFFFFFFFFFFFFFFFF AND DUP2 MSTORE PUSH1 0x20 ADD SWAP3 POP POP POP PUSH1 0x40 MLOAD DUP1 SWAP2 SUB SWAP1 LOG1 POP JUMP JUMPDEST PUSH1 0x1 DUP1 PUSH1 0x3 DUP2 GT ISZERO PUSH2 0x1854 JUMPI INVALID JUMPDEST PUSH1 0x0 PUSH1 0x14 SWAP1 SLOAD SWAP1 PUSH2 0x100 EXP SWAP1 DIV PUSH1 0xFF AND PUSH1 0x3 DUP2 GT ISZERO PUSH2 0x186F JUMPI INVALID JUMPDEST LT ISZERO PUSH2 0x18E3 JUMPI PUSH1 0x40 MLOAD PUSH32 0x8C379A000000000000000000000000000000000000000000000000000000000 DUP2 MSTORE PUSH1 0x4 ADD DUP1 DUP1 PUSH1 0x20 ADD DUP3 DUP2 SUB DUP3 MSTORE PUSH1 0x17 DUP2 MSTORE PUSH1 0x20 ADD DUP1 PUSH32 0x696E76616C696420636F6E747261637420737461747573000000000000000000 DUP2 MSTORE POP PUSH1 0x20 ADD SWAP2 POP POP PUSH1 0x40 MLOAD DUP1 SWAP2 SUB SWAP1 REVERT JUMPDEST DUP7 DUP6 DUP2 PUSH20 0xFFFFFFFFFFFFFFFFFFFFFFFFFFFFFFFFFFFFFFFF AND CALLER PUSH20 0xFFFFFFFFFFFFFFFFFFFFFFFFFFFFFFFFFFFFFFFF AND EQ DUP1 PUSH2 0x199F JUMPI POP DUP1 PUSH20 0xFFFFFFFFFFFFFFFFFFFFFFFFFFFFFFFFFFFFFFFF AND CALLER PUSH20 0xFFFFFFFFFFFFFFFFFFFFFFFFFFFFFFFFFFFFFFFF AND EQ DUP1 ISZERO PUSH2 0x199E JUMPI POP PUSH1 0x1 PUSH1 0x0 CALLER PUSH20 0xFFFFFFFFFFFFFFFFFFFFFFFFFFFFFFFFFFFFFFFF AND PUSH20 0xFFFFFFFFFFFFFFFFFFFFFFFFFFFFFFFFFFFFFFFF AND DUP2 MSTORE PUSH1 0x20 ADD SWAP1 DUP2 MSTORE PUSH1 0x20 ADD PUSH1 0x0 KECCAK256 PUSH1 0x0 SWAP1 SLOAD SWAP1 PUSH2 0x100 EXP SWAP1 DIV PUSH1 0xFF AND JUMPDEST JUMPDEST PUSH2 0x19F4 JUMPI PUSH1 0x40 MLOAD PUSH32 0x8C379A000000000000000000000000000000000000000000000000000000000 DUP2 MSTORE PUSH1 0x4 ADD DUP1 DUP1 PUSH1 0x20 ADD DUP3 DUP2 SUB DUP3 MSTORE PUSH1 0x29 DUP2 MSTORE PUSH1 0x20 ADD DUP1 PUSH2 0x23EA PUSH1 0x29 SWAP2 CODECOPY PUSH1 0x40 ADD SWAP2 POP POP PUSH1 0x40 MLOAD DUP1 SWAP2 SUB SWAP1 REVERT JUMPDEST PUSH1 0x0 PUSH2 0x1A21 DUP11 DUP11 DUP11 DUP11 DUP11 PUSH1 0x40 MLOAD DUP1 DUP4 DUP4 DUP1 DUP3 DUP5 CALLDATACOPY DUP1 DUP4 ADD SWAP3 POP POP POP SWAP3 POP POP POP PUSH1 0x40 MLOAD DUP1 SWAP2 SUB SWAP1 KECCAK256 DUP10 PUSH2 0x1EBF JUMP JUMPDEST SWAP1 POP PUSH2 0x1A2C DUP2 PUSH2 0x213B JUMP JUMPDEST PUSH1 0x0 PUSH1 0x4 PUSH1 0x0 DUP4 DUP2 MSTORE PUSH1 0x20 ADD SWAP1 DUP2 MSTORE PUSH1 0x20 ADD PUSH1 0x0 KECCAK256 PUSH1 0x0 PUSH2 0x100 EXP DUP2 SLOAD DUP2 PUSH4 0xFFFFFFFF MUL NOT AND SWAP1 DUP4 PUSH4 0xFFFFFFFF AND MUL OR SWAP1 SSTORE POP PUSH2 0x1AAD DUP8 DUP8 DUP1 DUP1 PUSH1 0x1F ADD PUSH1 0x20 DUP1 SWAP2 DIV MUL PUSH1 0x20 ADD PUSH1 0x40 MLOAD SWAP1 DUP2 ADD PUSH1 0x40 MSTORE DUP1 SWAP4 SWAP3 SWAP2 SWAP1 DUP2 DUP2 MSTORE PUSH1 0x20 ADD DUP4 DUP4 DUP1 DUP3 DUP5 CALLDATACOPY PUSH1 0x0 DUP2 DUP5 ADD MSTORE PUSH1 0x1F NOT PUSH1 0x1F DUP3 ADD AND SWAP1 POP DUP1 DUP4 ADD SWAP3 POP POP POP POP POP POP POP DUP12 PUSH2 0x221A JUMP JUMPDEST PUSH2 0x1B1F JUMPI PUSH1 0x40 MLOAD PUSH32 0x8C379A000000000000000000000000000000000000000000000000000000000 DUP2 MSTORE PUSH1 0x4 ADD DUP1 DUP1 PUSH1 0x20 ADD DUP3 DUP2 SUB DUP3 MSTORE PUSH1 0x13 DUP2 MSTORE PUSH1 0x20 ADD DUP1 PUSH32 0x61737365742072657475726E206661696C656400000000000000000000000000 DUP2 MSTORE POP PUSH1 0x20 ADD SWAP2 POP POP PUSH1 0x40 MLOAD DUP1 SWAP2 SUB SWAP1 REVERT JUMPDEST DUP10 PUSH20 0xFFFFFFFFFFFFFFFFFFFFFFFFFFFFFFFFFFFFFFFF AND CALLER PUSH20 0xFFFFFFFFFFFFFFFFFFFFFFFFFFFFFFFFFFFFFFFF AND EQ ISZERO PUSH2 0x1B85 JUMPI DUP1 PUSH32 0x7B5AC55826E0CA40C3F69722D916FB9962D86CFFCDDC9C84D082B712419E5CBD PUSH1 0x40 MLOAD PUSH1 0x40 MLOAD DUP1 SWAP2 SUB SWAP1 LOG2 PUSH2 0x1BB3 JUMP JUMPDEST DUP1 PUSH32 0xC99795D9DC9D68F27B21E122A0E663F689138F9110DEE0122FC2980F8D579775 PUSH1 0x40 MLOAD PUSH1 0x40 MLOAD DUP1 SWAP2 SUB SWAP1 LOG2 JUMPDEST POP POP POP POP POP POP POP POP POP POP JUMP JUMPDEST PUSH1 0x0 DUP1 PUSH1 0x0 SWAP1 SLOAD SWAP1 PUSH2 0x100 EXP SWAP1 DIV PUSH20 0xFFFFFFFFFFFFFFFFFFFFFFFFFFFFFFFFFFFFFFFF AND PUSH20 0xFFFFFFFFFFFFFFFFFFFFFFFFFFFFFFFFFFFFFFFF AND CALLER PUSH20 0xFFFFFFFFFFFFFFFFFFFFFFFFFFFFFFFFFFFFFFFF AND EQ PUSH2 0x1C83 JUMPI PUSH1 0x40 MLOAD PUSH32 0x8C379A000000000000000000000000000000000000000000000000000000000 DUP2 MSTORE PUSH1 0x4 ADD DUP1 DUP1 PUSH1 0x20 ADD DUP3 DUP2 SUB DUP3 MSTORE PUSH1 0x1C DUP2 MSTORE PUSH1 0x20 ADD DUP1 PUSH32 0x6F6E6C7920746865206F776E65722063616E2063616C6C207468697300000000 DUP2 MSTORE POP PUSH1 0x20 ADD SWAP2 POP POP PUSH1 0x40 MLOAD DUP1 SWAP2 SUB SWAP1 REVERT JUMPDEST PUSH1 0x0 PUSH1 0x5 SLOAD SWAP1 POP PUSH1 0x0 PUSH1 0x5 DUP2 SWAP1 SSTORE POP DUP3 PUSH20 0xFFFFFFFFFFFFFFFFFFFFFFFFFFFFFFFFFFFFFFFF AND PUSH2 0x8FC DUP3 SWAP1 DUP2 ISZERO MUL SWAP1 PUSH1 0x40 MLOAD PUSH1 0x0 PUSH1 0x40 MLOAD DUP1 DUP4 SUB DUP2 DUP6 DUP9 DUP9 CALL SWAP4 POP POP POP POP ISZERO DUP1 ISZERO PUSH2 0x1CD8 JUMPI RETURNDATASIZE PUSH1 0x0 DUP1 RETURNDATACOPY RETURNDATASIZE PUSH1 0x0 REVERT JUMPDEST POP PUSH1 0x1 SWAP2 POP POP SWAP4 SWAP3 POP POP POP JUMP JUMPDEST PUSH1 0x0 DUP1 SWAP1 SLOAD SWAP1 PUSH2 0x100 EXP SWAP1 DIV PUSH20 0xFFFFFFFFFFFFFFFFFFFFFFFFFFFFFFFFFFFFFFFF AND PUSH20 0xFFFFFFFFFFFFFFFFFFFFFFFFFFFFFFFFFFFFFFFF AND CALLER PUSH20 0xFFFFFFFFFFFFFFFFFFFFFFFFFFFFFFFFFFFFFFFF AND EQ PUSH2 0x1DA7 JUMPI PUSH1 0x40 MLOAD PUSH32 0x8C379A000000000000000000000000000000000000000000000000000000000 DUP2 MSTORE PUSH1 0x4 ADD DUP1 DUP1 PUSH1 0x20 ADD DUP3 DUP2 SUB DUP3 MSTORE PUSH1 0x1C DUP2 MSTORE PUSH1 0x20 ADD DUP1 PUSH32 0x6F6E6C7920746865206F776E65722063616E2063616C6C207468697300000000 DUP2 MSTORE POP PUSH1 0x20 ADD SWAP2 POP POP PUSH1 0x40 MLOAD DUP1 SWAP2 SUB SWAP1 REVERT JUMPDEST PUSH1 0x1 DUP1 PUSH1 0x0 DUP4 PUSH20 0xFFFFFFFFFFFFFFFFFFFFFFFFFFFFFFFFFFFFFFFF AND PUSH20 0xFFFFFFFFFFFFFFFFFFFFFFFFFFFFFFFFFFFFFFFF AND DUP2 MSTORE PUSH1 0x20 ADD SWAP1 DUP2 MSTORE PUSH1 0x20 ADD PUSH1 0x0 KECCAK256 PUSH1 0x0 PUSH2 0x100 EXP DUP2 SLOAD DUP2 PUSH1 0xFF MUL NOT AND SWAP1 DUP4 ISZERO ISZERO MUL OR SWAP1 SSTORE POP POP JUMP JUMPDEST PUSH1 0x3 SLOAD DUP2 JUMP JUMPDEST PUSH1 0x40 MLOAD DUP1 PUSH1 0x40 ADD PUSH1 0x40 MSTORE DUP1 PUSH1 0x5 DUP2 MSTORE PUSH1 0x20 ADD PUSH32 0x302E352E30000000000000000000000000000000000000000000000000000000 DUP2 MSTORE POP DUP2 JUMP JUMPDEST PUSH1 0x22 PUSH2 0xFFFF AND DUP3 MLOAD EQ PUSH2 0x1EBB JUMPI PUSH1 0x40 MLOAD PUSH32 0x8C379A000000000000000000000000000000000000000000000000000000000 DUP2 MSTORE PUSH1 0x4 ADD DUP1 DUP1 PUSH1 0x20 ADD DUP3 DUP2 SUB DUP3 MSTORE PUSH1 0x19 DUP2 MSTORE PUSH1 0x20 ADD DUP1 PUSH32 0x696E76616C69642061737365742064617461206C656E67746800000000000000 DUP2 MSTORE POP PUSH1 0x20 ADD SWAP2 POP POP PUSH1 0x40 MLOAD DUP1 SWAP2 SUB SWAP1 REVERT JUMPDEST POP POP JUMP JUMPDEST PUSH1 0x0 DUP6 DUP6 DUP6 DUP6 DUP6 PUSH1 0x40 MLOAD PUSH1 0x20 ADD DUP1 DUP7 PUSH20 0xFFFFFFFFFFFFFFFFFFFFFFFFFFFFFFFFFFFFFFFF AND PUSH20 0xFFFFFFFFFFFFFFFFFFFFFFFFFFFFFFFFFFFFFFFF AND PUSH1 0x60 SHL DUP2 MSTORE PUSH1 0x14 ADD DUP6 PUSH20 0xFFFFFFFFFFFFFFFFFFFFFFFFFFFFFFFFFFFFFFFF AND PUSH20 0xFFFFFFFFFFFFFFFFFFFFFFFFFFFFFFFFFFFFFFFF AND PUSH1 0x60 SHL DUP2 MSTORE PUSH1 0x14 ADD DUP5 PUSH20 0xFFFFFFFFFFFFFFFFFFFFFFFFFFFFFFFFFFFFFFFF AND PUSH20 0xFFFFFFFFFFFFFFFFFFFFFFFFFFFFFFFFFFFFFFFF AND PUSH1 0x60 SHL DUP2 MSTORE PUSH1 0x14 ADD DUP4 DUP2 MSTORE PUSH1 0x20 ADD DUP3 DUP2 MSTORE PUSH1 0x20 ADD SWAP6 POP POP POP POP POP POP PUSH1 0x40 MLOAD PUSH1 0x20 DUP2 DUP4 SUB SUB DUP2 MSTORE SWAP1 PUSH1 0x40 MSTORE DUP1 MLOAD SWAP1 PUSH1 0x20 ADD KECCAK256 SWAP1 POP SWAP6 SWAP5 POP POP POP POP POP JUMP JUMPDEST PUSH1 0x0 PUSH1 0x4 PUSH1 0x0 DUP4 DUP2 MSTORE PUSH1 0x20 ADD SWAP1 DUP2 MSTORE PUSH1 0x20 ADD PUSH1 0x0 KECCAK256 PUSH1 0x0 SWAP1 SLOAD SWAP1 PUSH2 0x100 EXP SWAP1 DIV PUSH4 0xFFFFFFFF AND PUSH4 0xFFFFFFFF AND EQ PUSH2 0x203F JUMPI PUSH1 0x40 MLOAD PUSH32 0x8C379A000000000000000000000000000000000000000000000000000000000 DUP2 MSTORE PUSH1 0x4 ADD DUP1 DUP1 PUSH1 0x20 ADD DUP3 DUP2 SUB DUP3 MSTORE PUSH1 0x13 DUP2 MSTORE PUSH1 0x20 ADD DUP1 PUSH32 0x7377617020616C72656164792065786973747300000000000000000000000000 DUP2 MSTORE POP PUSH1 0x20 ADD SWAP2 POP POP PUSH1 0x40 MLOAD DUP1 SWAP2 SUB SWAP1 REVERT JUMPDEST POP JUMP JUMPDEST PUSH1 0x0 PUSH2 0x2056 PUSH2 0x2050 DUP5 PUSH2 0x2237 JUMP JUMPDEST DUP4 PUSH2 0x2258 JUMP JUMPDEST SWAP1 POP SWAP3 SWAP2 POP POP JUMP JUMPDEST PUSH4 0x3B9ACA00 PUSH4 0xFFFFFFFF AND PUSH1 0x4 PUSH1 0x0 DUP4 DUP2 MSTORE PUSH1 0x20 ADD SWAP1 DUP2 MSTORE PUSH1 0x20 ADD PUSH1 0x0 KECCAK256 PUSH1 0x0 SWAP1 SLOAD SWAP1 PUSH2 0x100 EXP SWAP1 DIV PUSH4 0xFFFFFFFF AND PUSH4 0xFFFFFFFF AND GT PUSH2 0x2106 JUMPI PUSH1 0x40 MLOAD PUSH32 0x8C379A000000000000000000000000000000000000000000000000000000000 DUP2 MSTORE PUSH1 0x4 ADD DUP1 DUP1 PUSH1 0x20 ADD DUP3 DUP2 SUB DUP3 MSTORE PUSH1 0xC DUP2 MSTORE PUSH1 0x20 ADD DUP1 PUSH32 0x7377617020696E76616C69640000000000000000000000000000000000000000 DUP2 MSTORE POP PUSH1 0x20 ADD SWAP2 POP POP PUSH1 0x40 MLOAD DUP1 SWAP2 SUB SWAP1 REVERT JUMPDEST POP JUMP JUMPDEST PUSH1 0x0 DUP1 PUSH2 0x211F DUP5 PUSH2 0x2119 DUP7 PUSH2 0x22F0 JUMP JUMPDEST DUP6 PUSH2 0x22FE JUMP JUMPDEST SWAP1 POP DUP1 ISZERO PUSH2 0x2131 JUMPI PUSH2 0x2130 DUP5 PUSH2 0x2352 JUMP JUMPDEST JUMPDEST DUP1 SWAP2 POP POP SWAP3 SWAP2 POP POP JUMP JUMPDEST PUSH4 0x3B9ACA00 PUSH4 0xFFFFFFFF AND PUSH1 0x4 PUSH1 0x0 DUP4 DUP2 MSTORE PUSH1 0x20 ADD SWAP1 DUP2 MSTORE PUSH1 0x20 ADD PUSH1 0x0 KECCAK256 PUSH1 0x0 SWAP1 SLOAD SWAP1 PUSH2 0x100 EXP SWAP1 DIV PUSH4 0xFFFFFFFF AND PUSH4 0xFFFFFFFF AND GT DUP1 ISZERO PUSH2 0x21A5 JUMPI POP PUSH1 0x4 PUSH1 0x0 DUP3 DUP2 MSTORE PUSH1 0x20 ADD SWAP1 DUP2 MSTORE PUSH1 0x20 ADD PUSH1 0x0 KECCAK256 PUSH1 0x0 SWAP1 SLOAD SWAP1 PUSH2 0x100 EXP SWAP1 DIV PUSH4 0xFFFFFFFF AND PUSH4 0xFFFFFFFF AND TIMESTAMP GT JUMPDEST PUSH2 0x2217 JUMPI PUSH1 0x40 MLOAD PUSH32 0x8C379A000000000000000000000000000000000000000000000000000000000 DUP2 MSTORE PUSH1 0x4 ADD DUP1 DUP1 PUSH1 0x20 ADD DUP3 DUP2 SUB DUP3 MSTORE PUSH1 0x1B DUP2 MSTORE PUSH1 0x20 ADD DUP1 PUSH32 0x73776170206E6F742065787069726564206F7220696E76616C69640000000000 DUP2 MSTORE POP PUSH1 0x20 ADD SWAP2 POP POP PUSH1 0x40 MLOAD DUP1 SWAP2 SUB SWAP1 REVERT JUMPDEST POP JUMP JUMPDEST PUSH1 0x0 PUSH2 0x222F DUP4 PUSH2 0x2229 DUP6 PUSH2 0x2237 JUMP JUMPDEST DUP5 PUSH2 0x22FE JUMP JUMPDEST SWAP1 POP SWAP3 SWAP2 POP POP JUMP JUMPDEST PUSH1 0x0 DUP1 PUSH2 0x2243 DUP4 PUSH2 0x22F0 JUMP JUMPDEST SWAP1 POP PUSH2 0x224E DUP2 PUSH2 0x236F JUMP JUMPDEST DUP2 ADD SWAP2 POP POP SWAP2 SWAP1 POP JUMP JUMPDEST PUSH1 0x0 DUP2 PUSH20 0xFFFFFFFFFFFFFFFFFFFFFFFFFFFFFFFFFFFFFFFF AND PUSH4 0x81FD3F0B DUP5 PUSH1 0x40 MLOAD DUP3 PUSH4 0xFFFFFFFF AND PUSH1 0xE0 SHL DUP2 MSTORE PUSH1 0x4 ADD DUP1 DUP3 DUP2 MSTORE PUSH1 0x20 ADD SWAP2 POP POP PUSH1 0x20 PUSH1 0x40 MLOAD DUP1 DUP4 SUB DUP2 PUSH1 0x0 DUP8 DUP1 EXTCODESIZE ISZERO DUP1 ISZERO PUSH2 0x22AD JUMPI PUSH1 0x0 DUP1 REVERT JUMPDEST POP GAS CALL ISZERO DUP1 ISZERO PUSH2 0x22C1 JUMPI RETURNDATASIZE PUSH1 0x0 DUP1 RETURNDATACOPY RETURNDATASIZE PUSH1 0x0 REVERT JUMPDEST POP POP POP POP PUSH1 0x40 MLOAD RETURNDATASIZE PUSH1 0x20 DUP2 LT ISZERO PUSH2 0x22D7 JUMPI PUSH1 0x0 DUP1 REVERT JUMPDEST DUP2 ADD SWAP1 DUP1 DUP1 MLOAD SWAP1 PUSH1 0x20 ADD SWAP1 SWAP3 SWAP2 SWAP1 POP POP POP SWAP1 POP SWAP3 SWAP2 POP POP JUMP JUMPDEST PUSH1 0x0 PUSH1 0x22 DUP3 ADD MLOAD SWAP1 POP SWAP2 SWAP1 POP JUMP JUMPDEST PUSH1 0x0 DUP2 PUSH20 0xFFFFFFFFFFFFFFFFFFFFFFFFFFFFFFFFFFFFFFFF AND PUSH2 0x8FC DUP5 SWAP1 DUP2 ISZERO MUL SWAP1 PUSH1 0x40 MLOAD PUSH1 0x0 PUSH1 0x40 MLOAD DUP1 DUP4 SUB DUP2 DUP6 DUP9 DUP9 CALL SWAP4 POP POP POP POP ISZERO DUP1 ISZERO PUSH2 0x2346 JUMPI RETURNDATASIZE PUSH1 0x0 DUP1 RETURNDATACOPY RETURNDATASIZE PUSH1 0x0 REVERT JUMPDEST POP PUSH1 0x1 SWAP1 POP SWAP4 SWAP3 POP POP POP JUMP JUMPDEST PUSH2 0x236C DUP2 PUSH2 0x2367 PUSH2 0x2362 DUP5 PUSH2 0x22F0 JUMP JUMPDEST PUSH2 0x236F JUMP JUMPDEST PUSH2 0x23B2 JUMP JUMPDEST POP JUMP JUMPDEST PUSH1 0x0 DUP1 PUSH3 0x186A0 PUSH1 0x2 PUSH1 0x16 SWAP1 SLOAD SWAP1 PUSH2 0x100 EXP SWAP1 DIV PUSH2 0xFFFF AND PUSH2 0xFFFF AND DUP5 MUL DUP2 PUSH2 0x2394 JUMPI INVALID JUMPDEST DIV SWAP1 POP PUSH1 0x3 SLOAD DUP2 LT PUSH2 0x23A6 JUMPI DUP1 PUSH2 0x23AA JUMP JUMPDEST PUSH1 0x3 SLOAD JUMPDEST SWAP2 POP POP SWAP2 SWAP1 POP JUMP JUMPDEST DUP1 PUSH1 0x5 PUSH1 0x0 DUP3 DUP3 SLOAD ADD SWAP3 POP POP DUP2 SWAP1 SSTORE POP POP POP JUMP INVALID PUSH16 0x6E6C7920746865207377617020637265 PUSH2 0x746F PUSH19 0x2063616E2063616C6C20746869736F6E6C7920 PUSH21 0x6865206F7261636C65206F722074686520706F6F6C KECCAK256 PUSH4 0x616E2063 PUSH2 0x6C6C KECCAK256 PUSH21 0x686973A265627A7A723058209143755CFF470EB630 DUP10 PUSH3 0x123B2A RETURNDATASIZE PUSH23 0xFC429D511E891B82D5C9DB902912180C64736F6C634300 SDIV EXP STOP ORIGIN "
				},
				"gasEstimates": {
					"creation": {
						"codeDepositCost": "1857400",
						"executionCost": "infinite",
						"totalCost": "infinite"
					},
					"external": {
						"": "338",
						"ASSET_TYPE()": "570",
						"VERSION()": "infinite",
						"approveOracle(address)": "20905",
						"changeOwner(address)": "22207",
						"changeSwapCreator(address)": "22230",
						"create(address,address,address,bytes,bytes32,uint32)": "infinite",
						"feeThousandthsPercent()": "549",
						"getSwapStatus(address,address,address,bytes,bytes32)": "infinite",
						"minFeeAmount()": "471",
						"owner()": "542",
						"release(address,address,address,bytes,bytes32)": "infinite",
						"returnFunds(address,address,address,bytes,bytes32)": "infinite",
						"revokeOracle(address)": "20906",
						"setStatus(uint8)": "22560",
						"status()": "591",
						"withdrawFees(bytes,address)": "infinite"
					}
				},
				"methodIdentifiers": {
					"ASSET_TYPE()": "8815eb39",
					"VERSION()": "ffa1ad74",
					"approveOracle(address)": "f47bc89c",
					"changeOwner(address)": "a6f9dae1",
					"changeSwapCreator(address)": "26bdee37",
					"create(address,address,address,bytes,bytes32,uint32)": "0b898c9e",
					"feeThousandthsPercent()": "0bc2aad2",
					"getSwapStatus(address,address,address,bytes,bytes32)": "946519f1",
					"minFeeAmount()": "f5d36475",
					"owner()": "8da5cb5b",
					"release(address,address,address,bytes,bytes32)": "9a3c6e29",
					"returnFunds(address,address,address,bytes,bytes32)": "a80e7acb",
					"revokeOracle(address)": "5983e6b0",
					"setStatus(uint8)": "2e49d78b",
					"status()": "200d2ed2",
					"withdrawFees(bytes,address)": "bfe5d9c5"
				}
			},
			"userdoc": {
				"methods": {
					"create(address,address,address,bytes,bytes32,uint32)": {
						"notice": "Swap creation, called by the Ramp Network. Checks swap parameters and ensures the crypto asset is locked on this contract.     * Emits a `Created` event with the swap hash."
					},
					"getSwapStatus(address,address,address,bytes,bytes32)": {
						"notice": "Given all valid swap details, returns its status. The return can be: 0: the swap details are invalid, swap doesn't exist, or was already released/returned. >1: the swap was created, and the value is a timestamp indicating end of its lock time."
					},
					"release(address,address,address,bytes,bytes32)": {
						"notice": "Swap release, which transfers the crypto asset to the receiver and removes the swap from the active swap mapping. Normally called by the swap's oracle after it confirms a matching wire transfer on pool's bank account. Can be also called by the pool, for example in case of a dispute, when the parties reach an agreement off-chain.     * Emits a `Released` or `PoolReleased` event with the swap's hash."
					},
					"returnFunds(address,address,address,bytes,bytes32)": {
						"notice": "Swap return, which transfers the crypto asset back to the pool and removes the swap from the active swap mapping. Can be called by the pool or the swap's oracle, but only if the escrow lock time expired.     * Emits a `Returned` or `PoolReturned` event with the swap's hash."
					}
				}
			}
		}
	}
}