{
	"data": {
		"bytecode": {
			"linkReferences": {},
			"object": "610d27610026600b82828239805160001a60731461001957fe5b30600052607381538281f3fe73000000000000000000000000000000000000000030146080604052600436106100b35760003560e01c806324d4e90a1161007b57806324d4e90a146101db57806345b8bafc1461021d578063c12662271461025f578063c2ee3a08146102a8578063ccc13814146102c6578063e46751e314610392576100b3565b806302780677146100b8578063137bf798146100d65780631427f168146101255780631d5801231461016e57806324902e24146101bd575b600080fd5b6100c06103d4565b6040518082815260200191505060405180910390f35b61010f600480360360408110156100ec57600080fd5b8101908080359060200190929190803560ff1690602001909291905050506103e0565b6040518082815260200191505060405180910390f35b6101516004803603602081101561013b57600080fd5b8101908080359060200190929190505050610485565b604051808381526020018281526020019250505060405180910390f35b6101a76004803603604081101561018457600080fd5b8101908080359060200190929190803560ff169060200190929190505050610563565b6040518082815260200191505060405180910390f35b6101c5610608565b6040518082815260200191505060405180910390f35b610207600480360360208110156101f157600080fd5b8101908080359060200190929190505050610615565b6040518082815260200191505060405180910390f35b6102496004803603602081101561023357600080fd5b810190808035906020019092919050505061065c565b6040518082815260200191505060405180910390f35b61028b6004803603602081101561027557600080fd5b8101908080359060200190929190505050610705565b604051808381526020018281526020019250505060405180910390f35b6102b0610bd2565b6040518082815260200191505060405180910390f35b61037c600480360360208110156102dc57600080fd5b81019080803590602001906401000000008111156102f957600080fd5b82018360208201111561030b57600080fd5b8035906020019184602083028401116401000000008311171561032d57600080fd5b919080806020026020016040519081016040528093929190818152602001838360200280828437600081840152601f19601f820116905080830192505050505050509192919290505050610bdf565b6040518082815260200191505060405180910390f35b6103be600480360360208110156103a857600080fd5b8101908080359060200190929190505050610c65565b6040518082815260200191505060405180910390f35b67b17217f7d1cf79ac81565b60008060006103ee85610485565b91509150600060028111156103ff57fe5b84600281111561040b57fe5b141561041b57819250505061047f565b6001600281111561042857fe5b84600281111561043457fe5b141561044457809250505061047f565b60028081111561045057fe5b84600281111561045c57fe5b141561047a578160028383038161046f57fe5b05019250505061047f565b600080fd5b92915050565b6000806000831161049557600080fd5b61049e8361065c565b91506000808312156104b8578260000384901b90506104bf565b8284901c90505b68010000000000000000830292506000600190505b6040811361055357680100000000000000008214156104f257610553565b680100000000000000008283028161050657fe5b049150680100000000000000006002028210610546578068010000000000000000600082121561053257fe5b901c840193506002828161054257fe5b0491505b80806001019150506104d4565b5082600484019250925050915091565b600080600061057185610705565b915091506000600281111561058257fe5b84600281111561058e57fe5b141561059e578192505050610602565b600160028111156105ab57fe5b8460028111156105b757fe5b14156105c7578092505050610602565b6002808111156105d357fe5b8460028111156105df57fe5b14156105fd57816002838303816105f257fe5b040192505050610602565b600080fd5b92915050565b680171547652b82fe17781565b600080600061062384610485565b91509150680171547652b82fe177680100000000000000008360028585038161064857fe5b0501028161065257fe5b0592505050919050565b60007fffffffffffffffffffffffffffffffffffffffffffffffffffffffffffffffc09050600060c1905060006001838301901d90505b816001840112156106fe576000811280156106bc5750680100000000000000008160000385901b105b806106df5750600081121580156106de5750680100000000000000008185901c105b5b156106ec578091506106f0565b8092505b6001838301901d9050610693565b5050919050565b60008068bfffffffffffffffff83131561071e57600080fd5b7fffffffffffffffffffffffffffffffffffffffffffffffc00000000000000000831215610759576000600181915080905091509150610bcd565b600080600085126107935768010000000000000000858161077657fe5b05915068010000000000000000858161078b57fe5b0790506107bf565b60016801000000000000000060018701816107aa57fe5b05039150816801000000000000000002850390505b60008112156107ca57fe5b6000604068010000000000000000901b905060008290508067b17217f7d1cf79ab0282019150680100000000000000008382028161080457fe5b05905060028167f5fdeffc162c754302901d82019150680100000000000000008382028161082e57fe5b05905060048167e35846b82505fc5902901d82019150680100000000000000008382028161085857fe5b059050600681679d955b7dd273b94e02901d82019150680100000000000000008382028161088257fe5b05905060098167aec3ff3c5339888302901d8201915068010000000000000000838202816108ac57fe5b059050600c8167a184897c363c3b7a02901d8201915068010000000000000000838202816108d657fe5b05905060108167ffe5fe2c4586343502901d82019150680100000000000000008382028161090057fe5b05905060138167b160111d2e411fec02901d82019150680100000000000000008382028161092a57fe5b05905060178167da929e9caf3e1ed202901d82019150680100000000000000008382028161095457fe5b059050601b8167f267a8ac5c764fb702901d82019150680100000000000000008382028161097e57fe5b059050601f8167f465639a8dd9260702901d8201915068010000000000000000838202816109a857fe5b05905060238167e1deb287e14c2f1502901d8201915068010000000000000000838202816109d257fe5b05905060278167c0b0c98b3687cb1402901d8201915068010000000000000000838202816109fc57fe5b059050602b816798a4b26ac3c54b9f02901d820191506801000000000000000083820281610a2657fe5b05905060308167e1b7421d82010f3302901d820191506801000000000000000083820281610a5057fe5b059050603481679c744d73cfc59c9102901d820191506801000000000000000083820281610a7a57fe5b05905060398167cc2225a0e12d3eab02901d820191506801000000000000000083820281610aa457fe5b059050603e8167fb8bb5eda1b4aeb902901d9050808201915068010000000000000000600802905060408403935060008412610b925760008461010003836000821215610aed57fe5b901d1415610b5d5783826000821215610b0257fe5b901b955083816000821215610b1357fe5b901b90508581870110610b2a578086019450610b4e565b7fffffffffffffffffffffffffffffffffffffffffffffffffffffffffffffffff94505b85859550955050505050610bcd565b7fffffffffffffffffffffffffffffffffffffffffffffffffffffffffffffffff808191508090509550955050505050610bcd565b600184600003826000821215610ba457fe5b901d01905083600003826000821215610bb957fe5b901c95508086019450858595509550505050505b915091565b6801000000000000000081565b600080825111610bee57600080fd5b7f8000000000000000000000000000000000000000000000000000000000000000905060008090505b8251811015610c5f5781838281518110610c2d57fe5b60200260200101511315610c5257828181518110610c4757fe5b602002602001015191505b8080600101915050610c17565b50919050565b600068851591f9dd5b9b40d7821315610c7d57600080fd5b7fffffffffffffffffffffffffffffffffffffffffffffffd3a37a020b8c21950d8213610cad5760009050610ced565b600080610cd567b17217f7d1cf79ac68010000000000000000860281610ccf57fe5b05610705565b9150915081600283830381610ce657fe5b0401925050505b91905056fea265627a7a72305820169bc9e3abd6e0bab573d3bb9deb31d9760871ef70461591ec2fb3392277490c64736f6c634300050a0032",
			"opcodes": "PUSH2 0xD27 PUSH2 0x26 PUSH1 0xB DUP3 DUP3 DUP3 CODECOPY DUP1 MLOAD PUSH1 0x0 BYTE PUSH1 0x73 EQ PUSH2 0x19 JUMPI INVALID JUMPDEST ADDRESS PUSH1 0x0 MSTORE PUSH1 0x73 DUP2 MSTORE8 DUP3 DUP2 RETURN INVALID PUSH20 0x0 ADDRESS EQ PUSH1 0x80 PUSH1 0x40 MSTORE PUSH1 0x4 CALLDATASIZE LT PUSH2 0xB3 JUMPI PUSH1 0x0 CALLDATALOAD PUSH1 0xE0 SHR DUP1 PUSH4 0x24D4E90A GT PUSH2 0x7B JUMPI DUP1 PUSH4 0x24D4E90A EQ PUSH2 0x1DB JUMPI DUP1 PUSH4 0x45B8BAFC EQ PUSH2 0x21D JUMPI DUP1 PUSH4 0xC1266227 EQ PUSH2 0x25F JUMPI DUP1 PUSH4 0xC2EE3A08 EQ PUSH2 0x2A8 JUMPI DUP1 PUSH4 0xCCC13814 EQ PUSH2 0x2C6 JUMPI DUP1 PUSH4 0xE46751E3 EQ PUSH2 0x392 JUMPI PUSH2 0xB3 JUMP JUMPDEST DUP1 PUSH4 0x2780677 EQ PUSH2 0xB8 JUMPI DUP1 PUSH4 0x137BF798 EQ PUSH2 0xD6 JUMPI DUP1 PUSH4 0x1427F168 EQ PUSH2 0x125 JUMPI DUP1 PUSH4 0x1D580123 EQ PUSH2 0x16E JUMPI DUP1 PUSH4 0x24902E24 EQ PUSH2 0x1BD JUMPI JUMPDEST PUSH1 0x0 DUP1 REVERT JUMPDEST PUSH2 0xC0 PUSH2 0x3D4 JUMP JUMPDEST PUSH1 0x40 MLOAD DUP1 DUP3 DUP2 MSTORE PUSH1 0x20 ADD SWAP2 POP POP PUSH1 0x40 MLOAD DUP1 SWAP2 SUB SWAP1 RETURN JUMPDEST PUSH2 0x10F PUSH1 0x4 DUP1 CALLDATASIZE SUB PUSH1 0x40 DUP2 LT ISZERO PUSH2 0xEC JUMPI PUSH1 0x0 DUP1 REVERT JUMPDEST DUP2 ADD SWAP1 DUP1 DUP1 CALLDATALOAD SWAP1 PUSH1 0x20 ADD SWAP1 SWAP3 SWAP2 SWAP1 DUP1 CALLDATALOAD PUSH1 0xFF AND SWAP1 PUSH1 0x20 ADD SWAP1 SWAP3 SWAP2 SWAP1 POP POP POP PUSH2 0x3E0 JUMP JUMPDEST PUSH1 0x40 MLOAD DUP1 DUP3 DUP2 MSTORE PUSH1 0x20 ADD SWAP2 POP POP PUSH1 0x40 MLOAD DUP1 SWAP2 SUB SWAP1 RETURN JUMPDEST PUSH2 0x151 PUSH1 0x4 DUP1 CALLDATASIZE SUB PUSH1 0x20 DUP2 LT ISZERO PUSH2 0x13B JUMPI PUSH1 0x0 DUP1 REVERT JUMPDEST DUP2 ADD SWAP1 DUP1 DUP1 CALLDATALOAD SWAP1 PUSH1 0x20 ADD SWAP1 SWAP3 SWAP2 SWAP1 POP POP POP PUSH2 0x485 JUMP JUMPDEST PUSH1 0x40 MLOAD DUP1 DUP4 DUP2 MSTORE PUSH1 0x20 ADD DUP3 DUP2 MSTORE PUSH1 0x20 ADD SWAP3 POP POP POP PUSH1 0x40 MLOAD DUP1 SWAP2 SUB SWAP1 RETURN JUMPDEST PUSH2 0x1A7 PUSH1 0x4 DUP1 CALLDATASIZE SUB PUSH1 0x40 DUP2 LT ISZERO PUSH2 0x184 JUMPI PUSH1 0x0 DUP1 REVERT JUMPDEST DUP2 ADD SWAP1 DUP1 DUP1 CALLDATALOAD SWAP1 PUSH1 0x20 ADD SWAP1 SWAP3 SWAP2 SWAP1 DUP1 CALLDATALOAD PUSH1 0xFF AND SWAP1 PUSH1 0x20 ADD SWAP1 SWAP3 SWAP2 SWAP1 POP POP POP PUSH2 0x563 JUMP JUMPDEST PUSH1 0x40 MLOAD DUP1 DUP3 DUP2 MSTORE PUSH1 0x20 ADD SWAP2 POP POP PUSH1 0x40 MLOAD DUP1 SWAP2 SUB SWAP1 RETURN JUMPDEST PUSH2 0x1C5 PUSH2 0x608 JUMP JUMPDEST PUSH1 0x40 MLOAD DUP1 DUP3 DUP2 MSTORE PUSH1 0x20 ADD SWAP2 POP POP PUSH1 0x40 MLOAD DUP1 SWAP2 SUB SWAP1 RETURN JUMPDEST PUSH2 0x207 PUSH1 0x4 DUP1 CALLDATASIZE SUB PUSH1 0x20 DUP2 LT ISZERO PUSH2 0x1F1 JUMPI PUSH1 0x0 DUP1 REVERT JUMPDEST DUP2 ADD SWAP1 DUP1 DUP1 CALLDATALOAD SWAP1 PUSH1 0x20 ADD SWAP1 SWAP3 SWAP2 SWAP1 POP POP POP PUSH2 0x615 JUMP JUMPDEST PUSH1 0x40 MLOAD DUP1 DUP3 DUP2 MSTORE PUSH1 0x20 ADD SWAP2 POP POP PUSH1 0x40 MLOAD DUP1 SWAP2 SUB SWAP1 RETURN JUMPDEST PUSH2 0x249 PUSH1 0x4 DUP1 CALLDATASIZE SUB PUSH1 0x20 DUP2 LT ISZERO PUSH2 0x233 JUMPI PUSH1 0x0 DUP1 REVERT JUMPDEST DUP2 ADD SWAP1 DUP1 DUP1 CALLDATALOAD SWAP1 PUSH1 0x20 ADD SWAP1 SWAP3 SWAP2 SWAP1 POP POP POP PUSH2 0x65C JUMP JUMPDEST PUSH1 0x40 MLOAD DUP1 DUP3 DUP2 MSTORE PUSH1 0x20 ADD SWAP2 POP POP PUSH1 0x40 MLOAD DUP1 SWAP2 SUB SWAP1 RETURN JUMPDEST PUSH2 0x28B PUSH1 0x4 DUP1 CALLDATASIZE SUB PUSH1 0x20 DUP2 LT ISZERO PUSH2 0x275 JUMPI PUSH1 0x0 DUP1 REVERT JUMPDEST DUP2 ADD SWAP1 DUP1 DUP1 CALLDATALOAD SWAP1 PUSH1 0x20 ADD SWAP1 SWAP3 SWAP2 SWAP1 POP POP POP PUSH2 0x705 JUMP JUMPDEST PUSH1 0x40 MLOAD DUP1 DUP4 DUP2 MSTORE PUSH1 0x20 ADD DUP3 DUP2 MSTORE PUSH1 0x20 ADD SWAP3 POP POP POP PUSH1 0x40 MLOAD DUP1 SWAP2 SUB SWAP1 RETURN JUMPDEST PUSH2 0x2B0 PUSH2 0xBD2 JUMP JUMPDEST PUSH1 0x40 MLOAD DUP1 DUP3 DUP2 MSTORE PUSH1 0x20 ADD SWAP2 POP POP PUSH1 0x40 MLOAD DUP1 SWAP2 SUB SWAP1 RETURN JUMPDEST PUSH2 0x37C PUSH1 0x4 DUP1 CALLDATASIZE SUB PUSH1 0x20 DUP2 LT ISZERO PUSH2 0x2DC JUMPI PUSH1 0x0 DUP1 REVERT JUMPDEST DUP2 ADD SWAP1 DUP1 DUP1 CALLDATALOAD SWAP1 PUSH1 0x20 ADD SWAP1 PUSH5 0x100000000 DUP2 GT ISZERO PUSH2 0x2F9 JUMPI PUSH1 0x0 DUP1 REVERT JUMPDEST DUP3 ADD DUP4 PUSH1 0x20 DUP3 ADD GT ISZERO PUSH2 0x30B JUMPI PUSH1 0x0 DUP1 REVERT JUMPDEST DUP1 CALLDATALOAD SWAP1 PUSH1 0x20 ADD SWAP2 DUP5 PUSH1 0x20 DUP4 MUL DUP5 ADD GT PUSH5 0x100000000 DUP4 GT OR ISZERO PUSH2 0x32D JUMPI PUSH1 0x0 DUP1 REVERT JUMPDEST SWAP2 SWAP1 DUP1 DUP1 PUSH1 0x20 MUL PUSH1 0x20 ADD PUSH1 0x40 MLOAD SWAP1 DUP2 ADD PUSH1 0x40 MSTORE DUP1 SWAP4 SWAP3 SWAP2 SWAP1 DUP2 DUP2 MSTORE PUSH1 0x20 ADD DUP4 DUP4 PUSH1 0x20 MUL DUP1 DUP3 DUP5 CALLDATACOPY PUSH1 0x0 DUP2 DUP5 ADD MSTORE PUSH1 0x1F NOT PUSH1 0x1F DUP3 ADD AND SWAP1 POP DUP1 DUP4 ADD SWAP3 POP POP POP POP POP POP POP SWAP2 SWAP3 SWAP2 SWAP3 SWAP1 POP POP POP PUSH2 0xBDF JUMP JUMPDEST PUSH1 0x40 MLOAD DUP1 DUP3 DUP2 MSTORE PUSH1 0x20 ADD SWAP2 POP POP PUSH1 0x40 MLOAD DUP1 SWAP2 SUB SWAP1 RETURN JUMPDEST PUSH2 0x3BE PUSH1 0x4 DUP1 CALLDATASIZE SUB PUSH1 0x20 DUP2 LT ISZERO PUSH2 0x3A8 JUMPI PUSH1 0x0 DUP1 REVERT JUMPDEST DUP2 ADD SWAP1 DUP1 DUP1 CALLDATALOAD SWAP1 PUSH1 0x20 ADD SWAP1 SWAP3 SWAP2 SWAP1 POP POP POP PUSH2 0xC65 JUMP JUMPDEST PUSH1 0x40 MLOAD DUP1 DUP3 DUP2 MSTORE PUSH1 0x20 ADD SWAP2 POP POP PUSH1 0x40 MLOAD DUP1 SWAP2 SUB SWAP1 RETURN JUMPDEST PUSH8 0xB17217F7D1CF79AC DUP2 JUMP JUMPDEST PUSH1 0x0 DUP1 PUSH1 0x0 PUSH2 0x3EE DUP6 PUSH2 0x485 JUMP JUMPDEST SWAP2 POP SWAP2 POP PUSH1 0x0 PUSH1 0x2 DUP2 GT ISZERO PUSH2 0x3FF JUMPI INVALID JUMPDEST DUP5 PUSH1 0x2 DUP2 GT ISZERO PUSH2 0x40B JUMPI INVALID JUMPDEST EQ ISZERO PUSH2 0x41B JUMPI DUP2 SWAP3 POP POP POP PUSH2 0x47F JUMP JUMPDEST PUSH1 0x1 PUSH1 0x2 DUP2 GT ISZERO PUSH2 0x428 JUMPI INVALID JUMPDEST DUP5 PUSH1 0x2 DUP2 GT ISZERO PUSH2 0x434 JUMPI INVALID JUMPDEST EQ ISZERO PUSH2 0x444 JUMPI DUP1 SWAP3 POP POP POP PUSH2 0x47F JUMP JUMPDEST PUSH1 0x2 DUP1 DUP2 GT ISZERO PUSH2 0x450 JUMPI INVALID JUMPDEST DUP5 PUSH1 0x2 DUP2 GT ISZERO PUSH2 0x45C JUMPI INVALID JUMPDEST EQ ISZERO PUSH2 0x47A JUMPI DUP2 PUSH1 0x2 DUP4 DUP4 SUB DUP2 PUSH2 0x46F JUMPI INVALID JUMPDEST SDIV ADD SWAP3 POP POP POP PUSH2 0x47F JUMP JUMPDEST PUSH1 0x0 DUP1 REVERT JUMPDEST SWAP3 SWAP2 POP POP JUMP JUMPDEST PUSH1 0x0 DUP1 PUSH1 0x0 DUP4 GT PUSH2 0x495 JUMPI PUSH1 0x0 DUP1 REVERT JUMPDEST PUSH2 0x49E DUP4 PUSH2 0x65C JUMP JUMPDEST SWAP2 POP PUSH1 0x0 DUP1 DUP4 SLT ISZERO PUSH2 0x4B8 JUMPI DUP3 PUSH1 0x0 SUB DUP5 SWAP1 SHL SWAP1 POP PUSH2 0x4BF JUMP JUMPDEST DUP3 DUP5 SWAP1 SHR SWAP1 POP JUMPDEST PUSH9 0x10000000000000000 DUP4 MUL SWAP3 POP PUSH1 0x0 PUSH1 0x1 SWAP1 POP JUMPDEST PUSH1 0x40 DUP2 SGT PUSH2 0x553 JUMPI PUSH9 0x10000000000000000 DUP3 EQ ISZERO PUSH2 0x4F2 JUMPI PUSH2 0x553 JUMP JUMPDEST PUSH9 0x10000000000000000 DUP3 DUP4 MUL DUP2 PUSH2 0x506 JUMPI INVALID JUMPDEST DIV SWAP2 POP PUSH9 0x10000000000000000 PUSH1 0x2 MUL DUP3 LT PUSH2 0x546 JUMPI DUP1 PUSH9 0x10000000000000000 PUSH1 0x0 DUP3 SLT ISZERO PUSH2 0x532 JUMPI INVALID JUMPDEST SWAP1 SHR DUP5 ADD SWAP4 POP PUSH1 0x2 DUP3 DUP2 PUSH2 0x542 JUMPI INVALID JUMPDEST DIV SWAP2 POP JUMPDEST DUP1 DUP1 PUSH1 0x1 ADD SWAP2 POP POP PUSH2 0x4D4 JUMP JUMPDEST POP DUP3 PUSH1 0x4 DUP5 ADD SWAP3 POP SWAP3 POP POP SWAP2 POP SWAP2 JUMP JUMPDEST PUSH1 0x0 DUP1 PUSH1 0x0 PUSH2 0x571 DUP6 PUSH2 0x705 JUMP JUMPDEST SWAP2 POP SWAP2 POP PUSH1 0x0 PUSH1 0x2 DUP2 GT ISZERO PUSH2 0x582 JUMPI INVALID JUMPDEST DUP5 PUSH1 0x2 DUP2 GT ISZERO PUSH2 0x58E JUMPI INVALID JUMPDEST EQ ISZERO PUSH2 0x59E JUMPI DUP2 SWAP3 POP POP POP PUSH2 0x602 JUMP JUMPDEST PUSH1 0x1 PUSH1 0x2 DUP2 GT ISZERO PUSH2 0x5AB JUMPI INVALID JUMPDEST DUP5 PUSH1 0x2 DUP2 GT ISZERO PUSH2 0x5B7 JUMPI INVALID JUMPDEST EQ ISZERO PUSH2 0x5C7 JUMPI DUP1 SWAP3 POP POP POP PUSH2 0x602 JUMP JUMPDEST PUSH1 0x2 DUP1 DUP2 GT ISZERO PUSH2 0x5D3 JUMPI INVALID JUMPDEST DUP5 PUSH1 0x2 DUP2 GT ISZERO PUSH2 0x5DF JUMPI INVALID JUMPDEST EQ ISZERO PUSH2 0x5FD JUMPI DUP2 PUSH1 0x2 DUP4 DUP4 SUB DUP2 PUSH2 0x5F2 JUMPI INVALID JUMPDEST DIV ADD SWAP3 POP POP POP PUSH2 0x602 JUMP JUMPDEST PUSH1 0x0 DUP1 REVERT JUMPDEST SWAP3 SWAP2 POP POP JUMP JUMPDEST PUSH9 0x171547652B82FE177 DUP2 JUMP JUMPDEST PUSH1 0x0 DUP1 PUSH1 0x0 PUSH2 0x623 DUP5 PUSH2 0x485 JUMP JUMPDEST SWAP2 POP SWAP2 POP PUSH9 0x171547652B82FE177 PUSH9 0x10000000000000000 DUP4 PUSH1 0x2 DUP6 DUP6 SUB DUP2 PUSH2 0x648 JUMPI INVALID JUMPDEST SDIV ADD MUL DUP2 PUSH2 0x652 JUMPI INVALID JUMPDEST SDIV SWAP3 POP POP POP SWAP2 SWAP1 POP JUMP JUMPDEST PUSH1 0x0 PUSH32 0xFFFFFFFFFFFFFFFFFFFFFFFFFFFFFFFFFFFFFFFFFFFFFFFFFFFFFFFFFFFFFFC0 SWAP1 POP PUSH1 0x0 PUSH1 0xC1 SWAP1 POP PUSH1 0x0 PUSH1 0x1 DUP4 DUP4 ADD SWAP1 SAR SWAP1 POP JUMPDEST DUP2 PUSH1 0x1 DUP5 ADD SLT ISZERO PUSH2 0x6FE JUMPI PUSH1 0x0 DUP2 SLT DUP1 ISZERO PUSH2 0x6BC JUMPI POP PUSH9 0x10000000000000000 DUP2 PUSH1 0x0 SUB DUP6 SWAP1 SHL LT JUMPDEST DUP1 PUSH2 0x6DF JUMPI POP PUSH1 0x0 DUP2 SLT ISZERO DUP1 ISZERO PUSH2 0x6DE JUMPI POP PUSH9 0x10000000000000000 DUP2 DUP6 SWAP1 SHR LT JUMPDEST JUMPDEST ISZERO PUSH2 0x6EC JUMPI DUP1 SWAP2 POP PUSH2 0x6F0 JUMP JUMPDEST DUP1 SWAP3 POP JUMPDEST PUSH1 0x1 DUP4 DUP4 ADD SWAP1 SAR SWAP1 POP PUSH2 0x693 JUMP JUMPDEST POP POP SWAP2 SWAP1 POP JUMP JUMPDEST PUSH1 0x0 DUP1 PUSH9 0xBFFFFFFFFFFFFFFFFF DUP4 SGT ISZERO PUSH2 0x71E JUMPI PUSH1 0x0 DUP1 REVERT JUMPDEST PUSH32 0xFFFFFFFFFFFFFFFFFFFFFFFFFFFFFFFFFFFFFFFFFFFFFFC00000000000000000 DUP4 SLT ISZERO PUSH2 0x759 JUMPI PUSH1 0x0 PUSH1 0x1 DUP2 SWAP2 POP DUP1 SWAP1 POP SWAP2 POP SWAP2 POP PUSH2 0xBCD JUMP JUMPDEST PUSH1 0x0 DUP1 PUSH1 0x0 DUP6 SLT PUSH2 0x793 JUMPI PUSH9 0x10000000000000000 DUP6 DUP2 PUSH2 0x776 JUMPI INVALID JUMPDEST SDIV SWAP2 POP PUSH9 0x10000000000000000 DUP6 DUP2 PUSH2 0x78B JUMPI INVALID JUMPDEST SMOD SWAP1 POP PUSH2 0x7BF JUMP JUMPDEST PUSH1 0x1 PUSH9 0x10000000000000000 PUSH1 0x1 DUP8 ADD DUP2 PUSH2 0x7AA JUMPI INVALID JUMPDEST SDIV SUB SWAP2 POP DUP2 PUSH9 0x10000000000000000 MUL DUP6 SUB SWAP1 POP JUMPDEST PUSH1 0x0 DUP2 SLT ISZERO PUSH2 0x7CA JUMPI INVALID JUMPDEST PUSH1 0x0 PUSH1 0x40 PUSH9 0x10000000000000000 SWAP1 SHL SWAP1 POP PUSH1 0x0 DUP3 SWAP1 POP DUP1 PUSH8 0xB17217F7D1CF79AB MUL DUP3 ADD SWAP2 POP PUSH9 0x10000000000000000 DUP4 DUP3 MUL DUP2 PUSH2 0x804 JUMPI INVALID JUMPDEST SDIV SWAP1 POP PUSH1 0x2 DUP2 PUSH8 0xF5FDEFFC162C7543 MUL SWAP1 SAR DUP3 ADD SWAP2 POP PUSH9 0x10000000000000000 DUP4 DUP3 MUL DUP2 PUSH2 0x82E JUMPI INVALID JUMPDEST SDIV SWAP1 POP PUSH1 0x4 DUP2 PUSH8 0xE35846B82505FC59 MUL SWAP1 SAR DUP3 ADD SWAP2 POP PUSH9 0x10000000000000000 DUP4 DUP3 MUL DUP2 PUSH2 0x858 JUMPI INVALID JUMPDEST SDIV SWAP1 POP PUSH1 0x6 DUP2 PUSH8 0x9D955B7DD273B94E MUL SWAP1 SAR DUP3 ADD SWAP2 POP PUSH9 0x10000000000000000 DUP4 DUP3 MUL DUP2 PUSH2 0x882 JUMPI INVALID JUMPDEST SDIV SWAP1 POP PUSH1 0x9 DUP2 PUSH8 0xAEC3FF3C53398883 MUL SWAP1 SAR DUP3 ADD SWAP2 POP PUSH9 0x10000000000000000 DUP4 DUP3 MUL DUP2 PUSH2 0x8AC JUMPI INVALID JUMPDEST SDIV SWAP1 POP PUSH1 0xC DUP2 PUSH8 0xA184897C363C3B7A MUL SWAP1 SAR DUP3 ADD SWAP2 POP PUSH9 0x10000000000000000 DUP4 DUP3 MUL DUP2 PUSH2 0x8D6 JUMPI INVALID JUMPDEST SDIV SWAP1 POP PUSH1 0x10 DUP2 PUSH8 0xFFE5FE2C45863435 MUL SWAP1 SAR DUP3 ADD SWAP2 POP PUSH9 0x10000000000000000 DUP4 DUP3 MUL DUP2 PUSH2 0x900 JUMPI INVALID JUMPDEST SDIV SWAP1 POP PUSH1 0x13 DUP2 PUSH8 0xB160111D2E411FEC MUL SWAP1 SAR DUP3 ADD SWAP2 POP PUSH9 0x10000000000000000 DUP4 DUP3 MUL DUP2 PUSH2 0x92A JUMPI INVALID JUMPDEST SDIV SWAP1 POP PUSH1 0x17 DUP2 PUSH8 0xDA929E9CAF3E1ED2 MUL SWAP1 SAR DUP3 ADD SWAP2 POP PUSH9 0x10000000000000000 DUP4 DUP3 MUL DUP2 PUSH2 0x954 JUMPI INVALID JUMPDEST SDIV SWAP1 POP PUSH1 0x1B DUP2 PUSH8 0xF267A8AC5C764FB7 MUL SWAP1 SAR DUP3 ADD SWAP2 POP PUSH9 0x10000000000000000 DUP4 DUP3 MUL DUP2 PUSH2 0x97E JUMPI INVALID JUMPDEST SDIV SWAP1 POP PUSH1 0x1F DUP2 PUSH8 0xF465639A8DD92607 MUL SWAP1 SAR DUP3 ADD SWAP2 POP PUSH9 0x10000000000000000 DUP4 DUP3 MUL DUP2 PUSH2 0x9A8 JUMPI INVALID JUMPDEST SDIV SWAP1 POP PUSH1 0x23 DUP2 PUSH8 0xE1DEB287E14C2F15 MUL SWAP1 SAR DUP3 ADD SWAP2 POP PUSH9 0x10000000000000000 DUP4 DUP3 MUL DUP2 PUSH2 0x9D2 JUMPI INVALID JUMPDEST SDIV SWAP1 POP PUSH1 0x27 DUP2 PUSH8 0xC0B0C98B3687CB14 MUL SWAP1 SAR DUP3 ADD SWAP2 POP PUSH9 0x10000000000000000 DUP4 DUP3 MUL DUP2 PUSH2 0x9FC JUMPI INVALID JUMPDEST SDIV SWAP1 POP PUSH1 0x2B DUP2 PUSH8 0x98A4B26AC3C54B9F MUL SWAP1 SAR DUP3 ADD SWAP2 POP PUSH9 0x10000000000000000 DUP4 DUP3 MUL DUP2 PUSH2 0xA26 JUMPI INVALID JUMPDEST SDIV SWAP1 POP PUSH1 0x30 DUP2 PUSH8 0xE1B7421D82010F33 MUL SWAP1 SAR DUP3 ADD SWAP2 POP PUSH9 0x10000000000000000 DUP4 DUP3 MUL DUP2 PUSH2 0xA50 JUMPI INVALID JUMPDEST SDIV SWAP1 POP PUSH1 0x34 DUP2 PUSH8 0x9C744D73CFC59C91 MUL SWAP1 SAR DUP3 ADD SWAP2 POP PUSH9 0x10000000000000000 DUP4 DUP3 MUL DUP2 PUSH2 0xA7A JUMPI INVALID JUMPDEST SDIV SWAP1 POP PUSH1 0x39 DUP2 PUSH8 0xCC2225A0E12D3EAB MUL SWAP1 SAR DUP3 ADD SWAP2 POP PUSH9 0x10000000000000000 DUP4 DUP3 MUL DUP2 PUSH2 0xAA4 JUMPI INVALID JUMPDEST SDIV SWAP1 POP PUSH1 0x3E DUP2 PUSH8 0xFB8BB5EDA1B4AEB9 MUL SWAP1 SAR SWAP1 POP DUP1 DUP3 ADD SWAP2 POP PUSH9 0x10000000000000000 PUSH1 0x8 MUL SWAP1 POP PUSH1 0x40 DUP5 SUB SWAP4 POP PUSH1 0x0 DUP5 SLT PUSH2 0xB92 JUMPI PUSH1 0x0 DUP5 PUSH2 0x100 SUB DUP4 PUSH1 0x0 DUP3 SLT ISZERO PUSH2 0xAED JUMPI INVALID JUMPDEST SWAP1 SAR EQ ISZERO PUSH2 0xB5D JUMPI DUP4 DUP3 PUSH1 0x0 DUP3 SLT ISZERO PUSH2 0xB02 JUMPI INVALID JUMPDEST SWAP1 SHL SWAP6 POP DUP4 DUP2 PUSH1 0x0 DUP3 SLT ISZERO PUSH2 0xB13 JUMPI INVALID JUMPDEST SWAP1 SHL SWAP1 POP DUP6 DUP2 DUP8 ADD LT PUSH2 0xB2A JUMPI DUP1 DUP7 ADD SWAP5 POP PUSH2 0xB4E JUMP JUMPDEST PUSH32 0xFFFFFFFFFFFFFFFFFFFFFFFFFFFFFFFFFFFFFFFFFFFFFFFFFFFFFFFFFFFFFFFF SWAP5 POP JUMPDEST DUP6 DUP6 SWAP6 POP SWAP6 POP POP POP POP POP PUSH2 0xBCD JUMP JUMPDEST PUSH32 0xFFFFFFFFFFFFFFFFFFFFFFFFFFFFFFFFFFFFFFFFFFFFFFFFFFFFFFFFFFFFFFFF DUP1 DUP2 SWAP2 POP DUP1 SWAP1 POP SWAP6 POP SWAP6 POP POP POP POP POP PUSH2 0xBCD JUMP JUMPDEST PUSH1 0x1 DUP5 PUSH1 0x0 SUB DUP3 PUSH1 0x0 DUP3 SLT ISZERO PUSH2 0xBA4 JUMPI INVALID JUMPDEST SWAP1 SAR ADD SWAP1 POP DUP4 PUSH1 0x0 SUB DUP3 PUSH1 0x0 DUP3 SLT ISZERO PUSH2 0xBB9 JUMPI INVALID JUMPDEST SWAP1 SHR SWAP6 POP DUP1 DUP7 ADD SWAP5 POP DUP6 DUP6 SWAP6 POP SWAP6 POP POP POP POP POP JUMPDEST SWAP2 POP SWAP2 JUMP JUMPDEST PUSH9 0x10000000000000000 DUP2 JUMP JUMPDEST PUSH1 0x0 DUP1 DUP3 MLOAD GT PUSH2 0xBEE JUMPI PUSH1 0x0 DUP1 REVERT JUMPDEST PUSH32 0x8000000000000000000000000000000000000000000000000000000000000000 SWAP1 POP PUSH1 0x0 DUP1 SWAP1 POP JUMPDEST DUP3 MLOAD DUP2 LT ISZERO PUSH2 0xC5F JUMPI DUP2 DUP4 DUP3 DUP2 MLOAD DUP2 LT PUSH2 0xC2D JUMPI INVALID JUMPDEST PUSH1 0x20 MUL PUSH1 0x20 ADD ADD MLOAD SGT ISZERO PUSH2 0xC52 JUMPI DUP3 DUP2 DUP2 MLOAD DUP2 LT PUSH2 0xC47 JUMPI INVALID JUMPDEST PUSH1 0x20 MUL PUSH1 0x20 ADD ADD MLOAD SWAP2 POP JUMPDEST DUP1 DUP1 PUSH1 0x1 ADD SWAP2 POP POP PUSH2 0xC17 JUMP JUMPDEST POP SWAP2 SWAP1 POP JUMP JUMPDEST PUSH1 0x0 PUSH9 0x851591F9DD5B9B40D7 DUP3 SGT ISZERO PUSH2 0xC7D JUMPI PUSH1 0x0 DUP1 REVERT JUMPDEST PUSH32 0xFFFFFFFFFFFFFFFFFFFFFFFFFFFFFFFFFFFFFFFFFFFFFFD3A37A020B8C21950D DUP3 SGT PUSH2 0xCAD JUMPI PUSH1 0x0 SWAP1 POP PUSH2 0xCED JUMP JUMPDEST PUSH1 0x0 DUP1 PUSH2 0xCD5 PUSH8 0xB17217F7D1CF79AC PUSH9 0x10000000000000000 DUP7 MUL DUP2 PUSH2 0xCCF JUMPI INVALID JUMPDEST SDIV PUSH2 0x705 JUMP JUMPDEST SWAP2 POP SWAP2 POP DUP2 PUSH1 0x2 DUP4 DUP4 SUB DUP2 PUSH2 0xCE6 JUMPI INVALID JUMPDEST DIV ADD SWAP3 POP POP POP JUMPDEST SWAP2 SWAP1 POP JUMP INVALID LOG2 PUSH6 0x627A7A723058 KECCAK256 AND SWAP12 0xc9 0xe3 0xab 0xd6 0xe0 0xba 0xb5 PUSH20 0xD3BB9DEB31D9760871EF70461591EC2FB3392277 0x49 0xc PUSH5 0x736F6C6343 STOP SDIV EXP STOP ORIGIN "
		},
		"gasEstimates": {
			"creation": {
				"codeDepositCost": "673400",
				"executionCost": "733",
				"totalCost": "674133"
			},
			"external": {
				"LN2()": "190",
				"LOG2_E()": "278",
				"ONE()": "255",
				"binaryLog(uint256,Fixed192x64Math.EstimationMode)": "infinite",
				"exp(int256)": "2338",
				"floorLog2(uint256)": "infinite",
				"ln(uint256)": "infinite",
				"log2Bounds(uint256)": "infinite",
				"max(int256[])": "infinite",
				"pow2(int256,Fixed192x64Math.EstimationMode)": "2492",
				"pow2Bounds(int256)": "2106"
			}
		},
		"methodIdentifiers": {
			"LN2()": "02780677",
			"LOG2_E()": "24902e24",
			"ONE()": "c2ee3a08",
			"binaryLog(uint256,Fixed192x64Math.EstimationMode)": "137bf798",
			"exp(int256)": "e46751e3",
			"floorLog2(uint256)": "45b8bafc",
			"ln(uint256)": "24d4e90a",
			"log2Bounds(uint256)": "1427f168",
			"max(int256[])": "ccc13814",
			"pow2(int256,Fixed192x64Math.EstimationMode)": "1d580123",
			"pow2Bounds(int256)": "c1266227"
		}
	},
	"abi": [
		{
			"constant": true,
			"inputs": [],
			"name": "LN2",
			"outputs": [
				{
					"name": "",
					"type": "uint256"
				}
			],
			"payable": false,
			"stateMutability": "view",
			"type": "function"
		},
		{
			"constant": true,
			"inputs": [
				{
					"name": "x",
					"type": "uint256"
				},
				{
					"name": "estimationMode",
					"type": "Fixed192x64Math.EstimationMode"
				}
			],
			"name": "binaryLog",
			"outputs": [
				{
					"name": "",
					"type": "int256"
				}
			],
			"payable": false,
			"stateMutability": "view",
			"type": "function"
		},
		{
			"constant": true,
			"inputs": [
				{
					"name": "x",
					"type": "uint256"
				}
			],
			"name": "log2Bounds",
			"outputs": [
				{
					"name": "lower",
					"type": "int256"
				},
				{
					"name": "upper",
					"type": "int256"
				}
			],
			"payable": false,
			"stateMutability": "view",
			"type": "function"
		},
		{
			"constant": true,
			"inputs": [
				{
					"name": "x",
					"type": "int256"
				},
				{
					"name": "estimationMode",
					"type": "Fixed192x64Math.EstimationMode"
				}
			],
			"name": "pow2",
			"outputs": [
				{
					"name": "",
					"type": "uint256"
				}
			],
			"payable": false,
			"stateMutability": "view",
			"type": "function"
		},
		{
			"constant": true,
			"inputs": [],
			"name": "LOG2_E",
			"outputs": [
				{
					"name": "",
					"type": "uint256"
				}
			],
			"payable": false,
			"stateMutability": "view",
			"type": "function"
		},
		{
			"constant": true,
			"inputs": [
				{
					"name": "x",
					"type": "uint256"
				}
			],
			"name": "ln",
			"outputs": [
				{
					"name": "",
					"type": "int256"
				}
			],
			"payable": false,
			"stateMutability": "view",
			"type": "function"
		},
		{
			"constant": true,
			"inputs": [
				{
					"name": "x",
					"type": "uint256"
				}
			],
			"name": "floorLog2",
			"outputs": [
				{
					"name": "lo",
					"type": "int256"
				}
			],
			"payable": false,
			"stateMutability": "view",
			"type": "function"
		},
		{
			"constant": true,
			"inputs": [
				{
					"name": "x",
					"type": "int256"
				}
			],
			"name": "pow2Bounds",
			"outputs": [
				{
					"name": "lower",
					"type": "uint256"
				},
				{
					"name": "upper",
					"type": "uint256"
				}
			],
			"payable": false,
			"stateMutability": "view",
			"type": "function"
		},
		{
			"constant": true,
			"inputs": [],
			"name": "ONE",
			"outputs": [
				{
					"name": "",
					"type": "uint256"
				}
			],
			"payable": false,
			"stateMutability": "view",
			"type": "function"
		},
		{
			"constant": true,
			"inputs": [
				{
					"name": "nums",
					"type": "int256[]"
				}
			],
			"name": "max",
			"outputs": [
				{
					"name": "maxNum",
					"type": "int256"
				}
			],
			"payable": false,
			"stateMutability": "view",
			"type": "function"
		},
		{
			"constant": true,
			"inputs": [
				{
					"name": "x",
					"type": "int256"
				}
			],
			"name": "exp",
			"outputs": [
				{
					"name": "",
					"type": "uint256"
				}
			],
			"payable": false,
			"stateMutability": "view",
			"type": "function"
		}
	]
}