{
	"data": {
		"bytecode": {
			"linkReferences": {},
			"object": "6080604052670de0b6b3a764000060005534801561001c57600080fd5b506106c98061002c6000396000f3fe608060405234801561001057600080fd5b50600436106100625760003560e01c80631ceae42f1461006757806326eebf41146100a957806386481d40146100f557806387c5d5cc14610137578063e08f0797146102a1578063f7ad55d9146102e3575b600080fd5b6100936004803603602081101561007d57600080fd5b8101908080359060200190929190505050610325565b6040518082815260200191505060405180910390f35b6100df600480360360408110156100bf57600080fd5b810190808035906020019092919080359060200190929190505050610395565b6040518082815260200191505060405180910390f35b6101216004803603602081101561010b57600080fd5b810190808035906020019092919050505061048d565b6040518082815260200191505060405180910390f35b6102876004803603604081101561014d57600080fd5b810190808035906020019064010000000081111561016a57600080fd5b82018360208201111561017c57600080fd5b8035906020019184600183028401116401000000008311171561019e57600080fd5b91908080601f016020809104026020016040519081016040528093929190818152602001838380828437600081840152601f19601f8201169050808301925050505050505091929192908035906020019064010000000081111561020157600080fd5b82018360208201111561021357600080fd5b8035906020019184600183028401116401000000008311171561023557600080fd5b91908080601f016020809104026020016040519081016040528093929190818152602001838380828437600081840152601f19601f820116905080830192505050505050509192919290505050610510565b604051808215151515815260200191505060405180910390f35b6102cd600480360360208110156102b757600080fd5b8101908080359060200190929190505050610610565b6040518082815260200191505060405180910390f35b61030f600480360360208110156102f957600080fd5b8101908080359060200190929190505050610652565b6040518082815260200191505060405180910390f35b60008054600102821015801561034057506000546005028211155b1561034e5760019050610390565b60005460060282101580156103685750600054600a028211155b156103765760029050610390565b600054600b02821061038b5760039050610390565b600090505b919050565b60006001831480156103a75750600182145b156103b55760329050610487565b6002831480156103c55750600182145b156103d35760469050610487565b6002831480156103e35750600282145b156103f15760329050610487565b600383141561048257600182141561040c5760649050610487565b600282141561041e5760469050610487565b60038214156104305760329050610487565b600482101580156104425750600a8211155b1561045057600a9050610487565b600b8210158015610462575060148211155b156104705760059050610487565b601582106104815760019050610487565b5b600090505b92915050565b6000805460010282101580156104a857506000546005028211155b156104b6576001905061050b565b60005460060282101580156104d05750600054600a028211155b156104de576002905061050b565b600054600b0282101580156104f85750600054600f028211155b15610506576003905061050b565b600090505b919050565b6000816040516020018082805190602001908083835b602083106105495780518252602082019150602081019050602083039250610526565b6001836020036101000a03801982511681845116808217855250505050505090500191505060405160208183030381529060405280519060200120836040516020018082805190602001908083835b602083106105bb5780518252602082019150602081019050602083039250610598565b6001836020036101000a038019825116818451168082178552505050505050905001915050604051602081830303815290604052805190602001201415610605576001905061060a565b600090505b92915050565b60006001821415610624576003905061064d565b6002821415610636576006905061064d565b600382141561064857600a905061064d565b600090505b919050565b60006001821415610666576005905061068f565b6002821415610678576007905061068f565b600382141561068a57600a905061068f565b600090505b91905056fea265627a7a72315820edbd5741bb6f41564b8b3444be1bd6dd5bcb287bc8192085adf26ee169daa9b664736f6c63430005110032",
			"opcodes": "PUSH1 0x80 PUSH1 0x40 MSTORE PUSH8 0xDE0B6B3A7640000 PUSH1 0x0 SSTORE CALLVALUE DUP1 ISZERO PUSH2 0x1C JUMPI PUSH1 0x0 DUP1 REVERT JUMPDEST POP PUSH2 0x6C9 DUP1 PUSH2 0x2C PUSH1 0x0 CODECOPY PUSH1 0x0 RETURN INVALID PUSH1 0x80 PUSH1 0x40 MSTORE CALLVALUE DUP1 ISZERO PUSH2 0x10 JUMPI PUSH1 0x0 DUP1 REVERT JUMPDEST POP PUSH1 0x4 CALLDATASIZE LT PUSH2 0x62 JUMPI PUSH1 0x0 CALLDATALOAD PUSH1 0xE0 SHR DUP1 PUSH4 0x1CEAE42F EQ PUSH2 0x67 JUMPI DUP1 PUSH4 0x26EEBF41 EQ PUSH2 0xA9 JUMPI DUP1 PUSH4 0x86481D40 EQ PUSH2 0xF5 JUMPI DUP1 PUSH4 0x87C5D5CC EQ PUSH2 0x137 JUMPI DUP1 PUSH4 0xE08F0797 EQ PUSH2 0x2A1 JUMPI DUP1 PUSH4 0xF7AD55D9 EQ PUSH2 0x2E3 JUMPI JUMPDEST PUSH1 0x0 DUP1 REVERT JUMPDEST PUSH2 0x93 PUSH1 0x4 DUP1 CALLDATASIZE SUB PUSH1 0x20 DUP2 LT ISZERO PUSH2 0x7D JUMPI PUSH1 0x0 DUP1 REVERT JUMPDEST DUP2 ADD SWAP1 DUP1 DUP1 CALLDATALOAD SWAP1 PUSH1 0x20 ADD SWAP1 SWAP3 SWAP2 SWAP1 POP POP POP PUSH2 0x325 JUMP JUMPDEST PUSH1 0x40 MLOAD DUP1 DUP3 DUP2 MSTORE PUSH1 0x20 ADD SWAP2 POP POP PUSH1 0x40 MLOAD DUP1 SWAP2 SUB SWAP1 RETURN JUMPDEST PUSH2 0xDF PUSH1 0x4 DUP1 CALLDATASIZE SUB PUSH1 0x40 DUP2 LT ISZERO PUSH2 0xBF JUMPI PUSH1 0x0 DUP1 REVERT JUMPDEST DUP2 ADD SWAP1 DUP1 DUP1 CALLDATALOAD SWAP1 PUSH1 0x20 ADD SWAP1 SWAP3 SWAP2 SWAP1 DUP1 CALLDATALOAD SWAP1 PUSH1 0x20 ADD SWAP1 SWAP3 SWAP2 SWAP1 POP POP POP PUSH2 0x395 JUMP JUMPDEST PUSH1 0x40 MLOAD DUP1 DUP3 DUP2 MSTORE PUSH1 0x20 ADD SWAP2 POP POP PUSH1 0x40 MLOAD DUP1 SWAP2 SUB SWAP1 RETURN JUMPDEST PUSH2 0x121 PUSH1 0x4 DUP1 CALLDATASIZE SUB PUSH1 0x20 DUP2 LT ISZERO PUSH2 0x10B JUMPI PUSH1 0x0 DUP1 REVERT JUMPDEST DUP2 ADD SWAP1 DUP1 DUP1 CALLDATALOAD SWAP1 PUSH1 0x20 ADD SWAP1 SWAP3 SWAP2 SWAP1 POP POP POP PUSH2 0x48D JUMP JUMPDEST PUSH1 0x40 MLOAD DUP1 DUP3 DUP2 MSTORE PUSH1 0x20 ADD SWAP2 POP POP PUSH1 0x40 MLOAD DUP1 SWAP2 SUB SWAP1 RETURN JUMPDEST PUSH2 0x287 PUSH1 0x4 DUP1 CALLDATASIZE SUB PUSH1 0x40 DUP2 LT ISZERO PUSH2 0x14D JUMPI PUSH1 0x0 DUP1 REVERT JUMPDEST DUP2 ADD SWAP1 DUP1 DUP1 CALLDATALOAD SWAP1 PUSH1 0x20 ADD SWAP1 PUSH5 0x100000000 DUP2 GT ISZERO PUSH2 0x16A JUMPI PUSH1 0x0 DUP1 REVERT JUMPDEST DUP3 ADD DUP4 PUSH1 0x20 DUP3 ADD GT ISZERO PUSH2 0x17C JUMPI PUSH1 0x0 DUP1 REVERT JUMPDEST DUP1 CALLDATALOAD SWAP1 PUSH1 0x20 ADD SWAP2 DUP5 PUSH1 0x1 DUP4 MUL DUP5 ADD GT PUSH5 0x100000000 DUP4 GT OR ISZERO PUSH2 0x19E JUMPI PUSH1 0x0 DUP1 REVERT JUMPDEST SWAP2 SWAP1 DUP1 DUP1 PUSH1 0x1F ADD PUSH1 0x20 DUP1 SWAP2 DIV MUL PUSH1 0x20 ADD PUSH1 0x40 MLOAD SWAP1 DUP2 ADD PUSH1 0x40 MSTORE DUP1 SWAP4 SWAP3 SWAP2 SWAP1 DUP2 DUP2 MSTORE PUSH1 0x20 ADD DUP4 DUP4 DUP1 DUP3 DUP5 CALLDATACOPY PUSH1 0x0 DUP2 DUP5 ADD MSTORE PUSH1 0x1F NOT PUSH1 0x1F DUP3 ADD AND SWAP1 POP DUP1 DUP4 ADD SWAP3 POP POP POP POP POP POP POP SWAP2 SWAP3 SWAP2 SWAP3 SWAP1 DUP1 CALLDATALOAD SWAP1 PUSH1 0x20 ADD SWAP1 PUSH5 0x100000000 DUP2 GT ISZERO PUSH2 0x201 JUMPI PUSH1 0x0 DUP1 REVERT JUMPDEST DUP3 ADD DUP4 PUSH1 0x20 DUP3 ADD GT ISZERO PUSH2 0x213 JUMPI PUSH1 0x0 DUP1 REVERT JUMPDEST DUP1 CALLDATALOAD SWAP1 PUSH1 0x20 ADD SWAP2 DUP5 PUSH1 0x1 DUP4 MUL DUP5 ADD GT PUSH5 0x100000000 DUP4 GT OR ISZERO PUSH2 0x235 JUMPI PUSH1 0x0 DUP1 REVERT JUMPDEST SWAP2 SWAP1 DUP1 DUP1 PUSH1 0x1F ADD PUSH1 0x20 DUP1 SWAP2 DIV MUL PUSH1 0x20 ADD PUSH1 0x40 MLOAD SWAP1 DUP2 ADD PUSH1 0x40 MSTORE DUP1 SWAP4 SWAP3 SWAP2 SWAP1 DUP2 DUP2 MSTORE PUSH1 0x20 ADD DUP4 DUP4 DUP1 DUP3 DUP5 CALLDATACOPY PUSH1 0x0 DUP2 DUP5 ADD MSTORE PUSH1 0x1F NOT PUSH1 0x1F DUP3 ADD AND SWAP1 POP DUP1 DUP4 ADD SWAP3 POP POP POP POP POP POP POP SWAP2 SWAP3 SWAP2 SWAP3 SWAP1 POP POP POP PUSH2 0x510 JUMP JUMPDEST PUSH1 0x40 MLOAD DUP1 DUP3 ISZERO ISZERO ISZERO ISZERO DUP2 MSTORE PUSH1 0x20 ADD SWAP2 POP POP PUSH1 0x40 MLOAD DUP1 SWAP2 SUB SWAP1 RETURN JUMPDEST PUSH2 0x2CD PUSH1 0x4 DUP1 CALLDATASIZE SUB PUSH1 0x20 DUP2 LT ISZERO PUSH2 0x2B7 JUMPI PUSH1 0x0 DUP1 REVERT JUMPDEST DUP2 ADD SWAP1 DUP1 DUP1 CALLDATALOAD SWAP1 PUSH1 0x20 ADD SWAP1 SWAP3 SWAP2 SWAP1 POP POP POP PUSH2 0x610 JUMP JUMPDEST PUSH1 0x40 MLOAD DUP1 DUP3 DUP2 MSTORE PUSH1 0x20 ADD SWAP2 POP POP PUSH1 0x40 MLOAD DUP1 SWAP2 SUB SWAP1 RETURN JUMPDEST PUSH2 0x30F PUSH1 0x4 DUP1 CALLDATASIZE SUB PUSH1 0x20 DUP2 LT ISZERO PUSH2 0x2F9 JUMPI PUSH1 0x0 DUP1 REVERT JUMPDEST DUP2 ADD SWAP1 DUP1 DUP1 CALLDATALOAD SWAP1 PUSH1 0x20 ADD SWAP1 SWAP3 SWAP2 SWAP1 POP POP POP PUSH2 0x652 JUMP JUMPDEST PUSH1 0x40 MLOAD DUP1 DUP3 DUP2 MSTORE PUSH1 0x20 ADD SWAP2 POP POP PUSH1 0x40 MLOAD DUP1 SWAP2 SUB SWAP1 RETURN JUMPDEST PUSH1 0x0 DUP1 SLOAD PUSH1 0x1 MUL DUP3 LT ISZERO DUP1 ISZERO PUSH2 0x340 JUMPI POP PUSH1 0x0 SLOAD PUSH1 0x5 MUL DUP3 GT ISZERO JUMPDEST ISZERO PUSH2 0x34E JUMPI PUSH1 0x1 SWAP1 POP PUSH2 0x390 JUMP JUMPDEST PUSH1 0x0 SLOAD PUSH1 0x6 MUL DUP3 LT ISZERO DUP1 ISZERO PUSH2 0x368 JUMPI POP PUSH1 0x0 SLOAD PUSH1 0xA MUL DUP3 GT ISZERO JUMPDEST ISZERO PUSH2 0x376 JUMPI PUSH1 0x2 SWAP1 POP PUSH2 0x390 JUMP JUMPDEST PUSH1 0x0 SLOAD PUSH1 0xB MUL DUP3 LT PUSH2 0x38B JUMPI PUSH1 0x3 SWAP1 POP PUSH2 0x390 JUMP JUMPDEST PUSH1 0x0 SWAP1 POP JUMPDEST SWAP2 SWAP1 POP JUMP JUMPDEST PUSH1 0x0 PUSH1 0x1 DUP4 EQ DUP1 ISZERO PUSH2 0x3A7 JUMPI POP PUSH1 0x1 DUP3 EQ JUMPDEST ISZERO PUSH2 0x3B5 JUMPI PUSH1 0x32 SWAP1 POP PUSH2 0x487 JUMP JUMPDEST PUSH1 0x2 DUP4 EQ DUP1 ISZERO PUSH2 0x3C5 JUMPI POP PUSH1 0x1 DUP3 EQ JUMPDEST ISZERO PUSH2 0x3D3 JUMPI PUSH1 0x46 SWAP1 POP PUSH2 0x487 JUMP JUMPDEST PUSH1 0x2 DUP4 EQ DUP1 ISZERO PUSH2 0x3E3 JUMPI POP PUSH1 0x2 DUP3 EQ JUMPDEST ISZERO PUSH2 0x3F1 JUMPI PUSH1 0x32 SWAP1 POP PUSH2 0x487 JUMP JUMPDEST PUSH1 0x3 DUP4 EQ ISZERO PUSH2 0x482 JUMPI PUSH1 0x1 DUP3 EQ ISZERO PUSH2 0x40C JUMPI PUSH1 0x64 SWAP1 POP PUSH2 0x487 JUMP JUMPDEST PUSH1 0x2 DUP3 EQ ISZERO PUSH2 0x41E JUMPI PUSH1 0x46 SWAP1 POP PUSH2 0x487 JUMP JUMPDEST PUSH1 0x3 DUP3 EQ ISZERO PUSH2 0x430 JUMPI PUSH1 0x32 SWAP1 POP PUSH2 0x487 JUMP JUMPDEST PUSH1 0x4 DUP3 LT ISZERO DUP1 ISZERO PUSH2 0x442 JUMPI POP PUSH1 0xA DUP3 GT ISZERO JUMPDEST ISZERO PUSH2 0x450 JUMPI PUSH1 0xA SWAP1 POP PUSH2 0x487 JUMP JUMPDEST PUSH1 0xB DUP3 LT ISZERO DUP1 ISZERO PUSH2 0x462 JUMPI POP PUSH1 0x14 DUP3 GT ISZERO JUMPDEST ISZERO PUSH2 0x470 JUMPI PUSH1 0x5 SWAP1 POP PUSH2 0x487 JUMP JUMPDEST PUSH1 0x15 DUP3 LT PUSH2 0x481 JUMPI PUSH1 0x1 SWAP1 POP PUSH2 0x487 JUMP JUMPDEST JUMPDEST PUSH1 0x0 SWAP1 POP JUMPDEST SWAP3 SWAP2 POP POP JUMP JUMPDEST PUSH1 0x0 DUP1 SLOAD PUSH1 0x1 MUL DUP3 LT ISZERO DUP1 ISZERO PUSH2 0x4A8 JUMPI POP PUSH1 0x0 SLOAD PUSH1 0x5 MUL DUP3 GT ISZERO JUMPDEST ISZERO PUSH2 0x4B6 JUMPI PUSH1 0x1 SWAP1 POP PUSH2 0x50B JUMP JUMPDEST PUSH1 0x0 SLOAD PUSH1 0x6 MUL DUP3 LT ISZERO DUP1 ISZERO PUSH2 0x4D0 JUMPI POP PUSH1 0x0 SLOAD PUSH1 0xA MUL DUP3 GT ISZERO JUMPDEST ISZERO PUSH2 0x4DE JUMPI PUSH1 0x2 SWAP1 POP PUSH2 0x50B JUMP JUMPDEST PUSH1 0x0 SLOAD PUSH1 0xB MUL DUP3 LT ISZERO DUP1 ISZERO PUSH2 0x4F8 JUMPI POP PUSH1 0x0 SLOAD PUSH1 0xF MUL DUP3 GT ISZERO JUMPDEST ISZERO PUSH2 0x506 JUMPI PUSH1 0x3 SWAP1 POP PUSH2 0x50B JUMP JUMPDEST PUSH1 0x0 SWAP1 POP JUMPDEST SWAP2 SWAP1 POP JUMP JUMPDEST PUSH1 0x0 DUP2 PUSH1 0x40 MLOAD PUSH1 0x20 ADD DUP1 DUP3 DUP1 MLOAD SWAP1 PUSH1 0x20 ADD SWAP1 DUP1 DUP4 DUP4 JUMPDEST PUSH1 0x20 DUP4 LT PUSH2 0x549 JUMPI DUP1 MLOAD DUP3 MSTORE PUSH1 0x20 DUP3 ADD SWAP2 POP PUSH1 0x20 DUP2 ADD SWAP1 POP PUSH1 0x20 DUP4 SUB SWAP3 POP PUSH2 0x526 JUMP JUMPDEST PUSH1 0x1 DUP4 PUSH1 0x20 SUB PUSH2 0x100 EXP SUB DUP1 NOT DUP3 MLOAD AND DUP2 DUP5 MLOAD AND DUP1 DUP3 OR DUP6 MSTORE POP POP POP POP POP POP SWAP1 POP ADD SWAP2 POP POP PUSH1 0x40 MLOAD PUSH1 0x20 DUP2 DUP4 SUB SUB DUP2 MSTORE SWAP1 PUSH1 0x40 MSTORE DUP1 MLOAD SWAP1 PUSH1 0x20 ADD KECCAK256 DUP4 PUSH1 0x40 MLOAD PUSH1 0x20 ADD DUP1 DUP3 DUP1 MLOAD SWAP1 PUSH1 0x20 ADD SWAP1 DUP1 DUP4 DUP4 JUMPDEST PUSH1 0x20 DUP4 LT PUSH2 0x5BB JUMPI DUP1 MLOAD DUP3 MSTORE PUSH1 0x20 DUP3 ADD SWAP2 POP PUSH1 0x20 DUP2 ADD SWAP1 POP PUSH1 0x20 DUP4 SUB SWAP3 POP PUSH2 0x598 JUMP JUMPDEST PUSH1 0x1 DUP4 PUSH1 0x20 SUB PUSH2 0x100 EXP SUB DUP1 NOT DUP3 MLOAD AND DUP2 DUP5 MLOAD AND DUP1 DUP3 OR DUP6 MSTORE POP POP POP POP POP POP SWAP1 POP ADD SWAP2 POP POP PUSH1 0x40 MLOAD PUSH1 0x20 DUP2 DUP4 SUB SUB DUP2 MSTORE SWAP1 PUSH1 0x40 MSTORE DUP1 MLOAD SWAP1 PUSH1 0x20 ADD KECCAK256 EQ ISZERO PUSH2 0x605 JUMPI PUSH1 0x1 SWAP1 POP PUSH2 0x60A JUMP JUMPDEST PUSH1 0x0 SWAP1 POP JUMPDEST SWAP3 SWAP2 POP POP JUMP JUMPDEST PUSH1 0x0 PUSH1 0x1 DUP3 EQ ISZERO PUSH2 0x624 JUMPI PUSH1 0x3 SWAP1 POP PUSH2 0x64D JUMP JUMPDEST PUSH1 0x2 DUP3 EQ ISZERO PUSH2 0x636 JUMPI PUSH1 0x6 SWAP1 POP PUSH2 0x64D JUMP JUMPDEST PUSH1 0x3 DUP3 EQ ISZERO PUSH2 0x648 JUMPI PUSH1 0xA SWAP1 POP PUSH2 0x64D JUMP JUMPDEST PUSH1 0x0 SWAP1 POP JUMPDEST SWAP2 SWAP1 POP JUMP JUMPDEST PUSH1 0x0 PUSH1 0x1 DUP3 EQ ISZERO PUSH2 0x666 JUMPI PUSH1 0x5 SWAP1 POP PUSH2 0x68F JUMP JUMPDEST PUSH1 0x2 DUP3 EQ ISZERO PUSH2 0x678 JUMPI PUSH1 0x7 SWAP1 POP PUSH2 0x68F JUMP JUMPDEST PUSH1 0x3 DUP3 EQ ISZERO PUSH2 0x68A JUMPI PUSH1 0xA SWAP1 POP PUSH2 0x68F JUMP JUMPDEST PUSH1 0x0 SWAP1 POP JUMPDEST SWAP2 SWAP1 POP JUMP INVALID LOG2 PUSH6 0x627A7A723158 KECCAK256 0xED 0xBD JUMPI COINBASE 0xBB PUSH16 0x41564B8B3444BE1BD6DD5BCB287BC819 KECCAK256 DUP6 0xAD CALLCODE PUSH15 0xE169DAA9B664736F6C634300051100 ORIGIN "
		},
		"gasEstimates": {
			"creation": {
				"codeDepositCost": "347400",
				"executionCost": "20392",
				"totalCost": "367792"
			},
			"external": {
				"compareStr(string,string)": "infinite",
				"getFireScByLevel(uint256)": "455",
				"getLevel(uint256)": "5370",
				"getNodeLevel(uint256)": "4478",
				"getRecommendScaleByLevelAndTim(uint256,uint256)": "763",
				"getScByLevel(uint256)": "477"
			}
		},
		"methodIdentifiers": {
			"compareStr(string,string)": "87c5d5cc",
			"getFireScByLevel(uint256)": "e08f0797",
			"getLevel(uint256)": "86481d40",
			"getNodeLevel(uint256)": "1ceae42f",
			"getRecommendScaleByLevelAndTim(uint256,uint256)": "26eebf41",
			"getScByLevel(uint256)": "f7ad55d9"
		}
	},
	"abi": [
		{
			"constant": true,
			"inputs": [
				{
					"internalType": "string",
					"name": "_str",
					"type": "string"
				},
				{
					"internalType": "string",
					"name": "str",
					"type": "string"
				}
			],
			"name": "compareStr",
			"outputs": [
				{
					"internalType": "bool",
					"name": "",
					"type": "bool"
				}
			],
			"payable": false,
			"stateMutability": "view",
			"type": "function"
		},
		{
			"constant": true,
			"inputs": [
				{
					"internalType": "uint256",
					"name": "level",
					"type": "uint256"
				}
			],
			"name": "getFireScByLevel",
			"outputs": [
				{
					"internalType": "uint256",
					"name": "",
					"type": "uint256"
				}
			],
			"payable": false,
			"stateMutability": "view",
			"type": "function"
		},
		{
			"constant": true,
			"inputs": [
				{
					"internalType": "uint256",
					"name": "value",
					"type": "uint256"
				}
			],
			"name": "getLevel",
			"outputs": [
				{
					"internalType": "uint256",
					"name": "",
					"type": "uint256"
				}
			],
			"payable": false,
			"stateMutability": "view",
			"type": "function"
		},
		{
			"constant": true,
			"inputs": [
				{
					"internalType": "uint256",
					"name": "value",
					"type": "uint256"
				}
			],
			"name": "getNodeLevel",
			"outputs": [
				{
					"internalType": "uint256",
					"name": "",
					"type": "uint256"
				}
			],
			"payable": false,
			"stateMutability": "view",
			"type": "function"
		},
		{
			"constant": true,
			"inputs": [
				{
					"internalType": "uint256",
					"name": "level",
					"type": "uint256"
				},
				{
					"internalType": "uint256",
					"name": "times",
					"type": "uint256"
				}
			],
			"name": "getRecommendScaleByLevelAndTim",
			"outputs": [
				{
					"internalType": "uint256",
					"name": "",
					"type": "uint256"
				}
			],
			"payable": false,
			"stateMutability": "view",
			"type": "function"
		},
		{
			"constant": true,
			"inputs": [
				{
					"internalType": "uint256",
					"name": "level",
					"type": "uint256"
				}
			],
			"name": "getScByLevel",
			"outputs": [
				{
					"internalType": "uint256",
					"name": "",
					"type": "uint256"
				}
			],
			"payable": false,
			"stateMutability": "view",
			"type": "function"
		}
	]
}